{"contracts/NFTFlipGame.sol":{"NFTFlipGame":{"abi":[{"inputs":[{"internalType":"address","name":"_ethUsdFeed","type":"address"},{"internalType":"address","name":"_usdcToken","type":"address"},{"internalType":"address","name":"_platformFeeReceiver","type":"address"}],"stateMutability":"nonpayable","type":"constructor"},{"anonymous":false,"inputs":[{"indexed":true,"internalType":"bytes32","name":"gameId","type":"bytes32"},{"indexed":false,"internalType":"address","name":"player","type":"address"},{"indexed":false,"internalType":"bool","name":"isNFT","type":"bool"},{"indexed":false,"internalType":"enum NFTFlipGame.PaymentToken","name":"paymentToken","type":"uint8"}],"name":"AssetsDeposited","type":"event"},{"anonymous":false,"inputs":[{"indexed":true,"internalType":"bytes32","name":"gameId","type":"bytes32"},{"indexed":false,"internalType":"address","name":"player","type":"address"}],"name":"AssetsReclaimed","type":"event"},{"anonymous":false,"inputs":[{"indexed":true,"internalType":"bytes32","name":"gameId","type":"bytes32"},{"indexed":false,"internalType":"string","name":"reason","type":"string"}],"name":"GameCancelled","type":"event"},{"anonymous":false,"inputs":[{"indexed":true,"internalType":"bytes32","name":"gameId","type":"bytes32"},{"indexed":false,"internalType":"address","name":"winner","type":"address"}],"name":"GameCompleted","type":"event"},{"anonymous":false,"inputs":[{"indexed":true,"internalType":"bytes32","name":"gameId","type":"bytes32"},{"indexed":false,"internalType":"address","name":"player1","type":"address"},{"indexed":false,"internalType":"address","name":"player2","type":"address"},{"indexed":false,"internalType":"enum NFTFlipGame.PaymentToken","name":"paymentToken","type":"uint8"}],"name":"GameCreated","type":"event"},{"anonymous":false,"inputs":[{"indexed":true,"internalType":"bytes32","name":"gameId","type":"bytes32"}],"name":"GameStarted","type":"event"},{"anonymous":false,"inputs":[{"indexed":true,"internalType":"address","name":"creator","type":"address"},{"indexed":false,"internalType":"uint256","name":"amount","type":"uint256"}],"name":"ListingFeePaid","type":"event"},{"anonymous":false,"inputs":[{"indexed":true,"internalType":"address","name":"previousOwner","type":"address"},{"indexed":true,"internalType":"address","name":"newOwner","type":"address"}],"name":"OwnershipTransferred","type":"event"},{"anonymous":false,"inputs":[{"indexed":false,"internalType":"address","name":"account","type":"address"}],"name":"Paused","type":"event"},{"anonymous":false,"inputs":[{"indexed":false,"internalType":"address","name":"account","type":"address"}],"name":"Unpaused","type":"event"},{"inputs":[],"name":"BASIS_POINTS","outputs":[{"internalType":"uint256","name":"","type":"uint256"}],"stateMutability":"view","type":"function"},{"inputs":[{"internalType":"address[]","name":"nftContracts","type":"address[]"},{"internalType":"uint256[]","name":"tokenIds","type":"uint256[]"},{"internalType":"address[]","name":"recipients","type":"address[]"}],"name":"adminBatchWithdrawNFTs","outputs":[],"stateMutability":"nonpayable","type":"function"},{"inputs":[{"internalType":"bytes32","name":"gameId","type":"bytes32"}],"name":"canDeposit","outputs":[{"internalType":"bool","name":"","type":"bool"}],"stateMutability":"view","type":"function"},{"inputs":[{"internalType":"bytes32","name":"gameId","type":"bytes32"}],"name":"canStartGame","outputs":[{"internalType":"bool","name":"","type":"bool"}],"stateMutability":"view","type":"function"},{"inputs":[{"internalType":"bytes32","name":"gameId","type":"bytes32"}],"name":"cancelGame","outputs":[],"stateMutability":"nonpayable","type":"function"},{"inputs":[{"internalType":"bytes32","name":"gameId","type":"bytes32"},{"internalType":"address","name":"winner","type":"address"}],"name":"completeGame","outputs":[],"stateMutability":"nonpayable","type":"function"},{"inputs":[{"internalType":"bytes32","name":"gameId","type":"bytes32"}],"name":"depositETH","outputs":[],"stateMutability":"payable","type":"function"},{"inputs":[{"internalType":"bytes32","name":"gameId","type":"bytes32"}],"name":"depositNFT","outputs":[],"stateMutability":"nonpayable","type":"function"},{"inputs":[],"name":"depositTimeout","outputs":[{"internalType":"uint256","name":"","type":"uint256"}],"stateMutability":"view","type":"function"},{"inputs":[{"internalType":"bytes32","name":"gameId","type":"bytes32"},{"internalType":"uint256","name":"amount","type":"uint256"}],"name":"depositUSDC","outputs":[],"stateMutability":"nonpayable","type":"function"},{"inputs":[],"name":"emergencyPause","outputs":[],"stateMutability":"nonpayable","type":"function"},{"inputs":[],"name":"emergencyWithdrawETH","outputs":[],"stateMutability":"nonpayable","type":"function"},{"inputs":[{"internalType":"address","name":"nftContract","type":"address"},{"internalType":"uint256","name":"tokenId","type":"uint256"},{"internalType":"address","name":"to","type":"address"}],"name":"emergencyWithdrawNFT","outputs":[],"stateMutability":"nonpayable","type":"function"},{"inputs":[],"name":"ethUsdFeed","outputs":[{"internalType":"contract AggregatorV3Interface","name":"","type":"address"}],"stateMutability":"view","type":"function"},{"inputs":[{"internalType":"bytes32","name":"","type":"bytes32"}],"name":"games","outputs":[{"internalType":"address","name":"player1","type":"address"},{"internalType":"address","name":"player2","type":"address"},{"internalType":"address","name":"nftContract","type":"address"},{"internalType":"uint256","name":"tokenId","type":"uint256"},{"internalType":"uint256","name":"ethAmount","type":"uint256"},{"internalType":"uint256","name":"usdcAmount","type":"uint256"},{"internalType":"enum NFTFlipGame.PaymentToken","name":"paymentToken","type":"uint8"},{"internalType":"uint256","name":"depositTime","type":"uint256"},{"internalType":"bool","name":"player1Deposited","type":"bool"},{"internalType":"bool","name":"player2Deposited","type":"bool"},{"internalType":"bool","name":"completed","type":"bool"},{"internalType":"address","name":"winner","type":"address"}],"stateMutability":"view","type":"function"},{"inputs":[{"internalType":"uint256","name":"usdAmount","type":"uint256"}],"name":"getETHAmount","outputs":[{"internalType":"uint256","name":"","type":"uint256"}],"stateMutability":"view","type":"function"},{"inputs":[{"internalType":"bytes32","name":"gameId","type":"bytes32"}],"name":"getGameDetails","outputs":[{"internalType":"address","name":"player1","type":"address"},{"internalType":"address","name":"player2","type":"address"},{"internalType":"address","name":"nftContract","type":"address"},{"internalType":"uint256","name":"tokenId","type":"uint256"},{"internalType":"uint256","name":"ethAmount","type":"uint256"},{"internalType":"uint256","name":"usdcAmount","type":"uint256"},{"internalType":"enum NFTFlipGame.PaymentToken","name":"paymentToken","type":"uint8"},{"internalType":"uint256","name":"depositTime","type":"uint256"},{"internalType":"bool","name":"player1Deposited","type":"bool"},{"internalType":"bool","name":"player2Deposited","type":"bool"},{"internalType":"bool","name":"completed","type":"bool"},{"internalType":"address","name":"winner","type":"address"}],"stateMutability":"view","type":"function"},{"inputs":[{"internalType":"uint256","name":"usdAmount","type":"uint256"}],"name":"getUSDCAmount","outputs":[{"internalType":"uint256","name":"","type":"uint256"}],"stateMutability":"pure","type":"function"},{"inputs":[{"internalType":"address","name":"user","type":"address"}],"name":"getUserGames","outputs":[{"internalType":"bytes32[]","name":"","type":"bytes32[]"}],"stateMutability":"view","type":"function"},{"inputs":[{"internalType":"bytes32","name":"gameId","type":"bytes32"},{"internalType":"address","name":"player1","type":"address"},{"internalType":"address","name":"player2","type":"address"},{"internalType":"address","name":"nftContract","type":"address"},{"internalType":"uint256","name":"tokenId","type":"uint256"},{"internalType":"uint256","name":"priceUSD","type":"uint256"},{"internalType":"enum NFTFlipGame.PaymentToken","name":"paymentToken","type":"uint8"}],"name":"initializeGame","outputs":[],"stateMutability":"nonpayable","type":"function"},{"inputs":[],"name":"listingFeeUSD","outputs":[{"internalType":"uint256","name":"","type":"uint256"}],"stateMutability":"view","type":"function"},{"inputs":[{"internalType":"address","name":"","type":"address"}],"name":"listingFees","outputs":[{"internalType":"uint256","name":"","type":"uint256"}],"stateMutability":"view","type":"function"},{"inputs":[],"name":"owner","outputs":[{"internalType":"address","name":"","type":"address"}],"stateMutability":"view","type":"function"},{"inputs":[],"name":"paused","outputs":[{"internalType":"bool","name":"","type":"bool"}],"stateMutability":"view","type":"function"},{"inputs":[],"name":"payListingFee","outputs":[],"stateMutability":"payable","type":"function"},{"inputs":[],"name":"platformFeePercent","outputs":[{"internalType":"uint256","name":"","type":"uint256"}],"stateMutability":"view","type":"function"},{"inputs":[],"name":"platformFeeReceiver","outputs":[{"internalType":"address","name":"","type":"address"}],"stateMutability":"view","type":"function"},{"inputs":[{"internalType":"bytes32","name":"gameId","type":"bytes32"}],"name":"reclaimAssets","outputs":[],"stateMutability":"nonpayable","type":"function"},{"inputs":[],"name":"renounceOwnership","outputs":[],"stateMutability":"nonpayable","type":"function"},{"inputs":[{"internalType":"uint256","name":"newTimeout","type":"uint256"}],"name":"setDepositTimeout","outputs":[],"stateMutability":"nonpayable","type":"function"},{"inputs":[{"internalType":"uint256","name":"newFee","type":"uint256"}],"name":"setListingFee","outputs":[],"stateMutability":"nonpayable","type":"function"},{"inputs":[{"internalType":"uint256","name":"newPercent","type":"uint256"}],"name":"setPlatformFee","outputs":[],"stateMutability":"nonpayable","type":"function"},{"inputs":[{"internalType":"address","name":"newOwner","type":"address"}],"name":"transferOwnership","outputs":[],"stateMutability":"nonpayable","type":"function"},{"inputs":[],"name":"unpause","outputs":[],"stateMutability":"nonpayable","type":"function"},{"inputs":[{"internalType":"bytes32","name":"gameId","type":"bytes32"},{"internalType":"address","name":"player2","type":"address"},{"internalType":"uint256","name":"priceUSD","type":"uint256"},{"internalType":"enum NFTFlipGame.PaymentToken","name":"paymentToken","type":"uint8"}],"name":"updateGameWithPlayer2","outputs":[],"stateMutability":"nonpayable","type":"function"},{"inputs":[],"name":"usdcToken","outputs":[{"internalType":"address","name":"","type":"address"}],"stateMutability":"view","type":"function"},{"inputs":[{"internalType":"address","name":"","type":"address"},{"internalType":"uint256","name":"","type":"uint256"}],"name":"userGames","outputs":[{"internalType":"bytes32","name":"","type":"bytes32"}],"stateMutability":"view","type":"function"}],"evm":{"bytecode":{"linkReferences":{},"object":"6080346200011257601f62002e1f38819003918201601f19168301916001600160401b03831184841017620001175780849260609460405283398101031262000112576200004d816200012d565b62000069604062000061602085016200012d565b93016200012d565b916001600055600154926040519360018060a01b03928391338382167f8be0079c531659141344cd1fd0a4f28419497f9722a3daafe3b4186f6b6457e0600080a36001600160a81b0319163360ff60a01b19161760015562030d4060055561015e60065561012c600755600980546001600160a01b0319908116968416969096179055600a8054861691909216179055600880549093169116179055612cdc9081620001438239f35b600080fd5b634e487b7160e01b600052604160045260246000fd5b51906001600160a01b0382168203620001125756fe60a0806040526004908136101561001557600080fd5b600090813560e01c90816311eac8551461255d57508063120aace6146124af57806312e8e2c314612453578063131dbd09146124315780631fd462cd14612412578063276273731461238d5780632d656ad7146123645780633a38d063146123465780633f4ba83a146122a75780633f7121b01461218c57806351858e27146121295780635717722414611f8d5780635c975abb14611f67578063615318c714611f49578063691ddd7d14611c6e5780636dbf2763146117e9578063715018a61461178b5780637c34c355146114aa5780637f80e6f2146113b35780638009b7bd1461138a57806384536017146113155780638a1fa029146111a25780638c639a85146111845780638da5cb5b1461115b578063a077932e14610ff8578063b1a8129514610f55578063b262f41f14610e1c578063bc0167cd14610dc5578063cb9a263014610a5c578063d68d9d4e146107cc578063e1f1c4a7146107af578063e9df30271461047b578063ef46b2ab14610455578063f060ad4c1461041c578063f2fde38b14610355578063f372e33c146102475763f579f882146101ba57600080fd5b34610244576020366003190112610244576040908235815260026020522061024060018060a01b039182815416908360018201541690846002820154169260038201549682015491600581015460ff6006830154169060086007840154930154946040519a8b9a8760181c169860ff8860101c169860ff808a60081c169916978d6125e7565b0390f35b80fd5b509034610351576020366003190112610351576040602092823581526002845220604051916102758361275f565b81546001600160a01b039081168452600183015481168585015260028301548116604085015260038301546060850152908201546080840152600582015460a084015260068201546102cd9060ff1660c085016128c4565b60086007830154928360e086015201549260ff8416151561010082015260ff8460081c1615156101208201528160ff8560101c161594851561014084015260181c16610160820152511615159182610349575b5081610332575b506040519015158152f35b610340915060075490612712565b42111538610327565b915038610320565b5080fd5b50903461035157602036600319011261035157610370612582565b6103786126ba565b6001600160a01b039081169182156103c95750600154826001600160601b0360a01b821617600155167f8be0079c531659141344cd1fd0a4f28419497f9722a3daafe3b4186f6b6457e0600080a380f35b60849060206040519162461bcd60e51b8352820152602660248201527f4f776e61626c653a206e6577206f776e657220697320746865207a65726f206160448201526564647265737360d01b6064820152fd5b5034610244576020366003190112610244576020906040906001600160a01b03610444612582565b168152600383522054604051908152f35b50346102445760203660031901126102445760206104738335612b73565b604051908152f35b50903461035157604036600319011261035157803590610499612598565b6104a16126ba565b6104a961286e565b82845260209160028352604085209160018060a01b039283815416936104d0851515612933565b6008820180546104e660ff8260101c1615612ad9565b60ff8116806107a2575b15610767578285169687148015610758575b156107235762010000600160b81b031916601885901b6301000000600160b81b031617620100001790558781600284015416600384015490803b1561071f57604080516323b872dd60e01b815230818a019081526001600160a01b0389166020820152918201939093528391839182908490829060600103925af18015610714576106fc575b505060ff60068301541660028110156106e957889392919061062b57508280928582930154905af16105b861279e565b50156105f15750907f0bf6aee0a93e0c0696509fac1649343cafc5bf013811646e438330fe86e4c15f915b604051908152a26001815580f35b60405162461bcd60e51b81529081018390526013602482015272115512081d1c985b9cd9995c8819985a5b1959606a1b6044820152606490fd5b600a54600592909201546040805163a9059cbb60e01b81526001600160a01b03959095169685019687526020870191909152929695948694889491859003909101928492165af19283156106de577f0bf6aee0a93e0c0696509fac1649343cafc5bf013811646e438330fe86e4c15f936106ac9187916106b1575b50612a96565b6105e3565b6106d19150843d86116106d7575b6106c9818361277c565b810190612a7e565b386106a6565b503d6106bf565b6040513d87823e3d90fd5b634e487b7160e01b895260218552602489fd5b61070590612735565b610710578738610588565b8780fd5b6040513d84823e3d90fd5b8280fd5b60405162461bcd60e51b8152808701899052600e60248201526d24b73b30b634b2103bb4b73732b960911b6044820152606490fd5b50826001850154168714610502565b60405162461bcd60e51b81528087018990526014602482015273105cdcd95d1cc81b9bdd0819195c1bdcda5d195960621b6044820152606490fd5b5060ff8160081c166104f0565b503461024457806003193601126102445760206040516127108152f35b50906020908160031936011261071f578035916107e761286e565b6107ef612827565b828452600281526040842060018101546001600160a01b0392919061082290841661081b811515612933565b3314612a30565b600881019283549460ff9561083c878260081c16156129b2565b61084b878260101c1615612975565b61086761085f600786015460075490612712565b4211156129f2565b6006840193878554166002811015610a4957610a135782019182549361271061089260065487612a6b565b04928534106109dc578b80858194610100839561ff001916178d55600854165af16108bb61279e565b50156109985750867f981102f46f858a9ad42e0e3924c2ee3ddb912d9d6d28768155ffdb174c81711f94606094846108f961091d958d9a97546127de565b90558b813411610970575b50505416896040519333855284015260408301906125c4565ba254908082169182610963575b5050610939575b506001815580f35b7fee5528ba4f234f658c6a97a7e3cba5532e7aad23bb249be4141b62e6a0158a7c8280a238610931565b60081c169050388061092a565b80808061098061099195346127de565b335af161098b61279e565b506127eb565b388b610904565b60405162461bcd60e51b8152908101869052601c60248201527f506c6174666f726d20666565207472616e73666572206661696c6564000000006044820152606490fd5b60405162461bcd60e51b8152808401899052601060248201526f092dce6eaccccd2c6d2cadce8408aa8960831b6044820152606490fd5b60405162461bcd60e51b8152808401879052600f60248201526e4e6f7420616e204554482067616d6560881b6044820152606490fd5b634e487b7160e01b8b526021845260248bfd5b5090346103515760603660031901126103515767ffffffffffffffff908035828111610c7b57610a8f9036908301612689565b90926024938435828111610dc157610aaa9036908601612689565b909260443590811161071057610ac39036908701612689565b9092610acd6126ba565b82861480610db8575b15610d7557889796975b868110610aeb578980f35b979896976001600160a01b0380610b0b610b06848b87612c82565b612c92565b1615610d3b5780610b20610b0684878a612c82565b1615610d045780610b35610b06848b87612c82565b1660208c8c610b45868a8d612c82565b359160405194859384926331a9108f60e11b8452830152846080525afa8a9181610cc3575b50610bb35760405162461bcd60e51b8152608051818e0152601d818d01527f4661696c656420746f20636865636b204e4654206f776e6572736869700000006044820152606490fd5b819b999b30911603610c7f578a90610bcf610b06848b87612c82565b16610bde610b0684878a612c82565b610be984888b612c82565b35823b15610c7b57604080516323b872dd60e01b815230818f019081526001600160a01b0390941660208501529083019190915291839183919082908490829060600103925af1801561071457610c63575b50506000198114610c5157600101979697610ae0565b634e487b7160e01b8a5260118852888afd5b610c6c90612735565b610c77578938610c3b565b8980fd5b8380fd5b60405162461bcd60e51b8152608051818b0152601e818c01527f436f6e747261637420646f6573206e6f74206f776e2074686973204e465400006044820152606490fd5b9091506080513d8111610cfd575b610cdb818361277c565b816080519181010312610cf957518281168103610cf9579038610b6a565b8a80fd5b503d610cd1565b60405162461bcd60e51b81526020818d01526011818c015270125b9d985b1a59081c9958da5c1a595b9d607a1b6044820152606490fd5b60405162461bcd60e51b81526020818d01526014818c015273125b9d985b1a59081391950818dbdb9d1c9858dd60621b6044820152606490fd5b60405162461bcd60e51b81526020818901526018818a01527f4172726179206c656e67746873206d757374206d6174636800000000000000006044820152606490fd5b50818314610ad6565b8680fd5b503461024457604036600319011261024457610ddf612582565b6001600160a01b031681526020919091526040812080546024359290831015610244576020610e0e848461265b565b90546040519160031b1c8152f35b50908160031936011261035157610e3161286e565b610e39612827565b610e44600554612b73565b90813410610f1157338352600360205260408320610e63838254612712565b9055828080808560018060a01b03600854165af1610e7f61279e565b5015610ed75750803411610ec1575b6040519081527f3a5f70a82eb571b0a884a01d171c139c6ec5169ba9e11e00d211cb4f76391e1460203392a26001815580f35b610ed28280808061098086346127de565b610e8e565b60649060206040519162461bcd60e51b83528201526013602482015272119959481d1c985b9cd9995c8819985a5b1959606a1b6044820152fd5b60649060206040519162461bcd60e51b8352820152601860248201527f496e73756666696369656e74206c697374696e672066656500000000000000006044820152fd5b50809134610ff5576060366003190112610ff557610f71612582565b610f796125ae565b90610f826126ba565b6001600160a01b031691823b15610ff057604080516323b872dd60e01b8152309281019283526001600160a01b039093166020830152602435908201529091839183919082908490829060600103925af1801561071457610fe05750f35b610fe990612735565b6102445780f35b505050fd5b50fd5b5034610244576080366003190112610244578135611014612598565b60643560443560028210156111575761102b6126ba565b83855260026020526040852080546001600160a01b0392906110509084161515612933565b600182019081549184831661111c57917f212c0bdcf42696e85cddf68fc1623b3327138b7898282f7356ab7ec713e9cf3297989991849361109f60ff60086110fd9998015460101c1615612975565b85891680936001600160601b0360a01b161790554260078501558615600014611103576110cb90612b73565b8383015560068301805460ff191690555b89526020526110ee8760408a206128d0565b5416916040519384938461290a565b0390a280f35b600584015560068301805460ff191660011790556110dc565b60405162461bcd60e51b81526020818c01526014602482015273141b185e595c880c88185b1c9958591e481cd95d60621b6044820152606490fd5b8480fd5b50346102445780600319360112610244576001546040516001600160a01b039091168152602090f35b50346102445780600319360112610244576020600654604051908152f35b5034610244576020366003190112610244578135815260026020526040812090604051906111cf8261275f565b60018060a01b03835416825260018060a01b03600184015416916020810192835260018060a01b0360028501541693604082019485526003810154926060830193845286820154916080840192835260058101549160a0850192835261123f60ff60068401541660c087016128c4565b600860078301549260e08701938452015460ff8116151561010087015260ff8160081c16151561012087015260ff8160101c16151561014087015260018060a01b039060181c1661016086015260018060a01b038551169660018060a01b039051169760018060a01b039051169551935192519160c0860151916002831015611302575061024097989950519161010086015115159361012087015115159561014088015115159761016060018060a01b0391015116986040519c8d9c8d6125e7565b634e487b7160e01b815260218b52602490fd5b50903461035157816003193601126103515761132f6126ba565b8180808060018060a01b036001541647905af161134a61279e565b5015611354575080f35b60649060206040519162461bcd60e51b8352820152600f60248201526e151c985b9cd9995c8819985a5b1959608a1b6044820152fd5b50346102445780600319360112610244576009546040516001600160a01b039091168152602090f35b509034610351576020366003190112610351576040602092823581526002845220906008604051926113e48461275f565b80546001600160a01b039081168552600182015481168686015260028201548116604086015260038201546060860152928101546080850152600581015460a0850152600681015461143c9060ff1660c086016128c4565b600781015460e085015201549060ff82161515928361010082015261016060ff8460081c161515928361012084015260ff8560101c161594851561014085015260181c16910152826114a2575b508161149a57506040519015158152f35b905038610327565b915038611489565b509034610351576040366003190112610351578035906114c861286e565b6114d0612827565b818352600260209081526040842060018101546001600160a01b039291906114ff90841661081b811515612933565b6008810192835460ff95611518878360081c16156129b2565b611527878360101c1615612975565b61153b61085f600786015460075490612712565b6006840193878554166002811015611778576001036117425760050192835461271061156960065483612a6b565b0493816024351061170a5761ff001916610100178855600a54604080516323b872dd60e01b815233868201908152306020820152918201939093528c9392918991839185169082908790829060600103925af19182156116ff576115d98993879361161496916116e85750612a96565b80600a541690600854168d60405180968195829463a9059cbb60e01b84528a840160209093929193604081019460018060a01b031681520152565b03925af19081156116dd578a916116c0575b501561167c57509261091d867f981102f46f858a9ad42e0e3924c2ee3ddb912d9d6d28768155ffdb174c81711f94846116638b98606097546127de565b90555416896040519333855284015260408301906125c4565b60405162461bcd60e51b8152908101859052601860248201527f5553444320666565207472616e73666572206661696c656400000000000000006044820152606490fd5b6116d79150863d88116106d7576106c9818361277c565b38611626565b6040513d8c823e3d90fd5b6106d19150853d87116106d7576106c9818361277c565b6040513d85823e3d90fd5b60405162461bcd60e51b81528085018990526011602482015270496e73756666696369656e74205553444360781b6044820152606490fd5b60405162461bcd60e51b8152808301879052600f60248201526e4e6f74206120555344432067616d6560881b6044820152606490fd5b634e487b7160e01b8b526021835260248bfd5b50346102445780600319360112610244576117a46126ba565b600180546001600160a01b031981169091556000906001600160a01b03167f8be0079c531659141344cd1fd0a4f28419497f9722a3daafe3b4186f6b6457e08280a380f35b509034610351576020908160031936011261071f5780359161180961286e565b8284526002815260408420805490926001600160a01b039182169061182f821515612933565b6008850191825460ff91611848838360101c1615612975565b611859600789015460075490612712565b421115611c345733148015611c25575b15611bf25788939291908181168080611be5575b15611949575050508386541691611895833314612b1e565b805462ff000019166201000017905560028601546003870154908516803b1561115757604080516323b872dd60e01b8152309481019485526001600160a01b039095166020850152830191909152839183919082908490829060600103925af1801561071457611935575b50507fbeb9db71629193a6a8d82214e24ce084d5f6b1c980d4cda5cec9139a2ea33832925416604051908152a25b6001815580f35b61193e90612735565b611157578438611900565b90919596979392945015808091611bd9575b15611b4d57505060018201938585541691611977833314612b1e565b805462ff00001916620100001790556006830154166002811015611b3a578892918791611a42575050818080926119c586898954169201546127106119be60065483612a6b565b0490612712565b905af16119d061279e565b5015611a0a5750907fbeb9db71629193a6a8d82214e24ce084d5f6b1c980d4cda5cec9139a2ea3383292915b5416604051908152a261192e565b60405162461bcd60e51b81529081018490526011602482015270115512081c99599d5b990819985a5b1959607a1b6044820152606490fd5b9091611a979350611a65600588600a54169201546127106119be60065483612a6b565b918a60405180968195829463a9059cbb60e01b84528a840160209093929193604081019460018060a01b031681520152565b03925af1908115611b2f578791611b12575b5015611ad95750907fbeb9db71629193a6a8d82214e24ce084d5f6b1c980d4cda5cec9139a2ea3383292916119fc565b60405162461bcd60e51b815290810184905260126024820152711554d110c81c99599d5b990819985a5b195960721b6044820152606490fd5b611b299150853d87116106d7576106c9818361277c565b38611aa9565b6040513d89823e3d90fd5b634e487b7160e01b895260218452602489fd5b935094509492905081611bcb575b50611b6a575b5050505061192e565b7fd48b0c9992d8d4b8967d1584dc8c1955390d9ff30639a7da9c77e7f0db86c3d8926201000060609362ff000019161790556010604051918083528201526f4e6f206465706f73697473206d61646560801b6040820152a238808080611b61565b90508260081c161538611b5b565b50858260081c1661195b565b50828260081c161561187d565b60405162461bcd60e51b8152808401879052600c60248201526b2737ba103090383630bcb2b960a11b6044820152606490fd5b50846001880154163314611869565b60405162461bcd60e51b81528085018890526013602482015272151a5b595bdd5d081b9bdd081c995858da1959606a1b6044820152606490fd5b50346102445760e036600319011261024457611c88612598565b611c906125ae565b906064356001600160a01b0381168103611f445760a435600260c435101561115757611cba6126ba565b85358552600260205260408520546001600160a01b0316611f0a5784908160c435611f025750611ce990612b73565b60405192611cf68461275f565b6001600160a01b03858116855286811660208601521660408401526084356060840152608083015260a0820152611d3260c43560c083016128c4565b4260e0820152836101008201528361012082015283610140820152836101608201528435845260026020526040842060018060a01b038251166001600160601b0360a01b90818354161782556001820160018060a01b0360208501511682825416179055600282019060018060a01b03604085015116908254161790556060820151600382015560808201518682015560a0820151600582015560c08201516002811015611eef5760068201805460ff191660ff92831617905560e0830151600783015561010083015160089283018054610120860151610140870151610160909701516301000000600160b81b0360189190911b1662ff000097151560101b9790971661ff0091151590961b169215159093166001600160b81b03199093169290921717919091179190911790557f212c0bdcf42696e85cddf68fc1623b3327138b7898282f7356ab7ec713e9cf3290846001600160a01b0382168552602081905260408520611ea5908235906128d0565b6001600160a01b038416611ec9575b6110fd604051928392359560c435918461290a565b6001600160a01b0384168552602081905260408520611eea908235906128d0565b611eb4565b634e487b7160e01b865260218752602486fd5b915090611ce9565b60405162461bcd60e51b8152602081880152601360248201527247616d6520616c72656164792065786973747360681b6044820152606490fd5b600080fd5b50346102445780600319360112610244576020600754604051908152f35b5034610244578060031936011261024457602060ff60015460a01c166040519015158152f35b50903461035157602036600319011261035157803590611fab61286e565b611fb3612827565b81835260026020526040832080546001600160a01b0392908316611fd8811515612933565b33036120f65784600883019361200160ff8654611ff7828216156129b2565b60101c1615612975565b61201561085f600786015460075490612712565b600284015416600384015490803b1561071f57604080516323b872dd60e01b81523395810195865230602087015290850192909252909283919082908490829060600103925af180156106de576120e2575b5083600191847f981102f46f858a9ad42e0e3924c2ee3ddb912d9d6d28768155ffdb174c81711f606060ff6006885495888319881617809a550154166120bd6040519133835288602084015260408301906125c4565ba2161790816120d4575b5061093957506001815580f35b60ff915060081c16386120c7565b936120ef60019295612735565b9390612067565b60649060206040519162461bcd60e51b8352820152600c60248201526b4e6f7420706c61796572203160a01b6044820152fd5b50346102445780600319360112610244576121426126ba565b61214a612827565b6001805460ff60a01b1916600160a01b1790556040513381527f62e78cea01bee320cd4e420270b5ea74000d11b0c9f74754ebdbfc544b05a25890602090a180f35b509034610351576020366003190112610351578035906121aa6126ba565b8183526002602052604083208054600891906121d0906001600160a01b03161515612933565b01908154906121e560ff8360101c1615612ad9565b60ff82161580612299575b156122555750620100009062ff000019161790557fd48b0c9992d8d4b8967d1584dc8c1955390d9ff30639a7da9c77e7f0db86c3d8606060405160208152601360208201527243616e63656c6c65642062792073797374656d60681b6040820152a280f35b60649060206040519162461bcd60e51b8352820152601c60248201527f43616e6e6f742063616e63656c206166746572206465706f73697473000000006044820152fd5b5060ff8260081c16156121f0565b5090346103515781600319360112610351576122c16126ba565b6001549060ff8260a01c161561230b575060ff60a01b19166001556040513381527f5db9ee0a495bf2e6ff9c91a7834c1ba4fdd244a5e8aa4e537bd38aeae4b073aa90602090a180f35b60649060206040519162461bcd60e51b8352820152601460248201527314185d5cd8589b194e881b9bdd081c185d5cd95960621b6044820152fd5b50346102445780600319360112610244576020600554604051908152f35b50346102445780600319360112610244576008546040516001600160a01b039091168152602090f35b509034610351576020366003190112610351578035906123ab6126ba565b603c82101580612406575b156123c2575060075580f35b60649060206040519162461bcd60e51b8352820152601c60248201527f54696d656f7574206d75737420626520312d3130206d696e75746573000000006044820152fd5b506102588211156123b6565b5090346103515760203660031901126103515760209060405190358152f35b5090346103515760203660031901126103515761244c6126ba565b3560055580f35b509034610351576020366003190112610351578035906124716126ba565b6103e88211612481575060065580f35b60649060206040519162461bcd60e51b835282015260076024820152664d61782031302560c81b6044820152fd5b509034610351576020908160031936011261071f576001600160a01b036124d4612582565b16835281526040822060405192838383549182815201908193835284832090835b818110612549575050508461250b91038561277c565b60405193838594850191818652518092526040850193925b82811061253257505050500390f35b835185528695509381019392810192600101612523565b8254845292860192600192830192016124f5565b905034610351578160031936011261035157600a546001600160a01b03168152602090f35b600435906001600160a01b0382168203611f4457565b602435906001600160a01b0382168203611f4457565b604435906001600160a01b0382168203611f4457565b9060028210156125d15752565b634e487b7160e01b600052602160045260246000fd5b9a979491999693909c9b9895929c6101808c019d8c600160a01b60019003809d8180951683521690602001521660408c015260608b015260808a015260a089015260c08801612635916125c4565b60e087015215156101008601521515610120850152151561014084015216906101600152565b80548210156126735760005260206000200190600090565b634e487b7160e01b600052603260045260246000fd5b9181601f84011215611f445782359167ffffffffffffffff8311611f44576020808501948460051b010111611f4457565b6001546001600160a01b031633036126ce57565b606460405162461bcd60e51b815260206004820152602060248201527f4f776e61626c653a2063616c6c6572206973206e6f7420746865206f776e65726044820152fd5b9190820180921161271f57565b634e487b7160e01b600052601160045260246000fd5b67ffffffffffffffff811161274957604052565b634e487b7160e01b600052604160045260246000fd5b610180810190811067ffffffffffffffff82111761274957604052565b90601f8019910116810190811067ffffffffffffffff82111761274957604052565b3d156127d9573d9067ffffffffffffffff821161274957604051916127cd601f8201601f19166020018461277c565b82523d6000602084013e565b606090565b9190820391821161271f57565b156127f257565b60405162461bcd60e51b815260206004820152600d60248201526c1499599d5b990819985a5b1959609a1b6044820152606490fd5b60ff60015460a01c1661283657565b60405162461bcd60e51b815260206004820152601060248201526f14185d5cd8589b194e881c185d5cd95960821b6044820152606490fd5b60026000541461287f576002600055565b60405162461bcd60e51b815260206004820152601f60248201527f5265656e7472616e637947756172643a207265656e7472616e742063616c6c006044820152606490fd5b60028210156125d15752565b805468010000000000000000811015612749576128f29160018201815561265b565b819291549060031b91821b91600019901b1916179055565b6001600160a01b0391821681529116602082015260608101929161293191604001906125c4565b565b1561293a57565b60405162461bcd60e51b815260206004820152601360248201527211d85b5948191bd95cc81b9bdd08195e1a5cdd606a1b6044820152606490fd5b1561297c57565b60405162461bcd60e51b815260206004820152600e60248201526d11d85b594818dbdb5c1b195d195960921b6044820152606490fd5b156129b957565b60405162461bcd60e51b8152602060048201526011602482015270105b1c9958591e4819195c1bdcda5d1959607a1b6044820152606490fd5b156129f957565b60405162461bcd60e51b815260206004820152600f60248201526e11195c1bdcda5d081d1a5b595bdd5d608a1b6044820152606490fd5b15612a3757565b60405162461bcd60e51b815260206004820152600c60248201526b2737ba10383630bcb2b9101960a11b6044820152606490fd5b8181029291811591840414171561271f57565b90816020910312611f4457518015158103611f445790565b15612a9d57565b60405162461bcd60e51b81526020600482015260146024820152731554d110c81d1c985b9cd9995c8819985a5b195960621b6044820152606490fd5b15612ae057565b60405162461bcd60e51b815260206004820152601660248201527511d85b5948185b1c9958591e4818dbdb5c1b195d195960521b6044820152606490fd5b15612b2557565b60405162461bcd60e51b815260206004820152600f60248201526e4e6f7420796f75722061737365747360881b6044820152606490fd5b519069ffffffffffffffffffff82168203611f4457565b600954604051633fabe5a360e21b8152919060a090839060049082906001600160a01b03165afa918215612c7657600092612c28575b506000821315612bee5768056bc75e2d631000009081810291818304149015171561271f578115612bd8570490565b634e487b7160e01b600052601260045260246000fd5b60405162461bcd60e51b8152602060048201526012602482015271125b9d985b1a59081c1c9a58d9481999595960721b6044820152606490fd5b909160a0823d8211612c6e575b81612c4260a0938361277c565b810103126102445750612c5481612b5c565b50612c66608060208301519201612b5c565b509038612ba9565b3d9150612c35565b6040513d6000823e3d90fd5b91908110156126735760051b0190565b356001600160a01b0381168103611f44579056fea2646970667358221220b69d1a56d6614eda34413d5fcf91fa8165556486a4794380459ac47ff51e6df964736f6c63430008140033","opcodes":"PUSH1 0x80 CALLVALUE PUSH3 0x112 JUMPI PUSH1 0x1F PUSH3 0x2E1F CODESIZE DUP2 SWAP1 SUB SWAP2 DUP3 ADD PUSH1 0x1F NOT AND DUP4 ADD SWAP2 PUSH1 0x1 PUSH1 0x1 PUSH1 0x40 SHL SUB DUP4 GT DUP5 DUP5 LT OR PUSH3 0x117 JUMPI DUP1 DUP5 SWAP3 PUSH1 0x60 SWAP5 PUSH1 0x40 MSTORE DUP4 CODECOPY DUP2 ADD SUB SLT PUSH3 0x112 JUMPI PUSH3 0x4D DUP2 PUSH3 0x12D JUMP JUMPDEST PUSH3 0x69 PUSH1 0x40 PUSH3 0x61 PUSH1 0x20 DUP6 ADD PUSH3 0x12D JUMP JUMPDEST SWAP4 ADD PUSH3 0x12D JUMP JUMPDEST SWAP2 PUSH1 0x1 PUSH1 0x0 SSTORE PUSH1 0x1 SLOAD SWAP3 PUSH1 0x40 MLOAD SWAP4 PUSH1 0x1 DUP1 PUSH1 0xA0 SHL SUB SWAP3 DUP4 SWAP2 CALLER DUP4 DUP3 AND PUSH32 0x8BE0079C531659141344CD1FD0A4F28419497F9722A3DAAFE3B4186F6B6457E0 PUSH1 0x0 DUP1 LOG3 PUSH1 0x1 PUSH1 0x1 PUSH1 0xA8 SHL SUB NOT AND CALLER PUSH1 0xFF PUSH1 0xA0 SHL NOT AND OR PUSH1 0x1 SSTORE PUSH3 0x30D40 PUSH1 0x5 SSTORE PUSH2 0x15E PUSH1 0x6 SSTORE PUSH2 0x12C PUSH1 0x7 SSTORE PUSH1 0x9 DUP1 SLOAD PUSH1 0x1 PUSH1 0x1 PUSH1 0xA0 SHL SUB NOT SWAP1 DUP2 AND SWAP7 DUP5 AND SWAP7 SWAP1 SWAP7 OR SWAP1 SSTORE PUSH1 0xA DUP1 SLOAD DUP7 AND SWAP2 SWAP1 SWAP3 AND OR SWAP1 SSTORE PUSH1 0x8 DUP1 SLOAD SWAP1 SWAP4 AND SWAP2 AND OR SWAP1 SSTORE PUSH2 0x2CDC SWAP1 DUP2 PUSH3 0x143 DUP3 CODECOPY RETURN JUMPDEST PUSH1 0x0 DUP1 REVERT JUMPDEST PUSH4 0x4E487B71 PUSH1 0xE0 SHL PUSH1 0x0 MSTORE PUSH1 0x41 PUSH1 0x4 MSTORE PUSH1 0x24 PUSH1 0x0 REVERT JUMPDEST MLOAD SWAP1 PUSH1 0x1 PUSH1 0x1 PUSH1 0xA0 SHL SUB DUP3 AND DUP3 SUB PUSH3 0x112 JUMPI JUMP INVALID PUSH1 0xA0 DUP1 PUSH1 0x40 MSTORE PUSH1 0x4 SWAP1 DUP2 CALLDATASIZE LT ISZERO PUSH2 0x15 JUMPI PUSH1 0x0 DUP1 REVERT JUMPDEST PUSH1 0x0 SWAP1 DUP2 CALLDATALOAD PUSH1 0xE0 SHR SWAP1 DUP2 PUSH4 0x11EAC855 EQ PUSH2 0x255D JUMPI POP DUP1 PUSH4 0x120AACE6 EQ PUSH2 0x24AF JUMPI DUP1 PUSH4 0x12E8E2C3 EQ PUSH2 0x2453 JUMPI DUP1 PUSH4 0x131DBD09 EQ PUSH2 0x2431 JUMPI DUP1 PUSH4 0x1FD462CD EQ PUSH2 0x2412 JUMPI DUP1 PUSH4 0x27627373 EQ PUSH2 0x238D JUMPI DUP1 PUSH4 0x2D656AD7 EQ PUSH2 0x2364 JUMPI DUP1 PUSH4 0x3A38D063 EQ PUSH2 0x2346 JUMPI DUP1 PUSH4 0x3F4BA83A EQ PUSH2 0x22A7 JUMPI DUP1 PUSH4 0x3F7121B0 EQ PUSH2 0x218C JUMPI DUP1 PUSH4 0x51858E27 EQ PUSH2 0x2129 JUMPI DUP1 PUSH4 0x57177224 EQ PUSH2 0x1F8D JUMPI DUP1 PUSH4 0x5C975ABB EQ PUSH2 0x1F67 JUMPI DUP1 PUSH4 0x615318C7 EQ PUSH2 0x1F49 JUMPI DUP1 PUSH4 0x691DDD7D EQ PUSH2 0x1C6E JUMPI DUP1 PUSH4 0x6DBF2763 EQ PUSH2 0x17E9 JUMPI DUP1 PUSH4 0x715018A6 EQ PUSH2 0x178B JUMPI DUP1 PUSH4 0x7C34C355 EQ PUSH2 0x14AA JUMPI DUP1 PUSH4 0x7F80E6F2 EQ PUSH2 0x13B3 JUMPI DUP1 PUSH4 0x8009B7BD EQ PUSH2 0x138A JUMPI DUP1 PUSH4 0x84536017 EQ PUSH2 0x1315 JUMPI DUP1 PUSH4 0x8A1FA029 EQ PUSH2 0x11A2 JUMPI DUP1 PUSH4 0x8C639A85 EQ PUSH2 0x1184 JUMPI DUP1 PUSH4 0x8DA5CB5B EQ PUSH2 0x115B JUMPI DUP1 PUSH4 0xA077932E EQ PUSH2 0xFF8 JUMPI DUP1 PUSH4 0xB1A81295 EQ PUSH2 0xF55 JUMPI DUP1 PUSH4 0xB262F41F EQ PUSH2 0xE1C JUMPI DUP1 PUSH4 0xBC0167CD EQ PUSH2 0xDC5 JUMPI DUP1 PUSH4 0xCB9A2630 EQ PUSH2 0xA5C JUMPI DUP1 PUSH4 0xD68D9D4E EQ PUSH2 0x7CC JUMPI DUP1 PUSH4 0xE1F1C4A7 EQ PUSH2 0x7AF JUMPI DUP1 PUSH4 0xE9DF3027 EQ PUSH2 0x47B JUMPI DUP1 PUSH4 0xEF46B2AB EQ PUSH2 0x455 JUMPI DUP1 PUSH4 0xF060AD4C EQ PUSH2 0x41C JUMPI DUP1 PUSH4 0xF2FDE38B EQ PUSH2 0x355 JUMPI DUP1 PUSH4 0xF372E33C EQ PUSH2 0x247 JUMPI PUSH4 0xF579F882 EQ PUSH2 0x1BA JUMPI PUSH1 0x0 DUP1 REVERT JUMPDEST CALLVALUE PUSH2 0x244 JUMPI PUSH1 0x20 CALLDATASIZE PUSH1 0x3 NOT ADD SLT PUSH2 0x244 JUMPI PUSH1 0x40 SWAP1 DUP3 CALLDATALOAD DUP2 MSTORE PUSH1 0x2 PUSH1 0x20 MSTORE KECCAK256 PUSH2 0x240 PUSH1 0x1 DUP1 PUSH1 0xA0 SHL SUB SWAP2 DUP3 DUP2 SLOAD AND SWAP1 DUP4 PUSH1 0x1 DUP3 ADD SLOAD AND SWAP1 DUP5 PUSH1 0x2 DUP3 ADD SLOAD AND SWAP3 PUSH1 0x3 DUP3 ADD SLOAD SWAP7 DUP3 ADD SLOAD SWAP2 PUSH1 0x5 DUP2 ADD SLOAD PUSH1 0xFF PUSH1 0x6 DUP4 ADD SLOAD AND SWAP1 PUSH1 0x8 PUSH1 0x7 DUP5 ADD SLOAD SWAP4 ADD SLOAD SWAP5 PUSH1 0x40 MLOAD SWAP11 DUP12 SWAP11 DUP8 PUSH1 0x18 SHR AND SWAP9 PUSH1 0xFF DUP9 PUSH1 0x10 SHR AND SWAP9 PUSH1 0xFF DUP1 DUP11 PUSH1 0x8 SHR AND SWAP10 AND SWAP8 DUP14 PUSH2 0x25E7 JUMP JUMPDEST SUB SWAP1 RETURN JUMPDEST DUP1 REVERT JUMPDEST POP SWAP1 CALLVALUE PUSH2 0x351 JUMPI PUSH1 0x20 CALLDATASIZE PUSH1 0x3 NOT ADD SLT PUSH2 0x351 JUMPI PUSH1 0x40 PUSH1 0x20 SWAP3 DUP3 CALLDATALOAD DUP2 MSTORE PUSH1 0x2 DUP5 MSTORE KECCAK256 PUSH1 0x40 MLOAD SWAP2 PUSH2 0x275 DUP4 PUSH2 0x275F JUMP JUMPDEST DUP2 SLOAD PUSH1 0x1 PUSH1 0x1 PUSH1 0xA0 SHL SUB SWAP1 DUP2 AND DUP5 MSTORE PUSH1 0x1 DUP4 ADD SLOAD DUP2 AND DUP6 DUP6 ADD MSTORE PUSH1 0x2 DUP4 ADD SLOAD DUP2 AND PUSH1 0x40 DUP6 ADD MSTORE PUSH1 0x3 DUP4 ADD SLOAD PUSH1 0x60 DUP6 ADD MSTORE SWAP1 DUP3 ADD SLOAD PUSH1 0x80 DUP5 ADD MSTORE PUSH1 0x5 DUP3 ADD SLOAD PUSH1 0xA0 DUP5 ADD MSTORE PUSH1 0x6 DUP3 ADD SLOAD PUSH2 0x2CD SWAP1 PUSH1 0xFF AND PUSH1 0xC0 DUP6 ADD PUSH2 0x28C4 JUMP JUMPDEST PUSH1 0x8 PUSH1 0x7 DUP4 ADD SLOAD SWAP3 DUP4 PUSH1 0xE0 DUP7 ADD MSTORE ADD SLOAD SWAP3 PUSH1 0xFF DUP5 AND ISZERO ISZERO PUSH2 0x100 DUP3 ADD MSTORE PUSH1 0xFF DUP5 PUSH1 0x8 SHR AND ISZERO ISZERO PUSH2 0x120 DUP3 ADD MSTORE DUP2 PUSH1 0xFF DUP6 PUSH1 0x10 SHR AND ISZERO SWAP5 DUP6 ISZERO PUSH2 0x140 DUP5 ADD MSTORE PUSH1 0x18 SHR AND PUSH2 0x160 DUP3 ADD MSTORE MLOAD AND ISZERO ISZERO SWAP2 DUP3 PUSH2 0x349 JUMPI JUMPDEST POP DUP2 PUSH2 0x332 JUMPI JUMPDEST POP PUSH1 0x40 MLOAD SWAP1 ISZERO ISZERO DUP2 MSTORE RETURN JUMPDEST PUSH2 0x340 SWAP2 POP PUSH1 0x7 SLOAD SWAP1 PUSH2 0x2712 JUMP JUMPDEST TIMESTAMP GT ISZERO CODESIZE PUSH2 0x327 JUMP JUMPDEST SWAP2 POP CODESIZE PUSH2 0x320 JUMP JUMPDEST POP DUP1 REVERT JUMPDEST POP SWAP1 CALLVALUE PUSH2 0x351 JUMPI PUSH1 0x20 CALLDATASIZE PUSH1 0x3 NOT ADD SLT PUSH2 0x351 JUMPI PUSH2 0x370 PUSH2 0x2582 JUMP JUMPDEST PUSH2 0x378 PUSH2 0x26BA JUMP JUMPDEST PUSH1 0x1 PUSH1 0x1 PUSH1 0xA0 SHL SUB SWAP1 DUP2 AND SWAP2 DUP3 ISZERO PUSH2 0x3C9 JUMPI POP PUSH1 0x1 SLOAD DUP3 PUSH1 0x1 PUSH1 0x1 PUSH1 0x60 SHL SUB PUSH1 0xA0 SHL DUP3 AND OR PUSH1 0x1 SSTORE AND PUSH32 0x8BE0079C531659141344CD1FD0A4F28419497F9722A3DAAFE3B4186F6B6457E0 PUSH1 0x0 DUP1 LOG3 DUP1 RETURN JUMPDEST PUSH1 0x84 SWAP1 PUSH1 0x20 PUSH1 0x40 MLOAD SWAP2 PUSH3 0x461BCD PUSH1 0xE5 SHL DUP4 MSTORE DUP3 ADD MSTORE PUSH1 0x26 PUSH1 0x24 DUP3 ADD MSTORE PUSH32 0x4F776E61626C653A206E6577206F776E657220697320746865207A65726F2061 PUSH1 0x44 DUP3 ADD MSTORE PUSH6 0x646472657373 PUSH1 0xD0 SHL PUSH1 0x64 DUP3 ADD MSTORE REVERT JUMPDEST POP CALLVALUE PUSH2 0x244 JUMPI PUSH1 0x20 CALLDATASIZE PUSH1 0x3 NOT ADD SLT PUSH2 0x244 JUMPI PUSH1 0x20 SWAP1 PUSH1 0x40 SWAP1 PUSH1 0x1 PUSH1 0x1 PUSH1 0xA0 SHL SUB PUSH2 0x444 PUSH2 0x2582 JUMP JUMPDEST AND DUP2 MSTORE PUSH1 0x3 DUP4 MSTORE KECCAK256 SLOAD PUSH1 0x40 MLOAD SWAP1 DUP2 MSTORE RETURN JUMPDEST POP CALLVALUE PUSH2 0x244 JUMPI PUSH1 0x20 CALLDATASIZE PUSH1 0x3 NOT ADD SLT PUSH2 0x244 JUMPI PUSH1 0x20 PUSH2 0x473 DUP4 CALLDATALOAD PUSH2 0x2B73 JUMP JUMPDEST PUSH1 0x40 MLOAD SWAP1 DUP2 MSTORE RETURN JUMPDEST POP SWAP1 CALLVALUE PUSH2 0x351 JUMPI PUSH1 0x40 CALLDATASIZE PUSH1 0x3 NOT ADD SLT PUSH2 0x351 JUMPI DUP1 CALLDATALOAD SWAP1 PUSH2 0x499 PUSH2 0x2598 JUMP JUMPDEST PUSH2 0x4A1 PUSH2 0x26BA JUMP JUMPDEST PUSH2 0x4A9 PUSH2 0x286E JUMP JUMPDEST DUP3 DUP5 MSTORE PUSH1 0x20 SWAP2 PUSH1 0x2 DUP4 MSTORE PUSH1 0x40 DUP6 KECCAK256 SWAP2 PUSH1 0x1 DUP1 PUSH1 0xA0 SHL SUB SWAP3 DUP4 DUP2 SLOAD AND SWAP4 PUSH2 0x4D0 DUP6 ISZERO ISZERO PUSH2 0x2933 JUMP JUMPDEST PUSH1 0x8 DUP3 ADD DUP1 SLOAD PUSH2 0x4E6 PUSH1 0xFF DUP3 PUSH1 0x10 SHR AND ISZERO PUSH2 0x2AD9 JUMP JUMPDEST PUSH1 0xFF DUP2 AND DUP1 PUSH2 0x7A2 JUMPI JUMPDEST ISZERO PUSH2 0x767 JUMPI DUP3 DUP6 AND SWAP7 DUP8 EQ DUP1 ISZERO PUSH2 0x758 JUMPI JUMPDEST ISZERO PUSH2 0x723 JUMPI PUSH3 0x10000 PUSH1 0x1 PUSH1 0xB8 SHL SUB NOT AND PUSH1 0x18 DUP6 SWAP1 SHL PUSH4 0x1000000 PUSH1 0x1 PUSH1 0xB8 SHL SUB AND OR PUSH3 0x10000 OR SWAP1 SSTORE DUP8 DUP2 PUSH1 0x2 DUP5 ADD SLOAD AND PUSH1 0x3 DUP5 ADD SLOAD SWAP1 DUP1 EXTCODESIZE ISZERO PUSH2 0x71F JUMPI PUSH1 0x40 DUP1 MLOAD PUSH4 0x23B872DD PUSH1 0xE0 SHL DUP2 MSTORE ADDRESS DUP2 DUP11 ADD SWAP1 DUP2 MSTORE PUSH1 0x1 PUSH1 0x1 PUSH1 0xA0 SHL SUB DUP10 AND PUSH1 0x20 DUP3 ADD MSTORE SWAP2 DUP3 ADD SWAP4 SWAP1 SWAP4 MSTORE DUP4 SWAP2 DUP4 SWAP2 DUP3 SWAP1 DUP5 SWAP1 DUP3 SWAP1 PUSH1 0x60 ADD SUB SWAP3 GAS CALL DUP1 ISZERO PUSH2 0x714 JUMPI PUSH2 0x6FC JUMPI JUMPDEST POP POP PUSH1 0xFF PUSH1 0x6 DUP4 ADD SLOAD AND PUSH1 0x2 DUP2 LT ISZERO PUSH2 0x6E9 JUMPI DUP9 SWAP4 SWAP3 SWAP2 SWAP1 PUSH2 0x62B JUMPI POP DUP3 DUP1 SWAP3 DUP6 DUP3 SWAP4 ADD SLOAD SWAP1 GAS CALL PUSH2 0x5B8 PUSH2 0x279E JUMP JUMPDEST POP ISZERO PUSH2 0x5F1 JUMPI POP SWAP1 PUSH32 0xBF6AEE0A93E0C0696509FAC1649343CAFC5BF013811646E438330FE86E4C15F SWAP2 JUMPDEST PUSH1 0x40 MLOAD SWAP1 DUP2 MSTORE LOG2 PUSH1 0x1 DUP2 SSTORE DUP1 RETURN JUMPDEST PUSH1 0x40 MLOAD PUSH3 0x461BCD PUSH1 0xE5 SHL DUP2 MSTORE SWAP1 DUP2 ADD DUP4 SWAP1 MSTORE PUSH1 0x13 PUSH1 0x24 DUP3 ADD MSTORE PUSH19 0x115512081D1C985B9CD9995C8819985A5B1959 PUSH1 0x6A SHL PUSH1 0x44 DUP3 ADD MSTORE PUSH1 0x64 SWAP1 REVERT JUMPDEST PUSH1 0xA SLOAD PUSH1 0x5 SWAP3 SWAP1 SWAP3 ADD SLOAD PUSH1 0x40 DUP1 MLOAD PUSH4 0xA9059CBB PUSH1 0xE0 SHL DUP2 MSTORE PUSH1 0x1 PUSH1 0x1 PUSH1 0xA0 SHL SUB SWAP6 SWAP1 SWAP6 AND SWAP7 DUP6 ADD SWAP7 DUP8 MSTORE PUSH1 0x20 DUP8 ADD SWAP2 SWAP1 SWAP2 MSTORE SWAP3 SWAP7 SWAP6 SWAP5 DUP7 SWAP5 DUP9 SWAP5 SWAP2 DUP6 SWAP1 SUB SWAP1 SWAP2 ADD SWAP3 DUP5 SWAP3 AND GAS CALL SWAP3 DUP4 ISZERO PUSH2 0x6DE JUMPI PUSH32 0xBF6AEE0A93E0C0696509FAC1649343CAFC5BF013811646E438330FE86E4C15F SWAP4 PUSH2 0x6AC SWAP2 DUP8 SWAP2 PUSH2 0x6B1 JUMPI JUMPDEST POP PUSH2 0x2A96 JUMP JUMPDEST PUSH2 0x5E3 JUMP JUMPDEST PUSH2 0x6D1 SWAP2 POP DUP5 RETURNDATASIZE DUP7 GT PUSH2 0x6D7 JUMPI JUMPDEST PUSH2 0x6C9 DUP2 DUP4 PUSH2 0x277C JUMP JUMPDEST DUP2 ADD SWAP1 PUSH2 0x2A7E JUMP JUMPDEST CODESIZE PUSH2 0x6A6 JUMP JUMPDEST POP RETURNDATASIZE PUSH2 0x6BF JUMP JUMPDEST PUSH1 0x40 MLOAD RETURNDATASIZE DUP8 DUP3 RETURNDATACOPY RETURNDATASIZE SWAP1 REVERT JUMPDEST PUSH4 0x4E487B71 PUSH1 0xE0 SHL DUP10 MSTORE PUSH1 0x21 DUP6 MSTORE PUSH1 0x24 DUP10 REVERT JUMPDEST PUSH2 0x705 SWAP1 PUSH2 0x2735 JUMP JUMPDEST PUSH2 0x710 JUMPI DUP8 CODESIZE PUSH2 0x588 JUMP JUMPDEST DUP8 DUP1 REVERT JUMPDEST PUSH1 0x40 MLOAD RETURNDATASIZE DUP5 DUP3 RETURNDATACOPY RETURNDATASIZE SWAP1 REVERT JUMPDEST DUP3 DUP1 REVERT JUMPDEST PUSH1 0x40 MLOAD PUSH3 0x461BCD PUSH1 0xE5 SHL DUP2 MSTORE DUP1 DUP8 ADD DUP10 SWAP1 MSTORE PUSH1 0xE PUSH1 0x24 DUP3 ADD MSTORE PUSH14 0x24B73B30B634B2103BB4B73732B9 PUSH1 0x91 SHL PUSH1 0x44 DUP3 ADD MSTORE PUSH1 0x64 SWAP1 REVERT JUMPDEST POP DUP3 PUSH1 0x1 DUP6 ADD SLOAD AND DUP8 EQ PUSH2 0x502 JUMP JUMPDEST PUSH1 0x40 MLOAD PUSH3 0x461BCD PUSH1 0xE5 SHL DUP2 MSTORE DUP1 DUP8 ADD DUP10 SWAP1 MSTORE PUSH1 0x14 PUSH1 0x24 DUP3 ADD MSTORE PUSH20 0x105CDCD95D1CC81B9BDD0819195C1BDCDA5D1959 PUSH1 0x62 SHL PUSH1 0x44 DUP3 ADD MSTORE PUSH1 0x64 SWAP1 REVERT JUMPDEST POP PUSH1 0xFF DUP2 PUSH1 0x8 SHR AND PUSH2 0x4F0 JUMP JUMPDEST POP CALLVALUE PUSH2 0x244 JUMPI DUP1 PUSH1 0x3 NOT CALLDATASIZE ADD SLT PUSH2 0x244 JUMPI PUSH1 0x20 PUSH1 0x40 MLOAD PUSH2 0x2710 DUP2 MSTORE RETURN JUMPDEST POP SWAP1 PUSH1 0x20 SWAP1 DUP2 PUSH1 0x3 NOT CALLDATASIZE ADD SLT PUSH2 0x71F JUMPI DUP1 CALLDATALOAD SWAP2 PUSH2 0x7E7 PUSH2 0x286E JUMP JUMPDEST PUSH2 0x7EF PUSH2 0x2827 JUMP JUMPDEST DUP3 DUP5 MSTORE PUSH1 0x2 DUP2 MSTORE PUSH1 0x40 DUP5 KECCAK256 PUSH1 0x1 DUP2 ADD SLOAD PUSH1 0x1 PUSH1 0x1 PUSH1 0xA0 SHL SUB SWAP3 SWAP2 SWAP1 PUSH2 0x822 SWAP1 DUP5 AND PUSH2 0x81B DUP2 ISZERO ISZERO PUSH2 0x2933 JUMP JUMPDEST CALLER EQ PUSH2 0x2A30 JUMP JUMPDEST PUSH1 0x8 DUP2 ADD SWAP3 DUP4 SLOAD SWAP5 PUSH1 0xFF SWAP6 PUSH2 0x83C DUP8 DUP3 PUSH1 0x8 SHR AND ISZERO PUSH2 0x29B2 JUMP JUMPDEST PUSH2 0x84B DUP8 DUP3 PUSH1 0x10 SHR AND ISZERO PUSH2 0x2975 JUMP JUMPDEST PUSH2 0x867 PUSH2 0x85F PUSH1 0x7 DUP7 ADD SLOAD PUSH1 0x7 SLOAD SWAP1 PUSH2 0x2712 JUMP JUMPDEST TIMESTAMP GT ISZERO PUSH2 0x29F2 JUMP JUMPDEST PUSH1 0x6 DUP5 ADD SWAP4 DUP8 DUP6 SLOAD AND PUSH1 0x2 DUP2 LT ISZERO PUSH2 0xA49 JUMPI PUSH2 0xA13 JUMPI DUP3 ADD SWAP2 DUP3 SLOAD SWAP4 PUSH2 0x2710 PUSH2 0x892 PUSH1 0x6 SLOAD DUP8 PUSH2 0x2A6B JUMP JUMPDEST DIV SWAP3 DUP6 CALLVALUE LT PUSH2 0x9DC JUMPI DUP12 DUP1 DUP6 DUP2 SWAP5 PUSH2 0x100 DUP4 SWAP6 PUSH2 0xFF00 NOT AND OR DUP14 SSTORE PUSH1 0x8 SLOAD AND GAS CALL PUSH2 0x8BB PUSH2 0x279E JUMP JUMPDEST POP ISZERO PUSH2 0x998 JUMPI POP DUP7 PUSH32 0x981102F46F858A9AD42E0E3924C2EE3DDB912D9D6D28768155FFDB174C81711F SWAP5 PUSH1 0x60 SWAP5 DUP5 PUSH2 0x8F9 PUSH2 0x91D SWAP6 DUP14 SWAP11 SWAP8 SLOAD PUSH2 0x27DE JUMP JUMPDEST SWAP1 SSTORE DUP12 DUP2 CALLVALUE GT PUSH2 0x970 JUMPI JUMPDEST POP POP SLOAD AND DUP10 PUSH1 0x40 MLOAD SWAP4 CALLER DUP6 MSTORE DUP5 ADD MSTORE PUSH1 0x40 DUP4 ADD SWAP1 PUSH2 0x25C4 JUMP JUMPDEST LOG2 SLOAD SWAP1 DUP1 DUP3 AND SWAP2 DUP3 PUSH2 0x963 JUMPI JUMPDEST POP POP PUSH2 0x939 JUMPI JUMPDEST POP PUSH1 0x1 DUP2 SSTORE DUP1 RETURN JUMPDEST PUSH32 0xEE5528BA4F234F658C6A97A7E3CBA5532E7AAD23BB249BE4141B62E6A0158A7C DUP3 DUP1 LOG2 CODESIZE PUSH2 0x931 JUMP JUMPDEST PUSH1 0x8 SHR AND SWAP1 POP CODESIZE DUP1 PUSH2 0x92A JUMP JUMPDEST DUP1 DUP1 DUP1 PUSH2 0x980 PUSH2 0x991 SWAP6 CALLVALUE PUSH2 0x27DE JUMP JUMPDEST CALLER GAS CALL PUSH2 0x98B PUSH2 0x279E JUMP JUMPDEST POP PUSH2 0x27EB JUMP JUMPDEST CODESIZE DUP12 PUSH2 0x904 JUMP JUMPDEST PUSH1 0x40 MLOAD PUSH3 0x461BCD PUSH1 0xE5 SHL DUP2 MSTORE SWAP1 DUP2 ADD DUP7 SWAP1 MSTORE PUSH1 0x1C PUSH1 0x24 DUP3 ADD MSTORE PUSH32 0x506C6174666F726D20666565207472616E73666572206661696C656400000000 PUSH1 0x44 DUP3 ADD MSTORE PUSH1 0x64 SWAP1 REVERT JUMPDEST PUSH1 0x40 MLOAD PUSH3 0x461BCD PUSH1 0xE5 SHL DUP2 MSTORE DUP1 DUP5 ADD DUP10 SWAP1 MSTORE PUSH1 0x10 PUSH1 0x24 DUP3 ADD MSTORE PUSH16 0x92DCE6EACCCCD2C6D2CADCE8408AA89 PUSH1 0x83 SHL PUSH1 0x44 DUP3 ADD MSTORE PUSH1 0x64 SWAP1 REVERT JUMPDEST PUSH1 0x40 MLOAD PUSH3 0x461BCD PUSH1 0xE5 SHL DUP2 MSTORE DUP1 DUP5 ADD DUP8 SWAP1 MSTORE PUSH1 0xF PUSH1 0x24 DUP3 ADD MSTORE PUSH15 0x4E6F7420616E204554482067616D65 PUSH1 0x88 SHL PUSH1 0x44 DUP3 ADD MSTORE PUSH1 0x64 SWAP1 REVERT JUMPDEST PUSH4 0x4E487B71 PUSH1 0xE0 SHL DUP12 MSTORE PUSH1 0x21 DUP5 MSTORE PUSH1 0x24 DUP12 REVERT JUMPDEST POP SWAP1 CALLVALUE PUSH2 0x351 JUMPI PUSH1 0x60 CALLDATASIZE PUSH1 0x3 NOT ADD SLT PUSH2 0x351 JUMPI PUSH8 0xFFFFFFFFFFFFFFFF SWAP1 DUP1 CALLDATALOAD DUP3 DUP2 GT PUSH2 0xC7B JUMPI PUSH2 0xA8F SWAP1 CALLDATASIZE SWAP1 DUP4 ADD PUSH2 0x2689 JUMP JUMPDEST SWAP1 SWAP3 PUSH1 0x24 SWAP4 DUP5 CALLDATALOAD DUP3 DUP2 GT PUSH2 0xDC1 JUMPI PUSH2 0xAAA SWAP1 CALLDATASIZE SWAP1 DUP7 ADD PUSH2 0x2689 JUMP JUMPDEST SWAP1 SWAP3 PUSH1 0x44 CALLDATALOAD SWAP1 DUP2 GT PUSH2 0x710 JUMPI PUSH2 0xAC3 SWAP1 CALLDATASIZE SWAP1 DUP8 ADD PUSH2 0x2689 JUMP JUMPDEST SWAP1 SWAP3 PUSH2 0xACD PUSH2 0x26BA JUMP JUMPDEST DUP3 DUP7 EQ DUP1 PUSH2 0xDB8 JUMPI JUMPDEST ISZERO PUSH2 0xD75 JUMPI DUP9 SWAP8 SWAP7 SWAP8 JUMPDEST DUP7 DUP2 LT PUSH2 0xAEB JUMPI DUP10 DUP1 RETURN JUMPDEST SWAP8 SWAP9 SWAP7 SWAP8 PUSH1 0x1 PUSH1 0x1 PUSH1 0xA0 SHL SUB DUP1 PUSH2 0xB0B PUSH2 0xB06 DUP5 DUP12 DUP8 PUSH2 0x2C82 JUMP JUMPDEST PUSH2 0x2C92 JUMP JUMPDEST AND ISZERO PUSH2 0xD3B JUMPI DUP1 PUSH2 0xB20 PUSH2 0xB06 DUP5 DUP8 DUP11 PUSH2 0x2C82 JUMP JUMPDEST AND ISZERO PUSH2 0xD04 JUMPI DUP1 PUSH2 0xB35 PUSH2 0xB06 DUP5 DUP12 DUP8 PUSH2 0x2C82 JUMP JUMPDEST AND PUSH1 0x20 DUP13 DUP13 PUSH2 0xB45 DUP7 DUP11 DUP14 PUSH2 0x2C82 JUMP JUMPDEST CALLDATALOAD SWAP2 PUSH1 0x40 MLOAD SWAP5 DUP6 SWAP4 DUP5 SWAP3 PUSH4 0x31A9108F PUSH1 0xE1 SHL DUP5 MSTORE DUP4 ADD MSTORE DUP5 PUSH1 0x80 MSTORE GAS STATICCALL DUP11 SWAP2 DUP2 PUSH2 0xCC3 JUMPI JUMPDEST POP PUSH2 0xBB3 JUMPI PUSH1 0x40 MLOAD PUSH3 0x461BCD PUSH1 0xE5 SHL DUP2 MSTORE PUSH1 0x80 MLOAD DUP2 DUP15 ADD MSTORE PUSH1 0x1D DUP2 DUP14 ADD MSTORE PUSH32 0x4661696C656420746F20636865636B204E4654206F776E657273686970000000 PUSH1 0x44 DUP3 ADD MSTORE PUSH1 0x64 SWAP1 REVERT JUMPDEST DUP2 SWAP12 SWAP10 SWAP12 ADDRESS SWAP2 AND SUB PUSH2 0xC7F JUMPI DUP11 SWAP1 PUSH2 0xBCF PUSH2 0xB06 DUP5 DUP12 DUP8 PUSH2 0x2C82 JUMP JUMPDEST AND PUSH2 0xBDE PUSH2 0xB06 DUP5 DUP8 DUP11 PUSH2 0x2C82 JUMP JUMPDEST PUSH2 0xBE9 DUP5 DUP9 DUP12 PUSH2 0x2C82 JUMP JUMPDEST CALLDATALOAD DUP3 EXTCODESIZE ISZERO PUSH2 0xC7B JUMPI PUSH1 0x40 DUP1 MLOAD PUSH4 0x23B872DD PUSH1 0xE0 SHL DUP2 MSTORE ADDRESS DUP2 DUP16 ADD SWAP1 DUP2 MSTORE PUSH1 0x1 PUSH1 0x1 PUSH1 0xA0 SHL SUB SWAP1 SWAP5 AND PUSH1 0x20 DUP6 ADD MSTORE SWAP1 DUP4 ADD SWAP2 SWAP1 SWAP2 MSTORE SWAP2 DUP4 SWAP2 DUP4 SWAP2 SWAP1 DUP3 SWAP1 DUP5 SWAP1 DUP3 SWAP1 PUSH1 0x60 ADD SUB SWAP3 GAS CALL DUP1 ISZERO PUSH2 0x714 JUMPI PUSH2 0xC63 JUMPI JUMPDEST POP POP PUSH1 0x0 NOT DUP2 EQ PUSH2 0xC51 JUMPI PUSH1 0x1 ADD SWAP8 SWAP7 SWAP8 PUSH2 0xAE0 JUMP JUMPDEST PUSH4 0x4E487B71 PUSH1 0xE0 SHL DUP11 MSTORE PUSH1 0x11 DUP9 MSTORE DUP9 DUP11 REVERT JUMPDEST PUSH2 0xC6C SWAP1 PUSH2 0x2735 JUMP JUMPDEST PUSH2 0xC77 JUMPI DUP10 CODESIZE PUSH2 0xC3B JUMP JUMPDEST DUP10 DUP1 REVERT JUMPDEST DUP4 DUP1 REVERT JUMPDEST PUSH1 0x40 MLOAD PUSH3 0x461BCD PUSH1 0xE5 SHL DUP2 MSTORE PUSH1 0x80 MLOAD DUP2 DUP12 ADD MSTORE PUSH1 0x1E DUP2 DUP13 ADD MSTORE PUSH32 0x436F6E747261637420646F6573206E6F74206F776E2074686973204E46540000 PUSH1 0x44 DUP3 ADD MSTORE PUSH1 0x64 SWAP1 REVERT JUMPDEST SWAP1 SWAP2 POP PUSH1 0x80 MLOAD RETURNDATASIZE DUP2 GT PUSH2 0xCFD JUMPI JUMPDEST PUSH2 0xCDB DUP2 DUP4 PUSH2 0x277C JUMP JUMPDEST DUP2 PUSH1 0x80 MLOAD SWAP2 DUP2 ADD SUB SLT PUSH2 0xCF9 JUMPI MLOAD DUP3 DUP2 AND DUP2 SUB PUSH2 0xCF9 JUMPI SWAP1 CODESIZE PUSH2 0xB6A JUMP JUMPDEST DUP11 DUP1 REVERT JUMPDEST POP RETURNDATASIZE PUSH2 0xCD1 JUMP JUMPDEST PUSH1 0x40 MLOAD PUSH3 0x461BCD PUSH1 0xE5 SHL DUP2 MSTORE PUSH1 0x20 DUP2 DUP14 ADD MSTORE PUSH1 0x11 DUP2 DUP13 ADD MSTORE PUSH17 0x125B9D985B1A59081C9958DA5C1A595B9D PUSH1 0x7A SHL PUSH1 0x44 DUP3 ADD MSTORE PUSH1 0x64 SWAP1 REVERT JUMPDEST PUSH1 0x40 MLOAD PUSH3 0x461BCD PUSH1 0xE5 SHL DUP2 MSTORE PUSH1 0x20 DUP2 DUP14 ADD MSTORE PUSH1 0x14 DUP2 DUP13 ADD MSTORE PUSH20 0x125B9D985B1A59081391950818DBDB9D1C9858DD PUSH1 0x62 SHL PUSH1 0x44 DUP3 ADD MSTORE PUSH1 0x64 SWAP1 REVERT JUMPDEST PUSH1 0x40 MLOAD PUSH3 0x461BCD PUSH1 0xE5 SHL DUP2 MSTORE PUSH1 0x20 DUP2 DUP10 ADD MSTORE PUSH1 0x18 DUP2 DUP11 ADD MSTORE PUSH32 0x4172726179206C656E67746873206D757374206D617463680000000000000000 PUSH1 0x44 DUP3 ADD MSTORE PUSH1 0x64 SWAP1 REVERT JUMPDEST POP DUP2 DUP4 EQ PUSH2 0xAD6 JUMP JUMPDEST DUP7 DUP1 REVERT JUMPDEST POP CALLVALUE PUSH2 0x244 JUMPI PUSH1 0x40 CALLDATASIZE PUSH1 0x3 NOT ADD SLT PUSH2 0x244 JUMPI PUSH2 0xDDF PUSH2 0x2582 JUMP JUMPDEST PUSH1 0x1 PUSH1 0x1 PUSH1 0xA0 SHL SUB AND DUP2 MSTORE PUSH1 0x20 SWAP2 SWAP1 SWAP2 MSTORE PUSH1 0x40 DUP2 KECCAK256 DUP1 SLOAD PUSH1 0x24 CALLDATALOAD SWAP3 SWAP1 DUP4 LT ISZERO PUSH2 0x244 JUMPI PUSH1 0x20 PUSH2 0xE0E DUP5 DUP5 PUSH2 0x265B JUMP JUMPDEST SWAP1 SLOAD PUSH1 0x40 MLOAD SWAP2 PUSH1 0x3 SHL SHR DUP2 MSTORE RETURN JUMPDEST POP SWAP1 DUP2 PUSH1 0x3 NOT CALLDATASIZE ADD SLT PUSH2 0x351 JUMPI PUSH2 0xE31 PUSH2 0x286E JUMP JUMPDEST PUSH2 0xE39 PUSH2 0x2827 JUMP JUMPDEST PUSH2 0xE44 PUSH1 0x5 SLOAD PUSH2 0x2B73 JUMP JUMPDEST SWAP1 DUP2 CALLVALUE LT PUSH2 0xF11 JUMPI CALLER DUP4 MSTORE PUSH1 0x3 PUSH1 0x20 MSTORE PUSH1 0x40 DUP4 KECCAK256 PUSH2 0xE63 DUP4 DUP3 SLOAD PUSH2 0x2712 JUMP JUMPDEST SWAP1 SSTORE DUP3 DUP1 DUP1 DUP1 DUP6 PUSH1 0x1 DUP1 PUSH1 0xA0 SHL SUB PUSH1 0x8 SLOAD AND GAS CALL PUSH2 0xE7F PUSH2 0x279E JUMP JUMPDEST POP ISZERO PUSH2 0xED7 JUMPI POP DUP1 CALLVALUE GT PUSH2 0xEC1 JUMPI JUMPDEST PUSH1 0x40 MLOAD SWAP1 DUP2 MSTORE PUSH32 0x3A5F70A82EB571B0A884A01D171C139C6EC5169BA9E11E00D211CB4F76391E14 PUSH1 0x20 CALLER SWAP3 LOG2 PUSH1 0x1 DUP2 SSTORE DUP1 RETURN JUMPDEST PUSH2 0xED2 DUP3 DUP1 DUP1 DUP1 PUSH2 0x980 DUP7 CALLVALUE PUSH2 0x27DE JUMP JUMPDEST PUSH2 0xE8E JUMP JUMPDEST PUSH1 0x64 SWAP1 PUSH1 0x20 PUSH1 0x40 MLOAD SWAP2 PUSH3 0x461BCD PUSH1 0xE5 SHL DUP4 MSTORE DUP3 ADD MSTORE PUSH1 0x13 PUSH1 0x24 DUP3 ADD MSTORE PUSH19 0x119959481D1C985B9CD9995C8819985A5B1959 PUSH1 0x6A SHL PUSH1 0x44 DUP3 ADD MSTORE REVERT JUMPDEST PUSH1 0x64 SWAP1 PUSH1 0x20 PUSH1 0x40 MLOAD SWAP2 PUSH3 0x461BCD PUSH1 0xE5 SHL DUP4 MSTORE DUP3 ADD MSTORE PUSH1 0x18 PUSH1 0x24 DUP3 ADD MSTORE PUSH32 0x496E73756666696369656E74206C697374696E67206665650000000000000000 PUSH1 0x44 DUP3 ADD MSTORE REVERT JUMPDEST POP DUP1 SWAP2 CALLVALUE PUSH2 0xFF5 JUMPI PUSH1 0x60 CALLDATASIZE PUSH1 0x3 NOT ADD SLT PUSH2 0xFF5 JUMPI PUSH2 0xF71 PUSH2 0x2582 JUMP JUMPDEST PUSH2 0xF79 PUSH2 0x25AE JUMP JUMPDEST SWAP1 PUSH2 0xF82 PUSH2 0x26BA JUMP JUMPDEST PUSH1 0x1 PUSH1 0x1 PUSH1 0xA0 SHL SUB AND SWAP2 DUP3 EXTCODESIZE ISZERO PUSH2 0xFF0 JUMPI PUSH1 0x40 DUP1 MLOAD PUSH4 0x23B872DD PUSH1 0xE0 SHL DUP2 MSTORE ADDRESS SWAP3 DUP2 ADD SWAP3 DUP4 MSTORE PUSH1 0x1 PUSH1 0x1 PUSH1 0xA0 SHL SUB SWAP1 SWAP4 AND PUSH1 0x20 DUP4 ADD MSTORE PUSH1 0x24 CALLDATALOAD SWAP1 DUP3 ADD MSTORE SWAP1 SWAP2 DUP4 SWAP2 DUP4 SWAP2 SWAP1 DUP3 SWAP1 DUP5 SWAP1 DUP3 SWAP1 PUSH1 0x60 ADD SUB SWAP3 GAS CALL DUP1 ISZERO PUSH2 0x714 JUMPI PUSH2 0xFE0 JUMPI POP RETURN JUMPDEST PUSH2 0xFE9 SWAP1 PUSH2 0x2735 JUMP JUMPDEST PUSH2 0x244 JUMPI DUP1 RETURN JUMPDEST POP POP POP REVERT JUMPDEST POP REVERT JUMPDEST POP CALLVALUE PUSH2 0x244 JUMPI PUSH1 0x80 CALLDATASIZE PUSH1 0x3 NOT ADD SLT PUSH2 0x244 JUMPI DUP2 CALLDATALOAD PUSH2 0x1014 PUSH2 0x2598 JUMP JUMPDEST PUSH1 0x64 CALLDATALOAD PUSH1 0x44 CALLDATALOAD PUSH1 0x2 DUP3 LT ISZERO PUSH2 0x1157 JUMPI PUSH2 0x102B PUSH2 0x26BA JUMP JUMPDEST DUP4 DUP6 MSTORE PUSH1 0x2 PUSH1 0x20 MSTORE PUSH1 0x40 DUP6 KECCAK256 DUP1 SLOAD PUSH1 0x1 PUSH1 0x1 PUSH1 0xA0 SHL SUB SWAP3 SWAP1 PUSH2 0x1050 SWAP1 DUP5 AND ISZERO ISZERO PUSH2 0x2933 JUMP JUMPDEST PUSH1 0x1 DUP3 ADD SWAP1 DUP2 SLOAD SWAP2 DUP5 DUP4 AND PUSH2 0x111C JUMPI SWAP2 PUSH32 0x212C0BDCF42696E85CDDF68FC1623B3327138B7898282F7356AB7EC713E9CF32 SWAP8 SWAP9 SWAP10 SWAP2 DUP5 SWAP4 PUSH2 0x109F PUSH1 0xFF PUSH1 0x8 PUSH2 0x10FD SWAP10 SWAP9 ADD SLOAD PUSH1 0x10 SHR AND ISZERO PUSH2 0x2975 JUMP JUMPDEST DUP6 DUP10 AND DUP1 SWAP4 PUSH1 0x1 PUSH1 0x1 PUSH1 0x60 SHL SUB PUSH1 0xA0 SHL AND OR SWAP1 SSTORE TIMESTAMP PUSH1 0x7 DUP6 ADD SSTORE DUP7 ISZERO PUSH1 0x0 EQ PUSH2 0x1103 JUMPI PUSH2 0x10CB SWAP1 PUSH2 0x2B73 JUMP JUMPDEST DUP4 DUP4 ADD SSTORE PUSH1 0x6 DUP4 ADD DUP1 SLOAD PUSH1 0xFF NOT AND SWAP1 SSTORE JUMPDEST DUP10 MSTORE PUSH1 0x20 MSTORE PUSH2 0x10EE DUP8 PUSH1 0x40 DUP11 KECCAK256 PUSH2 0x28D0 JUMP JUMPDEST SLOAD AND SWAP2 PUSH1 0x40 MLOAD SWAP4 DUP5 SWAP4 DUP5 PUSH2 0x290A JUMP JUMPDEST SUB SWAP1 LOG2 DUP1 RETURN JUMPDEST PUSH1 0x5 DUP5 ADD SSTORE PUSH1 0x6 DUP4 ADD DUP1 SLOAD PUSH1 0xFF NOT AND PUSH1 0x1 OR SWAP1 SSTORE PUSH2 0x10DC JUMP JUMPDEST PUSH1 0x40 MLOAD PUSH3 0x461BCD PUSH1 0xE5 SHL DUP2 MSTORE PUSH1 0x20 DUP2 DUP13 ADD MSTORE PUSH1 0x14 PUSH1 0x24 DUP3 ADD MSTORE PUSH20 0x141B185E595C880C88185B1C9958591E481CD95D PUSH1 0x62 SHL PUSH1 0x44 DUP3 ADD MSTORE PUSH1 0x64 SWAP1 REVERT JUMPDEST DUP5 DUP1 REVERT JUMPDEST POP CALLVALUE PUSH2 0x244 JUMPI DUP1 PUSH1 0x3 NOT CALLDATASIZE ADD SLT PUSH2 0x244 JUMPI PUSH1 0x1 SLOAD PUSH1 0x40 MLOAD PUSH1 0x1 PUSH1 0x1 PUSH1 0xA0 SHL SUB SWAP1 SWAP2 AND DUP2 MSTORE PUSH1 0x20 SWAP1 RETURN JUMPDEST POP CALLVALUE PUSH2 0x244 JUMPI DUP1 PUSH1 0x3 NOT CALLDATASIZE ADD SLT PUSH2 0x244 JUMPI PUSH1 0x20 PUSH1 0x6 SLOAD PUSH1 0x40 MLOAD SWAP1 DUP2 MSTORE RETURN JUMPDEST POP CALLVALUE PUSH2 0x244 JUMPI PUSH1 0x20 CALLDATASIZE PUSH1 0x3 NOT ADD SLT PUSH2 0x244 JUMPI DUP2 CALLDATALOAD DUP2 MSTORE PUSH1 0x2 PUSH1 0x20 MSTORE PUSH1 0x40 DUP2 KECCAK256 SWAP1 PUSH1 0x40 MLOAD SWAP1 PUSH2 0x11CF DUP3 PUSH2 0x275F JUMP JUMPDEST PUSH1 0x1 DUP1 PUSH1 0xA0 SHL SUB DUP4 SLOAD AND DUP3 MSTORE PUSH1 0x1 DUP1 PUSH1 0xA0 SHL SUB PUSH1 0x1 DUP5 ADD SLOAD AND SWAP2 PUSH1 0x20 DUP2 ADD SWAP3 DUP4 MSTORE PUSH1 0x1 DUP1 PUSH1 0xA0 SHL SUB PUSH1 0x2 DUP6 ADD SLOAD AND SWAP4 PUSH1 0x40 DUP3 ADD SWAP5 DUP6 MSTORE PUSH1 0x3 DUP2 ADD SLOAD SWAP3 PUSH1 0x60 DUP4 ADD SWAP4 DUP5 MSTORE DUP7 DUP3 ADD SLOAD SWAP2 PUSH1 0x80 DUP5 ADD SWAP3 DUP4 MSTORE PUSH1 0x5 DUP2 ADD SLOAD SWAP2 PUSH1 0xA0 DUP6 ADD SWAP3 DUP4 MSTORE PUSH2 0x123F PUSH1 0xFF PUSH1 0x6 DUP5 ADD SLOAD AND PUSH1 0xC0 DUP8 ADD PUSH2 0x28C4 JUMP JUMPDEST PUSH1 0x8 PUSH1 0x7 DUP4 ADD SLOAD SWAP3 PUSH1 0xE0 DUP8 ADD SWAP4 DUP5 MSTORE ADD SLOAD PUSH1 0xFF DUP2 AND ISZERO ISZERO PUSH2 0x100 DUP8 ADD MSTORE PUSH1 0xFF DUP2 PUSH1 0x8 SHR AND ISZERO ISZERO PUSH2 0x120 DUP8 ADD MSTORE PUSH1 0xFF DUP2 PUSH1 0x10 SHR AND ISZERO ISZERO PUSH2 0x140 DUP8 ADD MSTORE PUSH1 0x1 DUP1 PUSH1 0xA0 SHL SUB SWAP1 PUSH1 0x18 SHR AND PUSH2 0x160 DUP7 ADD MSTORE PUSH1 0x1 DUP1 PUSH1 0xA0 SHL SUB DUP6 MLOAD AND SWAP7 PUSH1 0x1 DUP1 PUSH1 0xA0 SHL SUB SWAP1 MLOAD AND SWAP8 PUSH1 0x1 DUP1 PUSH1 0xA0 SHL SUB SWAP1 MLOAD AND SWAP6 MLOAD SWAP4 MLOAD SWAP3 MLOAD SWAP2 PUSH1 0xC0 DUP7 ADD MLOAD SWAP2 PUSH1 0x2 DUP4 LT ISZERO PUSH2 0x1302 JUMPI POP PUSH2 0x240 SWAP8 SWAP9 SWAP10 POP MLOAD SWAP2 PUSH2 0x100 DUP7 ADD MLOAD ISZERO ISZERO SWAP4 PUSH2 0x120 DUP8 ADD MLOAD ISZERO ISZERO SWAP6 PUSH2 0x140 DUP9 ADD MLOAD ISZERO ISZERO SWAP8 PUSH2 0x160 PUSH1 0x1 DUP1 PUSH1 0xA0 SHL SUB SWAP2 ADD MLOAD AND SWAP9 PUSH1 0x40 MLOAD SWAP13 DUP14 SWAP13 DUP14 PUSH2 0x25E7 JUMP JUMPDEST PUSH4 0x4E487B71 PUSH1 0xE0 SHL DUP2 MSTORE PUSH1 0x21 DUP12 MSTORE PUSH1 0x24 SWAP1 REVERT JUMPDEST POP SWAP1 CALLVALUE PUSH2 0x351 JUMPI DUP2 PUSH1 0x3 NOT CALLDATASIZE ADD SLT PUSH2 0x351 JUMPI PUSH2 0x132F PUSH2 0x26BA JUMP JUMPDEST DUP2 DUP1 DUP1 DUP1 PUSH1 0x1 DUP1 PUSH1 0xA0 SHL SUB PUSH1 0x1 SLOAD AND SELFBALANCE SWAP1 GAS CALL PUSH2 0x134A PUSH2 0x279E JUMP JUMPDEST POP ISZERO PUSH2 0x1354 JUMPI POP DUP1 RETURN JUMPDEST PUSH1 0x64 SWAP1 PUSH1 0x20 PUSH1 0x40 MLOAD SWAP2 PUSH3 0x461BCD PUSH1 0xE5 SHL DUP4 MSTORE DUP3 ADD MSTORE PUSH1 0xF PUSH1 0x24 DUP3 ADD MSTORE PUSH15 0x151C985B9CD9995C8819985A5B1959 PUSH1 0x8A SHL PUSH1 0x44 DUP3 ADD MSTORE REVERT JUMPDEST POP CALLVALUE PUSH2 0x244 JUMPI DUP1 PUSH1 0x3 NOT CALLDATASIZE ADD SLT PUSH2 0x244 JUMPI PUSH1 0x9 SLOAD PUSH1 0x40 MLOAD PUSH1 0x1 PUSH1 0x1 PUSH1 0xA0 SHL SUB SWAP1 SWAP2 AND DUP2 MSTORE PUSH1 0x20 SWAP1 RETURN JUMPDEST POP SWAP1 CALLVALUE PUSH2 0x351 JUMPI PUSH1 0x20 CALLDATASIZE PUSH1 0x3 NOT ADD SLT PUSH2 0x351 JUMPI PUSH1 0x40 PUSH1 0x20 SWAP3 DUP3 CALLDATALOAD DUP2 MSTORE PUSH1 0x2 DUP5 MSTORE KECCAK256 SWAP1 PUSH1 0x8 PUSH1 0x40 MLOAD SWAP3 PUSH2 0x13E4 DUP5 PUSH2 0x275F JUMP JUMPDEST DUP1 SLOAD PUSH1 0x1 PUSH1 0x1 PUSH1 0xA0 SHL SUB SWAP1 DUP2 AND DUP6 MSTORE PUSH1 0x1 DUP3 ADD SLOAD DUP2 AND DUP7 DUP7 ADD MSTORE PUSH1 0x2 DUP3 ADD SLOAD DUP2 AND PUSH1 0x40 DUP7 ADD MSTORE PUSH1 0x3 DUP3 ADD SLOAD PUSH1 0x60 DUP7 ADD MSTORE SWAP3 DUP2 ADD SLOAD PUSH1 0x80 DUP6 ADD MSTORE PUSH1 0x5 DUP2 ADD SLOAD PUSH1 0xA0 DUP6 ADD MSTORE PUSH1 0x6 DUP2 ADD SLOAD PUSH2 0x143C SWAP1 PUSH1 0xFF AND PUSH1 0xC0 DUP7 ADD PUSH2 0x28C4 JUMP JUMPDEST PUSH1 0x7 DUP2 ADD SLOAD PUSH1 0xE0 DUP6 ADD MSTORE ADD SLOAD SWAP1 PUSH1 0xFF DUP3 AND ISZERO ISZERO SWAP3 DUP4 PUSH2 0x100 DUP3 ADD MSTORE PUSH2 0x160 PUSH1 0xFF DUP5 PUSH1 0x8 SHR AND ISZERO ISZERO SWAP3 DUP4 PUSH2 0x120 DUP5 ADD MSTORE PUSH1 0xFF DUP6 PUSH1 0x10 SHR AND ISZERO SWAP5 DUP6 ISZERO PUSH2 0x140 DUP6 ADD MSTORE PUSH1 0x18 SHR AND SWAP2 ADD MSTORE DUP3 PUSH2 0x14A2 JUMPI JUMPDEST POP DUP2 PUSH2 0x149A JUMPI POP PUSH1 0x40 MLOAD SWAP1 ISZERO ISZERO DUP2 MSTORE RETURN JUMPDEST SWAP1 POP CODESIZE PUSH2 0x327 JUMP JUMPDEST SWAP2 POP CODESIZE PUSH2 0x1489 JUMP JUMPDEST POP SWAP1 CALLVALUE PUSH2 0x351 JUMPI PUSH1 0x40 CALLDATASIZE PUSH1 0x3 NOT ADD SLT PUSH2 0x351 JUMPI DUP1 CALLDATALOAD SWAP1 PUSH2 0x14C8 PUSH2 0x286E JUMP JUMPDEST PUSH2 0x14D0 PUSH2 0x2827 JUMP JUMPDEST DUP2 DUP4 MSTORE PUSH1 0x2 PUSH1 0x20 SWAP1 DUP2 MSTORE PUSH1 0x40 DUP5 KECCAK256 PUSH1 0x1 DUP2 ADD SLOAD PUSH1 0x1 PUSH1 0x1 PUSH1 0xA0 SHL SUB SWAP3 SWAP2 SWAP1 PUSH2 0x14FF SWAP1 DUP5 AND PUSH2 0x81B DUP2 ISZERO ISZERO PUSH2 0x2933 JUMP JUMPDEST PUSH1 0x8 DUP2 ADD SWAP3 DUP4 SLOAD PUSH1 0xFF SWAP6 PUSH2 0x1518 DUP8 DUP4 PUSH1 0x8 SHR AND ISZERO PUSH2 0x29B2 JUMP JUMPDEST PUSH2 0x1527 DUP8 DUP4 PUSH1 0x10 SHR AND ISZERO PUSH2 0x2975 JUMP JUMPDEST PUSH2 0x153B PUSH2 0x85F PUSH1 0x7 DUP7 ADD SLOAD PUSH1 0x7 SLOAD SWAP1 PUSH2 0x2712 JUMP JUMPDEST PUSH1 0x6 DUP5 ADD SWAP4 DUP8 DUP6 SLOAD AND PUSH1 0x2 DUP2 LT ISZERO PUSH2 0x1778 JUMPI PUSH1 0x1 SUB PUSH2 0x1742 JUMPI PUSH1 0x5 ADD SWAP3 DUP4 SLOAD PUSH2 0x2710 PUSH2 0x1569 PUSH1 0x6 SLOAD DUP4 PUSH2 0x2A6B JUMP JUMPDEST DIV SWAP4 DUP2 PUSH1 0x24 CALLDATALOAD LT PUSH2 0x170A JUMPI PUSH2 0xFF00 NOT AND PUSH2 0x100 OR DUP9 SSTORE PUSH1 0xA SLOAD PUSH1 0x40 DUP1 MLOAD PUSH4 0x23B872DD PUSH1 0xE0 SHL DUP2 MSTORE CALLER DUP7 DUP3 ADD SWAP1 DUP2 MSTORE ADDRESS PUSH1 0x20 DUP3 ADD MSTORE SWAP2 DUP3 ADD SWAP4 SWAP1 SWAP4 MSTORE DUP13 SWAP4 SWAP3 SWAP2 DUP10 SWAP2 DUP4 SWAP2 DUP6 AND SWAP1 DUP3 SWAP1 DUP8 SWAP1 DUP3 SWAP1 PUSH1 0x60 ADD SUB SWAP3 GAS CALL SWAP2 DUP3 ISZERO PUSH2 0x16FF JUMPI PUSH2 0x15D9 DUP10 SWAP4 DUP8 SWAP4 PUSH2 0x1614 SWAP7 SWAP2 PUSH2 0x16E8 JUMPI POP PUSH2 0x2A96 JUMP JUMPDEST DUP1 PUSH1 0xA SLOAD AND SWAP1 PUSH1 0x8 SLOAD AND DUP14 PUSH1 0x40 MLOAD DUP1 SWAP7 DUP2 SWAP6 DUP3 SWAP5 PUSH4 0xA9059CBB PUSH1 0xE0 SHL DUP5 MSTORE DUP11 DUP5 ADD PUSH1 0x20 SWAP1 SWAP4 SWAP3 SWAP2 SWAP4 PUSH1 0x40 DUP2 ADD SWAP5 PUSH1 0x1 DUP1 PUSH1 0xA0 SHL SUB AND DUP2 MSTORE ADD MSTORE JUMP JUMPDEST SUB SWAP3 GAS CALL SWAP1 DUP2 ISZERO PUSH2 0x16DD JUMPI DUP11 SWAP2 PUSH2 0x16C0 JUMPI JUMPDEST POP ISZERO PUSH2 0x167C JUMPI POP SWAP3 PUSH2 0x91D DUP7 PUSH32 0x981102F46F858A9AD42E0E3924C2EE3DDB912D9D6D28768155FFDB174C81711F SWAP5 DUP5 PUSH2 0x1663 DUP12 SWAP9 PUSH1 0x60 SWAP8 SLOAD PUSH2 0x27DE JUMP JUMPDEST SWAP1 SSTORE SLOAD AND DUP10 PUSH1 0x40 MLOAD SWAP4 CALLER DUP6 MSTORE DUP5 ADD MSTORE PUSH1 0x40 DUP4 ADD SWAP1 PUSH2 0x25C4 JUMP JUMPDEST PUSH1 0x40 MLOAD PUSH3 0x461BCD PUSH1 0xE5 SHL DUP2 MSTORE SWAP1 DUP2 ADD DUP6 SWAP1 MSTORE PUSH1 0x18 PUSH1 0x24 DUP3 ADD MSTORE PUSH32 0x5553444320666565207472616E73666572206661696C65640000000000000000 PUSH1 0x44 DUP3 ADD MSTORE PUSH1 0x64 SWAP1 REVERT JUMPDEST PUSH2 0x16D7 SWAP2 POP DUP7 RETURNDATASIZE DUP9 GT PUSH2 0x6D7 JUMPI PUSH2 0x6C9 DUP2 DUP4 PUSH2 0x277C JUMP JUMPDEST CODESIZE PUSH2 0x1626 JUMP JUMPDEST PUSH1 0x40 MLOAD RETURNDATASIZE DUP13 DUP3 RETURNDATACOPY RETURNDATASIZE SWAP1 REVERT JUMPDEST PUSH2 0x6D1 SWAP2 POP DUP6 RETURNDATASIZE DUP8 GT PUSH2 0x6D7 JUMPI PUSH2 0x6C9 DUP2 DUP4 PUSH2 0x277C JUMP JUMPDEST PUSH1 0x40 MLOAD RETURNDATASIZE DUP6 DUP3 RETURNDATACOPY RETURNDATASIZE SWAP1 REVERT JUMPDEST PUSH1 0x40 MLOAD PUSH3 0x461BCD PUSH1 0xE5 SHL DUP2 MSTORE DUP1 DUP6 ADD DUP10 SWAP1 MSTORE PUSH1 0x11 PUSH1 0x24 DUP3 ADD MSTORE PUSH17 0x496E73756666696369656E742055534443 PUSH1 0x78 SHL PUSH1 0x44 DUP3 ADD MSTORE PUSH1 0x64 SWAP1 REVERT JUMPDEST PUSH1 0x40 MLOAD PUSH3 0x461BCD PUSH1 0xE5 SHL DUP2 MSTORE DUP1 DUP4 ADD DUP8 SWAP1 MSTORE PUSH1 0xF PUSH1 0x24 DUP3 ADD MSTORE PUSH15 0x4E6F74206120555344432067616D65 PUSH1 0x88 SHL PUSH1 0x44 DUP3 ADD MSTORE PUSH1 0x64 SWAP1 REVERT JUMPDEST PUSH4 0x4E487B71 PUSH1 0xE0 SHL DUP12 MSTORE PUSH1 0x21 DUP4 MSTORE PUSH1 0x24 DUP12 REVERT JUMPDEST POP CALLVALUE PUSH2 0x244 JUMPI DUP1 PUSH1 0x3 NOT CALLDATASIZE ADD SLT PUSH2 0x244 JUMPI PUSH2 0x17A4 PUSH2 0x26BA JUMP JUMPDEST PUSH1 0x1 DUP1 SLOAD PUSH1 0x1 PUSH1 0x1 PUSH1 0xA0 SHL SUB NOT DUP2 AND SWAP1 SWAP2 SSTORE PUSH1 0x0 SWAP1 PUSH1 0x1 PUSH1 0x1 PUSH1 0xA0 SHL SUB AND PUSH32 0x8BE0079C531659141344CD1FD0A4F28419497F9722A3DAAFE3B4186F6B6457E0 DUP3 DUP1 LOG3 DUP1 RETURN JUMPDEST POP SWAP1 CALLVALUE PUSH2 0x351 JUMPI PUSH1 0x20 SWAP1 DUP2 PUSH1 0x3 NOT CALLDATASIZE ADD SLT PUSH2 0x71F JUMPI DUP1 CALLDATALOAD SWAP2 PUSH2 0x1809 PUSH2 0x286E JUMP JUMPDEST DUP3 DUP5 MSTORE PUSH1 0x2 DUP2 MSTORE PUSH1 0x40 DUP5 KECCAK256 DUP1 SLOAD SWAP1 SWAP3 PUSH1 0x1 PUSH1 0x1 PUSH1 0xA0 SHL SUB SWAP2 DUP3 AND SWAP1 PUSH2 0x182F DUP3 ISZERO ISZERO PUSH2 0x2933 JUMP JUMPDEST PUSH1 0x8 DUP6 ADD SWAP2 DUP3 SLOAD PUSH1 0xFF SWAP2 PUSH2 0x1848 DUP4 DUP4 PUSH1 0x10 SHR AND ISZERO PUSH2 0x2975 JUMP JUMPDEST PUSH2 0x1859 PUSH1 0x7 DUP10 ADD SLOAD PUSH1 0x7 SLOAD SWAP1 PUSH2 0x2712 JUMP JUMPDEST TIMESTAMP GT ISZERO PUSH2 0x1C34 JUMPI CALLER EQ DUP1 ISZERO PUSH2 0x1C25 JUMPI JUMPDEST ISZERO PUSH2 0x1BF2 JUMPI DUP9 SWAP4 SWAP3 SWAP2 SWAP1 DUP2 DUP2 AND DUP1 DUP1 PUSH2 0x1BE5 JUMPI JUMPDEST ISZERO PUSH2 0x1949 JUMPI POP POP POP DUP4 DUP7 SLOAD AND SWAP2 PUSH2 0x1895 DUP4 CALLER EQ PUSH2 0x2B1E JUMP JUMPDEST DUP1 SLOAD PUSH3 0xFF0000 NOT AND PUSH3 0x10000 OR SWAP1 SSTORE PUSH1 0x2 DUP7 ADD SLOAD PUSH1 0x3 DUP8 ADD SLOAD SWAP1 DUP6 AND DUP1 EXTCODESIZE ISZERO PUSH2 0x1157 JUMPI PUSH1 0x40 DUP1 MLOAD PUSH4 0x23B872DD PUSH1 0xE0 SHL DUP2 MSTORE ADDRESS SWAP5 DUP2 ADD SWAP5 DUP6 MSTORE PUSH1 0x1 PUSH1 0x1 PUSH1 0xA0 SHL SUB SWAP1 SWAP6 AND PUSH1 0x20 DUP6 ADD MSTORE DUP4 ADD SWAP2 SWAP1 SWAP2 MSTORE DUP4 SWAP2 DUP4 SWAP2 SWAP1 DUP3 SWAP1 DUP5 SWAP1 DUP3 SWAP1 PUSH1 0x60 ADD SUB SWAP3 GAS CALL DUP1 ISZERO PUSH2 0x714 JUMPI PUSH2 0x1935 JUMPI JUMPDEST POP POP PUSH32 0xBEB9DB71629193A6A8D82214E24CE084D5F6B1C980D4CDA5CEC9139A2EA33832 SWAP3 SLOAD AND PUSH1 0x40 MLOAD SWAP1 DUP2 MSTORE LOG2 JUMPDEST PUSH1 0x1 DUP2 SSTORE DUP1 RETURN JUMPDEST PUSH2 0x193E SWAP1 PUSH2 0x2735 JUMP JUMPDEST PUSH2 0x1157 JUMPI DUP5 CODESIZE PUSH2 0x1900 JUMP JUMPDEST SWAP1 SWAP2 SWAP6 SWAP7 SWAP8 SWAP4 SWAP3 SWAP5 POP ISZERO DUP1 DUP1 SWAP2 PUSH2 0x1BD9 JUMPI JUMPDEST ISZERO PUSH2 0x1B4D JUMPI POP POP PUSH1 0x1 DUP3 ADD SWAP4 DUP6 DUP6 SLOAD AND SWAP2 PUSH2 0x1977 DUP4 CALLER EQ PUSH2 0x2B1E JUMP JUMPDEST DUP1 SLOAD PUSH3 0xFF0000 NOT AND PUSH3 0x10000 OR SWAP1 SSTORE PUSH1 0x6 DUP4 ADD SLOAD AND PUSH1 0x2 DUP2 LT ISZERO PUSH2 0x1B3A JUMPI DUP9 SWAP3 SWAP2 DUP8 SWAP2 PUSH2 0x1A42 JUMPI POP POP DUP2 DUP1 DUP1 SWAP3 PUSH2 0x19C5 DUP7 DUP10 DUP10 SLOAD AND SWAP3 ADD SLOAD PUSH2 0x2710 PUSH2 0x19BE PUSH1 0x6 SLOAD DUP4 PUSH2 0x2A6B JUMP JUMPDEST DIV SWAP1 PUSH2 0x2712 JUMP JUMPDEST SWAP1 GAS CALL PUSH2 0x19D0 PUSH2 0x279E JUMP JUMPDEST POP ISZERO PUSH2 0x1A0A JUMPI POP SWAP1 PUSH32 0xBEB9DB71629193A6A8D82214E24CE084D5F6B1C980D4CDA5CEC9139A2EA33832 SWAP3 SWAP2 JUMPDEST SLOAD AND PUSH1 0x40 MLOAD SWAP1 DUP2 MSTORE LOG2 PUSH2 0x192E JUMP JUMPDEST PUSH1 0x40 MLOAD PUSH3 0x461BCD PUSH1 0xE5 SHL DUP2 MSTORE SWAP1 DUP2 ADD DUP5 SWAP1 MSTORE PUSH1 0x11 PUSH1 0x24 DUP3 ADD MSTORE PUSH17 0x115512081C99599D5B990819985A5B1959 PUSH1 0x7A SHL PUSH1 0x44 DUP3 ADD MSTORE PUSH1 0x64 SWAP1 REVERT JUMPDEST SWAP1 SWAP2 PUSH2 0x1A97 SWAP4 POP PUSH2 0x1A65 PUSH1 0x5 DUP9 PUSH1 0xA SLOAD AND SWAP3 ADD SLOAD PUSH2 0x2710 PUSH2 0x19BE PUSH1 0x6 SLOAD DUP4 PUSH2 0x2A6B JUMP JUMPDEST SWAP2 DUP11 PUSH1 0x40 MLOAD DUP1 SWAP7 DUP2 SWAP6 DUP3 SWAP5 PUSH4 0xA9059CBB PUSH1 0xE0 SHL DUP5 MSTORE DUP11 DUP5 ADD PUSH1 0x20 SWAP1 SWAP4 SWAP3 SWAP2 SWAP4 PUSH1 0x40 DUP2 ADD SWAP5 PUSH1 0x1 DUP1 PUSH1 0xA0 SHL SUB AND DUP2 MSTORE ADD MSTORE JUMP JUMPDEST SUB SWAP3 GAS CALL SWAP1 DUP2 ISZERO PUSH2 0x1B2F JUMPI DUP8 SWAP2 PUSH2 0x1B12 JUMPI JUMPDEST POP ISZERO PUSH2 0x1AD9 JUMPI POP SWAP1 PUSH32 0xBEB9DB71629193A6A8D82214E24CE084D5F6B1C980D4CDA5CEC9139A2EA33832 SWAP3 SWAP2 PUSH2 0x19FC JUMP JUMPDEST PUSH1 0x40 MLOAD PUSH3 0x461BCD PUSH1 0xE5 SHL DUP2 MSTORE SWAP1 DUP2 ADD DUP5 SWAP1 MSTORE PUSH1 0x12 PUSH1 0x24 DUP3 ADD MSTORE PUSH18 0x1554D110C81C99599D5B990819985A5B1959 PUSH1 0x72 SHL PUSH1 0x44 DUP3 ADD MSTORE PUSH1 0x64 SWAP1 REVERT JUMPDEST PUSH2 0x1B29 SWAP2 POP DUP6 RETURNDATASIZE DUP8 GT PUSH2 0x6D7 JUMPI PUSH2 0x6C9 DUP2 DUP4 PUSH2 0x277C JUMP JUMPDEST CODESIZE PUSH2 0x1AA9 JUMP JUMPDEST PUSH1 0x40 MLOAD RETURNDATASIZE DUP10 DUP3 RETURNDATACOPY RETURNDATASIZE SWAP1 REVERT JUMPDEST PUSH4 0x4E487B71 PUSH1 0xE0 SHL DUP10 MSTORE PUSH1 0x21 DUP5 MSTORE PUSH1 0x24 DUP10 REVERT JUMPDEST SWAP4 POP SWAP5 POP SWAP5 SWAP3 SWAP1 POP DUP2 PUSH2 0x1BCB JUMPI JUMPDEST POP PUSH2 0x1B6A JUMPI JUMPDEST POP POP POP POP PUSH2 0x192E JUMP JUMPDEST PUSH32 0xD48B0C9992D8D4B8967D1584DC8C1955390D9FF30639A7DA9C77E7F0DB86C3D8 SWAP3 PUSH3 0x10000 PUSH1 0x60 SWAP4 PUSH3 0xFF0000 NOT AND OR SWAP1 SSTORE PUSH1 0x10 PUSH1 0x40 MLOAD SWAP2 DUP1 DUP4 MSTORE DUP3 ADD MSTORE PUSH16 0x4E6F206465706F73697473206D616465 PUSH1 0x80 SHL PUSH1 0x40 DUP3 ADD MSTORE LOG2 CODESIZE DUP1 DUP1 DUP1 PUSH2 0x1B61 JUMP JUMPDEST SWAP1 POP DUP3 PUSH1 0x8 SHR AND ISZERO CODESIZE PUSH2 0x1B5B JUMP JUMPDEST POP DUP6 DUP3 PUSH1 0x8 SHR AND PUSH2 0x195B JUMP JUMPDEST POP DUP3 DUP3 PUSH1 0x8 SHR AND ISZERO PUSH2 0x187D JUMP JUMPDEST PUSH1 0x40 MLOAD PUSH3 0x461BCD PUSH1 0xE5 SHL DUP2 MSTORE DUP1 DUP5 ADD DUP8 SWAP1 MSTORE PUSH1 0xC PUSH1 0x24 DUP3 ADD MSTORE PUSH12 0x2737BA103090383630BCB2B9 PUSH1 0xA1 SHL PUSH1 0x44 DUP3 ADD MSTORE PUSH1 0x64 SWAP1 REVERT JUMPDEST POP DUP5 PUSH1 0x1 DUP9 ADD SLOAD AND CALLER EQ PUSH2 0x1869 JUMP JUMPDEST PUSH1 0x40 MLOAD PUSH3 0x461BCD PUSH1 0xE5 SHL DUP2 MSTORE DUP1 DUP6 ADD DUP9 SWAP1 MSTORE PUSH1 0x13 PUSH1 0x24 DUP3 ADD MSTORE PUSH19 0x151A5B595BDD5D081B9BDD081C995858DA1959 PUSH1 0x6A SHL PUSH1 0x44 DUP3 ADD MSTORE PUSH1 0x64 SWAP1 REVERT JUMPDEST POP CALLVALUE PUSH2 0x244 JUMPI PUSH1 0xE0 CALLDATASIZE PUSH1 0x3 NOT ADD SLT PUSH2 0x244 JUMPI PUSH2 0x1C88 PUSH2 0x2598 JUMP JUMPDEST PUSH2 0x1C90 PUSH2 0x25AE JUMP JUMPDEST SWAP1 PUSH1 0x64 CALLDATALOAD PUSH1 0x1 PUSH1 0x1 PUSH1 0xA0 SHL SUB DUP2 AND DUP2 SUB PUSH2 0x1F44 JUMPI PUSH1 0xA4 CALLDATALOAD PUSH1 0x2 PUSH1 0xC4 CALLDATALOAD LT ISZERO PUSH2 0x1157 JUMPI PUSH2 0x1CBA PUSH2 0x26BA JUMP JUMPDEST DUP6 CALLDATALOAD DUP6 MSTORE PUSH1 0x2 PUSH1 0x20 MSTORE PUSH1 0x40 DUP6 KECCAK256 SLOAD PUSH1 0x1 PUSH1 0x1 PUSH1 0xA0 SHL SUB AND PUSH2 0x1F0A JUMPI DUP5 SWAP1 DUP2 PUSH1 0xC4 CALLDATALOAD PUSH2 0x1F02 JUMPI POP PUSH2 0x1CE9 SWAP1 PUSH2 0x2B73 JUMP JUMPDEST PUSH1 0x40 MLOAD SWAP3 PUSH2 0x1CF6 DUP5 PUSH2 0x275F JUMP JUMPDEST PUSH1 0x1 PUSH1 0x1 PUSH1 0xA0 SHL SUB DUP6 DUP2 AND DUP6 MSTORE DUP7 DUP2 AND PUSH1 0x20 DUP7 ADD MSTORE AND PUSH1 0x40 DUP5 ADD MSTORE PUSH1 0x84 CALLDATALOAD PUSH1 0x60 DUP5 ADD MSTORE PUSH1 0x80 DUP4 ADD MSTORE PUSH1 0xA0 DUP3 ADD MSTORE PUSH2 0x1D32 PUSH1 0xC4 CALLDATALOAD PUSH1 0xC0 DUP4 ADD PUSH2 0x28C4 JUMP JUMPDEST TIMESTAMP PUSH1 0xE0 DUP3 ADD MSTORE DUP4 PUSH2 0x100 DUP3 ADD MSTORE DUP4 PUSH2 0x120 DUP3 ADD MSTORE DUP4 PUSH2 0x140 DUP3 ADD MSTORE DUP4 PUSH2 0x160 DUP3 ADD MSTORE DUP5 CALLDATALOAD DUP5 MSTORE PUSH1 0x2 PUSH1 0x20 MSTORE PUSH1 0x40 DUP5 KECCAK256 PUSH1 0x1 DUP1 PUSH1 0xA0 SHL SUB DUP3 MLOAD AND PUSH1 0x1 PUSH1 0x1 PUSH1 0x60 SHL SUB PUSH1 0xA0 SHL SWAP1 DUP2 DUP4 SLOAD AND OR DUP3 SSTORE PUSH1 0x1 DUP3 ADD PUSH1 0x1 DUP1 PUSH1 0xA0 SHL SUB PUSH1 0x20 DUP6 ADD MLOAD AND DUP3 DUP3 SLOAD AND OR SWAP1 SSTORE PUSH1 0x2 DUP3 ADD SWAP1 PUSH1 0x1 DUP1 PUSH1 0xA0 SHL SUB PUSH1 0x40 DUP6 ADD MLOAD AND SWAP1 DUP3 SLOAD AND OR SWAP1 SSTORE PUSH1 0x60 DUP3 ADD MLOAD PUSH1 0x3 DUP3 ADD SSTORE PUSH1 0x80 DUP3 ADD MLOAD DUP7 DUP3 ADD SSTORE PUSH1 0xA0 DUP3 ADD MLOAD PUSH1 0x5 DUP3 ADD SSTORE PUSH1 0xC0 DUP3 ADD MLOAD PUSH1 0x2 DUP2 LT ISZERO PUSH2 0x1EEF JUMPI PUSH1 0x6 DUP3 ADD DUP1 SLOAD PUSH1 0xFF NOT AND PUSH1 0xFF SWAP3 DUP4 AND OR SWAP1 SSTORE PUSH1 0xE0 DUP4 ADD MLOAD PUSH1 0x7 DUP4 ADD SSTORE PUSH2 0x100 DUP4 ADD MLOAD PUSH1 0x8 SWAP3 DUP4 ADD DUP1 SLOAD PUSH2 0x120 DUP7 ADD MLOAD PUSH2 0x140 DUP8 ADD MLOAD PUSH2 0x160 SWAP1 SWAP8 ADD MLOAD PUSH4 0x1000000 PUSH1 0x1 PUSH1 0xB8 SHL SUB PUSH1 0x18 SWAP2 SWAP1 SWAP2 SHL AND PUSH3 0xFF0000 SWAP8 ISZERO ISZERO PUSH1 0x10 SHL SWAP8 SWAP1 SWAP8 AND PUSH2 0xFF00 SWAP2 ISZERO ISZERO SWAP1 SWAP7 SHL AND SWAP3 ISZERO ISZERO SWAP1 SWAP4 AND PUSH1 0x1 PUSH1 0x1 PUSH1 0xB8 SHL SUB NOT SWAP1 SWAP4 AND SWAP3 SWAP1 SWAP3 OR OR SWAP2 SWAP1 SWAP2 OR SWAP2 SWAP1 SWAP2 OR SWAP1 SSTORE PUSH32 0x212C0BDCF42696E85CDDF68FC1623B3327138B7898282F7356AB7EC713E9CF32 SWAP1 DUP5 PUSH1 0x1 PUSH1 0x1 PUSH1 0xA0 SHL SUB DUP3 AND DUP6 MSTORE PUSH1 0x20 DUP2 SWAP1 MSTORE PUSH1 0x40 DUP6 KECCAK256 PUSH2 0x1EA5 SWAP1 DUP3 CALLDATALOAD SWAP1 PUSH2 0x28D0 JUMP JUMPDEST PUSH1 0x1 PUSH1 0x1 PUSH1 0xA0 SHL SUB DUP5 AND PUSH2 0x1EC9 JUMPI JUMPDEST PUSH2 0x10FD PUSH1 0x40 MLOAD SWAP3 DUP4 SWAP3 CALLDATALOAD SWAP6 PUSH1 0xC4 CALLDATALOAD SWAP2 DUP5 PUSH2 0x290A JUMP JUMPDEST PUSH1 0x1 PUSH1 0x1 PUSH1 0xA0 SHL SUB DUP5 AND DUP6 MSTORE PUSH1 0x20 DUP2 SWAP1 MSTORE PUSH1 0x40 DUP6 KECCAK256 PUSH2 0x1EEA SWAP1 DUP3 CALLDATALOAD SWAP1 PUSH2 0x28D0 JUMP JUMPDEST PUSH2 0x1EB4 JUMP JUMPDEST PUSH4 0x4E487B71 PUSH1 0xE0 SHL DUP7 MSTORE PUSH1 0x21 DUP8 MSTORE PUSH1 0x24 DUP7 REVERT JUMPDEST SWAP2 POP SWAP1 PUSH2 0x1CE9 JUMP JUMPDEST PUSH1 0x40 MLOAD PUSH3 0x461BCD PUSH1 0xE5 SHL DUP2 MSTORE PUSH1 0x20 DUP2 DUP9 ADD MSTORE PUSH1 0x13 PUSH1 0x24 DUP3 ADD MSTORE PUSH19 0x47616D6520616C726561647920657869737473 PUSH1 0x68 SHL PUSH1 0x44 DUP3 ADD MSTORE PUSH1 0x64 SWAP1 REVERT JUMPDEST PUSH1 0x0 DUP1 REVERT JUMPDEST POP CALLVALUE PUSH2 0x244 JUMPI DUP1 PUSH1 0x3 NOT CALLDATASIZE ADD SLT PUSH2 0x244 JUMPI PUSH1 0x20 PUSH1 0x7 SLOAD PUSH1 0x40 MLOAD SWAP1 DUP2 MSTORE RETURN JUMPDEST POP CALLVALUE PUSH2 0x244 JUMPI DUP1 PUSH1 0x3 NOT CALLDATASIZE ADD SLT PUSH2 0x244 JUMPI PUSH1 0x20 PUSH1 0xFF PUSH1 0x1 SLOAD PUSH1 0xA0 SHR AND PUSH1 0x40 MLOAD SWAP1 ISZERO ISZERO DUP2 MSTORE RETURN JUMPDEST POP SWAP1 CALLVALUE PUSH2 0x351 JUMPI PUSH1 0x20 CALLDATASIZE PUSH1 0x3 NOT ADD SLT PUSH2 0x351 JUMPI DUP1 CALLDATALOAD SWAP1 PUSH2 0x1FAB PUSH2 0x286E JUMP JUMPDEST PUSH2 0x1FB3 PUSH2 0x2827 JUMP JUMPDEST DUP2 DUP4 MSTORE PUSH1 0x2 PUSH1 0x20 MSTORE PUSH1 0x40 DUP4 KECCAK256 DUP1 SLOAD PUSH1 0x1 PUSH1 0x1 PUSH1 0xA0 SHL SUB SWAP3 SWAP1 DUP4 AND PUSH2 0x1FD8 DUP2 ISZERO ISZERO PUSH2 0x2933 JUMP JUMPDEST CALLER SUB PUSH2 0x20F6 JUMPI DUP5 PUSH1 0x8 DUP4 ADD SWAP4 PUSH2 0x2001 PUSH1 0xFF DUP7 SLOAD PUSH2 0x1FF7 DUP3 DUP3 AND ISZERO PUSH2 0x29B2 JUMP JUMPDEST PUSH1 0x10 SHR AND ISZERO PUSH2 0x2975 JUMP JUMPDEST PUSH2 0x2015 PUSH2 0x85F PUSH1 0x7 DUP7 ADD SLOAD PUSH1 0x7 SLOAD SWAP1 PUSH2 0x2712 JUMP JUMPDEST PUSH1 0x2 DUP5 ADD SLOAD AND PUSH1 0x3 DUP5 ADD SLOAD SWAP1 DUP1 EXTCODESIZE ISZERO PUSH2 0x71F JUMPI PUSH1 0x40 DUP1 MLOAD PUSH4 0x23B872DD PUSH1 0xE0 SHL DUP2 MSTORE CALLER SWAP6 DUP2 ADD SWAP6 DUP7 MSTORE ADDRESS PUSH1 0x20 DUP8 ADD MSTORE SWAP1 DUP6 ADD SWAP3 SWAP1 SWAP3 MSTORE SWAP1 SWAP3 DUP4 SWAP2 SWAP1 DUP3 SWAP1 DUP5 SWAP1 DUP3 SWAP1 PUSH1 0x60 ADD SUB SWAP3 GAS CALL DUP1 ISZERO PUSH2 0x6DE JUMPI PUSH2 0x20E2 JUMPI JUMPDEST POP DUP4 PUSH1 0x1 SWAP2 DUP5 PUSH32 0x981102F46F858A9AD42E0E3924C2EE3DDB912D9D6D28768155FFDB174C81711F PUSH1 0x60 PUSH1 0xFF PUSH1 0x6 DUP9 SLOAD SWAP6 DUP9 DUP4 NOT DUP9 AND OR DUP1 SWAP11 SSTORE ADD SLOAD AND PUSH2 0x20BD PUSH1 0x40 MLOAD SWAP2 CALLER DUP4 MSTORE DUP9 PUSH1 0x20 DUP5 ADD MSTORE PUSH1 0x40 DUP4 ADD SWAP1 PUSH2 0x25C4 JUMP JUMPDEST LOG2 AND OR SWAP1 DUP2 PUSH2 0x20D4 JUMPI JUMPDEST POP PUSH2 0x939 JUMPI POP PUSH1 0x1 DUP2 SSTORE DUP1 RETURN JUMPDEST PUSH1 0xFF SWAP2 POP PUSH1 0x8 SHR AND CODESIZE PUSH2 0x20C7 JUMP JUMPDEST SWAP4 PUSH2 0x20EF PUSH1 0x1 SWAP3 SWAP6 PUSH2 0x2735 JUMP JUMPDEST SWAP4 SWAP1 PUSH2 0x2067 JUMP JUMPDEST PUSH1 0x64 SWAP1 PUSH1 0x20 PUSH1 0x40 MLOAD SWAP2 PUSH3 0x461BCD PUSH1 0xE5 SHL DUP4 MSTORE DUP3 ADD MSTORE PUSH1 0xC PUSH1 0x24 DUP3 ADD MSTORE PUSH12 0x4E6F7420706C617965722031 PUSH1 0xA0 SHL PUSH1 0x44 DUP3 ADD MSTORE REVERT JUMPDEST POP CALLVALUE PUSH2 0x244 JUMPI DUP1 PUSH1 0x3 NOT CALLDATASIZE ADD SLT PUSH2 0x244 JUMPI PUSH2 0x2142 PUSH2 0x26BA JUMP JUMPDEST PUSH2 0x214A PUSH2 0x2827 JUMP JUMPDEST PUSH1 0x1 DUP1 SLOAD PUSH1 0xFF PUSH1 0xA0 SHL NOT AND PUSH1 0x1 PUSH1 0xA0 SHL OR SWAP1 SSTORE PUSH1 0x40 MLOAD CALLER DUP2 MSTORE PUSH32 0x62E78CEA01BEE320CD4E420270B5EA74000D11B0C9F74754EBDBFC544B05A258 SWAP1 PUSH1 0x20 SWAP1 LOG1 DUP1 RETURN JUMPDEST POP SWAP1 CALLVALUE PUSH2 0x351 JUMPI PUSH1 0x20 CALLDATASIZE PUSH1 0x3 NOT ADD SLT PUSH2 0x351 JUMPI DUP1 CALLDATALOAD SWAP1 PUSH2 0x21AA PUSH2 0x26BA JUMP JUMPDEST DUP2 DUP4 MSTORE PUSH1 0x2 PUSH1 0x20 MSTORE PUSH1 0x40 DUP4 KECCAK256 DUP1 SLOAD PUSH1 0x8 SWAP2 SWAP1 PUSH2 0x21D0 SWAP1 PUSH1 0x1 PUSH1 0x1 PUSH1 0xA0 SHL SUB AND ISZERO ISZERO PUSH2 0x2933 JUMP JUMPDEST ADD SWAP1 DUP2 SLOAD SWAP1 PUSH2 0x21E5 PUSH1 0xFF DUP4 PUSH1 0x10 SHR AND ISZERO PUSH2 0x2AD9 JUMP JUMPDEST PUSH1 0xFF DUP3 AND ISZERO DUP1 PUSH2 0x2299 JUMPI JUMPDEST ISZERO PUSH2 0x2255 JUMPI POP PUSH3 0x10000 SWAP1 PUSH3 0xFF0000 NOT AND OR SWAP1 SSTORE PUSH32 0xD48B0C9992D8D4B8967D1584DC8C1955390D9FF30639A7DA9C77E7F0DB86C3D8 PUSH1 0x60 PUSH1 0x40 MLOAD PUSH1 0x20 DUP2 MSTORE PUSH1 0x13 PUSH1 0x20 DUP3 ADD MSTORE PUSH19 0x43616E63656C6C65642062792073797374656D PUSH1 0x68 SHL PUSH1 0x40 DUP3 ADD MSTORE LOG2 DUP1 RETURN JUMPDEST PUSH1 0x64 SWAP1 PUSH1 0x20 PUSH1 0x40 MLOAD SWAP2 PUSH3 0x461BCD PUSH1 0xE5 SHL DUP4 MSTORE DUP3 ADD MSTORE PUSH1 0x1C PUSH1 0x24 DUP3 ADD MSTORE PUSH32 0x43616E6E6F742063616E63656C206166746572206465706F7369747300000000 PUSH1 0x44 DUP3 ADD MSTORE REVERT JUMPDEST POP PUSH1 0xFF DUP3 PUSH1 0x8 SHR AND ISZERO PUSH2 0x21F0 JUMP JUMPDEST POP SWAP1 CALLVALUE PUSH2 0x351 JUMPI DUP2 PUSH1 0x3 NOT CALLDATASIZE ADD SLT PUSH2 0x351 JUMPI PUSH2 0x22C1 PUSH2 0x26BA JUMP JUMPDEST PUSH1 0x1 SLOAD SWAP1 PUSH1 0xFF DUP3 PUSH1 0xA0 SHR AND ISZERO PUSH2 0x230B JUMPI POP PUSH1 0xFF PUSH1 0xA0 SHL NOT AND PUSH1 0x1 SSTORE PUSH1 0x40 MLOAD CALLER DUP2 MSTORE PUSH32 0x5DB9EE0A495BF2E6FF9C91A7834C1BA4FDD244A5E8AA4E537BD38AEAE4B073AA SWAP1 PUSH1 0x20 SWAP1 LOG1 DUP1 RETURN JUMPDEST PUSH1 0x64 SWAP1 PUSH1 0x20 PUSH1 0x40 MLOAD SWAP2 PUSH3 0x461BCD PUSH1 0xE5 SHL DUP4 MSTORE DUP3 ADD MSTORE PUSH1 0x14 PUSH1 0x24 DUP3 ADD MSTORE PUSH20 0x14185D5CD8589B194E881B9BDD081C185D5CD959 PUSH1 0x62 SHL PUSH1 0x44 DUP3 ADD MSTORE REVERT JUMPDEST POP CALLVALUE PUSH2 0x244 JUMPI DUP1 PUSH1 0x3 NOT CALLDATASIZE ADD SLT PUSH2 0x244 JUMPI PUSH1 0x20 PUSH1 0x5 SLOAD PUSH1 0x40 MLOAD SWAP1 DUP2 MSTORE RETURN JUMPDEST POP CALLVALUE PUSH2 0x244 JUMPI DUP1 PUSH1 0x3 NOT CALLDATASIZE ADD SLT PUSH2 0x244 JUMPI PUSH1 0x8 SLOAD PUSH1 0x40 MLOAD PUSH1 0x1 PUSH1 0x1 PUSH1 0xA0 SHL SUB SWAP1 SWAP2 AND DUP2 MSTORE PUSH1 0x20 SWAP1 RETURN JUMPDEST POP SWAP1 CALLVALUE PUSH2 0x351 JUMPI PUSH1 0x20 CALLDATASIZE PUSH1 0x3 NOT ADD SLT PUSH2 0x351 JUMPI DUP1 CALLDATALOAD SWAP1 PUSH2 0x23AB PUSH2 0x26BA JUMP JUMPDEST PUSH1 0x3C DUP3 LT ISZERO DUP1 PUSH2 0x2406 JUMPI JUMPDEST ISZERO PUSH2 0x23C2 JUMPI POP PUSH1 0x7 SSTORE DUP1 RETURN JUMPDEST PUSH1 0x64 SWAP1 PUSH1 0x20 PUSH1 0x40 MLOAD SWAP2 PUSH3 0x461BCD PUSH1 0xE5 SHL DUP4 MSTORE DUP3 ADD MSTORE PUSH1 0x1C PUSH1 0x24 DUP3 ADD MSTORE PUSH32 0x54696D656F7574206D75737420626520312D3130206D696E7574657300000000 PUSH1 0x44 DUP3 ADD MSTORE REVERT JUMPDEST POP PUSH2 0x258 DUP3 GT ISZERO PUSH2 0x23B6 JUMP JUMPDEST POP SWAP1 CALLVALUE PUSH2 0x351 JUMPI PUSH1 0x20 CALLDATASIZE PUSH1 0x3 NOT ADD SLT PUSH2 0x351 JUMPI PUSH1 0x20 SWAP1 PUSH1 0x40 MLOAD SWAP1 CALLDATALOAD DUP2 MSTORE RETURN JUMPDEST POP SWAP1 CALLVALUE PUSH2 0x351 JUMPI PUSH1 0x20 CALLDATASIZE PUSH1 0x3 NOT ADD SLT PUSH2 0x351 JUMPI PUSH2 0x244C PUSH2 0x26BA JUMP JUMPDEST CALLDATALOAD PUSH1 0x5 SSTORE DUP1 RETURN JUMPDEST POP SWAP1 CALLVALUE PUSH2 0x351 JUMPI PUSH1 0x20 CALLDATASIZE PUSH1 0x3 NOT ADD SLT PUSH2 0x351 JUMPI DUP1 CALLDATALOAD SWAP1 PUSH2 0x2471 PUSH2 0x26BA JUMP JUMPDEST PUSH2 0x3E8 DUP3 GT PUSH2 0x2481 JUMPI POP PUSH1 0x6 SSTORE DUP1 RETURN JUMPDEST PUSH1 0x64 SWAP1 PUSH1 0x20 PUSH1 0x40 MLOAD SWAP2 PUSH3 0x461BCD PUSH1 0xE5 SHL DUP4 MSTORE DUP3 ADD MSTORE PUSH1 0x7 PUSH1 0x24 DUP3 ADD MSTORE PUSH7 0x4D617820313025 PUSH1 0xC8 SHL PUSH1 0x44 DUP3 ADD MSTORE REVERT JUMPDEST POP SWAP1 CALLVALUE PUSH2 0x351 JUMPI PUSH1 0x20 SWAP1 DUP2 PUSH1 0x3 NOT CALLDATASIZE ADD SLT PUSH2 0x71F JUMPI PUSH1 0x1 PUSH1 0x1 PUSH1 0xA0 SHL SUB PUSH2 0x24D4 PUSH2 0x2582 JUMP JUMPDEST AND DUP4 MSTORE DUP2 MSTORE PUSH1 0x40 DUP3 KECCAK256 PUSH1 0x40 MLOAD SWAP3 DUP4 DUP4 DUP4 SLOAD SWAP2 DUP3 DUP2 MSTORE ADD SWAP1 DUP2 SWAP4 DUP4 MSTORE DUP5 DUP4 KECCAK256 SWAP1 DUP4 JUMPDEST DUP2 DUP2 LT PUSH2 0x2549 JUMPI POP POP POP DUP5 PUSH2 0x250B SWAP2 SUB DUP6 PUSH2 0x277C JUMP JUMPDEST PUSH1 0x40 MLOAD SWAP4 DUP4 DUP6 SWAP5 DUP6 ADD SWAP2 DUP2 DUP7 MSTORE MLOAD DUP1 SWAP3 MSTORE PUSH1 0x40 DUP6 ADD SWAP4 SWAP3 JUMPDEST DUP3 DUP2 LT PUSH2 0x2532 JUMPI POP POP POP POP SUB SWAP1 RETURN JUMPDEST DUP4 MLOAD DUP6 MSTORE DUP7 SWAP6 POP SWAP4 DUP2 ADD SWAP4 SWAP3 DUP2 ADD SWAP3 PUSH1 0x1 ADD PUSH2 0x2523 JUMP JUMPDEST DUP3 SLOAD DUP5 MSTORE SWAP3 DUP7 ADD SWAP3 PUSH1 0x1 SWAP3 DUP4 ADD SWAP3 ADD PUSH2 0x24F5 JUMP JUMPDEST SWAP1 POP CALLVALUE PUSH2 0x351 JUMPI DUP2 PUSH1 0x3 NOT CALLDATASIZE ADD SLT PUSH2 0x351 JUMPI PUSH1 0xA SLOAD PUSH1 0x1 PUSH1 0x1 PUSH1 0xA0 SHL SUB AND DUP2 MSTORE PUSH1 0x20 SWAP1 RETURN JUMPDEST PUSH1 0x4 CALLDATALOAD SWAP1 PUSH1 0x1 PUSH1 0x1 PUSH1 0xA0 SHL SUB DUP3 AND DUP3 SUB PUSH2 0x1F44 JUMPI JUMP JUMPDEST PUSH1 0x24 CALLDATALOAD SWAP1 PUSH1 0x1 PUSH1 0x1 PUSH1 0xA0 SHL SUB DUP3 AND DUP3 SUB PUSH2 0x1F44 JUMPI JUMP JUMPDEST PUSH1 0x44 CALLDATALOAD SWAP1 PUSH1 0x1 PUSH1 0x1 PUSH1 0xA0 SHL SUB DUP3 AND DUP3 SUB PUSH2 0x1F44 JUMPI JUMP JUMPDEST SWAP1 PUSH1 0x2 DUP3 LT ISZERO PUSH2 0x25D1 JUMPI MSTORE JUMP JUMPDEST PUSH4 0x4E487B71 PUSH1 0xE0 SHL PUSH1 0x0 MSTORE PUSH1 0x21 PUSH1 0x4 MSTORE PUSH1 0x24 PUSH1 0x0 REVERT JUMPDEST SWAP11 SWAP8 SWAP5 SWAP2 SWAP10 SWAP7 SWAP4 SWAP1 SWAP13 SWAP12 SWAP9 SWAP6 SWAP3 SWAP13 PUSH2 0x180 DUP13 ADD SWAP14 DUP13 PUSH1 0x1 PUSH1 0xA0 SHL PUSH1 0x1 SWAP1 SUB DUP1 SWAP14 DUP2 DUP1 SWAP6 AND DUP4 MSTORE AND SWAP1 PUSH1 0x20 ADD MSTORE AND PUSH1 0x40 DUP13 ADD MSTORE PUSH1 0x60 DUP12 ADD MSTORE PUSH1 0x80 DUP11 ADD MSTORE PUSH1 0xA0 DUP10 ADD MSTORE PUSH1 0xC0 DUP9 ADD PUSH2 0x2635 SWAP2 PUSH2 0x25C4 JUMP JUMPDEST PUSH1 0xE0 DUP8 ADD MSTORE ISZERO ISZERO PUSH2 0x100 DUP7 ADD MSTORE ISZERO ISZERO PUSH2 0x120 DUP6 ADD MSTORE ISZERO ISZERO PUSH2 0x140 DUP5 ADD MSTORE AND SWAP1 PUSH2 0x160 ADD MSTORE JUMP JUMPDEST DUP1 SLOAD DUP3 LT ISZERO PUSH2 0x2673 JUMPI PUSH1 0x0 MSTORE PUSH1 0x20 PUSH1 0x0 KECCAK256 ADD SWAP1 PUSH1 0x0 SWAP1 JUMP JUMPDEST PUSH4 0x4E487B71 PUSH1 0xE0 SHL PUSH1 0x0 MSTORE PUSH1 0x32 PUSH1 0x4 MSTORE PUSH1 0x24 PUSH1 0x0 REVERT JUMPDEST SWAP2 DUP2 PUSH1 0x1F DUP5 ADD SLT ISZERO PUSH2 0x1F44 JUMPI DUP3 CALLDATALOAD SWAP2 PUSH8 0xFFFFFFFFFFFFFFFF DUP4 GT PUSH2 0x1F44 JUMPI PUSH1 0x20 DUP1 DUP6 ADD SWAP5 DUP5 PUSH1 0x5 SHL ADD ADD GT PUSH2 0x1F44 JUMPI JUMP JUMPDEST PUSH1 0x1 SLOAD PUSH1 0x1 PUSH1 0x1 PUSH1 0xA0 SHL SUB AND CALLER SUB PUSH2 0x26CE JUMPI JUMP JUMPDEST PUSH1 0x64 PUSH1 0x40 MLOAD PUSH3 0x461BCD PUSH1 0xE5 SHL DUP2 MSTORE PUSH1 0x20 PUSH1 0x4 DUP3 ADD MSTORE PUSH1 0x20 PUSH1 0x24 DUP3 ADD MSTORE PUSH32 0x4F776E61626C653A2063616C6C6572206973206E6F7420746865206F776E6572 PUSH1 0x44 DUP3 ADD MSTORE REVERT JUMPDEST SWAP2 SWAP1 DUP3 ADD DUP1 SWAP3 GT PUSH2 0x271F JUMPI JUMP JUMPDEST PUSH4 0x4E487B71 PUSH1 0xE0 SHL PUSH1 0x0 MSTORE PUSH1 0x11 PUSH1 0x4 MSTORE PUSH1 0x24 PUSH1 0x0 REVERT JUMPDEST PUSH8 0xFFFFFFFFFFFFFFFF DUP2 GT PUSH2 0x2749 JUMPI PUSH1 0x40 MSTORE JUMP JUMPDEST PUSH4 0x4E487B71 PUSH1 0xE0 SHL PUSH1 0x0 MSTORE PUSH1 0x41 PUSH1 0x4 MSTORE PUSH1 0x24 PUSH1 0x0 REVERT JUMPDEST PUSH2 0x180 DUP2 ADD SWAP1 DUP2 LT PUSH8 0xFFFFFFFFFFFFFFFF DUP3 GT OR PUSH2 0x2749 JUMPI PUSH1 0x40 MSTORE JUMP JUMPDEST SWAP1 PUSH1 0x1F DUP1 NOT SWAP2 ADD AND DUP2 ADD SWAP1 DUP2 LT PUSH8 0xFFFFFFFFFFFFFFFF DUP3 GT OR PUSH2 0x2749 JUMPI PUSH1 0x40 MSTORE JUMP JUMPDEST RETURNDATASIZE ISZERO PUSH2 0x27D9 JUMPI RETURNDATASIZE SWAP1 PUSH8 0xFFFFFFFFFFFFFFFF DUP3 GT PUSH2 0x2749 JUMPI PUSH1 0x40 MLOAD SWAP2 PUSH2 0x27CD PUSH1 0x1F DUP3 ADD PUSH1 0x1F NOT AND PUSH1 0x20 ADD DUP5 PUSH2 0x277C JUMP JUMPDEST DUP3 MSTORE RETURNDATASIZE PUSH1 0x0 PUSH1 0x20 DUP5 ADD RETURNDATACOPY JUMP JUMPDEST PUSH1 0x60 SWAP1 JUMP JUMPDEST SWAP2 SWAP1 DUP3 SUB SWAP2 DUP3 GT PUSH2 0x271F JUMPI JUMP JUMPDEST ISZERO PUSH2 0x27F2 JUMPI JUMP JUMPDEST PUSH1 0x40 MLOAD PUSH3 0x461BCD PUSH1 0xE5 SHL DUP2 MSTORE PUSH1 0x20 PUSH1 0x4 DUP3 ADD MSTORE PUSH1 0xD PUSH1 0x24 DUP3 ADD MSTORE PUSH13 0x1499599D5B990819985A5B1959 PUSH1 0x9A SHL PUSH1 0x44 DUP3 ADD MSTORE PUSH1 0x64 SWAP1 REVERT JUMPDEST PUSH1 0xFF PUSH1 0x1 SLOAD PUSH1 0xA0 SHR AND PUSH2 0x2836 JUMPI JUMP JUMPDEST PUSH1 0x40 MLOAD PUSH3 0x461BCD PUSH1 0xE5 SHL DUP2 MSTORE PUSH1 0x20 PUSH1 0x4 DUP3 ADD MSTORE PUSH1 0x10 PUSH1 0x24 DUP3 ADD MSTORE PUSH16 0x14185D5CD8589B194E881C185D5CD959 PUSH1 0x82 SHL PUSH1 0x44 DUP3 ADD MSTORE PUSH1 0x64 SWAP1 REVERT JUMPDEST PUSH1 0x2 PUSH1 0x0 SLOAD EQ PUSH2 0x287F JUMPI PUSH1 0x2 PUSH1 0x0 SSTORE JUMP JUMPDEST PUSH1 0x40 MLOAD PUSH3 0x461BCD PUSH1 0xE5 SHL DUP2 MSTORE PUSH1 0x20 PUSH1 0x4 DUP3 ADD MSTORE PUSH1 0x1F PUSH1 0x24 DUP3 ADD MSTORE PUSH32 0x5265656E7472616E637947756172643A207265656E7472616E742063616C6C00 PUSH1 0x44 DUP3 ADD MSTORE PUSH1 0x64 SWAP1 REVERT JUMPDEST PUSH1 0x2 DUP3 LT ISZERO PUSH2 0x25D1 JUMPI MSTORE JUMP JUMPDEST DUP1 SLOAD PUSH9 0x10000000000000000 DUP2 LT ISZERO PUSH2 0x2749 JUMPI PUSH2 0x28F2 SWAP2 PUSH1 0x1 DUP3 ADD DUP2 SSTORE PUSH2 0x265B JUMP JUMPDEST DUP2 SWAP3 SWAP2 SLOAD SWAP1 PUSH1 0x3 SHL SWAP2 DUP3 SHL SWAP2 PUSH1 0x0 NOT SWAP1 SHL NOT AND OR SWAP1 SSTORE JUMP JUMPDEST PUSH1 0x1 PUSH1 0x1 PUSH1 0xA0 SHL SUB SWAP2 DUP3 AND DUP2 MSTORE SWAP2 AND PUSH1 0x20 DUP3 ADD MSTORE PUSH1 0x60 DUP2 ADD SWAP3 SWAP2 PUSH2 0x2931 SWAP2 PUSH1 0x40 ADD SWAP1 PUSH2 0x25C4 JUMP JUMPDEST JUMP JUMPDEST ISZERO PUSH2 0x293A JUMPI JUMP JUMPDEST PUSH1 0x40 MLOAD PUSH3 0x461BCD PUSH1 0xE5 SHL DUP2 MSTORE PUSH1 0x20 PUSH1 0x4 DUP3 ADD MSTORE PUSH1 0x13 PUSH1 0x24 DUP3 ADD MSTORE PUSH19 0x11D85B5948191BD95CC81B9BDD08195E1A5CDD PUSH1 0x6A SHL PUSH1 0x44 DUP3 ADD MSTORE PUSH1 0x64 SWAP1 REVERT JUMPDEST ISZERO PUSH2 0x297C JUMPI JUMP JUMPDEST PUSH1 0x40 MLOAD PUSH3 0x461BCD PUSH1 0xE5 SHL DUP2 MSTORE PUSH1 0x20 PUSH1 0x4 DUP3 ADD MSTORE PUSH1 0xE PUSH1 0x24 DUP3 ADD MSTORE PUSH14 0x11D85B594818DBDB5C1B195D1959 PUSH1 0x92 SHL PUSH1 0x44 DUP3 ADD MSTORE PUSH1 0x64 SWAP1 REVERT JUMPDEST ISZERO PUSH2 0x29B9 JUMPI JUMP JUMPDEST PUSH1 0x40 MLOAD PUSH3 0x461BCD PUSH1 0xE5 SHL DUP2 MSTORE PUSH1 0x20 PUSH1 0x4 DUP3 ADD MSTORE PUSH1 0x11 PUSH1 0x24 DUP3 ADD MSTORE PUSH17 0x105B1C9958591E4819195C1BDCDA5D1959 PUSH1 0x7A SHL PUSH1 0x44 DUP3 ADD MSTORE PUSH1 0x64 SWAP1 REVERT JUMPDEST ISZERO PUSH2 0x29F9 JUMPI JUMP JUMPDEST PUSH1 0x40 MLOAD PUSH3 0x461BCD PUSH1 0xE5 SHL DUP2 MSTORE PUSH1 0x20 PUSH1 0x4 DUP3 ADD MSTORE PUSH1 0xF PUSH1 0x24 DUP3 ADD MSTORE PUSH15 0x11195C1BDCDA5D081D1A5B595BDD5D PUSH1 0x8A SHL PUSH1 0x44 DUP3 ADD MSTORE PUSH1 0x64 SWAP1 REVERT JUMPDEST ISZERO PUSH2 0x2A37 JUMPI JUMP JUMPDEST PUSH1 0x40 MLOAD PUSH3 0x461BCD PUSH1 0xE5 SHL DUP2 MSTORE PUSH1 0x20 PUSH1 0x4 DUP3 ADD MSTORE PUSH1 0xC PUSH1 0x24 DUP3 ADD MSTORE PUSH12 0x2737BA10383630BCB2B91019 PUSH1 0xA1 SHL PUSH1 0x44 DUP3 ADD MSTORE PUSH1 0x64 SWAP1 REVERT JUMPDEST DUP2 DUP2 MUL SWAP3 SWAP2 DUP2 ISZERO SWAP2 DUP5 DIV EQ OR ISZERO PUSH2 0x271F JUMPI JUMP JUMPDEST SWAP1 DUP2 PUSH1 0x20 SWAP2 SUB SLT PUSH2 0x1F44 JUMPI MLOAD DUP1 ISZERO ISZERO DUP2 SUB PUSH2 0x1F44 JUMPI SWAP1 JUMP JUMPDEST ISZERO PUSH2 0x2A9D JUMPI JUMP JUMPDEST PUSH1 0x40 MLOAD PUSH3 0x461BCD PUSH1 0xE5 SHL DUP2 MSTORE PUSH1 0x20 PUSH1 0x4 DUP3 ADD MSTORE PUSH1 0x14 PUSH1 0x24 DUP3 ADD MSTORE PUSH20 0x1554D110C81D1C985B9CD9995C8819985A5B1959 PUSH1 0x62 SHL PUSH1 0x44 DUP3 ADD MSTORE PUSH1 0x64 SWAP1 REVERT JUMPDEST ISZERO PUSH2 0x2AE0 JUMPI JUMP JUMPDEST PUSH1 0x40 MLOAD PUSH3 0x461BCD PUSH1 0xE5 SHL DUP2 MSTORE PUSH1 0x20 PUSH1 0x4 DUP3 ADD MSTORE PUSH1 0x16 PUSH1 0x24 DUP3 ADD MSTORE PUSH22 0x11D85B5948185B1C9958591E4818DBDB5C1B195D1959 PUSH1 0x52 SHL PUSH1 0x44 DUP3 ADD MSTORE PUSH1 0x64 SWAP1 REVERT JUMPDEST ISZERO PUSH2 0x2B25 JUMPI JUMP JUMPDEST PUSH1 0x40 MLOAD PUSH3 0x461BCD PUSH1 0xE5 SHL DUP2 MSTORE PUSH1 0x20 PUSH1 0x4 DUP3 ADD MSTORE PUSH1 0xF PUSH1 0x24 DUP3 ADD MSTORE PUSH15 0x4E6F7420796F757220617373657473 PUSH1 0x88 SHL PUSH1 0x44 DUP3 ADD MSTORE PUSH1 0x64 SWAP1 REVERT JUMPDEST MLOAD SWAP1 PUSH10 0xFFFFFFFFFFFFFFFFFFFF DUP3 AND DUP3 SUB PUSH2 0x1F44 JUMPI JUMP JUMPDEST PUSH1 0x9 SLOAD PUSH1 0x40 MLOAD PUSH4 0x3FABE5A3 PUSH1 0xE2 SHL DUP2 MSTORE SWAP2 SWAP1 PUSH1 0xA0 SWAP1 DUP4 SWAP1 PUSH1 0x4 SWAP1 DUP3 SWAP1 PUSH1 0x1 PUSH1 0x1 PUSH1 0xA0 SHL SUB AND GAS STATICCALL SWAP2 DUP3 ISZERO PUSH2 0x2C76 JUMPI PUSH1 0x0 SWAP3 PUSH2 0x2C28 JUMPI JUMPDEST POP PUSH1 0x0 DUP3 SGT ISZERO PUSH2 0x2BEE JUMPI PUSH9 0x56BC75E2D63100000 SWAP1 DUP2 DUP2 MUL SWAP2 DUP2 DUP4 DIV EQ SWAP1 ISZERO OR ISZERO PUSH2 0x271F JUMPI DUP2 ISZERO PUSH2 0x2BD8 JUMPI DIV SWAP1 JUMP JUMPDEST PUSH4 0x4E487B71 PUSH1 0xE0 SHL PUSH1 0x0 MSTORE PUSH1 0x12 PUSH1 0x4 MSTORE PUSH1 0x24 PUSH1 0x0 REVERT JUMPDEST PUSH1 0x40 MLOAD PUSH3 0x461BCD PUSH1 0xE5 SHL DUP2 MSTORE PUSH1 0x20 PUSH1 0x4 DUP3 ADD MSTORE PUSH1 0x12 PUSH1 0x24 DUP3 ADD MSTORE PUSH18 0x125B9D985B1A59081C1C9A58D94819995959 PUSH1 0x72 SHL PUSH1 0x44 DUP3 ADD MSTORE PUSH1 0x64 SWAP1 REVERT JUMPDEST SWAP1 SWAP2 PUSH1 0xA0 DUP3 RETURNDATASIZE DUP3 GT PUSH2 0x2C6E JUMPI JUMPDEST DUP2 PUSH2 0x2C42 PUSH1 0xA0 SWAP4 DUP4 PUSH2 0x277C JUMP JUMPDEST DUP2 ADD SUB SLT PUSH2 0x244 JUMPI POP PUSH2 0x2C54 DUP2 PUSH2 0x2B5C JUMP JUMPDEST POP PUSH2 0x2C66 PUSH1 0x80 PUSH1 0x20 DUP4 ADD MLOAD SWAP3 ADD PUSH2 0x2B5C JUMP JUMPDEST POP SWAP1 CODESIZE PUSH2 0x2BA9 JUMP JUMPDEST RETURNDATASIZE SWAP2 POP PUSH2 0x2C35 JUMP JUMPDEST PUSH1 0x40 MLOAD RETURNDATASIZE PUSH1 0x0 DUP3 RETURNDATACOPY RETURNDATASIZE SWAP1 REVERT JUMPDEST SWAP2 SWAP1 DUP2 LT ISZERO PUSH2 0x2673 JUMPI PUSH1 0x5 SHL ADD SWAP1 JUMP JUMPDEST CALLDATALOAD PUSH1 0x1 PUSH1 0x1 PUSH1 0xA0 SHL SUB DUP2 AND DUP2 SUB PUSH2 0x1F44 JUMPI SWAP1 JUMP INVALID LOG2 PUSH5 0x6970667358 0x22 SLT KECCAK256 0xB6 SWAP14 BYTE JUMP 0xD6 PUSH2 0x4EDA CALLVALUE COINBASE RETURNDATASIZE PUSH0 0xCF SWAP2 STATICCALL DUP2 PUSH6 0x556486A47943 DUP1 GASLIMIT SWAP11 0xC4 PUSH32 0xF51E6DF964736F6C634300081400330000000000000000000000000000000000 "},"methodIdentifiers":{"BASIS_POINTS()":"e1f1c4a7","adminBatchWithdrawNFTs(address[],uint256[],address[])":"cb9a2630","canDeposit(bytes32)":"f372e33c","canStartGame(bytes32)":"7f80e6f2","cancelGame(bytes32)":"3f7121b0","completeGame(bytes32,address)":"e9df3027","depositETH(bytes32)":"d68d9d4e","depositNFT(bytes32)":"57177224","depositTimeout()":"615318c7","depositUSDC(bytes32,uint256)":"7c34c355","emergencyPause()":"51858e27","emergencyWithdrawETH()":"84536017","emergencyWithdrawNFT(address,uint256,address)":"b1a81295","ethUsdFeed()":"8009b7bd","games(bytes32)":"f579f882","getETHAmount(uint256)":"ef46b2ab","getGameDetails(bytes32)":"8a1fa029","getUSDCAmount(uint256)":"1fd462cd","getUserGames(address)":"120aace6","initializeGame(bytes32,address,address,address,uint256,uint256,uint8)":"691ddd7d","listingFeeUSD()":"3a38d063","listingFees(address)":"f060ad4c","owner()":"8da5cb5b","paused()":"5c975abb","payListingFee()":"b262f41f","platformFeePercent()":"8c639a85","platformFeeReceiver()":"2d656ad7","reclaimAssets(bytes32)":"6dbf2763","renounceOwnership()":"715018a6","setDepositTimeout(uint256)":"27627373","setListingFee(uint256)":"131dbd09","setPlatformFee(uint256)":"12e8e2c3","transferOwnership(address)":"f2fde38b","unpause()":"3f4ba83a","updateGameWithPlayer2(bytes32,address,uint256,uint8)":"a077932e","usdcToken()":"11eac855","userGames(address,uint256)":"bc0167cd"}}}}}