{"contracts/NFTFlipGame.sol":{"NFTFlipGame":{"abi":[{"inputs":[{"internalType":"address","name":"_ethUsdFeed","type":"address"},{"internalType":"address","name":"_usdcToken","type":"address"},{"internalType":"address","name":"_platformFeeReceiver","type":"address"}],"stateMutability":"nonpayable","type":"constructor"},{"anonymous":false,"inputs":[{"indexed":true,"internalType":"uint256","name":"gameId","type":"uint256"}],"name":"GameCancelled","type":"event"},{"anonymous":false,"inputs":[{"indexed":true,"internalType":"uint256","name":"gameId","type":"uint256"},{"indexed":true,"internalType":"address","name":"winner","type":"address"}],"name":"GameCompleted","type":"event"},{"anonymous":false,"inputs":[{"indexed":true,"internalType":"uint256","name":"gameId","type":"uint256"},{"indexed":true,"internalType":"address","name":"creator","type":"address"}],"name":"GameCreated","type":"event"},{"anonymous":false,"inputs":[{"indexed":true,"internalType":"uint256","name":"gameId","type":"uint256"},{"indexed":true,"internalType":"address","name":"joiner","type":"address"}],"name":"GameJoined","type":"event"},{"anonymous":false,"inputs":[{"indexed":true,"internalType":"address","name":"previousOwner","type":"address"},{"indexed":true,"internalType":"address","name":"newOwner","type":"address"}],"name":"OwnershipTransferred","type":"event"},{"anonymous":false,"inputs":[{"indexed":false,"internalType":"address","name":"account","type":"address"}],"name":"Paused","type":"event"},{"anonymous":false,"inputs":[{"indexed":true,"internalType":"address","name":"player","type":"address"},{"indexed":false,"internalType":"uint256","name":"ethAmount","type":"uint256"},{"indexed":false,"internalType":"uint256","name":"usdcAmount","type":"uint256"},{"indexed":false,"internalType":"uint256","name":"nftCount","type":"uint256"}],"name":"RewardsWithdrawn","type":"event"},{"anonymous":false,"inputs":[{"indexed":true,"internalType":"uint256","name":"gameId","type":"uint256"},{"indexed":false,"internalType":"uint256","name":"round","type":"uint256"},{"indexed":false,"internalType":"uint256","name":"result","type":"uint256"},{"indexed":false,"internalType":"address","name":"roundWinner","type":"address"}],"name":"RoundPlayed","type":"event"},{"anonymous":false,"inputs":[{"indexed":false,"internalType":"address","name":"account","type":"address"}],"name":"Unpaused","type":"event"},{"inputs":[],"name":"BASIS_POINTS","outputs":[{"internalType":"uint256","name":"","type":"uint256"}],"stateMutability":"view","type":"function"},{"inputs":[{"internalType":"address[]","name":"nftContracts","type":"address[]"},{"internalType":"uint256[]","name":"tokenIds","type":"uint256[]"},{"internalType":"address[]","name":"recipients","type":"address[]"}],"name":"adminBatchWithdrawNFTs","outputs":[],"stateMutability":"nonpayable","type":"function"},{"inputs":[{"internalType":"uint256","name":"gameId","type":"uint256"}],"name":"cancelGame","outputs":[],"stateMutability":"nonpayable","type":"function"},{"inputs":[{"internalType":"address","name":"nftContract","type":"address"},{"internalType":"uint256","name":"tokenId","type":"uint256"},{"internalType":"uint256","name":"priceUSD","type":"uint256"},{"internalType":"enum NFTFlipGame.PaymentToken","name":"acceptedToken","type":"uint8"},{"internalType":"enum NFTFlipGame.GameType","name":"gameType","type":"uint8"},{"internalType":"string","name":"coinType","type":"string"},{"internalType":"string","name":"headsImage","type":"string"},{"internalType":"string","name":"tailsImage","type":"string"},{"internalType":"bool","name":"isCustom","type":"bool"}],"name":"createGame","outputs":[],"stateMutability":"payable","type":"function"},{"inputs":[],"name":"emergencyPause","outputs":[],"stateMutability":"nonpayable","type":"function"},{"inputs":[],"name":"emergencyWithdrawETH","outputs":[],"stateMutability":"nonpayable","type":"function"},{"inputs":[],"name":"ethUsdFeed","outputs":[{"internalType":"contract AggregatorV3Interface","name":"","type":"address"}],"stateMutability":"view","type":"function"},{"inputs":[{"internalType":"uint256","name":"","type":"uint256"}],"name":"games","outputs":[{"internalType":"uint256","name":"gameId","type":"uint256"},{"internalType":"address","name":"creator","type":"address"},{"internalType":"address","name":"joiner","type":"address"},{"internalType":"address","name":"nftContract","type":"address"},{"internalType":"uint256","name":"tokenId","type":"uint256"},{"internalType":"enum NFTFlipGame.GameState","name":"state","type":"uint8"},{"internalType":"enum NFTFlipGame.GameType","name":"gameType","type":"uint8"},{"internalType":"uint256","name":"priceUSD","type":"uint256"},{"internalType":"enum NFTFlipGame.PaymentToken","name":"paymentToken","type":"uint8"},{"internalType":"uint256","name":"totalPaid","type":"uint256"},{"internalType":"address","name":"winner","type":"address"},{"internalType":"uint256","name":"createdAt","type":"uint256"},{"internalType":"uint256","name":"creatorWins","type":"uint256"},{"internalType":"uint256","name":"joinerWins","type":"uint256"},{"internalType":"uint256","name":"currentRound","type":"uint256"},{"internalType":"uint256","name":"lastFlipResult","type":"uint256"},{"internalType":"bytes32","name":"lastFlipHash","type":"bytes32"},{"components":[{"internalType":"string","name":"coinType","type":"string"},{"internalType":"string","name":"headsImage","type":"string"},{"internalType":"string","name":"tailsImage","type":"string"},{"internalType":"bool","name":"isCustom","type":"bool"}],"internalType":"struct NFTFlipGame.CoinInfo","name":"coinInfo","type":"tuple"}],"stateMutability":"view","type":"function"},{"inputs":[{"internalType":"uint256","name":"usdAmount","type":"uint256"}],"name":"getETHAmount","outputs":[{"internalType":"uint256","name":"","type":"uint256"}],"stateMutability":"view","type":"function"},{"inputs":[{"internalType":"uint256","name":"gameId","type":"uint256"}],"name":"getGameDetails","outputs":[{"internalType":"uint256","name":"gameId_","type":"uint256"},{"internalType":"address","name":"creator_","type":"address"},{"internalType":"address","name":"joiner_","type":"address"},{"internalType":"address","name":"nftContract_","type":"address"},{"internalType":"uint256","name":"tokenId_","type":"uint256"},{"internalType":"enum NFTFlipGame.GameState","name":"state_","type":"uint8"},{"internalType":"enum NFTFlipGame.GameType","name":"gameType_","type":"uint8"},{"internalType":"uint256","name":"priceUSD_","type":"uint256"},{"internalType":"enum NFTFlipGame.PaymentToken","name":"paymentToken_","type":"uint8"},{"internalType":"uint256","name":"totalPaid_","type":"uint256"},{"internalType":"address","name":"winner_","type":"address"},{"internalType":"uint256","name":"createdAt_","type":"uint256"},{"internalType":"uint256","name":"creatorWins_","type":"uint256"},{"internalType":"uint256","name":"joinerWins_","type":"uint256"},{"internalType":"uint256","name":"currentRound_","type":"uint256"},{"internalType":"uint256","name":"lastFlipResult_","type":"uint256"},{"internalType":"bytes32","name":"lastFlipHash_","type":"bytes32"},{"internalType":"string","name":"coinType_","type":"string"},{"internalType":"string","name":"headsImage_","type":"string"},{"internalType":"string","name":"tailsImage_","type":"string"},{"internalType":"bool","name":"isCustom_","type":"bool"}],"stateMutability":"view","type":"function"},{"inputs":[{"internalType":"uint256","name":"gameId","type":"uint256"}],"name":"getGameRoundDetails","outputs":[{"internalType":"uint256","name":"creatorWins","type":"uint256"},{"internalType":"uint256","name":"joinerWins","type":"uint256"},{"internalType":"uint256","name":"currentRound","type":"uint256"},{"internalType":"uint256","name":"lastResult","type":"uint256"}],"stateMutability":"view","type":"function"},{"inputs":[{"internalType":"address","name":"user","type":"address"}],"name":"getUserGames","outputs":[{"internalType":"uint256[]","name":"","type":"uint256[]"}],"stateMutability":"view","type":"function"},{"inputs":[{"internalType":"uint256","name":"gameId","type":"uint256"}],"name":"joinGame","outputs":[],"stateMutability":"payable","type":"function"},{"inputs":[],"name":"listingFeeUSD","outputs":[{"internalType":"uint256","name":"","type":"uint256"}],"stateMutability":"view","type":"function"},{"inputs":[],"name":"nextGameId","outputs":[{"internalType":"uint256","name":"","type":"uint256"}],"stateMutability":"view","type":"function"},{"inputs":[],"name":"owner","outputs":[{"internalType":"address","name":"","type":"address"}],"stateMutability":"view","type":"function"},{"inputs":[],"name":"paused","outputs":[{"internalType":"bool","name":"","type":"bool"}],"stateMutability":"view","type":"function"},{"inputs":[],"name":"platformFeePercent","outputs":[{"internalType":"uint256","name":"","type":"uint256"}],"stateMutability":"view","type":"function"},{"inputs":[],"name":"platformFeeReceiver","outputs":[{"internalType":"address","name":"","type":"address"}],"stateMutability":"view","type":"function"},{"inputs":[{"internalType":"uint256","name":"gameId","type":"uint256"}],"name":"playRound","outputs":[],"stateMutability":"nonpayable","type":"function"},{"inputs":[],"name":"renounceOwnership","outputs":[],"stateMutability":"nonpayable","type":"function"},{"inputs":[{"internalType":"uint256","name":"newFee","type":"uint256"}],"name":"setListingFee","outputs":[],"stateMutability":"nonpayable","type":"function"},{"inputs":[{"internalType":"uint256","name":"newPercent","type":"uint256"}],"name":"setPlatformFee","outputs":[],"stateMutability":"nonpayable","type":"function"},{"inputs":[{"internalType":"address","name":"newOwner","type":"address"}],"name":"transferOwnership","outputs":[],"stateMutability":"nonpayable","type":"function"},{"inputs":[{"internalType":"address","name":"","type":"address"}],"name":"unclaimedETH","outputs":[{"internalType":"uint256","name":"","type":"uint256"}],"stateMutability":"view","type":"function"},{"inputs":[{"internalType":"address","name":"","type":"address"},{"internalType":"address","name":"","type":"address"},{"internalType":"uint256","name":"","type":"uint256"}],"name":"unclaimedNFTs","outputs":[{"internalType":"uint256","name":"","type":"uint256"}],"stateMutability":"view","type":"function"},{"inputs":[{"internalType":"address","name":"","type":"address"}],"name":"unclaimedUSDC","outputs":[{"internalType":"uint256","name":"","type":"uint256"}],"stateMutability":"view","type":"function"},{"inputs":[],"name":"unpause","outputs":[],"stateMutability":"nonpayable","type":"function"},{"inputs":[],"name":"usdcToken","outputs":[{"internalType":"address","name":"","type":"address"}],"stateMutability":"view","type":"function"},{"inputs":[{"internalType":"address","name":"","type":"address"},{"internalType":"uint256","name":"","type":"uint256"}],"name":"userGames","outputs":[{"internalType":"uint256","name":"","type":"uint256"}],"stateMutability":"view","type":"function"},{"inputs":[{"internalType":"address","name":"nftContract","type":"address"},{"internalType":"uint256","name":"tokenId","type":"uint256"}],"name":"withdrawNFT","outputs":[],"stateMutability":"nonpayable","type":"function"},{"inputs":[],"name":"withdrawRewards","outputs":[],"stateMutability":"nonpayable","type":"function"}],"evm":{"bytecode":{"linkReferences":{},"object":"6080346200011157601f62002cc338819003918201601f19168301916001600160401b03831184841017620001165780849260609460405283398101031262000111576200004d816200012c565b62000069604062000061602085016200012c565b93016200012c565b916001600055600154926040519360018060a01b03928391338382167f8be0079c531659141344cd1fd0a4f28419497f9722a3daafe3b4186f6b6457e0600080a36001600160a81b0319163360ff60a01b191617600190815560075562030d4060085561015e600955600b80546001600160a01b0319908116968416969096179055600c8054861691909216179055600a80549093169116179055612b819081620001428239f35b600080fd5b634e487b7160e01b600052604160045260246000fd5b51906001600160a01b0382168203620001115756fe610260604052600436101561001357600080fd5b6000803560e01c8063019e485e146120ec578063117a5b9014611ef857806311eac85514611ecf578063120aace614611e2157806312e8e2c314611dc6578063131dbd0914611da35780631a68b69114611d6a5780631b31abda14611a485780632d656ad714611a1f5780633a38d06314611a015780633f4ba83a1461196457806351858e27146119015780635c975abb146118db5780636088e93a1461171457806369958ab9146115bc578063715018a61461155e5780638009b7bd1461153557806384536017146114c15780638c639a85146114a35780638da5cb5b1461147a57806395d1152014611441578063aa4209b8146113cb578063b135bbb0146113ad578063b87b7fcc14611266578063bc0167cd1461120f578063c7b8981c1461106e578063cb9a263014610d41578063e1f1c4a714610d24578063e25f494b146104de578063ef46b2ab146104b7578063efaa55a0146102465763f2fde38b1461017e57600080fd5b3461024357602036600319011261024357610197612737565b61019f61280d565b6001600160a01b039081169081156101ef57600154826001600160601b0360a01b821617600155167f8be0079c531659141344cd1fd0a4f28419497f9722a3daafe3b4186f6b6457e0600080a380f35b60405162461bcd60e51b815260206004820152602660248201527f4f776e61626c653a206e6577206f776e657220697320746865207a65726f206160448201526564647265737360d01b6064820152608490fd5b80fd5b506020806003193601126104b357600435906102606129ab565b610268612964565b818352600281526040832090600582019182549260ff8416600581101561049f576104655760018201546001600160a01b03919082163314610429576102b16006840154612a18565b94600954808702908782041487151715610413576127109004936102d5858861291b565b8734106103d7579389959193600187969460028789989760088a99015501336001600160601b0360a01b82541617905560ff19161790553383526003875261032089604085206128c3565b600a54165af161032e6128eb565b501561039357508281341161036b575b33837f45c4f9cbafe186141862608c493f28b823fde4c2142bedc3f5169961a73fdd228380a36001815580f35b80808061037b61038c953461291b565b335af16103866128eb565b50612928565b388261033e565b6064906040519062461bcd60e51b82526004820152601c60248201527f506c6174666f726d20666565207472616e73666572206661696c6564000000006044820152fd5b60405162461bcd60e51b8152600481018890526014602482015273125b9cdd59999a58da595b9d081c185e5b595b9d60621b6044820152606490fd5b634e487b7160e01b600052601160045260246000fd5b60405162461bcd60e51b815260048101859052601460248201527343616e6e6f74206a6f696e206f776e2067616d6560601b6044820152606490fd5b60405162461bcd60e51b815260048101849052601260248201527147616d65206e6f7420617661696c61626c6560701b6044820152606490fd5b634e487b7160e01b87526021600452602487fd5b5080fd5b50346102435760203660031901126102435760206104d6600435612a18565b604051908152f35b50610120366003190112610243576104f4612737565b600260643510156104b357600260843510156104b35760a4356001600160401b038111610d20576105299036906004016127c6565b9060c4356001600160401b038111610d1c576105499036906004016127c6565b9060e4356001600160401b038111610d18576105699036906004016127c6565b61010435908115158203610d145761057f6129ab565b610587612964565b61059b6001600160a01b0384161515612865565b6105a6600854612a18565b93843410610ccf576001600160a01b0384163b15610cc0576040516323b872dd60e01b81523360048201523060248083019190915235604482015287908181606481836001600160a01b038b165af18015610cc457610cac575b50506040519561060f8761259c565b865260208601526040850152151560608401526007549261062f846128a8565b6007556040519161063f8361256d565b848352336020840152604083018690526001600160a01b03166060830152602435608083015260a082018590526106776084356126ed565b60843560c083015260443560e08301526106926064356126ed565b60643561010083015284610120830152846101408301524261016083015284610180830152846101a0830152846101c0830152846101e08301528461020083015261022082015282845260026020526040842090805182556001820160018060a01b036020830151166001600160601b0360a01b8254161790556002820160018060a01b036040830151166001600160601b0360a01b8254161790556003820160018060a01b036060830151166001600160601b0360a01b8254161790556080810151600483015560a08101516005811015610c985790610220916005840190815460ff61ff0060c0860151610787816126ed565b610790816126ed565b60081b1692169061ffff19161717905560e08101516006840155600783016101008201516107bd816126ed565b6107c6816126ed565b60ff8019835416911617905561012081015160088401556009830160018060a01b03610140830151166001600160601b0360a01b825416179055610160810151600a840155610180810151600b8401556101a0810151600c8401556101c0810151600d8401556101e0810151600e840155610200810151600f84015501519081518051906001600160401b038211610aee5781906108676010850154612533565b601f8111610c47575b50602090601f8311600114610bd8578892610bcd575b50508160011b916000199060031b1c19161760108201555b60208201518051906001600160401b038211610aee5781906108c36011850154612533565b601f8111610b7c575b50602090601f8311600114610b0d578892610b02575b50508160011b916000199060031b1c19161760118201555b60408201518051906001600160401b038211610aee5761091d6012840154612533565b601f8111610aa9575b50602090601f8311600114610a37579180606094926013948a92610a2c575b50508160011b916000199060031b1c19161760128201555b01910151151560ff80198354169116179055338352600360205261098482604085206128c3565b828080808460018060a01b03600a54165af161099e6128eb565b50156109f157828134116109da575b33837fc3e0f84839dc888c892a013d10c8f9d6dc05a21a879d0ce468ca558013e9121c8380a36001815580f35b80808061037b6109ea953461291b565b38826109ad565b60405162461bcd60e51b8152602060048201526013602482015272119959481d1c985b9cd9995c8819985a5b1959606a1b6044820152606490fd5b015190503880610945565b906012840188526020882091885b601f1985168110610a915750926060949260019260139583601f19811610610a78575b505050811b01601282015561095d565b015160001960f88460031b161c19169055388080610a68565b91926020600181928685015181550194019201610a45565b60128401885260208820601f840160051c810160208510610ae7575b601f830160051c82018110610adb575050610926565b60008155600101610ac5565b5080610ac5565b634e487b7160e01b87526041600452602487fd5b0151905038806108e2565b9250601184018852602088209088935b601f1984168510610b61576001945083601f19811610610b48575b505050811b0160118201556108fa565b015160001960f88460031b161c19169055388080610b38565b81810151835560209485019460019093019290910190610b1d565b90915060118401885260208820601f840160051c810160208510610bc6575b90849392915b601f830160051c82018110610bb75750506108cc565b60008155859450600101610ba1565b5080610b9b565b015190503880610886565b9250601084018852602088209088935b601f1984168510610c2c576001945083601f19811610610c13575b505050811b01601082015561089e565b015160001960f88460031b161c19169055388080610c03565b81810151835560209485019460019093019290910190610be8565b90915060108401885260208820601f840160051c810160208510610c91575b90849392915b601f830160051c82018110610c82575050610870565b60008155859450600101610c6c565b5080610c66565b634e487b7160e01b86526021600452602486fd5b610cb590612589565b610cc0578638610600565b8680fd5b6040513d84823e3d90fd5b60405162461bcd60e51b815260206004820152601860248201527f496e73756666696369656e74206c697374696e672066656500000000000000006044820152606490fd5b8580fd5b8480fd5b8380fd5b8280fd5b503461024357806003193601126102435760206040516127108152f35b5034610243576060366003190112610243576001600160401b03600435818111610d2057610d7390369060040161277b565b90916024908135818111610d1457610d8f90369060040161277b565b91604435908111610cc057610da890369060040161277b565b92610db161280d565b80861480611065575b156110215792869288969287955b848710610dd3578880f35b96976001600160a01b03979096610dff89610df7610df2848a8c612b27565b612b37565b161515612865565b88610e0e610df2838887612b27565b1615610fe95788610e2082888a612b27565b610e2990612b37565b1698610e36828487612b27565b6040516331a9108f60e11b81529035600482015260206101209081529a818d815a93602094fa8a9181610faa575b50610ead5760405162461bcd60e51b81528b516004820152601d818e01527f4661696c656420746f20636865636b204e4654206f776e6572736869700000006044820152606490fd5b81929394959697999b989a9130911603610f6657508990610ed2610df2848b8d612b27565b16610ee1610df2848988612b27565b610eec848689612b27565b35823b15610d1c576040516323b872dd60e01b81523060048201526001600160a01b0392909216602483015260448201529082908290606490829084905af18015610cc457610f4e575b5050610f41906128a8565b9593929190969496610dc8565b610f5790612589565b610f6257888a610f36565b8880fd5b60405162461bcd60e51b815290516004820152601e818901527f436f6e747261637420646f6573206e6f74206f776e2074686973204e465400006044820152606490fd5b9091508b513d8111610fe2575b610fc181836125b7565b818d519181010312610fde57518281168103610fde57908d610e64565b8a80fd5b503d610fb7565b60405162461bcd60e51b8152602060048201526011818c015270125b9d985b1a59081c9958da5c1a595b9d607a1b6044820152606490fd5b60405162461bcd60e51b8152602060048201526018818701527f4172726179206c656e67746873206d757374206d6174636800000000000000006044820152606490fd5b50838114610dba565b50346102435780600319360112610243576110876129ab565b338152602060048152604082205490600581526040832054906004815283604081205560058152836040812055826111c0575b8161113d575b6040516101608101908082106001600160401b038311176111275761014091604052600a815282369101376040519283528201528160408201527f4f3d7a53f1fd3ab32e84fafd251bc5c1ec2c516068909f68847ad29c366d134c60603392a26001815580f35b634e487b7160e01b600052604160045260246000fd5b600c5460405163a9059cbb60e01b8152336004820152602481018490529082908290604490829089906001600160a01b03165af180156111b557611182575b506110c0565b8181813d83116111ae575b61119781836125b7565b81010312610d18575180151503610d1c573861117c565b503d61118d565b6040513d87823e3d90fd5b8380808086335af16111d06128eb565b506110ba576064906040519062461bcd60e51b825260048201526013602482015272115512081d1c985b9cd9995c8819985a5b1959606a1b6044820152fd5b503461024357604036600319011261024357611229612737565b6001600160a01b0316815260036020526040812080546024359290831015610243576020611257848461274d565b90549060031b1c604051908152f35b503461024357602036600319011261024357604060809160043581526002602052206040516112948161256d565b8154815260018201546001600160a01b039081166020830152600283015481166040830152600383015481166060830152600483015484830152600583015460ff906112e581831660a086016128b7565b60081c166112f2816126ed565b60c0830152600683015460e083015260ff600784015416611312816126ed565b6101008301526008830154610120830152600983015416610140820152600a820154610160820152600b820154916101808201928352600c810154926101a08301938452600d820154926101c0810193845261022061138b6010600e860154956101e08501968752600f8101546102008601520161267e565b9101525192519151905191604051938452602084015260408301526060820152f35b50346102435780600319360112610243576020600754604051908152f35b5034610243576060366003190112610243576113e5612737565b906024356001600160a01b038181169182900361143c576044359316825260066020526040822090600052602052604060002090815483101561024357602061142e848461274d565b90546040519160031b1c8152f35b600080fd5b5034610243576020366003190112610243576020906040906001600160a01b03611469612737565b168152600583522054604051908152f35b50346102435780600319360112610243576001546040516001600160a01b039091168152602090f35b50346102435780600319360112610243576020600954604051908152f35b50346102435780600319360112610243576114da61280d565b8080808060018060a01b036001541647905af16114f56128eb565b50156114fe5780f35b60405162461bcd60e51b815260206004820152600f60248201526e151c985b9cd9995c8819985a5b1959608a1b6044820152606490fd5b5034610243578060031936011261024357600b546040516001600160a01b039091168152602090f35b503461024357806003193601126102435761157761280d565b600180546001600160a01b031981169091556000906001600160a01b03167f8be0079c531659141344cd1fd0a4f28419497f9722a3daafe3b4186f6b6457e08280a380f35b50346102435760209081600319360112610243576004356115db6129ab565b808252600283526040822060018101546001600160a01b0390811694338690036116d057600583019586549660ff881660058110156116bc5761167757600461164c96979860ff191617905586526006815260408620916003840154166000525260046040600020910154906128c3565b7f681705fdbd93dba3b679fd712577e9a86d57c5551c520f8c74857deb57f9623f8280a26001815580f35b60405162461bcd60e51b815260048101849052601e60248201527f43616e206f6e6c792063616e63656c20756e6a6f696e65642067616d657300006044820152606490fd5b634e487b7160e01b88526021600452602488fd5b6064906040519062461bcd60e51b82526004820152601760248201527f4f6e6c792063726561746f722063616e2063616e63656c0000000000000000006044820152fd5b50346102435760403660031901126102435761172e612737565b60249182359161173c6129ab565b3382526006602052604082209060018060a01b03169081835260205260408220928293835b8154808210156118d0578390611777838561274d565b929054600393841b1c14611795575050611790906128a8565b611761565b909394959650600019918282019182116118bd576117c66117b96117df938661274d565b905490871b1c918561274d565b90919082549060031b91821b91600019901b1916179055565b815480156118aa578101926117f4848461274d565b81939154921b1b191690555560015b1561186657829350813b15611862576040516323b872dd60e01b8152306004820152336024820152604481019190915291908290606490829084905af18015610cc457611853575b506001815580f35b61185c90612589565b3861184b565b5050fd5b60405162461bcd60e51b815260206004820152601a818601527f4e4654206e6f7420666f756e6420696e20756e636c61696d65640000000000006044820152606490fd5b634e487b7160e01b875260316004528787fd5b634e487b7160e01b885260116004528888fd5b505050909192611803565b5034610243578060031936011261024357602060ff60015460a01c166040519015158152f35b503461024357806003193601126102435761191a61280d565b611922612964565b6001805460ff60a01b1916600160a01b1790556040513381527f62e78cea01bee320cd4e420270b5ea74000d11b0c9f74754ebdbfc544b05a25890602090a180f35b503461024357806003193601126102435761197d61280d565b60015460ff8160a01c16156119c55760ff60a01b19166001556040513381527f5db9ee0a495bf2e6ff9c91a7834c1ba4fdd244a5e8aa4e537bd38aeae4b073aa90602090a180f35b60405162461bcd60e51b815260206004820152601460248201527314185d5cd8589b194e881b9bdd081c185d5cd95960621b6044820152606490fd5b50346102435780600319360112610243576020600854604051908152f35b5034610243578060031936011261024357600a546040516001600160a01b039091168152602090f35b503461024357602036600319011261024357600435815260026020526040812090611b6b601060405193611a7b8561256d565b8054855260018101546001600160a01b039081166020870152600282015481166040870152600382015416606086015260048101546080860152600581015460ff90611acc81831660a089016128b7565b611ada828260081c166126ed565b60081c1660c0860152600681015460e086015260ff600782015416611afe816126ed565b610100860152600881015461012086015260098101546001600160a01b0316610140860152600a810154610160860152600b810154610180860152600c8101546101a0860152600d8101546101c0860152600e8101546101e0860152600f8101546102008601520161267e565b610220830152815160208301516001600160a01b0390811660e05260408401518116608090815260608501519091166102005283015160a084015191929091906005821015611d56575060c0840151611bc3816126ed565b60e0850151610100860151611bd7816126ed565b61012087015190600160a01b600190036101408901511692610160890151946101808a0151966101a08b0151986101c08c01519a6101e08d01519c6102008101516101405261022001518061010052805161022052602081015160a052604081015161024052606001511515610180526040518060c0525260e05160c0516020015260805160c051604001526102005160c0516060015260c0516080015260c05160a001611c84916126ca565b611c8d816126ed565b60c05160c0015260c05160e00152611ca4816126ed565b60c051610100015260c051610120015260c051610140015260c051610160015260c051610180015260c0516101a0015260c0516101c0015260c0516101e001526101405160c05161020001526102a08060c051610220015260c051016102205190611d0e916126f7565b60c05180820390610240015260a05190611d27916126f7565b60c0518082039061026001526102405190611d41916126f7565b6101805160c051610280015260c05180910390f35b634e487b7160e01b81526021600452602490fd5b5034610243576020366003190112610243576020906040906001600160a01b03611d92612737565b168152600483522054604051908152f35b503461024357602036600319011261024357611dbd61280d565b60043560085580f35b503461024357602036600319011261024357600435611de361280d565b6103e88111611df25760095580f35b60405162461bcd60e51b81526020600482015260076024820152664d61782031302560c81b6044820152606490fd5b5034610243576020806003193601126104b3576001600160a01b03611e44612737565b168252600381526040822060405192838383549182815201908193835284832090835b818110611ebb5750505084611e7d9103856125b7565b60405193838594850191818652518092526040850193925b828110611ea457505050500390f35b835185528695509381019392810192600101611e95565b825484529286019260019283019201611e67565b5034610243578060031936011261024357600c546040516001600160a01b039091168152602090f35b5034610243576020366003190112610243576004358152600260205260409020808054600160a01b600190038060018401541661016052806002840154166101a0528060038401541690600484015490600585015490600686015490600787015460ff1660088801549160098901541692600a89015494600b8a015496600c8b015498600d8c01549a600e8d01549c600f01549d601001611f989061267e565b6101c052604051806101e05252610160516101e051602001526101a0516101e051604001526101e051606001526101e051608001526101e05160a00160ff821690611fe2916126ca565b60081c60ff16611ff1816126ed565b6101e05160c001526101e05160e0015261200a816126ed565b6101e05161010001526101e05161012001526101e05161014001526101e05161016001526101e05161018001526101e0516101a001526101e0516101c001526101e0516101e001526101e0516102000152610240806101e05161022001526101c05151906101e05101608090526101e0516102c001612088916126f7565b6101c051602001516101e0519161023f199283818303019061026001526120ae916126f7565b6101c05160400151916101e05190818303019061028001526120cf916126f7565b6101c0516060015115156101e0516102a001526101e05180910390f35b5034610243576020366003190112610243576121066129ab565b6004358152600260205260408120600581015460ff811660058110158061251f576001821480928115612511575b50156124db5760018401546001600160a01b0316331480156124c5575b15612491576003600b8501541080612483575b156124465761243257612420575b50600d81015460405142602082015244604082015260043560608201528160808201523360601b60a0820152609481528060c08101106001600160401b0360c08301111761240c5760c081016040526020815191012090600182161560001461239c57506121e3600b8301546128a8565b600b830155600d8201546001810181116123625760018381015460408051938301845291841660208401526001600160a01b031690820152600435907fd2b6b22444768b00d18e4a1c242dc398d49e330c1bae790cad9dcd86da2e20c390606090a25b612253600d8301546128a8565b600d83015560018116600e830155600f8201556003600b820154108015809161238d575b612284575b826001815580f35b156123765760018101546001600160a01b0316906008905b6009810180546001600160a01b0319166001600160a01b03948516908117825560058301805460ff191660039081179091559086526006602090815260408088209285015490961687525292842060048201546122f8916128c3565b015480612339575b50546001600160a01b03166004357f7f40df5127524300187445e867486da572aab86769c0212e0b392bd87c4ca97f8380a3388061227c565b81546001600160a01b031683526004602052604083208054918201918210612362575538612300565b634e487b7160e01b84526011600452602484fd5b60028101546001600160a01b03169060089061229c565b506003600c8301541015612277565b600c83016123aa81546128a8565b9055600181018111612362576002830154604080516001938401815292841660208401526001600160a01b0390911690820152600435907fd2b6b22444768b00d18e4a1c242dc398d49e330c1bae790cad9dcd86da2e20c390606090a2612246565b634e487b7160e01b84526041600452602484fd5b60ff1916600217600582015538612172565b634e487b7160e01b84526021600452602484fd5b60405162461bcd60e51b815260206004820152601560248201527447616d6520616c726561647920636f6d706c65746560581b6044820152606490fd5b506003600c85015410612164565b60405162461bcd60e51b815260206004820152600c60248201526b2737ba103090383630bcb2b960a11b6044820152606490fd5b5060028401546001600160a01b03163314612151565b60405162461bcd60e51b815260206004820152600e60248201526d47616d65206e6f7420726561647960901b6044820152606490fd5b915050600285911438612134565b634e487b7160e01b85526021600452602485fd5b90600182811c92168015612563575b602083101461254d57565b634e487b7160e01b600052602260045260246000fd5b91607f1691612542565b61024081019081106001600160401b0382111761112757604052565b6001600160401b03811161112757604052565b608081019081106001600160401b0382111761112757604052565b90601f801991011681019081106001600160401b0382111761112757604052565b90604051918260008254926125ec84612533565b90818452600194858116908160001461265b5750600114612618575b5050612616925003836125b7565b565b9093915060005260209081600020936000915b81831061264357505061261693508201013880612608565b8554888401850152948501948794509183019161262b565b91505061261694506020925060ff191682840152151560051b8201013880612608565b9060405161268b8161259c565b606060ff6003839561269c816125d8565b85526126aa600182016125d8565b60208601526126bb600282016125d8565b60408601520154161515910152565b9060058210156126d75752565b634e487b7160e01b600052602160045260246000fd5b600211156126d757565b919082519283825260005b848110612723575050826000602080949584010152601f8019910116010190565b602081830181015184830182015201612702565b600435906001600160a01b038216820361143c57565b80548210156127655760005260206000200190600090565b634e487b7160e01b600052603260045260246000fd5b9181601f8401121561143c578235916001600160401b03831161143c576020808501948460051b01011161143c57565b6001600160401b03811161112757601f01601f191660200190565b81601f8201121561143c578035906127dd826127ab565b926127eb60405194856125b7565b8284526020838301011161143c57816000926020809301838601378301015290565b6001546001600160a01b0316330361282157565b606460405162461bcd60e51b815260206004820152602060248201527f4f776e61626c653a2063616c6c6572206973206e6f7420746865206f776e65726044820152fd5b1561286c57565b60405162461bcd60e51b8152602060048201526014602482015273125b9d985b1a59081391950818dbdb9d1c9858dd60621b6044820152606490fd5b60001981146104135760010190565b60058210156126d75752565b908154916801000000000000000083101561112757826117c69160016126169501815561274d565b3d15612916573d906128fc826127ab565b9161290a60405193846125b7565b82523d6000602084013e565b606090565b9190820391821161041357565b1561292f57565b60405162461bcd60e51b815260206004820152600d60248201526c1499599d5b990819985a5b1959609a1b6044820152606490fd5b60ff60015460a01c1661297357565b60405162461bcd60e51b815260206004820152601060248201526f14185d5cd8589b194e881c185d5cd95960821b6044820152606490fd5b6002600054146129bc576002600055565b60405162461bcd60e51b815260206004820152601f60248201527f5265656e7472616e637947756172643a207265656e7472616e742063616c6c006044820152606490fd5b519069ffffffffffffffffffff8216820361143c57565b600b54604051633fabe5a360e21b8152919060a090839060049082906001600160a01b03165afa918215612b1b57600092612acd575b506000821315612a935768056bc75e2d6310000090818102918183041490151715610413578115612a7d570490565b634e487b7160e01b600052601260045260246000fd5b60405162461bcd60e51b8152602060048201526012602482015271125b9d985b1a59081c1c9a58d9481999595960721b6044820152606490fd5b909160a0823d8211612b13575b81612ae760a093836125b7565b810103126102435750612af981612a01565b50612b0b608060208301519201612a01565b509038612a4e565b3d9150612ada565b6040513d6000823e3d90fd5b91908110156127655760051b0190565b356001600160a01b038116810361143c579056fea264697066735822122006889c4ae525b6035f33513b0dfde537f2aa2dee0d8c95cea6c4203b89c1428f64736f6c63430008140033","opcodes":"PUSH1 0x80 CALLVALUE PUSH3 0x111 JUMPI PUSH1 0x1F PUSH3 0x2CC3 CODESIZE DUP2 SWAP1 SUB SWAP2 DUP3 ADD PUSH1 0x1F NOT AND DUP4 ADD SWAP2 PUSH1 0x1 PUSH1 0x1 PUSH1 0x40 SHL SUB DUP4 GT DUP5 DUP5 LT OR PUSH3 0x116 JUMPI DUP1 DUP5 SWAP3 PUSH1 0x60 SWAP5 PUSH1 0x40 MSTORE DUP4 CODECOPY DUP2 ADD SUB SLT PUSH3 0x111 JUMPI PUSH3 0x4D DUP2 PUSH3 0x12C JUMP JUMPDEST PUSH3 0x69 PUSH1 0x40 PUSH3 0x61 PUSH1 0x20 DUP6 ADD PUSH3 0x12C JUMP JUMPDEST SWAP4 ADD PUSH3 0x12C JUMP JUMPDEST SWAP2 PUSH1 0x1 PUSH1 0x0 SSTORE PUSH1 0x1 SLOAD SWAP3 PUSH1 0x40 MLOAD SWAP4 PUSH1 0x1 DUP1 PUSH1 0xA0 SHL SUB SWAP3 DUP4 SWAP2 CALLER DUP4 DUP3 AND PUSH32 0x8BE0079C531659141344CD1FD0A4F28419497F9722A3DAAFE3B4186F6B6457E0 PUSH1 0x0 DUP1 LOG3 PUSH1 0x1 PUSH1 0x1 PUSH1 0xA8 SHL SUB NOT AND CALLER PUSH1 0xFF PUSH1 0xA0 SHL NOT AND OR PUSH1 0x1 SWAP1 DUP2 SSTORE PUSH1 0x7 SSTORE PUSH3 0x30D40 PUSH1 0x8 SSTORE PUSH2 0x15E PUSH1 0x9 SSTORE PUSH1 0xB DUP1 SLOAD PUSH1 0x1 PUSH1 0x1 PUSH1 0xA0 SHL SUB NOT SWAP1 DUP2 AND SWAP7 DUP5 AND SWAP7 SWAP1 SWAP7 OR SWAP1 SSTORE PUSH1 0xC DUP1 SLOAD DUP7 AND SWAP2 SWAP1 SWAP3 AND OR SWAP1 SSTORE PUSH1 0xA DUP1 SLOAD SWAP1 SWAP4 AND SWAP2 AND OR SWAP1 SSTORE PUSH2 0x2B81 SWAP1 DUP2 PUSH3 0x142 DUP3 CODECOPY RETURN JUMPDEST PUSH1 0x0 DUP1 REVERT JUMPDEST PUSH4 0x4E487B71 PUSH1 0xE0 SHL PUSH1 0x0 MSTORE PUSH1 0x41 PUSH1 0x4 MSTORE PUSH1 0x24 PUSH1 0x0 REVERT JUMPDEST MLOAD SWAP1 PUSH1 0x1 PUSH1 0x1 PUSH1 0xA0 SHL SUB DUP3 AND DUP3 SUB PUSH3 0x111 JUMPI JUMP INVALID PUSH2 0x260 PUSH1 0x40 MSTORE PUSH1 0x4 CALLDATASIZE LT ISZERO PUSH2 0x13 JUMPI PUSH1 0x0 DUP1 REVERT JUMPDEST PUSH1 0x0 DUP1 CALLDATALOAD PUSH1 0xE0 SHR DUP1 PUSH4 0x19E485E EQ PUSH2 0x20EC JUMPI DUP1 PUSH4 0x117A5B90 EQ PUSH2 0x1EF8 JUMPI DUP1 PUSH4 0x11EAC855 EQ PUSH2 0x1ECF JUMPI DUP1 PUSH4 0x120AACE6 EQ PUSH2 0x1E21 JUMPI DUP1 PUSH4 0x12E8E2C3 EQ PUSH2 0x1DC6 JUMPI DUP1 PUSH4 0x131DBD09 EQ PUSH2 0x1DA3 JUMPI DUP1 PUSH4 0x1A68B691 EQ PUSH2 0x1D6A JUMPI DUP1 PUSH4 0x1B31ABDA EQ PUSH2 0x1A48 JUMPI DUP1 PUSH4 0x2D656AD7 EQ PUSH2 0x1A1F JUMPI DUP1 PUSH4 0x3A38D063 EQ PUSH2 0x1A01 JUMPI DUP1 PUSH4 0x3F4BA83A EQ PUSH2 0x1964 JUMPI DUP1 PUSH4 0x51858E27 EQ PUSH2 0x1901 JUMPI DUP1 PUSH4 0x5C975ABB EQ PUSH2 0x18DB JUMPI DUP1 PUSH4 0x6088E93A EQ PUSH2 0x1714 JUMPI DUP1 PUSH4 0x69958AB9 EQ PUSH2 0x15BC JUMPI DUP1 PUSH4 0x715018A6 EQ PUSH2 0x155E JUMPI DUP1 PUSH4 0x8009B7BD EQ PUSH2 0x1535 JUMPI DUP1 PUSH4 0x84536017 EQ PUSH2 0x14C1 JUMPI DUP1 PUSH4 0x8C639A85 EQ PUSH2 0x14A3 JUMPI DUP1 PUSH4 0x8DA5CB5B EQ PUSH2 0x147A JUMPI DUP1 PUSH4 0x95D11520 EQ PUSH2 0x1441 JUMPI DUP1 PUSH4 0xAA4209B8 EQ PUSH2 0x13CB JUMPI DUP1 PUSH4 0xB135BBB0 EQ PUSH2 0x13AD JUMPI DUP1 PUSH4 0xB87B7FCC EQ PUSH2 0x1266 JUMPI DUP1 PUSH4 0xBC0167CD EQ PUSH2 0x120F JUMPI DUP1 PUSH4 0xC7B8981C EQ PUSH2 0x106E JUMPI DUP1 PUSH4 0xCB9A2630 EQ PUSH2 0xD41 JUMPI DUP1 PUSH4 0xE1F1C4A7 EQ PUSH2 0xD24 JUMPI DUP1 PUSH4 0xE25F494B EQ PUSH2 0x4DE JUMPI DUP1 PUSH4 0xEF46B2AB EQ PUSH2 0x4B7 JUMPI DUP1 PUSH4 0xEFAA55A0 EQ PUSH2 0x246 JUMPI PUSH4 0xF2FDE38B EQ PUSH2 0x17E JUMPI PUSH1 0x0 DUP1 REVERT JUMPDEST CALLVALUE PUSH2 0x243 JUMPI PUSH1 0x20 CALLDATASIZE PUSH1 0x3 NOT ADD SLT PUSH2 0x243 JUMPI PUSH2 0x197 PUSH2 0x2737 JUMP JUMPDEST PUSH2 0x19F PUSH2 0x280D JUMP JUMPDEST PUSH1 0x1 PUSH1 0x1 PUSH1 0xA0 SHL SUB SWAP1 DUP2 AND SWAP1 DUP2 ISZERO PUSH2 0x1EF JUMPI PUSH1 0x1 SLOAD DUP3 PUSH1 0x1 PUSH1 0x1 PUSH1 0x60 SHL SUB PUSH1 0xA0 SHL DUP3 AND OR PUSH1 0x1 SSTORE AND PUSH32 0x8BE0079C531659141344CD1FD0A4F28419497F9722A3DAAFE3B4186F6B6457E0 PUSH1 0x0 DUP1 LOG3 DUP1 RETURN JUMPDEST PUSH1 0x40 MLOAD PUSH3 0x461BCD PUSH1 0xE5 SHL DUP2 MSTORE PUSH1 0x20 PUSH1 0x4 DUP3 ADD MSTORE PUSH1 0x26 PUSH1 0x24 DUP3 ADD MSTORE PUSH32 0x4F776E61626C653A206E6577206F776E657220697320746865207A65726F2061 PUSH1 0x44 DUP3 ADD MSTORE PUSH6 0x646472657373 PUSH1 0xD0 SHL PUSH1 0x64 DUP3 ADD MSTORE PUSH1 0x84 SWAP1 REVERT JUMPDEST DUP1 REVERT JUMPDEST POP PUSH1 0x20 DUP1 PUSH1 0x3 NOT CALLDATASIZE ADD SLT PUSH2 0x4B3 JUMPI PUSH1 0x4 CALLDATALOAD SWAP1 PUSH2 0x260 PUSH2 0x29AB JUMP JUMPDEST PUSH2 0x268 PUSH2 0x2964 JUMP JUMPDEST DUP2 DUP4 MSTORE PUSH1 0x2 DUP2 MSTORE PUSH1 0x40 DUP4 KECCAK256 SWAP1 PUSH1 0x5 DUP3 ADD SWAP2 DUP3 SLOAD SWAP3 PUSH1 0xFF DUP5 AND PUSH1 0x5 DUP2 LT ISZERO PUSH2 0x49F JUMPI PUSH2 0x465 JUMPI PUSH1 0x1 DUP3 ADD SLOAD PUSH1 0x1 PUSH1 0x1 PUSH1 0xA0 SHL SUB SWAP2 SWAP1 DUP3 AND CALLER EQ PUSH2 0x429 JUMPI PUSH2 0x2B1 PUSH1 0x6 DUP5 ADD SLOAD PUSH2 0x2A18 JUMP JUMPDEST SWAP5 PUSH1 0x9 SLOAD DUP1 DUP8 MUL SWAP1 DUP8 DUP3 DIV EQ DUP8 ISZERO OR ISZERO PUSH2 0x413 JUMPI PUSH2 0x2710 SWAP1 DIV SWAP4 PUSH2 0x2D5 DUP6 DUP9 PUSH2 0x291B JUMP JUMPDEST DUP8 CALLVALUE LT PUSH2 0x3D7 JUMPI SWAP4 DUP10 SWAP6 SWAP2 SWAP4 PUSH1 0x1 DUP8 SWAP7 SWAP5 PUSH1 0x2 DUP8 DUP10 SWAP9 SWAP8 PUSH1 0x8 DUP11 SWAP10 ADD SSTORE ADD CALLER PUSH1 0x1 PUSH1 0x1 PUSH1 0x60 SHL SUB PUSH1 0xA0 SHL DUP3 SLOAD AND OR SWAP1 SSTORE PUSH1 0xFF NOT AND OR SWAP1 SSTORE CALLER DUP4 MSTORE PUSH1 0x3 DUP8 MSTORE PUSH2 0x320 DUP10 PUSH1 0x40 DUP6 KECCAK256 PUSH2 0x28C3 JUMP JUMPDEST PUSH1 0xA SLOAD AND GAS CALL PUSH2 0x32E PUSH2 0x28EB JUMP JUMPDEST POP ISZERO PUSH2 0x393 JUMPI POP DUP3 DUP2 CALLVALUE GT PUSH2 0x36B JUMPI JUMPDEST CALLER DUP4 PUSH32 0x45C4F9CBAFE186141862608C493F28B823FDE4C2142BEDC3F5169961A73FDD22 DUP4 DUP1 LOG3 PUSH1 0x1 DUP2 SSTORE DUP1 RETURN JUMPDEST DUP1 DUP1 DUP1 PUSH2 0x37B PUSH2 0x38C SWAP6 CALLVALUE PUSH2 0x291B JUMP JUMPDEST CALLER GAS CALL PUSH2 0x386 PUSH2 0x28EB JUMP JUMPDEST POP PUSH2 0x2928 JUMP JUMPDEST CODESIZE DUP3 PUSH2 0x33E JUMP JUMPDEST PUSH1 0x64 SWAP1 PUSH1 0x40 MLOAD SWAP1 PUSH3 0x461BCD PUSH1 0xE5 SHL DUP3 MSTORE PUSH1 0x4 DUP3 ADD MSTORE PUSH1 0x1C PUSH1 0x24 DUP3 ADD MSTORE PUSH32 0x506C6174666F726D20666565207472616E73666572206661696C656400000000 PUSH1 0x44 DUP3 ADD MSTORE REVERT JUMPDEST PUSH1 0x40 MLOAD PUSH3 0x461BCD PUSH1 0xE5 SHL DUP2 MSTORE PUSH1 0x4 DUP2 ADD DUP9 SWAP1 MSTORE PUSH1 0x14 PUSH1 0x24 DUP3 ADD MSTORE PUSH20 0x125B9CDD59999A58DA595B9D081C185E5B595B9D PUSH1 0x62 SHL PUSH1 0x44 DUP3 ADD MSTORE PUSH1 0x64 SWAP1 REVERT JUMPDEST PUSH4 0x4E487B71 PUSH1 0xE0 SHL PUSH1 0x0 MSTORE PUSH1 0x11 PUSH1 0x4 MSTORE PUSH1 0x24 PUSH1 0x0 REVERT JUMPDEST PUSH1 0x40 MLOAD PUSH3 0x461BCD PUSH1 0xE5 SHL DUP2 MSTORE PUSH1 0x4 DUP2 ADD DUP6 SWAP1 MSTORE PUSH1 0x14 PUSH1 0x24 DUP3 ADD MSTORE PUSH20 0x43616E6E6F74206A6F696E206F776E2067616D65 PUSH1 0x60 SHL PUSH1 0x44 DUP3 ADD MSTORE PUSH1 0x64 SWAP1 REVERT JUMPDEST PUSH1 0x40 MLOAD PUSH3 0x461BCD PUSH1 0xE5 SHL DUP2 MSTORE PUSH1 0x4 DUP2 ADD DUP5 SWAP1 MSTORE PUSH1 0x12 PUSH1 0x24 DUP3 ADD MSTORE PUSH18 0x47616D65206E6F7420617661696C61626C65 PUSH1 0x70 SHL PUSH1 0x44 DUP3 ADD MSTORE PUSH1 0x64 SWAP1 REVERT JUMPDEST PUSH4 0x4E487B71 PUSH1 0xE0 SHL DUP8 MSTORE PUSH1 0x21 PUSH1 0x4 MSTORE PUSH1 0x24 DUP8 REVERT JUMPDEST POP DUP1 REVERT JUMPDEST POP CALLVALUE PUSH2 0x243 JUMPI PUSH1 0x20 CALLDATASIZE PUSH1 0x3 NOT ADD SLT PUSH2 0x243 JUMPI PUSH1 0x20 PUSH2 0x4D6 PUSH1 0x4 CALLDATALOAD PUSH2 0x2A18 JUMP JUMPDEST PUSH1 0x40 MLOAD SWAP1 DUP2 MSTORE RETURN JUMPDEST POP PUSH2 0x120 CALLDATASIZE PUSH1 0x3 NOT ADD SLT PUSH2 0x243 JUMPI PUSH2 0x4F4 PUSH2 0x2737 JUMP JUMPDEST PUSH1 0x2 PUSH1 0x64 CALLDATALOAD LT ISZERO PUSH2 0x4B3 JUMPI PUSH1 0x2 PUSH1 0x84 CALLDATALOAD LT ISZERO PUSH2 0x4B3 JUMPI PUSH1 0xA4 CALLDATALOAD PUSH1 0x1 PUSH1 0x1 PUSH1 0x40 SHL SUB DUP2 GT PUSH2 0xD20 JUMPI PUSH2 0x529 SWAP1 CALLDATASIZE SWAP1 PUSH1 0x4 ADD PUSH2 0x27C6 JUMP JUMPDEST SWAP1 PUSH1 0xC4 CALLDATALOAD PUSH1 0x1 PUSH1 0x1 PUSH1 0x40 SHL SUB DUP2 GT PUSH2 0xD1C JUMPI PUSH2 0x549 SWAP1 CALLDATASIZE SWAP1 PUSH1 0x4 ADD PUSH2 0x27C6 JUMP JUMPDEST SWAP1 PUSH1 0xE4 CALLDATALOAD PUSH1 0x1 PUSH1 0x1 PUSH1 0x40 SHL SUB DUP2 GT PUSH2 0xD18 JUMPI PUSH2 0x569 SWAP1 CALLDATASIZE SWAP1 PUSH1 0x4 ADD PUSH2 0x27C6 JUMP JUMPDEST PUSH2 0x104 CALLDATALOAD SWAP1 DUP2 ISZERO ISZERO DUP3 SUB PUSH2 0xD14 JUMPI PUSH2 0x57F PUSH2 0x29AB JUMP JUMPDEST PUSH2 0x587 PUSH2 0x2964 JUMP JUMPDEST PUSH2 0x59B PUSH1 0x1 PUSH1 0x1 PUSH1 0xA0 SHL SUB DUP5 AND ISZERO ISZERO PUSH2 0x2865 JUMP JUMPDEST PUSH2 0x5A6 PUSH1 0x8 SLOAD PUSH2 0x2A18 JUMP JUMPDEST SWAP4 DUP5 CALLVALUE LT PUSH2 0xCCF JUMPI PUSH1 0x1 PUSH1 0x1 PUSH1 0xA0 SHL SUB DUP5 AND EXTCODESIZE ISZERO PUSH2 0xCC0 JUMPI PUSH1 0x40 MLOAD PUSH4 0x23B872DD PUSH1 0xE0 SHL DUP2 MSTORE CALLER PUSH1 0x4 DUP3 ADD MSTORE ADDRESS PUSH1 0x24 DUP1 DUP4 ADD SWAP2 SWAP1 SWAP2 MSTORE CALLDATALOAD PUSH1 0x44 DUP3 ADD MSTORE DUP8 SWAP1 DUP2 DUP2 PUSH1 0x64 DUP2 DUP4 PUSH1 0x1 PUSH1 0x1 PUSH1 0xA0 SHL SUB DUP12 AND GAS CALL DUP1 ISZERO PUSH2 0xCC4 JUMPI PUSH2 0xCAC JUMPI JUMPDEST POP POP PUSH1 0x40 MLOAD SWAP6 PUSH2 0x60F DUP8 PUSH2 0x259C JUMP JUMPDEST DUP7 MSTORE PUSH1 0x20 DUP7 ADD MSTORE PUSH1 0x40 DUP6 ADD MSTORE ISZERO ISZERO PUSH1 0x60 DUP5 ADD MSTORE PUSH1 0x7 SLOAD SWAP3 PUSH2 0x62F DUP5 PUSH2 0x28A8 JUMP JUMPDEST PUSH1 0x7 SSTORE PUSH1 0x40 MLOAD SWAP2 PUSH2 0x63F DUP4 PUSH2 0x256D JUMP JUMPDEST DUP5 DUP4 MSTORE CALLER PUSH1 0x20 DUP5 ADD MSTORE PUSH1 0x40 DUP4 ADD DUP7 SWAP1 MSTORE PUSH1 0x1 PUSH1 0x1 PUSH1 0xA0 SHL SUB AND PUSH1 0x60 DUP4 ADD MSTORE PUSH1 0x24 CALLDATALOAD PUSH1 0x80 DUP4 ADD MSTORE PUSH1 0xA0 DUP3 ADD DUP6 SWAP1 MSTORE PUSH2 0x677 PUSH1 0x84 CALLDATALOAD PUSH2 0x26ED JUMP JUMPDEST PUSH1 0x84 CALLDATALOAD PUSH1 0xC0 DUP4 ADD MSTORE PUSH1 0x44 CALLDATALOAD PUSH1 0xE0 DUP4 ADD MSTORE PUSH2 0x692 PUSH1 0x64 CALLDATALOAD PUSH2 0x26ED JUMP JUMPDEST PUSH1 0x64 CALLDATALOAD PUSH2 0x100 DUP4 ADD MSTORE DUP5 PUSH2 0x120 DUP4 ADD MSTORE DUP5 PUSH2 0x140 DUP4 ADD MSTORE TIMESTAMP PUSH2 0x160 DUP4 ADD MSTORE DUP5 PUSH2 0x180 DUP4 ADD MSTORE DUP5 PUSH2 0x1A0 DUP4 ADD MSTORE DUP5 PUSH2 0x1C0 DUP4 ADD MSTORE DUP5 PUSH2 0x1E0 DUP4 ADD MSTORE DUP5 PUSH2 0x200 DUP4 ADD MSTORE PUSH2 0x220 DUP3 ADD MSTORE DUP3 DUP5 MSTORE PUSH1 0x2 PUSH1 0x20 MSTORE PUSH1 0x40 DUP5 KECCAK256 SWAP1 DUP1 MLOAD DUP3 SSTORE PUSH1 0x1 DUP3 ADD PUSH1 0x1 DUP1 PUSH1 0xA0 SHL SUB PUSH1 0x20 DUP4 ADD MLOAD AND PUSH1 0x1 PUSH1 0x1 PUSH1 0x60 SHL SUB PUSH1 0xA0 SHL DUP3 SLOAD AND OR SWAP1 SSTORE PUSH1 0x2 DUP3 ADD PUSH1 0x1 DUP1 PUSH1 0xA0 SHL SUB PUSH1 0x40 DUP4 ADD MLOAD AND PUSH1 0x1 PUSH1 0x1 PUSH1 0x60 SHL SUB PUSH1 0xA0 SHL DUP3 SLOAD AND OR SWAP1 SSTORE PUSH1 0x3 DUP3 ADD PUSH1 0x1 DUP1 PUSH1 0xA0 SHL SUB PUSH1 0x60 DUP4 ADD MLOAD AND PUSH1 0x1 PUSH1 0x1 PUSH1 0x60 SHL SUB PUSH1 0xA0 SHL DUP3 SLOAD AND OR SWAP1 SSTORE PUSH1 0x80 DUP2 ADD MLOAD PUSH1 0x4 DUP4 ADD SSTORE PUSH1 0xA0 DUP2 ADD MLOAD PUSH1 0x5 DUP2 LT ISZERO PUSH2 0xC98 JUMPI SWAP1 PUSH2 0x220 SWAP2 PUSH1 0x5 DUP5 ADD SWAP1 DUP2 SLOAD PUSH1 0xFF PUSH2 0xFF00 PUSH1 0xC0 DUP7 ADD MLOAD PUSH2 0x787 DUP2 PUSH2 0x26ED JUMP JUMPDEST PUSH2 0x790 DUP2 PUSH2 0x26ED JUMP JUMPDEST PUSH1 0x8 SHL AND SWAP3 AND SWAP1 PUSH2 0xFFFF NOT AND OR OR SWAP1 SSTORE PUSH1 0xE0 DUP2 ADD MLOAD PUSH1 0x6 DUP5 ADD SSTORE PUSH1 0x7 DUP4 ADD PUSH2 0x100 DUP3 ADD MLOAD PUSH2 0x7BD DUP2 PUSH2 0x26ED JUMP JUMPDEST PUSH2 0x7C6 DUP2 PUSH2 0x26ED JUMP JUMPDEST PUSH1 0xFF DUP1 NOT DUP4 SLOAD AND SWAP2 AND OR SWAP1 SSTORE PUSH2 0x120 DUP2 ADD MLOAD PUSH1 0x8 DUP5 ADD SSTORE PUSH1 0x9 DUP4 ADD PUSH1 0x1 DUP1 PUSH1 0xA0 SHL SUB PUSH2 0x140 DUP4 ADD MLOAD AND PUSH1 0x1 PUSH1 0x1 PUSH1 0x60 SHL SUB PUSH1 0xA0 SHL DUP3 SLOAD AND OR SWAP1 SSTORE PUSH2 0x160 DUP2 ADD MLOAD PUSH1 0xA DUP5 ADD SSTORE PUSH2 0x180 DUP2 ADD MLOAD PUSH1 0xB DUP5 ADD SSTORE PUSH2 0x1A0 DUP2 ADD MLOAD PUSH1 0xC DUP5 ADD SSTORE PUSH2 0x1C0 DUP2 ADD MLOAD PUSH1 0xD DUP5 ADD SSTORE PUSH2 0x1E0 DUP2 ADD MLOAD PUSH1 0xE DUP5 ADD SSTORE PUSH2 0x200 DUP2 ADD MLOAD PUSH1 0xF DUP5 ADD SSTORE ADD MLOAD SWAP1 DUP2 MLOAD DUP1 MLOAD SWAP1 PUSH1 0x1 PUSH1 0x1 PUSH1 0x40 SHL SUB DUP3 GT PUSH2 0xAEE JUMPI DUP2 SWAP1 PUSH2 0x867 PUSH1 0x10 DUP6 ADD SLOAD PUSH2 0x2533 JUMP JUMPDEST PUSH1 0x1F DUP2 GT PUSH2 0xC47 JUMPI JUMPDEST POP PUSH1 0x20 SWAP1 PUSH1 0x1F DUP4 GT PUSH1 0x1 EQ PUSH2 0xBD8 JUMPI DUP9 SWAP3 PUSH2 0xBCD JUMPI JUMPDEST POP POP DUP2 PUSH1 0x1 SHL SWAP2 PUSH1 0x0 NOT SWAP1 PUSH1 0x3 SHL SHR NOT AND OR PUSH1 0x10 DUP3 ADD SSTORE JUMPDEST PUSH1 0x20 DUP3 ADD MLOAD DUP1 MLOAD SWAP1 PUSH1 0x1 PUSH1 0x1 PUSH1 0x40 SHL SUB DUP3 GT PUSH2 0xAEE JUMPI DUP2 SWAP1 PUSH2 0x8C3 PUSH1 0x11 DUP6 ADD SLOAD PUSH2 0x2533 JUMP JUMPDEST PUSH1 0x1F DUP2 GT PUSH2 0xB7C JUMPI JUMPDEST POP PUSH1 0x20 SWAP1 PUSH1 0x1F DUP4 GT PUSH1 0x1 EQ PUSH2 0xB0D JUMPI DUP9 SWAP3 PUSH2 0xB02 JUMPI JUMPDEST POP POP DUP2 PUSH1 0x1 SHL SWAP2 PUSH1 0x0 NOT SWAP1 PUSH1 0x3 SHL SHR NOT AND OR PUSH1 0x11 DUP3 ADD SSTORE JUMPDEST PUSH1 0x40 DUP3 ADD MLOAD DUP1 MLOAD SWAP1 PUSH1 0x1 PUSH1 0x1 PUSH1 0x40 SHL SUB DUP3 GT PUSH2 0xAEE JUMPI PUSH2 0x91D PUSH1 0x12 DUP5 ADD SLOAD PUSH2 0x2533 JUMP JUMPDEST PUSH1 0x1F DUP2 GT PUSH2 0xAA9 JUMPI JUMPDEST POP PUSH1 0x20 SWAP1 PUSH1 0x1F DUP4 GT PUSH1 0x1 EQ PUSH2 0xA37 JUMPI SWAP2 DUP1 PUSH1 0x60 SWAP5 SWAP3 PUSH1 0x13 SWAP5 DUP11 SWAP3 PUSH2 0xA2C JUMPI JUMPDEST POP POP DUP2 PUSH1 0x1 SHL SWAP2 PUSH1 0x0 NOT SWAP1 PUSH1 0x3 SHL SHR NOT AND OR PUSH1 0x12 DUP3 ADD SSTORE JUMPDEST ADD SWAP2 ADD MLOAD ISZERO ISZERO PUSH1 0xFF DUP1 NOT DUP4 SLOAD AND SWAP2 AND OR SWAP1 SSTORE CALLER DUP4 MSTORE PUSH1 0x3 PUSH1 0x20 MSTORE PUSH2 0x984 DUP3 PUSH1 0x40 DUP6 KECCAK256 PUSH2 0x28C3 JUMP JUMPDEST DUP3 DUP1 DUP1 DUP1 DUP5 PUSH1 0x1 DUP1 PUSH1 0xA0 SHL SUB PUSH1 0xA SLOAD AND GAS CALL PUSH2 0x99E PUSH2 0x28EB JUMP JUMPDEST POP ISZERO PUSH2 0x9F1 JUMPI DUP3 DUP2 CALLVALUE GT PUSH2 0x9DA JUMPI JUMPDEST CALLER DUP4 PUSH32 0xC3E0F84839DC888C892A013D10C8F9D6DC05A21A879D0CE468CA558013E9121C DUP4 DUP1 LOG3 PUSH1 0x1 DUP2 SSTORE DUP1 RETURN JUMPDEST DUP1 DUP1 DUP1 PUSH2 0x37B PUSH2 0x9EA SWAP6 CALLVALUE PUSH2 0x291B JUMP JUMPDEST CODESIZE DUP3 PUSH2 0x9AD JUMP JUMPDEST PUSH1 0x40 MLOAD PUSH3 0x461BCD PUSH1 0xE5 SHL DUP2 MSTORE PUSH1 0x20 PUSH1 0x4 DUP3 ADD MSTORE PUSH1 0x13 PUSH1 0x24 DUP3 ADD MSTORE PUSH19 0x119959481D1C985B9CD9995C8819985A5B1959 PUSH1 0x6A SHL PUSH1 0x44 DUP3 ADD MSTORE PUSH1 0x64 SWAP1 REVERT JUMPDEST ADD MLOAD SWAP1 POP CODESIZE DUP1 PUSH2 0x945 JUMP JUMPDEST SWAP1 PUSH1 0x12 DUP5 ADD DUP9 MSTORE PUSH1 0x20 DUP9 KECCAK256 SWAP2 DUP9 JUMPDEST PUSH1 0x1F NOT DUP6 AND DUP2 LT PUSH2 0xA91 JUMPI POP SWAP3 PUSH1 0x60 SWAP5 SWAP3 PUSH1 0x1 SWAP3 PUSH1 0x13 SWAP6 DUP4 PUSH1 0x1F NOT DUP2 AND LT PUSH2 0xA78 JUMPI JUMPDEST POP POP POP DUP2 SHL ADD PUSH1 0x12 DUP3 ADD SSTORE PUSH2 0x95D JUMP JUMPDEST ADD MLOAD PUSH1 0x0 NOT PUSH1 0xF8 DUP5 PUSH1 0x3 SHL AND SHR NOT AND SWAP1 SSTORE CODESIZE DUP1 DUP1 PUSH2 0xA68 JUMP JUMPDEST SWAP2 SWAP3 PUSH1 0x20 PUSH1 0x1 DUP2 SWAP3 DUP7 DUP6 ADD MLOAD DUP2 SSTORE ADD SWAP5 ADD SWAP3 ADD PUSH2 0xA45 JUMP JUMPDEST PUSH1 0x12 DUP5 ADD DUP9 MSTORE PUSH1 0x20 DUP9 KECCAK256 PUSH1 0x1F DUP5 ADD PUSH1 0x5 SHR DUP2 ADD PUSH1 0x20 DUP6 LT PUSH2 0xAE7 JUMPI JUMPDEST PUSH1 0x1F DUP4 ADD PUSH1 0x5 SHR DUP3 ADD DUP2 LT PUSH2 0xADB JUMPI POP POP PUSH2 0x926 JUMP JUMPDEST PUSH1 0x0 DUP2 SSTORE PUSH1 0x1 ADD PUSH2 0xAC5 JUMP JUMPDEST POP DUP1 PUSH2 0xAC5 JUMP JUMPDEST PUSH4 0x4E487B71 PUSH1 0xE0 SHL DUP8 MSTORE PUSH1 0x41 PUSH1 0x4 MSTORE PUSH1 0x24 DUP8 REVERT JUMPDEST ADD MLOAD SWAP1 POP CODESIZE DUP1 PUSH2 0x8E2 JUMP JUMPDEST SWAP3 POP PUSH1 0x11 DUP5 ADD DUP9 MSTORE PUSH1 0x20 DUP9 KECCAK256 SWAP1 DUP9 SWAP4 JUMPDEST PUSH1 0x1F NOT DUP5 AND DUP6 LT PUSH2 0xB61 JUMPI PUSH1 0x1 SWAP5 POP DUP4 PUSH1 0x1F NOT DUP2 AND LT PUSH2 0xB48 JUMPI JUMPDEST POP POP POP DUP2 SHL ADD PUSH1 0x11 DUP3 ADD SSTORE PUSH2 0x8FA JUMP JUMPDEST ADD MLOAD PUSH1 0x0 NOT PUSH1 0xF8 DUP5 PUSH1 0x3 SHL AND SHR NOT AND SWAP1 SSTORE CODESIZE DUP1 DUP1 PUSH2 0xB38 JUMP JUMPDEST DUP2 DUP2 ADD MLOAD DUP4 SSTORE PUSH1 0x20 SWAP5 DUP6 ADD SWAP5 PUSH1 0x1 SWAP1 SWAP4 ADD SWAP3 SWAP1 SWAP2 ADD SWAP1 PUSH2 0xB1D JUMP JUMPDEST SWAP1 SWAP2 POP PUSH1 0x11 DUP5 ADD DUP9 MSTORE PUSH1 0x20 DUP9 KECCAK256 PUSH1 0x1F DUP5 ADD PUSH1 0x5 SHR DUP2 ADD PUSH1 0x20 DUP6 LT PUSH2 0xBC6 JUMPI JUMPDEST SWAP1 DUP5 SWAP4 SWAP3 SWAP2 JUMPDEST PUSH1 0x1F DUP4 ADD PUSH1 0x5 SHR DUP3 ADD DUP2 LT PUSH2 0xBB7 JUMPI POP POP PUSH2 0x8CC JUMP JUMPDEST PUSH1 0x0 DUP2 SSTORE DUP6 SWAP5 POP PUSH1 0x1 ADD PUSH2 0xBA1 JUMP JUMPDEST POP DUP1 PUSH2 0xB9B JUMP JUMPDEST ADD MLOAD SWAP1 POP CODESIZE DUP1 PUSH2 0x886 JUMP JUMPDEST SWAP3 POP PUSH1 0x10 DUP5 ADD DUP9 MSTORE PUSH1 0x20 DUP9 KECCAK256 SWAP1 DUP9 SWAP4 JUMPDEST PUSH1 0x1F NOT DUP5 AND DUP6 LT PUSH2 0xC2C JUMPI PUSH1 0x1 SWAP5 POP DUP4 PUSH1 0x1F NOT DUP2 AND LT PUSH2 0xC13 JUMPI JUMPDEST POP POP POP DUP2 SHL ADD PUSH1 0x10 DUP3 ADD SSTORE PUSH2 0x89E JUMP JUMPDEST ADD MLOAD PUSH1 0x0 NOT PUSH1 0xF8 DUP5 PUSH1 0x3 SHL AND SHR NOT AND SWAP1 SSTORE CODESIZE DUP1 DUP1 PUSH2 0xC03 JUMP JUMPDEST DUP2 DUP2 ADD MLOAD DUP4 SSTORE PUSH1 0x20 SWAP5 DUP6 ADD SWAP5 PUSH1 0x1 SWAP1 SWAP4 ADD SWAP3 SWAP1 SWAP2 ADD SWAP1 PUSH2 0xBE8 JUMP JUMPDEST SWAP1 SWAP2 POP PUSH1 0x10 DUP5 ADD DUP9 MSTORE PUSH1 0x20 DUP9 KECCAK256 PUSH1 0x1F DUP5 ADD PUSH1 0x5 SHR DUP2 ADD PUSH1 0x20 DUP6 LT PUSH2 0xC91 JUMPI JUMPDEST SWAP1 DUP5 SWAP4 SWAP3 SWAP2 JUMPDEST PUSH1 0x1F DUP4 ADD PUSH1 0x5 SHR DUP3 ADD DUP2 LT PUSH2 0xC82 JUMPI POP POP PUSH2 0x870 JUMP JUMPDEST PUSH1 0x0 DUP2 SSTORE DUP6 SWAP5 POP PUSH1 0x1 ADD PUSH2 0xC6C JUMP JUMPDEST POP DUP1 PUSH2 0xC66 JUMP JUMPDEST PUSH4 0x4E487B71 PUSH1 0xE0 SHL DUP7 MSTORE PUSH1 0x21 PUSH1 0x4 MSTORE PUSH1 0x24 DUP7 REVERT JUMPDEST PUSH2 0xCB5 SWAP1 PUSH2 0x2589 JUMP JUMPDEST PUSH2 0xCC0 JUMPI DUP7 CODESIZE PUSH2 0x600 JUMP JUMPDEST DUP7 DUP1 REVERT JUMPDEST PUSH1 0x40 MLOAD RETURNDATASIZE DUP5 DUP3 RETURNDATACOPY RETURNDATASIZE SWAP1 REVERT JUMPDEST PUSH1 0x40 MLOAD PUSH3 0x461BCD PUSH1 0xE5 SHL DUP2 MSTORE PUSH1 0x20 PUSH1 0x4 DUP3 ADD MSTORE PUSH1 0x18 PUSH1 0x24 DUP3 ADD MSTORE PUSH32 0x496E73756666696369656E74206C697374696E67206665650000000000000000 PUSH1 0x44 DUP3 ADD MSTORE PUSH1 0x64 SWAP1 REVERT JUMPDEST DUP6 DUP1 REVERT JUMPDEST DUP5 DUP1 REVERT JUMPDEST DUP4 DUP1 REVERT JUMPDEST DUP3 DUP1 REVERT JUMPDEST POP CALLVALUE PUSH2 0x243 JUMPI DUP1 PUSH1 0x3 NOT CALLDATASIZE ADD SLT PUSH2 0x243 JUMPI PUSH1 0x20 PUSH1 0x40 MLOAD PUSH2 0x2710 DUP2 MSTORE RETURN JUMPDEST POP CALLVALUE PUSH2 0x243 JUMPI PUSH1 0x60 CALLDATASIZE PUSH1 0x3 NOT ADD SLT PUSH2 0x243 JUMPI PUSH1 0x1 PUSH1 0x1 PUSH1 0x40 SHL SUB PUSH1 0x4 CALLDATALOAD DUP2 DUP2 GT PUSH2 0xD20 JUMPI PUSH2 0xD73 SWAP1 CALLDATASIZE SWAP1 PUSH1 0x4 ADD PUSH2 0x277B JUMP JUMPDEST SWAP1 SWAP2 PUSH1 0x24 SWAP1 DUP2 CALLDATALOAD DUP2 DUP2 GT PUSH2 0xD14 JUMPI PUSH2 0xD8F SWAP1 CALLDATASIZE SWAP1 PUSH1 0x4 ADD PUSH2 0x277B JUMP JUMPDEST SWAP2 PUSH1 0x44 CALLDATALOAD SWAP1 DUP2 GT PUSH2 0xCC0 JUMPI PUSH2 0xDA8 SWAP1 CALLDATASIZE SWAP1 PUSH1 0x4 ADD PUSH2 0x277B JUMP JUMPDEST SWAP3 PUSH2 0xDB1 PUSH2 0x280D JUMP JUMPDEST DUP1 DUP7 EQ DUP1 PUSH2 0x1065 JUMPI JUMPDEST ISZERO PUSH2 0x1021 JUMPI SWAP3 DUP7 SWAP3 DUP9 SWAP7 SWAP3 DUP8 SWAP6 JUMPDEST DUP5 DUP8 LT PUSH2 0xDD3 JUMPI DUP9 DUP1 RETURN JUMPDEST SWAP7 SWAP8 PUSH1 0x1 PUSH1 0x1 PUSH1 0xA0 SHL SUB SWAP8 SWAP1 SWAP7 PUSH2 0xDFF DUP10 PUSH2 0xDF7 PUSH2 0xDF2 DUP5 DUP11 DUP13 PUSH2 0x2B27 JUMP JUMPDEST PUSH2 0x2B37 JUMP JUMPDEST AND ISZERO ISZERO PUSH2 0x2865 JUMP JUMPDEST DUP9 PUSH2 0xE0E PUSH2 0xDF2 DUP4 DUP9 DUP8 PUSH2 0x2B27 JUMP JUMPDEST AND ISZERO PUSH2 0xFE9 JUMPI DUP9 PUSH2 0xE20 DUP3 DUP9 DUP11 PUSH2 0x2B27 JUMP JUMPDEST PUSH2 0xE29 SWAP1 PUSH2 0x2B37 JUMP JUMPDEST AND SWAP9 PUSH2 0xE36 DUP3 DUP5 DUP8 PUSH2 0x2B27 JUMP JUMPDEST PUSH1 0x40 MLOAD PUSH4 0x31A9108F PUSH1 0xE1 SHL DUP2 MSTORE SWAP1 CALLDATALOAD PUSH1 0x4 DUP3 ADD MSTORE PUSH1 0x20 PUSH2 0x120 SWAP1 DUP2 MSTORE SWAP11 DUP2 DUP14 DUP2 GAS SWAP4 PUSH1 0x20 SWAP5 STATICCALL DUP11 SWAP2 DUP2 PUSH2 0xFAA JUMPI JUMPDEST POP PUSH2 0xEAD JUMPI PUSH1 0x40 MLOAD PUSH3 0x461BCD PUSH1 0xE5 SHL DUP2 MSTORE DUP12 MLOAD PUSH1 0x4 DUP3 ADD MSTORE PUSH1 0x1D DUP2 DUP15 ADD MSTORE PUSH32 0x4661696C656420746F20636865636B204E4654206F776E657273686970000000 PUSH1 0x44 DUP3 ADD MSTORE PUSH1 0x64 SWAP1 REVERT JUMPDEST DUP2 SWAP3 SWAP4 SWAP5 SWAP6 SWAP7 SWAP8 SWAP10 SWAP12 SWAP9 SWAP11 SWAP2 ADDRESS SWAP2 AND SUB PUSH2 0xF66 JUMPI POP DUP10 SWAP1 PUSH2 0xED2 PUSH2 0xDF2 DUP5 DUP12 DUP14 PUSH2 0x2B27 JUMP JUMPDEST AND PUSH2 0xEE1 PUSH2 0xDF2 DUP5 DUP10 DUP9 PUSH2 0x2B27 JUMP JUMPDEST PUSH2 0xEEC DUP5 DUP7 DUP10 PUSH2 0x2B27 JUMP JUMPDEST CALLDATALOAD DUP3 EXTCODESIZE ISZERO PUSH2 0xD1C JUMPI PUSH1 0x40 MLOAD PUSH4 0x23B872DD PUSH1 0xE0 SHL DUP2 MSTORE ADDRESS PUSH1 0x4 DUP3 ADD MSTORE PUSH1 0x1 PUSH1 0x1 PUSH1 0xA0 SHL SUB SWAP3 SWAP1 SWAP3 AND PUSH1 0x24 DUP4 ADD MSTORE PUSH1 0x44 DUP3 ADD MSTORE SWAP1 DUP3 SWAP1 DUP3 SWAP1 PUSH1 0x64 SWAP1 DUP3 SWAP1 DUP5 SWAP1 GAS CALL DUP1 ISZERO PUSH2 0xCC4 JUMPI PUSH2 0xF4E JUMPI JUMPDEST POP POP PUSH2 0xF41 SWAP1 PUSH2 0x28A8 JUMP JUMPDEST SWAP6 SWAP4 SWAP3 SWAP2 SWAP1 SWAP7 SWAP5 SWAP7 PUSH2 0xDC8 JUMP JUMPDEST PUSH2 0xF57 SWAP1 PUSH2 0x2589 JUMP JUMPDEST PUSH2 0xF62 JUMPI DUP9 DUP11 PUSH2 0xF36 JUMP JUMPDEST DUP9 DUP1 REVERT JUMPDEST PUSH1 0x40 MLOAD PUSH3 0x461BCD PUSH1 0xE5 SHL DUP2 MSTORE SWAP1 MLOAD PUSH1 0x4 DUP3 ADD MSTORE PUSH1 0x1E DUP2 DUP10 ADD MSTORE PUSH32 0x436F6E747261637420646F6573206E6F74206F776E2074686973204E46540000 PUSH1 0x44 DUP3 ADD MSTORE PUSH1 0x64 SWAP1 REVERT JUMPDEST SWAP1 SWAP2 POP DUP12 MLOAD RETURNDATASIZE DUP2 GT PUSH2 0xFE2 JUMPI JUMPDEST PUSH2 0xFC1 DUP2 DUP4 PUSH2 0x25B7 JUMP JUMPDEST DUP2 DUP14 MLOAD SWAP2 DUP2 ADD SUB SLT PUSH2 0xFDE JUMPI MLOAD DUP3 DUP2 AND DUP2 SUB PUSH2 0xFDE JUMPI SWAP1 DUP14 PUSH2 0xE64 JUMP JUMPDEST DUP11 DUP1 REVERT JUMPDEST POP RETURNDATASIZE PUSH2 0xFB7 JUMP JUMPDEST PUSH1 0x40 MLOAD PUSH3 0x461BCD PUSH1 0xE5 SHL DUP2 MSTORE PUSH1 0x20 PUSH1 0x4 DUP3 ADD MSTORE PUSH1 0x11 DUP2 DUP13 ADD MSTORE PUSH17 0x125B9D985B1A59081C9958DA5C1A595B9D PUSH1 0x7A SHL PUSH1 0x44 DUP3 ADD MSTORE PUSH1 0x64 SWAP1 REVERT JUMPDEST PUSH1 0x40 MLOAD PUSH3 0x461BCD PUSH1 0xE5 SHL DUP2 MSTORE PUSH1 0x20 PUSH1 0x4 DUP3 ADD MSTORE PUSH1 0x18 DUP2 DUP8 ADD MSTORE PUSH32 0x4172726179206C656E67746873206D757374206D617463680000000000000000 PUSH1 0x44 DUP3 ADD MSTORE PUSH1 0x64 SWAP1 REVERT JUMPDEST POP DUP4 DUP2 EQ PUSH2 0xDBA JUMP JUMPDEST POP CALLVALUE PUSH2 0x243 JUMPI DUP1 PUSH1 0x3 NOT CALLDATASIZE ADD SLT PUSH2 0x243 JUMPI PUSH2 0x1087 PUSH2 0x29AB JUMP JUMPDEST CALLER DUP2 MSTORE PUSH1 0x20 PUSH1 0x4 DUP2 MSTORE PUSH1 0x40 DUP3 KECCAK256 SLOAD SWAP1 PUSH1 0x5 DUP2 MSTORE PUSH1 0x40 DUP4 KECCAK256 SLOAD SWAP1 PUSH1 0x4 DUP2 MSTORE DUP4 PUSH1 0x40 DUP2 KECCAK256 SSTORE PUSH1 0x5 DUP2 MSTORE DUP4 PUSH1 0x40 DUP2 KECCAK256 SSTORE DUP3 PUSH2 0x11C0 JUMPI JUMPDEST DUP2 PUSH2 0x113D JUMPI JUMPDEST PUSH1 0x40 MLOAD PUSH2 0x160 DUP2 ADD SWAP1 DUP1 DUP3 LT PUSH1 0x1 PUSH1 0x1 PUSH1 0x40 SHL SUB DUP4 GT OR PUSH2 0x1127 JUMPI PUSH2 0x140 SWAP2 PUSH1 0x40 MSTORE PUSH1 0xA DUP2 MSTORE DUP3 CALLDATASIZE SWAP2 ADD CALLDATACOPY PUSH1 0x40 MLOAD SWAP3 DUP4 MSTORE DUP3 ADD MSTORE DUP2 PUSH1 0x40 DUP3 ADD MSTORE PUSH32 0x4F3D7A53F1FD3AB32E84FAFD251BC5C1EC2C516068909F68847AD29C366D134C PUSH1 0x60 CALLER SWAP3 LOG2 PUSH1 0x1 DUP2 SSTORE DUP1 RETURN JUMPDEST PUSH4 0x4E487B71 PUSH1 0xE0 SHL PUSH1 0x0 MSTORE PUSH1 0x41 PUSH1 0x4 MSTORE PUSH1 0x24 PUSH1 0x0 REVERT JUMPDEST PUSH1 0xC SLOAD PUSH1 0x40 MLOAD PUSH4 0xA9059CBB PUSH1 0xE0 SHL DUP2 MSTORE CALLER PUSH1 0x4 DUP3 ADD MSTORE PUSH1 0x24 DUP2 ADD DUP5 SWAP1 MSTORE SWAP1 DUP3 SWAP1 DUP3 SWAP1 PUSH1 0x44 SWAP1 DUP3 SWAP1 DUP10 SWAP1 PUSH1 0x1 PUSH1 0x1 PUSH1 0xA0 SHL SUB AND GAS CALL DUP1 ISZERO PUSH2 0x11B5 JUMPI PUSH2 0x1182 JUMPI JUMPDEST POP PUSH2 0x10C0 JUMP JUMPDEST DUP2 DUP2 DUP2 RETURNDATASIZE DUP4 GT PUSH2 0x11AE JUMPI JUMPDEST PUSH2 0x1197 DUP2 DUP4 PUSH2 0x25B7 JUMP JUMPDEST DUP2 ADD SUB SLT PUSH2 0xD18 JUMPI MLOAD DUP1 ISZERO ISZERO SUB PUSH2 0xD1C JUMPI CODESIZE PUSH2 0x117C JUMP JUMPDEST POP RETURNDATASIZE PUSH2 0x118D JUMP JUMPDEST PUSH1 0x40 MLOAD RETURNDATASIZE DUP8 DUP3 RETURNDATACOPY RETURNDATASIZE SWAP1 REVERT JUMPDEST DUP4 DUP1 DUP1 DUP1 DUP7 CALLER GAS CALL PUSH2 0x11D0 PUSH2 0x28EB JUMP JUMPDEST POP PUSH2 0x10BA JUMPI PUSH1 0x64 SWAP1 PUSH1 0x40 MLOAD SWAP1 PUSH3 0x461BCD PUSH1 0xE5 SHL DUP3 MSTORE PUSH1 0x4 DUP3 ADD MSTORE PUSH1 0x13 PUSH1 0x24 DUP3 ADD MSTORE PUSH19 0x115512081D1C985B9CD9995C8819985A5B1959 PUSH1 0x6A SHL PUSH1 0x44 DUP3 ADD MSTORE REVERT JUMPDEST POP CALLVALUE PUSH2 0x243 JUMPI PUSH1 0x40 CALLDATASIZE PUSH1 0x3 NOT ADD SLT PUSH2 0x243 JUMPI PUSH2 0x1229 PUSH2 0x2737 JUMP JUMPDEST PUSH1 0x1 PUSH1 0x1 PUSH1 0xA0 SHL SUB AND DUP2 MSTORE PUSH1 0x3 PUSH1 0x20 MSTORE PUSH1 0x40 DUP2 KECCAK256 DUP1 SLOAD PUSH1 0x24 CALLDATALOAD SWAP3 SWAP1 DUP4 LT ISZERO PUSH2 0x243 JUMPI PUSH1 0x20 PUSH2 0x1257 DUP5 DUP5 PUSH2 0x274D JUMP JUMPDEST SWAP1 SLOAD SWAP1 PUSH1 0x3 SHL SHR PUSH1 0x40 MLOAD SWAP1 DUP2 MSTORE RETURN JUMPDEST POP CALLVALUE PUSH2 0x243 JUMPI PUSH1 0x20 CALLDATASIZE PUSH1 0x3 NOT ADD SLT PUSH2 0x243 JUMPI PUSH1 0x40 PUSH1 0x80 SWAP2 PUSH1 0x4 CALLDATALOAD DUP2 MSTORE PUSH1 0x2 PUSH1 0x20 MSTORE KECCAK256 PUSH1 0x40 MLOAD PUSH2 0x1294 DUP2 PUSH2 0x256D JUMP JUMPDEST DUP2 SLOAD DUP2 MSTORE PUSH1 0x1 DUP3 ADD SLOAD PUSH1 0x1 PUSH1 0x1 PUSH1 0xA0 SHL SUB SWAP1 DUP2 AND PUSH1 0x20 DUP4 ADD MSTORE PUSH1 0x2 DUP4 ADD SLOAD DUP2 AND PUSH1 0x40 DUP4 ADD MSTORE PUSH1 0x3 DUP4 ADD SLOAD DUP2 AND PUSH1 0x60 DUP4 ADD MSTORE PUSH1 0x4 DUP4 ADD SLOAD DUP5 DUP4 ADD MSTORE PUSH1 0x5 DUP4 ADD SLOAD PUSH1 0xFF SWAP1 PUSH2 0x12E5 DUP2 DUP4 AND PUSH1 0xA0 DUP7 ADD PUSH2 0x28B7 JUMP JUMPDEST PUSH1 0x8 SHR AND PUSH2 0x12F2 DUP2 PUSH2 0x26ED JUMP JUMPDEST PUSH1 0xC0 DUP4 ADD MSTORE PUSH1 0x6 DUP4 ADD SLOAD PUSH1 0xE0 DUP4 ADD MSTORE PUSH1 0xFF PUSH1 0x7 DUP5 ADD SLOAD AND PUSH2 0x1312 DUP2 PUSH2 0x26ED JUMP JUMPDEST PUSH2 0x100 DUP4 ADD MSTORE PUSH1 0x8 DUP4 ADD SLOAD PUSH2 0x120 DUP4 ADD MSTORE PUSH1 0x9 DUP4 ADD SLOAD AND PUSH2 0x140 DUP3 ADD MSTORE PUSH1 0xA DUP3 ADD SLOAD PUSH2 0x160 DUP3 ADD MSTORE PUSH1 0xB DUP3 ADD SLOAD SWAP2 PUSH2 0x180 DUP3 ADD SWAP3 DUP4 MSTORE PUSH1 0xC DUP2 ADD SLOAD SWAP3 PUSH2 0x1A0 DUP4 ADD SWAP4 DUP5 MSTORE PUSH1 0xD DUP3 ADD SLOAD SWAP3 PUSH2 0x1C0 DUP2 ADD SWAP4 DUP5 MSTORE PUSH2 0x220 PUSH2 0x138B PUSH1 0x10 PUSH1 0xE DUP7 ADD SLOAD SWAP6 PUSH2 0x1E0 DUP6 ADD SWAP7 DUP8 MSTORE PUSH1 0xF DUP2 ADD SLOAD PUSH2 0x200 DUP7 ADD MSTORE ADD PUSH2 0x267E JUMP JUMPDEST SWAP2 ADD MSTORE MLOAD SWAP3 MLOAD SWAP2 MLOAD SWAP1 MLOAD SWAP2 PUSH1 0x40 MLOAD SWAP4 DUP5 MSTORE PUSH1 0x20 DUP5 ADD MSTORE PUSH1 0x40 DUP4 ADD MSTORE PUSH1 0x60 DUP3 ADD MSTORE RETURN JUMPDEST POP CALLVALUE PUSH2 0x243 JUMPI DUP1 PUSH1 0x3 NOT CALLDATASIZE ADD SLT PUSH2 0x243 JUMPI PUSH1 0x20 PUSH1 0x7 SLOAD PUSH1 0x40 MLOAD SWAP1 DUP2 MSTORE RETURN JUMPDEST POP CALLVALUE PUSH2 0x243 JUMPI PUSH1 0x60 CALLDATASIZE PUSH1 0x3 NOT ADD SLT PUSH2 0x243 JUMPI PUSH2 0x13E5 PUSH2 0x2737 JUMP JUMPDEST SWAP1 PUSH1 0x24 CALLDATALOAD PUSH1 0x1 PUSH1 0x1 PUSH1 0xA0 SHL SUB DUP2 DUP2 AND SWAP2 DUP3 SWAP1 SUB PUSH2 0x143C JUMPI PUSH1 0x44 CALLDATALOAD SWAP4 AND DUP3 MSTORE PUSH1 0x6 PUSH1 0x20 MSTORE PUSH1 0x40 DUP3 KECCAK256 SWAP1 PUSH1 0x0 MSTORE PUSH1 0x20 MSTORE PUSH1 0x40 PUSH1 0x0 KECCAK256 SWAP1 DUP2 SLOAD DUP4 LT ISZERO PUSH2 0x243 JUMPI PUSH1 0x20 PUSH2 0x142E DUP5 DUP5 PUSH2 0x274D JUMP JUMPDEST SWAP1 SLOAD PUSH1 0x40 MLOAD SWAP2 PUSH1 0x3 SHL SHR DUP2 MSTORE RETURN JUMPDEST PUSH1 0x0 DUP1 REVERT JUMPDEST POP CALLVALUE PUSH2 0x243 JUMPI PUSH1 0x20 CALLDATASIZE PUSH1 0x3 NOT ADD SLT PUSH2 0x243 JUMPI PUSH1 0x20 SWAP1 PUSH1 0x40 SWAP1 PUSH1 0x1 PUSH1 0x1 PUSH1 0xA0 SHL SUB PUSH2 0x1469 PUSH2 0x2737 JUMP JUMPDEST AND DUP2 MSTORE PUSH1 0x5 DUP4 MSTORE KECCAK256 SLOAD PUSH1 0x40 MLOAD SWAP1 DUP2 MSTORE RETURN JUMPDEST POP CALLVALUE PUSH2 0x243 JUMPI DUP1 PUSH1 0x3 NOT CALLDATASIZE ADD SLT PUSH2 0x243 JUMPI PUSH1 0x1 SLOAD PUSH1 0x40 MLOAD PUSH1 0x1 PUSH1 0x1 PUSH1 0xA0 SHL SUB SWAP1 SWAP2 AND DUP2 MSTORE PUSH1 0x20 SWAP1 RETURN JUMPDEST POP CALLVALUE PUSH2 0x243 JUMPI DUP1 PUSH1 0x3 NOT CALLDATASIZE ADD SLT PUSH2 0x243 JUMPI PUSH1 0x20 PUSH1 0x9 SLOAD PUSH1 0x40 MLOAD SWAP1 DUP2 MSTORE RETURN JUMPDEST POP CALLVALUE PUSH2 0x243 JUMPI DUP1 PUSH1 0x3 NOT CALLDATASIZE ADD SLT PUSH2 0x243 JUMPI PUSH2 0x14DA PUSH2 0x280D JUMP JUMPDEST DUP1 DUP1 DUP1 DUP1 PUSH1 0x1 DUP1 PUSH1 0xA0 SHL SUB PUSH1 0x1 SLOAD AND SELFBALANCE SWAP1 GAS CALL PUSH2 0x14F5 PUSH2 0x28EB JUMP JUMPDEST POP ISZERO PUSH2 0x14FE JUMPI DUP1 RETURN JUMPDEST PUSH1 0x40 MLOAD PUSH3 0x461BCD PUSH1 0xE5 SHL DUP2 MSTORE PUSH1 0x20 PUSH1 0x4 DUP3 ADD MSTORE PUSH1 0xF PUSH1 0x24 DUP3 ADD MSTORE PUSH15 0x151C985B9CD9995C8819985A5B1959 PUSH1 0x8A SHL PUSH1 0x44 DUP3 ADD MSTORE PUSH1 0x64 SWAP1 REVERT JUMPDEST POP CALLVALUE PUSH2 0x243 JUMPI DUP1 PUSH1 0x3 NOT CALLDATASIZE ADD SLT PUSH2 0x243 JUMPI PUSH1 0xB SLOAD PUSH1 0x40 MLOAD PUSH1 0x1 PUSH1 0x1 PUSH1 0xA0 SHL SUB SWAP1 SWAP2 AND DUP2 MSTORE PUSH1 0x20 SWAP1 RETURN JUMPDEST POP CALLVALUE PUSH2 0x243 JUMPI DUP1 PUSH1 0x3 NOT CALLDATASIZE ADD SLT PUSH2 0x243 JUMPI PUSH2 0x1577 PUSH2 0x280D JUMP JUMPDEST PUSH1 0x1 DUP1 SLOAD PUSH1 0x1 PUSH1 0x1 PUSH1 0xA0 SHL SUB NOT DUP2 AND SWAP1 SWAP2 SSTORE PUSH1 0x0 SWAP1 PUSH1 0x1 PUSH1 0x1 PUSH1 0xA0 SHL SUB AND PUSH32 0x8BE0079C531659141344CD1FD0A4F28419497F9722A3DAAFE3B4186F6B6457E0 DUP3 DUP1 LOG3 DUP1 RETURN JUMPDEST POP CALLVALUE PUSH2 0x243 JUMPI PUSH1 0x20 SWAP1 DUP2 PUSH1 0x3 NOT CALLDATASIZE ADD SLT PUSH2 0x243 JUMPI PUSH1 0x4 CALLDATALOAD PUSH2 0x15DB PUSH2 0x29AB JUMP JUMPDEST DUP1 DUP3 MSTORE PUSH1 0x2 DUP4 MSTORE PUSH1 0x40 DUP3 KECCAK256 PUSH1 0x1 DUP2 ADD SLOAD PUSH1 0x1 PUSH1 0x1 PUSH1 0xA0 SHL SUB SWAP1 DUP2 AND SWAP5 CALLER DUP7 SWAP1 SUB PUSH2 0x16D0 JUMPI PUSH1 0x5 DUP4 ADD SWAP6 DUP7 SLOAD SWAP7 PUSH1 0xFF DUP9 AND PUSH1 0x5 DUP2 LT ISZERO PUSH2 0x16BC JUMPI PUSH2 0x1677 JUMPI PUSH1 0x4 PUSH2 0x164C SWAP7 SWAP8 SWAP9 PUSH1 0xFF NOT AND OR SWAP1 SSTORE DUP7 MSTORE PUSH1 0x6 DUP2 MSTORE PUSH1 0x40 DUP7 KECCAK256 SWAP2 PUSH1 0x3 DUP5 ADD SLOAD AND PUSH1 0x0 MSTORE MSTORE PUSH1 0x4 PUSH1 0x40 PUSH1 0x0 KECCAK256 SWAP2 ADD SLOAD SWAP1 PUSH2 0x28C3 JUMP JUMPDEST PUSH32 0x681705FDBD93DBA3B679FD712577E9A86D57C5551C520F8C74857DEB57F9623F DUP3 DUP1 LOG2 PUSH1 0x1 DUP2 SSTORE DUP1 RETURN JUMPDEST PUSH1 0x40 MLOAD PUSH3 0x461BCD PUSH1 0xE5 SHL DUP2 MSTORE PUSH1 0x4 DUP2 ADD DUP5 SWAP1 MSTORE PUSH1 0x1E PUSH1 0x24 DUP3 ADD MSTORE PUSH32 0x43616E206F6E6C792063616E63656C20756E6A6F696E65642067616D65730000 PUSH1 0x44 DUP3 ADD MSTORE PUSH1 0x64 SWAP1 REVERT JUMPDEST PUSH4 0x4E487B71 PUSH1 0xE0 SHL DUP9 MSTORE PUSH1 0x21 PUSH1 0x4 MSTORE PUSH1 0x24 DUP9 REVERT JUMPDEST PUSH1 0x64 SWAP1 PUSH1 0x40 MLOAD SWAP1 PUSH3 0x461BCD PUSH1 0xE5 SHL DUP3 MSTORE PUSH1 0x4 DUP3 ADD MSTORE PUSH1 0x17 PUSH1 0x24 DUP3 ADD MSTORE PUSH32 0x4F6E6C792063726561746F722063616E2063616E63656C000000000000000000 PUSH1 0x44 DUP3 ADD MSTORE REVERT JUMPDEST POP CALLVALUE PUSH2 0x243 JUMPI PUSH1 0x40 CALLDATASIZE PUSH1 0x3 NOT ADD SLT PUSH2 0x243 JUMPI PUSH2 0x172E PUSH2 0x2737 JUMP JUMPDEST PUSH1 0x24 SWAP2 DUP3 CALLDATALOAD SWAP2 PUSH2 0x173C PUSH2 0x29AB JUMP JUMPDEST CALLER DUP3 MSTORE PUSH1 0x6 PUSH1 0x20 MSTORE PUSH1 0x40 DUP3 KECCAK256 SWAP1 PUSH1 0x1 DUP1 PUSH1 0xA0 SHL SUB AND SWAP1 DUP2 DUP4 MSTORE PUSH1 0x20 MSTORE PUSH1 0x40 DUP3 KECCAK256 SWAP3 DUP3 SWAP4 DUP4 JUMPDEST DUP2 SLOAD DUP1 DUP3 LT ISZERO PUSH2 0x18D0 JUMPI DUP4 SWAP1 PUSH2 0x1777 DUP4 DUP6 PUSH2 0x274D JUMP JUMPDEST SWAP3 SWAP1 SLOAD PUSH1 0x3 SWAP4 DUP5 SHL SHR EQ PUSH2 0x1795 JUMPI POP POP PUSH2 0x1790 SWAP1 PUSH2 0x28A8 JUMP JUMPDEST PUSH2 0x1761 JUMP JUMPDEST SWAP1 SWAP4 SWAP5 SWAP6 SWAP7 POP PUSH1 0x0 NOT SWAP2 DUP3 DUP3 ADD SWAP2 DUP3 GT PUSH2 0x18BD JUMPI PUSH2 0x17C6 PUSH2 0x17B9 PUSH2 0x17DF SWAP4 DUP7 PUSH2 0x274D JUMP JUMPDEST SWAP1 SLOAD SWAP1 DUP8 SHL SHR SWAP2 DUP6 PUSH2 0x274D JUMP JUMPDEST SWAP1 SWAP2 SWAP1 DUP3 SLOAD SWAP1 PUSH1 0x3 SHL SWAP2 DUP3 SHL SWAP2 PUSH1 0x0 NOT SWAP1 SHL NOT AND OR SWAP1 SSTORE JUMP JUMPDEST DUP2 SLOAD DUP1 ISZERO PUSH2 0x18AA JUMPI DUP2 ADD SWAP3 PUSH2 0x17F4 DUP5 DUP5 PUSH2 0x274D JUMP JUMPDEST DUP2 SWAP4 SWAP2 SLOAD SWAP3 SHL SHL NOT AND SWAP1 SSTORE SSTORE PUSH1 0x1 JUMPDEST ISZERO PUSH2 0x1866 JUMPI DUP3 SWAP4 POP DUP2 EXTCODESIZE ISZERO PUSH2 0x1862 JUMPI PUSH1 0x40 MLOAD PUSH4 0x23B872DD PUSH1 0xE0 SHL DUP2 MSTORE ADDRESS PUSH1 0x4 DUP3 ADD MSTORE CALLER PUSH1 0x24 DUP3 ADD MSTORE PUSH1 0x44 DUP2 ADD SWAP2 SWAP1 SWAP2 MSTORE SWAP2 SWAP1 DUP3 SWAP1 PUSH1 0x64 SWAP1 DUP3 SWAP1 DUP5 SWAP1 GAS CALL DUP1 ISZERO PUSH2 0xCC4 JUMPI PUSH2 0x1853 JUMPI JUMPDEST POP PUSH1 0x1 DUP2 SSTORE DUP1 RETURN JUMPDEST PUSH2 0x185C SWAP1 PUSH2 0x2589 JUMP JUMPDEST CODESIZE PUSH2 0x184B JUMP JUMPDEST POP POP REVERT JUMPDEST PUSH1 0x40 MLOAD PUSH3 0x461BCD PUSH1 0xE5 SHL DUP2 MSTORE PUSH1 0x20 PUSH1 0x4 DUP3 ADD MSTORE PUSH1 0x1A DUP2 DUP7 ADD MSTORE PUSH32 0x4E4654206E6F7420666F756E6420696E20756E636C61696D6564000000000000 PUSH1 0x44 DUP3 ADD MSTORE PUSH1 0x64 SWAP1 REVERT JUMPDEST PUSH4 0x4E487B71 PUSH1 0xE0 SHL DUP8 MSTORE PUSH1 0x31 PUSH1 0x4 MSTORE DUP8 DUP8 REVERT JUMPDEST PUSH4 0x4E487B71 PUSH1 0xE0 SHL DUP9 MSTORE PUSH1 0x11 PUSH1 0x4 MSTORE DUP9 DUP9 REVERT JUMPDEST POP POP POP SWAP1 SWAP2 SWAP3 PUSH2 0x1803 JUMP JUMPDEST POP CALLVALUE PUSH2 0x243 JUMPI DUP1 PUSH1 0x3 NOT CALLDATASIZE ADD SLT PUSH2 0x243 JUMPI PUSH1 0x20 PUSH1 0xFF PUSH1 0x1 SLOAD PUSH1 0xA0 SHR AND PUSH1 0x40 MLOAD SWAP1 ISZERO ISZERO DUP2 MSTORE RETURN JUMPDEST POP CALLVALUE PUSH2 0x243 JUMPI DUP1 PUSH1 0x3 NOT CALLDATASIZE ADD SLT PUSH2 0x243 JUMPI PUSH2 0x191A PUSH2 0x280D JUMP JUMPDEST PUSH2 0x1922 PUSH2 0x2964 JUMP JUMPDEST PUSH1 0x1 DUP1 SLOAD PUSH1 0xFF PUSH1 0xA0 SHL NOT AND PUSH1 0x1 PUSH1 0xA0 SHL OR SWAP1 SSTORE PUSH1 0x40 MLOAD CALLER DUP2 MSTORE PUSH32 0x62E78CEA01BEE320CD4E420270B5EA74000D11B0C9F74754EBDBFC544B05A258 SWAP1 PUSH1 0x20 SWAP1 LOG1 DUP1 RETURN JUMPDEST POP CALLVALUE PUSH2 0x243 JUMPI DUP1 PUSH1 0x3 NOT CALLDATASIZE ADD SLT PUSH2 0x243 JUMPI PUSH2 0x197D PUSH2 0x280D JUMP JUMPDEST PUSH1 0x1 SLOAD PUSH1 0xFF DUP2 PUSH1 0xA0 SHR AND ISZERO PUSH2 0x19C5 JUMPI PUSH1 0xFF PUSH1 0xA0 SHL NOT AND PUSH1 0x1 SSTORE PUSH1 0x40 MLOAD CALLER DUP2 MSTORE PUSH32 0x5DB9EE0A495BF2E6FF9C91A7834C1BA4FDD244A5E8AA4E537BD38AEAE4B073AA SWAP1 PUSH1 0x20 SWAP1 LOG1 DUP1 RETURN JUMPDEST PUSH1 0x40 MLOAD PUSH3 0x461BCD PUSH1 0xE5 SHL DUP2 MSTORE PUSH1 0x20 PUSH1 0x4 DUP3 ADD MSTORE PUSH1 0x14 PUSH1 0x24 DUP3 ADD MSTORE PUSH20 0x14185D5CD8589B194E881B9BDD081C185D5CD959 PUSH1 0x62 SHL PUSH1 0x44 DUP3 ADD MSTORE PUSH1 0x64 SWAP1 REVERT JUMPDEST POP CALLVALUE PUSH2 0x243 JUMPI DUP1 PUSH1 0x3 NOT CALLDATASIZE ADD SLT PUSH2 0x243 JUMPI PUSH1 0x20 PUSH1 0x8 SLOAD PUSH1 0x40 MLOAD SWAP1 DUP2 MSTORE RETURN JUMPDEST POP CALLVALUE PUSH2 0x243 JUMPI DUP1 PUSH1 0x3 NOT CALLDATASIZE ADD SLT PUSH2 0x243 JUMPI PUSH1 0xA SLOAD PUSH1 0x40 MLOAD PUSH1 0x1 PUSH1 0x1 PUSH1 0xA0 SHL SUB SWAP1 SWAP2 AND DUP2 MSTORE PUSH1 0x20 SWAP1 RETURN JUMPDEST POP CALLVALUE PUSH2 0x243 JUMPI PUSH1 0x20 CALLDATASIZE PUSH1 0x3 NOT ADD SLT PUSH2 0x243 JUMPI PUSH1 0x4 CALLDATALOAD DUP2 MSTORE PUSH1 0x2 PUSH1 0x20 MSTORE PUSH1 0x40 DUP2 KECCAK256 SWAP1 PUSH2 0x1B6B PUSH1 0x10 PUSH1 0x40 MLOAD SWAP4 PUSH2 0x1A7B DUP6 PUSH2 0x256D JUMP JUMPDEST DUP1 SLOAD DUP6 MSTORE PUSH1 0x1 DUP2 ADD SLOAD PUSH1 0x1 PUSH1 0x1 PUSH1 0xA0 SHL SUB SWAP1 DUP2 AND PUSH1 0x20 DUP8 ADD MSTORE PUSH1 0x2 DUP3 ADD SLOAD DUP2 AND PUSH1 0x40 DUP8 ADD MSTORE PUSH1 0x3 DUP3 ADD SLOAD AND PUSH1 0x60 DUP7 ADD MSTORE PUSH1 0x4 DUP2 ADD SLOAD PUSH1 0x80 DUP7 ADD MSTORE PUSH1 0x5 DUP2 ADD SLOAD PUSH1 0xFF SWAP1 PUSH2 0x1ACC DUP2 DUP4 AND PUSH1 0xA0 DUP10 ADD PUSH2 0x28B7 JUMP JUMPDEST PUSH2 0x1ADA DUP3 DUP3 PUSH1 0x8 SHR AND PUSH2 0x26ED JUMP JUMPDEST PUSH1 0x8 SHR AND PUSH1 0xC0 DUP7 ADD MSTORE PUSH1 0x6 DUP2 ADD SLOAD PUSH1 0xE0 DUP7 ADD MSTORE PUSH1 0xFF PUSH1 0x7 DUP3 ADD SLOAD AND PUSH2 0x1AFE DUP2 PUSH2 0x26ED JUMP JUMPDEST PUSH2 0x100 DUP7 ADD MSTORE PUSH1 0x8 DUP2 ADD SLOAD PUSH2 0x120 DUP7 ADD MSTORE PUSH1 0x9 DUP2 ADD SLOAD PUSH1 0x1 PUSH1 0x1 PUSH1 0xA0 SHL SUB AND PUSH2 0x140 DUP7 ADD MSTORE PUSH1 0xA DUP2 ADD SLOAD PUSH2 0x160 DUP7 ADD MSTORE PUSH1 0xB DUP2 ADD SLOAD PUSH2 0x180 DUP7 ADD MSTORE PUSH1 0xC DUP2 ADD SLOAD PUSH2 0x1A0 DUP7 ADD MSTORE PUSH1 0xD DUP2 ADD SLOAD PUSH2 0x1C0 DUP7 ADD MSTORE PUSH1 0xE DUP2 ADD SLOAD PUSH2 0x1E0 DUP7 ADD MSTORE PUSH1 0xF DUP2 ADD SLOAD PUSH2 0x200 DUP7 ADD MSTORE ADD PUSH2 0x267E JUMP JUMPDEST PUSH2 0x220 DUP4 ADD MSTORE DUP2 MLOAD PUSH1 0x20 DUP4 ADD MLOAD PUSH1 0x1 PUSH1 0x1 PUSH1 0xA0 SHL SUB SWAP1 DUP2 AND PUSH1 0xE0 MSTORE PUSH1 0x40 DUP5 ADD MLOAD DUP2 AND PUSH1 0x80 SWAP1 DUP2 MSTORE PUSH1 0x60 DUP6 ADD MLOAD SWAP1 SWAP2 AND PUSH2 0x200 MSTORE DUP4 ADD MLOAD PUSH1 0xA0 DUP5 ADD MLOAD SWAP2 SWAP3 SWAP1 SWAP2 SWAP1 PUSH1 0x5 DUP3 LT ISZERO PUSH2 0x1D56 JUMPI POP PUSH1 0xC0 DUP5 ADD MLOAD PUSH2 0x1BC3 DUP2 PUSH2 0x26ED JUMP JUMPDEST PUSH1 0xE0 DUP6 ADD MLOAD PUSH2 0x100 DUP7 ADD MLOAD PUSH2 0x1BD7 DUP2 PUSH2 0x26ED JUMP JUMPDEST PUSH2 0x120 DUP8 ADD MLOAD SWAP1 PUSH1 0x1 PUSH1 0xA0 SHL PUSH1 0x1 SWAP1 SUB PUSH2 0x140 DUP10 ADD MLOAD AND SWAP3 PUSH2 0x160 DUP10 ADD MLOAD SWAP5 PUSH2 0x180 DUP11 ADD MLOAD SWAP7 PUSH2 0x1A0 DUP12 ADD MLOAD SWAP9 PUSH2 0x1C0 DUP13 ADD MLOAD SWAP11 PUSH2 0x1E0 DUP14 ADD MLOAD SWAP13 PUSH2 0x200 DUP2 ADD MLOAD PUSH2 0x140 MSTORE PUSH2 0x220 ADD MLOAD DUP1 PUSH2 0x100 MSTORE DUP1 MLOAD PUSH2 0x220 MSTORE PUSH1 0x20 DUP2 ADD MLOAD PUSH1 0xA0 MSTORE PUSH1 0x40 DUP2 ADD MLOAD PUSH2 0x240 MSTORE PUSH1 0x60 ADD MLOAD ISZERO ISZERO PUSH2 0x180 MSTORE PUSH1 0x40 MLOAD DUP1 PUSH1 0xC0 MSTORE MSTORE PUSH1 0xE0 MLOAD PUSH1 0xC0 MLOAD PUSH1 0x20 ADD MSTORE PUSH1 0x80 MLOAD PUSH1 0xC0 MLOAD PUSH1 0x40 ADD MSTORE PUSH2 0x200 MLOAD PUSH1 0xC0 MLOAD PUSH1 0x60 ADD MSTORE PUSH1 0xC0 MLOAD PUSH1 0x80 ADD MSTORE PUSH1 0xC0 MLOAD PUSH1 0xA0 ADD PUSH2 0x1C84 SWAP2 PUSH2 0x26CA JUMP JUMPDEST PUSH2 0x1C8D DUP2 PUSH2 0x26ED JUMP JUMPDEST PUSH1 0xC0 MLOAD PUSH1 0xC0 ADD MSTORE PUSH1 0xC0 MLOAD PUSH1 0xE0 ADD MSTORE PUSH2 0x1CA4 DUP2 PUSH2 0x26ED JUMP JUMPDEST PUSH1 0xC0 MLOAD PUSH2 0x100 ADD MSTORE PUSH1 0xC0 MLOAD PUSH2 0x120 ADD MSTORE PUSH1 0xC0 MLOAD PUSH2 0x140 ADD MSTORE PUSH1 0xC0 MLOAD PUSH2 0x160 ADD MSTORE PUSH1 0xC0 MLOAD PUSH2 0x180 ADD MSTORE PUSH1 0xC0 MLOAD PUSH2 0x1A0 ADD MSTORE PUSH1 0xC0 MLOAD PUSH2 0x1C0 ADD MSTORE PUSH1 0xC0 MLOAD PUSH2 0x1E0 ADD MSTORE PUSH2 0x140 MLOAD PUSH1 0xC0 MLOAD PUSH2 0x200 ADD MSTORE PUSH2 0x2A0 DUP1 PUSH1 0xC0 MLOAD PUSH2 0x220 ADD MSTORE PUSH1 0xC0 MLOAD ADD PUSH2 0x220 MLOAD SWAP1 PUSH2 0x1D0E SWAP2 PUSH2 0x26F7 JUMP JUMPDEST PUSH1 0xC0 MLOAD DUP1 DUP3 SUB SWAP1 PUSH2 0x240 ADD MSTORE PUSH1 0xA0 MLOAD SWAP1 PUSH2 0x1D27 SWAP2 PUSH2 0x26F7 JUMP JUMPDEST PUSH1 0xC0 MLOAD DUP1 DUP3 SUB SWAP1 PUSH2 0x260 ADD MSTORE PUSH2 0x240 MLOAD SWAP1 PUSH2 0x1D41 SWAP2 PUSH2 0x26F7 JUMP JUMPDEST PUSH2 0x180 MLOAD PUSH1 0xC0 MLOAD PUSH2 0x280 ADD MSTORE PUSH1 0xC0 MLOAD DUP1 SWAP2 SUB SWAP1 RETURN JUMPDEST PUSH4 0x4E487B71 PUSH1 0xE0 SHL DUP2 MSTORE PUSH1 0x21 PUSH1 0x4 MSTORE PUSH1 0x24 SWAP1 REVERT JUMPDEST POP CALLVALUE PUSH2 0x243 JUMPI PUSH1 0x20 CALLDATASIZE PUSH1 0x3 NOT ADD SLT PUSH2 0x243 JUMPI PUSH1 0x20 SWAP1 PUSH1 0x40 SWAP1 PUSH1 0x1 PUSH1 0x1 PUSH1 0xA0 SHL SUB PUSH2 0x1D92 PUSH2 0x2737 JUMP JUMPDEST AND DUP2 MSTORE PUSH1 0x4 DUP4 MSTORE KECCAK256 SLOAD PUSH1 0x40 MLOAD SWAP1 DUP2 MSTORE RETURN JUMPDEST POP CALLVALUE PUSH2 0x243 JUMPI PUSH1 0x20 CALLDATASIZE PUSH1 0x3 NOT ADD SLT PUSH2 0x243 JUMPI PUSH2 0x1DBD PUSH2 0x280D JUMP JUMPDEST PUSH1 0x4 CALLDATALOAD PUSH1 0x8 SSTORE DUP1 RETURN JUMPDEST POP CALLVALUE PUSH2 0x243 JUMPI PUSH1 0x20 CALLDATASIZE PUSH1 0x3 NOT ADD SLT PUSH2 0x243 JUMPI PUSH1 0x4 CALLDATALOAD PUSH2 0x1DE3 PUSH2 0x280D JUMP JUMPDEST PUSH2 0x3E8 DUP2 GT PUSH2 0x1DF2 JUMPI PUSH1 0x9 SSTORE DUP1 RETURN JUMPDEST PUSH1 0x40 MLOAD PUSH3 0x461BCD PUSH1 0xE5 SHL DUP2 MSTORE PUSH1 0x20 PUSH1 0x4 DUP3 ADD MSTORE PUSH1 0x7 PUSH1 0x24 DUP3 ADD MSTORE PUSH7 0x4D617820313025 PUSH1 0xC8 SHL PUSH1 0x44 DUP3 ADD MSTORE PUSH1 0x64 SWAP1 REVERT JUMPDEST POP CALLVALUE PUSH2 0x243 JUMPI PUSH1 0x20 DUP1 PUSH1 0x3 NOT CALLDATASIZE ADD SLT PUSH2 0x4B3 JUMPI PUSH1 0x1 PUSH1 0x1 PUSH1 0xA0 SHL SUB PUSH2 0x1E44 PUSH2 0x2737 JUMP JUMPDEST AND DUP3 MSTORE PUSH1 0x3 DUP2 MSTORE PUSH1 0x40 DUP3 KECCAK256 PUSH1 0x40 MLOAD SWAP3 DUP4 DUP4 DUP4 SLOAD SWAP2 DUP3 DUP2 MSTORE ADD SWAP1 DUP2 SWAP4 DUP4 MSTORE DUP5 DUP4 KECCAK256 SWAP1 DUP4 JUMPDEST DUP2 DUP2 LT PUSH2 0x1EBB JUMPI POP POP POP DUP5 PUSH2 0x1E7D SWAP2 SUB DUP6 PUSH2 0x25B7 JUMP JUMPDEST PUSH1 0x40 MLOAD SWAP4 DUP4 DUP6 SWAP5 DUP6 ADD SWAP2 DUP2 DUP7 MSTORE MLOAD DUP1 SWAP3 MSTORE PUSH1 0x40 DUP6 ADD SWAP4 SWAP3 JUMPDEST DUP3 DUP2 LT PUSH2 0x1EA4 JUMPI POP POP POP POP SUB SWAP1 RETURN JUMPDEST DUP4 MLOAD DUP6 MSTORE DUP7 SWAP6 POP SWAP4 DUP2 ADD SWAP4 SWAP3 DUP2 ADD SWAP3 PUSH1 0x1 ADD PUSH2 0x1E95 JUMP JUMPDEST DUP3 SLOAD DUP5 MSTORE SWAP3 DUP7 ADD SWAP3 PUSH1 0x1 SWAP3 DUP4 ADD SWAP3 ADD PUSH2 0x1E67 JUMP JUMPDEST POP CALLVALUE PUSH2 0x243 JUMPI DUP1 PUSH1 0x3 NOT CALLDATASIZE ADD SLT PUSH2 0x243 JUMPI PUSH1 0xC SLOAD PUSH1 0x40 MLOAD PUSH1 0x1 PUSH1 0x1 PUSH1 0xA0 SHL SUB SWAP1 SWAP2 AND DUP2 MSTORE PUSH1 0x20 SWAP1 RETURN JUMPDEST POP CALLVALUE PUSH2 0x243 JUMPI PUSH1 0x20 CALLDATASIZE PUSH1 0x3 NOT ADD SLT PUSH2 0x243 JUMPI PUSH1 0x4 CALLDATALOAD DUP2 MSTORE PUSH1 0x2 PUSH1 0x20 MSTORE PUSH1 0x40 SWAP1 KECCAK256 DUP1 DUP1 SLOAD PUSH1 0x1 PUSH1 0xA0 SHL PUSH1 0x1 SWAP1 SUB DUP1 PUSH1 0x1 DUP5 ADD SLOAD AND PUSH2 0x160 MSTORE DUP1 PUSH1 0x2 DUP5 ADD SLOAD AND PUSH2 0x1A0 MSTORE DUP1 PUSH1 0x3 DUP5 ADD SLOAD AND SWAP1 PUSH1 0x4 DUP5 ADD SLOAD SWAP1 PUSH1 0x5 DUP6 ADD SLOAD SWAP1 PUSH1 0x6 DUP7 ADD SLOAD SWAP1 PUSH1 0x7 DUP8 ADD SLOAD PUSH1 0xFF AND PUSH1 0x8 DUP9 ADD SLOAD SWAP2 PUSH1 0x9 DUP10 ADD SLOAD AND SWAP3 PUSH1 0xA DUP10 ADD SLOAD SWAP5 PUSH1 0xB DUP11 ADD SLOAD SWAP7 PUSH1 0xC DUP12 ADD SLOAD SWAP9 PUSH1 0xD DUP13 ADD SLOAD SWAP11 PUSH1 0xE DUP14 ADD SLOAD SWAP13 PUSH1 0xF ADD SLOAD SWAP14 PUSH1 0x10 ADD PUSH2 0x1F98 SWAP1 PUSH2 0x267E JUMP JUMPDEST PUSH2 0x1C0 MSTORE PUSH1 0x40 MLOAD DUP1 PUSH2 0x1E0 MSTORE MSTORE PUSH2 0x160 MLOAD PUSH2 0x1E0 MLOAD PUSH1 0x20 ADD MSTORE PUSH2 0x1A0 MLOAD PUSH2 0x1E0 MLOAD PUSH1 0x40 ADD MSTORE PUSH2 0x1E0 MLOAD PUSH1 0x60 ADD MSTORE PUSH2 0x1E0 MLOAD PUSH1 0x80 ADD MSTORE PUSH2 0x1E0 MLOAD PUSH1 0xA0 ADD PUSH1 0xFF DUP3 AND SWAP1 PUSH2 0x1FE2 SWAP2 PUSH2 0x26CA JUMP JUMPDEST PUSH1 0x8 SHR PUSH1 0xFF AND PUSH2 0x1FF1 DUP2 PUSH2 0x26ED JUMP JUMPDEST PUSH2 0x1E0 MLOAD PUSH1 0xC0 ADD MSTORE PUSH2 0x1E0 MLOAD PUSH1 0xE0 ADD MSTORE PUSH2 0x200A DUP2 PUSH2 0x26ED JUMP JUMPDEST PUSH2 0x1E0 MLOAD PUSH2 0x100 ADD MSTORE PUSH2 0x1E0 MLOAD PUSH2 0x120 ADD MSTORE PUSH2 0x1E0 MLOAD PUSH2 0x140 ADD MSTORE PUSH2 0x1E0 MLOAD PUSH2 0x160 ADD MSTORE PUSH2 0x1E0 MLOAD PUSH2 0x180 ADD MSTORE PUSH2 0x1E0 MLOAD PUSH2 0x1A0 ADD MSTORE PUSH2 0x1E0 MLOAD PUSH2 0x1C0 ADD MSTORE PUSH2 0x1E0 MLOAD PUSH2 0x1E0 ADD MSTORE PUSH2 0x1E0 MLOAD PUSH2 0x200 ADD MSTORE PUSH2 0x240 DUP1 PUSH2 0x1E0 MLOAD PUSH2 0x220 ADD MSTORE PUSH2 0x1C0 MLOAD MLOAD SWAP1 PUSH2 0x1E0 MLOAD ADD PUSH1 0x80 SWAP1 MSTORE PUSH2 0x1E0 MLOAD PUSH2 0x2C0 ADD PUSH2 0x2088 SWAP2 PUSH2 0x26F7 JUMP JUMPDEST PUSH2 0x1C0 MLOAD PUSH1 0x20 ADD MLOAD PUSH2 0x1E0 MLOAD SWAP2 PUSH2 0x23F NOT SWAP3 DUP4 DUP2 DUP4 SUB ADD SWAP1 PUSH2 0x260 ADD MSTORE PUSH2 0x20AE SWAP2 PUSH2 0x26F7 JUMP JUMPDEST PUSH2 0x1C0 MLOAD PUSH1 0x40 ADD MLOAD SWAP2 PUSH2 0x1E0 MLOAD SWAP1 DUP2 DUP4 SUB ADD SWAP1 PUSH2 0x280 ADD MSTORE PUSH2 0x20CF SWAP2 PUSH2 0x26F7 JUMP JUMPDEST PUSH2 0x1C0 MLOAD PUSH1 0x60 ADD MLOAD ISZERO ISZERO PUSH2 0x1E0 MLOAD PUSH2 0x2A0 ADD MSTORE PUSH2 0x1E0 MLOAD DUP1 SWAP2 SUB SWAP1 RETURN JUMPDEST POP CALLVALUE PUSH2 0x243 JUMPI PUSH1 0x20 CALLDATASIZE PUSH1 0x3 NOT ADD SLT PUSH2 0x243 JUMPI PUSH2 0x2106 PUSH2 0x29AB JUMP JUMPDEST PUSH1 0x4 CALLDATALOAD DUP2 MSTORE PUSH1 0x2 PUSH1 0x20 MSTORE PUSH1 0x40 DUP2 KECCAK256 PUSH1 0x5 DUP2 ADD SLOAD PUSH1 0xFF DUP2 AND PUSH1 0x5 DUP2 LT ISZERO DUP1 PUSH2 0x251F JUMPI PUSH1 0x1 DUP3 EQ DUP1 SWAP3 DUP2 ISZERO PUSH2 0x2511 JUMPI JUMPDEST POP ISZERO PUSH2 0x24DB JUMPI PUSH1 0x1 DUP5 ADD SLOAD PUSH1 0x1 PUSH1 0x1 PUSH1 0xA0 SHL SUB AND CALLER EQ DUP1 ISZERO PUSH2 0x24C5 JUMPI JUMPDEST ISZERO PUSH2 0x2491 JUMPI PUSH1 0x3 PUSH1 0xB DUP6 ADD SLOAD LT DUP1 PUSH2 0x2483 JUMPI JUMPDEST ISZERO PUSH2 0x2446 JUMPI PUSH2 0x2432 JUMPI PUSH2 0x2420 JUMPI JUMPDEST POP PUSH1 0xD DUP2 ADD SLOAD PUSH1 0x40 MLOAD TIMESTAMP PUSH1 0x20 DUP3 ADD MSTORE PREVRANDAO PUSH1 0x40 DUP3 ADD MSTORE PUSH1 0x4 CALLDATALOAD PUSH1 0x60 DUP3 ADD MSTORE DUP2 PUSH1 0x80 DUP3 ADD MSTORE CALLER PUSH1 0x60 SHL PUSH1 0xA0 DUP3 ADD MSTORE PUSH1 0x94 DUP2 MSTORE DUP1 PUSH1 0xC0 DUP2 ADD LT PUSH1 0x1 PUSH1 0x1 PUSH1 0x40 SHL SUB PUSH1 0xC0 DUP4 ADD GT OR PUSH2 0x240C JUMPI PUSH1 0xC0 DUP2 ADD PUSH1 0x40 MSTORE PUSH1 0x20 DUP2 MLOAD SWAP2 ADD KECCAK256 SWAP1 PUSH1 0x1 DUP3 AND ISZERO PUSH1 0x0 EQ PUSH2 0x239C JUMPI POP PUSH2 0x21E3 PUSH1 0xB DUP4 ADD SLOAD PUSH2 0x28A8 JUMP JUMPDEST PUSH1 0xB DUP4 ADD SSTORE PUSH1 0xD DUP3 ADD SLOAD PUSH1 0x1 DUP2 ADD DUP2 GT PUSH2 0x2362 JUMPI PUSH1 0x1 DUP4 DUP2 ADD SLOAD PUSH1 0x40 DUP1 MLOAD SWAP4 DUP4 ADD DUP5 MSTORE SWAP2 DUP5 AND PUSH1 0x20 DUP5 ADD MSTORE PUSH1 0x1 PUSH1 0x1 PUSH1 0xA0 SHL SUB AND SWAP1 DUP3 ADD MSTORE PUSH1 0x4 CALLDATALOAD SWAP1 PUSH32 0xD2B6B22444768B00D18E4A1C242DC398D49E330C1BAE790CAD9DCD86DA2E20C3 SWAP1 PUSH1 0x60 SWAP1 LOG2 JUMPDEST PUSH2 0x2253 PUSH1 0xD DUP4 ADD SLOAD PUSH2 0x28A8 JUMP JUMPDEST PUSH1 0xD DUP4 ADD SSTORE PUSH1 0x1 DUP2 AND PUSH1 0xE DUP4 ADD SSTORE PUSH1 0xF DUP3 ADD SSTORE PUSH1 0x3 PUSH1 0xB DUP3 ADD SLOAD LT DUP1 ISZERO DUP1 SWAP2 PUSH2 0x238D JUMPI JUMPDEST PUSH2 0x2284 JUMPI JUMPDEST DUP3 PUSH1 0x1 DUP2 SSTORE DUP1 RETURN JUMPDEST ISZERO PUSH2 0x2376 JUMPI PUSH1 0x1 DUP2 ADD SLOAD PUSH1 0x1 PUSH1 0x1 PUSH1 0xA0 SHL SUB AND SWAP1 PUSH1 0x8 SWAP1 JUMPDEST PUSH1 0x9 DUP2 ADD DUP1 SLOAD PUSH1 0x1 PUSH1 0x1 PUSH1 0xA0 SHL SUB NOT AND PUSH1 0x1 PUSH1 0x1 PUSH1 0xA0 SHL SUB SWAP5 DUP6 AND SWAP1 DUP2 OR DUP3 SSTORE PUSH1 0x5 DUP4 ADD DUP1 SLOAD PUSH1 0xFF NOT AND PUSH1 0x3 SWAP1 DUP2 OR SWAP1 SWAP2 SSTORE SWAP1 DUP7 MSTORE PUSH1 0x6 PUSH1 0x20 SWAP1 DUP2 MSTORE PUSH1 0x40 DUP1 DUP9 KECCAK256 SWAP3 DUP6 ADD SLOAD SWAP1 SWAP7 AND DUP8 MSTORE MSTORE SWAP3 DUP5 KECCAK256 PUSH1 0x4 DUP3 ADD SLOAD PUSH2 0x22F8 SWAP2 PUSH2 0x28C3 JUMP JUMPDEST ADD SLOAD DUP1 PUSH2 0x2339 JUMPI JUMPDEST POP SLOAD PUSH1 0x1 PUSH1 0x1 PUSH1 0xA0 SHL SUB AND PUSH1 0x4 CALLDATALOAD PUSH32 0x7F40DF5127524300187445E867486DA572AAB86769C0212E0B392BD87C4CA97F DUP4 DUP1 LOG3 CODESIZE DUP1 PUSH2 0x227C JUMP JUMPDEST DUP2 SLOAD PUSH1 0x1 PUSH1 0x1 PUSH1 0xA0 SHL SUB AND DUP4 MSTORE PUSH1 0x4 PUSH1 0x20 MSTORE PUSH1 0x40 DUP4 KECCAK256 DUP1 SLOAD SWAP2 DUP3 ADD SWAP2 DUP3 LT PUSH2 0x2362 JUMPI SSTORE CODESIZE PUSH2 0x2300 JUMP JUMPDEST PUSH4 0x4E487B71 PUSH1 0xE0 SHL DUP5 MSTORE PUSH1 0x11 PUSH1 0x4 MSTORE PUSH1 0x24 DUP5 REVERT JUMPDEST PUSH1 0x2 DUP2 ADD SLOAD PUSH1 0x1 PUSH1 0x1 PUSH1 0xA0 SHL SUB AND SWAP1 PUSH1 0x8 SWAP1 PUSH2 0x229C JUMP JUMPDEST POP PUSH1 0x3 PUSH1 0xC DUP4 ADD SLOAD LT ISZERO PUSH2 0x2277 JUMP JUMPDEST PUSH1 0xC DUP4 ADD PUSH2 0x23AA DUP2 SLOAD PUSH2 0x28A8 JUMP JUMPDEST SWAP1 SSTORE PUSH1 0x1 DUP2 ADD DUP2 GT PUSH2 0x2362 JUMPI PUSH1 0x2 DUP4 ADD SLOAD PUSH1 0x40 DUP1 MLOAD PUSH1 0x1 SWAP4 DUP5 ADD DUP2 MSTORE SWAP3 DUP5 AND PUSH1 0x20 DUP5 ADD MSTORE PUSH1 0x1 PUSH1 0x1 PUSH1 0xA0 SHL SUB SWAP1 SWAP2 AND SWAP1 DUP3 ADD MSTORE PUSH1 0x4 CALLDATALOAD SWAP1 PUSH32 0xD2B6B22444768B00D18E4A1C242DC398D49E330C1BAE790CAD9DCD86DA2E20C3 SWAP1 PUSH1 0x60 SWAP1 LOG2 PUSH2 0x2246 JUMP JUMPDEST PUSH4 0x4E487B71 PUSH1 0xE0 SHL DUP5 MSTORE PUSH1 0x41 PUSH1 0x4 MSTORE PUSH1 0x24 DUP5 REVERT JUMPDEST PUSH1 0xFF NOT AND PUSH1 0x2 OR PUSH1 0x5 DUP3 ADD SSTORE CODESIZE PUSH2 0x2172 JUMP JUMPDEST PUSH4 0x4E487B71 PUSH1 0xE0 SHL DUP5 MSTORE PUSH1 0x21 PUSH1 0x4 MSTORE PUSH1 0x24 DUP5 REVERT JUMPDEST PUSH1 0x40 MLOAD PUSH3 0x461BCD PUSH1 0xE5 SHL DUP2 MSTORE PUSH1 0x20 PUSH1 0x4 DUP3 ADD MSTORE PUSH1 0x15 PUSH1 0x24 DUP3 ADD MSTORE PUSH21 0x47616D6520616C726561647920636F6D706C657465 PUSH1 0x58 SHL PUSH1 0x44 DUP3 ADD MSTORE PUSH1 0x64 SWAP1 REVERT JUMPDEST POP PUSH1 0x3 PUSH1 0xC DUP6 ADD SLOAD LT PUSH2 0x2164 JUMP JUMPDEST PUSH1 0x40 MLOAD PUSH3 0x461BCD PUSH1 0xE5 SHL DUP2 MSTORE PUSH1 0x20 PUSH1 0x4 DUP3 ADD MSTORE PUSH1 0xC PUSH1 0x24 DUP3 ADD MSTORE PUSH12 0x2737BA103090383630BCB2B9 PUSH1 0xA1 SHL PUSH1 0x44 DUP3 ADD MSTORE PUSH1 0x64 SWAP1 REVERT JUMPDEST POP PUSH1 0x2 DUP5 ADD SLOAD PUSH1 0x1 PUSH1 0x1 PUSH1 0xA0 SHL SUB AND CALLER EQ PUSH2 0x2151 JUMP JUMPDEST PUSH1 0x40 MLOAD PUSH3 0x461BCD PUSH1 0xE5 SHL DUP2 MSTORE PUSH1 0x20 PUSH1 0x4 DUP3 ADD MSTORE PUSH1 0xE PUSH1 0x24 DUP3 ADD MSTORE PUSH14 0x47616D65206E6F74207265616479 PUSH1 0x90 SHL PUSH1 0x44 DUP3 ADD MSTORE PUSH1 0x64 SWAP1 REVERT JUMPDEST SWAP2 POP POP PUSH1 0x2 DUP6 SWAP2 EQ CODESIZE PUSH2 0x2134 JUMP JUMPDEST PUSH4 0x4E487B71 PUSH1 0xE0 SHL DUP6 MSTORE PUSH1 0x21 PUSH1 0x4 MSTORE PUSH1 0x24 DUP6 REVERT JUMPDEST SWAP1 PUSH1 0x1 DUP3 DUP2 SHR SWAP3 AND DUP1 ISZERO PUSH2 0x2563 JUMPI JUMPDEST PUSH1 0x20 DUP4 LT EQ PUSH2 0x254D JUMPI JUMP JUMPDEST PUSH4 0x4E487B71 PUSH1 0xE0 SHL PUSH1 0x0 MSTORE PUSH1 0x22 PUSH1 0x4 MSTORE PUSH1 0x24 PUSH1 0x0 REVERT JUMPDEST SWAP2 PUSH1 0x7F AND SWAP2 PUSH2 0x2542 JUMP JUMPDEST PUSH2 0x240 DUP2 ADD SWAP1 DUP2 LT PUSH1 0x1 PUSH1 0x1 PUSH1 0x40 SHL SUB DUP3 GT OR PUSH2 0x1127 JUMPI PUSH1 0x40 MSTORE JUMP JUMPDEST PUSH1 0x1 PUSH1 0x1 PUSH1 0x40 SHL SUB DUP2 GT PUSH2 0x1127 JUMPI PUSH1 0x40 MSTORE JUMP JUMPDEST PUSH1 0x80 DUP2 ADD SWAP1 DUP2 LT PUSH1 0x1 PUSH1 0x1 PUSH1 0x40 SHL SUB DUP3 GT OR PUSH2 0x1127 JUMPI PUSH1 0x40 MSTORE JUMP JUMPDEST SWAP1 PUSH1 0x1F DUP1 NOT SWAP2 ADD AND DUP2 ADD SWAP1 DUP2 LT PUSH1 0x1 PUSH1 0x1 PUSH1 0x40 SHL SUB DUP3 GT OR PUSH2 0x1127 JUMPI PUSH1 0x40 MSTORE JUMP JUMPDEST SWAP1 PUSH1 0x40 MLOAD SWAP2 DUP3 PUSH1 0x0 DUP3 SLOAD SWAP3 PUSH2 0x25EC DUP5 PUSH2 0x2533 JUMP JUMPDEST SWAP1 DUP2 DUP5 MSTORE PUSH1 0x1 SWAP5 DUP6 DUP2 AND SWAP1 DUP2 PUSH1 0x0 EQ PUSH2 0x265B JUMPI POP PUSH1 0x1 EQ PUSH2 0x2618 JUMPI JUMPDEST POP POP PUSH2 0x2616 SWAP3 POP SUB DUP4 PUSH2 0x25B7 JUMP JUMPDEST JUMP JUMPDEST SWAP1 SWAP4 SWAP2 POP PUSH1 0x0 MSTORE PUSH1 0x20 SWAP1 DUP2 PUSH1 0x0 KECCAK256 SWAP4 PUSH1 0x0 SWAP2 JUMPDEST DUP2 DUP4 LT PUSH2 0x2643 JUMPI POP POP PUSH2 0x2616 SWAP4 POP DUP3 ADD ADD CODESIZE DUP1 PUSH2 0x2608 JUMP JUMPDEST DUP6 SLOAD DUP9 DUP5 ADD DUP6 ADD MSTORE SWAP5 DUP6 ADD SWAP5 DUP8 SWAP5 POP SWAP2 DUP4 ADD SWAP2 PUSH2 0x262B JUMP JUMPDEST SWAP2 POP POP PUSH2 0x2616 SWAP5 POP PUSH1 0x20 SWAP3 POP PUSH1 0xFF NOT AND DUP3 DUP5 ADD MSTORE ISZERO ISZERO PUSH1 0x5 SHL DUP3 ADD ADD CODESIZE DUP1 PUSH2 0x2608 JUMP JUMPDEST SWAP1 PUSH1 0x40 MLOAD PUSH2 0x268B DUP2 PUSH2 0x259C JUMP JUMPDEST PUSH1 0x60 PUSH1 0xFF PUSH1 0x3 DUP4 SWAP6 PUSH2 0x269C DUP2 PUSH2 0x25D8 JUMP JUMPDEST DUP6 MSTORE PUSH2 0x26AA PUSH1 0x1 DUP3 ADD PUSH2 0x25D8 JUMP JUMPDEST PUSH1 0x20 DUP7 ADD MSTORE PUSH2 0x26BB PUSH1 0x2 DUP3 ADD PUSH2 0x25D8 JUMP JUMPDEST PUSH1 0x40 DUP7 ADD MSTORE ADD SLOAD AND ISZERO ISZERO SWAP2 ADD MSTORE JUMP JUMPDEST SWAP1 PUSH1 0x5 DUP3 LT ISZERO PUSH2 0x26D7 JUMPI MSTORE JUMP JUMPDEST PUSH4 0x4E487B71 PUSH1 0xE0 SHL PUSH1 0x0 MSTORE PUSH1 0x21 PUSH1 0x4 MSTORE PUSH1 0x24 PUSH1 0x0 REVERT JUMPDEST PUSH1 0x2 GT ISZERO PUSH2 0x26D7 JUMPI JUMP JUMPDEST SWAP2 SWAP1 DUP3 MLOAD SWAP3 DUP4 DUP3 MSTORE PUSH1 0x0 JUMPDEST DUP5 DUP2 LT PUSH2 0x2723 JUMPI POP POP DUP3 PUSH1 0x0 PUSH1 0x20 DUP1 SWAP5 SWAP6 DUP5 ADD ADD MSTORE PUSH1 0x1F DUP1 NOT SWAP2 ADD AND ADD ADD SWAP1 JUMP JUMPDEST PUSH1 0x20 DUP2 DUP4 ADD DUP2 ADD MLOAD DUP5 DUP4 ADD DUP3 ADD MSTORE ADD PUSH2 0x2702 JUMP JUMPDEST PUSH1 0x4 CALLDATALOAD SWAP1 PUSH1 0x1 PUSH1 0x1 PUSH1 0xA0 SHL SUB DUP3 AND DUP3 SUB PUSH2 0x143C JUMPI JUMP JUMPDEST DUP1 SLOAD DUP3 LT ISZERO PUSH2 0x2765 JUMPI PUSH1 0x0 MSTORE PUSH1 0x20 PUSH1 0x0 KECCAK256 ADD SWAP1 PUSH1 0x0 SWAP1 JUMP JUMPDEST PUSH4 0x4E487B71 PUSH1 0xE0 SHL PUSH1 0x0 MSTORE PUSH1 0x32 PUSH1 0x4 MSTORE PUSH1 0x24 PUSH1 0x0 REVERT JUMPDEST SWAP2 DUP2 PUSH1 0x1F DUP5 ADD SLT ISZERO PUSH2 0x143C JUMPI DUP3 CALLDATALOAD SWAP2 PUSH1 0x1 PUSH1 0x1 PUSH1 0x40 SHL SUB DUP4 GT PUSH2 0x143C JUMPI PUSH1 0x20 DUP1 DUP6 ADD SWAP5 DUP5 PUSH1 0x5 SHL ADD ADD GT PUSH2 0x143C JUMPI JUMP JUMPDEST PUSH1 0x1 PUSH1 0x1 PUSH1 0x40 SHL SUB DUP2 GT PUSH2 0x1127 JUMPI PUSH1 0x1F ADD PUSH1 0x1F NOT AND PUSH1 0x20 ADD SWAP1 JUMP JUMPDEST DUP2 PUSH1 0x1F DUP3 ADD SLT ISZERO PUSH2 0x143C JUMPI DUP1 CALLDATALOAD SWAP1 PUSH2 0x27DD DUP3 PUSH2 0x27AB JUMP JUMPDEST SWAP3 PUSH2 0x27EB PUSH1 0x40 MLOAD SWAP5 DUP6 PUSH2 0x25B7 JUMP JUMPDEST DUP3 DUP5 MSTORE PUSH1 0x20 DUP4 DUP4 ADD ADD GT PUSH2 0x143C JUMPI DUP2 PUSH1 0x0 SWAP3 PUSH1 0x20 DUP1 SWAP4 ADD DUP4 DUP7 ADD CALLDATACOPY DUP4 ADD ADD MSTORE SWAP1 JUMP JUMPDEST PUSH1 0x1 SLOAD PUSH1 0x1 PUSH1 0x1 PUSH1 0xA0 SHL SUB AND CALLER SUB PUSH2 0x2821 JUMPI JUMP JUMPDEST PUSH1 0x64 PUSH1 0x40 MLOAD PUSH3 0x461BCD PUSH1 0xE5 SHL DUP2 MSTORE PUSH1 0x20 PUSH1 0x4 DUP3 ADD MSTORE PUSH1 0x20 PUSH1 0x24 DUP3 ADD MSTORE PUSH32 0x4F776E61626C653A2063616C6C6572206973206E6F7420746865206F776E6572 PUSH1 0x44 DUP3 ADD MSTORE REVERT JUMPDEST ISZERO PUSH2 0x286C JUMPI JUMP JUMPDEST PUSH1 0x40 MLOAD PUSH3 0x461BCD PUSH1 0xE5 SHL DUP2 MSTORE PUSH1 0x20 PUSH1 0x4 DUP3 ADD MSTORE PUSH1 0x14 PUSH1 0x24 DUP3 ADD MSTORE PUSH20 0x125B9D985B1A59081391950818DBDB9D1C9858DD PUSH1 0x62 SHL PUSH1 0x44 DUP3 ADD MSTORE PUSH1 0x64 SWAP1 REVERT JUMPDEST PUSH1 0x0 NOT DUP2 EQ PUSH2 0x413 JUMPI PUSH1 0x1 ADD SWAP1 JUMP JUMPDEST PUSH1 0x5 DUP3 LT ISZERO PUSH2 0x26D7 JUMPI MSTORE JUMP JUMPDEST SWAP1 DUP2 SLOAD SWAP2 PUSH9 0x10000000000000000 DUP4 LT ISZERO PUSH2 0x1127 JUMPI DUP3 PUSH2 0x17C6 SWAP2 PUSH1 0x1 PUSH2 0x2616 SWAP6 ADD DUP2 SSTORE PUSH2 0x274D JUMP JUMPDEST RETURNDATASIZE ISZERO PUSH2 0x2916 JUMPI RETURNDATASIZE SWAP1 PUSH2 0x28FC DUP3 PUSH2 0x27AB JUMP JUMPDEST SWAP2 PUSH2 0x290A PUSH1 0x40 MLOAD SWAP4 DUP5 PUSH2 0x25B7 JUMP JUMPDEST DUP3 MSTORE RETURNDATASIZE PUSH1 0x0 PUSH1 0x20 DUP5 ADD RETURNDATACOPY JUMP JUMPDEST PUSH1 0x60 SWAP1 JUMP JUMPDEST SWAP2 SWAP1 DUP3 SUB SWAP2 DUP3 GT PUSH2 0x413 JUMPI JUMP JUMPDEST ISZERO PUSH2 0x292F JUMPI JUMP JUMPDEST PUSH1 0x40 MLOAD PUSH3 0x461BCD PUSH1 0xE5 SHL DUP2 MSTORE PUSH1 0x20 PUSH1 0x4 DUP3 ADD MSTORE PUSH1 0xD PUSH1 0x24 DUP3 ADD MSTORE PUSH13 0x1499599D5B990819985A5B1959 PUSH1 0x9A SHL PUSH1 0x44 DUP3 ADD MSTORE PUSH1 0x64 SWAP1 REVERT JUMPDEST PUSH1 0xFF PUSH1 0x1 SLOAD PUSH1 0xA0 SHR AND PUSH2 0x2973 JUMPI JUMP JUMPDEST PUSH1 0x40 MLOAD PUSH3 0x461BCD PUSH1 0xE5 SHL DUP2 MSTORE PUSH1 0x20 PUSH1 0x4 DUP3 ADD MSTORE PUSH1 0x10 PUSH1 0x24 DUP3 ADD MSTORE PUSH16 0x14185D5CD8589B194E881C185D5CD959 PUSH1 0x82 SHL PUSH1 0x44 DUP3 ADD MSTORE PUSH1 0x64 SWAP1 REVERT JUMPDEST PUSH1 0x2 PUSH1 0x0 SLOAD EQ PUSH2 0x29BC JUMPI PUSH1 0x2 PUSH1 0x0 SSTORE JUMP JUMPDEST PUSH1 0x40 MLOAD PUSH3 0x461BCD PUSH1 0xE5 SHL DUP2 MSTORE PUSH1 0x20 PUSH1 0x4 DUP3 ADD MSTORE PUSH1 0x1F PUSH1 0x24 DUP3 ADD MSTORE PUSH32 0x5265656E7472616E637947756172643A207265656E7472616E742063616C6C00 PUSH1 0x44 DUP3 ADD MSTORE PUSH1 0x64 SWAP1 REVERT JUMPDEST MLOAD SWAP1 PUSH10 0xFFFFFFFFFFFFFFFFFFFF DUP3 AND DUP3 SUB PUSH2 0x143C JUMPI JUMP JUMPDEST PUSH1 0xB SLOAD PUSH1 0x40 MLOAD PUSH4 0x3FABE5A3 PUSH1 0xE2 SHL DUP2 MSTORE SWAP2 SWAP1 PUSH1 0xA0 SWAP1 DUP4 SWAP1 PUSH1 0x4 SWAP1 DUP3 SWAP1 PUSH1 0x1 PUSH1 0x1 PUSH1 0xA0 SHL SUB AND GAS STATICCALL SWAP2 DUP3 ISZERO PUSH2 0x2B1B JUMPI PUSH1 0x0 SWAP3 PUSH2 0x2ACD JUMPI JUMPDEST POP PUSH1 0x0 DUP3 SGT ISZERO PUSH2 0x2A93 JUMPI PUSH9 0x56BC75E2D63100000 SWAP1 DUP2 DUP2 MUL SWAP2 DUP2 DUP4 DIV EQ SWAP1 ISZERO OR ISZERO PUSH2 0x413 JUMPI DUP2 ISZERO PUSH2 0x2A7D JUMPI DIV SWAP1 JUMP JUMPDEST PUSH4 0x4E487B71 PUSH1 0xE0 SHL PUSH1 0x0 MSTORE PUSH1 0x12 PUSH1 0x4 MSTORE PUSH1 0x24 PUSH1 0x0 REVERT JUMPDEST PUSH1 0x40 MLOAD PUSH3 0x461BCD PUSH1 0xE5 SHL DUP2 MSTORE PUSH1 0x20 PUSH1 0x4 DUP3 ADD MSTORE PUSH1 0x12 PUSH1 0x24 DUP3 ADD MSTORE PUSH18 0x125B9D985B1A59081C1C9A58D94819995959 PUSH1 0x72 SHL PUSH1 0x44 DUP3 ADD MSTORE PUSH1 0x64 SWAP1 REVERT JUMPDEST SWAP1 SWAP2 PUSH1 0xA0 DUP3 RETURNDATASIZE DUP3 GT PUSH2 0x2B13 JUMPI JUMPDEST DUP2 PUSH2 0x2AE7 PUSH1 0xA0 SWAP4 DUP4 PUSH2 0x25B7 JUMP JUMPDEST DUP2 ADD SUB SLT PUSH2 0x243 JUMPI POP PUSH2 0x2AF9 DUP2 PUSH2 0x2A01 JUMP JUMPDEST POP PUSH2 0x2B0B PUSH1 0x80 PUSH1 0x20 DUP4 ADD MLOAD SWAP3 ADD PUSH2 0x2A01 JUMP JUMPDEST POP SWAP1 CODESIZE PUSH2 0x2A4E JUMP JUMPDEST RETURNDATASIZE SWAP2 POP PUSH2 0x2ADA JUMP JUMPDEST PUSH1 0x40 MLOAD RETURNDATASIZE PUSH1 0x0 DUP3 RETURNDATACOPY RETURNDATASIZE SWAP1 REVERT JUMPDEST SWAP2 SWAP1 DUP2 LT ISZERO PUSH2 0x2765 JUMPI PUSH1 0x5 SHL ADD SWAP1 JUMP JUMPDEST CALLDATALOAD PUSH1 0x1 PUSH1 0x1 PUSH1 0xA0 SHL SUB DUP2 AND DUP2 SUB PUSH2 0x143C JUMPI SWAP1 JUMP INVALID LOG2 PUSH5 0x6970667358 0x22 SLT KECCAK256 MOD DUP9 SWAP13 0x4A 0xE5 0x25 0xB6 SUB PUSH0 CALLER MLOAD EXTCODESIZE 0xD REVERT 0xE5 CALLDATACOPY CALLCODE 0xAA 0x2D 0xEE 0xD DUP13 SWAP6 0xCE 0xA6 0xC4 KECCAK256 EXTCODESIZE DUP10 0xC1 TIMESTAMP DUP16 PUSH5 0x736F6C6343 STOP ADDMOD EQ STOP CALLER "},"methodIdentifiers":{"BASIS_POINTS()":"e1f1c4a7","adminBatchWithdrawNFTs(address[],uint256[],address[])":"cb9a2630","cancelGame(uint256)":"69958ab9","createGame(address,uint256,uint256,uint8,uint8,string,string,string,bool)":"e25f494b","emergencyPause()":"51858e27","emergencyWithdrawETH()":"84536017","ethUsdFeed()":"8009b7bd","games(uint256)":"117a5b90","getETHAmount(uint256)":"ef46b2ab","getGameDetails(uint256)":"1b31abda","getGameRoundDetails(uint256)":"b87b7fcc","getUserGames(address)":"120aace6","joinGame(uint256)":"efaa55a0","listingFeeUSD()":"3a38d063","nextGameId()":"b135bbb0","owner()":"8da5cb5b","paused()":"5c975abb","platformFeePercent()":"8c639a85","platformFeeReceiver()":"2d656ad7","playRound(uint256)":"019e485e","renounceOwnership()":"715018a6","setListingFee(uint256)":"131dbd09","setPlatformFee(uint256)":"12e8e2c3","transferOwnership(address)":"f2fde38b","unclaimedETH(address)":"1a68b691","unclaimedNFTs(address,address,uint256)":"aa4209b8","unclaimedUSDC(address)":"95d11520","unpause()":"3f4ba83a","usdcToken()":"11eac855","userGames(address,uint256)":"bc0167cd","withdrawNFT(address,uint256)":"6088e93a","withdrawRewards()":"c7b8981c"}}}}}