{"contracts/NFTFlipGame.sol":{"NFTFlipGame":{"abi":[{"inputs":[{"internalType":"address","name":"_ethUsdFeed","type":"address"},{"internalType":"address","name":"_usdcUsdFeed","type":"address"},{"internalType":"address","name":"_usdcToken","type":"address"},{"internalType":"address","name":"_platformFeeReceiver","type":"address"}],"stateMutability":"nonpayable","type":"constructor"},{"anonymous":false,"inputs":[{"indexed":true,"internalType":"uint256","name":"gameId","type":"uint256"}],"name":"GameCancelled","type":"event"},{"anonymous":false,"inputs":[{"indexed":true,"internalType":"uint256","name":"gameId","type":"uint256"},{"indexed":true,"internalType":"address","name":"winner","type":"address"}],"name":"GameCompleted","type":"event"},{"anonymous":false,"inputs":[{"indexed":true,"internalType":"uint256","name":"gameId","type":"uint256"},{"indexed":true,"internalType":"address","name":"creator","type":"address"},{"indexed":false,"internalType":"enum NFTFlipGame.GameType","name":"gameType","type":"uint8"}],"name":"GameCreated","type":"event"},{"anonymous":false,"inputs":[{"indexed":true,"internalType":"uint256","name":"gameId","type":"uint256"},{"indexed":true,"internalType":"address","name":"joiner","type":"address"}],"name":"GameJoined","type":"event"},{"anonymous":false,"inputs":[{"indexed":false,"internalType":"uint256","name":"newFee","type":"uint256"}],"name":"ListingFeeUpdated","type":"event"},{"anonymous":false,"inputs":[{"indexed":true,"internalType":"address","name":"player","type":"address"},{"indexed":true,"internalType":"address","name":"nftContract","type":"address"},{"indexed":false,"internalType":"uint256","name":"tokenId","type":"uint256"}],"name":"NFTWithdrawn","type":"event"},{"anonymous":false,"inputs":[{"indexed":true,"internalType":"address","name":"previousOwner","type":"address"},{"indexed":true,"internalType":"address","name":"newOwner","type":"address"}],"name":"OwnershipTransferred","type":"event"},{"anonymous":false,"inputs":[{"indexed":false,"internalType":"address","name":"account","type":"address"}],"name":"Paused","type":"event"},{"anonymous":false,"inputs":[{"indexed":false,"internalType":"uint256","name":"newPercent","type":"uint256"}],"name":"PlatformFeeUpdated","type":"event"},{"anonymous":false,"inputs":[{"indexed":true,"internalType":"address","name":"player","type":"address"},{"indexed":false,"internalType":"uint256","name":"ethAmount","type":"uint256"},{"indexed":false,"internalType":"uint256","name":"usdcAmount","type":"uint256"}],"name":"RewardsWithdrawn","type":"event"},{"anonymous":false,"inputs":[{"indexed":false,"internalType":"address","name":"account","type":"address"}],"name":"Unpaused","type":"event"},{"inputs":[],"name":"BASIS_POINTS","outputs":[{"internalType":"uint256","name":"","type":"uint256"}],"stateMutability":"view","type":"function"},{"inputs":[],"name":"MAX_FEE_PERCENT","outputs":[{"internalType":"uint256","name":"","type":"uint256"}],"stateMutability":"view","type":"function"},{"inputs":[{"internalType":"uint256[]","name":"gameIds","type":"uint256[]"}],"name":"adminBatchWithdrawExpired","outputs":[],"stateMutability":"nonpayable","type":"function"},{"inputs":[{"internalType":"address[]","name":"nftContracts","type":"address[]"},{"internalType":"uint256[]","name":"tokenIds","type":"uint256[]"},{"internalType":"address[]","name":"recipients","type":"address[]"}],"name":"adminBatchWithdrawNFTs","outputs":[],"stateMutability":"nonpayable","type":"function"},{"inputs":[{"internalType":"uint256","name":"gameId","type":"uint256"}],"name":"cancelGame","outputs":[],"stateMutability":"nonpayable","type":"function"},{"inputs":[{"internalType":"uint256","name":"gameId","type":"uint256"},{"internalType":"address","name":"winner","type":"address"}],"name":"completeGame","outputs":[],"stateMutability":"nonpayable","type":"function"},{"inputs":[{"internalType":"address","name":"nftContract","type":"address"},{"internalType":"uint256","name":"tokenId","type":"uint256"},{"internalType":"uint256","name":"priceUSD","type":"uint256"},{"internalType":"enum NFTFlipGame.PaymentToken","name":"acceptedToken","type":"uint8"},{"internalType":"enum NFTFlipGame.GameType","name":"gameType","type":"uint8"},{"internalType":"string","name":"authInfo","type":"string"}],"name":"createGame","outputs":[],"stateMutability":"payable","type":"function"},{"inputs":[{"internalType":"address","name":"to","type":"address"},{"internalType":"uint256","name":"amount","type":"uint256"}],"name":"emergencyWithdrawETH","outputs":[],"stateMutability":"nonpayable","type":"function"},{"inputs":[{"internalType":"address","name":"nftContract","type":"address"},{"internalType":"uint256","name":"tokenId","type":"uint256"},{"internalType":"address","name":"to","type":"address"}],"name":"emergencyWithdrawNFT","outputs":[],"stateMutability":"nonpayable","type":"function"},{"inputs":[{"internalType":"address","name":"token","type":"address"},{"internalType":"address","name":"to","type":"address"},{"internalType":"uint256","name":"amount","type":"uint256"}],"name":"emergencyWithdrawToken","outputs":[],"stateMutability":"nonpayable","type":"function"},{"inputs":[],"name":"ethUsdFeed","outputs":[{"internalType":"contract AggregatorV3Interface","name":"","type":"address"}],"stateMutability":"view","type":"function"},{"inputs":[{"internalType":"uint256","name":"","type":"uint256"}],"name":"games","outputs":[{"internalType":"uint256","name":"gameId","type":"uint256"},{"internalType":"address","name":"creator","type":"address"},{"internalType":"address","name":"joiner","type":"address"},{"internalType":"address","name":"nftContract","type":"address"},{"internalType":"uint256","name":"tokenId","type":"uint256"},{"internalType":"enum NFTFlipGame.GameState","name":"state","type":"uint8"},{"internalType":"enum NFTFlipGame.GameType","name":"gameType","type":"uint8"},{"internalType":"uint256","name":"priceUSD","type":"uint256"},{"internalType":"enum NFTFlipGame.PaymentToken","name":"paymentToken","type":"uint8"},{"internalType":"uint256","name":"totalPaid","type":"uint256"},{"internalType":"address","name":"winner","type":"address"},{"internalType":"uint256","name":"createdAt","type":"uint256"},{"internalType":"uint256","name":"expiresAt","type":"uint256"}],"stateMutability":"view","type":"function"},{"inputs":[{"internalType":"uint256","name":"usdAmount","type":"uint256"}],"name":"getETHAmount","outputs":[{"internalType":"uint256","name":"","type":"uint256"}],"stateMutability":"view","type":"function"},{"inputs":[{"internalType":"uint256","name":"startIndex","type":"uint256"},{"internalType":"uint256","name":"count","type":"uint256"}],"name":"getExpiredGames","outputs":[{"internalType":"uint256[]","name":"","type":"uint256[]"}],"stateMutability":"view","type":"function"},{"inputs":[{"internalType":"uint256","name":"gameId","type":"uint256"}],"name":"getGameDetails","outputs":[{"components":[{"internalType":"uint256","name":"gameId","type":"uint256"},{"internalType":"address","name":"creator","type":"address"},{"internalType":"address","name":"joiner","type":"address"},{"internalType":"address","name":"nftContract","type":"address"},{"internalType":"uint256","name":"tokenId","type":"uint256"},{"internalType":"enum NFTFlipGame.GameState","name":"state","type":"uint8"},{"internalType":"enum NFTFlipGame.GameType","name":"gameType","type":"uint8"},{"internalType":"uint256","name":"priceUSD","type":"uint256"},{"internalType":"enum NFTFlipGame.PaymentToken","name":"paymentToken","type":"uint8"},{"internalType":"uint256","name":"totalPaid","type":"uint256"},{"internalType":"address","name":"winner","type":"address"},{"internalType":"uint256","name":"createdAt","type":"uint256"},{"internalType":"uint256","name":"expiresAt","type":"uint256"}],"internalType":"struct NFTFlipGame.Game","name":"","type":"tuple"},{"components":[{"internalType":"address","name":"challengerNFTContract","type":"address"},{"internalType":"uint256","name":"challengerTokenId","type":"uint256"}],"internalType":"struct NFTFlipGame.NFTChallenge","name":"","type":"tuple"}],"stateMutability":"view","type":"function"},{"inputs":[],"name":"getPlatformFeeReceiver","outputs":[{"internalType":"address","name":"","type":"address"}],"stateMutability":"view","type":"function"},{"inputs":[{"internalType":"uint256","name":"usdAmount","type":"uint256"}],"name":"getUSDCAmount","outputs":[{"internalType":"uint256","name":"","type":"uint256"}],"stateMutability":"view","type":"function"},{"inputs":[{"internalType":"uint256","name":"gameId","type":"uint256"}],"name":"isGameExpired","outputs":[{"internalType":"bool","name":"","type":"bool"}],"stateMutability":"view","type":"function"},{"inputs":[{"internalType":"uint256","name":"gameId","type":"uint256"},{"internalType":"enum NFTFlipGame.PaymentToken","name":"paymentToken","type":"uint8"},{"internalType":"address","name":"challengerNFTContract","type":"address"},{"internalType":"uint256","name":"challengerTokenId","type":"uint256"}],"name":"joinGame","outputs":[],"stateMutability":"payable","type":"function"},{"inputs":[],"name":"listingFeeUSD","outputs":[{"internalType":"uint256","name":"","type":"uint256"}],"stateMutability":"view","type":"function"},{"inputs":[],"name":"nextGameId","outputs":[{"internalType":"uint256","name":"","type":"uint256"}],"stateMutability":"view","type":"function"},{"inputs":[{"internalType":"uint256","name":"","type":"uint256"}],"name":"nftChallenges","outputs":[{"internalType":"address","name":"challengerNFTContract","type":"address"},{"internalType":"uint256","name":"challengerTokenId","type":"uint256"}],"stateMutability":"view","type":"function"},{"inputs":[],"name":"owner","outputs":[{"internalType":"address","name":"","type":"address"}],"stateMutability":"view","type":"function"},{"inputs":[],"name":"pause","outputs":[],"stateMutability":"nonpayable","type":"function"},{"inputs":[],"name":"paused","outputs":[{"internalType":"bool","name":"","type":"bool"}],"stateMutability":"view","type":"function"},{"inputs":[],"name":"platformFeePercent","outputs":[{"internalType":"uint256","name":"","type":"uint256"}],"stateMutability":"view","type":"function"},{"inputs":[],"name":"platformFeeReceiver","outputs":[{"internalType":"address","name":"","type":"address"}],"stateMutability":"view","type":"function"},{"inputs":[],"name":"renounceOwnership","outputs":[],"stateMutability":"nonpayable","type":"function"},{"inputs":[{"internalType":"uint256","name":"newFee","type":"uint256"}],"name":"setListingFee","outputs":[],"stateMutability":"nonpayable","type":"function"},{"inputs":[{"internalType":"uint256","name":"newPercent","type":"uint256"}],"name":"setPlatformFee","outputs":[],"stateMutability":"nonpayable","type":"function"},{"inputs":[],"name":"totalGamesCompleted","outputs":[{"internalType":"uint256","name":"","type":"uint256"}],"stateMutability":"view","type":"function"},{"inputs":[],"name":"totalGamesCreated","outputs":[{"internalType":"uint256","name":"","type":"uint256"}],"stateMutability":"view","type":"function"},{"inputs":[],"name":"totalPlatformFees","outputs":[{"internalType":"uint256","name":"","type":"uint256"}],"stateMutability":"view","type":"function"},{"inputs":[],"name":"totalVolumeUSD","outputs":[{"internalType":"uint256","name":"","type":"uint256"}],"stateMutability":"view","type":"function"},{"inputs":[{"internalType":"address","name":"newOwner","type":"address"}],"name":"transferOwnership","outputs":[],"stateMutability":"nonpayable","type":"function"},{"inputs":[{"internalType":"address","name":"","type":"address"}],"name":"unclaimedETH","outputs":[{"internalType":"uint256","name":"","type":"uint256"}],"stateMutability":"view","type":"function"},{"inputs":[{"internalType":"address","name":"","type":"address"},{"internalType":"address","name":"","type":"address"},{"internalType":"uint256","name":"","type":"uint256"}],"name":"unclaimedNFTs","outputs":[{"internalType":"uint256","name":"","type":"uint256"}],"stateMutability":"view","type":"function"},{"inputs":[{"internalType":"address","name":"","type":"address"}],"name":"unclaimedUSDC","outputs":[{"internalType":"uint256","name":"","type":"uint256"}],"stateMutability":"view","type":"function"},{"inputs":[],"name":"unpause","outputs":[],"stateMutability":"nonpayable","type":"function"},{"inputs":[],"name":"usdcToken","outputs":[{"internalType":"address","name":"","type":"address"}],"stateMutability":"view","type":"function"},{"inputs":[],"name":"usdcUsdFeed","outputs":[{"internalType":"contract AggregatorV3Interface","name":"","type":"address"}],"stateMutability":"view","type":"function"},{"inputs":[{"internalType":"address","name":"","type":"address"},{"internalType":"uint256","name":"","type":"uint256"}],"name":"userGames","outputs":[{"internalType":"uint256","name":"","type":"uint256"}],"stateMutability":"view","type":"function"},{"inputs":[{"internalType":"address","name":"","type":"address"},{"internalType":"address","name":"","type":"address"},{"internalType":"uint256","name":"","type":"uint256"}],"name":"userNFTsInContract","outputs":[{"internalType":"bool","name":"","type":"bool"}],"stateMutability":"view","type":"function"},{"inputs":[{"internalType":"uint256","name":"gameId","type":"uint256"}],"name":"withdrawExpiredGame","outputs":[],"stateMutability":"nonpayable","type":"function"},{"inputs":[{"internalType":"address","name":"nftContract","type":"address"},{"internalType":"uint256","name":"tokenId","type":"uint256"}],"name":"withdrawNFT","outputs":[],"stateMutability":"nonpayable","type":"function"},{"inputs":[],"name":"withdrawRewards","outputs":[],"stateMutability":"nonpayable","type":"function"}],"evm":{"bytecode":{"linkReferences":{},"object":"6080346200013257601f620031bf38819003918201601f19168301916001600160401b03831184841017620001375780849260809460405283398101031262000132576200004d816200014d565b6200005b602083016200014d565b6200007760606200006f604086016200014d565b94016200014d565b600160008181559054604051956001600160a01b039485939192849290338482167f8be0079c531659141344cd1fd0a4f28419497f9722a3daafe3b4186f6b6457e08480a360ff60a01b1933169060018060a81b03191617600155600160095562030d40600a5561015e600b5580600c5580600d5580600e55600f558160018060a01b0319971687601054161760105516856011541617601155168360125416176012551690601354161760135561305c9081620001638239f35b600080fd5b634e487b7160e01b600052604160045260246000fd5b51906001600160a01b0382168203620001325756fe6080604052600436101561001257600080fd5b60003560e01c806308ed9d33146102f2578063117a5b90146102ed57806311eac855146102e857806312e8e2c3146102e3578063131dbd09146102de5780631a68b691146102d95780631b31abda146102d45780631fd462cd146102cf578063277327a5146102ca5780632d656ad7146102935780633a38d063146102c55780633f4ba83a146102c05780634d9a75e5146102bb5780635c975abb146102b65780635e37ef51146102b15780636088e93a146102ac57806365b3a7ca146102a757806367d81740146102a257806369958ab91461029d5780636e9088e714610298578063707d184814610293578063715018a61461028e5780638009b7bd146102895780638456cb591461028457806384ae42461461027f5780638afec4431461027a5780638c639a85146102755780638cbe09ed146102705780638da5cb5b1461026b5780638dbb15bb146102665780639291ccd51461026157806395d115201461025c578063a6ff668914610257578063aa4209b814610252578063b135bbb01461024d578063b1a8129514610248578063bc0167cd14610243578063bcf17b3a1461023e578063c7b8981c14610239578063cb9a263014610234578063d3631fa51461022f578063d79e85671461022a578063d84cbc4514610225578063e1f1c4a714610220578063ef46b2ab1461021b5763f2fde38b1461021657600080fd5b611d5b565b611d35565b611d18565b611881565b61182e565b611810565b61165b565b6114d0565b6114b2565b611464565b6113c8565b6113aa565b611348565b611241565b611204565b6111e6565b6111c8565b61119f565b611144565b611126565b61103f565b610f39565b610e9c565b610e73565b610e12565b610a6e565b610d9b565b610cb1565b610c94565b610c1e565b610be6565b610ba0565b610b7a565b610b51565b610ab5565b610a97565b6109d7565b6108e5565b610821565b6106f9565b61069c565b610612565b6105e9565b610526565b61032d565b9181601f840112156103285782359167ffffffffffffffff8311610328576020808501948460051b01011161032857565b600080fd5b34610328576020366003190112610328576004803567ffffffffffffffff81116103285761035e90369083016102f7565b91610367611e28565b60005b83811061037357005b806103966103856103b1938787612e66565b356000526002602052604060002090565b805415158061043d575b80610430575b6103b6575b506121d9565b61036a565b60058101805460ff1916600417905561042a9060018101548590610421906103fc906001600160a01b03165b6001600160a01b0316600090815260086020526040902090565b60038401546001600160a01b03165b60018060a01b0316600052602052604060002090565b910154906123a6565b386103ab565b50600b81015442116103a6565b50600581015460ff1661044f8161046b565b156103a0565b634e487b7160e01b600052602160045260246000fd5b6005111561047557565b610455565b9060058210156104755752565b6002111561047557565b9061049b82610487565b52565b9a979491938b919e9d9c9a9794999693996101a083019f8352600160a01b600190039a8b938480931690602001521660408d01521660608b015260808a015260a089016104ea9161047a565b6104f381610487565b60c088015260e087015261050681610487565b610100860152610120850152166101408301526101608201526101800152565b34610328576020366003190112610328576004356000908152600260205260409020805460018201546105da906001600160a01b031660028401549092906001600160a01b031660038501549094906001600160a01b0316916004820154906005830154600684015461059d600786015460ff1690565b600886015460098701549094919391906001600160a01b031695600b600a890154980154986040519c8d9c8d9460ff808860081c1697169561049e565b0390f35b600091031261032857565b34610328576000366003190112610328576012546040516001600160a01b039091168152602090f35b346103285760203660031901126103285760043561062e611e28565b6103e88111610668576020817f45610d581145924dd7090a5017e5f2b1d6f42213bb2e95707ff86846bbfcb1ca92600b55604051908152a1005b60405162461bcd60e51b815260206004820152600c60248201526b08ccaca40e8dede40d0d2ced60a31b6044820152606490fd5b34610328576020366003190112610328577f5fb4654f1efe30c6141eaa6855ffcb27e0b361d899b05e21b1a4d0b3e71e14db60206004356106db611e28565b80600a55604051908152a1005b6001600160a01b0381160361032857565b3461032857602036600319011261032857600435610716816106e8565b60018060a01b031660005260066020526020604060002054604051908152f35b815181526020808301516001600160a01b0316908201526101e08101939261081f9290916101a0916040818101516001600160a01b0316908301526060818101516001600160a01b031690830152608081015160808301526107a060a082015160a084019061047a565b6107b260c082015160c0840190610491565b60e081015160e08301526107cf6101008083015190840190610491565b6101208181015190830152610140808201516001600160a01b0316908301526101608181015190830152610180908101519082015282516001600160a01b03169101908152602091820151910152565b565b346103285760203660031901126103285760043560405161084181612143565b6101806000918281528260208201528260408201528260608201528260808201528260a08201528260c08201528260e082015282610100820152826101208201528261014082015282610160820152015261089a612ecf565b506108d56108cf6108c96108b8846000526002602052604060002090565b936000526003602052604060002090565b926126d3565b916127f1565b906105da60405192839283610736565b3461032857602036600319011261032857601154604051633fabe5a360e21b815290600480359160a091849182906001600160a01b03165afa9182156109a657600092610971575b5061093a60008313612f5d565b620f42409081810291818304149015171561096c576105da9161095c916126b3565b6040519081529081906020820190565b6121c3565b61099391925060a03d811161099f575b61098b8183612195565b810190612f2b565b5050509050903861092d565b503d610981565b6121b7565b6060906003190112610328576004356109c3816106e8565b906024356109d0816106e8565b9060443590565b3461032857610a2c60206109ea366109ab565b91906109f4611e28565b60405163a9059cbb60e01b81526001600160a01b03909116600482015260248101929092529092839190829060009082906044820190565b03926001600160a01b03165af180156109a657610a4557005b610a659060203d8111610a67575b610a5d8183612195565b810190612649565b005b503d610a53565b34610328576000366003190112610328576013546040516001600160a01b039091168152602090f35b34610328576000366003190112610328576020600a54604051908152f35b3461032857600036600319011261032857610ace611e28565b60015460ff8160a01c1615610b155760ff60a01b19166001556040513381527f5db9ee0a495bf2e6ff9c91a7834c1ba4fdd244a5e8aa4e537bd38aeae4b073aa90602090a1005b60405162461bcd60e51b815260206004820152601460248201527314185d5cd8589b194e881b9bdd081c185d5cd95960621b6044820152606490fd5b34610328576000366003190112610328576011546040516001600160a01b039091168152602090f35b3461032857600036600319011261032857602060ff60015460a01c166040519015158152f35b3461032857602036600319011261032857600435600090815260036020908152604091829020805460019091015483516001600160a01b03909216825291810191909152f35b3461032857604036600319011261032857610c17600435610c06816106e8565b610c0e61245a565b60243590612bff565b6001600055005b34610328576020366003190112610328576004356000526002602052610c4760406000206126d3565b8051151580610c7d575b6105da9181610c6e575b5060405190151581529081906020820190565b61018091500151421138610c5b565b5060a0810151906005821015610475579015610c51565b346103285760003660031901126103285760206040516103e88152f35b3461032857602036600319011261032857600435610ccd61245a565b6000908082526002602052610ce7604083205415156124b0565b808252600260205260408220600181018054610d609291600491610421916103fc916103e29190610d22906001600160a01b03163314612ae5565b610d5360058701610d46610d37825460ff1690565b610d408161046b565b15612b31565b805460ff19166003179055565b546001600160a01b031690565b7f681705fdbd93dba3b679fd712577e9a86d57c5551c520f8c74857deb57f9623f8280a2610d8e6001600055565b80f35b6002111561032857565b60c036600319011261032857600435610db3816106e8565b606435610dbf81610d91565b60843590610dcc82610d91565b60a43567ffffffffffffffff8082116103285736602383011215610328578160040135908111610328573691016024011161032857610a65926044359060243590611e80565b3461032857600080600319360112610e7057610e2c611e28565b600180546001600160a01b0319811690915581906001600160a01b03167f8be0079c531659141344cd1fd0a4f28419497f9722a3daafe3b4186f6b6457e08280a380f35b80fd5b34610328576000366003190112610328576010546040516001600160a01b039091168152602090f35b3461032857600036600319011261032857610eb5611e28565b610ebd612413565b6001805460ff60a01b1916600160a01b1790556040513381527f62e78cea01bee320cd4e420270b5ea74000d11b0c9f74754ebdbfc544b05a25890602090a1005b6020908160408183019282815285518094520193019160005b828110610f25575050505090565b835185529381019392810192600101610f17565b3461032857604036600319011261032857602435610f5681612ee8565b90610f646040519283612195565b808252601f19610f7382612ee8565b0136602084013760009160043591600954925b83811080611036575b1561102557610fb0610fab826000526002602052604060002090565b6126d3565b805115159081611005575b81610ff6575b50610fd5575b610fd0906121d9565b610f86565b93610fee8186610fe8610fd09487612f00565b526121d9565b949050610fc7565b61018091500151421138610fc1565b905060a08101516110158161046b565b61101e8161046b565b1590610fbb565b848352604051806105da8582610efe565b50818510610f8f565b346103285760203660031901126103285760043561105b61245a565b6110f7611072826000526002602052604060002090565b61107e815415156124b0565b60046104216103fc6103e2600585016110aa61109b825460ff1690565b6110a48161046b565b15612d7c565b6110b9600b8701544211612dc8565b6001860180549091610d53916110ea906110e3906001600160a01b03165b6001600160a01b031690565b3314612e0b565b805460ff19166004179055565b7f681705fdbd93dba3b679fd712577e9a86d57c5551c520f8c74857deb57f9623f600080a2610a656001600055565b34610328576000366003190112610328576020600b54604051908152f35b3461032857611183611155366109ab565b929160018060a01b0316600052600560205260406000209060018060a01b0316600052602052604060002090565b90600052602052602060ff604060002054166040519015158152f35b34610328576000366003190112610328576001546040516001600160a01b039091168152602090f35b34610328576000366003190112610328576020600c54604051908152f35b34610328576000366003190112610328576020600e54604051908152f35b3461032857602036600319011261032857600435611221816106e8565b60018060a01b031660005260076020526020604060002054604051908152f35b3461032857604036600319011261032857602435600435611261826106e8565b61126961245a565b6000918183526002602052611283604084205415156124b0565b8183526002602052611297604084206126d3565b6020810151336001600160a01b0391821614918215611304575b5050156112cb576112c191612818565b610d8e6001600055565b60405162461bcd60e51b8152602060048201526011602482015270139bdd0818481c185c9d1a58da5c185b9d607a1b6044820152606490fd5b6040919250015116331438806112b1565b634e487b7160e01b600052603260045260246000fd5b80548210156113435760005260206000200190600090565b611315565b3461032857611387611359366109ab565b929160018060a01b0316600052600860205260406000209060018060a01b0316600052602052604060002090565b80548210156103285760209161139c9161132b565b90546040519160031b1c8152f35b34610328576000366003190112610328576020600954604051908152f35b346103285760006060366003190112610e7057806004356113e8816106e8565b604435906113f5826106e8565b6113fd611e28565b6001600160a01b031690813b15611460576040516323b872dd60e01b81523060048201526001600160a01b039190911660248083019190915235604482015291908290606490829084905af180156109a657611457575080f35b610d8e90612165565b5050fd5b3461032857604036600319011261032857600435611481816106e8565b6001600160a01b03166000908152600460205260409020805460243591908210156103285760209161139c9161132b565b34610328576000366003190112610328576020600d54604051908152f35b3461032857600080600319360112610e70576114ea61245a565b3360009081526006602090815260408083205460079092529091205482821580158082611652575b61151b90612b7d565b611619575b50508061156d575b60408051928352602083019190915233917ffa73d3ab3a92ed3f2b694757d8e4b2f3c293654b11b9c79111f8971f861b22b291819081015b0390a2610d8e6001600055565b336000908152600760205260409020839055601254611596906110d7906001600160a01b031681565b60405163a9059cbb60e01b81523360048201526024810183905291906020908390604490829088905af19081156109a6577ffa73d3ab3a92ed3f2b694757d8e4b2f3c293654b11b9c79111f8971f861b22b292611560926115fb575b50915050611528565b6116129060203d8111610a6757610a5d8183612195565b50386115f2565b336000908152600660205260409020829055838291611648575b8280929181923390f1156109a6578238611520565b6108fc9150611633565b50831515611512565b346103285760603660031901126103285767ffffffffffffffff600480358281116103285761168d90369083016102f7565b91602435848111610328576116a590369083016102f7565b9094604435908111610328576116be90369084016102f7565b90956116c8611e28565b82861480611807575b6116da90612e76565b60005b8681106116e657005b6116ff6110d76110d76116fa848b8b612e66565b612ec2565b9061170e6116fa82868c612e66565b9161171a828786612e66565b3590803b1561032857604080516323b872dd60e01b815230818b019081526001600160a01b0390961660208701528582019390935293600091839182908490829060600103925af19283156109a6577fbbde41973f9ce4890f7ad9762c23d8191f261fd643bdf13ed8bbc10549b49fcb6117e16117b86116fa868f8f908f98838e6117b2936116fa936117e99f6117ee575b50612e66565b97612e66565b6117c3868b8a612e66565b9351933584526001600160a01b039081169416929081906020820190565b0390a36121d9565b6116dd565b806117fb61180192612165565b806105de565b386117ac565b508282146116d1565b34610328576000366003190112610328576020600f54604051908152f35b34610328576040366003190112610328576000808080600435611850816106e8565b6024359061185c611e28565b82908215611877575b6001600160a01b031690f1156109a657005b6108fc9150611865565b60803660031901126103285760243560043561189c82610d91565b6044356118a8816106e8565b606435906118b461245a565b6118bc612413565b6000938385526020600281526118d7604087205415156124b0565b6118eb856000526002602052604060002090565b90600582019384549561190a60ff88166119048161046b565b156124f2565b600184015461192d90611925906001600160a01b03166110d7565b331415612533565b60028401805490976001600160a01b039160ff919061194e90841615612576565b60081c1661195b81610487565b611c0257505050866119706006840154612f9e565b91611988611980600b54856126a0565b612710900490565b9061199382856123f6565b9061199d87610487565b86611aa2575082809281926119b487341015612661565b60088801556013546119d0906110d7906001600160a01b031681565b828215611a99575bf1156109a6578087913411611a68575b5050926119ff611a11926007611a1e965b0161226b565b80546001600160a01b03191633179055565b805460ff19166001179055565b336000908152600460205260409020611a389082906123a6565b33907f45c4f9cbafe186141862608c493f28b823fde4c2142bedc3f5169961a73fdd228380a3610d8e6001600055565b8180611a788193989598346123f6565b818115611a90575b3390f1156109a6579285386119e8565b506108fc611a80565b506108fc6119d8565b93611ab287969997939293610487565b60018614611ad3575b5050505050906119ff611a11926007611a1e966119f9565b93611b2e8197969495611ae634156125fd565b601254611afd906110d7906001600160a01b031681565b6040516323b872dd60e01b815233600482015230602482015260448101929092529096879283919082906064820190565b03925af19182156109a657611b9b948793611be5575b506008890155601254611b61906110d7906001600160a01b031681565b60135460405163a9059cbb60e01b81526001600160a01b0390911660048201526024810192909252909384919082908c9082906044820190565b03925af180156109a657611a1e96611a11956119ff94600793611bc7575b508198508a93959650611abb565b81611bdd92903d10610a6757610a5d8183612195565b503880611bb9565b611bfb90843d8611610a6757610a5d8183612195565b5038611b44565b91945091959250831694611c178615156125b8565b853b15611d14576040516323b872dd60e01b8152336004820152306024820152604481018390529588908790606490829084905af19182156109a657611ced611a1195611cc6611a1194611a1e9a611cfc97611d01575b5084611c78612205565b6001600160a01b038516815291820152611c9c8c6000526003602052604060002090565b815181546001600160a01b0319166001600160a01b03919091161781559060019060200151910155565b3360009081526005602052604090205b9060018060a01b0316600052602052604060002090565b90600052602052604060002090565b6119ff565b806117fb611d0e92612165565b38611c6e565b8780fd5b346103285760003660031901126103285760206040516127108152f35b34610328576020366003190112610328576020611d53600435612f9e565b604051908152f35b3461032857602036600319011261032857600435611d78816106e8565b611d80611e28565b6001600160a01b03908116908115611dd457600154826bffffffffffffffffffffffff60a01b821617600155167f8be0079c531659141344cd1fd0a4f28419497f9722a3daafe3b4186f6b6457e0600080a3005b60405162461bcd60e51b815260206004820152602660248201527f4f776e61626c653a206e6577206f776e657220697320746865207a65726f206160448201526564647265737360d01b6064820152608490fd5b6001546001600160a01b03163303611e3c57565b606460405162461bcd60e51b815260206004820152602060248201527f4f776e61626c653a2063616c6c6572206973206e6f7420746865206f776e65726044820152fd5b91611e8961245a565b611e91612413565b6001600160a01b038316611ea681151561209e565b611eb1600a54612f9e565b92611ebe843410156120e1565b813b15610328576040516323b872dd60e01b815233600482015230602482015260448101829052600095909286908490606490829084905af19081156109a657611fbb8988611f87611f789b611fd599611a1199611ced9861208b575b506009549d8e95611f33611f2e886121d9565b600955565b611f3c426121e8565b95611f45612212565b978852336020890152604088018190526001600160a01b038a1660608901528b608089015260a088015260c0870161222b565b60e0850152610100840161222b565b896101208301528961014083015242610160830152610180820152611fb68a6000526002602052604060002090565b612283565b336000908152600460205260409020611cc69089906123a6565b611fe8611fe3600c546121d9565b600c55565b8181341161205f575b80809261200b6110d76110d760135460018060a01b031690565b828215612056575bf1156109a6577fdd0abcdffc76581d11646898ee4d7f269ca1e0c0b622d072d343100dad83ecb160405180612049339582612403565b0390a361081f6001600055565b506108fc612013565b80808061206c85346123f6565b818115612082575b3390f1156109a65781611ff1565b506108fc612074565b806117fb61209892612165565b38611f1b565b156120a557565b60405162461bcd60e51b8152602060048201526014602482015273125b9d985b1a59081391950818dbdb9d1c9858dd60621b6044820152606490fd5b156120e857565b60405162461bcd60e51b815260206004820152601860248201527f496e73756666696369656e74206c697374696e672066656500000000000000006044820152606490fd5b634e487b7160e01b600052604160045260246000fd5b6101a0810190811067ffffffffffffffff82111761216057604052565b61212d565b67ffffffffffffffff811161216057604052565b6040810190811067ffffffffffffffff82111761216057604052565b90601f8019910116810190811067ffffffffffffffff82111761216057604052565b6040513d6000823e3d90fd5b634e487b7160e01b600052601160045260246000fd5b600019811461096c5760010190565b9062093a80820180921161096c57565b9190820180921161096c57565b6040519061081f82612179565b6040519061081f82612143565b60058210156104755752565b61049b82610487565b9060058110156104755760ff80198354169116179055565b9061225681610487565b61ff0082549160081b169061ff001916179055565b9061227581610487565b60ff80198354169116179055565b8151815560208201516001820180546001600160a01b0319166001600160a01b0390921691909117905590600b906101809060408101516002850180546001600160a01b0319166001600160a01b0390921691909117905560608101516003850180546001600160a01b0319166001600160a01b039092169190911790556080810151600485015561233d6005850161232960a08401516123238161046b565b82612234565b60c08301519061233882610487565b61224c565b60e0810151600685015561236261010082015161235981610487565b6007860161226b565b61012081015160088501556101408101516009850180546001600160a01b0319166001600160a01b03909216919091179055610160810151600a8501550151910155565b908154916801000000000000000083101561216057826123ce91600161081f9501815561132b565b90919082549060031b91821b91600019901b1916179055565b60001981019190821161096c57565b9190820391821161096c57565b9190602083019261049b82610487565b60ff60015460a01c1661242257565b60405162461bcd60e51b815260206004820152601060248201526f14185d5cd8589b194e881c185d5cd95960821b6044820152606490fd5b60026000541461246b576002600055565b60405162461bcd60e51b815260206004820152601f60248201527f5265656e7472616e637947756172643a207265656e7472616e742063616c6c006044820152606490fd5b156124b757565b60405162461bcd60e51b815260206004820152601360248201527211d85b5948191bd95cc81b9bdd08195e1a5cdd606a1b6044820152606490fd5b156124f957565b60405162461bcd60e51b815260206004820152601260248201527147616d65206e6f7420617661696c61626c6560701b6044820152606490fd5b1561253a57565b60405162461bcd60e51b815260206004820152601460248201527343616e6e6f74206a6f696e206f776e2067616d6560601b6044820152606490fd5b1561257d57565b60405162461bcd60e51b815260206004820152601360248201527211d85b5948185b1c9958591e481a9bda5b9959606a1b6044820152606490fd5b156125bf57565b60405162461bcd60e51b8152602060048201526016602482015275125b9d985b1a590818da185b1b195b99d95c8813919560521b6044820152606490fd5b1561260457565b60405162461bcd60e51b815260206004820152601f60248201527f455448206e6f74206e656564656420666f722055534443207061796d656e74006044820152606490fd5b90816020910312610328575180151581036103285790565b1561266857565b60405162461bcd60e51b815260206004820152601060248201526f092dce6eaccccd2c6d2cadce8408aa8960831b6044820152606490fd5b8181029291811591840414171561096c57565b81156126bd570490565b634e487b7160e01b600052601260045260246000fd5b90600b6126de612212565b8354815260018401546001600160a01b031660208201529260028101546001600160a01b0316604085015260038101546001600160a01b031660608501526004810154608085015261274c60ff600583015461273f82821660a0890161221f565b60081c1660c0860161222b565b600681015460e0850152612771612767600783015460ff1690565b610100860161222b565b600881015461012085015260098101546001600160a01b0316610140850152600a8101546101608501520154610180830152565b156127ac57565b60405162461bcd60e51b815260206004820152601a60248201527f47616d65206e6f7420726561647920746f20636f6d706c6574650000000000006044820152606490fd5b906040516127fe81612179565b82546001600160a01b031681526001909201546020830152565b61282c816000526002602052604060002090565b6005810161284f6001612840835460ff1690565b6128498161046b565b146127a5565b805460ff191660021781556009820180546001600160a01b0319166001600160a01b038616179055805460081c60ff1661288881610487565b1580612ad8575b15612ac55760088201546128ac6128a7600d546121d9565b600d55565b6128c56128c0600e546006860154906121f8565b600e55565b600783015460ff166128d681610487565b80612a6c57506001600160a01b038516600090815260066020526040902061290091905b546121f8565b6001600160a01b0385166000908152600660205260409020555b600182018054909290612935906001600160a01b03166110d7565b6001600160a01b03909516948503612a03576001916129696129739260046104216103fc6103e2895460018060a01b031690565b5460081c60ff1690565b61297c81610487565b146129ab575b505b7f7f40df5127524300187445e867486da572aab86769c0212e0b392bd87c4ca97f600080a3565b6129fd9060206129f46129e46103e26129d66129d1886000526003602052604060002090565b6127f1565b94546001600160a01b031690565b83516001600160a01b031661040b565b910151906123a6565b38612982565b9150612a2b600191612969600285019460046104216103fc6103e2895460018060a01b031690565b612a3481610487565b14612a40575b50612984565b612a669060206129f46129e46103e26129d66129d1886000526003602052604060002090565b38612a3a565b80612a78600192610487565b14612a84575b5061291a565b6001600160a01b0385166000908152600760205260409020612aa691906128fa565b6001600160a01b03851660009081526007602052604090205538612a7e565b612ad36128a7600d546121d9565b61291a565b506008820154151561288f565b15612aec57565b60405162461bcd60e51b815260206004820152601760248201527f4f6e6c792063726561746f722063616e2063616e63656c0000000000000000006044820152606490fd5b15612b3857565b60405162461bcd60e51b815260206004820152601860248201527f47616d652063616e6e6f742062652063616e63656c6c656400000000000000006044820152606490fd5b15612b8457565b60405162461bcd60e51b81526020600482015260136024820152724e6f207265776172647320746f20636c61696d60681b6044820152606490fd5b8054908115612be95760001991820191612bd9838361132b565b909182549160031b1b1916905555565b634e487b7160e01b600052603160045260246000fd5b336000908152600860205260409020612c19908290611cd6565b9160005b835480821015612d375782612c3f612c35848861132b565b90549060031b1c90565b14612c535750612c4e906121d9565b612c1d565b612c81929394916123ce612c75612c35612c6f612c7c956123e7565b8661132b565b918461132b565b612bbf565b6001600160a01b03821691823b1561032857604080516323b872dd60e01b8152306004820152336024820152604481018490529160008360648183895af19081156109a65784611ced612d0e927fbbde41973f9ce4890f7ad9762c23d8191f261fd643bdf13ed8bbc10549b49fcb96612d1895612d24575b50336000908152600560205260409020611cd6565b805460ff19169055565b519182523391602090a3565b806117fb612d3192612165565b38612cf9565b60405162461bcd60e51b815260206004820152601f60248201527f4e4654206e6f7420666f756e6420696e20756e636c61696d6564206c697374006044820152606490fd5b15612d8357565b60405162461bcd60e51b815260206004820152601960248201527f47616d65206e6f7420696e2063726561746564207374617465000000000000006044820152606490fd5b15612dcf57565b60405162461bcd60e51b815260206004820152601460248201527311d85b59481b9bdd08195e1c1a5c9959081e595d60621b6044820152606490fd5b15612e1257565b60405162461bcd60e51b815260206004820152602660248201527f4f6e6c792063726561746f722063616e20776974686472617720657870697265604482015265642067616d6560d01b6064820152608490fd5b91908110156113435760051b0190565b15612e7d57565b60405162461bcd60e51b815260206004820152601860248201527f4172726179206c656e67746873206d757374206d6174636800000000000000006044820152606490fd5b35612ecc816106e8565b90565b60405190612edc82612179565b60006020838281520152565b67ffffffffffffffff81116121605760051b60200190565b80518210156113435760209160051b010190565b519069ffffffffffffffffffff8216820361032857565b908160a091031261032857612f3f81612f14565b91602082015191604081015191612ecc608060608401519301612f14565b15612f6457565b60405162461bcd60e51b8152602060048201526012602482015271125b9d985b1a59081c1c9a58d9481999595960721b6044820152606490fd5b601054604051633fabe5a360e21b81529060a090829060049082906001600160a01b03165afa9081156109a657600091613003575b50612fe060008213612f5d565b670de0b6b3a76400009182810292818404149015171561096c57612ecc916126b3565b61301b915060a03d811161099f5761098b8183612195565b505050905038612fd356fea2646970667358221220a2cf6677374aa062b378d02cdaf31ca7e7b3705cb5c179f418fcc8a8ad5b025c64736f6c63430008140033","opcodes":"PUSH1 0x80 CALLVALUE PUSH3 0x132 JUMPI PUSH1 0x1F PUSH3 0x31BF CODESIZE DUP2 SWAP1 SUB SWAP2 DUP3 ADD PUSH1 0x1F NOT AND DUP4 ADD SWAP2 PUSH1 0x1 PUSH1 0x1 PUSH1 0x40 SHL SUB DUP4 GT DUP5 DUP5 LT OR PUSH3 0x137 JUMPI DUP1 DUP5 SWAP3 PUSH1 0x80 SWAP5 PUSH1 0x40 MSTORE DUP4 CODECOPY DUP2 ADD SUB SLT PUSH3 0x132 JUMPI PUSH3 0x4D DUP2 PUSH3 0x14D JUMP JUMPDEST PUSH3 0x5B PUSH1 0x20 DUP4 ADD PUSH3 0x14D JUMP JUMPDEST PUSH3 0x77 PUSH1 0x60 PUSH3 0x6F PUSH1 0x40 DUP7 ADD PUSH3 0x14D JUMP JUMPDEST SWAP5 ADD PUSH3 0x14D JUMP JUMPDEST PUSH1 0x1 PUSH1 0x0 DUP2 DUP2 SSTORE SWAP1 SLOAD PUSH1 0x40 MLOAD SWAP6 PUSH1 0x1 PUSH1 0x1 PUSH1 0xA0 SHL SUB SWAP5 DUP6 SWAP4 SWAP2 SWAP3 DUP5 SWAP3 SWAP1 CALLER DUP5 DUP3 AND PUSH32 0x8BE0079C531659141344CD1FD0A4F28419497F9722A3DAAFE3B4186F6B6457E0 DUP5 DUP1 LOG3 PUSH1 0xFF PUSH1 0xA0 SHL NOT CALLER AND SWAP1 PUSH1 0x1 DUP1 PUSH1 0xA8 SHL SUB NOT AND OR PUSH1 0x1 SSTORE PUSH1 0x1 PUSH1 0x9 SSTORE PUSH3 0x30D40 PUSH1 0xA SSTORE PUSH2 0x15E PUSH1 0xB SSTORE DUP1 PUSH1 0xC SSTORE DUP1 PUSH1 0xD SSTORE DUP1 PUSH1 0xE SSTORE PUSH1 0xF SSTORE DUP2 PUSH1 0x1 DUP1 PUSH1 0xA0 SHL SUB NOT SWAP8 AND DUP8 PUSH1 0x10 SLOAD AND OR PUSH1 0x10 SSTORE AND DUP6 PUSH1 0x11 SLOAD AND OR PUSH1 0x11 SSTORE AND DUP4 PUSH1 0x12 SLOAD AND OR PUSH1 0x12 SSTORE AND SWAP1 PUSH1 0x13 SLOAD AND OR PUSH1 0x13 SSTORE PUSH2 0x305C SWAP1 DUP2 PUSH3 0x163 DUP3 CODECOPY RETURN JUMPDEST PUSH1 0x0 DUP1 REVERT JUMPDEST PUSH4 0x4E487B71 PUSH1 0xE0 SHL PUSH1 0x0 MSTORE PUSH1 0x41 PUSH1 0x4 MSTORE PUSH1 0x24 PUSH1 0x0 REVERT JUMPDEST MLOAD SWAP1 PUSH1 0x1 PUSH1 0x1 PUSH1 0xA0 SHL SUB DUP3 AND DUP3 SUB PUSH3 0x132 JUMPI JUMP INVALID PUSH1 0x80 PUSH1 0x40 MSTORE PUSH1 0x4 CALLDATASIZE LT ISZERO PUSH2 0x12 JUMPI PUSH1 0x0 DUP1 REVERT JUMPDEST PUSH1 0x0 CALLDATALOAD PUSH1 0xE0 SHR DUP1 PUSH4 0x8ED9D33 EQ PUSH2 0x2F2 JUMPI DUP1 PUSH4 0x117A5B90 EQ PUSH2 0x2ED JUMPI DUP1 PUSH4 0x11EAC855 EQ PUSH2 0x2E8 JUMPI DUP1 PUSH4 0x12E8E2C3 EQ PUSH2 0x2E3 JUMPI DUP1 PUSH4 0x131DBD09 EQ PUSH2 0x2DE JUMPI DUP1 PUSH4 0x1A68B691 EQ PUSH2 0x2D9 JUMPI DUP1 PUSH4 0x1B31ABDA EQ PUSH2 0x2D4 JUMPI DUP1 PUSH4 0x1FD462CD EQ PUSH2 0x2CF JUMPI DUP1 PUSH4 0x277327A5 EQ PUSH2 0x2CA JUMPI DUP1 PUSH4 0x2D656AD7 EQ PUSH2 0x293 JUMPI DUP1 PUSH4 0x3A38D063 EQ PUSH2 0x2C5 JUMPI DUP1 PUSH4 0x3F4BA83A EQ PUSH2 0x2C0 JUMPI DUP1 PUSH4 0x4D9A75E5 EQ PUSH2 0x2BB JUMPI DUP1 PUSH4 0x5C975ABB EQ PUSH2 0x2B6 JUMPI DUP1 PUSH4 0x5E37EF51 EQ PUSH2 0x2B1 JUMPI DUP1 PUSH4 0x6088E93A EQ PUSH2 0x2AC JUMPI DUP1 PUSH4 0x65B3A7CA EQ PUSH2 0x2A7 JUMPI DUP1 PUSH4 0x67D81740 EQ PUSH2 0x2A2 JUMPI DUP1 PUSH4 0x69958AB9 EQ PUSH2 0x29D JUMPI DUP1 PUSH4 0x6E9088E7 EQ PUSH2 0x298 JUMPI DUP1 PUSH4 0x707D1848 EQ PUSH2 0x293 JUMPI DUP1 PUSH4 0x715018A6 EQ PUSH2 0x28E JUMPI DUP1 PUSH4 0x8009B7BD EQ PUSH2 0x289 JUMPI DUP1 PUSH4 0x8456CB59 EQ PUSH2 0x284 JUMPI DUP1 PUSH4 0x84AE4246 EQ PUSH2 0x27F JUMPI DUP1 PUSH4 0x8AFEC443 EQ PUSH2 0x27A JUMPI DUP1 PUSH4 0x8C639A85 EQ PUSH2 0x275 JUMPI DUP1 PUSH4 0x8CBE09ED EQ PUSH2 0x270 JUMPI DUP1 PUSH4 0x8DA5CB5B EQ PUSH2 0x26B JUMPI DUP1 PUSH4 0x8DBB15BB EQ PUSH2 0x266 JUMPI DUP1 PUSH4 0x9291CCD5 EQ PUSH2 0x261 JUMPI DUP1 PUSH4 0x95D11520 EQ PUSH2 0x25C JUMPI DUP1 PUSH4 0xA6FF6689 EQ PUSH2 0x257 JUMPI DUP1 PUSH4 0xAA4209B8 EQ PUSH2 0x252 JUMPI DUP1 PUSH4 0xB135BBB0 EQ PUSH2 0x24D JUMPI DUP1 PUSH4 0xB1A81295 EQ PUSH2 0x248 JUMPI DUP1 PUSH4 0xBC0167CD EQ PUSH2 0x243 JUMPI DUP1 PUSH4 0xBCF17B3A EQ PUSH2 0x23E JUMPI DUP1 PUSH4 0xC7B8981C EQ PUSH2 0x239 JUMPI DUP1 PUSH4 0xCB9A2630 EQ PUSH2 0x234 JUMPI DUP1 PUSH4 0xD3631FA5 EQ PUSH2 0x22F JUMPI DUP1 PUSH4 0xD79E8567 EQ PUSH2 0x22A JUMPI DUP1 PUSH4 0xD84CBC45 EQ PUSH2 0x225 JUMPI DUP1 PUSH4 0xE1F1C4A7 EQ PUSH2 0x220 JUMPI DUP1 PUSH4 0xEF46B2AB EQ PUSH2 0x21B JUMPI PUSH4 0xF2FDE38B EQ PUSH2 0x216 JUMPI PUSH1 0x0 DUP1 REVERT JUMPDEST PUSH2 0x1D5B JUMP JUMPDEST PUSH2 0x1D35 JUMP JUMPDEST PUSH2 0x1D18 JUMP JUMPDEST PUSH2 0x1881 JUMP JUMPDEST PUSH2 0x182E JUMP JUMPDEST PUSH2 0x1810 JUMP JUMPDEST PUSH2 0x165B JUMP JUMPDEST PUSH2 0x14D0 JUMP JUMPDEST PUSH2 0x14B2 JUMP JUMPDEST PUSH2 0x1464 JUMP JUMPDEST PUSH2 0x13C8 JUMP JUMPDEST PUSH2 0x13AA JUMP JUMPDEST PUSH2 0x1348 JUMP JUMPDEST PUSH2 0x1241 JUMP JUMPDEST PUSH2 0x1204 JUMP JUMPDEST PUSH2 0x11E6 JUMP JUMPDEST PUSH2 0x11C8 JUMP JUMPDEST PUSH2 0x119F JUMP JUMPDEST PUSH2 0x1144 JUMP JUMPDEST PUSH2 0x1126 JUMP JUMPDEST PUSH2 0x103F JUMP JUMPDEST PUSH2 0xF39 JUMP JUMPDEST PUSH2 0xE9C JUMP JUMPDEST PUSH2 0xE73 JUMP JUMPDEST PUSH2 0xE12 JUMP JUMPDEST PUSH2 0xA6E JUMP JUMPDEST PUSH2 0xD9B JUMP JUMPDEST PUSH2 0xCB1 JUMP JUMPDEST PUSH2 0xC94 JUMP JUMPDEST PUSH2 0xC1E JUMP JUMPDEST PUSH2 0xBE6 JUMP JUMPDEST PUSH2 0xBA0 JUMP JUMPDEST PUSH2 0xB7A JUMP JUMPDEST PUSH2 0xB51 JUMP JUMPDEST PUSH2 0xAB5 JUMP JUMPDEST PUSH2 0xA97 JUMP JUMPDEST PUSH2 0x9D7 JUMP JUMPDEST PUSH2 0x8E5 JUMP JUMPDEST PUSH2 0x821 JUMP JUMPDEST PUSH2 0x6F9 JUMP JUMPDEST PUSH2 0x69C JUMP JUMPDEST PUSH2 0x612 JUMP JUMPDEST PUSH2 0x5E9 JUMP JUMPDEST PUSH2 0x526 JUMP JUMPDEST PUSH2 0x32D JUMP JUMPDEST SWAP2 DUP2 PUSH1 0x1F DUP5 ADD SLT ISZERO PUSH2 0x328 JUMPI DUP3 CALLDATALOAD SWAP2 PUSH8 0xFFFFFFFFFFFFFFFF DUP4 GT PUSH2 0x328 JUMPI PUSH1 0x20 DUP1 DUP6 ADD SWAP5 DUP5 PUSH1 0x5 SHL ADD ADD GT PUSH2 0x328 JUMPI JUMP JUMPDEST PUSH1 0x0 DUP1 REVERT JUMPDEST CALLVALUE PUSH2 0x328 JUMPI PUSH1 0x20 CALLDATASIZE PUSH1 0x3 NOT ADD SLT PUSH2 0x328 JUMPI PUSH1 0x4 DUP1 CALLDATALOAD PUSH8 0xFFFFFFFFFFFFFFFF DUP2 GT PUSH2 0x328 JUMPI PUSH2 0x35E SWAP1 CALLDATASIZE SWAP1 DUP4 ADD PUSH2 0x2F7 JUMP JUMPDEST SWAP2 PUSH2 0x367 PUSH2 0x1E28 JUMP JUMPDEST PUSH1 0x0 JUMPDEST DUP4 DUP2 LT PUSH2 0x373 JUMPI STOP JUMPDEST DUP1 PUSH2 0x396 PUSH2 0x385 PUSH2 0x3B1 SWAP4 DUP8 DUP8 PUSH2 0x2E66 JUMP JUMPDEST CALLDATALOAD PUSH1 0x0 MSTORE PUSH1 0x2 PUSH1 0x20 MSTORE PUSH1 0x40 PUSH1 0x0 KECCAK256 SWAP1 JUMP JUMPDEST DUP1 SLOAD ISZERO ISZERO DUP1 PUSH2 0x43D JUMPI JUMPDEST DUP1 PUSH2 0x430 JUMPI JUMPDEST PUSH2 0x3B6 JUMPI JUMPDEST POP PUSH2 0x21D9 JUMP JUMPDEST PUSH2 0x36A JUMP JUMPDEST PUSH1 0x5 DUP2 ADD DUP1 SLOAD PUSH1 0xFF NOT AND PUSH1 0x4 OR SWAP1 SSTORE PUSH2 0x42A SWAP1 PUSH1 0x1 DUP2 ADD SLOAD DUP6 SWAP1 PUSH2 0x421 SWAP1 PUSH2 0x3FC SWAP1 PUSH1 0x1 PUSH1 0x1 PUSH1 0xA0 SHL SUB AND JUMPDEST PUSH1 0x1 PUSH1 0x1 PUSH1 0xA0 SHL SUB AND PUSH1 0x0 SWAP1 DUP2 MSTORE PUSH1 0x8 PUSH1 0x20 MSTORE PUSH1 0x40 SWAP1 KECCAK256 SWAP1 JUMP JUMPDEST PUSH1 0x3 DUP5 ADD SLOAD PUSH1 0x1 PUSH1 0x1 PUSH1 0xA0 SHL SUB AND JUMPDEST PUSH1 0x1 DUP1 PUSH1 0xA0 SHL SUB AND PUSH1 0x0 MSTORE PUSH1 0x20 MSTORE PUSH1 0x40 PUSH1 0x0 KECCAK256 SWAP1 JUMP JUMPDEST SWAP2 ADD SLOAD SWAP1 PUSH2 0x23A6 JUMP JUMPDEST CODESIZE PUSH2 0x3AB JUMP JUMPDEST POP PUSH1 0xB DUP2 ADD SLOAD TIMESTAMP GT PUSH2 0x3A6 JUMP JUMPDEST POP PUSH1 0x5 DUP2 ADD SLOAD PUSH1 0xFF AND PUSH2 0x44F DUP2 PUSH2 0x46B JUMP JUMPDEST ISZERO PUSH2 0x3A0 JUMP JUMPDEST PUSH4 0x4E487B71 PUSH1 0xE0 SHL PUSH1 0x0 MSTORE PUSH1 0x21 PUSH1 0x4 MSTORE PUSH1 0x24 PUSH1 0x0 REVERT JUMPDEST PUSH1 0x5 GT ISZERO PUSH2 0x475 JUMPI JUMP JUMPDEST PUSH2 0x455 JUMP JUMPDEST SWAP1 PUSH1 0x5 DUP3 LT ISZERO PUSH2 0x475 JUMPI MSTORE JUMP JUMPDEST PUSH1 0x2 GT ISZERO PUSH2 0x475 JUMPI JUMP JUMPDEST SWAP1 PUSH2 0x49B DUP3 PUSH2 0x487 JUMP JUMPDEST MSTORE JUMP JUMPDEST SWAP11 SWAP8 SWAP5 SWAP2 SWAP4 DUP12 SWAP2 SWAP15 SWAP14 SWAP13 SWAP11 SWAP8 SWAP5 SWAP10 SWAP7 SWAP4 SWAP10 PUSH2 0x1A0 DUP4 ADD SWAP16 DUP4 MSTORE PUSH1 0x1 PUSH1 0xA0 SHL PUSH1 0x1 SWAP1 SUB SWAP11 DUP12 SWAP4 DUP5 DUP1 SWAP4 AND SWAP1 PUSH1 0x20 ADD MSTORE AND PUSH1 0x40 DUP14 ADD MSTORE AND PUSH1 0x60 DUP12 ADD MSTORE PUSH1 0x80 DUP11 ADD MSTORE PUSH1 0xA0 DUP10 ADD PUSH2 0x4EA SWAP2 PUSH2 0x47A JUMP JUMPDEST PUSH2 0x4F3 DUP2 PUSH2 0x487 JUMP JUMPDEST PUSH1 0xC0 DUP9 ADD MSTORE PUSH1 0xE0 DUP8 ADD MSTORE PUSH2 0x506 DUP2 PUSH2 0x487 JUMP JUMPDEST PUSH2 0x100 DUP7 ADD MSTORE PUSH2 0x120 DUP6 ADD MSTORE AND PUSH2 0x140 DUP4 ADD MSTORE PUSH2 0x160 DUP3 ADD MSTORE PUSH2 0x180 ADD MSTORE JUMP JUMPDEST CALLVALUE PUSH2 0x328 JUMPI PUSH1 0x20 CALLDATASIZE PUSH1 0x3 NOT ADD SLT PUSH2 0x328 JUMPI PUSH1 0x4 CALLDATALOAD PUSH1 0x0 SWAP1 DUP2 MSTORE PUSH1 0x2 PUSH1 0x20 MSTORE PUSH1 0x40 SWAP1 KECCAK256 DUP1 SLOAD PUSH1 0x1 DUP3 ADD SLOAD PUSH2 0x5DA SWAP1 PUSH1 0x1 PUSH1 0x1 PUSH1 0xA0 SHL SUB AND PUSH1 0x2 DUP5 ADD SLOAD SWAP1 SWAP3 SWAP1 PUSH1 0x1 PUSH1 0x1 PUSH1 0xA0 SHL SUB AND PUSH1 0x3 DUP6 ADD SLOAD SWAP1 SWAP5 SWAP1 PUSH1 0x1 PUSH1 0x1 PUSH1 0xA0 SHL SUB AND SWAP2 PUSH1 0x4 DUP3 ADD SLOAD SWAP1 PUSH1 0x5 DUP4 ADD SLOAD PUSH1 0x6 DUP5 ADD SLOAD PUSH2 0x59D PUSH1 0x7 DUP7 ADD SLOAD PUSH1 0xFF AND SWAP1 JUMP JUMPDEST PUSH1 0x8 DUP7 ADD SLOAD PUSH1 0x9 DUP8 ADD SLOAD SWAP1 SWAP5 SWAP2 SWAP4 SWAP2 SWAP1 PUSH1 0x1 PUSH1 0x1 PUSH1 0xA0 SHL SUB AND SWAP6 PUSH1 0xB PUSH1 0xA DUP10 ADD SLOAD SWAP9 ADD SLOAD SWAP9 PUSH1 0x40 MLOAD SWAP13 DUP14 SWAP13 DUP14 SWAP5 PUSH1 0xFF DUP1 DUP9 PUSH1 0x8 SHR AND SWAP8 AND SWAP6 PUSH2 0x49E JUMP JUMPDEST SUB SWAP1 RETURN JUMPDEST PUSH1 0x0 SWAP2 SUB SLT PUSH2 0x328 JUMPI JUMP JUMPDEST CALLVALUE PUSH2 0x328 JUMPI PUSH1 0x0 CALLDATASIZE PUSH1 0x3 NOT ADD SLT PUSH2 0x328 JUMPI PUSH1 0x12 SLOAD PUSH1 0x40 MLOAD PUSH1 0x1 PUSH1 0x1 PUSH1 0xA0 SHL SUB SWAP1 SWAP2 AND DUP2 MSTORE PUSH1 0x20 SWAP1 RETURN JUMPDEST CALLVALUE PUSH2 0x328 JUMPI PUSH1 0x20 CALLDATASIZE PUSH1 0x3 NOT ADD SLT PUSH2 0x328 JUMPI PUSH1 0x4 CALLDATALOAD PUSH2 0x62E PUSH2 0x1E28 JUMP JUMPDEST PUSH2 0x3E8 DUP2 GT PUSH2 0x668 JUMPI PUSH1 0x20 DUP2 PUSH32 0x45610D581145924DD7090A5017E5F2B1D6F42213BB2E95707FF86846BBFCB1CA SWAP3 PUSH1 0xB SSTORE PUSH1 0x40 MLOAD SWAP1 DUP2 MSTORE LOG1 STOP JUMPDEST PUSH1 0x40 MLOAD PUSH3 0x461BCD PUSH1 0xE5 SHL DUP2 MSTORE PUSH1 0x20 PUSH1 0x4 DUP3 ADD MSTORE PUSH1 0xC PUSH1 0x24 DUP3 ADD MSTORE PUSH12 0x8CCACA40E8DEDE40D0D2CED PUSH1 0xA3 SHL PUSH1 0x44 DUP3 ADD MSTORE PUSH1 0x64 SWAP1 REVERT JUMPDEST CALLVALUE PUSH2 0x328 JUMPI PUSH1 0x20 CALLDATASIZE PUSH1 0x3 NOT ADD SLT PUSH2 0x328 JUMPI PUSH32 0x5FB4654F1EFE30C6141EAA6855FFCB27E0B361D899B05E21B1A4D0B3E71E14DB PUSH1 0x20 PUSH1 0x4 CALLDATALOAD PUSH2 0x6DB PUSH2 0x1E28 JUMP JUMPDEST DUP1 PUSH1 0xA SSTORE PUSH1 0x40 MLOAD SWAP1 DUP2 MSTORE LOG1 STOP JUMPDEST PUSH1 0x1 PUSH1 0x1 PUSH1 0xA0 SHL SUB DUP2 AND SUB PUSH2 0x328 JUMPI JUMP JUMPDEST CALLVALUE PUSH2 0x328 JUMPI PUSH1 0x20 CALLDATASIZE PUSH1 0x3 NOT ADD SLT PUSH2 0x328 JUMPI PUSH1 0x4 CALLDATALOAD PUSH2 0x716 DUP2 PUSH2 0x6E8 JUMP JUMPDEST PUSH1 0x1 DUP1 PUSH1 0xA0 SHL SUB AND PUSH1 0x0 MSTORE PUSH1 0x6 PUSH1 0x20 MSTORE PUSH1 0x20 PUSH1 0x40 PUSH1 0x0 KECCAK256 SLOAD PUSH1 0x40 MLOAD SWAP1 DUP2 MSTORE RETURN JUMPDEST DUP2 MLOAD DUP2 MSTORE PUSH1 0x20 DUP1 DUP4 ADD MLOAD PUSH1 0x1 PUSH1 0x1 PUSH1 0xA0 SHL SUB AND SWAP1 DUP3 ADD MSTORE PUSH2 0x1E0 DUP2 ADD SWAP4 SWAP3 PUSH2 0x81F SWAP3 SWAP1 SWAP2 PUSH2 0x1A0 SWAP2 PUSH1 0x40 DUP2 DUP2 ADD MLOAD PUSH1 0x1 PUSH1 0x1 PUSH1 0xA0 SHL SUB AND SWAP1 DUP4 ADD MSTORE PUSH1 0x60 DUP2 DUP2 ADD MLOAD PUSH1 0x1 PUSH1 0x1 PUSH1 0xA0 SHL SUB AND SWAP1 DUP4 ADD MSTORE PUSH1 0x80 DUP2 ADD MLOAD PUSH1 0x80 DUP4 ADD MSTORE PUSH2 0x7A0 PUSH1 0xA0 DUP3 ADD MLOAD PUSH1 0xA0 DUP5 ADD SWAP1 PUSH2 0x47A JUMP JUMPDEST PUSH2 0x7B2 PUSH1 0xC0 DUP3 ADD MLOAD PUSH1 0xC0 DUP5 ADD SWAP1 PUSH2 0x491 JUMP JUMPDEST PUSH1 0xE0 DUP2 ADD MLOAD PUSH1 0xE0 DUP4 ADD MSTORE PUSH2 0x7CF PUSH2 0x100 DUP1 DUP4 ADD MLOAD SWAP1 DUP5 ADD SWAP1 PUSH2 0x491 JUMP JUMPDEST PUSH2 0x120 DUP2 DUP2 ADD MLOAD SWAP1 DUP4 ADD MSTORE PUSH2 0x140 DUP1 DUP3 ADD MLOAD PUSH1 0x1 PUSH1 0x1 PUSH1 0xA0 SHL SUB AND SWAP1 DUP4 ADD MSTORE PUSH2 0x160 DUP2 DUP2 ADD MLOAD SWAP1 DUP4 ADD MSTORE PUSH2 0x180 SWAP1 DUP2 ADD MLOAD SWAP1 DUP3 ADD MSTORE DUP3 MLOAD PUSH1 0x1 PUSH1 0x1 PUSH1 0xA0 SHL SUB AND SWAP2 ADD SWAP1 DUP2 MSTORE PUSH1 0x20 SWAP2 DUP3 ADD MLOAD SWAP2 ADD MSTORE JUMP JUMPDEST JUMP JUMPDEST CALLVALUE PUSH2 0x328 JUMPI PUSH1 0x20 CALLDATASIZE PUSH1 0x3 NOT ADD SLT PUSH2 0x328 JUMPI PUSH1 0x4 CALLDATALOAD PUSH1 0x40 MLOAD PUSH2 0x841 DUP2 PUSH2 0x2143 JUMP JUMPDEST PUSH2 0x180 PUSH1 0x0 SWAP2 DUP3 DUP2 MSTORE DUP3 PUSH1 0x20 DUP3 ADD MSTORE DUP3 PUSH1 0x40 DUP3 ADD MSTORE DUP3 PUSH1 0x60 DUP3 ADD MSTORE DUP3 PUSH1 0x80 DUP3 ADD MSTORE DUP3 PUSH1 0xA0 DUP3 ADD MSTORE DUP3 PUSH1 0xC0 DUP3 ADD MSTORE DUP3 PUSH1 0xE0 DUP3 ADD MSTORE DUP3 PUSH2 0x100 DUP3 ADD MSTORE DUP3 PUSH2 0x120 DUP3 ADD MSTORE DUP3 PUSH2 0x140 DUP3 ADD MSTORE DUP3 PUSH2 0x160 DUP3 ADD MSTORE ADD MSTORE PUSH2 0x89A PUSH2 0x2ECF JUMP JUMPDEST POP PUSH2 0x8D5 PUSH2 0x8CF PUSH2 0x8C9 PUSH2 0x8B8 DUP5 PUSH1 0x0 MSTORE PUSH1 0x2 PUSH1 0x20 MSTORE PUSH1 0x40 PUSH1 0x0 KECCAK256 SWAP1 JUMP JUMPDEST SWAP4 PUSH1 0x0 MSTORE PUSH1 0x3 PUSH1 0x20 MSTORE PUSH1 0x40 PUSH1 0x0 KECCAK256 SWAP1 JUMP JUMPDEST SWAP3 PUSH2 0x26D3 JUMP JUMPDEST SWAP2 PUSH2 0x27F1 JUMP JUMPDEST SWAP1 PUSH2 0x5DA PUSH1 0x40 MLOAD SWAP3 DUP4 SWAP3 DUP4 PUSH2 0x736 JUMP JUMPDEST CALLVALUE PUSH2 0x328 JUMPI PUSH1 0x20 CALLDATASIZE PUSH1 0x3 NOT ADD SLT PUSH2 0x328 JUMPI PUSH1 0x11 SLOAD PUSH1 0x40 MLOAD PUSH4 0x3FABE5A3 PUSH1 0xE2 SHL DUP2 MSTORE SWAP1 PUSH1 0x4 DUP1 CALLDATALOAD SWAP2 PUSH1 0xA0 SWAP2 DUP5 SWAP2 DUP3 SWAP1 PUSH1 0x1 PUSH1 0x1 PUSH1 0xA0 SHL SUB AND GAS STATICCALL SWAP2 DUP3 ISZERO PUSH2 0x9A6 JUMPI PUSH1 0x0 SWAP3 PUSH2 0x971 JUMPI JUMPDEST POP PUSH2 0x93A PUSH1 0x0 DUP4 SGT PUSH2 0x2F5D JUMP JUMPDEST PUSH3 0xF4240 SWAP1 DUP2 DUP2 MUL SWAP2 DUP2 DUP4 DIV EQ SWAP1 ISZERO OR ISZERO PUSH2 0x96C JUMPI PUSH2 0x5DA SWAP2 PUSH2 0x95C SWAP2 PUSH2 0x26B3 JUMP JUMPDEST PUSH1 0x40 MLOAD SWAP1 DUP2 MSTORE SWAP1 DUP2 SWAP1 PUSH1 0x20 DUP3 ADD SWAP1 JUMP JUMPDEST PUSH2 0x21C3 JUMP JUMPDEST PUSH2 0x993 SWAP2 SWAP3 POP PUSH1 0xA0 RETURNDATASIZE DUP2 GT PUSH2 0x99F JUMPI JUMPDEST PUSH2 0x98B DUP2 DUP4 PUSH2 0x2195 JUMP JUMPDEST DUP2 ADD SWAP1 PUSH2 0x2F2B JUMP JUMPDEST POP POP POP SWAP1 POP SWAP1 CODESIZE PUSH2 0x92D JUMP JUMPDEST POP RETURNDATASIZE PUSH2 0x981 JUMP JUMPDEST PUSH2 0x21B7 JUMP JUMPDEST PUSH1 0x60 SWAP1 PUSH1 0x3 NOT ADD SLT PUSH2 0x328 JUMPI PUSH1 0x4 CALLDATALOAD PUSH2 0x9C3 DUP2 PUSH2 0x6E8 JUMP JUMPDEST SWAP1 PUSH1 0x24 CALLDATALOAD PUSH2 0x9D0 DUP2 PUSH2 0x6E8 JUMP JUMPDEST SWAP1 PUSH1 0x44 CALLDATALOAD SWAP1 JUMP JUMPDEST CALLVALUE PUSH2 0x328 JUMPI PUSH2 0xA2C PUSH1 0x20 PUSH2 0x9EA CALLDATASIZE PUSH2 0x9AB JUMP JUMPDEST SWAP2 SWAP1 PUSH2 0x9F4 PUSH2 0x1E28 JUMP JUMPDEST PUSH1 0x40 MLOAD PUSH4 0xA9059CBB PUSH1 0xE0 SHL DUP2 MSTORE PUSH1 0x1 PUSH1 0x1 PUSH1 0xA0 SHL SUB SWAP1 SWAP2 AND PUSH1 0x4 DUP3 ADD MSTORE PUSH1 0x24 DUP2 ADD SWAP3 SWAP1 SWAP3 MSTORE SWAP1 SWAP3 DUP4 SWAP2 SWAP1 DUP3 SWAP1 PUSH1 0x0 SWAP1 DUP3 SWAP1 PUSH1 0x44 DUP3 ADD SWAP1 JUMP JUMPDEST SUB SWAP3 PUSH1 0x1 PUSH1 0x1 PUSH1 0xA0 SHL SUB AND GAS CALL DUP1 ISZERO PUSH2 0x9A6 JUMPI PUSH2 0xA45 JUMPI STOP JUMPDEST PUSH2 0xA65 SWAP1 PUSH1 0x20 RETURNDATASIZE DUP2 GT PUSH2 0xA67 JUMPI JUMPDEST PUSH2 0xA5D DUP2 DUP4 PUSH2 0x2195 JUMP JUMPDEST DUP2 ADD SWAP1 PUSH2 0x2649 JUMP JUMPDEST STOP JUMPDEST POP RETURNDATASIZE PUSH2 0xA53 JUMP JUMPDEST CALLVALUE PUSH2 0x328 JUMPI PUSH1 0x0 CALLDATASIZE PUSH1 0x3 NOT ADD SLT PUSH2 0x328 JUMPI PUSH1 0x13 SLOAD PUSH1 0x40 MLOAD PUSH1 0x1 PUSH1 0x1 PUSH1 0xA0 SHL SUB SWAP1 SWAP2 AND DUP2 MSTORE PUSH1 0x20 SWAP1 RETURN JUMPDEST CALLVALUE PUSH2 0x328 JUMPI PUSH1 0x0 CALLDATASIZE PUSH1 0x3 NOT ADD SLT PUSH2 0x328 JUMPI PUSH1 0x20 PUSH1 0xA SLOAD PUSH1 0x40 MLOAD SWAP1 DUP2 MSTORE RETURN JUMPDEST CALLVALUE PUSH2 0x328 JUMPI PUSH1 0x0 CALLDATASIZE PUSH1 0x3 NOT ADD SLT PUSH2 0x328 JUMPI PUSH2 0xACE PUSH2 0x1E28 JUMP JUMPDEST PUSH1 0x1 SLOAD PUSH1 0xFF DUP2 PUSH1 0xA0 SHR AND ISZERO PUSH2 0xB15 JUMPI PUSH1 0xFF PUSH1 0xA0 SHL NOT AND PUSH1 0x1 SSTORE PUSH1 0x40 MLOAD CALLER DUP2 MSTORE PUSH32 0x5DB9EE0A495BF2E6FF9C91A7834C1BA4FDD244A5E8AA4E537BD38AEAE4B073AA SWAP1 PUSH1 0x20 SWAP1 LOG1 STOP JUMPDEST PUSH1 0x40 MLOAD PUSH3 0x461BCD PUSH1 0xE5 SHL DUP2 MSTORE PUSH1 0x20 PUSH1 0x4 DUP3 ADD MSTORE PUSH1 0x14 PUSH1 0x24 DUP3 ADD MSTORE PUSH20 0x14185D5CD8589B194E881B9BDD081C185D5CD959 PUSH1 0x62 SHL PUSH1 0x44 DUP3 ADD MSTORE PUSH1 0x64 SWAP1 REVERT JUMPDEST CALLVALUE PUSH2 0x328 JUMPI PUSH1 0x0 CALLDATASIZE PUSH1 0x3 NOT ADD SLT PUSH2 0x328 JUMPI PUSH1 0x11 SLOAD PUSH1 0x40 MLOAD PUSH1 0x1 PUSH1 0x1 PUSH1 0xA0 SHL SUB SWAP1 SWAP2 AND DUP2 MSTORE PUSH1 0x20 SWAP1 RETURN JUMPDEST CALLVALUE PUSH2 0x328 JUMPI PUSH1 0x0 CALLDATASIZE PUSH1 0x3 NOT ADD SLT PUSH2 0x328 JUMPI PUSH1 0x20 PUSH1 0xFF PUSH1 0x1 SLOAD PUSH1 0xA0 SHR AND PUSH1 0x40 MLOAD SWAP1 ISZERO ISZERO DUP2 MSTORE RETURN JUMPDEST CALLVALUE PUSH2 0x328 JUMPI PUSH1 0x20 CALLDATASIZE PUSH1 0x3 NOT ADD SLT PUSH2 0x328 JUMPI PUSH1 0x4 CALLDATALOAD PUSH1 0x0 SWAP1 DUP2 MSTORE PUSH1 0x3 PUSH1 0x20 SWAP1 DUP2 MSTORE PUSH1 0x40 SWAP2 DUP3 SWAP1 KECCAK256 DUP1 SLOAD PUSH1 0x1 SWAP1 SWAP2 ADD SLOAD DUP4 MLOAD PUSH1 0x1 PUSH1 0x1 PUSH1 0xA0 SHL SUB SWAP1 SWAP3 AND DUP3 MSTORE SWAP2 DUP2 ADD SWAP2 SWAP1 SWAP2 MSTORE RETURN JUMPDEST CALLVALUE PUSH2 0x328 JUMPI PUSH1 0x40 CALLDATASIZE PUSH1 0x3 NOT ADD SLT PUSH2 0x328 JUMPI PUSH2 0xC17 PUSH1 0x4 CALLDATALOAD PUSH2 0xC06 DUP2 PUSH2 0x6E8 JUMP JUMPDEST PUSH2 0xC0E PUSH2 0x245A JUMP JUMPDEST PUSH1 0x24 CALLDATALOAD SWAP1 PUSH2 0x2BFF JUMP JUMPDEST PUSH1 0x1 PUSH1 0x0 SSTORE STOP JUMPDEST CALLVALUE PUSH2 0x328 JUMPI PUSH1 0x20 CALLDATASIZE PUSH1 0x3 NOT ADD SLT PUSH2 0x328 JUMPI PUSH1 0x4 CALLDATALOAD PUSH1 0x0 MSTORE PUSH1 0x2 PUSH1 0x20 MSTORE PUSH2 0xC47 PUSH1 0x40 PUSH1 0x0 KECCAK256 PUSH2 0x26D3 JUMP JUMPDEST DUP1 MLOAD ISZERO ISZERO DUP1 PUSH2 0xC7D JUMPI JUMPDEST PUSH2 0x5DA SWAP2 DUP2 PUSH2 0xC6E JUMPI JUMPDEST POP PUSH1 0x40 MLOAD SWAP1 ISZERO ISZERO DUP2 MSTORE SWAP1 DUP2 SWAP1 PUSH1 0x20 DUP3 ADD SWAP1 JUMP JUMPDEST PUSH2 0x180 SWAP2 POP ADD MLOAD TIMESTAMP GT CODESIZE PUSH2 0xC5B JUMP JUMPDEST POP PUSH1 0xA0 DUP2 ADD MLOAD SWAP1 PUSH1 0x5 DUP3 LT ISZERO PUSH2 0x475 JUMPI SWAP1 ISZERO PUSH2 0xC51 JUMP JUMPDEST CALLVALUE PUSH2 0x328 JUMPI PUSH1 0x0 CALLDATASIZE PUSH1 0x3 NOT ADD SLT PUSH2 0x328 JUMPI PUSH1 0x20 PUSH1 0x40 MLOAD PUSH2 0x3E8 DUP2 MSTORE RETURN JUMPDEST CALLVALUE PUSH2 0x328 JUMPI PUSH1 0x20 CALLDATASIZE PUSH1 0x3 NOT ADD SLT PUSH2 0x328 JUMPI PUSH1 0x4 CALLDATALOAD PUSH2 0xCCD PUSH2 0x245A JUMP JUMPDEST PUSH1 0x0 SWAP1 DUP1 DUP3 MSTORE PUSH1 0x2 PUSH1 0x20 MSTORE PUSH2 0xCE7 PUSH1 0x40 DUP4 KECCAK256 SLOAD ISZERO ISZERO PUSH2 0x24B0 JUMP JUMPDEST DUP1 DUP3 MSTORE PUSH1 0x2 PUSH1 0x20 MSTORE PUSH1 0x40 DUP3 KECCAK256 PUSH1 0x1 DUP2 ADD DUP1 SLOAD PUSH2 0xD60 SWAP3 SWAP2 PUSH1 0x4 SWAP2 PUSH2 0x421 SWAP2 PUSH2 0x3FC SWAP2 PUSH2 0x3E2 SWAP2 SWAP1 PUSH2 0xD22 SWAP1 PUSH1 0x1 PUSH1 0x1 PUSH1 0xA0 SHL SUB AND CALLER EQ PUSH2 0x2AE5 JUMP JUMPDEST PUSH2 0xD53 PUSH1 0x5 DUP8 ADD PUSH2 0xD46 PUSH2 0xD37 DUP3 SLOAD PUSH1 0xFF AND SWAP1 JUMP JUMPDEST PUSH2 0xD40 DUP2 PUSH2 0x46B JUMP JUMPDEST ISZERO PUSH2 0x2B31 JUMP JUMPDEST DUP1 SLOAD PUSH1 0xFF NOT AND PUSH1 0x3 OR SWAP1 SSTORE JUMP JUMPDEST SLOAD PUSH1 0x1 PUSH1 0x1 PUSH1 0xA0 SHL SUB AND SWAP1 JUMP JUMPDEST PUSH32 0x681705FDBD93DBA3B679FD712577E9A86D57C5551C520F8C74857DEB57F9623F DUP3 DUP1 LOG2 PUSH2 0xD8E PUSH1 0x1 PUSH1 0x0 SSTORE JUMP JUMPDEST DUP1 RETURN JUMPDEST PUSH1 0x2 GT ISZERO PUSH2 0x328 JUMPI JUMP JUMPDEST PUSH1 0xC0 CALLDATASIZE PUSH1 0x3 NOT ADD SLT PUSH2 0x328 JUMPI PUSH1 0x4 CALLDATALOAD PUSH2 0xDB3 DUP2 PUSH2 0x6E8 JUMP JUMPDEST PUSH1 0x64 CALLDATALOAD PUSH2 0xDBF DUP2 PUSH2 0xD91 JUMP JUMPDEST PUSH1 0x84 CALLDATALOAD SWAP1 PUSH2 0xDCC DUP3 PUSH2 0xD91 JUMP JUMPDEST PUSH1 0xA4 CALLDATALOAD PUSH8 0xFFFFFFFFFFFFFFFF DUP1 DUP3 GT PUSH2 0x328 JUMPI CALLDATASIZE PUSH1 0x23 DUP4 ADD SLT ISZERO PUSH2 0x328 JUMPI DUP2 PUSH1 0x4 ADD CALLDATALOAD SWAP1 DUP2 GT PUSH2 0x328 JUMPI CALLDATASIZE SWAP2 ADD PUSH1 0x24 ADD GT PUSH2 0x328 JUMPI PUSH2 0xA65 SWAP3 PUSH1 0x44 CALLDATALOAD SWAP1 PUSH1 0x24 CALLDATALOAD SWAP1 PUSH2 0x1E80 JUMP JUMPDEST CALLVALUE PUSH2 0x328 JUMPI PUSH1 0x0 DUP1 PUSH1 0x3 NOT CALLDATASIZE ADD SLT PUSH2 0xE70 JUMPI PUSH2 0xE2C PUSH2 0x1E28 JUMP JUMPDEST PUSH1 0x1 DUP1 SLOAD PUSH1 0x1 PUSH1 0x1 PUSH1 0xA0 SHL SUB NOT DUP2 AND SWAP1 SWAP2 SSTORE DUP2 SWAP1 PUSH1 0x1 PUSH1 0x1 PUSH1 0xA0 SHL SUB AND PUSH32 0x8BE0079C531659141344CD1FD0A4F28419497F9722A3DAAFE3B4186F6B6457E0 DUP3 DUP1 LOG3 DUP1 RETURN JUMPDEST DUP1 REVERT JUMPDEST CALLVALUE PUSH2 0x328 JUMPI PUSH1 0x0 CALLDATASIZE PUSH1 0x3 NOT ADD SLT PUSH2 0x328 JUMPI PUSH1 0x10 SLOAD PUSH1 0x40 MLOAD PUSH1 0x1 PUSH1 0x1 PUSH1 0xA0 SHL SUB SWAP1 SWAP2 AND DUP2 MSTORE PUSH1 0x20 SWAP1 RETURN JUMPDEST CALLVALUE PUSH2 0x328 JUMPI PUSH1 0x0 CALLDATASIZE PUSH1 0x3 NOT ADD SLT PUSH2 0x328 JUMPI PUSH2 0xEB5 PUSH2 0x1E28 JUMP JUMPDEST PUSH2 0xEBD PUSH2 0x2413 JUMP JUMPDEST PUSH1 0x1 DUP1 SLOAD PUSH1 0xFF PUSH1 0xA0 SHL NOT AND PUSH1 0x1 PUSH1 0xA0 SHL OR SWAP1 SSTORE PUSH1 0x40 MLOAD CALLER DUP2 MSTORE PUSH32 0x62E78CEA01BEE320CD4E420270B5EA74000D11B0C9F74754EBDBFC544B05A258 SWAP1 PUSH1 0x20 SWAP1 LOG1 STOP JUMPDEST PUSH1 0x20 SWAP1 DUP2 PUSH1 0x40 DUP2 DUP4 ADD SWAP3 DUP3 DUP2 MSTORE DUP6 MLOAD DUP1 SWAP5 MSTORE ADD SWAP4 ADD SWAP2 PUSH1 0x0 JUMPDEST DUP3 DUP2 LT PUSH2 0xF25 JUMPI POP POP POP POP SWAP1 JUMP JUMPDEST DUP4 MLOAD DUP6 MSTORE SWAP4 DUP2 ADD SWAP4 SWAP3 DUP2 ADD SWAP3 PUSH1 0x1 ADD PUSH2 0xF17 JUMP JUMPDEST CALLVALUE PUSH2 0x328 JUMPI PUSH1 0x40 CALLDATASIZE PUSH1 0x3 NOT ADD SLT PUSH2 0x328 JUMPI PUSH1 0x24 CALLDATALOAD PUSH2 0xF56 DUP2 PUSH2 0x2EE8 JUMP JUMPDEST SWAP1 PUSH2 0xF64 PUSH1 0x40 MLOAD SWAP3 DUP4 PUSH2 0x2195 JUMP JUMPDEST DUP1 DUP3 MSTORE PUSH1 0x1F NOT PUSH2 0xF73 DUP3 PUSH2 0x2EE8 JUMP JUMPDEST ADD CALLDATASIZE PUSH1 0x20 DUP5 ADD CALLDATACOPY PUSH1 0x0 SWAP2 PUSH1 0x4 CALLDATALOAD SWAP2 PUSH1 0x9 SLOAD SWAP3 JUMPDEST DUP4 DUP2 LT DUP1 PUSH2 0x1036 JUMPI JUMPDEST ISZERO PUSH2 0x1025 JUMPI PUSH2 0xFB0 PUSH2 0xFAB DUP3 PUSH1 0x0 MSTORE PUSH1 0x2 PUSH1 0x20 MSTORE PUSH1 0x40 PUSH1 0x0 KECCAK256 SWAP1 JUMP JUMPDEST PUSH2 0x26D3 JUMP JUMPDEST DUP1 MLOAD ISZERO ISZERO SWAP1 DUP2 PUSH2 0x1005 JUMPI JUMPDEST DUP2 PUSH2 0xFF6 JUMPI JUMPDEST POP PUSH2 0xFD5 JUMPI JUMPDEST PUSH2 0xFD0 SWAP1 PUSH2 0x21D9 JUMP JUMPDEST PUSH2 0xF86 JUMP JUMPDEST SWAP4 PUSH2 0xFEE DUP2 DUP7 PUSH2 0xFE8 PUSH2 0xFD0 SWAP5 DUP8 PUSH2 0x2F00 JUMP JUMPDEST MSTORE PUSH2 0x21D9 JUMP JUMPDEST SWAP5 SWAP1 POP PUSH2 0xFC7 JUMP JUMPDEST PUSH2 0x180 SWAP2 POP ADD MLOAD TIMESTAMP GT CODESIZE PUSH2 0xFC1 JUMP JUMPDEST SWAP1 POP PUSH1 0xA0 DUP2 ADD MLOAD PUSH2 0x1015 DUP2 PUSH2 0x46B JUMP JUMPDEST PUSH2 0x101E DUP2 PUSH2 0x46B JUMP JUMPDEST ISZERO SWAP1 PUSH2 0xFBB JUMP JUMPDEST DUP5 DUP4 MSTORE PUSH1 0x40 MLOAD DUP1 PUSH2 0x5DA DUP6 DUP3 PUSH2 0xEFE JUMP JUMPDEST POP DUP2 DUP6 LT PUSH2 0xF8F JUMP JUMPDEST CALLVALUE PUSH2 0x328 JUMPI PUSH1 0x20 CALLDATASIZE PUSH1 0x3 NOT ADD SLT PUSH2 0x328 JUMPI PUSH1 0x4 CALLDATALOAD PUSH2 0x105B PUSH2 0x245A JUMP JUMPDEST PUSH2 0x10F7 PUSH2 0x1072 DUP3 PUSH1 0x0 MSTORE PUSH1 0x2 PUSH1 0x20 MSTORE PUSH1 0x40 PUSH1 0x0 KECCAK256 SWAP1 JUMP JUMPDEST PUSH2 0x107E DUP2 SLOAD ISZERO ISZERO PUSH2 0x24B0 JUMP JUMPDEST PUSH1 0x4 PUSH2 0x421 PUSH2 0x3FC PUSH2 0x3E2 PUSH1 0x5 DUP6 ADD PUSH2 0x10AA PUSH2 0x109B DUP3 SLOAD PUSH1 0xFF AND SWAP1 JUMP JUMPDEST PUSH2 0x10A4 DUP2 PUSH2 0x46B JUMP JUMPDEST ISZERO PUSH2 0x2D7C JUMP JUMPDEST PUSH2 0x10B9 PUSH1 0xB DUP8 ADD SLOAD TIMESTAMP GT PUSH2 0x2DC8 JUMP JUMPDEST PUSH1 0x1 DUP7 ADD DUP1 SLOAD SWAP1 SWAP2 PUSH2 0xD53 SWAP2 PUSH2 0x10EA SWAP1 PUSH2 0x10E3 SWAP1 PUSH1 0x1 PUSH1 0x1 PUSH1 0xA0 SHL SUB AND JUMPDEST PUSH1 0x1 PUSH1 0x1 PUSH1 0xA0 SHL SUB AND SWAP1 JUMP JUMPDEST CALLER EQ PUSH2 0x2E0B JUMP JUMPDEST DUP1 SLOAD PUSH1 0xFF NOT AND PUSH1 0x4 OR SWAP1 SSTORE JUMP JUMPDEST PUSH32 0x681705FDBD93DBA3B679FD712577E9A86D57C5551C520F8C74857DEB57F9623F PUSH1 0x0 DUP1 LOG2 PUSH2 0xA65 PUSH1 0x1 PUSH1 0x0 SSTORE JUMP JUMPDEST CALLVALUE PUSH2 0x328 JUMPI PUSH1 0x0 CALLDATASIZE PUSH1 0x3 NOT ADD SLT PUSH2 0x328 JUMPI PUSH1 0x20 PUSH1 0xB SLOAD PUSH1 0x40 MLOAD SWAP1 DUP2 MSTORE RETURN JUMPDEST CALLVALUE PUSH2 0x328 JUMPI PUSH2 0x1183 PUSH2 0x1155 CALLDATASIZE PUSH2 0x9AB JUMP JUMPDEST SWAP3 SWAP2 PUSH1 0x1 DUP1 PUSH1 0xA0 SHL SUB AND PUSH1 0x0 MSTORE PUSH1 0x5 PUSH1 0x20 MSTORE PUSH1 0x40 PUSH1 0x0 KECCAK256 SWAP1 PUSH1 0x1 DUP1 PUSH1 0xA0 SHL SUB AND PUSH1 0x0 MSTORE PUSH1 0x20 MSTORE PUSH1 0x40 PUSH1 0x0 KECCAK256 SWAP1 JUMP JUMPDEST SWAP1 PUSH1 0x0 MSTORE PUSH1 0x20 MSTORE PUSH1 0x20 PUSH1 0xFF PUSH1 0x40 PUSH1 0x0 KECCAK256 SLOAD AND PUSH1 0x40 MLOAD SWAP1 ISZERO ISZERO DUP2 MSTORE RETURN JUMPDEST CALLVALUE PUSH2 0x328 JUMPI PUSH1 0x0 CALLDATASIZE PUSH1 0x3 NOT ADD SLT PUSH2 0x328 JUMPI PUSH1 0x1 SLOAD PUSH1 0x40 MLOAD PUSH1 0x1 PUSH1 0x1 PUSH1 0xA0 SHL SUB SWAP1 SWAP2 AND DUP2 MSTORE PUSH1 0x20 SWAP1 RETURN JUMPDEST CALLVALUE PUSH2 0x328 JUMPI PUSH1 0x0 CALLDATASIZE PUSH1 0x3 NOT ADD SLT PUSH2 0x328 JUMPI PUSH1 0x20 PUSH1 0xC SLOAD PUSH1 0x40 MLOAD SWAP1 DUP2 MSTORE RETURN JUMPDEST CALLVALUE PUSH2 0x328 JUMPI PUSH1 0x0 CALLDATASIZE PUSH1 0x3 NOT ADD SLT PUSH2 0x328 JUMPI PUSH1 0x20 PUSH1 0xE SLOAD PUSH1 0x40 MLOAD SWAP1 DUP2 MSTORE RETURN JUMPDEST CALLVALUE PUSH2 0x328 JUMPI PUSH1 0x20 CALLDATASIZE PUSH1 0x3 NOT ADD SLT PUSH2 0x328 JUMPI PUSH1 0x4 CALLDATALOAD PUSH2 0x1221 DUP2 PUSH2 0x6E8 JUMP JUMPDEST PUSH1 0x1 DUP1 PUSH1 0xA0 SHL SUB AND PUSH1 0x0 MSTORE PUSH1 0x7 PUSH1 0x20 MSTORE PUSH1 0x20 PUSH1 0x40 PUSH1 0x0 KECCAK256 SLOAD PUSH1 0x40 MLOAD SWAP1 DUP2 MSTORE RETURN JUMPDEST CALLVALUE PUSH2 0x328 JUMPI PUSH1 0x40 CALLDATASIZE PUSH1 0x3 NOT ADD SLT PUSH2 0x328 JUMPI PUSH1 0x24 CALLDATALOAD PUSH1 0x4 CALLDATALOAD PUSH2 0x1261 DUP3 PUSH2 0x6E8 JUMP JUMPDEST PUSH2 0x1269 PUSH2 0x245A JUMP JUMPDEST PUSH1 0x0 SWAP2 DUP2 DUP4 MSTORE PUSH1 0x2 PUSH1 0x20 MSTORE PUSH2 0x1283 PUSH1 0x40 DUP5 KECCAK256 SLOAD ISZERO ISZERO PUSH2 0x24B0 JUMP JUMPDEST DUP2 DUP4 MSTORE PUSH1 0x2 PUSH1 0x20 MSTORE PUSH2 0x1297 PUSH1 0x40 DUP5 KECCAK256 PUSH2 0x26D3 JUMP JUMPDEST PUSH1 0x20 DUP2 ADD MLOAD CALLER PUSH1 0x1 PUSH1 0x1 PUSH1 0xA0 SHL SUB SWAP2 DUP3 AND EQ SWAP2 DUP3 ISZERO PUSH2 0x1304 JUMPI JUMPDEST POP POP ISZERO PUSH2 0x12CB JUMPI PUSH2 0x12C1 SWAP2 PUSH2 0x2818 JUMP JUMPDEST PUSH2 0xD8E PUSH1 0x1 PUSH1 0x0 SSTORE JUMP JUMPDEST PUSH1 0x40 MLOAD PUSH3 0x461BCD PUSH1 0xE5 SHL DUP2 MSTORE PUSH1 0x20 PUSH1 0x4 DUP3 ADD MSTORE PUSH1 0x11 PUSH1 0x24 DUP3 ADD MSTORE PUSH17 0x139BDD0818481C185C9D1A58DA5C185B9D PUSH1 0x7A SHL PUSH1 0x44 DUP3 ADD MSTORE PUSH1 0x64 SWAP1 REVERT JUMPDEST PUSH1 0x40 SWAP2 SWAP3 POP ADD MLOAD AND CALLER EQ CODESIZE DUP1 PUSH2 0x12B1 JUMP JUMPDEST PUSH4 0x4E487B71 PUSH1 0xE0 SHL PUSH1 0x0 MSTORE PUSH1 0x32 PUSH1 0x4 MSTORE PUSH1 0x24 PUSH1 0x0 REVERT JUMPDEST DUP1 SLOAD DUP3 LT ISZERO PUSH2 0x1343 JUMPI PUSH1 0x0 MSTORE PUSH1 0x20 PUSH1 0x0 KECCAK256 ADD SWAP1 PUSH1 0x0 SWAP1 JUMP JUMPDEST PUSH2 0x1315 JUMP JUMPDEST CALLVALUE PUSH2 0x328 JUMPI PUSH2 0x1387 PUSH2 0x1359 CALLDATASIZE PUSH2 0x9AB JUMP JUMPDEST SWAP3 SWAP2 PUSH1 0x1 DUP1 PUSH1 0xA0 SHL SUB AND PUSH1 0x0 MSTORE PUSH1 0x8 PUSH1 0x20 MSTORE PUSH1 0x40 PUSH1 0x0 KECCAK256 SWAP1 PUSH1 0x1 DUP1 PUSH1 0xA0 SHL SUB AND PUSH1 0x0 MSTORE PUSH1 0x20 MSTORE PUSH1 0x40 PUSH1 0x0 KECCAK256 SWAP1 JUMP JUMPDEST DUP1 SLOAD DUP3 LT ISZERO PUSH2 0x328 JUMPI PUSH1 0x20 SWAP2 PUSH2 0x139C SWAP2 PUSH2 0x132B JUMP JUMPDEST SWAP1 SLOAD PUSH1 0x40 MLOAD SWAP2 PUSH1 0x3 SHL SHR DUP2 MSTORE RETURN JUMPDEST CALLVALUE PUSH2 0x328 JUMPI PUSH1 0x0 CALLDATASIZE PUSH1 0x3 NOT ADD SLT PUSH2 0x328 JUMPI PUSH1 0x20 PUSH1 0x9 SLOAD PUSH1 0x40 MLOAD SWAP1 DUP2 MSTORE RETURN JUMPDEST CALLVALUE PUSH2 0x328 JUMPI PUSH1 0x0 PUSH1 0x60 CALLDATASIZE PUSH1 0x3 NOT ADD SLT PUSH2 0xE70 JUMPI DUP1 PUSH1 0x4 CALLDATALOAD PUSH2 0x13E8 DUP2 PUSH2 0x6E8 JUMP JUMPDEST PUSH1 0x44 CALLDATALOAD SWAP1 PUSH2 0x13F5 DUP3 PUSH2 0x6E8 JUMP JUMPDEST PUSH2 0x13FD PUSH2 0x1E28 JUMP JUMPDEST PUSH1 0x1 PUSH1 0x1 PUSH1 0xA0 SHL SUB AND SWAP1 DUP2 EXTCODESIZE ISZERO PUSH2 0x1460 JUMPI PUSH1 0x40 MLOAD PUSH4 0x23B872DD PUSH1 0xE0 SHL DUP2 MSTORE ADDRESS PUSH1 0x4 DUP3 ADD MSTORE PUSH1 0x1 PUSH1 0x1 PUSH1 0xA0 SHL SUB SWAP2 SWAP1 SWAP2 AND PUSH1 0x24 DUP1 DUP4 ADD SWAP2 SWAP1 SWAP2 MSTORE CALLDATALOAD PUSH1 0x44 DUP3 ADD MSTORE SWAP2 SWAP1 DUP3 SWAP1 PUSH1 0x64 SWAP1 DUP3 SWAP1 DUP5 SWAP1 GAS CALL DUP1 ISZERO PUSH2 0x9A6 JUMPI PUSH2 0x1457 JUMPI POP DUP1 RETURN JUMPDEST PUSH2 0xD8E SWAP1 PUSH2 0x2165 JUMP JUMPDEST POP POP REVERT JUMPDEST CALLVALUE PUSH2 0x328 JUMPI PUSH1 0x40 CALLDATASIZE PUSH1 0x3 NOT ADD SLT PUSH2 0x328 JUMPI PUSH1 0x4 CALLDATALOAD PUSH2 0x1481 DUP2 PUSH2 0x6E8 JUMP JUMPDEST PUSH1 0x1 PUSH1 0x1 PUSH1 0xA0 SHL SUB AND PUSH1 0x0 SWAP1 DUP2 MSTORE PUSH1 0x4 PUSH1 0x20 MSTORE PUSH1 0x40 SWAP1 KECCAK256 DUP1 SLOAD PUSH1 0x24 CALLDATALOAD SWAP2 SWAP1 DUP3 LT ISZERO PUSH2 0x328 JUMPI PUSH1 0x20 SWAP2 PUSH2 0x139C SWAP2 PUSH2 0x132B JUMP JUMPDEST CALLVALUE PUSH2 0x328 JUMPI PUSH1 0x0 CALLDATASIZE PUSH1 0x3 NOT ADD SLT PUSH2 0x328 JUMPI PUSH1 0x20 PUSH1 0xD SLOAD PUSH1 0x40 MLOAD SWAP1 DUP2 MSTORE RETURN JUMPDEST CALLVALUE PUSH2 0x328 JUMPI PUSH1 0x0 DUP1 PUSH1 0x3 NOT CALLDATASIZE ADD SLT PUSH2 0xE70 JUMPI PUSH2 0x14EA PUSH2 0x245A JUMP JUMPDEST CALLER PUSH1 0x0 SWAP1 DUP2 MSTORE PUSH1 0x6 PUSH1 0x20 SWAP1 DUP2 MSTORE PUSH1 0x40 DUP1 DUP4 KECCAK256 SLOAD PUSH1 0x7 SWAP1 SWAP3 MSTORE SWAP1 SWAP2 KECCAK256 SLOAD DUP3 DUP3 ISZERO DUP1 ISZERO DUP1 DUP3 PUSH2 0x1652 JUMPI JUMPDEST PUSH2 0x151B SWAP1 PUSH2 0x2B7D JUMP JUMPDEST PUSH2 0x1619 JUMPI JUMPDEST POP POP DUP1 PUSH2 0x156D JUMPI JUMPDEST PUSH1 0x40 DUP1 MLOAD SWAP3 DUP4 MSTORE PUSH1 0x20 DUP4 ADD SWAP2 SWAP1 SWAP2 MSTORE CALLER SWAP2 PUSH32 0xFA73D3AB3A92ED3F2B694757D8E4B2F3C293654B11B9C79111F8971F861B22B2 SWAP2 DUP2 SWAP1 DUP2 ADD JUMPDEST SUB SWAP1 LOG2 PUSH2 0xD8E PUSH1 0x1 PUSH1 0x0 SSTORE JUMP JUMPDEST CALLER PUSH1 0x0 SWAP1 DUP2 MSTORE PUSH1 0x7 PUSH1 0x20 MSTORE PUSH1 0x40 SWAP1 KECCAK256 DUP4 SWAP1 SSTORE PUSH1 0x12 SLOAD PUSH2 0x1596 SWAP1 PUSH2 0x10D7 SWAP1 PUSH1 0x1 PUSH1 0x1 PUSH1 0xA0 SHL SUB AND DUP2 JUMP JUMPDEST PUSH1 0x40 MLOAD PUSH4 0xA9059CBB PUSH1 0xE0 SHL DUP2 MSTORE CALLER PUSH1 0x4 DUP3 ADD MSTORE PUSH1 0x24 DUP2 ADD DUP4 SWAP1 MSTORE SWAP2 SWAP1 PUSH1 0x20 SWAP1 DUP4 SWAP1 PUSH1 0x44 SWAP1 DUP3 SWAP1 DUP9 SWAP1 GAS CALL SWAP1 DUP2 ISZERO PUSH2 0x9A6 JUMPI PUSH32 0xFA73D3AB3A92ED3F2B694757D8E4B2F3C293654B11B9C79111F8971F861B22B2 SWAP3 PUSH2 0x1560 SWAP3 PUSH2 0x15FB JUMPI JUMPDEST POP SWAP2 POP POP PUSH2 0x1528 JUMP JUMPDEST PUSH2 0x1612 SWAP1 PUSH1 0x20 RETURNDATASIZE DUP2 GT PUSH2 0xA67 JUMPI PUSH2 0xA5D DUP2 DUP4 PUSH2 0x2195 JUMP JUMPDEST POP CODESIZE PUSH2 0x15F2 JUMP JUMPDEST CALLER PUSH1 0x0 SWAP1 DUP2 MSTORE PUSH1 0x6 PUSH1 0x20 MSTORE PUSH1 0x40 SWAP1 KECCAK256 DUP3 SWAP1 SSTORE DUP4 DUP3 SWAP2 PUSH2 0x1648 JUMPI JUMPDEST DUP3 DUP1 SWAP3 SWAP2 DUP2 SWAP3 CALLER SWAP1 CALL ISZERO PUSH2 0x9A6 JUMPI DUP3 CODESIZE PUSH2 0x1520 JUMP JUMPDEST PUSH2 0x8FC SWAP2 POP PUSH2 0x1633 JUMP JUMPDEST POP DUP4 ISZERO ISZERO PUSH2 0x1512 JUMP JUMPDEST CALLVALUE PUSH2 0x328 JUMPI PUSH1 0x60 CALLDATASIZE PUSH1 0x3 NOT ADD SLT PUSH2 0x328 JUMPI PUSH8 0xFFFFFFFFFFFFFFFF PUSH1 0x4 DUP1 CALLDATALOAD DUP3 DUP2 GT PUSH2 0x328 JUMPI PUSH2 0x168D SWAP1 CALLDATASIZE SWAP1 DUP4 ADD PUSH2 0x2F7 JUMP JUMPDEST SWAP2 PUSH1 0x24 CALLDATALOAD DUP5 DUP2 GT PUSH2 0x328 JUMPI PUSH2 0x16A5 SWAP1 CALLDATASIZE SWAP1 DUP4 ADD PUSH2 0x2F7 JUMP JUMPDEST SWAP1 SWAP5 PUSH1 0x44 CALLDATALOAD SWAP1 DUP2 GT PUSH2 0x328 JUMPI PUSH2 0x16BE SWAP1 CALLDATASIZE SWAP1 DUP5 ADD PUSH2 0x2F7 JUMP JUMPDEST SWAP1 SWAP6 PUSH2 0x16C8 PUSH2 0x1E28 JUMP JUMPDEST DUP3 DUP7 EQ DUP1 PUSH2 0x1807 JUMPI JUMPDEST PUSH2 0x16DA SWAP1 PUSH2 0x2E76 JUMP JUMPDEST PUSH1 0x0 JUMPDEST DUP7 DUP2 LT PUSH2 0x16E6 JUMPI STOP JUMPDEST PUSH2 0x16FF PUSH2 0x10D7 PUSH2 0x10D7 PUSH2 0x16FA DUP5 DUP12 DUP12 PUSH2 0x2E66 JUMP JUMPDEST PUSH2 0x2EC2 JUMP JUMPDEST SWAP1 PUSH2 0x170E PUSH2 0x16FA DUP3 DUP7 DUP13 PUSH2 0x2E66 JUMP JUMPDEST SWAP2 PUSH2 0x171A DUP3 DUP8 DUP7 PUSH2 0x2E66 JUMP JUMPDEST CALLDATALOAD SWAP1 DUP1 EXTCODESIZE ISZERO PUSH2 0x328 JUMPI PUSH1 0x40 DUP1 MLOAD PUSH4 0x23B872DD PUSH1 0xE0 SHL DUP2 MSTORE ADDRESS DUP2 DUP12 ADD SWAP1 DUP2 MSTORE PUSH1 0x1 PUSH1 0x1 PUSH1 0xA0 SHL SUB SWAP1 SWAP7 AND PUSH1 0x20 DUP8 ADD MSTORE DUP6 DUP3 ADD SWAP4 SWAP1 SWAP4 MSTORE SWAP4 PUSH1 0x0 SWAP2 DUP4 SWAP2 DUP3 SWAP1 DUP5 SWAP1 DUP3 SWAP1 PUSH1 0x60 ADD SUB SWAP3 GAS CALL SWAP3 DUP4 ISZERO PUSH2 0x9A6 JUMPI PUSH32 0xBBDE41973F9CE4890F7AD9762C23D8191F261FD643BDF13ED8BBC10549B49FCB PUSH2 0x17E1 PUSH2 0x17B8 PUSH2 0x16FA DUP7 DUP16 DUP16 SWAP1 DUP16 SWAP9 DUP4 DUP15 PUSH2 0x17B2 SWAP4 PUSH2 0x16FA SWAP4 PUSH2 0x17E9 SWAP16 PUSH2 0x17EE JUMPI JUMPDEST POP PUSH2 0x2E66 JUMP JUMPDEST SWAP8 PUSH2 0x2E66 JUMP JUMPDEST PUSH2 0x17C3 DUP7 DUP12 DUP11 PUSH2 0x2E66 JUMP JUMPDEST SWAP4 MLOAD SWAP4 CALLDATALOAD DUP5 MSTORE PUSH1 0x1 PUSH1 0x1 PUSH1 0xA0 SHL SUB SWAP1 DUP2 AND SWAP5 AND SWAP3 SWAP1 DUP2 SWAP1 PUSH1 0x20 DUP3 ADD SWAP1 JUMP JUMPDEST SUB SWAP1 LOG3 PUSH2 0x21D9 JUMP JUMPDEST PUSH2 0x16DD JUMP JUMPDEST DUP1 PUSH2 0x17FB PUSH2 0x1801 SWAP3 PUSH2 0x2165 JUMP JUMPDEST DUP1 PUSH2 0x5DE JUMP JUMPDEST CODESIZE PUSH2 0x17AC JUMP JUMPDEST POP DUP3 DUP3 EQ PUSH2 0x16D1 JUMP JUMPDEST CALLVALUE PUSH2 0x328 JUMPI PUSH1 0x0 CALLDATASIZE PUSH1 0x3 NOT ADD SLT PUSH2 0x328 JUMPI PUSH1 0x20 PUSH1 0xF SLOAD PUSH1 0x40 MLOAD SWAP1 DUP2 MSTORE RETURN JUMPDEST CALLVALUE PUSH2 0x328 JUMPI PUSH1 0x40 CALLDATASIZE PUSH1 0x3 NOT ADD SLT PUSH2 0x328 JUMPI PUSH1 0x0 DUP1 DUP1 DUP1 PUSH1 0x4 CALLDATALOAD PUSH2 0x1850 DUP2 PUSH2 0x6E8 JUMP JUMPDEST PUSH1 0x24 CALLDATALOAD SWAP1 PUSH2 0x185C PUSH2 0x1E28 JUMP JUMPDEST DUP3 SWAP1 DUP3 ISZERO PUSH2 0x1877 JUMPI JUMPDEST PUSH1 0x1 PUSH1 0x1 PUSH1 0xA0 SHL SUB AND SWAP1 CALL ISZERO PUSH2 0x9A6 JUMPI STOP JUMPDEST PUSH2 0x8FC SWAP2 POP PUSH2 0x1865 JUMP JUMPDEST PUSH1 0x80 CALLDATASIZE PUSH1 0x3 NOT ADD SLT PUSH2 0x328 JUMPI PUSH1 0x24 CALLDATALOAD PUSH1 0x4 CALLDATALOAD PUSH2 0x189C DUP3 PUSH2 0xD91 JUMP JUMPDEST PUSH1 0x44 CALLDATALOAD PUSH2 0x18A8 DUP2 PUSH2 0x6E8 JUMP JUMPDEST PUSH1 0x64 CALLDATALOAD SWAP1 PUSH2 0x18B4 PUSH2 0x245A JUMP JUMPDEST PUSH2 0x18BC PUSH2 0x2413 JUMP JUMPDEST PUSH1 0x0 SWAP4 DUP4 DUP6 MSTORE PUSH1 0x20 PUSH1 0x2 DUP2 MSTORE PUSH2 0x18D7 PUSH1 0x40 DUP8 KECCAK256 SLOAD ISZERO ISZERO PUSH2 0x24B0 JUMP JUMPDEST PUSH2 0x18EB DUP6 PUSH1 0x0 MSTORE PUSH1 0x2 PUSH1 0x20 MSTORE PUSH1 0x40 PUSH1 0x0 KECCAK256 SWAP1 JUMP JUMPDEST SWAP1 PUSH1 0x5 DUP3 ADD SWAP4 DUP5 SLOAD SWAP6 PUSH2 0x190A PUSH1 0xFF DUP9 AND PUSH2 0x1904 DUP2 PUSH2 0x46B JUMP JUMPDEST ISZERO PUSH2 0x24F2 JUMP JUMPDEST PUSH1 0x1 DUP5 ADD SLOAD PUSH2 0x192D SWAP1 PUSH2 0x1925 SWAP1 PUSH1 0x1 PUSH1 0x1 PUSH1 0xA0 SHL SUB AND PUSH2 0x10D7 JUMP JUMPDEST CALLER EQ ISZERO PUSH2 0x2533 JUMP JUMPDEST PUSH1 0x2 DUP5 ADD DUP1 SLOAD SWAP1 SWAP8 PUSH1 0x1 PUSH1 0x1 PUSH1 0xA0 SHL SUB SWAP2 PUSH1 0xFF SWAP2 SWAP1 PUSH2 0x194E SWAP1 DUP5 AND ISZERO PUSH2 0x2576 JUMP JUMPDEST PUSH1 0x8 SHR AND PUSH2 0x195B DUP2 PUSH2 0x487 JUMP JUMPDEST PUSH2 0x1C02 JUMPI POP POP POP DUP7 PUSH2 0x1970 PUSH1 0x6 DUP5 ADD SLOAD PUSH2 0x2F9E JUMP JUMPDEST SWAP2 PUSH2 0x1988 PUSH2 0x1980 PUSH1 0xB SLOAD DUP6 PUSH2 0x26A0 JUMP JUMPDEST PUSH2 0x2710 SWAP1 DIV SWAP1 JUMP JUMPDEST SWAP1 PUSH2 0x1993 DUP3 DUP6 PUSH2 0x23F6 JUMP JUMPDEST SWAP1 PUSH2 0x199D DUP8 PUSH2 0x487 JUMP JUMPDEST DUP7 PUSH2 0x1AA2 JUMPI POP DUP3 DUP1 SWAP3 DUP2 SWAP3 PUSH2 0x19B4 DUP8 CALLVALUE LT ISZERO PUSH2 0x2661 JUMP JUMPDEST PUSH1 0x8 DUP9 ADD SSTORE PUSH1 0x13 SLOAD PUSH2 0x19D0 SWAP1 PUSH2 0x10D7 SWAP1 PUSH1 0x1 PUSH1 0x1 PUSH1 0xA0 SHL SUB AND DUP2 JUMP JUMPDEST DUP3 DUP3 ISZERO PUSH2 0x1A99 JUMPI JUMPDEST CALL ISZERO PUSH2 0x9A6 JUMPI DUP1 DUP8 SWAP2 CALLVALUE GT PUSH2 0x1A68 JUMPI JUMPDEST POP POP SWAP3 PUSH2 0x19FF PUSH2 0x1A11 SWAP3 PUSH1 0x7 PUSH2 0x1A1E SWAP7 JUMPDEST ADD PUSH2 0x226B JUMP JUMPDEST DUP1 SLOAD PUSH1 0x1 PUSH1 0x1 PUSH1 0xA0 SHL SUB NOT AND CALLER OR SWAP1 SSTORE JUMP JUMPDEST DUP1 SLOAD PUSH1 0xFF NOT AND PUSH1 0x1 OR SWAP1 SSTORE JUMP JUMPDEST CALLER PUSH1 0x0 SWAP1 DUP2 MSTORE PUSH1 0x4 PUSH1 0x20 MSTORE PUSH1 0x40 SWAP1 KECCAK256 PUSH2 0x1A38 SWAP1 DUP3 SWAP1 PUSH2 0x23A6 JUMP JUMPDEST CALLER SWAP1 PUSH32 0x45C4F9CBAFE186141862608C493F28B823FDE4C2142BEDC3F5169961A73FDD22 DUP4 DUP1 LOG3 PUSH2 0xD8E PUSH1 0x1 PUSH1 0x0 SSTORE JUMP JUMPDEST DUP2 DUP1 PUSH2 0x1A78 DUP2 SWAP4 SWAP9 SWAP6 SWAP9 CALLVALUE PUSH2 0x23F6 JUMP JUMPDEST DUP2 DUP2 ISZERO PUSH2 0x1A90 JUMPI JUMPDEST CALLER SWAP1 CALL ISZERO PUSH2 0x9A6 JUMPI SWAP3 DUP6 CODESIZE PUSH2 0x19E8 JUMP JUMPDEST POP PUSH2 0x8FC PUSH2 0x1A80 JUMP JUMPDEST POP PUSH2 0x8FC PUSH2 0x19D8 JUMP JUMPDEST SWAP4 PUSH2 0x1AB2 DUP8 SWAP7 SWAP10 SWAP8 SWAP4 SWAP3 SWAP4 PUSH2 0x487 JUMP JUMPDEST PUSH1 0x1 DUP7 EQ PUSH2 0x1AD3 JUMPI JUMPDEST POP POP POP POP POP SWAP1 PUSH2 0x19FF PUSH2 0x1A11 SWAP3 PUSH1 0x7 PUSH2 0x1A1E SWAP7 PUSH2 0x19F9 JUMP JUMPDEST SWAP4 PUSH2 0x1B2E DUP2 SWAP8 SWAP7 SWAP5 SWAP6 PUSH2 0x1AE6 CALLVALUE ISZERO PUSH2 0x25FD JUMP JUMPDEST PUSH1 0x12 SLOAD PUSH2 0x1AFD SWAP1 PUSH2 0x10D7 SWAP1 PUSH1 0x1 PUSH1 0x1 PUSH1 0xA0 SHL SUB AND DUP2 JUMP JUMPDEST PUSH1 0x40 MLOAD PUSH4 0x23B872DD PUSH1 0xE0 SHL DUP2 MSTORE CALLER PUSH1 0x4 DUP3 ADD MSTORE ADDRESS PUSH1 0x24 DUP3 ADD MSTORE PUSH1 0x44 DUP2 ADD SWAP3 SWAP1 SWAP3 MSTORE SWAP1 SWAP7 DUP8 SWAP3 DUP4 SWAP2 SWAP1 DUP3 SWAP1 PUSH1 0x64 DUP3 ADD SWAP1 JUMP JUMPDEST SUB SWAP3 GAS CALL SWAP2 DUP3 ISZERO PUSH2 0x9A6 JUMPI PUSH2 0x1B9B SWAP5 DUP8 SWAP4 PUSH2 0x1BE5 JUMPI JUMPDEST POP PUSH1 0x8 DUP10 ADD SSTORE PUSH1 0x12 SLOAD PUSH2 0x1B61 SWAP1 PUSH2 0x10D7 SWAP1 PUSH1 0x1 PUSH1 0x1 PUSH1 0xA0 SHL SUB AND DUP2 JUMP JUMPDEST PUSH1 0x13 SLOAD PUSH1 0x40 MLOAD PUSH4 0xA9059CBB PUSH1 0xE0 SHL DUP2 MSTORE PUSH1 0x1 PUSH1 0x1 PUSH1 0xA0 SHL SUB SWAP1 SWAP2 AND PUSH1 0x4 DUP3 ADD MSTORE PUSH1 0x24 DUP2 ADD SWAP3 SWAP1 SWAP3 MSTORE SWAP1 SWAP4 DUP5 SWAP2 SWAP1 DUP3 SWAP1 DUP13 SWAP1 DUP3 SWAP1 PUSH1 0x44 DUP3 ADD SWAP1 JUMP JUMPDEST SUB SWAP3 GAS CALL DUP1 ISZERO PUSH2 0x9A6 JUMPI PUSH2 0x1A1E SWAP7 PUSH2 0x1A11 SWAP6 PUSH2 0x19FF SWAP5 PUSH1 0x7 SWAP4 PUSH2 0x1BC7 JUMPI JUMPDEST POP DUP2 SWAP9 POP DUP11 SWAP4 SWAP6 SWAP7 POP PUSH2 0x1ABB JUMP JUMPDEST DUP2 PUSH2 0x1BDD SWAP3 SWAP1 RETURNDATASIZE LT PUSH2 0xA67 JUMPI PUSH2 0xA5D DUP2 DUP4 PUSH2 0x2195 JUMP JUMPDEST POP CODESIZE DUP1 PUSH2 0x1BB9 JUMP JUMPDEST PUSH2 0x1BFB SWAP1 DUP5 RETURNDATASIZE DUP7 GT PUSH2 0xA67 JUMPI PUSH2 0xA5D DUP2 DUP4 PUSH2 0x2195 JUMP JUMPDEST POP CODESIZE PUSH2 0x1B44 JUMP JUMPDEST SWAP2 SWAP5 POP SWAP2 SWAP6 SWAP3 POP DUP4 AND SWAP5 PUSH2 0x1C17 DUP7 ISZERO ISZERO PUSH2 0x25B8 JUMP JUMPDEST DUP6 EXTCODESIZE ISZERO PUSH2 0x1D14 JUMPI PUSH1 0x40 MLOAD PUSH4 0x23B872DD PUSH1 0xE0 SHL DUP2 MSTORE CALLER PUSH1 0x4 DUP3 ADD MSTORE ADDRESS PUSH1 0x24 DUP3 ADD MSTORE PUSH1 0x44 DUP2 ADD DUP4 SWAP1 MSTORE SWAP6 DUP9 SWAP1 DUP8 SWAP1 PUSH1 0x64 SWAP1 DUP3 SWAP1 DUP5 SWAP1 GAS CALL SWAP2 DUP3 ISZERO PUSH2 0x9A6 JUMPI PUSH2 0x1CED PUSH2 0x1A11 SWAP6 PUSH2 0x1CC6 PUSH2 0x1A11 SWAP5 PUSH2 0x1A1E SWAP11 PUSH2 0x1CFC SWAP8 PUSH2 0x1D01 JUMPI JUMPDEST POP DUP5 PUSH2 0x1C78 PUSH2 0x2205 JUMP JUMPDEST PUSH1 0x1 PUSH1 0x1 PUSH1 0xA0 SHL SUB DUP6 AND DUP2 MSTORE SWAP2 DUP3 ADD MSTORE PUSH2 0x1C9C DUP13 PUSH1 0x0 MSTORE PUSH1 0x3 PUSH1 0x20 MSTORE PUSH1 0x40 PUSH1 0x0 KECCAK256 SWAP1 JUMP JUMPDEST DUP2 MLOAD DUP2 SLOAD PUSH1 0x1 PUSH1 0x1 PUSH1 0xA0 SHL SUB NOT AND PUSH1 0x1 PUSH1 0x1 PUSH1 0xA0 SHL SUB SWAP2 SWAP1 SWAP2 AND OR DUP2 SSTORE SWAP1 PUSH1 0x1 SWAP1 PUSH1 0x20 ADD MLOAD SWAP2 ADD SSTORE JUMP JUMPDEST CALLER PUSH1 0x0 SWAP1 DUP2 MSTORE PUSH1 0x5 PUSH1 0x20 MSTORE PUSH1 0x40 SWAP1 KECCAK256 JUMPDEST SWAP1 PUSH1 0x1 DUP1 PUSH1 0xA0 SHL SUB AND PUSH1 0x0 MSTORE PUSH1 0x20 MSTORE PUSH1 0x40 PUSH1 0x0 KECCAK256 SWAP1 JUMP JUMPDEST SWAP1 PUSH1 0x0 MSTORE PUSH1 0x20 MSTORE PUSH1 0x40 PUSH1 0x0 KECCAK256 SWAP1 JUMP JUMPDEST PUSH2 0x19FF JUMP JUMPDEST DUP1 PUSH2 0x17FB PUSH2 0x1D0E SWAP3 PUSH2 0x2165 JUMP JUMPDEST CODESIZE PUSH2 0x1C6E JUMP JUMPDEST DUP8 DUP1 REVERT JUMPDEST CALLVALUE PUSH2 0x328 JUMPI PUSH1 0x0 CALLDATASIZE PUSH1 0x3 NOT ADD SLT PUSH2 0x328 JUMPI PUSH1 0x20 PUSH1 0x40 MLOAD PUSH2 0x2710 DUP2 MSTORE RETURN JUMPDEST CALLVALUE PUSH2 0x328 JUMPI PUSH1 0x20 CALLDATASIZE PUSH1 0x3 NOT ADD SLT PUSH2 0x328 JUMPI PUSH1 0x20 PUSH2 0x1D53 PUSH1 0x4 CALLDATALOAD PUSH2 0x2F9E JUMP JUMPDEST PUSH1 0x40 MLOAD SWAP1 DUP2 MSTORE RETURN JUMPDEST CALLVALUE PUSH2 0x328 JUMPI PUSH1 0x20 CALLDATASIZE PUSH1 0x3 NOT ADD SLT PUSH2 0x328 JUMPI PUSH1 0x4 CALLDATALOAD PUSH2 0x1D78 DUP2 PUSH2 0x6E8 JUMP JUMPDEST PUSH2 0x1D80 PUSH2 0x1E28 JUMP JUMPDEST PUSH1 0x1 PUSH1 0x1 PUSH1 0xA0 SHL SUB SWAP1 DUP2 AND SWAP1 DUP2 ISZERO PUSH2 0x1DD4 JUMPI PUSH1 0x1 SLOAD DUP3 PUSH12 0xFFFFFFFFFFFFFFFFFFFFFFFF PUSH1 0xA0 SHL DUP3 AND OR PUSH1 0x1 SSTORE AND PUSH32 0x8BE0079C531659141344CD1FD0A4F28419497F9722A3DAAFE3B4186F6B6457E0 PUSH1 0x0 DUP1 LOG3 STOP JUMPDEST PUSH1 0x40 MLOAD PUSH3 0x461BCD PUSH1 0xE5 SHL DUP2 MSTORE PUSH1 0x20 PUSH1 0x4 DUP3 ADD MSTORE PUSH1 0x26 PUSH1 0x24 DUP3 ADD MSTORE PUSH32 0x4F776E61626C653A206E6577206F776E657220697320746865207A65726F2061 PUSH1 0x44 DUP3 ADD MSTORE PUSH6 0x646472657373 PUSH1 0xD0 SHL PUSH1 0x64 DUP3 ADD MSTORE PUSH1 0x84 SWAP1 REVERT JUMPDEST PUSH1 0x1 SLOAD PUSH1 0x1 PUSH1 0x1 PUSH1 0xA0 SHL SUB AND CALLER SUB PUSH2 0x1E3C JUMPI JUMP JUMPDEST PUSH1 0x64 PUSH1 0x40 MLOAD PUSH3 0x461BCD PUSH1 0xE5 SHL DUP2 MSTORE PUSH1 0x20 PUSH1 0x4 DUP3 ADD MSTORE PUSH1 0x20 PUSH1 0x24 DUP3 ADD MSTORE PUSH32 0x4F776E61626C653A2063616C6C6572206973206E6F7420746865206F776E6572 PUSH1 0x44 DUP3 ADD MSTORE REVERT JUMPDEST SWAP2 PUSH2 0x1E89 PUSH2 0x245A JUMP JUMPDEST PUSH2 0x1E91 PUSH2 0x2413 JUMP JUMPDEST PUSH1 0x1 PUSH1 0x1 PUSH1 0xA0 SHL SUB DUP4 AND PUSH2 0x1EA6 DUP2 ISZERO ISZERO PUSH2 0x209E JUMP JUMPDEST PUSH2 0x1EB1 PUSH1 0xA SLOAD PUSH2 0x2F9E JUMP JUMPDEST SWAP3 PUSH2 0x1EBE DUP5 CALLVALUE LT ISZERO PUSH2 0x20E1 JUMP JUMPDEST DUP2 EXTCODESIZE ISZERO PUSH2 0x328 JUMPI PUSH1 0x40 MLOAD PUSH4 0x23B872DD PUSH1 0xE0 SHL DUP2 MSTORE CALLER PUSH1 0x4 DUP3 ADD MSTORE ADDRESS PUSH1 0x24 DUP3 ADD MSTORE PUSH1 0x44 DUP2 ADD DUP3 SWAP1 MSTORE PUSH1 0x0 SWAP6 SWAP1 SWAP3 DUP7 SWAP1 DUP5 SWAP1 PUSH1 0x64 SWAP1 DUP3 SWAP1 DUP5 SWAP1 GAS CALL SWAP1 DUP2 ISZERO PUSH2 0x9A6 JUMPI PUSH2 0x1FBB DUP10 DUP9 PUSH2 0x1F87 PUSH2 0x1F78 SWAP12 PUSH2 0x1FD5 SWAP10 PUSH2 0x1A11 SWAP10 PUSH2 0x1CED SWAP9 PUSH2 0x208B JUMPI JUMPDEST POP PUSH1 0x9 SLOAD SWAP14 DUP15 SWAP6 PUSH2 0x1F33 PUSH2 0x1F2E DUP9 PUSH2 0x21D9 JUMP JUMPDEST PUSH1 0x9 SSTORE JUMP JUMPDEST PUSH2 0x1F3C TIMESTAMP PUSH2 0x21E8 JUMP JUMPDEST SWAP6 PUSH2 0x1F45 PUSH2 0x2212 JUMP JUMPDEST SWAP8 DUP9 MSTORE CALLER PUSH1 0x20 DUP10 ADD MSTORE PUSH1 0x40 DUP9 ADD DUP2 SWAP1 MSTORE PUSH1 0x1 PUSH1 0x1 PUSH1 0xA0 SHL SUB DUP11 AND PUSH1 0x60 DUP10 ADD MSTORE DUP12 PUSH1 0x80 DUP10 ADD MSTORE PUSH1 0xA0 DUP9 ADD MSTORE PUSH1 0xC0 DUP8 ADD PUSH2 0x222B JUMP JUMPDEST PUSH1 0xE0 DUP6 ADD MSTORE PUSH2 0x100 DUP5 ADD PUSH2 0x222B JUMP JUMPDEST DUP10 PUSH2 0x120 DUP4 ADD MSTORE DUP10 PUSH2 0x140 DUP4 ADD MSTORE TIMESTAMP PUSH2 0x160 DUP4 ADD MSTORE PUSH2 0x180 DUP3 ADD MSTORE PUSH2 0x1FB6 DUP11 PUSH1 0x0 MSTORE PUSH1 0x2 PUSH1 0x20 MSTORE PUSH1 0x40 PUSH1 0x0 KECCAK256 SWAP1 JUMP JUMPDEST PUSH2 0x2283 JUMP JUMPDEST CALLER PUSH1 0x0 SWAP1 DUP2 MSTORE PUSH1 0x4 PUSH1 0x20 MSTORE PUSH1 0x40 SWAP1 KECCAK256 PUSH2 0x1CC6 SWAP1 DUP10 SWAP1 PUSH2 0x23A6 JUMP JUMPDEST PUSH2 0x1FE8 PUSH2 0x1FE3 PUSH1 0xC SLOAD PUSH2 0x21D9 JUMP JUMPDEST PUSH1 0xC SSTORE JUMP JUMPDEST DUP2 DUP2 CALLVALUE GT PUSH2 0x205F JUMPI JUMPDEST DUP1 DUP1 SWAP3 PUSH2 0x200B PUSH2 0x10D7 PUSH2 0x10D7 PUSH1 0x13 SLOAD PUSH1 0x1 DUP1 PUSH1 0xA0 SHL SUB AND SWAP1 JUMP JUMPDEST DUP3 DUP3 ISZERO PUSH2 0x2056 JUMPI JUMPDEST CALL ISZERO PUSH2 0x9A6 JUMPI PUSH32 0xDD0ABCDFFC76581D11646898EE4D7F269CA1E0C0B622D072D343100DAD83ECB1 PUSH1 0x40 MLOAD DUP1 PUSH2 0x2049 CALLER SWAP6 DUP3 PUSH2 0x2403 JUMP JUMPDEST SUB SWAP1 LOG3 PUSH2 0x81F PUSH1 0x1 PUSH1 0x0 SSTORE JUMP JUMPDEST POP PUSH2 0x8FC PUSH2 0x2013 JUMP JUMPDEST DUP1 DUP1 DUP1 PUSH2 0x206C DUP6 CALLVALUE PUSH2 0x23F6 JUMP JUMPDEST DUP2 DUP2 ISZERO PUSH2 0x2082 JUMPI JUMPDEST CALLER SWAP1 CALL ISZERO PUSH2 0x9A6 JUMPI DUP2 PUSH2 0x1FF1 JUMP JUMPDEST POP PUSH2 0x8FC PUSH2 0x2074 JUMP JUMPDEST DUP1 PUSH2 0x17FB PUSH2 0x2098 SWAP3 PUSH2 0x2165 JUMP JUMPDEST CODESIZE PUSH2 0x1F1B JUMP JUMPDEST ISZERO PUSH2 0x20A5 JUMPI JUMP JUMPDEST PUSH1 0x40 MLOAD PUSH3 0x461BCD PUSH1 0xE5 SHL DUP2 MSTORE PUSH1 0x20 PUSH1 0x4 DUP3 ADD MSTORE PUSH1 0x14 PUSH1 0x24 DUP3 ADD MSTORE PUSH20 0x125B9D985B1A59081391950818DBDB9D1C9858DD PUSH1 0x62 SHL PUSH1 0x44 DUP3 ADD MSTORE PUSH1 0x64 SWAP1 REVERT JUMPDEST ISZERO PUSH2 0x20E8 JUMPI JUMP JUMPDEST PUSH1 0x40 MLOAD PUSH3 0x461BCD PUSH1 0xE5 SHL DUP2 MSTORE PUSH1 0x20 PUSH1 0x4 DUP3 ADD MSTORE PUSH1 0x18 PUSH1 0x24 DUP3 ADD MSTORE PUSH32 0x496E73756666696369656E74206C697374696E67206665650000000000000000 PUSH1 0x44 DUP3 ADD MSTORE PUSH1 0x64 SWAP1 REVERT JUMPDEST PUSH4 0x4E487B71 PUSH1 0xE0 SHL PUSH1 0x0 MSTORE PUSH1 0x41 PUSH1 0x4 MSTORE PUSH1 0x24 PUSH1 0x0 REVERT JUMPDEST PUSH2 0x1A0 DUP2 ADD SWAP1 DUP2 LT PUSH8 0xFFFFFFFFFFFFFFFF DUP3 GT OR PUSH2 0x2160 JUMPI PUSH1 0x40 MSTORE JUMP JUMPDEST PUSH2 0x212D JUMP JUMPDEST PUSH8 0xFFFFFFFFFFFFFFFF DUP2 GT PUSH2 0x2160 JUMPI PUSH1 0x40 MSTORE JUMP JUMPDEST PUSH1 0x40 DUP2 ADD SWAP1 DUP2 LT PUSH8 0xFFFFFFFFFFFFFFFF DUP3 GT OR PUSH2 0x2160 JUMPI PUSH1 0x40 MSTORE JUMP JUMPDEST SWAP1 PUSH1 0x1F DUP1 NOT SWAP2 ADD AND DUP2 ADD SWAP1 DUP2 LT PUSH8 0xFFFFFFFFFFFFFFFF DUP3 GT OR PUSH2 0x2160 JUMPI PUSH1 0x40 MSTORE JUMP JUMPDEST PUSH1 0x40 MLOAD RETURNDATASIZE PUSH1 0x0 DUP3 RETURNDATACOPY RETURNDATASIZE SWAP1 REVERT JUMPDEST PUSH4 0x4E487B71 PUSH1 0xE0 SHL PUSH1 0x0 MSTORE PUSH1 0x11 PUSH1 0x4 MSTORE PUSH1 0x24 PUSH1 0x0 REVERT JUMPDEST PUSH1 0x0 NOT DUP2 EQ PUSH2 0x96C JUMPI PUSH1 0x1 ADD SWAP1 JUMP JUMPDEST SWAP1 PUSH3 0x93A80 DUP3 ADD DUP1 SWAP3 GT PUSH2 0x96C JUMPI JUMP JUMPDEST SWAP2 SWAP1 DUP3 ADD DUP1 SWAP3 GT PUSH2 0x96C JUMPI JUMP JUMPDEST PUSH1 0x40 MLOAD SWAP1 PUSH2 0x81F DUP3 PUSH2 0x2179 JUMP JUMPDEST PUSH1 0x40 MLOAD SWAP1 PUSH2 0x81F DUP3 PUSH2 0x2143 JUMP JUMPDEST PUSH1 0x5 DUP3 LT ISZERO PUSH2 0x475 JUMPI MSTORE JUMP JUMPDEST PUSH2 0x49B DUP3 PUSH2 0x487 JUMP JUMPDEST SWAP1 PUSH1 0x5 DUP2 LT ISZERO PUSH2 0x475 JUMPI PUSH1 0xFF DUP1 NOT DUP4 SLOAD AND SWAP2 AND OR SWAP1 SSTORE JUMP JUMPDEST SWAP1 PUSH2 0x2256 DUP2 PUSH2 0x487 JUMP JUMPDEST PUSH2 0xFF00 DUP3 SLOAD SWAP2 PUSH1 0x8 SHL AND SWAP1 PUSH2 0xFF00 NOT AND OR SWAP1 SSTORE JUMP JUMPDEST SWAP1 PUSH2 0x2275 DUP2 PUSH2 0x487 JUMP JUMPDEST PUSH1 0xFF DUP1 NOT DUP4 SLOAD AND SWAP2 AND OR SWAP1 SSTORE JUMP JUMPDEST DUP2 MLOAD DUP2 SSTORE PUSH1 0x20 DUP3 ADD MLOAD PUSH1 0x1 DUP3 ADD DUP1 SLOAD PUSH1 0x1 PUSH1 0x1 PUSH1 0xA0 SHL SUB NOT AND PUSH1 0x1 PUSH1 0x1 PUSH1 0xA0 SHL SUB SWAP1 SWAP3 AND SWAP2 SWAP1 SWAP2 OR SWAP1 SSTORE SWAP1 PUSH1 0xB SWAP1 PUSH2 0x180 SWAP1 PUSH1 0x40 DUP2 ADD MLOAD PUSH1 0x2 DUP6 ADD DUP1 SLOAD PUSH1 0x1 PUSH1 0x1 PUSH1 0xA0 SHL SUB NOT AND PUSH1 0x1 PUSH1 0x1 PUSH1 0xA0 SHL SUB SWAP1 SWAP3 AND SWAP2 SWAP1 SWAP2 OR SWAP1 SSTORE PUSH1 0x60 DUP2 ADD MLOAD PUSH1 0x3 DUP6 ADD DUP1 SLOAD PUSH1 0x1 PUSH1 0x1 PUSH1 0xA0 SHL SUB NOT AND PUSH1 0x1 PUSH1 0x1 PUSH1 0xA0 SHL SUB SWAP1 SWAP3 AND SWAP2 SWAP1 SWAP2 OR SWAP1 SSTORE PUSH1 0x80 DUP2 ADD MLOAD PUSH1 0x4 DUP6 ADD SSTORE PUSH2 0x233D PUSH1 0x5 DUP6 ADD PUSH2 0x2329 PUSH1 0xA0 DUP5 ADD MLOAD PUSH2 0x2323 DUP2 PUSH2 0x46B JUMP JUMPDEST DUP3 PUSH2 0x2234 JUMP JUMPDEST PUSH1 0xC0 DUP4 ADD MLOAD SWAP1 PUSH2 0x2338 DUP3 PUSH2 0x487 JUMP JUMPDEST PUSH2 0x224C JUMP JUMPDEST PUSH1 0xE0 DUP2 ADD MLOAD PUSH1 0x6 DUP6 ADD SSTORE PUSH2 0x2362 PUSH2 0x100 DUP3 ADD MLOAD PUSH2 0x2359 DUP2 PUSH2 0x487 JUMP JUMPDEST PUSH1 0x7 DUP7 ADD PUSH2 0x226B JUMP JUMPDEST PUSH2 0x120 DUP2 ADD MLOAD PUSH1 0x8 DUP6 ADD SSTORE PUSH2 0x140 DUP2 ADD MLOAD PUSH1 0x9 DUP6 ADD DUP1 SLOAD PUSH1 0x1 PUSH1 0x1 PUSH1 0xA0 SHL SUB NOT AND PUSH1 0x1 PUSH1 0x1 PUSH1 0xA0 SHL SUB SWAP1 SWAP3 AND SWAP2 SWAP1 SWAP2 OR SWAP1 SSTORE PUSH2 0x160 DUP2 ADD MLOAD PUSH1 0xA DUP6 ADD SSTORE ADD MLOAD SWAP2 ADD SSTORE JUMP JUMPDEST SWAP1 DUP2 SLOAD SWAP2 PUSH9 0x10000000000000000 DUP4 LT ISZERO PUSH2 0x2160 JUMPI DUP3 PUSH2 0x23CE SWAP2 PUSH1 0x1 PUSH2 0x81F SWAP6 ADD DUP2 SSTORE PUSH2 0x132B JUMP JUMPDEST SWAP1 SWAP2 SWAP1 DUP3 SLOAD SWAP1 PUSH1 0x3 SHL SWAP2 DUP3 SHL SWAP2 PUSH1 0x0 NOT SWAP1 SHL NOT AND OR SWAP1 SSTORE JUMP JUMPDEST PUSH1 0x0 NOT DUP2 ADD SWAP2 SWAP1 DUP3 GT PUSH2 0x96C JUMPI JUMP JUMPDEST SWAP2 SWAP1 DUP3 SUB SWAP2 DUP3 GT PUSH2 0x96C JUMPI JUMP JUMPDEST SWAP2 SWAP1 PUSH1 0x20 DUP4 ADD SWAP3 PUSH2 0x49B DUP3 PUSH2 0x487 JUMP JUMPDEST PUSH1 0xFF PUSH1 0x1 SLOAD PUSH1 0xA0 SHR AND PUSH2 0x2422 JUMPI JUMP JUMPDEST PUSH1 0x40 MLOAD PUSH3 0x461BCD PUSH1 0xE5 SHL DUP2 MSTORE PUSH1 0x20 PUSH1 0x4 DUP3 ADD MSTORE PUSH1 0x10 PUSH1 0x24 DUP3 ADD MSTORE PUSH16 0x14185D5CD8589B194E881C185D5CD959 PUSH1 0x82 SHL PUSH1 0x44 DUP3 ADD MSTORE PUSH1 0x64 SWAP1 REVERT JUMPDEST PUSH1 0x2 PUSH1 0x0 SLOAD EQ PUSH2 0x246B JUMPI PUSH1 0x2 PUSH1 0x0 SSTORE JUMP JUMPDEST PUSH1 0x40 MLOAD PUSH3 0x461BCD PUSH1 0xE5 SHL DUP2 MSTORE PUSH1 0x20 PUSH1 0x4 DUP3 ADD MSTORE PUSH1 0x1F PUSH1 0x24 DUP3 ADD MSTORE PUSH32 0x5265656E7472616E637947756172643A207265656E7472616E742063616C6C00 PUSH1 0x44 DUP3 ADD MSTORE PUSH1 0x64 SWAP1 REVERT JUMPDEST ISZERO PUSH2 0x24B7 JUMPI JUMP JUMPDEST PUSH1 0x40 MLOAD PUSH3 0x461BCD PUSH1 0xE5 SHL DUP2 MSTORE PUSH1 0x20 PUSH1 0x4 DUP3 ADD MSTORE PUSH1 0x13 PUSH1 0x24 DUP3 ADD MSTORE PUSH19 0x11D85B5948191BD95CC81B9BDD08195E1A5CDD PUSH1 0x6A SHL PUSH1 0x44 DUP3 ADD MSTORE PUSH1 0x64 SWAP1 REVERT JUMPDEST ISZERO PUSH2 0x24F9 JUMPI JUMP JUMPDEST PUSH1 0x40 MLOAD PUSH3 0x461BCD PUSH1 0xE5 SHL DUP2 MSTORE PUSH1 0x20 PUSH1 0x4 DUP3 ADD MSTORE PUSH1 0x12 PUSH1 0x24 DUP3 ADD MSTORE PUSH18 0x47616D65206E6F7420617661696C61626C65 PUSH1 0x70 SHL PUSH1 0x44 DUP3 ADD MSTORE PUSH1 0x64 SWAP1 REVERT JUMPDEST ISZERO PUSH2 0x253A JUMPI JUMP JUMPDEST PUSH1 0x40 MLOAD PUSH3 0x461BCD PUSH1 0xE5 SHL DUP2 MSTORE PUSH1 0x20 PUSH1 0x4 DUP3 ADD MSTORE PUSH1 0x14 PUSH1 0x24 DUP3 ADD MSTORE PUSH20 0x43616E6E6F74206A6F696E206F776E2067616D65 PUSH1 0x60 SHL PUSH1 0x44 DUP3 ADD MSTORE PUSH1 0x64 SWAP1 REVERT JUMPDEST ISZERO PUSH2 0x257D JUMPI JUMP JUMPDEST PUSH1 0x40 MLOAD PUSH3 0x461BCD PUSH1 0xE5 SHL DUP2 MSTORE PUSH1 0x20 PUSH1 0x4 DUP3 ADD MSTORE PUSH1 0x13 PUSH1 0x24 DUP3 ADD MSTORE PUSH19 0x11D85B5948185B1C9958591E481A9BDA5B9959 PUSH1 0x6A SHL PUSH1 0x44 DUP3 ADD MSTORE PUSH1 0x64 SWAP1 REVERT JUMPDEST ISZERO PUSH2 0x25BF JUMPI JUMP JUMPDEST PUSH1 0x40 MLOAD PUSH3 0x461BCD PUSH1 0xE5 SHL DUP2 MSTORE PUSH1 0x20 PUSH1 0x4 DUP3 ADD MSTORE PUSH1 0x16 PUSH1 0x24 DUP3 ADD MSTORE PUSH22 0x125B9D985B1A590818DA185B1B195B99D95C88139195 PUSH1 0x52 SHL PUSH1 0x44 DUP3 ADD MSTORE PUSH1 0x64 SWAP1 REVERT JUMPDEST ISZERO PUSH2 0x2604 JUMPI JUMP JUMPDEST PUSH1 0x40 MLOAD PUSH3 0x461BCD PUSH1 0xE5 SHL DUP2 MSTORE PUSH1 0x20 PUSH1 0x4 DUP3 ADD MSTORE PUSH1 0x1F PUSH1 0x24 DUP3 ADD MSTORE PUSH32 0x455448206E6F74206E656564656420666F722055534443207061796D656E7400 PUSH1 0x44 DUP3 ADD MSTORE PUSH1 0x64 SWAP1 REVERT JUMPDEST SWAP1 DUP2 PUSH1 0x20 SWAP2 SUB SLT PUSH2 0x328 JUMPI MLOAD DUP1 ISZERO ISZERO DUP2 SUB PUSH2 0x328 JUMPI SWAP1 JUMP JUMPDEST ISZERO PUSH2 0x2668 JUMPI JUMP JUMPDEST PUSH1 0x40 MLOAD PUSH3 0x461BCD PUSH1 0xE5 SHL DUP2 MSTORE PUSH1 0x20 PUSH1 0x4 DUP3 ADD MSTORE PUSH1 0x10 PUSH1 0x24 DUP3 ADD MSTORE PUSH16 0x92DCE6EACCCCD2C6D2CADCE8408AA89 PUSH1 0x83 SHL PUSH1 0x44 DUP3 ADD MSTORE PUSH1 0x64 SWAP1 REVERT JUMPDEST DUP2 DUP2 MUL SWAP3 SWAP2 DUP2 ISZERO SWAP2 DUP5 DIV EQ OR ISZERO PUSH2 0x96C JUMPI JUMP JUMPDEST DUP2 ISZERO PUSH2 0x26BD JUMPI DIV SWAP1 JUMP JUMPDEST PUSH4 0x4E487B71 PUSH1 0xE0 SHL PUSH1 0x0 MSTORE PUSH1 0x12 PUSH1 0x4 MSTORE PUSH1 0x24 PUSH1 0x0 REVERT JUMPDEST SWAP1 PUSH1 0xB PUSH2 0x26DE PUSH2 0x2212 JUMP JUMPDEST DUP4 SLOAD DUP2 MSTORE PUSH1 0x1 DUP5 ADD SLOAD PUSH1 0x1 PUSH1 0x1 PUSH1 0xA0 SHL SUB AND PUSH1 0x20 DUP3 ADD MSTORE SWAP3 PUSH1 0x2 DUP2 ADD SLOAD PUSH1 0x1 PUSH1 0x1 PUSH1 0xA0 SHL SUB AND PUSH1 0x40 DUP6 ADD MSTORE PUSH1 0x3 DUP2 ADD SLOAD PUSH1 0x1 PUSH1 0x1 PUSH1 0xA0 SHL SUB AND PUSH1 0x60 DUP6 ADD MSTORE PUSH1 0x4 DUP2 ADD SLOAD PUSH1 0x80 DUP6 ADD MSTORE PUSH2 0x274C PUSH1 0xFF PUSH1 0x5 DUP4 ADD SLOAD PUSH2 0x273F DUP3 DUP3 AND PUSH1 0xA0 DUP10 ADD PUSH2 0x221F JUMP JUMPDEST PUSH1 0x8 SHR AND PUSH1 0xC0 DUP7 ADD PUSH2 0x222B JUMP JUMPDEST PUSH1 0x6 DUP2 ADD SLOAD PUSH1 0xE0 DUP6 ADD MSTORE PUSH2 0x2771 PUSH2 0x2767 PUSH1 0x7 DUP4 ADD SLOAD PUSH1 0xFF AND SWAP1 JUMP JUMPDEST PUSH2 0x100 DUP7 ADD PUSH2 0x222B JUMP JUMPDEST PUSH1 0x8 DUP2 ADD SLOAD PUSH2 0x120 DUP6 ADD MSTORE PUSH1 0x9 DUP2 ADD SLOAD PUSH1 0x1 PUSH1 0x1 PUSH1 0xA0 SHL SUB AND PUSH2 0x140 DUP6 ADD MSTORE PUSH1 0xA DUP2 ADD SLOAD PUSH2 0x160 DUP6 ADD MSTORE ADD SLOAD PUSH2 0x180 DUP4 ADD MSTORE JUMP JUMPDEST ISZERO PUSH2 0x27AC JUMPI JUMP JUMPDEST PUSH1 0x40 MLOAD PUSH3 0x461BCD PUSH1 0xE5 SHL DUP2 MSTORE PUSH1 0x20 PUSH1 0x4 DUP3 ADD MSTORE PUSH1 0x1A PUSH1 0x24 DUP3 ADD MSTORE PUSH32 0x47616D65206E6F7420726561647920746F20636F6D706C657465000000000000 PUSH1 0x44 DUP3 ADD MSTORE PUSH1 0x64 SWAP1 REVERT JUMPDEST SWAP1 PUSH1 0x40 MLOAD PUSH2 0x27FE DUP2 PUSH2 0x2179 JUMP JUMPDEST DUP3 SLOAD PUSH1 0x1 PUSH1 0x1 PUSH1 0xA0 SHL SUB AND DUP2 MSTORE PUSH1 0x1 SWAP1 SWAP3 ADD SLOAD PUSH1 0x20 DUP4 ADD MSTORE JUMP JUMPDEST PUSH2 0x282C DUP2 PUSH1 0x0 MSTORE PUSH1 0x2 PUSH1 0x20 MSTORE PUSH1 0x40 PUSH1 0x0 KECCAK256 SWAP1 JUMP JUMPDEST PUSH1 0x5 DUP2 ADD PUSH2 0x284F PUSH1 0x1 PUSH2 0x2840 DUP4 SLOAD PUSH1 0xFF AND SWAP1 JUMP JUMPDEST PUSH2 0x2849 DUP2 PUSH2 0x46B JUMP JUMPDEST EQ PUSH2 0x27A5 JUMP JUMPDEST DUP1 SLOAD PUSH1 0xFF NOT AND PUSH1 0x2 OR DUP2 SSTORE PUSH1 0x9 DUP3 ADD DUP1 SLOAD PUSH1 0x1 PUSH1 0x1 PUSH1 0xA0 SHL SUB NOT AND PUSH1 0x1 PUSH1 0x1 PUSH1 0xA0 SHL SUB DUP7 AND OR SWAP1 SSTORE DUP1 SLOAD PUSH1 0x8 SHR PUSH1 0xFF AND PUSH2 0x2888 DUP2 PUSH2 0x487 JUMP JUMPDEST ISZERO DUP1 PUSH2 0x2AD8 JUMPI JUMPDEST ISZERO PUSH2 0x2AC5 JUMPI PUSH1 0x8 DUP3 ADD SLOAD PUSH2 0x28AC PUSH2 0x28A7 PUSH1 0xD SLOAD PUSH2 0x21D9 JUMP JUMPDEST PUSH1 0xD SSTORE JUMP JUMPDEST PUSH2 0x28C5 PUSH2 0x28C0 PUSH1 0xE SLOAD PUSH1 0x6 DUP7 ADD SLOAD SWAP1 PUSH2 0x21F8 JUMP JUMPDEST PUSH1 0xE SSTORE JUMP JUMPDEST PUSH1 0x7 DUP4 ADD SLOAD PUSH1 0xFF AND PUSH2 0x28D6 DUP2 PUSH2 0x487 JUMP JUMPDEST DUP1 PUSH2 0x2A6C JUMPI POP PUSH1 0x1 PUSH1 0x1 PUSH1 0xA0 SHL SUB DUP6 AND PUSH1 0x0 SWAP1 DUP2 MSTORE PUSH1 0x6 PUSH1 0x20 MSTORE PUSH1 0x40 SWAP1 KECCAK256 PUSH2 0x2900 SWAP2 SWAP1 JUMPDEST SLOAD PUSH2 0x21F8 JUMP JUMPDEST PUSH1 0x1 PUSH1 0x1 PUSH1 0xA0 SHL SUB DUP6 AND PUSH1 0x0 SWAP1 DUP2 MSTORE PUSH1 0x6 PUSH1 0x20 MSTORE PUSH1 0x40 SWAP1 KECCAK256 SSTORE JUMPDEST PUSH1 0x1 DUP3 ADD DUP1 SLOAD SWAP1 SWAP3 SWAP1 PUSH2 0x2935 SWAP1 PUSH1 0x1 PUSH1 0x1 PUSH1 0xA0 SHL SUB AND PUSH2 0x10D7 JUMP JUMPDEST PUSH1 0x1 PUSH1 0x1 PUSH1 0xA0 SHL SUB SWAP1 SWAP6 AND SWAP5 DUP6 SUB PUSH2 0x2A03 JUMPI PUSH1 0x1 SWAP2 PUSH2 0x2969 PUSH2 0x2973 SWAP3 PUSH1 0x4 PUSH2 0x421 PUSH2 0x3FC PUSH2 0x3E2 DUP10 SLOAD PUSH1 0x1 DUP1 PUSH1 0xA0 SHL SUB AND SWAP1 JUMP JUMPDEST SLOAD PUSH1 0x8 SHR PUSH1 0xFF AND SWAP1 JUMP JUMPDEST PUSH2 0x297C DUP2 PUSH2 0x487 JUMP JUMPDEST EQ PUSH2 0x29AB JUMPI JUMPDEST POP JUMPDEST PUSH32 0x7F40DF5127524300187445E867486DA572AAB86769C0212E0B392BD87C4CA97F PUSH1 0x0 DUP1 LOG3 JUMP JUMPDEST PUSH2 0x29FD SWAP1 PUSH1 0x20 PUSH2 0x29F4 PUSH2 0x29E4 PUSH2 0x3E2 PUSH2 0x29D6 PUSH2 0x29D1 DUP9 PUSH1 0x0 MSTORE PUSH1 0x3 PUSH1 0x20 MSTORE PUSH1 0x40 PUSH1 0x0 KECCAK256 SWAP1 JUMP JUMPDEST PUSH2 0x27F1 JUMP JUMPDEST SWAP5 SLOAD PUSH1 0x1 PUSH1 0x1 PUSH1 0xA0 SHL SUB AND SWAP1 JUMP JUMPDEST DUP4 MLOAD PUSH1 0x1 PUSH1 0x1 PUSH1 0xA0 SHL SUB AND PUSH2 0x40B JUMP JUMPDEST SWAP2 ADD MLOAD SWAP1 PUSH2 0x23A6 JUMP JUMPDEST CODESIZE PUSH2 0x2982 JUMP JUMPDEST SWAP2 POP PUSH2 0x2A2B PUSH1 0x1 SWAP2 PUSH2 0x2969 PUSH1 0x2 DUP6 ADD SWAP5 PUSH1 0x4 PUSH2 0x421 PUSH2 0x3FC PUSH2 0x3E2 DUP10 SLOAD PUSH1 0x1 DUP1 PUSH1 0xA0 SHL SUB AND SWAP1 JUMP JUMPDEST PUSH2 0x2A34 DUP2 PUSH2 0x487 JUMP JUMPDEST EQ PUSH2 0x2A40 JUMPI JUMPDEST POP PUSH2 0x2984 JUMP JUMPDEST PUSH2 0x2A66 SWAP1 PUSH1 0x20 PUSH2 0x29F4 PUSH2 0x29E4 PUSH2 0x3E2 PUSH2 0x29D6 PUSH2 0x29D1 DUP9 PUSH1 0x0 MSTORE PUSH1 0x3 PUSH1 0x20 MSTORE PUSH1 0x40 PUSH1 0x0 KECCAK256 SWAP1 JUMP JUMPDEST CODESIZE PUSH2 0x2A3A JUMP JUMPDEST DUP1 PUSH2 0x2A78 PUSH1 0x1 SWAP3 PUSH2 0x487 JUMP JUMPDEST EQ PUSH2 0x2A84 JUMPI JUMPDEST POP PUSH2 0x291A JUMP JUMPDEST PUSH1 0x1 PUSH1 0x1 PUSH1 0xA0 SHL SUB DUP6 AND PUSH1 0x0 SWAP1 DUP2 MSTORE PUSH1 0x7 PUSH1 0x20 MSTORE PUSH1 0x40 SWAP1 KECCAK256 PUSH2 0x2AA6 SWAP2 SWAP1 PUSH2 0x28FA JUMP JUMPDEST PUSH1 0x1 PUSH1 0x1 PUSH1 0xA0 SHL SUB DUP6 AND PUSH1 0x0 SWAP1 DUP2 MSTORE PUSH1 0x7 PUSH1 0x20 MSTORE PUSH1 0x40 SWAP1 KECCAK256 SSTORE CODESIZE PUSH2 0x2A7E JUMP JUMPDEST PUSH2 0x2AD3 PUSH2 0x28A7 PUSH1 0xD SLOAD PUSH2 0x21D9 JUMP JUMPDEST PUSH2 0x291A JUMP JUMPDEST POP PUSH1 0x8 DUP3 ADD SLOAD ISZERO ISZERO PUSH2 0x288F JUMP JUMPDEST ISZERO PUSH2 0x2AEC JUMPI JUMP JUMPDEST PUSH1 0x40 MLOAD PUSH3 0x461BCD PUSH1 0xE5 SHL DUP2 MSTORE PUSH1 0x20 PUSH1 0x4 DUP3 ADD MSTORE PUSH1 0x17 PUSH1 0x24 DUP3 ADD MSTORE PUSH32 0x4F6E6C792063726561746F722063616E2063616E63656C000000000000000000 PUSH1 0x44 DUP3 ADD MSTORE PUSH1 0x64 SWAP1 REVERT JUMPDEST ISZERO PUSH2 0x2B38 JUMPI JUMP JUMPDEST PUSH1 0x40 MLOAD PUSH3 0x461BCD PUSH1 0xE5 SHL DUP2 MSTORE PUSH1 0x20 PUSH1 0x4 DUP3 ADD MSTORE PUSH1 0x18 PUSH1 0x24 DUP3 ADD MSTORE PUSH32 0x47616D652063616E6E6F742062652063616E63656C6C65640000000000000000 PUSH1 0x44 DUP3 ADD MSTORE PUSH1 0x64 SWAP1 REVERT JUMPDEST ISZERO PUSH2 0x2B84 JUMPI JUMP JUMPDEST PUSH1 0x40 MLOAD PUSH3 0x461BCD PUSH1 0xE5 SHL DUP2 MSTORE PUSH1 0x20 PUSH1 0x4 DUP3 ADD MSTORE PUSH1 0x13 PUSH1 0x24 DUP3 ADD MSTORE PUSH19 0x4E6F207265776172647320746F20636C61696D PUSH1 0x68 SHL PUSH1 0x44 DUP3 ADD MSTORE PUSH1 0x64 SWAP1 REVERT JUMPDEST DUP1 SLOAD SWAP1 DUP2 ISZERO PUSH2 0x2BE9 JUMPI PUSH1 0x0 NOT SWAP2 DUP3 ADD SWAP2 PUSH2 0x2BD9 DUP4 DUP4 PUSH2 0x132B JUMP JUMPDEST SWAP1 SWAP2 DUP3 SLOAD SWAP2 PUSH1 0x3 SHL SHL NOT AND SWAP1 SSTORE SSTORE JUMP JUMPDEST PUSH4 0x4E487B71 PUSH1 0xE0 SHL PUSH1 0x0 MSTORE PUSH1 0x31 PUSH1 0x4 MSTORE PUSH1 0x24 PUSH1 0x0 REVERT JUMPDEST CALLER PUSH1 0x0 SWAP1 DUP2 MSTORE PUSH1 0x8 PUSH1 0x20 MSTORE PUSH1 0x40 SWAP1 KECCAK256 PUSH2 0x2C19 SWAP1 DUP3 SWAP1 PUSH2 0x1CD6 JUMP JUMPDEST SWAP2 PUSH1 0x0 JUMPDEST DUP4 SLOAD DUP1 DUP3 LT ISZERO PUSH2 0x2D37 JUMPI DUP3 PUSH2 0x2C3F PUSH2 0x2C35 DUP5 DUP9 PUSH2 0x132B JUMP JUMPDEST SWAP1 SLOAD SWAP1 PUSH1 0x3 SHL SHR SWAP1 JUMP JUMPDEST EQ PUSH2 0x2C53 JUMPI POP PUSH2 0x2C4E SWAP1 PUSH2 0x21D9 JUMP JUMPDEST PUSH2 0x2C1D JUMP JUMPDEST PUSH2 0x2C81 SWAP3 SWAP4 SWAP5 SWAP2 PUSH2 0x23CE PUSH2 0x2C75 PUSH2 0x2C35 PUSH2 0x2C6F PUSH2 0x2C7C SWAP6 PUSH2 0x23E7 JUMP JUMPDEST DUP7 PUSH2 0x132B JUMP JUMPDEST SWAP2 DUP5 PUSH2 0x132B JUMP JUMPDEST PUSH2 0x2BBF JUMP JUMPDEST PUSH1 0x1 PUSH1 0x1 PUSH1 0xA0 SHL SUB DUP3 AND SWAP2 DUP3 EXTCODESIZE ISZERO PUSH2 0x328 JUMPI PUSH1 0x40 DUP1 MLOAD PUSH4 0x23B872DD PUSH1 0xE0 SHL DUP2 MSTORE ADDRESS PUSH1 0x4 DUP3 ADD MSTORE CALLER PUSH1 0x24 DUP3 ADD MSTORE PUSH1 0x44 DUP2 ADD DUP5 SWAP1 MSTORE SWAP2 PUSH1 0x0 DUP4 PUSH1 0x64 DUP2 DUP4 DUP10 GAS CALL SWAP1 DUP2 ISZERO PUSH2 0x9A6 JUMPI DUP5 PUSH2 0x1CED PUSH2 0x2D0E SWAP3 PUSH32 0xBBDE41973F9CE4890F7AD9762C23D8191F261FD643BDF13ED8BBC10549B49FCB SWAP7 PUSH2 0x2D18 SWAP6 PUSH2 0x2D24 JUMPI JUMPDEST POP CALLER PUSH1 0x0 SWAP1 DUP2 MSTORE PUSH1 0x5 PUSH1 0x20 MSTORE PUSH1 0x40 SWAP1 KECCAK256 PUSH2 0x1CD6 JUMP JUMPDEST DUP1 SLOAD PUSH1 0xFF NOT AND SWAP1 SSTORE JUMP JUMPDEST MLOAD SWAP2 DUP3 MSTORE CALLER SWAP2 PUSH1 0x20 SWAP1 LOG3 JUMP JUMPDEST DUP1 PUSH2 0x17FB PUSH2 0x2D31 SWAP3 PUSH2 0x2165 JUMP JUMPDEST CODESIZE PUSH2 0x2CF9 JUMP JUMPDEST PUSH1 0x40 MLOAD PUSH3 0x461BCD PUSH1 0xE5 SHL DUP2 MSTORE PUSH1 0x20 PUSH1 0x4 DUP3 ADD MSTORE PUSH1 0x1F PUSH1 0x24 DUP3 ADD MSTORE PUSH32 0x4E4654206E6F7420666F756E6420696E20756E636C61696D6564206C69737400 PUSH1 0x44 DUP3 ADD MSTORE PUSH1 0x64 SWAP1 REVERT JUMPDEST ISZERO PUSH2 0x2D83 JUMPI JUMP JUMPDEST PUSH1 0x40 MLOAD PUSH3 0x461BCD PUSH1 0xE5 SHL DUP2 MSTORE PUSH1 0x20 PUSH1 0x4 DUP3 ADD MSTORE PUSH1 0x19 PUSH1 0x24 DUP3 ADD MSTORE PUSH32 0x47616D65206E6F7420696E206372656174656420737461746500000000000000 PUSH1 0x44 DUP3 ADD MSTORE PUSH1 0x64 SWAP1 REVERT JUMPDEST ISZERO PUSH2 0x2DCF JUMPI JUMP JUMPDEST PUSH1 0x40 MLOAD PUSH3 0x461BCD PUSH1 0xE5 SHL DUP2 MSTORE PUSH1 0x20 PUSH1 0x4 DUP3 ADD MSTORE PUSH1 0x14 PUSH1 0x24 DUP3 ADD MSTORE PUSH20 0x11D85B59481B9BDD08195E1C1A5C9959081E595D PUSH1 0x62 SHL PUSH1 0x44 DUP3 ADD MSTORE PUSH1 0x64 SWAP1 REVERT JUMPDEST ISZERO PUSH2 0x2E12 JUMPI JUMP JUMPDEST PUSH1 0x40 MLOAD PUSH3 0x461BCD PUSH1 0xE5 SHL DUP2 MSTORE PUSH1 0x20 PUSH1 0x4 DUP3 ADD MSTORE PUSH1 0x26 PUSH1 0x24 DUP3 ADD MSTORE PUSH32 0x4F6E6C792063726561746F722063616E20776974686472617720657870697265 PUSH1 0x44 DUP3 ADD MSTORE PUSH6 0x642067616D65 PUSH1 0xD0 SHL PUSH1 0x64 DUP3 ADD MSTORE PUSH1 0x84 SWAP1 REVERT JUMPDEST SWAP2 SWAP1 DUP2 LT ISZERO PUSH2 0x1343 JUMPI PUSH1 0x5 SHL ADD SWAP1 JUMP JUMPDEST ISZERO PUSH2 0x2E7D JUMPI JUMP JUMPDEST PUSH1 0x40 MLOAD PUSH3 0x461BCD PUSH1 0xE5 SHL DUP2 MSTORE PUSH1 0x20 PUSH1 0x4 DUP3 ADD MSTORE PUSH1 0x18 PUSH1 0x24 DUP3 ADD MSTORE PUSH32 0x4172726179206C656E67746873206D757374206D617463680000000000000000 PUSH1 0x44 DUP3 ADD MSTORE PUSH1 0x64 SWAP1 REVERT JUMPDEST CALLDATALOAD PUSH2 0x2ECC DUP2 PUSH2 0x6E8 JUMP JUMPDEST SWAP1 JUMP JUMPDEST PUSH1 0x40 MLOAD SWAP1 PUSH2 0x2EDC DUP3 PUSH2 0x2179 JUMP JUMPDEST PUSH1 0x0 PUSH1 0x20 DUP4 DUP3 DUP2 MSTORE ADD MSTORE JUMP JUMPDEST PUSH8 0xFFFFFFFFFFFFFFFF DUP2 GT PUSH2 0x2160 JUMPI PUSH1 0x5 SHL PUSH1 0x20 ADD SWAP1 JUMP JUMPDEST DUP1 MLOAD DUP3 LT ISZERO PUSH2 0x1343 JUMPI PUSH1 0x20 SWAP2 PUSH1 0x5 SHL ADD ADD SWAP1 JUMP JUMPDEST MLOAD SWAP1 PUSH10 0xFFFFFFFFFFFFFFFFFFFF DUP3 AND DUP3 SUB PUSH2 0x328 JUMPI JUMP JUMPDEST SWAP1 DUP2 PUSH1 0xA0 SWAP2 SUB SLT PUSH2 0x328 JUMPI PUSH2 0x2F3F DUP2 PUSH2 0x2F14 JUMP JUMPDEST SWAP2 PUSH1 0x20 DUP3 ADD MLOAD SWAP2 PUSH1 0x40 DUP2 ADD MLOAD SWAP2 PUSH2 0x2ECC PUSH1 0x80 PUSH1 0x60 DUP5 ADD MLOAD SWAP4 ADD PUSH2 0x2F14 JUMP JUMPDEST ISZERO PUSH2 0x2F64 JUMPI JUMP JUMPDEST PUSH1 0x40 MLOAD PUSH3 0x461BCD PUSH1 0xE5 SHL DUP2 MSTORE PUSH1 0x20 PUSH1 0x4 DUP3 ADD MSTORE PUSH1 0x12 PUSH1 0x24 DUP3 ADD MSTORE PUSH18 0x125B9D985B1A59081C1C9A58D94819995959 PUSH1 0x72 SHL PUSH1 0x44 DUP3 ADD MSTORE PUSH1 0x64 SWAP1 REVERT JUMPDEST PUSH1 0x10 SLOAD PUSH1 0x40 MLOAD PUSH4 0x3FABE5A3 PUSH1 0xE2 SHL DUP2 MSTORE SWAP1 PUSH1 0xA0 SWAP1 DUP3 SWAP1 PUSH1 0x4 SWAP1 DUP3 SWAP1 PUSH1 0x1 PUSH1 0x1 PUSH1 0xA0 SHL SUB AND GAS STATICCALL SWAP1 DUP2 ISZERO PUSH2 0x9A6 JUMPI PUSH1 0x0 SWAP2 PUSH2 0x3003 JUMPI JUMPDEST POP PUSH2 0x2FE0 PUSH1 0x0 DUP3 SGT PUSH2 0x2F5D JUMP JUMPDEST PUSH8 0xDE0B6B3A7640000 SWAP2 DUP3 DUP2 MUL SWAP3 DUP2 DUP5 DIV EQ SWAP1 ISZERO OR ISZERO PUSH2 0x96C JUMPI PUSH2 0x2ECC SWAP2 PUSH2 0x26B3 JUMP JUMPDEST PUSH2 0x301B SWAP2 POP PUSH1 0xA0 RETURNDATASIZE DUP2 GT PUSH2 0x99F JUMPI PUSH2 0x98B DUP2 DUP4 PUSH2 0x2195 JUMP JUMPDEST POP POP POP SWAP1 POP CODESIZE PUSH2 0x2FD3 JUMP INVALID LOG2 PUSH5 0x6970667358 0x22 SLT KECCAK256 LOG2 0xCF PUSH7 0x77374AA062B378 0xD0 0x2C 0xDA RETURN SHR 0xA7 0xE7 0xB3 PUSH17 0x5CB5C179F418FCC8A8AD5B025C64736F6C PUSH4 0x43000814 STOP CALLER "},"methodIdentifiers":{"BASIS_POINTS()":"e1f1c4a7","MAX_FEE_PERCENT()":"67d81740","adminBatchWithdrawExpired(uint256[])":"08ed9d33","adminBatchWithdrawNFTs(address[],uint256[],address[])":"cb9a2630","cancelGame(uint256)":"69958ab9","completeGame(uint256,address)":"a6ff6689","createGame(address,uint256,uint256,uint8,uint8,string)":"6e9088e7","emergencyWithdrawETH(address,uint256)":"d79e8567","emergencyWithdrawNFT(address,uint256,address)":"b1a81295","emergencyWithdrawToken(address,address,uint256)":"277327a5","ethUsdFeed()":"8009b7bd","games(uint256)":"117a5b90","getETHAmount(uint256)":"ef46b2ab","getExpiredGames(uint256,uint256)":"84ae4246","getGameDetails(uint256)":"1b31abda","getPlatformFeeReceiver()":"707d1848","getUSDCAmount(uint256)":"1fd462cd","isGameExpired(uint256)":"65b3a7ca","joinGame(uint256,uint8,address,uint256)":"d84cbc45","listingFeeUSD()":"3a38d063","nextGameId()":"b135bbb0","nftChallenges(uint256)":"5e37ef51","owner()":"8da5cb5b","pause()":"8456cb59","paused()":"5c975abb","platformFeePercent()":"8c639a85","platformFeeReceiver()":"2d656ad7","renounceOwnership()":"715018a6","setListingFee(uint256)":"131dbd09","setPlatformFee(uint256)":"12e8e2c3","totalGamesCompleted()":"bcf17b3a","totalGamesCreated()":"8dbb15bb","totalPlatformFees()":"d3631fa5","totalVolumeUSD()":"9291ccd5","transferOwnership(address)":"f2fde38b","unclaimedETH(address)":"1a68b691","unclaimedNFTs(address,address,uint256)":"aa4209b8","unclaimedUSDC(address)":"95d11520","unpause()":"3f4ba83a","usdcToken()":"11eac855","usdcUsdFeed()":"4d9a75e5","userGames(address,uint256)":"bc0167cd","userNFTsInContract(address,address,uint256)":"8cbe09ed","withdrawExpiredGame(uint256)":"8afec443","withdrawNFT(address,uint256)":"6088e93a","withdrawRewards()":"c7b8981c"}}}}}