{"contracts/flipnosis.sol":{"NFTFlipGame":{"abi":[{"inputs":[{"internalType":"address","name":"_ethUsdFeed","type":"address"},{"internalType":"address","name":"_usdcUsdFeed","type":"address"},{"internalType":"address","name":"_usdcToken","type":"address"},{"internalType":"address","name":"_feeReceiver","type":"address"}],"stateMutability":"nonpayable","type":"constructor"},{"anonymous":false,"inputs":[{"indexed":true,"internalType":"uint256","name":"gameId","type":"uint256"},{"indexed":false,"internalType":"uint8","name":"round","type":"uint8"},{"indexed":false,"internalType":"uint256","name":"endTime","type":"uint256"}],"name":"CountdownStarted","type":"event"},{"anonymous":false,"inputs":[{"indexed":true,"internalType":"uint256","name":"gameId","type":"uint256"},{"indexed":true,"internalType":"address","name":"offerer","type":"address"},{"indexed":false,"internalType":"uint256","name":"priceUSD","type":"uint256"}],"name":"CounterOfferAccepted","type":"event"},{"anonymous":false,"inputs":[{"indexed":true,"internalType":"uint256","name":"gameId","type":"uint256"},{"indexed":true,"internalType":"address","name":"offerer","type":"address"},{"indexed":false,"internalType":"uint256","name":"priceUSD","type":"uint256"},{"indexed":false,"internalType":"enum NFTFlipGame.PaymentToken","name":"paymentToken","type":"uint8"}],"name":"CounterOfferMade","type":"event"},{"anonymous":false,"inputs":[{"indexed":true,"internalType":"uint256","name":"gameId","type":"uint256"},{"indexed":false,"internalType":"uint8","name":"round","type":"uint8"},{"indexed":false,"internalType":"enum NFTFlipGame.CoinSide","name":"result","type":"uint8"},{"indexed":false,"internalType":"uint8","name":"power","type":"uint8"},{"indexed":false,"internalType":"address","name":"flipper","type":"address"}],"name":"FlipResultEvent","type":"event"},{"anonymous":false,"inputs":[{"indexed":true,"internalType":"uint256","name":"gameId","type":"uint256"},{"indexed":true,"internalType":"address","name":"creator","type":"address"}],"name":"GameCancelled","type":"event"},{"anonymous":false,"inputs":[{"indexed":true,"internalType":"uint256","name":"gameId","type":"uint256"},{"indexed":true,"internalType":"address","name":"winner","type":"address"},{"indexed":false,"internalType":"uint256","name":"winnings","type":"uint256"},{"indexed":false,"internalType":"uint256","name":"platformFee","type":"uint256"}],"name":"GameCompleted","type":"event"},{"anonymous":false,"inputs":[{"indexed":true,"internalType":"uint256","name":"gameId","type":"uint256"},{"indexed":true,"internalType":"address","name":"creator","type":"address"},{"indexed":true,"internalType":"address","name":"nftContract","type":"address"},{"indexed":false,"internalType":"uint256","name":"tokenId","type":"uint256"},{"indexed":false,"internalType":"uint256","name":"priceUSD","type":"uint256"},{"indexed":false,"internalType":"enum NFTFlipGame.PaymentToken","name":"acceptedToken","type":"uint8"},{"indexed":false,"internalType":"string","name":"authInfo","type":"string"}],"name":"GameCreated","type":"event"},{"anonymous":false,"inputs":[{"indexed":true,"internalType":"uint256","name":"gameId","type":"uint256"},{"indexed":true,"internalType":"address","name":"joiner","type":"address"},{"indexed":false,"internalType":"enum NFTFlipGame.CoinSide","name":"choice","type":"uint8"}],"name":"GameJoined","type":"event"},{"anonymous":false,"inputs":[{"indexed":true,"internalType":"address","name":"previousOwner","type":"address"},{"indexed":true,"internalType":"address","name":"newOwner","type":"address"}],"name":"OwnershipTransferred","type":"event"},{"anonymous":false,"inputs":[{"indexed":false,"internalType":"address","name":"account","type":"address"}],"name":"Paused","type":"event"},{"anonymous":false,"inputs":[{"indexed":true,"internalType":"uint256","name":"gameId","type":"uint256"},{"indexed":false,"internalType":"uint8","name":"round","type":"uint8"},{"indexed":false,"internalType":"address","name":"flipper","type":"address"}],"name":"TurnStarted","type":"event"},{"anonymous":false,"inputs":[{"indexed":false,"internalType":"address","name":"account","type":"address"}],"name":"Unpaused","type":"event"},{"inputs":[],"name":"COUNTDOWN_DURATION","outputs":[{"internalType":"uint256","name":"","type":"uint256"}],"stateMutability":"view","type":"function"},{"inputs":[],"name":"MAX_FEE_PERCENT","outputs":[{"internalType":"uint256","name":"","type":"uint256"}],"stateMutability":"view","type":"function"},{"inputs":[],"name":"TURN_TIMEOUT","outputs":[{"internalType":"uint256","name":"","type":"uint256"}],"stateMutability":"view","type":"function"},{"inputs":[{"internalType":"uint256","name":"_gameId","type":"uint256"}],"name":"cancelGame","outputs":[],"stateMutability":"nonpayable","type":"function"},{"inputs":[{"components":[{"internalType":"address","name":"nftContract","type":"address"},{"internalType":"uint256","name":"tokenId","type":"uint256"},{"internalType":"uint256","name":"priceUSD","type":"uint256"},{"internalType":"enum NFTFlipGame.PaymentToken","name":"acceptedToken","type":"uint8"},{"internalType":"uint8","name":"maxRounds","type":"uint8"},{"internalType":"string","name":"authInfo","type":"string"}],"internalType":"struct NFTFlipGame.CreateGameParams","name":"params","type":"tuple"}],"name":"createGame","outputs":[{"internalType":"uint256","name":"","type":"uint256"}],"stateMutability":"nonpayable","type":"function"},{"inputs":[{"internalType":"address","name":"_token","type":"address"},{"internalType":"uint256","name":"_amount","type":"uint256"}],"name":"emergencyWithdraw","outputs":[],"stateMutability":"nonpayable","type":"function"},{"inputs":[{"internalType":"address","name":"_nftContract","type":"address"},{"internalType":"uint256","name":"_tokenId","type":"uint256"}],"name":"emergencyWithdrawNFT","outputs":[],"stateMutability":"nonpayable","type":"function"},{"inputs":[],"name":"ethUsdFeed","outputs":[{"internalType":"contract AggregatorV3Interface","name":"","type":"address"}],"stateMutability":"view","type":"function"},{"inputs":[],"name":"feeReceiver","outputs":[{"internalType":"address","name":"","type":"address"}],"stateMutability":"view","type":"function"},{"inputs":[{"internalType":"uint256","name":"_gameId","type":"uint256"},{"internalType":"uint8","name":"_power","type":"uint8"}],"name":"flip","outputs":[],"stateMutability":"nonpayable","type":"function"},{"inputs":[{"internalType":"uint256","name":"","type":"uint256"}],"name":"gameAuthInfo","outputs":[{"internalType":"string","name":"","type":"string"}],"stateMutability":"view","type":"function"},{"inputs":[{"internalType":"uint256","name":"","type":"uint256"}],"name":"gameCores","outputs":[{"internalType":"uint256","name":"gameId","type":"uint256"},{"internalType":"address","name":"creator","type":"address"},{"internalType":"address","name":"joiner","type":"address"},{"internalType":"address","name":"nftContract","type":"address"},{"internalType":"uint256","name":"tokenId","type":"uint256"},{"internalType":"enum NFTFlipGame.GameState","name":"state","type":"uint8"},{"internalType":"enum NFTFlipGame.PlayerRole","name":"creatorRole","type":"uint8"},{"internalType":"enum NFTFlipGame.PlayerRole","name":"joinerRole","type":"uint8"},{"internalType":"enum NFTFlipGame.CoinSide","name":"joinerChoice","type":"uint8"}],"stateMutability":"view","type":"function"},{"inputs":[{"internalType":"uint256","name":"","type":"uint256"},{"internalType":"uint256","name":"","type":"uint256"}],"name":"gameCounterOffers","outputs":[{"internalType":"address","name":"offerer","type":"address"},{"internalType":"uint256","name":"priceUSD","type":"uint256"},{"internalType":"enum NFTFlipGame.PaymentToken","name":"paymentToken","type":"uint8"},{"internalType":"bool","name":"active","type":"bool"},{"internalType":"uint256","name":"expiresAt","type":"uint256"}],"stateMutability":"view","type":"function"},{"inputs":[],"name":"gameExpiryDuration","outputs":[{"internalType":"uint256","name":"","type":"uint256"}],"stateMutability":"view","type":"function"},{"inputs":[{"internalType":"uint256","name":"","type":"uint256"}],"name":"gameFinancials","outputs":[{"internalType":"uint256","name":"priceUSD","type":"uint256"},{"internalType":"enum NFTFlipGame.PaymentToken","name":"acceptedToken","type":"uint8"},{"internalType":"uint256","name":"totalPaid","type":"uint256"},{"internalType":"enum NFTFlipGame.PaymentToken","name":"paymentTokenUsed","type":"uint8"}],"stateMutability":"view","type":"function"},{"inputs":[{"internalType":"uint256","name":"","type":"uint256"}],"name":"gameProgress","outputs":[{"internalType":"uint256","name":"createdAt","type":"uint256"},{"internalType":"uint256","name":"expiresAt","type":"uint256"},{"internalType":"uint8","name":"maxRounds","type":"uint8"},{"internalType":"uint8","name":"currentRound","type":"uint8"},{"internalType":"uint8","name":"creatorWins","type":"uint8"},{"internalType":"uint8","name":"joinerWins","type":"uint8"},{"internalType":"address","name":"winner","type":"address"},{"internalType":"uint256","name":"lastActionTime","type":"uint256"},{"internalType":"uint256","name":"countdownEndTime","type":"uint256"}],"stateMutability":"view","type":"function"},{"inputs":[{"internalType":"uint256","name":"","type":"uint256"},{"internalType":"uint8","name":"","type":"uint8"}],"name":"gameRounds","outputs":[{"internalType":"enum NFTFlipGame.CoinSide","name":"result","type":"uint8"},{"internalType":"uint8","name":"power","type":"uint8"},{"internalType":"bool","name":"completed","type":"bool"},{"internalType":"address","name":"flipper","type":"address"}],"stateMutability":"view","type":"function"},{"inputs":[{"internalType":"uint256","name":"_gameId","type":"uint256"}],"name":"getGameBasic","outputs":[{"internalType":"uint256","name":"gameId","type":"uint256"},{"internalType":"address","name":"creator","type":"address"},{"internalType":"address","name":"joiner","type":"address"},{"internalType":"address","name":"nftContract","type":"address"},{"internalType":"uint256","name":"tokenId","type":"uint256"},{"internalType":"uint256","name":"priceUSD","type":"uint256"},{"internalType":"enum NFTFlipGame.PaymentToken","name":"acceptedToken","type":"uint8"},{"internalType":"enum NFTFlipGame.GameState","name":"state","type":"uint8"},{"internalType":"string","name":"authInfo","type":"string"}],"stateMutability":"view","type":"function"},{"inputs":[{"internalType":"uint256","name":"_gameId","type":"uint256"}],"name":"getGameProgress","outputs":[{"internalType":"uint256","name":"createdAt","type":"uint256"},{"internalType":"uint256","name":"expiresAt","type":"uint256"},{"internalType":"uint8","name":"maxRounds","type":"uint8"},{"internalType":"uint8","name":"currentRound","type":"uint8"},{"internalType":"uint8","name":"creatorWins","type":"uint8"},{"internalType":"uint8","name":"joinerWins","type":"uint8"},{"internalType":"address","name":"winner","type":"address"},{"internalType":"uint256","name":"lastActionTime","type":"uint256"},{"internalType":"uint256","name":"countdownEndTime","type":"uint256"}],"stateMutability":"view","type":"function"},{"inputs":[{"internalType":"uint256","name":"_gameId","type":"uint256"},{"internalType":"uint8","name":"_round","type":"uint8"}],"name":"getGameRound","outputs":[{"internalType":"enum NFTFlipGame.CoinSide","name":"result","type":"uint8"},{"internalType":"uint8","name":"power","type":"uint8"},{"internalType":"bool","name":"completed","type":"bool"},{"internalType":"address","name":"flipper","type":"address"}],"stateMutability":"view","type":"function"},{"inputs":[{"internalType":"address","name":"_user","type":"address"}],"name":"getUserGames","outputs":[{"internalType":"uint256[]","name":"","type":"uint256[]"}],"stateMutability":"view","type":"function"},{"inputs":[{"internalType":"uint256","name":"_gameId","type":"uint256"},{"internalType":"enum NFTFlipGame.CoinSide","name":"_choice","type":"uint8"}],"name":"joinGame","outputs":[],"stateMutability":"nonpayable","type":"function"},{"inputs":[],"name":"listingFeeUSD","outputs":[{"internalType":"uint256","name":"","type":"uint256"}],"stateMutability":"view","type":"function"},{"inputs":[],"name":"nativeToken","outputs":[{"internalType":"address","name":"","type":"address"}],"stateMutability":"view","type":"function"},{"inputs":[],"name":"nextGameId","outputs":[{"internalType":"uint256","name":"","type":"uint256"}],"stateMutability":"view","type":"function"},{"inputs":[],"name":"offerExpiryDuration","outputs":[{"internalType":"uint256","name":"","type":"uint256"}],"stateMutability":"view","type":"function"},{"inputs":[],"name":"owner","outputs":[{"internalType":"address","name":"","type":"address"}],"stateMutability":"view","type":"function"},{"inputs":[],"name":"pause","outputs":[],"stateMutability":"nonpayable","type":"function"},{"inputs":[],"name":"paused","outputs":[{"internalType":"bool","name":"","type":"bool"}],"stateMutability":"view","type":"function"},{"inputs":[],"name":"renounceOwnership","outputs":[],"stateMutability":"nonpayable","type":"function"},{"inputs":[{"internalType":"address","name":"_feeReceiver","type":"address"}],"name":"setFeeReceiver","outputs":[],"stateMutability":"nonpayable","type":"function"},{"inputs":[{"internalType":"uint256","name":"_listingFeeUSD","type":"uint256"},{"internalType":"uint256","name":"_winningsFeePercent","type":"uint256"}],"name":"setFees","outputs":[],"stateMutability":"nonpayable","type":"function"},{"inputs":[{"internalType":"uint256","name":"_gameExpiryDuration","type":"uint256"},{"internalType":"uint256","name":"_offerExpiryDuration","type":"uint256"}],"name":"setGameSettings","outputs":[],"stateMutability":"nonpayable","type":"function"},{"inputs":[{"internalType":"address","name":"_nativeToken","type":"address"}],"name":"setNativeToken","outputs":[],"stateMutability":"nonpayable","type":"function"},{"inputs":[{"internalType":"address","name":"_ethUsdFeed","type":"address"},{"internalType":"address","name":"_usdcUsdFeed","type":"address"}],"name":"setPriceFeeds","outputs":[],"stateMutability":"nonpayable","type":"function"},{"inputs":[{"internalType":"uint256","name":"_gameId","type":"uint256"}],"name":"startCountdown","outputs":[],"stateMutability":"nonpayable","type":"function"},{"inputs":[{"internalType":"address","name":"newOwner","type":"address"}],"name":"transferOwnership","outputs":[],"stateMutability":"nonpayable","type":"function"},{"inputs":[],"name":"unpause","outputs":[],"stateMutability":"nonpayable","type":"function"},{"inputs":[],"name":"usdcToken","outputs":[{"internalType":"address","name":"","type":"address"}],"stateMutability":"view","type":"function"},{"inputs":[],"name":"usdcUsdFeed","outputs":[{"internalType":"contract AggregatorV3Interface","name":"","type":"address"}],"stateMutability":"view","type":"function"},{"inputs":[{"internalType":"address","name":"","type":"address"},{"internalType":"uint256","name":"","type":"uint256"}],"name":"userGames","outputs":[{"internalType":"uint256","name":"","type":"uint256"}],"stateMutability":"view","type":"function"},{"inputs":[],"name":"winningsFeePercent","outputs":[{"internalType":"uint256","name":"","type":"uint256"}],"stateMutability":"view","type":"function"},{"stateMutability":"payable","type":"receive"}],"evm":{"bytecode":{"linkReferences":{},"object":"6080346200012c57601f62002fae38819003918201601f19168301916001600160401b0383118484101762000131578084926080946040528339810103126200012c576200004d8162000147565b6200005b6020830162000147565b6200007760606200006f6040860162000147565b940162000147565b60016000556001546040519460018060a01b0380948193338382167f8be0079c531659141344cd1fd0a4f28419497f9722a3daafe3b4186f6b6457e0600080a360ff60a01b1933169060018060a81b03191617600155600160095562030d40600a556101f4600b5562093a80601055620151806011558160018060a01b0319971687600c541617600c551685600d541617600d551683600e541617600e5516906012541617601255612e5190816200015d8239f35b600080fd5b634e487b7160e01b600052604160045260246000fd5b51906001600160a01b03821682036200012c5756fe6080604052600436101561001b575b361561001957600080fd5b005b6000803560e01c8063068f158d146127995780630b1fb0021461277b5780630b78f9c01461271d57806311eac855146126f4578063120aace61461264657806315e163fb1461246b578063175a2bd11461244a578063279efa941461240b5780633a38d063146123ed5780633d05cfdc146123cf5780633f4ba83a146123325780633fd42eb41461193f5780634d9a75e5146119165780635c975abb146118f05780635e82ff65146118d457806367d81740146118b757806369958ab9146116ac5780636da1e1021461166c5780636fadc5fe146115cf578063715018a6146115715780637b09a1f4146115185780637bbc3fcf14610dca5780638009b7bd14610da15780638057cbbb14610d3e5780638456cb5914610cdb57806387bd15ef14610aa25780638da5cb5b14610a79578063922b8079146109e357806395ccea67146108fe578063abf1b86e14610840578063ae48612b146107c1578063b135bbb0146107a3578063b3f006741461077a578063bc0167cd14610724578063ca6649c5146104e1578063d24c9eee14610413578063dbb19dad1461039e578063de84004114610380578063e1758bd814610357578063ec71394a1461033b578063efdcd974146102bd5763f2fde38b146101f5575061000e565b346102ba5760203660031901126102ba5761020e6127f3565b610216612ad4565b6001600160a01b0390811690811561026657600154826001600160601b0360a01b821617600155167f8be0079c531659141344cd1fd0a4f28419497f9722a3daafe3b4186f6b6457e0600080a380f35b60405162461bcd60e51b815260206004820152602660248201527f4f776e61626c653a206e6577206f776e657220697320746865207a65726f206160448201526564647265737360d01b6064820152608490fd5b80fd5b50346102ba5760203660031901126102ba576102d76127f3565b6102df612ad4565b6001600160a01b03168015610304576001600160601b0360a01b601254161760125580f35b60405162461bcd60e51b815260206004820152600f60248201526e496e76616c6964206164647265737360881b6044820152606490fd5b50346102ba57806003193601126102ba57602060405160058152f35b50346102ba57806003193601126102ba57600f546040516001600160a01b039091168152602090f35b50346102ba57806003193601126102ba576020601054604051908152f35b50346102ba5760203660031901126102ba57604090600435815260046020522080549061040f600182015491600281015490600460038201549101549160405195869560018060a01b038360201c169260ff8160181c169260ff8260101c169260ff808460081c169316918a612a86565b0390f35b50346102ba5760203660031901126102ba576040906004356009548110806104d8575b61043f90612c4a565b815260046020522060405190610454826128ce565b61040f610100825492838552600181015494856020820152600282015460ff811680604084015260ff8260081c1680606085015260ff8360101c169182608086015260ff8460181c16938460a087015260018060a01b039060201c16948560c082015260046003880154978860e084015201549788910152604051998a998a612a86565b50801515610436565b50346102ba5760403660031901126102ba576002602435600435828210156107205761050b612bad565b610513612bf4565b600954811080610717575b61052790612c4a565b808452602083815260ff60056040872001541660068110156107035761054d9015612c8c565b81855283815260019360018060a01b03856040882001541633146106c757828652600482528460408720015442101561069357907f9543429ff4d0366bda7e6f7907ab4d8c123ad250f9a8d6ecffabe880ab084e04918560405183810190428252446040820152866060820152606081526105c781612901565b51902016158488528183526105f786600560408b20858101336001600160601b0360a01b82541617905501612ccd565b801561068a57610614885b868a52838552600560408b2001612cf0565b1561068157610630865b858952828452600560408a2001612d0f565b8387528152600560408720018560ff19825416179055828652600481524260036040882001553386526007815261066a8360408820612b40565b6040519361067781612a19565b84523393a3815580f35b6106308761061e565b61061487610602565b60405162461bcd60e51b815260048101839052600c60248201526b11d85b5948195e1c1a5c995960a21b6044820152606490fd5b60405162461bcd60e51b815260048101839052601460248201527343616e6e6f74206a6f696e206f776e2067616d6560601b6044820152606490fd5b634e487b7160e01b86526021600452602486fd5b5080151561051e565b8380fd5b50346102ba5760403660031901126102ba5761073e6127f3565b6001600160a01b03168152600760205260408120805460243592908310156102ba57602061076c8484612a58565b90546040519160031b1c8152f35b50346102ba57806003193601126102ba576012546040516001600160a01b039091168152602090f35b50346102ba57806003193601126102ba576020600954604051908152f35b50346102ba576107d03661280e565b908252600660205260408220805482101561083c578260209160a09452209060021b01600180831b038154169060ff6001820154916003600282015491015492604051948552602085015261082a60408501838316612824565b60081c16151560608301526080820152f35b8280fd5b50346102ba5760203660031901126102ba57604061012091600435815260026020522080549060018060a01b0380600183015416916108d1826002830154169260038301541691600560048201549101549060ff8260081c169360ff8360101c169560ff8460181c1697604051998a5260208a015260408901526060880152608087015260ff60a087019116612847565b6108da81612a19565b60c08401526108e881612a19565b60e08301526108f681612a19565b610100820152f35b50346102ba5760403660031901126102ba57806109196127f3565b60243590610925612ad4565b6001600160a01b0390811680610965575082809281926001541682821561095c575bf1156109505780f35b604051903d90823e3d90fd5b506108fc610947565b60015460405163a9059cbb60e01b815292166001600160a01b031660048301526024820192909252915060209082908185816044810103925af180156109d8576109ad575080f35b6109cd9060203d81116109d1575b6109c58183612931565b810190612e03565b5080f35b503d6109bb565b6040513d84823e3d90fd5b50346102ba5760403660031901126102ba57806109fe6127f3565b610a06612ad4565b6001546001600160a01b039081169116803b15610a75576040516323b872dd60e01b81523060048201526001600160a01b039290921660248084019190915235604483015282908290606490829084905af180156109d857610a655750f35b610a6e9061291d565b6102ba5780f35b5050fd5b50346102ba57806003193601126102ba576001546040516001600160a01b039091168152602090f35b50346102ba57602080600319360112610cd75760043590610ac1612bad565b610ac9612bf4565b600954821080610cce575b610add90612c4a565b818352600280825260ff806005604087200154166006811015610703576001610b069114612c8c565b838552818352610c0760408620610b3960018060a01b03918286816001840154163314928315610cbf575b505050612d30565b8587528385526040872060405191610b50836128ce565b8154835280600183015416928781019384526005828885015416936040830194855283600382015416606084015260048101546080840152015490610b9a87831660a08301612d70565b868260081c169060c0810191610baf81612a19565b825261010088808560101c169460e0840195610bca81612a19565b865260181c1691610bda83612a19565b015251610be681612a19565b610bef81612a19565b159384610cb2575b508315610c7b575b505050612d7c565b6005420191824211610c6757917f691488032358f2f429ebc3e391e4ad8c59592e466cea1e7c2b98244d1adef316939160409386885260048452848820836004820155426003820155015460081c16918351928352820152a26001815580f35b634e487b7160e01b86526011600452602486fd5b9091925051610c8981612a19565b610c9281612a19565b159182610ca4575b5050388080610bff565b909150511633143880610c9a565b5182163314935038610bf7565b01541633149050828638610b31565b50811515610ad4565b5080fd5b50346102ba57806003193601126102ba57610cf4612ad4565b610cfc612bad565b6001805460ff60a01b1916600160a01b1790556040513381527f62e78cea01bee320cd4e420270b5ea74000d11b0c9f74754ebdbfc544b05a25890602090a180f35b50346102ba5760203660031901126102ba5760406080916004358152600360205220610d9f81549160ff60018201541690610d9060ff6003600284015493015416926040519586526020860190612824565b60408401526060830190612824565bf35b50346102ba57806003193601126102ba57600c546040516001600160a01b039091168152602090f35b50346102ba57600319602036820112610cd75767ffffffffffffffff60043511610cd75760c090600435360301126102ba57610e04612bad565b610e0c612bf4565b600560ff610e1e608460043501612dd1565b161480156114fe575b156114b9576044600435013515611474576001600160a01b03610e4d6004803501612b2c565b161561143857806001600160a01b03610e696004803501612b2c565b16803b15611435576040516323b872dd60e01b815233600480830191909152306024808401919091529035013560448201529082908290606490829084905af180156109d857611421575b5050600954600019811461140d5760018101600955610ed7600435600401612b2c565b60405190610ee4826128ce565b82825233602083015283604083015260018060a01b031660608201526024600435013560808201528260a08201528260c0820152600160e08201528261010082015281835260026020526040832090805182556001820160018060a01b036020830151166001600160601b0360a01b8254161790556002820160018060a01b036040830151166001600160601b0360a01b8254161790556003820160018060a01b036060830151166001600160601b0360a01b8254161790556080810151600483015560a08101519160068310156113f95761100e9291600561010092019260ff80198554169116178355610fe660c0820151610fe081612a19565b84612cf0565b610ffd60e0820151610ff781612a19565b84612d0f565b01519061100982612a19565b612ccd565b6003606460043501351015610cd75760405161102981612901565b60446004350135815260208101906110476064600435013583612ddf565b83604082015283606082015282845260036020526040842091815183555160038110156113f9579061107e60609260018501612deb565b6040810151600284015501519060038210156113e5579060036110a19201612deb565b60105442018042116113cf5760ff6110bd608460043501612dd1565b604051926110ca846128ce565b4284526020840152166040820152600160608201528260808201528260a08201528260c08201524260e08201528261010082015281835260046020526004610100604085209280518455602081015160018501556111bd6002850160ff60408401511660ff1982541617815561115860ff606085015116829061ff0082549160081b169061ff001916179055565b6080830151815462ff0000191660109190911b62ff00001617815560a0830151815463ff000000191660189190911b63ff0000001617815560c08301518154640100000000600160c01b03191660209190911b640100000000600160c01b0316179055565b60e0810151600385015501519101556111e060a460043501600435600401612b7a565b91909260086020526040812067ffffffffffffffff84116113bb576112058154612894565b94601f8611611379575b602095508290601f861160011461131157948091600195968592611306575b5050600019600383901b1c191690841b1790555b338152600784526112568360408320612b40565b611264600435600401612b2c565b7fede926ca24bef9b3f259c437d489796a51decbb58ec6f0a60ea2e614b2724b958461129a60a460043501600435600401612b7a565b9290938360405195602460043501358752604460043501358b8801526112c96040880160646004350135612824565b6080606088015281608088015260a08701378560a08587010152868060a01b03169360a0813395601f80199101168101030190a455604051908152f35b01359050388061122e565b82845286842091845b601f1988168110611362575091869160019697938794601f19811610611348575b505050811b019055611242565b0135600019600384901b60f8161c1916905538808061133b565b90928860018192868601358155019401910161131a565b81835260208320601f860160051c8101602087106113b4575b601f880160051c820181106113a857505061120f565b60008155600101611392565b5080611392565b634e487b7160e01b82526041600452602482fd5b634e487b7160e01b600052601160045260246000fd5b634e487b7160e01b84526021600452602484fd5b634e487b7160e01b85526021600452602485fd5b634e487b7160e01b82526011600452602482fd5b61142a9061291d565b6102ba578038610eb4565b50fd5b60405162461bcd60e51b8152602060048201526014602482015273125b9d985b1a59081391950818dbdb9d1c9858dd60621b6044820152606490fd5b60405162461bcd60e51b815260206004820152601c60248201527f5072696365206d7573742062652067726561746572207468616e2030000000006044820152606490fd5b60405162461bcd60e51b815260206004820152601960248201527f4d617820726f756e6473206d7573742062652035206f722037000000000000006044820152606490fd5b50600760ff611511608460043501612dd1565b1614610e27565b50346102ba5760ff604061152b366129f9565b93908152600560205220911660005260205261040f60406000205460405191829160018060a01b038160181c169060ff8160101c169060ff808260081c16911685612a23565b50346102ba57806003193601126102ba5761158a612ad4565b600180546001600160a01b031981169091556000906001600160a01b03167f8be0079c531659141344cd1fd0a4f28419497f9722a3daafe3b4186f6b6457e08280a380f35b50346102ba5760ff60406115e2366129f9565b93908152600560205220911660005260205260406000206040519061160682612901565b5461040f60ff82169161161883612a19565b828452602084019060ff8160081c16825260ff60606040870196828460101c1615158852019260018060a01b03809360181c16845261165686612a19565b5116945115159151169060405194859485612a23565b50346102ba5760203660031901126102ba576116866127f3565b61168e612ad4565b60018060a01b03166001600160601b0360a01b600f541617600f5580f35b50346102ba57602080600319360112610cd757600435906116cb612bf4565b6009548210806118ae575b6116df90612c4a565b8183526002815260408320600101546001600160a01b03919082163303611876578284526002815260ff60056040862001541660068110156113f9576117259015612c8c565b8284526002815260056040852001600560ff1982541617905582845260028152836040812083604051611757816128ce565b825481528160018401541694810194855281600284015416604082015281600384015416906060810191825261010060ff60056004870154966080850197885201546117a882821660a08601612d70565b818160081c166117b781612a19565b60c0850152818160101c166117cb81612a19565b60e085015260181c16916117de83612a19565b0152511690848451169051823b15610720576040516323b872dd60e01b81523060048201526001600160a01b0392909216602483015260448201529082908290606490829084905af180156109d857611862575b50505116907f58f64e02b3a6d2a3bd28b7700a0a0d6699545bcb55bf917ac0ff670f3a509efb8380a36001815580f35b61186b9061291d565b610720578338611832565b6064906040519062461bcd60e51b82526004820152601160248201527027b7363c9033b0b6b29031b932b0ba37b960791b6044820152fd5b508115156116d6565b50346102ba57806003193601126102ba5760206040516103e88152f35b50346102ba57806003193601126102ba576020604051601e8152f35b50346102ba57806003193601126102ba57602060ff60015460a01c166040519015158152f35b50346102ba57806003193601126102ba57600d546040516001600160a01b039091168152602090f35b50346102ba5761194e366129f9565b611956612bad565b61195e612bf4565b600954821080612329575b61197290612c4a565b818352600260205261199e6040842060018060a01b036001820154163314908115612312575b50612d30565b8183526002602052604083206005604051916119b9836128ce565b8054835260018101546001600160a01b039081166020850152600282015481166040850152600382015416606084015260048101546080840152015491611a0660ff841660a08401612d70565b60ff8360081c16611a1681612a19565b60c083015260ff808460101c1693611a2d85612a19565b60e0840194855260181c16611a4181612a19565b6101008301528385526004602052604085209260c0830151611a6281612a19565b611a6b81612a19565b15806122fc575b80156122c2575b611a839150612d7c565b600483015442106122845760ff8116151580612276575b156122415760028301549084865260056020526040862060ff8360081c1687526020526040862060405142602082015244604082015286606082015260ff60f81b808560f01b1660808301528360f81b166081820152606281528060a081011067ffffffffffffffff60a08301111761222d579260ff7f090ba162c2bb0046be3a12fa1ef492cc3502e55978c9c716e1b67764da653c09938160809460018860a08d9a01604052602081519101201615600014612226578b5b611b5c81612a19565b815461ff00199184168419919091161716600884901b61ff0016178155805462010000600160b81b031981163360181b6301000000600160b81b031617620100001782556101008a0151908316611bb282612a19565b611bbb82612a19565b611bc481612a19565b036121f057611bfc611bde8360028d015460181c16612dc0565b60028c019063ff00000082549160181b169063ff0000001916179055565b5416826040519460081c168452611c1281612a19565b6020840152166040820152336060820152a260028201549060ff6001607f84821c1601116121dc5760ff6001607f84821c1601168060ff8460101c1610908115916121cb575b501561211957505050808252600260205260408220906002600560405193611c7f856128ce565b8054855260018101546001600160a01b0390811660208701528382015481166040870152600382015416606086015260048101546080860152015460a084019060ff90611cce82821684612d70565b818160081c16611cdd81612a19565b60c0870152818160101c16611cf181612a19565b60e087015260181c16611d0381612a19565b610100850152828552600460205260036040862091520191825460ff808260181c169160101c16116000146120ea576020908101518354640100000000600160c01b031916911b640100000000600160c01b03161782555b8083526003602052600260408420015491600b54928381029381850414901517156120d65781845260036020526002604085200154906127108404820391808311610c675760018060a01b03825460201c1690848752600360205260ff60036040892001541660038110156120c25791879183869415600014611fdf575082938392839283906127108c0414611fd6575bf115611fc1578480808060018060a01b036012541681906127108a0415611fcc575b6127108a0491f115611fc1575b60018060a01b03815460201c1683865260026020528560408120604051611e41816128ce565b8154815260018201546001600160a01b039081166020830152600283015481166040830152600383015416606082019081526004830154608083019081526005909301549091906101009060ff90611e9e81831660a08601612d70565b818160081c16611ead81612a19565b60c0850152818160101c16611ec181612a19565b60e085015260181c1691611ed483612a19565b0152519051906001600160a01b0316803b1561083c576040516323b872dd60e01b81523060048201526001600160a01b0394909416602485015260448401919091528290606490829084905af18015611fb657611f7a575b5054604080519283526127109094046020838101919091521c6001600160a01b0316927fa3a193cd49fb44d3709b2d13235998e900d960268b8356d3c2233340fd215c3891a35b6001815580f35b9161271060409296611fac7fa3a193cd49fb44d3709b2d13235998e900d960268b8356d3c2233340fd215c389561291d565b9692505091611f2c565b6040513d88823e3d90fd5b6040513d86823e3d90fd5b6108fc9150611e0e565b506108fc611dec565b91925050600114611ff2575b5050611e1b565b600e5460405163a9059cbb60e01b81526001600160a01b0392831660048201526024810193909352602091839160449183918b91165af18015611fb6576120a3575b50600e5460125460405163a9059cbb60e01b81526001600160a01b0391821660048201526127108704602482015291602091839160449183918b91165af18015611fb657612084575b8290611feb565b61209c9060203d6020116109d1576109c58183612931565b503861207d565b6120bb9060203d6020116109d1576109c58183612931565b5038612034565b634e487b7160e01b88526021600452602488fd5b634e487b7160e01b84526011600452602484fd5b604001518254640100000000600160c01b03191660209190911b640100000000600160c01b0316178255611d5b565b60ff60027f82ac985eec835b3d85ac933b820e0c8d0f8bf80e24078a74044741269d2c6ea09461216b6121528460409760081c16612dc0565b8383019061ff0082549160081b169061ff001916179055565b426003820155015460081c169060c081015161218681612a19565b61218f81612a19565b6121ba57602001516001600160a01b03165b82519182526001600160a01b03166020820152a2611f73565b8201516001600160a01b03166121a1565b905060ff8360181c16101538611c58565b634e487b7160e01b85526011600452602485fd5b6122216122058360028d015460101c16612dc0565b60028c019062ff000082549160101b169062ff00001916179055565b611bfc565b6001611b53565b634e487b7160e01b88526041600452602488fd5b60405162461bcd60e51b815260206004820152600d60248201526c24b73b30b634b2103837bbb2b960991b6044820152606490fd5b50600a60ff82161115611a9a565b60405162461bcd60e51b815260206004820152601660248201527510dbdd5b9d191bdddb881b9bdd08199a5b9a5cda195960521b6044820152606490fd5b50516122cd81612a19565b6122d681612a19565b15806122e6575b611a8390611a79565b5060408201516001600160a01b031633146122dd565b5060208301516001600160a01b03163314611a72565b600201546001600160a01b03163314905038611998565b50811515611969565b50346102ba57806003193601126102ba5761234b612ad4565b60015460ff8160a01c16156123935760ff60a01b19166001556040513381527f5db9ee0a495bf2e6ff9c91a7834c1ba4fdd244a5e8aa4e537bd38aeae4b073aa90602090a180f35b60405162461bcd60e51b815260206004820152601460248201527314185d5cd8589b194e881b9bdd081c185d5cd95960621b6044820152606490fd5b50346102ba57806003193601126102ba576020600b54604051908152f35b50346102ba57806003193601126102ba576020600a54604051908152f35b50346102ba5760203660031901126102ba57612436604061040f926004358152600860205220612953565b604051918291602083526020830190612854565b50346102ba576124593661280e565b90612462612ad4565b60105560115580f35b50346102ba57602080600319360112610cd75760043560095481108061263d575b61249590612c4a565b808352600282526040832061254d604051926124b0846128ce565b82548452858561251a60018060a01b03958660018201541697838101988952876002830154169760408201988952808080600386015416936060810194855261259b6040600560048901549860808501998a5201549a60a08401809c60ff9b8c9283831690612d70565b818160081c1661252981612a19565b60c0870152818160101c1661253d81612a19565b60e087015260181c169d8e612a19565b6101009d8e8501528c815260038b52209760036040519961256d8b612901565b80548b52612585836001830154169c8c019c8d612ddf565b600281015460408c015201541660608901612ddf565b519b511699511691511691519251935194600386101561262957519560068710156126295791612619969593916125e560408e8e9f61040f9e9f61260f9a98600892525220612953565b996040519d8e9d8e528d015260408c015260608b015260808a015260a089015260c0880190612824565b60e0860190612847565b6101208091850152830190612854565b634e487b7160e01b8c52602160045260248cfd5b5080151561248c565b50346102ba57602080600319360112610cd7576001600160a01b036126696127f3565b168252600781526040822060405192838383549182815201908193835284832090835b8181106126e057505050846126a2910385612931565b60405193838594850191818652518092526040850193925b8281106126c957505050500390f35b8351855286955093810193928101926001016126ba565b82548452928601926001928301920161268c565b50346102ba57806003193601126102ba57600e546040516001600160a01b039091168152602090f35b50346102ba5761272c3661280e565b90612735612ad4565b6103e8821161274757600a55600b5580f35b60405162461bcd60e51b815260206004820152600c60248201526b08ccaca40e8dede40d0d2ced60a31b6044820152606490fd5b50346102ba57806003193601126102ba576020601154604051908152f35b50346102ba5760403660031901126102ba576127b36127f3565b6024356001600160a01b038181169291839003610720576127d2612ad4565b6001600160601b0360a01b911681600c541617600c55600d541617600d5580f35b600435906001600160a01b038216820361280957565b600080fd5b6040906003190112612809576004359060243590565b9060038210156128315752565b634e487b7160e01b600052602160045260246000fd5b9060068210156128315752565b919082519283825260005b848110612880575050826000602080949584010152601f8019910116010190565b60208183018101518483018201520161285f565b90600182811c921680156128c4575b60208310146128ae57565b634e487b7160e01b600052602260045260246000fd5b91607f16916128a3565b610120810190811067ffffffffffffffff8211176128eb57604052565b634e487b7160e01b600052604160045260246000fd5b6080810190811067ffffffffffffffff8211176128eb57604052565b67ffffffffffffffff81116128eb57604052565b90601f8019910116810190811067ffffffffffffffff8211176128eb57604052565b906040519182600082549261296784612894565b9081845260019485811690816000146129d65750600114612993575b505061299192500383612931565b565b9093915060005260209081600020936000915b8183106129be57505061299193508201013880612983565b855488840185015294850194879450918301916129a6565b91505061299194506020925060ff191682840152151560051b8201013880612983565b6040906003190112612809576004359060243560ff811681036128095790565b6002111561283157565b9260ff606093969592966080860197612a3b81612a19565b8652166020850152151560408401526001600160a01b0316910152565b8054821015612a705760005260206000200190600090565b634e487b7160e01b600052603260045260246000fd5b95919460ff610100989581809681959e9d9c996101208c019f8c5260208c01521660408a01521660608801521660808601521660a084015260018060a01b031660c083015260e08201520152565b6001546001600160a01b03163303612ae857565b606460405162461bcd60e51b815260206004820152602060248201527f4f776e61626c653a2063616c6c6572206973206e6f7420746865206f776e65726044820152fd5b356001600160a01b03811681036128095790565b8054680100000000000000008110156128eb57612b6291600182018155612a58565b819291549060031b91821b91600019901b1916179055565b903590601e1981360301821215612809570180359067ffffffffffffffff82116128095760200191813603831361280957565b60ff60015460a01c16612bbc57565b60405162461bcd60e51b815260206004820152601060248201526f14185d5cd8589b194e881c185d5cd95960821b6044820152606490fd5b600260005414612c05576002600055565b60405162461bcd60e51b815260206004820152601f60248201527f5265656e7472616e637947756172643a207265656e7472616e742063616c6c006044820152606490fd5b15612c5157565b60405162461bcd60e51b815260206004820152601360248201527211d85b5948191bd95cc81b9bdd08195e1a5cdd606a1b6044820152606490fd5b15612c9357565b60405162461bcd60e51b8152602060048201526012602482015271496e76616c69642067616d6520737461746560701b6044820152606490fd5b90612cd781612a19565b63ff00000082549160181b169063ff0000001916179055565b90612cfa81612a19565b61ff0082549160081b169061ff001916179055565b90612d1981612a19565b62ff000082549160101b169062ff00001916179055565b15612d3757565b60405162461bcd60e51b81526020600482015260116024820152702737ba10309033b0b6b290383630bcb2b960791b6044820152606490fd5b60068210156128315752565b15612d8357565b60405162461bcd60e51b815260206004820152601560248201527404e6f7420796f7572207475726e20746f20666c697605c1b6044820152606490fd5b60ff1660ff81146113cf5760010190565b3560ff811681036128095790565b60038210156128315752565b9060038110156128315760ff80198354169116179055565b9081602091031261280957518015158103612809579056fea264697066735822122008deca6736fb1c38080642858ce3132f7d96fd01a984a50d9b456c501d42677764736f6c63430008140033","opcodes":"PUSH1 0x80 CALLVALUE PUSH3 0x12C JUMPI PUSH1 0x1F PUSH3 0x2FAE CODESIZE DUP2 SWAP1 SUB SWAP2 DUP3 ADD PUSH1 0x1F NOT AND DUP4 ADD SWAP2 PUSH1 0x1 PUSH1 0x1 PUSH1 0x40 SHL SUB DUP4 GT DUP5 DUP5 LT OR PUSH3 0x131 JUMPI DUP1 DUP5 SWAP3 PUSH1 0x80 SWAP5 PUSH1 0x40 MSTORE DUP4 CODECOPY DUP2 ADD SUB SLT PUSH3 0x12C JUMPI PUSH3 0x4D DUP2 PUSH3 0x147 JUMP JUMPDEST PUSH3 0x5B PUSH1 0x20 DUP4 ADD PUSH3 0x147 JUMP JUMPDEST PUSH3 0x77 PUSH1 0x60 PUSH3 0x6F PUSH1 0x40 DUP7 ADD PUSH3 0x147 JUMP JUMPDEST SWAP5 ADD PUSH3 0x147 JUMP JUMPDEST PUSH1 0x1 PUSH1 0x0 SSTORE PUSH1 0x1 SLOAD PUSH1 0x40 MLOAD SWAP5 PUSH1 0x1 DUP1 PUSH1 0xA0 SHL SUB DUP1 SWAP5 DUP2 SWAP4 CALLER DUP4 DUP3 AND PUSH32 0x8BE0079C531659141344CD1FD0A4F28419497F9722A3DAAFE3B4186F6B6457E0 PUSH1 0x0 DUP1 LOG3 PUSH1 0xFF PUSH1 0xA0 SHL NOT CALLER AND SWAP1 PUSH1 0x1 DUP1 PUSH1 0xA8 SHL SUB NOT AND OR PUSH1 0x1 SSTORE PUSH1 0x1 PUSH1 0x9 SSTORE PUSH3 0x30D40 PUSH1 0xA SSTORE PUSH2 0x1F4 PUSH1 0xB SSTORE PUSH3 0x93A80 PUSH1 0x10 SSTORE PUSH3 0x15180 PUSH1 0x11 SSTORE DUP2 PUSH1 0x1 DUP1 PUSH1 0xA0 SHL SUB NOT SWAP8 AND DUP8 PUSH1 0xC SLOAD AND OR PUSH1 0xC SSTORE AND DUP6 PUSH1 0xD SLOAD AND OR PUSH1 0xD SSTORE AND DUP4 PUSH1 0xE SLOAD AND OR PUSH1 0xE SSTORE AND SWAP1 PUSH1 0x12 SLOAD AND OR PUSH1 0x12 SSTORE PUSH2 0x2E51 SWAP1 DUP2 PUSH3 0x15D DUP3 CODECOPY RETURN JUMPDEST PUSH1 0x0 DUP1 REVERT JUMPDEST PUSH4 0x4E487B71 PUSH1 0xE0 SHL PUSH1 0x0 MSTORE PUSH1 0x41 PUSH1 0x4 MSTORE PUSH1 0x24 PUSH1 0x0 REVERT JUMPDEST MLOAD SWAP1 PUSH1 0x1 PUSH1 0x1 PUSH1 0xA0 SHL SUB DUP3 AND DUP3 SUB PUSH3 0x12C JUMPI JUMP INVALID PUSH1 0x80 PUSH1 0x40 MSTORE PUSH1 0x4 CALLDATASIZE LT ISZERO PUSH2 0x1B JUMPI JUMPDEST CALLDATASIZE ISZERO PUSH2 0x19 JUMPI PUSH1 0x0 DUP1 REVERT JUMPDEST STOP JUMPDEST PUSH1 0x0 DUP1 CALLDATALOAD PUSH1 0xE0 SHR DUP1 PUSH4 0x68F158D EQ PUSH2 0x2799 JUMPI DUP1 PUSH4 0xB1FB002 EQ PUSH2 0x277B JUMPI DUP1 PUSH4 0xB78F9C0 EQ PUSH2 0x271D JUMPI DUP1 PUSH4 0x11EAC855 EQ PUSH2 0x26F4 JUMPI DUP1 PUSH4 0x120AACE6 EQ PUSH2 0x2646 JUMPI DUP1 PUSH4 0x15E163FB EQ PUSH2 0x246B JUMPI DUP1 PUSH4 0x175A2BD1 EQ PUSH2 0x244A JUMPI DUP1 PUSH4 0x279EFA94 EQ PUSH2 0x240B JUMPI DUP1 PUSH4 0x3A38D063 EQ PUSH2 0x23ED JUMPI DUP1 PUSH4 0x3D05CFDC EQ PUSH2 0x23CF JUMPI DUP1 PUSH4 0x3F4BA83A EQ PUSH2 0x2332 JUMPI DUP1 PUSH4 0x3FD42EB4 EQ PUSH2 0x193F JUMPI DUP1 PUSH4 0x4D9A75E5 EQ PUSH2 0x1916 JUMPI DUP1 PUSH4 0x5C975ABB EQ PUSH2 0x18F0 JUMPI DUP1 PUSH4 0x5E82FF65 EQ PUSH2 0x18D4 JUMPI DUP1 PUSH4 0x67D81740 EQ PUSH2 0x18B7 JUMPI DUP1 PUSH4 0x69958AB9 EQ PUSH2 0x16AC JUMPI DUP1 PUSH4 0x6DA1E102 EQ PUSH2 0x166C JUMPI DUP1 PUSH4 0x6FADC5FE EQ PUSH2 0x15CF JUMPI DUP1 PUSH4 0x715018A6 EQ PUSH2 0x1571 JUMPI DUP1 PUSH4 0x7B09A1F4 EQ PUSH2 0x1518 JUMPI DUP1 PUSH4 0x7BBC3FCF EQ PUSH2 0xDCA JUMPI DUP1 PUSH4 0x8009B7BD EQ PUSH2 0xDA1 JUMPI DUP1 PUSH4 0x8057CBBB EQ PUSH2 0xD3E JUMPI DUP1 PUSH4 0x8456CB59 EQ PUSH2 0xCDB JUMPI DUP1 PUSH4 0x87BD15EF EQ PUSH2 0xAA2 JUMPI DUP1 PUSH4 0x8DA5CB5B EQ PUSH2 0xA79 JUMPI DUP1 PUSH4 0x922B8079 EQ PUSH2 0x9E3 JUMPI DUP1 PUSH4 0x95CCEA67 EQ PUSH2 0x8FE JUMPI DUP1 PUSH4 0xABF1B86E EQ PUSH2 0x840 JUMPI DUP1 PUSH4 0xAE48612B EQ PUSH2 0x7C1 JUMPI DUP1 PUSH4 0xB135BBB0 EQ PUSH2 0x7A3 JUMPI DUP1 PUSH4 0xB3F00674 EQ PUSH2 0x77A JUMPI DUP1 PUSH4 0xBC0167CD EQ PUSH2 0x724 JUMPI DUP1 PUSH4 0xCA6649C5 EQ PUSH2 0x4E1 JUMPI DUP1 PUSH4 0xD24C9EEE EQ PUSH2 0x413 JUMPI DUP1 PUSH4 0xDBB19DAD EQ PUSH2 0x39E JUMPI DUP1 PUSH4 0xDE840041 EQ PUSH2 0x380 JUMPI DUP1 PUSH4 0xE1758BD8 EQ PUSH2 0x357 JUMPI DUP1 PUSH4 0xEC71394A EQ PUSH2 0x33B JUMPI DUP1 PUSH4 0xEFDCD974 EQ PUSH2 0x2BD JUMPI PUSH4 0xF2FDE38B EQ PUSH2 0x1F5 JUMPI POP PUSH2 0xE JUMP JUMPDEST CALLVALUE PUSH2 0x2BA JUMPI PUSH1 0x20 CALLDATASIZE PUSH1 0x3 NOT ADD SLT PUSH2 0x2BA JUMPI PUSH2 0x20E PUSH2 0x27F3 JUMP JUMPDEST PUSH2 0x216 PUSH2 0x2AD4 JUMP JUMPDEST PUSH1 0x1 PUSH1 0x1 PUSH1 0xA0 SHL SUB SWAP1 DUP2 AND SWAP1 DUP2 ISZERO PUSH2 0x266 JUMPI PUSH1 0x1 SLOAD DUP3 PUSH1 0x1 PUSH1 0x1 PUSH1 0x60 SHL SUB PUSH1 0xA0 SHL DUP3 AND OR PUSH1 0x1 SSTORE AND PUSH32 0x8BE0079C531659141344CD1FD0A4F28419497F9722A3DAAFE3B4186F6B6457E0 PUSH1 0x0 DUP1 LOG3 DUP1 RETURN JUMPDEST PUSH1 0x40 MLOAD PUSH3 0x461BCD PUSH1 0xE5 SHL DUP2 MSTORE PUSH1 0x20 PUSH1 0x4 DUP3 ADD MSTORE PUSH1 0x26 PUSH1 0x24 DUP3 ADD MSTORE PUSH32 0x4F776E61626C653A206E6577206F776E657220697320746865207A65726F2061 PUSH1 0x44 DUP3 ADD MSTORE PUSH6 0x646472657373 PUSH1 0xD0 SHL PUSH1 0x64 DUP3 ADD MSTORE PUSH1 0x84 SWAP1 REVERT JUMPDEST DUP1 REVERT JUMPDEST POP CALLVALUE PUSH2 0x2BA JUMPI PUSH1 0x20 CALLDATASIZE PUSH1 0x3 NOT ADD SLT PUSH2 0x2BA JUMPI PUSH2 0x2D7 PUSH2 0x27F3 JUMP JUMPDEST PUSH2 0x2DF PUSH2 0x2AD4 JUMP JUMPDEST PUSH1 0x1 PUSH1 0x1 PUSH1 0xA0 SHL SUB AND DUP1 ISZERO PUSH2 0x304 JUMPI PUSH1 0x1 PUSH1 0x1 PUSH1 0x60 SHL SUB PUSH1 0xA0 SHL PUSH1 0x12 SLOAD AND OR PUSH1 0x12 SSTORE DUP1 RETURN JUMPDEST PUSH1 0x40 MLOAD PUSH3 0x461BCD PUSH1 0xE5 SHL DUP2 MSTORE PUSH1 0x20 PUSH1 0x4 DUP3 ADD MSTORE PUSH1 0xF PUSH1 0x24 DUP3 ADD MSTORE PUSH15 0x496E76616C69642061646472657373 PUSH1 0x88 SHL PUSH1 0x44 DUP3 ADD MSTORE PUSH1 0x64 SWAP1 REVERT JUMPDEST POP CALLVALUE PUSH2 0x2BA JUMPI DUP1 PUSH1 0x3 NOT CALLDATASIZE ADD SLT PUSH2 0x2BA JUMPI PUSH1 0x20 PUSH1 0x40 MLOAD PUSH1 0x5 DUP2 MSTORE RETURN JUMPDEST POP CALLVALUE PUSH2 0x2BA JUMPI DUP1 PUSH1 0x3 NOT CALLDATASIZE ADD SLT PUSH2 0x2BA JUMPI PUSH1 0xF SLOAD PUSH1 0x40 MLOAD PUSH1 0x1 PUSH1 0x1 PUSH1 0xA0 SHL SUB SWAP1 SWAP2 AND DUP2 MSTORE PUSH1 0x20 SWAP1 RETURN JUMPDEST POP CALLVALUE PUSH2 0x2BA JUMPI DUP1 PUSH1 0x3 NOT CALLDATASIZE ADD SLT PUSH2 0x2BA JUMPI PUSH1 0x20 PUSH1 0x10 SLOAD PUSH1 0x40 MLOAD SWAP1 DUP2 MSTORE RETURN JUMPDEST POP CALLVALUE PUSH2 0x2BA JUMPI PUSH1 0x20 CALLDATASIZE PUSH1 0x3 NOT ADD SLT PUSH2 0x2BA JUMPI PUSH1 0x40 SWAP1 PUSH1 0x4 CALLDATALOAD DUP2 MSTORE PUSH1 0x4 PUSH1 0x20 MSTORE KECCAK256 DUP1 SLOAD SWAP1 PUSH2 0x40F PUSH1 0x1 DUP3 ADD SLOAD SWAP2 PUSH1 0x2 DUP2 ADD SLOAD SWAP1 PUSH1 0x4 PUSH1 0x3 DUP3 ADD SLOAD SWAP2 ADD SLOAD SWAP2 PUSH1 0x40 MLOAD SWAP6 DUP7 SWAP6 PUSH1 0x1 DUP1 PUSH1 0xA0 SHL SUB DUP4 PUSH1 0x20 SHR AND SWAP3 PUSH1 0xFF DUP2 PUSH1 0x18 SHR AND SWAP3 PUSH1 0xFF DUP3 PUSH1 0x10 SHR AND SWAP3 PUSH1 0xFF DUP1 DUP5 PUSH1 0x8 SHR AND SWAP4 AND SWAP2 DUP11 PUSH2 0x2A86 JUMP JUMPDEST SUB SWAP1 RETURN JUMPDEST POP CALLVALUE PUSH2 0x2BA JUMPI PUSH1 0x20 CALLDATASIZE PUSH1 0x3 NOT ADD SLT PUSH2 0x2BA JUMPI PUSH1 0x40 SWAP1 PUSH1 0x4 CALLDATALOAD PUSH1 0x9 SLOAD DUP2 LT DUP1 PUSH2 0x4D8 JUMPI JUMPDEST PUSH2 0x43F SWAP1 PUSH2 0x2C4A JUMP JUMPDEST DUP2 MSTORE PUSH1 0x4 PUSH1 0x20 MSTORE KECCAK256 PUSH1 0x40 MLOAD SWAP1 PUSH2 0x454 DUP3 PUSH2 0x28CE JUMP JUMPDEST PUSH2 0x40F PUSH2 0x100 DUP3 SLOAD SWAP3 DUP4 DUP6 MSTORE PUSH1 0x1 DUP2 ADD SLOAD SWAP5 DUP6 PUSH1 0x20 DUP3 ADD MSTORE PUSH1 0x2 DUP3 ADD SLOAD PUSH1 0xFF DUP2 AND DUP1 PUSH1 0x40 DUP5 ADD MSTORE PUSH1 0xFF DUP3 PUSH1 0x8 SHR AND DUP1 PUSH1 0x60 DUP6 ADD MSTORE PUSH1 0xFF DUP4 PUSH1 0x10 SHR AND SWAP2 DUP3 PUSH1 0x80 DUP7 ADD MSTORE PUSH1 0xFF DUP5 PUSH1 0x18 SHR AND SWAP4 DUP5 PUSH1 0xA0 DUP8 ADD MSTORE PUSH1 0x1 DUP1 PUSH1 0xA0 SHL SUB SWAP1 PUSH1 0x20 SHR AND SWAP5 DUP6 PUSH1 0xC0 DUP3 ADD MSTORE PUSH1 0x4 PUSH1 0x3 DUP9 ADD SLOAD SWAP8 DUP9 PUSH1 0xE0 DUP5 ADD MSTORE ADD SLOAD SWAP8 DUP9 SWAP2 ADD MSTORE PUSH1 0x40 MLOAD SWAP10 DUP11 SWAP10 DUP11 PUSH2 0x2A86 JUMP JUMPDEST POP DUP1 ISZERO ISZERO PUSH2 0x436 JUMP JUMPDEST POP CALLVALUE PUSH2 0x2BA JUMPI PUSH1 0x40 CALLDATASIZE PUSH1 0x3 NOT ADD SLT PUSH2 0x2BA JUMPI PUSH1 0x2 PUSH1 0x24 CALLDATALOAD PUSH1 0x4 CALLDATALOAD DUP3 DUP3 LT ISZERO PUSH2 0x720 JUMPI PUSH2 0x50B PUSH2 0x2BAD JUMP JUMPDEST PUSH2 0x513 PUSH2 0x2BF4 JUMP JUMPDEST PUSH1 0x9 SLOAD DUP2 LT DUP1 PUSH2 0x717 JUMPI JUMPDEST PUSH2 0x527 SWAP1 PUSH2 0x2C4A JUMP JUMPDEST DUP1 DUP5 MSTORE PUSH1 0x20 DUP4 DUP2 MSTORE PUSH1 0xFF PUSH1 0x5 PUSH1 0x40 DUP8 KECCAK256 ADD SLOAD AND PUSH1 0x6 DUP2 LT ISZERO PUSH2 0x703 JUMPI PUSH2 0x54D SWAP1 ISZERO PUSH2 0x2C8C JUMP JUMPDEST DUP2 DUP6 MSTORE DUP4 DUP2 MSTORE PUSH1 0x1 SWAP4 PUSH1 0x1 DUP1 PUSH1 0xA0 SHL SUB DUP6 PUSH1 0x40 DUP9 KECCAK256 ADD SLOAD AND CALLER EQ PUSH2 0x6C7 JUMPI DUP3 DUP7 MSTORE PUSH1 0x4 DUP3 MSTORE DUP5 PUSH1 0x40 DUP8 KECCAK256 ADD SLOAD TIMESTAMP LT ISZERO PUSH2 0x693 JUMPI SWAP1 PUSH32 0x9543429FF4D0366BDA7E6F7907AB4D8C123AD250F9A8D6ECFFABE880AB084E04 SWAP2 DUP6 PUSH1 0x40 MLOAD DUP4 DUP2 ADD SWAP1 TIMESTAMP DUP3 MSTORE PREVRANDAO PUSH1 0x40 DUP3 ADD MSTORE DUP7 PUSH1 0x60 DUP3 ADD MSTORE PUSH1 0x60 DUP2 MSTORE PUSH2 0x5C7 DUP2 PUSH2 0x2901 JUMP JUMPDEST MLOAD SWAP1 KECCAK256 AND ISZERO DUP5 DUP9 MSTORE DUP2 DUP4 MSTORE PUSH2 0x5F7 DUP7 PUSH1 0x5 PUSH1 0x40 DUP12 KECCAK256 DUP6 DUP2 ADD CALLER PUSH1 0x1 PUSH1 0x1 PUSH1 0x60 SHL SUB PUSH1 0xA0 SHL DUP3 SLOAD AND OR SWAP1 SSTORE ADD PUSH2 0x2CCD JUMP JUMPDEST DUP1 ISZERO PUSH2 0x68A JUMPI PUSH2 0x614 DUP9 JUMPDEST DUP7 DUP11 MSTORE DUP4 DUP6 MSTORE PUSH1 0x5 PUSH1 0x40 DUP12 KECCAK256 ADD PUSH2 0x2CF0 JUMP JUMPDEST ISZERO PUSH2 0x681 JUMPI PUSH2 0x630 DUP7 JUMPDEST DUP6 DUP10 MSTORE DUP3 DUP5 MSTORE PUSH1 0x5 PUSH1 0x40 DUP11 KECCAK256 ADD PUSH2 0x2D0F JUMP JUMPDEST DUP4 DUP8 MSTORE DUP2 MSTORE PUSH1 0x5 PUSH1 0x40 DUP8 KECCAK256 ADD DUP6 PUSH1 0xFF NOT DUP3 SLOAD AND OR SWAP1 SSTORE DUP3 DUP7 MSTORE PUSH1 0x4 DUP2 MSTORE TIMESTAMP PUSH1 0x3 PUSH1 0x40 DUP9 KECCAK256 ADD SSTORE CALLER DUP7 MSTORE PUSH1 0x7 DUP2 MSTORE PUSH2 0x66A DUP4 PUSH1 0x40 DUP9 KECCAK256 PUSH2 0x2B40 JUMP JUMPDEST PUSH1 0x40 MLOAD SWAP4 PUSH2 0x677 DUP2 PUSH2 0x2A19 JUMP JUMPDEST DUP5 MSTORE CALLER SWAP4 LOG3 DUP2 SSTORE DUP1 RETURN JUMPDEST PUSH2 0x630 DUP8 PUSH2 0x61E JUMP JUMPDEST PUSH2 0x614 DUP8 PUSH2 0x602 JUMP JUMPDEST PUSH1 0x40 MLOAD PUSH3 0x461BCD PUSH1 0xE5 SHL DUP2 MSTORE PUSH1 0x4 DUP2 ADD DUP4 SWAP1 MSTORE PUSH1 0xC PUSH1 0x24 DUP3 ADD MSTORE PUSH12 0x11D85B5948195E1C1A5C9959 PUSH1 0xA2 SHL PUSH1 0x44 DUP3 ADD MSTORE PUSH1 0x64 SWAP1 REVERT JUMPDEST PUSH1 0x40 MLOAD PUSH3 0x461BCD PUSH1 0xE5 SHL DUP2 MSTORE PUSH1 0x4 DUP2 ADD DUP4 SWAP1 MSTORE PUSH1 0x14 PUSH1 0x24 DUP3 ADD MSTORE PUSH20 0x43616E6E6F74206A6F696E206F776E2067616D65 PUSH1 0x60 SHL PUSH1 0x44 DUP3 ADD MSTORE PUSH1 0x64 SWAP1 REVERT JUMPDEST PUSH4 0x4E487B71 PUSH1 0xE0 SHL DUP7 MSTORE PUSH1 0x21 PUSH1 0x4 MSTORE PUSH1 0x24 DUP7 REVERT JUMPDEST POP DUP1 ISZERO ISZERO PUSH2 0x51E JUMP JUMPDEST DUP4 DUP1 REVERT JUMPDEST POP CALLVALUE PUSH2 0x2BA JUMPI PUSH1 0x40 CALLDATASIZE PUSH1 0x3 NOT ADD SLT PUSH2 0x2BA JUMPI PUSH2 0x73E PUSH2 0x27F3 JUMP JUMPDEST PUSH1 0x1 PUSH1 0x1 PUSH1 0xA0 SHL SUB AND DUP2 MSTORE PUSH1 0x7 PUSH1 0x20 MSTORE PUSH1 0x40 DUP2 KECCAK256 DUP1 SLOAD PUSH1 0x24 CALLDATALOAD SWAP3 SWAP1 DUP4 LT ISZERO PUSH2 0x2BA JUMPI PUSH1 0x20 PUSH2 0x76C DUP5 DUP5 PUSH2 0x2A58 JUMP JUMPDEST SWAP1 SLOAD PUSH1 0x40 MLOAD SWAP2 PUSH1 0x3 SHL SHR DUP2 MSTORE RETURN JUMPDEST POP CALLVALUE PUSH2 0x2BA JUMPI DUP1 PUSH1 0x3 NOT CALLDATASIZE ADD SLT PUSH2 0x2BA JUMPI PUSH1 0x12 SLOAD PUSH1 0x40 MLOAD PUSH1 0x1 PUSH1 0x1 PUSH1 0xA0 SHL SUB SWAP1 SWAP2 AND DUP2 MSTORE PUSH1 0x20 SWAP1 RETURN JUMPDEST POP CALLVALUE PUSH2 0x2BA JUMPI DUP1 PUSH1 0x3 NOT CALLDATASIZE ADD SLT PUSH2 0x2BA JUMPI PUSH1 0x20 PUSH1 0x9 SLOAD PUSH1 0x40 MLOAD SWAP1 DUP2 MSTORE RETURN JUMPDEST POP CALLVALUE PUSH2 0x2BA JUMPI PUSH2 0x7D0 CALLDATASIZE PUSH2 0x280E JUMP JUMPDEST SWAP1 DUP3 MSTORE PUSH1 0x6 PUSH1 0x20 MSTORE PUSH1 0x40 DUP3 KECCAK256 DUP1 SLOAD DUP3 LT ISZERO PUSH2 0x83C JUMPI DUP3 PUSH1 0x20 SWAP2 PUSH1 0xA0 SWAP5 MSTORE KECCAK256 SWAP1 PUSH1 0x2 SHL ADD PUSH1 0x1 DUP1 DUP4 SHL SUB DUP2 SLOAD AND SWAP1 PUSH1 0xFF PUSH1 0x1 DUP3 ADD SLOAD SWAP2 PUSH1 0x3 PUSH1 0x2 DUP3 ADD SLOAD SWAP2 ADD SLOAD SWAP3 PUSH1 0x40 MLOAD SWAP5 DUP6 MSTORE PUSH1 0x20 DUP6 ADD MSTORE PUSH2 0x82A PUSH1 0x40 DUP6 ADD DUP4 DUP4 AND PUSH2 0x2824 JUMP JUMPDEST PUSH1 0x8 SHR AND ISZERO ISZERO PUSH1 0x60 DUP4 ADD MSTORE PUSH1 0x80 DUP3 ADD MSTORE RETURN JUMPDEST DUP3 DUP1 REVERT JUMPDEST POP CALLVALUE PUSH2 0x2BA JUMPI PUSH1 0x20 CALLDATASIZE PUSH1 0x3 NOT ADD SLT PUSH2 0x2BA JUMPI PUSH1 0x40 PUSH2 0x120 SWAP2 PUSH1 0x4 CALLDATALOAD DUP2 MSTORE PUSH1 0x2 PUSH1 0x20 MSTORE KECCAK256 DUP1 SLOAD SWAP1 PUSH1 0x1 DUP1 PUSH1 0xA0 SHL SUB DUP1 PUSH1 0x1 DUP4 ADD SLOAD AND SWAP2 PUSH2 0x8D1 DUP3 PUSH1 0x2 DUP4 ADD SLOAD AND SWAP3 PUSH1 0x3 DUP4 ADD SLOAD AND SWAP2 PUSH1 0x5 PUSH1 0x4 DUP3 ADD SLOAD SWAP2 ADD SLOAD SWAP1 PUSH1 0xFF DUP3 PUSH1 0x8 SHR AND SWAP4 PUSH1 0xFF DUP4 PUSH1 0x10 SHR AND SWAP6 PUSH1 0xFF DUP5 PUSH1 0x18 SHR AND SWAP8 PUSH1 0x40 MLOAD SWAP10 DUP11 MSTORE PUSH1 0x20 DUP11 ADD MSTORE PUSH1 0x40 DUP10 ADD MSTORE PUSH1 0x60 DUP9 ADD MSTORE PUSH1 0x80 DUP8 ADD MSTORE PUSH1 0xFF PUSH1 0xA0 DUP8 ADD SWAP2 AND PUSH2 0x2847 JUMP JUMPDEST PUSH2 0x8DA DUP2 PUSH2 0x2A19 JUMP JUMPDEST PUSH1 0xC0 DUP5 ADD MSTORE PUSH2 0x8E8 DUP2 PUSH2 0x2A19 JUMP JUMPDEST PUSH1 0xE0 DUP4 ADD MSTORE PUSH2 0x8F6 DUP2 PUSH2 0x2A19 JUMP JUMPDEST PUSH2 0x100 DUP3 ADD MSTORE RETURN JUMPDEST POP CALLVALUE PUSH2 0x2BA JUMPI PUSH1 0x40 CALLDATASIZE PUSH1 0x3 NOT ADD SLT PUSH2 0x2BA JUMPI DUP1 PUSH2 0x919 PUSH2 0x27F3 JUMP JUMPDEST PUSH1 0x24 CALLDATALOAD SWAP1 PUSH2 0x925 PUSH2 0x2AD4 JUMP JUMPDEST PUSH1 0x1 PUSH1 0x1 PUSH1 0xA0 SHL SUB SWAP1 DUP2 AND DUP1 PUSH2 0x965 JUMPI POP DUP3 DUP1 SWAP3 DUP2 SWAP3 PUSH1 0x1 SLOAD AND DUP3 DUP3 ISZERO PUSH2 0x95C JUMPI JUMPDEST CALL ISZERO PUSH2 0x950 JUMPI DUP1 RETURN JUMPDEST PUSH1 0x40 MLOAD SWAP1 RETURNDATASIZE SWAP1 DUP3 RETURNDATACOPY RETURNDATASIZE SWAP1 REVERT JUMPDEST POP PUSH2 0x8FC PUSH2 0x947 JUMP JUMPDEST PUSH1 0x1 SLOAD PUSH1 0x40 MLOAD PUSH4 0xA9059CBB PUSH1 0xE0 SHL DUP2 MSTORE SWAP3 AND PUSH1 0x1 PUSH1 0x1 PUSH1 0xA0 SHL SUB AND PUSH1 0x4 DUP4 ADD MSTORE PUSH1 0x24 DUP3 ADD SWAP3 SWAP1 SWAP3 MSTORE SWAP2 POP PUSH1 0x20 SWAP1 DUP3 SWAP1 DUP2 DUP6 DUP2 PUSH1 0x44 DUP2 ADD SUB SWAP3 GAS CALL DUP1 ISZERO PUSH2 0x9D8 JUMPI PUSH2 0x9AD JUMPI POP DUP1 RETURN JUMPDEST PUSH2 0x9CD SWAP1 PUSH1 0x20 RETURNDATASIZE DUP2 GT PUSH2 0x9D1 JUMPI JUMPDEST PUSH2 0x9C5 DUP2 DUP4 PUSH2 0x2931 JUMP JUMPDEST DUP2 ADD SWAP1 PUSH2 0x2E03 JUMP JUMPDEST POP DUP1 RETURN JUMPDEST POP RETURNDATASIZE PUSH2 0x9BB JUMP JUMPDEST PUSH1 0x40 MLOAD RETURNDATASIZE DUP5 DUP3 RETURNDATACOPY RETURNDATASIZE SWAP1 REVERT JUMPDEST POP CALLVALUE PUSH2 0x2BA JUMPI PUSH1 0x40 CALLDATASIZE PUSH1 0x3 NOT ADD SLT PUSH2 0x2BA JUMPI DUP1 PUSH2 0x9FE PUSH2 0x27F3 JUMP JUMPDEST PUSH2 0xA06 PUSH2 0x2AD4 JUMP JUMPDEST PUSH1 0x1 SLOAD PUSH1 0x1 PUSH1 0x1 PUSH1 0xA0 SHL SUB SWAP1 DUP2 AND SWAP2 AND DUP1 EXTCODESIZE ISZERO PUSH2 0xA75 JUMPI PUSH1 0x40 MLOAD PUSH4 0x23B872DD PUSH1 0xE0 SHL DUP2 MSTORE ADDRESS PUSH1 0x4 DUP3 ADD MSTORE PUSH1 0x1 PUSH1 0x1 PUSH1 0xA0 SHL SUB SWAP3 SWAP1 SWAP3 AND PUSH1 0x24 DUP1 DUP5 ADD SWAP2 SWAP1 SWAP2 MSTORE CALLDATALOAD PUSH1 0x44 DUP4 ADD MSTORE DUP3 SWAP1 DUP3 SWAP1 PUSH1 0x64 SWAP1 DUP3 SWAP1 DUP5 SWAP1 GAS CALL DUP1 ISZERO PUSH2 0x9D8 JUMPI PUSH2 0xA65 JUMPI POP RETURN JUMPDEST PUSH2 0xA6E SWAP1 PUSH2 0x291D JUMP JUMPDEST PUSH2 0x2BA JUMPI DUP1 RETURN JUMPDEST POP POP REVERT JUMPDEST POP CALLVALUE PUSH2 0x2BA JUMPI DUP1 PUSH1 0x3 NOT CALLDATASIZE ADD SLT PUSH2 0x2BA JUMPI PUSH1 0x1 SLOAD PUSH1 0x40 MLOAD PUSH1 0x1 PUSH1 0x1 PUSH1 0xA0 SHL SUB SWAP1 SWAP2 AND DUP2 MSTORE PUSH1 0x20 SWAP1 RETURN JUMPDEST POP CALLVALUE PUSH2 0x2BA JUMPI PUSH1 0x20 DUP1 PUSH1 0x3 NOT CALLDATASIZE ADD SLT PUSH2 0xCD7 JUMPI PUSH1 0x4 CALLDATALOAD SWAP1 PUSH2 0xAC1 PUSH2 0x2BAD JUMP JUMPDEST PUSH2 0xAC9 PUSH2 0x2BF4 JUMP JUMPDEST PUSH1 0x9 SLOAD DUP3 LT DUP1 PUSH2 0xCCE JUMPI JUMPDEST PUSH2 0xADD SWAP1 PUSH2 0x2C4A JUMP JUMPDEST DUP2 DUP4 MSTORE PUSH1 0x2 DUP1 DUP3 MSTORE PUSH1 0xFF DUP1 PUSH1 0x5 PUSH1 0x40 DUP8 KECCAK256 ADD SLOAD AND PUSH1 0x6 DUP2 LT ISZERO PUSH2 0x703 JUMPI PUSH1 0x1 PUSH2 0xB06 SWAP2 EQ PUSH2 0x2C8C JUMP JUMPDEST DUP4 DUP6 MSTORE DUP2 DUP4 MSTORE PUSH2 0xC07 PUSH1 0x40 DUP7 KECCAK256 PUSH2 0xB39 PUSH1 0x1 DUP1 PUSH1 0xA0 SHL SUB SWAP2 DUP3 DUP7 DUP2 PUSH1 0x1 DUP5 ADD SLOAD AND CALLER EQ SWAP3 DUP4 ISZERO PUSH2 0xCBF JUMPI JUMPDEST POP POP POP PUSH2 0x2D30 JUMP JUMPDEST DUP6 DUP8 MSTORE DUP4 DUP6 MSTORE PUSH1 0x40 DUP8 KECCAK256 PUSH1 0x40 MLOAD SWAP2 PUSH2 0xB50 DUP4 PUSH2 0x28CE JUMP JUMPDEST DUP2 SLOAD DUP4 MSTORE DUP1 PUSH1 0x1 DUP4 ADD SLOAD AND SWAP3 DUP8 DUP2 ADD SWAP4 DUP5 MSTORE PUSH1 0x5 DUP3 DUP9 DUP6 ADD SLOAD AND SWAP4 PUSH1 0x40 DUP4 ADD SWAP5 DUP6 MSTORE DUP4 PUSH1 0x3 DUP3 ADD SLOAD AND PUSH1 0x60 DUP5 ADD MSTORE PUSH1 0x4 DUP2 ADD SLOAD PUSH1 0x80 DUP5 ADD MSTORE ADD SLOAD SWAP1 PUSH2 0xB9A DUP8 DUP4 AND PUSH1 0xA0 DUP4 ADD PUSH2 0x2D70 JUMP JUMPDEST DUP7 DUP3 PUSH1 0x8 SHR AND SWAP1 PUSH1 0xC0 DUP2 ADD SWAP2 PUSH2 0xBAF DUP2 PUSH2 0x2A19 JUMP JUMPDEST DUP3 MSTORE PUSH2 0x100 DUP9 DUP1 DUP6 PUSH1 0x10 SHR AND SWAP5 PUSH1 0xE0 DUP5 ADD SWAP6 PUSH2 0xBCA DUP2 PUSH2 0x2A19 JUMP JUMPDEST DUP7 MSTORE PUSH1 0x18 SHR AND SWAP2 PUSH2 0xBDA DUP4 PUSH2 0x2A19 JUMP JUMPDEST ADD MSTORE MLOAD PUSH2 0xBE6 DUP2 PUSH2 0x2A19 JUMP JUMPDEST PUSH2 0xBEF DUP2 PUSH2 0x2A19 JUMP JUMPDEST ISZERO SWAP4 DUP5 PUSH2 0xCB2 JUMPI JUMPDEST POP DUP4 ISZERO PUSH2 0xC7B JUMPI JUMPDEST POP POP POP PUSH2 0x2D7C JUMP JUMPDEST PUSH1 0x5 TIMESTAMP ADD SWAP2 DUP3 TIMESTAMP GT PUSH2 0xC67 JUMPI SWAP2 PUSH32 0x691488032358F2F429EBC3E391E4AD8C59592E466CEA1E7C2B98244D1ADEF316 SWAP4 SWAP2 PUSH1 0x40 SWAP4 DUP7 DUP9 MSTORE PUSH1 0x4 DUP5 MSTORE DUP5 DUP9 KECCAK256 DUP4 PUSH1 0x4 DUP3 ADD SSTORE TIMESTAMP PUSH1 0x3 DUP3 ADD SSTORE ADD SLOAD PUSH1 0x8 SHR AND SWAP2 DUP4 MLOAD SWAP3 DUP4 MSTORE DUP3 ADD MSTORE LOG2 PUSH1 0x1 DUP2 SSTORE DUP1 RETURN JUMPDEST PUSH4 0x4E487B71 PUSH1 0xE0 SHL DUP7 MSTORE PUSH1 0x11 PUSH1 0x4 MSTORE PUSH1 0x24 DUP7 REVERT JUMPDEST SWAP1 SWAP2 SWAP3 POP MLOAD PUSH2 0xC89 DUP2 PUSH2 0x2A19 JUMP JUMPDEST PUSH2 0xC92 DUP2 PUSH2 0x2A19 JUMP JUMPDEST ISZERO SWAP2 DUP3 PUSH2 0xCA4 JUMPI JUMPDEST POP POP CODESIZE DUP1 DUP1 PUSH2 0xBFF JUMP JUMPDEST SWAP1 SWAP2 POP MLOAD AND CALLER EQ CODESIZE DUP1 PUSH2 0xC9A JUMP JUMPDEST MLOAD DUP3 AND CALLER EQ SWAP4 POP CODESIZE PUSH2 0xBF7 JUMP JUMPDEST ADD SLOAD AND CALLER EQ SWAP1 POP DUP3 DUP7 CODESIZE PUSH2 0xB31 JUMP JUMPDEST POP DUP2 ISZERO ISZERO PUSH2 0xAD4 JUMP JUMPDEST POP DUP1 REVERT JUMPDEST POP CALLVALUE PUSH2 0x2BA JUMPI DUP1 PUSH1 0x3 NOT CALLDATASIZE ADD SLT PUSH2 0x2BA JUMPI PUSH2 0xCF4 PUSH2 0x2AD4 JUMP JUMPDEST PUSH2 0xCFC PUSH2 0x2BAD JUMP JUMPDEST PUSH1 0x1 DUP1 SLOAD PUSH1 0xFF PUSH1 0xA0 SHL NOT AND PUSH1 0x1 PUSH1 0xA0 SHL OR SWAP1 SSTORE PUSH1 0x40 MLOAD CALLER DUP2 MSTORE PUSH32 0x62E78CEA01BEE320CD4E420270B5EA74000D11B0C9F74754EBDBFC544B05A258 SWAP1 PUSH1 0x20 SWAP1 LOG1 DUP1 RETURN JUMPDEST POP CALLVALUE PUSH2 0x2BA JUMPI PUSH1 0x20 CALLDATASIZE PUSH1 0x3 NOT ADD SLT PUSH2 0x2BA JUMPI PUSH1 0x40 PUSH1 0x80 SWAP2 PUSH1 0x4 CALLDATALOAD DUP2 MSTORE PUSH1 0x3 PUSH1 0x20 MSTORE KECCAK256 PUSH2 0xD9F DUP2 SLOAD SWAP2 PUSH1 0xFF PUSH1 0x1 DUP3 ADD SLOAD AND SWAP1 PUSH2 0xD90 PUSH1 0xFF PUSH1 0x3 PUSH1 0x2 DUP5 ADD SLOAD SWAP4 ADD SLOAD AND SWAP3 PUSH1 0x40 MLOAD SWAP6 DUP7 MSTORE PUSH1 0x20 DUP7 ADD SWAP1 PUSH2 0x2824 JUMP JUMPDEST PUSH1 0x40 DUP5 ADD MSTORE PUSH1 0x60 DUP4 ADD SWAP1 PUSH2 0x2824 JUMP JUMPDEST RETURN JUMPDEST POP CALLVALUE PUSH2 0x2BA JUMPI DUP1 PUSH1 0x3 NOT CALLDATASIZE ADD SLT PUSH2 0x2BA JUMPI PUSH1 0xC SLOAD PUSH1 0x40 MLOAD PUSH1 0x1 PUSH1 0x1 PUSH1 0xA0 SHL SUB SWAP1 SWAP2 AND DUP2 MSTORE PUSH1 0x20 SWAP1 RETURN JUMPDEST POP CALLVALUE PUSH2 0x2BA JUMPI PUSH1 0x3 NOT PUSH1 0x20 CALLDATASIZE DUP3 ADD SLT PUSH2 0xCD7 JUMPI PUSH8 0xFFFFFFFFFFFFFFFF PUSH1 0x4 CALLDATALOAD GT PUSH2 0xCD7 JUMPI PUSH1 0xC0 SWAP1 PUSH1 0x4 CALLDATALOAD CALLDATASIZE SUB ADD SLT PUSH2 0x2BA JUMPI PUSH2 0xE04 PUSH2 0x2BAD JUMP JUMPDEST PUSH2 0xE0C PUSH2 0x2BF4 JUMP JUMPDEST PUSH1 0x5 PUSH1 0xFF PUSH2 0xE1E PUSH1 0x84 PUSH1 0x4 CALLDATALOAD ADD PUSH2 0x2DD1 JUMP JUMPDEST AND EQ DUP1 ISZERO PUSH2 0x14FE JUMPI JUMPDEST ISZERO PUSH2 0x14B9 JUMPI PUSH1 0x44 PUSH1 0x4 CALLDATALOAD ADD CALLDATALOAD ISZERO PUSH2 0x1474 JUMPI PUSH1 0x1 PUSH1 0x1 PUSH1 0xA0 SHL SUB PUSH2 0xE4D PUSH1 0x4 DUP1 CALLDATALOAD ADD PUSH2 0x2B2C JUMP JUMPDEST AND ISZERO PUSH2 0x1438 JUMPI DUP1 PUSH1 0x1 PUSH1 0x1 PUSH1 0xA0 SHL SUB PUSH2 0xE69 PUSH1 0x4 DUP1 CALLDATALOAD ADD PUSH2 0x2B2C JUMP JUMPDEST AND DUP1 EXTCODESIZE ISZERO PUSH2 0x1435 JUMPI PUSH1 0x40 MLOAD PUSH4 0x23B872DD PUSH1 0xE0 SHL DUP2 MSTORE CALLER PUSH1 0x4 DUP1 DUP4 ADD SWAP2 SWAP1 SWAP2 MSTORE ADDRESS PUSH1 0x24 DUP1 DUP5 ADD SWAP2 SWAP1 SWAP2 MSTORE SWAP1 CALLDATALOAD ADD CALLDATALOAD PUSH1 0x44 DUP3 ADD MSTORE SWAP1 DUP3 SWAP1 DUP3 SWAP1 PUSH1 0x64 SWAP1 DUP3 SWAP1 DUP5 SWAP1 GAS CALL DUP1 ISZERO PUSH2 0x9D8 JUMPI PUSH2 0x1421 JUMPI JUMPDEST POP POP PUSH1 0x9 SLOAD PUSH1 0x0 NOT DUP2 EQ PUSH2 0x140D JUMPI PUSH1 0x1 DUP2 ADD PUSH1 0x9 SSTORE PUSH2 0xED7 PUSH1 0x4 CALLDATALOAD PUSH1 0x4 ADD PUSH2 0x2B2C JUMP JUMPDEST PUSH1 0x40 MLOAD SWAP1 PUSH2 0xEE4 DUP3 PUSH2 0x28CE JUMP JUMPDEST DUP3 DUP3 MSTORE CALLER PUSH1 0x20 DUP4 ADD MSTORE DUP4 PUSH1 0x40 DUP4 ADD MSTORE PUSH1 0x1 DUP1 PUSH1 0xA0 SHL SUB AND PUSH1 0x60 DUP3 ADD MSTORE PUSH1 0x24 PUSH1 0x4 CALLDATALOAD ADD CALLDATALOAD PUSH1 0x80 DUP3 ADD MSTORE DUP3 PUSH1 0xA0 DUP3 ADD MSTORE DUP3 PUSH1 0xC0 DUP3 ADD MSTORE PUSH1 0x1 PUSH1 0xE0 DUP3 ADD MSTORE DUP3 PUSH2 0x100 DUP3 ADD MSTORE DUP2 DUP4 MSTORE PUSH1 0x2 PUSH1 0x20 MSTORE PUSH1 0x40 DUP4 KECCAK256 SWAP1 DUP1 MLOAD DUP3 SSTORE PUSH1 0x1 DUP3 ADD PUSH1 0x1 DUP1 PUSH1 0xA0 SHL SUB PUSH1 0x20 DUP4 ADD MLOAD AND PUSH1 0x1 PUSH1 0x1 PUSH1 0x60 SHL SUB PUSH1 0xA0 SHL DUP3 SLOAD AND OR SWAP1 SSTORE PUSH1 0x2 DUP3 ADD PUSH1 0x1 DUP1 PUSH1 0xA0 SHL SUB PUSH1 0x40 DUP4 ADD MLOAD AND PUSH1 0x1 PUSH1 0x1 PUSH1 0x60 SHL SUB PUSH1 0xA0 SHL DUP3 SLOAD AND OR SWAP1 SSTORE PUSH1 0x3 DUP3 ADD PUSH1 0x1 DUP1 PUSH1 0xA0 SHL SUB PUSH1 0x60 DUP4 ADD MLOAD AND PUSH1 0x1 PUSH1 0x1 PUSH1 0x60 SHL SUB PUSH1 0xA0 SHL DUP3 SLOAD AND OR SWAP1 SSTORE PUSH1 0x80 DUP2 ADD MLOAD PUSH1 0x4 DUP4 ADD SSTORE PUSH1 0xA0 DUP2 ADD MLOAD SWAP2 PUSH1 0x6 DUP4 LT ISZERO PUSH2 0x13F9 JUMPI PUSH2 0x100E SWAP3 SWAP2 PUSH1 0x5 PUSH2 0x100 SWAP3 ADD SWAP3 PUSH1 0xFF DUP1 NOT DUP6 SLOAD AND SWAP2 AND OR DUP4 SSTORE PUSH2 0xFE6 PUSH1 0xC0 DUP3 ADD MLOAD PUSH2 0xFE0 DUP2 PUSH2 0x2A19 JUMP JUMPDEST DUP5 PUSH2 0x2CF0 JUMP JUMPDEST PUSH2 0xFFD PUSH1 0xE0 DUP3 ADD MLOAD PUSH2 0xFF7 DUP2 PUSH2 0x2A19 JUMP JUMPDEST DUP5 PUSH2 0x2D0F JUMP JUMPDEST ADD MLOAD SWAP1 PUSH2 0x1009 DUP3 PUSH2 0x2A19 JUMP JUMPDEST PUSH2 0x2CCD JUMP JUMPDEST PUSH1 0x3 PUSH1 0x64 PUSH1 0x4 CALLDATALOAD ADD CALLDATALOAD LT ISZERO PUSH2 0xCD7 JUMPI PUSH1 0x40 MLOAD PUSH2 0x1029 DUP2 PUSH2 0x2901 JUMP JUMPDEST PUSH1 0x44 PUSH1 0x4 CALLDATALOAD ADD CALLDATALOAD DUP2 MSTORE PUSH1 0x20 DUP2 ADD SWAP1 PUSH2 0x1047 PUSH1 0x64 PUSH1 0x4 CALLDATALOAD ADD CALLDATALOAD DUP4 PUSH2 0x2DDF JUMP JUMPDEST DUP4 PUSH1 0x40 DUP3 ADD MSTORE DUP4 PUSH1 0x60 DUP3 ADD MSTORE DUP3 DUP5 MSTORE PUSH1 0x3 PUSH1 0x20 MSTORE PUSH1 0x40 DUP5 KECCAK256 SWAP2 DUP2 MLOAD DUP4 SSTORE MLOAD PUSH1 0x3 DUP2 LT ISZERO PUSH2 0x13F9 JUMPI SWAP1 PUSH2 0x107E PUSH1 0x60 SWAP3 PUSH1 0x1 DUP6 ADD PUSH2 0x2DEB JUMP JUMPDEST PUSH1 0x40 DUP2 ADD MLOAD PUSH1 0x2 DUP5 ADD SSTORE ADD MLOAD SWAP1 PUSH1 0x3 DUP3 LT ISZERO PUSH2 0x13E5 JUMPI SWAP1 PUSH1 0x3 PUSH2 0x10A1 SWAP3 ADD PUSH2 0x2DEB JUMP JUMPDEST PUSH1 0x10 SLOAD TIMESTAMP ADD DUP1 TIMESTAMP GT PUSH2 0x13CF JUMPI PUSH1 0xFF PUSH2 0x10BD PUSH1 0x84 PUSH1 0x4 CALLDATALOAD ADD PUSH2 0x2DD1 JUMP JUMPDEST PUSH1 0x40 MLOAD SWAP3 PUSH2 0x10CA DUP5 PUSH2 0x28CE JUMP JUMPDEST TIMESTAMP DUP5 MSTORE PUSH1 0x20 DUP5 ADD MSTORE AND PUSH1 0x40 DUP3 ADD MSTORE PUSH1 0x1 PUSH1 0x60 DUP3 ADD MSTORE DUP3 PUSH1 0x80 DUP3 ADD MSTORE DUP3 PUSH1 0xA0 DUP3 ADD MSTORE DUP3 PUSH1 0xC0 DUP3 ADD MSTORE TIMESTAMP PUSH1 0xE0 DUP3 ADD MSTORE DUP3 PUSH2 0x100 DUP3 ADD MSTORE DUP2 DUP4 MSTORE PUSH1 0x4 PUSH1 0x20 MSTORE PUSH1 0x4 PUSH2 0x100 PUSH1 0x40 DUP6 KECCAK256 SWAP3 DUP1 MLOAD DUP5 SSTORE PUSH1 0x20 DUP2 ADD MLOAD PUSH1 0x1 DUP6 ADD SSTORE PUSH2 0x11BD PUSH1 0x2 DUP6 ADD PUSH1 0xFF PUSH1 0x40 DUP5 ADD MLOAD AND PUSH1 0xFF NOT DUP3 SLOAD AND OR DUP2 SSTORE PUSH2 0x1158 PUSH1 0xFF PUSH1 0x60 DUP6 ADD MLOAD AND DUP3 SWAP1 PUSH2 0xFF00 DUP3 SLOAD SWAP2 PUSH1 0x8 SHL AND SWAP1 PUSH2 0xFF00 NOT AND OR SWAP1 SSTORE JUMP JUMPDEST PUSH1 0x80 DUP4 ADD MLOAD DUP2 SLOAD PUSH3 0xFF0000 NOT AND PUSH1 0x10 SWAP2 SWAP1 SWAP2 SHL PUSH3 0xFF0000 AND OR DUP2 SSTORE PUSH1 0xA0 DUP4 ADD MLOAD DUP2 SLOAD PUSH4 0xFF000000 NOT AND PUSH1 0x18 SWAP2 SWAP1 SWAP2 SHL PUSH4 0xFF000000 AND OR DUP2 SSTORE PUSH1 0xC0 DUP4 ADD MLOAD DUP2 SLOAD PUSH5 0x100000000 PUSH1 0x1 PUSH1 0xC0 SHL SUB NOT AND PUSH1 0x20 SWAP2 SWAP1 SWAP2 SHL PUSH5 0x100000000 PUSH1 0x1 PUSH1 0xC0 SHL SUB AND OR SWAP1 SSTORE JUMP JUMPDEST PUSH1 0xE0 DUP2 ADD MLOAD PUSH1 0x3 DUP6 ADD SSTORE ADD MLOAD SWAP2 ADD SSTORE PUSH2 0x11E0 PUSH1 0xA4 PUSH1 0x4 CALLDATALOAD ADD PUSH1 0x4 CALLDATALOAD PUSH1 0x4 ADD PUSH2 0x2B7A JUMP JUMPDEST SWAP2 SWAP1 SWAP3 PUSH1 0x8 PUSH1 0x20 MSTORE PUSH1 0x40 DUP2 KECCAK256 PUSH8 0xFFFFFFFFFFFFFFFF DUP5 GT PUSH2 0x13BB JUMPI PUSH2 0x1205 DUP2 SLOAD PUSH2 0x2894 JUMP JUMPDEST SWAP5 PUSH1 0x1F DUP7 GT PUSH2 0x1379 JUMPI JUMPDEST PUSH1 0x20 SWAP6 POP DUP3 SWAP1 PUSH1 0x1F DUP7 GT PUSH1 0x1 EQ PUSH2 0x1311 JUMPI SWAP5 DUP1 SWAP2 PUSH1 0x1 SWAP6 SWAP7 DUP6 SWAP3 PUSH2 0x1306 JUMPI JUMPDEST POP POP PUSH1 0x0 NOT PUSH1 0x3 DUP4 SWAP1 SHL SHR NOT AND SWAP1 DUP5 SHL OR SWAP1 SSTORE JUMPDEST CALLER DUP2 MSTORE PUSH1 0x7 DUP5 MSTORE PUSH2 0x1256 DUP4 PUSH1 0x40 DUP4 KECCAK256 PUSH2 0x2B40 JUMP JUMPDEST PUSH2 0x1264 PUSH1 0x4 CALLDATALOAD PUSH1 0x4 ADD PUSH2 0x2B2C JUMP JUMPDEST PUSH32 0xEDE926CA24BEF9B3F259C437D489796A51DECBB58EC6F0A60EA2E614B2724B95 DUP5 PUSH2 0x129A PUSH1 0xA4 PUSH1 0x4 CALLDATALOAD ADD PUSH1 0x4 CALLDATALOAD PUSH1 0x4 ADD PUSH2 0x2B7A JUMP JUMPDEST SWAP3 SWAP1 SWAP4 DUP4 PUSH1 0x40 MLOAD SWAP6 PUSH1 0x24 PUSH1 0x4 CALLDATALOAD ADD CALLDATALOAD DUP8 MSTORE PUSH1 0x44 PUSH1 0x4 CALLDATALOAD ADD CALLDATALOAD DUP12 DUP9 ADD MSTORE PUSH2 0x12C9 PUSH1 0x40 DUP9 ADD PUSH1 0x64 PUSH1 0x4 CALLDATALOAD ADD CALLDATALOAD PUSH2 0x2824 JUMP JUMPDEST PUSH1 0x80 PUSH1 0x60 DUP9 ADD MSTORE DUP2 PUSH1 0x80 DUP9 ADD MSTORE PUSH1 0xA0 DUP8 ADD CALLDATACOPY DUP6 PUSH1 0xA0 DUP6 DUP8 ADD ADD MSTORE DUP7 DUP1 PUSH1 0xA0 SHL SUB AND SWAP4 PUSH1 0xA0 DUP2 CALLER SWAP6 PUSH1 0x1F DUP1 NOT SWAP2 ADD AND DUP2 ADD SUB ADD SWAP1 LOG4 SSTORE PUSH1 0x40 MLOAD SWAP1 DUP2 MSTORE RETURN JUMPDEST ADD CALLDATALOAD SWAP1 POP CODESIZE DUP1 PUSH2 0x122E JUMP JUMPDEST DUP3 DUP5 MSTORE DUP7 DUP5 KECCAK256 SWAP2 DUP5 JUMPDEST PUSH1 0x1F NOT DUP9 AND DUP2 LT PUSH2 0x1362 JUMPI POP SWAP2 DUP7 SWAP2 PUSH1 0x1 SWAP7 SWAP8 SWAP4 DUP8 SWAP5 PUSH1 0x1F NOT DUP2 AND LT PUSH2 0x1348 JUMPI JUMPDEST POP POP POP DUP2 SHL ADD SWAP1 SSTORE PUSH2 0x1242 JUMP JUMPDEST ADD CALLDATALOAD PUSH1 0x0 NOT PUSH1 0x3 DUP5 SWAP1 SHL PUSH1 0xF8 AND SHR NOT AND SWAP1 SSTORE CODESIZE DUP1 DUP1 PUSH2 0x133B JUMP JUMPDEST SWAP1 SWAP3 DUP9 PUSH1 0x1 DUP2 SWAP3 DUP7 DUP7 ADD CALLDATALOAD DUP2 SSTORE ADD SWAP5 ADD SWAP2 ADD PUSH2 0x131A JUMP JUMPDEST DUP2 DUP4 MSTORE PUSH1 0x20 DUP4 KECCAK256 PUSH1 0x1F DUP7 ADD PUSH1 0x5 SHR DUP2 ADD PUSH1 0x20 DUP8 LT PUSH2 0x13B4 JUMPI JUMPDEST PUSH1 0x1F DUP9 ADD PUSH1 0x5 SHR DUP3 ADD DUP2 LT PUSH2 0x13A8 JUMPI POP POP PUSH2 0x120F JUMP JUMPDEST PUSH1 0x0 DUP2 SSTORE PUSH1 0x1 ADD PUSH2 0x1392 JUMP JUMPDEST POP DUP1 PUSH2 0x1392 JUMP JUMPDEST PUSH4 0x4E487B71 PUSH1 0xE0 SHL DUP3 MSTORE PUSH1 0x41 PUSH1 0x4 MSTORE PUSH1 0x24 DUP3 REVERT JUMPDEST PUSH4 0x4E487B71 PUSH1 0xE0 SHL PUSH1 0x0 MSTORE PUSH1 0x11 PUSH1 0x4 MSTORE PUSH1 0x24 PUSH1 0x0 REVERT JUMPDEST PUSH4 0x4E487B71 PUSH1 0xE0 SHL DUP5 MSTORE PUSH1 0x21 PUSH1 0x4 MSTORE PUSH1 0x24 DUP5 REVERT JUMPDEST PUSH4 0x4E487B71 PUSH1 0xE0 SHL DUP6 MSTORE PUSH1 0x21 PUSH1 0x4 MSTORE PUSH1 0x24 DUP6 REVERT JUMPDEST PUSH4 0x4E487B71 PUSH1 0xE0 SHL DUP3 MSTORE PUSH1 0x11 PUSH1 0x4 MSTORE PUSH1 0x24 DUP3 REVERT JUMPDEST PUSH2 0x142A SWAP1 PUSH2 0x291D JUMP JUMPDEST PUSH2 0x2BA JUMPI DUP1 CODESIZE PUSH2 0xEB4 JUMP JUMPDEST POP REVERT JUMPDEST PUSH1 0x40 MLOAD PUSH3 0x461BCD PUSH1 0xE5 SHL DUP2 MSTORE PUSH1 0x20 PUSH1 0x4 DUP3 ADD MSTORE PUSH1 0x14 PUSH1 0x24 DUP3 ADD MSTORE PUSH20 0x125B9D985B1A59081391950818DBDB9D1C9858DD PUSH1 0x62 SHL PUSH1 0x44 DUP3 ADD MSTORE PUSH1 0x64 SWAP1 REVERT JUMPDEST PUSH1 0x40 MLOAD PUSH3 0x461BCD PUSH1 0xE5 SHL DUP2 MSTORE PUSH1 0x20 PUSH1 0x4 DUP3 ADD MSTORE PUSH1 0x1C PUSH1 0x24 DUP3 ADD MSTORE PUSH32 0x5072696365206D7573742062652067726561746572207468616E203000000000 PUSH1 0x44 DUP3 ADD MSTORE PUSH1 0x64 SWAP1 REVERT JUMPDEST PUSH1 0x40 MLOAD PUSH3 0x461BCD PUSH1 0xE5 SHL DUP2 MSTORE PUSH1 0x20 PUSH1 0x4 DUP3 ADD MSTORE PUSH1 0x19 PUSH1 0x24 DUP3 ADD MSTORE PUSH32 0x4D617820726F756E6473206D7573742062652035206F72203700000000000000 PUSH1 0x44 DUP3 ADD MSTORE PUSH1 0x64 SWAP1 REVERT JUMPDEST POP PUSH1 0x7 PUSH1 0xFF PUSH2 0x1511 PUSH1 0x84 PUSH1 0x4 CALLDATALOAD ADD PUSH2 0x2DD1 JUMP JUMPDEST AND EQ PUSH2 0xE27 JUMP JUMPDEST POP CALLVALUE PUSH2 0x2BA JUMPI PUSH1 0xFF PUSH1 0x40 PUSH2 0x152B CALLDATASIZE PUSH2 0x29F9 JUMP JUMPDEST SWAP4 SWAP1 DUP2 MSTORE PUSH1 0x5 PUSH1 0x20 MSTORE KECCAK256 SWAP2 AND PUSH1 0x0 MSTORE PUSH1 0x20 MSTORE PUSH2 0x40F PUSH1 0x40 PUSH1 0x0 KECCAK256 SLOAD PUSH1 0x40 MLOAD SWAP2 DUP3 SWAP2 PUSH1 0x1 DUP1 PUSH1 0xA0 SHL SUB DUP2 PUSH1 0x18 SHR AND SWAP1 PUSH1 0xFF DUP2 PUSH1 0x10 SHR AND SWAP1 PUSH1 0xFF DUP1 DUP3 PUSH1 0x8 SHR AND SWAP2 AND DUP6 PUSH2 0x2A23 JUMP JUMPDEST POP CALLVALUE PUSH2 0x2BA JUMPI DUP1 PUSH1 0x3 NOT CALLDATASIZE ADD SLT PUSH2 0x2BA JUMPI PUSH2 0x158A PUSH2 0x2AD4 JUMP JUMPDEST PUSH1 0x1 DUP1 SLOAD PUSH1 0x1 PUSH1 0x1 PUSH1 0xA0 SHL SUB NOT DUP2 AND SWAP1 SWAP2 SSTORE PUSH1 0x0 SWAP1 PUSH1 0x1 PUSH1 0x1 PUSH1 0xA0 SHL SUB AND PUSH32 0x8BE0079C531659141344CD1FD0A4F28419497F9722A3DAAFE3B4186F6B6457E0 DUP3 DUP1 LOG3 DUP1 RETURN JUMPDEST POP CALLVALUE PUSH2 0x2BA JUMPI PUSH1 0xFF PUSH1 0x40 PUSH2 0x15E2 CALLDATASIZE PUSH2 0x29F9 JUMP JUMPDEST SWAP4 SWAP1 DUP2 MSTORE PUSH1 0x5 PUSH1 0x20 MSTORE KECCAK256 SWAP2 AND PUSH1 0x0 MSTORE PUSH1 0x20 MSTORE PUSH1 0x40 PUSH1 0x0 KECCAK256 PUSH1 0x40 MLOAD SWAP1 PUSH2 0x1606 DUP3 PUSH2 0x2901 JUMP JUMPDEST SLOAD PUSH2 0x40F PUSH1 0xFF DUP3 AND SWAP2 PUSH2 0x1618 DUP4 PUSH2 0x2A19 JUMP JUMPDEST DUP3 DUP5 MSTORE PUSH1 0x20 DUP5 ADD SWAP1 PUSH1 0xFF DUP2 PUSH1 0x8 SHR AND DUP3 MSTORE PUSH1 0xFF PUSH1 0x60 PUSH1 0x40 DUP8 ADD SWAP7 DUP3 DUP5 PUSH1 0x10 SHR AND ISZERO ISZERO DUP9 MSTORE ADD SWAP3 PUSH1 0x1 DUP1 PUSH1 0xA0 SHL SUB DUP1 SWAP4 PUSH1 0x18 SHR AND DUP5 MSTORE PUSH2 0x1656 DUP7 PUSH2 0x2A19 JUMP JUMPDEST MLOAD AND SWAP5 MLOAD ISZERO ISZERO SWAP2 MLOAD AND SWAP1 PUSH1 0x40 MLOAD SWAP5 DUP6 SWAP5 DUP6 PUSH2 0x2A23 JUMP JUMPDEST POP CALLVALUE PUSH2 0x2BA JUMPI PUSH1 0x20 CALLDATASIZE PUSH1 0x3 NOT ADD SLT PUSH2 0x2BA JUMPI PUSH2 0x1686 PUSH2 0x27F3 JUMP JUMPDEST PUSH2 0x168E PUSH2 0x2AD4 JUMP JUMPDEST PUSH1 0x1 DUP1 PUSH1 0xA0 SHL SUB AND PUSH1 0x1 PUSH1 0x1 PUSH1 0x60 SHL SUB PUSH1 0xA0 SHL PUSH1 0xF SLOAD AND OR PUSH1 0xF SSTORE DUP1 RETURN JUMPDEST POP CALLVALUE PUSH2 0x2BA JUMPI PUSH1 0x20 DUP1 PUSH1 0x3 NOT CALLDATASIZE ADD SLT PUSH2 0xCD7 JUMPI PUSH1 0x4 CALLDATALOAD SWAP1 PUSH2 0x16CB PUSH2 0x2BF4 JUMP JUMPDEST PUSH1 0x9 SLOAD DUP3 LT DUP1 PUSH2 0x18AE JUMPI JUMPDEST PUSH2 0x16DF SWAP1 PUSH2 0x2C4A JUMP JUMPDEST DUP2 DUP4 MSTORE PUSH1 0x2 DUP2 MSTORE PUSH1 0x40 DUP4 KECCAK256 PUSH1 0x1 ADD SLOAD PUSH1 0x1 PUSH1 0x1 PUSH1 0xA0 SHL SUB SWAP2 SWAP1 DUP3 AND CALLER SUB PUSH2 0x1876 JUMPI DUP3 DUP5 MSTORE PUSH1 0x2 DUP2 MSTORE PUSH1 0xFF PUSH1 0x5 PUSH1 0x40 DUP7 KECCAK256 ADD SLOAD AND PUSH1 0x6 DUP2 LT ISZERO PUSH2 0x13F9 JUMPI PUSH2 0x1725 SWAP1 ISZERO PUSH2 0x2C8C JUMP JUMPDEST DUP3 DUP5 MSTORE PUSH1 0x2 DUP2 MSTORE PUSH1 0x5 PUSH1 0x40 DUP6 KECCAK256 ADD PUSH1 0x5 PUSH1 0xFF NOT DUP3 SLOAD AND OR SWAP1 SSTORE DUP3 DUP5 MSTORE PUSH1 0x2 DUP2 MSTORE DUP4 PUSH1 0x40 DUP2 KECCAK256 DUP4 PUSH1 0x40 MLOAD PUSH2 0x1757 DUP2 PUSH2 0x28CE JUMP JUMPDEST DUP3 SLOAD DUP2 MSTORE DUP2 PUSH1 0x1 DUP5 ADD SLOAD AND SWAP5 DUP2 ADD SWAP5 DUP6 MSTORE DUP2 PUSH1 0x2 DUP5 ADD SLOAD AND PUSH1 0x40 DUP3 ADD MSTORE DUP2 PUSH1 0x3 DUP5 ADD SLOAD AND SWAP1 PUSH1 0x60 DUP2 ADD SWAP2 DUP3 MSTORE PUSH2 0x100 PUSH1 0xFF PUSH1 0x5 PUSH1 0x4 DUP8 ADD SLOAD SWAP7 PUSH1 0x80 DUP6 ADD SWAP8 DUP9 MSTORE ADD SLOAD PUSH2 0x17A8 DUP3 DUP3 AND PUSH1 0xA0 DUP7 ADD PUSH2 0x2D70 JUMP JUMPDEST DUP2 DUP2 PUSH1 0x8 SHR AND PUSH2 0x17B7 DUP2 PUSH2 0x2A19 JUMP JUMPDEST PUSH1 0xC0 DUP6 ADD MSTORE DUP2 DUP2 PUSH1 0x10 SHR AND PUSH2 0x17CB DUP2 PUSH2 0x2A19 JUMP JUMPDEST PUSH1 0xE0 DUP6 ADD MSTORE PUSH1 0x18 SHR AND SWAP2 PUSH2 0x17DE DUP4 PUSH2 0x2A19 JUMP JUMPDEST ADD MSTORE MLOAD AND SWAP1 DUP5 DUP5 MLOAD AND SWAP1 MLOAD DUP3 EXTCODESIZE ISZERO PUSH2 0x720 JUMPI PUSH1 0x40 MLOAD PUSH4 0x23B872DD PUSH1 0xE0 SHL DUP2 MSTORE ADDRESS PUSH1 0x4 DUP3 ADD MSTORE PUSH1 0x1 PUSH1 0x1 PUSH1 0xA0 SHL SUB SWAP3 SWAP1 SWAP3 AND PUSH1 0x24 DUP4 ADD MSTORE PUSH1 0x44 DUP3 ADD MSTORE SWAP1 DUP3 SWAP1 DUP3 SWAP1 PUSH1 0x64 SWAP1 DUP3 SWAP1 DUP5 SWAP1 GAS CALL DUP1 ISZERO PUSH2 0x9D8 JUMPI PUSH2 0x1862 JUMPI JUMPDEST POP POP MLOAD AND SWAP1 PUSH32 0x58F64E02B3A6D2A3BD28B7700A0A0D6699545BCB55BF917AC0FF670F3A509EFB DUP4 DUP1 LOG3 PUSH1 0x1 DUP2 SSTORE DUP1 RETURN JUMPDEST PUSH2 0x186B SWAP1 PUSH2 0x291D JUMP JUMPDEST PUSH2 0x720 JUMPI DUP4 CODESIZE PUSH2 0x1832 JUMP JUMPDEST PUSH1 0x64 SWAP1 PUSH1 0x40 MLOAD SWAP1 PUSH3 0x461BCD PUSH1 0xE5 SHL DUP3 MSTORE PUSH1 0x4 DUP3 ADD MSTORE PUSH1 0x11 PUSH1 0x24 DUP3 ADD MSTORE PUSH17 0x27B7363C9033B0B6B29031B932B0BA37B9 PUSH1 0x79 SHL PUSH1 0x44 DUP3 ADD MSTORE REVERT JUMPDEST POP DUP2 ISZERO ISZERO PUSH2 0x16D6 JUMP JUMPDEST POP CALLVALUE PUSH2 0x2BA JUMPI DUP1 PUSH1 0x3 NOT CALLDATASIZE ADD SLT PUSH2 0x2BA JUMPI PUSH1 0x20 PUSH1 0x40 MLOAD PUSH2 0x3E8 DUP2 MSTORE RETURN JUMPDEST POP CALLVALUE PUSH2 0x2BA JUMPI DUP1 PUSH1 0x3 NOT CALLDATASIZE ADD SLT PUSH2 0x2BA JUMPI PUSH1 0x20 PUSH1 0x40 MLOAD PUSH1 0x1E DUP2 MSTORE RETURN JUMPDEST POP CALLVALUE PUSH2 0x2BA JUMPI DUP1 PUSH1 0x3 NOT CALLDATASIZE ADD SLT PUSH2 0x2BA JUMPI PUSH1 0x20 PUSH1 0xFF PUSH1 0x1 SLOAD PUSH1 0xA0 SHR AND PUSH1 0x40 MLOAD SWAP1 ISZERO ISZERO DUP2 MSTORE RETURN JUMPDEST POP CALLVALUE PUSH2 0x2BA JUMPI DUP1 PUSH1 0x3 NOT CALLDATASIZE ADD SLT PUSH2 0x2BA JUMPI PUSH1 0xD SLOAD PUSH1 0x40 MLOAD PUSH1 0x1 PUSH1 0x1 PUSH1 0xA0 SHL SUB SWAP1 SWAP2 AND DUP2 MSTORE PUSH1 0x20 SWAP1 RETURN JUMPDEST POP CALLVALUE PUSH2 0x2BA JUMPI PUSH2 0x194E CALLDATASIZE PUSH2 0x29F9 JUMP JUMPDEST PUSH2 0x1956 PUSH2 0x2BAD JUMP JUMPDEST PUSH2 0x195E PUSH2 0x2BF4 JUMP JUMPDEST PUSH1 0x9 SLOAD DUP3 LT DUP1 PUSH2 0x2329 JUMPI JUMPDEST PUSH2 0x1972 SWAP1 PUSH2 0x2C4A JUMP JUMPDEST DUP2 DUP4 MSTORE PUSH1 0x2 PUSH1 0x20 MSTORE PUSH2 0x199E PUSH1 0x40 DUP5 KECCAK256 PUSH1 0x1 DUP1 PUSH1 0xA0 SHL SUB PUSH1 0x1 DUP3 ADD SLOAD AND CALLER EQ SWAP1 DUP2 ISZERO PUSH2 0x2312 JUMPI JUMPDEST POP PUSH2 0x2D30 JUMP JUMPDEST DUP2 DUP4 MSTORE PUSH1 0x2 PUSH1 0x20 MSTORE PUSH1 0x40 DUP4 KECCAK256 PUSH1 0x5 PUSH1 0x40 MLOAD SWAP2 PUSH2 0x19B9 DUP4 PUSH2 0x28CE JUMP JUMPDEST DUP1 SLOAD DUP4 MSTORE PUSH1 0x1 DUP2 ADD SLOAD PUSH1 0x1 PUSH1 0x1 PUSH1 0xA0 SHL SUB SWAP1 DUP2 AND PUSH1 0x20 DUP6 ADD MSTORE PUSH1 0x2 DUP3 ADD SLOAD DUP2 AND PUSH1 0x40 DUP6 ADD MSTORE PUSH1 0x3 DUP3 ADD SLOAD AND PUSH1 0x60 DUP5 ADD MSTORE PUSH1 0x4 DUP2 ADD SLOAD PUSH1 0x80 DUP5 ADD MSTORE ADD SLOAD SWAP2 PUSH2 0x1A06 PUSH1 0xFF DUP5 AND PUSH1 0xA0 DUP5 ADD PUSH2 0x2D70 JUMP JUMPDEST PUSH1 0xFF DUP4 PUSH1 0x8 SHR AND PUSH2 0x1A16 DUP2 PUSH2 0x2A19 JUMP JUMPDEST PUSH1 0xC0 DUP4 ADD MSTORE PUSH1 0xFF DUP1 DUP5 PUSH1 0x10 SHR AND SWAP4 PUSH2 0x1A2D DUP6 PUSH2 0x2A19 JUMP JUMPDEST PUSH1 0xE0 DUP5 ADD SWAP5 DUP6 MSTORE PUSH1 0x18 SHR AND PUSH2 0x1A41 DUP2 PUSH2 0x2A19 JUMP JUMPDEST PUSH2 0x100 DUP4 ADD MSTORE DUP4 DUP6 MSTORE PUSH1 0x4 PUSH1 0x20 MSTORE PUSH1 0x40 DUP6 KECCAK256 SWAP3 PUSH1 0xC0 DUP4 ADD MLOAD PUSH2 0x1A62 DUP2 PUSH2 0x2A19 JUMP JUMPDEST PUSH2 0x1A6B DUP2 PUSH2 0x2A19 JUMP JUMPDEST ISZERO DUP1 PUSH2 0x22FC JUMPI JUMPDEST DUP1 ISZERO PUSH2 0x22C2 JUMPI JUMPDEST PUSH2 0x1A83 SWAP2 POP PUSH2 0x2D7C JUMP JUMPDEST PUSH1 0x4 DUP4 ADD SLOAD TIMESTAMP LT PUSH2 0x2284 JUMPI PUSH1 0xFF DUP2 AND ISZERO ISZERO DUP1 PUSH2 0x2276 JUMPI JUMPDEST ISZERO PUSH2 0x2241 JUMPI PUSH1 0x2 DUP4 ADD SLOAD SWAP1 DUP5 DUP7 MSTORE PUSH1 0x5 PUSH1 0x20 MSTORE PUSH1 0x40 DUP7 KECCAK256 PUSH1 0xFF DUP4 PUSH1 0x8 SHR AND DUP8 MSTORE PUSH1 0x20 MSTORE PUSH1 0x40 DUP7 KECCAK256 PUSH1 0x40 MLOAD TIMESTAMP PUSH1 0x20 DUP3 ADD MSTORE PREVRANDAO PUSH1 0x40 DUP3 ADD MSTORE DUP7 PUSH1 0x60 DUP3 ADD MSTORE PUSH1 0xFF PUSH1 0xF8 SHL DUP1 DUP6 PUSH1 0xF0 SHL AND PUSH1 0x80 DUP4 ADD MSTORE DUP4 PUSH1 0xF8 SHL AND PUSH1 0x81 DUP3 ADD MSTORE PUSH1 0x62 DUP2 MSTORE DUP1 PUSH1 0xA0 DUP2 ADD LT PUSH8 0xFFFFFFFFFFFFFFFF PUSH1 0xA0 DUP4 ADD GT OR PUSH2 0x222D JUMPI SWAP3 PUSH1 0xFF PUSH32 0x90BA162C2BB0046BE3A12FA1EF492CC3502E55978C9C716E1B67764DA653C09 SWAP4 DUP2 PUSH1 0x80 SWAP5 PUSH1 0x1 DUP9 PUSH1 0xA0 DUP14 SWAP11 ADD PUSH1 0x40 MSTORE PUSH1 0x20 DUP2 MLOAD SWAP2 ADD KECCAK256 AND ISZERO PUSH1 0x0 EQ PUSH2 0x2226 JUMPI DUP12 JUMPDEST PUSH2 0x1B5C DUP2 PUSH2 0x2A19 JUMP JUMPDEST DUP2 SLOAD PUSH2 0xFF00 NOT SWAP2 DUP5 AND DUP5 NOT SWAP2 SWAP1 SWAP2 AND OR AND PUSH1 0x8 DUP5 SWAP1 SHL PUSH2 0xFF00 AND OR DUP2 SSTORE DUP1 SLOAD PUSH3 0x10000 PUSH1 0x1 PUSH1 0xB8 SHL SUB NOT DUP2 AND CALLER PUSH1 0x18 SHL PUSH4 0x1000000 PUSH1 0x1 PUSH1 0xB8 SHL SUB AND OR PUSH3 0x10000 OR DUP3 SSTORE PUSH2 0x100 DUP11 ADD MLOAD SWAP1 DUP4 AND PUSH2 0x1BB2 DUP3 PUSH2 0x2A19 JUMP JUMPDEST PUSH2 0x1BBB DUP3 PUSH2 0x2A19 JUMP JUMPDEST PUSH2 0x1BC4 DUP2 PUSH2 0x2A19 JUMP JUMPDEST SUB PUSH2 0x21F0 JUMPI PUSH2 0x1BFC PUSH2 0x1BDE DUP4 PUSH1 0x2 DUP14 ADD SLOAD PUSH1 0x18 SHR AND PUSH2 0x2DC0 JUMP JUMPDEST PUSH1 0x2 DUP13 ADD SWAP1 PUSH4 0xFF000000 DUP3 SLOAD SWAP2 PUSH1 0x18 SHL AND SWAP1 PUSH4 0xFF000000 NOT AND OR SWAP1 SSTORE JUMP JUMPDEST SLOAD AND DUP3 PUSH1 0x40 MLOAD SWAP5 PUSH1 0x8 SHR AND DUP5 MSTORE PUSH2 0x1C12 DUP2 PUSH2 0x2A19 JUMP JUMPDEST PUSH1 0x20 DUP5 ADD MSTORE AND PUSH1 0x40 DUP3 ADD MSTORE CALLER PUSH1 0x60 DUP3 ADD MSTORE LOG2 PUSH1 0x2 DUP3 ADD SLOAD SWAP1 PUSH1 0xFF PUSH1 0x1 PUSH1 0x7F DUP5 DUP3 SHR AND ADD GT PUSH2 0x21DC JUMPI PUSH1 0xFF PUSH1 0x1 PUSH1 0x7F DUP5 DUP3 SHR AND ADD AND DUP1 PUSH1 0xFF DUP5 PUSH1 0x10 SHR AND LT SWAP1 DUP2 ISZERO SWAP2 PUSH2 0x21CB JUMPI JUMPDEST POP ISZERO PUSH2 0x2119 JUMPI POP POP POP DUP1 DUP3 MSTORE PUSH1 0x2 PUSH1 0x20 MSTORE PUSH1 0x40 DUP3 KECCAK256 SWAP1 PUSH1 0x2 PUSH1 0x5 PUSH1 0x40 MLOAD SWAP4 PUSH2 0x1C7F DUP6 PUSH2 0x28CE JUMP JUMPDEST DUP1 SLOAD DUP6 MSTORE PUSH1 0x1 DUP2 ADD SLOAD PUSH1 0x1 PUSH1 0x1 PUSH1 0xA0 SHL SUB SWAP1 DUP2 AND PUSH1 0x20 DUP8 ADD MSTORE DUP4 DUP3 ADD SLOAD DUP2 AND PUSH1 0x40 DUP8 ADD MSTORE PUSH1 0x3 DUP3 ADD SLOAD AND PUSH1 0x60 DUP7 ADD MSTORE PUSH1 0x4 DUP2 ADD SLOAD PUSH1 0x80 DUP7 ADD MSTORE ADD SLOAD PUSH1 0xA0 DUP5 ADD SWAP1 PUSH1 0xFF SWAP1 PUSH2 0x1CCE DUP3 DUP3 AND DUP5 PUSH2 0x2D70 JUMP JUMPDEST DUP2 DUP2 PUSH1 0x8 SHR AND PUSH2 0x1CDD DUP2 PUSH2 0x2A19 JUMP JUMPDEST PUSH1 0xC0 DUP8 ADD MSTORE DUP2 DUP2 PUSH1 0x10 SHR AND PUSH2 0x1CF1 DUP2 PUSH2 0x2A19 JUMP JUMPDEST PUSH1 0xE0 DUP8 ADD MSTORE PUSH1 0x18 SHR AND PUSH2 0x1D03 DUP2 PUSH2 0x2A19 JUMP JUMPDEST PUSH2 0x100 DUP6 ADD MSTORE DUP3 DUP6 MSTORE PUSH1 0x4 PUSH1 0x20 MSTORE PUSH1 0x3 PUSH1 0x40 DUP7 KECCAK256 SWAP2 MSTORE ADD SWAP2 DUP3 SLOAD PUSH1 0xFF DUP1 DUP3 PUSH1 0x18 SHR AND SWAP2 PUSH1 0x10 SHR AND GT PUSH1 0x0 EQ PUSH2 0x20EA JUMPI PUSH1 0x20 SWAP1 DUP2 ADD MLOAD DUP4 SLOAD PUSH5 0x100000000 PUSH1 0x1 PUSH1 0xC0 SHL SUB NOT AND SWAP2 SHL PUSH5 0x100000000 PUSH1 0x1 PUSH1 0xC0 SHL SUB AND OR DUP3 SSTORE JUMPDEST DUP1 DUP4 MSTORE PUSH1 0x3 PUSH1 0x20 MSTORE PUSH1 0x2 PUSH1 0x40 DUP5 KECCAK256 ADD SLOAD SWAP2 PUSH1 0xB SLOAD SWAP3 DUP4 DUP2 MUL SWAP4 DUP2 DUP6 DIV EQ SWAP1 ISZERO OR ISZERO PUSH2 0x20D6 JUMPI DUP2 DUP5 MSTORE PUSH1 0x3 PUSH1 0x20 MSTORE PUSH1 0x2 PUSH1 0x40 DUP6 KECCAK256 ADD SLOAD SWAP1 PUSH2 0x2710 DUP5 DIV DUP3 SUB SWAP2 DUP1 DUP4 GT PUSH2 0xC67 JUMPI PUSH1 0x1 DUP1 PUSH1 0xA0 SHL SUB DUP3 SLOAD PUSH1 0x20 SHR AND SWAP1 DUP5 DUP8 MSTORE PUSH1 0x3 PUSH1 0x20 MSTORE PUSH1 0xFF PUSH1 0x3 PUSH1 0x40 DUP10 KECCAK256 ADD SLOAD AND PUSH1 0x3 DUP2 LT ISZERO PUSH2 0x20C2 JUMPI SWAP2 DUP8 SWAP2 DUP4 DUP7 SWAP5 ISZERO PUSH1 0x0 EQ PUSH2 0x1FDF JUMPI POP DUP3 SWAP4 DUP4 SWAP3 DUP4 SWAP3 DUP4 SWAP1 PUSH2 0x2710 DUP13 DIV EQ PUSH2 0x1FD6 JUMPI JUMPDEST CALL ISZERO PUSH2 0x1FC1 JUMPI DUP5 DUP1 DUP1 DUP1 PUSH1 0x1 DUP1 PUSH1 0xA0 SHL SUB PUSH1 0x12 SLOAD AND DUP2 SWAP1 PUSH2 0x2710 DUP11 DIV ISZERO PUSH2 0x1FCC JUMPI JUMPDEST PUSH2 0x2710 DUP11 DIV SWAP2 CALL ISZERO PUSH2 0x1FC1 JUMPI JUMPDEST PUSH1 0x1 DUP1 PUSH1 0xA0 SHL SUB DUP2 SLOAD PUSH1 0x20 SHR AND DUP4 DUP7 MSTORE PUSH1 0x2 PUSH1 0x20 MSTORE DUP6 PUSH1 0x40 DUP2 KECCAK256 PUSH1 0x40 MLOAD PUSH2 0x1E41 DUP2 PUSH2 0x28CE JUMP JUMPDEST DUP2 SLOAD DUP2 MSTORE PUSH1 0x1 DUP3 ADD SLOAD PUSH1 0x1 PUSH1 0x1 PUSH1 0xA0 SHL SUB SWAP1 DUP2 AND PUSH1 0x20 DUP4 ADD MSTORE PUSH1 0x2 DUP4 ADD SLOAD DUP2 AND PUSH1 0x40 DUP4 ADD MSTORE PUSH1 0x3 DUP4 ADD SLOAD AND PUSH1 0x60 DUP3 ADD SWAP1 DUP2 MSTORE PUSH1 0x4 DUP4 ADD SLOAD PUSH1 0x80 DUP4 ADD SWAP1 DUP2 MSTORE PUSH1 0x5 SWAP1 SWAP4 ADD SLOAD SWAP1 SWAP2 SWAP1 PUSH2 0x100 SWAP1 PUSH1 0xFF SWAP1 PUSH2 0x1E9E DUP2 DUP4 AND PUSH1 0xA0 DUP7 ADD PUSH2 0x2D70 JUMP JUMPDEST DUP2 DUP2 PUSH1 0x8 SHR AND PUSH2 0x1EAD DUP2 PUSH2 0x2A19 JUMP JUMPDEST PUSH1 0xC0 DUP6 ADD MSTORE DUP2 DUP2 PUSH1 0x10 SHR AND PUSH2 0x1EC1 DUP2 PUSH2 0x2A19 JUMP JUMPDEST PUSH1 0xE0 DUP6 ADD MSTORE PUSH1 0x18 SHR AND SWAP2 PUSH2 0x1ED4 DUP4 PUSH2 0x2A19 JUMP JUMPDEST ADD MSTORE MLOAD SWAP1 MLOAD SWAP1 PUSH1 0x1 PUSH1 0x1 PUSH1 0xA0 SHL SUB AND DUP1 EXTCODESIZE ISZERO PUSH2 0x83C JUMPI PUSH1 0x40 MLOAD PUSH4 0x23B872DD PUSH1 0xE0 SHL DUP2 MSTORE ADDRESS PUSH1 0x4 DUP3 ADD MSTORE PUSH1 0x1 PUSH1 0x1 PUSH1 0xA0 SHL SUB SWAP5 SWAP1 SWAP5 AND PUSH1 0x24 DUP6 ADD MSTORE PUSH1 0x44 DUP5 ADD SWAP2 SWAP1 SWAP2 MSTORE DUP3 SWAP1 PUSH1 0x64 SWAP1 DUP3 SWAP1 DUP5 SWAP1 GAS CALL DUP1 ISZERO PUSH2 0x1FB6 JUMPI PUSH2 0x1F7A JUMPI JUMPDEST POP SLOAD PUSH1 0x40 DUP1 MLOAD SWAP3 DUP4 MSTORE PUSH2 0x2710 SWAP1 SWAP5 DIV PUSH1 0x20 DUP4 DUP2 ADD SWAP2 SWAP1 SWAP2 MSTORE SHR PUSH1 0x1 PUSH1 0x1 PUSH1 0xA0 SHL SUB AND SWAP3 PUSH32 0xA3A193CD49FB44D3709B2D13235998E900D960268B8356D3C2233340FD215C38 SWAP2 LOG3 JUMPDEST PUSH1 0x1 DUP2 SSTORE DUP1 RETURN JUMPDEST SWAP2 PUSH2 0x2710 PUSH1 0x40 SWAP3 SWAP7 PUSH2 0x1FAC PUSH32 0xA3A193CD49FB44D3709B2D13235998E900D960268B8356D3C2233340FD215C38 SWAP6 PUSH2 0x291D JUMP JUMPDEST SWAP7 SWAP3 POP POP SWAP2 PUSH2 0x1F2C JUMP JUMPDEST PUSH1 0x40 MLOAD RETURNDATASIZE DUP9 DUP3 RETURNDATACOPY RETURNDATASIZE SWAP1 REVERT JUMPDEST PUSH1 0x40 MLOAD RETURNDATASIZE DUP7 DUP3 RETURNDATACOPY RETURNDATASIZE SWAP1 REVERT JUMPDEST PUSH2 0x8FC SWAP2 POP PUSH2 0x1E0E JUMP JUMPDEST POP PUSH2 0x8FC PUSH2 0x1DEC JUMP JUMPDEST SWAP2 SWAP3 POP POP PUSH1 0x1 EQ PUSH2 0x1FF2 JUMPI JUMPDEST POP POP PUSH2 0x1E1B JUMP JUMPDEST PUSH1 0xE SLOAD PUSH1 0x40 MLOAD PUSH4 0xA9059CBB PUSH1 0xE0 SHL DUP2 MSTORE PUSH1 0x1 PUSH1 0x1 PUSH1 0xA0 SHL SUB SWAP3 DUP4 AND PUSH1 0x4 DUP3 ADD MSTORE PUSH1 0x24 DUP2 ADD SWAP4 SWAP1 SWAP4 MSTORE PUSH1 0x20 SWAP2 DUP4 SWAP2 PUSH1 0x44 SWAP2 DUP4 SWAP2 DUP12 SWAP2 AND GAS CALL DUP1 ISZERO PUSH2 0x1FB6 JUMPI PUSH2 0x20A3 JUMPI JUMPDEST POP PUSH1 0xE SLOAD PUSH1 0x12 SLOAD PUSH1 0x40 MLOAD PUSH4 0xA9059CBB PUSH1 0xE0 SHL DUP2 MSTORE PUSH1 0x1 PUSH1 0x1 PUSH1 0xA0 SHL SUB SWAP2 DUP3 AND PUSH1 0x4 DUP3 ADD MSTORE PUSH2 0x2710 DUP8 DIV PUSH1 0x24 DUP3 ADD MSTORE SWAP2 PUSH1 0x20 SWAP2 DUP4 SWAP2 PUSH1 0x44 SWAP2 DUP4 SWAP2 DUP12 SWAP2 AND GAS CALL DUP1 ISZERO PUSH2 0x1FB6 JUMPI PUSH2 0x2084 JUMPI JUMPDEST DUP3 SWAP1 PUSH2 0x1FEB JUMP JUMPDEST PUSH2 0x209C SWAP1 PUSH1 0x20 RETURNDATASIZE PUSH1 0x20 GT PUSH2 0x9D1 JUMPI PUSH2 0x9C5 DUP2 DUP4 PUSH2 0x2931 JUMP JUMPDEST POP CODESIZE PUSH2 0x207D JUMP JUMPDEST PUSH2 0x20BB SWAP1 PUSH1 0x20 RETURNDATASIZE PUSH1 0x20 GT PUSH2 0x9D1 JUMPI PUSH2 0x9C5 DUP2 DUP4 PUSH2 0x2931 JUMP JUMPDEST POP CODESIZE PUSH2 0x2034 JUMP JUMPDEST PUSH4 0x4E487B71 PUSH1 0xE0 SHL DUP9 MSTORE PUSH1 0x21 PUSH1 0x4 MSTORE PUSH1 0x24 DUP9 REVERT JUMPDEST PUSH4 0x4E487B71 PUSH1 0xE0 SHL DUP5 MSTORE PUSH1 0x11 PUSH1 0x4 MSTORE PUSH1 0x24 DUP5 REVERT JUMPDEST PUSH1 0x40 ADD MLOAD DUP3 SLOAD PUSH5 0x100000000 PUSH1 0x1 PUSH1 0xC0 SHL SUB NOT AND PUSH1 0x20 SWAP2 SWAP1 SWAP2 SHL PUSH5 0x100000000 PUSH1 0x1 PUSH1 0xC0 SHL SUB AND OR DUP3 SSTORE PUSH2 0x1D5B JUMP JUMPDEST PUSH1 0xFF PUSH1 0x2 PUSH32 0x82AC985EEC835B3D85AC933B820E0C8D0F8BF80E24078A74044741269D2C6EA0 SWAP5 PUSH2 0x216B PUSH2 0x2152 DUP5 PUSH1 0x40 SWAP8 PUSH1 0x8 SHR AND PUSH2 0x2DC0 JUMP JUMPDEST DUP4 DUP4 ADD SWAP1 PUSH2 0xFF00 DUP3 SLOAD SWAP2 PUSH1 0x8 SHL AND SWAP1 PUSH2 0xFF00 NOT AND OR SWAP1 SSTORE JUMP JUMPDEST TIMESTAMP PUSH1 0x3 DUP3 ADD SSTORE ADD SLOAD PUSH1 0x8 SHR AND SWAP1 PUSH1 0xC0 DUP2 ADD MLOAD PUSH2 0x2186 DUP2 PUSH2 0x2A19 JUMP JUMPDEST PUSH2 0x218F DUP2 PUSH2 0x2A19 JUMP JUMPDEST PUSH2 0x21BA JUMPI PUSH1 0x20 ADD MLOAD PUSH1 0x1 PUSH1 0x1 PUSH1 0xA0 SHL SUB AND JUMPDEST DUP3 MLOAD SWAP2 DUP3 MSTORE PUSH1 0x1 PUSH1 0x1 PUSH1 0xA0 SHL SUB AND PUSH1 0x20 DUP3 ADD MSTORE LOG2 PUSH2 0x1F73 JUMP JUMPDEST DUP3 ADD MLOAD PUSH1 0x1 PUSH1 0x1 PUSH1 0xA0 SHL SUB AND PUSH2 0x21A1 JUMP JUMPDEST SWAP1 POP PUSH1 0xFF DUP4 PUSH1 0x18 SHR AND LT ISZERO CODESIZE PUSH2 0x1C58 JUMP JUMPDEST PUSH4 0x4E487B71 PUSH1 0xE0 SHL DUP6 MSTORE PUSH1 0x11 PUSH1 0x4 MSTORE PUSH1 0x24 DUP6 REVERT JUMPDEST PUSH2 0x2221 PUSH2 0x2205 DUP4 PUSH1 0x2 DUP14 ADD SLOAD PUSH1 0x10 SHR AND PUSH2 0x2DC0 JUMP JUMPDEST PUSH1 0x2 DUP13 ADD SWAP1 PUSH3 0xFF0000 DUP3 SLOAD SWAP2 PUSH1 0x10 SHL AND SWAP1 PUSH3 0xFF0000 NOT AND OR SWAP1 SSTORE JUMP JUMPDEST PUSH2 0x1BFC JUMP JUMPDEST PUSH1 0x1 PUSH2 0x1B53 JUMP JUMPDEST PUSH4 0x4E487B71 PUSH1 0xE0 SHL DUP9 MSTORE PUSH1 0x41 PUSH1 0x4 MSTORE PUSH1 0x24 DUP9 REVERT JUMPDEST PUSH1 0x40 MLOAD PUSH3 0x461BCD PUSH1 0xE5 SHL DUP2 MSTORE PUSH1 0x20 PUSH1 0x4 DUP3 ADD MSTORE PUSH1 0xD PUSH1 0x24 DUP3 ADD MSTORE PUSH13 0x24B73B30B634B2103837BBB2B9 PUSH1 0x99 SHL PUSH1 0x44 DUP3 ADD MSTORE PUSH1 0x64 SWAP1 REVERT JUMPDEST POP PUSH1 0xA PUSH1 0xFF DUP3 AND GT ISZERO PUSH2 0x1A9A JUMP JUMPDEST PUSH1 0x40 MLOAD PUSH3 0x461BCD PUSH1 0xE5 SHL DUP2 MSTORE PUSH1 0x20 PUSH1 0x4 DUP3 ADD MSTORE PUSH1 0x16 PUSH1 0x24 DUP3 ADD MSTORE PUSH22 0x10DBDD5B9D191BDDDB881B9BDD08199A5B9A5CDA1959 PUSH1 0x52 SHL PUSH1 0x44 DUP3 ADD MSTORE PUSH1 0x64 SWAP1 REVERT JUMPDEST POP MLOAD PUSH2 0x22CD DUP2 PUSH2 0x2A19 JUMP JUMPDEST PUSH2 0x22D6 DUP2 PUSH2 0x2A19 JUMP JUMPDEST ISZERO DUP1 PUSH2 0x22E6 JUMPI JUMPDEST PUSH2 0x1A83 SWAP1 PUSH2 0x1A79 JUMP JUMPDEST POP PUSH1 0x40 DUP3 ADD MLOAD PUSH1 0x1 PUSH1 0x1 PUSH1 0xA0 SHL SUB AND CALLER EQ PUSH2 0x22DD JUMP JUMPDEST POP PUSH1 0x20 DUP4 ADD MLOAD PUSH1 0x1 PUSH1 0x1 PUSH1 0xA0 SHL SUB AND CALLER EQ PUSH2 0x1A72 JUMP JUMPDEST PUSH1 0x2 ADD SLOAD PUSH1 0x1 PUSH1 0x1 PUSH1 0xA0 SHL SUB AND CALLER EQ SWAP1 POP CODESIZE PUSH2 0x1998 JUMP JUMPDEST POP DUP2 ISZERO ISZERO PUSH2 0x1969 JUMP JUMPDEST POP CALLVALUE PUSH2 0x2BA JUMPI DUP1 PUSH1 0x3 NOT CALLDATASIZE ADD SLT PUSH2 0x2BA JUMPI PUSH2 0x234B PUSH2 0x2AD4 JUMP JUMPDEST PUSH1 0x1 SLOAD PUSH1 0xFF DUP2 PUSH1 0xA0 SHR AND ISZERO PUSH2 0x2393 JUMPI PUSH1 0xFF PUSH1 0xA0 SHL NOT AND PUSH1 0x1 SSTORE PUSH1 0x40 MLOAD CALLER DUP2 MSTORE PUSH32 0x5DB9EE0A495BF2E6FF9C91A7834C1BA4FDD244A5E8AA4E537BD38AEAE4B073AA SWAP1 PUSH1 0x20 SWAP1 LOG1 DUP1 RETURN JUMPDEST PUSH1 0x40 MLOAD PUSH3 0x461BCD PUSH1 0xE5 SHL DUP2 MSTORE PUSH1 0x20 PUSH1 0x4 DUP3 ADD MSTORE PUSH1 0x14 PUSH1 0x24 DUP3 ADD MSTORE PUSH20 0x14185D5CD8589B194E881B9BDD081C185D5CD959 PUSH1 0x62 SHL PUSH1 0x44 DUP3 ADD MSTORE PUSH1 0x64 SWAP1 REVERT JUMPDEST POP CALLVALUE PUSH2 0x2BA JUMPI DUP1 PUSH1 0x3 NOT CALLDATASIZE ADD SLT PUSH2 0x2BA JUMPI PUSH1 0x20 PUSH1 0xB SLOAD PUSH1 0x40 MLOAD SWAP1 DUP2 MSTORE RETURN JUMPDEST POP CALLVALUE PUSH2 0x2BA JUMPI DUP1 PUSH1 0x3 NOT CALLDATASIZE ADD SLT PUSH2 0x2BA JUMPI PUSH1 0x20 PUSH1 0xA SLOAD PUSH1 0x40 MLOAD SWAP1 DUP2 MSTORE RETURN JUMPDEST POP CALLVALUE PUSH2 0x2BA JUMPI PUSH1 0x20 CALLDATASIZE PUSH1 0x3 NOT ADD SLT PUSH2 0x2BA JUMPI PUSH2 0x2436 PUSH1 0x40 PUSH2 0x40F SWAP3 PUSH1 0x4 CALLDATALOAD DUP2 MSTORE PUSH1 0x8 PUSH1 0x20 MSTORE KECCAK256 PUSH2 0x2953 JUMP JUMPDEST PUSH1 0x40 MLOAD SWAP2 DUP3 SWAP2 PUSH1 0x20 DUP4 MSTORE PUSH1 0x20 DUP4 ADD SWAP1 PUSH2 0x2854 JUMP JUMPDEST POP CALLVALUE PUSH2 0x2BA JUMPI PUSH2 0x2459 CALLDATASIZE PUSH2 0x280E JUMP JUMPDEST SWAP1 PUSH2 0x2462 PUSH2 0x2AD4 JUMP JUMPDEST PUSH1 0x10 SSTORE PUSH1 0x11 SSTORE DUP1 RETURN JUMPDEST POP CALLVALUE PUSH2 0x2BA JUMPI PUSH1 0x20 DUP1 PUSH1 0x3 NOT CALLDATASIZE ADD SLT PUSH2 0xCD7 JUMPI PUSH1 0x4 CALLDATALOAD PUSH1 0x9 SLOAD DUP2 LT DUP1 PUSH2 0x263D JUMPI JUMPDEST PUSH2 0x2495 SWAP1 PUSH2 0x2C4A JUMP JUMPDEST DUP1 DUP4 MSTORE PUSH1 0x2 DUP3 MSTORE PUSH1 0x40 DUP4 KECCAK256 PUSH2 0x254D PUSH1 0x40 MLOAD SWAP3 PUSH2 0x24B0 DUP5 PUSH2 0x28CE JUMP JUMPDEST DUP3 SLOAD DUP5 MSTORE DUP6 DUP6 PUSH2 0x251A PUSH1 0x1 DUP1 PUSH1 0xA0 SHL SUB SWAP6 DUP7 PUSH1 0x1 DUP3 ADD SLOAD AND SWAP8 DUP4 DUP2 ADD SWAP9 DUP10 MSTORE DUP8 PUSH1 0x2 DUP4 ADD SLOAD AND SWAP8 PUSH1 0x40 DUP3 ADD SWAP9 DUP10 MSTORE DUP1 DUP1 DUP1 PUSH1 0x3 DUP7 ADD SLOAD AND SWAP4 PUSH1 0x60 DUP2 ADD SWAP5 DUP6 MSTORE PUSH2 0x259B PUSH1 0x40 PUSH1 0x5 PUSH1 0x4 DUP10 ADD SLOAD SWAP9 PUSH1 0x80 DUP6 ADD SWAP10 DUP11 MSTORE ADD SLOAD SWAP11 PUSH1 0xA0 DUP5 ADD DUP1 SWAP13 PUSH1 0xFF SWAP12 DUP13 SWAP3 DUP4 DUP4 AND SWAP1 PUSH2 0x2D70 JUMP JUMPDEST DUP2 DUP2 PUSH1 0x8 SHR AND PUSH2 0x2529 DUP2 PUSH2 0x2A19 JUMP JUMPDEST PUSH1 0xC0 DUP8 ADD MSTORE DUP2 DUP2 PUSH1 0x10 SHR AND PUSH2 0x253D DUP2 PUSH2 0x2A19 JUMP JUMPDEST PUSH1 0xE0 DUP8 ADD MSTORE PUSH1 0x18 SHR AND SWAP14 DUP15 PUSH2 0x2A19 JUMP JUMPDEST PUSH2 0x100 SWAP14 DUP15 DUP6 ADD MSTORE DUP13 DUP2 MSTORE PUSH1 0x3 DUP12 MSTORE KECCAK256 SWAP8 PUSH1 0x3 PUSH1 0x40 MLOAD SWAP10 PUSH2 0x256D DUP12 PUSH2 0x2901 JUMP JUMPDEST DUP1 SLOAD DUP12 MSTORE PUSH2 0x2585 DUP4 PUSH1 0x1 DUP4 ADD SLOAD AND SWAP13 DUP13 ADD SWAP13 DUP14 PUSH2 0x2DDF JUMP JUMPDEST PUSH1 0x2 DUP2 ADD SLOAD PUSH1 0x40 DUP13 ADD MSTORE ADD SLOAD AND PUSH1 0x60 DUP10 ADD PUSH2 0x2DDF JUMP JUMPDEST MLOAD SWAP12 MLOAD AND SWAP10 MLOAD AND SWAP2 MLOAD AND SWAP2 MLOAD SWAP3 MLOAD SWAP4 MLOAD SWAP5 PUSH1 0x3 DUP7 LT ISZERO PUSH2 0x2629 JUMPI MLOAD SWAP6 PUSH1 0x6 DUP8 LT ISZERO PUSH2 0x2629 JUMPI SWAP2 PUSH2 0x2619 SWAP7 SWAP6 SWAP4 SWAP2 PUSH2 0x25E5 PUSH1 0x40 DUP15 DUP15 SWAP16 PUSH2 0x40F SWAP15 SWAP16 PUSH2 0x260F SWAP11 SWAP9 PUSH1 0x8 SWAP3 MSTORE MSTORE KECCAK256 PUSH2 0x2953 JUMP JUMPDEST SWAP10 PUSH1 0x40 MLOAD SWAP14 DUP15 SWAP14 DUP15 MSTORE DUP14 ADD MSTORE PUSH1 0x40 DUP13 ADD MSTORE PUSH1 0x60 DUP12 ADD MSTORE PUSH1 0x80 DUP11 ADD MSTORE PUSH1 0xA0 DUP10 ADD MSTORE PUSH1 0xC0 DUP9 ADD SWAP1 PUSH2 0x2824 JUMP JUMPDEST PUSH1 0xE0 DUP7 ADD SWAP1 PUSH2 0x2847 JUMP JUMPDEST PUSH2 0x120 DUP1 SWAP2 DUP6 ADD MSTORE DUP4 ADD SWAP1 PUSH2 0x2854 JUMP JUMPDEST PUSH4 0x4E487B71 PUSH1 0xE0 SHL DUP13 MSTORE PUSH1 0x21 PUSH1 0x4 MSTORE PUSH1 0x24 DUP13 REVERT JUMPDEST POP DUP1 ISZERO ISZERO PUSH2 0x248C JUMP JUMPDEST POP CALLVALUE PUSH2 0x2BA JUMPI PUSH1 0x20 DUP1 PUSH1 0x3 NOT CALLDATASIZE ADD SLT PUSH2 0xCD7 JUMPI PUSH1 0x1 PUSH1 0x1 PUSH1 0xA0 SHL SUB PUSH2 0x2669 PUSH2 0x27F3 JUMP JUMPDEST AND DUP3 MSTORE PUSH1 0x7 DUP2 MSTORE PUSH1 0x40 DUP3 KECCAK256 PUSH1 0x40 MLOAD SWAP3 DUP4 DUP4 DUP4 SLOAD SWAP2 DUP3 DUP2 MSTORE ADD SWAP1 DUP2 SWAP4 DUP4 MSTORE DUP5 DUP4 KECCAK256 SWAP1 DUP4 JUMPDEST DUP2 DUP2 LT PUSH2 0x26E0 JUMPI POP POP POP DUP5 PUSH2 0x26A2 SWAP2 SUB DUP6 PUSH2 0x2931 JUMP JUMPDEST PUSH1 0x40 MLOAD SWAP4 DUP4 DUP6 SWAP5 DUP6 ADD SWAP2 DUP2 DUP7 MSTORE MLOAD DUP1 SWAP3 MSTORE PUSH1 0x40 DUP6 ADD SWAP4 SWAP3 JUMPDEST DUP3 DUP2 LT PUSH2 0x26C9 JUMPI POP POP POP POP SUB SWAP1 RETURN JUMPDEST DUP4 MLOAD DUP6 MSTORE DUP7 SWAP6 POP SWAP4 DUP2 ADD SWAP4 SWAP3 DUP2 ADD SWAP3 PUSH1 0x1 ADD PUSH2 0x26BA JUMP JUMPDEST DUP3 SLOAD DUP5 MSTORE SWAP3 DUP7 ADD SWAP3 PUSH1 0x1 SWAP3 DUP4 ADD SWAP3 ADD PUSH2 0x268C JUMP JUMPDEST POP CALLVALUE PUSH2 0x2BA JUMPI DUP1 PUSH1 0x3 NOT CALLDATASIZE ADD SLT PUSH2 0x2BA JUMPI PUSH1 0xE SLOAD PUSH1 0x40 MLOAD PUSH1 0x1 PUSH1 0x1 PUSH1 0xA0 SHL SUB SWAP1 SWAP2 AND DUP2 MSTORE PUSH1 0x20 SWAP1 RETURN JUMPDEST POP CALLVALUE PUSH2 0x2BA JUMPI PUSH2 0x272C CALLDATASIZE PUSH2 0x280E JUMP JUMPDEST SWAP1 PUSH2 0x2735 PUSH2 0x2AD4 JUMP JUMPDEST PUSH2 0x3E8 DUP3 GT PUSH2 0x2747 JUMPI PUSH1 0xA SSTORE PUSH1 0xB SSTORE DUP1 RETURN JUMPDEST PUSH1 0x40 MLOAD PUSH3 0x461BCD PUSH1 0xE5 SHL DUP2 MSTORE PUSH1 0x20 PUSH1 0x4 DUP3 ADD MSTORE PUSH1 0xC PUSH1 0x24 DUP3 ADD MSTORE PUSH12 0x8CCACA40E8DEDE40D0D2CED PUSH1 0xA3 SHL PUSH1 0x44 DUP3 ADD MSTORE PUSH1 0x64 SWAP1 REVERT JUMPDEST POP CALLVALUE PUSH2 0x2BA JUMPI DUP1 PUSH1 0x3 NOT CALLDATASIZE ADD SLT PUSH2 0x2BA JUMPI PUSH1 0x20 PUSH1 0x11 SLOAD PUSH1 0x40 MLOAD SWAP1 DUP2 MSTORE RETURN JUMPDEST POP CALLVALUE PUSH2 0x2BA JUMPI PUSH1 0x40 CALLDATASIZE PUSH1 0x3 NOT ADD SLT PUSH2 0x2BA JUMPI PUSH2 0x27B3 PUSH2 0x27F3 JUMP JUMPDEST PUSH1 0x24 CALLDATALOAD PUSH1 0x1 PUSH1 0x1 PUSH1 0xA0 SHL SUB DUP2 DUP2 AND SWAP3 SWAP2 DUP4 SWAP1 SUB PUSH2 0x720 JUMPI PUSH2 0x27D2 PUSH2 0x2AD4 JUMP JUMPDEST PUSH1 0x1 PUSH1 0x1 PUSH1 0x60 SHL SUB PUSH1 0xA0 SHL SWAP2 AND DUP2 PUSH1 0xC SLOAD AND OR PUSH1 0xC SSTORE PUSH1 0xD SLOAD AND OR PUSH1 0xD SSTORE DUP1 RETURN JUMPDEST PUSH1 0x4 CALLDATALOAD SWAP1 PUSH1 0x1 PUSH1 0x1 PUSH1 0xA0 SHL SUB DUP3 AND DUP3 SUB PUSH2 0x2809 JUMPI JUMP JUMPDEST PUSH1 0x0 DUP1 REVERT JUMPDEST PUSH1 0x40 SWAP1 PUSH1 0x3 NOT ADD SLT PUSH2 0x2809 JUMPI PUSH1 0x4 CALLDATALOAD SWAP1 PUSH1 0x24 CALLDATALOAD SWAP1 JUMP JUMPDEST SWAP1 PUSH1 0x3 DUP3 LT ISZERO PUSH2 0x2831 JUMPI MSTORE JUMP JUMPDEST PUSH4 0x4E487B71 PUSH1 0xE0 SHL PUSH1 0x0 MSTORE PUSH1 0x21 PUSH1 0x4 MSTORE PUSH1 0x24 PUSH1 0x0 REVERT JUMPDEST SWAP1 PUSH1 0x6 DUP3 LT ISZERO PUSH2 0x2831 JUMPI MSTORE JUMP JUMPDEST SWAP2 SWAP1 DUP3 MLOAD SWAP3 DUP4 DUP3 MSTORE PUSH1 0x0 JUMPDEST DUP5 DUP2 LT PUSH2 0x2880 JUMPI POP POP DUP3 PUSH1 0x0 PUSH1 0x20 DUP1 SWAP5 SWAP6 DUP5 ADD ADD MSTORE PUSH1 0x1F DUP1 NOT SWAP2 ADD AND ADD ADD SWAP1 JUMP JUMPDEST PUSH1 0x20 DUP2 DUP4 ADD DUP2 ADD MLOAD DUP5 DUP4 ADD DUP3 ADD MSTORE ADD PUSH2 0x285F JUMP JUMPDEST SWAP1 PUSH1 0x1 DUP3 DUP2 SHR SWAP3 AND DUP1 ISZERO PUSH2 0x28C4 JUMPI JUMPDEST PUSH1 0x20 DUP4 LT EQ PUSH2 0x28AE JUMPI JUMP JUMPDEST PUSH4 0x4E487B71 PUSH1 0xE0 SHL PUSH1 0x0 MSTORE PUSH1 0x22 PUSH1 0x4 MSTORE PUSH1 0x24 PUSH1 0x0 REVERT JUMPDEST SWAP2 PUSH1 0x7F AND SWAP2 PUSH2 0x28A3 JUMP JUMPDEST PUSH2 0x120 DUP2 ADD SWAP1 DUP2 LT PUSH8 0xFFFFFFFFFFFFFFFF DUP3 GT OR PUSH2 0x28EB JUMPI PUSH1 0x40 MSTORE JUMP JUMPDEST PUSH4 0x4E487B71 PUSH1 0xE0 SHL PUSH1 0x0 MSTORE PUSH1 0x41 PUSH1 0x4 MSTORE PUSH1 0x24 PUSH1 0x0 REVERT JUMPDEST PUSH1 0x80 DUP2 ADD SWAP1 DUP2 LT PUSH8 0xFFFFFFFFFFFFFFFF DUP3 GT OR PUSH2 0x28EB JUMPI PUSH1 0x40 MSTORE JUMP JUMPDEST PUSH8 0xFFFFFFFFFFFFFFFF DUP2 GT PUSH2 0x28EB JUMPI PUSH1 0x40 MSTORE JUMP JUMPDEST SWAP1 PUSH1 0x1F DUP1 NOT SWAP2 ADD AND DUP2 ADD SWAP1 DUP2 LT PUSH8 0xFFFFFFFFFFFFFFFF DUP3 GT OR PUSH2 0x28EB JUMPI PUSH1 0x40 MSTORE JUMP JUMPDEST SWAP1 PUSH1 0x40 MLOAD SWAP2 DUP3 PUSH1 0x0 DUP3 SLOAD SWAP3 PUSH2 0x2967 DUP5 PUSH2 0x2894 JUMP JUMPDEST SWAP1 DUP2 DUP5 MSTORE PUSH1 0x1 SWAP5 DUP6 DUP2 AND SWAP1 DUP2 PUSH1 0x0 EQ PUSH2 0x29D6 JUMPI POP PUSH1 0x1 EQ PUSH2 0x2993 JUMPI JUMPDEST POP POP PUSH2 0x2991 SWAP3 POP SUB DUP4 PUSH2 0x2931 JUMP JUMPDEST JUMP JUMPDEST SWAP1 SWAP4 SWAP2 POP PUSH1 0x0 MSTORE PUSH1 0x20 SWAP1 DUP2 PUSH1 0x0 KECCAK256 SWAP4 PUSH1 0x0 SWAP2 JUMPDEST DUP2 DUP4 LT PUSH2 0x29BE JUMPI POP POP PUSH2 0x2991 SWAP4 POP DUP3 ADD ADD CODESIZE DUP1 PUSH2 0x2983 JUMP JUMPDEST DUP6 SLOAD DUP9 DUP5 ADD DUP6 ADD MSTORE SWAP5 DUP6 ADD SWAP5 DUP8 SWAP5 POP SWAP2 DUP4 ADD SWAP2 PUSH2 0x29A6 JUMP JUMPDEST SWAP2 POP POP PUSH2 0x2991 SWAP5 POP PUSH1 0x20 SWAP3 POP PUSH1 0xFF NOT AND DUP3 DUP5 ADD MSTORE ISZERO ISZERO PUSH1 0x5 SHL DUP3 ADD ADD CODESIZE DUP1 PUSH2 0x2983 JUMP JUMPDEST PUSH1 0x40 SWAP1 PUSH1 0x3 NOT ADD SLT PUSH2 0x2809 JUMPI PUSH1 0x4 CALLDATALOAD SWAP1 PUSH1 0x24 CALLDATALOAD PUSH1 0xFF DUP2 AND DUP2 SUB PUSH2 0x2809 JUMPI SWAP1 JUMP JUMPDEST PUSH1 0x2 GT ISZERO PUSH2 0x2831 JUMPI JUMP JUMPDEST SWAP3 PUSH1 0xFF PUSH1 0x60 SWAP4 SWAP7 SWAP6 SWAP3 SWAP7 PUSH1 0x80 DUP7 ADD SWAP8 PUSH2 0x2A3B DUP2 PUSH2 0x2A19 JUMP JUMPDEST DUP7 MSTORE AND PUSH1 0x20 DUP6 ADD MSTORE ISZERO ISZERO PUSH1 0x40 DUP5 ADD MSTORE PUSH1 0x1 PUSH1 0x1 PUSH1 0xA0 SHL SUB AND SWAP2 ADD MSTORE JUMP JUMPDEST DUP1 SLOAD DUP3 LT ISZERO PUSH2 0x2A70 JUMPI PUSH1 0x0 MSTORE PUSH1 0x20 PUSH1 0x0 KECCAK256 ADD SWAP1 PUSH1 0x0 SWAP1 JUMP JUMPDEST PUSH4 0x4E487B71 PUSH1 0xE0 SHL PUSH1 0x0 MSTORE PUSH1 0x32 PUSH1 0x4 MSTORE PUSH1 0x24 PUSH1 0x0 REVERT JUMPDEST SWAP6 SWAP2 SWAP5 PUSH1 0xFF PUSH2 0x100 SWAP9 SWAP6 DUP2 DUP1 SWAP7 DUP2 SWAP6 SWAP15 SWAP14 SWAP13 SWAP10 PUSH2 0x120 DUP13 ADD SWAP16 DUP13 MSTORE PUSH1 0x20 DUP13 ADD MSTORE AND PUSH1 0x40 DUP11 ADD MSTORE AND PUSH1 0x60 DUP9 ADD MSTORE AND PUSH1 0x80 DUP7 ADD MSTORE AND PUSH1 0xA0 DUP5 ADD MSTORE PUSH1 0x1 DUP1 PUSH1 0xA0 SHL SUB AND PUSH1 0xC0 DUP4 ADD MSTORE PUSH1 0xE0 DUP3 ADD MSTORE ADD MSTORE JUMP JUMPDEST PUSH1 0x1 SLOAD PUSH1 0x1 PUSH1 0x1 PUSH1 0xA0 SHL SUB AND CALLER SUB PUSH2 0x2AE8 JUMPI JUMP JUMPDEST PUSH1 0x64 PUSH1 0x40 MLOAD PUSH3 0x461BCD PUSH1 0xE5 SHL DUP2 MSTORE PUSH1 0x20 PUSH1 0x4 DUP3 ADD MSTORE PUSH1 0x20 PUSH1 0x24 DUP3 ADD MSTORE PUSH32 0x4F776E61626C653A2063616C6C6572206973206E6F7420746865206F776E6572 PUSH1 0x44 DUP3 ADD MSTORE REVERT JUMPDEST CALLDATALOAD PUSH1 0x1 PUSH1 0x1 PUSH1 0xA0 SHL SUB DUP2 AND DUP2 SUB PUSH2 0x2809 JUMPI SWAP1 JUMP JUMPDEST DUP1 SLOAD PUSH9 0x10000000000000000 DUP2 LT ISZERO PUSH2 0x28EB JUMPI PUSH2 0x2B62 SWAP2 PUSH1 0x1 DUP3 ADD DUP2 SSTORE PUSH2 0x2A58 JUMP JUMPDEST DUP2 SWAP3 SWAP2 SLOAD SWAP1 PUSH1 0x3 SHL SWAP2 DUP3 SHL SWAP2 PUSH1 0x0 NOT SWAP1 SHL NOT AND OR SWAP1 SSTORE JUMP JUMPDEST SWAP1 CALLDATALOAD SWAP1 PUSH1 0x1E NOT DUP2 CALLDATASIZE SUB ADD DUP3 SLT ISZERO PUSH2 0x2809 JUMPI ADD DUP1 CALLDATALOAD SWAP1 PUSH8 0xFFFFFFFFFFFFFFFF DUP3 GT PUSH2 0x2809 JUMPI PUSH1 0x20 ADD SWAP2 DUP2 CALLDATASIZE SUB DUP4 SGT PUSH2 0x2809 JUMPI JUMP JUMPDEST PUSH1 0xFF PUSH1 0x1 SLOAD PUSH1 0xA0 SHR AND PUSH2 0x2BBC JUMPI JUMP JUMPDEST PUSH1 0x40 MLOAD PUSH3 0x461BCD PUSH1 0xE5 SHL DUP2 MSTORE PUSH1 0x20 PUSH1 0x4 DUP3 ADD MSTORE PUSH1 0x10 PUSH1 0x24 DUP3 ADD MSTORE PUSH16 0x14185D5CD8589B194E881C185D5CD959 PUSH1 0x82 SHL PUSH1 0x44 DUP3 ADD MSTORE PUSH1 0x64 SWAP1 REVERT JUMPDEST PUSH1 0x2 PUSH1 0x0 SLOAD EQ PUSH2 0x2C05 JUMPI PUSH1 0x2 PUSH1 0x0 SSTORE JUMP JUMPDEST PUSH1 0x40 MLOAD PUSH3 0x461BCD PUSH1 0xE5 SHL DUP2 MSTORE PUSH1 0x20 PUSH1 0x4 DUP3 ADD MSTORE PUSH1 0x1F PUSH1 0x24 DUP3 ADD MSTORE PUSH32 0x5265656E7472616E637947756172643A207265656E7472616E742063616C6C00 PUSH1 0x44 DUP3 ADD MSTORE PUSH1 0x64 SWAP1 REVERT JUMPDEST ISZERO PUSH2 0x2C51 JUMPI JUMP JUMPDEST PUSH1 0x40 MLOAD PUSH3 0x461BCD PUSH1 0xE5 SHL DUP2 MSTORE PUSH1 0x20 PUSH1 0x4 DUP3 ADD MSTORE PUSH1 0x13 PUSH1 0x24 DUP3 ADD MSTORE PUSH19 0x11D85B5948191BD95CC81B9BDD08195E1A5CDD PUSH1 0x6A SHL PUSH1 0x44 DUP3 ADD MSTORE PUSH1 0x64 SWAP1 REVERT JUMPDEST ISZERO PUSH2 0x2C93 JUMPI JUMP JUMPDEST PUSH1 0x40 MLOAD PUSH3 0x461BCD PUSH1 0xE5 SHL DUP2 MSTORE PUSH1 0x20 PUSH1 0x4 DUP3 ADD MSTORE PUSH1 0x12 PUSH1 0x24 DUP3 ADD MSTORE PUSH18 0x496E76616C69642067616D65207374617465 PUSH1 0x70 SHL PUSH1 0x44 DUP3 ADD MSTORE PUSH1 0x64 SWAP1 REVERT JUMPDEST SWAP1 PUSH2 0x2CD7 DUP2 PUSH2 0x2A19 JUMP JUMPDEST PUSH4 0xFF000000 DUP3 SLOAD SWAP2 PUSH1 0x18 SHL AND SWAP1 PUSH4 0xFF000000 NOT AND OR SWAP1 SSTORE JUMP JUMPDEST SWAP1 PUSH2 0x2CFA DUP2 PUSH2 0x2A19 JUMP JUMPDEST PUSH2 0xFF00 DUP3 SLOAD SWAP2 PUSH1 0x8 SHL AND SWAP1 PUSH2 0xFF00 NOT AND OR SWAP1 SSTORE JUMP JUMPDEST SWAP1 PUSH2 0x2D19 DUP2 PUSH2 0x2A19 JUMP JUMPDEST PUSH3 0xFF0000 DUP3 SLOAD SWAP2 PUSH1 0x10 SHL AND SWAP1 PUSH3 0xFF0000 NOT AND OR SWAP1 SSTORE JUMP JUMPDEST ISZERO PUSH2 0x2D37 JUMPI JUMP JUMPDEST PUSH1 0x40 MLOAD PUSH3 0x461BCD PUSH1 0xE5 SHL DUP2 MSTORE PUSH1 0x20 PUSH1 0x4 DUP3 ADD MSTORE PUSH1 0x11 PUSH1 0x24 DUP3 ADD MSTORE PUSH17 0x2737BA10309033B0B6B290383630BCB2B9 PUSH1 0x79 SHL PUSH1 0x44 DUP3 ADD MSTORE PUSH1 0x64 SWAP1 REVERT JUMPDEST PUSH1 0x6 DUP3 LT ISZERO PUSH2 0x2831 JUMPI MSTORE JUMP JUMPDEST ISZERO PUSH2 0x2D83 JUMPI JUMP JUMPDEST PUSH1 0x40 MLOAD PUSH3 0x461BCD PUSH1 0xE5 SHL DUP2 MSTORE PUSH1 0x20 PUSH1 0x4 DUP3 ADD MSTORE PUSH1 0x15 PUSH1 0x24 DUP3 ADD MSTORE PUSH21 0x4E6F7420796F7572207475726E20746F20666C697 PUSH1 0x5C SHL PUSH1 0x44 DUP3 ADD MSTORE PUSH1 0x64 SWAP1 REVERT JUMPDEST PUSH1 0xFF AND PUSH1 0xFF DUP2 EQ PUSH2 0x13CF JUMPI PUSH1 0x1 ADD SWAP1 JUMP JUMPDEST CALLDATALOAD PUSH1 0xFF DUP2 AND DUP2 SUB PUSH2 0x2809 JUMPI SWAP1 JUMP JUMPDEST PUSH1 0x3 DUP3 LT ISZERO PUSH2 0x2831 JUMPI MSTORE JUMP JUMPDEST SWAP1 PUSH1 0x3 DUP2 LT ISZERO PUSH2 0x2831 JUMPI PUSH1 0xFF DUP1 NOT DUP4 SLOAD AND SWAP2 AND OR SWAP1 SSTORE JUMP JUMPDEST SWAP1 DUP2 PUSH1 0x20 SWAP2 SUB SLT PUSH2 0x2809 JUMPI MLOAD DUP1 ISZERO ISZERO DUP2 SUB PUSH2 0x2809 JUMPI SWAP1 JUMP INVALID LOG2 PUSH5 0x6970667358 0x22 SLT KECCAK256 ADDMOD 0xDE 0xCA PUSH8 0x36FB1C3808064285 DUP13 0xE3 SGT 0x2F PUSH30 0x96FD01A984A50D9B456C501D42677764736F6C6343000814003300000000 "},"methodIdentifiers":{"COUNTDOWN_DURATION()":"ec71394a","MAX_FEE_PERCENT()":"67d81740","TURN_TIMEOUT()":"5e82ff65","cancelGame(uint256)":"69958ab9","createGame((address,uint256,uint256,uint8,uint8,string))":"7bbc3fcf","emergencyWithdraw(address,uint256)":"95ccea67","emergencyWithdrawNFT(address,uint256)":"922b8079","ethUsdFeed()":"8009b7bd","feeReceiver()":"b3f00674","flip(uint256,uint8)":"3fd42eb4","gameAuthInfo(uint256)":"279efa94","gameCores(uint256)":"abf1b86e","gameCounterOffers(uint256,uint256)":"ae48612b","gameExpiryDuration()":"de840041","gameFinancials(uint256)":"8057cbbb","gameProgress(uint256)":"dbb19dad","gameRounds(uint256,uint8)":"7b09a1f4","getGameBasic(uint256)":"15e163fb","getGameProgress(uint256)":"d24c9eee","getGameRound(uint256,uint8)":"6fadc5fe","getUserGames(address)":"120aace6","joinGame(uint256,uint8)":"ca6649c5","listingFeeUSD()":"3a38d063","nativeToken()":"e1758bd8","nextGameId()":"b135bbb0","offerExpiryDuration()":"0b1fb002","owner()":"8da5cb5b","pause()":"8456cb59","paused()":"5c975abb","renounceOwnership()":"715018a6","setFeeReceiver(address)":"efdcd974","setFees(uint256,uint256)":"0b78f9c0","setGameSettings(uint256,uint256)":"175a2bd1","setNativeToken(address)":"6da1e102","setPriceFeeds(address,address)":"068f158d","startCountdown(uint256)":"87bd15ef","transferOwnership(address)":"f2fde38b","unpause()":"3f4ba83a","usdcToken()":"11eac855","usdcUsdFeed()":"4d9a75e5","userGames(address,uint256)":"bc0167cd","winningsFeePercent()":"3d05cfdc"}}}}}