{"contracts/NFTFlipGame.sol":{"NFTFlipGame":{"abi":[{"inputs":[{"internalType":"address","name":"_ethUsdFeed","type":"address"},{"internalType":"address","name":"_usdcUsdFeed","type":"address"},{"internalType":"address","name":"_usdcToken","type":"address"},{"internalType":"address","name":"_platformFeeReceiver","type":"address"}],"stateMutability":"nonpayable","type":"constructor"},{"anonymous":false,"inputs":[{"indexed":true,"internalType":"uint256","name":"gameId","type":"uint256"},{"indexed":false,"internalType":"uint8","name":"round","type":"uint8"},{"indexed":false,"internalType":"enum NFTFlipGame.CoinSide","name":"result","type":"uint8"},{"indexed":false,"internalType":"uint8","name":"power","type":"uint8"}],"name":"FlipResult","type":"event"},{"anonymous":false,"inputs":[{"indexed":true,"internalType":"uint256","name":"gameId","type":"uint256"}],"name":"GameCancelled","type":"event"},{"anonymous":false,"inputs":[{"indexed":true,"internalType":"uint256","name":"gameId","type":"uint256"},{"indexed":true,"internalType":"address","name":"winner","type":"address"}],"name":"GameCompleted","type":"event"},{"anonymous":false,"inputs":[{"indexed":true,"internalType":"uint256","name":"gameId","type":"uint256"},{"indexed":true,"internalType":"address","name":"creator","type":"address"},{"indexed":false,"internalType":"enum NFTFlipGame.GameType","name":"gameType","type":"uint8"}],"name":"GameCreated","type":"event"},{"anonymous":false,"inputs":[{"indexed":true,"internalType":"uint256","name":"gameId","type":"uint256"},{"indexed":true,"internalType":"address","name":"joiner","type":"address"}],"name":"GameJoined","type":"event"},{"anonymous":false,"inputs":[{"indexed":true,"internalType":"uint256","name":"gameId","type":"uint256"}],"name":"GameStarted","type":"event"},{"anonymous":false,"inputs":[{"indexed":false,"internalType":"uint256","name":"newFee","type":"uint256"}],"name":"ListingFeeUpdated","type":"event"},{"anonymous":false,"inputs":[{"indexed":true,"internalType":"address","name":"player","type":"address"},{"indexed":true,"internalType":"address","name":"nftContract","type":"address"},{"indexed":false,"internalType":"uint256","name":"tokenId","type":"uint256"}],"name":"NFTWithdrawn","type":"event"},{"anonymous":false,"inputs":[{"indexed":true,"internalType":"address","name":"previousOwner","type":"address"},{"indexed":true,"internalType":"address","name":"newOwner","type":"address"}],"name":"OwnershipTransferred","type":"event"},{"anonymous":false,"inputs":[{"indexed":false,"internalType":"address","name":"account","type":"address"}],"name":"Paused","type":"event"},{"anonymous":false,"inputs":[{"indexed":false,"internalType":"uint256","name":"newPercent","type":"uint256"}],"name":"PlatformFeeUpdated","type":"event"},{"anonymous":false,"inputs":[{"indexed":true,"internalType":"address","name":"player","type":"address"},{"indexed":false,"internalType":"uint256","name":"ethAmount","type":"uint256"},{"indexed":false,"internalType":"uint256","name":"usdcAmount","type":"uint256"}],"name":"RewardsWithdrawn","type":"event"},{"anonymous":false,"inputs":[{"indexed":false,"internalType":"address","name":"account","type":"address"}],"name":"Unpaused","type":"event"},{"inputs":[],"name":"BASIS_POINTS","outputs":[{"internalType":"uint256","name":"","type":"uint256"}],"stateMutability":"view","type":"function"},{"inputs":[],"name":"MAX_FEE_PERCENT","outputs":[{"internalType":"uint256","name":"","type":"uint256"}],"stateMutability":"view","type":"function"},{"inputs":[{"internalType":"uint256","name":"_gameId","type":"uint256"}],"name":"cancelGame","outputs":[],"stateMutability":"nonpayable","type":"function"},{"inputs":[{"components":[{"internalType":"address","name":"nftContract","type":"address"},{"internalType":"uint256","name":"tokenId","type":"uint256"},{"internalType":"uint256","name":"priceUSD","type":"uint256"},{"internalType":"enum NFTFlipGame.PaymentToken","name":"acceptedToken","type":"uint8"},{"internalType":"uint8","name":"maxRounds","type":"uint8"},{"internalType":"enum NFTFlipGame.GameType","name":"gameType","type":"uint8"},{"internalType":"string","name":"authInfo","type":"string"}],"internalType":"struct NFTFlipGame.CreateGameParams","name":"params","type":"tuple"}],"name":"createGame","outputs":[],"stateMutability":"payable","type":"function"},{"inputs":[{"internalType":"address","name":"to","type":"address"},{"internalType":"uint256","name":"amount","type":"uint256"}],"name":"emergencyWithdrawETH","outputs":[],"stateMutability":"nonpayable","type":"function"},{"inputs":[{"internalType":"address","name":"nftContract","type":"address"},{"internalType":"uint256","name":"tokenId","type":"uint256"},{"internalType":"address","name":"to","type":"address"}],"name":"emergencyWithdrawNFT","outputs":[],"stateMutability":"nonpayable","type":"function"},{"inputs":[{"internalType":"address","name":"token","type":"address"},{"internalType":"address","name":"to","type":"address"},{"internalType":"uint256","name":"amount","type":"uint256"}],"name":"emergencyWithdrawToken","outputs":[],"stateMutability":"nonpayable","type":"function"},{"inputs":[],"name":"ethUsdFeed","outputs":[{"internalType":"contract AggregatorV3Interface","name":"","type":"address"}],"stateMutability":"view","type":"function"},{"inputs":[{"internalType":"uint256","name":"_gameId","type":"uint256"},{"internalType":"uint8","name":"_power","type":"uint8"}],"name":"flipCoin","outputs":[],"stateMutability":"nonpayable","type":"function"},{"inputs":[{"internalType":"uint256","name":"","type":"uint256"}],"name":"gameCores","outputs":[{"internalType":"uint256","name":"gameId","type":"uint256"},{"internalType":"address","name":"creator","type":"address"},{"internalType":"address","name":"joiner","type":"address"},{"internalType":"address","name":"nftContract","type":"address"},{"internalType":"uint256","name":"tokenId","type":"uint256"},{"internalType":"enum NFTFlipGame.GameState","name":"state","type":"uint8"},{"internalType":"enum NFTFlipGame.GameType","name":"gameType","type":"uint8"},{"internalType":"enum NFTFlipGame.PlayerRole","name":"creatorRole","type":"uint8"},{"internalType":"enum NFTFlipGame.PlayerRole","name":"joinerRole","type":"uint8"},{"internalType":"enum NFTFlipGame.CoinSide","name":"joinerChoice","type":"uint8"}],"stateMutability":"view","type":"function"},{"inputs":[{"internalType":"uint256","name":"","type":"uint256"}],"name":"gameFinancials","outputs":[{"internalType":"uint256","name":"priceUSD","type":"uint256"},{"internalType":"enum NFTFlipGame.PaymentToken","name":"acceptedToken","type":"uint8"},{"internalType":"uint256","name":"totalPaid","type":"uint256"},{"internalType":"enum NFTFlipGame.PaymentToken","name":"paymentTokenUsed","type":"uint8"},{"internalType":"uint256","name":"listingFeePaid","type":"uint256"},{"internalType":"uint256","name":"platformFeeCollected","type":"uint256"}],"stateMutability":"view","type":"function"},{"inputs":[{"internalType":"uint256","name":"","type":"uint256"}],"name":"gameProgress","outputs":[{"internalType":"uint256","name":"createdAt","type":"uint256"},{"internalType":"uint256","name":"expiresAt","type":"uint256"},{"internalType":"uint8","name":"maxRounds","type":"uint8"},{"internalType":"uint8","name":"currentRound","type":"uint8"},{"internalType":"uint8","name":"creatorWins","type":"uint8"},{"internalType":"uint8","name":"joinerWins","type":"uint8"},{"internalType":"address","name":"winner","type":"address"},{"internalType":"uint256","name":"lastActionTime","type":"uint256"},{"internalType":"uint256","name":"countdownEndTime","type":"uint256"}],"stateMutability":"view","type":"function"},{"inputs":[{"internalType":"uint256","name":"","type":"uint256"},{"internalType":"uint8","name":"","type":"uint8"}],"name":"gameRounds","outputs":[{"internalType":"enum NFTFlipGame.CoinSide","name":"result","type":"uint8"},{"internalType":"uint8","name":"power","type":"uint8"},{"internalType":"bool","name":"completed","type":"bool"},{"internalType":"address","name":"flipper","type":"address"}],"stateMutability":"view","type":"function"},{"inputs":[{"internalType":"uint256","name":"usdAmount","type":"uint256"}],"name":"getETHAmount","outputs":[{"internalType":"uint256","name":"","type":"uint256"}],"stateMutability":"view","type":"function"},{"inputs":[{"internalType":"uint256","name":"gameId","type":"uint256"}],"name":"getGameDetails","outputs":[{"components":[{"internalType":"uint256","name":"gameId","type":"uint256"},{"internalType":"address","name":"creator","type":"address"},{"internalType":"address","name":"joiner","type":"address"},{"internalType":"address","name":"nftContract","type":"address"},{"internalType":"uint256","name":"tokenId","type":"uint256"},{"internalType":"enum NFTFlipGame.GameState","name":"state","type":"uint8"},{"internalType":"enum NFTFlipGame.GameType","name":"gameType","type":"uint8"},{"internalType":"enum NFTFlipGame.PlayerRole","name":"creatorRole","type":"uint8"},{"internalType":"enum NFTFlipGame.PlayerRole","name":"joinerRole","type":"uint8"},{"internalType":"enum NFTFlipGame.CoinSide","name":"joinerChoice","type":"uint8"}],"internalType":"struct NFTFlipGame.GameCore","name":"core","type":"tuple"},{"components":[{"internalType":"uint256","name":"priceUSD","type":"uint256"},{"internalType":"enum NFTFlipGame.PaymentToken","name":"acceptedToken","type":"uint8"},{"internalType":"uint256","name":"totalPaid","type":"uint256"},{"internalType":"enum NFTFlipGame.PaymentToken","name":"paymentTokenUsed","type":"uint8"},{"internalType":"uint256","name":"listingFeePaid","type":"uint256"},{"internalType":"uint256","name":"platformFeeCollected","type":"uint256"}],"internalType":"struct NFTFlipGame.GameFinancials","name":"financials","type":"tuple"},{"components":[{"internalType":"uint256","name":"createdAt","type":"uint256"},{"internalType":"uint256","name":"expiresAt","type":"uint256"},{"internalType":"uint8","name":"maxRounds","type":"uint8"},{"internalType":"uint8","name":"currentRound","type":"uint8"},{"internalType":"uint8","name":"creatorWins","type":"uint8"},{"internalType":"uint8","name":"joinerWins","type":"uint8"},{"internalType":"address","name":"winner","type":"address"},{"internalType":"uint256","name":"lastActionTime","type":"uint256"},{"internalType":"uint256","name":"countdownEndTime","type":"uint256"}],"internalType":"struct NFTFlipGame.GameProgress","name":"progress","type":"tuple"}],"stateMutability":"view","type":"function"},{"inputs":[{"internalType":"uint256","name":"gameId","type":"uint256"},{"internalType":"enum NFTFlipGame.PaymentToken","name":"token","type":"uint8"}],"name":"getRequiredPaymentAmount","outputs":[{"internalType":"uint256","name":"","type":"uint256"}],"stateMutability":"view","type":"function"},{"inputs":[{"internalType":"address","name":"user","type":"address"}],"name":"getUserActiveGames","outputs":[{"internalType":"uint256[]","name":"","type":"uint256[]"}],"stateMutability":"view","type":"function"},{"inputs":[{"internalType":"address","name":"user","type":"address"},{"internalType":"address","name":"nftContract","type":"address"}],"name":"getUserUnclaimedNFTs","outputs":[{"internalType":"uint256[]","name":"","type":"uint256[]"}],"stateMutability":"view","type":"function"},{"inputs":[{"components":[{"internalType":"uint256","name":"gameId","type":"uint256"},{"internalType":"enum NFTFlipGame.CoinSide","name":"coinChoice","type":"uint8"},{"internalType":"enum NFTFlipGame.PlayerRole","name":"roleChoice","type":"uint8"},{"internalType":"enum NFTFlipGame.PaymentToken","name":"paymentToken","type":"uint8"},{"internalType":"address","name":"challengerNFTContract","type":"address"},{"internalType":"uint256","name":"challengerTokenId","type":"uint256"}],"internalType":"struct NFTFlipGame.JoinGameParams","name":"params","type":"tuple"}],"name":"joinGame","outputs":[],"stateMutability":"payable","type":"function"},{"inputs":[],"name":"listingFeeUSD","outputs":[{"internalType":"uint256","name":"","type":"uint256"}],"stateMutability":"view","type":"function"},{"inputs":[],"name":"nextGameId","outputs":[{"internalType":"uint256","name":"","type":"uint256"}],"stateMutability":"view","type":"function"},{"inputs":[{"internalType":"uint256","name":"","type":"uint256"}],"name":"nftChallenges","outputs":[{"internalType":"address","name":"challengerNFTContract","type":"address"},{"internalType":"uint256","name":"challengerTokenId","type":"uint256"},{"internalType":"bool","name":"isNFTvsNFT","type":"bool"}],"stateMutability":"view","type":"function"},{"inputs":[],"name":"owner","outputs":[{"internalType":"address","name":"","type":"address"}],"stateMutability":"view","type":"function"},{"inputs":[],"name":"paused","outputs":[{"internalType":"bool","name":"","type":"bool"}],"stateMutability":"view","type":"function"},{"inputs":[],"name":"platformFeePercent","outputs":[{"internalType":"uint256","name":"","type":"uint256"}],"stateMutability":"view","type":"function"},{"inputs":[],"name":"platformFeeReceiver","outputs":[{"internalType":"address","name":"","type":"address"}],"stateMutability":"view","type":"function"},{"inputs":[],"name":"renounceOwnership","outputs":[],"stateMutability":"nonpayable","type":"function"},{"inputs":[{"internalType":"uint256","name":"_newFeeUSD","type":"uint256"}],"name":"setListingFee","outputs":[],"stateMutability":"nonpayable","type":"function"},{"inputs":[{"internalType":"uint256","name":"_newPercent","type":"uint256"}],"name":"setPlatformFeePercent","outputs":[],"stateMutability":"nonpayable","type":"function"},{"inputs":[{"internalType":"address","name":"newOwner","type":"address"}],"name":"transferOwnership","outputs":[],"stateMutability":"nonpayable","type":"function"},{"inputs":[{"internalType":"address","name":"","type":"address"}],"name":"unclaimedETH","outputs":[{"internalType":"uint256","name":"","type":"uint256"}],"stateMutability":"view","type":"function"},{"inputs":[{"internalType":"address","name":"","type":"address"},{"internalType":"address","name":"","type":"address"},{"internalType":"uint256","name":"","type":"uint256"}],"name":"unclaimedNFTs","outputs":[{"internalType":"uint256","name":"","type":"uint256"}],"stateMutability":"view","type":"function"},{"inputs":[{"internalType":"address","name":"","type":"address"}],"name":"unclaimedUSDC","outputs":[{"internalType":"uint256","name":"","type":"uint256"}],"stateMutability":"view","type":"function"},{"inputs":[],"name":"usdcToken","outputs":[{"internalType":"address","name":"","type":"address"}],"stateMutability":"view","type":"function"},{"inputs":[],"name":"usdcUsdFeed","outputs":[{"internalType":"contract AggregatorV3Interface","name":"","type":"address"}],"stateMutability":"view","type":"function"},{"inputs":[{"internalType":"address","name":"","type":"address"},{"internalType":"uint256","name":"","type":"uint256"}],"name":"userActiveGames","outputs":[{"internalType":"uint256","name":"","type":"uint256"}],"stateMutability":"view","type":"function"},{"inputs":[{"internalType":"address","name":"","type":"address"},{"internalType":"uint256","name":"","type":"uint256"}],"name":"userGames","outputs":[{"internalType":"uint256","name":"","type":"uint256"}],"stateMutability":"view","type":"function"},{"inputs":[{"internalType":"address","name":"","type":"address"},{"internalType":"address","name":"","type":"address"},{"internalType":"uint256","name":"","type":"uint256"}],"name":"userNFTsInContract","outputs":[{"internalType":"bool","name":"","type":"bool"}],"stateMutability":"view","type":"function"},{"inputs":[],"name":"withdrawAllNFTs","outputs":[],"stateMutability":"nonpayable","type":"function"},{"inputs":[{"internalType":"address","name":"nftContract","type":"address"},{"internalType":"uint256","name":"tokenId","type":"uint256"}],"name":"withdrawNFT","outputs":[],"stateMutability":"nonpayable","type":"function"},{"inputs":[],"name":"withdrawRewards","outputs":[],"stateMutability":"nonpayable","type":"function"}],"evm":{"bytecode":{"linkReferences":{},"object":"6080346200011e57601f620034a038819003918201601f19168301916001600160401b0383118484101762000123578084926080946040528339810103126200011e576200004d8162000139565b6200005b6020830162000139565b6200007760606200006f6040860162000139565b940162000139565b60016000556001546040519460018060a01b0380948193338382167f8be0079c531659141344cd1fd0a4f28419497f9722a3daafe3b4186f6b6457e0600080a360ff60a01b1933169060018060a81b031916176001556001600d5562030d40600e5561015e600f558160018060a01b0319971687601054161760105516856011541617601155168360125416176012551690601354161760135561335190816200014f8239f35b600080fd5b634e487b7160e01b600052604160045260246000fd5b51906001600160a01b03821682036200011e5756fe608080604052600436101561001357600080fd5b600090813560e01c90816311eac85514612ab457508063131dbd0914612a575780631a68b69114612a1e5780631b31abda14612707578063277327a51461267c578063284f691014611f425780632d656ad714611f195780633a38d06314611efb5780634d9a75e514611ed25780635c975abb14611eac5780635e37ef5114611e5d5780636088e93a14611c7857806367d8174014611c5b57806369958ab914611a5157806370f11e9a14611143578063715018a6146110e55780637b09a1f4146110755780638009b7bd1461104c5780638057cbbb14610fd45780638c639a8514610fb65780638cbe09ed14610f6f5780638da5cb5b14610f4657806395d1152014610f0d578063aa4209b814610ec4578063abf1b86e14610df0578063afb6809614610d79578063b0fb584514610d4c578063b135bbb014610d2e578063b1a8129514610c87578063b659672714610c67578063baf4718814610715578063bc0167cd146106cd578063c292b39114610629578063c7b8981c14610490578063cab230d214610434578063d79e8567146103d8578063dbb19dad14610346578063e1f1c4a714610329578063ef46b2ab14610302578063f1ab45d7146102ac5763f2fde38b146101e457600080fd5b346102a95760203660031901126102a9576101fd612ad9565b610205612be7565b6001600160a01b0390811690811561025557600154826001600160601b0360a01b821617600155167f8be0079c531659141344cd1fd0a4f28419497f9722a3daafe3b4186f6b6457e0600080a380f35b60405162461bcd60e51b815260206004820152602660248201527f4f776e61626c653a206e6577206f776e657220697320746865207a65726f206160448201526564647265737360d01b6064820152608490fd5b80fd5b50346102a95760403660031901126102a9576102c6612ad9565b6001600160a01b03168152600860205260408120805460243592908310156102a95760206102f48484612b7e565b90546040519160031b1c8152f35b50346102a95760203660031901126102a957602061032160043561308e565b604051908152f35b50346102a957806003193601126102a95760206040516127108152f35b50346102a95760203660031901126102a957604061012091600435815260046020522080549060018101549060028101546004600383015492015492604051948552602085015260ff8116604085015260ff8160081c16606085015260ff8160101c16608085015260ff8160181c1660a085015260018060a01b039060201c1660c084015260e0830152610100820152f35b50346102a95760403660031901126102a957808080806103f6612ad9565b60243590610402612be7565b8290821561042a575b6001600160a01b031690f11561041e5780f35b604051903d90823e3d90fd5b6108fc915061040b565b50346102a95760203660031901126102a9577f45610d581145924dd7090a5017e5f2b1d6f42213bb2e95707ff86846bbfcb1ca6020600435610474612be7565b6104826103e882111561303c565b80600f55604051908152a180f35b50346102a957806003193601126102a9576104a9612e75565b3381526020600a8152604082205490600b815260408320549082158080158091610620575b156105e5579085916105a6575b505081610519575b6040519283528201527ffa73d3ab3a92ed3f2b694757d8e4b2f3c293654b11b9c79111f8971f861b22b260403392a26001815580f35b33808552600b82526040808620869055601254905163a9059cbb60e01b815260048101929092526024820184905282908290604490829089906001600160a01b03165af1801561059b5761056e575b506104e3565b61058d90823d8411610594575b6105858183612cfd565b810190612f0d565b5038610568565b503d61057b565b6040513d87823e3d90fd5b338252600a83528160408120558482916105db575b8280929181923390f1156105d05783386104db565b6040513d85823e3d90fd5b6108fc91506105bb565b60405162461bcd60e51b81526004810184905260136024820152724e6f207265776172647320746f20636c61696d60681b6044820152606490fd5b508315156104ce565b50346102a95760403660031901126102a957610643612ad9565b6001600160a01b0360243581811692908390036106c857168252602090600c8252604083209060005281526040600020916040518092808554928381520194835280832092905b8282106106b1576106ad856106a181890382612cfd565b60405191829182612bac565b0390f35b83548652948501946001938401939091019061068a565b600080fd5b50346102a95760403660031901126102a9576106e7612ad9565b6001600160a01b03168152600760205260408120805460243592908310156102a95760206102f48484612b7e565b5060c03660031901126102a95761072a612e75565b610732612e2e565b60043580825260029060209180835261075060408520541515612ecb565b8184528083526040842092600381526040852091600585019060ff8254166006811015610c5357610c195760018681015490966001600160a01b03959186163314610bdd5782019085825416610ba25760243583811015610a23576107b59085612d88565b60443583811015610a2357806107cd6107e392612b12565b80610b99576107dd8a5b87612d44565b85612d65565b60ff845460081c166107f481612b12565b610a2757606435956003871015610a235761080f8789613212565b60009188610957575080341061091f57808b91868501558034116108e7575b50505b6108e35760089560036108449201612db9565b336001600160601b0360a01b82541617905560ff1982541617905582855260048152426003604087200155338552600781526108838360408720612dde565b338552526108948160408520612dde565b33817f45c4f9cbafe186141862608c493f28b823fde4c2142bedc3f5169961a73fdd228580a37f50ad08f58a27f2851d7e3a1b3a6a46b290f2ce677e99642d30ff639721e777908380a2815580f35b8880fd5b81806108f4819334612e21565b818115610916575b3390f11561090b57893861082e565b6040513d8b823e3d90fd5b506108fc6108fc565b60405162461bcd60e51b815260048101889052601060248201526f092dce6eaccccd2c6d2cadce8408aa8960831b6044820152606490fd5b8a8914610966575b5050610831565b346109de576012546040516323b872dd60e01b815233600482015230602482015260448101849052918991839116818f816064810103925af180156109d3576109b6575b5084830155388061095f565b6109cc90883d8a11610594576105858183612cfd565b50386109aa565b6040513d8e823e3d90fd5b60405162461bcd60e51b815260048101899052601f60248201527f455448206e6f74206e656564656420666f722055534443207061796d656e74006044820152606490fd5b8980fd5b509091929380610a35612c4d565b1615610b5b5790818895949392610a4a612c4d565b1690813b15610b4c576040516323b872dd60e01b815233600482015230602482015260a435604482018190529288908290606490829084905af18015610b50578a918a91610b33575b5085610afc92899285604060089d6005610aab612c4d565b9784845199610ab98b612ce1565b168952808901958c8752848a01978852835252209451166001600160601b0360a01b855416178455518d84015551151591019060ff801983541691151516179055565b338a526009865260408a2090610b10612c4d565b16600052855260406000209089528452604088208760ff19825416179055610844565b899250610b409150612ccd565b610b4c57888838610a93565b8680fd5b6040513d8a823e3d90fd5b60405162461bcd60e51b8152600481018690526016602482015275125b9d985b1a590818da185b1b195b99d95c8813919560521b6044820152606490fd5b6107dd8b6107d7565b60405162461bcd60e51b815260048101869052601360248201527211d85b5948185b1c9958591e481a9bda5b9959606a1b6044820152606490fd5b60405162461bcd60e51b815260048101869052601460248201527343616e6e6f74206a6f696e206f776e2067616d6560601b6044820152606490fd5b60405162461bcd60e51b815260048101849052601260248201527147616d65206e6f7420617661696c61626c6560701b6044820152606490fd5b634e487b7160e01b88526021600452602488fd5b50346102a957806003193601126102a957610c80612e75565b6001815580f35b50346102a95760603660031901126102a957610ca1612ad9565b6044356001600160a01b0380821682036106c8578392610cbf612be7565b16803b15610d2a576040516323b872dd60e01b81523060048201526001600160a01b039290921660248084019190915235604483015282908290606490829084905af18015610d1f57610d0f5750f35b610d1890612ccd565b6102a95780f35b6040513d84823e3d90fd5b5050fd5b50346102a957806003193601126102a9576020600d54604051908152f35b50346102a95760403660031901126102a9576024359060038210156102a957602061032183600435613212565b50346102a957602080600319360112610dec576001600160a01b03610d9c612ad9565b1682526008815260408220916040518092808554928381520194835280832092905b828210610dd5576106ad856106a181890382612cfd565b835486529485019460019384019390910190610dbe565b5080fd5b50346102a95760203660031901126102a957604061014091600435815260026020522080549060018060a01b038060018301541691816002820154169160038201541690610e886005600483015492015460ff8160081c169260ff8260101c169460ff8360181c169660ff8460201c16986040519a8b5260208b015260408a01526060890152608088015260ff60a088019116612aef565b610e9181612b12565b60c0850152610e9f81612b12565b60e0840152610ead81612b12565b610100830152610ebc81612b12565b610120820152f35b50346102a957610ed336612b29565b929160018060a01b038091168352600c60205260408320911660005260205260406000209081548310156102a95760206102f48484612b7e565b50346102a95760203660031901126102a9576020906040906001600160a01b03610f35612ad9565b168152600b83522054604051908152f35b50346102a957806003193601126102a9576001546040516001600160a01b039091168152602090f35b50346102a95760ff6040602092610f8536612b29565b9160018060a01b03809116845260098752848420911660005285528260002090825284522054166040519015158152f35b50346102a957806003193601126102a9576020600f54604051908152f35b50346102a95760203660031901126102a957604060c091600435815260036020522080549060ff60018201541690611040600282015460ff6003840154169061103160056004860154950154956040519788526020880190612b1c565b60408601526060850190612b1c565b608083015260a0820152f35b50346102a957806003193601126102a9576010546040516001600160a01b039091168152602090f35b50346102a95760ff604061108836612b5e565b939081526006602052209116600052602052608060406000205460ff811690604051916110b481612b12565b8252600881901c60ff9081166020840152601082901c161515604083015260181c6001600160a01b03166060820152f35b50346102a957806003193601126102a9576110fe612be7565b600180546001600160a01b031981169091556000906001600160a01b03167f8be0079c531659141344cd1fd0a4f28419497f9722a3daafe3b4186f6b6457e08280a380f35b50346102a95761115236612b5e565b61115a612e75565b818352600260205261117160408420541515612ecb565b818352600260205261118560408420612f25565b60208101516001600160a01b03163314908115611a3a575b5015611a0157818352600260205260408320906004602052604084209160058101549060ff82166006811015611834576002036119c55760028401549160ff831660ff8460081c16116119945760ff906001808560081c161460001461195d5760101c1661120a81612b12565b61194a5760018101546001600160a01b03165b6001600160a01b0316330361190d57600161124561123b4442612dd1565b60ff861690612dd1565b166119055785915b6040519182608081011067ffffffffffffffff6080850111176118ef578287896112f560ff60059660808299016040526112868a612b12565b8986526020860190828c168252826040808901966001885260608a0198338a5281526006602052209160081c16600052602052604060002095516112c981612b12565b6112d281612b12565b8654915161ff0090841660081b16831990921692169190911761ff001916178455565b518254915162010000600160b81b031990921690151560101b62ff0000161760189190911b6301000000600160b81b0316179055015460201c1661133881612b12565b61134182612b12565b81036118b85761137b61135d60ff600286015460181c16612fd8565b600285019063ff00000082549160181b169063ff0000001916179055565b837fd73947a30dd460e254360e488e8ac6c5734bea2fdfcd58e0d7559464246aa746606060028601549360ff808660081c1696604051928884526113be81612b12565b6020840152166040820152a26001607f82821c160160ff81116118a45760ff168060ff8360101c161091821592611893575b50501561185f5750508082526002602052604082206004602052604083209060036020528260408520600360ff19600585015416176005840155600284015460ff808260181c169160101c1611600014611848576001830154611486906001600160a01b03165b600286018054640100000000600160c01b03191660209290921b640100000000600160c01b0316919091179055565b60ff600584015460081c1661149a81612b12565b15611714575b50611548916115368260018060a01b03600287015460201c16600184019060018060a01b03825416146000146115f95760018060a01b038154168952600c6020526040892060018060a01b0360038601541660005260205261150b6040600020600486015490612dde565b600160ff600586015460081c1661152181612b12565b14611584575b546001600160a01b031661327c565b600201546001600160a01b031661327c565b6002015460201c6001600160a01b0316907f7f40df5127524300187445e867486da572aab86769c0212e0b392bd87c4ca97f8380a36001815580f35b81895260056020526115f460408a2060405161159f81612ce1565b81546001600160a01b0390811682526001830154602080840191825260029094015460ff161515604080850191909152865483168f52600c8552808f2093519092166000908152929093529020905190612dde565b611527565b6002840160018060a01b038154168a52600c60205260408a20600386019060018060a01b0382541660005260205260406000209061163d6004880192835490612dde565b60018060a01b038454168c52600960205260408c209060018060a01b03905416600052602052604060002090548b5260205260408a2060ff198154169055600160ff600587015460081c1661169181612b12565b1461169d575b50611527565b828a5260056020526040808b20905161170e926116b982612ce1565b82546001600160a01b0390811683526001840154602080850191825260029095015460ff161515604080860191909152925482168f52600c8552828f2093519091166000908152929093529020905190612dde565b38611697565b905060028101549060ff600361173a612710611732600f5487612fe9565b048095612e21565b92846005820155015416600381101561183457916115489391838794156000146117c2575061178560018060a01b03600288015460201c1691828a52600a60205260408a2054612dd1565b908852600a60205260408820556117ae60018060a01b0360135416918289526040892054612dd1565b908752600a60205260408720555b916114a0565b6001146117d1575b50506117bc565b6117f760018060a01b03600288015460201c1691828a52600b60205260408a2054612dd1565b908852600b602052604088205561182060018060a01b0360135416918289526040892054612dd1565b908752600b602052604087205538806117ca565b634e487b7160e01b87526021600452602487fd5b6002830154611486906001600160a01b0316611457565b61188891925061186e90612fd8565b600283019061ff0082549160081b169061ff001916179055565b600342910155610c80565b60181c60ff161015905038806113f0565b634e487b7160e01b86526011600452602486fd5b6118ea6118ce60ff600286015460101c16612fd8565b600285019062ff000082549160101b169062ff00001916179055565b61137b565b634e487b7160e01b600052604160045260246000fd5b60019161124d565b60405162461bcd60e51b815260206004820152601560248201527404e6f7420796f7572207475726e20746f20666c697605c1b6044820152606490fd5b60028101546001600160a01b031661121d565b60101c1661196a81612b12565b6119815760028101546001600160a01b031661121d565b60018101546001600160a01b031661121d565b60405162461bcd60e51b815260206004820152600960248201526823b0b6b29037bb32b960b91b6044820152606490fd5b60405162461bcd60e51b815260206004820152601460248201527347616d65206e6f7420696e2070726f677265737360601b6044820152606490fd5b60405162461bcd60e51b8152602060048201526011602482015270139bdd0818481c185c9d1a58da5c185b9d607a1b6044820152606490fd5b604001516001600160a01b0316331490503861119d565b50346102a957602080600319360112610dec5760043590611a70612e75565b81835260028152611a8660408420541515612ecb565b81835260028152604083206001810180546001600160a01b039190821633819003611c1657600584019081549160ff83166006811015611c0257611bbd57600560ff1980941617905560038501886004868354169701928354883b15611bb9576040516323b872dd60e01b81523060048201526001600160a01b0392909216602483015260448201529681908890606490829084905af1968715611bac578997611b8f575b505095611b6496858554168a52600982528560408b2091541660005281526040600020915489525260408720908154169055541661327c565b7f681705fdbd93dba3b679fd712577e9a86d57c5551c520f8c74857deb57f9623f8280a26001815580f35b611b9b91929750612ccd565b611ba85786948838611b2b565b8780fd5b50604051903d90823e3d90fd5b8280fd5b60405162461bcd60e51b815260048101889052601d60248201527f43616e206f6e6c792063616e63656c2077616974696e672067616d65730000006044820152606490fd5b634e487b7160e01b8a52602160045260248afd5b60405162461bcd60e51b815260048101869052601760248201527f4f6e6c792063726561746f722063616e2063616e63656c0000000000000000006044820152606490fd5b50346102a957806003193601126102a95760206040516103e88152f35b50346102a95760403660031901126102a957611c92612ad9565b602435611c9d612e75565b338352600c602090815260408085206001600160a01b03909416600081815294835293208054859081805b828110611e2d575b5015611de8576000198101908111611dd457611d018392611cf7611d1f93611d2496612b7e565b9290549185612b7e565b91909260031b1c9082549060031b91821b91600019901b1916179055565b612ffc565b823b15611dd0576040516323b872dd60e01b8152306004820152336024820152604481018390528490818160648183895af18015610d1f57611dbc575b50507fbbde41973f9ce4890f7ad9762c23d8191f261fd643bdf13ed8bbc10549b49fcb903385526009815260408520846000528152604060002083865281526040852060ff1981541690556040519283523392a36001815580f35b611dc590612ccd565b611dd0578338611d61565b8380fd5b634e487b7160e01b87526011600452602487fd5b60405162461bcd60e51b815260048101859052601a60248201527f4e4654206e6f7420666f756e6420696e20756e636c61696d65640000000000006044820152606490fd5b86611e388287612b7e565b90549060031b1c14611e5257611e4d90612d1f565b611cc8565b925050600138611cd0565b50346102a95760203660031901126102a9576040606091600435815260056020522060018060a01b038154169060ff600260018301549201541690604051928352602083015215156040820152f35b50346102a957806003193601126102a957602060ff60015460a01c166040519015158152f35b50346102a957806003193601126102a9576011546040516001600160a01b039091168152602090f35b50346102a957806003193601126102a9576020600e54604051908152f35b50346102a957806003193601126102a9576013546040516001600160a01b039091168152602090f35b50600319602036820112610dec5767ffffffffffffffff60043511610dec5760e090600435360301126102a957611f77612e75565b611f7f612e2e565b600560ff611f91608460043501612c3f565b16148015612662575b1561262c576001600160a01b03611fb46004803501612c63565b16156125f057611fc5600e5461308e565b908134106125ab576001600160a01b03611fe26004803501612c63565b16803b15610dec576040516323b872dd60e01b815233600480830191909152306024808401919091529035013560448201529082908290606490829084905af18015610d1f5761259c575b5090600d549061203c82612d1f565b600d5561204d600435600401612c63565b600260a460043501351015611dd0576040519061206982612c77565b838252336020830152604082018590526001600160a01b031660608201526004356024810135608083015260a082018590526120a89060a40135612b12565b60a4600435013560c08201528360e0820152600161010082015283610120820152828452600260205260408420908051825560018060a01b036020820151166001600160601b0360a01b6001840154161760018301556002820160018060a01b036040830151166001600160601b0360a01b8254161790556003820160018060a01b036060830151166001600160601b0360a01b8254161790556080810151600483015560a0810151916006831015612588576121d692916005610120920192835460ff61ff0060c085015161217d81612b12565b61218681612b12565b60081b1692169061ffff1916171783556121ad60e08201516121a781612b12565b84612d44565b6121c56101008201516121bf81612b12565b84612d65565b0151906121d182612b12565b612d88565b606460043501356003811015611dd0576040516121f281612c94565b604460043501358152612209602082019283612dad565b8460408201528460608201528260808201528460a08201528385526003602052604085209181518355516003811015612588576122499060018401612db9565b60408101516002830155606081015160038110156125885760059161227360a09260038601612db9565b60808101516004850155015191015562093a804201421161257457829061229e608460043501612c3f565b60ff604051916122ad83612cb0565b42835262093a8042016020840152166040820152600160608201528260808201528260a08201528260c08201524260e082015282610100820152838352600460205260046101006040852092805184556020810151600185015560ff60408201511660ff1960028601541617600285015561234360ff606083015116600286019061ff0082549160081b169061ff001916179055565b61236a60ff608083015116600286019062ff000082549160101b169062ff00001916179055565b61239360ff60a083015116600286019063ff00000082549160181b169063ff0000001916179055565b60c0810151600285018054640100000000600160c01b03191660209290921b640100000000600160c01b031691909117905560e0810151600385015501519101556123e360a46004350135612b12565b600160a4600435013514612507575b33825260076020526124078360408420612dde565b338252600860205261241c8360408420612dde565b3382526009602052604082206001600160a01b0361243d6004803501612c63565b16600052602052604060002060246004350135835260205260408220600160ff19825416179055818134116124db575b80809260018060a01b03601354168282156124d2575bf115611bac576040519061249c60a46004350135612b12565b60a4600435013582527fdd0abcdffc76581d11646898ee4d7f269ca1e0c0b622d072d343100dad83ecb160203393a36001815580f35b506108fc612483565b8080806124e88534612e21565b8181156124fe575b3390f115611bac578161246d565b506108fc6124f0565b61256f60405161251681612ce1565b8381526002602082018581526040830190600182528787526005602052604087209360018060a01b039051166001600160601b0360a01b85541617845551600184015551151591019060ff801983541691151516179055565b6123f2565b634e487b7160e01b83526011600452602483fd5b634e487b7160e01b86526021600452602486fd5b6125a590612ccd565b3861202d565b60405162461bcd60e51b815260206004820152601860248201527f496e73756666696369656e74206c697374696e672066656500000000000000006044820152606490fd5b60405162461bcd60e51b8152602060048201526014602482015273125b9d985b1a59081391950818dbdb9d1c9858dd60621b6044820152606490fd5b60405162461bcd60e51b815260206004820152600e60248201526d496e76616c696420726f756e647360901b6044820152606490fd5b50600760ff612675608460043501612c3f565b1614611f9a565b50346102a9576126d1602061269036612b29565b919061269a612be7565b60405163a9059cbb60e01b81526001600160a01b039091166004820152602481019290925290928391908290869082906044820190565b03926001600160a01b03165af18015610d1f576126ec575080f35b6127039060203d8111610594576105858183612cfd565b5080f35b50346102a95760203660031901126102a957806103209161012060405161272d81612c77565b8281528260208201528260408201528260608201528260808201528260a08201528260c08201528260e08201528261010082015201528060a060405161277281612c94565b82815282602082015282604082015282606082015282608082015201528061010060405161279f81612cb0565b8281528260208201528260408201528260608201528260808201528260a08201528260c08201528260e082015201526004358152600260205261010060408220600360205260a06127fb60408086209560046020522092612f25565b9360056040519161280b83612c94565b8054835261282360ff60018301541660208501612dad565b6002810154604084015261284160ff60038301541660608501612dad565b6004810154608084015201548282015260046040519361286085612cb0565b8054855260018101546020860152600281015460ff8116604087015260ff8160081c16606087015260ff8160101c16608087015260ff8160181c1685870152600180861b039060201c1660c0860152600381015460e08601520154848401526101206040519580518752600180851b036020820151166020880152600180851b036040820151166040880152600180851b036060820151166060880152608081015160808801526129178482015185890190612aef565b60c081015161292581612b12565b60c088015260e081015161293881612b12565b60e08801528581015161294a81612b12565b86880152015161295981612b12565b610120860152805161014086015261297a6020820151610160870190612b1c565b604081015161018086015261299860608201516101a0870190612b1c565b6080818101516101c08701529101516101e085015281516102008501526020820151610220850152604082015160ff9081166102408601526060830151811661026086015290820151811661028085015260a0820151166102a084015260c08101516001600160a01b03166102c084015260e08101516102e08401520151610300820152f35b50346102a95760203660031901126102a9576020906040906001600160a01b03612a46612ad9565b168152600a83522054604051908152f35b50346102a95760203660031901126102a9577f5fb4654f1efe30c6141eaa6855ffcb27e0b361d899b05e21b1a4d0b3e71e14db6020600435612a97612be7565b612aa6620f424082111561303c565b80600e55604051908152a180f35b905034610dec5781600319360112610dec576012546001600160a01b03168152602090f35b600435906001600160a01b03821682036106c857565b906006821015612afc5752565b634e487b7160e01b600052602160045260246000fd5b60021115612afc57565b906003821015612afc5752565b60609060031901126106c8576001600160a01b039060043582811681036106c8579160243590811681036106c8579060443590565b60409060031901126106c8576004359060243560ff811681036106c85790565b8054821015612b965760005260206000200190600090565b634e487b7160e01b600052603260045260246000fd5b6020908160408183019282815285518094520193019160005b828110612bd3575050505090565b835185529381019392810192600101612bc5565b6001546001600160a01b03163303612bfb57565b606460405162461bcd60e51b815260206004820152602060248201527f4f776e61626c653a2063616c6c6572206973206e6f7420746865206f776e65726044820152fd5b3560ff811681036106c85790565b6084356001600160a01b03811681036106c85790565b356001600160a01b03811681036106c85790565b610140810190811067ffffffffffffffff8211176118ef57604052565b60c0810190811067ffffffffffffffff8211176118ef57604052565b610120810190811067ffffffffffffffff8211176118ef57604052565b67ffffffffffffffff81116118ef57604052565b6060810190811067ffffffffffffffff8211176118ef57604052565b90601f8019910116810190811067ffffffffffffffff8211176118ef57604052565b6000198114612d2e5760010190565b634e487b7160e01b600052601160045260246000fd5b90612d4e81612b12565b62ff000082549160101b169062ff00001916179055565b90612d6f81612b12565b63ff00000082549160181b169063ff0000001916179055565b90612d9281612b12565b64ff0000000082549160201b169064ff000000001916179055565b6003821015612afc5752565b906003811015612afc5760ff80198354169116179055565b91908201809211612d2e57565b90815491680100000000000000008310156118ef5782612e06916001612e1f95018155612b7e565b90919082549060031b91821b91600019901b1916179055565b565b91908203918211612d2e57565b60ff60015460a01c16612e3d57565b60405162461bcd60e51b815260206004820152601060248201526f14185d5cd8589b194e881c185d5cd95960821b6044820152606490fd5b600260005414612e86576002600055565b60405162461bcd60e51b815260206004820152601f60248201527f5265656e7472616e637947756172643a207265656e7472616e742063616c6c006044820152606490fd5b15612ed257565b60405162461bcd60e51b815260206004820152601360248201527211d85b5948191bd95cc81b9bdd08195e1a5cdd606a1b6044820152606490fd5b908160209103126106c8575180151581036106c85790565b90604051612f3281612c77565b600581938054835260018060a01b03806001830154166020850152806002830154166040850152600382015416606084015260048101546080840152015460ff81166006811015612afc576101209160ff9160a0850152818160081c16612f9881612b12565b60c0850152818160101c16612fac81612b12565b60e0850152818160181c16612fc081612b12565b61010085015260201c1691612fd483612b12565b0152565b60ff1660ff8114612d2e5760010190565b81810292918115918404141715612d2e57565b805490811561302657600019918201916130168383612b7e565b909182549160031b1b1916905555565b634e487b7160e01b600052603160045260246000fd5b1561304357565b60405162461bcd60e51b815260206004820152600c60248201526b08ccaca40e8dede40d0d2ced60a31b6044820152606490fd5b519069ffffffffffffffffffff821682036106c857565b601054604051633fabe5a360e21b8152600492916001600160a01b03169060a0818581855afa9182156131b45784916000936131c0575b506020906040519283809263313ce56760e01b82525afa9081156131b457600091613178575b5060ff1660120360ff81116131635760ff16604d8111613163579061311391600a0a90612fe9565b91670de0b6b3a76400009182810292818404149015171561314e57821561313957500490565b601290634e487b7160e01b6000525260246000fd5b601190634e487b7160e01b6000525260246000fd5b601184634e487b7160e01b6000525260246000fd5b6020813d82116131ac575b8161319060209383612cfd565b81010312610dec57519060ff821682036102a9575060ff6130eb565b3d9150613183565b6040513d6000823e3d90fd5b91509160a0823d821161320a575b816131db60a09383612cfd565b810103126102a957506020816131f18693613077565b506132026080838301519201613077565b5092906130c5565b3d91506131ce565b6000526003602052604060002054906003811015612afc578061323c57506132399061308e565b90565b6001146132395760405162461bcd60e51b81526020600482015260116024820152702ab739bab83837b93a32b2103a37b5b2b760791b6044820152606490fd5b6001600160a01b031660009081526008602052604081209091825b8254808210156133145782906132ad8386612b7e565b929054600393841b1c146132cb5750506132c690612d1f565b613297565b9193949092506000198201918211613300575091612e06611d1f926132f48695612e1f97612b7e565b9054911b1c9184612b7e565b634e487b7160e01b81526011600452602490fd5b505050505056fea26469706673582212209e96de5c9f527452b56be3852edef2f2643a41cc1cc03faef57e05bc6976130c64736f6c63430008140033","opcodes":"PUSH1 0x80 CALLVALUE PUSH3 0x11E JUMPI PUSH1 0x1F PUSH3 0x34A0 CODESIZE DUP2 SWAP1 SUB SWAP2 DUP3 ADD PUSH1 0x1F NOT AND DUP4 ADD SWAP2 PUSH1 0x1 PUSH1 0x1 PUSH1 0x40 SHL SUB DUP4 GT DUP5 DUP5 LT OR PUSH3 0x123 JUMPI DUP1 DUP5 SWAP3 PUSH1 0x80 SWAP5 PUSH1 0x40 MSTORE DUP4 CODECOPY DUP2 ADD SUB SLT PUSH3 0x11E JUMPI PUSH3 0x4D DUP2 PUSH3 0x139 JUMP JUMPDEST PUSH3 0x5B PUSH1 0x20 DUP4 ADD PUSH3 0x139 JUMP JUMPDEST PUSH3 0x77 PUSH1 0x60 PUSH3 0x6F PUSH1 0x40 DUP7 ADD PUSH3 0x139 JUMP JUMPDEST SWAP5 ADD PUSH3 0x139 JUMP JUMPDEST PUSH1 0x1 PUSH1 0x0 SSTORE PUSH1 0x1 SLOAD PUSH1 0x40 MLOAD SWAP5 PUSH1 0x1 DUP1 PUSH1 0xA0 SHL SUB DUP1 SWAP5 DUP2 SWAP4 CALLER DUP4 DUP3 AND PUSH32 0x8BE0079C531659141344CD1FD0A4F28419497F9722A3DAAFE3B4186F6B6457E0 PUSH1 0x0 DUP1 LOG3 PUSH1 0xFF PUSH1 0xA0 SHL NOT CALLER AND SWAP1 PUSH1 0x1 DUP1 PUSH1 0xA8 SHL SUB NOT AND OR PUSH1 0x1 SSTORE PUSH1 0x1 PUSH1 0xD SSTORE PUSH3 0x30D40 PUSH1 0xE SSTORE PUSH2 0x15E PUSH1 0xF SSTORE DUP2 PUSH1 0x1 DUP1 PUSH1 0xA0 SHL SUB NOT SWAP8 AND DUP8 PUSH1 0x10 SLOAD AND OR PUSH1 0x10 SSTORE AND DUP6 PUSH1 0x11 SLOAD AND OR PUSH1 0x11 SSTORE AND DUP4 PUSH1 0x12 SLOAD AND OR PUSH1 0x12 SSTORE AND SWAP1 PUSH1 0x13 SLOAD AND OR PUSH1 0x13 SSTORE PUSH2 0x3351 SWAP1 DUP2 PUSH3 0x14F DUP3 CODECOPY RETURN JUMPDEST PUSH1 0x0 DUP1 REVERT JUMPDEST PUSH4 0x4E487B71 PUSH1 0xE0 SHL PUSH1 0x0 MSTORE PUSH1 0x41 PUSH1 0x4 MSTORE PUSH1 0x24 PUSH1 0x0 REVERT JUMPDEST MLOAD SWAP1 PUSH1 0x1 PUSH1 0x1 PUSH1 0xA0 SHL SUB DUP3 AND DUP3 SUB PUSH3 0x11E JUMPI JUMP INVALID PUSH1 0x80 DUP1 PUSH1 0x40 MSTORE PUSH1 0x4 CALLDATASIZE LT ISZERO PUSH2 0x13 JUMPI PUSH1 0x0 DUP1 REVERT JUMPDEST PUSH1 0x0 SWAP1 DUP2 CALLDATALOAD PUSH1 0xE0 SHR SWAP1 DUP2 PUSH4 0x11EAC855 EQ PUSH2 0x2AB4 JUMPI POP DUP1 PUSH4 0x131DBD09 EQ PUSH2 0x2A57 JUMPI DUP1 PUSH4 0x1A68B691 EQ PUSH2 0x2A1E JUMPI DUP1 PUSH4 0x1B31ABDA EQ PUSH2 0x2707 JUMPI DUP1 PUSH4 0x277327A5 EQ PUSH2 0x267C JUMPI DUP1 PUSH4 0x284F6910 EQ PUSH2 0x1F42 JUMPI DUP1 PUSH4 0x2D656AD7 EQ PUSH2 0x1F19 JUMPI DUP1 PUSH4 0x3A38D063 EQ PUSH2 0x1EFB JUMPI DUP1 PUSH4 0x4D9A75E5 EQ PUSH2 0x1ED2 JUMPI DUP1 PUSH4 0x5C975ABB EQ PUSH2 0x1EAC JUMPI DUP1 PUSH4 0x5E37EF51 EQ PUSH2 0x1E5D JUMPI DUP1 PUSH4 0x6088E93A EQ PUSH2 0x1C78 JUMPI DUP1 PUSH4 0x67D81740 EQ PUSH2 0x1C5B JUMPI DUP1 PUSH4 0x69958AB9 EQ PUSH2 0x1A51 JUMPI DUP1 PUSH4 0x70F11E9A EQ PUSH2 0x1143 JUMPI DUP1 PUSH4 0x715018A6 EQ PUSH2 0x10E5 JUMPI DUP1 PUSH4 0x7B09A1F4 EQ PUSH2 0x1075 JUMPI DUP1 PUSH4 0x8009B7BD EQ PUSH2 0x104C JUMPI DUP1 PUSH4 0x8057CBBB EQ PUSH2 0xFD4 JUMPI DUP1 PUSH4 0x8C639A85 EQ PUSH2 0xFB6 JUMPI DUP1 PUSH4 0x8CBE09ED EQ PUSH2 0xF6F JUMPI DUP1 PUSH4 0x8DA5CB5B EQ PUSH2 0xF46 JUMPI DUP1 PUSH4 0x95D11520 EQ PUSH2 0xF0D JUMPI DUP1 PUSH4 0xAA4209B8 EQ PUSH2 0xEC4 JUMPI DUP1 PUSH4 0xABF1B86E EQ PUSH2 0xDF0 JUMPI DUP1 PUSH4 0xAFB68096 EQ PUSH2 0xD79 JUMPI DUP1 PUSH4 0xB0FB5845 EQ PUSH2 0xD4C JUMPI DUP1 PUSH4 0xB135BBB0 EQ PUSH2 0xD2E JUMPI DUP1 PUSH4 0xB1A81295 EQ PUSH2 0xC87 JUMPI DUP1 PUSH4 0xB6596727 EQ PUSH2 0xC67 JUMPI DUP1 PUSH4 0xBAF47188 EQ PUSH2 0x715 JUMPI DUP1 PUSH4 0xBC0167CD EQ PUSH2 0x6CD JUMPI DUP1 PUSH4 0xC292B391 EQ PUSH2 0x629 JUMPI DUP1 PUSH4 0xC7B8981C EQ PUSH2 0x490 JUMPI DUP1 PUSH4 0xCAB230D2 EQ PUSH2 0x434 JUMPI DUP1 PUSH4 0xD79E8567 EQ PUSH2 0x3D8 JUMPI DUP1 PUSH4 0xDBB19DAD EQ PUSH2 0x346 JUMPI DUP1 PUSH4 0xE1F1C4A7 EQ PUSH2 0x329 JUMPI DUP1 PUSH4 0xEF46B2AB EQ PUSH2 0x302 JUMPI DUP1 PUSH4 0xF1AB45D7 EQ PUSH2 0x2AC JUMPI PUSH4 0xF2FDE38B EQ PUSH2 0x1E4 JUMPI PUSH1 0x0 DUP1 REVERT JUMPDEST CALLVALUE PUSH2 0x2A9 JUMPI PUSH1 0x20 CALLDATASIZE PUSH1 0x3 NOT ADD SLT PUSH2 0x2A9 JUMPI PUSH2 0x1FD PUSH2 0x2AD9 JUMP JUMPDEST PUSH2 0x205 PUSH2 0x2BE7 JUMP JUMPDEST PUSH1 0x1 PUSH1 0x1 PUSH1 0xA0 SHL SUB SWAP1 DUP2 AND SWAP1 DUP2 ISZERO PUSH2 0x255 JUMPI PUSH1 0x1 SLOAD DUP3 PUSH1 0x1 PUSH1 0x1 PUSH1 0x60 SHL SUB PUSH1 0xA0 SHL DUP3 AND OR PUSH1 0x1 SSTORE AND PUSH32 0x8BE0079C531659141344CD1FD0A4F28419497F9722A3DAAFE3B4186F6B6457E0 PUSH1 0x0 DUP1 LOG3 DUP1 RETURN JUMPDEST PUSH1 0x40 MLOAD PUSH3 0x461BCD PUSH1 0xE5 SHL DUP2 MSTORE PUSH1 0x20 PUSH1 0x4 DUP3 ADD MSTORE PUSH1 0x26 PUSH1 0x24 DUP3 ADD MSTORE PUSH32 0x4F776E61626C653A206E6577206F776E657220697320746865207A65726F2061 PUSH1 0x44 DUP3 ADD MSTORE PUSH6 0x646472657373 PUSH1 0xD0 SHL PUSH1 0x64 DUP3 ADD MSTORE PUSH1 0x84 SWAP1 REVERT JUMPDEST DUP1 REVERT JUMPDEST POP CALLVALUE PUSH2 0x2A9 JUMPI PUSH1 0x40 CALLDATASIZE PUSH1 0x3 NOT ADD SLT PUSH2 0x2A9 JUMPI PUSH2 0x2C6 PUSH2 0x2AD9 JUMP JUMPDEST PUSH1 0x1 PUSH1 0x1 PUSH1 0xA0 SHL SUB AND DUP2 MSTORE PUSH1 0x8 PUSH1 0x20 MSTORE PUSH1 0x40 DUP2 KECCAK256 DUP1 SLOAD PUSH1 0x24 CALLDATALOAD SWAP3 SWAP1 DUP4 LT ISZERO PUSH2 0x2A9 JUMPI PUSH1 0x20 PUSH2 0x2F4 DUP5 DUP5 PUSH2 0x2B7E JUMP JUMPDEST SWAP1 SLOAD PUSH1 0x40 MLOAD SWAP2 PUSH1 0x3 SHL SHR DUP2 MSTORE RETURN JUMPDEST POP CALLVALUE PUSH2 0x2A9 JUMPI PUSH1 0x20 CALLDATASIZE PUSH1 0x3 NOT ADD SLT PUSH2 0x2A9 JUMPI PUSH1 0x20 PUSH2 0x321 PUSH1 0x4 CALLDATALOAD PUSH2 0x308E JUMP JUMPDEST PUSH1 0x40 MLOAD SWAP1 DUP2 MSTORE RETURN JUMPDEST POP CALLVALUE PUSH2 0x2A9 JUMPI DUP1 PUSH1 0x3 NOT CALLDATASIZE ADD SLT PUSH2 0x2A9 JUMPI PUSH1 0x20 PUSH1 0x40 MLOAD PUSH2 0x2710 DUP2 MSTORE RETURN JUMPDEST POP CALLVALUE PUSH2 0x2A9 JUMPI PUSH1 0x20 CALLDATASIZE PUSH1 0x3 NOT ADD SLT PUSH2 0x2A9 JUMPI PUSH1 0x40 PUSH2 0x120 SWAP2 PUSH1 0x4 CALLDATALOAD DUP2 MSTORE PUSH1 0x4 PUSH1 0x20 MSTORE KECCAK256 DUP1 SLOAD SWAP1 PUSH1 0x1 DUP2 ADD SLOAD SWAP1 PUSH1 0x2 DUP2 ADD SLOAD PUSH1 0x4 PUSH1 0x3 DUP4 ADD SLOAD SWAP3 ADD SLOAD SWAP3 PUSH1 0x40 MLOAD SWAP5 DUP6 MSTORE PUSH1 0x20 DUP6 ADD MSTORE PUSH1 0xFF DUP2 AND PUSH1 0x40 DUP6 ADD MSTORE PUSH1 0xFF DUP2 PUSH1 0x8 SHR AND PUSH1 0x60 DUP6 ADD MSTORE PUSH1 0xFF DUP2 PUSH1 0x10 SHR AND PUSH1 0x80 DUP6 ADD MSTORE PUSH1 0xFF DUP2 PUSH1 0x18 SHR AND PUSH1 0xA0 DUP6 ADD MSTORE PUSH1 0x1 DUP1 PUSH1 0xA0 SHL SUB SWAP1 PUSH1 0x20 SHR AND PUSH1 0xC0 DUP5 ADD MSTORE PUSH1 0xE0 DUP4 ADD MSTORE PUSH2 0x100 DUP3 ADD MSTORE RETURN JUMPDEST POP CALLVALUE PUSH2 0x2A9 JUMPI PUSH1 0x40 CALLDATASIZE PUSH1 0x3 NOT ADD SLT PUSH2 0x2A9 JUMPI DUP1 DUP1 DUP1 DUP1 PUSH2 0x3F6 PUSH2 0x2AD9 JUMP JUMPDEST PUSH1 0x24 CALLDATALOAD SWAP1 PUSH2 0x402 PUSH2 0x2BE7 JUMP JUMPDEST DUP3 SWAP1 DUP3 ISZERO PUSH2 0x42A JUMPI JUMPDEST PUSH1 0x1 PUSH1 0x1 PUSH1 0xA0 SHL SUB AND SWAP1 CALL ISZERO PUSH2 0x41E JUMPI DUP1 RETURN JUMPDEST PUSH1 0x40 MLOAD SWAP1 RETURNDATASIZE SWAP1 DUP3 RETURNDATACOPY RETURNDATASIZE SWAP1 REVERT JUMPDEST PUSH2 0x8FC SWAP2 POP PUSH2 0x40B JUMP JUMPDEST POP CALLVALUE PUSH2 0x2A9 JUMPI PUSH1 0x20 CALLDATASIZE PUSH1 0x3 NOT ADD SLT PUSH2 0x2A9 JUMPI PUSH32 0x45610D581145924DD7090A5017E5F2B1D6F42213BB2E95707FF86846BBFCB1CA PUSH1 0x20 PUSH1 0x4 CALLDATALOAD PUSH2 0x474 PUSH2 0x2BE7 JUMP JUMPDEST PUSH2 0x482 PUSH2 0x3E8 DUP3 GT ISZERO PUSH2 0x303C JUMP JUMPDEST DUP1 PUSH1 0xF SSTORE PUSH1 0x40 MLOAD SWAP1 DUP2 MSTORE LOG1 DUP1 RETURN JUMPDEST POP CALLVALUE PUSH2 0x2A9 JUMPI DUP1 PUSH1 0x3 NOT CALLDATASIZE ADD SLT PUSH2 0x2A9 JUMPI PUSH2 0x4A9 PUSH2 0x2E75 JUMP JUMPDEST CALLER DUP2 MSTORE PUSH1 0x20 PUSH1 0xA DUP2 MSTORE PUSH1 0x40 DUP3 KECCAK256 SLOAD SWAP1 PUSH1 0xB DUP2 MSTORE PUSH1 0x40 DUP4 KECCAK256 SLOAD SWAP1 DUP3 ISZERO DUP1 DUP1 ISZERO DUP1 SWAP2 PUSH2 0x620 JUMPI JUMPDEST ISZERO PUSH2 0x5E5 JUMPI SWAP1 DUP6 SWAP2 PUSH2 0x5A6 JUMPI JUMPDEST POP POP DUP2 PUSH2 0x519 JUMPI JUMPDEST PUSH1 0x40 MLOAD SWAP3 DUP4 MSTORE DUP3 ADD MSTORE PUSH32 0xFA73D3AB3A92ED3F2B694757D8E4B2F3C293654B11B9C79111F8971F861B22B2 PUSH1 0x40 CALLER SWAP3 LOG2 PUSH1 0x1 DUP2 SSTORE DUP1 RETURN JUMPDEST CALLER DUP1 DUP6 MSTORE PUSH1 0xB DUP3 MSTORE PUSH1 0x40 DUP1 DUP7 KECCAK256 DUP7 SWAP1 SSTORE PUSH1 0x12 SLOAD SWAP1 MLOAD PUSH4 0xA9059CBB PUSH1 0xE0 SHL DUP2 MSTORE PUSH1 0x4 DUP2 ADD SWAP3 SWAP1 SWAP3 MSTORE PUSH1 0x24 DUP3 ADD DUP5 SWAP1 MSTORE DUP3 SWAP1 DUP3 SWAP1 PUSH1 0x44 SWAP1 DUP3 SWAP1 DUP10 SWAP1 PUSH1 0x1 PUSH1 0x1 PUSH1 0xA0 SHL SUB AND GAS CALL DUP1 ISZERO PUSH2 0x59B JUMPI PUSH2 0x56E JUMPI JUMPDEST POP PUSH2 0x4E3 JUMP JUMPDEST PUSH2 0x58D SWAP1 DUP3 RETURNDATASIZE DUP5 GT PUSH2 0x594 JUMPI JUMPDEST PUSH2 0x585 DUP2 DUP4 PUSH2 0x2CFD JUMP JUMPDEST DUP2 ADD SWAP1 PUSH2 0x2F0D JUMP JUMPDEST POP CODESIZE PUSH2 0x568 JUMP JUMPDEST POP RETURNDATASIZE PUSH2 0x57B JUMP JUMPDEST PUSH1 0x40 MLOAD RETURNDATASIZE DUP8 DUP3 RETURNDATACOPY RETURNDATASIZE SWAP1 REVERT JUMPDEST CALLER DUP3 MSTORE PUSH1 0xA DUP4 MSTORE DUP2 PUSH1 0x40 DUP2 KECCAK256 SSTORE DUP5 DUP3 SWAP2 PUSH2 0x5DB JUMPI JUMPDEST DUP3 DUP1 SWAP3 SWAP2 DUP2 SWAP3 CALLER SWAP1 CALL ISZERO PUSH2 0x5D0 JUMPI DUP4 CODESIZE PUSH2 0x4DB JUMP JUMPDEST PUSH1 0x40 MLOAD RETURNDATASIZE DUP6 DUP3 RETURNDATACOPY RETURNDATASIZE SWAP1 REVERT JUMPDEST PUSH2 0x8FC SWAP2 POP PUSH2 0x5BB JUMP JUMPDEST PUSH1 0x40 MLOAD PUSH3 0x461BCD PUSH1 0xE5 SHL DUP2 MSTORE PUSH1 0x4 DUP2 ADD DUP5 SWAP1 MSTORE PUSH1 0x13 PUSH1 0x24 DUP3 ADD MSTORE PUSH19 0x4E6F207265776172647320746F20636C61696D PUSH1 0x68 SHL PUSH1 0x44 DUP3 ADD MSTORE PUSH1 0x64 SWAP1 REVERT JUMPDEST POP DUP4 ISZERO ISZERO PUSH2 0x4CE JUMP JUMPDEST POP CALLVALUE PUSH2 0x2A9 JUMPI PUSH1 0x40 CALLDATASIZE PUSH1 0x3 NOT ADD SLT PUSH2 0x2A9 JUMPI PUSH2 0x643 PUSH2 0x2AD9 JUMP JUMPDEST PUSH1 0x1 PUSH1 0x1 PUSH1 0xA0 SHL SUB PUSH1 0x24 CALLDATALOAD DUP2 DUP2 AND SWAP3 SWAP1 DUP4 SWAP1 SUB PUSH2 0x6C8 JUMPI AND DUP3 MSTORE PUSH1 0x20 SWAP1 PUSH1 0xC DUP3 MSTORE PUSH1 0x40 DUP4 KECCAK256 SWAP1 PUSH1 0x0 MSTORE DUP2 MSTORE PUSH1 0x40 PUSH1 0x0 KECCAK256 SWAP2 PUSH1 0x40 MLOAD DUP1 SWAP3 DUP1 DUP6 SLOAD SWAP3 DUP4 DUP2 MSTORE ADD SWAP5 DUP4 MSTORE DUP1 DUP4 KECCAK256 SWAP3 SWAP1 JUMPDEST DUP3 DUP3 LT PUSH2 0x6B1 JUMPI PUSH2 0x6AD DUP6 PUSH2 0x6A1 DUP2 DUP10 SUB DUP3 PUSH2 0x2CFD JUMP JUMPDEST PUSH1 0x40 MLOAD SWAP2 DUP3 SWAP2 DUP3 PUSH2 0x2BAC JUMP JUMPDEST SUB SWAP1 RETURN JUMPDEST DUP4 SLOAD DUP7 MSTORE SWAP5 DUP6 ADD SWAP5 PUSH1 0x1 SWAP4 DUP5 ADD SWAP4 SWAP1 SWAP2 ADD SWAP1 PUSH2 0x68A JUMP JUMPDEST PUSH1 0x0 DUP1 REVERT JUMPDEST POP CALLVALUE PUSH2 0x2A9 JUMPI PUSH1 0x40 CALLDATASIZE PUSH1 0x3 NOT ADD SLT PUSH2 0x2A9 JUMPI PUSH2 0x6E7 PUSH2 0x2AD9 JUMP JUMPDEST PUSH1 0x1 PUSH1 0x1 PUSH1 0xA0 SHL SUB AND DUP2 MSTORE PUSH1 0x7 PUSH1 0x20 MSTORE PUSH1 0x40 DUP2 KECCAK256 DUP1 SLOAD PUSH1 0x24 CALLDATALOAD SWAP3 SWAP1 DUP4 LT ISZERO PUSH2 0x2A9 JUMPI PUSH1 0x20 PUSH2 0x2F4 DUP5 DUP5 PUSH2 0x2B7E JUMP JUMPDEST POP PUSH1 0xC0 CALLDATASIZE PUSH1 0x3 NOT ADD SLT PUSH2 0x2A9 JUMPI PUSH2 0x72A PUSH2 0x2E75 JUMP JUMPDEST PUSH2 0x732 PUSH2 0x2E2E JUMP JUMPDEST PUSH1 0x4 CALLDATALOAD DUP1 DUP3 MSTORE PUSH1 0x2 SWAP1 PUSH1 0x20 SWAP2 DUP1 DUP4 MSTORE PUSH2 0x750 PUSH1 0x40 DUP6 KECCAK256 SLOAD ISZERO ISZERO PUSH2 0x2ECB JUMP JUMPDEST DUP2 DUP5 MSTORE DUP1 DUP4 MSTORE PUSH1 0x40 DUP5 KECCAK256 SWAP3 PUSH1 0x3 DUP2 MSTORE PUSH1 0x40 DUP6 KECCAK256 SWAP2 PUSH1 0x5 DUP6 ADD SWAP1 PUSH1 0xFF DUP3 SLOAD AND PUSH1 0x6 DUP2 LT ISZERO PUSH2 0xC53 JUMPI PUSH2 0xC19 JUMPI PUSH1 0x1 DUP7 DUP2 ADD SLOAD SWAP1 SWAP7 PUSH1 0x1 PUSH1 0x1 PUSH1 0xA0 SHL SUB SWAP6 SWAP2 DUP7 AND CALLER EQ PUSH2 0xBDD JUMPI DUP3 ADD SWAP1 DUP6 DUP3 SLOAD AND PUSH2 0xBA2 JUMPI PUSH1 0x24 CALLDATALOAD DUP4 DUP2 LT ISZERO PUSH2 0xA23 JUMPI PUSH2 0x7B5 SWAP1 DUP6 PUSH2 0x2D88 JUMP JUMPDEST PUSH1 0x44 CALLDATALOAD DUP4 DUP2 LT ISZERO PUSH2 0xA23 JUMPI DUP1 PUSH2 0x7CD PUSH2 0x7E3 SWAP3 PUSH2 0x2B12 JUMP JUMPDEST DUP1 PUSH2 0xB99 JUMPI PUSH2 0x7DD DUP11 JUMPDEST DUP8 PUSH2 0x2D44 JUMP JUMPDEST DUP6 PUSH2 0x2D65 JUMP JUMPDEST PUSH1 0xFF DUP5 SLOAD PUSH1 0x8 SHR AND PUSH2 0x7F4 DUP2 PUSH2 0x2B12 JUMP JUMPDEST PUSH2 0xA27 JUMPI PUSH1 0x64 CALLDATALOAD SWAP6 PUSH1 0x3 DUP8 LT ISZERO PUSH2 0xA23 JUMPI PUSH2 0x80F DUP8 DUP10 PUSH2 0x3212 JUMP JUMPDEST PUSH1 0x0 SWAP2 DUP9 PUSH2 0x957 JUMPI POP DUP1 CALLVALUE LT PUSH2 0x91F JUMPI DUP1 DUP12 SWAP2 DUP7 DUP6 ADD SSTORE DUP1 CALLVALUE GT PUSH2 0x8E7 JUMPI JUMPDEST POP POP JUMPDEST PUSH2 0x8E3 JUMPI PUSH1 0x8 SWAP6 PUSH1 0x3 PUSH2 0x844 SWAP3 ADD PUSH2 0x2DB9 JUMP JUMPDEST CALLER PUSH1 0x1 PUSH1 0x1 PUSH1 0x60 SHL SUB PUSH1 0xA0 SHL DUP3 SLOAD AND OR SWAP1 SSTORE PUSH1 0xFF NOT DUP3 SLOAD AND OR SWAP1 SSTORE DUP3 DUP6 MSTORE PUSH1 0x4 DUP2 MSTORE TIMESTAMP PUSH1 0x3 PUSH1 0x40 DUP8 KECCAK256 ADD SSTORE CALLER DUP6 MSTORE PUSH1 0x7 DUP2 MSTORE PUSH2 0x883 DUP4 PUSH1 0x40 DUP8 KECCAK256 PUSH2 0x2DDE JUMP JUMPDEST CALLER DUP6 MSTORE MSTORE PUSH2 0x894 DUP2 PUSH1 0x40 DUP6 KECCAK256 PUSH2 0x2DDE JUMP JUMPDEST CALLER DUP2 PUSH32 0x45C4F9CBAFE186141862608C493F28B823FDE4C2142BEDC3F5169961A73FDD22 DUP6 DUP1 LOG3 PUSH32 0x50AD08F58A27F2851D7E3A1B3A6A46B290F2CE677E99642D30FF639721E77790 DUP4 DUP1 LOG2 DUP2 SSTORE DUP1 RETURN JUMPDEST DUP9 DUP1 REVERT JUMPDEST DUP2 DUP1 PUSH2 0x8F4 DUP2 SWAP4 CALLVALUE PUSH2 0x2E21 JUMP JUMPDEST DUP2 DUP2 ISZERO PUSH2 0x916 JUMPI JUMPDEST CALLER SWAP1 CALL ISZERO PUSH2 0x90B JUMPI DUP10 CODESIZE PUSH2 0x82E JUMP JUMPDEST PUSH1 0x40 MLOAD RETURNDATASIZE DUP12 DUP3 RETURNDATACOPY RETURNDATASIZE SWAP1 REVERT JUMPDEST POP PUSH2 0x8FC PUSH2 0x8FC JUMP JUMPDEST PUSH1 0x40 MLOAD PUSH3 0x461BCD PUSH1 0xE5 SHL DUP2 MSTORE PUSH1 0x4 DUP2 ADD DUP9 SWAP1 MSTORE PUSH1 0x10 PUSH1 0x24 DUP3 ADD MSTORE PUSH16 0x92DCE6EACCCCD2C6D2CADCE8408AA89 PUSH1 0x83 SHL PUSH1 0x44 DUP3 ADD MSTORE PUSH1 0x64 SWAP1 REVERT JUMPDEST DUP11 DUP10 EQ PUSH2 0x966 JUMPI JUMPDEST POP POP PUSH2 0x831 JUMP JUMPDEST CALLVALUE PUSH2 0x9DE JUMPI PUSH1 0x12 SLOAD PUSH1 0x40 MLOAD PUSH4 0x23B872DD PUSH1 0xE0 SHL DUP2 MSTORE CALLER PUSH1 0x4 DUP3 ADD MSTORE ADDRESS PUSH1 0x24 DUP3 ADD MSTORE PUSH1 0x44 DUP2 ADD DUP5 SWAP1 MSTORE SWAP2 DUP10 SWAP2 DUP4 SWAP2 AND DUP2 DUP16 DUP2 PUSH1 0x64 DUP2 ADD SUB SWAP3 GAS CALL DUP1 ISZERO PUSH2 0x9D3 JUMPI PUSH2 0x9B6 JUMPI JUMPDEST POP DUP5 DUP4 ADD SSTORE CODESIZE DUP1 PUSH2 0x95F JUMP JUMPDEST PUSH2 0x9CC SWAP1 DUP9 RETURNDATASIZE DUP11 GT PUSH2 0x594 JUMPI PUSH2 0x585 DUP2 DUP4 PUSH2 0x2CFD JUMP JUMPDEST POP CODESIZE PUSH2 0x9AA JUMP JUMPDEST PUSH1 0x40 MLOAD RETURNDATASIZE DUP15 DUP3 RETURNDATACOPY RETURNDATASIZE SWAP1 REVERT JUMPDEST PUSH1 0x40 MLOAD PUSH3 0x461BCD PUSH1 0xE5 SHL DUP2 MSTORE PUSH1 0x4 DUP2 ADD DUP10 SWAP1 MSTORE PUSH1 0x1F PUSH1 0x24 DUP3 ADD MSTORE PUSH32 0x455448206E6F74206E656564656420666F722055534443207061796D656E7400 PUSH1 0x44 DUP3 ADD MSTORE PUSH1 0x64 SWAP1 REVERT JUMPDEST DUP10 DUP1 REVERT JUMPDEST POP SWAP1 SWAP2 SWAP3 SWAP4 DUP1 PUSH2 0xA35 PUSH2 0x2C4D JUMP JUMPDEST AND ISZERO PUSH2 0xB5B JUMPI SWAP1 DUP2 DUP9 SWAP6 SWAP5 SWAP4 SWAP3 PUSH2 0xA4A PUSH2 0x2C4D JUMP JUMPDEST AND SWAP1 DUP2 EXTCODESIZE ISZERO PUSH2 0xB4C JUMPI PUSH1 0x40 MLOAD PUSH4 0x23B872DD PUSH1 0xE0 SHL DUP2 MSTORE CALLER PUSH1 0x4 DUP3 ADD MSTORE ADDRESS PUSH1 0x24 DUP3 ADD MSTORE PUSH1 0xA4 CALLDATALOAD PUSH1 0x44 DUP3 ADD DUP2 SWAP1 MSTORE SWAP3 DUP9 SWAP1 DUP3 SWAP1 PUSH1 0x64 SWAP1 DUP3 SWAP1 DUP5 SWAP1 GAS CALL DUP1 ISZERO PUSH2 0xB50 JUMPI DUP11 SWAP2 DUP11 SWAP2 PUSH2 0xB33 JUMPI JUMPDEST POP DUP6 PUSH2 0xAFC SWAP3 DUP10 SWAP3 DUP6 PUSH1 0x40 PUSH1 0x8 SWAP14 PUSH1 0x5 PUSH2 0xAAB PUSH2 0x2C4D JUMP JUMPDEST SWAP8 DUP5 DUP5 MLOAD SWAP10 PUSH2 0xAB9 DUP12 PUSH2 0x2CE1 JUMP JUMPDEST AND DUP10 MSTORE DUP1 DUP10 ADD SWAP6 DUP13 DUP8 MSTORE DUP5 DUP11 ADD SWAP8 DUP9 MSTORE DUP4 MSTORE MSTORE KECCAK256 SWAP5 MLOAD AND PUSH1 0x1 PUSH1 0x1 PUSH1 0x60 SHL SUB PUSH1 0xA0 SHL DUP6 SLOAD AND OR DUP5 SSTORE MLOAD DUP14 DUP5 ADD SSTORE MLOAD ISZERO ISZERO SWAP2 ADD SWAP1 PUSH1 0xFF DUP1 NOT DUP4 SLOAD AND SWAP2 ISZERO ISZERO AND OR SWAP1 SSTORE JUMP JUMPDEST CALLER DUP11 MSTORE PUSH1 0x9 DUP7 MSTORE PUSH1 0x40 DUP11 KECCAK256 SWAP1 PUSH2 0xB10 PUSH2 0x2C4D JUMP JUMPDEST AND PUSH1 0x0 MSTORE DUP6 MSTORE PUSH1 0x40 PUSH1 0x0 KECCAK256 SWAP1 DUP10 MSTORE DUP5 MSTORE PUSH1 0x40 DUP9 KECCAK256 DUP8 PUSH1 0xFF NOT DUP3 SLOAD AND OR SWAP1 SSTORE PUSH2 0x844 JUMP JUMPDEST DUP10 SWAP3 POP PUSH2 0xB40 SWAP2 POP PUSH2 0x2CCD JUMP JUMPDEST PUSH2 0xB4C JUMPI DUP9 DUP9 CODESIZE PUSH2 0xA93 JUMP JUMPDEST DUP7 DUP1 REVERT JUMPDEST PUSH1 0x40 MLOAD RETURNDATASIZE DUP11 DUP3 RETURNDATACOPY RETURNDATASIZE SWAP1 REVERT JUMPDEST PUSH1 0x40 MLOAD PUSH3 0x461BCD PUSH1 0xE5 SHL DUP2 MSTORE PUSH1 0x4 DUP2 ADD DUP7 SWAP1 MSTORE PUSH1 0x16 PUSH1 0x24 DUP3 ADD MSTORE PUSH22 0x125B9D985B1A590818DA185B1B195B99D95C88139195 PUSH1 0x52 SHL PUSH1 0x44 DUP3 ADD MSTORE PUSH1 0x64 SWAP1 REVERT JUMPDEST PUSH2 0x7DD DUP12 PUSH2 0x7D7 JUMP JUMPDEST PUSH1 0x40 MLOAD PUSH3 0x461BCD PUSH1 0xE5 SHL DUP2 MSTORE PUSH1 0x4 DUP2 ADD DUP7 SWAP1 MSTORE PUSH1 0x13 PUSH1 0x24 DUP3 ADD MSTORE PUSH19 0x11D85B5948185B1C9958591E481A9BDA5B9959 PUSH1 0x6A SHL PUSH1 0x44 DUP3 ADD MSTORE PUSH1 0x64 SWAP1 REVERT JUMPDEST PUSH1 0x40 MLOAD PUSH3 0x461BCD PUSH1 0xE5 SHL DUP2 MSTORE PUSH1 0x4 DUP2 ADD DUP7 SWAP1 MSTORE PUSH1 0x14 PUSH1 0x24 DUP3 ADD MSTORE PUSH20 0x43616E6E6F74206A6F696E206F776E2067616D65 PUSH1 0x60 SHL PUSH1 0x44 DUP3 ADD MSTORE PUSH1 0x64 SWAP1 REVERT JUMPDEST PUSH1 0x40 MLOAD PUSH3 0x461BCD PUSH1 0xE5 SHL DUP2 MSTORE PUSH1 0x4 DUP2 ADD DUP5 SWAP1 MSTORE PUSH1 0x12 PUSH1 0x24 DUP3 ADD MSTORE PUSH18 0x47616D65206E6F7420617661696C61626C65 PUSH1 0x70 SHL PUSH1 0x44 DUP3 ADD MSTORE PUSH1 0x64 SWAP1 REVERT JUMPDEST PUSH4 0x4E487B71 PUSH1 0xE0 SHL DUP9 MSTORE PUSH1 0x21 PUSH1 0x4 MSTORE PUSH1 0x24 DUP9 REVERT JUMPDEST POP CALLVALUE PUSH2 0x2A9 JUMPI DUP1 PUSH1 0x3 NOT CALLDATASIZE ADD SLT PUSH2 0x2A9 JUMPI PUSH2 0xC80 PUSH2 0x2E75 JUMP JUMPDEST PUSH1 0x1 DUP2 SSTORE DUP1 RETURN JUMPDEST POP CALLVALUE PUSH2 0x2A9 JUMPI PUSH1 0x60 CALLDATASIZE PUSH1 0x3 NOT ADD SLT PUSH2 0x2A9 JUMPI PUSH2 0xCA1 PUSH2 0x2AD9 JUMP JUMPDEST PUSH1 0x44 CALLDATALOAD PUSH1 0x1 PUSH1 0x1 PUSH1 0xA0 SHL SUB DUP1 DUP3 AND DUP3 SUB PUSH2 0x6C8 JUMPI DUP4 SWAP3 PUSH2 0xCBF PUSH2 0x2BE7 JUMP JUMPDEST AND DUP1 EXTCODESIZE ISZERO PUSH2 0xD2A JUMPI PUSH1 0x40 MLOAD PUSH4 0x23B872DD PUSH1 0xE0 SHL DUP2 MSTORE ADDRESS PUSH1 0x4 DUP3 ADD MSTORE PUSH1 0x1 PUSH1 0x1 PUSH1 0xA0 SHL SUB SWAP3 SWAP1 SWAP3 AND PUSH1 0x24 DUP1 DUP5 ADD SWAP2 SWAP1 SWAP2 MSTORE CALLDATALOAD PUSH1 0x44 DUP4 ADD MSTORE DUP3 SWAP1 DUP3 SWAP1 PUSH1 0x64 SWAP1 DUP3 SWAP1 DUP5 SWAP1 GAS CALL DUP1 ISZERO PUSH2 0xD1F JUMPI PUSH2 0xD0F JUMPI POP RETURN JUMPDEST PUSH2 0xD18 SWAP1 PUSH2 0x2CCD JUMP JUMPDEST PUSH2 0x2A9 JUMPI DUP1 RETURN JUMPDEST PUSH1 0x40 MLOAD RETURNDATASIZE DUP5 DUP3 RETURNDATACOPY RETURNDATASIZE SWAP1 REVERT JUMPDEST POP POP REVERT JUMPDEST POP CALLVALUE PUSH2 0x2A9 JUMPI DUP1 PUSH1 0x3 NOT CALLDATASIZE ADD SLT PUSH2 0x2A9 JUMPI PUSH1 0x20 PUSH1 0xD SLOAD PUSH1 0x40 MLOAD SWAP1 DUP2 MSTORE RETURN JUMPDEST POP CALLVALUE PUSH2 0x2A9 JUMPI PUSH1 0x40 CALLDATASIZE PUSH1 0x3 NOT ADD SLT PUSH2 0x2A9 JUMPI PUSH1 0x24 CALLDATALOAD SWAP1 PUSH1 0x3 DUP3 LT ISZERO PUSH2 0x2A9 JUMPI PUSH1 0x20 PUSH2 0x321 DUP4 PUSH1 0x4 CALLDATALOAD PUSH2 0x3212 JUMP JUMPDEST POP CALLVALUE PUSH2 0x2A9 JUMPI PUSH1 0x20 DUP1 PUSH1 0x3 NOT CALLDATASIZE ADD SLT PUSH2 0xDEC JUMPI PUSH1 0x1 PUSH1 0x1 PUSH1 0xA0 SHL SUB PUSH2 0xD9C PUSH2 0x2AD9 JUMP JUMPDEST AND DUP3 MSTORE PUSH1 0x8 DUP2 MSTORE PUSH1 0x40 DUP3 KECCAK256 SWAP2 PUSH1 0x40 MLOAD DUP1 SWAP3 DUP1 DUP6 SLOAD SWAP3 DUP4 DUP2 MSTORE ADD SWAP5 DUP4 MSTORE DUP1 DUP4 KECCAK256 SWAP3 SWAP1 JUMPDEST DUP3 DUP3 LT PUSH2 0xDD5 JUMPI PUSH2 0x6AD DUP6 PUSH2 0x6A1 DUP2 DUP10 SUB DUP3 PUSH2 0x2CFD JUMP JUMPDEST DUP4 SLOAD DUP7 MSTORE SWAP5 DUP6 ADD SWAP5 PUSH1 0x1 SWAP4 DUP5 ADD SWAP4 SWAP1 SWAP2 ADD SWAP1 PUSH2 0xDBE JUMP JUMPDEST POP DUP1 REVERT JUMPDEST POP CALLVALUE PUSH2 0x2A9 JUMPI PUSH1 0x20 CALLDATASIZE PUSH1 0x3 NOT ADD SLT PUSH2 0x2A9 JUMPI PUSH1 0x40 PUSH2 0x140 SWAP2 PUSH1 0x4 CALLDATALOAD DUP2 MSTORE PUSH1 0x2 PUSH1 0x20 MSTORE KECCAK256 DUP1 SLOAD SWAP1 PUSH1 0x1 DUP1 PUSH1 0xA0 SHL SUB DUP1 PUSH1 0x1 DUP4 ADD SLOAD AND SWAP2 DUP2 PUSH1 0x2 DUP3 ADD SLOAD AND SWAP2 PUSH1 0x3 DUP3 ADD SLOAD AND SWAP1 PUSH2 0xE88 PUSH1 0x5 PUSH1 0x4 DUP4 ADD SLOAD SWAP3 ADD SLOAD PUSH1 0xFF DUP2 PUSH1 0x8 SHR AND SWAP3 PUSH1 0xFF DUP3 PUSH1 0x10 SHR AND SWAP5 PUSH1 0xFF DUP4 PUSH1 0x18 SHR AND SWAP7 PUSH1 0xFF DUP5 PUSH1 0x20 SHR AND SWAP9 PUSH1 0x40 MLOAD SWAP11 DUP12 MSTORE PUSH1 0x20 DUP12 ADD MSTORE PUSH1 0x40 DUP11 ADD MSTORE PUSH1 0x60 DUP10 ADD MSTORE PUSH1 0x80 DUP9 ADD MSTORE PUSH1 0xFF PUSH1 0xA0 DUP9 ADD SWAP2 AND PUSH2 0x2AEF JUMP JUMPDEST PUSH2 0xE91 DUP2 PUSH2 0x2B12 JUMP JUMPDEST PUSH1 0xC0 DUP6 ADD MSTORE PUSH2 0xE9F DUP2 PUSH2 0x2B12 JUMP JUMPDEST PUSH1 0xE0 DUP5 ADD MSTORE PUSH2 0xEAD DUP2 PUSH2 0x2B12 JUMP JUMPDEST PUSH2 0x100 DUP4 ADD MSTORE PUSH2 0xEBC DUP2 PUSH2 0x2B12 JUMP JUMPDEST PUSH2 0x120 DUP3 ADD MSTORE RETURN JUMPDEST POP CALLVALUE PUSH2 0x2A9 JUMPI PUSH2 0xED3 CALLDATASIZE PUSH2 0x2B29 JUMP JUMPDEST SWAP3 SWAP2 PUSH1 0x1 DUP1 PUSH1 0xA0 SHL SUB DUP1 SWAP2 AND DUP4 MSTORE PUSH1 0xC PUSH1 0x20 MSTORE PUSH1 0x40 DUP4 KECCAK256 SWAP2 AND PUSH1 0x0 MSTORE PUSH1 0x20 MSTORE PUSH1 0x40 PUSH1 0x0 KECCAK256 SWAP1 DUP2 SLOAD DUP4 LT ISZERO PUSH2 0x2A9 JUMPI PUSH1 0x20 PUSH2 0x2F4 DUP5 DUP5 PUSH2 0x2B7E JUMP JUMPDEST POP CALLVALUE PUSH2 0x2A9 JUMPI PUSH1 0x20 CALLDATASIZE PUSH1 0x3 NOT ADD SLT PUSH2 0x2A9 JUMPI PUSH1 0x20 SWAP1 PUSH1 0x40 SWAP1 PUSH1 0x1 PUSH1 0x1 PUSH1 0xA0 SHL SUB PUSH2 0xF35 PUSH2 0x2AD9 JUMP JUMPDEST AND DUP2 MSTORE PUSH1 0xB DUP4 MSTORE KECCAK256 SLOAD PUSH1 0x40 MLOAD SWAP1 DUP2 MSTORE RETURN JUMPDEST POP CALLVALUE PUSH2 0x2A9 JUMPI DUP1 PUSH1 0x3 NOT CALLDATASIZE ADD SLT PUSH2 0x2A9 JUMPI PUSH1 0x1 SLOAD PUSH1 0x40 MLOAD PUSH1 0x1 PUSH1 0x1 PUSH1 0xA0 SHL SUB SWAP1 SWAP2 AND DUP2 MSTORE PUSH1 0x20 SWAP1 RETURN JUMPDEST POP CALLVALUE PUSH2 0x2A9 JUMPI PUSH1 0xFF PUSH1 0x40 PUSH1 0x20 SWAP3 PUSH2 0xF85 CALLDATASIZE PUSH2 0x2B29 JUMP JUMPDEST SWAP2 PUSH1 0x1 DUP1 PUSH1 0xA0 SHL SUB DUP1 SWAP2 AND DUP5 MSTORE PUSH1 0x9 DUP8 MSTORE DUP5 DUP5 KECCAK256 SWAP2 AND PUSH1 0x0 MSTORE DUP6 MSTORE DUP3 PUSH1 0x0 KECCAK256 SWAP1 DUP3 MSTORE DUP5 MSTORE KECCAK256 SLOAD AND PUSH1 0x40 MLOAD SWAP1 ISZERO ISZERO DUP2 MSTORE RETURN JUMPDEST POP CALLVALUE PUSH2 0x2A9 JUMPI DUP1 PUSH1 0x3 NOT CALLDATASIZE ADD SLT PUSH2 0x2A9 JUMPI PUSH1 0x20 PUSH1 0xF SLOAD PUSH1 0x40 MLOAD SWAP1 DUP2 MSTORE RETURN JUMPDEST POP CALLVALUE PUSH2 0x2A9 JUMPI PUSH1 0x20 CALLDATASIZE PUSH1 0x3 NOT ADD SLT PUSH2 0x2A9 JUMPI PUSH1 0x40 PUSH1 0xC0 SWAP2 PUSH1 0x4 CALLDATALOAD DUP2 MSTORE PUSH1 0x3 PUSH1 0x20 MSTORE KECCAK256 DUP1 SLOAD SWAP1 PUSH1 0xFF PUSH1 0x1 DUP3 ADD SLOAD AND SWAP1 PUSH2 0x1040 PUSH1 0x2 DUP3 ADD SLOAD PUSH1 0xFF PUSH1 0x3 DUP5 ADD SLOAD AND SWAP1 PUSH2 0x1031 PUSH1 0x5 PUSH1 0x4 DUP7 ADD SLOAD SWAP6 ADD SLOAD SWAP6 PUSH1 0x40 MLOAD SWAP8 DUP9 MSTORE PUSH1 0x20 DUP9 ADD SWAP1 PUSH2 0x2B1C JUMP JUMPDEST PUSH1 0x40 DUP7 ADD MSTORE PUSH1 0x60 DUP6 ADD SWAP1 PUSH2 0x2B1C JUMP JUMPDEST PUSH1 0x80 DUP4 ADD MSTORE PUSH1 0xA0 DUP3 ADD MSTORE RETURN JUMPDEST POP CALLVALUE PUSH2 0x2A9 JUMPI DUP1 PUSH1 0x3 NOT CALLDATASIZE ADD SLT PUSH2 0x2A9 JUMPI PUSH1 0x10 SLOAD PUSH1 0x40 MLOAD PUSH1 0x1 PUSH1 0x1 PUSH1 0xA0 SHL SUB SWAP1 SWAP2 AND DUP2 MSTORE PUSH1 0x20 SWAP1 RETURN JUMPDEST POP CALLVALUE PUSH2 0x2A9 JUMPI PUSH1 0xFF PUSH1 0x40 PUSH2 0x1088 CALLDATASIZE PUSH2 0x2B5E JUMP JUMPDEST SWAP4 SWAP1 DUP2 MSTORE PUSH1 0x6 PUSH1 0x20 MSTORE KECCAK256 SWAP2 AND PUSH1 0x0 MSTORE PUSH1 0x20 MSTORE PUSH1 0x80 PUSH1 0x40 PUSH1 0x0 KECCAK256 SLOAD PUSH1 0xFF DUP2 AND SWAP1 PUSH1 0x40 MLOAD SWAP2 PUSH2 0x10B4 DUP2 PUSH2 0x2B12 JUMP JUMPDEST DUP3 MSTORE PUSH1 0x8 DUP2 SWAP1 SHR PUSH1 0xFF SWAP1 DUP2 AND PUSH1 0x20 DUP5 ADD MSTORE PUSH1 0x10 DUP3 SWAP1 SHR AND ISZERO ISZERO PUSH1 0x40 DUP4 ADD MSTORE PUSH1 0x18 SHR PUSH1 0x1 PUSH1 0x1 PUSH1 0xA0 SHL SUB AND PUSH1 0x60 DUP3 ADD MSTORE RETURN JUMPDEST POP CALLVALUE PUSH2 0x2A9 JUMPI DUP1 PUSH1 0x3 NOT CALLDATASIZE ADD SLT PUSH2 0x2A9 JUMPI PUSH2 0x10FE PUSH2 0x2BE7 JUMP JUMPDEST PUSH1 0x1 DUP1 SLOAD PUSH1 0x1 PUSH1 0x1 PUSH1 0xA0 SHL SUB NOT DUP2 AND SWAP1 SWAP2 SSTORE PUSH1 0x0 SWAP1 PUSH1 0x1 PUSH1 0x1 PUSH1 0xA0 SHL SUB AND PUSH32 0x8BE0079C531659141344CD1FD0A4F28419497F9722A3DAAFE3B4186F6B6457E0 DUP3 DUP1 LOG3 DUP1 RETURN JUMPDEST POP CALLVALUE PUSH2 0x2A9 JUMPI PUSH2 0x1152 CALLDATASIZE PUSH2 0x2B5E JUMP JUMPDEST PUSH2 0x115A PUSH2 0x2E75 JUMP JUMPDEST DUP2 DUP4 MSTORE PUSH1 0x2 PUSH1 0x20 MSTORE PUSH2 0x1171 PUSH1 0x40 DUP5 KECCAK256 SLOAD ISZERO ISZERO PUSH2 0x2ECB JUMP JUMPDEST DUP2 DUP4 MSTORE PUSH1 0x2 PUSH1 0x20 MSTORE PUSH2 0x1185 PUSH1 0x40 DUP5 KECCAK256 PUSH2 0x2F25 JUMP JUMPDEST PUSH1 0x20 DUP2 ADD MLOAD PUSH1 0x1 PUSH1 0x1 PUSH1 0xA0 SHL SUB AND CALLER EQ SWAP1 DUP2 ISZERO PUSH2 0x1A3A JUMPI JUMPDEST POP ISZERO PUSH2 0x1A01 JUMPI DUP2 DUP4 MSTORE PUSH1 0x2 PUSH1 0x20 MSTORE PUSH1 0x40 DUP4 KECCAK256 SWAP1 PUSH1 0x4 PUSH1 0x20 MSTORE PUSH1 0x40 DUP5 KECCAK256 SWAP2 PUSH1 0x5 DUP2 ADD SLOAD SWAP1 PUSH1 0xFF DUP3 AND PUSH1 0x6 DUP2 LT ISZERO PUSH2 0x1834 JUMPI PUSH1 0x2 SUB PUSH2 0x19C5 JUMPI PUSH1 0x2 DUP5 ADD SLOAD SWAP2 PUSH1 0xFF DUP4 AND PUSH1 0xFF DUP5 PUSH1 0x8 SHR AND GT PUSH2 0x1994 JUMPI PUSH1 0xFF SWAP1 PUSH1 0x1 DUP1 DUP6 PUSH1 0x8 SHR AND EQ PUSH1 0x0 EQ PUSH2 0x195D JUMPI PUSH1 0x10 SHR AND PUSH2 0x120A DUP2 PUSH2 0x2B12 JUMP JUMPDEST PUSH2 0x194A JUMPI PUSH1 0x1 DUP2 ADD SLOAD PUSH1 0x1 PUSH1 0x1 PUSH1 0xA0 SHL SUB AND JUMPDEST PUSH1 0x1 PUSH1 0x1 PUSH1 0xA0 SHL SUB AND CALLER SUB PUSH2 0x190D JUMPI PUSH1 0x1 PUSH2 0x1245 PUSH2 0x123B PREVRANDAO TIMESTAMP PUSH2 0x2DD1 JUMP JUMPDEST PUSH1 0xFF DUP7 AND SWAP1 PUSH2 0x2DD1 JUMP JUMPDEST AND PUSH2 0x1905 JUMPI DUP6 SWAP2 JUMPDEST PUSH1 0x40 MLOAD SWAP2 DUP3 PUSH1 0x80 DUP2 ADD LT PUSH8 0xFFFFFFFFFFFFFFFF PUSH1 0x80 DUP6 ADD GT OR PUSH2 0x18EF JUMPI DUP3 DUP8 DUP10 PUSH2 0x12F5 PUSH1 0xFF PUSH1 0x5 SWAP7 PUSH1 0x80 DUP3 SWAP10 ADD PUSH1 0x40 MSTORE PUSH2 0x1286 DUP11 PUSH2 0x2B12 JUMP JUMPDEST DUP10 DUP7 MSTORE PUSH1 0x20 DUP7 ADD SWAP1 DUP3 DUP13 AND DUP3 MSTORE DUP3 PUSH1 0x40 DUP1 DUP10 ADD SWAP7 PUSH1 0x1 DUP9 MSTORE PUSH1 0x60 DUP11 ADD SWAP9 CALLER DUP11 MSTORE DUP2 MSTORE PUSH1 0x6 PUSH1 0x20 MSTORE KECCAK256 SWAP2 PUSH1 0x8 SHR AND PUSH1 0x0 MSTORE PUSH1 0x20 MSTORE PUSH1 0x40 PUSH1 0x0 KECCAK256 SWAP6 MLOAD PUSH2 0x12C9 DUP2 PUSH2 0x2B12 JUMP JUMPDEST PUSH2 0x12D2 DUP2 PUSH2 0x2B12 JUMP JUMPDEST DUP7 SLOAD SWAP2 MLOAD PUSH2 0xFF00 SWAP1 DUP5 AND PUSH1 0x8 SHL AND DUP4 NOT SWAP1 SWAP3 AND SWAP3 AND SWAP2 SWAP1 SWAP2 OR PUSH2 0xFF00 NOT AND OR DUP5 SSTORE JUMP JUMPDEST MLOAD DUP3 SLOAD SWAP2 MLOAD PUSH3 0x10000 PUSH1 0x1 PUSH1 0xB8 SHL SUB NOT SWAP1 SWAP3 AND SWAP1 ISZERO ISZERO PUSH1 0x10 SHL PUSH3 0xFF0000 AND OR PUSH1 0x18 SWAP2 SWAP1 SWAP2 SHL PUSH4 0x1000000 PUSH1 0x1 PUSH1 0xB8 SHL SUB AND OR SWAP1 SSTORE ADD SLOAD PUSH1 0x20 SHR AND PUSH2 0x1338 DUP2 PUSH2 0x2B12 JUMP JUMPDEST PUSH2 0x1341 DUP3 PUSH2 0x2B12 JUMP JUMPDEST DUP2 SUB PUSH2 0x18B8 JUMPI PUSH2 0x137B PUSH2 0x135D PUSH1 0xFF PUSH1 0x2 DUP7 ADD SLOAD PUSH1 0x18 SHR AND PUSH2 0x2FD8 JUMP JUMPDEST PUSH1 0x2 DUP6 ADD SWAP1 PUSH4 0xFF000000 DUP3 SLOAD SWAP2 PUSH1 0x18 SHL AND SWAP1 PUSH4 0xFF000000 NOT AND OR SWAP1 SSTORE JUMP JUMPDEST DUP4 PUSH32 0xD73947A30DD460E254360E488E8AC6C5734BEA2FDFCD58E0D7559464246AA746 PUSH1 0x60 PUSH1 0x2 DUP7 ADD SLOAD SWAP4 PUSH1 0xFF DUP1 DUP7 PUSH1 0x8 SHR AND SWAP7 PUSH1 0x40 MLOAD SWAP3 DUP9 DUP5 MSTORE PUSH2 0x13BE DUP2 PUSH2 0x2B12 JUMP JUMPDEST PUSH1 0x20 DUP5 ADD MSTORE AND PUSH1 0x40 DUP3 ADD MSTORE LOG2 PUSH1 0x1 PUSH1 0x7F DUP3 DUP3 SHR AND ADD PUSH1 0xFF DUP2 GT PUSH2 0x18A4 JUMPI PUSH1 0xFF AND DUP1 PUSH1 0xFF DUP4 PUSH1 0x10 SHR AND LT SWAP2 DUP3 ISZERO SWAP3 PUSH2 0x1893 JUMPI JUMPDEST POP POP ISZERO PUSH2 0x185F JUMPI POP POP DUP1 DUP3 MSTORE PUSH1 0x2 PUSH1 0x20 MSTORE PUSH1 0x40 DUP3 KECCAK256 PUSH1 0x4 PUSH1 0x20 MSTORE PUSH1 0x40 DUP4 KECCAK256 SWAP1 PUSH1 0x3 PUSH1 0x20 MSTORE DUP3 PUSH1 0x40 DUP6 KECCAK256 PUSH1 0x3 PUSH1 0xFF NOT PUSH1 0x5 DUP6 ADD SLOAD AND OR PUSH1 0x5 DUP5 ADD SSTORE PUSH1 0x2 DUP5 ADD SLOAD PUSH1 0xFF DUP1 DUP3 PUSH1 0x18 SHR AND SWAP2 PUSH1 0x10 SHR AND GT PUSH1 0x0 EQ PUSH2 0x1848 JUMPI PUSH1 0x1 DUP4 ADD SLOAD PUSH2 0x1486 SWAP1 PUSH1 0x1 PUSH1 0x1 PUSH1 0xA0 SHL SUB AND JUMPDEST PUSH1 0x2 DUP7 ADD DUP1 SLOAD PUSH5 0x100000000 PUSH1 0x1 PUSH1 0xC0 SHL SUB NOT AND PUSH1 0x20 SWAP3 SWAP1 SWAP3 SHL PUSH5 0x100000000 PUSH1 0x1 PUSH1 0xC0 SHL SUB AND SWAP2 SWAP1 SWAP2 OR SWAP1 SSTORE JUMP JUMPDEST PUSH1 0xFF PUSH1 0x5 DUP5 ADD SLOAD PUSH1 0x8 SHR AND PUSH2 0x149A DUP2 PUSH2 0x2B12 JUMP JUMPDEST ISZERO PUSH2 0x1714 JUMPI JUMPDEST POP PUSH2 0x1548 SWAP2 PUSH2 0x1536 DUP3 PUSH1 0x1 DUP1 PUSH1 0xA0 SHL SUB PUSH1 0x2 DUP8 ADD SLOAD PUSH1 0x20 SHR AND PUSH1 0x1 DUP5 ADD SWAP1 PUSH1 0x1 DUP1 PUSH1 0xA0 SHL SUB DUP3 SLOAD AND EQ PUSH1 0x0 EQ PUSH2 0x15F9 JUMPI PUSH1 0x1 DUP1 PUSH1 0xA0 SHL SUB DUP2 SLOAD AND DUP10 MSTORE PUSH1 0xC PUSH1 0x20 MSTORE PUSH1 0x40 DUP10 KECCAK256 PUSH1 0x1 DUP1 PUSH1 0xA0 SHL SUB PUSH1 0x3 DUP7 ADD SLOAD AND PUSH1 0x0 MSTORE PUSH1 0x20 MSTORE PUSH2 0x150B PUSH1 0x40 PUSH1 0x0 KECCAK256 PUSH1 0x4 DUP7 ADD SLOAD SWAP1 PUSH2 0x2DDE JUMP JUMPDEST PUSH1 0x1 PUSH1 0xFF PUSH1 0x5 DUP7 ADD SLOAD PUSH1 0x8 SHR AND PUSH2 0x1521 DUP2 PUSH2 0x2B12 JUMP JUMPDEST EQ PUSH2 0x1584 JUMPI JUMPDEST SLOAD PUSH1 0x1 PUSH1 0x1 PUSH1 0xA0 SHL SUB AND PUSH2 0x327C JUMP JUMPDEST PUSH1 0x2 ADD SLOAD PUSH1 0x1 PUSH1 0x1 PUSH1 0xA0 SHL SUB AND PUSH2 0x327C JUMP JUMPDEST PUSH1 0x2 ADD SLOAD PUSH1 0x20 SHR PUSH1 0x1 PUSH1 0x1 PUSH1 0xA0 SHL SUB AND SWAP1 PUSH32 0x7F40DF5127524300187445E867486DA572AAB86769C0212E0B392BD87C4CA97F DUP4 DUP1 LOG3 PUSH1 0x1 DUP2 SSTORE DUP1 RETURN JUMPDEST DUP2 DUP10 MSTORE PUSH1 0x5 PUSH1 0x20 MSTORE PUSH2 0x15F4 PUSH1 0x40 DUP11 KECCAK256 PUSH1 0x40 MLOAD PUSH2 0x159F DUP2 PUSH2 0x2CE1 JUMP JUMPDEST DUP2 SLOAD PUSH1 0x1 PUSH1 0x1 PUSH1 0xA0 SHL SUB SWAP1 DUP2 AND DUP3 MSTORE PUSH1 0x1 DUP4 ADD SLOAD PUSH1 0x20 DUP1 DUP5 ADD SWAP2 DUP3 MSTORE PUSH1 0x2 SWAP1 SWAP5 ADD SLOAD PUSH1 0xFF AND ISZERO ISZERO PUSH1 0x40 DUP1 DUP6 ADD SWAP2 SWAP1 SWAP2 MSTORE DUP7 SLOAD DUP4 AND DUP16 MSTORE PUSH1 0xC DUP6 MSTORE DUP1 DUP16 KECCAK256 SWAP4 MLOAD SWAP1 SWAP3 AND PUSH1 0x0 SWAP1 DUP2 MSTORE SWAP3 SWAP1 SWAP4 MSTORE SWAP1 KECCAK256 SWAP1 MLOAD SWAP1 PUSH2 0x2DDE JUMP JUMPDEST PUSH2 0x1527 JUMP JUMPDEST PUSH1 0x2 DUP5 ADD PUSH1 0x1 DUP1 PUSH1 0xA0 SHL SUB DUP2 SLOAD AND DUP11 MSTORE PUSH1 0xC PUSH1 0x20 MSTORE PUSH1 0x40 DUP11 KECCAK256 PUSH1 0x3 DUP7 ADD SWAP1 PUSH1 0x1 DUP1 PUSH1 0xA0 SHL SUB DUP3 SLOAD AND PUSH1 0x0 MSTORE PUSH1 0x20 MSTORE PUSH1 0x40 PUSH1 0x0 KECCAK256 SWAP1 PUSH2 0x163D PUSH1 0x4 DUP9 ADD SWAP3 DUP4 SLOAD SWAP1 PUSH2 0x2DDE JUMP JUMPDEST PUSH1 0x1 DUP1 PUSH1 0xA0 SHL SUB DUP5 SLOAD AND DUP13 MSTORE PUSH1 0x9 PUSH1 0x20 MSTORE PUSH1 0x40 DUP13 KECCAK256 SWAP1 PUSH1 0x1 DUP1 PUSH1 0xA0 SHL SUB SWAP1 SLOAD AND PUSH1 0x0 MSTORE PUSH1 0x20 MSTORE PUSH1 0x40 PUSH1 0x0 KECCAK256 SWAP1 SLOAD DUP12 MSTORE PUSH1 0x20 MSTORE PUSH1 0x40 DUP11 KECCAK256 PUSH1 0xFF NOT DUP2 SLOAD AND SWAP1 SSTORE PUSH1 0x1 PUSH1 0xFF PUSH1 0x5 DUP8 ADD SLOAD PUSH1 0x8 SHR AND PUSH2 0x1691 DUP2 PUSH2 0x2B12 JUMP JUMPDEST EQ PUSH2 0x169D JUMPI JUMPDEST POP PUSH2 0x1527 JUMP JUMPDEST DUP3 DUP11 MSTORE PUSH1 0x5 PUSH1 0x20 MSTORE PUSH1 0x40 DUP1 DUP12 KECCAK256 SWAP1 MLOAD PUSH2 0x170E SWAP3 PUSH2 0x16B9 DUP3 PUSH2 0x2CE1 JUMP JUMPDEST DUP3 SLOAD PUSH1 0x1 PUSH1 0x1 PUSH1 0xA0 SHL SUB SWAP1 DUP2 AND DUP4 MSTORE PUSH1 0x1 DUP5 ADD SLOAD PUSH1 0x20 DUP1 DUP6 ADD SWAP2 DUP3 MSTORE PUSH1 0x2 SWAP1 SWAP6 ADD SLOAD PUSH1 0xFF AND ISZERO ISZERO PUSH1 0x40 DUP1 DUP7 ADD SWAP2 SWAP1 SWAP2 MSTORE SWAP3 SLOAD DUP3 AND DUP16 MSTORE PUSH1 0xC DUP6 MSTORE DUP3 DUP16 KECCAK256 SWAP4 MLOAD SWAP1 SWAP2 AND PUSH1 0x0 SWAP1 DUP2 MSTORE SWAP3 SWAP1 SWAP4 MSTORE SWAP1 KECCAK256 SWAP1 MLOAD SWAP1 PUSH2 0x2DDE JUMP JUMPDEST CODESIZE PUSH2 0x1697 JUMP JUMPDEST SWAP1 POP PUSH1 0x2 DUP2 ADD SLOAD SWAP1 PUSH1 0xFF PUSH1 0x3 PUSH2 0x173A PUSH2 0x2710 PUSH2 0x1732 PUSH1 0xF SLOAD DUP8 PUSH2 0x2FE9 JUMP JUMPDEST DIV DUP1 SWAP6 PUSH2 0x2E21 JUMP JUMPDEST SWAP3 DUP5 PUSH1 0x5 DUP3 ADD SSTORE ADD SLOAD AND PUSH1 0x3 DUP2 LT ISZERO PUSH2 0x1834 JUMPI SWAP2 PUSH2 0x1548 SWAP4 SWAP2 DUP4 DUP8 SWAP5 ISZERO PUSH1 0x0 EQ PUSH2 0x17C2 JUMPI POP PUSH2 0x1785 PUSH1 0x1 DUP1 PUSH1 0xA0 SHL SUB PUSH1 0x2 DUP9 ADD SLOAD PUSH1 0x20 SHR AND SWAP2 DUP3 DUP11 MSTORE PUSH1 0xA PUSH1 0x20 MSTORE PUSH1 0x40 DUP11 KECCAK256 SLOAD PUSH2 0x2DD1 JUMP JUMPDEST SWAP1 DUP9 MSTORE PUSH1 0xA PUSH1 0x20 MSTORE PUSH1 0x40 DUP9 KECCAK256 SSTORE PUSH2 0x17AE PUSH1 0x1 DUP1 PUSH1 0xA0 SHL SUB PUSH1 0x13 SLOAD AND SWAP2 DUP3 DUP10 MSTORE PUSH1 0x40 DUP10 KECCAK256 SLOAD PUSH2 0x2DD1 JUMP JUMPDEST SWAP1 DUP8 MSTORE PUSH1 0xA PUSH1 0x20 MSTORE PUSH1 0x40 DUP8 KECCAK256 SSTORE JUMPDEST SWAP2 PUSH2 0x14A0 JUMP JUMPDEST PUSH1 0x1 EQ PUSH2 0x17D1 JUMPI JUMPDEST POP POP PUSH2 0x17BC JUMP JUMPDEST PUSH2 0x17F7 PUSH1 0x1 DUP1 PUSH1 0xA0 SHL SUB PUSH1 0x2 DUP9 ADD SLOAD PUSH1 0x20 SHR AND SWAP2 DUP3 DUP11 MSTORE PUSH1 0xB PUSH1 0x20 MSTORE PUSH1 0x40 DUP11 KECCAK256 SLOAD PUSH2 0x2DD1 JUMP JUMPDEST SWAP1 DUP9 MSTORE PUSH1 0xB PUSH1 0x20 MSTORE PUSH1 0x40 DUP9 KECCAK256 SSTORE PUSH2 0x1820 PUSH1 0x1 DUP1 PUSH1 0xA0 SHL SUB PUSH1 0x13 SLOAD AND SWAP2 DUP3 DUP10 MSTORE PUSH1 0x40 DUP10 KECCAK256 SLOAD PUSH2 0x2DD1 JUMP JUMPDEST SWAP1 DUP8 MSTORE PUSH1 0xB PUSH1 0x20 MSTORE PUSH1 0x40 DUP8 KECCAK256 SSTORE CODESIZE DUP1 PUSH2 0x17CA JUMP JUMPDEST PUSH4 0x4E487B71 PUSH1 0xE0 SHL DUP8 MSTORE PUSH1 0x21 PUSH1 0x4 MSTORE PUSH1 0x24 DUP8 REVERT JUMPDEST PUSH1 0x2 DUP4 ADD SLOAD PUSH2 0x1486 SWAP1 PUSH1 0x1 PUSH1 0x1 PUSH1 0xA0 SHL SUB AND PUSH2 0x1457 JUMP JUMPDEST PUSH2 0x1888 SWAP2 SWAP3 POP PUSH2 0x186E SWAP1 PUSH2 0x2FD8 JUMP JUMPDEST PUSH1 0x2 DUP4 ADD SWAP1 PUSH2 0xFF00 DUP3 SLOAD SWAP2 PUSH1 0x8 SHL AND SWAP1 PUSH2 0xFF00 NOT AND OR SWAP1 SSTORE JUMP JUMPDEST PUSH1 0x3 TIMESTAMP SWAP2 ADD SSTORE PUSH2 0xC80 JUMP JUMPDEST PUSH1 0x18 SHR PUSH1 0xFF AND LT ISZERO SWAP1 POP CODESIZE DUP1 PUSH2 0x13F0 JUMP JUMPDEST PUSH4 0x4E487B71 PUSH1 0xE0 SHL DUP7 MSTORE PUSH1 0x11 PUSH1 0x4 MSTORE PUSH1 0x24 DUP7 REVERT JUMPDEST PUSH2 0x18EA PUSH2 0x18CE PUSH1 0xFF PUSH1 0x2 DUP7 ADD SLOAD PUSH1 0x10 SHR AND PUSH2 0x2FD8 JUMP JUMPDEST PUSH1 0x2 DUP6 ADD SWAP1 PUSH3 0xFF0000 DUP3 SLOAD SWAP2 PUSH1 0x10 SHL AND SWAP1 PUSH3 0xFF0000 NOT AND OR SWAP1 SSTORE JUMP JUMPDEST PUSH2 0x137B JUMP JUMPDEST PUSH4 0x4E487B71 PUSH1 0xE0 SHL PUSH1 0x0 MSTORE PUSH1 0x41 PUSH1 0x4 MSTORE PUSH1 0x24 PUSH1 0x0 REVERT JUMPDEST PUSH1 0x1 SWAP2 PUSH2 0x124D JUMP JUMPDEST PUSH1 0x40 MLOAD PUSH3 0x461BCD PUSH1 0xE5 SHL DUP2 MSTORE PUSH1 0x20 PUSH1 0x4 DUP3 ADD MSTORE PUSH1 0x15 PUSH1 0x24 DUP3 ADD MSTORE PUSH21 0x4E6F7420796F7572207475726E20746F20666C697 PUSH1 0x5C SHL PUSH1 0x44 DUP3 ADD MSTORE PUSH1 0x64 SWAP1 REVERT JUMPDEST PUSH1 0x2 DUP2 ADD SLOAD PUSH1 0x1 PUSH1 0x1 PUSH1 0xA0 SHL SUB AND PUSH2 0x121D JUMP JUMPDEST PUSH1 0x10 SHR AND PUSH2 0x196A DUP2 PUSH2 0x2B12 JUMP JUMPDEST PUSH2 0x1981 JUMPI PUSH1 0x2 DUP2 ADD SLOAD PUSH1 0x1 PUSH1 0x1 PUSH1 0xA0 SHL SUB AND PUSH2 0x121D JUMP JUMPDEST PUSH1 0x1 DUP2 ADD SLOAD PUSH1 0x1 PUSH1 0x1 PUSH1 0xA0 SHL SUB AND PUSH2 0x121D JUMP JUMPDEST PUSH1 0x40 MLOAD PUSH3 0x461BCD PUSH1 0xE5 SHL DUP2 MSTORE PUSH1 0x20 PUSH1 0x4 DUP3 ADD MSTORE PUSH1 0x9 PUSH1 0x24 DUP3 ADD MSTORE PUSH9 0x23B0B6B29037BB32B9 PUSH1 0xB9 SHL PUSH1 0x44 DUP3 ADD MSTORE PUSH1 0x64 SWAP1 REVERT JUMPDEST PUSH1 0x40 MLOAD PUSH3 0x461BCD PUSH1 0xE5 SHL DUP2 MSTORE PUSH1 0x20 PUSH1 0x4 DUP3 ADD MSTORE PUSH1 0x14 PUSH1 0x24 DUP3 ADD MSTORE PUSH20 0x47616D65206E6F7420696E2070726F6772657373 PUSH1 0x60 SHL PUSH1 0x44 DUP3 ADD MSTORE PUSH1 0x64 SWAP1 REVERT JUMPDEST PUSH1 0x40 MLOAD PUSH3 0x461BCD PUSH1 0xE5 SHL DUP2 MSTORE PUSH1 0x20 PUSH1 0x4 DUP3 ADD MSTORE PUSH1 0x11 PUSH1 0x24 DUP3 ADD MSTORE PUSH17 0x139BDD0818481C185C9D1A58DA5C185B9D PUSH1 0x7A SHL PUSH1 0x44 DUP3 ADD MSTORE PUSH1 0x64 SWAP1 REVERT JUMPDEST PUSH1 0x40 ADD MLOAD PUSH1 0x1 PUSH1 0x1 PUSH1 0xA0 SHL SUB AND CALLER EQ SWAP1 POP CODESIZE PUSH2 0x119D JUMP JUMPDEST POP CALLVALUE PUSH2 0x2A9 JUMPI PUSH1 0x20 DUP1 PUSH1 0x3 NOT CALLDATASIZE ADD SLT PUSH2 0xDEC JUMPI PUSH1 0x4 CALLDATALOAD SWAP1 PUSH2 0x1A70 PUSH2 0x2E75 JUMP JUMPDEST DUP2 DUP4 MSTORE PUSH1 0x2 DUP2 MSTORE PUSH2 0x1A86 PUSH1 0x40 DUP5 KECCAK256 SLOAD ISZERO ISZERO PUSH2 0x2ECB JUMP JUMPDEST DUP2 DUP4 MSTORE PUSH1 0x2 DUP2 MSTORE PUSH1 0x40 DUP4 KECCAK256 PUSH1 0x1 DUP2 ADD DUP1 SLOAD PUSH1 0x1 PUSH1 0x1 PUSH1 0xA0 SHL SUB SWAP2 SWAP1 DUP3 AND CALLER DUP2 SWAP1 SUB PUSH2 0x1C16 JUMPI PUSH1 0x5 DUP5 ADD SWAP1 DUP2 SLOAD SWAP2 PUSH1 0xFF DUP4 AND PUSH1 0x6 DUP2 LT ISZERO PUSH2 0x1C02 JUMPI PUSH2 0x1BBD JUMPI PUSH1 0x5 PUSH1 0xFF NOT DUP1 SWAP5 AND OR SWAP1 SSTORE PUSH1 0x3 DUP6 ADD DUP9 PUSH1 0x4 DUP7 DUP4 SLOAD AND SWAP8 ADD SWAP3 DUP4 SLOAD DUP9 EXTCODESIZE ISZERO PUSH2 0x1BB9 JUMPI PUSH1 0x40 MLOAD PUSH4 0x23B872DD PUSH1 0xE0 SHL DUP2 MSTORE ADDRESS PUSH1 0x4 DUP3 ADD MSTORE PUSH1 0x1 PUSH1 0x1 PUSH1 0xA0 SHL SUB SWAP3 SWAP1 SWAP3 AND PUSH1 0x24 DUP4 ADD MSTORE PUSH1 0x44 DUP3 ADD MSTORE SWAP7 DUP2 SWAP1 DUP9 SWAP1 PUSH1 0x64 SWAP1 DUP3 SWAP1 DUP5 SWAP1 GAS CALL SWAP7 DUP8 ISZERO PUSH2 0x1BAC JUMPI DUP10 SWAP8 PUSH2 0x1B8F JUMPI JUMPDEST POP POP SWAP6 PUSH2 0x1B64 SWAP7 DUP6 DUP6 SLOAD AND DUP11 MSTORE PUSH1 0x9 DUP3 MSTORE DUP6 PUSH1 0x40 DUP12 KECCAK256 SWAP2 SLOAD AND PUSH1 0x0 MSTORE DUP2 MSTORE PUSH1 0x40 PUSH1 0x0 KECCAK256 SWAP2 SLOAD DUP10 MSTORE MSTORE PUSH1 0x40 DUP8 KECCAK256 SWAP1 DUP2 SLOAD AND SWAP1 SSTORE SLOAD AND PUSH2 0x327C JUMP JUMPDEST PUSH32 0x681705FDBD93DBA3B679FD712577E9A86D57C5551C520F8C74857DEB57F9623F DUP3 DUP1 LOG2 PUSH1 0x1 DUP2 SSTORE DUP1 RETURN JUMPDEST PUSH2 0x1B9B SWAP2 SWAP3 SWAP8 POP PUSH2 0x2CCD JUMP JUMPDEST PUSH2 0x1BA8 JUMPI DUP7 SWAP5 DUP9 CODESIZE PUSH2 0x1B2B JUMP JUMPDEST DUP8 DUP1 REVERT JUMPDEST POP PUSH1 0x40 MLOAD SWAP1 RETURNDATASIZE SWAP1 DUP3 RETURNDATACOPY RETURNDATASIZE SWAP1 REVERT JUMPDEST DUP3 DUP1 REVERT JUMPDEST PUSH1 0x40 MLOAD PUSH3 0x461BCD PUSH1 0xE5 SHL DUP2 MSTORE PUSH1 0x4 DUP2 ADD DUP9 SWAP1 MSTORE PUSH1 0x1D PUSH1 0x24 DUP3 ADD MSTORE PUSH32 0x43616E206F6E6C792063616E63656C2077616974696E672067616D6573000000 PUSH1 0x44 DUP3 ADD MSTORE PUSH1 0x64 SWAP1 REVERT JUMPDEST PUSH4 0x4E487B71 PUSH1 0xE0 SHL DUP11 MSTORE PUSH1 0x21 PUSH1 0x4 MSTORE PUSH1 0x24 DUP11 REVERT JUMPDEST PUSH1 0x40 MLOAD PUSH3 0x461BCD PUSH1 0xE5 SHL DUP2 MSTORE PUSH1 0x4 DUP2 ADD DUP7 SWAP1 MSTORE PUSH1 0x17 PUSH1 0x24 DUP3 ADD MSTORE PUSH32 0x4F6E6C792063726561746F722063616E2063616E63656C000000000000000000 PUSH1 0x44 DUP3 ADD MSTORE PUSH1 0x64 SWAP1 REVERT JUMPDEST POP CALLVALUE PUSH2 0x2A9 JUMPI DUP1 PUSH1 0x3 NOT CALLDATASIZE ADD SLT PUSH2 0x2A9 JUMPI PUSH1 0x20 PUSH1 0x40 MLOAD PUSH2 0x3E8 DUP2 MSTORE RETURN JUMPDEST POP CALLVALUE PUSH2 0x2A9 JUMPI PUSH1 0x40 CALLDATASIZE PUSH1 0x3 NOT ADD SLT PUSH2 0x2A9 JUMPI PUSH2 0x1C92 PUSH2 0x2AD9 JUMP JUMPDEST PUSH1 0x24 CALLDATALOAD PUSH2 0x1C9D PUSH2 0x2E75 JUMP JUMPDEST CALLER DUP4 MSTORE PUSH1 0xC PUSH1 0x20 SWAP1 DUP2 MSTORE PUSH1 0x40 DUP1 DUP6 KECCAK256 PUSH1 0x1 PUSH1 0x1 PUSH1 0xA0 SHL SUB SWAP1 SWAP5 AND PUSH1 0x0 DUP2 DUP2 MSTORE SWAP5 DUP4 MSTORE SWAP4 KECCAK256 DUP1 SLOAD DUP6 SWAP1 DUP2 DUP1 JUMPDEST DUP3 DUP2 LT PUSH2 0x1E2D JUMPI JUMPDEST POP ISZERO PUSH2 0x1DE8 JUMPI PUSH1 0x0 NOT DUP2 ADD SWAP1 DUP2 GT PUSH2 0x1DD4 JUMPI PUSH2 0x1D01 DUP4 SWAP3 PUSH2 0x1CF7 PUSH2 0x1D1F SWAP4 PUSH2 0x1D24 SWAP7 PUSH2 0x2B7E JUMP JUMPDEST SWAP3 SWAP1 SLOAD SWAP2 DUP6 PUSH2 0x2B7E JUMP JUMPDEST SWAP2 SWAP1 SWAP3 PUSH1 0x3 SHL SHR SWAP1 DUP3 SLOAD SWAP1 PUSH1 0x3 SHL SWAP2 DUP3 SHL SWAP2 PUSH1 0x0 NOT SWAP1 SHL NOT AND OR SWAP1 SSTORE JUMP JUMPDEST PUSH2 0x2FFC JUMP JUMPDEST DUP3 EXTCODESIZE ISZERO PUSH2 0x1DD0 JUMPI PUSH1 0x40 MLOAD PUSH4 0x23B872DD PUSH1 0xE0 SHL DUP2 MSTORE ADDRESS PUSH1 0x4 DUP3 ADD MSTORE CALLER PUSH1 0x24 DUP3 ADD MSTORE PUSH1 0x44 DUP2 ADD DUP4 SWAP1 MSTORE DUP5 SWAP1 DUP2 DUP2 PUSH1 0x64 DUP2 DUP4 DUP10 GAS CALL DUP1 ISZERO PUSH2 0xD1F JUMPI PUSH2 0x1DBC JUMPI JUMPDEST POP POP PUSH32 0xBBDE41973F9CE4890F7AD9762C23D8191F261FD643BDF13ED8BBC10549B49FCB SWAP1 CALLER DUP6 MSTORE PUSH1 0x9 DUP2 MSTORE PUSH1 0x40 DUP6 KECCAK256 DUP5 PUSH1 0x0 MSTORE DUP2 MSTORE PUSH1 0x40 PUSH1 0x0 KECCAK256 DUP4 DUP7 MSTORE DUP2 MSTORE PUSH1 0x40 DUP6 KECCAK256 PUSH1 0xFF NOT DUP2 SLOAD AND SWAP1 SSTORE PUSH1 0x40 MLOAD SWAP3 DUP4 MSTORE CALLER SWAP3 LOG3 PUSH1 0x1 DUP2 SSTORE DUP1 RETURN JUMPDEST PUSH2 0x1DC5 SWAP1 PUSH2 0x2CCD JUMP JUMPDEST PUSH2 0x1DD0 JUMPI DUP4 CODESIZE PUSH2 0x1D61 JUMP JUMPDEST DUP4 DUP1 REVERT JUMPDEST PUSH4 0x4E487B71 PUSH1 0xE0 SHL DUP8 MSTORE PUSH1 0x11 PUSH1 0x4 MSTORE PUSH1 0x24 DUP8 REVERT JUMPDEST PUSH1 0x40 MLOAD PUSH3 0x461BCD PUSH1 0xE5 SHL DUP2 MSTORE PUSH1 0x4 DUP2 ADD DUP6 SWAP1 MSTORE PUSH1 0x1A PUSH1 0x24 DUP3 ADD MSTORE PUSH32 0x4E4654206E6F7420666F756E6420696E20756E636C61696D6564000000000000 PUSH1 0x44 DUP3 ADD MSTORE PUSH1 0x64 SWAP1 REVERT JUMPDEST DUP7 PUSH2 0x1E38 DUP3 DUP8 PUSH2 0x2B7E JUMP JUMPDEST SWAP1 SLOAD SWAP1 PUSH1 0x3 SHL SHR EQ PUSH2 0x1E52 JUMPI PUSH2 0x1E4D SWAP1 PUSH2 0x2D1F JUMP JUMPDEST PUSH2 0x1CC8 JUMP JUMPDEST SWAP3 POP POP PUSH1 0x1 CODESIZE PUSH2 0x1CD0 JUMP JUMPDEST POP CALLVALUE PUSH2 0x2A9 JUMPI PUSH1 0x20 CALLDATASIZE PUSH1 0x3 NOT ADD SLT PUSH2 0x2A9 JUMPI PUSH1 0x40 PUSH1 0x60 SWAP2 PUSH1 0x4 CALLDATALOAD DUP2 MSTORE PUSH1 0x5 PUSH1 0x20 MSTORE KECCAK256 PUSH1 0x1 DUP1 PUSH1 0xA0 SHL SUB DUP2 SLOAD AND SWAP1 PUSH1 0xFF PUSH1 0x2 PUSH1 0x1 DUP4 ADD SLOAD SWAP3 ADD SLOAD AND SWAP1 PUSH1 0x40 MLOAD SWAP3 DUP4 MSTORE PUSH1 0x20 DUP4 ADD MSTORE ISZERO ISZERO PUSH1 0x40 DUP3 ADD MSTORE RETURN JUMPDEST POP CALLVALUE PUSH2 0x2A9 JUMPI DUP1 PUSH1 0x3 NOT CALLDATASIZE ADD SLT PUSH2 0x2A9 JUMPI PUSH1 0x20 PUSH1 0xFF PUSH1 0x1 SLOAD PUSH1 0xA0 SHR AND PUSH1 0x40 MLOAD SWAP1 ISZERO ISZERO DUP2 MSTORE RETURN JUMPDEST POP CALLVALUE PUSH2 0x2A9 JUMPI DUP1 PUSH1 0x3 NOT CALLDATASIZE ADD SLT PUSH2 0x2A9 JUMPI PUSH1 0x11 SLOAD PUSH1 0x40 MLOAD PUSH1 0x1 PUSH1 0x1 PUSH1 0xA0 SHL SUB SWAP1 SWAP2 AND DUP2 MSTORE PUSH1 0x20 SWAP1 RETURN JUMPDEST POP CALLVALUE PUSH2 0x2A9 JUMPI DUP1 PUSH1 0x3 NOT CALLDATASIZE ADD SLT PUSH2 0x2A9 JUMPI PUSH1 0x20 PUSH1 0xE SLOAD PUSH1 0x40 MLOAD SWAP1 DUP2 MSTORE RETURN JUMPDEST POP CALLVALUE PUSH2 0x2A9 JUMPI DUP1 PUSH1 0x3 NOT CALLDATASIZE ADD SLT PUSH2 0x2A9 JUMPI PUSH1 0x13 SLOAD PUSH1 0x40 MLOAD PUSH1 0x1 PUSH1 0x1 PUSH1 0xA0 SHL SUB SWAP1 SWAP2 AND DUP2 MSTORE PUSH1 0x20 SWAP1 RETURN JUMPDEST POP PUSH1 0x3 NOT PUSH1 0x20 CALLDATASIZE DUP3 ADD SLT PUSH2 0xDEC JUMPI PUSH8 0xFFFFFFFFFFFFFFFF PUSH1 0x4 CALLDATALOAD GT PUSH2 0xDEC JUMPI PUSH1 0xE0 SWAP1 PUSH1 0x4 CALLDATALOAD CALLDATASIZE SUB ADD SLT PUSH2 0x2A9 JUMPI PUSH2 0x1F77 PUSH2 0x2E75 JUMP JUMPDEST PUSH2 0x1F7F PUSH2 0x2E2E JUMP JUMPDEST PUSH1 0x5 PUSH1 0xFF PUSH2 0x1F91 PUSH1 0x84 PUSH1 0x4 CALLDATALOAD ADD PUSH2 0x2C3F JUMP JUMPDEST AND EQ DUP1 ISZERO PUSH2 0x2662 JUMPI JUMPDEST ISZERO PUSH2 0x262C JUMPI PUSH1 0x1 PUSH1 0x1 PUSH1 0xA0 SHL SUB PUSH2 0x1FB4 PUSH1 0x4 DUP1 CALLDATALOAD ADD PUSH2 0x2C63 JUMP JUMPDEST AND ISZERO PUSH2 0x25F0 JUMPI PUSH2 0x1FC5 PUSH1 0xE SLOAD PUSH2 0x308E JUMP JUMPDEST SWAP1 DUP2 CALLVALUE LT PUSH2 0x25AB JUMPI PUSH1 0x1 PUSH1 0x1 PUSH1 0xA0 SHL SUB PUSH2 0x1FE2 PUSH1 0x4 DUP1 CALLDATALOAD ADD PUSH2 0x2C63 JUMP JUMPDEST AND DUP1 EXTCODESIZE ISZERO PUSH2 0xDEC JUMPI PUSH1 0x40 MLOAD PUSH4 0x23B872DD PUSH1 0xE0 SHL DUP2 MSTORE CALLER PUSH1 0x4 DUP1 DUP4 ADD SWAP2 SWAP1 SWAP2 MSTORE ADDRESS PUSH1 0x24 DUP1 DUP5 ADD SWAP2 SWAP1 SWAP2 MSTORE SWAP1 CALLDATALOAD ADD CALLDATALOAD PUSH1 0x44 DUP3 ADD MSTORE SWAP1 DUP3 SWAP1 DUP3 SWAP1 PUSH1 0x64 SWAP1 DUP3 SWAP1 DUP5 SWAP1 GAS CALL DUP1 ISZERO PUSH2 0xD1F JUMPI PUSH2 0x259C JUMPI JUMPDEST POP SWAP1 PUSH1 0xD SLOAD SWAP1 PUSH2 0x203C DUP3 PUSH2 0x2D1F JUMP JUMPDEST PUSH1 0xD SSTORE PUSH2 0x204D PUSH1 0x4 CALLDATALOAD PUSH1 0x4 ADD PUSH2 0x2C63 JUMP JUMPDEST PUSH1 0x2 PUSH1 0xA4 PUSH1 0x4 CALLDATALOAD ADD CALLDATALOAD LT ISZERO PUSH2 0x1DD0 JUMPI PUSH1 0x40 MLOAD SWAP1 PUSH2 0x2069 DUP3 PUSH2 0x2C77 JUMP JUMPDEST DUP4 DUP3 MSTORE CALLER PUSH1 0x20 DUP4 ADD MSTORE PUSH1 0x40 DUP3 ADD DUP6 SWAP1 MSTORE PUSH1 0x1 PUSH1 0x1 PUSH1 0xA0 SHL SUB AND PUSH1 0x60 DUP3 ADD MSTORE PUSH1 0x4 CALLDATALOAD PUSH1 0x24 DUP2 ADD CALLDATALOAD PUSH1 0x80 DUP4 ADD MSTORE PUSH1 0xA0 DUP3 ADD DUP6 SWAP1 MSTORE PUSH2 0x20A8 SWAP1 PUSH1 0xA4 ADD CALLDATALOAD PUSH2 0x2B12 JUMP JUMPDEST PUSH1 0xA4 PUSH1 0x4 CALLDATALOAD ADD CALLDATALOAD PUSH1 0xC0 DUP3 ADD MSTORE DUP4 PUSH1 0xE0 DUP3 ADD MSTORE PUSH1 0x1 PUSH2 0x100 DUP3 ADD MSTORE DUP4 PUSH2 0x120 DUP3 ADD MSTORE DUP3 DUP5 MSTORE PUSH1 0x2 PUSH1 0x20 MSTORE PUSH1 0x40 DUP5 KECCAK256 SWAP1 DUP1 MLOAD DUP3 SSTORE PUSH1 0x1 DUP1 PUSH1 0xA0 SHL SUB PUSH1 0x20 DUP3 ADD MLOAD AND PUSH1 0x1 PUSH1 0x1 PUSH1 0x60 SHL SUB PUSH1 0xA0 SHL PUSH1 0x1 DUP5 ADD SLOAD AND OR PUSH1 0x1 DUP4 ADD SSTORE PUSH1 0x2 DUP3 ADD PUSH1 0x1 DUP1 PUSH1 0xA0 SHL SUB PUSH1 0x40 DUP4 ADD MLOAD AND PUSH1 0x1 PUSH1 0x1 PUSH1 0x60 SHL SUB PUSH1 0xA0 SHL DUP3 SLOAD AND OR SWAP1 SSTORE PUSH1 0x3 DUP3 ADD PUSH1 0x1 DUP1 PUSH1 0xA0 SHL SUB PUSH1 0x60 DUP4 ADD MLOAD AND PUSH1 0x1 PUSH1 0x1 PUSH1 0x60 SHL SUB PUSH1 0xA0 SHL DUP3 SLOAD AND OR SWAP1 SSTORE PUSH1 0x80 DUP2 ADD MLOAD PUSH1 0x4 DUP4 ADD SSTORE PUSH1 0xA0 DUP2 ADD MLOAD SWAP2 PUSH1 0x6 DUP4 LT ISZERO PUSH2 0x2588 JUMPI PUSH2 0x21D6 SWAP3 SWAP2 PUSH1 0x5 PUSH2 0x120 SWAP3 ADD SWAP3 DUP4 SLOAD PUSH1 0xFF PUSH2 0xFF00 PUSH1 0xC0 DUP6 ADD MLOAD PUSH2 0x217D DUP2 PUSH2 0x2B12 JUMP JUMPDEST PUSH2 0x2186 DUP2 PUSH2 0x2B12 JUMP JUMPDEST PUSH1 0x8 SHL AND SWAP3 AND SWAP1 PUSH2 0xFFFF NOT AND OR OR DUP4 SSTORE PUSH2 0x21AD PUSH1 0xE0 DUP3 ADD MLOAD PUSH2 0x21A7 DUP2 PUSH2 0x2B12 JUMP JUMPDEST DUP5 PUSH2 0x2D44 JUMP JUMPDEST PUSH2 0x21C5 PUSH2 0x100 DUP3 ADD MLOAD PUSH2 0x21BF DUP2 PUSH2 0x2B12 JUMP JUMPDEST DUP5 PUSH2 0x2D65 JUMP JUMPDEST ADD MLOAD SWAP1 PUSH2 0x21D1 DUP3 PUSH2 0x2B12 JUMP JUMPDEST PUSH2 0x2D88 JUMP JUMPDEST PUSH1 0x64 PUSH1 0x4 CALLDATALOAD ADD CALLDATALOAD PUSH1 0x3 DUP2 LT ISZERO PUSH2 0x1DD0 JUMPI PUSH1 0x40 MLOAD PUSH2 0x21F2 DUP2 PUSH2 0x2C94 JUMP JUMPDEST PUSH1 0x44 PUSH1 0x4 CALLDATALOAD ADD CALLDATALOAD DUP2 MSTORE PUSH2 0x2209 PUSH1 0x20 DUP3 ADD SWAP3 DUP4 PUSH2 0x2DAD JUMP JUMPDEST DUP5 PUSH1 0x40 DUP3 ADD MSTORE DUP5 PUSH1 0x60 DUP3 ADD MSTORE DUP3 PUSH1 0x80 DUP3 ADD MSTORE DUP5 PUSH1 0xA0 DUP3 ADD MSTORE DUP4 DUP6 MSTORE PUSH1 0x3 PUSH1 0x20 MSTORE PUSH1 0x40 DUP6 KECCAK256 SWAP2 DUP2 MLOAD DUP4 SSTORE MLOAD PUSH1 0x3 DUP2 LT ISZERO PUSH2 0x2588 JUMPI PUSH2 0x2249 SWAP1 PUSH1 0x1 DUP5 ADD PUSH2 0x2DB9 JUMP JUMPDEST PUSH1 0x40 DUP2 ADD MLOAD PUSH1 0x2 DUP4 ADD SSTORE PUSH1 0x60 DUP2 ADD MLOAD PUSH1 0x3 DUP2 LT ISZERO PUSH2 0x2588 JUMPI PUSH1 0x5 SWAP2 PUSH2 0x2273 PUSH1 0xA0 SWAP3 PUSH1 0x3 DUP7 ADD PUSH2 0x2DB9 JUMP JUMPDEST PUSH1 0x80 DUP2 ADD MLOAD PUSH1 0x4 DUP6 ADD SSTORE ADD MLOAD SWAP2 ADD SSTORE PUSH3 0x93A80 TIMESTAMP ADD TIMESTAMP GT PUSH2 0x2574 JUMPI DUP3 SWAP1 PUSH2 0x229E PUSH1 0x84 PUSH1 0x4 CALLDATALOAD ADD PUSH2 0x2C3F JUMP JUMPDEST PUSH1 0xFF PUSH1 0x40 MLOAD SWAP2 PUSH2 0x22AD DUP4 PUSH2 0x2CB0 JUMP JUMPDEST TIMESTAMP DUP4 MSTORE PUSH3 0x93A80 TIMESTAMP ADD PUSH1 0x20 DUP5 ADD MSTORE AND PUSH1 0x40 DUP3 ADD MSTORE PUSH1 0x1 PUSH1 0x60 DUP3 ADD MSTORE DUP3 PUSH1 0x80 DUP3 ADD MSTORE DUP3 PUSH1 0xA0 DUP3 ADD MSTORE DUP3 PUSH1 0xC0 DUP3 ADD MSTORE TIMESTAMP PUSH1 0xE0 DUP3 ADD MSTORE DUP3 PUSH2 0x100 DUP3 ADD MSTORE DUP4 DUP4 MSTORE PUSH1 0x4 PUSH1 0x20 MSTORE PUSH1 0x4 PUSH2 0x100 PUSH1 0x40 DUP6 KECCAK256 SWAP3 DUP1 MLOAD DUP5 SSTORE PUSH1 0x20 DUP2 ADD MLOAD PUSH1 0x1 DUP6 ADD SSTORE PUSH1 0xFF PUSH1 0x40 DUP3 ADD MLOAD AND PUSH1 0xFF NOT PUSH1 0x2 DUP7 ADD SLOAD AND OR PUSH1 0x2 DUP6 ADD SSTORE PUSH2 0x2343 PUSH1 0xFF PUSH1 0x60 DUP4 ADD MLOAD AND PUSH1 0x2 DUP7 ADD SWAP1 PUSH2 0xFF00 DUP3 SLOAD SWAP2 PUSH1 0x8 SHL AND SWAP1 PUSH2 0xFF00 NOT AND OR SWAP1 SSTORE JUMP JUMPDEST PUSH2 0x236A PUSH1 0xFF PUSH1 0x80 DUP4 ADD MLOAD AND PUSH1 0x2 DUP7 ADD SWAP1 PUSH3 0xFF0000 DUP3 SLOAD SWAP2 PUSH1 0x10 SHL AND SWAP1 PUSH3 0xFF0000 NOT AND OR SWAP1 SSTORE JUMP JUMPDEST PUSH2 0x2393 PUSH1 0xFF PUSH1 0xA0 DUP4 ADD MLOAD AND PUSH1 0x2 DUP7 ADD SWAP1 PUSH4 0xFF000000 DUP3 SLOAD SWAP2 PUSH1 0x18 SHL AND SWAP1 PUSH4 0xFF000000 NOT AND OR SWAP1 SSTORE JUMP JUMPDEST PUSH1 0xC0 DUP2 ADD MLOAD PUSH1 0x2 DUP6 ADD DUP1 SLOAD PUSH5 0x100000000 PUSH1 0x1 PUSH1 0xC0 SHL SUB NOT AND PUSH1 0x20 SWAP3 SWAP1 SWAP3 SHL PUSH5 0x100000000 PUSH1 0x1 PUSH1 0xC0 SHL SUB AND SWAP2 SWAP1 SWAP2 OR SWAP1 SSTORE PUSH1 0xE0 DUP2 ADD MLOAD PUSH1 0x3 DUP6 ADD SSTORE ADD MLOAD SWAP2 ADD SSTORE PUSH2 0x23E3 PUSH1 0xA4 PUSH1 0x4 CALLDATALOAD ADD CALLDATALOAD PUSH2 0x2B12 JUMP JUMPDEST PUSH1 0x1 PUSH1 0xA4 PUSH1 0x4 CALLDATALOAD ADD CALLDATALOAD EQ PUSH2 0x2507 JUMPI JUMPDEST CALLER DUP3 MSTORE PUSH1 0x7 PUSH1 0x20 MSTORE PUSH2 0x2407 DUP4 PUSH1 0x40 DUP5 KECCAK256 PUSH2 0x2DDE JUMP JUMPDEST CALLER DUP3 MSTORE PUSH1 0x8 PUSH1 0x20 MSTORE PUSH2 0x241C DUP4 PUSH1 0x40 DUP5 KECCAK256 PUSH2 0x2DDE JUMP JUMPDEST CALLER DUP3 MSTORE PUSH1 0x9 PUSH1 0x20 MSTORE PUSH1 0x40 DUP3 KECCAK256 PUSH1 0x1 PUSH1 0x1 PUSH1 0xA0 SHL SUB PUSH2 0x243D PUSH1 0x4 DUP1 CALLDATALOAD ADD PUSH2 0x2C63 JUMP JUMPDEST AND PUSH1 0x0 MSTORE PUSH1 0x20 MSTORE PUSH1 0x40 PUSH1 0x0 KECCAK256 PUSH1 0x24 PUSH1 0x4 CALLDATALOAD ADD CALLDATALOAD DUP4 MSTORE PUSH1 0x20 MSTORE PUSH1 0x40 DUP3 KECCAK256 PUSH1 0x1 PUSH1 0xFF NOT DUP3 SLOAD AND OR SWAP1 SSTORE DUP2 DUP2 CALLVALUE GT PUSH2 0x24DB JUMPI JUMPDEST DUP1 DUP1 SWAP3 PUSH1 0x1 DUP1 PUSH1 0xA0 SHL SUB PUSH1 0x13 SLOAD AND DUP3 DUP3 ISZERO PUSH2 0x24D2 JUMPI JUMPDEST CALL ISZERO PUSH2 0x1BAC JUMPI PUSH1 0x40 MLOAD SWAP1 PUSH2 0x249C PUSH1 0xA4 PUSH1 0x4 CALLDATALOAD ADD CALLDATALOAD PUSH2 0x2B12 JUMP JUMPDEST PUSH1 0xA4 PUSH1 0x4 CALLDATALOAD ADD CALLDATALOAD DUP3 MSTORE PUSH32 0xDD0ABCDFFC76581D11646898EE4D7F269CA1E0C0B622D072D343100DAD83ECB1 PUSH1 0x20 CALLER SWAP4 LOG3 PUSH1 0x1 DUP2 SSTORE DUP1 RETURN JUMPDEST POP PUSH2 0x8FC PUSH2 0x2483 JUMP JUMPDEST DUP1 DUP1 DUP1 PUSH2 0x24E8 DUP6 CALLVALUE PUSH2 0x2E21 JUMP JUMPDEST DUP2 DUP2 ISZERO PUSH2 0x24FE JUMPI JUMPDEST CALLER SWAP1 CALL ISZERO PUSH2 0x1BAC JUMPI DUP2 PUSH2 0x246D JUMP JUMPDEST POP PUSH2 0x8FC PUSH2 0x24F0 JUMP JUMPDEST PUSH2 0x256F PUSH1 0x40 MLOAD PUSH2 0x2516 DUP2 PUSH2 0x2CE1 JUMP JUMPDEST DUP4 DUP2 MSTORE PUSH1 0x2 PUSH1 0x20 DUP3 ADD DUP6 DUP2 MSTORE PUSH1 0x40 DUP4 ADD SWAP1 PUSH1 0x1 DUP3 MSTORE DUP8 DUP8 MSTORE PUSH1 0x5 PUSH1 0x20 MSTORE PUSH1 0x40 DUP8 KECCAK256 SWAP4 PUSH1 0x1 DUP1 PUSH1 0xA0 SHL SUB SWAP1 MLOAD AND PUSH1 0x1 PUSH1 0x1 PUSH1 0x60 SHL SUB PUSH1 0xA0 SHL DUP6 SLOAD AND OR DUP5 SSTORE MLOAD PUSH1 0x1 DUP5 ADD SSTORE MLOAD ISZERO ISZERO SWAP2 ADD SWAP1 PUSH1 0xFF DUP1 NOT DUP4 SLOAD AND SWAP2 ISZERO ISZERO AND OR SWAP1 SSTORE JUMP JUMPDEST PUSH2 0x23F2 JUMP JUMPDEST PUSH4 0x4E487B71 PUSH1 0xE0 SHL DUP4 MSTORE PUSH1 0x11 PUSH1 0x4 MSTORE PUSH1 0x24 DUP4 REVERT JUMPDEST PUSH4 0x4E487B71 PUSH1 0xE0 SHL DUP7 MSTORE PUSH1 0x21 PUSH1 0x4 MSTORE PUSH1 0x24 DUP7 REVERT JUMPDEST PUSH2 0x25A5 SWAP1 PUSH2 0x2CCD JUMP JUMPDEST CODESIZE PUSH2 0x202D JUMP JUMPDEST PUSH1 0x40 MLOAD PUSH3 0x461BCD PUSH1 0xE5 SHL DUP2 MSTORE PUSH1 0x20 PUSH1 0x4 DUP3 ADD MSTORE PUSH1 0x18 PUSH1 0x24 DUP3 ADD MSTORE PUSH32 0x496E73756666696369656E74206C697374696E67206665650000000000000000 PUSH1 0x44 DUP3 ADD MSTORE PUSH1 0x64 SWAP1 REVERT JUMPDEST PUSH1 0x40 MLOAD PUSH3 0x461BCD PUSH1 0xE5 SHL DUP2 MSTORE PUSH1 0x20 PUSH1 0x4 DUP3 ADD MSTORE PUSH1 0x14 PUSH1 0x24 DUP3 ADD MSTORE PUSH20 0x125B9D985B1A59081391950818DBDB9D1C9858DD PUSH1 0x62 SHL PUSH1 0x44 DUP3 ADD MSTORE PUSH1 0x64 SWAP1 REVERT JUMPDEST PUSH1 0x40 MLOAD PUSH3 0x461BCD PUSH1 0xE5 SHL DUP2 MSTORE PUSH1 0x20 PUSH1 0x4 DUP3 ADD MSTORE PUSH1 0xE PUSH1 0x24 DUP3 ADD MSTORE PUSH14 0x496E76616C696420726F756E6473 PUSH1 0x90 SHL PUSH1 0x44 DUP3 ADD MSTORE PUSH1 0x64 SWAP1 REVERT JUMPDEST POP PUSH1 0x7 PUSH1 0xFF PUSH2 0x2675 PUSH1 0x84 PUSH1 0x4 CALLDATALOAD ADD PUSH2 0x2C3F JUMP JUMPDEST AND EQ PUSH2 0x1F9A JUMP JUMPDEST POP CALLVALUE PUSH2 0x2A9 JUMPI PUSH2 0x26D1 PUSH1 0x20 PUSH2 0x2690 CALLDATASIZE PUSH2 0x2B29 JUMP JUMPDEST SWAP2 SWAP1 PUSH2 0x269A PUSH2 0x2BE7 JUMP JUMPDEST PUSH1 0x40 MLOAD PUSH4 0xA9059CBB PUSH1 0xE0 SHL DUP2 MSTORE PUSH1 0x1 PUSH1 0x1 PUSH1 0xA0 SHL SUB SWAP1 SWAP2 AND PUSH1 0x4 DUP3 ADD MSTORE PUSH1 0x24 DUP2 ADD SWAP3 SWAP1 SWAP3 MSTORE SWAP1 SWAP3 DUP4 SWAP2 SWAP1 DUP3 SWAP1 DUP7 SWAP1 DUP3 SWAP1 PUSH1 0x44 DUP3 ADD SWAP1 JUMP JUMPDEST SUB SWAP3 PUSH1 0x1 PUSH1 0x1 PUSH1 0xA0 SHL SUB AND GAS CALL DUP1 ISZERO PUSH2 0xD1F JUMPI PUSH2 0x26EC JUMPI POP DUP1 RETURN JUMPDEST PUSH2 0x2703 SWAP1 PUSH1 0x20 RETURNDATASIZE DUP2 GT PUSH2 0x594 JUMPI PUSH2 0x585 DUP2 DUP4 PUSH2 0x2CFD JUMP JUMPDEST POP DUP1 RETURN JUMPDEST POP CALLVALUE PUSH2 0x2A9 JUMPI PUSH1 0x20 CALLDATASIZE PUSH1 0x3 NOT ADD SLT PUSH2 0x2A9 JUMPI DUP1 PUSH2 0x320 SWAP2 PUSH2 0x120 PUSH1 0x40 MLOAD PUSH2 0x272D DUP2 PUSH2 0x2C77 JUMP JUMPDEST DUP3 DUP2 MSTORE DUP3 PUSH1 0x20 DUP3 ADD MSTORE DUP3 PUSH1 0x40 DUP3 ADD MSTORE DUP3 PUSH1 0x60 DUP3 ADD MSTORE DUP3 PUSH1 0x80 DUP3 ADD MSTORE DUP3 PUSH1 0xA0 DUP3 ADD MSTORE DUP3 PUSH1 0xC0 DUP3 ADD MSTORE DUP3 PUSH1 0xE0 DUP3 ADD MSTORE DUP3 PUSH2 0x100 DUP3 ADD MSTORE ADD MSTORE DUP1 PUSH1 0xA0 PUSH1 0x40 MLOAD PUSH2 0x2772 DUP2 PUSH2 0x2C94 JUMP JUMPDEST DUP3 DUP2 MSTORE DUP3 PUSH1 0x20 DUP3 ADD MSTORE DUP3 PUSH1 0x40 DUP3 ADD MSTORE DUP3 PUSH1 0x60 DUP3 ADD MSTORE DUP3 PUSH1 0x80 DUP3 ADD MSTORE ADD MSTORE DUP1 PUSH2 0x100 PUSH1 0x40 MLOAD PUSH2 0x279F DUP2 PUSH2 0x2CB0 JUMP JUMPDEST DUP3 DUP2 MSTORE DUP3 PUSH1 0x20 DUP3 ADD MSTORE DUP3 PUSH1 0x40 DUP3 ADD MSTORE DUP3 PUSH1 0x60 DUP3 ADD MSTORE DUP3 PUSH1 0x80 DUP3 ADD MSTORE DUP3 PUSH1 0xA0 DUP3 ADD MSTORE DUP3 PUSH1 0xC0 DUP3 ADD MSTORE DUP3 PUSH1 0xE0 DUP3 ADD MSTORE ADD MSTORE PUSH1 0x4 CALLDATALOAD DUP2 MSTORE PUSH1 0x2 PUSH1 0x20 MSTORE PUSH2 0x100 PUSH1 0x40 DUP3 KECCAK256 PUSH1 0x3 PUSH1 0x20 MSTORE PUSH1 0xA0 PUSH2 0x27FB PUSH1 0x40 DUP1 DUP7 KECCAK256 SWAP6 PUSH1 0x4 PUSH1 0x20 MSTORE KECCAK256 SWAP3 PUSH2 0x2F25 JUMP JUMPDEST SWAP4 PUSH1 0x5 PUSH1 0x40 MLOAD SWAP2 PUSH2 0x280B DUP4 PUSH2 0x2C94 JUMP JUMPDEST DUP1 SLOAD DUP4 MSTORE PUSH2 0x2823 PUSH1 0xFF PUSH1 0x1 DUP4 ADD SLOAD AND PUSH1 0x20 DUP6 ADD PUSH2 0x2DAD JUMP JUMPDEST PUSH1 0x2 DUP2 ADD SLOAD PUSH1 0x40 DUP5 ADD MSTORE PUSH2 0x2841 PUSH1 0xFF PUSH1 0x3 DUP4 ADD SLOAD AND PUSH1 0x60 DUP6 ADD PUSH2 0x2DAD JUMP JUMPDEST PUSH1 0x4 DUP2 ADD SLOAD PUSH1 0x80 DUP5 ADD MSTORE ADD SLOAD DUP3 DUP3 ADD MSTORE PUSH1 0x4 PUSH1 0x40 MLOAD SWAP4 PUSH2 0x2860 DUP6 PUSH2 0x2CB0 JUMP JUMPDEST DUP1 SLOAD DUP6 MSTORE PUSH1 0x1 DUP2 ADD SLOAD PUSH1 0x20 DUP7 ADD MSTORE PUSH1 0x2 DUP2 ADD SLOAD PUSH1 0xFF DUP2 AND PUSH1 0x40 DUP8 ADD MSTORE PUSH1 0xFF DUP2 PUSH1 0x8 SHR AND PUSH1 0x60 DUP8 ADD MSTORE PUSH1 0xFF DUP2 PUSH1 0x10 SHR AND PUSH1 0x80 DUP8 ADD MSTORE PUSH1 0xFF DUP2 PUSH1 0x18 SHR AND DUP6 DUP8 ADD MSTORE PUSH1 0x1 DUP1 DUP7 SHL SUB SWAP1 PUSH1 0x20 SHR AND PUSH1 0xC0 DUP7 ADD MSTORE PUSH1 0x3 DUP2 ADD SLOAD PUSH1 0xE0 DUP7 ADD MSTORE ADD SLOAD DUP5 DUP5 ADD MSTORE PUSH2 0x120 PUSH1 0x40 MLOAD SWAP6 DUP1 MLOAD DUP8 MSTORE PUSH1 0x1 DUP1 DUP6 SHL SUB PUSH1 0x20 DUP3 ADD MLOAD AND PUSH1 0x20 DUP9 ADD MSTORE PUSH1 0x1 DUP1 DUP6 SHL SUB PUSH1 0x40 DUP3 ADD MLOAD AND PUSH1 0x40 DUP9 ADD MSTORE PUSH1 0x1 DUP1 DUP6 SHL SUB PUSH1 0x60 DUP3 ADD MLOAD AND PUSH1 0x60 DUP9 ADD MSTORE PUSH1 0x80 DUP2 ADD MLOAD PUSH1 0x80 DUP9 ADD MSTORE PUSH2 0x2917 DUP5 DUP3 ADD MLOAD DUP6 DUP10 ADD SWAP1 PUSH2 0x2AEF JUMP JUMPDEST PUSH1 0xC0 DUP2 ADD MLOAD PUSH2 0x2925 DUP2 PUSH2 0x2B12 JUMP JUMPDEST PUSH1 0xC0 DUP9 ADD MSTORE PUSH1 0xE0 DUP2 ADD MLOAD PUSH2 0x2938 DUP2 PUSH2 0x2B12 JUMP JUMPDEST PUSH1 0xE0 DUP9 ADD MSTORE DUP6 DUP2 ADD MLOAD PUSH2 0x294A DUP2 PUSH2 0x2B12 JUMP JUMPDEST DUP7 DUP9 ADD MSTORE ADD MLOAD PUSH2 0x2959 DUP2 PUSH2 0x2B12 JUMP JUMPDEST PUSH2 0x120 DUP7 ADD MSTORE DUP1 MLOAD PUSH2 0x140 DUP7 ADD MSTORE PUSH2 0x297A PUSH1 0x20 DUP3 ADD MLOAD PUSH2 0x160 DUP8 ADD SWAP1 PUSH2 0x2B1C JUMP JUMPDEST PUSH1 0x40 DUP2 ADD MLOAD PUSH2 0x180 DUP7 ADD MSTORE PUSH2 0x2998 PUSH1 0x60 DUP3 ADD MLOAD PUSH2 0x1A0 DUP8 ADD SWAP1 PUSH2 0x2B1C JUMP JUMPDEST PUSH1 0x80 DUP2 DUP2 ADD MLOAD PUSH2 0x1C0 DUP8 ADD MSTORE SWAP2 ADD MLOAD PUSH2 0x1E0 DUP6 ADD MSTORE DUP2 MLOAD PUSH2 0x200 DUP6 ADD MSTORE PUSH1 0x20 DUP3 ADD MLOAD PUSH2 0x220 DUP6 ADD MSTORE PUSH1 0x40 DUP3 ADD MLOAD PUSH1 0xFF SWAP1 DUP2 AND PUSH2 0x240 DUP7 ADD MSTORE PUSH1 0x60 DUP4 ADD MLOAD DUP2 AND PUSH2 0x260 DUP7 ADD MSTORE SWAP1 DUP3 ADD MLOAD DUP2 AND PUSH2 0x280 DUP6 ADD MSTORE PUSH1 0xA0 DUP3 ADD MLOAD AND PUSH2 0x2A0 DUP5 ADD MSTORE PUSH1 0xC0 DUP2 ADD MLOAD PUSH1 0x1 PUSH1 0x1 PUSH1 0xA0 SHL SUB AND PUSH2 0x2C0 DUP5 ADD MSTORE PUSH1 0xE0 DUP2 ADD MLOAD PUSH2 0x2E0 DUP5 ADD MSTORE ADD MLOAD PUSH2 0x300 DUP3 ADD MSTORE RETURN JUMPDEST POP CALLVALUE PUSH2 0x2A9 JUMPI PUSH1 0x20 CALLDATASIZE PUSH1 0x3 NOT ADD SLT PUSH2 0x2A9 JUMPI PUSH1 0x20 SWAP1 PUSH1 0x40 SWAP1 PUSH1 0x1 PUSH1 0x1 PUSH1 0xA0 SHL SUB PUSH2 0x2A46 PUSH2 0x2AD9 JUMP JUMPDEST AND DUP2 MSTORE PUSH1 0xA DUP4 MSTORE KECCAK256 SLOAD PUSH1 0x40 MLOAD SWAP1 DUP2 MSTORE RETURN JUMPDEST POP CALLVALUE PUSH2 0x2A9 JUMPI PUSH1 0x20 CALLDATASIZE PUSH1 0x3 NOT ADD SLT PUSH2 0x2A9 JUMPI PUSH32 0x5FB4654F1EFE30C6141EAA6855FFCB27E0B361D899B05E21B1A4D0B3E71E14DB PUSH1 0x20 PUSH1 0x4 CALLDATALOAD PUSH2 0x2A97 PUSH2 0x2BE7 JUMP JUMPDEST PUSH2 0x2AA6 PUSH3 0xF4240 DUP3 GT ISZERO PUSH2 0x303C JUMP JUMPDEST DUP1 PUSH1 0xE SSTORE PUSH1 0x40 MLOAD SWAP1 DUP2 MSTORE LOG1 DUP1 RETURN JUMPDEST SWAP1 POP CALLVALUE PUSH2 0xDEC JUMPI DUP2 PUSH1 0x3 NOT CALLDATASIZE ADD SLT PUSH2 0xDEC JUMPI PUSH1 0x12 SLOAD PUSH1 0x1 PUSH1 0x1 PUSH1 0xA0 SHL SUB AND DUP2 MSTORE PUSH1 0x20 SWAP1 RETURN JUMPDEST PUSH1 0x4 CALLDATALOAD SWAP1 PUSH1 0x1 PUSH1 0x1 PUSH1 0xA0 SHL SUB DUP3 AND DUP3 SUB PUSH2 0x6C8 JUMPI JUMP JUMPDEST SWAP1 PUSH1 0x6 DUP3 LT ISZERO PUSH2 0x2AFC JUMPI MSTORE JUMP JUMPDEST PUSH4 0x4E487B71 PUSH1 0xE0 SHL PUSH1 0x0 MSTORE PUSH1 0x21 PUSH1 0x4 MSTORE PUSH1 0x24 PUSH1 0x0 REVERT JUMPDEST PUSH1 0x2 GT ISZERO PUSH2 0x2AFC JUMPI JUMP JUMPDEST SWAP1 PUSH1 0x3 DUP3 LT ISZERO PUSH2 0x2AFC JUMPI MSTORE JUMP JUMPDEST PUSH1 0x60 SWAP1 PUSH1 0x3 NOT ADD SLT PUSH2 0x6C8 JUMPI PUSH1 0x1 PUSH1 0x1 PUSH1 0xA0 SHL SUB SWAP1 PUSH1 0x4 CALLDATALOAD DUP3 DUP2 AND DUP2 SUB PUSH2 0x6C8 JUMPI SWAP2 PUSH1 0x24 CALLDATALOAD SWAP1 DUP2 AND DUP2 SUB PUSH2 0x6C8 JUMPI SWAP1 PUSH1 0x44 CALLDATALOAD SWAP1 JUMP JUMPDEST PUSH1 0x40 SWAP1 PUSH1 0x3 NOT ADD SLT PUSH2 0x6C8 JUMPI PUSH1 0x4 CALLDATALOAD SWAP1 PUSH1 0x24 CALLDATALOAD PUSH1 0xFF DUP2 AND DUP2 SUB PUSH2 0x6C8 JUMPI SWAP1 JUMP JUMPDEST DUP1 SLOAD DUP3 LT ISZERO PUSH2 0x2B96 JUMPI PUSH1 0x0 MSTORE PUSH1 0x20 PUSH1 0x0 KECCAK256 ADD SWAP1 PUSH1 0x0 SWAP1 JUMP JUMPDEST PUSH4 0x4E487B71 PUSH1 0xE0 SHL PUSH1 0x0 MSTORE PUSH1 0x32 PUSH1 0x4 MSTORE PUSH1 0x24 PUSH1 0x0 REVERT JUMPDEST PUSH1 0x20 SWAP1 DUP2 PUSH1 0x40 DUP2 DUP4 ADD SWAP3 DUP3 DUP2 MSTORE DUP6 MLOAD DUP1 SWAP5 MSTORE ADD SWAP4 ADD SWAP2 PUSH1 0x0 JUMPDEST DUP3 DUP2 LT PUSH2 0x2BD3 JUMPI POP POP POP POP SWAP1 JUMP JUMPDEST DUP4 MLOAD DUP6 MSTORE SWAP4 DUP2 ADD SWAP4 SWAP3 DUP2 ADD SWAP3 PUSH1 0x1 ADD PUSH2 0x2BC5 JUMP JUMPDEST PUSH1 0x1 SLOAD PUSH1 0x1 PUSH1 0x1 PUSH1 0xA0 SHL SUB AND CALLER SUB PUSH2 0x2BFB JUMPI JUMP JUMPDEST PUSH1 0x64 PUSH1 0x40 MLOAD PUSH3 0x461BCD PUSH1 0xE5 SHL DUP2 MSTORE PUSH1 0x20 PUSH1 0x4 DUP3 ADD MSTORE PUSH1 0x20 PUSH1 0x24 DUP3 ADD MSTORE PUSH32 0x4F776E61626C653A2063616C6C6572206973206E6F7420746865206F776E6572 PUSH1 0x44 DUP3 ADD MSTORE REVERT JUMPDEST CALLDATALOAD PUSH1 0xFF DUP2 AND DUP2 SUB PUSH2 0x6C8 JUMPI SWAP1 JUMP JUMPDEST PUSH1 0x84 CALLDATALOAD PUSH1 0x1 PUSH1 0x1 PUSH1 0xA0 SHL SUB DUP2 AND DUP2 SUB PUSH2 0x6C8 JUMPI SWAP1 JUMP JUMPDEST CALLDATALOAD PUSH1 0x1 PUSH1 0x1 PUSH1 0xA0 SHL SUB DUP2 AND DUP2 SUB PUSH2 0x6C8 JUMPI SWAP1 JUMP JUMPDEST PUSH2 0x140 DUP2 ADD SWAP1 DUP2 LT PUSH8 0xFFFFFFFFFFFFFFFF DUP3 GT OR PUSH2 0x18EF JUMPI PUSH1 0x40 MSTORE JUMP JUMPDEST PUSH1 0xC0 DUP2 ADD SWAP1 DUP2 LT PUSH8 0xFFFFFFFFFFFFFFFF DUP3 GT OR PUSH2 0x18EF JUMPI PUSH1 0x40 MSTORE JUMP JUMPDEST PUSH2 0x120 DUP2 ADD SWAP1 DUP2 LT PUSH8 0xFFFFFFFFFFFFFFFF DUP3 GT OR PUSH2 0x18EF JUMPI PUSH1 0x40 MSTORE JUMP JUMPDEST PUSH8 0xFFFFFFFFFFFFFFFF DUP2 GT PUSH2 0x18EF JUMPI PUSH1 0x40 MSTORE JUMP JUMPDEST PUSH1 0x60 DUP2 ADD SWAP1 DUP2 LT PUSH8 0xFFFFFFFFFFFFFFFF DUP3 GT OR PUSH2 0x18EF JUMPI PUSH1 0x40 MSTORE JUMP JUMPDEST SWAP1 PUSH1 0x1F DUP1 NOT SWAP2 ADD AND DUP2 ADD SWAP1 DUP2 LT PUSH8 0xFFFFFFFFFFFFFFFF DUP3 GT OR PUSH2 0x18EF JUMPI PUSH1 0x40 MSTORE JUMP JUMPDEST PUSH1 0x0 NOT DUP2 EQ PUSH2 0x2D2E JUMPI PUSH1 0x1 ADD SWAP1 JUMP JUMPDEST PUSH4 0x4E487B71 PUSH1 0xE0 SHL PUSH1 0x0 MSTORE PUSH1 0x11 PUSH1 0x4 MSTORE PUSH1 0x24 PUSH1 0x0 REVERT JUMPDEST SWAP1 PUSH2 0x2D4E DUP2 PUSH2 0x2B12 JUMP JUMPDEST PUSH3 0xFF0000 DUP3 SLOAD SWAP2 PUSH1 0x10 SHL AND SWAP1 PUSH3 0xFF0000 NOT AND OR SWAP1 SSTORE JUMP JUMPDEST SWAP1 PUSH2 0x2D6F DUP2 PUSH2 0x2B12 JUMP JUMPDEST PUSH4 0xFF000000 DUP3 SLOAD SWAP2 PUSH1 0x18 SHL AND SWAP1 PUSH4 0xFF000000 NOT AND OR SWAP1 SSTORE JUMP JUMPDEST SWAP1 PUSH2 0x2D92 DUP2 PUSH2 0x2B12 JUMP JUMPDEST PUSH5 0xFF00000000 DUP3 SLOAD SWAP2 PUSH1 0x20 SHL AND SWAP1 PUSH5 0xFF00000000 NOT AND OR SWAP1 SSTORE JUMP JUMPDEST PUSH1 0x3 DUP3 LT ISZERO PUSH2 0x2AFC JUMPI MSTORE JUMP JUMPDEST SWAP1 PUSH1 0x3 DUP2 LT ISZERO PUSH2 0x2AFC JUMPI PUSH1 0xFF DUP1 NOT DUP4 SLOAD AND SWAP2 AND OR SWAP1 SSTORE JUMP JUMPDEST SWAP2 SWAP1 DUP3 ADD DUP1 SWAP3 GT PUSH2 0x2D2E JUMPI JUMP JUMPDEST SWAP1 DUP2 SLOAD SWAP2 PUSH9 0x10000000000000000 DUP4 LT ISZERO PUSH2 0x18EF JUMPI DUP3 PUSH2 0x2E06 SWAP2 PUSH1 0x1 PUSH2 0x2E1F SWAP6 ADD DUP2 SSTORE PUSH2 0x2B7E JUMP JUMPDEST SWAP1 SWAP2 SWAP1 DUP3 SLOAD SWAP1 PUSH1 0x3 SHL SWAP2 DUP3 SHL SWAP2 PUSH1 0x0 NOT SWAP1 SHL NOT AND OR SWAP1 SSTORE JUMP JUMPDEST JUMP JUMPDEST SWAP2 SWAP1 DUP3 SUB SWAP2 DUP3 GT PUSH2 0x2D2E JUMPI JUMP JUMPDEST PUSH1 0xFF PUSH1 0x1 SLOAD PUSH1 0xA0 SHR AND PUSH2 0x2E3D JUMPI JUMP JUMPDEST PUSH1 0x40 MLOAD PUSH3 0x461BCD PUSH1 0xE5 SHL DUP2 MSTORE PUSH1 0x20 PUSH1 0x4 DUP3 ADD MSTORE PUSH1 0x10 PUSH1 0x24 DUP3 ADD MSTORE PUSH16 0x14185D5CD8589B194E881C185D5CD959 PUSH1 0x82 SHL PUSH1 0x44 DUP3 ADD MSTORE PUSH1 0x64 SWAP1 REVERT JUMPDEST PUSH1 0x2 PUSH1 0x0 SLOAD EQ PUSH2 0x2E86 JUMPI PUSH1 0x2 PUSH1 0x0 SSTORE JUMP JUMPDEST PUSH1 0x40 MLOAD PUSH3 0x461BCD PUSH1 0xE5 SHL DUP2 MSTORE PUSH1 0x20 PUSH1 0x4 DUP3 ADD MSTORE PUSH1 0x1F PUSH1 0x24 DUP3 ADD MSTORE PUSH32 0x5265656E7472616E637947756172643A207265656E7472616E742063616C6C00 PUSH1 0x44 DUP3 ADD MSTORE PUSH1 0x64 SWAP1 REVERT JUMPDEST ISZERO PUSH2 0x2ED2 JUMPI JUMP JUMPDEST PUSH1 0x40 MLOAD PUSH3 0x461BCD PUSH1 0xE5 SHL DUP2 MSTORE PUSH1 0x20 PUSH1 0x4 DUP3 ADD MSTORE PUSH1 0x13 PUSH1 0x24 DUP3 ADD MSTORE PUSH19 0x11D85B5948191BD95CC81B9BDD08195E1A5CDD PUSH1 0x6A SHL PUSH1 0x44 DUP3 ADD MSTORE PUSH1 0x64 SWAP1 REVERT JUMPDEST SWAP1 DUP2 PUSH1 0x20 SWAP2 SUB SLT PUSH2 0x6C8 JUMPI MLOAD DUP1 ISZERO ISZERO DUP2 SUB PUSH2 0x6C8 JUMPI SWAP1 JUMP JUMPDEST SWAP1 PUSH1 0x40 MLOAD PUSH2 0x2F32 DUP2 PUSH2 0x2C77 JUMP JUMPDEST PUSH1 0x5 DUP2 SWAP4 DUP1 SLOAD DUP4 MSTORE PUSH1 0x1 DUP1 PUSH1 0xA0 SHL SUB DUP1 PUSH1 0x1 DUP4 ADD SLOAD AND PUSH1 0x20 DUP6 ADD MSTORE DUP1 PUSH1 0x2 DUP4 ADD SLOAD AND PUSH1 0x40 DUP6 ADD MSTORE PUSH1 0x3 DUP3 ADD SLOAD AND PUSH1 0x60 DUP5 ADD MSTORE PUSH1 0x4 DUP2 ADD SLOAD PUSH1 0x80 DUP5 ADD MSTORE ADD SLOAD PUSH1 0xFF DUP2 AND PUSH1 0x6 DUP2 LT ISZERO PUSH2 0x2AFC JUMPI PUSH2 0x120 SWAP2 PUSH1 0xFF SWAP2 PUSH1 0xA0 DUP6 ADD MSTORE DUP2 DUP2 PUSH1 0x8 SHR AND PUSH2 0x2F98 DUP2 PUSH2 0x2B12 JUMP JUMPDEST PUSH1 0xC0 DUP6 ADD MSTORE DUP2 DUP2 PUSH1 0x10 SHR AND PUSH2 0x2FAC DUP2 PUSH2 0x2B12 JUMP JUMPDEST PUSH1 0xE0 DUP6 ADD MSTORE DUP2 DUP2 PUSH1 0x18 SHR AND PUSH2 0x2FC0 DUP2 PUSH2 0x2B12 JUMP JUMPDEST PUSH2 0x100 DUP6 ADD MSTORE PUSH1 0x20 SHR AND SWAP2 PUSH2 0x2FD4 DUP4 PUSH2 0x2B12 JUMP JUMPDEST ADD MSTORE JUMP JUMPDEST PUSH1 0xFF AND PUSH1 0xFF DUP2 EQ PUSH2 0x2D2E JUMPI PUSH1 0x1 ADD SWAP1 JUMP JUMPDEST DUP2 DUP2 MUL SWAP3 SWAP2 DUP2 ISZERO SWAP2 DUP5 DIV EQ OR ISZERO PUSH2 0x2D2E JUMPI JUMP JUMPDEST DUP1 SLOAD SWAP1 DUP2 ISZERO PUSH2 0x3026 JUMPI PUSH1 0x0 NOT SWAP2 DUP3 ADD SWAP2 PUSH2 0x3016 DUP4 DUP4 PUSH2 0x2B7E JUMP JUMPDEST SWAP1 SWAP2 DUP3 SLOAD SWAP2 PUSH1 0x3 SHL SHL NOT AND SWAP1 SSTORE SSTORE JUMP JUMPDEST PUSH4 0x4E487B71 PUSH1 0xE0 SHL PUSH1 0x0 MSTORE PUSH1 0x31 PUSH1 0x4 MSTORE PUSH1 0x24 PUSH1 0x0 REVERT JUMPDEST ISZERO PUSH2 0x3043 JUMPI JUMP JUMPDEST PUSH1 0x40 MLOAD PUSH3 0x461BCD PUSH1 0xE5 SHL DUP2 MSTORE PUSH1 0x20 PUSH1 0x4 DUP3 ADD MSTORE PUSH1 0xC PUSH1 0x24 DUP3 ADD MSTORE PUSH12 0x8CCACA40E8DEDE40D0D2CED PUSH1 0xA3 SHL PUSH1 0x44 DUP3 ADD MSTORE PUSH1 0x64 SWAP1 REVERT JUMPDEST MLOAD SWAP1 PUSH10 0xFFFFFFFFFFFFFFFFFFFF DUP3 AND DUP3 SUB PUSH2 0x6C8 JUMPI JUMP JUMPDEST PUSH1 0x10 SLOAD PUSH1 0x40 MLOAD PUSH4 0x3FABE5A3 PUSH1 0xE2 SHL DUP2 MSTORE PUSH1 0x4 SWAP3 SWAP2 PUSH1 0x1 PUSH1 0x1 PUSH1 0xA0 SHL SUB AND SWAP1 PUSH1 0xA0 DUP2 DUP6 DUP2 DUP6 GAS STATICCALL SWAP2 DUP3 ISZERO PUSH2 0x31B4 JUMPI DUP5 SWAP2 PUSH1 0x0 SWAP4 PUSH2 0x31C0 JUMPI JUMPDEST POP PUSH1 0x20 SWAP1 PUSH1 0x40 MLOAD SWAP3 DUP4 DUP1 SWAP3 PUSH4 0x313CE567 PUSH1 0xE0 SHL DUP3 MSTORE GAS STATICCALL SWAP1 DUP2 ISZERO PUSH2 0x31B4 JUMPI PUSH1 0x0 SWAP2 PUSH2 0x3178 JUMPI JUMPDEST POP PUSH1 0xFF AND PUSH1 0x12 SUB PUSH1 0xFF DUP2 GT PUSH2 0x3163 JUMPI PUSH1 0xFF AND PUSH1 0x4D DUP2 GT PUSH2 0x3163 JUMPI SWAP1 PUSH2 0x3113 SWAP2 PUSH1 0xA EXP SWAP1 PUSH2 0x2FE9 JUMP JUMPDEST SWAP2 PUSH8 0xDE0B6B3A7640000 SWAP2 DUP3 DUP2 MUL SWAP3 DUP2 DUP5 DIV EQ SWAP1 ISZERO OR ISZERO PUSH2 0x314E JUMPI DUP3 ISZERO PUSH2 0x3139 JUMPI POP DIV SWAP1 JUMP JUMPDEST PUSH1 0x12 SWAP1 PUSH4 0x4E487B71 PUSH1 0xE0 SHL PUSH1 0x0 MSTORE MSTORE PUSH1 0x24 PUSH1 0x0 REVERT JUMPDEST PUSH1 0x11 SWAP1 PUSH4 0x4E487B71 PUSH1 0xE0 SHL PUSH1 0x0 MSTORE MSTORE PUSH1 0x24 PUSH1 0x0 REVERT JUMPDEST PUSH1 0x11 DUP5 PUSH4 0x4E487B71 PUSH1 0xE0 SHL PUSH1 0x0 MSTORE MSTORE PUSH1 0x24 PUSH1 0x0 REVERT JUMPDEST PUSH1 0x20 DUP2 RETURNDATASIZE DUP3 GT PUSH2 0x31AC JUMPI JUMPDEST DUP2 PUSH2 0x3190 PUSH1 0x20 SWAP4 DUP4 PUSH2 0x2CFD JUMP JUMPDEST DUP2 ADD SUB SLT PUSH2 0xDEC JUMPI MLOAD SWAP1 PUSH1 0xFF DUP3 AND DUP3 SUB PUSH2 0x2A9 JUMPI POP PUSH1 0xFF PUSH2 0x30EB JUMP JUMPDEST RETURNDATASIZE SWAP2 POP PUSH2 0x3183 JUMP JUMPDEST PUSH1 0x40 MLOAD RETURNDATASIZE PUSH1 0x0 DUP3 RETURNDATACOPY RETURNDATASIZE SWAP1 REVERT JUMPDEST SWAP2 POP SWAP2 PUSH1 0xA0 DUP3 RETURNDATASIZE DUP3 GT PUSH2 0x320A JUMPI JUMPDEST DUP2 PUSH2 0x31DB PUSH1 0xA0 SWAP4 DUP4 PUSH2 0x2CFD JUMP JUMPDEST DUP2 ADD SUB SLT PUSH2 0x2A9 JUMPI POP PUSH1 0x20 DUP2 PUSH2 0x31F1 DUP7 SWAP4 PUSH2 0x3077 JUMP JUMPDEST POP PUSH2 0x3202 PUSH1 0x80 DUP4 DUP4 ADD MLOAD SWAP3 ADD PUSH2 0x3077 JUMP JUMPDEST POP SWAP3 SWAP1 PUSH2 0x30C5 JUMP JUMPDEST RETURNDATASIZE SWAP2 POP PUSH2 0x31CE JUMP JUMPDEST PUSH1 0x0 MSTORE PUSH1 0x3 PUSH1 0x20 MSTORE PUSH1 0x40 PUSH1 0x0 KECCAK256 SLOAD SWAP1 PUSH1 0x3 DUP2 LT ISZERO PUSH2 0x2AFC JUMPI DUP1 PUSH2 0x323C JUMPI POP PUSH2 0x3239 SWAP1 PUSH2 0x308E JUMP JUMPDEST SWAP1 JUMP JUMPDEST PUSH1 0x1 EQ PUSH2 0x3239 JUMPI PUSH1 0x40 MLOAD PUSH3 0x461BCD PUSH1 0xE5 SHL DUP2 MSTORE PUSH1 0x20 PUSH1 0x4 DUP3 ADD MSTORE PUSH1 0x11 PUSH1 0x24 DUP3 ADD MSTORE PUSH17 0x2AB739BAB83837B93A32B2103A37B5B2B7 PUSH1 0x79 SHL PUSH1 0x44 DUP3 ADD MSTORE PUSH1 0x64 SWAP1 REVERT JUMPDEST PUSH1 0x1 PUSH1 0x1 PUSH1 0xA0 SHL SUB AND PUSH1 0x0 SWAP1 DUP2 MSTORE PUSH1 0x8 PUSH1 0x20 MSTORE PUSH1 0x40 DUP2 KECCAK256 SWAP1 SWAP2 DUP3 JUMPDEST DUP3 SLOAD DUP1 DUP3 LT ISZERO PUSH2 0x3314 JUMPI DUP3 SWAP1 PUSH2 0x32AD DUP4 DUP7 PUSH2 0x2B7E JUMP JUMPDEST SWAP3 SWAP1 SLOAD PUSH1 0x3 SWAP4 DUP5 SHL SHR EQ PUSH2 0x32CB JUMPI POP POP PUSH2 0x32C6 SWAP1 PUSH2 0x2D1F JUMP JUMPDEST PUSH2 0x3297 JUMP JUMPDEST SWAP2 SWAP4 SWAP5 SWAP1 SWAP3 POP PUSH1 0x0 NOT DUP3 ADD SWAP2 DUP3 GT PUSH2 0x3300 JUMPI POP SWAP2 PUSH2 0x2E06 PUSH2 0x1D1F SWAP3 PUSH2 0x32F4 DUP7 SWAP6 PUSH2 0x2E1F SWAP8 PUSH2 0x2B7E JUMP JUMPDEST SWAP1 SLOAD SWAP2 SHL SHR SWAP2 DUP5 PUSH2 0x2B7E JUMP JUMPDEST PUSH4 0x4E487B71 PUSH1 0xE0 SHL DUP2 MSTORE PUSH1 0x11 PUSH1 0x4 MSTORE PUSH1 0x24 SWAP1 REVERT JUMPDEST POP POP POP POP POP JUMP INVALID LOG2 PUSH5 0x6970667358 0x22 SLT KECCAK256 SWAP15 SWAP7 0xDE 0x5C SWAP16 MSTORE PUSH21 0x52B56BE3852EDEF2F2643A41CC1CC03FAEF57E05BC PUSH10 0x76130C64736F6C634300 ADDMOD EQ STOP CALLER "},"methodIdentifiers":{"BASIS_POINTS()":"e1f1c4a7","MAX_FEE_PERCENT()":"67d81740","cancelGame(uint256)":"69958ab9","createGame((address,uint256,uint256,uint8,uint8,uint8,string))":"284f6910","emergencyWithdrawETH(address,uint256)":"d79e8567","emergencyWithdrawNFT(address,uint256,address)":"b1a81295","emergencyWithdrawToken(address,address,uint256)":"277327a5","ethUsdFeed()":"8009b7bd","flipCoin(uint256,uint8)":"70f11e9a","gameCores(uint256)":"abf1b86e","gameFinancials(uint256)":"8057cbbb","gameProgress(uint256)":"dbb19dad","gameRounds(uint256,uint8)":"7b09a1f4","getETHAmount(uint256)":"ef46b2ab","getGameDetails(uint256)":"1b31abda","getRequiredPaymentAmount(uint256,uint8)":"b0fb5845","getUserActiveGames(address)":"afb68096","getUserUnclaimedNFTs(address,address)":"c292b391","joinGame((uint256,uint8,uint8,uint8,address,uint256))":"baf47188","listingFeeUSD()":"3a38d063","nextGameId()":"b135bbb0","nftChallenges(uint256)":"5e37ef51","owner()":"8da5cb5b","paused()":"5c975abb","platformFeePercent()":"8c639a85","platformFeeReceiver()":"2d656ad7","renounceOwnership()":"715018a6","setListingFee(uint256)":"131dbd09","setPlatformFeePercent(uint256)":"cab230d2","transferOwnership(address)":"f2fde38b","unclaimedETH(address)":"1a68b691","unclaimedNFTs(address,address,uint256)":"aa4209b8","unclaimedUSDC(address)":"95d11520","usdcToken()":"11eac855","usdcUsdFeed()":"4d9a75e5","userActiveGames(address,uint256)":"f1ab45d7","userGames(address,uint256)":"bc0167cd","userNFTsInContract(address,address,uint256)":"8cbe09ed","withdrawAllNFTs()":"b6596727","withdrawNFT(address,uint256)":"6088e93a","withdrawRewards()":"c7b8981c"}}}}}