{"contracts/NFTFlipGame.sol":{"NFTFlipGame":{"abi":[{"inputs":[{"internalType":"address","name":"_ethUsdFeed","type":"address"},{"internalType":"address","name":"_usdcToken","type":"address"},{"internalType":"address","name":"_platformFeeReceiver","type":"address"}],"stateMutability":"nonpayable","type":"constructor"},{"anonymous":false,"inputs":[{"indexed":true,"internalType":"bytes32","name":"gameId","type":"bytes32"},{"indexed":false,"internalType":"address","name":"player","type":"address"},{"indexed":false,"internalType":"bool","name":"isNFT","type":"bool"},{"indexed":false,"internalType":"enum NFTFlipGame.PaymentToken","name":"paymentToken","type":"uint8"}],"name":"AssetsDeposited","type":"event"},{"anonymous":false,"inputs":[{"indexed":true,"internalType":"bytes32","name":"gameId","type":"bytes32"},{"indexed":false,"internalType":"address","name":"player","type":"address"}],"name":"AssetsReclaimed","type":"event"},{"anonymous":false,"inputs":[{"indexed":true,"internalType":"bytes32","name":"gameId","type":"bytes32"},{"indexed":false,"internalType":"string","name":"reason","type":"string"}],"name":"GameCancelled","type":"event"},{"anonymous":false,"inputs":[{"indexed":true,"internalType":"bytes32","name":"gameId","type":"bytes32"},{"indexed":false,"internalType":"address","name":"winner","type":"address"}],"name":"GameCompleted","type":"event"},{"anonymous":false,"inputs":[{"indexed":true,"internalType":"bytes32","name":"gameId","type":"bytes32"},{"indexed":false,"internalType":"address","name":"player1","type":"address"},{"indexed":false,"internalType":"address","name":"player2","type":"address"},{"indexed":false,"internalType":"enum NFTFlipGame.PaymentToken","name":"paymentToken","type":"uint8"}],"name":"GameCreated","type":"event"},{"anonymous":false,"inputs":[{"indexed":true,"internalType":"bytes32","name":"gameId","type":"bytes32"}],"name":"GameStarted","type":"event"},{"anonymous":false,"inputs":[{"indexed":true,"internalType":"address","name":"creator","type":"address"},{"indexed":false,"internalType":"uint256","name":"amount","type":"uint256"}],"name":"ListingFeePaid","type":"event"},{"anonymous":false,"inputs":[{"indexed":true,"internalType":"address","name":"previousOwner","type":"address"},{"indexed":true,"internalType":"address","name":"newOwner","type":"address"}],"name":"OwnershipTransferred","type":"event"},{"anonymous":false,"inputs":[{"indexed":false,"internalType":"address","name":"account","type":"address"}],"name":"Paused","type":"event"},{"anonymous":false,"inputs":[{"indexed":false,"internalType":"address","name":"account","type":"address"}],"name":"Unpaused","type":"event"},{"inputs":[],"name":"BASIS_POINTS","outputs":[{"internalType":"uint256","name":"","type":"uint256"}],"stateMutability":"view","type":"function"},{"inputs":[{"internalType":"address[]","name":"nftContracts","type":"address[]"},{"internalType":"uint256[]","name":"tokenIds","type":"uint256[]"},{"internalType":"address[]","name":"recipients","type":"address[]"}],"name":"adminBatchWithdrawNFTs","outputs":[],"stateMutability":"nonpayable","type":"function"},{"inputs":[{"internalType":"bytes32","name":"gameId","type":"bytes32"}],"name":"canDeposit","outputs":[{"internalType":"bool","name":"","type":"bool"}],"stateMutability":"view","type":"function"},{"inputs":[{"internalType":"bytes32","name":"gameId","type":"bytes32"}],"name":"canStartGame","outputs":[{"internalType":"bool","name":"","type":"bool"}],"stateMutability":"view","type":"function"},{"inputs":[{"internalType":"bytes32","name":"gameId","type":"bytes32"}],"name":"cancelGame","outputs":[],"stateMutability":"nonpayable","type":"function"},{"inputs":[{"internalType":"bytes32","name":"gameId","type":"bytes32"},{"internalType":"address","name":"winner","type":"address"}],"name":"completeGame","outputs":[],"stateMutability":"nonpayable","type":"function"},{"inputs":[{"internalType":"bytes32","name":"gameId","type":"bytes32"}],"name":"depositETH","outputs":[],"stateMutability":"payable","type":"function"},{"inputs":[{"internalType":"bytes32","name":"gameId","type":"bytes32"}],"name":"depositNFT","outputs":[],"stateMutability":"nonpayable","type":"function"},{"inputs":[],"name":"depositTimeout","outputs":[{"internalType":"uint256","name":"","type":"uint256"}],"stateMutability":"view","type":"function"},{"inputs":[{"internalType":"bytes32","name":"gameId","type":"bytes32"},{"internalType":"uint256","name":"amount","type":"uint256"}],"name":"depositUSDC","outputs":[],"stateMutability":"nonpayable","type":"function"},{"inputs":[],"name":"emergencyPause","outputs":[],"stateMutability":"nonpayable","type":"function"},{"inputs":[],"name":"emergencyWithdrawETH","outputs":[],"stateMutability":"nonpayable","type":"function"},{"inputs":[{"internalType":"address","name":"nftContract","type":"address"},{"internalType":"uint256","name":"tokenId","type":"uint256"},{"internalType":"address","name":"to","type":"address"}],"name":"emergencyWithdrawNFT","outputs":[],"stateMutability":"nonpayable","type":"function"},{"inputs":[],"name":"ethUsdFeed","outputs":[{"internalType":"contract AggregatorV3Interface","name":"","type":"address"}],"stateMutability":"view","type":"function"},{"inputs":[{"internalType":"bytes32","name":"","type":"bytes32"}],"name":"games","outputs":[{"internalType":"address","name":"player1","type":"address"},{"internalType":"address","name":"player2","type":"address"},{"internalType":"address","name":"nftContract","type":"address"},{"internalType":"uint256","name":"tokenId","type":"uint256"},{"internalType":"uint256","name":"ethAmount","type":"uint256"},{"internalType":"uint256","name":"usdcAmount","type":"uint256"},{"internalType":"enum NFTFlipGame.PaymentToken","name":"paymentToken","type":"uint8"},{"internalType":"uint256","name":"depositTime","type":"uint256"},{"internalType":"bool","name":"player1Deposited","type":"bool"},{"internalType":"bool","name":"player2Deposited","type":"bool"},{"internalType":"bool","name":"completed","type":"bool"},{"internalType":"address","name":"winner","type":"address"}],"stateMutability":"view","type":"function"},{"inputs":[{"internalType":"uint256","name":"usdAmount","type":"uint256"}],"name":"getETHAmount","outputs":[{"internalType":"uint256","name":"","type":"uint256"}],"stateMutability":"view","type":"function"},{"inputs":[{"internalType":"bytes32","name":"gameId","type":"bytes32"}],"name":"getGameDetails","outputs":[{"internalType":"address","name":"player1","type":"address"},{"internalType":"address","name":"player2","type":"address"},{"internalType":"address","name":"nftContract","type":"address"},{"internalType":"uint256","name":"tokenId","type":"uint256"},{"internalType":"uint256","name":"ethAmount","type":"uint256"},{"internalType":"uint256","name":"usdcAmount","type":"uint256"},{"internalType":"enum NFTFlipGame.PaymentToken","name":"paymentToken","type":"uint8"},{"internalType":"uint256","name":"depositTime","type":"uint256"},{"internalType":"bool","name":"player1Deposited","type":"bool"},{"internalType":"bool","name":"player2Deposited","type":"bool"},{"internalType":"bool","name":"completed","type":"bool"},{"internalType":"address","name":"winner","type":"address"}],"stateMutability":"view","type":"function"},{"inputs":[{"internalType":"uint256","name":"usdAmount","type":"uint256"}],"name":"getUSDCAmount","outputs":[{"internalType":"uint256","name":"","type":"uint256"}],"stateMutability":"pure","type":"function"},{"inputs":[{"internalType":"address","name":"user","type":"address"}],"name":"getUserGames","outputs":[{"internalType":"bytes32[]","name":"","type":"bytes32[]"}],"stateMutability":"view","type":"function"},{"inputs":[{"internalType":"bytes32","name":"gameId","type":"bytes32"},{"internalType":"address","name":"player1","type":"address"},{"internalType":"address","name":"player2","type":"address"},{"internalType":"address","name":"nftContract","type":"address"},{"internalType":"uint256","name":"tokenId","type":"uint256"},{"internalType":"uint256","name":"priceUSD","type":"uint256"},{"internalType":"enum NFTFlipGame.PaymentToken","name":"paymentToken","type":"uint8"}],"name":"initializeGame","outputs":[],"stateMutability":"nonpayable","type":"function"},{"inputs":[],"name":"listingFeeUSD","outputs":[{"internalType":"uint256","name":"","type":"uint256"}],"stateMutability":"view","type":"function"},{"inputs":[{"internalType":"address","name":"","type":"address"}],"name":"listingFees","outputs":[{"internalType":"uint256","name":"","type":"uint256"}],"stateMutability":"view","type":"function"},{"inputs":[],"name":"owner","outputs":[{"internalType":"address","name":"","type":"address"}],"stateMutability":"view","type":"function"},{"inputs":[],"name":"paused","outputs":[{"internalType":"bool","name":"","type":"bool"}],"stateMutability":"view","type":"function"},{"inputs":[{"internalType":"bytes32","name":"gameId","type":"bytes32"},{"internalType":"address","name":"nftContract","type":"address"},{"internalType":"uint256","name":"tokenId","type":"uint256"},{"internalType":"uint256","name":"priceUSD","type":"uint256"},{"internalType":"enum NFTFlipGame.PaymentToken","name":"paymentToken","type":"uint8"}],"name":"payFeeAndCreateGame","outputs":[],"stateMutability":"payable","type":"function"},{"inputs":[],"name":"payListingFee","outputs":[],"stateMutability":"payable","type":"function"},{"inputs":[],"name":"platformFeePercent","outputs":[{"internalType":"uint256","name":"","type":"uint256"}],"stateMutability":"view","type":"function"},{"inputs":[],"name":"platformFeeReceiver","outputs":[{"internalType":"address","name":"","type":"address"}],"stateMutability":"view","type":"function"},{"inputs":[{"internalType":"bytes32","name":"gameId","type":"bytes32"}],"name":"reclaimAssets","outputs":[],"stateMutability":"nonpayable","type":"function"},{"inputs":[],"name":"renounceOwnership","outputs":[],"stateMutability":"nonpayable","type":"function"},{"inputs":[{"internalType":"uint256","name":"newTimeout","type":"uint256"}],"name":"setDepositTimeout","outputs":[],"stateMutability":"nonpayable","type":"function"},{"inputs":[{"internalType":"uint256","name":"newFee","type":"uint256"}],"name":"setListingFee","outputs":[],"stateMutability":"nonpayable","type":"function"},{"inputs":[{"internalType":"uint256","name":"newPercent","type":"uint256"}],"name":"setPlatformFee","outputs":[],"stateMutability":"nonpayable","type":"function"},{"inputs":[{"internalType":"address","name":"newOwner","type":"address"}],"name":"transferOwnership","outputs":[],"stateMutability":"nonpayable","type":"function"},{"inputs":[],"name":"unpause","outputs":[],"stateMutability":"nonpayable","type":"function"},{"inputs":[{"internalType":"bytes32","name":"gameId","type":"bytes32"},{"internalType":"address","name":"player2","type":"address"},{"internalType":"uint256","name":"priceUSD","type":"uint256"},{"internalType":"enum NFTFlipGame.PaymentToken","name":"paymentToken","type":"uint8"}],"name":"updateGameWithPlayer2","outputs":[],"stateMutability":"nonpayable","type":"function"},{"inputs":[],"name":"usdcToken","outputs":[{"internalType":"address","name":"","type":"address"}],"stateMutability":"view","type":"function"},{"inputs":[{"internalType":"address","name":"","type":"address"},{"internalType":"uint256","name":"","type":"uint256"}],"name":"userGames","outputs":[{"internalType":"bytes32","name":"","type":"bytes32"}],"stateMutability":"view","type":"function"}],"evm":{"bytecode":{"linkReferences":{},"object":"6080346200011257601f6200314f38819003918201601f19168301916001600160401b03831184841017620001175780849260609460405283398101031262000112576200004d816200012d565b62000069604062000061602085016200012d565b93016200012d565b916001600055600154926040519360018060a01b03928391338382167f8be0079c531659141344cd1fd0a4f28419497f9722a3daafe3b4186f6b6457e0600080a36001600160a81b0319163360ff60a01b19161760015562030d4060055561015e60065561012c600755600980546001600160a01b0319908116968416969096179055600a805486169190921617905560088054909316911617905561300c9081620001438239f35b600080fd5b634e487b7160e01b600052604160045260246000fd5b51906001600160a01b0382168203620001125756fe6080806040526004908136101561001557600080fd5b60009060e08235811c91826311eac855146127a557508163120aace6146126f757816312e8e2c31461269b578163131dbd09146126795781631fd462cd1461265a57816327627373146125d55781632d656ad7146125ac5781633a38d0631461258e5781633f4ba83a146124ef5781633f7121b0146123d457816351858e271461237157816357177224146121d55781635c975abb146121af578163615318c714612191578163691ddd7d14611f145781636dbf276314611a8f578163715018a614611a315781637c34c3551461174a5781637f80e6f2146116545781638009b7bd1461162b57816384536017146115b65781638a1fa0291461144d5781638c639a851461142f5781638da5cb5b14611406578163a077932e146112a6578163b1a8129514611203578163b262f41f14611149578163bc0167cd146110f1578163c775126914610de1578163cb9a263014610a69578163d68d9d4e146107da578163e1f1c4a7146107bd578163e9df30271461048d578163ef46b2ab14610466578163f060ad4c1461042d578163f2fde38b14610362578163f372e33c14610254575063f579f882146101c757600080fd5b34610251576020366003190112610251576040908235815260026020522061024d60018060a01b039182815416908360018201541690846002820154169260038201549682015491600581015460ff6006830154169060086007840154930154946040519a8b9a8760181c169860ff8860101c169860ff808a60081c169916978d61282f565b0390f35b80fd5b8391503461035e57602036600319011261035e57604060209383358152600285522091600860405193610286856129f3565b80546001600160a01b039081168652600182015481168787015260028201548116604087015260038201546060870152928101546080860152600581015460a086015260068101546102de9060ff1660c08701612bdc565b6007810154809486015201549260ff8416151561010082015260ff8460081c1615156101208201528160ff8560101c161594851561014084015260181c16610160820152511615159182610356575b508161033f575b506040519015158152f35b61034d9150600754906129a6565b42111582610334565b91508361032d565b8280fd5b8284346104295760203660031901126104295761037d6127ca565b610385612902565b6001600160a01b039081169182156103d65750600154826001600160601b0360a01b821617600155167f8be0079c531659141344cd1fd0a4f28419497f9722a3daafe3b4186f6b6457e0600080a380f35b60849060206040519162461bcd60e51b8352820152602660248201527f4f776e61626c653a206e6577206f776e657220697320746865207a65726f206160448201526564647265737360d01b6064820152fd5b5080fd5b8234610251576020366003190112610251576020906040906001600160a01b036104556127ca565b168152600383522054604051908152f35b5050346102515760203660031901126102515760206104858335612ea3565b604051908152f35b828434610429576040366003190112610429578035906104ab6127e0565b6104b3612902565b6104bb612b44565b82845260209160028352604085209160018060a01b039283815416936104e2851515612c63565b6008820180546104f860ff8260101c1615612e09565b60ff8116806107b0575b15610775578285169687148015610766575b156107315762010000600160b81b031916601885901b6301000000600160b81b031617620100001790558781600284015416600384015490803b1561035e57604080516323b872dd60e01b815230818a019081526001600160a01b0389166020820152918201939093528391839182908490829060600103925af180156107265761070e575b505060ff60068301541660028110156106fb57889392919061063d57508280928582930154905af16105ca612a32565b50156106035750907f0bf6aee0a93e0c0696509fac1649343cafc5bf013811646e438330fe86e4c15f915b604051908152a26001815580f35b60405162461bcd60e51b81529081018390526013602482015272115512081d1c985b9cd9995c8819985a5b1959606a1b6044820152606490fd5b600a54600592909201546040805163a9059cbb60e01b81526001600160a01b03959095169685019687526020870191909152929695948694889491859003909101928492165af19283156106f0577f0bf6aee0a93e0c0696509fac1649343cafc5bf013811646e438330fe86e4c15f936106be9187916106c3575b50612dc6565b6105f5565b6106e39150843d86116106e9575b6106db8183612a10565b810190612dae565b876106b8565b503d6106d1565b6040513d87823e3d90fd5b634e487b7160e01b895260218552602489fd5b610717906129c9565b61072257878961059a565b8780fd5b6040513d84823e3d90fd5b60405162461bcd60e51b8152808701899052600e60248201526d24b73b30b634b2103bb4b73732b960911b6044820152606490fd5b50826001850154168714610514565b60405162461bcd60e51b81528087018990526014602482015273105cdcd95d1cc81b9bdd0819195c1bdcda5d195960621b6044820152606490fd5b5060ff8160081c16610502565b823461025157806003193601126102515760206040516127108152f35b826020853660031901821361035e578035916107f4612b44565b6107fc612afd565b828452600281526040842060018101546001600160a01b0392919061082f908416610828811515612c63565b3314612d60565b600881019283549460ff95610849878260081c1615612ce2565b610858878260101c1615612ca5565b61087461086c6007860154600754906129a6565b421115612d22565b6006840193878554166002811015610a5657610a205782019182549361271061089f60065487612d9b565b04928534106109e9578b80858194610100839561ff001916178d55600854165af16108c8612a32565b50156109a55750867f981102f46f858a9ad42e0e3924c2ee3ddb912d9d6d28768155ffdb174c81711f946060948461090661092a958d9a9754612ab4565b90558b81341161097d575b505054168960405193338552840152604083019061280c565ba254908082169182610970575b5050610946575b506001815580f35b7fee5528ba4f234f658c6a97a7e3cba5532e7aad23bb249be4141b62e6a0158a7c8280a28161093e565b60081c1690508380610937565b80808061098d61099e9534612ab4565b335af1610998612a32565b50612ac1565b8b8b610911565b60405162461bcd60e51b8152908101869052601c60248201527f506c6174666f726d20666565207472616e73666572206661696c6564000000006044820152606490fd5b60405162461bcd60e51b8152808401899052601060248201526f092dce6eaccccd2c6d2cadce8408aa8960831b6044820152606490fd5b60405162461bcd60e51b8152808401879052600f60248201526e4e6f7420616e204554482067616d6560881b6044820152606490fd5b634e487b7160e01b8b526021845260248bfd5b8284346104295760603660031901126104295767ffffffffffffffff908035828111610ca257610a9c90369083016128d1565b9190926024928335828111610ddd57610ab890369085016128d1565b6044938435908111610dd957610ad190369087016128d1565b610adc929192612902565b81851480610dd0575b15610d8e579288928a98959289955b848710610aff578a80f35b9899979896976001600160a01b0397909688610b24610b1f83898b612fb2565b612fc2565b1615610d555788610b39610b1f838588612fb2565b1615610d1f5788610b4e610b1f83898b612fb2565b16988c610b5c838689612fb2565b359a6040519b8c926331a9108f60e11b8452830152818d60209d8e935afa8a9181610ce7575b50610bca575060405162461bcd60e51b8152808e018b9052601d818d01527f4661696c656420746f20636865636b204e4654206f776e657273686970000000818e0152606490fd5b81929394959697989c999d9a9130911603610ca657508b90610bf0610b1f848a8f612fb2565b16610bff610b1f848689612fb2565b610c0a84878a612fb2565b35823b15610ca257604080516323b872dd60e01b815230818f019081526001600160a01b0390941660208501529083019190915291839183919082908490829060600103925af1801561072657610c8a575b50506000198114610c7857600101959796989493929190610af4565b634e487b7160e01b8b5260118852888bfd5b610c93906129c9565b610c9e578a8c610c5c565b8a80fd5b8380fd5b897f436f6e747261637420646f6573206e6f74206f776e2074686973204e465400008a601e8e6064956040519562461bcd60e51b8752860152840152820152fd5b9091508b81813d8311610d18575b610cff8183612a10565b81010312610c9e57518281168103610c9e57908f610b82565b503d610cf5565b60405162461bcd60e51b81526020818e01526011818c015270125b9d985b1a59081c9958da5c1a595b9d607a1b818d0152606490fd5b60405162461bcd60e51b81526020818e01526014818c015273125b9d985b1a59081391950818dbdb9d1c9858dd60621b818d0152606490fd5b60405162461bcd60e51b81526020818901526018818a01527f4172726179206c656e67746873206d757374206d61746368000000000000000081880152606490fd5b50808214610ae5565b8880fd5b8680fd5b90508260a036600319011261035e57610df86127e0565b916084359260028410156110ed57610e0e612b44565b610e16612afd565b610e21600554612ea3565b91610e2e8334101561295a565b338652600360205260408620610e458482546129a6565b9055610e6a868080808760018060a01b03600854165af1610e64612a32565b50612a72565b8335865260026020526040862054610e8b906001600160a01b031615612b9a565b8580866110e35750610e9e606435612ea3565b60405193610eab856129f3565b338552602085018990526001600160a01b031660408501526044356060850152608084015260a0830152610ee28560c08401612bdc565b428183015285610100830152856101208301528561014083015285610160830152833586526002602052604086209060018060a01b038351166001600160601b0360a01b90818454161783556001830160018060a01b0360208601511682825416179055600283019060018060a01b03604086015116908254161790556060830151600383015560808301518583015560a0830151600583015560c083015160028110156110d0579260088361104c93610fc47f212c0bdcf42696e85cddf68fc1623b3327138b7898282f7356ab7ec713e9cf329997600660609a9801612be8565b83015160078201550190610feb6101008201511515839060ff801983541691151516179055565b610120810151825461ff00191690151560081b61ff0016178255610140810151825462ff0000191690151560101b62ff000016178255610160015181546301000000600160b81b03191660189190911b6301000000600160b81b0316179055565b33865281602052611061823560408820612c00565b8034116110ba575b6040519081527f3a5f70a82eb571b0a884a01d171c139c6ec5169ba9e11e00d211cb4f76391e1460203392a26110b06040519433865260006020870152604086019061280c565b3592a26001815580f35b6110cb8680808061098d8634612ab4565b611069565b634e487b7160e01b885260218652602488fd5b6064359150610e9e565b8480fd5b5050346102515760403660031901126102515761110c6127ca565b6001600160a01b03168152602091909152604081208054602435929083101561025157602061113b84846128a3565b90546040519160031b1c8152f35b82806003193601126102515761115d612b44565b611165612afd565b611170600554612ea3565b61117c8134101561295a565b3382526003602052604082206111938282546129a6565b90556111b2828080808560018060a01b03600854165af1610e64612a32565b8034116111ed575b6040519081527f3a5f70a82eb571b0a884a01d171c139c6ec5169ba9e11e00d211cb4f76391e1460203392a26001815580f35b6111fe8280808061098d8634612ab4565b6111ba565b828085346112a35760603660031901126112a35761121f6127ca565b6112276127f6565b90611230612902565b6001600160a01b031691823b1561129e57604080516323b872dd60e01b8152309281019283526001600160a01b039093166020830152602435908201529091839183919082908490829060600103925af180156107265761128e5750f35b611297906129c9565b6102515780f35b505050fd5b50fd5b5050346102515760803660031901126102515781356112c36127e0565b60643560443560028210156110ed576112da612902565b83855260026020526040852080546001600160a01b0392906112ff9084161515612c63565b60018201908154918483166113cb57917f212c0bdcf42696e85cddf68fc1623b3327138b7898282f7356ab7ec713e9cf3297989991849361134e60ff60086113ac9998015460101c1615612ca5565b85891680936001600160601b0360a01b1617905542600785015586156000146113b25761137a90612ea3565b8383015560068301805460ff191690555b895260205261139d8760408a20612c00565b54169160405193849384612c3a565b0390a280f35b600584015560068301805460ff1916600117905561138b565b60405162461bcd60e51b81526020818c01526014602482015273141b185e595c880c88185b1c9958591e481cd95d60621b6044820152606490fd5b82346102515780600319360112610251576001546040516001600160a01b039091168152602090f35b82346102515780600319360112610251576020600654604051908152f35b9190503461025157602036600319011261025157823581526002602052604081209160405161147b816129f3565b60018060a01b03845416815260018060a01b03600185015416926020820193845260018060a01b03600286015416946040830195865260038101549360608401948552878201549260808501938452600860058401549360a087019485526114ed60ff60068301541660c08901612bdc565b6007810154938701938452015460ff8082161515610100880152600882901c81161515610120880152601082901c16151561014087015260181c6001600160a01b0390811661016087015285519751985196519451935160c0870151998216999882169897909116969092909160028310156115a3575061024d97989950519161010086015115159361012087015115159561014088015115159761016060018060a01b0391015116986040519c8d9c8d61282f565b634e487b7160e01b815260218b52602490fd5b8284346104295781600319360112610429576115d0612902565b8180808060018060a01b036001541647905af16115eb612a32565b50156115f5575080f35b60649060206040519162461bcd60e51b8352820152600f60248201526e151c985b9cd9995c8819985a5b1959608a1b6044820152fd5b82346102515780600319360112610251576009546040516001600160a01b039091168152602090f35b9050823461035e57602036600319011261035e576008604060209483358152600286522060405193611685856129f3565b81546001600160a01b039081168652600183015481168787015260028301548116604087015260038301546060870152938201546080860152600582015460a086015260068201546116dd9060ff1660c08701612bdc565b60078201549085015201549060ff82161515928361010082015261016060ff8460081c161515928361012084015260ff8560101c161594851561014085015260181c1691015282611742575b508161173a57506040519015158152f35b905082610334565b915083611729565b82843461042957604036600319011261042957803590611768612b44565b611770612afd565b818352600260209081526040842060018101546001600160a01b0392919061179f908416610828811515612c63565b6008810192835460ff956117b8878360081c1615612ce2565b6117c7878360101c1615612ca5565b6117db61086c6007860154600754906129a6565b6006840193878554166002811015611a1e576001036119e85760050192835461271061180960065483612d9b565b049381602435106119b05761ff001916610100178855600a54604080516323b872dd60e01b815233868201908152306020820152918201939093528c9392918991839185169082908790829060600103925af19182156119a557611879899387936118b496916119885750612dc6565b80600a541690600854168d60405180968195829463a9059cbb60e01b84528a840160209093929193604081019460018060a01b031681520152565b03925af190811561197d578a91611960575b501561191c57509261092a867f981102f46f858a9ad42e0e3924c2ee3ddb912d9d6d28768155ffdb174c81711f94846119038b9860609754612ab4565b905554168960405193338552840152604083019061280c565b60405162461bcd60e51b8152908101859052601860248201527f5553444320666565207472616e73666572206661696c656400000000000000006044820152606490fd5b6119779150863d88116106e9576106db8183612a10565b8a6118c6565b6040513d8c823e3d90fd5b61199f9150853d87116106e9576106db8183612a10565b8f6106b8565b6040513d85823e3d90fd5b60405162461bcd60e51b81528085018990526011602482015270496e73756666696369656e74205553444360781b6044820152606490fd5b60405162461bcd60e51b8152808301879052600f60248201526e4e6f74206120555344432067616d6560881b6044820152606490fd5b634e487b7160e01b8b526021835260248bfd5b8234610251578060031936011261025157611a4a612902565b600180546001600160a01b031981169091556000906001600160a01b03167f8be0079c531659141344cd1fd0a4f28419497f9722a3daafe3b4186f6b6457e08280a380f35b828434610429576020908160031936011261035e57803591611aaf612b44565b8284526002815260408420805490926001600160a01b0391821690611ad5821515612c63565b6008850191825460ff91611aee838360101c1615612ca5565b611aff6007890154600754906129a6565b421115611eda5733148015611ecb575b15611e985788939291908181168080611e8b575b15611bef575050508386541691611b3b833314612e4e565b805462ff000019166201000017905560028601546003870154908516803b156110ed57604080516323b872dd60e01b8152309481019485526001600160a01b039095166020850152830191909152839183919082908490829060600103925af1801561072657611bdb575b50507fbeb9db71629193a6a8d82214e24ce084d5f6b1c980d4cda5cec9139a2ea33832925416604051908152a25b6001815580f35b611be4906129c9565b6110ed578486611ba6565b90919596979392945015808091611e7f575b15611df357505060018201938585541691611c1d833314612e4e565b805462ff00001916620100001790556006830154166002811015611de0578892918791611ce857505081808092611c6b8689895416920154612710611c6460065483612d9b565b04906129a6565b905af1611c76612a32565b5015611cb05750907fbeb9db71629193a6a8d82214e24ce084d5f6b1c980d4cda5cec9139a2ea3383292915b5416604051908152a2611bd4565b60405162461bcd60e51b81529081018490526011602482015270115512081c99599d5b990819985a5b1959607a1b6044820152606490fd5b9091611d3d9350611d0b600588600a5416920154612710611c6460065483612d9b565b918a60405180968195829463a9059cbb60e01b84528a840160209093929193604081019460018060a01b031681520152565b03925af1908115611dd5578791611db8575b5015611d7f5750907fbeb9db71629193a6a8d82214e24ce084d5f6b1c980d4cda5cec9139a2ea338329291611ca2565b60405162461bcd60e51b815290810184905260126024820152711554d110c81c99599d5b990819985a5b195960721b6044820152606490fd5b611dcf9150853d87116106e9576106db8183612a10565b87611d4f565b6040513d89823e3d90fd5b634e487b7160e01b895260218452602489fd5b935094509492905081611e71575b50611e10575b50505050611bd4565b7fd48b0c9992d8d4b8967d1584dc8c1955390d9ff30639a7da9c77e7f0db86c3d8926201000060609362ff000019161790556010604051918083528201526f4e6f206465706f73697473206d61646560801b6040820152a281808080611e07565b90508260081c161586611e01565b50858260081c16611c01565b50828260081c1615611b23565b60405162461bcd60e51b8152808401879052600c60248201526b2737ba103090383630bcb2b960a11b6044820152606490fd5b50846001880154163314611b0f565b60405162461bcd60e51b81528085018890526013602482015272151a5b595bdd5d081b9bdd081c995858da1959606a1b6044820152606490fd5b905034610429578060031936011261042957823590611f316127e0565b611f396127f6565b916001600160a01b0390606435828116919082900361218c5760c4359260a4356002851015610dd95790888089888a898f978598611f75612902565b8587526002602052611f8d8960408920541615612b9a565b869182846121845750611f9f90612ea3565b8960405196611fad886129f3565b169b8c87528a6020880196169d8e875260408801908152606088019160843583526080890193845260a0890195865260c0890196611feb9088612bdc565b88019642885261010089019d8e528c8b6101208b019b818d526101408c019d8e526101608c019e8f528152600260205260409020995116906001600160601b0360a01b91828b5416178a558d60018b01915116828254161790558c60028a0192511690825416179055516003870155519085015551600584015551600281101561217057937f212c0bdcf42696e85cddf68fc1623b3327138b7898282f7356ab7ec713e9cf329d9e9f9896936120f1906120da6008866113ac9f9e9c99966120bd61210a9860066121309e9b01612be8565b5160078201550197511515889060ff801983541691151516179055565b51865461ff00191690151560081b61ff0016178655565b51845462ff0000191690151560101b62ff000016178455565b5182546301000000600160b81b031916911660181b6301000000600160b81b0316179055565b8952816020526121438860408b20612c00565b80612157575b505060405193849384612c3a565b88526020526121698660408920612c00565b3880612149565b8f8f6021602492634e487b7160e01b835252fd5b925091611f9f565b600080fd5b82346102515780600319360112610251576020600754604051908152f35b8234610251578060031936011261025157602060ff60015460a01c166040519015158152f35b828434610429576020366003190112610429578035906121f3612b44565b6121fb612afd565b81835260026020526040832080546001600160a01b0392908316612220811515612c63565b330361233e5784600883019361224960ff865461223f82821615612ce2565b60101c1615612ca5565b61225d61086c6007860154600754906129a6565b600284015416600384015490803b1561035e57604080516323b872dd60e01b81523395810195865230602087015290850192909252909283919082908490829060600103925af180156106f05761232a575b5083600191847f981102f46f858a9ad42e0e3924c2ee3ddb912d9d6d28768155ffdb174c81711f606060ff6006885495888319881617809a5501541661230560405191338352886020840152604083019061280c565ba21617908161231c575b5061094657506001815580f35b60ff915060081c168361230f565b93612337600192956129c9565b93906122af565b60649060206040519162461bcd60e51b8352820152600c60248201526b4e6f7420706c61796572203160a01b6044820152fd5b823461025157806003193601126102515761238a612902565b612392612afd565b6001805460ff60a01b1916600160a01b1790556040513381527f62e78cea01bee320cd4e420270b5ea74000d11b0c9f74754ebdbfc544b05a25890602090a180f35b828434610429576020366003190112610429578035906123f2612902565b818352600260205260408320805460089190612418906001600160a01b03161515612c63565b019081549061242d60ff8360101c1615612e09565b60ff821615806124e1575b1561249d5750620100009062ff000019161790557fd48b0c9992d8d4b8967d1584dc8c1955390d9ff30639a7da9c77e7f0db86c3d8606060405160208152601360208201527243616e63656c6c65642062792073797374656d60681b6040820152a280f35b60649060206040519162461bcd60e51b8352820152601c60248201527f43616e6e6f742063616e63656c206166746572206465706f73697473000000006044820152fd5b5060ff8260081c1615612438565b828434610429578160031936011261042957612509612902565b6001549060ff8260a01c1615612553575060ff60a01b19166001556040513381527f5db9ee0a495bf2e6ff9c91a7834c1ba4fdd244a5e8aa4e537bd38aeae4b073aa90602090a180f35b60649060206040519162461bcd60e51b8352820152601460248201527314185d5cd8589b194e881b9bdd081c185d5cd95960621b6044820152fd5b82346102515780600319360112610251576020600554604051908152f35b82346102515780600319360112610251576008546040516001600160a01b039091168152602090f35b828434610429576020366003190112610429578035906125f3612902565b603c8210158061264e575b1561260a575060075580f35b60649060206040519162461bcd60e51b8352820152601c60248201527f54696d656f7574206d75737420626520312d3130206d696e75746573000000006044820152fd5b506102588211156125fe565b8284346104295760203660031901126104295760209060405190358152f35b82843461042957602036600319011261042957612694612902565b3560055580f35b828434610429576020366003190112610429578035906126b9612902565b6103e882116126c9575060065580f35b60649060206040519162461bcd60e51b835282015260076024820152664d61782031302560c81b6044820152fd5b828434610429576020908160031936011261035e576001600160a01b0361271c6127ca565b16835281526040822060405192838383549182815201908193835284832090835b8181106127915750505084612753910385612a10565b60405193838594850191818652518092526040850193925b82811061277a57505050500390f35b83518552869550938101939281019260010161276b565b82548452928601926001928301920161273d565b839034610429578160031936011261042957600a546001600160a01b03168152602090f35b600435906001600160a01b038216820361218c57565b602435906001600160a01b038216820361218c57565b604435906001600160a01b038216820361218c57565b9060028210156128195752565b634e487b7160e01b600052602160045260246000fd5b9a979491999693909c9b9895929c6101808c019d8c600160a01b60019003809d8180951683521690602001521660408c015260608b015260808a015260a089015260c0880161287d9161280c565b60e087015215156101008601521515610120850152151561014084015216906101600152565b80548210156128bb5760005260206000200190600090565b634e487b7160e01b600052603260045260246000fd5b9181601f8401121561218c5782359167ffffffffffffffff831161218c576020808501948460051b01011161218c57565b6001546001600160a01b0316330361291657565b606460405162461bcd60e51b815260206004820152602060248201527f4f776e61626c653a2063616c6c6572206973206e6f7420746865206f776e65726044820152fd5b1561296157565b60405162461bcd60e51b815260206004820152601860248201527f496e73756666696369656e74206c697374696e672066656500000000000000006044820152606490fd5b919082018092116129b357565b634e487b7160e01b600052601160045260246000fd5b67ffffffffffffffff81116129dd57604052565b634e487b7160e01b600052604160045260246000fd5b610180810190811067ffffffffffffffff8211176129dd57604052565b90601f8019910116810190811067ffffffffffffffff8211176129dd57604052565b3d15612a6d573d9067ffffffffffffffff82116129dd5760405191612a61601f8201601f191660200184612a10565b82523d6000602084013e565b606090565b15612a7957565b60405162461bcd60e51b8152602060048201526013602482015272119959481d1c985b9cd9995c8819985a5b1959606a1b6044820152606490fd5b919082039182116129b357565b15612ac857565b60405162461bcd60e51b815260206004820152600d60248201526c1499599d5b990819985a5b1959609a1b6044820152606490fd5b60ff60015460a01c16612b0c57565b60405162461bcd60e51b815260206004820152601060248201526f14185d5cd8589b194e881c185d5cd95960821b6044820152606490fd5b600260005414612b55576002600055565b60405162461bcd60e51b815260206004820152601f60248201527f5265656e7472616e637947756172643a207265656e7472616e742063616c6c006044820152606490fd5b15612ba157565b60405162461bcd60e51b815260206004820152601360248201527247616d6520616c72656164792065786973747360681b6044820152606490fd5b60028210156128195752565b9060028110156128195760ff80198354169116179055565b8054680100000000000000008110156129dd57612c22916001820181556128a3565b819291549060031b91821b91600019901b1916179055565b6001600160a01b03918216815291166020820152606081019291612c61916040019061280c565b565b15612c6a57565b60405162461bcd60e51b815260206004820152601360248201527211d85b5948191bd95cc81b9bdd08195e1a5cdd606a1b6044820152606490fd5b15612cac57565b60405162461bcd60e51b815260206004820152600e60248201526d11d85b594818dbdb5c1b195d195960921b6044820152606490fd5b15612ce957565b60405162461bcd60e51b8152602060048201526011602482015270105b1c9958591e4819195c1bdcda5d1959607a1b6044820152606490fd5b15612d2957565b60405162461bcd60e51b815260206004820152600f60248201526e11195c1bdcda5d081d1a5b595bdd5d608a1b6044820152606490fd5b15612d6757565b60405162461bcd60e51b815260206004820152600c60248201526b2737ba10383630bcb2b9101960a11b6044820152606490fd5b818102929181159184041417156129b357565b9081602091031261218c5751801515810361218c5790565b15612dcd57565b60405162461bcd60e51b81526020600482015260146024820152731554d110c81d1c985b9cd9995c8819985a5b195960621b6044820152606490fd5b15612e1057565b60405162461bcd60e51b815260206004820152601660248201527511d85b5948185b1c9958591e4818dbdb5c1b195d195960521b6044820152606490fd5b15612e5557565b60405162461bcd60e51b815260206004820152600f60248201526e4e6f7420796f75722061737365747360881b6044820152606490fd5b519069ffffffffffffffffffff8216820361218c57565b600954604051633fabe5a360e21b8152919060a090839060049082906001600160a01b03165afa918215612fa657600092612f58575b506000821315612f1e5768056bc75e2d63100000908181029181830414901517156129b3578115612f08570490565b634e487b7160e01b600052601260045260246000fd5b60405162461bcd60e51b8152602060048201526012602482015271125b9d985b1a59081c1c9a58d9481999595960721b6044820152606490fd5b909160a0823d8211612f9e575b81612f7260a09383612a10565b810103126102515750612f8481612e8c565b50612f96608060208301519201612e8c565b509038612ed9565b3d9150612f65565b6040513d6000823e3d90fd5b91908110156128bb5760051b0190565b356001600160a01b038116810361218c579056fea264697066735822122044a81092badc90a3000fa5c4355274de645c62e331b493a77e28f33c21749fff64736f6c63430008140033","opcodes":"PUSH1 0x80 CALLVALUE PUSH3 0x112 JUMPI PUSH1 0x1F PUSH3 0x314F CODESIZE DUP2 SWAP1 SUB SWAP2 DUP3 ADD PUSH1 0x1F NOT AND DUP4 ADD SWAP2 PUSH1 0x1 PUSH1 0x1 PUSH1 0x40 SHL SUB DUP4 GT DUP5 DUP5 LT OR PUSH3 0x117 JUMPI DUP1 DUP5 SWAP3 PUSH1 0x60 SWAP5 PUSH1 0x40 MSTORE DUP4 CODECOPY DUP2 ADD SUB SLT PUSH3 0x112 JUMPI PUSH3 0x4D DUP2 PUSH3 0x12D JUMP JUMPDEST PUSH3 0x69 PUSH1 0x40 PUSH3 0x61 PUSH1 0x20 DUP6 ADD PUSH3 0x12D JUMP JUMPDEST SWAP4 ADD PUSH3 0x12D JUMP JUMPDEST SWAP2 PUSH1 0x1 PUSH1 0x0 SSTORE PUSH1 0x1 SLOAD SWAP3 PUSH1 0x40 MLOAD SWAP4 PUSH1 0x1 DUP1 PUSH1 0xA0 SHL SUB SWAP3 DUP4 SWAP2 CALLER DUP4 DUP3 AND PUSH32 0x8BE0079C531659141344CD1FD0A4F28419497F9722A3DAAFE3B4186F6B6457E0 PUSH1 0x0 DUP1 LOG3 PUSH1 0x1 PUSH1 0x1 PUSH1 0xA8 SHL SUB NOT AND CALLER PUSH1 0xFF PUSH1 0xA0 SHL NOT AND OR PUSH1 0x1 SSTORE PUSH3 0x30D40 PUSH1 0x5 SSTORE PUSH2 0x15E PUSH1 0x6 SSTORE PUSH2 0x12C PUSH1 0x7 SSTORE PUSH1 0x9 DUP1 SLOAD PUSH1 0x1 PUSH1 0x1 PUSH1 0xA0 SHL SUB NOT SWAP1 DUP2 AND SWAP7 DUP5 AND SWAP7 SWAP1 SWAP7 OR SWAP1 SSTORE PUSH1 0xA DUP1 SLOAD DUP7 AND SWAP2 SWAP1 SWAP3 AND OR SWAP1 SSTORE PUSH1 0x8 DUP1 SLOAD SWAP1 SWAP4 AND SWAP2 AND OR SWAP1 SSTORE PUSH2 0x300C SWAP1 DUP2 PUSH3 0x143 DUP3 CODECOPY RETURN JUMPDEST PUSH1 0x0 DUP1 REVERT JUMPDEST PUSH4 0x4E487B71 PUSH1 0xE0 SHL PUSH1 0x0 MSTORE PUSH1 0x41 PUSH1 0x4 MSTORE PUSH1 0x24 PUSH1 0x0 REVERT JUMPDEST MLOAD SWAP1 PUSH1 0x1 PUSH1 0x1 PUSH1 0xA0 SHL SUB DUP3 AND DUP3 SUB PUSH3 0x112 JUMPI JUMP INVALID PUSH1 0x80 DUP1 PUSH1 0x40 MSTORE PUSH1 0x4 SWAP1 DUP2 CALLDATASIZE LT ISZERO PUSH2 0x15 JUMPI PUSH1 0x0 DUP1 REVERT JUMPDEST PUSH1 0x0 SWAP1 PUSH1 0xE0 DUP3 CALLDATALOAD DUP2 SHR SWAP2 DUP3 PUSH4 0x11EAC855 EQ PUSH2 0x27A5 JUMPI POP DUP2 PUSH4 0x120AACE6 EQ PUSH2 0x26F7 JUMPI DUP2 PUSH4 0x12E8E2C3 EQ PUSH2 0x269B JUMPI DUP2 PUSH4 0x131DBD09 EQ PUSH2 0x2679 JUMPI DUP2 PUSH4 0x1FD462CD EQ PUSH2 0x265A JUMPI DUP2 PUSH4 0x27627373 EQ PUSH2 0x25D5 JUMPI DUP2 PUSH4 0x2D656AD7 EQ PUSH2 0x25AC JUMPI DUP2 PUSH4 0x3A38D063 EQ PUSH2 0x258E JUMPI DUP2 PUSH4 0x3F4BA83A EQ PUSH2 0x24EF JUMPI DUP2 PUSH4 0x3F7121B0 EQ PUSH2 0x23D4 JUMPI DUP2 PUSH4 0x51858E27 EQ PUSH2 0x2371 JUMPI DUP2 PUSH4 0x57177224 EQ PUSH2 0x21D5 JUMPI DUP2 PUSH4 0x5C975ABB EQ PUSH2 0x21AF JUMPI DUP2 PUSH4 0x615318C7 EQ PUSH2 0x2191 JUMPI DUP2 PUSH4 0x691DDD7D EQ PUSH2 0x1F14 JUMPI DUP2 PUSH4 0x6DBF2763 EQ PUSH2 0x1A8F JUMPI DUP2 PUSH4 0x715018A6 EQ PUSH2 0x1A31 JUMPI DUP2 PUSH4 0x7C34C355 EQ PUSH2 0x174A JUMPI DUP2 PUSH4 0x7F80E6F2 EQ PUSH2 0x1654 JUMPI DUP2 PUSH4 0x8009B7BD EQ PUSH2 0x162B JUMPI DUP2 PUSH4 0x84536017 EQ PUSH2 0x15B6 JUMPI DUP2 PUSH4 0x8A1FA029 EQ PUSH2 0x144D JUMPI DUP2 PUSH4 0x8C639A85 EQ PUSH2 0x142F JUMPI DUP2 PUSH4 0x8DA5CB5B EQ PUSH2 0x1406 JUMPI DUP2 PUSH4 0xA077932E EQ PUSH2 0x12A6 JUMPI DUP2 PUSH4 0xB1A81295 EQ PUSH2 0x1203 JUMPI DUP2 PUSH4 0xB262F41F EQ PUSH2 0x1149 JUMPI DUP2 PUSH4 0xBC0167CD EQ PUSH2 0x10F1 JUMPI DUP2 PUSH4 0xC7751269 EQ PUSH2 0xDE1 JUMPI DUP2 PUSH4 0xCB9A2630 EQ PUSH2 0xA69 JUMPI DUP2 PUSH4 0xD68D9D4E EQ PUSH2 0x7DA JUMPI DUP2 PUSH4 0xE1F1C4A7 EQ PUSH2 0x7BD JUMPI DUP2 PUSH4 0xE9DF3027 EQ PUSH2 0x48D JUMPI DUP2 PUSH4 0xEF46B2AB EQ PUSH2 0x466 JUMPI DUP2 PUSH4 0xF060AD4C EQ PUSH2 0x42D JUMPI DUP2 PUSH4 0xF2FDE38B EQ PUSH2 0x362 JUMPI DUP2 PUSH4 0xF372E33C EQ PUSH2 0x254 JUMPI POP PUSH4 0xF579F882 EQ PUSH2 0x1C7 JUMPI PUSH1 0x0 DUP1 REVERT JUMPDEST CALLVALUE PUSH2 0x251 JUMPI PUSH1 0x20 CALLDATASIZE PUSH1 0x3 NOT ADD SLT PUSH2 0x251 JUMPI PUSH1 0x40 SWAP1 DUP3 CALLDATALOAD DUP2 MSTORE PUSH1 0x2 PUSH1 0x20 MSTORE KECCAK256 PUSH2 0x24D PUSH1 0x1 DUP1 PUSH1 0xA0 SHL SUB SWAP2 DUP3 DUP2 SLOAD AND SWAP1 DUP4 PUSH1 0x1 DUP3 ADD SLOAD AND SWAP1 DUP5 PUSH1 0x2 DUP3 ADD SLOAD AND SWAP3 PUSH1 0x3 DUP3 ADD SLOAD SWAP7 DUP3 ADD SLOAD SWAP2 PUSH1 0x5 DUP2 ADD SLOAD PUSH1 0xFF PUSH1 0x6 DUP4 ADD SLOAD AND SWAP1 PUSH1 0x8 PUSH1 0x7 DUP5 ADD SLOAD SWAP4 ADD SLOAD SWAP5 PUSH1 0x40 MLOAD SWAP11 DUP12 SWAP11 DUP8 PUSH1 0x18 SHR AND SWAP9 PUSH1 0xFF DUP9 PUSH1 0x10 SHR AND SWAP9 PUSH1 0xFF DUP1 DUP11 PUSH1 0x8 SHR AND SWAP10 AND SWAP8 DUP14 PUSH2 0x282F JUMP JUMPDEST SUB SWAP1 RETURN JUMPDEST DUP1 REVERT JUMPDEST DUP4 SWAP2 POP CALLVALUE PUSH2 0x35E JUMPI PUSH1 0x20 CALLDATASIZE PUSH1 0x3 NOT ADD SLT PUSH2 0x35E JUMPI PUSH1 0x40 PUSH1 0x20 SWAP4 DUP4 CALLDATALOAD DUP2 MSTORE PUSH1 0x2 DUP6 MSTORE KECCAK256 SWAP2 PUSH1 0x8 PUSH1 0x40 MLOAD SWAP4 PUSH2 0x286 DUP6 PUSH2 0x29F3 JUMP JUMPDEST DUP1 SLOAD PUSH1 0x1 PUSH1 0x1 PUSH1 0xA0 SHL SUB SWAP1 DUP2 AND DUP7 MSTORE PUSH1 0x1 DUP3 ADD SLOAD DUP2 AND DUP8 DUP8 ADD MSTORE PUSH1 0x2 DUP3 ADD SLOAD DUP2 AND PUSH1 0x40 DUP8 ADD MSTORE PUSH1 0x3 DUP3 ADD SLOAD PUSH1 0x60 DUP8 ADD MSTORE SWAP3 DUP2 ADD SLOAD PUSH1 0x80 DUP7 ADD MSTORE PUSH1 0x5 DUP2 ADD SLOAD PUSH1 0xA0 DUP7 ADD MSTORE PUSH1 0x6 DUP2 ADD SLOAD PUSH2 0x2DE SWAP1 PUSH1 0xFF AND PUSH1 0xC0 DUP8 ADD PUSH2 0x2BDC JUMP JUMPDEST PUSH1 0x7 DUP2 ADD SLOAD DUP1 SWAP5 DUP7 ADD MSTORE ADD SLOAD SWAP3 PUSH1 0xFF DUP5 AND ISZERO ISZERO PUSH2 0x100 DUP3 ADD MSTORE PUSH1 0xFF DUP5 PUSH1 0x8 SHR AND ISZERO ISZERO PUSH2 0x120 DUP3 ADD MSTORE DUP2 PUSH1 0xFF DUP6 PUSH1 0x10 SHR AND ISZERO SWAP5 DUP6 ISZERO PUSH2 0x140 DUP5 ADD MSTORE PUSH1 0x18 SHR AND PUSH2 0x160 DUP3 ADD MSTORE MLOAD AND ISZERO ISZERO SWAP2 DUP3 PUSH2 0x356 JUMPI JUMPDEST POP DUP2 PUSH2 0x33F JUMPI JUMPDEST POP PUSH1 0x40 MLOAD SWAP1 ISZERO ISZERO DUP2 MSTORE RETURN JUMPDEST PUSH2 0x34D SWAP2 POP PUSH1 0x7 SLOAD SWAP1 PUSH2 0x29A6 JUMP JUMPDEST TIMESTAMP GT ISZERO DUP3 PUSH2 0x334 JUMP JUMPDEST SWAP2 POP DUP4 PUSH2 0x32D JUMP JUMPDEST DUP3 DUP1 REVERT JUMPDEST DUP3 DUP5 CALLVALUE PUSH2 0x429 JUMPI PUSH1 0x20 CALLDATASIZE PUSH1 0x3 NOT ADD SLT PUSH2 0x429 JUMPI PUSH2 0x37D PUSH2 0x27CA JUMP JUMPDEST PUSH2 0x385 PUSH2 0x2902 JUMP JUMPDEST PUSH1 0x1 PUSH1 0x1 PUSH1 0xA0 SHL SUB SWAP1 DUP2 AND SWAP2 DUP3 ISZERO PUSH2 0x3D6 JUMPI POP PUSH1 0x1 SLOAD DUP3 PUSH1 0x1 PUSH1 0x1 PUSH1 0x60 SHL SUB PUSH1 0xA0 SHL DUP3 AND OR PUSH1 0x1 SSTORE AND PUSH32 0x8BE0079C531659141344CD1FD0A4F28419497F9722A3DAAFE3B4186F6B6457E0 PUSH1 0x0 DUP1 LOG3 DUP1 RETURN JUMPDEST PUSH1 0x84 SWAP1 PUSH1 0x20 PUSH1 0x40 MLOAD SWAP2 PUSH3 0x461BCD PUSH1 0xE5 SHL DUP4 MSTORE DUP3 ADD MSTORE PUSH1 0x26 PUSH1 0x24 DUP3 ADD MSTORE PUSH32 0x4F776E61626C653A206E6577206F776E657220697320746865207A65726F2061 PUSH1 0x44 DUP3 ADD MSTORE PUSH6 0x646472657373 PUSH1 0xD0 SHL PUSH1 0x64 DUP3 ADD MSTORE REVERT JUMPDEST POP DUP1 REVERT JUMPDEST DUP3 CALLVALUE PUSH2 0x251 JUMPI PUSH1 0x20 CALLDATASIZE PUSH1 0x3 NOT ADD SLT PUSH2 0x251 JUMPI PUSH1 0x20 SWAP1 PUSH1 0x40 SWAP1 PUSH1 0x1 PUSH1 0x1 PUSH1 0xA0 SHL SUB PUSH2 0x455 PUSH2 0x27CA JUMP JUMPDEST AND DUP2 MSTORE PUSH1 0x3 DUP4 MSTORE KECCAK256 SLOAD PUSH1 0x40 MLOAD SWAP1 DUP2 MSTORE RETURN JUMPDEST POP POP CALLVALUE PUSH2 0x251 JUMPI PUSH1 0x20 CALLDATASIZE PUSH1 0x3 NOT ADD SLT PUSH2 0x251 JUMPI PUSH1 0x20 PUSH2 0x485 DUP4 CALLDATALOAD PUSH2 0x2EA3 JUMP JUMPDEST PUSH1 0x40 MLOAD SWAP1 DUP2 MSTORE RETURN JUMPDEST DUP3 DUP5 CALLVALUE PUSH2 0x429 JUMPI PUSH1 0x40 CALLDATASIZE PUSH1 0x3 NOT ADD SLT PUSH2 0x429 JUMPI DUP1 CALLDATALOAD SWAP1 PUSH2 0x4AB PUSH2 0x27E0 JUMP JUMPDEST PUSH2 0x4B3 PUSH2 0x2902 JUMP JUMPDEST PUSH2 0x4BB PUSH2 0x2B44 JUMP JUMPDEST DUP3 DUP5 MSTORE PUSH1 0x20 SWAP2 PUSH1 0x2 DUP4 MSTORE PUSH1 0x40 DUP6 KECCAK256 SWAP2 PUSH1 0x1 DUP1 PUSH1 0xA0 SHL SUB SWAP3 DUP4 DUP2 SLOAD AND SWAP4 PUSH2 0x4E2 DUP6 ISZERO ISZERO PUSH2 0x2C63 JUMP JUMPDEST PUSH1 0x8 DUP3 ADD DUP1 SLOAD PUSH2 0x4F8 PUSH1 0xFF DUP3 PUSH1 0x10 SHR AND ISZERO PUSH2 0x2E09 JUMP JUMPDEST PUSH1 0xFF DUP2 AND DUP1 PUSH2 0x7B0 JUMPI JUMPDEST ISZERO PUSH2 0x775 JUMPI DUP3 DUP6 AND SWAP7 DUP8 EQ DUP1 ISZERO PUSH2 0x766 JUMPI JUMPDEST ISZERO PUSH2 0x731 JUMPI PUSH3 0x10000 PUSH1 0x1 PUSH1 0xB8 SHL SUB NOT AND PUSH1 0x18 DUP6 SWAP1 SHL PUSH4 0x1000000 PUSH1 0x1 PUSH1 0xB8 SHL SUB AND OR PUSH3 0x10000 OR SWAP1 SSTORE DUP8 DUP2 PUSH1 0x2 DUP5 ADD SLOAD AND PUSH1 0x3 DUP5 ADD SLOAD SWAP1 DUP1 EXTCODESIZE ISZERO PUSH2 0x35E JUMPI PUSH1 0x40 DUP1 MLOAD PUSH4 0x23B872DD PUSH1 0xE0 SHL DUP2 MSTORE ADDRESS DUP2 DUP11 ADD SWAP1 DUP2 MSTORE PUSH1 0x1 PUSH1 0x1 PUSH1 0xA0 SHL SUB DUP10 AND PUSH1 0x20 DUP3 ADD MSTORE SWAP2 DUP3 ADD SWAP4 SWAP1 SWAP4 MSTORE DUP4 SWAP2 DUP4 SWAP2 DUP3 SWAP1 DUP5 SWAP1 DUP3 SWAP1 PUSH1 0x60 ADD SUB SWAP3 GAS CALL DUP1 ISZERO PUSH2 0x726 JUMPI PUSH2 0x70E JUMPI JUMPDEST POP POP PUSH1 0xFF PUSH1 0x6 DUP4 ADD SLOAD AND PUSH1 0x2 DUP2 LT ISZERO PUSH2 0x6FB JUMPI DUP9 SWAP4 SWAP3 SWAP2 SWAP1 PUSH2 0x63D JUMPI POP DUP3 DUP1 SWAP3 DUP6 DUP3 SWAP4 ADD SLOAD SWAP1 GAS CALL PUSH2 0x5CA PUSH2 0x2A32 JUMP JUMPDEST POP ISZERO PUSH2 0x603 JUMPI POP SWAP1 PUSH32 0xBF6AEE0A93E0C0696509FAC1649343CAFC5BF013811646E438330FE86E4C15F SWAP2 JUMPDEST PUSH1 0x40 MLOAD SWAP1 DUP2 MSTORE LOG2 PUSH1 0x1 DUP2 SSTORE DUP1 RETURN JUMPDEST PUSH1 0x40 MLOAD PUSH3 0x461BCD PUSH1 0xE5 SHL DUP2 MSTORE SWAP1 DUP2 ADD DUP4 SWAP1 MSTORE PUSH1 0x13 PUSH1 0x24 DUP3 ADD MSTORE PUSH19 0x115512081D1C985B9CD9995C8819985A5B1959 PUSH1 0x6A SHL PUSH1 0x44 DUP3 ADD MSTORE PUSH1 0x64 SWAP1 REVERT JUMPDEST PUSH1 0xA SLOAD PUSH1 0x5 SWAP3 SWAP1 SWAP3 ADD SLOAD PUSH1 0x40 DUP1 MLOAD PUSH4 0xA9059CBB PUSH1 0xE0 SHL DUP2 MSTORE PUSH1 0x1 PUSH1 0x1 PUSH1 0xA0 SHL SUB SWAP6 SWAP1 SWAP6 AND SWAP7 DUP6 ADD SWAP7 DUP8 MSTORE PUSH1 0x20 DUP8 ADD SWAP2 SWAP1 SWAP2 MSTORE SWAP3 SWAP7 SWAP6 SWAP5 DUP7 SWAP5 DUP9 SWAP5 SWAP2 DUP6 SWAP1 SUB SWAP1 SWAP2 ADD SWAP3 DUP5 SWAP3 AND GAS CALL SWAP3 DUP4 ISZERO PUSH2 0x6F0 JUMPI PUSH32 0xBF6AEE0A93E0C0696509FAC1649343CAFC5BF013811646E438330FE86E4C15F SWAP4 PUSH2 0x6BE SWAP2 DUP8 SWAP2 PUSH2 0x6C3 JUMPI JUMPDEST POP PUSH2 0x2DC6 JUMP JUMPDEST PUSH2 0x5F5 JUMP JUMPDEST PUSH2 0x6E3 SWAP2 POP DUP5 RETURNDATASIZE DUP7 GT PUSH2 0x6E9 JUMPI JUMPDEST PUSH2 0x6DB DUP2 DUP4 PUSH2 0x2A10 JUMP JUMPDEST DUP2 ADD SWAP1 PUSH2 0x2DAE JUMP JUMPDEST DUP8 PUSH2 0x6B8 JUMP JUMPDEST POP RETURNDATASIZE PUSH2 0x6D1 JUMP JUMPDEST PUSH1 0x40 MLOAD RETURNDATASIZE DUP8 DUP3 RETURNDATACOPY RETURNDATASIZE SWAP1 REVERT JUMPDEST PUSH4 0x4E487B71 PUSH1 0xE0 SHL DUP10 MSTORE PUSH1 0x21 DUP6 MSTORE PUSH1 0x24 DUP10 REVERT JUMPDEST PUSH2 0x717 SWAP1 PUSH2 0x29C9 JUMP JUMPDEST PUSH2 0x722 JUMPI DUP8 DUP10 PUSH2 0x59A JUMP JUMPDEST DUP8 DUP1 REVERT JUMPDEST PUSH1 0x40 MLOAD RETURNDATASIZE DUP5 DUP3 RETURNDATACOPY RETURNDATASIZE SWAP1 REVERT JUMPDEST PUSH1 0x40 MLOAD PUSH3 0x461BCD PUSH1 0xE5 SHL DUP2 MSTORE DUP1 DUP8 ADD DUP10 SWAP1 MSTORE PUSH1 0xE PUSH1 0x24 DUP3 ADD MSTORE PUSH14 0x24B73B30B634B2103BB4B73732B9 PUSH1 0x91 SHL PUSH1 0x44 DUP3 ADD MSTORE PUSH1 0x64 SWAP1 REVERT JUMPDEST POP DUP3 PUSH1 0x1 DUP6 ADD SLOAD AND DUP8 EQ PUSH2 0x514 JUMP JUMPDEST PUSH1 0x40 MLOAD PUSH3 0x461BCD PUSH1 0xE5 SHL DUP2 MSTORE DUP1 DUP8 ADD DUP10 SWAP1 MSTORE PUSH1 0x14 PUSH1 0x24 DUP3 ADD MSTORE PUSH20 0x105CDCD95D1CC81B9BDD0819195C1BDCDA5D1959 PUSH1 0x62 SHL PUSH1 0x44 DUP3 ADD MSTORE PUSH1 0x64 SWAP1 REVERT JUMPDEST POP PUSH1 0xFF DUP2 PUSH1 0x8 SHR AND PUSH2 0x502 JUMP JUMPDEST DUP3 CALLVALUE PUSH2 0x251 JUMPI DUP1 PUSH1 0x3 NOT CALLDATASIZE ADD SLT PUSH2 0x251 JUMPI PUSH1 0x20 PUSH1 0x40 MLOAD PUSH2 0x2710 DUP2 MSTORE RETURN JUMPDEST DUP3 PUSH1 0x20 DUP6 CALLDATASIZE PUSH1 0x3 NOT ADD DUP3 SGT PUSH2 0x35E JUMPI DUP1 CALLDATALOAD SWAP2 PUSH2 0x7F4 PUSH2 0x2B44 JUMP JUMPDEST PUSH2 0x7FC PUSH2 0x2AFD JUMP JUMPDEST DUP3 DUP5 MSTORE PUSH1 0x2 DUP2 MSTORE PUSH1 0x40 DUP5 KECCAK256 PUSH1 0x1 DUP2 ADD SLOAD PUSH1 0x1 PUSH1 0x1 PUSH1 0xA0 SHL SUB SWAP3 SWAP2 SWAP1 PUSH2 0x82F SWAP1 DUP5 AND PUSH2 0x828 DUP2 ISZERO ISZERO PUSH2 0x2C63 JUMP JUMPDEST CALLER EQ PUSH2 0x2D60 JUMP JUMPDEST PUSH1 0x8 DUP2 ADD SWAP3 DUP4 SLOAD SWAP5 PUSH1 0xFF SWAP6 PUSH2 0x849 DUP8 DUP3 PUSH1 0x8 SHR AND ISZERO PUSH2 0x2CE2 JUMP JUMPDEST PUSH2 0x858 DUP8 DUP3 PUSH1 0x10 SHR AND ISZERO PUSH2 0x2CA5 JUMP JUMPDEST PUSH2 0x874 PUSH2 0x86C PUSH1 0x7 DUP7 ADD SLOAD PUSH1 0x7 SLOAD SWAP1 PUSH2 0x29A6 JUMP JUMPDEST TIMESTAMP GT ISZERO PUSH2 0x2D22 JUMP JUMPDEST PUSH1 0x6 DUP5 ADD SWAP4 DUP8 DUP6 SLOAD AND PUSH1 0x2 DUP2 LT ISZERO PUSH2 0xA56 JUMPI PUSH2 0xA20 JUMPI DUP3 ADD SWAP2 DUP3 SLOAD SWAP4 PUSH2 0x2710 PUSH2 0x89F PUSH1 0x6 SLOAD DUP8 PUSH2 0x2D9B JUMP JUMPDEST DIV SWAP3 DUP6 CALLVALUE LT PUSH2 0x9E9 JUMPI DUP12 DUP1 DUP6 DUP2 SWAP5 PUSH2 0x100 DUP4 SWAP6 PUSH2 0xFF00 NOT AND OR DUP14 SSTORE PUSH1 0x8 SLOAD AND GAS CALL PUSH2 0x8C8 PUSH2 0x2A32 JUMP JUMPDEST POP ISZERO PUSH2 0x9A5 JUMPI POP DUP7 PUSH32 0x981102F46F858A9AD42E0E3924C2EE3DDB912D9D6D28768155FFDB174C81711F SWAP5 PUSH1 0x60 SWAP5 DUP5 PUSH2 0x906 PUSH2 0x92A SWAP6 DUP14 SWAP11 SWAP8 SLOAD PUSH2 0x2AB4 JUMP JUMPDEST SWAP1 SSTORE DUP12 DUP2 CALLVALUE GT PUSH2 0x97D JUMPI JUMPDEST POP POP SLOAD AND DUP10 PUSH1 0x40 MLOAD SWAP4 CALLER DUP6 MSTORE DUP5 ADD MSTORE PUSH1 0x40 DUP4 ADD SWAP1 PUSH2 0x280C JUMP JUMPDEST LOG2 SLOAD SWAP1 DUP1 DUP3 AND SWAP2 DUP3 PUSH2 0x970 JUMPI JUMPDEST POP POP PUSH2 0x946 JUMPI JUMPDEST POP PUSH1 0x1 DUP2 SSTORE DUP1 RETURN JUMPDEST PUSH32 0xEE5528BA4F234F658C6A97A7E3CBA5532E7AAD23BB249BE4141B62E6A0158A7C DUP3 DUP1 LOG2 DUP2 PUSH2 0x93E JUMP JUMPDEST PUSH1 0x8 SHR AND SWAP1 POP DUP4 DUP1 PUSH2 0x937 JUMP JUMPDEST DUP1 DUP1 DUP1 PUSH2 0x98D PUSH2 0x99E SWAP6 CALLVALUE PUSH2 0x2AB4 JUMP JUMPDEST CALLER GAS CALL PUSH2 0x998 PUSH2 0x2A32 JUMP JUMPDEST POP PUSH2 0x2AC1 JUMP JUMPDEST DUP12 DUP12 PUSH2 0x911 JUMP JUMPDEST PUSH1 0x40 MLOAD PUSH3 0x461BCD PUSH1 0xE5 SHL DUP2 MSTORE SWAP1 DUP2 ADD DUP7 SWAP1 MSTORE PUSH1 0x1C PUSH1 0x24 DUP3 ADD MSTORE PUSH32 0x506C6174666F726D20666565207472616E73666572206661696C656400000000 PUSH1 0x44 DUP3 ADD MSTORE PUSH1 0x64 SWAP1 REVERT JUMPDEST PUSH1 0x40 MLOAD PUSH3 0x461BCD PUSH1 0xE5 SHL DUP2 MSTORE DUP1 DUP5 ADD DUP10 SWAP1 MSTORE PUSH1 0x10 PUSH1 0x24 DUP3 ADD MSTORE PUSH16 0x92DCE6EACCCCD2C6D2CADCE8408AA89 PUSH1 0x83 SHL PUSH1 0x44 DUP3 ADD MSTORE PUSH1 0x64 SWAP1 REVERT JUMPDEST PUSH1 0x40 MLOAD PUSH3 0x461BCD PUSH1 0xE5 SHL DUP2 MSTORE DUP1 DUP5 ADD DUP8 SWAP1 MSTORE PUSH1 0xF PUSH1 0x24 DUP3 ADD MSTORE PUSH15 0x4E6F7420616E204554482067616D65 PUSH1 0x88 SHL PUSH1 0x44 DUP3 ADD MSTORE PUSH1 0x64 SWAP1 REVERT JUMPDEST PUSH4 0x4E487B71 PUSH1 0xE0 SHL DUP12 MSTORE PUSH1 0x21 DUP5 MSTORE PUSH1 0x24 DUP12 REVERT JUMPDEST DUP3 DUP5 CALLVALUE PUSH2 0x429 JUMPI PUSH1 0x60 CALLDATASIZE PUSH1 0x3 NOT ADD SLT PUSH2 0x429 JUMPI PUSH8 0xFFFFFFFFFFFFFFFF SWAP1 DUP1 CALLDATALOAD DUP3 DUP2 GT PUSH2 0xCA2 JUMPI PUSH2 0xA9C SWAP1 CALLDATASIZE SWAP1 DUP4 ADD PUSH2 0x28D1 JUMP JUMPDEST SWAP2 SWAP1 SWAP3 PUSH1 0x24 SWAP3 DUP4 CALLDATALOAD DUP3 DUP2 GT PUSH2 0xDDD JUMPI PUSH2 0xAB8 SWAP1 CALLDATASIZE SWAP1 DUP6 ADD PUSH2 0x28D1 JUMP JUMPDEST PUSH1 0x44 SWAP4 DUP5 CALLDATALOAD SWAP1 DUP2 GT PUSH2 0xDD9 JUMPI PUSH2 0xAD1 SWAP1 CALLDATASIZE SWAP1 DUP8 ADD PUSH2 0x28D1 JUMP JUMPDEST PUSH2 0xADC SWAP3 SWAP2 SWAP3 PUSH2 0x2902 JUMP JUMPDEST DUP2 DUP6 EQ DUP1 PUSH2 0xDD0 JUMPI JUMPDEST ISZERO PUSH2 0xD8E JUMPI SWAP3 DUP9 SWAP3 DUP11 SWAP9 SWAP6 SWAP3 DUP10 SWAP6 JUMPDEST DUP5 DUP8 LT PUSH2 0xAFF JUMPI DUP11 DUP1 RETURN JUMPDEST SWAP9 SWAP10 SWAP8 SWAP9 SWAP7 SWAP8 PUSH1 0x1 PUSH1 0x1 PUSH1 0xA0 SHL SUB SWAP8 SWAP1 SWAP7 DUP9 PUSH2 0xB24 PUSH2 0xB1F DUP4 DUP10 DUP12 PUSH2 0x2FB2 JUMP JUMPDEST PUSH2 0x2FC2 JUMP JUMPDEST AND ISZERO PUSH2 0xD55 JUMPI DUP9 PUSH2 0xB39 PUSH2 0xB1F DUP4 DUP6 DUP9 PUSH2 0x2FB2 JUMP JUMPDEST AND ISZERO PUSH2 0xD1F JUMPI DUP9 PUSH2 0xB4E PUSH2 0xB1F DUP4 DUP10 DUP12 PUSH2 0x2FB2 JUMP JUMPDEST AND SWAP9 DUP13 PUSH2 0xB5C DUP4 DUP7 DUP10 PUSH2 0x2FB2 JUMP JUMPDEST CALLDATALOAD SWAP11 PUSH1 0x40 MLOAD SWAP12 DUP13 SWAP3 PUSH4 0x31A9108F PUSH1 0xE1 SHL DUP5 MSTORE DUP4 ADD MSTORE DUP2 DUP14 PUSH1 0x20 SWAP14 DUP15 SWAP4 GAS STATICCALL DUP11 SWAP2 DUP2 PUSH2 0xCE7 JUMPI JUMPDEST POP PUSH2 0xBCA JUMPI POP PUSH1 0x40 MLOAD PUSH3 0x461BCD PUSH1 0xE5 SHL DUP2 MSTORE DUP1 DUP15 ADD DUP12 SWAP1 MSTORE PUSH1 0x1D DUP2 DUP14 ADD MSTORE PUSH32 0x4661696C656420746F20636865636B204E4654206F776E657273686970000000 DUP2 DUP15 ADD MSTORE PUSH1 0x64 SWAP1 REVERT JUMPDEST DUP2 SWAP3 SWAP4 SWAP5 SWAP6 SWAP7 SWAP8 SWAP9 SWAP13 SWAP10 SWAP14 SWAP11 SWAP2 ADDRESS SWAP2 AND SUB PUSH2 0xCA6 JUMPI POP DUP12 SWAP1 PUSH2 0xBF0 PUSH2 0xB1F DUP5 DUP11 DUP16 PUSH2 0x2FB2 JUMP JUMPDEST AND PUSH2 0xBFF PUSH2 0xB1F DUP5 DUP7 DUP10 PUSH2 0x2FB2 JUMP JUMPDEST PUSH2 0xC0A DUP5 DUP8 DUP11 PUSH2 0x2FB2 JUMP JUMPDEST CALLDATALOAD DUP3 EXTCODESIZE ISZERO PUSH2 0xCA2 JUMPI PUSH1 0x40 DUP1 MLOAD PUSH4 0x23B872DD PUSH1 0xE0 SHL DUP2 MSTORE ADDRESS DUP2 DUP16 ADD SWAP1 DUP2 MSTORE PUSH1 0x1 PUSH1 0x1 PUSH1 0xA0 SHL SUB SWAP1 SWAP5 AND PUSH1 0x20 DUP6 ADD MSTORE SWAP1 DUP4 ADD SWAP2 SWAP1 SWAP2 MSTORE SWAP2 DUP4 SWAP2 DUP4 SWAP2 SWAP1 DUP3 SWAP1 DUP5 SWAP1 DUP3 SWAP1 PUSH1 0x60 ADD SUB SWAP3 GAS CALL DUP1 ISZERO PUSH2 0x726 JUMPI PUSH2 0xC8A JUMPI JUMPDEST POP POP PUSH1 0x0 NOT DUP2 EQ PUSH2 0xC78 JUMPI PUSH1 0x1 ADD SWAP6 SWAP8 SWAP7 SWAP9 SWAP5 SWAP4 SWAP3 SWAP2 SWAP1 PUSH2 0xAF4 JUMP JUMPDEST PUSH4 0x4E487B71 PUSH1 0xE0 SHL DUP12 MSTORE PUSH1 0x11 DUP9 MSTORE DUP9 DUP12 REVERT JUMPDEST PUSH2 0xC93 SWAP1 PUSH2 0x29C9 JUMP JUMPDEST PUSH2 0xC9E JUMPI DUP11 DUP13 PUSH2 0xC5C JUMP JUMPDEST DUP11 DUP1 REVERT JUMPDEST DUP4 DUP1 REVERT JUMPDEST DUP10 PUSH32 0x436F6E747261637420646F6573206E6F74206F776E2074686973204E46540000 DUP11 PUSH1 0x1E DUP15 PUSH1 0x64 SWAP6 PUSH1 0x40 MLOAD SWAP6 PUSH3 0x461BCD PUSH1 0xE5 SHL DUP8 MSTORE DUP7 ADD MSTORE DUP5 ADD MSTORE DUP3 ADD MSTORE REVERT JUMPDEST SWAP1 SWAP2 POP DUP12 DUP2 DUP2 RETURNDATASIZE DUP4 GT PUSH2 0xD18 JUMPI JUMPDEST PUSH2 0xCFF DUP2 DUP4 PUSH2 0x2A10 JUMP JUMPDEST DUP2 ADD SUB SLT PUSH2 0xC9E JUMPI MLOAD DUP3 DUP2 AND DUP2 SUB PUSH2 0xC9E JUMPI SWAP1 DUP16 PUSH2 0xB82 JUMP JUMPDEST POP RETURNDATASIZE PUSH2 0xCF5 JUMP JUMPDEST PUSH1 0x40 MLOAD PUSH3 0x461BCD PUSH1 0xE5 SHL DUP2 MSTORE PUSH1 0x20 DUP2 DUP15 ADD MSTORE PUSH1 0x11 DUP2 DUP13 ADD MSTORE PUSH17 0x125B9D985B1A59081C9958DA5C1A595B9D PUSH1 0x7A SHL DUP2 DUP14 ADD MSTORE PUSH1 0x64 SWAP1 REVERT JUMPDEST PUSH1 0x40 MLOAD PUSH3 0x461BCD PUSH1 0xE5 SHL DUP2 MSTORE PUSH1 0x20 DUP2 DUP15 ADD MSTORE PUSH1 0x14 DUP2 DUP13 ADD MSTORE PUSH20 0x125B9D985B1A59081391950818DBDB9D1C9858DD PUSH1 0x62 SHL DUP2 DUP14 ADD MSTORE PUSH1 0x64 SWAP1 REVERT JUMPDEST PUSH1 0x40 MLOAD PUSH3 0x461BCD PUSH1 0xE5 SHL DUP2 MSTORE PUSH1 0x20 DUP2 DUP10 ADD MSTORE PUSH1 0x18 DUP2 DUP11 ADD MSTORE PUSH32 0x4172726179206C656E67746873206D757374206D617463680000000000000000 DUP2 DUP9 ADD MSTORE PUSH1 0x64 SWAP1 REVERT JUMPDEST POP DUP1 DUP3 EQ PUSH2 0xAE5 JUMP JUMPDEST DUP9 DUP1 REVERT JUMPDEST DUP7 DUP1 REVERT JUMPDEST SWAP1 POP DUP3 PUSH1 0xA0 CALLDATASIZE PUSH1 0x3 NOT ADD SLT PUSH2 0x35E JUMPI PUSH2 0xDF8 PUSH2 0x27E0 JUMP JUMPDEST SWAP2 PUSH1 0x84 CALLDATALOAD SWAP3 PUSH1 0x2 DUP5 LT ISZERO PUSH2 0x10ED JUMPI PUSH2 0xE0E PUSH2 0x2B44 JUMP JUMPDEST PUSH2 0xE16 PUSH2 0x2AFD JUMP JUMPDEST PUSH2 0xE21 PUSH1 0x5 SLOAD PUSH2 0x2EA3 JUMP JUMPDEST SWAP2 PUSH2 0xE2E DUP4 CALLVALUE LT ISZERO PUSH2 0x295A JUMP JUMPDEST CALLER DUP7 MSTORE PUSH1 0x3 PUSH1 0x20 MSTORE PUSH1 0x40 DUP7 KECCAK256 PUSH2 0xE45 DUP5 DUP3 SLOAD PUSH2 0x29A6 JUMP JUMPDEST SWAP1 SSTORE PUSH2 0xE6A DUP7 DUP1 DUP1 DUP1 DUP8 PUSH1 0x1 DUP1 PUSH1 0xA0 SHL SUB PUSH1 0x8 SLOAD AND GAS CALL PUSH2 0xE64 PUSH2 0x2A32 JUMP JUMPDEST POP PUSH2 0x2A72 JUMP JUMPDEST DUP4 CALLDATALOAD DUP7 MSTORE PUSH1 0x2 PUSH1 0x20 MSTORE PUSH1 0x40 DUP7 KECCAK256 SLOAD PUSH2 0xE8B SWAP1 PUSH1 0x1 PUSH1 0x1 PUSH1 0xA0 SHL SUB AND ISZERO PUSH2 0x2B9A JUMP JUMPDEST DUP6 DUP1 DUP7 PUSH2 0x10E3 JUMPI POP PUSH2 0xE9E PUSH1 0x64 CALLDATALOAD PUSH2 0x2EA3 JUMP JUMPDEST PUSH1 0x40 MLOAD SWAP4 PUSH2 0xEAB DUP6 PUSH2 0x29F3 JUMP JUMPDEST CALLER DUP6 MSTORE PUSH1 0x20 DUP6 ADD DUP10 SWAP1 MSTORE PUSH1 0x1 PUSH1 0x1 PUSH1 0xA0 SHL SUB AND PUSH1 0x40 DUP6 ADD MSTORE PUSH1 0x44 CALLDATALOAD PUSH1 0x60 DUP6 ADD MSTORE PUSH1 0x80 DUP5 ADD MSTORE PUSH1 0xA0 DUP4 ADD MSTORE PUSH2 0xEE2 DUP6 PUSH1 0xC0 DUP5 ADD PUSH2 0x2BDC JUMP JUMPDEST TIMESTAMP DUP2 DUP4 ADD MSTORE DUP6 PUSH2 0x100 DUP4 ADD MSTORE DUP6 PUSH2 0x120 DUP4 ADD MSTORE DUP6 PUSH2 0x140 DUP4 ADD MSTORE DUP6 PUSH2 0x160 DUP4 ADD MSTORE DUP4 CALLDATALOAD DUP7 MSTORE PUSH1 0x2 PUSH1 0x20 MSTORE PUSH1 0x40 DUP7 KECCAK256 SWAP1 PUSH1 0x1 DUP1 PUSH1 0xA0 SHL SUB DUP4 MLOAD AND PUSH1 0x1 PUSH1 0x1 PUSH1 0x60 SHL SUB PUSH1 0xA0 SHL SWAP1 DUP2 DUP5 SLOAD AND OR DUP4 SSTORE PUSH1 0x1 DUP4 ADD PUSH1 0x1 DUP1 PUSH1 0xA0 SHL SUB PUSH1 0x20 DUP7 ADD MLOAD AND DUP3 DUP3 SLOAD AND OR SWAP1 SSTORE PUSH1 0x2 DUP4 ADD SWAP1 PUSH1 0x1 DUP1 PUSH1 0xA0 SHL SUB PUSH1 0x40 DUP7 ADD MLOAD AND SWAP1 DUP3 SLOAD AND OR SWAP1 SSTORE PUSH1 0x60 DUP4 ADD MLOAD PUSH1 0x3 DUP4 ADD SSTORE PUSH1 0x80 DUP4 ADD MLOAD DUP6 DUP4 ADD SSTORE PUSH1 0xA0 DUP4 ADD MLOAD PUSH1 0x5 DUP4 ADD SSTORE PUSH1 0xC0 DUP4 ADD MLOAD PUSH1 0x2 DUP2 LT ISZERO PUSH2 0x10D0 JUMPI SWAP3 PUSH1 0x8 DUP4 PUSH2 0x104C SWAP4 PUSH2 0xFC4 PUSH32 0x212C0BDCF42696E85CDDF68FC1623B3327138B7898282F7356AB7EC713E9CF32 SWAP10 SWAP8 PUSH1 0x6 PUSH1 0x60 SWAP11 SWAP9 ADD PUSH2 0x2BE8 JUMP JUMPDEST DUP4 ADD MLOAD PUSH1 0x7 DUP3 ADD SSTORE ADD SWAP1 PUSH2 0xFEB PUSH2 0x100 DUP3 ADD MLOAD ISZERO ISZERO DUP4 SWAP1 PUSH1 0xFF DUP1 NOT DUP4 SLOAD AND SWAP2 ISZERO ISZERO AND OR SWAP1 SSTORE JUMP JUMPDEST PUSH2 0x120 DUP2 ADD MLOAD DUP3 SLOAD PUSH2 0xFF00 NOT AND SWAP1 ISZERO ISZERO PUSH1 0x8 SHL PUSH2 0xFF00 AND OR DUP3 SSTORE PUSH2 0x140 DUP2 ADD MLOAD DUP3 SLOAD PUSH3 0xFF0000 NOT AND SWAP1 ISZERO ISZERO PUSH1 0x10 SHL PUSH3 0xFF0000 AND OR DUP3 SSTORE PUSH2 0x160 ADD MLOAD DUP2 SLOAD PUSH4 0x1000000 PUSH1 0x1 PUSH1 0xB8 SHL SUB NOT AND PUSH1 0x18 SWAP2 SWAP1 SWAP2 SHL PUSH4 0x1000000 PUSH1 0x1 PUSH1 0xB8 SHL SUB AND OR SWAP1 SSTORE JUMP JUMPDEST CALLER DUP7 MSTORE DUP2 PUSH1 0x20 MSTORE PUSH2 0x1061 DUP3 CALLDATALOAD PUSH1 0x40 DUP9 KECCAK256 PUSH2 0x2C00 JUMP JUMPDEST DUP1 CALLVALUE GT PUSH2 0x10BA JUMPI JUMPDEST PUSH1 0x40 MLOAD SWAP1 DUP2 MSTORE PUSH32 0x3A5F70A82EB571B0A884A01D171C139C6EC5169BA9E11E00D211CB4F76391E14 PUSH1 0x20 CALLER SWAP3 LOG2 PUSH2 0x10B0 PUSH1 0x40 MLOAD SWAP5 CALLER DUP7 MSTORE PUSH1 0x0 PUSH1 0x20 DUP8 ADD MSTORE PUSH1 0x40 DUP7 ADD SWAP1 PUSH2 0x280C JUMP JUMPDEST CALLDATALOAD SWAP3 LOG2 PUSH1 0x1 DUP2 SSTORE DUP1 RETURN JUMPDEST PUSH2 0x10CB DUP7 DUP1 DUP1 DUP1 PUSH2 0x98D DUP7 CALLVALUE PUSH2 0x2AB4 JUMP JUMPDEST PUSH2 0x1069 JUMP JUMPDEST PUSH4 0x4E487B71 PUSH1 0xE0 SHL DUP9 MSTORE PUSH1 0x21 DUP7 MSTORE PUSH1 0x24 DUP9 REVERT JUMPDEST PUSH1 0x64 CALLDATALOAD SWAP2 POP PUSH2 0xE9E JUMP JUMPDEST DUP5 DUP1 REVERT JUMPDEST POP POP CALLVALUE PUSH2 0x251 JUMPI PUSH1 0x40 CALLDATASIZE PUSH1 0x3 NOT ADD SLT PUSH2 0x251 JUMPI PUSH2 0x110C PUSH2 0x27CA JUMP JUMPDEST PUSH1 0x1 PUSH1 0x1 PUSH1 0xA0 SHL SUB AND DUP2 MSTORE PUSH1 0x20 SWAP2 SWAP1 SWAP2 MSTORE PUSH1 0x40 DUP2 KECCAK256 DUP1 SLOAD PUSH1 0x24 CALLDATALOAD SWAP3 SWAP1 DUP4 LT ISZERO PUSH2 0x251 JUMPI PUSH1 0x20 PUSH2 0x113B DUP5 DUP5 PUSH2 0x28A3 JUMP JUMPDEST SWAP1 SLOAD PUSH1 0x40 MLOAD SWAP2 PUSH1 0x3 SHL SHR DUP2 MSTORE RETURN JUMPDEST DUP3 DUP1 PUSH1 0x3 NOT CALLDATASIZE ADD SLT PUSH2 0x251 JUMPI PUSH2 0x115D PUSH2 0x2B44 JUMP JUMPDEST PUSH2 0x1165 PUSH2 0x2AFD JUMP JUMPDEST PUSH2 0x1170 PUSH1 0x5 SLOAD PUSH2 0x2EA3 JUMP JUMPDEST PUSH2 0x117C DUP2 CALLVALUE LT ISZERO PUSH2 0x295A JUMP JUMPDEST CALLER DUP3 MSTORE PUSH1 0x3 PUSH1 0x20 MSTORE PUSH1 0x40 DUP3 KECCAK256 PUSH2 0x1193 DUP3 DUP3 SLOAD PUSH2 0x29A6 JUMP JUMPDEST SWAP1 SSTORE PUSH2 0x11B2 DUP3 DUP1 DUP1 DUP1 DUP6 PUSH1 0x1 DUP1 PUSH1 0xA0 SHL SUB PUSH1 0x8 SLOAD AND GAS CALL PUSH2 0xE64 PUSH2 0x2A32 JUMP JUMPDEST DUP1 CALLVALUE GT PUSH2 0x11ED JUMPI JUMPDEST PUSH1 0x40 MLOAD SWAP1 DUP2 MSTORE PUSH32 0x3A5F70A82EB571B0A884A01D171C139C6EC5169BA9E11E00D211CB4F76391E14 PUSH1 0x20 CALLER SWAP3 LOG2 PUSH1 0x1 DUP2 SSTORE DUP1 RETURN JUMPDEST PUSH2 0x11FE DUP3 DUP1 DUP1 DUP1 PUSH2 0x98D DUP7 CALLVALUE PUSH2 0x2AB4 JUMP JUMPDEST PUSH2 0x11BA JUMP JUMPDEST DUP3 DUP1 DUP6 CALLVALUE PUSH2 0x12A3 JUMPI PUSH1 0x60 CALLDATASIZE PUSH1 0x3 NOT ADD SLT PUSH2 0x12A3 JUMPI PUSH2 0x121F PUSH2 0x27CA JUMP JUMPDEST PUSH2 0x1227 PUSH2 0x27F6 JUMP JUMPDEST SWAP1 PUSH2 0x1230 PUSH2 0x2902 JUMP JUMPDEST PUSH1 0x1 PUSH1 0x1 PUSH1 0xA0 SHL SUB AND SWAP2 DUP3 EXTCODESIZE ISZERO PUSH2 0x129E JUMPI PUSH1 0x40 DUP1 MLOAD PUSH4 0x23B872DD PUSH1 0xE0 SHL DUP2 MSTORE ADDRESS SWAP3 DUP2 ADD SWAP3 DUP4 MSTORE PUSH1 0x1 PUSH1 0x1 PUSH1 0xA0 SHL SUB SWAP1 SWAP4 AND PUSH1 0x20 DUP4 ADD MSTORE PUSH1 0x24 CALLDATALOAD SWAP1 DUP3 ADD MSTORE SWAP1 SWAP2 DUP4 SWAP2 DUP4 SWAP2 SWAP1 DUP3 SWAP1 DUP5 SWAP1 DUP3 SWAP1 PUSH1 0x60 ADD SUB SWAP3 GAS CALL DUP1 ISZERO PUSH2 0x726 JUMPI PUSH2 0x128E JUMPI POP RETURN JUMPDEST PUSH2 0x1297 SWAP1 PUSH2 0x29C9 JUMP JUMPDEST PUSH2 0x251 JUMPI DUP1 RETURN JUMPDEST POP POP POP REVERT JUMPDEST POP REVERT JUMPDEST POP POP CALLVALUE PUSH2 0x251 JUMPI PUSH1 0x80 CALLDATASIZE PUSH1 0x3 NOT ADD SLT PUSH2 0x251 JUMPI DUP2 CALLDATALOAD PUSH2 0x12C3 PUSH2 0x27E0 JUMP JUMPDEST PUSH1 0x64 CALLDATALOAD PUSH1 0x44 CALLDATALOAD PUSH1 0x2 DUP3 LT ISZERO PUSH2 0x10ED JUMPI PUSH2 0x12DA PUSH2 0x2902 JUMP JUMPDEST DUP4 DUP6 MSTORE PUSH1 0x2 PUSH1 0x20 MSTORE PUSH1 0x40 DUP6 KECCAK256 DUP1 SLOAD PUSH1 0x1 PUSH1 0x1 PUSH1 0xA0 SHL SUB SWAP3 SWAP1 PUSH2 0x12FF SWAP1 DUP5 AND ISZERO ISZERO PUSH2 0x2C63 JUMP JUMPDEST PUSH1 0x1 DUP3 ADD SWAP1 DUP2 SLOAD SWAP2 DUP5 DUP4 AND PUSH2 0x13CB JUMPI SWAP2 PUSH32 0x212C0BDCF42696E85CDDF68FC1623B3327138B7898282F7356AB7EC713E9CF32 SWAP8 SWAP9 SWAP10 SWAP2 DUP5 SWAP4 PUSH2 0x134E PUSH1 0xFF PUSH1 0x8 PUSH2 0x13AC SWAP10 SWAP9 ADD SLOAD PUSH1 0x10 SHR AND ISZERO PUSH2 0x2CA5 JUMP JUMPDEST DUP6 DUP10 AND DUP1 SWAP4 PUSH1 0x1 PUSH1 0x1 PUSH1 0x60 SHL SUB PUSH1 0xA0 SHL AND OR SWAP1 SSTORE TIMESTAMP PUSH1 0x7 DUP6 ADD SSTORE DUP7 ISZERO PUSH1 0x0 EQ PUSH2 0x13B2 JUMPI PUSH2 0x137A SWAP1 PUSH2 0x2EA3 JUMP JUMPDEST DUP4 DUP4 ADD SSTORE PUSH1 0x6 DUP4 ADD DUP1 SLOAD PUSH1 0xFF NOT AND SWAP1 SSTORE JUMPDEST DUP10 MSTORE PUSH1 0x20 MSTORE PUSH2 0x139D DUP8 PUSH1 0x40 DUP11 KECCAK256 PUSH2 0x2C00 JUMP JUMPDEST SLOAD AND SWAP2 PUSH1 0x40 MLOAD SWAP4 DUP5 SWAP4 DUP5 PUSH2 0x2C3A JUMP JUMPDEST SUB SWAP1 LOG2 DUP1 RETURN JUMPDEST PUSH1 0x5 DUP5 ADD SSTORE PUSH1 0x6 DUP4 ADD DUP1 SLOAD PUSH1 0xFF NOT AND PUSH1 0x1 OR SWAP1 SSTORE PUSH2 0x138B JUMP JUMPDEST PUSH1 0x40 MLOAD PUSH3 0x461BCD PUSH1 0xE5 SHL DUP2 MSTORE PUSH1 0x20 DUP2 DUP13 ADD MSTORE PUSH1 0x14 PUSH1 0x24 DUP3 ADD MSTORE PUSH20 0x141B185E595C880C88185B1C9958591E481CD95D PUSH1 0x62 SHL PUSH1 0x44 DUP3 ADD MSTORE PUSH1 0x64 SWAP1 REVERT JUMPDEST DUP3 CALLVALUE PUSH2 0x251 JUMPI DUP1 PUSH1 0x3 NOT CALLDATASIZE ADD SLT PUSH2 0x251 JUMPI PUSH1 0x1 SLOAD PUSH1 0x40 MLOAD PUSH1 0x1 PUSH1 0x1 PUSH1 0xA0 SHL SUB SWAP1 SWAP2 AND DUP2 MSTORE PUSH1 0x20 SWAP1 RETURN JUMPDEST DUP3 CALLVALUE PUSH2 0x251 JUMPI DUP1 PUSH1 0x3 NOT CALLDATASIZE ADD SLT PUSH2 0x251 JUMPI PUSH1 0x20 PUSH1 0x6 SLOAD PUSH1 0x40 MLOAD SWAP1 DUP2 MSTORE RETURN JUMPDEST SWAP2 SWAP1 POP CALLVALUE PUSH2 0x251 JUMPI PUSH1 0x20 CALLDATASIZE PUSH1 0x3 NOT ADD SLT PUSH2 0x251 JUMPI DUP3 CALLDATALOAD DUP2 MSTORE PUSH1 0x2 PUSH1 0x20 MSTORE PUSH1 0x40 DUP2 KECCAK256 SWAP2 PUSH1 0x40 MLOAD PUSH2 0x147B DUP2 PUSH2 0x29F3 JUMP JUMPDEST PUSH1 0x1 DUP1 PUSH1 0xA0 SHL SUB DUP5 SLOAD AND DUP2 MSTORE PUSH1 0x1 DUP1 PUSH1 0xA0 SHL SUB PUSH1 0x1 DUP6 ADD SLOAD AND SWAP3 PUSH1 0x20 DUP3 ADD SWAP4 DUP5 MSTORE PUSH1 0x1 DUP1 PUSH1 0xA0 SHL SUB PUSH1 0x2 DUP7 ADD SLOAD AND SWAP5 PUSH1 0x40 DUP4 ADD SWAP6 DUP7 MSTORE PUSH1 0x3 DUP2 ADD SLOAD SWAP4 PUSH1 0x60 DUP5 ADD SWAP5 DUP6 MSTORE DUP8 DUP3 ADD SLOAD SWAP3 PUSH1 0x80 DUP6 ADD SWAP4 DUP5 MSTORE PUSH1 0x8 PUSH1 0x5 DUP5 ADD SLOAD SWAP4 PUSH1 0xA0 DUP8 ADD SWAP5 DUP6 MSTORE PUSH2 0x14ED PUSH1 0xFF PUSH1 0x6 DUP4 ADD SLOAD AND PUSH1 0xC0 DUP10 ADD PUSH2 0x2BDC JUMP JUMPDEST PUSH1 0x7 DUP2 ADD SLOAD SWAP4 DUP8 ADD SWAP4 DUP5 MSTORE ADD SLOAD PUSH1 0xFF DUP1 DUP3 AND ISZERO ISZERO PUSH2 0x100 DUP9 ADD MSTORE PUSH1 0x8 DUP3 SWAP1 SHR DUP2 AND ISZERO ISZERO PUSH2 0x120 DUP9 ADD MSTORE PUSH1 0x10 DUP3 SWAP1 SHR AND ISZERO ISZERO PUSH2 0x140 DUP8 ADD MSTORE PUSH1 0x18 SHR PUSH1 0x1 PUSH1 0x1 PUSH1 0xA0 SHL SUB SWAP1 DUP2 AND PUSH2 0x160 DUP8 ADD MSTORE DUP6 MLOAD SWAP8 MLOAD SWAP9 MLOAD SWAP7 MLOAD SWAP5 MLOAD SWAP4 MLOAD PUSH1 0xC0 DUP8 ADD MLOAD SWAP10 DUP3 AND SWAP10 SWAP9 DUP3 AND SWAP9 SWAP8 SWAP1 SWAP2 AND SWAP7 SWAP1 SWAP3 SWAP1 SWAP2 PUSH1 0x2 DUP4 LT ISZERO PUSH2 0x15A3 JUMPI POP PUSH2 0x24D SWAP8 SWAP9 SWAP10 POP MLOAD SWAP2 PUSH2 0x100 DUP7 ADD MLOAD ISZERO ISZERO SWAP4 PUSH2 0x120 DUP8 ADD MLOAD ISZERO ISZERO SWAP6 PUSH2 0x140 DUP9 ADD MLOAD ISZERO ISZERO SWAP8 PUSH2 0x160 PUSH1 0x1 DUP1 PUSH1 0xA0 SHL SUB SWAP2 ADD MLOAD AND SWAP9 PUSH1 0x40 MLOAD SWAP13 DUP14 SWAP13 DUP14 PUSH2 0x282F JUMP JUMPDEST PUSH4 0x4E487B71 PUSH1 0xE0 SHL DUP2 MSTORE PUSH1 0x21 DUP12 MSTORE PUSH1 0x24 SWAP1 REVERT JUMPDEST DUP3 DUP5 CALLVALUE PUSH2 0x429 JUMPI DUP2 PUSH1 0x3 NOT CALLDATASIZE ADD SLT PUSH2 0x429 JUMPI PUSH2 0x15D0 PUSH2 0x2902 JUMP JUMPDEST DUP2 DUP1 DUP1 DUP1 PUSH1 0x1 DUP1 PUSH1 0xA0 SHL SUB PUSH1 0x1 SLOAD AND SELFBALANCE SWAP1 GAS CALL PUSH2 0x15EB PUSH2 0x2A32 JUMP JUMPDEST POP ISZERO PUSH2 0x15F5 JUMPI POP DUP1 RETURN JUMPDEST PUSH1 0x64 SWAP1 PUSH1 0x20 PUSH1 0x40 MLOAD SWAP2 PUSH3 0x461BCD PUSH1 0xE5 SHL DUP4 MSTORE DUP3 ADD MSTORE PUSH1 0xF PUSH1 0x24 DUP3 ADD MSTORE PUSH15 0x151C985B9CD9995C8819985A5B1959 PUSH1 0x8A SHL PUSH1 0x44 DUP3 ADD MSTORE REVERT JUMPDEST DUP3 CALLVALUE PUSH2 0x251 JUMPI DUP1 PUSH1 0x3 NOT CALLDATASIZE ADD SLT PUSH2 0x251 JUMPI PUSH1 0x9 SLOAD PUSH1 0x40 MLOAD PUSH1 0x1 PUSH1 0x1 PUSH1 0xA0 SHL SUB SWAP1 SWAP2 AND DUP2 MSTORE PUSH1 0x20 SWAP1 RETURN JUMPDEST SWAP1 POP DUP3 CALLVALUE PUSH2 0x35E JUMPI PUSH1 0x20 CALLDATASIZE PUSH1 0x3 NOT ADD SLT PUSH2 0x35E JUMPI PUSH1 0x8 PUSH1 0x40 PUSH1 0x20 SWAP5 DUP4 CALLDATALOAD DUP2 MSTORE PUSH1 0x2 DUP7 MSTORE KECCAK256 PUSH1 0x40 MLOAD SWAP4 PUSH2 0x1685 DUP6 PUSH2 0x29F3 JUMP JUMPDEST DUP2 SLOAD PUSH1 0x1 PUSH1 0x1 PUSH1 0xA0 SHL SUB SWAP1 DUP2 AND DUP7 MSTORE PUSH1 0x1 DUP4 ADD SLOAD DUP2 AND DUP8 DUP8 ADD MSTORE PUSH1 0x2 DUP4 ADD SLOAD DUP2 AND PUSH1 0x40 DUP8 ADD MSTORE PUSH1 0x3 DUP4 ADD SLOAD PUSH1 0x60 DUP8 ADD MSTORE SWAP4 DUP3 ADD SLOAD PUSH1 0x80 DUP7 ADD MSTORE PUSH1 0x5 DUP3 ADD SLOAD PUSH1 0xA0 DUP7 ADD MSTORE PUSH1 0x6 DUP3 ADD SLOAD PUSH2 0x16DD SWAP1 PUSH1 0xFF AND PUSH1 0xC0 DUP8 ADD PUSH2 0x2BDC JUMP JUMPDEST PUSH1 0x7 DUP3 ADD SLOAD SWAP1 DUP6 ADD MSTORE ADD SLOAD SWAP1 PUSH1 0xFF DUP3 AND ISZERO ISZERO SWAP3 DUP4 PUSH2 0x100 DUP3 ADD MSTORE PUSH2 0x160 PUSH1 0xFF DUP5 PUSH1 0x8 SHR AND ISZERO ISZERO SWAP3 DUP4 PUSH2 0x120 DUP5 ADD MSTORE PUSH1 0xFF DUP6 PUSH1 0x10 SHR AND ISZERO SWAP5 DUP6 ISZERO PUSH2 0x140 DUP6 ADD MSTORE PUSH1 0x18 SHR AND SWAP2 ADD MSTORE DUP3 PUSH2 0x1742 JUMPI JUMPDEST POP DUP2 PUSH2 0x173A JUMPI POP PUSH1 0x40 MLOAD SWAP1 ISZERO ISZERO DUP2 MSTORE RETURN JUMPDEST SWAP1 POP DUP3 PUSH2 0x334 JUMP JUMPDEST SWAP2 POP DUP4 PUSH2 0x1729 JUMP JUMPDEST DUP3 DUP5 CALLVALUE PUSH2 0x429 JUMPI PUSH1 0x40 CALLDATASIZE PUSH1 0x3 NOT ADD SLT PUSH2 0x429 JUMPI DUP1 CALLDATALOAD SWAP1 PUSH2 0x1768 PUSH2 0x2B44 JUMP JUMPDEST PUSH2 0x1770 PUSH2 0x2AFD JUMP JUMPDEST DUP2 DUP4 MSTORE PUSH1 0x2 PUSH1 0x20 SWAP1 DUP2 MSTORE PUSH1 0x40 DUP5 KECCAK256 PUSH1 0x1 DUP2 ADD SLOAD PUSH1 0x1 PUSH1 0x1 PUSH1 0xA0 SHL SUB SWAP3 SWAP2 SWAP1 PUSH2 0x179F SWAP1 DUP5 AND PUSH2 0x828 DUP2 ISZERO ISZERO PUSH2 0x2C63 JUMP JUMPDEST PUSH1 0x8 DUP2 ADD SWAP3 DUP4 SLOAD PUSH1 0xFF SWAP6 PUSH2 0x17B8 DUP8 DUP4 PUSH1 0x8 SHR AND ISZERO PUSH2 0x2CE2 JUMP JUMPDEST PUSH2 0x17C7 DUP8 DUP4 PUSH1 0x10 SHR AND ISZERO PUSH2 0x2CA5 JUMP JUMPDEST PUSH2 0x17DB PUSH2 0x86C PUSH1 0x7 DUP7 ADD SLOAD PUSH1 0x7 SLOAD SWAP1 PUSH2 0x29A6 JUMP JUMPDEST PUSH1 0x6 DUP5 ADD SWAP4 DUP8 DUP6 SLOAD AND PUSH1 0x2 DUP2 LT ISZERO PUSH2 0x1A1E JUMPI PUSH1 0x1 SUB PUSH2 0x19E8 JUMPI PUSH1 0x5 ADD SWAP3 DUP4 SLOAD PUSH2 0x2710 PUSH2 0x1809 PUSH1 0x6 SLOAD DUP4 PUSH2 0x2D9B JUMP JUMPDEST DIV SWAP4 DUP2 PUSH1 0x24 CALLDATALOAD LT PUSH2 0x19B0 JUMPI PUSH2 0xFF00 NOT AND PUSH2 0x100 OR DUP9 SSTORE PUSH1 0xA SLOAD PUSH1 0x40 DUP1 MLOAD PUSH4 0x23B872DD PUSH1 0xE0 SHL DUP2 MSTORE CALLER DUP7 DUP3 ADD SWAP1 DUP2 MSTORE ADDRESS PUSH1 0x20 DUP3 ADD MSTORE SWAP2 DUP3 ADD SWAP4 SWAP1 SWAP4 MSTORE DUP13 SWAP4 SWAP3 SWAP2 DUP10 SWAP2 DUP4 SWAP2 DUP6 AND SWAP1 DUP3 SWAP1 DUP8 SWAP1 DUP3 SWAP1 PUSH1 0x60 ADD SUB SWAP3 GAS CALL SWAP2 DUP3 ISZERO PUSH2 0x19A5 JUMPI PUSH2 0x1879 DUP10 SWAP4 DUP8 SWAP4 PUSH2 0x18B4 SWAP7 SWAP2 PUSH2 0x1988 JUMPI POP PUSH2 0x2DC6 JUMP JUMPDEST DUP1 PUSH1 0xA SLOAD AND SWAP1 PUSH1 0x8 SLOAD AND DUP14 PUSH1 0x40 MLOAD DUP1 SWAP7 DUP2 SWAP6 DUP3 SWAP5 PUSH4 0xA9059CBB PUSH1 0xE0 SHL DUP5 MSTORE DUP11 DUP5 ADD PUSH1 0x20 SWAP1 SWAP4 SWAP3 SWAP2 SWAP4 PUSH1 0x40 DUP2 ADD SWAP5 PUSH1 0x1 DUP1 PUSH1 0xA0 SHL SUB AND DUP2 MSTORE ADD MSTORE JUMP JUMPDEST SUB SWAP3 GAS CALL SWAP1 DUP2 ISZERO PUSH2 0x197D JUMPI DUP11 SWAP2 PUSH2 0x1960 JUMPI JUMPDEST POP ISZERO PUSH2 0x191C JUMPI POP SWAP3 PUSH2 0x92A DUP7 PUSH32 0x981102F46F858A9AD42E0E3924C2EE3DDB912D9D6D28768155FFDB174C81711F SWAP5 DUP5 PUSH2 0x1903 DUP12 SWAP9 PUSH1 0x60 SWAP8 SLOAD PUSH2 0x2AB4 JUMP JUMPDEST SWAP1 SSTORE SLOAD AND DUP10 PUSH1 0x40 MLOAD SWAP4 CALLER DUP6 MSTORE DUP5 ADD MSTORE PUSH1 0x40 DUP4 ADD SWAP1 PUSH2 0x280C JUMP JUMPDEST PUSH1 0x40 MLOAD PUSH3 0x461BCD PUSH1 0xE5 SHL DUP2 MSTORE SWAP1 DUP2 ADD DUP6 SWAP1 MSTORE PUSH1 0x18 PUSH1 0x24 DUP3 ADD MSTORE PUSH32 0x5553444320666565207472616E73666572206661696C65640000000000000000 PUSH1 0x44 DUP3 ADD MSTORE PUSH1 0x64 SWAP1 REVERT JUMPDEST PUSH2 0x1977 SWAP2 POP DUP7 RETURNDATASIZE DUP9 GT PUSH2 0x6E9 JUMPI PUSH2 0x6DB DUP2 DUP4 PUSH2 0x2A10 JUMP JUMPDEST DUP11 PUSH2 0x18C6 JUMP JUMPDEST PUSH1 0x40 MLOAD RETURNDATASIZE DUP13 DUP3 RETURNDATACOPY RETURNDATASIZE SWAP1 REVERT JUMPDEST PUSH2 0x199F SWAP2 POP DUP6 RETURNDATASIZE DUP8 GT PUSH2 0x6E9 JUMPI PUSH2 0x6DB DUP2 DUP4 PUSH2 0x2A10 JUMP JUMPDEST DUP16 PUSH2 0x6B8 JUMP JUMPDEST PUSH1 0x40 MLOAD RETURNDATASIZE DUP6 DUP3 RETURNDATACOPY RETURNDATASIZE SWAP1 REVERT JUMPDEST PUSH1 0x40 MLOAD PUSH3 0x461BCD PUSH1 0xE5 SHL DUP2 MSTORE DUP1 DUP6 ADD DUP10 SWAP1 MSTORE PUSH1 0x11 PUSH1 0x24 DUP3 ADD MSTORE PUSH17 0x496E73756666696369656E742055534443 PUSH1 0x78 SHL PUSH1 0x44 DUP3 ADD MSTORE PUSH1 0x64 SWAP1 REVERT JUMPDEST PUSH1 0x40 MLOAD PUSH3 0x461BCD PUSH1 0xE5 SHL DUP2 MSTORE DUP1 DUP4 ADD DUP8 SWAP1 MSTORE PUSH1 0xF PUSH1 0x24 DUP3 ADD MSTORE PUSH15 0x4E6F74206120555344432067616D65 PUSH1 0x88 SHL PUSH1 0x44 DUP3 ADD MSTORE PUSH1 0x64 SWAP1 REVERT JUMPDEST PUSH4 0x4E487B71 PUSH1 0xE0 SHL DUP12 MSTORE PUSH1 0x21 DUP4 MSTORE PUSH1 0x24 DUP12 REVERT JUMPDEST DUP3 CALLVALUE PUSH2 0x251 JUMPI DUP1 PUSH1 0x3 NOT CALLDATASIZE ADD SLT PUSH2 0x251 JUMPI PUSH2 0x1A4A PUSH2 0x2902 JUMP JUMPDEST PUSH1 0x1 DUP1 SLOAD PUSH1 0x1 PUSH1 0x1 PUSH1 0xA0 SHL SUB NOT DUP2 AND SWAP1 SWAP2 SSTORE PUSH1 0x0 SWAP1 PUSH1 0x1 PUSH1 0x1 PUSH1 0xA0 SHL SUB AND PUSH32 0x8BE0079C531659141344CD1FD0A4F28419497F9722A3DAAFE3B4186F6B6457E0 DUP3 DUP1 LOG3 DUP1 RETURN JUMPDEST DUP3 DUP5 CALLVALUE PUSH2 0x429 JUMPI PUSH1 0x20 SWAP1 DUP2 PUSH1 0x3 NOT CALLDATASIZE ADD SLT PUSH2 0x35E JUMPI DUP1 CALLDATALOAD SWAP2 PUSH2 0x1AAF PUSH2 0x2B44 JUMP JUMPDEST DUP3 DUP5 MSTORE PUSH1 0x2 DUP2 MSTORE PUSH1 0x40 DUP5 KECCAK256 DUP1 SLOAD SWAP1 SWAP3 PUSH1 0x1 PUSH1 0x1 PUSH1 0xA0 SHL SUB SWAP2 DUP3 AND SWAP1 PUSH2 0x1AD5 DUP3 ISZERO ISZERO PUSH2 0x2C63 JUMP JUMPDEST PUSH1 0x8 DUP6 ADD SWAP2 DUP3 SLOAD PUSH1 0xFF SWAP2 PUSH2 0x1AEE DUP4 DUP4 PUSH1 0x10 SHR AND ISZERO PUSH2 0x2CA5 JUMP JUMPDEST PUSH2 0x1AFF PUSH1 0x7 DUP10 ADD SLOAD PUSH1 0x7 SLOAD SWAP1 PUSH2 0x29A6 JUMP JUMPDEST TIMESTAMP GT ISZERO PUSH2 0x1EDA JUMPI CALLER EQ DUP1 ISZERO PUSH2 0x1ECB JUMPI JUMPDEST ISZERO PUSH2 0x1E98 JUMPI DUP9 SWAP4 SWAP3 SWAP2 SWAP1 DUP2 DUP2 AND DUP1 DUP1 PUSH2 0x1E8B JUMPI JUMPDEST ISZERO PUSH2 0x1BEF JUMPI POP POP POP DUP4 DUP7 SLOAD AND SWAP2 PUSH2 0x1B3B DUP4 CALLER EQ PUSH2 0x2E4E JUMP JUMPDEST DUP1 SLOAD PUSH3 0xFF0000 NOT AND PUSH3 0x10000 OR SWAP1 SSTORE PUSH1 0x2 DUP7 ADD SLOAD PUSH1 0x3 DUP8 ADD SLOAD SWAP1 DUP6 AND DUP1 EXTCODESIZE ISZERO PUSH2 0x10ED JUMPI PUSH1 0x40 DUP1 MLOAD PUSH4 0x23B872DD PUSH1 0xE0 SHL DUP2 MSTORE ADDRESS SWAP5 DUP2 ADD SWAP5 DUP6 MSTORE PUSH1 0x1 PUSH1 0x1 PUSH1 0xA0 SHL SUB SWAP1 SWAP6 AND PUSH1 0x20 DUP6 ADD MSTORE DUP4 ADD SWAP2 SWAP1 SWAP2 MSTORE DUP4 SWAP2 DUP4 SWAP2 SWAP1 DUP3 SWAP1 DUP5 SWAP1 DUP3 SWAP1 PUSH1 0x60 ADD SUB SWAP3 GAS CALL DUP1 ISZERO PUSH2 0x726 JUMPI PUSH2 0x1BDB JUMPI JUMPDEST POP POP PUSH32 0xBEB9DB71629193A6A8D82214E24CE084D5F6B1C980D4CDA5CEC9139A2EA33832 SWAP3 SLOAD AND PUSH1 0x40 MLOAD SWAP1 DUP2 MSTORE LOG2 JUMPDEST PUSH1 0x1 DUP2 SSTORE DUP1 RETURN JUMPDEST PUSH2 0x1BE4 SWAP1 PUSH2 0x29C9 JUMP JUMPDEST PUSH2 0x10ED JUMPI DUP5 DUP7 PUSH2 0x1BA6 JUMP JUMPDEST SWAP1 SWAP2 SWAP6 SWAP7 SWAP8 SWAP4 SWAP3 SWAP5 POP ISZERO DUP1 DUP1 SWAP2 PUSH2 0x1E7F JUMPI JUMPDEST ISZERO PUSH2 0x1DF3 JUMPI POP POP PUSH1 0x1 DUP3 ADD SWAP4 DUP6 DUP6 SLOAD AND SWAP2 PUSH2 0x1C1D DUP4 CALLER EQ PUSH2 0x2E4E JUMP JUMPDEST DUP1 SLOAD PUSH3 0xFF0000 NOT AND PUSH3 0x10000 OR SWAP1 SSTORE PUSH1 0x6 DUP4 ADD SLOAD AND PUSH1 0x2 DUP2 LT ISZERO PUSH2 0x1DE0 JUMPI DUP9 SWAP3 SWAP2 DUP8 SWAP2 PUSH2 0x1CE8 JUMPI POP POP DUP2 DUP1 DUP1 SWAP3 PUSH2 0x1C6B DUP7 DUP10 DUP10 SLOAD AND SWAP3 ADD SLOAD PUSH2 0x2710 PUSH2 0x1C64 PUSH1 0x6 SLOAD DUP4 PUSH2 0x2D9B JUMP JUMPDEST DIV SWAP1 PUSH2 0x29A6 JUMP JUMPDEST SWAP1 GAS CALL PUSH2 0x1C76 PUSH2 0x2A32 JUMP JUMPDEST POP ISZERO PUSH2 0x1CB0 JUMPI POP SWAP1 PUSH32 0xBEB9DB71629193A6A8D82214E24CE084D5F6B1C980D4CDA5CEC9139A2EA33832 SWAP3 SWAP2 JUMPDEST SLOAD AND PUSH1 0x40 MLOAD SWAP1 DUP2 MSTORE LOG2 PUSH2 0x1BD4 JUMP JUMPDEST PUSH1 0x40 MLOAD PUSH3 0x461BCD PUSH1 0xE5 SHL DUP2 MSTORE SWAP1 DUP2 ADD DUP5 SWAP1 MSTORE PUSH1 0x11 PUSH1 0x24 DUP3 ADD MSTORE PUSH17 0x115512081C99599D5B990819985A5B1959 PUSH1 0x7A SHL PUSH1 0x44 DUP3 ADD MSTORE PUSH1 0x64 SWAP1 REVERT JUMPDEST SWAP1 SWAP2 PUSH2 0x1D3D SWAP4 POP PUSH2 0x1D0B PUSH1 0x5 DUP9 PUSH1 0xA SLOAD AND SWAP3 ADD SLOAD PUSH2 0x2710 PUSH2 0x1C64 PUSH1 0x6 SLOAD DUP4 PUSH2 0x2D9B JUMP JUMPDEST SWAP2 DUP11 PUSH1 0x40 MLOAD DUP1 SWAP7 DUP2 SWAP6 DUP3 SWAP5 PUSH4 0xA9059CBB PUSH1 0xE0 SHL DUP5 MSTORE DUP11 DUP5 ADD PUSH1 0x20 SWAP1 SWAP4 SWAP3 SWAP2 SWAP4 PUSH1 0x40 DUP2 ADD SWAP5 PUSH1 0x1 DUP1 PUSH1 0xA0 SHL SUB AND DUP2 MSTORE ADD MSTORE JUMP JUMPDEST SUB SWAP3 GAS CALL SWAP1 DUP2 ISZERO PUSH2 0x1DD5 JUMPI DUP8 SWAP2 PUSH2 0x1DB8 JUMPI JUMPDEST POP ISZERO PUSH2 0x1D7F JUMPI POP SWAP1 PUSH32 0xBEB9DB71629193A6A8D82214E24CE084D5F6B1C980D4CDA5CEC9139A2EA33832 SWAP3 SWAP2 PUSH2 0x1CA2 JUMP JUMPDEST PUSH1 0x40 MLOAD PUSH3 0x461BCD PUSH1 0xE5 SHL DUP2 MSTORE SWAP1 DUP2 ADD DUP5 SWAP1 MSTORE PUSH1 0x12 PUSH1 0x24 DUP3 ADD MSTORE PUSH18 0x1554D110C81C99599D5B990819985A5B1959 PUSH1 0x72 SHL PUSH1 0x44 DUP3 ADD MSTORE PUSH1 0x64 SWAP1 REVERT JUMPDEST PUSH2 0x1DCF SWAP2 POP DUP6 RETURNDATASIZE DUP8 GT PUSH2 0x6E9 JUMPI PUSH2 0x6DB DUP2 DUP4 PUSH2 0x2A10 JUMP JUMPDEST DUP8 PUSH2 0x1D4F JUMP JUMPDEST PUSH1 0x40 MLOAD RETURNDATASIZE DUP10 DUP3 RETURNDATACOPY RETURNDATASIZE SWAP1 REVERT JUMPDEST PUSH4 0x4E487B71 PUSH1 0xE0 SHL DUP10 MSTORE PUSH1 0x21 DUP5 MSTORE PUSH1 0x24 DUP10 REVERT JUMPDEST SWAP4 POP SWAP5 POP SWAP5 SWAP3 SWAP1 POP DUP2 PUSH2 0x1E71 JUMPI JUMPDEST POP PUSH2 0x1E10 JUMPI JUMPDEST POP POP POP POP PUSH2 0x1BD4 JUMP JUMPDEST PUSH32 0xD48B0C9992D8D4B8967D1584DC8C1955390D9FF30639A7DA9C77E7F0DB86C3D8 SWAP3 PUSH3 0x10000 PUSH1 0x60 SWAP4 PUSH3 0xFF0000 NOT AND OR SWAP1 SSTORE PUSH1 0x10 PUSH1 0x40 MLOAD SWAP2 DUP1 DUP4 MSTORE DUP3 ADD MSTORE PUSH16 0x4E6F206465706F73697473206D616465 PUSH1 0x80 SHL PUSH1 0x40 DUP3 ADD MSTORE LOG2 DUP2 DUP1 DUP1 DUP1 PUSH2 0x1E07 JUMP JUMPDEST SWAP1 POP DUP3 PUSH1 0x8 SHR AND ISZERO DUP7 PUSH2 0x1E01 JUMP JUMPDEST POP DUP6 DUP3 PUSH1 0x8 SHR AND PUSH2 0x1C01 JUMP JUMPDEST POP DUP3 DUP3 PUSH1 0x8 SHR AND ISZERO PUSH2 0x1B23 JUMP JUMPDEST PUSH1 0x40 MLOAD PUSH3 0x461BCD PUSH1 0xE5 SHL DUP2 MSTORE DUP1 DUP5 ADD DUP8 SWAP1 MSTORE PUSH1 0xC PUSH1 0x24 DUP3 ADD MSTORE PUSH12 0x2737BA103090383630BCB2B9 PUSH1 0xA1 SHL PUSH1 0x44 DUP3 ADD MSTORE PUSH1 0x64 SWAP1 REVERT JUMPDEST POP DUP5 PUSH1 0x1 DUP9 ADD SLOAD AND CALLER EQ PUSH2 0x1B0F JUMP JUMPDEST PUSH1 0x40 MLOAD PUSH3 0x461BCD PUSH1 0xE5 SHL DUP2 MSTORE DUP1 DUP6 ADD DUP9 SWAP1 MSTORE PUSH1 0x13 PUSH1 0x24 DUP3 ADD MSTORE PUSH19 0x151A5B595BDD5D081B9BDD081C995858DA1959 PUSH1 0x6A SHL PUSH1 0x44 DUP3 ADD MSTORE PUSH1 0x64 SWAP1 REVERT JUMPDEST SWAP1 POP CALLVALUE PUSH2 0x429 JUMPI DUP1 PUSH1 0x3 NOT CALLDATASIZE ADD SLT PUSH2 0x429 JUMPI DUP3 CALLDATALOAD SWAP1 PUSH2 0x1F31 PUSH2 0x27E0 JUMP JUMPDEST PUSH2 0x1F39 PUSH2 0x27F6 JUMP JUMPDEST SWAP2 PUSH1 0x1 PUSH1 0x1 PUSH1 0xA0 SHL SUB SWAP1 PUSH1 0x64 CALLDATALOAD DUP3 DUP2 AND SWAP2 SWAP1 DUP3 SWAP1 SUB PUSH2 0x218C JUMPI PUSH1 0xC4 CALLDATALOAD SWAP3 PUSH1 0xA4 CALLDATALOAD PUSH1 0x2 DUP6 LT ISZERO PUSH2 0xDD9 JUMPI SWAP1 DUP9 DUP1 DUP10 DUP9 DUP11 DUP10 DUP16 SWAP8 DUP6 SWAP9 PUSH2 0x1F75 PUSH2 0x2902 JUMP JUMPDEST DUP6 DUP8 MSTORE PUSH1 0x2 PUSH1 0x20 MSTORE PUSH2 0x1F8D DUP10 PUSH1 0x40 DUP10 KECCAK256 SLOAD AND ISZERO PUSH2 0x2B9A JUMP JUMPDEST DUP7 SWAP2 DUP3 DUP5 PUSH2 0x2184 JUMPI POP PUSH2 0x1F9F SWAP1 PUSH2 0x2EA3 JUMP JUMPDEST DUP10 PUSH1 0x40 MLOAD SWAP7 PUSH2 0x1FAD DUP9 PUSH2 0x29F3 JUMP JUMPDEST AND SWAP12 DUP13 DUP8 MSTORE DUP11 PUSH1 0x20 DUP9 ADD SWAP7 AND SWAP14 DUP15 DUP8 MSTORE PUSH1 0x40 DUP9 ADD SWAP1 DUP2 MSTORE PUSH1 0x60 DUP9 ADD SWAP2 PUSH1 0x84 CALLDATALOAD DUP4 MSTORE PUSH1 0x80 DUP10 ADD SWAP4 DUP5 MSTORE PUSH1 0xA0 DUP10 ADD SWAP6 DUP7 MSTORE PUSH1 0xC0 DUP10 ADD SWAP7 PUSH2 0x1FEB SWAP1 DUP9 PUSH2 0x2BDC JUMP JUMPDEST DUP9 ADD SWAP7 TIMESTAMP DUP9 MSTORE PUSH2 0x100 DUP10 ADD SWAP14 DUP15 MSTORE DUP13 DUP12 PUSH2 0x120 DUP12 ADD SWAP12 DUP2 DUP14 MSTORE PUSH2 0x140 DUP13 ADD SWAP14 DUP15 MSTORE PUSH2 0x160 DUP13 ADD SWAP15 DUP16 MSTORE DUP2 MSTORE PUSH1 0x2 PUSH1 0x20 MSTORE PUSH1 0x40 SWAP1 KECCAK256 SWAP10 MLOAD AND SWAP1 PUSH1 0x1 PUSH1 0x1 PUSH1 0x60 SHL SUB PUSH1 0xA0 SHL SWAP2 DUP3 DUP12 SLOAD AND OR DUP11 SSTORE DUP14 PUSH1 0x1 DUP12 ADD SWAP2 MLOAD AND DUP3 DUP3 SLOAD AND OR SWAP1 SSTORE DUP13 PUSH1 0x2 DUP11 ADD SWAP3 MLOAD AND SWAP1 DUP3 SLOAD AND OR SWAP1 SSTORE MLOAD PUSH1 0x3 DUP8 ADD SSTORE MLOAD SWAP1 DUP6 ADD SSTORE MLOAD PUSH1 0x5 DUP5 ADD SSTORE MLOAD PUSH1 0x2 DUP2 LT ISZERO PUSH2 0x2170 JUMPI SWAP4 PUSH32 0x212C0BDCF42696E85CDDF68FC1623B3327138B7898282F7356AB7EC713E9CF32 SWAP14 SWAP15 SWAP16 SWAP9 SWAP7 SWAP4 PUSH2 0x20F1 SWAP1 PUSH2 0x20DA PUSH1 0x8 DUP7 PUSH2 0x13AC SWAP16 SWAP15 SWAP13 SWAP10 SWAP7 PUSH2 0x20BD PUSH2 0x210A SWAP9 PUSH1 0x6 PUSH2 0x2130 SWAP15 SWAP12 ADD PUSH2 0x2BE8 JUMP JUMPDEST MLOAD PUSH1 0x7 DUP3 ADD SSTORE ADD SWAP8 MLOAD ISZERO ISZERO DUP9 SWAP1 PUSH1 0xFF DUP1 NOT DUP4 SLOAD AND SWAP2 ISZERO ISZERO AND OR SWAP1 SSTORE JUMP JUMPDEST MLOAD DUP7 SLOAD PUSH2 0xFF00 NOT AND SWAP1 ISZERO ISZERO PUSH1 0x8 SHL PUSH2 0xFF00 AND OR DUP7 SSTORE JUMP JUMPDEST MLOAD DUP5 SLOAD PUSH3 0xFF0000 NOT AND SWAP1 ISZERO ISZERO PUSH1 0x10 SHL PUSH3 0xFF0000 AND OR DUP5 SSTORE JUMP JUMPDEST MLOAD DUP3 SLOAD PUSH4 0x1000000 PUSH1 0x1 PUSH1 0xB8 SHL SUB NOT AND SWAP2 AND PUSH1 0x18 SHL PUSH4 0x1000000 PUSH1 0x1 PUSH1 0xB8 SHL SUB AND OR SWAP1 SSTORE JUMP JUMPDEST DUP10 MSTORE DUP2 PUSH1 0x20 MSTORE PUSH2 0x2143 DUP9 PUSH1 0x40 DUP12 KECCAK256 PUSH2 0x2C00 JUMP JUMPDEST DUP1 PUSH2 0x2157 JUMPI JUMPDEST POP POP PUSH1 0x40 MLOAD SWAP4 DUP5 SWAP4 DUP5 PUSH2 0x2C3A JUMP JUMPDEST DUP9 MSTORE PUSH1 0x20 MSTORE PUSH2 0x2169 DUP7 PUSH1 0x40 DUP10 KECCAK256 PUSH2 0x2C00 JUMP JUMPDEST CODESIZE DUP1 PUSH2 0x2149 JUMP JUMPDEST DUP16 DUP16 PUSH1 0x21 PUSH1 0x24 SWAP3 PUSH4 0x4E487B71 PUSH1 0xE0 SHL DUP4 MSTORE MSTORE REVERT JUMPDEST SWAP3 POP SWAP2 PUSH2 0x1F9F JUMP JUMPDEST PUSH1 0x0 DUP1 REVERT JUMPDEST DUP3 CALLVALUE PUSH2 0x251 JUMPI DUP1 PUSH1 0x3 NOT CALLDATASIZE ADD SLT PUSH2 0x251 JUMPI PUSH1 0x20 PUSH1 0x7 SLOAD PUSH1 0x40 MLOAD SWAP1 DUP2 MSTORE RETURN JUMPDEST DUP3 CALLVALUE PUSH2 0x251 JUMPI DUP1 PUSH1 0x3 NOT CALLDATASIZE ADD SLT PUSH2 0x251 JUMPI PUSH1 0x20 PUSH1 0xFF PUSH1 0x1 SLOAD PUSH1 0xA0 SHR AND PUSH1 0x40 MLOAD SWAP1 ISZERO ISZERO DUP2 MSTORE RETURN JUMPDEST DUP3 DUP5 CALLVALUE PUSH2 0x429 JUMPI PUSH1 0x20 CALLDATASIZE PUSH1 0x3 NOT ADD SLT PUSH2 0x429 JUMPI DUP1 CALLDATALOAD SWAP1 PUSH2 0x21F3 PUSH2 0x2B44 JUMP JUMPDEST PUSH2 0x21FB PUSH2 0x2AFD JUMP JUMPDEST DUP2 DUP4 MSTORE PUSH1 0x2 PUSH1 0x20 MSTORE PUSH1 0x40 DUP4 KECCAK256 DUP1 SLOAD PUSH1 0x1 PUSH1 0x1 PUSH1 0xA0 SHL SUB SWAP3 SWAP1 DUP4 AND PUSH2 0x2220 DUP2 ISZERO ISZERO PUSH2 0x2C63 JUMP JUMPDEST CALLER SUB PUSH2 0x233E JUMPI DUP5 PUSH1 0x8 DUP4 ADD SWAP4 PUSH2 0x2249 PUSH1 0xFF DUP7 SLOAD PUSH2 0x223F DUP3 DUP3 AND ISZERO PUSH2 0x2CE2 JUMP JUMPDEST PUSH1 0x10 SHR AND ISZERO PUSH2 0x2CA5 JUMP JUMPDEST PUSH2 0x225D PUSH2 0x86C PUSH1 0x7 DUP7 ADD SLOAD PUSH1 0x7 SLOAD SWAP1 PUSH2 0x29A6 JUMP JUMPDEST PUSH1 0x2 DUP5 ADD SLOAD AND PUSH1 0x3 DUP5 ADD SLOAD SWAP1 DUP1 EXTCODESIZE ISZERO PUSH2 0x35E JUMPI PUSH1 0x40 DUP1 MLOAD PUSH4 0x23B872DD PUSH1 0xE0 SHL DUP2 MSTORE CALLER SWAP6 DUP2 ADD SWAP6 DUP7 MSTORE ADDRESS PUSH1 0x20 DUP8 ADD MSTORE SWAP1 DUP6 ADD SWAP3 SWAP1 SWAP3 MSTORE SWAP1 SWAP3 DUP4 SWAP2 SWAP1 DUP3 SWAP1 DUP5 SWAP1 DUP3 SWAP1 PUSH1 0x60 ADD SUB SWAP3 GAS CALL DUP1 ISZERO PUSH2 0x6F0 JUMPI PUSH2 0x232A JUMPI JUMPDEST POP DUP4 PUSH1 0x1 SWAP2 DUP5 PUSH32 0x981102F46F858A9AD42E0E3924C2EE3DDB912D9D6D28768155FFDB174C81711F PUSH1 0x60 PUSH1 0xFF PUSH1 0x6 DUP9 SLOAD SWAP6 DUP9 DUP4 NOT DUP9 AND OR DUP1 SWAP11 SSTORE ADD SLOAD AND PUSH2 0x2305 PUSH1 0x40 MLOAD SWAP2 CALLER DUP4 MSTORE DUP9 PUSH1 0x20 DUP5 ADD MSTORE PUSH1 0x40 DUP4 ADD SWAP1 PUSH2 0x280C JUMP JUMPDEST LOG2 AND OR SWAP1 DUP2 PUSH2 0x231C JUMPI JUMPDEST POP PUSH2 0x946 JUMPI POP PUSH1 0x1 DUP2 SSTORE DUP1 RETURN JUMPDEST PUSH1 0xFF SWAP2 POP PUSH1 0x8 SHR AND DUP4 PUSH2 0x230F JUMP JUMPDEST SWAP4 PUSH2 0x2337 PUSH1 0x1 SWAP3 SWAP6 PUSH2 0x29C9 JUMP JUMPDEST SWAP4 SWAP1 PUSH2 0x22AF JUMP JUMPDEST PUSH1 0x64 SWAP1 PUSH1 0x20 PUSH1 0x40 MLOAD SWAP2 PUSH3 0x461BCD PUSH1 0xE5 SHL DUP4 MSTORE DUP3 ADD MSTORE PUSH1 0xC PUSH1 0x24 DUP3 ADD MSTORE PUSH12 0x4E6F7420706C617965722031 PUSH1 0xA0 SHL PUSH1 0x44 DUP3 ADD MSTORE REVERT JUMPDEST DUP3 CALLVALUE PUSH2 0x251 JUMPI DUP1 PUSH1 0x3 NOT CALLDATASIZE ADD SLT PUSH2 0x251 JUMPI PUSH2 0x238A PUSH2 0x2902 JUMP JUMPDEST PUSH2 0x2392 PUSH2 0x2AFD JUMP JUMPDEST PUSH1 0x1 DUP1 SLOAD PUSH1 0xFF PUSH1 0xA0 SHL NOT AND PUSH1 0x1 PUSH1 0xA0 SHL OR SWAP1 SSTORE PUSH1 0x40 MLOAD CALLER DUP2 MSTORE PUSH32 0x62E78CEA01BEE320CD4E420270B5EA74000D11B0C9F74754EBDBFC544B05A258 SWAP1 PUSH1 0x20 SWAP1 LOG1 DUP1 RETURN JUMPDEST DUP3 DUP5 CALLVALUE PUSH2 0x429 JUMPI PUSH1 0x20 CALLDATASIZE PUSH1 0x3 NOT ADD SLT PUSH2 0x429 JUMPI DUP1 CALLDATALOAD SWAP1 PUSH2 0x23F2 PUSH2 0x2902 JUMP JUMPDEST DUP2 DUP4 MSTORE PUSH1 0x2 PUSH1 0x20 MSTORE PUSH1 0x40 DUP4 KECCAK256 DUP1 SLOAD PUSH1 0x8 SWAP2 SWAP1 PUSH2 0x2418 SWAP1 PUSH1 0x1 PUSH1 0x1 PUSH1 0xA0 SHL SUB AND ISZERO ISZERO PUSH2 0x2C63 JUMP JUMPDEST ADD SWAP1 DUP2 SLOAD SWAP1 PUSH2 0x242D PUSH1 0xFF DUP4 PUSH1 0x10 SHR AND ISZERO PUSH2 0x2E09 JUMP JUMPDEST PUSH1 0xFF DUP3 AND ISZERO DUP1 PUSH2 0x24E1 JUMPI JUMPDEST ISZERO PUSH2 0x249D JUMPI POP PUSH3 0x10000 SWAP1 PUSH3 0xFF0000 NOT AND OR SWAP1 SSTORE PUSH32 0xD48B0C9992D8D4B8967D1584DC8C1955390D9FF30639A7DA9C77E7F0DB86C3D8 PUSH1 0x60 PUSH1 0x40 MLOAD PUSH1 0x20 DUP2 MSTORE PUSH1 0x13 PUSH1 0x20 DUP3 ADD MSTORE PUSH19 0x43616E63656C6C65642062792073797374656D PUSH1 0x68 SHL PUSH1 0x40 DUP3 ADD MSTORE LOG2 DUP1 RETURN JUMPDEST PUSH1 0x64 SWAP1 PUSH1 0x20 PUSH1 0x40 MLOAD SWAP2 PUSH3 0x461BCD PUSH1 0xE5 SHL DUP4 MSTORE DUP3 ADD MSTORE PUSH1 0x1C PUSH1 0x24 DUP3 ADD MSTORE PUSH32 0x43616E6E6F742063616E63656C206166746572206465706F7369747300000000 PUSH1 0x44 DUP3 ADD MSTORE REVERT JUMPDEST POP PUSH1 0xFF DUP3 PUSH1 0x8 SHR AND ISZERO PUSH2 0x2438 JUMP JUMPDEST DUP3 DUP5 CALLVALUE PUSH2 0x429 JUMPI DUP2 PUSH1 0x3 NOT CALLDATASIZE ADD SLT PUSH2 0x429 JUMPI PUSH2 0x2509 PUSH2 0x2902 JUMP JUMPDEST PUSH1 0x1 SLOAD SWAP1 PUSH1 0xFF DUP3 PUSH1 0xA0 SHR AND ISZERO PUSH2 0x2553 JUMPI POP PUSH1 0xFF PUSH1 0xA0 SHL NOT AND PUSH1 0x1 SSTORE PUSH1 0x40 MLOAD CALLER DUP2 MSTORE PUSH32 0x5DB9EE0A495BF2E6FF9C91A7834C1BA4FDD244A5E8AA4E537BD38AEAE4B073AA SWAP1 PUSH1 0x20 SWAP1 LOG1 DUP1 RETURN JUMPDEST PUSH1 0x64 SWAP1 PUSH1 0x20 PUSH1 0x40 MLOAD SWAP2 PUSH3 0x461BCD PUSH1 0xE5 SHL DUP4 MSTORE DUP3 ADD MSTORE PUSH1 0x14 PUSH1 0x24 DUP3 ADD MSTORE PUSH20 0x14185D5CD8589B194E881B9BDD081C185D5CD959 PUSH1 0x62 SHL PUSH1 0x44 DUP3 ADD MSTORE REVERT JUMPDEST DUP3 CALLVALUE PUSH2 0x251 JUMPI DUP1 PUSH1 0x3 NOT CALLDATASIZE ADD SLT PUSH2 0x251 JUMPI PUSH1 0x20 PUSH1 0x5 SLOAD PUSH1 0x40 MLOAD SWAP1 DUP2 MSTORE RETURN JUMPDEST DUP3 CALLVALUE PUSH2 0x251 JUMPI DUP1 PUSH1 0x3 NOT CALLDATASIZE ADD SLT PUSH2 0x251 JUMPI PUSH1 0x8 SLOAD PUSH1 0x40 MLOAD PUSH1 0x1 PUSH1 0x1 PUSH1 0xA0 SHL SUB SWAP1 SWAP2 AND DUP2 MSTORE PUSH1 0x20 SWAP1 RETURN JUMPDEST DUP3 DUP5 CALLVALUE PUSH2 0x429 JUMPI PUSH1 0x20 CALLDATASIZE PUSH1 0x3 NOT ADD SLT PUSH2 0x429 JUMPI DUP1 CALLDATALOAD SWAP1 PUSH2 0x25F3 PUSH2 0x2902 JUMP JUMPDEST PUSH1 0x3C DUP3 LT ISZERO DUP1 PUSH2 0x264E JUMPI JUMPDEST ISZERO PUSH2 0x260A JUMPI POP PUSH1 0x7 SSTORE DUP1 RETURN JUMPDEST PUSH1 0x64 SWAP1 PUSH1 0x20 PUSH1 0x40 MLOAD SWAP2 PUSH3 0x461BCD PUSH1 0xE5 SHL DUP4 MSTORE DUP3 ADD MSTORE PUSH1 0x1C PUSH1 0x24 DUP3 ADD MSTORE PUSH32 0x54696D656F7574206D75737420626520312D3130206D696E7574657300000000 PUSH1 0x44 DUP3 ADD MSTORE REVERT JUMPDEST POP PUSH2 0x258 DUP3 GT ISZERO PUSH2 0x25FE JUMP JUMPDEST DUP3 DUP5 CALLVALUE PUSH2 0x429 JUMPI PUSH1 0x20 CALLDATASIZE PUSH1 0x3 NOT ADD SLT PUSH2 0x429 JUMPI PUSH1 0x20 SWAP1 PUSH1 0x40 MLOAD SWAP1 CALLDATALOAD DUP2 MSTORE RETURN JUMPDEST DUP3 DUP5 CALLVALUE PUSH2 0x429 JUMPI PUSH1 0x20 CALLDATASIZE PUSH1 0x3 NOT ADD SLT PUSH2 0x429 JUMPI PUSH2 0x2694 PUSH2 0x2902 JUMP JUMPDEST CALLDATALOAD PUSH1 0x5 SSTORE DUP1 RETURN JUMPDEST DUP3 DUP5 CALLVALUE PUSH2 0x429 JUMPI PUSH1 0x20 CALLDATASIZE PUSH1 0x3 NOT ADD SLT PUSH2 0x429 JUMPI DUP1 CALLDATALOAD SWAP1 PUSH2 0x26B9 PUSH2 0x2902 JUMP JUMPDEST PUSH2 0x3E8 DUP3 GT PUSH2 0x26C9 JUMPI POP PUSH1 0x6 SSTORE DUP1 RETURN JUMPDEST PUSH1 0x64 SWAP1 PUSH1 0x20 PUSH1 0x40 MLOAD SWAP2 PUSH3 0x461BCD PUSH1 0xE5 SHL DUP4 MSTORE DUP3 ADD MSTORE PUSH1 0x7 PUSH1 0x24 DUP3 ADD MSTORE PUSH7 0x4D617820313025 PUSH1 0xC8 SHL PUSH1 0x44 DUP3 ADD MSTORE REVERT JUMPDEST DUP3 DUP5 CALLVALUE PUSH2 0x429 JUMPI PUSH1 0x20 SWAP1 DUP2 PUSH1 0x3 NOT CALLDATASIZE ADD SLT PUSH2 0x35E JUMPI PUSH1 0x1 PUSH1 0x1 PUSH1 0xA0 SHL SUB PUSH2 0x271C PUSH2 0x27CA JUMP JUMPDEST AND DUP4 MSTORE DUP2 MSTORE PUSH1 0x40 DUP3 KECCAK256 PUSH1 0x40 MLOAD SWAP3 DUP4 DUP4 DUP4 SLOAD SWAP2 DUP3 DUP2 MSTORE ADD SWAP1 DUP2 SWAP4 DUP4 MSTORE DUP5 DUP4 KECCAK256 SWAP1 DUP4 JUMPDEST DUP2 DUP2 LT PUSH2 0x2791 JUMPI POP POP POP DUP5 PUSH2 0x2753 SWAP2 SUB DUP6 PUSH2 0x2A10 JUMP JUMPDEST PUSH1 0x40 MLOAD SWAP4 DUP4 DUP6 SWAP5 DUP6 ADD SWAP2 DUP2 DUP7 MSTORE MLOAD DUP1 SWAP3 MSTORE PUSH1 0x40 DUP6 ADD SWAP4 SWAP3 JUMPDEST DUP3 DUP2 LT PUSH2 0x277A JUMPI POP POP POP POP SUB SWAP1 RETURN JUMPDEST DUP4 MLOAD DUP6 MSTORE DUP7 SWAP6 POP SWAP4 DUP2 ADD SWAP4 SWAP3 DUP2 ADD SWAP3 PUSH1 0x1 ADD PUSH2 0x276B JUMP JUMPDEST DUP3 SLOAD DUP5 MSTORE SWAP3 DUP7 ADD SWAP3 PUSH1 0x1 SWAP3 DUP4 ADD SWAP3 ADD PUSH2 0x273D JUMP JUMPDEST DUP4 SWAP1 CALLVALUE PUSH2 0x429 JUMPI DUP2 PUSH1 0x3 NOT CALLDATASIZE ADD SLT PUSH2 0x429 JUMPI PUSH1 0xA SLOAD PUSH1 0x1 PUSH1 0x1 PUSH1 0xA0 SHL SUB AND DUP2 MSTORE PUSH1 0x20 SWAP1 RETURN JUMPDEST PUSH1 0x4 CALLDATALOAD SWAP1 PUSH1 0x1 PUSH1 0x1 PUSH1 0xA0 SHL SUB DUP3 AND DUP3 SUB PUSH2 0x218C JUMPI JUMP JUMPDEST PUSH1 0x24 CALLDATALOAD SWAP1 PUSH1 0x1 PUSH1 0x1 PUSH1 0xA0 SHL SUB DUP3 AND DUP3 SUB PUSH2 0x218C JUMPI JUMP JUMPDEST PUSH1 0x44 CALLDATALOAD SWAP1 PUSH1 0x1 PUSH1 0x1 PUSH1 0xA0 SHL SUB DUP3 AND DUP3 SUB PUSH2 0x218C JUMPI JUMP JUMPDEST SWAP1 PUSH1 0x2 DUP3 LT ISZERO PUSH2 0x2819 JUMPI MSTORE JUMP JUMPDEST PUSH4 0x4E487B71 PUSH1 0xE0 SHL PUSH1 0x0 MSTORE PUSH1 0x21 PUSH1 0x4 MSTORE PUSH1 0x24 PUSH1 0x0 REVERT JUMPDEST SWAP11 SWAP8 SWAP5 SWAP2 SWAP10 SWAP7 SWAP4 SWAP1 SWAP13 SWAP12 SWAP9 SWAP6 SWAP3 SWAP13 PUSH2 0x180 DUP13 ADD SWAP14 DUP13 PUSH1 0x1 PUSH1 0xA0 SHL PUSH1 0x1 SWAP1 SUB DUP1 SWAP14 DUP2 DUP1 SWAP6 AND DUP4 MSTORE AND SWAP1 PUSH1 0x20 ADD MSTORE AND PUSH1 0x40 DUP13 ADD MSTORE PUSH1 0x60 DUP12 ADD MSTORE PUSH1 0x80 DUP11 ADD MSTORE PUSH1 0xA0 DUP10 ADD MSTORE PUSH1 0xC0 DUP9 ADD PUSH2 0x287D SWAP2 PUSH2 0x280C JUMP JUMPDEST PUSH1 0xE0 DUP8 ADD MSTORE ISZERO ISZERO PUSH2 0x100 DUP7 ADD MSTORE ISZERO ISZERO PUSH2 0x120 DUP6 ADD MSTORE ISZERO ISZERO PUSH2 0x140 DUP5 ADD MSTORE AND SWAP1 PUSH2 0x160 ADD MSTORE JUMP JUMPDEST DUP1 SLOAD DUP3 LT ISZERO PUSH2 0x28BB JUMPI PUSH1 0x0 MSTORE PUSH1 0x20 PUSH1 0x0 KECCAK256 ADD SWAP1 PUSH1 0x0 SWAP1 JUMP JUMPDEST PUSH4 0x4E487B71 PUSH1 0xE0 SHL PUSH1 0x0 MSTORE PUSH1 0x32 PUSH1 0x4 MSTORE PUSH1 0x24 PUSH1 0x0 REVERT JUMPDEST SWAP2 DUP2 PUSH1 0x1F DUP5 ADD SLT ISZERO PUSH2 0x218C JUMPI DUP3 CALLDATALOAD SWAP2 PUSH8 0xFFFFFFFFFFFFFFFF DUP4 GT PUSH2 0x218C JUMPI PUSH1 0x20 DUP1 DUP6 ADD SWAP5 DUP5 PUSH1 0x5 SHL ADD ADD GT PUSH2 0x218C JUMPI JUMP JUMPDEST PUSH1 0x1 SLOAD PUSH1 0x1 PUSH1 0x1 PUSH1 0xA0 SHL SUB AND CALLER SUB PUSH2 0x2916 JUMPI JUMP JUMPDEST PUSH1 0x64 PUSH1 0x40 MLOAD PUSH3 0x461BCD PUSH1 0xE5 SHL DUP2 MSTORE PUSH1 0x20 PUSH1 0x4 DUP3 ADD MSTORE PUSH1 0x20 PUSH1 0x24 DUP3 ADD MSTORE PUSH32 0x4F776E61626C653A2063616C6C6572206973206E6F7420746865206F776E6572 PUSH1 0x44 DUP3 ADD MSTORE REVERT JUMPDEST ISZERO PUSH2 0x2961 JUMPI JUMP JUMPDEST PUSH1 0x40 MLOAD PUSH3 0x461BCD PUSH1 0xE5 SHL DUP2 MSTORE PUSH1 0x20 PUSH1 0x4 DUP3 ADD MSTORE PUSH1 0x18 PUSH1 0x24 DUP3 ADD MSTORE PUSH32 0x496E73756666696369656E74206C697374696E67206665650000000000000000 PUSH1 0x44 DUP3 ADD MSTORE PUSH1 0x64 SWAP1 REVERT JUMPDEST SWAP2 SWAP1 DUP3 ADD DUP1 SWAP3 GT PUSH2 0x29B3 JUMPI JUMP JUMPDEST PUSH4 0x4E487B71 PUSH1 0xE0 SHL PUSH1 0x0 MSTORE PUSH1 0x11 PUSH1 0x4 MSTORE PUSH1 0x24 PUSH1 0x0 REVERT JUMPDEST PUSH8 0xFFFFFFFFFFFFFFFF DUP2 GT PUSH2 0x29DD JUMPI PUSH1 0x40 MSTORE JUMP JUMPDEST PUSH4 0x4E487B71 PUSH1 0xE0 SHL PUSH1 0x0 MSTORE PUSH1 0x41 PUSH1 0x4 MSTORE PUSH1 0x24 PUSH1 0x0 REVERT JUMPDEST PUSH2 0x180 DUP2 ADD SWAP1 DUP2 LT PUSH8 0xFFFFFFFFFFFFFFFF DUP3 GT OR PUSH2 0x29DD JUMPI PUSH1 0x40 MSTORE JUMP JUMPDEST SWAP1 PUSH1 0x1F DUP1 NOT SWAP2 ADD AND DUP2 ADD SWAP1 DUP2 LT PUSH8 0xFFFFFFFFFFFFFFFF DUP3 GT OR PUSH2 0x29DD JUMPI PUSH1 0x40 MSTORE JUMP JUMPDEST RETURNDATASIZE ISZERO PUSH2 0x2A6D JUMPI RETURNDATASIZE SWAP1 PUSH8 0xFFFFFFFFFFFFFFFF DUP3 GT PUSH2 0x29DD JUMPI PUSH1 0x40 MLOAD SWAP2 PUSH2 0x2A61 PUSH1 0x1F DUP3 ADD PUSH1 0x1F NOT AND PUSH1 0x20 ADD DUP5 PUSH2 0x2A10 JUMP JUMPDEST DUP3 MSTORE RETURNDATASIZE PUSH1 0x0 PUSH1 0x20 DUP5 ADD RETURNDATACOPY JUMP JUMPDEST PUSH1 0x60 SWAP1 JUMP JUMPDEST ISZERO PUSH2 0x2A79 JUMPI JUMP JUMPDEST PUSH1 0x40 MLOAD PUSH3 0x461BCD PUSH1 0xE5 SHL DUP2 MSTORE PUSH1 0x20 PUSH1 0x4 DUP3 ADD MSTORE PUSH1 0x13 PUSH1 0x24 DUP3 ADD MSTORE PUSH19 0x119959481D1C985B9CD9995C8819985A5B1959 PUSH1 0x6A SHL PUSH1 0x44 DUP3 ADD MSTORE PUSH1 0x64 SWAP1 REVERT JUMPDEST SWAP2 SWAP1 DUP3 SUB SWAP2 DUP3 GT PUSH2 0x29B3 JUMPI JUMP JUMPDEST ISZERO PUSH2 0x2AC8 JUMPI JUMP JUMPDEST PUSH1 0x40 MLOAD PUSH3 0x461BCD PUSH1 0xE5 SHL DUP2 MSTORE PUSH1 0x20 PUSH1 0x4 DUP3 ADD MSTORE PUSH1 0xD PUSH1 0x24 DUP3 ADD MSTORE PUSH13 0x1499599D5B990819985A5B1959 PUSH1 0x9A SHL PUSH1 0x44 DUP3 ADD MSTORE PUSH1 0x64 SWAP1 REVERT JUMPDEST PUSH1 0xFF PUSH1 0x1 SLOAD PUSH1 0xA0 SHR AND PUSH2 0x2B0C JUMPI JUMP JUMPDEST PUSH1 0x40 MLOAD PUSH3 0x461BCD PUSH1 0xE5 SHL DUP2 MSTORE PUSH1 0x20 PUSH1 0x4 DUP3 ADD MSTORE PUSH1 0x10 PUSH1 0x24 DUP3 ADD MSTORE PUSH16 0x14185D5CD8589B194E881C185D5CD959 PUSH1 0x82 SHL PUSH1 0x44 DUP3 ADD MSTORE PUSH1 0x64 SWAP1 REVERT JUMPDEST PUSH1 0x2 PUSH1 0x0 SLOAD EQ PUSH2 0x2B55 JUMPI PUSH1 0x2 PUSH1 0x0 SSTORE JUMP JUMPDEST PUSH1 0x40 MLOAD PUSH3 0x461BCD PUSH1 0xE5 SHL DUP2 MSTORE PUSH1 0x20 PUSH1 0x4 DUP3 ADD MSTORE PUSH1 0x1F PUSH1 0x24 DUP3 ADD MSTORE PUSH32 0x5265656E7472616E637947756172643A207265656E7472616E742063616C6C00 PUSH1 0x44 DUP3 ADD MSTORE PUSH1 0x64 SWAP1 REVERT JUMPDEST ISZERO PUSH2 0x2BA1 JUMPI JUMP JUMPDEST PUSH1 0x40 MLOAD PUSH3 0x461BCD PUSH1 0xE5 SHL DUP2 MSTORE PUSH1 0x20 PUSH1 0x4 DUP3 ADD MSTORE PUSH1 0x13 PUSH1 0x24 DUP3 ADD MSTORE PUSH19 0x47616D6520616C726561647920657869737473 PUSH1 0x68 SHL PUSH1 0x44 DUP3 ADD MSTORE PUSH1 0x64 SWAP1 REVERT JUMPDEST PUSH1 0x2 DUP3 LT ISZERO PUSH2 0x2819 JUMPI MSTORE JUMP JUMPDEST SWAP1 PUSH1 0x2 DUP2 LT ISZERO PUSH2 0x2819 JUMPI PUSH1 0xFF DUP1 NOT DUP4 SLOAD AND SWAP2 AND OR SWAP1 SSTORE JUMP JUMPDEST DUP1 SLOAD PUSH9 0x10000000000000000 DUP2 LT ISZERO PUSH2 0x29DD JUMPI PUSH2 0x2C22 SWAP2 PUSH1 0x1 DUP3 ADD DUP2 SSTORE PUSH2 0x28A3 JUMP JUMPDEST DUP2 SWAP3 SWAP2 SLOAD SWAP1 PUSH1 0x3 SHL SWAP2 DUP3 SHL SWAP2 PUSH1 0x0 NOT SWAP1 SHL NOT AND OR SWAP1 SSTORE JUMP JUMPDEST PUSH1 0x1 PUSH1 0x1 PUSH1 0xA0 SHL SUB SWAP2 DUP3 AND DUP2 MSTORE SWAP2 AND PUSH1 0x20 DUP3 ADD MSTORE PUSH1 0x60 DUP2 ADD SWAP3 SWAP2 PUSH2 0x2C61 SWAP2 PUSH1 0x40 ADD SWAP1 PUSH2 0x280C JUMP JUMPDEST JUMP JUMPDEST ISZERO PUSH2 0x2C6A JUMPI JUMP JUMPDEST PUSH1 0x40 MLOAD PUSH3 0x461BCD PUSH1 0xE5 SHL DUP2 MSTORE PUSH1 0x20 PUSH1 0x4 DUP3 ADD MSTORE PUSH1 0x13 PUSH1 0x24 DUP3 ADD MSTORE PUSH19 0x11D85B5948191BD95CC81B9BDD08195E1A5CDD PUSH1 0x6A SHL PUSH1 0x44 DUP3 ADD MSTORE PUSH1 0x64 SWAP1 REVERT JUMPDEST ISZERO PUSH2 0x2CAC JUMPI JUMP JUMPDEST PUSH1 0x40 MLOAD PUSH3 0x461BCD PUSH1 0xE5 SHL DUP2 MSTORE PUSH1 0x20 PUSH1 0x4 DUP3 ADD MSTORE PUSH1 0xE PUSH1 0x24 DUP3 ADD MSTORE PUSH14 0x11D85B594818DBDB5C1B195D1959 PUSH1 0x92 SHL PUSH1 0x44 DUP3 ADD MSTORE PUSH1 0x64 SWAP1 REVERT JUMPDEST ISZERO PUSH2 0x2CE9 JUMPI JUMP JUMPDEST PUSH1 0x40 MLOAD PUSH3 0x461BCD PUSH1 0xE5 SHL DUP2 MSTORE PUSH1 0x20 PUSH1 0x4 DUP3 ADD MSTORE PUSH1 0x11 PUSH1 0x24 DUP3 ADD MSTORE PUSH17 0x105B1C9958591E4819195C1BDCDA5D1959 PUSH1 0x7A SHL PUSH1 0x44 DUP3 ADD MSTORE PUSH1 0x64 SWAP1 REVERT JUMPDEST ISZERO PUSH2 0x2D29 JUMPI JUMP JUMPDEST PUSH1 0x40 MLOAD PUSH3 0x461BCD PUSH1 0xE5 SHL DUP2 MSTORE PUSH1 0x20 PUSH1 0x4 DUP3 ADD MSTORE PUSH1 0xF PUSH1 0x24 DUP3 ADD MSTORE PUSH15 0x11195C1BDCDA5D081D1A5B595BDD5D PUSH1 0x8A SHL PUSH1 0x44 DUP3 ADD MSTORE PUSH1 0x64 SWAP1 REVERT JUMPDEST ISZERO PUSH2 0x2D67 JUMPI JUMP JUMPDEST PUSH1 0x40 MLOAD PUSH3 0x461BCD PUSH1 0xE5 SHL DUP2 MSTORE PUSH1 0x20 PUSH1 0x4 DUP3 ADD MSTORE PUSH1 0xC PUSH1 0x24 DUP3 ADD MSTORE PUSH12 0x2737BA10383630BCB2B91019 PUSH1 0xA1 SHL PUSH1 0x44 DUP3 ADD MSTORE PUSH1 0x64 SWAP1 REVERT JUMPDEST DUP2 DUP2 MUL SWAP3 SWAP2 DUP2 ISZERO SWAP2 DUP5 DIV EQ OR ISZERO PUSH2 0x29B3 JUMPI JUMP JUMPDEST SWAP1 DUP2 PUSH1 0x20 SWAP2 SUB SLT PUSH2 0x218C JUMPI MLOAD DUP1 ISZERO ISZERO DUP2 SUB PUSH2 0x218C JUMPI SWAP1 JUMP JUMPDEST ISZERO PUSH2 0x2DCD JUMPI JUMP JUMPDEST PUSH1 0x40 MLOAD PUSH3 0x461BCD PUSH1 0xE5 SHL DUP2 MSTORE PUSH1 0x20 PUSH1 0x4 DUP3 ADD MSTORE PUSH1 0x14 PUSH1 0x24 DUP3 ADD MSTORE PUSH20 0x1554D110C81D1C985B9CD9995C8819985A5B1959 PUSH1 0x62 SHL PUSH1 0x44 DUP3 ADD MSTORE PUSH1 0x64 SWAP1 REVERT JUMPDEST ISZERO PUSH2 0x2E10 JUMPI JUMP JUMPDEST PUSH1 0x40 MLOAD PUSH3 0x461BCD PUSH1 0xE5 SHL DUP2 MSTORE PUSH1 0x20 PUSH1 0x4 DUP3 ADD MSTORE PUSH1 0x16 PUSH1 0x24 DUP3 ADD MSTORE PUSH22 0x11D85B5948185B1C9958591E4818DBDB5C1B195D1959 PUSH1 0x52 SHL PUSH1 0x44 DUP3 ADD MSTORE PUSH1 0x64 SWAP1 REVERT JUMPDEST ISZERO PUSH2 0x2E55 JUMPI JUMP JUMPDEST PUSH1 0x40 MLOAD PUSH3 0x461BCD PUSH1 0xE5 SHL DUP2 MSTORE PUSH1 0x20 PUSH1 0x4 DUP3 ADD MSTORE PUSH1 0xF PUSH1 0x24 DUP3 ADD MSTORE PUSH15 0x4E6F7420796F757220617373657473 PUSH1 0x88 SHL PUSH1 0x44 DUP3 ADD MSTORE PUSH1 0x64 SWAP1 REVERT JUMPDEST MLOAD SWAP1 PUSH10 0xFFFFFFFFFFFFFFFFFFFF DUP3 AND DUP3 SUB PUSH2 0x218C JUMPI JUMP JUMPDEST PUSH1 0x9 SLOAD PUSH1 0x40 MLOAD PUSH4 0x3FABE5A3 PUSH1 0xE2 SHL DUP2 MSTORE SWAP2 SWAP1 PUSH1 0xA0 SWAP1 DUP4 SWAP1 PUSH1 0x4 SWAP1 DUP3 SWAP1 PUSH1 0x1 PUSH1 0x1 PUSH1 0xA0 SHL SUB AND GAS STATICCALL SWAP2 DUP3 ISZERO PUSH2 0x2FA6 JUMPI PUSH1 0x0 SWAP3 PUSH2 0x2F58 JUMPI JUMPDEST POP PUSH1 0x0 DUP3 SGT ISZERO PUSH2 0x2F1E JUMPI PUSH9 0x56BC75E2D63100000 SWAP1 DUP2 DUP2 MUL SWAP2 DUP2 DUP4 DIV EQ SWAP1 ISZERO OR ISZERO PUSH2 0x29B3 JUMPI DUP2 ISZERO PUSH2 0x2F08 JUMPI DIV SWAP1 JUMP JUMPDEST PUSH4 0x4E487B71 PUSH1 0xE0 SHL PUSH1 0x0 MSTORE PUSH1 0x12 PUSH1 0x4 MSTORE PUSH1 0x24 PUSH1 0x0 REVERT JUMPDEST PUSH1 0x40 MLOAD PUSH3 0x461BCD PUSH1 0xE5 SHL DUP2 MSTORE PUSH1 0x20 PUSH1 0x4 DUP3 ADD MSTORE PUSH1 0x12 PUSH1 0x24 DUP3 ADD MSTORE PUSH18 0x125B9D985B1A59081C1C9A58D94819995959 PUSH1 0x72 SHL PUSH1 0x44 DUP3 ADD MSTORE PUSH1 0x64 SWAP1 REVERT JUMPDEST SWAP1 SWAP2 PUSH1 0xA0 DUP3 RETURNDATASIZE DUP3 GT PUSH2 0x2F9E JUMPI JUMPDEST DUP2 PUSH2 0x2F72 PUSH1 0xA0 SWAP4 DUP4 PUSH2 0x2A10 JUMP JUMPDEST DUP2 ADD SUB SLT PUSH2 0x251 JUMPI POP PUSH2 0x2F84 DUP2 PUSH2 0x2E8C JUMP JUMPDEST POP PUSH2 0x2F96 PUSH1 0x80 PUSH1 0x20 DUP4 ADD MLOAD SWAP3 ADD PUSH2 0x2E8C JUMP JUMPDEST POP SWAP1 CODESIZE PUSH2 0x2ED9 JUMP JUMPDEST RETURNDATASIZE SWAP2 POP PUSH2 0x2F65 JUMP JUMPDEST PUSH1 0x40 MLOAD RETURNDATASIZE PUSH1 0x0 DUP3 RETURNDATACOPY RETURNDATASIZE SWAP1 REVERT JUMPDEST SWAP2 SWAP1 DUP2 LT ISZERO PUSH2 0x28BB JUMPI PUSH1 0x5 SHL ADD SWAP1 JUMP JUMPDEST CALLDATALOAD PUSH1 0x1 PUSH1 0x1 PUSH1 0xA0 SHL SUB DUP2 AND DUP2 SUB PUSH2 0x218C JUMPI SWAP1 JUMP INVALID LOG2 PUSH5 0x6970667358 0x22 SLT KECCAK256 PREVRANDAO 0xA8 LT SWAP3 0xBA 0xDC SWAP1 LOG3 STOP 0xF 0xA5 0xC4 CALLDATALOAD MSTORE PUSH21 0xDE645C62E331B493A77E28F33C21749FFF64736F6C PUSH4 0x43000814 STOP CALLER "},"methodIdentifiers":{"BASIS_POINTS()":"e1f1c4a7","adminBatchWithdrawNFTs(address[],uint256[],address[])":"cb9a2630","canDeposit(bytes32)":"f372e33c","canStartGame(bytes32)":"7f80e6f2","cancelGame(bytes32)":"3f7121b0","completeGame(bytes32,address)":"e9df3027","depositETH(bytes32)":"d68d9d4e","depositNFT(bytes32)":"57177224","depositTimeout()":"615318c7","depositUSDC(bytes32,uint256)":"7c34c355","emergencyPause()":"51858e27","emergencyWithdrawETH()":"84536017","emergencyWithdrawNFT(address,uint256,address)":"b1a81295","ethUsdFeed()":"8009b7bd","games(bytes32)":"f579f882","getETHAmount(uint256)":"ef46b2ab","getGameDetails(bytes32)":"8a1fa029","getUSDCAmount(uint256)":"1fd462cd","getUserGames(address)":"120aace6","initializeGame(bytes32,address,address,address,uint256,uint256,uint8)":"691ddd7d","listingFeeUSD()":"3a38d063","listingFees(address)":"f060ad4c","owner()":"8da5cb5b","paused()":"5c975abb","payFeeAndCreateGame(bytes32,address,uint256,uint256,uint8)":"c7751269","payListingFee()":"b262f41f","platformFeePercent()":"8c639a85","platformFeeReceiver()":"2d656ad7","reclaimAssets(bytes32)":"6dbf2763","renounceOwnership()":"715018a6","setDepositTimeout(uint256)":"27627373","setListingFee(uint256)":"131dbd09","setPlatformFee(uint256)":"12e8e2c3","transferOwnership(address)":"f2fde38b","unpause()":"3f4ba83a","updateGameWithPlayer2(bytes32,address,uint256,uint8)":"a077932e","usdcToken()":"11eac855","userGames(address,uint256)":"bc0167cd"}}}}}