{"contracts/NFTFlipGame.sol":{"NFTFlipGame":{"abi":[{"inputs":[{"internalType":"address","name":"_ethUsdFeed","type":"address"},{"internalType":"address","name":"_usdcToken","type":"address"},{"internalType":"address","name":"_platformFeeReceiver","type":"address"}],"stateMutability":"nonpayable","type":"constructor"},{"anonymous":false,"inputs":[{"indexed":true,"internalType":"uint256","name":"gameId","type":"uint256"},{"indexed":true,"internalType":"address","name":"depositor","type":"address"},{"indexed":false,"internalType":"uint256","name":"amount","type":"uint256"}],"name":"CryptoDeposited","type":"event"},{"anonymous":false,"inputs":[{"indexed":true,"internalType":"uint256","name":"gameId","type":"uint256"}],"name":"GameCancelled","type":"event"},{"anonymous":false,"inputs":[{"indexed":true,"internalType":"uint256","name":"gameId","type":"uint256"},{"indexed":true,"internalType":"address","name":"cancelledBy","type":"address"}],"name":"GameCancelledWithRefund","type":"event"},{"anonymous":false,"inputs":[{"indexed":true,"internalType":"uint256","name":"gameId","type":"uint256"},{"indexed":true,"internalType":"address","name":"winner","type":"address"}],"name":"GameCompleted","type":"event"},{"anonymous":false,"inputs":[{"indexed":true,"internalType":"uint256","name":"gameId","type":"uint256"},{"indexed":true,"internalType":"address","name":"creator","type":"address"}],"name":"GameCreated","type":"event"},{"anonymous":false,"inputs":[{"indexed":true,"internalType":"uint256","name":"gameId","type":"uint256"},{"indexed":true,"internalType":"address","name":"joiner","type":"address"}],"name":"GameJoined","type":"event"},{"anonymous":false,"inputs":[{"indexed":true,"internalType":"uint256","name":"gameId","type":"uint256"},{"indexed":true,"internalType":"address","name":"depositor","type":"address"}],"name":"NFTDeposited","type":"event"},{"anonymous":false,"inputs":[{"indexed":true,"internalType":"address","name":"previousOwner","type":"address"},{"indexed":true,"internalType":"address","name":"newOwner","type":"address"}],"name":"OwnershipTransferred","type":"event"},{"anonymous":false,"inputs":[{"indexed":false,"internalType":"address","name":"account","type":"address"}],"name":"Paused","type":"event"},{"anonymous":false,"inputs":[{"indexed":true,"internalType":"address","name":"player","type":"address"},{"indexed":false,"internalType":"uint256","name":"ethAmount","type":"uint256"},{"indexed":false,"internalType":"uint256","name":"usdcAmount","type":"uint256"},{"indexed":false,"internalType":"uint256","name":"nftCount","type":"uint256"}],"name":"RewardsWithdrawn","type":"event"},{"anonymous":false,"inputs":[{"indexed":true,"internalType":"uint256","name":"gameId","type":"uint256"},{"indexed":false,"internalType":"uint256","name":"round","type":"uint256"},{"indexed":false,"internalType":"uint256","name":"result","type":"uint256"},{"indexed":false,"internalType":"address","name":"roundWinner","type":"address"}],"name":"RoundPlayed","type":"event"},{"anonymous":false,"inputs":[{"indexed":false,"internalType":"address","name":"account","type":"address"}],"name":"Unpaused","type":"event"},{"inputs":[],"name":"BASIS_POINTS","outputs":[{"internalType":"uint256","name":"","type":"uint256"}],"stateMutability":"view","type":"function"},{"inputs":[{"internalType":"address[]","name":"nftContracts","type":"address[]"},{"internalType":"uint256[]","name":"tokenIds","type":"uint256[]"},{"internalType":"address[]","name":"recipients","type":"address[]"}],"name":"adminBatchWithdrawNFTs","outputs":[],"stateMutability":"nonpayable","type":"function"},{"inputs":[{"internalType":"uint256","name":"gameId","type":"uint256"}],"name":"cancelGame","outputs":[],"stateMutability":"nonpayable","type":"function"},{"inputs":[{"internalType":"uint256","name":"gameId","type":"uint256"}],"name":"cancelGameWithRefund","outputs":[],"stateMutability":"nonpayable","type":"function"},{"inputs":[{"internalType":"address","name":"opponent","type":"address"},{"internalType":"address","name":"nftContract","type":"address"},{"internalType":"uint256","name":"tokenId","type":"uint256"},{"internalType":"uint256","name":"priceUSD","type":"uint256"},{"internalType":"enum NFTFlipGame.PaymentToken","name":"paymentToken","type":"uint8"},{"internalType":"string","name":"coinType","type":"string"},{"internalType":"string","name":"headsImage","type":"string"},{"internalType":"string","name":"tailsImage","type":"string"},{"internalType":"bool","name":"isCustom","type":"bool"}],"name":"createAndStartGame","outputs":[],"stateMutability":"payable","type":"function"},{"inputs":[{"internalType":"address","name":"nftContract","type":"address"},{"internalType":"uint256","name":"tokenId","type":"uint256"},{"internalType":"uint256","name":"priceUSD","type":"uint256"},{"internalType":"enum NFTFlipGame.PaymentToken","name":"acceptedToken","type":"uint8"},{"internalType":"enum NFTFlipGame.GameType","name":"gameType","type":"uint8"},{"internalType":"string","name":"coinType","type":"string"},{"internalType":"string","name":"headsImage","type":"string"},{"internalType":"string","name":"tailsImage","type":"string"},{"internalType":"bool","name":"isCustom","type":"bool"}],"name":"createGame","outputs":[],"stateMutability":"payable","type":"function"},{"inputs":[{"internalType":"uint256","name":"gameId","type":"uint256"}],"name":"depositCryptoForGame","outputs":[],"stateMutability":"payable","type":"function"},{"inputs":[{"internalType":"uint256","name":"gameId","type":"uint256"},{"internalType":"address","name":"nftContract","type":"address"},{"internalType":"uint256","name":"tokenId","type":"uint256"}],"name":"depositNFTForGame","outputs":[],"stateMutability":"nonpayable","type":"function"},{"inputs":[],"name":"emergencyPause","outputs":[],"stateMutability":"nonpayable","type":"function"},{"inputs":[],"name":"emergencyWithdrawETH","outputs":[],"stateMutability":"nonpayable","type":"function"},{"inputs":[],"name":"ethUsdFeed","outputs":[{"internalType":"contract AggregatorV3Interface","name":"","type":"address"}],"stateMutability":"view","type":"function"},{"inputs":[{"internalType":"uint256","name":"","type":"uint256"}],"name":"games","outputs":[{"internalType":"uint256","name":"gameId","type":"uint256"},{"internalType":"address","name":"creator","type":"address"},{"internalType":"address","name":"joiner","type":"address"},{"internalType":"address","name":"nftContract","type":"address"},{"internalType":"uint256","name":"tokenId","type":"uint256"},{"internalType":"enum NFTFlipGame.GameState","name":"state","type":"uint8"},{"internalType":"enum NFTFlipGame.GameType","name":"gameType","type":"uint8"},{"internalType":"uint256","name":"priceUSD","type":"uint256"},{"internalType":"enum NFTFlipGame.PaymentToken","name":"paymentToken","type":"uint8"},{"internalType":"uint256","name":"totalPaid","type":"uint256"},{"internalType":"address","name":"winner","type":"address"},{"internalType":"uint256","name":"createdAt","type":"uint256"},{"internalType":"uint256","name":"creatorWins","type":"uint256"},{"internalType":"uint256","name":"joinerWins","type":"uint256"},{"internalType":"uint256","name":"currentRound","type":"uint256"},{"internalType":"uint256","name":"lastFlipResult","type":"uint256"},{"internalType":"bytes32","name":"lastFlipHash","type":"bytes32"},{"components":[{"internalType":"string","name":"coinType","type":"string"},{"internalType":"string","name":"headsImage","type":"string"},{"internalType":"string","name":"tailsImage","type":"string"},{"internalType":"bool","name":"isCustom","type":"bool"}],"internalType":"struct NFTFlipGame.CoinInfo","name":"coinInfo","type":"tuple"}],"stateMutability":"view","type":"function"},{"inputs":[{"internalType":"uint256","name":"usdAmount","type":"uint256"}],"name":"getETHAmount","outputs":[{"internalType":"uint256","name":"","type":"uint256"}],"stateMutability":"view","type":"function"},{"inputs":[{"internalType":"uint256","name":"gameId","type":"uint256"}],"name":"getGameDetails","outputs":[{"internalType":"uint256","name":"gameId_","type":"uint256"},{"internalType":"address","name":"creator_","type":"address"},{"internalType":"address","name":"joiner_","type":"address"},{"internalType":"address","name":"nftContract_","type":"address"},{"internalType":"uint256","name":"tokenId_","type":"uint256"},{"internalType":"enum NFTFlipGame.GameState","name":"state_","type":"uint8"},{"internalType":"enum NFTFlipGame.GameType","name":"gameType_","type":"uint8"},{"internalType":"uint256","name":"priceUSD_","type":"uint256"},{"internalType":"enum NFTFlipGame.PaymentToken","name":"paymentToken_","type":"uint8"},{"internalType":"uint256","name":"totalPaid_","type":"uint256"},{"internalType":"address","name":"winner_","type":"address"},{"internalType":"uint256","name":"createdAt_","type":"uint256"},{"internalType":"uint256","name":"creatorWins_","type":"uint256"},{"internalType":"uint256","name":"joinerWins_","type":"uint256"},{"internalType":"uint256","name":"currentRound_","type":"uint256"},{"internalType":"uint256","name":"lastFlipResult_","type":"uint256"},{"internalType":"bytes32","name":"lastFlipHash_","type":"bytes32"},{"internalType":"string","name":"coinType_","type":"string"},{"internalType":"string","name":"headsImage_","type":"string"},{"internalType":"string","name":"tailsImage_","type":"string"},{"internalType":"bool","name":"isCustom_","type":"bool"}],"stateMutability":"view","type":"function"},{"inputs":[{"internalType":"uint256","name":"gameId","type":"uint256"}],"name":"getGameRoundDetails","outputs":[{"internalType":"uint256","name":"creatorWins","type":"uint256"},{"internalType":"uint256","name":"joinerWins","type":"uint256"},{"internalType":"uint256","name":"currentRound","type":"uint256"},{"internalType":"uint256","name":"lastResult","type":"uint256"}],"stateMutability":"view","type":"function"},{"inputs":[{"internalType":"address","name":"user","type":"address"}],"name":"getUserGames","outputs":[{"internalType":"uint256[]","name":"","type":"uint256[]"}],"stateMutability":"view","type":"function"},{"inputs":[{"internalType":"uint256","name":"gameId","type":"uint256"}],"name":"joinGame","outputs":[],"stateMutability":"payable","type":"function"},{"inputs":[],"name":"listingFeeUSD","outputs":[{"internalType":"uint256","name":"","type":"uint256"}],"stateMutability":"view","type":"function"},{"inputs":[],"name":"nextGameId","outputs":[{"internalType":"uint256","name":"","type":"uint256"}],"stateMutability":"view","type":"function"},{"inputs":[],"name":"owner","outputs":[{"internalType":"address","name":"","type":"address"}],"stateMutability":"view","type":"function"},{"inputs":[],"name":"paused","outputs":[{"internalType":"bool","name":"","type":"bool"}],"stateMutability":"view","type":"function"},{"inputs":[],"name":"platformFeePercent","outputs":[{"internalType":"uint256","name":"","type":"uint256"}],"stateMutability":"view","type":"function"},{"inputs":[],"name":"platformFeeReceiver","outputs":[{"internalType":"address","name":"","type":"address"}],"stateMutability":"view","type":"function"},{"inputs":[{"internalType":"uint256","name":"gameId","type":"uint256"}],"name":"playRound","outputs":[],"stateMutability":"nonpayable","type":"function"},{"inputs":[],"name":"renounceOwnership","outputs":[],"stateMutability":"nonpayable","type":"function"},{"inputs":[{"internalType":"uint256","name":"newFee","type":"uint256"}],"name":"setListingFee","outputs":[],"stateMutability":"nonpayable","type":"function"},{"inputs":[{"internalType":"uint256","name":"newPercent","type":"uint256"}],"name":"setPlatformFee","outputs":[],"stateMutability":"nonpayable","type":"function"},{"inputs":[{"internalType":"address","name":"newOwner","type":"address"}],"name":"transferOwnership","outputs":[],"stateMutability":"nonpayable","type":"function"},{"inputs":[{"internalType":"address","name":"","type":"address"}],"name":"unclaimedETH","outputs":[{"internalType":"uint256","name":"","type":"uint256"}],"stateMutability":"view","type":"function"},{"inputs":[{"internalType":"address","name":"","type":"address"},{"internalType":"address","name":"","type":"address"},{"internalType":"uint256","name":"","type":"uint256"}],"name":"unclaimedNFTs","outputs":[{"internalType":"uint256","name":"","type":"uint256"}],"stateMutability":"view","type":"function"},{"inputs":[{"internalType":"address","name":"","type":"address"}],"name":"unclaimedUSDC","outputs":[{"internalType":"uint256","name":"","type":"uint256"}],"stateMutability":"view","type":"function"},{"inputs":[],"name":"unpause","outputs":[],"stateMutability":"nonpayable","type":"function"},{"inputs":[],"name":"usdcToken","outputs":[{"internalType":"address","name":"","type":"address"}],"stateMutability":"view","type":"function"},{"inputs":[{"internalType":"address","name":"","type":"address"},{"internalType":"uint256","name":"","type":"uint256"}],"name":"userGames","outputs":[{"internalType":"uint256","name":"","type":"uint256"}],"stateMutability":"view","type":"function"},{"inputs":[{"internalType":"address","name":"nftContract","type":"address"},{"internalType":"uint256","name":"tokenId","type":"uint256"}],"name":"withdrawNFT","outputs":[],"stateMutability":"nonpayable","type":"function"},{"inputs":[],"name":"withdrawRewards","outputs":[],"stateMutability":"nonpayable","type":"function"}],"evm":{"bytecode":{"linkReferences":{},"object":"6080346200011157601f62003baf38819003918201601f19168301916001600160401b03831184841017620001165780849260609460405283398101031262000111576200004d816200012c565b62000069604062000061602085016200012c565b93016200012c565b916001600055600154926040519360018060a01b03928391338382167f8be0079c531659141344cd1fd0a4f28419497f9722a3daafe3b4186f6b6457e0600080a36001600160a81b0319163360ff60a01b191617600190815560075562030d4060085561015e600955600b80546001600160a01b0319908116968416969096179055600c8054861691909216179055600a80549093169116179055613a6d9081620001428239f35b600080fd5b634e487b7160e01b600052604160045260246000fd5b51906001600160a01b0382168203620001115756fe610260604052600436101561001357600080fd5b6000803560e01c8063019e485e14612e2c578063117a5b9014612c3a57806311eac85514612c11578063120aace614612b6357806312e8e2c314612b08578063131dbd0914612ae55780631a68b69114612aac5780631b31abda1461277a5780632d656ad7146127515780633a38d063146127335780633f4ba83a1461269657806351858e27146126335780635c975abb1461260d5780636088e93a14612446578063623c0df2146121e157806369958ab914612089578063715018a61461202b5780638009b7bd146120025780638453601714611f8e5780638c639a8514611f705780638da5cb5b14611f4757806395d1152014611f0e578063aa4209b814611ea1578063b135bbb014611e83578063b87b7fcc14611d3c578063bc0167cd14611ce5578063c7b8981c14611b44578063cb9a263014611826578063cf309490146116ce578063e1f1c4a7146116b1578063e25f494b14610ed6578063e63d874514610607578063ef46b2ab146105e0578063efaa55a014610423578063f21f8025146102725763f2fde38b146101aa57600080fd5b3461026f57602036600319011261026f576101c3613479565b6101cb61357a565b6001600160a01b0390811690811561021b57600154826001600160601b0360a01b821617600155167f8be0079c531659141344cd1fd0a4f28419497f9722a3daafe3b4186f6b6457e0600080a380f35b60405162461bcd60e51b815260206004820152602660248201527f4f776e61626c653a206e6577206f776e657220697320746865207a65726f206160448201526564647265737360d01b6064820152608490fd5b80fd5b503461026f57606036600319011261026f5760043561028f613494565b60443561029a613788565b82845260026020526040842060ff600582015416600581101561040f576102c190156139f6565b60018101546001600160a01b0390811633036103ca57808391600384015416941680941491826103bc575b50501561038b578184923b15610387576040516323b872dd60e01b8152336004820152306024820152604481019290925282908290606490829084905af1801561037c57610364575b505033907f052b1fb285141146b72f7eddd25172042be309c15a803900dce35e0ae95c04dd8380a36001815580f35b61036d906132cb565b610378578138610335565b5080fd5b6040513d84823e3d90fd5b8280fd5b60405162461bcd60e51b815260206004820152600960248201526815dc9bdb99c813919560ba1b6044820152606490fd5b6004015414905081386102ec565b60405162461bcd60e51b815260206004820152601c60248201527f4f6e6c792063726561746f722063616e206465706f736974204e4654000000006044820152606490fd5b634e487b7160e01b86526021600452602486fd5b50602036600319011261026f5760043561043b613788565b610443613741565b808252600260205260408220600581019081549160ff8316600581101561040f576105a65760018201546001600160a01b0392908316331461056a5785808261050c95829560016104986006869801546138a4565b9960026127106104ab8d600954906137de565b04958c6104c46104bb89836136f8565b913410156137f1565b600882015501336001600160601b0360a01b82541617905560ff191617905533835260036020526104f8896040852061365e565b600a54165af1610506613686565b50613834565b82813411610542575b33837f45c4f9cbafe186141862608c493f28b823fde4c2142bedc3f5169961a73fdd228380a36001815580f35b80808061055261056395346136f8565b335af161055d613686565b50613705565b3882610515565b60405162461bcd60e51b815260206004820152601460248201527343616e6e6f74206a6f696e206f776e2067616d6560601b6044820152606490fd5b60405162461bcd60e51b815260206004820152601260248201527147616d65206e6f7420617661696c61626c6560701b6044820152606490fd5b503461026f57602036600319011261026f5760206105ff6004356138a4565b604051908152f35b5061012036600319011261026f5761061d613479565b610625613494565b90600260843510156103875760a4356001600160401b038111610ed257610650903690600401613523565b60c4356001600160401b038111610ece5761066f903690600401613523565b9060e4356001600160401b038111610eca5761068f903690600401613523565b61069761356a565b946106a0613788565b6106a8613741565b6001600160a01b038516151580610eb7575b15610e7f576106d36001600160a01b03821615156135d2565b6106de6008546138a4565b926106ea6064356138a4565b966127106106fa6009548a6137de565b04936107068987613880565b96610713883410156137f1565b6001600160a01b0385163b15610e7b576040516323b872dd60e01b815233600482015230602482015260448035908201528b908181606481836001600160a01b038c165af1801561037c57610e67575b505060405193610772856132de565b8452602084015260408301521515606082015261079e83600754986107968a613615565b6007556136f8565b604051926107ab846132af565b8884523360208501526001600160a01b0388811660408601521660608401526044356080840152600160a084015260c0830189905260643560e08401526107f360843561342f565b608435610100840152610120830152876101408301524261016083015287610180830152876101a0830152876101c0830152876101e08301528761020083015261022082015285875260026020526040872090805182556001820160018060a01b036020830151166001600160601b0360a01b8254161790556002820160018060a01b036040830151166001600160601b0360a01b8254161790556003820160018060a01b036060830151166001600160601b0360a01b8254161790556080810151600483015560a08101516005811015610e535790610220916108db600585019182613646565b60c08201516108e98161342f565b6108f28161342f565b61ff0082549160081b169061ff00191617905560e0810151600684015561010081015161091e8161342f565b6109278161342f565b60ff8019600786015416911617600784015561012081015160088401556009830160018060a01b03610140830151166001600160601b0360a01b825416179055610160810151600a840155610180810151600b8401556101a0810151600c8401556101c0810151600d8401556101e0810151600e840155610200810151600f84015501519081518051906001600160401b038211610ca95781906109ce6010850154613275565b601f8111610e02575b50602090601f8311600114610d93578b92610d88575b50508160011b916000199060031b1c19161760108201555b60208201518051906001600160401b038211610ca9578190610a2a6011850154613275565b601f8111610d37575b50602090601f8311600114610cc8578b92610cbd575b50508160011b916000199060031b1c19161760118201555b60408201518051906001600160401b038211610ca957908291610a8a60128c9796950154613275565b601f8111610c50575b50602090601f8311600114610bca57948695946060601388979686610b429c97610b31978b9a8b92610bbf575b50508160011b916000199060031b1c19161760128201555b01910151151560ff801983541691161790553384526003602052610aff8b6040862061365e565b6001600160a01b038a168452600360205260408420610b1f908c9061365e565b600a546001600160a01b031692613880565b905af1610b3c613686565b506136b6565b83813411610ba8575b505033827fc3e0f84839dc888c892a013d10c8f9d6dc05a21a879d0ce468ca558013e9121c8580a36001600160a01b0316907f45c4f9cbafe186141862608c493f28b823fde4c2142bedc3f5169961a73fdd228380a36001815580f35b808080610552610bb895346136f8565b3883610b4b565b015190503880610ac0565b6012849392989695940187526020872090875b601f1984168110610c35575093606060138998956001868b9a96610b429e8c9b610b319a601f19811610610c1c575b505050811b016012820155610ad8565b015160001960f88460031b161c19169055388080610c0c565b818a015183556020998a01998e995060019093019201610bdd565b90919293949550601284018b5260208b20601f840160051c810160208510610ca2575b908c979695949392915b601f830160051c82018110610c93575050610a93565b600081558d9850600101610c7d565b5080610c73565b634e487b7160e01b8a52604160045260248afd5b015190503880610a49565b9250601184018b5260208b20908b935b601f1984168510610d1c576001945083601f19811610610d03575b505050811b016011820155610a61565b015160001960f88460031b161c19169055388080610cf3565b81810151835560209485019460019093019290910190610cd8565b909150601184018b5260208b20601f840160051c810160208510610d81575b90849392915b601f830160051c82018110610d72575050610a33565b60008155859450600101610d5c565b5080610d56565b0151905038806109ed565b9250601084018b5260208b20908b935b601f1984168510610de7576001945083601f19811610610dce575b505050811b016010820155610a05565b015160001960f88460031b161c19169055388080610dbe565b81810151835560209485019460019093019290910190610da3565b909150601084018b5260208b20601f840160051c810160208510610e4c575b90849392915b601f830160051c82018110610e3d5750506109d7565b60008155859450600101610e27565b5080610e21565b634e487b7160e01b89526021600452602489fd5b610e70906132cb565b610e7b578a38610763565b8a80fd5b60405162461bcd60e51b815260206004820152601060248201526f125b9d985b1a59081bdc1c1bdb995b9d60821b6044820152606490fd5b506001600160a01b0385163314156106ba565b8580fd5b8480fd5b8380fd5b5061012036600319011261026f57610eec613479565b6002606435101561037857600260843510156103785760a4356001600160401b03811161038757610f21903690600401613523565b9060c4356001600160401b038111610ed257610f41903690600401613523565b9060e4356001600160401b038111610ece57610f61903690600401613523565b610f6961356a565b90610f72613788565b610f7a613741565b610f8e6001600160a01b03841615156135d2565b610f996008546138a4565b9384341061166c576001600160a01b0384163b15611668576040516323b872dd60e01b81523360048201523060248083019190915235604482015287908181606481836001600160a01b038b165af1801561037c57611654575b505060405195611002876132de565b865260208601526040850152151560608401526007549261102284613615565b60075560405191611032836132af565b848352336020840152604083018690526001600160a01b03166060830152602435608083015260a0820185905261106a60843561342f565b60843560c083015260443560e083015261108560643561342f565b60643561010083015284610120830152846101408301524261016083015284610180830152846101a0830152846101c0830152846101e08301528461020083015261022082015282845260026020526040842090805182556001820160018060a01b036020830151166001600160601b0360a01b8254161790556002820160018060a01b036040830151166001600160601b0360a01b8254161790556003820160018060a01b036060830151166001600160601b0360a01b8254161790556080810151600483015560a0810151600581101561040f57906102209161116e600585019182613646565b60c082015161117c8161342f565b6111858161342f565b61ff0082549160081b169061ff00191617905560e081015160068401556101008101516111b18161342f565b6111ba8161342f565b60ff8019600786015416911617600784015561012081015160088401556009830160018060a01b03610140830151166001600160601b0360a01b825416179055610160810151600a840155610180810151600b8401556101a0810151600c8401556101c0810151600d8401556101e0810151600e840155610200810151600f84015501519081518051906001600160401b0382116114aa5781906112616010850154613275565b601f8111611603575b50602090601f8311600114611594578892611589575b50508160011b916000199060031b1c19161760108201555b60208201518051906001600160401b0382116114aa5781906112bd6011850154613275565b601f8111611538575b50602090601f83116001146114c95788926114be575b50508160011b916000199060031b1c19161760118201555b60408201518051906001600160401b0382116114aa576113176012840154613275565b601f8111611465575b50602090601f83116001146113f3579180606094926013948a926113e8575b50508160011b916000199060031b1c19161760128201555b01910151151560ff80198354169116179055338352600360205261137e826040852061365e565b61139b838080808560018060a01b03600a54165af1610b3c613686565b828134116113d1575b33837fc3e0f84839dc888c892a013d10c8f9d6dc05a21a879d0ce468ca558013e9121c8380a36001815580f35b8080806105526113e195346136f8565b38826113a4565b01519050388061133f565b906012840188526020882091885b601f198516811061144d5750926060949260019260139583601f19811610611434575b505050811b016012820155611357565b015160001960f88460031b161c19169055388080611424565b91926020600181928685015181550194019201611401565b60128401885260208820601f840160051c8101602085106114a3575b601f830160051c82018110611497575050611320565b60008155600101611481565b5080611481565b634e487b7160e01b87526041600452602487fd5b0151905038806112dc565b9250601184018852602088209088935b601f198416851061151d576001945083601f19811610611504575b505050811b0160118201556112f4565b015160001960f88460031b161c191690553880806114f4565b818101518355602094850194600190930192909101906114d9565b90915060118401885260208820601f840160051c810160208510611582575b90849392915b601f830160051c820181106115735750506112c6565b6000815585945060010161155d565b5080611557565b015190503880611280565b9250601084018852602088209088935b601f19841685106115e8576001945083601f198116106115cf575b505050811b016010820155611298565b015160001960f88460031b161c191690553880806115bf565b818101518355602094850194600190930192909101906115a4565b90915060108401885260208820601f840160051c81016020851061164d575b90849392915b601f830160051c8201811061163e57505061126a565b60008155859450600101611628565b5080611622565b61165d906132cb565b611668578638610ff3565b8680fd5b60405162461bcd60e51b815260206004820152601860248201527f496e73756666696369656e74206c697374696e672066656500000000000000006044820152606490fd5b503461026f578060031936011261026f5760206040516127108152f35b50602036600319011261026f576004356116e6613788565b8082526002602052604082209060058201805460ff8116600581101561040f5761171090156139f6565b60028401546001600160a01b0390811633036117e157858080938193600689015461173a906138a4565b9660095461174890896137de565b612710900492611758848a6136f8565b809b8a341015611767906137f1565b6008015560ff19166001179055600a54165af1611782613686565b5061178c90613834565b838134116117ca575b50506040519182527fa6795dc81355b15d42bc7de3fb8a255e7e88a4697260822e1f4c5b07b003690760203393a36001815580f35b8080806105526117da95346136f8565b3883611795565b60405162461bcd60e51b815260206004820152601e60248201527f4f6e6c79206a6f696e65722063616e206465706f7369742063727970746f00006044820152606490fd5b503461026f57606036600319011261026f576001600160401b03600435818111610387576118589036906004016134d8565b90916024908135818111610eca576118749036906004016134d8565b916044359081116116685761188d9036906004016134d8565b9261189661357a565b80861480611b3b575b15611af75792869288969287955b8487106118b8578880f35b96976001600160a01b039790966118e4896118dc6118d7848a8c6139b3565b6139c3565b1615156135d2565b886118f36118d78388876139b3565b1615611abf578861190582888a6139b3565b61190e906139c3565b169861191b8284876139b3565b6040516331a9108f60e11b81529035600482015260206101409081529a818d815a93602094fa8a9181611a8f575b506119925760405162461bcd60e51b81528b516004820152601d818e01527f4661696c656420746f20636865636b204e4654206f776e6572736869700000006044820152606490fd5b81929394959697999b989a9130911603611a4b575089906119b76118d7848b8d6139b3565b166119c66118d78489886139b3565b6119d18486896139b3565b35823b15610ed2576040516323b872dd60e01b81523060048201526001600160a01b0392909216602483015260448201529082908290606490829084905af1801561037c57611a33575b5050611a2690613615565b95939291909694966118ad565b611a3c906132cb565b611a4757888a611a1b565b8880fd5b60405162461bcd60e51b815290516004820152601e818901527f436f6e747261637420646f6573206e6f74206f776e2074686973204e465400006044820152606490fd5b611ab19192508c513d8111611ab8575b611aa981836132f9565b8101906139d7565b908d611949565b503d611a9f565b60405162461bcd60e51b8152602060048201526011818c015270125b9d985b1a59081c9958da5c1a595b9d607a1b6044820152606490fd5b60405162461bcd60e51b8152602060048201526018818701527f4172726179206c656e67746873206d757374206d6174636800000000000000006044820152606490fd5b5083811461189f565b503461026f578060031936011261026f57611b5d613788565b33815260206004815260408220549060058152604083205490600481528360408120556005815283604081205582611c96575b81611c13575b6040516101608101908082106001600160401b03831117611bfd5761014091604052600a815282369101376040519283528201528160408201527f4f3d7a53f1fd3ab32e84fafd251bc5c1ec2c516068909f68847ad29c366d134c60603392a26001815580f35b634e487b7160e01b600052604160045260246000fd5b600c5460405163a9059cbb60e01b8152336004820152602481018490529082908290604490829089906001600160a01b03165af18015611c8b57611c58575b50611b96565b8181813d8311611c84575b611c6d81836132f9565b81010312610ece575180151503610ed25738611c52565b503d611c63565b6040513d87823e3d90fd5b8380808086335af1611ca6613686565b50611b90576064906040519062461bcd60e51b825260048201526013602482015272115512081d1c985b9cd9995c8819985a5b1959606a1b6044820152fd5b503461026f57604036600319011261026f57611cff613479565b6001600160a01b031681526003602052604081208054602435929083101561026f576020611d2d84846134aa565b90549060031b1c604051908152f35b503461026f57602036600319011261026f5760406080916004358152600260205220604051611d6a816132af565b8154815260018201546001600160a01b039081166020830152600283015481166040830152600383015481166060830152600483015484830152600583015460ff90611dbb81831660a0860161363a565b60081c16611dc88161342f565b60c0830152600683015460e083015260ff600784015416611de88161342f565b6101008301526008830154610120830152600983015416610140820152600a820154610160820152600b820154916101808201928352600c810154926101a08301938452600d820154926101c08101938452610220611e616010600e860154956101e08501968752600f810154610200860152016133c0565b9101525192519151905191604051938452602084015260408301526060820152f35b503461026f578060031936011261026f576020600754604051908152f35b503461026f57606036600319011261026f57611ebb613479565b90611ec4613494565b6044359260018060a01b0380911683526006602052604083209116600052602052604060002090815483101561026f576020611f0084846134aa565b90546040519160031b1c8152f35b503461026f57602036600319011261026f576020906040906001600160a01b03611f36613479565b168152600583522054604051908152f35b503461026f578060031936011261026f576001546040516001600160a01b039091168152602090f35b503461026f578060031936011261026f576020600954604051908152f35b503461026f578060031936011261026f57611fa761357a565b8080808060018060a01b036001541647905af1611fc2613686565b5015611fcb5780f35b60405162461bcd60e51b815260206004820152600f60248201526e151c985b9cd9995c8819985a5b1959608a1b6044820152606490fd5b503461026f578060031936011261026f57600b546040516001600160a01b039091168152602090f35b503461026f578060031936011261026f5761204461357a565b600180546001600160a01b031981169091556000906001600160a01b03167f8be0079c531659141344cd1fd0a4f28419497f9722a3daafe3b4186f6b6457e08280a380f35b503461026f576020908160031936011261026f576004356120a8613788565b808252600283526040822060018101546001600160a01b03908116943386900361219d57600583019586549660ff881660058110156121895761214457600461211996979860ff1916179055865260068152604086209160038401541660005252600460406000209101549061365e565b7f681705fdbd93dba3b679fd712577e9a86d57c5551c520f8c74857deb57f9623f8280a26001815580f35b60405162461bcd60e51b815260048101849052601e60248201527f43616e206f6e6c792063616e63656c20756e6a6f696e65642067616d657300006044820152606490fd5b634e487b7160e01b88526021600452602488fd5b6064906040519062461bcd60e51b82526004820152601760248201527f4f6e6c792063726561746f722063616e2063616e63656c0000000000000000006044820152fd5b503461026f576020806003193601126103785760043590612200613788565b8183526002815260408320600181015490916001600160a01b039182163381148015612437575b156123fe5760058401805460ff81166005811015610e535780159081156123f3575b50156123ae57906004889594939260ff191617905582600386015416916004860154906040516331a9108f60e11b81528260048201528181602481885afa9182156123a3578792612386575b505084163014612315575b50505060088301549081151580612306575b6122e5575b8233867f49d7c8709a4c20d005b1c37e3f302ae91287b77de799510e227932e05ee770c88380a36001815580f35b828092819260026122fd970154165af161055d613686565b388281806122b7565b508060028501541615156122b2565b823b15610ece576040516323b872dd60e01b81523060048201526001600160a01b0392909216602483015260448201529083908290606490829084905af190811561237b578391612367575b806122a0565b612370906132cb565b610378578138612361565b6040513d85823e3d90fd5b61239c9250803d10611ab857611aa981836132f9565b3880612295565b6040513d89823e3d90fd5b60405162461bcd60e51b815260048101859052601960248201527f43616e6e6f742063616e63656c206163746976652067616d65000000000000006044820152606490fd5b600191501438612249565b60405162461bcd60e51b8152600481018390526011602482015270139bdd0818481c185c9d1a58da5c185b9d607a1b6044820152606490fd5b50826002850154163314612227565b503461026f57604036600319011261026f57612460613479565b60249182359161246e613788565b3382526006602052604082209060018060a01b03169081835260205260408220928293835b8154808210156126025783906124a983856134aa565b929054600393841b1c146124c75750506124c290613615565b612493565b909394959650600019918282019182116125ef576124f86124eb61251193866134aa565b905490871b1c91856134aa565b90919082549060031b91821b91600019901b1916179055565b815480156125dc5781019261252684846134aa565b81939154921b1b191690555560015b1561259857829350813b15612594576040516323b872dd60e01b8152306004820152336024820152604481019190915291908290606490829084905af1801561037c57612585575b506001815580f35b61258e906132cb565b3861257d565b5050fd5b60405162461bcd60e51b815260206004820152601a818601527f4e4654206e6f7420666f756e6420696e20756e636c61696d65640000000000006044820152606490fd5b634e487b7160e01b875260316004528787fd5b634e487b7160e01b885260116004528888fd5b505050909192612535565b503461026f578060031936011261026f57602060ff60015460a01c166040519015158152f35b503461026f578060031936011261026f5761264c61357a565b612654613741565b6001805460ff60a01b1916600160a01b1790556040513381527f62e78cea01bee320cd4e420270b5ea74000d11b0c9f74754ebdbfc544b05a25890602090a180f35b503461026f578060031936011261026f576126af61357a565b60015460ff8160a01c16156126f75760ff60a01b19166001556040513381527f5db9ee0a495bf2e6ff9c91a7834c1ba4fdd244a5e8aa4e537bd38aeae4b073aa90602090a180f35b60405162461bcd60e51b815260206004820152601460248201527314185d5cd8589b194e881b9bdd081c185d5cd95960621b6044820152606490fd5b503461026f578060031936011261026f576020600854604051908152f35b503461026f578060031936011261026f57600a546040516001600160a01b039091168152602090f35b503461026f57602036600319011261026f576004358152600260205260408120906128986010604051936127ad856132af565b8054855260018101546001600160a01b039081166020870152600282015481166040870152600382015416606086015260048101546080860152600581015460ff906127fe81831660a0890161363a565b60081c1661280b8161342f565b60c0860152600681015460e086015260ff60078201541661282b8161342f565b610100860152600881015461012086015260098101546001600160a01b0316610140860152600a810154610160860152600b810154610180860152600c8101546101a0860152600d8101546101c0860152600e8101546101e0860152600f810154610200860152016133c0565b610220830152815160208301516001600160a01b03908116610160526040840151811660e05260608401511660c052608083015160a084015191929091906005821015612a98575060c08401516128ee8161342f565b60e08501516101008601516129028161342f565b61012087015190600160a01b600190036101408901511692610160890151946101808a0151966101a08b0151986101c08c01519a6101e08d01519c6102008101516080526102200151806101205280516101c05260208101516101805260408101516101e0526060015115156101005260405180610240525261016051610240516020015260e051610240516040015260c051610240516060015261024051608001526102405160a0016129b59161340c565b6129be8161342f565b6102405160c001526102405160e001526129d78161342f565b610240516101000152610240516101200152610240516101400152610240516101600152610240516101800152610240516101a00152610240516101c00152610240516101e001526080516102405161020001526102a08061024051610220015261024051016101c05190612a4b91613439565b610240518082039061024001526101805190612a6691613439565b610240518082039061026001526101e05190612a8191613439565b610100516102405161028001526102405180910390f35b634e487b7160e01b81526021600452602490fd5b503461026f57602036600319011261026f576020906040906001600160a01b03612ad4613479565b168152600483522054604051908152f35b503461026f57602036600319011261026f57612aff61357a565b60043560085580f35b503461026f57602036600319011261026f57600435612b2561357a565b6103e88111612b345760095580f35b60405162461bcd60e51b81526020600482015260076024820152664d61782031302560c81b6044820152606490fd5b503461026f57602080600319360112610378576001600160a01b03612b86613479565b168252600381526040822060405192838383549182815201908193835284832090835b818110612bfd5750505084612bbf9103856132f9565b60405193838594850191818652518092526040850193925b828110612be657505050500390f35b835185528695509381019392810192600101612bd7565b825484529286019260019283019201612ba9565b503461026f578060031936011261026f57600c546040516001600160a01b039091168152602090f35b503461026f57602036600319011261026f576004358152600260205260409020808054600160a01b600190038060018401541660a05280600284015416610220528060038401541690600484015490600585015490600686015490600787015460ff1660088801549160098901541692600a89015494600b8a015496600c8b015498600d8c01549a600e8d01549c600f01549d601001612cd9906133c0565b6101a05260405180610200525260a0516102005160200152610220516102005160400152610200516060015261020051608001526102005160a00160ff821690612d229161340c565b60081c60ff16612d318161342f565b6102005160c001526102005160e00152612d4a8161342f565b610200516101000152610200516101200152610200516101400152610200516101600152610200516101800152610200516101a00152610200516101c00152610200516101e00152610200516102000152610240806102005161022001526101a0515190610200510160809052610200516102c001612dc891613439565b6101a05160200151610200519161023f19928381830301906102600152612dee91613439565b6101a0516040015191610200519081830301906102800152612e0f91613439565b6101a051606001511515610200516102a001526102005180910390f35b503461026f57602036600319011261026f57612e46613788565b6004358152600260205260408120600581015460ff8116600581101580613261576001821480928115613253575b501561321d5760018401546001600160a01b031633148015613207575b156131d3576003600b85015410806131c5575b156131885761317457613162575b50600d81015460405142602082015244604082015260043560608201528160808201523360601b60a0820152609481528060c08101106001600160401b0360c08301111761314e5760c08101604052602081519101209060018216156000146130de5750612f23600b830154613615565b600b830155600d8201546001810181116130ca5760018381015460408051938301845291841660208401526001600160a01b031690820152600435907fd2b6b22444768b00d18e4a1c242dc398d49e330c1bae790cad9dcd86da2e20c390606090a25b612f93600d830154613615565b600d83015560018116600e830155600f8201556003600b82015410801580916130bb575b612fc4575b826001815580f35b156130a45760018101546001600160a01b0316906008905b6009810180546001600160a01b0319166001600160a01b03948516908117825560058301805460ff191660039081179091559086526006602090815260408088209285015490961687525292842060048201546130389161365e565b015480613079575b50546001600160a01b03166004357f7f40df5127524300187445e867486da572aab86769c0212e0b392bd87c4ca97f8380a33880612fbc565b81546001600160a01b031683526004602052604083208054909161309c91613880565b905538613040565b60028101546001600160a01b031690600890612fdc565b506003600c8301541015612fb7565b634e487b7160e01b84526011600452602484fd5b600c83016130ec8154613615565b90556001810181116130ca576002830154604080516001938401815292841660208401526001600160a01b0390911690820152600435907fd2b6b22444768b00d18e4a1c242dc398d49e330c1bae790cad9dcd86da2e20c390606090a2612f86565b634e487b7160e01b84526041600452602484fd5b60ff1916600217600582015538612eb2565b634e487b7160e01b84526021600452602484fd5b60405162461bcd60e51b815260206004820152601560248201527447616d6520616c726561647920636f6d706c65746560581b6044820152606490fd5b506003600c85015410612ea4565b60405162461bcd60e51b815260206004820152600c60248201526b2737ba103090383630bcb2b960a11b6044820152606490fd5b5060028401546001600160a01b03163314612e91565b60405162461bcd60e51b815260206004820152600e60248201526d47616d65206e6f7420726561647960901b6044820152606490fd5b915050600285911438612e74565b634e487b7160e01b85526021600452602485fd5b90600182811c921680156132a5575b602083101461328f57565b634e487b7160e01b600052602260045260246000fd5b91607f1691613284565b61024081019081106001600160401b03821117611bfd57604052565b6001600160401b038111611bfd57604052565b608081019081106001600160401b03821117611bfd57604052565b90601f801991011681019081106001600160401b03821117611bfd57604052565b906040519182600082549261332e84613275565b90818452600194858116908160001461339d575060011461335a575b5050613358925003836132f9565b565b9093915060005260209081600020936000915b8183106133855750506133589350820101388061334a565b8554888401850152948501948794509183019161336d565b91505061335894506020925060ff191682840152151560051b820101388061334a565b906040516133cd816132de565b606060ff600383956133de8161331a565b85526133ec6001820161331a565b60208601526133fd6002820161331a565b60408601520154161515910152565b9060058210156134195752565b634e487b7160e01b600052602160045260246000fd5b6002111561341957565b919082519283825260005b848110613465575050826000602080949584010152601f8019910116010190565b602081830181015184830182015201613444565b600435906001600160a01b038216820361348f57565b600080fd5b602435906001600160a01b038216820361348f57565b80548210156134c25760005260206000200190600090565b634e487b7160e01b600052603260045260246000fd5b9181601f8401121561348f578235916001600160401b03831161348f576020808501948460051b01011161348f57565b6001600160401b038111611bfd57601f01601f191660200190565b81601f8201121561348f5780359061353a82613508565b9261354860405194856132f9565b8284526020838301011161348f57816000926020809301838601378301015290565b6101043590811515820361348f57565b6001546001600160a01b0316330361358e57565b606460405162461bcd60e51b815260206004820152602060248201527f4f776e61626c653a2063616c6c6572206973206e6f7420746865206f776e65726044820152fd5b156135d957565b60405162461bcd60e51b8152602060048201526014602482015273125b9d985b1a59081391950818dbdb9d1c9858dd60621b6044820152606490fd5b60001981146136245760010190565b634e487b7160e01b600052601160045260246000fd5b60058210156134195752565b9060058110156134195760ff80198354169116179055565b9081549168010000000000000000831015611bfd57826124f8916001613358950181556134aa565b3d156136b1573d9061369782613508565b916136a560405193846132f9565b82523d6000602084013e565b606090565b156136bd57565b60405162461bcd60e51b8152602060048201526013602482015272119959481d1c985b9cd9995c8819985a5b1959606a1b6044820152606490fd5b9190820391821161362457565b1561370c57565b60405162461bcd60e51b815260206004820152600d60248201526c1499599d5b990819985a5b1959609a1b6044820152606490fd5b60ff60015460a01c1661375057565b60405162461bcd60e51b815260206004820152601060248201526f14185d5cd8589b194e881c185d5cd95960821b6044820152606490fd5b600260005414613799576002600055565b60405162461bcd60e51b815260206004820152601f60248201527f5265656e7472616e637947756172643a207265656e7472616e742063616c6c006044820152606490fd5b8181029291811591840414171561362457565b156137f857565b60405162461bcd60e51b8152602060048201526014602482015273125b9cdd59999a58da595b9d081c185e5b595b9d60621b6044820152606490fd5b1561383b57565b60405162461bcd60e51b815260206004820152601c60248201527f506c6174666f726d20666565207472616e73666572206661696c6564000000006044820152606490fd5b9190820180921161362457565b519069ffffffffffffffffffff8216820361348f57565b600b54604051633fabe5a360e21b8152919060a090839060049082906001600160a01b03165afa9182156139a757600092613959575b50600082131561391f5768056bc75e2d6310000090818102918183041490151715613624578115613909570490565b634e487b7160e01b600052601260045260246000fd5b60405162461bcd60e51b8152602060048201526012602482015271125b9d985b1a59081c1c9a58d9481999595960721b6044820152606490fd5b909160a0823d821161399f575b8161397360a093836132f9565b8101031261026f57506139858161388d565b5061399760806020830151920161388d565b5090386138da565b3d9150613966565b6040513d6000823e3d90fd5b91908110156134c25760051b0190565b356001600160a01b038116810361348f5790565b9081602091031261348f57516001600160a01b038116810361348f5790565b156139fd57565b60405162461bcd60e51b8152602060048201526012602482015271496e76616c69642067616d6520737461746560701b6044820152606490fdfea26469706673582212200e30354ca81e751297cc3a82da45210418a5f5fc4f86fcfa7093146f9ee9063764736f6c63430008140033","opcodes":"PUSH1 0x80 CALLVALUE PUSH3 0x111 JUMPI PUSH1 0x1F PUSH3 0x3BAF CODESIZE DUP2 SWAP1 SUB SWAP2 DUP3 ADD PUSH1 0x1F NOT AND DUP4 ADD SWAP2 PUSH1 0x1 PUSH1 0x1 PUSH1 0x40 SHL SUB DUP4 GT DUP5 DUP5 LT OR PUSH3 0x116 JUMPI DUP1 DUP5 SWAP3 PUSH1 0x60 SWAP5 PUSH1 0x40 MSTORE DUP4 CODECOPY DUP2 ADD SUB SLT PUSH3 0x111 JUMPI PUSH3 0x4D DUP2 PUSH3 0x12C JUMP JUMPDEST PUSH3 0x69 PUSH1 0x40 PUSH3 0x61 PUSH1 0x20 DUP6 ADD PUSH3 0x12C JUMP JUMPDEST SWAP4 ADD PUSH3 0x12C JUMP JUMPDEST SWAP2 PUSH1 0x1 PUSH1 0x0 SSTORE PUSH1 0x1 SLOAD SWAP3 PUSH1 0x40 MLOAD SWAP4 PUSH1 0x1 DUP1 PUSH1 0xA0 SHL SUB SWAP3 DUP4 SWAP2 CALLER DUP4 DUP3 AND PUSH32 0x8BE0079C531659141344CD1FD0A4F28419497F9722A3DAAFE3B4186F6B6457E0 PUSH1 0x0 DUP1 LOG3 PUSH1 0x1 PUSH1 0x1 PUSH1 0xA8 SHL SUB NOT AND CALLER PUSH1 0xFF PUSH1 0xA0 SHL NOT AND OR PUSH1 0x1 SWAP1 DUP2 SSTORE PUSH1 0x7 SSTORE PUSH3 0x30D40 PUSH1 0x8 SSTORE PUSH2 0x15E PUSH1 0x9 SSTORE PUSH1 0xB DUP1 SLOAD PUSH1 0x1 PUSH1 0x1 PUSH1 0xA0 SHL SUB NOT SWAP1 DUP2 AND SWAP7 DUP5 AND SWAP7 SWAP1 SWAP7 OR SWAP1 SSTORE PUSH1 0xC DUP1 SLOAD DUP7 AND SWAP2 SWAP1 SWAP3 AND OR SWAP1 SSTORE PUSH1 0xA DUP1 SLOAD SWAP1 SWAP4 AND SWAP2 AND OR SWAP1 SSTORE PUSH2 0x3A6D SWAP1 DUP2 PUSH3 0x142 DUP3 CODECOPY RETURN JUMPDEST PUSH1 0x0 DUP1 REVERT JUMPDEST PUSH4 0x4E487B71 PUSH1 0xE0 SHL PUSH1 0x0 MSTORE PUSH1 0x41 PUSH1 0x4 MSTORE PUSH1 0x24 PUSH1 0x0 REVERT JUMPDEST MLOAD SWAP1 PUSH1 0x1 PUSH1 0x1 PUSH1 0xA0 SHL SUB DUP3 AND DUP3 SUB PUSH3 0x111 JUMPI JUMP INVALID PUSH2 0x260 PUSH1 0x40 MSTORE PUSH1 0x4 CALLDATASIZE LT ISZERO PUSH2 0x13 JUMPI PUSH1 0x0 DUP1 REVERT JUMPDEST PUSH1 0x0 DUP1 CALLDATALOAD PUSH1 0xE0 SHR DUP1 PUSH4 0x19E485E EQ PUSH2 0x2E2C JUMPI DUP1 PUSH4 0x117A5B90 EQ PUSH2 0x2C3A JUMPI DUP1 PUSH4 0x11EAC855 EQ PUSH2 0x2C11 JUMPI DUP1 PUSH4 0x120AACE6 EQ PUSH2 0x2B63 JUMPI DUP1 PUSH4 0x12E8E2C3 EQ PUSH2 0x2B08 JUMPI DUP1 PUSH4 0x131DBD09 EQ PUSH2 0x2AE5 JUMPI DUP1 PUSH4 0x1A68B691 EQ PUSH2 0x2AAC JUMPI DUP1 PUSH4 0x1B31ABDA EQ PUSH2 0x277A JUMPI DUP1 PUSH4 0x2D656AD7 EQ PUSH2 0x2751 JUMPI DUP1 PUSH4 0x3A38D063 EQ PUSH2 0x2733 JUMPI DUP1 PUSH4 0x3F4BA83A EQ PUSH2 0x2696 JUMPI DUP1 PUSH4 0x51858E27 EQ PUSH2 0x2633 JUMPI DUP1 PUSH4 0x5C975ABB EQ PUSH2 0x260D JUMPI DUP1 PUSH4 0x6088E93A EQ PUSH2 0x2446 JUMPI DUP1 PUSH4 0x623C0DF2 EQ PUSH2 0x21E1 JUMPI DUP1 PUSH4 0x69958AB9 EQ PUSH2 0x2089 JUMPI DUP1 PUSH4 0x715018A6 EQ PUSH2 0x202B JUMPI DUP1 PUSH4 0x8009B7BD EQ PUSH2 0x2002 JUMPI DUP1 PUSH4 0x84536017 EQ PUSH2 0x1F8E JUMPI DUP1 PUSH4 0x8C639A85 EQ PUSH2 0x1F70 JUMPI DUP1 PUSH4 0x8DA5CB5B EQ PUSH2 0x1F47 JUMPI DUP1 PUSH4 0x95D11520 EQ PUSH2 0x1F0E JUMPI DUP1 PUSH4 0xAA4209B8 EQ PUSH2 0x1EA1 JUMPI DUP1 PUSH4 0xB135BBB0 EQ PUSH2 0x1E83 JUMPI DUP1 PUSH4 0xB87B7FCC EQ PUSH2 0x1D3C JUMPI DUP1 PUSH4 0xBC0167CD EQ PUSH2 0x1CE5 JUMPI DUP1 PUSH4 0xC7B8981C EQ PUSH2 0x1B44 JUMPI DUP1 PUSH4 0xCB9A2630 EQ PUSH2 0x1826 JUMPI DUP1 PUSH4 0xCF309490 EQ PUSH2 0x16CE JUMPI DUP1 PUSH4 0xE1F1C4A7 EQ PUSH2 0x16B1 JUMPI DUP1 PUSH4 0xE25F494B EQ PUSH2 0xED6 JUMPI DUP1 PUSH4 0xE63D8745 EQ PUSH2 0x607 JUMPI DUP1 PUSH4 0xEF46B2AB EQ PUSH2 0x5E0 JUMPI DUP1 PUSH4 0xEFAA55A0 EQ PUSH2 0x423 JUMPI DUP1 PUSH4 0xF21F8025 EQ PUSH2 0x272 JUMPI PUSH4 0xF2FDE38B EQ PUSH2 0x1AA JUMPI PUSH1 0x0 DUP1 REVERT JUMPDEST CALLVALUE PUSH2 0x26F JUMPI PUSH1 0x20 CALLDATASIZE PUSH1 0x3 NOT ADD SLT PUSH2 0x26F JUMPI PUSH2 0x1C3 PUSH2 0x3479 JUMP JUMPDEST PUSH2 0x1CB PUSH2 0x357A JUMP JUMPDEST PUSH1 0x1 PUSH1 0x1 PUSH1 0xA0 SHL SUB SWAP1 DUP2 AND SWAP1 DUP2 ISZERO PUSH2 0x21B JUMPI PUSH1 0x1 SLOAD DUP3 PUSH1 0x1 PUSH1 0x1 PUSH1 0x60 SHL SUB PUSH1 0xA0 SHL DUP3 AND OR PUSH1 0x1 SSTORE AND PUSH32 0x8BE0079C531659141344CD1FD0A4F28419497F9722A3DAAFE3B4186F6B6457E0 PUSH1 0x0 DUP1 LOG3 DUP1 RETURN JUMPDEST PUSH1 0x40 MLOAD PUSH3 0x461BCD PUSH1 0xE5 SHL DUP2 MSTORE PUSH1 0x20 PUSH1 0x4 DUP3 ADD MSTORE PUSH1 0x26 PUSH1 0x24 DUP3 ADD MSTORE PUSH32 0x4F776E61626C653A206E6577206F776E657220697320746865207A65726F2061 PUSH1 0x44 DUP3 ADD MSTORE PUSH6 0x646472657373 PUSH1 0xD0 SHL PUSH1 0x64 DUP3 ADD MSTORE PUSH1 0x84 SWAP1 REVERT JUMPDEST DUP1 REVERT JUMPDEST POP CALLVALUE PUSH2 0x26F JUMPI PUSH1 0x60 CALLDATASIZE PUSH1 0x3 NOT ADD SLT PUSH2 0x26F JUMPI PUSH1 0x4 CALLDATALOAD PUSH2 0x28F PUSH2 0x3494 JUMP JUMPDEST PUSH1 0x44 CALLDATALOAD PUSH2 0x29A PUSH2 0x3788 JUMP JUMPDEST DUP3 DUP5 MSTORE PUSH1 0x2 PUSH1 0x20 MSTORE PUSH1 0x40 DUP5 KECCAK256 PUSH1 0xFF PUSH1 0x5 DUP3 ADD SLOAD AND PUSH1 0x5 DUP2 LT ISZERO PUSH2 0x40F JUMPI PUSH2 0x2C1 SWAP1 ISZERO PUSH2 0x39F6 JUMP JUMPDEST PUSH1 0x1 DUP2 ADD SLOAD PUSH1 0x1 PUSH1 0x1 PUSH1 0xA0 SHL SUB SWAP1 DUP2 AND CALLER SUB PUSH2 0x3CA JUMPI DUP1 DUP4 SWAP2 PUSH1 0x3 DUP5 ADD SLOAD AND SWAP5 AND DUP1 SWAP5 EQ SWAP2 DUP3 PUSH2 0x3BC JUMPI JUMPDEST POP POP ISZERO PUSH2 0x38B JUMPI DUP2 DUP5 SWAP3 EXTCODESIZE ISZERO PUSH2 0x387 JUMPI PUSH1 0x40 MLOAD PUSH4 0x23B872DD PUSH1 0xE0 SHL DUP2 MSTORE CALLER PUSH1 0x4 DUP3 ADD MSTORE ADDRESS PUSH1 0x24 DUP3 ADD MSTORE PUSH1 0x44 DUP2 ADD SWAP3 SWAP1 SWAP3 MSTORE DUP3 SWAP1 DUP3 SWAP1 PUSH1 0x64 SWAP1 DUP3 SWAP1 DUP5 SWAP1 GAS CALL DUP1 ISZERO PUSH2 0x37C JUMPI PUSH2 0x364 JUMPI JUMPDEST POP POP CALLER SWAP1 PUSH32 0x52B1FB285141146B72F7EDDD25172042BE309C15A803900DCE35E0AE95C04DD DUP4 DUP1 LOG3 PUSH1 0x1 DUP2 SSTORE DUP1 RETURN JUMPDEST PUSH2 0x36D SWAP1 PUSH2 0x32CB JUMP JUMPDEST PUSH2 0x378 JUMPI DUP2 CODESIZE PUSH2 0x335 JUMP JUMPDEST POP DUP1 REVERT JUMPDEST PUSH1 0x40 MLOAD RETURNDATASIZE DUP5 DUP3 RETURNDATACOPY RETURNDATASIZE SWAP1 REVERT JUMPDEST DUP3 DUP1 REVERT JUMPDEST PUSH1 0x40 MLOAD PUSH3 0x461BCD PUSH1 0xE5 SHL DUP2 MSTORE PUSH1 0x20 PUSH1 0x4 DUP3 ADD MSTORE PUSH1 0x9 PUSH1 0x24 DUP3 ADD MSTORE PUSH9 0x15DC9BDB99C8139195 PUSH1 0xBA SHL PUSH1 0x44 DUP3 ADD MSTORE PUSH1 0x64 SWAP1 REVERT JUMPDEST PUSH1 0x4 ADD SLOAD EQ SWAP1 POP DUP2 CODESIZE PUSH2 0x2EC JUMP JUMPDEST PUSH1 0x40 MLOAD PUSH3 0x461BCD PUSH1 0xE5 SHL DUP2 MSTORE PUSH1 0x20 PUSH1 0x4 DUP3 ADD MSTORE PUSH1 0x1C PUSH1 0x24 DUP3 ADD MSTORE PUSH32 0x4F6E6C792063726561746F722063616E206465706F736974204E465400000000 PUSH1 0x44 DUP3 ADD MSTORE PUSH1 0x64 SWAP1 REVERT JUMPDEST PUSH4 0x4E487B71 PUSH1 0xE0 SHL DUP7 MSTORE PUSH1 0x21 PUSH1 0x4 MSTORE PUSH1 0x24 DUP7 REVERT JUMPDEST POP PUSH1 0x20 CALLDATASIZE PUSH1 0x3 NOT ADD SLT PUSH2 0x26F JUMPI PUSH1 0x4 CALLDATALOAD PUSH2 0x43B PUSH2 0x3788 JUMP JUMPDEST PUSH2 0x443 PUSH2 0x3741 JUMP JUMPDEST DUP1 DUP3 MSTORE PUSH1 0x2 PUSH1 0x20 MSTORE PUSH1 0x40 DUP3 KECCAK256 PUSH1 0x5 DUP2 ADD SWAP1 DUP2 SLOAD SWAP2 PUSH1 0xFF DUP4 AND PUSH1 0x5 DUP2 LT ISZERO PUSH2 0x40F JUMPI PUSH2 0x5A6 JUMPI PUSH1 0x1 DUP3 ADD SLOAD PUSH1 0x1 PUSH1 0x1 PUSH1 0xA0 SHL SUB SWAP3 SWAP1 DUP4 AND CALLER EQ PUSH2 0x56A JUMPI DUP6 DUP1 DUP3 PUSH2 0x50C SWAP6 DUP3 SWAP6 PUSH1 0x1 PUSH2 0x498 PUSH1 0x6 DUP7 SWAP9 ADD SLOAD PUSH2 0x38A4 JUMP JUMPDEST SWAP10 PUSH1 0x2 PUSH2 0x2710 PUSH2 0x4AB DUP14 PUSH1 0x9 SLOAD SWAP1 PUSH2 0x37DE JUMP JUMPDEST DIV SWAP6 DUP13 PUSH2 0x4C4 PUSH2 0x4BB DUP10 DUP4 PUSH2 0x36F8 JUMP JUMPDEST SWAP2 CALLVALUE LT ISZERO PUSH2 0x37F1 JUMP JUMPDEST PUSH1 0x8 DUP3 ADD SSTORE ADD CALLER PUSH1 0x1 PUSH1 0x1 PUSH1 0x60 SHL SUB PUSH1 0xA0 SHL DUP3 SLOAD AND OR SWAP1 SSTORE PUSH1 0xFF NOT AND OR SWAP1 SSTORE CALLER DUP4 MSTORE PUSH1 0x3 PUSH1 0x20 MSTORE PUSH2 0x4F8 DUP10 PUSH1 0x40 DUP6 KECCAK256 PUSH2 0x365E JUMP JUMPDEST PUSH1 0xA SLOAD AND GAS CALL PUSH2 0x506 PUSH2 0x3686 JUMP JUMPDEST POP PUSH2 0x3834 JUMP JUMPDEST DUP3 DUP2 CALLVALUE GT PUSH2 0x542 JUMPI JUMPDEST CALLER DUP4 PUSH32 0x45C4F9CBAFE186141862608C493F28B823FDE4C2142BEDC3F5169961A73FDD22 DUP4 DUP1 LOG3 PUSH1 0x1 DUP2 SSTORE DUP1 RETURN JUMPDEST DUP1 DUP1 DUP1 PUSH2 0x552 PUSH2 0x563 SWAP6 CALLVALUE PUSH2 0x36F8 JUMP JUMPDEST CALLER GAS CALL PUSH2 0x55D PUSH2 0x3686 JUMP JUMPDEST POP PUSH2 0x3705 JUMP JUMPDEST CODESIZE DUP3 PUSH2 0x515 JUMP JUMPDEST PUSH1 0x40 MLOAD PUSH3 0x461BCD PUSH1 0xE5 SHL DUP2 MSTORE PUSH1 0x20 PUSH1 0x4 DUP3 ADD MSTORE PUSH1 0x14 PUSH1 0x24 DUP3 ADD MSTORE PUSH20 0x43616E6E6F74206A6F696E206F776E2067616D65 PUSH1 0x60 SHL PUSH1 0x44 DUP3 ADD MSTORE PUSH1 0x64 SWAP1 REVERT JUMPDEST PUSH1 0x40 MLOAD PUSH3 0x461BCD PUSH1 0xE5 SHL DUP2 MSTORE PUSH1 0x20 PUSH1 0x4 DUP3 ADD MSTORE PUSH1 0x12 PUSH1 0x24 DUP3 ADD MSTORE PUSH18 0x47616D65206E6F7420617661696C61626C65 PUSH1 0x70 SHL PUSH1 0x44 DUP3 ADD MSTORE PUSH1 0x64 SWAP1 REVERT JUMPDEST POP CALLVALUE PUSH2 0x26F JUMPI PUSH1 0x20 CALLDATASIZE PUSH1 0x3 NOT ADD SLT PUSH2 0x26F JUMPI PUSH1 0x20 PUSH2 0x5FF PUSH1 0x4 CALLDATALOAD PUSH2 0x38A4 JUMP JUMPDEST PUSH1 0x40 MLOAD SWAP1 DUP2 MSTORE RETURN JUMPDEST POP PUSH2 0x120 CALLDATASIZE PUSH1 0x3 NOT ADD SLT PUSH2 0x26F JUMPI PUSH2 0x61D PUSH2 0x3479 JUMP JUMPDEST PUSH2 0x625 PUSH2 0x3494 JUMP JUMPDEST SWAP1 PUSH1 0x2 PUSH1 0x84 CALLDATALOAD LT ISZERO PUSH2 0x387 JUMPI PUSH1 0xA4 CALLDATALOAD PUSH1 0x1 PUSH1 0x1 PUSH1 0x40 SHL SUB DUP2 GT PUSH2 0xED2 JUMPI PUSH2 0x650 SWAP1 CALLDATASIZE SWAP1 PUSH1 0x4 ADD PUSH2 0x3523 JUMP JUMPDEST PUSH1 0xC4 CALLDATALOAD PUSH1 0x1 PUSH1 0x1 PUSH1 0x40 SHL SUB DUP2 GT PUSH2 0xECE JUMPI PUSH2 0x66F SWAP1 CALLDATASIZE SWAP1 PUSH1 0x4 ADD PUSH2 0x3523 JUMP JUMPDEST SWAP1 PUSH1 0xE4 CALLDATALOAD PUSH1 0x1 PUSH1 0x1 PUSH1 0x40 SHL SUB DUP2 GT PUSH2 0xECA JUMPI PUSH2 0x68F SWAP1 CALLDATASIZE SWAP1 PUSH1 0x4 ADD PUSH2 0x3523 JUMP JUMPDEST PUSH2 0x697 PUSH2 0x356A JUMP JUMPDEST SWAP5 PUSH2 0x6A0 PUSH2 0x3788 JUMP JUMPDEST PUSH2 0x6A8 PUSH2 0x3741 JUMP JUMPDEST PUSH1 0x1 PUSH1 0x1 PUSH1 0xA0 SHL SUB DUP6 AND ISZERO ISZERO DUP1 PUSH2 0xEB7 JUMPI JUMPDEST ISZERO PUSH2 0xE7F JUMPI PUSH2 0x6D3 PUSH1 0x1 PUSH1 0x1 PUSH1 0xA0 SHL SUB DUP3 AND ISZERO ISZERO PUSH2 0x35D2 JUMP JUMPDEST PUSH2 0x6DE PUSH1 0x8 SLOAD PUSH2 0x38A4 JUMP JUMPDEST SWAP3 PUSH2 0x6EA PUSH1 0x64 CALLDATALOAD PUSH2 0x38A4 JUMP JUMPDEST SWAP7 PUSH2 0x2710 PUSH2 0x6FA PUSH1 0x9 SLOAD DUP11 PUSH2 0x37DE JUMP JUMPDEST DIV SWAP4 PUSH2 0x706 DUP10 DUP8 PUSH2 0x3880 JUMP JUMPDEST SWAP7 PUSH2 0x713 DUP9 CALLVALUE LT ISZERO PUSH2 0x37F1 JUMP JUMPDEST PUSH1 0x1 PUSH1 0x1 PUSH1 0xA0 SHL SUB DUP6 AND EXTCODESIZE ISZERO PUSH2 0xE7B JUMPI PUSH1 0x40 MLOAD PUSH4 0x23B872DD PUSH1 0xE0 SHL DUP2 MSTORE CALLER PUSH1 0x4 DUP3 ADD MSTORE ADDRESS PUSH1 0x24 DUP3 ADD MSTORE PUSH1 0x44 DUP1 CALLDATALOAD SWAP1 DUP3 ADD MSTORE DUP12 SWAP1 DUP2 DUP2 PUSH1 0x64 DUP2 DUP4 PUSH1 0x1 PUSH1 0x1 PUSH1 0xA0 SHL SUB DUP13 AND GAS CALL DUP1 ISZERO PUSH2 0x37C JUMPI PUSH2 0xE67 JUMPI JUMPDEST POP POP PUSH1 0x40 MLOAD SWAP4 PUSH2 0x772 DUP6 PUSH2 0x32DE JUMP JUMPDEST DUP5 MSTORE PUSH1 0x20 DUP5 ADD MSTORE PUSH1 0x40 DUP4 ADD MSTORE ISZERO ISZERO PUSH1 0x60 DUP3 ADD MSTORE PUSH2 0x79E DUP4 PUSH1 0x7 SLOAD SWAP9 PUSH2 0x796 DUP11 PUSH2 0x3615 JUMP JUMPDEST PUSH1 0x7 SSTORE PUSH2 0x36F8 JUMP JUMPDEST PUSH1 0x40 MLOAD SWAP3 PUSH2 0x7AB DUP5 PUSH2 0x32AF JUMP JUMPDEST DUP9 DUP5 MSTORE CALLER PUSH1 0x20 DUP6 ADD MSTORE PUSH1 0x1 PUSH1 0x1 PUSH1 0xA0 SHL SUB DUP9 DUP2 AND PUSH1 0x40 DUP7 ADD MSTORE AND PUSH1 0x60 DUP5 ADD MSTORE PUSH1 0x44 CALLDATALOAD PUSH1 0x80 DUP5 ADD MSTORE PUSH1 0x1 PUSH1 0xA0 DUP5 ADD MSTORE PUSH1 0xC0 DUP4 ADD DUP10 SWAP1 MSTORE PUSH1 0x64 CALLDATALOAD PUSH1 0xE0 DUP5 ADD MSTORE PUSH2 0x7F3 PUSH1 0x84 CALLDATALOAD PUSH2 0x342F JUMP JUMPDEST PUSH1 0x84 CALLDATALOAD PUSH2 0x100 DUP5 ADD MSTORE PUSH2 0x120 DUP4 ADD MSTORE DUP8 PUSH2 0x140 DUP4 ADD MSTORE TIMESTAMP PUSH2 0x160 DUP4 ADD MSTORE DUP8 PUSH2 0x180 DUP4 ADD MSTORE DUP8 PUSH2 0x1A0 DUP4 ADD MSTORE DUP8 PUSH2 0x1C0 DUP4 ADD MSTORE DUP8 PUSH2 0x1E0 DUP4 ADD MSTORE DUP8 PUSH2 0x200 DUP4 ADD MSTORE PUSH2 0x220 DUP3 ADD MSTORE DUP6 DUP8 MSTORE PUSH1 0x2 PUSH1 0x20 MSTORE PUSH1 0x40 DUP8 KECCAK256 SWAP1 DUP1 MLOAD DUP3 SSTORE PUSH1 0x1 DUP3 ADD PUSH1 0x1 DUP1 PUSH1 0xA0 SHL SUB PUSH1 0x20 DUP4 ADD MLOAD AND PUSH1 0x1 PUSH1 0x1 PUSH1 0x60 SHL SUB PUSH1 0xA0 SHL DUP3 SLOAD AND OR SWAP1 SSTORE PUSH1 0x2 DUP3 ADD PUSH1 0x1 DUP1 PUSH1 0xA0 SHL SUB PUSH1 0x40 DUP4 ADD MLOAD AND PUSH1 0x1 PUSH1 0x1 PUSH1 0x60 SHL SUB PUSH1 0xA0 SHL DUP3 SLOAD AND OR SWAP1 SSTORE PUSH1 0x3 DUP3 ADD PUSH1 0x1 DUP1 PUSH1 0xA0 SHL SUB PUSH1 0x60 DUP4 ADD MLOAD AND PUSH1 0x1 PUSH1 0x1 PUSH1 0x60 SHL SUB PUSH1 0xA0 SHL DUP3 SLOAD AND OR SWAP1 SSTORE PUSH1 0x80 DUP2 ADD MLOAD PUSH1 0x4 DUP4 ADD SSTORE PUSH1 0xA0 DUP2 ADD MLOAD PUSH1 0x5 DUP2 LT ISZERO PUSH2 0xE53 JUMPI SWAP1 PUSH2 0x220 SWAP2 PUSH2 0x8DB PUSH1 0x5 DUP6 ADD SWAP2 DUP3 PUSH2 0x3646 JUMP JUMPDEST PUSH1 0xC0 DUP3 ADD MLOAD PUSH2 0x8E9 DUP2 PUSH2 0x342F JUMP JUMPDEST PUSH2 0x8F2 DUP2 PUSH2 0x342F JUMP JUMPDEST PUSH2 0xFF00 DUP3 SLOAD SWAP2 PUSH1 0x8 SHL AND SWAP1 PUSH2 0xFF00 NOT AND OR SWAP1 SSTORE PUSH1 0xE0 DUP2 ADD MLOAD PUSH1 0x6 DUP5 ADD SSTORE PUSH2 0x100 DUP2 ADD MLOAD PUSH2 0x91E DUP2 PUSH2 0x342F JUMP JUMPDEST PUSH2 0x927 DUP2 PUSH2 0x342F JUMP JUMPDEST PUSH1 0xFF DUP1 NOT PUSH1 0x7 DUP7 ADD SLOAD AND SWAP2 AND OR PUSH1 0x7 DUP5 ADD SSTORE PUSH2 0x120 DUP2 ADD MLOAD PUSH1 0x8 DUP5 ADD SSTORE PUSH1 0x9 DUP4 ADD PUSH1 0x1 DUP1 PUSH1 0xA0 SHL SUB PUSH2 0x140 DUP4 ADD MLOAD AND PUSH1 0x1 PUSH1 0x1 PUSH1 0x60 SHL SUB PUSH1 0xA0 SHL DUP3 SLOAD AND OR SWAP1 SSTORE PUSH2 0x160 DUP2 ADD MLOAD PUSH1 0xA DUP5 ADD SSTORE PUSH2 0x180 DUP2 ADD MLOAD PUSH1 0xB DUP5 ADD SSTORE PUSH2 0x1A0 DUP2 ADD MLOAD PUSH1 0xC DUP5 ADD SSTORE PUSH2 0x1C0 DUP2 ADD MLOAD PUSH1 0xD DUP5 ADD SSTORE PUSH2 0x1E0 DUP2 ADD MLOAD PUSH1 0xE DUP5 ADD SSTORE PUSH2 0x200 DUP2 ADD MLOAD PUSH1 0xF DUP5 ADD SSTORE ADD MLOAD SWAP1 DUP2 MLOAD DUP1 MLOAD SWAP1 PUSH1 0x1 PUSH1 0x1 PUSH1 0x40 SHL SUB DUP3 GT PUSH2 0xCA9 JUMPI DUP2 SWAP1 PUSH2 0x9CE PUSH1 0x10 DUP6 ADD SLOAD PUSH2 0x3275 JUMP JUMPDEST PUSH1 0x1F DUP2 GT PUSH2 0xE02 JUMPI JUMPDEST POP PUSH1 0x20 SWAP1 PUSH1 0x1F DUP4 GT PUSH1 0x1 EQ PUSH2 0xD93 JUMPI DUP12 SWAP3 PUSH2 0xD88 JUMPI JUMPDEST POP POP DUP2 PUSH1 0x1 SHL SWAP2 PUSH1 0x0 NOT SWAP1 PUSH1 0x3 SHL SHR NOT AND OR PUSH1 0x10 DUP3 ADD SSTORE JUMPDEST PUSH1 0x20 DUP3 ADD MLOAD DUP1 MLOAD SWAP1 PUSH1 0x1 PUSH1 0x1 PUSH1 0x40 SHL SUB DUP3 GT PUSH2 0xCA9 JUMPI DUP2 SWAP1 PUSH2 0xA2A PUSH1 0x11 DUP6 ADD SLOAD PUSH2 0x3275 JUMP JUMPDEST PUSH1 0x1F DUP2 GT PUSH2 0xD37 JUMPI JUMPDEST POP PUSH1 0x20 SWAP1 PUSH1 0x1F DUP4 GT PUSH1 0x1 EQ PUSH2 0xCC8 JUMPI DUP12 SWAP3 PUSH2 0xCBD JUMPI JUMPDEST POP POP DUP2 PUSH1 0x1 SHL SWAP2 PUSH1 0x0 NOT SWAP1 PUSH1 0x3 SHL SHR NOT AND OR PUSH1 0x11 DUP3 ADD SSTORE JUMPDEST PUSH1 0x40 DUP3 ADD MLOAD DUP1 MLOAD SWAP1 PUSH1 0x1 PUSH1 0x1 PUSH1 0x40 SHL SUB DUP3 GT PUSH2 0xCA9 JUMPI SWAP1 DUP3 SWAP2 PUSH2 0xA8A PUSH1 0x12 DUP13 SWAP8 SWAP7 SWAP6 ADD SLOAD PUSH2 0x3275 JUMP JUMPDEST PUSH1 0x1F DUP2 GT PUSH2 0xC50 JUMPI JUMPDEST POP PUSH1 0x20 SWAP1 PUSH1 0x1F DUP4 GT PUSH1 0x1 EQ PUSH2 0xBCA JUMPI SWAP5 DUP7 SWAP6 SWAP5 PUSH1 0x60 PUSH1 0x13 DUP9 SWAP8 SWAP7 DUP7 PUSH2 0xB42 SWAP13 SWAP8 PUSH2 0xB31 SWAP8 DUP12 SWAP11 DUP12 SWAP3 PUSH2 0xBBF JUMPI JUMPDEST POP POP DUP2 PUSH1 0x1 SHL SWAP2 PUSH1 0x0 NOT SWAP1 PUSH1 0x3 SHL SHR NOT AND OR PUSH1 0x12 DUP3 ADD SSTORE JUMPDEST ADD SWAP2 ADD MLOAD ISZERO ISZERO PUSH1 0xFF DUP1 NOT DUP4 SLOAD AND SWAP2 AND OR SWAP1 SSTORE CALLER DUP5 MSTORE PUSH1 0x3 PUSH1 0x20 MSTORE PUSH2 0xAFF DUP12 PUSH1 0x40 DUP7 KECCAK256 PUSH2 0x365E JUMP JUMPDEST PUSH1 0x1 PUSH1 0x1 PUSH1 0xA0 SHL SUB DUP11 AND DUP5 MSTORE PUSH1 0x3 PUSH1 0x20 MSTORE PUSH1 0x40 DUP5 KECCAK256 PUSH2 0xB1F SWAP1 DUP13 SWAP1 PUSH2 0x365E JUMP JUMPDEST PUSH1 0xA SLOAD PUSH1 0x1 PUSH1 0x1 PUSH1 0xA0 SHL SUB AND SWAP3 PUSH2 0x3880 JUMP JUMPDEST SWAP1 GAS CALL PUSH2 0xB3C PUSH2 0x3686 JUMP JUMPDEST POP PUSH2 0x36B6 JUMP JUMPDEST DUP4 DUP2 CALLVALUE GT PUSH2 0xBA8 JUMPI JUMPDEST POP POP CALLER DUP3 PUSH32 0xC3E0F84839DC888C892A013D10C8F9D6DC05A21A879D0CE468CA558013E9121C DUP6 DUP1 LOG3 PUSH1 0x1 PUSH1 0x1 PUSH1 0xA0 SHL SUB AND SWAP1 PUSH32 0x45C4F9CBAFE186141862608C493F28B823FDE4C2142BEDC3F5169961A73FDD22 DUP4 DUP1 LOG3 PUSH1 0x1 DUP2 SSTORE DUP1 RETURN JUMPDEST DUP1 DUP1 DUP1 PUSH2 0x552 PUSH2 0xBB8 SWAP6 CALLVALUE PUSH2 0x36F8 JUMP JUMPDEST CODESIZE DUP4 PUSH2 0xB4B JUMP JUMPDEST ADD MLOAD SWAP1 POP CODESIZE DUP1 PUSH2 0xAC0 JUMP JUMPDEST PUSH1 0x12 DUP5 SWAP4 SWAP3 SWAP9 SWAP7 SWAP6 SWAP5 ADD DUP8 MSTORE PUSH1 0x20 DUP8 KECCAK256 SWAP1 DUP8 JUMPDEST PUSH1 0x1F NOT DUP5 AND DUP2 LT PUSH2 0xC35 JUMPI POP SWAP4 PUSH1 0x60 PUSH1 0x13 DUP10 SWAP9 SWAP6 PUSH1 0x1 DUP7 DUP12 SWAP11 SWAP7 PUSH2 0xB42 SWAP15 DUP13 SWAP12 PUSH2 0xB31 SWAP11 PUSH1 0x1F NOT DUP2 AND LT PUSH2 0xC1C JUMPI JUMPDEST POP POP POP DUP2 SHL ADD PUSH1 0x12 DUP3 ADD SSTORE PUSH2 0xAD8 JUMP JUMPDEST ADD MLOAD PUSH1 0x0 NOT PUSH1 0xF8 DUP5 PUSH1 0x3 SHL AND SHR NOT AND SWAP1 SSTORE CODESIZE DUP1 DUP1 PUSH2 0xC0C JUMP JUMPDEST DUP2 DUP11 ADD MLOAD DUP4 SSTORE PUSH1 0x20 SWAP10 DUP11 ADD SWAP10 DUP15 SWAP10 POP PUSH1 0x1 SWAP1 SWAP4 ADD SWAP3 ADD PUSH2 0xBDD JUMP JUMPDEST SWAP1 SWAP2 SWAP3 SWAP4 SWAP5 SWAP6 POP PUSH1 0x12 DUP5 ADD DUP12 MSTORE PUSH1 0x20 DUP12 KECCAK256 PUSH1 0x1F DUP5 ADD PUSH1 0x5 SHR DUP2 ADD PUSH1 0x20 DUP6 LT PUSH2 0xCA2 JUMPI JUMPDEST SWAP1 DUP13 SWAP8 SWAP7 SWAP6 SWAP5 SWAP4 SWAP3 SWAP2 JUMPDEST PUSH1 0x1F DUP4 ADD PUSH1 0x5 SHR DUP3 ADD DUP2 LT PUSH2 0xC93 JUMPI POP POP PUSH2 0xA93 JUMP JUMPDEST PUSH1 0x0 DUP2 SSTORE DUP14 SWAP9 POP PUSH1 0x1 ADD PUSH2 0xC7D JUMP JUMPDEST POP DUP1 PUSH2 0xC73 JUMP JUMPDEST PUSH4 0x4E487B71 PUSH1 0xE0 SHL DUP11 MSTORE PUSH1 0x41 PUSH1 0x4 MSTORE PUSH1 0x24 DUP11 REVERT JUMPDEST ADD MLOAD SWAP1 POP CODESIZE DUP1 PUSH2 0xA49 JUMP JUMPDEST SWAP3 POP PUSH1 0x11 DUP5 ADD DUP12 MSTORE PUSH1 0x20 DUP12 KECCAK256 SWAP1 DUP12 SWAP4 JUMPDEST PUSH1 0x1F NOT DUP5 AND DUP6 LT PUSH2 0xD1C JUMPI PUSH1 0x1 SWAP5 POP DUP4 PUSH1 0x1F NOT DUP2 AND LT PUSH2 0xD03 JUMPI JUMPDEST POP POP POP DUP2 SHL ADD PUSH1 0x11 DUP3 ADD SSTORE PUSH2 0xA61 JUMP JUMPDEST ADD MLOAD PUSH1 0x0 NOT PUSH1 0xF8 DUP5 PUSH1 0x3 SHL AND SHR NOT AND SWAP1 SSTORE CODESIZE DUP1 DUP1 PUSH2 0xCF3 JUMP JUMPDEST DUP2 DUP2 ADD MLOAD DUP4 SSTORE PUSH1 0x20 SWAP5 DUP6 ADD SWAP5 PUSH1 0x1 SWAP1 SWAP4 ADD SWAP3 SWAP1 SWAP2 ADD SWAP1 PUSH2 0xCD8 JUMP JUMPDEST SWAP1 SWAP2 POP PUSH1 0x11 DUP5 ADD DUP12 MSTORE PUSH1 0x20 DUP12 KECCAK256 PUSH1 0x1F DUP5 ADD PUSH1 0x5 SHR DUP2 ADD PUSH1 0x20 DUP6 LT PUSH2 0xD81 JUMPI JUMPDEST SWAP1 DUP5 SWAP4 SWAP3 SWAP2 JUMPDEST PUSH1 0x1F DUP4 ADD PUSH1 0x5 SHR DUP3 ADD DUP2 LT PUSH2 0xD72 JUMPI POP POP PUSH2 0xA33 JUMP JUMPDEST PUSH1 0x0 DUP2 SSTORE DUP6 SWAP5 POP PUSH1 0x1 ADD PUSH2 0xD5C JUMP JUMPDEST POP DUP1 PUSH2 0xD56 JUMP JUMPDEST ADD MLOAD SWAP1 POP CODESIZE DUP1 PUSH2 0x9ED JUMP JUMPDEST SWAP3 POP PUSH1 0x10 DUP5 ADD DUP12 MSTORE PUSH1 0x20 DUP12 KECCAK256 SWAP1 DUP12 SWAP4 JUMPDEST PUSH1 0x1F NOT DUP5 AND DUP6 LT PUSH2 0xDE7 JUMPI PUSH1 0x1 SWAP5 POP DUP4 PUSH1 0x1F NOT DUP2 AND LT PUSH2 0xDCE JUMPI JUMPDEST POP POP POP DUP2 SHL ADD PUSH1 0x10 DUP3 ADD SSTORE PUSH2 0xA05 JUMP JUMPDEST ADD MLOAD PUSH1 0x0 NOT PUSH1 0xF8 DUP5 PUSH1 0x3 SHL AND SHR NOT AND SWAP1 SSTORE CODESIZE DUP1 DUP1 PUSH2 0xDBE JUMP JUMPDEST DUP2 DUP2 ADD MLOAD DUP4 SSTORE PUSH1 0x20 SWAP5 DUP6 ADD SWAP5 PUSH1 0x1 SWAP1 SWAP4 ADD SWAP3 SWAP1 SWAP2 ADD SWAP1 PUSH2 0xDA3 JUMP JUMPDEST SWAP1 SWAP2 POP PUSH1 0x10 DUP5 ADD DUP12 MSTORE PUSH1 0x20 DUP12 KECCAK256 PUSH1 0x1F DUP5 ADD PUSH1 0x5 SHR DUP2 ADD PUSH1 0x20 DUP6 LT PUSH2 0xE4C JUMPI JUMPDEST SWAP1 DUP5 SWAP4 SWAP3 SWAP2 JUMPDEST PUSH1 0x1F DUP4 ADD PUSH1 0x5 SHR DUP3 ADD DUP2 LT PUSH2 0xE3D JUMPI POP POP PUSH2 0x9D7 JUMP JUMPDEST PUSH1 0x0 DUP2 SSTORE DUP6 SWAP5 POP PUSH1 0x1 ADD PUSH2 0xE27 JUMP JUMPDEST POP DUP1 PUSH2 0xE21 JUMP JUMPDEST PUSH4 0x4E487B71 PUSH1 0xE0 SHL DUP10 MSTORE PUSH1 0x21 PUSH1 0x4 MSTORE PUSH1 0x24 DUP10 REVERT JUMPDEST PUSH2 0xE70 SWAP1 PUSH2 0x32CB JUMP JUMPDEST PUSH2 0xE7B JUMPI DUP11 CODESIZE PUSH2 0x763 JUMP JUMPDEST DUP11 DUP1 REVERT JUMPDEST PUSH1 0x40 MLOAD PUSH3 0x461BCD PUSH1 0xE5 SHL DUP2 MSTORE PUSH1 0x20 PUSH1 0x4 DUP3 ADD MSTORE PUSH1 0x10 PUSH1 0x24 DUP3 ADD MSTORE PUSH16 0x125B9D985B1A59081BDC1C1BDB995B9D PUSH1 0x82 SHL PUSH1 0x44 DUP3 ADD MSTORE PUSH1 0x64 SWAP1 REVERT JUMPDEST POP PUSH1 0x1 PUSH1 0x1 PUSH1 0xA0 SHL SUB DUP6 AND CALLER EQ ISZERO PUSH2 0x6BA JUMP JUMPDEST DUP6 DUP1 REVERT JUMPDEST DUP5 DUP1 REVERT JUMPDEST DUP4 DUP1 REVERT JUMPDEST POP PUSH2 0x120 CALLDATASIZE PUSH1 0x3 NOT ADD SLT PUSH2 0x26F JUMPI PUSH2 0xEEC PUSH2 0x3479 JUMP JUMPDEST PUSH1 0x2 PUSH1 0x64 CALLDATALOAD LT ISZERO PUSH2 0x378 JUMPI PUSH1 0x2 PUSH1 0x84 CALLDATALOAD LT ISZERO PUSH2 0x378 JUMPI PUSH1 0xA4 CALLDATALOAD PUSH1 0x1 PUSH1 0x1 PUSH1 0x40 SHL SUB DUP2 GT PUSH2 0x387 JUMPI PUSH2 0xF21 SWAP1 CALLDATASIZE SWAP1 PUSH1 0x4 ADD PUSH2 0x3523 JUMP JUMPDEST SWAP1 PUSH1 0xC4 CALLDATALOAD PUSH1 0x1 PUSH1 0x1 PUSH1 0x40 SHL SUB DUP2 GT PUSH2 0xED2 JUMPI PUSH2 0xF41 SWAP1 CALLDATASIZE SWAP1 PUSH1 0x4 ADD PUSH2 0x3523 JUMP JUMPDEST SWAP1 PUSH1 0xE4 CALLDATALOAD PUSH1 0x1 PUSH1 0x1 PUSH1 0x40 SHL SUB DUP2 GT PUSH2 0xECE JUMPI PUSH2 0xF61 SWAP1 CALLDATASIZE SWAP1 PUSH1 0x4 ADD PUSH2 0x3523 JUMP JUMPDEST PUSH2 0xF69 PUSH2 0x356A JUMP JUMPDEST SWAP1 PUSH2 0xF72 PUSH2 0x3788 JUMP JUMPDEST PUSH2 0xF7A PUSH2 0x3741 JUMP JUMPDEST PUSH2 0xF8E PUSH1 0x1 PUSH1 0x1 PUSH1 0xA0 SHL SUB DUP5 AND ISZERO ISZERO PUSH2 0x35D2 JUMP JUMPDEST PUSH2 0xF99 PUSH1 0x8 SLOAD PUSH2 0x38A4 JUMP JUMPDEST SWAP4 DUP5 CALLVALUE LT PUSH2 0x166C JUMPI PUSH1 0x1 PUSH1 0x1 PUSH1 0xA0 SHL SUB DUP5 AND EXTCODESIZE ISZERO PUSH2 0x1668 JUMPI PUSH1 0x40 MLOAD PUSH4 0x23B872DD PUSH1 0xE0 SHL DUP2 MSTORE CALLER PUSH1 0x4 DUP3 ADD MSTORE ADDRESS PUSH1 0x24 DUP1 DUP4 ADD SWAP2 SWAP1 SWAP2 MSTORE CALLDATALOAD PUSH1 0x44 DUP3 ADD MSTORE DUP8 SWAP1 DUP2 DUP2 PUSH1 0x64 DUP2 DUP4 PUSH1 0x1 PUSH1 0x1 PUSH1 0xA0 SHL SUB DUP12 AND GAS CALL DUP1 ISZERO PUSH2 0x37C JUMPI PUSH2 0x1654 JUMPI JUMPDEST POP POP PUSH1 0x40 MLOAD SWAP6 PUSH2 0x1002 DUP8 PUSH2 0x32DE JUMP JUMPDEST DUP7 MSTORE PUSH1 0x20 DUP7 ADD MSTORE PUSH1 0x40 DUP6 ADD MSTORE ISZERO ISZERO PUSH1 0x60 DUP5 ADD MSTORE PUSH1 0x7 SLOAD SWAP3 PUSH2 0x1022 DUP5 PUSH2 0x3615 JUMP JUMPDEST PUSH1 0x7 SSTORE PUSH1 0x40 MLOAD SWAP2 PUSH2 0x1032 DUP4 PUSH2 0x32AF JUMP JUMPDEST DUP5 DUP4 MSTORE CALLER PUSH1 0x20 DUP5 ADD MSTORE PUSH1 0x40 DUP4 ADD DUP7 SWAP1 MSTORE PUSH1 0x1 PUSH1 0x1 PUSH1 0xA0 SHL SUB AND PUSH1 0x60 DUP4 ADD MSTORE PUSH1 0x24 CALLDATALOAD PUSH1 0x80 DUP4 ADD MSTORE PUSH1 0xA0 DUP3 ADD DUP6 SWAP1 MSTORE PUSH2 0x106A PUSH1 0x84 CALLDATALOAD PUSH2 0x342F JUMP JUMPDEST PUSH1 0x84 CALLDATALOAD PUSH1 0xC0 DUP4 ADD MSTORE PUSH1 0x44 CALLDATALOAD PUSH1 0xE0 DUP4 ADD MSTORE PUSH2 0x1085 PUSH1 0x64 CALLDATALOAD PUSH2 0x342F JUMP JUMPDEST PUSH1 0x64 CALLDATALOAD PUSH2 0x100 DUP4 ADD MSTORE DUP5 PUSH2 0x120 DUP4 ADD MSTORE DUP5 PUSH2 0x140 DUP4 ADD MSTORE TIMESTAMP PUSH2 0x160 DUP4 ADD MSTORE DUP5 PUSH2 0x180 DUP4 ADD MSTORE DUP5 PUSH2 0x1A0 DUP4 ADD MSTORE DUP5 PUSH2 0x1C0 DUP4 ADD MSTORE DUP5 PUSH2 0x1E0 DUP4 ADD MSTORE DUP5 PUSH2 0x200 DUP4 ADD MSTORE PUSH2 0x220 DUP3 ADD MSTORE DUP3 DUP5 MSTORE PUSH1 0x2 PUSH1 0x20 MSTORE PUSH1 0x40 DUP5 KECCAK256 SWAP1 DUP1 MLOAD DUP3 SSTORE PUSH1 0x1 DUP3 ADD PUSH1 0x1 DUP1 PUSH1 0xA0 SHL SUB PUSH1 0x20 DUP4 ADD MLOAD AND PUSH1 0x1 PUSH1 0x1 PUSH1 0x60 SHL SUB PUSH1 0xA0 SHL DUP3 SLOAD AND OR SWAP1 SSTORE PUSH1 0x2 DUP3 ADD PUSH1 0x1 DUP1 PUSH1 0xA0 SHL SUB PUSH1 0x40 DUP4 ADD MLOAD AND PUSH1 0x1 PUSH1 0x1 PUSH1 0x60 SHL SUB PUSH1 0xA0 SHL DUP3 SLOAD AND OR SWAP1 SSTORE PUSH1 0x3 DUP3 ADD PUSH1 0x1 DUP1 PUSH1 0xA0 SHL SUB PUSH1 0x60 DUP4 ADD MLOAD AND PUSH1 0x1 PUSH1 0x1 PUSH1 0x60 SHL SUB PUSH1 0xA0 SHL DUP3 SLOAD AND OR SWAP1 SSTORE PUSH1 0x80 DUP2 ADD MLOAD PUSH1 0x4 DUP4 ADD SSTORE PUSH1 0xA0 DUP2 ADD MLOAD PUSH1 0x5 DUP2 LT ISZERO PUSH2 0x40F JUMPI SWAP1 PUSH2 0x220 SWAP2 PUSH2 0x116E PUSH1 0x5 DUP6 ADD SWAP2 DUP3 PUSH2 0x3646 JUMP JUMPDEST PUSH1 0xC0 DUP3 ADD MLOAD PUSH2 0x117C DUP2 PUSH2 0x342F JUMP JUMPDEST PUSH2 0x1185 DUP2 PUSH2 0x342F JUMP JUMPDEST PUSH2 0xFF00 DUP3 SLOAD SWAP2 PUSH1 0x8 SHL AND SWAP1 PUSH2 0xFF00 NOT AND OR SWAP1 SSTORE PUSH1 0xE0 DUP2 ADD MLOAD PUSH1 0x6 DUP5 ADD SSTORE PUSH2 0x100 DUP2 ADD MLOAD PUSH2 0x11B1 DUP2 PUSH2 0x342F JUMP JUMPDEST PUSH2 0x11BA DUP2 PUSH2 0x342F JUMP JUMPDEST PUSH1 0xFF DUP1 NOT PUSH1 0x7 DUP7 ADD SLOAD AND SWAP2 AND OR PUSH1 0x7 DUP5 ADD SSTORE PUSH2 0x120 DUP2 ADD MLOAD PUSH1 0x8 DUP5 ADD SSTORE PUSH1 0x9 DUP4 ADD PUSH1 0x1 DUP1 PUSH1 0xA0 SHL SUB PUSH2 0x140 DUP4 ADD MLOAD AND PUSH1 0x1 PUSH1 0x1 PUSH1 0x60 SHL SUB PUSH1 0xA0 SHL DUP3 SLOAD AND OR SWAP1 SSTORE PUSH2 0x160 DUP2 ADD MLOAD PUSH1 0xA DUP5 ADD SSTORE PUSH2 0x180 DUP2 ADD MLOAD PUSH1 0xB DUP5 ADD SSTORE PUSH2 0x1A0 DUP2 ADD MLOAD PUSH1 0xC DUP5 ADD SSTORE PUSH2 0x1C0 DUP2 ADD MLOAD PUSH1 0xD DUP5 ADD SSTORE PUSH2 0x1E0 DUP2 ADD MLOAD PUSH1 0xE DUP5 ADD SSTORE PUSH2 0x200 DUP2 ADD MLOAD PUSH1 0xF DUP5 ADD SSTORE ADD MLOAD SWAP1 DUP2 MLOAD DUP1 MLOAD SWAP1 PUSH1 0x1 PUSH1 0x1 PUSH1 0x40 SHL SUB DUP3 GT PUSH2 0x14AA JUMPI DUP2 SWAP1 PUSH2 0x1261 PUSH1 0x10 DUP6 ADD SLOAD PUSH2 0x3275 JUMP JUMPDEST PUSH1 0x1F DUP2 GT PUSH2 0x1603 JUMPI JUMPDEST POP PUSH1 0x20 SWAP1 PUSH1 0x1F DUP4 GT PUSH1 0x1 EQ PUSH2 0x1594 JUMPI DUP9 SWAP3 PUSH2 0x1589 JUMPI JUMPDEST POP POP DUP2 PUSH1 0x1 SHL SWAP2 PUSH1 0x0 NOT SWAP1 PUSH1 0x3 SHL SHR NOT AND OR PUSH1 0x10 DUP3 ADD SSTORE JUMPDEST PUSH1 0x20 DUP3 ADD MLOAD DUP1 MLOAD SWAP1 PUSH1 0x1 PUSH1 0x1 PUSH1 0x40 SHL SUB DUP3 GT PUSH2 0x14AA JUMPI DUP2 SWAP1 PUSH2 0x12BD PUSH1 0x11 DUP6 ADD SLOAD PUSH2 0x3275 JUMP JUMPDEST PUSH1 0x1F DUP2 GT PUSH2 0x1538 JUMPI JUMPDEST POP PUSH1 0x20 SWAP1 PUSH1 0x1F DUP4 GT PUSH1 0x1 EQ PUSH2 0x14C9 JUMPI DUP9 SWAP3 PUSH2 0x14BE JUMPI JUMPDEST POP POP DUP2 PUSH1 0x1 SHL SWAP2 PUSH1 0x0 NOT SWAP1 PUSH1 0x3 SHL SHR NOT AND OR PUSH1 0x11 DUP3 ADD SSTORE JUMPDEST PUSH1 0x40 DUP3 ADD MLOAD DUP1 MLOAD SWAP1 PUSH1 0x1 PUSH1 0x1 PUSH1 0x40 SHL SUB DUP3 GT PUSH2 0x14AA JUMPI PUSH2 0x1317 PUSH1 0x12 DUP5 ADD SLOAD PUSH2 0x3275 JUMP JUMPDEST PUSH1 0x1F DUP2 GT PUSH2 0x1465 JUMPI JUMPDEST POP PUSH1 0x20 SWAP1 PUSH1 0x1F DUP4 GT PUSH1 0x1 EQ PUSH2 0x13F3 JUMPI SWAP2 DUP1 PUSH1 0x60 SWAP5 SWAP3 PUSH1 0x13 SWAP5 DUP11 SWAP3 PUSH2 0x13E8 JUMPI JUMPDEST POP POP DUP2 PUSH1 0x1 SHL SWAP2 PUSH1 0x0 NOT SWAP1 PUSH1 0x3 SHL SHR NOT AND OR PUSH1 0x12 DUP3 ADD SSTORE JUMPDEST ADD SWAP2 ADD MLOAD ISZERO ISZERO PUSH1 0xFF DUP1 NOT DUP4 SLOAD AND SWAP2 AND OR SWAP1 SSTORE CALLER DUP4 MSTORE PUSH1 0x3 PUSH1 0x20 MSTORE PUSH2 0x137E DUP3 PUSH1 0x40 DUP6 KECCAK256 PUSH2 0x365E JUMP JUMPDEST PUSH2 0x139B DUP4 DUP1 DUP1 DUP1 DUP6 PUSH1 0x1 DUP1 PUSH1 0xA0 SHL SUB PUSH1 0xA SLOAD AND GAS CALL PUSH2 0xB3C PUSH2 0x3686 JUMP JUMPDEST DUP3 DUP2 CALLVALUE GT PUSH2 0x13D1 JUMPI JUMPDEST CALLER DUP4 PUSH32 0xC3E0F84839DC888C892A013D10C8F9D6DC05A21A879D0CE468CA558013E9121C DUP4 DUP1 LOG3 PUSH1 0x1 DUP2 SSTORE DUP1 RETURN JUMPDEST DUP1 DUP1 DUP1 PUSH2 0x552 PUSH2 0x13E1 SWAP6 CALLVALUE PUSH2 0x36F8 JUMP JUMPDEST CODESIZE DUP3 PUSH2 0x13A4 JUMP JUMPDEST ADD MLOAD SWAP1 POP CODESIZE DUP1 PUSH2 0x133F JUMP JUMPDEST SWAP1 PUSH1 0x12 DUP5 ADD DUP9 MSTORE PUSH1 0x20 DUP9 KECCAK256 SWAP2 DUP9 JUMPDEST PUSH1 0x1F NOT DUP6 AND DUP2 LT PUSH2 0x144D JUMPI POP SWAP3 PUSH1 0x60 SWAP5 SWAP3 PUSH1 0x1 SWAP3 PUSH1 0x13 SWAP6 DUP4 PUSH1 0x1F NOT DUP2 AND LT PUSH2 0x1434 JUMPI JUMPDEST POP POP POP DUP2 SHL ADD PUSH1 0x12 DUP3 ADD SSTORE PUSH2 0x1357 JUMP JUMPDEST ADD MLOAD PUSH1 0x0 NOT PUSH1 0xF8 DUP5 PUSH1 0x3 SHL AND SHR NOT AND SWAP1 SSTORE CODESIZE DUP1 DUP1 PUSH2 0x1424 JUMP JUMPDEST SWAP2 SWAP3 PUSH1 0x20 PUSH1 0x1 DUP2 SWAP3 DUP7 DUP6 ADD MLOAD DUP2 SSTORE ADD SWAP5 ADD SWAP3 ADD PUSH2 0x1401 JUMP JUMPDEST PUSH1 0x12 DUP5 ADD DUP9 MSTORE PUSH1 0x20 DUP9 KECCAK256 PUSH1 0x1F DUP5 ADD PUSH1 0x5 SHR DUP2 ADD PUSH1 0x20 DUP6 LT PUSH2 0x14A3 JUMPI JUMPDEST PUSH1 0x1F DUP4 ADD PUSH1 0x5 SHR DUP3 ADD DUP2 LT PUSH2 0x1497 JUMPI POP POP PUSH2 0x1320 JUMP JUMPDEST PUSH1 0x0 DUP2 SSTORE PUSH1 0x1 ADD PUSH2 0x1481 JUMP JUMPDEST POP DUP1 PUSH2 0x1481 JUMP JUMPDEST PUSH4 0x4E487B71 PUSH1 0xE0 SHL DUP8 MSTORE PUSH1 0x41 PUSH1 0x4 MSTORE PUSH1 0x24 DUP8 REVERT JUMPDEST ADD MLOAD SWAP1 POP CODESIZE DUP1 PUSH2 0x12DC JUMP JUMPDEST SWAP3 POP PUSH1 0x11 DUP5 ADD DUP9 MSTORE PUSH1 0x20 DUP9 KECCAK256 SWAP1 DUP9 SWAP4 JUMPDEST PUSH1 0x1F NOT DUP5 AND DUP6 LT PUSH2 0x151D JUMPI PUSH1 0x1 SWAP5 POP DUP4 PUSH1 0x1F NOT DUP2 AND LT PUSH2 0x1504 JUMPI JUMPDEST POP POP POP DUP2 SHL ADD PUSH1 0x11 DUP3 ADD SSTORE PUSH2 0x12F4 JUMP JUMPDEST ADD MLOAD PUSH1 0x0 NOT PUSH1 0xF8 DUP5 PUSH1 0x3 SHL AND SHR NOT AND SWAP1 SSTORE CODESIZE DUP1 DUP1 PUSH2 0x14F4 JUMP JUMPDEST DUP2 DUP2 ADD MLOAD DUP4 SSTORE PUSH1 0x20 SWAP5 DUP6 ADD SWAP5 PUSH1 0x1 SWAP1 SWAP4 ADD SWAP3 SWAP1 SWAP2 ADD SWAP1 PUSH2 0x14D9 JUMP JUMPDEST SWAP1 SWAP2 POP PUSH1 0x11 DUP5 ADD DUP9 MSTORE PUSH1 0x20 DUP9 KECCAK256 PUSH1 0x1F DUP5 ADD PUSH1 0x5 SHR DUP2 ADD PUSH1 0x20 DUP6 LT PUSH2 0x1582 JUMPI JUMPDEST SWAP1 DUP5 SWAP4 SWAP3 SWAP2 JUMPDEST PUSH1 0x1F DUP4 ADD PUSH1 0x5 SHR DUP3 ADD DUP2 LT PUSH2 0x1573 JUMPI POP POP PUSH2 0x12C6 JUMP JUMPDEST PUSH1 0x0 DUP2 SSTORE DUP6 SWAP5 POP PUSH1 0x1 ADD PUSH2 0x155D JUMP JUMPDEST POP DUP1 PUSH2 0x1557 JUMP JUMPDEST ADD MLOAD SWAP1 POP CODESIZE DUP1 PUSH2 0x1280 JUMP JUMPDEST SWAP3 POP PUSH1 0x10 DUP5 ADD DUP9 MSTORE PUSH1 0x20 DUP9 KECCAK256 SWAP1 DUP9 SWAP4 JUMPDEST PUSH1 0x1F NOT DUP5 AND DUP6 LT PUSH2 0x15E8 JUMPI PUSH1 0x1 SWAP5 POP DUP4 PUSH1 0x1F NOT DUP2 AND LT PUSH2 0x15CF JUMPI JUMPDEST POP POP POP DUP2 SHL ADD PUSH1 0x10 DUP3 ADD SSTORE PUSH2 0x1298 JUMP JUMPDEST ADD MLOAD PUSH1 0x0 NOT PUSH1 0xF8 DUP5 PUSH1 0x3 SHL AND SHR NOT AND SWAP1 SSTORE CODESIZE DUP1 DUP1 PUSH2 0x15BF JUMP JUMPDEST DUP2 DUP2 ADD MLOAD DUP4 SSTORE PUSH1 0x20 SWAP5 DUP6 ADD SWAP5 PUSH1 0x1 SWAP1 SWAP4 ADD SWAP3 SWAP1 SWAP2 ADD SWAP1 PUSH2 0x15A4 JUMP JUMPDEST SWAP1 SWAP2 POP PUSH1 0x10 DUP5 ADD DUP9 MSTORE PUSH1 0x20 DUP9 KECCAK256 PUSH1 0x1F DUP5 ADD PUSH1 0x5 SHR DUP2 ADD PUSH1 0x20 DUP6 LT PUSH2 0x164D JUMPI JUMPDEST SWAP1 DUP5 SWAP4 SWAP3 SWAP2 JUMPDEST PUSH1 0x1F DUP4 ADD PUSH1 0x5 SHR DUP3 ADD DUP2 LT PUSH2 0x163E JUMPI POP POP PUSH2 0x126A JUMP JUMPDEST PUSH1 0x0 DUP2 SSTORE DUP6 SWAP5 POP PUSH1 0x1 ADD PUSH2 0x1628 JUMP JUMPDEST POP DUP1 PUSH2 0x1622 JUMP JUMPDEST PUSH2 0x165D SWAP1 PUSH2 0x32CB JUMP JUMPDEST PUSH2 0x1668 JUMPI DUP7 CODESIZE PUSH2 0xFF3 JUMP JUMPDEST DUP7 DUP1 REVERT JUMPDEST PUSH1 0x40 MLOAD PUSH3 0x461BCD PUSH1 0xE5 SHL DUP2 MSTORE PUSH1 0x20 PUSH1 0x4 DUP3 ADD MSTORE PUSH1 0x18 PUSH1 0x24 DUP3 ADD MSTORE PUSH32 0x496E73756666696369656E74206C697374696E67206665650000000000000000 PUSH1 0x44 DUP3 ADD MSTORE PUSH1 0x64 SWAP1 REVERT JUMPDEST POP CALLVALUE PUSH2 0x26F JUMPI DUP1 PUSH1 0x3 NOT CALLDATASIZE ADD SLT PUSH2 0x26F JUMPI PUSH1 0x20 PUSH1 0x40 MLOAD PUSH2 0x2710 DUP2 MSTORE RETURN JUMPDEST POP PUSH1 0x20 CALLDATASIZE PUSH1 0x3 NOT ADD SLT PUSH2 0x26F JUMPI PUSH1 0x4 CALLDATALOAD PUSH2 0x16E6 PUSH2 0x3788 JUMP JUMPDEST DUP1 DUP3 MSTORE PUSH1 0x2 PUSH1 0x20 MSTORE PUSH1 0x40 DUP3 KECCAK256 SWAP1 PUSH1 0x5 DUP3 ADD DUP1 SLOAD PUSH1 0xFF DUP2 AND PUSH1 0x5 DUP2 LT ISZERO PUSH2 0x40F JUMPI PUSH2 0x1710 SWAP1 ISZERO PUSH2 0x39F6 JUMP JUMPDEST PUSH1 0x2 DUP5 ADD SLOAD PUSH1 0x1 PUSH1 0x1 PUSH1 0xA0 SHL SUB SWAP1 DUP2 AND CALLER SUB PUSH2 0x17E1 JUMPI DUP6 DUP1 DUP1 SWAP4 DUP2 SWAP4 PUSH1 0x6 DUP10 ADD SLOAD PUSH2 0x173A SWAP1 PUSH2 0x38A4 JUMP JUMPDEST SWAP7 PUSH1 0x9 SLOAD PUSH2 0x1748 SWAP1 DUP10 PUSH2 0x37DE JUMP JUMPDEST PUSH2 0x2710 SWAP1 DIV SWAP3 PUSH2 0x1758 DUP5 DUP11 PUSH2 0x36F8 JUMP JUMPDEST DUP1 SWAP12 DUP11 CALLVALUE LT ISZERO PUSH2 0x1767 SWAP1 PUSH2 0x37F1 JUMP JUMPDEST PUSH1 0x8 ADD SSTORE PUSH1 0xFF NOT AND PUSH1 0x1 OR SWAP1 SSTORE PUSH1 0xA SLOAD AND GAS CALL PUSH2 0x1782 PUSH2 0x3686 JUMP JUMPDEST POP PUSH2 0x178C SWAP1 PUSH2 0x3834 JUMP JUMPDEST DUP4 DUP2 CALLVALUE GT PUSH2 0x17CA JUMPI JUMPDEST POP POP PUSH1 0x40 MLOAD SWAP2 DUP3 MSTORE PUSH32 0xA6795DC81355B15D42BC7DE3FB8A255E7E88A4697260822E1F4C5B07B0036907 PUSH1 0x20 CALLER SWAP4 LOG3 PUSH1 0x1 DUP2 SSTORE DUP1 RETURN JUMPDEST DUP1 DUP1 DUP1 PUSH2 0x552 PUSH2 0x17DA SWAP6 CALLVALUE PUSH2 0x36F8 JUMP JUMPDEST CODESIZE DUP4 PUSH2 0x1795 JUMP JUMPDEST PUSH1 0x40 MLOAD PUSH3 0x461BCD PUSH1 0xE5 SHL DUP2 MSTORE PUSH1 0x20 PUSH1 0x4 DUP3 ADD MSTORE PUSH1 0x1E PUSH1 0x24 DUP3 ADD MSTORE PUSH32 0x4F6E6C79206A6F696E65722063616E206465706F7369742063727970746F0000 PUSH1 0x44 DUP3 ADD MSTORE PUSH1 0x64 SWAP1 REVERT JUMPDEST POP CALLVALUE PUSH2 0x26F JUMPI PUSH1 0x60 CALLDATASIZE PUSH1 0x3 NOT ADD SLT PUSH2 0x26F JUMPI PUSH1 0x1 PUSH1 0x1 PUSH1 0x40 SHL SUB PUSH1 0x4 CALLDATALOAD DUP2 DUP2 GT PUSH2 0x387 JUMPI PUSH2 0x1858 SWAP1 CALLDATASIZE SWAP1 PUSH1 0x4 ADD PUSH2 0x34D8 JUMP JUMPDEST SWAP1 SWAP2 PUSH1 0x24 SWAP1 DUP2 CALLDATALOAD DUP2 DUP2 GT PUSH2 0xECA JUMPI PUSH2 0x1874 SWAP1 CALLDATASIZE SWAP1 PUSH1 0x4 ADD PUSH2 0x34D8 JUMP JUMPDEST SWAP2 PUSH1 0x44 CALLDATALOAD SWAP1 DUP2 GT PUSH2 0x1668 JUMPI PUSH2 0x188D SWAP1 CALLDATASIZE SWAP1 PUSH1 0x4 ADD PUSH2 0x34D8 JUMP JUMPDEST SWAP3 PUSH2 0x1896 PUSH2 0x357A JUMP JUMPDEST DUP1 DUP7 EQ DUP1 PUSH2 0x1B3B JUMPI JUMPDEST ISZERO PUSH2 0x1AF7 JUMPI SWAP3 DUP7 SWAP3 DUP9 SWAP7 SWAP3 DUP8 SWAP6 JUMPDEST DUP5 DUP8 LT PUSH2 0x18B8 JUMPI DUP9 DUP1 RETURN JUMPDEST SWAP7 SWAP8 PUSH1 0x1 PUSH1 0x1 PUSH1 0xA0 SHL SUB SWAP8 SWAP1 SWAP7 PUSH2 0x18E4 DUP10 PUSH2 0x18DC PUSH2 0x18D7 DUP5 DUP11 DUP13 PUSH2 0x39B3 JUMP JUMPDEST PUSH2 0x39C3 JUMP JUMPDEST AND ISZERO ISZERO PUSH2 0x35D2 JUMP JUMPDEST DUP9 PUSH2 0x18F3 PUSH2 0x18D7 DUP4 DUP9 DUP8 PUSH2 0x39B3 JUMP JUMPDEST AND ISZERO PUSH2 0x1ABF JUMPI DUP9 PUSH2 0x1905 DUP3 DUP9 DUP11 PUSH2 0x39B3 JUMP JUMPDEST PUSH2 0x190E SWAP1 PUSH2 0x39C3 JUMP JUMPDEST AND SWAP9 PUSH2 0x191B DUP3 DUP5 DUP8 PUSH2 0x39B3 JUMP JUMPDEST PUSH1 0x40 MLOAD PUSH4 0x31A9108F PUSH1 0xE1 SHL DUP2 MSTORE SWAP1 CALLDATALOAD PUSH1 0x4 DUP3 ADD MSTORE PUSH1 0x20 PUSH2 0x140 SWAP1 DUP2 MSTORE SWAP11 DUP2 DUP14 DUP2 GAS SWAP4 PUSH1 0x20 SWAP5 STATICCALL DUP11 SWAP2 DUP2 PUSH2 0x1A8F JUMPI JUMPDEST POP PUSH2 0x1992 JUMPI PUSH1 0x40 MLOAD PUSH3 0x461BCD PUSH1 0xE5 SHL DUP2 MSTORE DUP12 MLOAD PUSH1 0x4 DUP3 ADD MSTORE PUSH1 0x1D DUP2 DUP15 ADD MSTORE PUSH32 0x4661696C656420746F20636865636B204E4654206F776E657273686970000000 PUSH1 0x44 DUP3 ADD MSTORE PUSH1 0x64 SWAP1 REVERT JUMPDEST DUP2 SWAP3 SWAP4 SWAP5 SWAP6 SWAP7 SWAP8 SWAP10 SWAP12 SWAP9 SWAP11 SWAP2 ADDRESS SWAP2 AND SUB PUSH2 0x1A4B JUMPI POP DUP10 SWAP1 PUSH2 0x19B7 PUSH2 0x18D7 DUP5 DUP12 DUP14 PUSH2 0x39B3 JUMP JUMPDEST AND PUSH2 0x19C6 PUSH2 0x18D7 DUP5 DUP10 DUP9 PUSH2 0x39B3 JUMP JUMPDEST PUSH2 0x19D1 DUP5 DUP7 DUP10 PUSH2 0x39B3 JUMP JUMPDEST CALLDATALOAD DUP3 EXTCODESIZE ISZERO PUSH2 0xED2 JUMPI PUSH1 0x40 MLOAD PUSH4 0x23B872DD PUSH1 0xE0 SHL DUP2 MSTORE ADDRESS PUSH1 0x4 DUP3 ADD MSTORE PUSH1 0x1 PUSH1 0x1 PUSH1 0xA0 SHL SUB SWAP3 SWAP1 SWAP3 AND PUSH1 0x24 DUP4 ADD MSTORE PUSH1 0x44 DUP3 ADD MSTORE SWAP1 DUP3 SWAP1 DUP3 SWAP1 PUSH1 0x64 SWAP1 DUP3 SWAP1 DUP5 SWAP1 GAS CALL DUP1 ISZERO PUSH2 0x37C JUMPI PUSH2 0x1A33 JUMPI JUMPDEST POP POP PUSH2 0x1A26 SWAP1 PUSH2 0x3615 JUMP JUMPDEST SWAP6 SWAP4 SWAP3 SWAP2 SWAP1 SWAP7 SWAP5 SWAP7 PUSH2 0x18AD JUMP JUMPDEST PUSH2 0x1A3C SWAP1 PUSH2 0x32CB JUMP JUMPDEST PUSH2 0x1A47 JUMPI DUP9 DUP11 PUSH2 0x1A1B JUMP JUMPDEST DUP9 DUP1 REVERT JUMPDEST PUSH1 0x40 MLOAD PUSH3 0x461BCD PUSH1 0xE5 SHL DUP2 MSTORE SWAP1 MLOAD PUSH1 0x4 DUP3 ADD MSTORE PUSH1 0x1E DUP2 DUP10 ADD MSTORE PUSH32 0x436F6E747261637420646F6573206E6F74206F776E2074686973204E46540000 PUSH1 0x44 DUP3 ADD MSTORE PUSH1 0x64 SWAP1 REVERT JUMPDEST PUSH2 0x1AB1 SWAP2 SWAP3 POP DUP13 MLOAD RETURNDATASIZE DUP2 GT PUSH2 0x1AB8 JUMPI JUMPDEST PUSH2 0x1AA9 DUP2 DUP4 PUSH2 0x32F9 JUMP JUMPDEST DUP2 ADD SWAP1 PUSH2 0x39D7 JUMP JUMPDEST SWAP1 DUP14 PUSH2 0x1949 JUMP JUMPDEST POP RETURNDATASIZE PUSH2 0x1A9F JUMP JUMPDEST PUSH1 0x40 MLOAD PUSH3 0x461BCD PUSH1 0xE5 SHL DUP2 MSTORE PUSH1 0x20 PUSH1 0x4 DUP3 ADD MSTORE PUSH1 0x11 DUP2 DUP13 ADD MSTORE PUSH17 0x125B9D985B1A59081C9958DA5C1A595B9D PUSH1 0x7A SHL PUSH1 0x44 DUP3 ADD MSTORE PUSH1 0x64 SWAP1 REVERT JUMPDEST PUSH1 0x40 MLOAD PUSH3 0x461BCD PUSH1 0xE5 SHL DUP2 MSTORE PUSH1 0x20 PUSH1 0x4 DUP3 ADD MSTORE PUSH1 0x18 DUP2 DUP8 ADD MSTORE PUSH32 0x4172726179206C656E67746873206D757374206D617463680000000000000000 PUSH1 0x44 DUP3 ADD MSTORE PUSH1 0x64 SWAP1 REVERT JUMPDEST POP DUP4 DUP2 EQ PUSH2 0x189F JUMP JUMPDEST POP CALLVALUE PUSH2 0x26F JUMPI DUP1 PUSH1 0x3 NOT CALLDATASIZE ADD SLT PUSH2 0x26F JUMPI PUSH2 0x1B5D PUSH2 0x3788 JUMP JUMPDEST CALLER DUP2 MSTORE PUSH1 0x20 PUSH1 0x4 DUP2 MSTORE PUSH1 0x40 DUP3 KECCAK256 SLOAD SWAP1 PUSH1 0x5 DUP2 MSTORE PUSH1 0x40 DUP4 KECCAK256 SLOAD SWAP1 PUSH1 0x4 DUP2 MSTORE DUP4 PUSH1 0x40 DUP2 KECCAK256 SSTORE PUSH1 0x5 DUP2 MSTORE DUP4 PUSH1 0x40 DUP2 KECCAK256 SSTORE DUP3 PUSH2 0x1C96 JUMPI JUMPDEST DUP2 PUSH2 0x1C13 JUMPI JUMPDEST PUSH1 0x40 MLOAD PUSH2 0x160 DUP2 ADD SWAP1 DUP1 DUP3 LT PUSH1 0x1 PUSH1 0x1 PUSH1 0x40 SHL SUB DUP4 GT OR PUSH2 0x1BFD JUMPI PUSH2 0x140 SWAP2 PUSH1 0x40 MSTORE PUSH1 0xA DUP2 MSTORE DUP3 CALLDATASIZE SWAP2 ADD CALLDATACOPY PUSH1 0x40 MLOAD SWAP3 DUP4 MSTORE DUP3 ADD MSTORE DUP2 PUSH1 0x40 DUP3 ADD MSTORE PUSH32 0x4F3D7A53F1FD3AB32E84FAFD251BC5C1EC2C516068909F68847AD29C366D134C PUSH1 0x60 CALLER SWAP3 LOG2 PUSH1 0x1 DUP2 SSTORE DUP1 RETURN JUMPDEST PUSH4 0x4E487B71 PUSH1 0xE0 SHL PUSH1 0x0 MSTORE PUSH1 0x41 PUSH1 0x4 MSTORE PUSH1 0x24 PUSH1 0x0 REVERT JUMPDEST PUSH1 0xC SLOAD PUSH1 0x40 MLOAD PUSH4 0xA9059CBB PUSH1 0xE0 SHL DUP2 MSTORE CALLER PUSH1 0x4 DUP3 ADD MSTORE PUSH1 0x24 DUP2 ADD DUP5 SWAP1 MSTORE SWAP1 DUP3 SWAP1 DUP3 SWAP1 PUSH1 0x44 SWAP1 DUP3 SWAP1 DUP10 SWAP1 PUSH1 0x1 PUSH1 0x1 PUSH1 0xA0 SHL SUB AND GAS CALL DUP1 ISZERO PUSH2 0x1C8B JUMPI PUSH2 0x1C58 JUMPI JUMPDEST POP PUSH2 0x1B96 JUMP JUMPDEST DUP2 DUP2 DUP2 RETURNDATASIZE DUP4 GT PUSH2 0x1C84 JUMPI JUMPDEST PUSH2 0x1C6D DUP2 DUP4 PUSH2 0x32F9 JUMP JUMPDEST DUP2 ADD SUB SLT PUSH2 0xECE JUMPI MLOAD DUP1 ISZERO ISZERO SUB PUSH2 0xED2 JUMPI CODESIZE PUSH2 0x1C52 JUMP JUMPDEST POP RETURNDATASIZE PUSH2 0x1C63 JUMP JUMPDEST PUSH1 0x40 MLOAD RETURNDATASIZE DUP8 DUP3 RETURNDATACOPY RETURNDATASIZE SWAP1 REVERT JUMPDEST DUP4 DUP1 DUP1 DUP1 DUP7 CALLER GAS CALL PUSH2 0x1CA6 PUSH2 0x3686 JUMP JUMPDEST POP PUSH2 0x1B90 JUMPI PUSH1 0x64 SWAP1 PUSH1 0x40 MLOAD SWAP1 PUSH3 0x461BCD PUSH1 0xE5 SHL DUP3 MSTORE PUSH1 0x4 DUP3 ADD MSTORE PUSH1 0x13 PUSH1 0x24 DUP3 ADD MSTORE PUSH19 0x115512081D1C985B9CD9995C8819985A5B1959 PUSH1 0x6A SHL PUSH1 0x44 DUP3 ADD MSTORE REVERT JUMPDEST POP CALLVALUE PUSH2 0x26F JUMPI PUSH1 0x40 CALLDATASIZE PUSH1 0x3 NOT ADD SLT PUSH2 0x26F JUMPI PUSH2 0x1CFF PUSH2 0x3479 JUMP JUMPDEST PUSH1 0x1 PUSH1 0x1 PUSH1 0xA0 SHL SUB AND DUP2 MSTORE PUSH1 0x3 PUSH1 0x20 MSTORE PUSH1 0x40 DUP2 KECCAK256 DUP1 SLOAD PUSH1 0x24 CALLDATALOAD SWAP3 SWAP1 DUP4 LT ISZERO PUSH2 0x26F JUMPI PUSH1 0x20 PUSH2 0x1D2D DUP5 DUP5 PUSH2 0x34AA JUMP JUMPDEST SWAP1 SLOAD SWAP1 PUSH1 0x3 SHL SHR PUSH1 0x40 MLOAD SWAP1 DUP2 MSTORE RETURN JUMPDEST POP CALLVALUE PUSH2 0x26F JUMPI PUSH1 0x20 CALLDATASIZE PUSH1 0x3 NOT ADD SLT PUSH2 0x26F JUMPI PUSH1 0x40 PUSH1 0x80 SWAP2 PUSH1 0x4 CALLDATALOAD DUP2 MSTORE PUSH1 0x2 PUSH1 0x20 MSTORE KECCAK256 PUSH1 0x40 MLOAD PUSH2 0x1D6A DUP2 PUSH2 0x32AF JUMP JUMPDEST DUP2 SLOAD DUP2 MSTORE PUSH1 0x1 DUP3 ADD SLOAD PUSH1 0x1 PUSH1 0x1 PUSH1 0xA0 SHL SUB SWAP1 DUP2 AND PUSH1 0x20 DUP4 ADD MSTORE PUSH1 0x2 DUP4 ADD SLOAD DUP2 AND PUSH1 0x40 DUP4 ADD MSTORE PUSH1 0x3 DUP4 ADD SLOAD DUP2 AND PUSH1 0x60 DUP4 ADD MSTORE PUSH1 0x4 DUP4 ADD SLOAD DUP5 DUP4 ADD MSTORE PUSH1 0x5 DUP4 ADD SLOAD PUSH1 0xFF SWAP1 PUSH2 0x1DBB DUP2 DUP4 AND PUSH1 0xA0 DUP7 ADD PUSH2 0x363A JUMP JUMPDEST PUSH1 0x8 SHR AND PUSH2 0x1DC8 DUP2 PUSH2 0x342F JUMP JUMPDEST PUSH1 0xC0 DUP4 ADD MSTORE PUSH1 0x6 DUP4 ADD SLOAD PUSH1 0xE0 DUP4 ADD MSTORE PUSH1 0xFF PUSH1 0x7 DUP5 ADD SLOAD AND PUSH2 0x1DE8 DUP2 PUSH2 0x342F JUMP JUMPDEST PUSH2 0x100 DUP4 ADD MSTORE PUSH1 0x8 DUP4 ADD SLOAD PUSH2 0x120 DUP4 ADD MSTORE PUSH1 0x9 DUP4 ADD SLOAD AND PUSH2 0x140 DUP3 ADD MSTORE PUSH1 0xA DUP3 ADD SLOAD PUSH2 0x160 DUP3 ADD MSTORE PUSH1 0xB DUP3 ADD SLOAD SWAP2 PUSH2 0x180 DUP3 ADD SWAP3 DUP4 MSTORE PUSH1 0xC DUP2 ADD SLOAD SWAP3 PUSH2 0x1A0 DUP4 ADD SWAP4 DUP5 MSTORE PUSH1 0xD DUP3 ADD SLOAD SWAP3 PUSH2 0x1C0 DUP2 ADD SWAP4 DUP5 MSTORE PUSH2 0x220 PUSH2 0x1E61 PUSH1 0x10 PUSH1 0xE DUP7 ADD SLOAD SWAP6 PUSH2 0x1E0 DUP6 ADD SWAP7 DUP8 MSTORE PUSH1 0xF DUP2 ADD SLOAD PUSH2 0x200 DUP7 ADD MSTORE ADD PUSH2 0x33C0 JUMP JUMPDEST SWAP2 ADD MSTORE MLOAD SWAP3 MLOAD SWAP2 MLOAD SWAP1 MLOAD SWAP2 PUSH1 0x40 MLOAD SWAP4 DUP5 MSTORE PUSH1 0x20 DUP5 ADD MSTORE PUSH1 0x40 DUP4 ADD MSTORE PUSH1 0x60 DUP3 ADD MSTORE RETURN JUMPDEST POP CALLVALUE PUSH2 0x26F JUMPI DUP1 PUSH1 0x3 NOT CALLDATASIZE ADD SLT PUSH2 0x26F JUMPI PUSH1 0x20 PUSH1 0x7 SLOAD PUSH1 0x40 MLOAD SWAP1 DUP2 MSTORE RETURN JUMPDEST POP CALLVALUE PUSH2 0x26F JUMPI PUSH1 0x60 CALLDATASIZE PUSH1 0x3 NOT ADD SLT PUSH2 0x26F JUMPI PUSH2 0x1EBB PUSH2 0x3479 JUMP JUMPDEST SWAP1 PUSH2 0x1EC4 PUSH2 0x3494 JUMP JUMPDEST PUSH1 0x44 CALLDATALOAD SWAP3 PUSH1 0x1 DUP1 PUSH1 0xA0 SHL SUB DUP1 SWAP2 AND DUP4 MSTORE PUSH1 0x6 PUSH1 0x20 MSTORE PUSH1 0x40 DUP4 KECCAK256 SWAP2 AND PUSH1 0x0 MSTORE PUSH1 0x20 MSTORE PUSH1 0x40 PUSH1 0x0 KECCAK256 SWAP1 DUP2 SLOAD DUP4 LT ISZERO PUSH2 0x26F JUMPI PUSH1 0x20 PUSH2 0x1F00 DUP5 DUP5 PUSH2 0x34AA JUMP JUMPDEST SWAP1 SLOAD PUSH1 0x40 MLOAD SWAP2 PUSH1 0x3 SHL SHR DUP2 MSTORE RETURN JUMPDEST POP CALLVALUE PUSH2 0x26F JUMPI PUSH1 0x20 CALLDATASIZE PUSH1 0x3 NOT ADD SLT PUSH2 0x26F JUMPI PUSH1 0x20 SWAP1 PUSH1 0x40 SWAP1 PUSH1 0x1 PUSH1 0x1 PUSH1 0xA0 SHL SUB PUSH2 0x1F36 PUSH2 0x3479 JUMP JUMPDEST AND DUP2 MSTORE PUSH1 0x5 DUP4 MSTORE KECCAK256 SLOAD PUSH1 0x40 MLOAD SWAP1 DUP2 MSTORE RETURN JUMPDEST POP CALLVALUE PUSH2 0x26F JUMPI DUP1 PUSH1 0x3 NOT CALLDATASIZE ADD SLT PUSH2 0x26F JUMPI PUSH1 0x1 SLOAD PUSH1 0x40 MLOAD PUSH1 0x1 PUSH1 0x1 PUSH1 0xA0 SHL SUB SWAP1 SWAP2 AND DUP2 MSTORE PUSH1 0x20 SWAP1 RETURN JUMPDEST POP CALLVALUE PUSH2 0x26F JUMPI DUP1 PUSH1 0x3 NOT CALLDATASIZE ADD SLT PUSH2 0x26F JUMPI PUSH1 0x20 PUSH1 0x9 SLOAD PUSH1 0x40 MLOAD SWAP1 DUP2 MSTORE RETURN JUMPDEST POP CALLVALUE PUSH2 0x26F JUMPI DUP1 PUSH1 0x3 NOT CALLDATASIZE ADD SLT PUSH2 0x26F JUMPI PUSH2 0x1FA7 PUSH2 0x357A JUMP JUMPDEST DUP1 DUP1 DUP1 DUP1 PUSH1 0x1 DUP1 PUSH1 0xA0 SHL SUB PUSH1 0x1 SLOAD AND SELFBALANCE SWAP1 GAS CALL PUSH2 0x1FC2 PUSH2 0x3686 JUMP JUMPDEST POP ISZERO PUSH2 0x1FCB JUMPI DUP1 RETURN JUMPDEST PUSH1 0x40 MLOAD PUSH3 0x461BCD PUSH1 0xE5 SHL DUP2 MSTORE PUSH1 0x20 PUSH1 0x4 DUP3 ADD MSTORE PUSH1 0xF PUSH1 0x24 DUP3 ADD MSTORE PUSH15 0x151C985B9CD9995C8819985A5B1959 PUSH1 0x8A SHL PUSH1 0x44 DUP3 ADD MSTORE PUSH1 0x64 SWAP1 REVERT JUMPDEST POP CALLVALUE PUSH2 0x26F JUMPI DUP1 PUSH1 0x3 NOT CALLDATASIZE ADD SLT PUSH2 0x26F JUMPI PUSH1 0xB SLOAD PUSH1 0x40 MLOAD PUSH1 0x1 PUSH1 0x1 PUSH1 0xA0 SHL SUB SWAP1 SWAP2 AND DUP2 MSTORE PUSH1 0x20 SWAP1 RETURN JUMPDEST POP CALLVALUE PUSH2 0x26F JUMPI DUP1 PUSH1 0x3 NOT CALLDATASIZE ADD SLT PUSH2 0x26F JUMPI PUSH2 0x2044 PUSH2 0x357A JUMP JUMPDEST PUSH1 0x1 DUP1 SLOAD PUSH1 0x1 PUSH1 0x1 PUSH1 0xA0 SHL SUB NOT DUP2 AND SWAP1 SWAP2 SSTORE PUSH1 0x0 SWAP1 PUSH1 0x1 PUSH1 0x1 PUSH1 0xA0 SHL SUB AND PUSH32 0x8BE0079C531659141344CD1FD0A4F28419497F9722A3DAAFE3B4186F6B6457E0 DUP3 DUP1 LOG3 DUP1 RETURN JUMPDEST POP CALLVALUE PUSH2 0x26F JUMPI PUSH1 0x20 SWAP1 DUP2 PUSH1 0x3 NOT CALLDATASIZE ADD SLT PUSH2 0x26F JUMPI PUSH1 0x4 CALLDATALOAD PUSH2 0x20A8 PUSH2 0x3788 JUMP JUMPDEST DUP1 DUP3 MSTORE PUSH1 0x2 DUP4 MSTORE PUSH1 0x40 DUP3 KECCAK256 PUSH1 0x1 DUP2 ADD SLOAD PUSH1 0x1 PUSH1 0x1 PUSH1 0xA0 SHL SUB SWAP1 DUP2 AND SWAP5 CALLER DUP7 SWAP1 SUB PUSH2 0x219D JUMPI PUSH1 0x5 DUP4 ADD SWAP6 DUP7 SLOAD SWAP7 PUSH1 0xFF DUP9 AND PUSH1 0x5 DUP2 LT ISZERO PUSH2 0x2189 JUMPI PUSH2 0x2144 JUMPI PUSH1 0x4 PUSH2 0x2119 SWAP7 SWAP8 SWAP9 PUSH1 0xFF NOT AND OR SWAP1 SSTORE DUP7 MSTORE PUSH1 0x6 DUP2 MSTORE PUSH1 0x40 DUP7 KECCAK256 SWAP2 PUSH1 0x3 DUP5 ADD SLOAD AND PUSH1 0x0 MSTORE MSTORE PUSH1 0x4 PUSH1 0x40 PUSH1 0x0 KECCAK256 SWAP2 ADD SLOAD SWAP1 PUSH2 0x365E JUMP JUMPDEST PUSH32 0x681705FDBD93DBA3B679FD712577E9A86D57C5551C520F8C74857DEB57F9623F DUP3 DUP1 LOG2 PUSH1 0x1 DUP2 SSTORE DUP1 RETURN JUMPDEST PUSH1 0x40 MLOAD PUSH3 0x461BCD PUSH1 0xE5 SHL DUP2 MSTORE PUSH1 0x4 DUP2 ADD DUP5 SWAP1 MSTORE PUSH1 0x1E PUSH1 0x24 DUP3 ADD MSTORE PUSH32 0x43616E206F6E6C792063616E63656C20756E6A6F696E65642067616D65730000 PUSH1 0x44 DUP3 ADD MSTORE PUSH1 0x64 SWAP1 REVERT JUMPDEST PUSH4 0x4E487B71 PUSH1 0xE0 SHL DUP9 MSTORE PUSH1 0x21 PUSH1 0x4 MSTORE PUSH1 0x24 DUP9 REVERT JUMPDEST PUSH1 0x64 SWAP1 PUSH1 0x40 MLOAD SWAP1 PUSH3 0x461BCD PUSH1 0xE5 SHL DUP3 MSTORE PUSH1 0x4 DUP3 ADD MSTORE PUSH1 0x17 PUSH1 0x24 DUP3 ADD MSTORE PUSH32 0x4F6E6C792063726561746F722063616E2063616E63656C000000000000000000 PUSH1 0x44 DUP3 ADD MSTORE REVERT JUMPDEST POP CALLVALUE PUSH2 0x26F JUMPI PUSH1 0x20 DUP1 PUSH1 0x3 NOT CALLDATASIZE ADD SLT PUSH2 0x378 JUMPI PUSH1 0x4 CALLDATALOAD SWAP1 PUSH2 0x2200 PUSH2 0x3788 JUMP JUMPDEST DUP2 DUP4 MSTORE PUSH1 0x2 DUP2 MSTORE PUSH1 0x40 DUP4 KECCAK256 PUSH1 0x1 DUP2 ADD SLOAD SWAP1 SWAP2 PUSH1 0x1 PUSH1 0x1 PUSH1 0xA0 SHL SUB SWAP2 DUP3 AND CALLER DUP2 EQ DUP1 ISZERO PUSH2 0x2437 JUMPI JUMPDEST ISZERO PUSH2 0x23FE JUMPI PUSH1 0x5 DUP5 ADD DUP1 SLOAD PUSH1 0xFF DUP2 AND PUSH1 0x5 DUP2 LT ISZERO PUSH2 0xE53 JUMPI DUP1 ISZERO SWAP1 DUP2 ISZERO PUSH2 0x23F3 JUMPI JUMPDEST POP ISZERO PUSH2 0x23AE JUMPI SWAP1 PUSH1 0x4 DUP9 SWAP6 SWAP5 SWAP4 SWAP3 PUSH1 0xFF NOT AND OR SWAP1 SSTORE DUP3 PUSH1 0x3 DUP7 ADD SLOAD AND SWAP2 PUSH1 0x4 DUP7 ADD SLOAD SWAP1 PUSH1 0x40 MLOAD PUSH4 0x31A9108F PUSH1 0xE1 SHL DUP2 MSTORE DUP3 PUSH1 0x4 DUP3 ADD MSTORE DUP2 DUP2 PUSH1 0x24 DUP2 DUP9 GAS STATICCALL SWAP2 DUP3 ISZERO PUSH2 0x23A3 JUMPI DUP8 SWAP3 PUSH2 0x2386 JUMPI JUMPDEST POP POP DUP5 AND ADDRESS EQ PUSH2 0x2315 JUMPI JUMPDEST POP POP POP PUSH1 0x8 DUP4 ADD SLOAD SWAP1 DUP2 ISZERO ISZERO DUP1 PUSH2 0x2306 JUMPI JUMPDEST PUSH2 0x22E5 JUMPI JUMPDEST DUP3 CALLER DUP7 PUSH32 0x49D7C8709A4C20D005B1C37E3F302AE91287B77DE799510E227932E05EE770C8 DUP4 DUP1 LOG3 PUSH1 0x1 DUP2 SSTORE DUP1 RETURN JUMPDEST DUP3 DUP1 SWAP3 DUP2 SWAP3 PUSH1 0x2 PUSH2 0x22FD SWAP8 ADD SLOAD AND GAS CALL PUSH2 0x55D PUSH2 0x3686 JUMP JUMPDEST CODESIZE DUP3 DUP2 DUP1 PUSH2 0x22B7 JUMP JUMPDEST POP DUP1 PUSH1 0x2 DUP6 ADD SLOAD AND ISZERO ISZERO PUSH2 0x22B2 JUMP JUMPDEST DUP3 EXTCODESIZE ISZERO PUSH2 0xECE JUMPI PUSH1 0x40 MLOAD PUSH4 0x23B872DD PUSH1 0xE0 SHL DUP2 MSTORE ADDRESS PUSH1 0x4 DUP3 ADD MSTORE PUSH1 0x1 PUSH1 0x1 PUSH1 0xA0 SHL SUB SWAP3 SWAP1 SWAP3 AND PUSH1 0x24 DUP4 ADD MSTORE PUSH1 0x44 DUP3 ADD MSTORE SWAP1 DUP4 SWAP1 DUP3 SWAP1 PUSH1 0x64 SWAP1 DUP3 SWAP1 DUP5 SWAP1 GAS CALL SWAP1 DUP2 ISZERO PUSH2 0x237B JUMPI DUP4 SWAP2 PUSH2 0x2367 JUMPI JUMPDEST DUP1 PUSH2 0x22A0 JUMP JUMPDEST PUSH2 0x2370 SWAP1 PUSH2 0x32CB JUMP JUMPDEST PUSH2 0x378 JUMPI DUP2 CODESIZE PUSH2 0x2361 JUMP JUMPDEST PUSH1 0x40 MLOAD RETURNDATASIZE DUP6 DUP3 RETURNDATACOPY RETURNDATASIZE SWAP1 REVERT JUMPDEST PUSH2 0x239C SWAP3 POP DUP1 RETURNDATASIZE LT PUSH2 0x1AB8 JUMPI PUSH2 0x1AA9 DUP2 DUP4 PUSH2 0x32F9 JUMP JUMPDEST CODESIZE DUP1 PUSH2 0x2295 JUMP JUMPDEST PUSH1 0x40 MLOAD RETURNDATASIZE DUP10 DUP3 RETURNDATACOPY RETURNDATASIZE SWAP1 REVERT JUMPDEST PUSH1 0x40 MLOAD PUSH3 0x461BCD PUSH1 0xE5 SHL DUP2 MSTORE PUSH1 0x4 DUP2 ADD DUP6 SWAP1 MSTORE PUSH1 0x19 PUSH1 0x24 DUP3 ADD MSTORE PUSH32 0x43616E6E6F742063616E63656C206163746976652067616D6500000000000000 PUSH1 0x44 DUP3 ADD MSTORE PUSH1 0x64 SWAP1 REVERT JUMPDEST PUSH1 0x1 SWAP2 POP EQ CODESIZE PUSH2 0x2249 JUMP JUMPDEST PUSH1 0x40 MLOAD PUSH3 0x461BCD PUSH1 0xE5 SHL DUP2 MSTORE PUSH1 0x4 DUP2 ADD DUP4 SWAP1 MSTORE PUSH1 0x11 PUSH1 0x24 DUP3 ADD MSTORE PUSH17 0x139BDD0818481C185C9D1A58DA5C185B9D PUSH1 0x7A SHL PUSH1 0x44 DUP3 ADD MSTORE PUSH1 0x64 SWAP1 REVERT JUMPDEST POP DUP3 PUSH1 0x2 DUP6 ADD SLOAD AND CALLER EQ PUSH2 0x2227 JUMP JUMPDEST POP CALLVALUE PUSH2 0x26F JUMPI PUSH1 0x40 CALLDATASIZE PUSH1 0x3 NOT ADD SLT PUSH2 0x26F JUMPI PUSH2 0x2460 PUSH2 0x3479 JUMP JUMPDEST PUSH1 0x24 SWAP2 DUP3 CALLDATALOAD SWAP2 PUSH2 0x246E PUSH2 0x3788 JUMP JUMPDEST CALLER DUP3 MSTORE PUSH1 0x6 PUSH1 0x20 MSTORE PUSH1 0x40 DUP3 KECCAK256 SWAP1 PUSH1 0x1 DUP1 PUSH1 0xA0 SHL SUB AND SWAP1 DUP2 DUP4 MSTORE PUSH1 0x20 MSTORE PUSH1 0x40 DUP3 KECCAK256 SWAP3 DUP3 SWAP4 DUP4 JUMPDEST DUP2 SLOAD DUP1 DUP3 LT ISZERO PUSH2 0x2602 JUMPI DUP4 SWAP1 PUSH2 0x24A9 DUP4 DUP6 PUSH2 0x34AA JUMP JUMPDEST SWAP3 SWAP1 SLOAD PUSH1 0x3 SWAP4 DUP5 SHL SHR EQ PUSH2 0x24C7 JUMPI POP POP PUSH2 0x24C2 SWAP1 PUSH2 0x3615 JUMP JUMPDEST PUSH2 0x2493 JUMP JUMPDEST SWAP1 SWAP4 SWAP5 SWAP6 SWAP7 POP PUSH1 0x0 NOT SWAP2 DUP3 DUP3 ADD SWAP2 DUP3 GT PUSH2 0x25EF JUMPI PUSH2 0x24F8 PUSH2 0x24EB PUSH2 0x2511 SWAP4 DUP7 PUSH2 0x34AA JUMP JUMPDEST SWAP1 SLOAD SWAP1 DUP8 SHL SHR SWAP2 DUP6 PUSH2 0x34AA JUMP JUMPDEST SWAP1 SWAP2 SWAP1 DUP3 SLOAD SWAP1 PUSH1 0x3 SHL SWAP2 DUP3 SHL SWAP2 PUSH1 0x0 NOT SWAP1 SHL NOT AND OR SWAP1 SSTORE JUMP JUMPDEST DUP2 SLOAD DUP1 ISZERO PUSH2 0x25DC JUMPI DUP2 ADD SWAP3 PUSH2 0x2526 DUP5 DUP5 PUSH2 0x34AA JUMP JUMPDEST DUP2 SWAP4 SWAP2 SLOAD SWAP3 SHL SHL NOT AND SWAP1 SSTORE SSTORE PUSH1 0x1 JUMPDEST ISZERO PUSH2 0x2598 JUMPI DUP3 SWAP4 POP DUP2 EXTCODESIZE ISZERO PUSH2 0x2594 JUMPI PUSH1 0x40 MLOAD PUSH4 0x23B872DD PUSH1 0xE0 SHL DUP2 MSTORE ADDRESS PUSH1 0x4 DUP3 ADD MSTORE CALLER PUSH1 0x24 DUP3 ADD MSTORE PUSH1 0x44 DUP2 ADD SWAP2 SWAP1 SWAP2 MSTORE SWAP2 SWAP1 DUP3 SWAP1 PUSH1 0x64 SWAP1 DUP3 SWAP1 DUP5 SWAP1 GAS CALL DUP1 ISZERO PUSH2 0x37C JUMPI PUSH2 0x2585 JUMPI JUMPDEST POP PUSH1 0x1 DUP2 SSTORE DUP1 RETURN JUMPDEST PUSH2 0x258E SWAP1 PUSH2 0x32CB JUMP JUMPDEST CODESIZE PUSH2 0x257D JUMP JUMPDEST POP POP REVERT JUMPDEST PUSH1 0x40 MLOAD PUSH3 0x461BCD PUSH1 0xE5 SHL DUP2 MSTORE PUSH1 0x20 PUSH1 0x4 DUP3 ADD MSTORE PUSH1 0x1A DUP2 DUP7 ADD MSTORE PUSH32 0x4E4654206E6F7420666F756E6420696E20756E636C61696D6564000000000000 PUSH1 0x44 DUP3 ADD MSTORE PUSH1 0x64 SWAP1 REVERT JUMPDEST PUSH4 0x4E487B71 PUSH1 0xE0 SHL DUP8 MSTORE PUSH1 0x31 PUSH1 0x4 MSTORE DUP8 DUP8 REVERT JUMPDEST PUSH4 0x4E487B71 PUSH1 0xE0 SHL DUP9 MSTORE PUSH1 0x11 PUSH1 0x4 MSTORE DUP9 DUP9 REVERT JUMPDEST POP POP POP SWAP1 SWAP2 SWAP3 PUSH2 0x2535 JUMP JUMPDEST POP CALLVALUE PUSH2 0x26F JUMPI DUP1 PUSH1 0x3 NOT CALLDATASIZE ADD SLT PUSH2 0x26F JUMPI PUSH1 0x20 PUSH1 0xFF PUSH1 0x1 SLOAD PUSH1 0xA0 SHR AND PUSH1 0x40 MLOAD SWAP1 ISZERO ISZERO DUP2 MSTORE RETURN JUMPDEST POP CALLVALUE PUSH2 0x26F JUMPI DUP1 PUSH1 0x3 NOT CALLDATASIZE ADD SLT PUSH2 0x26F JUMPI PUSH2 0x264C PUSH2 0x357A JUMP JUMPDEST PUSH2 0x2654 PUSH2 0x3741 JUMP JUMPDEST PUSH1 0x1 DUP1 SLOAD PUSH1 0xFF PUSH1 0xA0 SHL NOT AND PUSH1 0x1 PUSH1 0xA0 SHL OR SWAP1 SSTORE PUSH1 0x40 MLOAD CALLER DUP2 MSTORE PUSH32 0x62E78CEA01BEE320CD4E420270B5EA74000D11B0C9F74754EBDBFC544B05A258 SWAP1 PUSH1 0x20 SWAP1 LOG1 DUP1 RETURN JUMPDEST POP CALLVALUE PUSH2 0x26F JUMPI DUP1 PUSH1 0x3 NOT CALLDATASIZE ADD SLT PUSH2 0x26F JUMPI PUSH2 0x26AF PUSH2 0x357A JUMP JUMPDEST PUSH1 0x1 SLOAD PUSH1 0xFF DUP2 PUSH1 0xA0 SHR AND ISZERO PUSH2 0x26F7 JUMPI PUSH1 0xFF PUSH1 0xA0 SHL NOT AND PUSH1 0x1 SSTORE PUSH1 0x40 MLOAD CALLER DUP2 MSTORE PUSH32 0x5DB9EE0A495BF2E6FF9C91A7834C1BA4FDD244A5E8AA4E537BD38AEAE4B073AA SWAP1 PUSH1 0x20 SWAP1 LOG1 DUP1 RETURN JUMPDEST PUSH1 0x40 MLOAD PUSH3 0x461BCD PUSH1 0xE5 SHL DUP2 MSTORE PUSH1 0x20 PUSH1 0x4 DUP3 ADD MSTORE PUSH1 0x14 PUSH1 0x24 DUP3 ADD MSTORE PUSH20 0x14185D5CD8589B194E881B9BDD081C185D5CD959 PUSH1 0x62 SHL PUSH1 0x44 DUP3 ADD MSTORE PUSH1 0x64 SWAP1 REVERT JUMPDEST POP CALLVALUE PUSH2 0x26F JUMPI DUP1 PUSH1 0x3 NOT CALLDATASIZE ADD SLT PUSH2 0x26F JUMPI PUSH1 0x20 PUSH1 0x8 SLOAD PUSH1 0x40 MLOAD SWAP1 DUP2 MSTORE RETURN JUMPDEST POP CALLVALUE PUSH2 0x26F JUMPI DUP1 PUSH1 0x3 NOT CALLDATASIZE ADD SLT PUSH2 0x26F JUMPI PUSH1 0xA SLOAD PUSH1 0x40 MLOAD PUSH1 0x1 PUSH1 0x1 PUSH1 0xA0 SHL SUB SWAP1 SWAP2 AND DUP2 MSTORE PUSH1 0x20 SWAP1 RETURN JUMPDEST POP CALLVALUE PUSH2 0x26F JUMPI PUSH1 0x20 CALLDATASIZE PUSH1 0x3 NOT ADD SLT PUSH2 0x26F JUMPI PUSH1 0x4 CALLDATALOAD DUP2 MSTORE PUSH1 0x2 PUSH1 0x20 MSTORE PUSH1 0x40 DUP2 KECCAK256 SWAP1 PUSH2 0x2898 PUSH1 0x10 PUSH1 0x40 MLOAD SWAP4 PUSH2 0x27AD DUP6 PUSH2 0x32AF JUMP JUMPDEST DUP1 SLOAD DUP6 MSTORE PUSH1 0x1 DUP2 ADD SLOAD PUSH1 0x1 PUSH1 0x1 PUSH1 0xA0 SHL SUB SWAP1 DUP2 AND PUSH1 0x20 DUP8 ADD MSTORE PUSH1 0x2 DUP3 ADD SLOAD DUP2 AND PUSH1 0x40 DUP8 ADD MSTORE PUSH1 0x3 DUP3 ADD SLOAD AND PUSH1 0x60 DUP7 ADD MSTORE PUSH1 0x4 DUP2 ADD SLOAD PUSH1 0x80 DUP7 ADD MSTORE PUSH1 0x5 DUP2 ADD SLOAD PUSH1 0xFF SWAP1 PUSH2 0x27FE DUP2 DUP4 AND PUSH1 0xA0 DUP10 ADD PUSH2 0x363A JUMP JUMPDEST PUSH1 0x8 SHR AND PUSH2 0x280B DUP2 PUSH2 0x342F JUMP JUMPDEST PUSH1 0xC0 DUP7 ADD MSTORE PUSH1 0x6 DUP2 ADD SLOAD PUSH1 0xE0 DUP7 ADD MSTORE PUSH1 0xFF PUSH1 0x7 DUP3 ADD SLOAD AND PUSH2 0x282B DUP2 PUSH2 0x342F JUMP JUMPDEST PUSH2 0x100 DUP7 ADD MSTORE PUSH1 0x8 DUP2 ADD SLOAD PUSH2 0x120 DUP7 ADD MSTORE PUSH1 0x9 DUP2 ADD SLOAD PUSH1 0x1 PUSH1 0x1 PUSH1 0xA0 SHL SUB AND PUSH2 0x140 DUP7 ADD MSTORE PUSH1 0xA DUP2 ADD SLOAD PUSH2 0x160 DUP7 ADD MSTORE PUSH1 0xB DUP2 ADD SLOAD PUSH2 0x180 DUP7 ADD MSTORE PUSH1 0xC DUP2 ADD SLOAD PUSH2 0x1A0 DUP7 ADD MSTORE PUSH1 0xD DUP2 ADD SLOAD PUSH2 0x1C0 DUP7 ADD MSTORE PUSH1 0xE DUP2 ADD SLOAD PUSH2 0x1E0 DUP7 ADD MSTORE PUSH1 0xF DUP2 ADD SLOAD PUSH2 0x200 DUP7 ADD MSTORE ADD PUSH2 0x33C0 JUMP JUMPDEST PUSH2 0x220 DUP4 ADD MSTORE DUP2 MLOAD PUSH1 0x20 DUP4 ADD MLOAD PUSH1 0x1 PUSH1 0x1 PUSH1 0xA0 SHL SUB SWAP1 DUP2 AND PUSH2 0x160 MSTORE PUSH1 0x40 DUP5 ADD MLOAD DUP2 AND PUSH1 0xE0 MSTORE PUSH1 0x60 DUP5 ADD MLOAD AND PUSH1 0xC0 MSTORE PUSH1 0x80 DUP4 ADD MLOAD PUSH1 0xA0 DUP5 ADD MLOAD SWAP2 SWAP3 SWAP1 SWAP2 SWAP1 PUSH1 0x5 DUP3 LT ISZERO PUSH2 0x2A98 JUMPI POP PUSH1 0xC0 DUP5 ADD MLOAD PUSH2 0x28EE DUP2 PUSH2 0x342F JUMP JUMPDEST PUSH1 0xE0 DUP6 ADD MLOAD PUSH2 0x100 DUP7 ADD MLOAD PUSH2 0x2902 DUP2 PUSH2 0x342F JUMP JUMPDEST PUSH2 0x120 DUP8 ADD MLOAD SWAP1 PUSH1 0x1 PUSH1 0xA0 SHL PUSH1 0x1 SWAP1 SUB PUSH2 0x140 DUP10 ADD MLOAD AND SWAP3 PUSH2 0x160 DUP10 ADD MLOAD SWAP5 PUSH2 0x180 DUP11 ADD MLOAD SWAP7 PUSH2 0x1A0 DUP12 ADD MLOAD SWAP9 PUSH2 0x1C0 DUP13 ADD MLOAD SWAP11 PUSH2 0x1E0 DUP14 ADD MLOAD SWAP13 PUSH2 0x200 DUP2 ADD MLOAD PUSH1 0x80 MSTORE PUSH2 0x220 ADD MLOAD DUP1 PUSH2 0x120 MSTORE DUP1 MLOAD PUSH2 0x1C0 MSTORE PUSH1 0x20 DUP2 ADD MLOAD PUSH2 0x180 MSTORE PUSH1 0x40 DUP2 ADD MLOAD PUSH2 0x1E0 MSTORE PUSH1 0x60 ADD MLOAD ISZERO ISZERO PUSH2 0x100 MSTORE PUSH1 0x40 MLOAD DUP1 PUSH2 0x240 MSTORE MSTORE PUSH2 0x160 MLOAD PUSH2 0x240 MLOAD PUSH1 0x20 ADD MSTORE PUSH1 0xE0 MLOAD PUSH2 0x240 MLOAD PUSH1 0x40 ADD MSTORE PUSH1 0xC0 MLOAD PUSH2 0x240 MLOAD PUSH1 0x60 ADD MSTORE PUSH2 0x240 MLOAD PUSH1 0x80 ADD MSTORE PUSH2 0x240 MLOAD PUSH1 0xA0 ADD PUSH2 0x29B5 SWAP2 PUSH2 0x340C JUMP JUMPDEST PUSH2 0x29BE DUP2 PUSH2 0x342F JUMP JUMPDEST PUSH2 0x240 MLOAD PUSH1 0xC0 ADD MSTORE PUSH2 0x240 MLOAD PUSH1 0xE0 ADD MSTORE PUSH2 0x29D7 DUP2 PUSH2 0x342F JUMP JUMPDEST PUSH2 0x240 MLOAD PUSH2 0x100 ADD MSTORE PUSH2 0x240 MLOAD PUSH2 0x120 ADD MSTORE PUSH2 0x240 MLOAD PUSH2 0x140 ADD MSTORE PUSH2 0x240 MLOAD PUSH2 0x160 ADD MSTORE PUSH2 0x240 MLOAD PUSH2 0x180 ADD MSTORE PUSH2 0x240 MLOAD PUSH2 0x1A0 ADD MSTORE PUSH2 0x240 MLOAD PUSH2 0x1C0 ADD MSTORE PUSH2 0x240 MLOAD PUSH2 0x1E0 ADD MSTORE PUSH1 0x80 MLOAD PUSH2 0x240 MLOAD PUSH2 0x200 ADD MSTORE PUSH2 0x2A0 DUP1 PUSH2 0x240 MLOAD PUSH2 0x220 ADD MSTORE PUSH2 0x240 MLOAD ADD PUSH2 0x1C0 MLOAD SWAP1 PUSH2 0x2A4B SWAP2 PUSH2 0x3439 JUMP JUMPDEST PUSH2 0x240 MLOAD DUP1 DUP3 SUB SWAP1 PUSH2 0x240 ADD MSTORE PUSH2 0x180 MLOAD SWAP1 PUSH2 0x2A66 SWAP2 PUSH2 0x3439 JUMP JUMPDEST PUSH2 0x240 MLOAD DUP1 DUP3 SUB SWAP1 PUSH2 0x260 ADD MSTORE PUSH2 0x1E0 MLOAD SWAP1 PUSH2 0x2A81 SWAP2 PUSH2 0x3439 JUMP JUMPDEST PUSH2 0x100 MLOAD PUSH2 0x240 MLOAD PUSH2 0x280 ADD MSTORE PUSH2 0x240 MLOAD DUP1 SWAP2 SUB SWAP1 RETURN JUMPDEST PUSH4 0x4E487B71 PUSH1 0xE0 SHL DUP2 MSTORE PUSH1 0x21 PUSH1 0x4 MSTORE PUSH1 0x24 SWAP1 REVERT JUMPDEST POP CALLVALUE PUSH2 0x26F JUMPI PUSH1 0x20 CALLDATASIZE PUSH1 0x3 NOT ADD SLT PUSH2 0x26F JUMPI PUSH1 0x20 SWAP1 PUSH1 0x40 SWAP1 PUSH1 0x1 PUSH1 0x1 PUSH1 0xA0 SHL SUB PUSH2 0x2AD4 PUSH2 0x3479 JUMP JUMPDEST AND DUP2 MSTORE PUSH1 0x4 DUP4 MSTORE KECCAK256 SLOAD PUSH1 0x40 MLOAD SWAP1 DUP2 MSTORE RETURN JUMPDEST POP CALLVALUE PUSH2 0x26F JUMPI PUSH1 0x20 CALLDATASIZE PUSH1 0x3 NOT ADD SLT PUSH2 0x26F JUMPI PUSH2 0x2AFF PUSH2 0x357A JUMP JUMPDEST PUSH1 0x4 CALLDATALOAD PUSH1 0x8 SSTORE DUP1 RETURN JUMPDEST POP CALLVALUE PUSH2 0x26F JUMPI PUSH1 0x20 CALLDATASIZE PUSH1 0x3 NOT ADD SLT PUSH2 0x26F JUMPI PUSH1 0x4 CALLDATALOAD PUSH2 0x2B25 PUSH2 0x357A JUMP JUMPDEST PUSH2 0x3E8 DUP2 GT PUSH2 0x2B34 JUMPI PUSH1 0x9 SSTORE DUP1 RETURN JUMPDEST PUSH1 0x40 MLOAD PUSH3 0x461BCD PUSH1 0xE5 SHL DUP2 MSTORE PUSH1 0x20 PUSH1 0x4 DUP3 ADD MSTORE PUSH1 0x7 PUSH1 0x24 DUP3 ADD MSTORE PUSH7 0x4D617820313025 PUSH1 0xC8 SHL PUSH1 0x44 DUP3 ADD MSTORE PUSH1 0x64 SWAP1 REVERT JUMPDEST POP CALLVALUE PUSH2 0x26F JUMPI PUSH1 0x20 DUP1 PUSH1 0x3 NOT CALLDATASIZE ADD SLT PUSH2 0x378 JUMPI PUSH1 0x1 PUSH1 0x1 PUSH1 0xA0 SHL SUB PUSH2 0x2B86 PUSH2 0x3479 JUMP JUMPDEST AND DUP3 MSTORE PUSH1 0x3 DUP2 MSTORE PUSH1 0x40 DUP3 KECCAK256 PUSH1 0x40 MLOAD SWAP3 DUP4 DUP4 DUP4 SLOAD SWAP2 DUP3 DUP2 MSTORE ADD SWAP1 DUP2 SWAP4 DUP4 MSTORE DUP5 DUP4 KECCAK256 SWAP1 DUP4 JUMPDEST DUP2 DUP2 LT PUSH2 0x2BFD JUMPI POP POP POP DUP5 PUSH2 0x2BBF SWAP2 SUB DUP6 PUSH2 0x32F9 JUMP JUMPDEST PUSH1 0x40 MLOAD SWAP4 DUP4 DUP6 SWAP5 DUP6 ADD SWAP2 DUP2 DUP7 MSTORE MLOAD DUP1 SWAP3 MSTORE PUSH1 0x40 DUP6 ADD SWAP4 SWAP3 JUMPDEST DUP3 DUP2 LT PUSH2 0x2BE6 JUMPI POP POP POP POP SUB SWAP1 RETURN JUMPDEST DUP4 MLOAD DUP6 MSTORE DUP7 SWAP6 POP SWAP4 DUP2 ADD SWAP4 SWAP3 DUP2 ADD SWAP3 PUSH1 0x1 ADD PUSH2 0x2BD7 JUMP JUMPDEST DUP3 SLOAD DUP5 MSTORE SWAP3 DUP7 ADD SWAP3 PUSH1 0x1 SWAP3 DUP4 ADD SWAP3 ADD PUSH2 0x2BA9 JUMP JUMPDEST POP CALLVALUE PUSH2 0x26F JUMPI DUP1 PUSH1 0x3 NOT CALLDATASIZE ADD SLT PUSH2 0x26F JUMPI PUSH1 0xC SLOAD PUSH1 0x40 MLOAD PUSH1 0x1 PUSH1 0x1 PUSH1 0xA0 SHL SUB SWAP1 SWAP2 AND DUP2 MSTORE PUSH1 0x20 SWAP1 RETURN JUMPDEST POP CALLVALUE PUSH2 0x26F JUMPI PUSH1 0x20 CALLDATASIZE PUSH1 0x3 NOT ADD SLT PUSH2 0x26F JUMPI PUSH1 0x4 CALLDATALOAD DUP2 MSTORE PUSH1 0x2 PUSH1 0x20 MSTORE PUSH1 0x40 SWAP1 KECCAK256 DUP1 DUP1 SLOAD PUSH1 0x1 PUSH1 0xA0 SHL PUSH1 0x1 SWAP1 SUB DUP1 PUSH1 0x1 DUP5 ADD SLOAD AND PUSH1 0xA0 MSTORE DUP1 PUSH1 0x2 DUP5 ADD SLOAD AND PUSH2 0x220 MSTORE DUP1 PUSH1 0x3 DUP5 ADD SLOAD AND SWAP1 PUSH1 0x4 DUP5 ADD SLOAD SWAP1 PUSH1 0x5 DUP6 ADD SLOAD SWAP1 PUSH1 0x6 DUP7 ADD SLOAD SWAP1 PUSH1 0x7 DUP8 ADD SLOAD PUSH1 0xFF AND PUSH1 0x8 DUP9 ADD SLOAD SWAP2 PUSH1 0x9 DUP10 ADD SLOAD AND SWAP3 PUSH1 0xA DUP10 ADD SLOAD SWAP5 PUSH1 0xB DUP11 ADD SLOAD SWAP7 PUSH1 0xC DUP12 ADD SLOAD SWAP9 PUSH1 0xD DUP13 ADD SLOAD SWAP11 PUSH1 0xE DUP14 ADD SLOAD SWAP13 PUSH1 0xF ADD SLOAD SWAP14 PUSH1 0x10 ADD PUSH2 0x2CD9 SWAP1 PUSH2 0x33C0 JUMP JUMPDEST PUSH2 0x1A0 MSTORE PUSH1 0x40 MLOAD DUP1 PUSH2 0x200 MSTORE MSTORE PUSH1 0xA0 MLOAD PUSH2 0x200 MLOAD PUSH1 0x20 ADD MSTORE PUSH2 0x220 MLOAD PUSH2 0x200 MLOAD PUSH1 0x40 ADD MSTORE PUSH2 0x200 MLOAD PUSH1 0x60 ADD MSTORE PUSH2 0x200 MLOAD PUSH1 0x80 ADD MSTORE PUSH2 0x200 MLOAD PUSH1 0xA0 ADD PUSH1 0xFF DUP3 AND SWAP1 PUSH2 0x2D22 SWAP2 PUSH2 0x340C JUMP JUMPDEST PUSH1 0x8 SHR PUSH1 0xFF AND PUSH2 0x2D31 DUP2 PUSH2 0x342F JUMP JUMPDEST PUSH2 0x200 MLOAD PUSH1 0xC0 ADD MSTORE PUSH2 0x200 MLOAD PUSH1 0xE0 ADD MSTORE PUSH2 0x2D4A DUP2 PUSH2 0x342F JUMP JUMPDEST PUSH2 0x200 MLOAD PUSH2 0x100 ADD MSTORE PUSH2 0x200 MLOAD PUSH2 0x120 ADD MSTORE PUSH2 0x200 MLOAD PUSH2 0x140 ADD MSTORE PUSH2 0x200 MLOAD PUSH2 0x160 ADD MSTORE PUSH2 0x200 MLOAD PUSH2 0x180 ADD MSTORE PUSH2 0x200 MLOAD PUSH2 0x1A0 ADD MSTORE PUSH2 0x200 MLOAD PUSH2 0x1C0 ADD MSTORE PUSH2 0x200 MLOAD PUSH2 0x1E0 ADD MSTORE PUSH2 0x200 MLOAD PUSH2 0x200 ADD MSTORE PUSH2 0x240 DUP1 PUSH2 0x200 MLOAD PUSH2 0x220 ADD MSTORE PUSH2 0x1A0 MLOAD MLOAD SWAP1 PUSH2 0x200 MLOAD ADD PUSH1 0x80 SWAP1 MSTORE PUSH2 0x200 MLOAD PUSH2 0x2C0 ADD PUSH2 0x2DC8 SWAP2 PUSH2 0x3439 JUMP JUMPDEST PUSH2 0x1A0 MLOAD PUSH1 0x20 ADD MLOAD PUSH2 0x200 MLOAD SWAP2 PUSH2 0x23F NOT SWAP3 DUP4 DUP2 DUP4 SUB ADD SWAP1 PUSH2 0x260 ADD MSTORE PUSH2 0x2DEE SWAP2 PUSH2 0x3439 JUMP JUMPDEST PUSH2 0x1A0 MLOAD PUSH1 0x40 ADD MLOAD SWAP2 PUSH2 0x200 MLOAD SWAP1 DUP2 DUP4 SUB ADD SWAP1 PUSH2 0x280 ADD MSTORE PUSH2 0x2E0F SWAP2 PUSH2 0x3439 JUMP JUMPDEST PUSH2 0x1A0 MLOAD PUSH1 0x60 ADD MLOAD ISZERO ISZERO PUSH2 0x200 MLOAD PUSH2 0x2A0 ADD MSTORE PUSH2 0x200 MLOAD DUP1 SWAP2 SUB SWAP1 RETURN JUMPDEST POP CALLVALUE PUSH2 0x26F JUMPI PUSH1 0x20 CALLDATASIZE PUSH1 0x3 NOT ADD SLT PUSH2 0x26F JUMPI PUSH2 0x2E46 PUSH2 0x3788 JUMP JUMPDEST PUSH1 0x4 CALLDATALOAD DUP2 MSTORE PUSH1 0x2 PUSH1 0x20 MSTORE PUSH1 0x40 DUP2 KECCAK256 PUSH1 0x5 DUP2 ADD SLOAD PUSH1 0xFF DUP2 AND PUSH1 0x5 DUP2 LT ISZERO DUP1 PUSH2 0x3261 JUMPI PUSH1 0x1 DUP3 EQ DUP1 SWAP3 DUP2 ISZERO PUSH2 0x3253 JUMPI JUMPDEST POP ISZERO PUSH2 0x321D JUMPI PUSH1 0x1 DUP5 ADD SLOAD PUSH1 0x1 PUSH1 0x1 PUSH1 0xA0 SHL SUB AND CALLER EQ DUP1 ISZERO PUSH2 0x3207 JUMPI JUMPDEST ISZERO PUSH2 0x31D3 JUMPI PUSH1 0x3 PUSH1 0xB DUP6 ADD SLOAD LT DUP1 PUSH2 0x31C5 JUMPI JUMPDEST ISZERO PUSH2 0x3188 JUMPI PUSH2 0x3174 JUMPI PUSH2 0x3162 JUMPI JUMPDEST POP PUSH1 0xD DUP2 ADD SLOAD PUSH1 0x40 MLOAD TIMESTAMP PUSH1 0x20 DUP3 ADD MSTORE PREVRANDAO PUSH1 0x40 DUP3 ADD MSTORE PUSH1 0x4 CALLDATALOAD PUSH1 0x60 DUP3 ADD MSTORE DUP2 PUSH1 0x80 DUP3 ADD MSTORE CALLER PUSH1 0x60 SHL PUSH1 0xA0 DUP3 ADD MSTORE PUSH1 0x94 DUP2 MSTORE DUP1 PUSH1 0xC0 DUP2 ADD LT PUSH1 0x1 PUSH1 0x1 PUSH1 0x40 SHL SUB PUSH1 0xC0 DUP4 ADD GT OR PUSH2 0x314E JUMPI PUSH1 0xC0 DUP2 ADD PUSH1 0x40 MSTORE PUSH1 0x20 DUP2 MLOAD SWAP2 ADD KECCAK256 SWAP1 PUSH1 0x1 DUP3 AND ISZERO PUSH1 0x0 EQ PUSH2 0x30DE JUMPI POP PUSH2 0x2F23 PUSH1 0xB DUP4 ADD SLOAD PUSH2 0x3615 JUMP JUMPDEST PUSH1 0xB DUP4 ADD SSTORE PUSH1 0xD DUP3 ADD SLOAD PUSH1 0x1 DUP2 ADD DUP2 GT PUSH2 0x30CA JUMPI PUSH1 0x1 DUP4 DUP2 ADD SLOAD PUSH1 0x40 DUP1 MLOAD SWAP4 DUP4 ADD DUP5 MSTORE SWAP2 DUP5 AND PUSH1 0x20 DUP5 ADD MSTORE PUSH1 0x1 PUSH1 0x1 PUSH1 0xA0 SHL SUB AND SWAP1 DUP3 ADD MSTORE PUSH1 0x4 CALLDATALOAD SWAP1 PUSH32 0xD2B6B22444768B00D18E4A1C242DC398D49E330C1BAE790CAD9DCD86DA2E20C3 SWAP1 PUSH1 0x60 SWAP1 LOG2 JUMPDEST PUSH2 0x2F93 PUSH1 0xD DUP4 ADD SLOAD PUSH2 0x3615 JUMP JUMPDEST PUSH1 0xD DUP4 ADD SSTORE PUSH1 0x1 DUP2 AND PUSH1 0xE DUP4 ADD SSTORE PUSH1 0xF DUP3 ADD SSTORE PUSH1 0x3 PUSH1 0xB DUP3 ADD SLOAD LT DUP1 ISZERO DUP1 SWAP2 PUSH2 0x30BB JUMPI JUMPDEST PUSH2 0x2FC4 JUMPI JUMPDEST DUP3 PUSH1 0x1 DUP2 SSTORE DUP1 RETURN JUMPDEST ISZERO PUSH2 0x30A4 JUMPI PUSH1 0x1 DUP2 ADD SLOAD PUSH1 0x1 PUSH1 0x1 PUSH1 0xA0 SHL SUB AND SWAP1 PUSH1 0x8 SWAP1 JUMPDEST PUSH1 0x9 DUP2 ADD DUP1 SLOAD PUSH1 0x1 PUSH1 0x1 PUSH1 0xA0 SHL SUB NOT AND PUSH1 0x1 PUSH1 0x1 PUSH1 0xA0 SHL SUB SWAP5 DUP6 AND SWAP1 DUP2 OR DUP3 SSTORE PUSH1 0x5 DUP4 ADD DUP1 SLOAD PUSH1 0xFF NOT AND PUSH1 0x3 SWAP1 DUP2 OR SWAP1 SWAP2 SSTORE SWAP1 DUP7 MSTORE PUSH1 0x6 PUSH1 0x20 SWAP1 DUP2 MSTORE PUSH1 0x40 DUP1 DUP9 KECCAK256 SWAP3 DUP6 ADD SLOAD SWAP1 SWAP7 AND DUP8 MSTORE MSTORE SWAP3 DUP5 KECCAK256 PUSH1 0x4 DUP3 ADD SLOAD PUSH2 0x3038 SWAP2 PUSH2 0x365E JUMP JUMPDEST ADD SLOAD DUP1 PUSH2 0x3079 JUMPI JUMPDEST POP SLOAD PUSH1 0x1 PUSH1 0x1 PUSH1 0xA0 SHL SUB AND PUSH1 0x4 CALLDATALOAD PUSH32 0x7F40DF5127524300187445E867486DA572AAB86769C0212E0B392BD87C4CA97F DUP4 DUP1 LOG3 CODESIZE DUP1 PUSH2 0x2FBC JUMP JUMPDEST DUP2 SLOAD PUSH1 0x1 PUSH1 0x1 PUSH1 0xA0 SHL SUB AND DUP4 MSTORE PUSH1 0x4 PUSH1 0x20 MSTORE PUSH1 0x40 DUP4 KECCAK256 DUP1 SLOAD SWAP1 SWAP2 PUSH2 0x309C SWAP2 PUSH2 0x3880 JUMP JUMPDEST SWAP1 SSTORE CODESIZE PUSH2 0x3040 JUMP JUMPDEST PUSH1 0x2 DUP2 ADD SLOAD PUSH1 0x1 PUSH1 0x1 PUSH1 0xA0 SHL SUB AND SWAP1 PUSH1 0x8 SWAP1 PUSH2 0x2FDC JUMP JUMPDEST POP PUSH1 0x3 PUSH1 0xC DUP4 ADD SLOAD LT ISZERO PUSH2 0x2FB7 JUMP JUMPDEST PUSH4 0x4E487B71 PUSH1 0xE0 SHL DUP5 MSTORE PUSH1 0x11 PUSH1 0x4 MSTORE PUSH1 0x24 DUP5 REVERT JUMPDEST PUSH1 0xC DUP4 ADD PUSH2 0x30EC DUP2 SLOAD PUSH2 0x3615 JUMP JUMPDEST SWAP1 SSTORE PUSH1 0x1 DUP2 ADD DUP2 GT PUSH2 0x30CA JUMPI PUSH1 0x2 DUP4 ADD SLOAD PUSH1 0x40 DUP1 MLOAD PUSH1 0x1 SWAP4 DUP5 ADD DUP2 MSTORE SWAP3 DUP5 AND PUSH1 0x20 DUP5 ADD MSTORE PUSH1 0x1 PUSH1 0x1 PUSH1 0xA0 SHL SUB SWAP1 SWAP2 AND SWAP1 DUP3 ADD MSTORE PUSH1 0x4 CALLDATALOAD SWAP1 PUSH32 0xD2B6B22444768B00D18E4A1C242DC398D49E330C1BAE790CAD9DCD86DA2E20C3 SWAP1 PUSH1 0x60 SWAP1 LOG2 PUSH2 0x2F86 JUMP JUMPDEST PUSH4 0x4E487B71 PUSH1 0xE0 SHL DUP5 MSTORE PUSH1 0x41 PUSH1 0x4 MSTORE PUSH1 0x24 DUP5 REVERT JUMPDEST PUSH1 0xFF NOT AND PUSH1 0x2 OR PUSH1 0x5 DUP3 ADD SSTORE CODESIZE PUSH2 0x2EB2 JUMP JUMPDEST PUSH4 0x4E487B71 PUSH1 0xE0 SHL DUP5 MSTORE PUSH1 0x21 PUSH1 0x4 MSTORE PUSH1 0x24 DUP5 REVERT JUMPDEST PUSH1 0x40 MLOAD PUSH3 0x461BCD PUSH1 0xE5 SHL DUP2 MSTORE PUSH1 0x20 PUSH1 0x4 DUP3 ADD MSTORE PUSH1 0x15 PUSH1 0x24 DUP3 ADD MSTORE PUSH21 0x47616D6520616C726561647920636F6D706C657465 PUSH1 0x58 SHL PUSH1 0x44 DUP3 ADD MSTORE PUSH1 0x64 SWAP1 REVERT JUMPDEST POP PUSH1 0x3 PUSH1 0xC DUP6 ADD SLOAD LT PUSH2 0x2EA4 JUMP JUMPDEST PUSH1 0x40 MLOAD PUSH3 0x461BCD PUSH1 0xE5 SHL DUP2 MSTORE PUSH1 0x20 PUSH1 0x4 DUP3 ADD MSTORE PUSH1 0xC PUSH1 0x24 DUP3 ADD MSTORE PUSH12 0x2737BA103090383630BCB2B9 PUSH1 0xA1 SHL PUSH1 0x44 DUP3 ADD MSTORE PUSH1 0x64 SWAP1 REVERT JUMPDEST POP PUSH1 0x2 DUP5 ADD SLOAD PUSH1 0x1 PUSH1 0x1 PUSH1 0xA0 SHL SUB AND CALLER EQ PUSH2 0x2E91 JUMP JUMPDEST PUSH1 0x40 MLOAD PUSH3 0x461BCD PUSH1 0xE5 SHL DUP2 MSTORE PUSH1 0x20 PUSH1 0x4 DUP3 ADD MSTORE PUSH1 0xE PUSH1 0x24 DUP3 ADD MSTORE PUSH14 0x47616D65206E6F74207265616479 PUSH1 0x90 SHL PUSH1 0x44 DUP3 ADD MSTORE PUSH1 0x64 SWAP1 REVERT JUMPDEST SWAP2 POP POP PUSH1 0x2 DUP6 SWAP2 EQ CODESIZE PUSH2 0x2E74 JUMP JUMPDEST PUSH4 0x4E487B71 PUSH1 0xE0 SHL DUP6 MSTORE PUSH1 0x21 PUSH1 0x4 MSTORE PUSH1 0x24 DUP6 REVERT JUMPDEST SWAP1 PUSH1 0x1 DUP3 DUP2 SHR SWAP3 AND DUP1 ISZERO PUSH2 0x32A5 JUMPI JUMPDEST PUSH1 0x20 DUP4 LT EQ PUSH2 0x328F JUMPI JUMP JUMPDEST PUSH4 0x4E487B71 PUSH1 0xE0 SHL PUSH1 0x0 MSTORE PUSH1 0x22 PUSH1 0x4 MSTORE PUSH1 0x24 PUSH1 0x0 REVERT JUMPDEST SWAP2 PUSH1 0x7F AND SWAP2 PUSH2 0x3284 JUMP JUMPDEST PUSH2 0x240 DUP2 ADD SWAP1 DUP2 LT PUSH1 0x1 PUSH1 0x1 PUSH1 0x40 SHL SUB DUP3 GT OR PUSH2 0x1BFD JUMPI PUSH1 0x40 MSTORE JUMP JUMPDEST PUSH1 0x1 PUSH1 0x1 PUSH1 0x40 SHL SUB DUP2 GT PUSH2 0x1BFD JUMPI PUSH1 0x40 MSTORE JUMP JUMPDEST PUSH1 0x80 DUP2 ADD SWAP1 DUP2 LT PUSH1 0x1 PUSH1 0x1 PUSH1 0x40 SHL SUB DUP3 GT OR PUSH2 0x1BFD JUMPI PUSH1 0x40 MSTORE JUMP JUMPDEST SWAP1 PUSH1 0x1F DUP1 NOT SWAP2 ADD AND DUP2 ADD SWAP1 DUP2 LT PUSH1 0x1 PUSH1 0x1 PUSH1 0x40 SHL SUB DUP3 GT OR PUSH2 0x1BFD JUMPI PUSH1 0x40 MSTORE JUMP JUMPDEST SWAP1 PUSH1 0x40 MLOAD SWAP2 DUP3 PUSH1 0x0 DUP3 SLOAD SWAP3 PUSH2 0x332E DUP5 PUSH2 0x3275 JUMP JUMPDEST SWAP1 DUP2 DUP5 MSTORE PUSH1 0x1 SWAP5 DUP6 DUP2 AND SWAP1 DUP2 PUSH1 0x0 EQ PUSH2 0x339D JUMPI POP PUSH1 0x1 EQ PUSH2 0x335A JUMPI JUMPDEST POP POP PUSH2 0x3358 SWAP3 POP SUB DUP4 PUSH2 0x32F9 JUMP JUMPDEST JUMP JUMPDEST SWAP1 SWAP4 SWAP2 POP PUSH1 0x0 MSTORE PUSH1 0x20 SWAP1 DUP2 PUSH1 0x0 KECCAK256 SWAP4 PUSH1 0x0 SWAP2 JUMPDEST DUP2 DUP4 LT PUSH2 0x3385 JUMPI POP POP PUSH2 0x3358 SWAP4 POP DUP3 ADD ADD CODESIZE DUP1 PUSH2 0x334A JUMP JUMPDEST DUP6 SLOAD DUP9 DUP5 ADD DUP6 ADD MSTORE SWAP5 DUP6 ADD SWAP5 DUP8 SWAP5 POP SWAP2 DUP4 ADD SWAP2 PUSH2 0x336D JUMP JUMPDEST SWAP2 POP POP PUSH2 0x3358 SWAP5 POP PUSH1 0x20 SWAP3 POP PUSH1 0xFF NOT AND DUP3 DUP5 ADD MSTORE ISZERO ISZERO PUSH1 0x5 SHL DUP3 ADD ADD CODESIZE DUP1 PUSH2 0x334A JUMP JUMPDEST SWAP1 PUSH1 0x40 MLOAD PUSH2 0x33CD DUP2 PUSH2 0x32DE JUMP JUMPDEST PUSH1 0x60 PUSH1 0xFF PUSH1 0x3 DUP4 SWAP6 PUSH2 0x33DE DUP2 PUSH2 0x331A JUMP JUMPDEST DUP6 MSTORE PUSH2 0x33EC PUSH1 0x1 DUP3 ADD PUSH2 0x331A JUMP JUMPDEST PUSH1 0x20 DUP7 ADD MSTORE PUSH2 0x33FD PUSH1 0x2 DUP3 ADD PUSH2 0x331A JUMP JUMPDEST PUSH1 0x40 DUP7 ADD MSTORE ADD SLOAD AND ISZERO ISZERO SWAP2 ADD MSTORE JUMP JUMPDEST SWAP1 PUSH1 0x5 DUP3 LT ISZERO PUSH2 0x3419 JUMPI MSTORE JUMP JUMPDEST PUSH4 0x4E487B71 PUSH1 0xE0 SHL PUSH1 0x0 MSTORE PUSH1 0x21 PUSH1 0x4 MSTORE PUSH1 0x24 PUSH1 0x0 REVERT JUMPDEST PUSH1 0x2 GT ISZERO PUSH2 0x3419 JUMPI JUMP JUMPDEST SWAP2 SWAP1 DUP3 MLOAD SWAP3 DUP4 DUP3 MSTORE PUSH1 0x0 JUMPDEST DUP5 DUP2 LT PUSH2 0x3465 JUMPI POP POP DUP3 PUSH1 0x0 PUSH1 0x20 DUP1 SWAP5 SWAP6 DUP5 ADD ADD MSTORE PUSH1 0x1F DUP1 NOT SWAP2 ADD AND ADD ADD SWAP1 JUMP JUMPDEST PUSH1 0x20 DUP2 DUP4 ADD DUP2 ADD MLOAD DUP5 DUP4 ADD DUP3 ADD MSTORE ADD PUSH2 0x3444 JUMP JUMPDEST PUSH1 0x4 CALLDATALOAD SWAP1 PUSH1 0x1 PUSH1 0x1 PUSH1 0xA0 SHL SUB DUP3 AND DUP3 SUB PUSH2 0x348F JUMPI JUMP JUMPDEST PUSH1 0x0 DUP1 REVERT JUMPDEST PUSH1 0x24 CALLDATALOAD SWAP1 PUSH1 0x1 PUSH1 0x1 PUSH1 0xA0 SHL SUB DUP3 AND DUP3 SUB PUSH2 0x348F JUMPI JUMP JUMPDEST DUP1 SLOAD DUP3 LT ISZERO PUSH2 0x34C2 JUMPI PUSH1 0x0 MSTORE PUSH1 0x20 PUSH1 0x0 KECCAK256 ADD SWAP1 PUSH1 0x0 SWAP1 JUMP JUMPDEST PUSH4 0x4E487B71 PUSH1 0xE0 SHL PUSH1 0x0 MSTORE PUSH1 0x32 PUSH1 0x4 MSTORE PUSH1 0x24 PUSH1 0x0 REVERT JUMPDEST SWAP2 DUP2 PUSH1 0x1F DUP5 ADD SLT ISZERO PUSH2 0x348F JUMPI DUP3 CALLDATALOAD SWAP2 PUSH1 0x1 PUSH1 0x1 PUSH1 0x40 SHL SUB DUP4 GT PUSH2 0x348F JUMPI PUSH1 0x20 DUP1 DUP6 ADD SWAP5 DUP5 PUSH1 0x5 SHL ADD ADD GT PUSH2 0x348F JUMPI JUMP JUMPDEST PUSH1 0x1 PUSH1 0x1 PUSH1 0x40 SHL SUB DUP2 GT PUSH2 0x1BFD JUMPI PUSH1 0x1F ADD PUSH1 0x1F NOT AND PUSH1 0x20 ADD SWAP1 JUMP JUMPDEST DUP2 PUSH1 0x1F DUP3 ADD SLT ISZERO PUSH2 0x348F JUMPI DUP1 CALLDATALOAD SWAP1 PUSH2 0x353A DUP3 PUSH2 0x3508 JUMP JUMPDEST SWAP3 PUSH2 0x3548 PUSH1 0x40 MLOAD SWAP5 DUP6 PUSH2 0x32F9 JUMP JUMPDEST DUP3 DUP5 MSTORE PUSH1 0x20 DUP4 DUP4 ADD ADD GT PUSH2 0x348F JUMPI DUP2 PUSH1 0x0 SWAP3 PUSH1 0x20 DUP1 SWAP4 ADD DUP4 DUP7 ADD CALLDATACOPY DUP4 ADD ADD MSTORE SWAP1 JUMP JUMPDEST PUSH2 0x104 CALLDATALOAD SWAP1 DUP2 ISZERO ISZERO DUP3 SUB PUSH2 0x348F JUMPI JUMP JUMPDEST PUSH1 0x1 SLOAD PUSH1 0x1 PUSH1 0x1 PUSH1 0xA0 SHL SUB AND CALLER SUB PUSH2 0x358E JUMPI JUMP JUMPDEST PUSH1 0x64 PUSH1 0x40 MLOAD PUSH3 0x461BCD PUSH1 0xE5 SHL DUP2 MSTORE PUSH1 0x20 PUSH1 0x4 DUP3 ADD MSTORE PUSH1 0x20 PUSH1 0x24 DUP3 ADD MSTORE PUSH32 0x4F776E61626C653A2063616C6C6572206973206E6F7420746865206F776E6572 PUSH1 0x44 DUP3 ADD MSTORE REVERT JUMPDEST ISZERO PUSH2 0x35D9 JUMPI JUMP JUMPDEST PUSH1 0x40 MLOAD PUSH3 0x461BCD PUSH1 0xE5 SHL DUP2 MSTORE PUSH1 0x20 PUSH1 0x4 DUP3 ADD MSTORE PUSH1 0x14 PUSH1 0x24 DUP3 ADD MSTORE PUSH20 0x125B9D985B1A59081391950818DBDB9D1C9858DD PUSH1 0x62 SHL PUSH1 0x44 DUP3 ADD MSTORE PUSH1 0x64 SWAP1 REVERT JUMPDEST PUSH1 0x0 NOT DUP2 EQ PUSH2 0x3624 JUMPI PUSH1 0x1 ADD SWAP1 JUMP JUMPDEST PUSH4 0x4E487B71 PUSH1 0xE0 SHL PUSH1 0x0 MSTORE PUSH1 0x11 PUSH1 0x4 MSTORE PUSH1 0x24 PUSH1 0x0 REVERT JUMPDEST PUSH1 0x5 DUP3 LT ISZERO PUSH2 0x3419 JUMPI MSTORE JUMP JUMPDEST SWAP1 PUSH1 0x5 DUP2 LT ISZERO PUSH2 0x3419 JUMPI PUSH1 0xFF DUP1 NOT DUP4 SLOAD AND SWAP2 AND OR SWAP1 SSTORE JUMP JUMPDEST SWAP1 DUP2 SLOAD SWAP2 PUSH9 0x10000000000000000 DUP4 LT ISZERO PUSH2 0x1BFD JUMPI DUP3 PUSH2 0x24F8 SWAP2 PUSH1 0x1 PUSH2 0x3358 SWAP6 ADD DUP2 SSTORE PUSH2 0x34AA JUMP JUMPDEST RETURNDATASIZE ISZERO PUSH2 0x36B1 JUMPI RETURNDATASIZE SWAP1 PUSH2 0x3697 DUP3 PUSH2 0x3508 JUMP JUMPDEST SWAP2 PUSH2 0x36A5 PUSH1 0x40 MLOAD SWAP4 DUP5 PUSH2 0x32F9 JUMP JUMPDEST DUP3 MSTORE RETURNDATASIZE PUSH1 0x0 PUSH1 0x20 DUP5 ADD RETURNDATACOPY JUMP JUMPDEST PUSH1 0x60 SWAP1 JUMP JUMPDEST ISZERO PUSH2 0x36BD JUMPI JUMP JUMPDEST PUSH1 0x40 MLOAD PUSH3 0x461BCD PUSH1 0xE5 SHL DUP2 MSTORE PUSH1 0x20 PUSH1 0x4 DUP3 ADD MSTORE PUSH1 0x13 PUSH1 0x24 DUP3 ADD MSTORE PUSH19 0x119959481D1C985B9CD9995C8819985A5B1959 PUSH1 0x6A SHL PUSH1 0x44 DUP3 ADD MSTORE PUSH1 0x64 SWAP1 REVERT JUMPDEST SWAP2 SWAP1 DUP3 SUB SWAP2 DUP3 GT PUSH2 0x3624 JUMPI JUMP JUMPDEST ISZERO PUSH2 0x370C JUMPI JUMP JUMPDEST PUSH1 0x40 MLOAD PUSH3 0x461BCD PUSH1 0xE5 SHL DUP2 MSTORE PUSH1 0x20 PUSH1 0x4 DUP3 ADD MSTORE PUSH1 0xD PUSH1 0x24 DUP3 ADD MSTORE PUSH13 0x1499599D5B990819985A5B1959 PUSH1 0x9A SHL PUSH1 0x44 DUP3 ADD MSTORE PUSH1 0x64 SWAP1 REVERT JUMPDEST PUSH1 0xFF PUSH1 0x1 SLOAD PUSH1 0xA0 SHR AND PUSH2 0x3750 JUMPI JUMP JUMPDEST PUSH1 0x40 MLOAD PUSH3 0x461BCD PUSH1 0xE5 SHL DUP2 MSTORE PUSH1 0x20 PUSH1 0x4 DUP3 ADD MSTORE PUSH1 0x10 PUSH1 0x24 DUP3 ADD MSTORE PUSH16 0x14185D5CD8589B194E881C185D5CD959 PUSH1 0x82 SHL PUSH1 0x44 DUP3 ADD MSTORE PUSH1 0x64 SWAP1 REVERT JUMPDEST PUSH1 0x2 PUSH1 0x0 SLOAD EQ PUSH2 0x3799 JUMPI PUSH1 0x2 PUSH1 0x0 SSTORE JUMP JUMPDEST PUSH1 0x40 MLOAD PUSH3 0x461BCD PUSH1 0xE5 SHL DUP2 MSTORE PUSH1 0x20 PUSH1 0x4 DUP3 ADD MSTORE PUSH1 0x1F PUSH1 0x24 DUP3 ADD MSTORE PUSH32 0x5265656E7472616E637947756172643A207265656E7472616E742063616C6C00 PUSH1 0x44 DUP3 ADD MSTORE PUSH1 0x64 SWAP1 REVERT JUMPDEST DUP2 DUP2 MUL SWAP3 SWAP2 DUP2 ISZERO SWAP2 DUP5 DIV EQ OR ISZERO PUSH2 0x3624 JUMPI JUMP JUMPDEST ISZERO PUSH2 0x37F8 JUMPI JUMP JUMPDEST PUSH1 0x40 MLOAD PUSH3 0x461BCD PUSH1 0xE5 SHL DUP2 MSTORE PUSH1 0x20 PUSH1 0x4 DUP3 ADD MSTORE PUSH1 0x14 PUSH1 0x24 DUP3 ADD MSTORE PUSH20 0x125B9CDD59999A58DA595B9D081C185E5B595B9D PUSH1 0x62 SHL PUSH1 0x44 DUP3 ADD MSTORE PUSH1 0x64 SWAP1 REVERT JUMPDEST ISZERO PUSH2 0x383B JUMPI JUMP JUMPDEST PUSH1 0x40 MLOAD PUSH3 0x461BCD PUSH1 0xE5 SHL DUP2 MSTORE PUSH1 0x20 PUSH1 0x4 DUP3 ADD MSTORE PUSH1 0x1C PUSH1 0x24 DUP3 ADD MSTORE PUSH32 0x506C6174666F726D20666565207472616E73666572206661696C656400000000 PUSH1 0x44 DUP3 ADD MSTORE PUSH1 0x64 SWAP1 REVERT JUMPDEST SWAP2 SWAP1 DUP3 ADD DUP1 SWAP3 GT PUSH2 0x3624 JUMPI JUMP JUMPDEST MLOAD SWAP1 PUSH10 0xFFFFFFFFFFFFFFFFFFFF DUP3 AND DUP3 SUB PUSH2 0x348F JUMPI JUMP JUMPDEST PUSH1 0xB SLOAD PUSH1 0x40 MLOAD PUSH4 0x3FABE5A3 PUSH1 0xE2 SHL DUP2 MSTORE SWAP2 SWAP1 PUSH1 0xA0 SWAP1 DUP4 SWAP1 PUSH1 0x4 SWAP1 DUP3 SWAP1 PUSH1 0x1 PUSH1 0x1 PUSH1 0xA0 SHL SUB AND GAS STATICCALL SWAP2 DUP3 ISZERO PUSH2 0x39A7 JUMPI PUSH1 0x0 SWAP3 PUSH2 0x3959 JUMPI JUMPDEST POP PUSH1 0x0 DUP3 SGT ISZERO PUSH2 0x391F JUMPI PUSH9 0x56BC75E2D63100000 SWAP1 DUP2 DUP2 MUL SWAP2 DUP2 DUP4 DIV EQ SWAP1 ISZERO OR ISZERO PUSH2 0x3624 JUMPI DUP2 ISZERO PUSH2 0x3909 JUMPI DIV SWAP1 JUMP JUMPDEST PUSH4 0x4E487B71 PUSH1 0xE0 SHL PUSH1 0x0 MSTORE PUSH1 0x12 PUSH1 0x4 MSTORE PUSH1 0x24 PUSH1 0x0 REVERT JUMPDEST PUSH1 0x40 MLOAD PUSH3 0x461BCD PUSH1 0xE5 SHL DUP2 MSTORE PUSH1 0x20 PUSH1 0x4 DUP3 ADD MSTORE PUSH1 0x12 PUSH1 0x24 DUP3 ADD MSTORE PUSH18 0x125B9D985B1A59081C1C9A58D94819995959 PUSH1 0x72 SHL PUSH1 0x44 DUP3 ADD MSTORE PUSH1 0x64 SWAP1 REVERT JUMPDEST SWAP1 SWAP2 PUSH1 0xA0 DUP3 RETURNDATASIZE DUP3 GT PUSH2 0x399F JUMPI JUMPDEST DUP2 PUSH2 0x3973 PUSH1 0xA0 SWAP4 DUP4 PUSH2 0x32F9 JUMP JUMPDEST DUP2 ADD SUB SLT PUSH2 0x26F JUMPI POP PUSH2 0x3985 DUP2 PUSH2 0x388D JUMP JUMPDEST POP PUSH2 0x3997 PUSH1 0x80 PUSH1 0x20 DUP4 ADD MLOAD SWAP3 ADD PUSH2 0x388D JUMP JUMPDEST POP SWAP1 CODESIZE PUSH2 0x38DA JUMP JUMPDEST RETURNDATASIZE SWAP2 POP PUSH2 0x3966 JUMP JUMPDEST PUSH1 0x40 MLOAD RETURNDATASIZE PUSH1 0x0 DUP3 RETURNDATACOPY RETURNDATASIZE SWAP1 REVERT JUMPDEST SWAP2 SWAP1 DUP2 LT ISZERO PUSH2 0x34C2 JUMPI PUSH1 0x5 SHL ADD SWAP1 JUMP JUMPDEST CALLDATALOAD PUSH1 0x1 PUSH1 0x1 PUSH1 0xA0 SHL SUB DUP2 AND DUP2 SUB PUSH2 0x348F JUMPI SWAP1 JUMP JUMPDEST SWAP1 DUP2 PUSH1 0x20 SWAP2 SUB SLT PUSH2 0x348F JUMPI MLOAD PUSH1 0x1 PUSH1 0x1 PUSH1 0xA0 SHL SUB DUP2 AND DUP2 SUB PUSH2 0x348F JUMPI SWAP1 JUMP JUMPDEST ISZERO PUSH2 0x39FD JUMPI JUMP JUMPDEST PUSH1 0x40 MLOAD PUSH3 0x461BCD PUSH1 0xE5 SHL DUP2 MSTORE PUSH1 0x20 PUSH1 0x4 DUP3 ADD MSTORE PUSH1 0x12 PUSH1 0x24 DUP3 ADD MSTORE PUSH18 0x496E76616C69642067616D65207374617465 PUSH1 0x70 SHL PUSH1 0x44 DUP3 ADD MSTORE PUSH1 0x64 SWAP1 REVERT INVALID LOG2 PUSH5 0x6970667358 0x22 SLT KECCAK256 0xE ADDRESS CALLDATALOAD 0x4C 0xA8 0x1E PUSH22 0x1297CC3A82DA45210418A5F5FC4F86FCFA7093146F9E 0xE9 MOD CALLDATACOPY PUSH5 0x736F6C6343 STOP ADDMOD EQ STOP CALLER "},"methodIdentifiers":{"BASIS_POINTS()":"e1f1c4a7","adminBatchWithdrawNFTs(address[],uint256[],address[])":"cb9a2630","cancelGame(uint256)":"69958ab9","cancelGameWithRefund(uint256)":"623c0df2","createAndStartGame(address,address,uint256,uint256,uint8,string,string,string,bool)":"e63d8745","createGame(address,uint256,uint256,uint8,uint8,string,string,string,bool)":"e25f494b","depositCryptoForGame(uint256)":"cf309490","depositNFTForGame(uint256,address,uint256)":"f21f8025","emergencyPause()":"51858e27","emergencyWithdrawETH()":"84536017","ethUsdFeed()":"8009b7bd","games(uint256)":"117a5b90","getETHAmount(uint256)":"ef46b2ab","getGameDetails(uint256)":"1b31abda","getGameRoundDetails(uint256)":"b87b7fcc","getUserGames(address)":"120aace6","joinGame(uint256)":"efaa55a0","listingFeeUSD()":"3a38d063","nextGameId()":"b135bbb0","owner()":"8da5cb5b","paused()":"5c975abb","platformFeePercent()":"8c639a85","platformFeeReceiver()":"2d656ad7","playRound(uint256)":"019e485e","renounceOwnership()":"715018a6","setListingFee(uint256)":"131dbd09","setPlatformFee(uint256)":"12e8e2c3","transferOwnership(address)":"f2fde38b","unclaimedETH(address)":"1a68b691","unclaimedNFTs(address,address,uint256)":"aa4209b8","unclaimedUSDC(address)":"95d11520","unpause()":"3f4ba83a","usdcToken()":"11eac855","userGames(address,uint256)":"bc0167cd","withdrawNFT(address,uint256)":"6088e93a","withdrawRewards()":"c7b8981c"}}}}}