{"contracts/NFTFlipGame.sol":{"NFTFlipGame":{"abi":[{"inputs":[{"internalType":"address","name":"_ethUsdFeed","type":"address"},{"internalType":"address","name":"_usdcToken","type":"address"},{"internalType":"address","name":"_platformFeeReceiver","type":"address"}],"stateMutability":"nonpayable","type":"constructor"},{"anonymous":false,"inputs":[{"indexed":true,"internalType":"bytes32","name":"gameId","type":"bytes32"},{"indexed":false,"internalType":"address","name":"player","type":"address"},{"indexed":false,"internalType":"bool","name":"isNFT","type":"bool"},{"indexed":false,"internalType":"enum NFTFlipGame.PaymentToken","name":"paymentToken","type":"uint8"}],"name":"AssetsDeposited","type":"event"},{"anonymous":false,"inputs":[{"indexed":true,"internalType":"bytes32","name":"gameId","type":"bytes32"},{"indexed":false,"internalType":"address","name":"player","type":"address"}],"name":"AssetsReclaimed","type":"event"},{"anonymous":false,"inputs":[{"indexed":true,"internalType":"bytes32","name":"gameId","type":"bytes32"},{"indexed":false,"internalType":"string","name":"reason","type":"string"}],"name":"GameCancelled","type":"event"},{"anonymous":false,"inputs":[{"indexed":true,"internalType":"bytes32","name":"gameId","type":"bytes32"},{"indexed":false,"internalType":"address","name":"winner","type":"address"}],"name":"GameCompleted","type":"event"},{"anonymous":false,"inputs":[{"indexed":true,"internalType":"bytes32","name":"gameId","type":"bytes32"},{"indexed":false,"internalType":"address","name":"player1","type":"address"},{"indexed":false,"internalType":"address","name":"player2","type":"address"},{"indexed":false,"internalType":"enum NFTFlipGame.PaymentToken","name":"paymentToken","type":"uint8"}],"name":"GameCreated","type":"event"},{"anonymous":false,"inputs":[{"indexed":true,"internalType":"bytes32","name":"gameId","type":"bytes32"}],"name":"GameStarted","type":"event"},{"anonymous":false,"inputs":[{"indexed":true,"internalType":"address","name":"creator","type":"address"},{"indexed":false,"internalType":"uint256","name":"amount","type":"uint256"}],"name":"ListingFeePaid","type":"event"},{"anonymous":false,"inputs":[{"indexed":true,"internalType":"address","name":"previousOwner","type":"address"},{"indexed":true,"internalType":"address","name":"newOwner","type":"address"}],"name":"OwnershipTransferred","type":"event"},{"anonymous":false,"inputs":[{"indexed":false,"internalType":"address","name":"account","type":"address"}],"name":"Paused","type":"event"},{"anonymous":false,"inputs":[{"indexed":false,"internalType":"address","name":"account","type":"address"}],"name":"Unpaused","type":"event"},{"inputs":[],"name":"BASIS_POINTS","outputs":[{"internalType":"uint256","name":"","type":"uint256"}],"stateMutability":"view","type":"function"},{"inputs":[{"internalType":"address[]","name":"nftContracts","type":"address[]"},{"internalType":"uint256[]","name":"tokenIds","type":"uint256[]"},{"internalType":"address[]","name":"recipients","type":"address[]"}],"name":"adminBatchWithdrawNFTs","outputs":[],"stateMutability":"nonpayable","type":"function"},{"inputs":[{"internalType":"bytes32","name":"gameId","type":"bytes32"}],"name":"canDeposit","outputs":[{"internalType":"bool","name":"","type":"bool"}],"stateMutability":"view","type":"function"},{"inputs":[{"internalType":"bytes32","name":"gameId","type":"bytes32"}],"name":"canStartGame","outputs":[{"internalType":"bool","name":"","type":"bool"}],"stateMutability":"view","type":"function"},{"inputs":[{"internalType":"bytes32","name":"gameId","type":"bytes32"}],"name":"cancelGame","outputs":[],"stateMutability":"nonpayable","type":"function"},{"inputs":[{"internalType":"bytes32","name":"gameId","type":"bytes32"},{"internalType":"address","name":"winner","type":"address"}],"name":"completeGame","outputs":[],"stateMutability":"nonpayable","type":"function"},{"inputs":[{"internalType":"bytes32","name":"gameId","type":"bytes32"}],"name":"depositETH","outputs":[],"stateMutability":"payable","type":"function"},{"inputs":[{"internalType":"bytes32","name":"gameId","type":"bytes32"}],"name":"depositNFT","outputs":[],"stateMutability":"nonpayable","type":"function"},{"inputs":[],"name":"depositTimeout","outputs":[{"internalType":"uint256","name":"","type":"uint256"}],"stateMutability":"view","type":"function"},{"inputs":[{"internalType":"bytes32","name":"gameId","type":"bytes32"},{"internalType":"uint256","name":"amount","type":"uint256"}],"name":"depositUSDC","outputs":[],"stateMutability":"nonpayable","type":"function"},{"inputs":[],"name":"emergencyPause","outputs":[],"stateMutability":"nonpayable","type":"function"},{"inputs":[],"name":"emergencyWithdrawETH","outputs":[],"stateMutability":"nonpayable","type":"function"},{"inputs":[{"internalType":"address","name":"nftContract","type":"address"},{"internalType":"uint256","name":"tokenId","type":"uint256"},{"internalType":"address","name":"to","type":"address"}],"name":"emergencyWithdrawNFT","outputs":[],"stateMutability":"nonpayable","type":"function"},{"inputs":[],"name":"ethUsdFeed","outputs":[{"internalType":"contract AggregatorV3Interface","name":"","type":"address"}],"stateMutability":"view","type":"function"},{"inputs":[{"internalType":"bytes32","name":"","type":"bytes32"}],"name":"games","outputs":[{"internalType":"address","name":"player1","type":"address"},{"internalType":"address","name":"player2","type":"address"},{"internalType":"address","name":"nftContract","type":"address"},{"internalType":"uint256","name":"tokenId","type":"uint256"},{"internalType":"uint256","name":"ethAmount","type":"uint256"},{"internalType":"uint256","name":"usdcAmount","type":"uint256"},{"internalType":"enum NFTFlipGame.PaymentToken","name":"paymentToken","type":"uint8"},{"internalType":"uint256","name":"depositTime","type":"uint256"},{"internalType":"bool","name":"player1Deposited","type":"bool"},{"internalType":"bool","name":"player2Deposited","type":"bool"},{"internalType":"bool","name":"completed","type":"bool"},{"internalType":"address","name":"winner","type":"address"}],"stateMutability":"view","type":"function"},{"inputs":[{"internalType":"uint256","name":"usdAmount","type":"uint256"}],"name":"getETHAmount","outputs":[{"internalType":"uint256","name":"","type":"uint256"}],"stateMutability":"view","type":"function"},{"inputs":[{"internalType":"bytes32","name":"gameId","type":"bytes32"}],"name":"getGameDetails","outputs":[{"internalType":"address","name":"player1","type":"address"},{"internalType":"address","name":"player2","type":"address"},{"internalType":"address","name":"nftContract","type":"address"},{"internalType":"uint256","name":"tokenId","type":"uint256"},{"internalType":"uint256","name":"ethAmount","type":"uint256"},{"internalType":"uint256","name":"usdcAmount","type":"uint256"},{"internalType":"enum NFTFlipGame.PaymentToken","name":"paymentToken","type":"uint8"},{"internalType":"uint256","name":"depositTime","type":"uint256"},{"internalType":"bool","name":"player1Deposited","type":"bool"},{"internalType":"bool","name":"player2Deposited","type":"bool"},{"internalType":"bool","name":"completed","type":"bool"},{"internalType":"address","name":"winner","type":"address"}],"stateMutability":"view","type":"function"},{"inputs":[{"internalType":"uint256","name":"usdAmount","type":"uint256"}],"name":"getUSDCAmount","outputs":[{"internalType":"uint256","name":"","type":"uint256"}],"stateMutability":"pure","type":"function"},{"inputs":[{"internalType":"address","name":"user","type":"address"}],"name":"getUserGames","outputs":[{"internalType":"bytes32[]","name":"","type":"bytes32[]"}],"stateMutability":"view","type":"function"},{"inputs":[{"internalType":"bytes32","name":"gameId","type":"bytes32"},{"internalType":"address","name":"player1","type":"address"},{"internalType":"address","name":"player2","type":"address"},{"internalType":"address","name":"nftContract","type":"address"},{"internalType":"uint256","name":"tokenId","type":"uint256"},{"internalType":"uint256","name":"priceUSD","type":"uint256"},{"internalType":"enum NFTFlipGame.PaymentToken","name":"paymentToken","type":"uint8"}],"name":"initializeGame","outputs":[],"stateMutability":"nonpayable","type":"function"},{"inputs":[],"name":"listingFeeUSD","outputs":[{"internalType":"uint256","name":"","type":"uint256"}],"stateMutability":"view","type":"function"},{"inputs":[{"internalType":"address","name":"","type":"address"}],"name":"listingFees","outputs":[{"internalType":"uint256","name":"","type":"uint256"}],"stateMutability":"view","type":"function"},{"inputs":[],"name":"owner","outputs":[{"internalType":"address","name":"","type":"address"}],"stateMutability":"view","type":"function"},{"inputs":[],"name":"paused","outputs":[{"internalType":"bool","name":"","type":"bool"}],"stateMutability":"view","type":"function"},{"inputs":[],"name":"payListingFee","outputs":[],"stateMutability":"payable","type":"function"},{"inputs":[],"name":"platformFeePercent","outputs":[{"internalType":"uint256","name":"","type":"uint256"}],"stateMutability":"view","type":"function"},{"inputs":[],"name":"platformFeeReceiver","outputs":[{"internalType":"address","name":"","type":"address"}],"stateMutability":"view","type":"function"},{"inputs":[{"internalType":"bytes32","name":"gameId","type":"bytes32"}],"name":"reclaimAssets","outputs":[],"stateMutability":"nonpayable","type":"function"},{"inputs":[],"name":"renounceOwnership","outputs":[],"stateMutability":"nonpayable","type":"function"},{"inputs":[{"internalType":"uint256","name":"newTimeout","type":"uint256"}],"name":"setDepositTimeout","outputs":[],"stateMutability":"nonpayable","type":"function"},{"inputs":[{"internalType":"uint256","name":"newFee","type":"uint256"}],"name":"setListingFee","outputs":[],"stateMutability":"nonpayable","type":"function"},{"inputs":[{"internalType":"uint256","name":"newPercent","type":"uint256"}],"name":"setPlatformFee","outputs":[],"stateMutability":"nonpayable","type":"function"},{"inputs":[{"internalType":"address","name":"newOwner","type":"address"}],"name":"transferOwnership","outputs":[],"stateMutability":"nonpayable","type":"function"},{"inputs":[],"name":"unpause","outputs":[],"stateMutability":"nonpayable","type":"function"},{"inputs":[],"name":"usdcToken","outputs":[{"internalType":"address","name":"","type":"address"}],"stateMutability":"view","type":"function"},{"inputs":[{"internalType":"address","name":"","type":"address"},{"internalType":"uint256","name":"","type":"uint256"}],"name":"userGames","outputs":[{"internalType":"bytes32","name":"","type":"bytes32"}],"stateMutability":"view","type":"function"}],"evm":{"bytecode":{"linkReferences":{},"object":"6080346200011157601f62002cd438819003918201601f19168301916001600160401b03831184841017620001165780849260609460405283398101031262000111576200004d816200012c565b62000069604062000061602085016200012c565b93016200012c565b916001600055600154926040519360018060a01b03928391338382167f8be0079c531659141344cd1fd0a4f28419497f9722a3daafe3b4186f6b6457e0600080a36001600160a81b0319163360ff60a01b19161760015562030d4060055561015e6006556078600755600980546001600160a01b0319908116968416969096179055600a8054861691909216179055600880549093169116179055612b929081620001428239f35b600080fd5b634e487b7160e01b600052604160045260246000fd5b51906001600160a01b0382168203620001115756fe6080806040526004908136101561001557600080fd5b60009060e08235811c91826311eac8551461243c57508163120aace61461238e57816312e8e2c314612332578163131dbd09146123105781631fd462cd146122f1578163276273731461226c5781632d656ad7146122435781633a38d063146122255781633f4ba83a146121865781633f7121b01461206b57816351858e27146120085781635717722414611e6c5781635c975abb14611e46578163615318c714611e28578163691ddd7d14611b165781636dbf27631461168d578163715018a61461162f5781637c34c355146113485781637f80e6f2146112525781638009b7bd1461122957816384536017146111b45781638a1fa0291461104b5781638c639a851461102d5781638da5cb5b14611004578163b1a8129514610f61578163b262f41f14610e28578163bc0167cd14610dd0578163cb9a263014610a58578163d68d9d4e146107c9578163e1f1c4a7146107ac578163e9df30271461047c578163ef46b2ab14610455578163f060ad4c1461041c578163f2fde38b1461034c578163f372e33c1461023e575063f579f882146101b157600080fd5b3461023b57602036600319011261023b576040908235815260026020522061023760018060a01b039182815416908360018201541690846002820154169260038201549682015491600581015460ff6006830154169060086007840154930154946040519a8b9a8760181c169860ff8860101c169860ff808a60081c169916978d6124c6565b0390f35b80fd5b83915034610348576020366003190112610348576040602093833581526002855220916008604051936102708561263e565b80546001600160a01b039081168652600182015481168787015260028201548116604087015260038201546060870152928101546080860152600581015460a086015260068101546102c89060ff1660c087016127a3565b6007810154809486015201549260ff8416151561010082015260ff8460081c1615156101208201528160ff8560101c161594851561014084015260181c16610160820152511615159182610340575b5081610329575b506040519015158152f35b6103379150600754906125f1565b4211158261031e565b915083610317565b8280fd5b82843461041857602036600319011261041857610367612461565b61036f612599565b6001600160a01b039081169182156103c55750600154826bffffffffffffffffffffffff60a01b821617600155167f8be0079c531659141344cd1fd0a4f28419497f9722a3daafe3b4186f6b6457e0600080a380f35b60849060206040519162461bcd60e51b8352820152602660248201527f4f776e61626c653a206e6577206f776e657220697320746865207a65726f206160448201526564647265737360d01b6064820152fd5b5080fd5b823461023b57602036600319011261023b576020906040906001600160a01b03610444612461565b168152600383522054604051908152f35b50503461023b57602036600319011261023b5760206104748335612a29565b604051908152f35b8284346104185760403660031901126104185780359061049a612477565b6104a2612599565b6104aa61274d565b82845260209160028352604085209160018060a01b039283815416936104d18515156127e9565b6008820180546104e760ff8260101c161561298f565b60ff81168061079f575b15610764578285169687148015610755575b156107205762010000600160b81b031916601885901b6301000000600160b81b031617620100001790558781600284015416600384015490803b1561034857604080516323b872dd60e01b815230818a019081526001600160a01b0389166020820152918201939093528391839182908490829060600103925af18015610715576106fd575b505060ff60068301541660028110156106ea57889392919061062c57508280928582930154905af16105b961267d565b50156105f25750907f0bf6aee0a93e0c0696509fac1649343cafc5bf013811646e438330fe86e4c15f915b604051908152a26001815580f35b60405162461bcd60e51b81529081018390526013602482015272115512081d1c985b9cd9995c8819985a5b1959606a1b6044820152606490fd5b600a54600592909201546040805163a9059cbb60e01b81526001600160a01b03959095169685019687526020870191909152929695948694889491859003909101928492165af19283156106df577f0bf6aee0a93e0c0696509fac1649343cafc5bf013811646e438330fe86e4c15f936106ad9187916106b2575b5061294c565b6105e4565b6106d29150843d86116106d8575b6106ca818361265b565b810190612934565b876106a7565b503d6106c0565b6040513d87823e3d90fd5b634e487b7160e01b895260218552602489fd5b61070690612614565b610711578789610589565b8780fd5b6040513d84823e3d90fd5b60405162461bcd60e51b8152808701899052600e60248201526d24b73b30b634b2103bb4b73732b960911b6044820152606490fd5b50826001850154168714610503565b60405162461bcd60e51b81528087018990526014602482015273105cdcd95d1cc81b9bdd0819195c1bdcda5d195960621b6044820152606490fd5b5060ff8160081c166104f1565b823461023b578060031936011261023b5760206040516127108152f35b8260208536600319018213610348578035916107e361274d565b6107eb612706565b828452600281526040842060018101546001600160a01b0392919061081e9084166108178115156127e9565b33146128e6565b600881019283549460ff95610838878260081c161561282b565b610847878260101c161561286b565b61086361085b6007860154600754906125f1565b4211156128a8565b6006840193878554166002811015610a4557610a0f5782019182549361271061088e60065487612921565b04928534106109d8578b80858194610100839561ff001916178d55600854165af16108b761267d565b50156109945750867f981102f46f858a9ad42e0e3924c2ee3ddb912d9d6d28768155ffdb174c81711f94606094846108f5610919958d9a97546126bd565b90558b81341161096c575b50505416896040519333855284015260408301906124a3565ba25490808216918261095f575b5050610935575b506001815580f35b7fee5528ba4f234f658c6a97a7e3cba5532e7aad23bb249be4141b62e6a0158a7c8280a28161092d565b60081c1690508380610926565b80808061097c61098d95346126bd565b335af161098761267d565b506126ca565b8b8b610900565b60405162461bcd60e51b8152908101869052601c60248201527f506c6174666f726d20666565207472616e73666572206661696c6564000000006044820152606490fd5b60405162461bcd60e51b8152808401899052601060248201526f092dce6eaccccd2c6d2cadce8408aa8960831b6044820152606490fd5b60405162461bcd60e51b8152808401879052600f60248201526e4e6f7420616e204554482067616d6560881b6044820152606490fd5b634e487b7160e01b8b526021845260248bfd5b8284346104185760603660031901126104185767ffffffffffffffff908035828111610c9157610a8b9036908301612568565b9190926024928335828111610dcc57610aa79036908501612568565b6044938435908111610dc857610ac09036908701612568565b610acb929192612599565b81851480610dbf575b15610d7d579288928a98959289955b848710610aee578a80f35b9899979896976001600160a01b0397909688610b13610b0e83898b612b38565b612b48565b1615610d445788610b28610b0e838588612b38565b1615610d0e5788610b3d610b0e83898b612b38565b16988c610b4b838689612b38565b359a6040519b8c926331a9108f60e11b8452830152818d60209d8e935afa8a9181610cd6575b50610bb9575060405162461bcd60e51b8152808e018b9052601d818d01527f4661696c656420746f20636865636b204e4654206f776e657273686970000000818e0152606490fd5b81929394959697989c999d9a9130911603610c9557508b90610bdf610b0e848a8f612b38565b16610bee610b0e848689612b38565b610bf984878a612b38565b35823b15610c9157604080516323b872dd60e01b815230818f019081526001600160a01b0390941660208501529083019190915291839183919082908490829060600103925af1801561071557610c79575b50506000198114610c6757600101959796989493929190610ae3565b634e487b7160e01b8b5260118852888bfd5b610c8290612614565b610c8d578a8c610c4b565b8a80fd5b8380fd5b897f436f6e747261637420646f6573206e6f74206f776e2074686973204e465400008a601e8e6064956040519562461bcd60e51b8752860152840152820152fd5b9091508b81813d8311610d07575b610cee818361265b565b81010312610c8d57518281168103610c8d57908f610b71565b503d610ce4565b60405162461bcd60e51b81526020818e01526011818c015270125b9d985b1a59081c9958da5c1a595b9d607a1b818d0152606490fd5b60405162461bcd60e51b81526020818e01526014818c015273125b9d985b1a59081391950818dbdb9d1c9858dd60621b818d0152606490fd5b60405162461bcd60e51b81526020818901526018818a01527f4172726179206c656e67746873206d757374206d61746368000000000000000081880152606490fd5b50808214610ad4565b8880fd5b8680fd5b50503461023b57604036600319011261023b57610deb612461565b6001600160a01b03168152602091909152604081208054602435929083101561023b576020610e1a848461253a565b90546040519160031b1c8152f35b82848160031936011261041857610e3d61274d565b610e45612706565b610e50600554612a29565b90813410610f1d57338352600360205260408320610e6f8382546125f1565b9055828080808560018060a01b03600854165af1610e8b61267d565b5015610ee35750803411610ecd575b6040519081527f3a5f70a82eb571b0a884a01d171c139c6ec5169ba9e11e00d211cb4f76391e1460203392a26001815580f35b610ede8280808061097c86346126bd565b610e9a565b60649060206040519162461bcd60e51b83528201526013602482015272119959481d1c985b9cd9995c8819985a5b1959606a1b6044820152fd5b60649060206040519162461bcd60e51b8352820152601860248201527f496e73756666696369656e74206c697374696e672066656500000000000000006044820152fd5b8280853461100157606036600319011261100157610f7d612461565b610f8561248d565b90610f8e612599565b6001600160a01b031691823b15610ffc57604080516323b872dd60e01b8152309281019283526001600160a01b039093166020830152602435908201529091839183919082908490829060600103925af1801561071557610fec5750f35b610ff590612614565b61023b5780f35b505050fd5b50fd5b823461023b578060031936011261023b576001546040516001600160a01b039091168152602090f35b823461023b578060031936011261023b576020600654604051908152f35b9190503461023b57602036600319011261023b5782358152600260205260408120916040516110798161263e565b60018060a01b03845416815260018060a01b03600185015416926020820193845260018060a01b03600286015416946040830195865260038101549360608401948552878201549260808501938452600860058401549360a087019485526110eb60ff60068301541660c089016127a3565b6007810154938701938452015460ff8082161515610100880152600882901c81161515610120880152601082901c16151561014087015260181c6001600160a01b0390811661016087015285519751985196519451935160c0870151998216999882169897909116969092909160028310156111a1575061023797989950519161010086015115159361012087015115159561014088015115159761016060018060a01b0391015116986040519c8d9c8d6124c6565b634e487b7160e01b815260218b52602490fd5b8284346104185781600319360112610418576111ce612599565b8180808060018060a01b036001541647905af16111e961267d565b50156111f3575080f35b60649060206040519162461bcd60e51b8352820152600f60248201526e151c985b9cd9995c8819985a5b1959608a1b6044820152fd5b823461023b578060031936011261023b576009546040516001600160a01b039091168152602090f35b905082346103485760203660031901126103485760086040602094833581526002865220604051936112838561263e565b81546001600160a01b039081168652600183015481168787015260028301548116604087015260038301546060870152938201546080860152600582015460a086015260068201546112db9060ff1660c087016127a3565b60078201549085015201549060ff82161515928361010082015261016060ff8460081c161515928361012084015260ff8560101c161594851561014085015260181c1691015282611340575b508161133857506040519015158152f35b90508261031e565b915083611327565b8284346104185760403660031901126104185780359061136661274d565b61136e612706565b818352600260209081526040842060018101546001600160a01b0392919061139d9084166108178115156127e9565b6008810192835460ff956113b6878360081c161561282b565b6113c5878360101c161561286b565b6113d961085b6007860154600754906125f1565b600684019387855416600281101561161c576001036115e65760050192835461271061140760065483612921565b049381602435106115ae5761ff001916610100178855600a54604080516323b872dd60e01b815233868201908152306020820152918201939093528c9392918991839185169082908790829060600103925af19182156115a357611477899387936114b29691611586575061294c565b80600a541690600854168d60405180968195829463a9059cbb60e01b84528a840160209093929193604081019460018060a01b031681520152565b03925af190811561157b578a9161155e575b501561151a575092610919867f981102f46f858a9ad42e0e3924c2ee3ddb912d9d6d28768155ffdb174c81711f94846115018b98606097546126bd565b90555416896040519333855284015260408301906124a3565b60405162461bcd60e51b8152908101859052601860248201527f5553444320666565207472616e73666572206661696c656400000000000000006044820152606490fd5b6115759150863d88116106d8576106ca818361265b565b8a6114c4565b6040513d8c823e3d90fd5b61159d9150853d87116106d8576106ca818361265b565b8f6106a7565b6040513d85823e3d90fd5b60405162461bcd60e51b81528085018990526011602482015270496e73756666696369656e74205553444360781b6044820152606490fd5b60405162461bcd60e51b8152808301879052600f60248201526e4e6f74206120555344432067616d6560881b6044820152606490fd5b634e487b7160e01b8b526021835260248bfd5b823461023b578060031936011261023b57611648612599565b600180546001600160a01b031981169091556000906001600160a01b03167f8be0079c531659141344cd1fd0a4f28419497f9722a3daafe3b4186f6b6457e08280a380f35b8284346104185760209081600319360112610348578035916116ad61274d565b8284526002815260408420805490926001600160a01b03918216906116d38215156127e9565b6008850191825460ff916116ec838360101c161561286b565b6116fd6007890154600754906125f1565b421115611adc5733148015611acd575b15611a9a5788939291908181168080611a8d575b156117f15750505083865416916117398333146129d4565b805462ff000019166201000017905560028601546003870154908516803b156117ed57604080516323b872dd60e01b8152309481019485526001600160a01b039095166020850152830191909152839183919082908490829060600103925af18015610715576117d9575b50507fbeb9db71629193a6a8d82214e24ce084d5f6b1c980d4cda5cec9139a2ea33832925416604051908152a25b6001815580f35b6117e290612614565b6117ed5784866117a4565b8480fd5b90919596979392945015808091611a81575b156119f55750506001820193858554169161181f8333146129d4565b805462ff000019166201000017905560068301541660028110156119e25788929187916118ea5750508180809261186d868989541692015461271061186660065483612921565b04906125f1565b905af161187861267d565b50156118b25750907fbeb9db71629193a6a8d82214e24ce084d5f6b1c980d4cda5cec9139a2ea3383292915b5416604051908152a26117d2565b60405162461bcd60e51b81529081018490526011602482015270115512081c99599d5b990819985a5b1959607a1b6044820152606490fd5b909161193f935061190d600588600a541692015461271061186660065483612921565b918a60405180968195829463a9059cbb60e01b84528a840160209093929193604081019460018060a01b031681520152565b03925af19081156119d75787916119ba575b50156119815750907fbeb9db71629193a6a8d82214e24ce084d5f6b1c980d4cda5cec9139a2ea3383292916118a4565b60405162461bcd60e51b815290810184905260126024820152711554d110c81c99599d5b990819985a5b195960721b6044820152606490fd5b6119d19150853d87116106d8576106ca818361265b565b87611951565b6040513d89823e3d90fd5b634e487b7160e01b895260218452602489fd5b935094509492905081611a73575b50611a12575b505050506117d2565b7fd48b0c9992d8d4b8967d1584dc8c1955390d9ff30639a7da9c77e7f0db86c3d8926201000060609362ff000019161790556010604051918083528201526f4e6f206465706f73697473206d61646560801b6040820152a281808080611a09565b90508260081c161586611a03565b50858260081c16611803565b50828260081c1615611721565b60405162461bcd60e51b8152808401879052600c60248201526b2737ba103090383630bcb2b960a11b6044820152606490fd5b5084600188015416331461170d565b60405162461bcd60e51b81528085018890526013602482015272151a5b595bdd5d081b9bdd081c995858da1959606a1b6044820152606490fd5b90508234610348578160031936011261034857611b31612477565b611b3961248d565b906064356001600160a01b03811690819003611e235760a4359460c43593600285101561071157611b68612599565b85358852600260205260408820546001600160a01b0316611de9576001600160a01b0393841696931692868414611da55787908186611d9d5750611bab90612a29565b60405193611bb88561263e565b88855285602086015260408501526084356060850152608084015260a0830152611be58460c084016127a3565b428183015286610100830152866101208301528661014083015286610160830152843587526002602052604087209060018060a01b038351166bffffffffffffffffffffffff60a01b90818454161783556001830160018060a01b0360208601511682825416179055600283019060018060a01b03604086015116908254161790556060830151600383015560808301518683015560a083015160058301556006820160c08401516002811015611d8a57815460ff191660ff9182161790915590830151600783015561010083015160089283018054610120860151610140870151610160909701516301000000600160b81b0360189190911b1662ff000097151560101b9790971661ff0091151590961b169215159093166001600160b81b03199093169290921717919091179190911790557f212c0bdcf42696e85cddf68fc1623b3327138b7898282f7356ab7ec713e9cf32926060929091611d84919086885283602052611d5a843560408a206127af565b80885283602052611d6f843560408a206127af565b604051968752602087015260408601906124a3565b3592a280f35b634e487b7160e01b8a526021885260248afd5b915090611bab565b60405162461bcd60e51b8152602081880152601c60248201527f43616e6e6f7420706c617920616761696e737420796f757273656c66000000006044820152606490fd5b60405162461bcd60e51b8152602081880152601360248201527247616d6520616c72656164792065786973747360681b6044820152606490fd5b600080fd5b823461023b578060031936011261023b576020600754604051908152f35b823461023b578060031936011261023b57602060ff60015460a01c166040519015158152f35b82843461041857602036600319011261041857803590611e8a61274d565b611e92612706565b81835260026020526040832080546001600160a01b0392908316611eb78115156127e9565b3303611fd557846008830193611ee060ff8654611ed68282161561282b565b60101c161561286b565b611ef461085b6007860154600754906125f1565b600284015416600384015490803b1561034857604080516323b872dd60e01b81523395810195865230602087015290850192909252909283919082908490829060600103925af180156106df57611fc1575b5083600191847f981102f46f858a9ad42e0e3924c2ee3ddb912d9d6d28768155ffdb174c81711f606060ff6006885495888319881617809a55015416611f9c6040519133835288602084015260408301906124a3565ba216179081611fb3575b5061093557506001815580f35b60ff915060081c1683611fa6565b93611fce60019295612614565b9390611f46565b60649060206040519162461bcd60e51b8352820152600c60248201526b4e6f7420706c61796572203160a01b6044820152fd5b823461023b578060031936011261023b57612021612599565b612029612706565b6001805460ff60a01b1916600160a01b1790556040513381527f62e78cea01bee320cd4e420270b5ea74000d11b0c9f74754ebdbfc544b05a25890602090a180f35b82843461041857602036600319011261041857803590612089612599565b8183526002602052604083208054600891906120af906001600160a01b031615156127e9565b01908154906120c460ff8360101c161561298f565b60ff82161580612178575b156121345750620100009062ff000019161790557fd48b0c9992d8d4b8967d1584dc8c1955390d9ff30639a7da9c77e7f0db86c3d8606060405160208152601360208201527243616e63656c6c65642062792073797374656d60681b6040820152a280f35b60649060206040519162461bcd60e51b8352820152601c60248201527f43616e6e6f742063616e63656c206166746572206465706f73697473000000006044820152fd5b5060ff8260081c16156120cf565b8284346104185781600319360112610418576121a0612599565b6001549060ff8260a01c16156121ea575060ff60a01b19166001556040513381527f5db9ee0a495bf2e6ff9c91a7834c1ba4fdd244a5e8aa4e537bd38aeae4b073aa90602090a180f35b60649060206040519162461bcd60e51b8352820152601460248201527314185d5cd8589b194e881b9bdd081c185d5cd95960621b6044820152fd5b823461023b578060031936011261023b576020600554604051908152f35b823461023b578060031936011261023b576008546040516001600160a01b039091168152602090f35b8284346104185760203660031901126104185780359061228a612599565b603c821015806122e5575b156122a1575060075580f35b60649060206040519162461bcd60e51b8352820152601c60248201527f54696d656f7574206d75737420626520312d3130206d696e75746573000000006044820152fd5b50610258821115612295565b8284346104185760203660031901126104185760209060405190358152f35b8284346104185760203660031901126104185761232b612599565b3560055580f35b82843461041857602036600319011261041857803590612350612599565b6103e88211612360575060065580f35b60649060206040519162461bcd60e51b835282015260076024820152664d61782031302560c81b6044820152fd5b8284346104185760209081600319360112610348576001600160a01b036123b3612461565b16835281526040822060405192838383549182815201908193835284832090835b81811061242857505050846123ea91038561265b565b60405193838594850191818652518092526040850193925b82811061241157505050500390f35b835185528695509381019392810192600101612402565b8254845292860192600192830192016123d4565b839034610418578160031936011261041857600a546001600160a01b03168152602090f35b600435906001600160a01b0382168203611e2357565b602435906001600160a01b0382168203611e2357565b604435906001600160a01b0382168203611e2357565b9060028210156124b05752565b634e487b7160e01b600052602160045260246000fd5b9a979491999693909c9b9895929c6101808c019d8c600160a01b60019003809d8180951683521690602001521660408c015260608b015260808a015260a089015260c08801612514916124a3565b60e087015215156101008601521515610120850152151561014084015216906101600152565b80548210156125525760005260206000200190600090565b634e487b7160e01b600052603260045260246000fd5b9181601f84011215611e235782359167ffffffffffffffff8311611e23576020808501948460051b010111611e2357565b6001546001600160a01b031633036125ad57565b606460405162461bcd60e51b815260206004820152602060248201527f4f776e61626c653a2063616c6c6572206973206e6f7420746865206f776e65726044820152fd5b919082018092116125fe57565b634e487b7160e01b600052601160045260246000fd5b67ffffffffffffffff811161262857604052565b634e487b7160e01b600052604160045260246000fd5b610180810190811067ffffffffffffffff82111761262857604052565b90601f8019910116810190811067ffffffffffffffff82111761262857604052565b3d156126b8573d9067ffffffffffffffff821161262857604051916126ac601f8201601f19166020018461265b565b82523d6000602084013e565b606090565b919082039182116125fe57565b156126d157565b60405162461bcd60e51b815260206004820152600d60248201526c1499599d5b990819985a5b1959609a1b6044820152606490fd5b60ff60015460a01c1661271557565b60405162461bcd60e51b815260206004820152601060248201526f14185d5cd8589b194e881c185d5cd95960821b6044820152606490fd5b60026000541461275e576002600055565b60405162461bcd60e51b815260206004820152601f60248201527f5265656e7472616e637947756172643a207265656e7472616e742063616c6c006044820152606490fd5b60028210156124b05752565b805468010000000000000000811015612628576127d19160018201815561253a565b819291549060031b91821b91600019901b1916179055565b156127f057565b60405162461bcd60e51b815260206004820152601360248201527211d85b5948191bd95cc81b9bdd08195e1a5cdd606a1b6044820152606490fd5b1561283257565b60405162461bcd60e51b8152602060048201526011602482015270105b1c9958591e4819195c1bdcda5d1959607a1b6044820152606490fd5b1561287257565b60405162461bcd60e51b815260206004820152600e60248201526d11d85b594818dbdb5c1b195d195960921b6044820152606490fd5b156128af57565b60405162461bcd60e51b815260206004820152600f60248201526e11195c1bdcda5d081d1a5b595bdd5d608a1b6044820152606490fd5b156128ed57565b60405162461bcd60e51b815260206004820152600c60248201526b2737ba10383630bcb2b9101960a11b6044820152606490fd5b818102929181159184041417156125fe57565b90816020910312611e2357518015158103611e235790565b1561295357565b60405162461bcd60e51b81526020600482015260146024820152731554d110c81d1c985b9cd9995c8819985a5b195960621b6044820152606490fd5b1561299657565b60405162461bcd60e51b815260206004820152601660248201527511d85b5948185b1c9958591e4818dbdb5c1b195d195960521b6044820152606490fd5b156129db57565b60405162461bcd60e51b815260206004820152600f60248201526e4e6f7420796f75722061737365747360881b6044820152606490fd5b519069ffffffffffffffffffff82168203611e2357565b600954604051633fabe5a360e21b8152919060a090839060049082906001600160a01b03165afa918215612b2c57600092612ade575b506000821315612aa45768056bc75e2d63100000908181029181830414901517156125fe578115612a8e570490565b634e487b7160e01b600052601260045260246000fd5b60405162461bcd60e51b8152602060048201526012602482015271125b9d985b1a59081c1c9a58d9481999595960721b6044820152606490fd5b909160a0823d8211612b24575b81612af860a0938361265b565b8101031261023b5750612b0a81612a12565b50612b1c608060208301519201612a12565b509038612a5f565b3d9150612aeb565b6040513d6000823e3d90fd5b91908110156125525760051b0190565b356001600160a01b0381168103611e23579056fea26469706673582212202f2f4cbc6db2ebf1f4cdc473b1bb944ae995752ca1eef900ebf5bd1f53a3ea1264736f6c63430008140033","opcodes":"PUSH1 0x80 CALLVALUE PUSH3 0x111 JUMPI PUSH1 0x1F PUSH3 0x2CD4 CODESIZE DUP2 SWAP1 SUB SWAP2 DUP3 ADD PUSH1 0x1F NOT AND DUP4 ADD SWAP2 PUSH1 0x1 PUSH1 0x1 PUSH1 0x40 SHL SUB DUP4 GT DUP5 DUP5 LT OR PUSH3 0x116 JUMPI DUP1 DUP5 SWAP3 PUSH1 0x60 SWAP5 PUSH1 0x40 MSTORE DUP4 CODECOPY DUP2 ADD SUB SLT PUSH3 0x111 JUMPI PUSH3 0x4D DUP2 PUSH3 0x12C JUMP JUMPDEST PUSH3 0x69 PUSH1 0x40 PUSH3 0x61 PUSH1 0x20 DUP6 ADD PUSH3 0x12C JUMP JUMPDEST SWAP4 ADD PUSH3 0x12C JUMP JUMPDEST SWAP2 PUSH1 0x1 PUSH1 0x0 SSTORE PUSH1 0x1 SLOAD SWAP3 PUSH1 0x40 MLOAD SWAP4 PUSH1 0x1 DUP1 PUSH1 0xA0 SHL SUB SWAP3 DUP4 SWAP2 CALLER DUP4 DUP3 AND PUSH32 0x8BE0079C531659141344CD1FD0A4F28419497F9722A3DAAFE3B4186F6B6457E0 PUSH1 0x0 DUP1 LOG3 PUSH1 0x1 PUSH1 0x1 PUSH1 0xA8 SHL SUB NOT AND CALLER PUSH1 0xFF PUSH1 0xA0 SHL NOT AND OR PUSH1 0x1 SSTORE PUSH3 0x30D40 PUSH1 0x5 SSTORE PUSH2 0x15E PUSH1 0x6 SSTORE PUSH1 0x78 PUSH1 0x7 SSTORE PUSH1 0x9 DUP1 SLOAD PUSH1 0x1 PUSH1 0x1 PUSH1 0xA0 SHL SUB NOT SWAP1 DUP2 AND SWAP7 DUP5 AND SWAP7 SWAP1 SWAP7 OR SWAP1 SSTORE PUSH1 0xA DUP1 SLOAD DUP7 AND SWAP2 SWAP1 SWAP3 AND OR SWAP1 SSTORE PUSH1 0x8 DUP1 SLOAD SWAP1 SWAP4 AND SWAP2 AND OR SWAP1 SSTORE PUSH2 0x2B92 SWAP1 DUP2 PUSH3 0x142 DUP3 CODECOPY RETURN JUMPDEST PUSH1 0x0 DUP1 REVERT JUMPDEST PUSH4 0x4E487B71 PUSH1 0xE0 SHL PUSH1 0x0 MSTORE PUSH1 0x41 PUSH1 0x4 MSTORE PUSH1 0x24 PUSH1 0x0 REVERT JUMPDEST MLOAD SWAP1 PUSH1 0x1 PUSH1 0x1 PUSH1 0xA0 SHL SUB DUP3 AND DUP3 SUB PUSH3 0x111 JUMPI JUMP INVALID PUSH1 0x80 DUP1 PUSH1 0x40 MSTORE PUSH1 0x4 SWAP1 DUP2 CALLDATASIZE LT ISZERO PUSH2 0x15 JUMPI PUSH1 0x0 DUP1 REVERT JUMPDEST PUSH1 0x0 SWAP1 PUSH1 0xE0 DUP3 CALLDATALOAD DUP2 SHR SWAP2 DUP3 PUSH4 0x11EAC855 EQ PUSH2 0x243C JUMPI POP DUP2 PUSH4 0x120AACE6 EQ PUSH2 0x238E JUMPI DUP2 PUSH4 0x12E8E2C3 EQ PUSH2 0x2332 JUMPI DUP2 PUSH4 0x131DBD09 EQ PUSH2 0x2310 JUMPI DUP2 PUSH4 0x1FD462CD EQ PUSH2 0x22F1 JUMPI DUP2 PUSH4 0x27627373 EQ PUSH2 0x226C JUMPI DUP2 PUSH4 0x2D656AD7 EQ PUSH2 0x2243 JUMPI DUP2 PUSH4 0x3A38D063 EQ PUSH2 0x2225 JUMPI DUP2 PUSH4 0x3F4BA83A EQ PUSH2 0x2186 JUMPI DUP2 PUSH4 0x3F7121B0 EQ PUSH2 0x206B JUMPI DUP2 PUSH4 0x51858E27 EQ PUSH2 0x2008 JUMPI DUP2 PUSH4 0x57177224 EQ PUSH2 0x1E6C JUMPI DUP2 PUSH4 0x5C975ABB EQ PUSH2 0x1E46 JUMPI DUP2 PUSH4 0x615318C7 EQ PUSH2 0x1E28 JUMPI DUP2 PUSH4 0x691DDD7D EQ PUSH2 0x1B16 JUMPI DUP2 PUSH4 0x6DBF2763 EQ PUSH2 0x168D JUMPI DUP2 PUSH4 0x715018A6 EQ PUSH2 0x162F JUMPI DUP2 PUSH4 0x7C34C355 EQ PUSH2 0x1348 JUMPI DUP2 PUSH4 0x7F80E6F2 EQ PUSH2 0x1252 JUMPI DUP2 PUSH4 0x8009B7BD EQ PUSH2 0x1229 JUMPI DUP2 PUSH4 0x84536017 EQ PUSH2 0x11B4 JUMPI DUP2 PUSH4 0x8A1FA029 EQ PUSH2 0x104B JUMPI DUP2 PUSH4 0x8C639A85 EQ PUSH2 0x102D JUMPI DUP2 PUSH4 0x8DA5CB5B EQ PUSH2 0x1004 JUMPI DUP2 PUSH4 0xB1A81295 EQ PUSH2 0xF61 JUMPI DUP2 PUSH4 0xB262F41F EQ PUSH2 0xE28 JUMPI DUP2 PUSH4 0xBC0167CD EQ PUSH2 0xDD0 JUMPI DUP2 PUSH4 0xCB9A2630 EQ PUSH2 0xA58 JUMPI DUP2 PUSH4 0xD68D9D4E EQ PUSH2 0x7C9 JUMPI DUP2 PUSH4 0xE1F1C4A7 EQ PUSH2 0x7AC JUMPI DUP2 PUSH4 0xE9DF3027 EQ PUSH2 0x47C JUMPI DUP2 PUSH4 0xEF46B2AB EQ PUSH2 0x455 JUMPI DUP2 PUSH4 0xF060AD4C EQ PUSH2 0x41C JUMPI DUP2 PUSH4 0xF2FDE38B EQ PUSH2 0x34C JUMPI DUP2 PUSH4 0xF372E33C EQ PUSH2 0x23E JUMPI POP PUSH4 0xF579F882 EQ PUSH2 0x1B1 JUMPI PUSH1 0x0 DUP1 REVERT JUMPDEST CALLVALUE PUSH2 0x23B JUMPI PUSH1 0x20 CALLDATASIZE PUSH1 0x3 NOT ADD SLT PUSH2 0x23B JUMPI PUSH1 0x40 SWAP1 DUP3 CALLDATALOAD DUP2 MSTORE PUSH1 0x2 PUSH1 0x20 MSTORE KECCAK256 PUSH2 0x237 PUSH1 0x1 DUP1 PUSH1 0xA0 SHL SUB SWAP2 DUP3 DUP2 SLOAD AND SWAP1 DUP4 PUSH1 0x1 DUP3 ADD SLOAD AND SWAP1 DUP5 PUSH1 0x2 DUP3 ADD SLOAD AND SWAP3 PUSH1 0x3 DUP3 ADD SLOAD SWAP7 DUP3 ADD SLOAD SWAP2 PUSH1 0x5 DUP2 ADD SLOAD PUSH1 0xFF PUSH1 0x6 DUP4 ADD SLOAD AND SWAP1 PUSH1 0x8 PUSH1 0x7 DUP5 ADD SLOAD SWAP4 ADD SLOAD SWAP5 PUSH1 0x40 MLOAD SWAP11 DUP12 SWAP11 DUP8 PUSH1 0x18 SHR AND SWAP9 PUSH1 0xFF DUP9 PUSH1 0x10 SHR AND SWAP9 PUSH1 0xFF DUP1 DUP11 PUSH1 0x8 SHR AND SWAP10 AND SWAP8 DUP14 PUSH2 0x24C6 JUMP JUMPDEST SUB SWAP1 RETURN JUMPDEST DUP1 REVERT JUMPDEST DUP4 SWAP2 POP CALLVALUE PUSH2 0x348 JUMPI PUSH1 0x20 CALLDATASIZE PUSH1 0x3 NOT ADD SLT PUSH2 0x348 JUMPI PUSH1 0x40 PUSH1 0x20 SWAP4 DUP4 CALLDATALOAD DUP2 MSTORE PUSH1 0x2 DUP6 MSTORE KECCAK256 SWAP2 PUSH1 0x8 PUSH1 0x40 MLOAD SWAP4 PUSH2 0x270 DUP6 PUSH2 0x263E JUMP JUMPDEST DUP1 SLOAD PUSH1 0x1 PUSH1 0x1 PUSH1 0xA0 SHL SUB SWAP1 DUP2 AND DUP7 MSTORE PUSH1 0x1 DUP3 ADD SLOAD DUP2 AND DUP8 DUP8 ADD MSTORE PUSH1 0x2 DUP3 ADD SLOAD DUP2 AND PUSH1 0x40 DUP8 ADD MSTORE PUSH1 0x3 DUP3 ADD SLOAD PUSH1 0x60 DUP8 ADD MSTORE SWAP3 DUP2 ADD SLOAD PUSH1 0x80 DUP7 ADD MSTORE PUSH1 0x5 DUP2 ADD SLOAD PUSH1 0xA0 DUP7 ADD MSTORE PUSH1 0x6 DUP2 ADD SLOAD PUSH2 0x2C8 SWAP1 PUSH1 0xFF AND PUSH1 0xC0 DUP8 ADD PUSH2 0x27A3 JUMP JUMPDEST PUSH1 0x7 DUP2 ADD SLOAD DUP1 SWAP5 DUP7 ADD MSTORE ADD SLOAD SWAP3 PUSH1 0xFF DUP5 AND ISZERO ISZERO PUSH2 0x100 DUP3 ADD MSTORE PUSH1 0xFF DUP5 PUSH1 0x8 SHR AND ISZERO ISZERO PUSH2 0x120 DUP3 ADD MSTORE DUP2 PUSH1 0xFF DUP6 PUSH1 0x10 SHR AND ISZERO SWAP5 DUP6 ISZERO PUSH2 0x140 DUP5 ADD MSTORE PUSH1 0x18 SHR AND PUSH2 0x160 DUP3 ADD MSTORE MLOAD AND ISZERO ISZERO SWAP2 DUP3 PUSH2 0x340 JUMPI JUMPDEST POP DUP2 PUSH2 0x329 JUMPI JUMPDEST POP PUSH1 0x40 MLOAD SWAP1 ISZERO ISZERO DUP2 MSTORE RETURN JUMPDEST PUSH2 0x337 SWAP2 POP PUSH1 0x7 SLOAD SWAP1 PUSH2 0x25F1 JUMP JUMPDEST TIMESTAMP GT ISZERO DUP3 PUSH2 0x31E JUMP JUMPDEST SWAP2 POP DUP4 PUSH2 0x317 JUMP JUMPDEST DUP3 DUP1 REVERT JUMPDEST DUP3 DUP5 CALLVALUE PUSH2 0x418 JUMPI PUSH1 0x20 CALLDATASIZE PUSH1 0x3 NOT ADD SLT PUSH2 0x418 JUMPI PUSH2 0x367 PUSH2 0x2461 JUMP JUMPDEST PUSH2 0x36F PUSH2 0x2599 JUMP JUMPDEST PUSH1 0x1 PUSH1 0x1 PUSH1 0xA0 SHL SUB SWAP1 DUP2 AND SWAP2 DUP3 ISZERO PUSH2 0x3C5 JUMPI POP PUSH1 0x1 SLOAD DUP3 PUSH12 0xFFFFFFFFFFFFFFFFFFFFFFFF PUSH1 0xA0 SHL DUP3 AND OR PUSH1 0x1 SSTORE AND PUSH32 0x8BE0079C531659141344CD1FD0A4F28419497F9722A3DAAFE3B4186F6B6457E0 PUSH1 0x0 DUP1 LOG3 DUP1 RETURN JUMPDEST PUSH1 0x84 SWAP1 PUSH1 0x20 PUSH1 0x40 MLOAD SWAP2 PUSH3 0x461BCD PUSH1 0xE5 SHL DUP4 MSTORE DUP3 ADD MSTORE PUSH1 0x26 PUSH1 0x24 DUP3 ADD MSTORE PUSH32 0x4F776E61626C653A206E6577206F776E657220697320746865207A65726F2061 PUSH1 0x44 DUP3 ADD MSTORE PUSH6 0x646472657373 PUSH1 0xD0 SHL PUSH1 0x64 DUP3 ADD MSTORE REVERT JUMPDEST POP DUP1 REVERT JUMPDEST DUP3 CALLVALUE PUSH2 0x23B JUMPI PUSH1 0x20 CALLDATASIZE PUSH1 0x3 NOT ADD SLT PUSH2 0x23B JUMPI PUSH1 0x20 SWAP1 PUSH1 0x40 SWAP1 PUSH1 0x1 PUSH1 0x1 PUSH1 0xA0 SHL SUB PUSH2 0x444 PUSH2 0x2461 JUMP JUMPDEST AND DUP2 MSTORE PUSH1 0x3 DUP4 MSTORE KECCAK256 SLOAD PUSH1 0x40 MLOAD SWAP1 DUP2 MSTORE RETURN JUMPDEST POP POP CALLVALUE PUSH2 0x23B JUMPI PUSH1 0x20 CALLDATASIZE PUSH1 0x3 NOT ADD SLT PUSH2 0x23B JUMPI PUSH1 0x20 PUSH2 0x474 DUP4 CALLDATALOAD PUSH2 0x2A29 JUMP JUMPDEST PUSH1 0x40 MLOAD SWAP1 DUP2 MSTORE RETURN JUMPDEST DUP3 DUP5 CALLVALUE PUSH2 0x418 JUMPI PUSH1 0x40 CALLDATASIZE PUSH1 0x3 NOT ADD SLT PUSH2 0x418 JUMPI DUP1 CALLDATALOAD SWAP1 PUSH2 0x49A PUSH2 0x2477 JUMP JUMPDEST PUSH2 0x4A2 PUSH2 0x2599 JUMP JUMPDEST PUSH2 0x4AA PUSH2 0x274D JUMP JUMPDEST DUP3 DUP5 MSTORE PUSH1 0x20 SWAP2 PUSH1 0x2 DUP4 MSTORE PUSH1 0x40 DUP6 KECCAK256 SWAP2 PUSH1 0x1 DUP1 PUSH1 0xA0 SHL SUB SWAP3 DUP4 DUP2 SLOAD AND SWAP4 PUSH2 0x4D1 DUP6 ISZERO ISZERO PUSH2 0x27E9 JUMP JUMPDEST PUSH1 0x8 DUP3 ADD DUP1 SLOAD PUSH2 0x4E7 PUSH1 0xFF DUP3 PUSH1 0x10 SHR AND ISZERO PUSH2 0x298F JUMP JUMPDEST PUSH1 0xFF DUP2 AND DUP1 PUSH2 0x79F JUMPI JUMPDEST ISZERO PUSH2 0x764 JUMPI DUP3 DUP6 AND SWAP7 DUP8 EQ DUP1 ISZERO PUSH2 0x755 JUMPI JUMPDEST ISZERO PUSH2 0x720 JUMPI PUSH3 0x10000 PUSH1 0x1 PUSH1 0xB8 SHL SUB NOT AND PUSH1 0x18 DUP6 SWAP1 SHL PUSH4 0x1000000 PUSH1 0x1 PUSH1 0xB8 SHL SUB AND OR PUSH3 0x10000 OR SWAP1 SSTORE DUP8 DUP2 PUSH1 0x2 DUP5 ADD SLOAD AND PUSH1 0x3 DUP5 ADD SLOAD SWAP1 DUP1 EXTCODESIZE ISZERO PUSH2 0x348 JUMPI PUSH1 0x40 DUP1 MLOAD PUSH4 0x23B872DD PUSH1 0xE0 SHL DUP2 MSTORE ADDRESS DUP2 DUP11 ADD SWAP1 DUP2 MSTORE PUSH1 0x1 PUSH1 0x1 PUSH1 0xA0 SHL SUB DUP10 AND PUSH1 0x20 DUP3 ADD MSTORE SWAP2 DUP3 ADD SWAP4 SWAP1 SWAP4 MSTORE DUP4 SWAP2 DUP4 SWAP2 DUP3 SWAP1 DUP5 SWAP1 DUP3 SWAP1 PUSH1 0x60 ADD SUB SWAP3 GAS CALL DUP1 ISZERO PUSH2 0x715 JUMPI PUSH2 0x6FD JUMPI JUMPDEST POP POP PUSH1 0xFF PUSH1 0x6 DUP4 ADD SLOAD AND PUSH1 0x2 DUP2 LT ISZERO PUSH2 0x6EA JUMPI DUP9 SWAP4 SWAP3 SWAP2 SWAP1 PUSH2 0x62C JUMPI POP DUP3 DUP1 SWAP3 DUP6 DUP3 SWAP4 ADD SLOAD SWAP1 GAS CALL PUSH2 0x5B9 PUSH2 0x267D JUMP JUMPDEST POP ISZERO PUSH2 0x5F2 JUMPI POP SWAP1 PUSH32 0xBF6AEE0A93E0C0696509FAC1649343CAFC5BF013811646E438330FE86E4C15F SWAP2 JUMPDEST PUSH1 0x40 MLOAD SWAP1 DUP2 MSTORE LOG2 PUSH1 0x1 DUP2 SSTORE DUP1 RETURN JUMPDEST PUSH1 0x40 MLOAD PUSH3 0x461BCD PUSH1 0xE5 SHL DUP2 MSTORE SWAP1 DUP2 ADD DUP4 SWAP1 MSTORE PUSH1 0x13 PUSH1 0x24 DUP3 ADD MSTORE PUSH19 0x115512081D1C985B9CD9995C8819985A5B1959 PUSH1 0x6A SHL PUSH1 0x44 DUP3 ADD MSTORE PUSH1 0x64 SWAP1 REVERT JUMPDEST PUSH1 0xA SLOAD PUSH1 0x5 SWAP3 SWAP1 SWAP3 ADD SLOAD PUSH1 0x40 DUP1 MLOAD PUSH4 0xA9059CBB PUSH1 0xE0 SHL DUP2 MSTORE PUSH1 0x1 PUSH1 0x1 PUSH1 0xA0 SHL SUB SWAP6 SWAP1 SWAP6 AND SWAP7 DUP6 ADD SWAP7 DUP8 MSTORE PUSH1 0x20 DUP8 ADD SWAP2 SWAP1 SWAP2 MSTORE SWAP3 SWAP7 SWAP6 SWAP5 DUP7 SWAP5 DUP9 SWAP5 SWAP2 DUP6 SWAP1 SUB SWAP1 SWAP2 ADD SWAP3 DUP5 SWAP3 AND GAS CALL SWAP3 DUP4 ISZERO PUSH2 0x6DF JUMPI PUSH32 0xBF6AEE0A93E0C0696509FAC1649343CAFC5BF013811646E438330FE86E4C15F SWAP4 PUSH2 0x6AD SWAP2 DUP8 SWAP2 PUSH2 0x6B2 JUMPI JUMPDEST POP PUSH2 0x294C JUMP JUMPDEST PUSH2 0x5E4 JUMP JUMPDEST PUSH2 0x6D2 SWAP2 POP DUP5 RETURNDATASIZE DUP7 GT PUSH2 0x6D8 JUMPI JUMPDEST PUSH2 0x6CA DUP2 DUP4 PUSH2 0x265B JUMP JUMPDEST DUP2 ADD SWAP1 PUSH2 0x2934 JUMP JUMPDEST DUP8 PUSH2 0x6A7 JUMP JUMPDEST POP RETURNDATASIZE PUSH2 0x6C0 JUMP JUMPDEST PUSH1 0x40 MLOAD RETURNDATASIZE DUP8 DUP3 RETURNDATACOPY RETURNDATASIZE SWAP1 REVERT JUMPDEST PUSH4 0x4E487B71 PUSH1 0xE0 SHL DUP10 MSTORE PUSH1 0x21 DUP6 MSTORE PUSH1 0x24 DUP10 REVERT JUMPDEST PUSH2 0x706 SWAP1 PUSH2 0x2614 JUMP JUMPDEST PUSH2 0x711 JUMPI DUP8 DUP10 PUSH2 0x589 JUMP JUMPDEST DUP8 DUP1 REVERT JUMPDEST PUSH1 0x40 MLOAD RETURNDATASIZE DUP5 DUP3 RETURNDATACOPY RETURNDATASIZE SWAP1 REVERT JUMPDEST PUSH1 0x40 MLOAD PUSH3 0x461BCD PUSH1 0xE5 SHL DUP2 MSTORE DUP1 DUP8 ADD DUP10 SWAP1 MSTORE PUSH1 0xE PUSH1 0x24 DUP3 ADD MSTORE PUSH14 0x24B73B30B634B2103BB4B73732B9 PUSH1 0x91 SHL PUSH1 0x44 DUP3 ADD MSTORE PUSH1 0x64 SWAP1 REVERT JUMPDEST POP DUP3 PUSH1 0x1 DUP6 ADD SLOAD AND DUP8 EQ PUSH2 0x503 JUMP JUMPDEST PUSH1 0x40 MLOAD PUSH3 0x461BCD PUSH1 0xE5 SHL DUP2 MSTORE DUP1 DUP8 ADD DUP10 SWAP1 MSTORE PUSH1 0x14 PUSH1 0x24 DUP3 ADD MSTORE PUSH20 0x105CDCD95D1CC81B9BDD0819195C1BDCDA5D1959 PUSH1 0x62 SHL PUSH1 0x44 DUP3 ADD MSTORE PUSH1 0x64 SWAP1 REVERT JUMPDEST POP PUSH1 0xFF DUP2 PUSH1 0x8 SHR AND PUSH2 0x4F1 JUMP JUMPDEST DUP3 CALLVALUE PUSH2 0x23B JUMPI DUP1 PUSH1 0x3 NOT CALLDATASIZE ADD SLT PUSH2 0x23B JUMPI PUSH1 0x20 PUSH1 0x40 MLOAD PUSH2 0x2710 DUP2 MSTORE RETURN JUMPDEST DUP3 PUSH1 0x20 DUP6 CALLDATASIZE PUSH1 0x3 NOT ADD DUP3 SGT PUSH2 0x348 JUMPI DUP1 CALLDATALOAD SWAP2 PUSH2 0x7E3 PUSH2 0x274D JUMP JUMPDEST PUSH2 0x7EB PUSH2 0x2706 JUMP JUMPDEST DUP3 DUP5 MSTORE PUSH1 0x2 DUP2 MSTORE PUSH1 0x40 DUP5 KECCAK256 PUSH1 0x1 DUP2 ADD SLOAD PUSH1 0x1 PUSH1 0x1 PUSH1 0xA0 SHL SUB SWAP3 SWAP2 SWAP1 PUSH2 0x81E SWAP1 DUP5 AND PUSH2 0x817 DUP2 ISZERO ISZERO PUSH2 0x27E9 JUMP JUMPDEST CALLER EQ PUSH2 0x28E6 JUMP JUMPDEST PUSH1 0x8 DUP2 ADD SWAP3 DUP4 SLOAD SWAP5 PUSH1 0xFF SWAP6 PUSH2 0x838 DUP8 DUP3 PUSH1 0x8 SHR AND ISZERO PUSH2 0x282B JUMP JUMPDEST PUSH2 0x847 DUP8 DUP3 PUSH1 0x10 SHR AND ISZERO PUSH2 0x286B JUMP JUMPDEST PUSH2 0x863 PUSH2 0x85B PUSH1 0x7 DUP7 ADD SLOAD PUSH1 0x7 SLOAD SWAP1 PUSH2 0x25F1 JUMP JUMPDEST TIMESTAMP GT ISZERO PUSH2 0x28A8 JUMP JUMPDEST PUSH1 0x6 DUP5 ADD SWAP4 DUP8 DUP6 SLOAD AND PUSH1 0x2 DUP2 LT ISZERO PUSH2 0xA45 JUMPI PUSH2 0xA0F JUMPI DUP3 ADD SWAP2 DUP3 SLOAD SWAP4 PUSH2 0x2710 PUSH2 0x88E PUSH1 0x6 SLOAD DUP8 PUSH2 0x2921 JUMP JUMPDEST DIV SWAP3 DUP6 CALLVALUE LT PUSH2 0x9D8 JUMPI DUP12 DUP1 DUP6 DUP2 SWAP5 PUSH2 0x100 DUP4 SWAP6 PUSH2 0xFF00 NOT AND OR DUP14 SSTORE PUSH1 0x8 SLOAD AND GAS CALL PUSH2 0x8B7 PUSH2 0x267D JUMP JUMPDEST POP ISZERO PUSH2 0x994 JUMPI POP DUP7 PUSH32 0x981102F46F858A9AD42E0E3924C2EE3DDB912D9D6D28768155FFDB174C81711F SWAP5 PUSH1 0x60 SWAP5 DUP5 PUSH2 0x8F5 PUSH2 0x919 SWAP6 DUP14 SWAP11 SWAP8 SLOAD PUSH2 0x26BD JUMP JUMPDEST SWAP1 SSTORE DUP12 DUP2 CALLVALUE GT PUSH2 0x96C JUMPI JUMPDEST POP POP SLOAD AND DUP10 PUSH1 0x40 MLOAD SWAP4 CALLER DUP6 MSTORE DUP5 ADD MSTORE PUSH1 0x40 DUP4 ADD SWAP1 PUSH2 0x24A3 JUMP JUMPDEST LOG2 SLOAD SWAP1 DUP1 DUP3 AND SWAP2 DUP3 PUSH2 0x95F JUMPI JUMPDEST POP POP PUSH2 0x935 JUMPI JUMPDEST POP PUSH1 0x1 DUP2 SSTORE DUP1 RETURN JUMPDEST PUSH32 0xEE5528BA4F234F658C6A97A7E3CBA5532E7AAD23BB249BE4141B62E6A0158A7C DUP3 DUP1 LOG2 DUP2 PUSH2 0x92D JUMP JUMPDEST PUSH1 0x8 SHR AND SWAP1 POP DUP4 DUP1 PUSH2 0x926 JUMP JUMPDEST DUP1 DUP1 DUP1 PUSH2 0x97C PUSH2 0x98D SWAP6 CALLVALUE PUSH2 0x26BD JUMP JUMPDEST CALLER GAS CALL PUSH2 0x987 PUSH2 0x267D JUMP JUMPDEST POP PUSH2 0x26CA JUMP JUMPDEST DUP12 DUP12 PUSH2 0x900 JUMP JUMPDEST PUSH1 0x40 MLOAD PUSH3 0x461BCD PUSH1 0xE5 SHL DUP2 MSTORE SWAP1 DUP2 ADD DUP7 SWAP1 MSTORE PUSH1 0x1C PUSH1 0x24 DUP3 ADD MSTORE PUSH32 0x506C6174666F726D20666565207472616E73666572206661696C656400000000 PUSH1 0x44 DUP3 ADD MSTORE PUSH1 0x64 SWAP1 REVERT JUMPDEST PUSH1 0x40 MLOAD PUSH3 0x461BCD PUSH1 0xE5 SHL DUP2 MSTORE DUP1 DUP5 ADD DUP10 SWAP1 MSTORE PUSH1 0x10 PUSH1 0x24 DUP3 ADD MSTORE PUSH16 0x92DCE6EACCCCD2C6D2CADCE8408AA89 PUSH1 0x83 SHL PUSH1 0x44 DUP3 ADD MSTORE PUSH1 0x64 SWAP1 REVERT JUMPDEST PUSH1 0x40 MLOAD PUSH3 0x461BCD PUSH1 0xE5 SHL DUP2 MSTORE DUP1 DUP5 ADD DUP8 SWAP1 MSTORE PUSH1 0xF PUSH1 0x24 DUP3 ADD MSTORE PUSH15 0x4E6F7420616E204554482067616D65 PUSH1 0x88 SHL PUSH1 0x44 DUP3 ADD MSTORE PUSH1 0x64 SWAP1 REVERT JUMPDEST PUSH4 0x4E487B71 PUSH1 0xE0 SHL DUP12 MSTORE PUSH1 0x21 DUP5 MSTORE PUSH1 0x24 DUP12 REVERT JUMPDEST DUP3 DUP5 CALLVALUE PUSH2 0x418 JUMPI PUSH1 0x60 CALLDATASIZE PUSH1 0x3 NOT ADD SLT PUSH2 0x418 JUMPI PUSH8 0xFFFFFFFFFFFFFFFF SWAP1 DUP1 CALLDATALOAD DUP3 DUP2 GT PUSH2 0xC91 JUMPI PUSH2 0xA8B SWAP1 CALLDATASIZE SWAP1 DUP4 ADD PUSH2 0x2568 JUMP JUMPDEST SWAP2 SWAP1 SWAP3 PUSH1 0x24 SWAP3 DUP4 CALLDATALOAD DUP3 DUP2 GT PUSH2 0xDCC JUMPI PUSH2 0xAA7 SWAP1 CALLDATASIZE SWAP1 DUP6 ADD PUSH2 0x2568 JUMP JUMPDEST PUSH1 0x44 SWAP4 DUP5 CALLDATALOAD SWAP1 DUP2 GT PUSH2 0xDC8 JUMPI PUSH2 0xAC0 SWAP1 CALLDATASIZE SWAP1 DUP8 ADD PUSH2 0x2568 JUMP JUMPDEST PUSH2 0xACB SWAP3 SWAP2 SWAP3 PUSH2 0x2599 JUMP JUMPDEST DUP2 DUP6 EQ DUP1 PUSH2 0xDBF JUMPI JUMPDEST ISZERO PUSH2 0xD7D JUMPI SWAP3 DUP9 SWAP3 DUP11 SWAP9 SWAP6 SWAP3 DUP10 SWAP6 JUMPDEST DUP5 DUP8 LT PUSH2 0xAEE JUMPI DUP11 DUP1 RETURN JUMPDEST SWAP9 SWAP10 SWAP8 SWAP9 SWAP7 SWAP8 PUSH1 0x1 PUSH1 0x1 PUSH1 0xA0 SHL SUB SWAP8 SWAP1 SWAP7 DUP9 PUSH2 0xB13 PUSH2 0xB0E DUP4 DUP10 DUP12 PUSH2 0x2B38 JUMP JUMPDEST PUSH2 0x2B48 JUMP JUMPDEST AND ISZERO PUSH2 0xD44 JUMPI DUP9 PUSH2 0xB28 PUSH2 0xB0E DUP4 DUP6 DUP9 PUSH2 0x2B38 JUMP JUMPDEST AND ISZERO PUSH2 0xD0E JUMPI DUP9 PUSH2 0xB3D PUSH2 0xB0E DUP4 DUP10 DUP12 PUSH2 0x2B38 JUMP JUMPDEST AND SWAP9 DUP13 PUSH2 0xB4B DUP4 DUP7 DUP10 PUSH2 0x2B38 JUMP JUMPDEST CALLDATALOAD SWAP11 PUSH1 0x40 MLOAD SWAP12 DUP13 SWAP3 PUSH4 0x31A9108F PUSH1 0xE1 SHL DUP5 MSTORE DUP4 ADD MSTORE DUP2 DUP14 PUSH1 0x20 SWAP14 DUP15 SWAP4 GAS STATICCALL DUP11 SWAP2 DUP2 PUSH2 0xCD6 JUMPI JUMPDEST POP PUSH2 0xBB9 JUMPI POP PUSH1 0x40 MLOAD PUSH3 0x461BCD PUSH1 0xE5 SHL DUP2 MSTORE DUP1 DUP15 ADD DUP12 SWAP1 MSTORE PUSH1 0x1D DUP2 DUP14 ADD MSTORE PUSH32 0x4661696C656420746F20636865636B204E4654206F776E657273686970000000 DUP2 DUP15 ADD MSTORE PUSH1 0x64 SWAP1 REVERT JUMPDEST DUP2 SWAP3 SWAP4 SWAP5 SWAP6 SWAP7 SWAP8 SWAP9 SWAP13 SWAP10 SWAP14 SWAP11 SWAP2 ADDRESS SWAP2 AND SUB PUSH2 0xC95 JUMPI POP DUP12 SWAP1 PUSH2 0xBDF PUSH2 0xB0E DUP5 DUP11 DUP16 PUSH2 0x2B38 JUMP JUMPDEST AND PUSH2 0xBEE PUSH2 0xB0E DUP5 DUP7 DUP10 PUSH2 0x2B38 JUMP JUMPDEST PUSH2 0xBF9 DUP5 DUP8 DUP11 PUSH2 0x2B38 JUMP JUMPDEST CALLDATALOAD DUP3 EXTCODESIZE ISZERO PUSH2 0xC91 JUMPI PUSH1 0x40 DUP1 MLOAD PUSH4 0x23B872DD PUSH1 0xE0 SHL DUP2 MSTORE ADDRESS DUP2 DUP16 ADD SWAP1 DUP2 MSTORE PUSH1 0x1 PUSH1 0x1 PUSH1 0xA0 SHL SUB SWAP1 SWAP5 AND PUSH1 0x20 DUP6 ADD MSTORE SWAP1 DUP4 ADD SWAP2 SWAP1 SWAP2 MSTORE SWAP2 DUP4 SWAP2 DUP4 SWAP2 SWAP1 DUP3 SWAP1 DUP5 SWAP1 DUP3 SWAP1 PUSH1 0x60 ADD SUB SWAP3 GAS CALL DUP1 ISZERO PUSH2 0x715 JUMPI PUSH2 0xC79 JUMPI JUMPDEST POP POP PUSH1 0x0 NOT DUP2 EQ PUSH2 0xC67 JUMPI PUSH1 0x1 ADD SWAP6 SWAP8 SWAP7 SWAP9 SWAP5 SWAP4 SWAP3 SWAP2 SWAP1 PUSH2 0xAE3 JUMP JUMPDEST PUSH4 0x4E487B71 PUSH1 0xE0 SHL DUP12 MSTORE PUSH1 0x11 DUP9 MSTORE DUP9 DUP12 REVERT JUMPDEST PUSH2 0xC82 SWAP1 PUSH2 0x2614 JUMP JUMPDEST PUSH2 0xC8D JUMPI DUP11 DUP13 PUSH2 0xC4B JUMP JUMPDEST DUP11 DUP1 REVERT JUMPDEST DUP4 DUP1 REVERT JUMPDEST DUP10 PUSH32 0x436F6E747261637420646F6573206E6F74206F776E2074686973204E46540000 DUP11 PUSH1 0x1E DUP15 PUSH1 0x64 SWAP6 PUSH1 0x40 MLOAD SWAP6 PUSH3 0x461BCD PUSH1 0xE5 SHL DUP8 MSTORE DUP7 ADD MSTORE DUP5 ADD MSTORE DUP3 ADD MSTORE REVERT JUMPDEST SWAP1 SWAP2 POP DUP12 DUP2 DUP2 RETURNDATASIZE DUP4 GT PUSH2 0xD07 JUMPI JUMPDEST PUSH2 0xCEE DUP2 DUP4 PUSH2 0x265B JUMP JUMPDEST DUP2 ADD SUB SLT PUSH2 0xC8D JUMPI MLOAD DUP3 DUP2 AND DUP2 SUB PUSH2 0xC8D JUMPI SWAP1 DUP16 PUSH2 0xB71 JUMP JUMPDEST POP RETURNDATASIZE PUSH2 0xCE4 JUMP JUMPDEST PUSH1 0x40 MLOAD PUSH3 0x461BCD PUSH1 0xE5 SHL DUP2 MSTORE PUSH1 0x20 DUP2 DUP15 ADD MSTORE PUSH1 0x11 DUP2 DUP13 ADD MSTORE PUSH17 0x125B9D985B1A59081C9958DA5C1A595B9D PUSH1 0x7A SHL DUP2 DUP14 ADD MSTORE PUSH1 0x64 SWAP1 REVERT JUMPDEST PUSH1 0x40 MLOAD PUSH3 0x461BCD PUSH1 0xE5 SHL DUP2 MSTORE PUSH1 0x20 DUP2 DUP15 ADD MSTORE PUSH1 0x14 DUP2 DUP13 ADD MSTORE PUSH20 0x125B9D985B1A59081391950818DBDB9D1C9858DD PUSH1 0x62 SHL DUP2 DUP14 ADD MSTORE PUSH1 0x64 SWAP1 REVERT JUMPDEST PUSH1 0x40 MLOAD PUSH3 0x461BCD PUSH1 0xE5 SHL DUP2 MSTORE PUSH1 0x20 DUP2 DUP10 ADD MSTORE PUSH1 0x18 DUP2 DUP11 ADD MSTORE PUSH32 0x4172726179206C656E67746873206D757374206D617463680000000000000000 DUP2 DUP9 ADD MSTORE PUSH1 0x64 SWAP1 REVERT JUMPDEST POP DUP1 DUP3 EQ PUSH2 0xAD4 JUMP JUMPDEST DUP9 DUP1 REVERT JUMPDEST DUP7 DUP1 REVERT JUMPDEST POP POP CALLVALUE PUSH2 0x23B JUMPI PUSH1 0x40 CALLDATASIZE PUSH1 0x3 NOT ADD SLT PUSH2 0x23B JUMPI PUSH2 0xDEB PUSH2 0x2461 JUMP JUMPDEST PUSH1 0x1 PUSH1 0x1 PUSH1 0xA0 SHL SUB AND DUP2 MSTORE PUSH1 0x20 SWAP2 SWAP1 SWAP2 MSTORE PUSH1 0x40 DUP2 KECCAK256 DUP1 SLOAD PUSH1 0x24 CALLDATALOAD SWAP3 SWAP1 DUP4 LT ISZERO PUSH2 0x23B JUMPI PUSH1 0x20 PUSH2 0xE1A DUP5 DUP5 PUSH2 0x253A JUMP JUMPDEST SWAP1 SLOAD PUSH1 0x40 MLOAD SWAP2 PUSH1 0x3 SHL SHR DUP2 MSTORE RETURN JUMPDEST DUP3 DUP5 DUP2 PUSH1 0x3 NOT CALLDATASIZE ADD SLT PUSH2 0x418 JUMPI PUSH2 0xE3D PUSH2 0x274D JUMP JUMPDEST PUSH2 0xE45 PUSH2 0x2706 JUMP JUMPDEST PUSH2 0xE50 PUSH1 0x5 SLOAD PUSH2 0x2A29 JUMP JUMPDEST SWAP1 DUP2 CALLVALUE LT PUSH2 0xF1D JUMPI CALLER DUP4 MSTORE PUSH1 0x3 PUSH1 0x20 MSTORE PUSH1 0x40 DUP4 KECCAK256 PUSH2 0xE6F DUP4 DUP3 SLOAD PUSH2 0x25F1 JUMP JUMPDEST SWAP1 SSTORE DUP3 DUP1 DUP1 DUP1 DUP6 PUSH1 0x1 DUP1 PUSH1 0xA0 SHL SUB PUSH1 0x8 SLOAD AND GAS CALL PUSH2 0xE8B PUSH2 0x267D JUMP JUMPDEST POP ISZERO PUSH2 0xEE3 JUMPI POP DUP1 CALLVALUE GT PUSH2 0xECD JUMPI JUMPDEST PUSH1 0x40 MLOAD SWAP1 DUP2 MSTORE PUSH32 0x3A5F70A82EB571B0A884A01D171C139C6EC5169BA9E11E00D211CB4F76391E14 PUSH1 0x20 CALLER SWAP3 LOG2 PUSH1 0x1 DUP2 SSTORE DUP1 RETURN JUMPDEST PUSH2 0xEDE DUP3 DUP1 DUP1 DUP1 PUSH2 0x97C DUP7 CALLVALUE PUSH2 0x26BD JUMP JUMPDEST PUSH2 0xE9A JUMP JUMPDEST PUSH1 0x64 SWAP1 PUSH1 0x20 PUSH1 0x40 MLOAD SWAP2 PUSH3 0x461BCD PUSH1 0xE5 SHL DUP4 MSTORE DUP3 ADD MSTORE PUSH1 0x13 PUSH1 0x24 DUP3 ADD MSTORE PUSH19 0x119959481D1C985B9CD9995C8819985A5B1959 PUSH1 0x6A SHL PUSH1 0x44 DUP3 ADD MSTORE REVERT JUMPDEST PUSH1 0x64 SWAP1 PUSH1 0x20 PUSH1 0x40 MLOAD SWAP2 PUSH3 0x461BCD PUSH1 0xE5 SHL DUP4 MSTORE DUP3 ADD MSTORE PUSH1 0x18 PUSH1 0x24 DUP3 ADD MSTORE PUSH32 0x496E73756666696369656E74206C697374696E67206665650000000000000000 PUSH1 0x44 DUP3 ADD MSTORE REVERT JUMPDEST DUP3 DUP1 DUP6 CALLVALUE PUSH2 0x1001 JUMPI PUSH1 0x60 CALLDATASIZE PUSH1 0x3 NOT ADD SLT PUSH2 0x1001 JUMPI PUSH2 0xF7D PUSH2 0x2461 JUMP JUMPDEST PUSH2 0xF85 PUSH2 0x248D JUMP JUMPDEST SWAP1 PUSH2 0xF8E PUSH2 0x2599 JUMP JUMPDEST PUSH1 0x1 PUSH1 0x1 PUSH1 0xA0 SHL SUB AND SWAP2 DUP3 EXTCODESIZE ISZERO PUSH2 0xFFC JUMPI PUSH1 0x40 DUP1 MLOAD PUSH4 0x23B872DD PUSH1 0xE0 SHL DUP2 MSTORE ADDRESS SWAP3 DUP2 ADD SWAP3 DUP4 MSTORE PUSH1 0x1 PUSH1 0x1 PUSH1 0xA0 SHL SUB SWAP1 SWAP4 AND PUSH1 0x20 DUP4 ADD MSTORE PUSH1 0x24 CALLDATALOAD SWAP1 DUP3 ADD MSTORE SWAP1 SWAP2 DUP4 SWAP2 DUP4 SWAP2 SWAP1 DUP3 SWAP1 DUP5 SWAP1 DUP3 SWAP1 PUSH1 0x60 ADD SUB SWAP3 GAS CALL DUP1 ISZERO PUSH2 0x715 JUMPI PUSH2 0xFEC JUMPI POP RETURN JUMPDEST PUSH2 0xFF5 SWAP1 PUSH2 0x2614 JUMP JUMPDEST PUSH2 0x23B JUMPI DUP1 RETURN JUMPDEST POP POP POP REVERT JUMPDEST POP REVERT JUMPDEST DUP3 CALLVALUE PUSH2 0x23B JUMPI DUP1 PUSH1 0x3 NOT CALLDATASIZE ADD SLT PUSH2 0x23B JUMPI PUSH1 0x1 SLOAD PUSH1 0x40 MLOAD PUSH1 0x1 PUSH1 0x1 PUSH1 0xA0 SHL SUB SWAP1 SWAP2 AND DUP2 MSTORE PUSH1 0x20 SWAP1 RETURN JUMPDEST DUP3 CALLVALUE PUSH2 0x23B JUMPI DUP1 PUSH1 0x3 NOT CALLDATASIZE ADD SLT PUSH2 0x23B JUMPI PUSH1 0x20 PUSH1 0x6 SLOAD PUSH1 0x40 MLOAD SWAP1 DUP2 MSTORE RETURN JUMPDEST SWAP2 SWAP1 POP CALLVALUE PUSH2 0x23B JUMPI PUSH1 0x20 CALLDATASIZE PUSH1 0x3 NOT ADD SLT PUSH2 0x23B JUMPI DUP3 CALLDATALOAD DUP2 MSTORE PUSH1 0x2 PUSH1 0x20 MSTORE PUSH1 0x40 DUP2 KECCAK256 SWAP2 PUSH1 0x40 MLOAD PUSH2 0x1079 DUP2 PUSH2 0x263E JUMP JUMPDEST PUSH1 0x1 DUP1 PUSH1 0xA0 SHL SUB DUP5 SLOAD AND DUP2 MSTORE PUSH1 0x1 DUP1 PUSH1 0xA0 SHL SUB PUSH1 0x1 DUP6 ADD SLOAD AND SWAP3 PUSH1 0x20 DUP3 ADD SWAP4 DUP5 MSTORE PUSH1 0x1 DUP1 PUSH1 0xA0 SHL SUB PUSH1 0x2 DUP7 ADD SLOAD AND SWAP5 PUSH1 0x40 DUP4 ADD SWAP6 DUP7 MSTORE PUSH1 0x3 DUP2 ADD SLOAD SWAP4 PUSH1 0x60 DUP5 ADD SWAP5 DUP6 MSTORE DUP8 DUP3 ADD SLOAD SWAP3 PUSH1 0x80 DUP6 ADD SWAP4 DUP5 MSTORE PUSH1 0x8 PUSH1 0x5 DUP5 ADD SLOAD SWAP4 PUSH1 0xA0 DUP8 ADD SWAP5 DUP6 MSTORE PUSH2 0x10EB PUSH1 0xFF PUSH1 0x6 DUP4 ADD SLOAD AND PUSH1 0xC0 DUP10 ADD PUSH2 0x27A3 JUMP JUMPDEST PUSH1 0x7 DUP2 ADD SLOAD SWAP4 DUP8 ADD SWAP4 DUP5 MSTORE ADD SLOAD PUSH1 0xFF DUP1 DUP3 AND ISZERO ISZERO PUSH2 0x100 DUP9 ADD MSTORE PUSH1 0x8 DUP3 SWAP1 SHR DUP2 AND ISZERO ISZERO PUSH2 0x120 DUP9 ADD MSTORE PUSH1 0x10 DUP3 SWAP1 SHR AND ISZERO ISZERO PUSH2 0x140 DUP8 ADD MSTORE PUSH1 0x18 SHR PUSH1 0x1 PUSH1 0x1 PUSH1 0xA0 SHL SUB SWAP1 DUP2 AND PUSH2 0x160 DUP8 ADD MSTORE DUP6 MLOAD SWAP8 MLOAD SWAP9 MLOAD SWAP7 MLOAD SWAP5 MLOAD SWAP4 MLOAD PUSH1 0xC0 DUP8 ADD MLOAD SWAP10 DUP3 AND SWAP10 SWAP9 DUP3 AND SWAP9 SWAP8 SWAP1 SWAP2 AND SWAP7 SWAP1 SWAP3 SWAP1 SWAP2 PUSH1 0x2 DUP4 LT ISZERO PUSH2 0x11A1 JUMPI POP PUSH2 0x237 SWAP8 SWAP9 SWAP10 POP MLOAD SWAP2 PUSH2 0x100 DUP7 ADD MLOAD ISZERO ISZERO SWAP4 PUSH2 0x120 DUP8 ADD MLOAD ISZERO ISZERO SWAP6 PUSH2 0x140 DUP9 ADD MLOAD ISZERO ISZERO SWAP8 PUSH2 0x160 PUSH1 0x1 DUP1 PUSH1 0xA0 SHL SUB SWAP2 ADD MLOAD AND SWAP9 PUSH1 0x40 MLOAD SWAP13 DUP14 SWAP13 DUP14 PUSH2 0x24C6 JUMP JUMPDEST PUSH4 0x4E487B71 PUSH1 0xE0 SHL DUP2 MSTORE PUSH1 0x21 DUP12 MSTORE PUSH1 0x24 SWAP1 REVERT JUMPDEST DUP3 DUP5 CALLVALUE PUSH2 0x418 JUMPI DUP2 PUSH1 0x3 NOT CALLDATASIZE ADD SLT PUSH2 0x418 JUMPI PUSH2 0x11CE PUSH2 0x2599 JUMP JUMPDEST DUP2 DUP1 DUP1 DUP1 PUSH1 0x1 DUP1 PUSH1 0xA0 SHL SUB PUSH1 0x1 SLOAD AND SELFBALANCE SWAP1 GAS CALL PUSH2 0x11E9 PUSH2 0x267D JUMP JUMPDEST POP ISZERO PUSH2 0x11F3 JUMPI POP DUP1 RETURN JUMPDEST PUSH1 0x64 SWAP1 PUSH1 0x20 PUSH1 0x40 MLOAD SWAP2 PUSH3 0x461BCD PUSH1 0xE5 SHL DUP4 MSTORE DUP3 ADD MSTORE PUSH1 0xF PUSH1 0x24 DUP3 ADD MSTORE PUSH15 0x151C985B9CD9995C8819985A5B1959 PUSH1 0x8A SHL PUSH1 0x44 DUP3 ADD MSTORE REVERT JUMPDEST DUP3 CALLVALUE PUSH2 0x23B JUMPI DUP1 PUSH1 0x3 NOT CALLDATASIZE ADD SLT PUSH2 0x23B JUMPI PUSH1 0x9 SLOAD PUSH1 0x40 MLOAD PUSH1 0x1 PUSH1 0x1 PUSH1 0xA0 SHL SUB SWAP1 SWAP2 AND DUP2 MSTORE PUSH1 0x20 SWAP1 RETURN JUMPDEST SWAP1 POP DUP3 CALLVALUE PUSH2 0x348 JUMPI PUSH1 0x20 CALLDATASIZE PUSH1 0x3 NOT ADD SLT PUSH2 0x348 JUMPI PUSH1 0x8 PUSH1 0x40 PUSH1 0x20 SWAP5 DUP4 CALLDATALOAD DUP2 MSTORE PUSH1 0x2 DUP7 MSTORE KECCAK256 PUSH1 0x40 MLOAD SWAP4 PUSH2 0x1283 DUP6 PUSH2 0x263E JUMP JUMPDEST DUP2 SLOAD PUSH1 0x1 PUSH1 0x1 PUSH1 0xA0 SHL SUB SWAP1 DUP2 AND DUP7 MSTORE PUSH1 0x1 DUP4 ADD SLOAD DUP2 AND DUP8 DUP8 ADD MSTORE PUSH1 0x2 DUP4 ADD SLOAD DUP2 AND PUSH1 0x40 DUP8 ADD MSTORE PUSH1 0x3 DUP4 ADD SLOAD PUSH1 0x60 DUP8 ADD MSTORE SWAP4 DUP3 ADD SLOAD PUSH1 0x80 DUP7 ADD MSTORE PUSH1 0x5 DUP3 ADD SLOAD PUSH1 0xA0 DUP7 ADD MSTORE PUSH1 0x6 DUP3 ADD SLOAD PUSH2 0x12DB SWAP1 PUSH1 0xFF AND PUSH1 0xC0 DUP8 ADD PUSH2 0x27A3 JUMP JUMPDEST PUSH1 0x7 DUP3 ADD SLOAD SWAP1 DUP6 ADD MSTORE ADD SLOAD SWAP1 PUSH1 0xFF DUP3 AND ISZERO ISZERO SWAP3 DUP4 PUSH2 0x100 DUP3 ADD MSTORE PUSH2 0x160 PUSH1 0xFF DUP5 PUSH1 0x8 SHR AND ISZERO ISZERO SWAP3 DUP4 PUSH2 0x120 DUP5 ADD MSTORE PUSH1 0xFF DUP6 PUSH1 0x10 SHR AND ISZERO SWAP5 DUP6 ISZERO PUSH2 0x140 DUP6 ADD MSTORE PUSH1 0x18 SHR AND SWAP2 ADD MSTORE DUP3 PUSH2 0x1340 JUMPI JUMPDEST POP DUP2 PUSH2 0x1338 JUMPI POP PUSH1 0x40 MLOAD SWAP1 ISZERO ISZERO DUP2 MSTORE RETURN JUMPDEST SWAP1 POP DUP3 PUSH2 0x31E JUMP JUMPDEST SWAP2 POP DUP4 PUSH2 0x1327 JUMP JUMPDEST DUP3 DUP5 CALLVALUE PUSH2 0x418 JUMPI PUSH1 0x40 CALLDATASIZE PUSH1 0x3 NOT ADD SLT PUSH2 0x418 JUMPI DUP1 CALLDATALOAD SWAP1 PUSH2 0x1366 PUSH2 0x274D JUMP JUMPDEST PUSH2 0x136E PUSH2 0x2706 JUMP JUMPDEST DUP2 DUP4 MSTORE PUSH1 0x2 PUSH1 0x20 SWAP1 DUP2 MSTORE PUSH1 0x40 DUP5 KECCAK256 PUSH1 0x1 DUP2 ADD SLOAD PUSH1 0x1 PUSH1 0x1 PUSH1 0xA0 SHL SUB SWAP3 SWAP2 SWAP1 PUSH2 0x139D SWAP1 DUP5 AND PUSH2 0x817 DUP2 ISZERO ISZERO PUSH2 0x27E9 JUMP JUMPDEST PUSH1 0x8 DUP2 ADD SWAP3 DUP4 SLOAD PUSH1 0xFF SWAP6 PUSH2 0x13B6 DUP8 DUP4 PUSH1 0x8 SHR AND ISZERO PUSH2 0x282B JUMP JUMPDEST PUSH2 0x13C5 DUP8 DUP4 PUSH1 0x10 SHR AND ISZERO PUSH2 0x286B JUMP JUMPDEST PUSH2 0x13D9 PUSH2 0x85B PUSH1 0x7 DUP7 ADD SLOAD PUSH1 0x7 SLOAD SWAP1 PUSH2 0x25F1 JUMP JUMPDEST PUSH1 0x6 DUP5 ADD SWAP4 DUP8 DUP6 SLOAD AND PUSH1 0x2 DUP2 LT ISZERO PUSH2 0x161C JUMPI PUSH1 0x1 SUB PUSH2 0x15E6 JUMPI PUSH1 0x5 ADD SWAP3 DUP4 SLOAD PUSH2 0x2710 PUSH2 0x1407 PUSH1 0x6 SLOAD DUP4 PUSH2 0x2921 JUMP JUMPDEST DIV SWAP4 DUP2 PUSH1 0x24 CALLDATALOAD LT PUSH2 0x15AE JUMPI PUSH2 0xFF00 NOT AND PUSH2 0x100 OR DUP9 SSTORE PUSH1 0xA SLOAD PUSH1 0x40 DUP1 MLOAD PUSH4 0x23B872DD PUSH1 0xE0 SHL DUP2 MSTORE CALLER DUP7 DUP3 ADD SWAP1 DUP2 MSTORE ADDRESS PUSH1 0x20 DUP3 ADD MSTORE SWAP2 DUP3 ADD SWAP4 SWAP1 SWAP4 MSTORE DUP13 SWAP4 SWAP3 SWAP2 DUP10 SWAP2 DUP4 SWAP2 DUP6 AND SWAP1 DUP3 SWAP1 DUP8 SWAP1 DUP3 SWAP1 PUSH1 0x60 ADD SUB SWAP3 GAS CALL SWAP2 DUP3 ISZERO PUSH2 0x15A3 JUMPI PUSH2 0x1477 DUP10 SWAP4 DUP8 SWAP4 PUSH2 0x14B2 SWAP7 SWAP2 PUSH2 0x1586 JUMPI POP PUSH2 0x294C JUMP JUMPDEST DUP1 PUSH1 0xA SLOAD AND SWAP1 PUSH1 0x8 SLOAD AND DUP14 PUSH1 0x40 MLOAD DUP1 SWAP7 DUP2 SWAP6 DUP3 SWAP5 PUSH4 0xA9059CBB PUSH1 0xE0 SHL DUP5 MSTORE DUP11 DUP5 ADD PUSH1 0x20 SWAP1 SWAP4 SWAP3 SWAP2 SWAP4 PUSH1 0x40 DUP2 ADD SWAP5 PUSH1 0x1 DUP1 PUSH1 0xA0 SHL SUB AND DUP2 MSTORE ADD MSTORE JUMP JUMPDEST SUB SWAP3 GAS CALL SWAP1 DUP2 ISZERO PUSH2 0x157B JUMPI DUP11 SWAP2 PUSH2 0x155E JUMPI JUMPDEST POP ISZERO PUSH2 0x151A JUMPI POP SWAP3 PUSH2 0x919 DUP7 PUSH32 0x981102F46F858A9AD42E0E3924C2EE3DDB912D9D6D28768155FFDB174C81711F SWAP5 DUP5 PUSH2 0x1501 DUP12 SWAP9 PUSH1 0x60 SWAP8 SLOAD PUSH2 0x26BD JUMP JUMPDEST SWAP1 SSTORE SLOAD AND DUP10 PUSH1 0x40 MLOAD SWAP4 CALLER DUP6 MSTORE DUP5 ADD MSTORE PUSH1 0x40 DUP4 ADD SWAP1 PUSH2 0x24A3 JUMP JUMPDEST PUSH1 0x40 MLOAD PUSH3 0x461BCD PUSH1 0xE5 SHL DUP2 MSTORE SWAP1 DUP2 ADD DUP6 SWAP1 MSTORE PUSH1 0x18 PUSH1 0x24 DUP3 ADD MSTORE PUSH32 0x5553444320666565207472616E73666572206661696C65640000000000000000 PUSH1 0x44 DUP3 ADD MSTORE PUSH1 0x64 SWAP1 REVERT JUMPDEST PUSH2 0x1575 SWAP2 POP DUP7 RETURNDATASIZE DUP9 GT PUSH2 0x6D8 JUMPI PUSH2 0x6CA DUP2 DUP4 PUSH2 0x265B JUMP JUMPDEST DUP11 PUSH2 0x14C4 JUMP JUMPDEST PUSH1 0x40 MLOAD RETURNDATASIZE DUP13 DUP3 RETURNDATACOPY RETURNDATASIZE SWAP1 REVERT JUMPDEST PUSH2 0x159D SWAP2 POP DUP6 RETURNDATASIZE DUP8 GT PUSH2 0x6D8 JUMPI PUSH2 0x6CA DUP2 DUP4 PUSH2 0x265B JUMP JUMPDEST DUP16 PUSH2 0x6A7 JUMP JUMPDEST PUSH1 0x40 MLOAD RETURNDATASIZE DUP6 DUP3 RETURNDATACOPY RETURNDATASIZE SWAP1 REVERT JUMPDEST PUSH1 0x40 MLOAD PUSH3 0x461BCD PUSH1 0xE5 SHL DUP2 MSTORE DUP1 DUP6 ADD DUP10 SWAP1 MSTORE PUSH1 0x11 PUSH1 0x24 DUP3 ADD MSTORE PUSH17 0x496E73756666696369656E742055534443 PUSH1 0x78 SHL PUSH1 0x44 DUP3 ADD MSTORE PUSH1 0x64 SWAP1 REVERT JUMPDEST PUSH1 0x40 MLOAD PUSH3 0x461BCD PUSH1 0xE5 SHL DUP2 MSTORE DUP1 DUP4 ADD DUP8 SWAP1 MSTORE PUSH1 0xF PUSH1 0x24 DUP3 ADD MSTORE PUSH15 0x4E6F74206120555344432067616D65 PUSH1 0x88 SHL PUSH1 0x44 DUP3 ADD MSTORE PUSH1 0x64 SWAP1 REVERT JUMPDEST PUSH4 0x4E487B71 PUSH1 0xE0 SHL DUP12 MSTORE PUSH1 0x21 DUP4 MSTORE PUSH1 0x24 DUP12 REVERT JUMPDEST DUP3 CALLVALUE PUSH2 0x23B JUMPI DUP1 PUSH1 0x3 NOT CALLDATASIZE ADD SLT PUSH2 0x23B JUMPI PUSH2 0x1648 PUSH2 0x2599 JUMP JUMPDEST PUSH1 0x1 DUP1 SLOAD PUSH1 0x1 PUSH1 0x1 PUSH1 0xA0 SHL SUB NOT DUP2 AND SWAP1 SWAP2 SSTORE PUSH1 0x0 SWAP1 PUSH1 0x1 PUSH1 0x1 PUSH1 0xA0 SHL SUB AND PUSH32 0x8BE0079C531659141344CD1FD0A4F28419497F9722A3DAAFE3B4186F6B6457E0 DUP3 DUP1 LOG3 DUP1 RETURN JUMPDEST DUP3 DUP5 CALLVALUE PUSH2 0x418 JUMPI PUSH1 0x20 SWAP1 DUP2 PUSH1 0x3 NOT CALLDATASIZE ADD SLT PUSH2 0x348 JUMPI DUP1 CALLDATALOAD SWAP2 PUSH2 0x16AD PUSH2 0x274D JUMP JUMPDEST DUP3 DUP5 MSTORE PUSH1 0x2 DUP2 MSTORE PUSH1 0x40 DUP5 KECCAK256 DUP1 SLOAD SWAP1 SWAP3 PUSH1 0x1 PUSH1 0x1 PUSH1 0xA0 SHL SUB SWAP2 DUP3 AND SWAP1 PUSH2 0x16D3 DUP3 ISZERO ISZERO PUSH2 0x27E9 JUMP JUMPDEST PUSH1 0x8 DUP6 ADD SWAP2 DUP3 SLOAD PUSH1 0xFF SWAP2 PUSH2 0x16EC DUP4 DUP4 PUSH1 0x10 SHR AND ISZERO PUSH2 0x286B JUMP JUMPDEST PUSH2 0x16FD PUSH1 0x7 DUP10 ADD SLOAD PUSH1 0x7 SLOAD SWAP1 PUSH2 0x25F1 JUMP JUMPDEST TIMESTAMP GT ISZERO PUSH2 0x1ADC JUMPI CALLER EQ DUP1 ISZERO PUSH2 0x1ACD JUMPI JUMPDEST ISZERO PUSH2 0x1A9A JUMPI DUP9 SWAP4 SWAP3 SWAP2 SWAP1 DUP2 DUP2 AND DUP1 DUP1 PUSH2 0x1A8D JUMPI JUMPDEST ISZERO PUSH2 0x17F1 JUMPI POP POP POP DUP4 DUP7 SLOAD AND SWAP2 PUSH2 0x1739 DUP4 CALLER EQ PUSH2 0x29D4 JUMP JUMPDEST DUP1 SLOAD PUSH3 0xFF0000 NOT AND PUSH3 0x10000 OR SWAP1 SSTORE PUSH1 0x2 DUP7 ADD SLOAD PUSH1 0x3 DUP8 ADD SLOAD SWAP1 DUP6 AND DUP1 EXTCODESIZE ISZERO PUSH2 0x17ED JUMPI PUSH1 0x40 DUP1 MLOAD PUSH4 0x23B872DD PUSH1 0xE0 SHL DUP2 MSTORE ADDRESS SWAP5 DUP2 ADD SWAP5 DUP6 MSTORE PUSH1 0x1 PUSH1 0x1 PUSH1 0xA0 SHL SUB SWAP1 SWAP6 AND PUSH1 0x20 DUP6 ADD MSTORE DUP4 ADD SWAP2 SWAP1 SWAP2 MSTORE DUP4 SWAP2 DUP4 SWAP2 SWAP1 DUP3 SWAP1 DUP5 SWAP1 DUP3 SWAP1 PUSH1 0x60 ADD SUB SWAP3 GAS CALL DUP1 ISZERO PUSH2 0x715 JUMPI PUSH2 0x17D9 JUMPI JUMPDEST POP POP PUSH32 0xBEB9DB71629193A6A8D82214E24CE084D5F6B1C980D4CDA5CEC9139A2EA33832 SWAP3 SLOAD AND PUSH1 0x40 MLOAD SWAP1 DUP2 MSTORE LOG2 JUMPDEST PUSH1 0x1 DUP2 SSTORE DUP1 RETURN JUMPDEST PUSH2 0x17E2 SWAP1 PUSH2 0x2614 JUMP JUMPDEST PUSH2 0x17ED JUMPI DUP5 DUP7 PUSH2 0x17A4 JUMP JUMPDEST DUP5 DUP1 REVERT JUMPDEST SWAP1 SWAP2 SWAP6 SWAP7 SWAP8 SWAP4 SWAP3 SWAP5 POP ISZERO DUP1 DUP1 SWAP2 PUSH2 0x1A81 JUMPI JUMPDEST ISZERO PUSH2 0x19F5 JUMPI POP POP PUSH1 0x1 DUP3 ADD SWAP4 DUP6 DUP6 SLOAD AND SWAP2 PUSH2 0x181F DUP4 CALLER EQ PUSH2 0x29D4 JUMP JUMPDEST DUP1 SLOAD PUSH3 0xFF0000 NOT AND PUSH3 0x10000 OR SWAP1 SSTORE PUSH1 0x6 DUP4 ADD SLOAD AND PUSH1 0x2 DUP2 LT ISZERO PUSH2 0x19E2 JUMPI DUP9 SWAP3 SWAP2 DUP8 SWAP2 PUSH2 0x18EA JUMPI POP POP DUP2 DUP1 DUP1 SWAP3 PUSH2 0x186D DUP7 DUP10 DUP10 SLOAD AND SWAP3 ADD SLOAD PUSH2 0x2710 PUSH2 0x1866 PUSH1 0x6 SLOAD DUP4 PUSH2 0x2921 JUMP JUMPDEST DIV SWAP1 PUSH2 0x25F1 JUMP JUMPDEST SWAP1 GAS CALL PUSH2 0x1878 PUSH2 0x267D JUMP JUMPDEST POP ISZERO PUSH2 0x18B2 JUMPI POP SWAP1 PUSH32 0xBEB9DB71629193A6A8D82214E24CE084D5F6B1C980D4CDA5CEC9139A2EA33832 SWAP3 SWAP2 JUMPDEST SLOAD AND PUSH1 0x40 MLOAD SWAP1 DUP2 MSTORE LOG2 PUSH2 0x17D2 JUMP JUMPDEST PUSH1 0x40 MLOAD PUSH3 0x461BCD PUSH1 0xE5 SHL DUP2 MSTORE SWAP1 DUP2 ADD DUP5 SWAP1 MSTORE PUSH1 0x11 PUSH1 0x24 DUP3 ADD MSTORE PUSH17 0x115512081C99599D5B990819985A5B1959 PUSH1 0x7A SHL PUSH1 0x44 DUP3 ADD MSTORE PUSH1 0x64 SWAP1 REVERT JUMPDEST SWAP1 SWAP2 PUSH2 0x193F SWAP4 POP PUSH2 0x190D PUSH1 0x5 DUP9 PUSH1 0xA SLOAD AND SWAP3 ADD SLOAD PUSH2 0x2710 PUSH2 0x1866 PUSH1 0x6 SLOAD DUP4 PUSH2 0x2921 JUMP JUMPDEST SWAP2 DUP11 PUSH1 0x40 MLOAD DUP1 SWAP7 DUP2 SWAP6 DUP3 SWAP5 PUSH4 0xA9059CBB PUSH1 0xE0 SHL DUP5 MSTORE DUP11 DUP5 ADD PUSH1 0x20 SWAP1 SWAP4 SWAP3 SWAP2 SWAP4 PUSH1 0x40 DUP2 ADD SWAP5 PUSH1 0x1 DUP1 PUSH1 0xA0 SHL SUB AND DUP2 MSTORE ADD MSTORE JUMP JUMPDEST SUB SWAP3 GAS CALL SWAP1 DUP2 ISZERO PUSH2 0x19D7 JUMPI DUP8 SWAP2 PUSH2 0x19BA JUMPI JUMPDEST POP ISZERO PUSH2 0x1981 JUMPI POP SWAP1 PUSH32 0xBEB9DB71629193A6A8D82214E24CE084D5F6B1C980D4CDA5CEC9139A2EA33832 SWAP3 SWAP2 PUSH2 0x18A4 JUMP JUMPDEST PUSH1 0x40 MLOAD PUSH3 0x461BCD PUSH1 0xE5 SHL DUP2 MSTORE SWAP1 DUP2 ADD DUP5 SWAP1 MSTORE PUSH1 0x12 PUSH1 0x24 DUP3 ADD MSTORE PUSH18 0x1554D110C81C99599D5B990819985A5B1959 PUSH1 0x72 SHL PUSH1 0x44 DUP3 ADD MSTORE PUSH1 0x64 SWAP1 REVERT JUMPDEST PUSH2 0x19D1 SWAP2 POP DUP6 RETURNDATASIZE DUP8 GT PUSH2 0x6D8 JUMPI PUSH2 0x6CA DUP2 DUP4 PUSH2 0x265B JUMP JUMPDEST DUP8 PUSH2 0x1951 JUMP JUMPDEST PUSH1 0x40 MLOAD RETURNDATASIZE DUP10 DUP3 RETURNDATACOPY RETURNDATASIZE SWAP1 REVERT JUMPDEST PUSH4 0x4E487B71 PUSH1 0xE0 SHL DUP10 MSTORE PUSH1 0x21 DUP5 MSTORE PUSH1 0x24 DUP10 REVERT JUMPDEST SWAP4 POP SWAP5 POP SWAP5 SWAP3 SWAP1 POP DUP2 PUSH2 0x1A73 JUMPI JUMPDEST POP PUSH2 0x1A12 JUMPI JUMPDEST POP POP POP POP PUSH2 0x17D2 JUMP JUMPDEST PUSH32 0xD48B0C9992D8D4B8967D1584DC8C1955390D9FF30639A7DA9C77E7F0DB86C3D8 SWAP3 PUSH3 0x10000 PUSH1 0x60 SWAP4 PUSH3 0xFF0000 NOT AND OR SWAP1 SSTORE PUSH1 0x10 PUSH1 0x40 MLOAD SWAP2 DUP1 DUP4 MSTORE DUP3 ADD MSTORE PUSH16 0x4E6F206465706F73697473206D616465 PUSH1 0x80 SHL PUSH1 0x40 DUP3 ADD MSTORE LOG2 DUP2 DUP1 DUP1 DUP1 PUSH2 0x1A09 JUMP JUMPDEST SWAP1 POP DUP3 PUSH1 0x8 SHR AND ISZERO DUP7 PUSH2 0x1A03 JUMP JUMPDEST POP DUP6 DUP3 PUSH1 0x8 SHR AND PUSH2 0x1803 JUMP JUMPDEST POP DUP3 DUP3 PUSH1 0x8 SHR AND ISZERO PUSH2 0x1721 JUMP JUMPDEST PUSH1 0x40 MLOAD PUSH3 0x461BCD PUSH1 0xE5 SHL DUP2 MSTORE DUP1 DUP5 ADD DUP8 SWAP1 MSTORE PUSH1 0xC PUSH1 0x24 DUP3 ADD MSTORE PUSH12 0x2737BA103090383630BCB2B9 PUSH1 0xA1 SHL PUSH1 0x44 DUP3 ADD MSTORE PUSH1 0x64 SWAP1 REVERT JUMPDEST POP DUP5 PUSH1 0x1 DUP9 ADD SLOAD AND CALLER EQ PUSH2 0x170D JUMP JUMPDEST PUSH1 0x40 MLOAD PUSH3 0x461BCD PUSH1 0xE5 SHL DUP2 MSTORE DUP1 DUP6 ADD DUP9 SWAP1 MSTORE PUSH1 0x13 PUSH1 0x24 DUP3 ADD MSTORE PUSH19 0x151A5B595BDD5D081B9BDD081C995858DA1959 PUSH1 0x6A SHL PUSH1 0x44 DUP3 ADD MSTORE PUSH1 0x64 SWAP1 REVERT JUMPDEST SWAP1 POP DUP3 CALLVALUE PUSH2 0x348 JUMPI DUP2 PUSH1 0x3 NOT CALLDATASIZE ADD SLT PUSH2 0x348 JUMPI PUSH2 0x1B31 PUSH2 0x2477 JUMP JUMPDEST PUSH2 0x1B39 PUSH2 0x248D JUMP JUMPDEST SWAP1 PUSH1 0x64 CALLDATALOAD PUSH1 0x1 PUSH1 0x1 PUSH1 0xA0 SHL SUB DUP2 AND SWAP1 DUP2 SWAP1 SUB PUSH2 0x1E23 JUMPI PUSH1 0xA4 CALLDATALOAD SWAP5 PUSH1 0xC4 CALLDATALOAD SWAP4 PUSH1 0x2 DUP6 LT ISZERO PUSH2 0x711 JUMPI PUSH2 0x1B68 PUSH2 0x2599 JUMP JUMPDEST DUP6 CALLDATALOAD DUP9 MSTORE PUSH1 0x2 PUSH1 0x20 MSTORE PUSH1 0x40 DUP9 KECCAK256 SLOAD PUSH1 0x1 PUSH1 0x1 PUSH1 0xA0 SHL SUB AND PUSH2 0x1DE9 JUMPI PUSH1 0x1 PUSH1 0x1 PUSH1 0xA0 SHL SUB SWAP4 DUP5 AND SWAP7 SWAP4 AND SWAP3 DUP7 DUP5 EQ PUSH2 0x1DA5 JUMPI DUP8 SWAP1 DUP2 DUP7 PUSH2 0x1D9D JUMPI POP PUSH2 0x1BAB SWAP1 PUSH2 0x2A29 JUMP JUMPDEST PUSH1 0x40 MLOAD SWAP4 PUSH2 0x1BB8 DUP6 PUSH2 0x263E JUMP JUMPDEST DUP9 DUP6 MSTORE DUP6 PUSH1 0x20 DUP7 ADD MSTORE PUSH1 0x40 DUP6 ADD MSTORE PUSH1 0x84 CALLDATALOAD PUSH1 0x60 DUP6 ADD MSTORE PUSH1 0x80 DUP5 ADD MSTORE PUSH1 0xA0 DUP4 ADD MSTORE PUSH2 0x1BE5 DUP5 PUSH1 0xC0 DUP5 ADD PUSH2 0x27A3 JUMP JUMPDEST TIMESTAMP DUP2 DUP4 ADD MSTORE DUP7 PUSH2 0x100 DUP4 ADD MSTORE DUP7 PUSH2 0x120 DUP4 ADD MSTORE DUP7 PUSH2 0x140 DUP4 ADD MSTORE DUP7 PUSH2 0x160 DUP4 ADD MSTORE DUP5 CALLDATALOAD DUP8 MSTORE PUSH1 0x2 PUSH1 0x20 MSTORE PUSH1 0x40 DUP8 KECCAK256 SWAP1 PUSH1 0x1 DUP1 PUSH1 0xA0 SHL SUB DUP4 MLOAD AND PUSH12 0xFFFFFFFFFFFFFFFFFFFFFFFF PUSH1 0xA0 SHL SWAP1 DUP2 DUP5 SLOAD AND OR DUP4 SSTORE PUSH1 0x1 DUP4 ADD PUSH1 0x1 DUP1 PUSH1 0xA0 SHL SUB PUSH1 0x20 DUP7 ADD MLOAD AND DUP3 DUP3 SLOAD AND OR SWAP1 SSTORE PUSH1 0x2 DUP4 ADD SWAP1 PUSH1 0x1 DUP1 PUSH1 0xA0 SHL SUB PUSH1 0x40 DUP7 ADD MLOAD AND SWAP1 DUP3 SLOAD AND OR SWAP1 SSTORE PUSH1 0x60 DUP4 ADD MLOAD PUSH1 0x3 DUP4 ADD SSTORE PUSH1 0x80 DUP4 ADD MLOAD DUP7 DUP4 ADD SSTORE PUSH1 0xA0 DUP4 ADD MLOAD PUSH1 0x5 DUP4 ADD SSTORE PUSH1 0x6 DUP3 ADD PUSH1 0xC0 DUP5 ADD MLOAD PUSH1 0x2 DUP2 LT ISZERO PUSH2 0x1D8A JUMPI DUP2 SLOAD PUSH1 0xFF NOT AND PUSH1 0xFF SWAP2 DUP3 AND OR SWAP1 SWAP2 SSTORE SWAP1 DUP4 ADD MLOAD PUSH1 0x7 DUP4 ADD SSTORE PUSH2 0x100 DUP4 ADD MLOAD PUSH1 0x8 SWAP3 DUP4 ADD DUP1 SLOAD PUSH2 0x120 DUP7 ADD MLOAD PUSH2 0x140 DUP8 ADD MLOAD PUSH2 0x160 SWAP1 SWAP8 ADD MLOAD PUSH4 0x1000000 PUSH1 0x1 PUSH1 0xB8 SHL SUB PUSH1 0x18 SWAP2 SWAP1 SWAP2 SHL AND PUSH3 0xFF0000 SWAP8 ISZERO ISZERO PUSH1 0x10 SHL SWAP8 SWAP1 SWAP8 AND PUSH2 0xFF00 SWAP2 ISZERO ISZERO SWAP1 SWAP7 SHL AND SWAP3 ISZERO ISZERO SWAP1 SWAP4 AND PUSH1 0x1 PUSH1 0x1 PUSH1 0xB8 SHL SUB NOT SWAP1 SWAP4 AND SWAP3 SWAP1 SWAP3 OR OR SWAP2 SWAP1 SWAP2 OR SWAP2 SWAP1 SWAP2 OR SWAP1 SSTORE PUSH32 0x212C0BDCF42696E85CDDF68FC1623B3327138B7898282F7356AB7EC713E9CF32 SWAP3 PUSH1 0x60 SWAP3 SWAP1 SWAP2 PUSH2 0x1D84 SWAP2 SWAP1 DUP7 DUP9 MSTORE DUP4 PUSH1 0x20 MSTORE PUSH2 0x1D5A DUP5 CALLDATALOAD PUSH1 0x40 DUP11 KECCAK256 PUSH2 0x27AF JUMP JUMPDEST DUP1 DUP9 MSTORE DUP4 PUSH1 0x20 MSTORE PUSH2 0x1D6F DUP5 CALLDATALOAD PUSH1 0x40 DUP11 KECCAK256 PUSH2 0x27AF JUMP JUMPDEST PUSH1 0x40 MLOAD SWAP7 DUP8 MSTORE PUSH1 0x20 DUP8 ADD MSTORE PUSH1 0x40 DUP7 ADD SWAP1 PUSH2 0x24A3 JUMP JUMPDEST CALLDATALOAD SWAP3 LOG2 DUP1 RETURN JUMPDEST PUSH4 0x4E487B71 PUSH1 0xE0 SHL DUP11 MSTORE PUSH1 0x21 DUP9 MSTORE PUSH1 0x24 DUP11 REVERT JUMPDEST SWAP2 POP SWAP1 PUSH2 0x1BAB JUMP JUMPDEST PUSH1 0x40 MLOAD PUSH3 0x461BCD PUSH1 0xE5 SHL DUP2 MSTORE PUSH1 0x20 DUP2 DUP9 ADD MSTORE PUSH1 0x1C PUSH1 0x24 DUP3 ADD MSTORE PUSH32 0x43616E6E6F7420706C617920616761696E737420796F757273656C6600000000 PUSH1 0x44 DUP3 ADD MSTORE PUSH1 0x64 SWAP1 REVERT JUMPDEST PUSH1 0x40 MLOAD PUSH3 0x461BCD PUSH1 0xE5 SHL DUP2 MSTORE PUSH1 0x20 DUP2 DUP9 ADD MSTORE PUSH1 0x13 PUSH1 0x24 DUP3 ADD MSTORE PUSH19 0x47616D6520616C726561647920657869737473 PUSH1 0x68 SHL PUSH1 0x44 DUP3 ADD MSTORE PUSH1 0x64 SWAP1 REVERT JUMPDEST PUSH1 0x0 DUP1 REVERT JUMPDEST DUP3 CALLVALUE PUSH2 0x23B JUMPI DUP1 PUSH1 0x3 NOT CALLDATASIZE ADD SLT PUSH2 0x23B JUMPI PUSH1 0x20 PUSH1 0x7 SLOAD PUSH1 0x40 MLOAD SWAP1 DUP2 MSTORE RETURN JUMPDEST DUP3 CALLVALUE PUSH2 0x23B JUMPI DUP1 PUSH1 0x3 NOT CALLDATASIZE ADD SLT PUSH2 0x23B JUMPI PUSH1 0x20 PUSH1 0xFF PUSH1 0x1 SLOAD PUSH1 0xA0 SHR AND PUSH1 0x40 MLOAD SWAP1 ISZERO ISZERO DUP2 MSTORE RETURN JUMPDEST DUP3 DUP5 CALLVALUE PUSH2 0x418 JUMPI PUSH1 0x20 CALLDATASIZE PUSH1 0x3 NOT ADD SLT PUSH2 0x418 JUMPI DUP1 CALLDATALOAD SWAP1 PUSH2 0x1E8A PUSH2 0x274D JUMP JUMPDEST PUSH2 0x1E92 PUSH2 0x2706 JUMP JUMPDEST DUP2 DUP4 MSTORE PUSH1 0x2 PUSH1 0x20 MSTORE PUSH1 0x40 DUP4 KECCAK256 DUP1 SLOAD PUSH1 0x1 PUSH1 0x1 PUSH1 0xA0 SHL SUB SWAP3 SWAP1 DUP4 AND PUSH2 0x1EB7 DUP2 ISZERO ISZERO PUSH2 0x27E9 JUMP JUMPDEST CALLER SUB PUSH2 0x1FD5 JUMPI DUP5 PUSH1 0x8 DUP4 ADD SWAP4 PUSH2 0x1EE0 PUSH1 0xFF DUP7 SLOAD PUSH2 0x1ED6 DUP3 DUP3 AND ISZERO PUSH2 0x282B JUMP JUMPDEST PUSH1 0x10 SHR AND ISZERO PUSH2 0x286B JUMP JUMPDEST PUSH2 0x1EF4 PUSH2 0x85B PUSH1 0x7 DUP7 ADD SLOAD PUSH1 0x7 SLOAD SWAP1 PUSH2 0x25F1 JUMP JUMPDEST PUSH1 0x2 DUP5 ADD SLOAD AND PUSH1 0x3 DUP5 ADD SLOAD SWAP1 DUP1 EXTCODESIZE ISZERO PUSH2 0x348 JUMPI PUSH1 0x40 DUP1 MLOAD PUSH4 0x23B872DD PUSH1 0xE0 SHL DUP2 MSTORE CALLER SWAP6 DUP2 ADD SWAP6 DUP7 MSTORE ADDRESS PUSH1 0x20 DUP8 ADD MSTORE SWAP1 DUP6 ADD SWAP3 SWAP1 SWAP3 MSTORE SWAP1 SWAP3 DUP4 SWAP2 SWAP1 DUP3 SWAP1 DUP5 SWAP1 DUP3 SWAP1 PUSH1 0x60 ADD SUB SWAP3 GAS CALL DUP1 ISZERO PUSH2 0x6DF JUMPI PUSH2 0x1FC1 JUMPI JUMPDEST POP DUP4 PUSH1 0x1 SWAP2 DUP5 PUSH32 0x981102F46F858A9AD42E0E3924C2EE3DDB912D9D6D28768155FFDB174C81711F PUSH1 0x60 PUSH1 0xFF PUSH1 0x6 DUP9 SLOAD SWAP6 DUP9 DUP4 NOT DUP9 AND OR DUP1 SWAP11 SSTORE ADD SLOAD AND PUSH2 0x1F9C PUSH1 0x40 MLOAD SWAP2 CALLER DUP4 MSTORE DUP9 PUSH1 0x20 DUP5 ADD MSTORE PUSH1 0x40 DUP4 ADD SWAP1 PUSH2 0x24A3 JUMP JUMPDEST LOG2 AND OR SWAP1 DUP2 PUSH2 0x1FB3 JUMPI JUMPDEST POP PUSH2 0x935 JUMPI POP PUSH1 0x1 DUP2 SSTORE DUP1 RETURN JUMPDEST PUSH1 0xFF SWAP2 POP PUSH1 0x8 SHR AND DUP4 PUSH2 0x1FA6 JUMP JUMPDEST SWAP4 PUSH2 0x1FCE PUSH1 0x1 SWAP3 SWAP6 PUSH2 0x2614 JUMP JUMPDEST SWAP4 SWAP1 PUSH2 0x1F46 JUMP JUMPDEST PUSH1 0x64 SWAP1 PUSH1 0x20 PUSH1 0x40 MLOAD SWAP2 PUSH3 0x461BCD PUSH1 0xE5 SHL DUP4 MSTORE DUP3 ADD MSTORE PUSH1 0xC PUSH1 0x24 DUP3 ADD MSTORE PUSH12 0x4E6F7420706C617965722031 PUSH1 0xA0 SHL PUSH1 0x44 DUP3 ADD MSTORE REVERT JUMPDEST DUP3 CALLVALUE PUSH2 0x23B JUMPI DUP1 PUSH1 0x3 NOT CALLDATASIZE ADD SLT PUSH2 0x23B JUMPI PUSH2 0x2021 PUSH2 0x2599 JUMP JUMPDEST PUSH2 0x2029 PUSH2 0x2706 JUMP JUMPDEST PUSH1 0x1 DUP1 SLOAD PUSH1 0xFF PUSH1 0xA0 SHL NOT AND PUSH1 0x1 PUSH1 0xA0 SHL OR SWAP1 SSTORE PUSH1 0x40 MLOAD CALLER DUP2 MSTORE PUSH32 0x62E78CEA01BEE320CD4E420270B5EA74000D11B0C9F74754EBDBFC544B05A258 SWAP1 PUSH1 0x20 SWAP1 LOG1 DUP1 RETURN JUMPDEST DUP3 DUP5 CALLVALUE PUSH2 0x418 JUMPI PUSH1 0x20 CALLDATASIZE PUSH1 0x3 NOT ADD SLT PUSH2 0x418 JUMPI DUP1 CALLDATALOAD SWAP1 PUSH2 0x2089 PUSH2 0x2599 JUMP JUMPDEST DUP2 DUP4 MSTORE PUSH1 0x2 PUSH1 0x20 MSTORE PUSH1 0x40 DUP4 KECCAK256 DUP1 SLOAD PUSH1 0x8 SWAP2 SWAP1 PUSH2 0x20AF SWAP1 PUSH1 0x1 PUSH1 0x1 PUSH1 0xA0 SHL SUB AND ISZERO ISZERO PUSH2 0x27E9 JUMP JUMPDEST ADD SWAP1 DUP2 SLOAD SWAP1 PUSH2 0x20C4 PUSH1 0xFF DUP4 PUSH1 0x10 SHR AND ISZERO PUSH2 0x298F JUMP JUMPDEST PUSH1 0xFF DUP3 AND ISZERO DUP1 PUSH2 0x2178 JUMPI JUMPDEST ISZERO PUSH2 0x2134 JUMPI POP PUSH3 0x10000 SWAP1 PUSH3 0xFF0000 NOT AND OR SWAP1 SSTORE PUSH32 0xD48B0C9992D8D4B8967D1584DC8C1955390D9FF30639A7DA9C77E7F0DB86C3D8 PUSH1 0x60 PUSH1 0x40 MLOAD PUSH1 0x20 DUP2 MSTORE PUSH1 0x13 PUSH1 0x20 DUP3 ADD MSTORE PUSH19 0x43616E63656C6C65642062792073797374656D PUSH1 0x68 SHL PUSH1 0x40 DUP3 ADD MSTORE LOG2 DUP1 RETURN JUMPDEST PUSH1 0x64 SWAP1 PUSH1 0x20 PUSH1 0x40 MLOAD SWAP2 PUSH3 0x461BCD PUSH1 0xE5 SHL DUP4 MSTORE DUP3 ADD MSTORE PUSH1 0x1C PUSH1 0x24 DUP3 ADD MSTORE PUSH32 0x43616E6E6F742063616E63656C206166746572206465706F7369747300000000 PUSH1 0x44 DUP3 ADD MSTORE REVERT JUMPDEST POP PUSH1 0xFF DUP3 PUSH1 0x8 SHR AND ISZERO PUSH2 0x20CF JUMP JUMPDEST DUP3 DUP5 CALLVALUE PUSH2 0x418 JUMPI DUP2 PUSH1 0x3 NOT CALLDATASIZE ADD SLT PUSH2 0x418 JUMPI PUSH2 0x21A0 PUSH2 0x2599 JUMP JUMPDEST PUSH1 0x1 SLOAD SWAP1 PUSH1 0xFF DUP3 PUSH1 0xA0 SHR AND ISZERO PUSH2 0x21EA JUMPI POP PUSH1 0xFF PUSH1 0xA0 SHL NOT AND PUSH1 0x1 SSTORE PUSH1 0x40 MLOAD CALLER DUP2 MSTORE PUSH32 0x5DB9EE0A495BF2E6FF9C91A7834C1BA4FDD244A5E8AA4E537BD38AEAE4B073AA SWAP1 PUSH1 0x20 SWAP1 LOG1 DUP1 RETURN JUMPDEST PUSH1 0x64 SWAP1 PUSH1 0x20 PUSH1 0x40 MLOAD SWAP2 PUSH3 0x461BCD PUSH1 0xE5 SHL DUP4 MSTORE DUP3 ADD MSTORE PUSH1 0x14 PUSH1 0x24 DUP3 ADD MSTORE PUSH20 0x14185D5CD8589B194E881B9BDD081C185D5CD959 PUSH1 0x62 SHL PUSH1 0x44 DUP3 ADD MSTORE REVERT JUMPDEST DUP3 CALLVALUE PUSH2 0x23B JUMPI DUP1 PUSH1 0x3 NOT CALLDATASIZE ADD SLT PUSH2 0x23B JUMPI PUSH1 0x20 PUSH1 0x5 SLOAD PUSH1 0x40 MLOAD SWAP1 DUP2 MSTORE RETURN JUMPDEST DUP3 CALLVALUE PUSH2 0x23B JUMPI DUP1 PUSH1 0x3 NOT CALLDATASIZE ADD SLT PUSH2 0x23B JUMPI PUSH1 0x8 SLOAD PUSH1 0x40 MLOAD PUSH1 0x1 PUSH1 0x1 PUSH1 0xA0 SHL SUB SWAP1 SWAP2 AND DUP2 MSTORE PUSH1 0x20 SWAP1 RETURN JUMPDEST DUP3 DUP5 CALLVALUE PUSH2 0x418 JUMPI PUSH1 0x20 CALLDATASIZE PUSH1 0x3 NOT ADD SLT PUSH2 0x418 JUMPI DUP1 CALLDATALOAD SWAP1 PUSH2 0x228A PUSH2 0x2599 JUMP JUMPDEST PUSH1 0x3C DUP3 LT ISZERO DUP1 PUSH2 0x22E5 JUMPI JUMPDEST ISZERO PUSH2 0x22A1 JUMPI POP PUSH1 0x7 SSTORE DUP1 RETURN JUMPDEST PUSH1 0x64 SWAP1 PUSH1 0x20 PUSH1 0x40 MLOAD SWAP2 PUSH3 0x461BCD PUSH1 0xE5 SHL DUP4 MSTORE DUP3 ADD MSTORE PUSH1 0x1C PUSH1 0x24 DUP3 ADD MSTORE PUSH32 0x54696D656F7574206D75737420626520312D3130206D696E7574657300000000 PUSH1 0x44 DUP3 ADD MSTORE REVERT JUMPDEST POP PUSH2 0x258 DUP3 GT ISZERO PUSH2 0x2295 JUMP JUMPDEST DUP3 DUP5 CALLVALUE PUSH2 0x418 JUMPI PUSH1 0x20 CALLDATASIZE PUSH1 0x3 NOT ADD SLT PUSH2 0x418 JUMPI PUSH1 0x20 SWAP1 PUSH1 0x40 MLOAD SWAP1 CALLDATALOAD DUP2 MSTORE RETURN JUMPDEST DUP3 DUP5 CALLVALUE PUSH2 0x418 JUMPI PUSH1 0x20 CALLDATASIZE PUSH1 0x3 NOT ADD SLT PUSH2 0x418 JUMPI PUSH2 0x232B PUSH2 0x2599 JUMP JUMPDEST CALLDATALOAD PUSH1 0x5 SSTORE DUP1 RETURN JUMPDEST DUP3 DUP5 CALLVALUE PUSH2 0x418 JUMPI PUSH1 0x20 CALLDATASIZE PUSH1 0x3 NOT ADD SLT PUSH2 0x418 JUMPI DUP1 CALLDATALOAD SWAP1 PUSH2 0x2350 PUSH2 0x2599 JUMP JUMPDEST PUSH2 0x3E8 DUP3 GT PUSH2 0x2360 JUMPI POP PUSH1 0x6 SSTORE DUP1 RETURN JUMPDEST PUSH1 0x64 SWAP1 PUSH1 0x20 PUSH1 0x40 MLOAD SWAP2 PUSH3 0x461BCD PUSH1 0xE5 SHL DUP4 MSTORE DUP3 ADD MSTORE PUSH1 0x7 PUSH1 0x24 DUP3 ADD MSTORE PUSH7 0x4D617820313025 PUSH1 0xC8 SHL PUSH1 0x44 DUP3 ADD MSTORE REVERT JUMPDEST DUP3 DUP5 CALLVALUE PUSH2 0x418 JUMPI PUSH1 0x20 SWAP1 DUP2 PUSH1 0x3 NOT CALLDATASIZE ADD SLT PUSH2 0x348 JUMPI PUSH1 0x1 PUSH1 0x1 PUSH1 0xA0 SHL SUB PUSH2 0x23B3 PUSH2 0x2461 JUMP JUMPDEST AND DUP4 MSTORE DUP2 MSTORE PUSH1 0x40 DUP3 KECCAK256 PUSH1 0x40 MLOAD SWAP3 DUP4 DUP4 DUP4 SLOAD SWAP2 DUP3 DUP2 MSTORE ADD SWAP1 DUP2 SWAP4 DUP4 MSTORE DUP5 DUP4 KECCAK256 SWAP1 DUP4 JUMPDEST DUP2 DUP2 LT PUSH2 0x2428 JUMPI POP POP POP DUP5 PUSH2 0x23EA SWAP2 SUB DUP6 PUSH2 0x265B JUMP JUMPDEST PUSH1 0x40 MLOAD SWAP4 DUP4 DUP6 SWAP5 DUP6 ADD SWAP2 DUP2 DUP7 MSTORE MLOAD DUP1 SWAP3 MSTORE PUSH1 0x40 DUP6 ADD SWAP4 SWAP3 JUMPDEST DUP3 DUP2 LT PUSH2 0x2411 JUMPI POP POP POP POP SUB SWAP1 RETURN JUMPDEST DUP4 MLOAD DUP6 MSTORE DUP7 SWAP6 POP SWAP4 DUP2 ADD SWAP4 SWAP3 DUP2 ADD SWAP3 PUSH1 0x1 ADD PUSH2 0x2402 JUMP JUMPDEST DUP3 SLOAD DUP5 MSTORE SWAP3 DUP7 ADD SWAP3 PUSH1 0x1 SWAP3 DUP4 ADD SWAP3 ADD PUSH2 0x23D4 JUMP JUMPDEST DUP4 SWAP1 CALLVALUE PUSH2 0x418 JUMPI DUP2 PUSH1 0x3 NOT CALLDATASIZE ADD SLT PUSH2 0x418 JUMPI PUSH1 0xA SLOAD PUSH1 0x1 PUSH1 0x1 PUSH1 0xA0 SHL SUB AND DUP2 MSTORE PUSH1 0x20 SWAP1 RETURN JUMPDEST PUSH1 0x4 CALLDATALOAD SWAP1 PUSH1 0x1 PUSH1 0x1 PUSH1 0xA0 SHL SUB DUP3 AND DUP3 SUB PUSH2 0x1E23 JUMPI JUMP JUMPDEST PUSH1 0x24 CALLDATALOAD SWAP1 PUSH1 0x1 PUSH1 0x1 PUSH1 0xA0 SHL SUB DUP3 AND DUP3 SUB PUSH2 0x1E23 JUMPI JUMP JUMPDEST PUSH1 0x44 CALLDATALOAD SWAP1 PUSH1 0x1 PUSH1 0x1 PUSH1 0xA0 SHL SUB DUP3 AND DUP3 SUB PUSH2 0x1E23 JUMPI JUMP JUMPDEST SWAP1 PUSH1 0x2 DUP3 LT ISZERO PUSH2 0x24B0 JUMPI MSTORE JUMP JUMPDEST PUSH4 0x4E487B71 PUSH1 0xE0 SHL PUSH1 0x0 MSTORE PUSH1 0x21 PUSH1 0x4 MSTORE PUSH1 0x24 PUSH1 0x0 REVERT JUMPDEST SWAP11 SWAP8 SWAP5 SWAP2 SWAP10 SWAP7 SWAP4 SWAP1 SWAP13 SWAP12 SWAP9 SWAP6 SWAP3 SWAP13 PUSH2 0x180 DUP13 ADD SWAP14 DUP13 PUSH1 0x1 PUSH1 0xA0 SHL PUSH1 0x1 SWAP1 SUB DUP1 SWAP14 DUP2 DUP1 SWAP6 AND DUP4 MSTORE AND SWAP1 PUSH1 0x20 ADD MSTORE AND PUSH1 0x40 DUP13 ADD MSTORE PUSH1 0x60 DUP12 ADD MSTORE PUSH1 0x80 DUP11 ADD MSTORE PUSH1 0xA0 DUP10 ADD MSTORE PUSH1 0xC0 DUP9 ADD PUSH2 0x2514 SWAP2 PUSH2 0x24A3 JUMP JUMPDEST PUSH1 0xE0 DUP8 ADD MSTORE ISZERO ISZERO PUSH2 0x100 DUP7 ADD MSTORE ISZERO ISZERO PUSH2 0x120 DUP6 ADD MSTORE ISZERO ISZERO PUSH2 0x140 DUP5 ADD MSTORE AND SWAP1 PUSH2 0x160 ADD MSTORE JUMP JUMPDEST DUP1 SLOAD DUP3 LT ISZERO PUSH2 0x2552 JUMPI PUSH1 0x0 MSTORE PUSH1 0x20 PUSH1 0x0 KECCAK256 ADD SWAP1 PUSH1 0x0 SWAP1 JUMP JUMPDEST PUSH4 0x4E487B71 PUSH1 0xE0 SHL PUSH1 0x0 MSTORE PUSH1 0x32 PUSH1 0x4 MSTORE PUSH1 0x24 PUSH1 0x0 REVERT JUMPDEST SWAP2 DUP2 PUSH1 0x1F DUP5 ADD SLT ISZERO PUSH2 0x1E23 JUMPI DUP3 CALLDATALOAD SWAP2 PUSH8 0xFFFFFFFFFFFFFFFF DUP4 GT PUSH2 0x1E23 JUMPI PUSH1 0x20 DUP1 DUP6 ADD SWAP5 DUP5 PUSH1 0x5 SHL ADD ADD GT PUSH2 0x1E23 JUMPI JUMP JUMPDEST PUSH1 0x1 SLOAD PUSH1 0x1 PUSH1 0x1 PUSH1 0xA0 SHL SUB AND CALLER SUB PUSH2 0x25AD JUMPI JUMP JUMPDEST PUSH1 0x64 PUSH1 0x40 MLOAD PUSH3 0x461BCD PUSH1 0xE5 SHL DUP2 MSTORE PUSH1 0x20 PUSH1 0x4 DUP3 ADD MSTORE PUSH1 0x20 PUSH1 0x24 DUP3 ADD MSTORE PUSH32 0x4F776E61626C653A2063616C6C6572206973206E6F7420746865206F776E6572 PUSH1 0x44 DUP3 ADD MSTORE REVERT JUMPDEST SWAP2 SWAP1 DUP3 ADD DUP1 SWAP3 GT PUSH2 0x25FE JUMPI JUMP JUMPDEST PUSH4 0x4E487B71 PUSH1 0xE0 SHL PUSH1 0x0 MSTORE PUSH1 0x11 PUSH1 0x4 MSTORE PUSH1 0x24 PUSH1 0x0 REVERT JUMPDEST PUSH8 0xFFFFFFFFFFFFFFFF DUP2 GT PUSH2 0x2628 JUMPI PUSH1 0x40 MSTORE JUMP JUMPDEST PUSH4 0x4E487B71 PUSH1 0xE0 SHL PUSH1 0x0 MSTORE PUSH1 0x41 PUSH1 0x4 MSTORE PUSH1 0x24 PUSH1 0x0 REVERT JUMPDEST PUSH2 0x180 DUP2 ADD SWAP1 DUP2 LT PUSH8 0xFFFFFFFFFFFFFFFF DUP3 GT OR PUSH2 0x2628 JUMPI PUSH1 0x40 MSTORE JUMP JUMPDEST SWAP1 PUSH1 0x1F DUP1 NOT SWAP2 ADD AND DUP2 ADD SWAP1 DUP2 LT PUSH8 0xFFFFFFFFFFFFFFFF DUP3 GT OR PUSH2 0x2628 JUMPI PUSH1 0x40 MSTORE JUMP JUMPDEST RETURNDATASIZE ISZERO PUSH2 0x26B8 JUMPI RETURNDATASIZE SWAP1 PUSH8 0xFFFFFFFFFFFFFFFF DUP3 GT PUSH2 0x2628 JUMPI PUSH1 0x40 MLOAD SWAP2 PUSH2 0x26AC PUSH1 0x1F DUP3 ADD PUSH1 0x1F NOT AND PUSH1 0x20 ADD DUP5 PUSH2 0x265B JUMP JUMPDEST DUP3 MSTORE RETURNDATASIZE PUSH1 0x0 PUSH1 0x20 DUP5 ADD RETURNDATACOPY JUMP JUMPDEST PUSH1 0x60 SWAP1 JUMP JUMPDEST SWAP2 SWAP1 DUP3 SUB SWAP2 DUP3 GT PUSH2 0x25FE JUMPI JUMP JUMPDEST ISZERO PUSH2 0x26D1 JUMPI JUMP JUMPDEST PUSH1 0x40 MLOAD PUSH3 0x461BCD PUSH1 0xE5 SHL DUP2 MSTORE PUSH1 0x20 PUSH1 0x4 DUP3 ADD MSTORE PUSH1 0xD PUSH1 0x24 DUP3 ADD MSTORE PUSH13 0x1499599D5B990819985A5B1959 PUSH1 0x9A SHL PUSH1 0x44 DUP3 ADD MSTORE PUSH1 0x64 SWAP1 REVERT JUMPDEST PUSH1 0xFF PUSH1 0x1 SLOAD PUSH1 0xA0 SHR AND PUSH2 0x2715 JUMPI JUMP JUMPDEST PUSH1 0x40 MLOAD PUSH3 0x461BCD PUSH1 0xE5 SHL DUP2 MSTORE PUSH1 0x20 PUSH1 0x4 DUP3 ADD MSTORE PUSH1 0x10 PUSH1 0x24 DUP3 ADD MSTORE PUSH16 0x14185D5CD8589B194E881C185D5CD959 PUSH1 0x82 SHL PUSH1 0x44 DUP3 ADD MSTORE PUSH1 0x64 SWAP1 REVERT JUMPDEST PUSH1 0x2 PUSH1 0x0 SLOAD EQ PUSH2 0x275E JUMPI PUSH1 0x2 PUSH1 0x0 SSTORE JUMP JUMPDEST PUSH1 0x40 MLOAD PUSH3 0x461BCD PUSH1 0xE5 SHL DUP2 MSTORE PUSH1 0x20 PUSH1 0x4 DUP3 ADD MSTORE PUSH1 0x1F PUSH1 0x24 DUP3 ADD MSTORE PUSH32 0x5265656E7472616E637947756172643A207265656E7472616E742063616C6C00 PUSH1 0x44 DUP3 ADD MSTORE PUSH1 0x64 SWAP1 REVERT JUMPDEST PUSH1 0x2 DUP3 LT ISZERO PUSH2 0x24B0 JUMPI MSTORE JUMP JUMPDEST DUP1 SLOAD PUSH9 0x10000000000000000 DUP2 LT ISZERO PUSH2 0x2628 JUMPI PUSH2 0x27D1 SWAP2 PUSH1 0x1 DUP3 ADD DUP2 SSTORE PUSH2 0x253A JUMP JUMPDEST DUP2 SWAP3 SWAP2 SLOAD SWAP1 PUSH1 0x3 SHL SWAP2 DUP3 SHL SWAP2 PUSH1 0x0 NOT SWAP1 SHL NOT AND OR SWAP1 SSTORE JUMP JUMPDEST ISZERO PUSH2 0x27F0 JUMPI JUMP JUMPDEST PUSH1 0x40 MLOAD PUSH3 0x461BCD PUSH1 0xE5 SHL DUP2 MSTORE PUSH1 0x20 PUSH1 0x4 DUP3 ADD MSTORE PUSH1 0x13 PUSH1 0x24 DUP3 ADD MSTORE PUSH19 0x11D85B5948191BD95CC81B9BDD08195E1A5CDD PUSH1 0x6A SHL PUSH1 0x44 DUP3 ADD MSTORE PUSH1 0x64 SWAP1 REVERT JUMPDEST ISZERO PUSH2 0x2832 JUMPI JUMP JUMPDEST PUSH1 0x40 MLOAD PUSH3 0x461BCD PUSH1 0xE5 SHL DUP2 MSTORE PUSH1 0x20 PUSH1 0x4 DUP3 ADD MSTORE PUSH1 0x11 PUSH1 0x24 DUP3 ADD MSTORE PUSH17 0x105B1C9958591E4819195C1BDCDA5D1959 PUSH1 0x7A SHL PUSH1 0x44 DUP3 ADD MSTORE PUSH1 0x64 SWAP1 REVERT JUMPDEST ISZERO PUSH2 0x2872 JUMPI JUMP JUMPDEST PUSH1 0x40 MLOAD PUSH3 0x461BCD PUSH1 0xE5 SHL DUP2 MSTORE PUSH1 0x20 PUSH1 0x4 DUP3 ADD MSTORE PUSH1 0xE PUSH1 0x24 DUP3 ADD MSTORE PUSH14 0x11D85B594818DBDB5C1B195D1959 PUSH1 0x92 SHL PUSH1 0x44 DUP3 ADD MSTORE PUSH1 0x64 SWAP1 REVERT JUMPDEST ISZERO PUSH2 0x28AF JUMPI JUMP JUMPDEST PUSH1 0x40 MLOAD PUSH3 0x461BCD PUSH1 0xE5 SHL DUP2 MSTORE PUSH1 0x20 PUSH1 0x4 DUP3 ADD MSTORE PUSH1 0xF PUSH1 0x24 DUP3 ADD MSTORE PUSH15 0x11195C1BDCDA5D081D1A5B595BDD5D PUSH1 0x8A SHL PUSH1 0x44 DUP3 ADD MSTORE PUSH1 0x64 SWAP1 REVERT JUMPDEST ISZERO PUSH2 0x28ED JUMPI JUMP JUMPDEST PUSH1 0x40 MLOAD PUSH3 0x461BCD PUSH1 0xE5 SHL DUP2 MSTORE PUSH1 0x20 PUSH1 0x4 DUP3 ADD MSTORE PUSH1 0xC PUSH1 0x24 DUP3 ADD MSTORE PUSH12 0x2737BA10383630BCB2B91019 PUSH1 0xA1 SHL PUSH1 0x44 DUP3 ADD MSTORE PUSH1 0x64 SWAP1 REVERT JUMPDEST DUP2 DUP2 MUL SWAP3 SWAP2 DUP2 ISZERO SWAP2 DUP5 DIV EQ OR ISZERO PUSH2 0x25FE JUMPI JUMP JUMPDEST SWAP1 DUP2 PUSH1 0x20 SWAP2 SUB SLT PUSH2 0x1E23 JUMPI MLOAD DUP1 ISZERO ISZERO DUP2 SUB PUSH2 0x1E23 JUMPI SWAP1 JUMP JUMPDEST ISZERO PUSH2 0x2953 JUMPI JUMP JUMPDEST PUSH1 0x40 MLOAD PUSH3 0x461BCD PUSH1 0xE5 SHL DUP2 MSTORE PUSH1 0x20 PUSH1 0x4 DUP3 ADD MSTORE PUSH1 0x14 PUSH1 0x24 DUP3 ADD MSTORE PUSH20 0x1554D110C81D1C985B9CD9995C8819985A5B1959 PUSH1 0x62 SHL PUSH1 0x44 DUP3 ADD MSTORE PUSH1 0x64 SWAP1 REVERT JUMPDEST ISZERO PUSH2 0x2996 JUMPI JUMP JUMPDEST PUSH1 0x40 MLOAD PUSH3 0x461BCD PUSH1 0xE5 SHL DUP2 MSTORE PUSH1 0x20 PUSH1 0x4 DUP3 ADD MSTORE PUSH1 0x16 PUSH1 0x24 DUP3 ADD MSTORE PUSH22 0x11D85B5948185B1C9958591E4818DBDB5C1B195D1959 PUSH1 0x52 SHL PUSH1 0x44 DUP3 ADD MSTORE PUSH1 0x64 SWAP1 REVERT JUMPDEST ISZERO PUSH2 0x29DB JUMPI JUMP JUMPDEST PUSH1 0x40 MLOAD PUSH3 0x461BCD PUSH1 0xE5 SHL DUP2 MSTORE PUSH1 0x20 PUSH1 0x4 DUP3 ADD MSTORE PUSH1 0xF PUSH1 0x24 DUP3 ADD MSTORE PUSH15 0x4E6F7420796F757220617373657473 PUSH1 0x88 SHL PUSH1 0x44 DUP3 ADD MSTORE PUSH1 0x64 SWAP1 REVERT JUMPDEST MLOAD SWAP1 PUSH10 0xFFFFFFFFFFFFFFFFFFFF DUP3 AND DUP3 SUB PUSH2 0x1E23 JUMPI JUMP JUMPDEST PUSH1 0x9 SLOAD PUSH1 0x40 MLOAD PUSH4 0x3FABE5A3 PUSH1 0xE2 SHL DUP2 MSTORE SWAP2 SWAP1 PUSH1 0xA0 SWAP1 DUP4 SWAP1 PUSH1 0x4 SWAP1 DUP3 SWAP1 PUSH1 0x1 PUSH1 0x1 PUSH1 0xA0 SHL SUB AND GAS STATICCALL SWAP2 DUP3 ISZERO PUSH2 0x2B2C JUMPI PUSH1 0x0 SWAP3 PUSH2 0x2ADE JUMPI JUMPDEST POP PUSH1 0x0 DUP3 SGT ISZERO PUSH2 0x2AA4 JUMPI PUSH9 0x56BC75E2D63100000 SWAP1 DUP2 DUP2 MUL SWAP2 DUP2 DUP4 DIV EQ SWAP1 ISZERO OR ISZERO PUSH2 0x25FE JUMPI DUP2 ISZERO PUSH2 0x2A8E JUMPI DIV SWAP1 JUMP JUMPDEST PUSH4 0x4E487B71 PUSH1 0xE0 SHL PUSH1 0x0 MSTORE PUSH1 0x12 PUSH1 0x4 MSTORE PUSH1 0x24 PUSH1 0x0 REVERT JUMPDEST PUSH1 0x40 MLOAD PUSH3 0x461BCD PUSH1 0xE5 SHL DUP2 MSTORE PUSH1 0x20 PUSH1 0x4 DUP3 ADD MSTORE PUSH1 0x12 PUSH1 0x24 DUP3 ADD MSTORE PUSH18 0x125B9D985B1A59081C1C9A58D94819995959 PUSH1 0x72 SHL PUSH1 0x44 DUP3 ADD MSTORE PUSH1 0x64 SWAP1 REVERT JUMPDEST SWAP1 SWAP2 PUSH1 0xA0 DUP3 RETURNDATASIZE DUP3 GT PUSH2 0x2B24 JUMPI JUMPDEST DUP2 PUSH2 0x2AF8 PUSH1 0xA0 SWAP4 DUP4 PUSH2 0x265B JUMP JUMPDEST DUP2 ADD SUB SLT PUSH2 0x23B JUMPI POP PUSH2 0x2B0A DUP2 PUSH2 0x2A12 JUMP JUMPDEST POP PUSH2 0x2B1C PUSH1 0x80 PUSH1 0x20 DUP4 ADD MLOAD SWAP3 ADD PUSH2 0x2A12 JUMP JUMPDEST POP SWAP1 CODESIZE PUSH2 0x2A5F JUMP JUMPDEST RETURNDATASIZE SWAP2 POP PUSH2 0x2AEB JUMP JUMPDEST PUSH1 0x40 MLOAD RETURNDATASIZE PUSH1 0x0 DUP3 RETURNDATACOPY RETURNDATASIZE SWAP1 REVERT JUMPDEST SWAP2 SWAP1 DUP2 LT ISZERO PUSH2 0x2552 JUMPI PUSH1 0x5 SHL ADD SWAP1 JUMP JUMPDEST CALLDATALOAD PUSH1 0x1 PUSH1 0x1 PUSH1 0xA0 SHL SUB DUP2 AND DUP2 SUB PUSH2 0x1E23 JUMPI SWAP1 JUMP INVALID LOG2 PUSH5 0x6970667358 0x22 SLT KECCAK256 0x2F 0x2F 0x4C 0xBC PUSH14 0xB2EBF1F4CDC473B1BB944AE99575 0x2C LOG1 0xEE 0xF9 STOP 0xEB CREATE2 0xBD 0x1F MSTORE8 LOG3 0xEA SLT PUSH5 0x736F6C6343 STOP ADDMOD EQ STOP CALLER "},"methodIdentifiers":{"BASIS_POINTS()":"e1f1c4a7","adminBatchWithdrawNFTs(address[],uint256[],address[])":"cb9a2630","canDeposit(bytes32)":"f372e33c","canStartGame(bytes32)":"7f80e6f2","cancelGame(bytes32)":"3f7121b0","completeGame(bytes32,address)":"e9df3027","depositETH(bytes32)":"d68d9d4e","depositNFT(bytes32)":"57177224","depositTimeout()":"615318c7","depositUSDC(bytes32,uint256)":"7c34c355","emergencyPause()":"51858e27","emergencyWithdrawETH()":"84536017","emergencyWithdrawNFT(address,uint256,address)":"b1a81295","ethUsdFeed()":"8009b7bd","games(bytes32)":"f579f882","getETHAmount(uint256)":"ef46b2ab","getGameDetails(bytes32)":"8a1fa029","getUSDCAmount(uint256)":"1fd462cd","getUserGames(address)":"120aace6","initializeGame(bytes32,address,address,address,uint256,uint256,uint8)":"691ddd7d","listingFeeUSD()":"3a38d063","listingFees(address)":"f060ad4c","owner()":"8da5cb5b","paused()":"5c975abb","payListingFee()":"b262f41f","platformFeePercent()":"8c639a85","platformFeeReceiver()":"2d656ad7","reclaimAssets(bytes32)":"6dbf2763","renounceOwnership()":"715018a6","setDepositTimeout(uint256)":"27627373","setListingFee(uint256)":"131dbd09","setPlatformFee(uint256)":"12e8e2c3","transferOwnership(address)":"f2fde38b","unpause()":"3f4ba83a","usdcToken()":"11eac855","userGames(address,uint256)":"bc0167cd"}}}}}