{"contracts/NFTFlipGame.sol":{"NFTFlipGame":{"abi":[{"inputs":[{"internalType":"address","name":"_feeReceiver","type":"address"}],"stateMutability":"nonpayable","type":"constructor"},{"anonymous":false,"inputs":[{"indexed":true,"internalType":"address","name":"receiver","type":"address"},{"indexed":false,"internalType":"uint256","name":"amount","type":"uint256"}],"name":"FeesTransferred","type":"event"},{"anonymous":false,"inputs":[{"indexed":true,"internalType":"uint256","name":"gameId","type":"uint256"},{"indexed":true,"internalType":"address","name":"winner","type":"address"}],"name":"GameCompleted","type":"event"},{"anonymous":false,"inputs":[{"indexed":true,"internalType":"uint256","name":"gameId","type":"uint256"},{"indexed":true,"internalType":"address","name":"creator","type":"address"},{"indexed":false,"internalType":"uint256","name":"weiAmount","type":"uint256"}],"name":"GameCreated","type":"event"},{"anonymous":false,"inputs":[{"indexed":true,"internalType":"uint256","name":"gameId","type":"uint256"},{"indexed":true,"internalType":"address","name":"joiner","type":"address"}],"name":"GameJoined","type":"event"},{"anonymous":false,"inputs":[{"indexed":true,"internalType":"address","name":"previousOwner","type":"address"},{"indexed":true,"internalType":"address","name":"newOwner","type":"address"}],"name":"OwnershipTransferred","type":"event"},{"inputs":[{"internalType":"uint256","name":"gameId","type":"uint256"},{"internalType":"address","name":"winner","type":"address"}],"name":"completeGame","outputs":[],"stateMutability":"nonpayable","type":"function"},{"inputs":[{"internalType":"address","name":"nftContract","type":"address"},{"internalType":"uint256","name":"tokenId","type":"uint256"},{"internalType":"uint256","name":"weiAmount","type":"uint256"}],"name":"createGame","outputs":[],"stateMutability":"nonpayable","type":"function"},{"inputs":[],"name":"emergencyWithdrawETH","outputs":[],"stateMutability":"nonpayable","type":"function"},{"inputs":[{"internalType":"address","name":"nftContract","type":"address"},{"internalType":"uint256","name":"tokenId","type":"uint256"}],"name":"emergencyWithdrawNFT","outputs":[],"stateMutability":"nonpayable","type":"function"},{"inputs":[],"name":"feePercent","outputs":[{"internalType":"uint256","name":"","type":"uint256"}],"stateMutability":"view","type":"function"},{"inputs":[],"name":"feeReceiver","outputs":[{"internalType":"address","name":"","type":"address"}],"stateMutability":"view","type":"function"},{"inputs":[{"internalType":"uint256","name":"","type":"uint256"}],"name":"games","outputs":[{"internalType":"address","name":"creator","type":"address"},{"internalType":"address","name":"joiner","type":"address"},{"internalType":"address","name":"nftContract","type":"address"},{"internalType":"uint256","name":"tokenId","type":"uint256"},{"internalType":"uint256","name":"weiAmount","type":"uint256"},{"internalType":"bool","name":"completed","type":"bool"},{"internalType":"address","name":"winner","type":"address"}],"stateMutability":"view","type":"function"},{"inputs":[{"internalType":"uint256","name":"gameId","type":"uint256"}],"name":"joinGame","outputs":[],"stateMutability":"payable","type":"function"},{"inputs":[],"name":"nextGameId","outputs":[{"internalType":"uint256","name":"","type":"uint256"}],"stateMutability":"view","type":"function"},{"inputs":[],"name":"owner","outputs":[{"internalType":"address","name":"","type":"address"}],"stateMutability":"view","type":"function"},{"inputs":[],"name":"renounceOwnership","outputs":[],"stateMutability":"nonpayable","type":"function"},{"inputs":[{"internalType":"address","name":"newOwner","type":"address"}],"name":"transferOwnership","outputs":[],"stateMutability":"nonpayable","type":"function"}],"evm":{"bytecode":{"linkReferences":{},"object":"6080346100b757601f610c6638819003918201601f19168301916001600160401b038311848410176100bc578084926020946040528339810103126100b757516001600160a01b0390818116908190036100b757600160005560015460018060a01b0319903382821617600155604051933391167f8be0079c531659141344cd1fd0a4f28419497f9722a3daafe3b4186f6b6457e0600080a3600160035561015e6005556004541617600455610b9390816100d38239f35b600080fd5b634e487b7160e01b600052604160045260246000fdfe6080604081815260048036101561001557600080fd5b600092833560e01c908163117a5b9014610936575080633b17469e1461070a578063715018a6146106ac5780637fd6f15c1461068d578063845360171461063d5780638da5cb5b1461061457838163922b80791461056f57508063a6ff668914610356578063b135bbb014610333578063b3f006741461030c578063efaa55a0146101785763f2fde38b146100a957600080fd5b34610174576020366003190112610174576100c26109b2565b906100cb6109c8565b6001600160a01b03918216928315610122575050600154826bffffffffffffffffffffffff60a01b821617600155167f8be0079c531659141344cd1fd0a4f28419497f9722a3daafe3b4186f6b6457e0600080a380f35b906020608492519162461bcd60e51b8352820152602660248201527f4f776e61626c653a206e6577206f776e657220697320746865207a65726f206160448201526564647265737360d01b6064820152fd5b8280fd5b50602036600319011261017457803590610190610a4a565b818452600260205282842080546001600160a01b039291906101b59084161515610aa0565b60018101908154908482166102d357806101d760ff6005879401541615610ae2565b01543403610290576001600160a01b03191633179055600554612710906101fe9034610b27565b049361020a8534610b50565b50858080808887875416828215610287575bf11561027e57917fc812aa15be10cc23ff245a12080e7de523f13b7fd4a16277a703c4f8e31137099391602093519233907f45c4f9cbafe186141862608c493f28b823fde4c2142bedc3f5169961a73fdd228980a35416938152a26001815580f35b513d86823e3d90fd5b506108fc61021c565b855162461bcd60e51b8152602081850152601860248201527f496e636f7272656374207061796d656e7420616d6f756e7400000000000000006044820152606490fd5b865162461bcd60e51b8152602081860152601360248201527211d85b5948185b1c9958591e481a9bda5b9959606a1b6044820152606490fd5b50346101745782600319360112610174575490516001600160a01b03909116815260209150f35b5050346103525781600319360112610352576020906003549051908152f35b5080fd5b5090346101745780600319360112610174576024356001600160a01b0381811693803593929085820361056a5761038b6109c8565b610393610a4a565b8487526002602052838720838154166103ad811515610aa0565b846001830154169081156105315760058301918254916103d060ff841615610ae2565b8a14908115610527575b50156104f3576001600160a81b031916600885901b610100600160a81b0316176001179055879392919060036104238383015461271061041c60055483610b27565b0490610b50565b9460028301541691015490803b156104ef5786516323b872dd60e01b8152309381019384526001600160a01b0390941660208401526040830191909152849183919082908490829060600103925af180156104e5579083916104d1575b50808092878282156104c8575bf1156104bf57507f7f40df5127524300187445e867486da572aab86769c0212e0b392bd87c4ca97f8380a36001815580f35b513d84823e3d90fd5b506108fc61048d565b6104da90610a20565b610352578138610480565b84513d85823e3d90fd5b8580fd5b865162461bcd60e51b8152602081860152600e60248201526d24b73b30b634b2103bb4b73732b960911b6044820152606490fd5b90508914386103da565b865162461bcd60e51b8152602081860152601360248201527211d85b59481b9bdd081a9bda5b9959081e595d606a1b6044820152606490fd5b600080fd5b9290503461061057806003193601126106105761058a6109b2565b916105936109c8565b6001546001600160a01b03938416931690833b1561060c5782516323b872dd60e01b8152309181019182526001600160a01b03909216602082015260243560408201529092849184919082908490829060600103925af19081156104bf57506105f95750f35b61060290610a20565b6106095780f35b80fd5b8480fd5b5050fd5b50503461035257816003193601126103525760015490516001600160a01b039091168152602090f35b5050346103525781600319360112610352576106576109c8565b8180808060018060a01b03600154164790828215610684575bf11561067a575080f35b51903d90823e3d90fd5b506108fc610670565b5050346103525781600319360112610352576020906005549051908152f35b83346106095780600319360112610609576106c56109c8565b600180546001600160a01b031981169091556000906001600160a01b03167f8be0079c531659141344cd1fd0a4f28419497f9722a3daafe3b4186f6b6457e08280a380f35b5034610174576060366003190112610174576107246109b2565b6044359290602435610734610a4a565b84156108f3576001600160a01b0391821693843b156108ef5783516323b872dd60e01b815233828201908152306020820152604081018490528890829081906060010381838a5af180156108e5576108d2575b506003549460001986146108bf576001860160035584519260e0840184811067ffffffffffffffff8211176108aa5793610879959388936005938c978a5233845260208401918883528a85019081526060850191825260808501928d8452888c60a088019b808d5260c089019a818c528152600260205220965116906bffffffffffffffffffffffff60a01b91828854161787558960018801915116828254161790558860028701925116908254161790555160038401555190820155019251151560ff801985541691161783555116815490610100600160a81b039060081b1690610100600160a81b031916179055565b519182527f7dfb67e9ff596fca4da65c7eedb128cd1aac553af54b3c0cb733625a2480d8bd60203393a36001815580f35b604184634e487b7160e01b6000525260246000fd5b634e487b7160e01b885260118252602488fd5b6108de90979197610a20565b9538610787565b85513d8a823e3d90fd5b8680fd5b825162461bcd60e51b8152602081860152601c60248201527f5072696365206d7573742062652067726561746572207468616e2030000000006044820152606490fd5b929050346109ae5760203660031901126109ae578060e0948335815260026020522060018060a01b0392838254169284600184015416908560028501541691600560038601549486015495015495885260208801528601526060850152608084015260ff8116151560a084015260081c1660c0820152f35b8380fd5b600435906001600160a01b038216820361056a57565b6001546001600160a01b031633036109dc57565b606460405162461bcd60e51b815260206004820152602060248201527f4f776e61626c653a2063616c6c6572206973206e6f7420746865206f776e65726044820152fd5b67ffffffffffffffff8111610a3457604052565b634e487b7160e01b600052604160045260246000fd5b600260005414610a5b576002600055565b60405162461bcd60e51b815260206004820152601f60248201527f5265656e7472616e637947756172643a207265656e7472616e742063616c6c006044820152606490fd5b15610aa757565b60405162461bcd60e51b815260206004820152601360248201527211d85b5948191bd95cc81b9bdd08195e1a5cdd606a1b6044820152606490fd5b15610ae957565b60405162461bcd60e51b815260206004820152601660248201527511d85b5948185b1c9958591e4818dbdb5c1b195d195960521b6044820152606490fd5b81810292918115918404141715610b3a57565b634e487b7160e01b600052601160045260246000fd5b91908203918211610b3a5756fea2646970667358221220d84703fd52ec860c5e27bbabd980d573446b8ba62f6d3b03746916bc8b33a08e64736f6c63430008140033","opcodes":"PUSH1 0x80 CALLVALUE PUSH2 0xB7 JUMPI PUSH1 0x1F PUSH2 0xC66 CODESIZE DUP2 SWAP1 SUB SWAP2 DUP3 ADD PUSH1 0x1F NOT AND DUP4 ADD SWAP2 PUSH1 0x1 PUSH1 0x1 PUSH1 0x40 SHL SUB DUP4 GT DUP5 DUP5 LT OR PUSH2 0xBC JUMPI DUP1 DUP5 SWAP3 PUSH1 0x20 SWAP5 PUSH1 0x40 MSTORE DUP4 CODECOPY DUP2 ADD SUB SLT PUSH2 0xB7 JUMPI MLOAD PUSH1 0x1 PUSH1 0x1 PUSH1 0xA0 SHL SUB SWAP1 DUP2 DUP2 AND SWAP1 DUP2 SWAP1 SUB PUSH2 0xB7 JUMPI PUSH1 0x1 PUSH1 0x0 SSTORE PUSH1 0x1 SLOAD PUSH1 0x1 DUP1 PUSH1 0xA0 SHL SUB NOT SWAP1 CALLER DUP3 DUP3 AND OR PUSH1 0x1 SSTORE PUSH1 0x40 MLOAD SWAP4 CALLER SWAP2 AND PUSH32 0x8BE0079C531659141344CD1FD0A4F28419497F9722A3DAAFE3B4186F6B6457E0 PUSH1 0x0 DUP1 LOG3 PUSH1 0x1 PUSH1 0x3 SSTORE PUSH2 0x15E PUSH1 0x5 SSTORE PUSH1 0x4 SLOAD AND OR PUSH1 0x4 SSTORE PUSH2 0xB93 SWAP1 DUP2 PUSH2 0xD3 DUP3 CODECOPY RETURN JUMPDEST PUSH1 0x0 DUP1 REVERT JUMPDEST PUSH4 0x4E487B71 PUSH1 0xE0 SHL PUSH1 0x0 MSTORE PUSH1 0x41 PUSH1 0x4 MSTORE PUSH1 0x24 PUSH1 0x0 REVERT INVALID PUSH1 0x80 PUSH1 0x40 DUP2 DUP2 MSTORE PUSH1 0x4 DUP1 CALLDATASIZE LT ISZERO PUSH2 0x15 JUMPI PUSH1 0x0 DUP1 REVERT JUMPDEST PUSH1 0x0 SWAP3 DUP4 CALLDATALOAD PUSH1 0xE0 SHR SWAP1 DUP2 PUSH4 0x117A5B90 EQ PUSH2 0x936 JUMPI POP DUP1 PUSH4 0x3B17469E EQ PUSH2 0x70A JUMPI DUP1 PUSH4 0x715018A6 EQ PUSH2 0x6AC JUMPI DUP1 PUSH4 0x7FD6F15C EQ PUSH2 0x68D JUMPI DUP1 PUSH4 0x84536017 EQ PUSH2 0x63D JUMPI DUP1 PUSH4 0x8DA5CB5B EQ PUSH2 0x614 JUMPI DUP4 DUP2 PUSH4 0x922B8079 EQ PUSH2 0x56F JUMPI POP DUP1 PUSH4 0xA6FF6689 EQ PUSH2 0x356 JUMPI DUP1 PUSH4 0xB135BBB0 EQ PUSH2 0x333 JUMPI DUP1 PUSH4 0xB3F00674 EQ PUSH2 0x30C JUMPI DUP1 PUSH4 0xEFAA55A0 EQ PUSH2 0x178 JUMPI PUSH4 0xF2FDE38B EQ PUSH2 0xA9 JUMPI PUSH1 0x0 DUP1 REVERT JUMPDEST CALLVALUE PUSH2 0x174 JUMPI PUSH1 0x20 CALLDATASIZE PUSH1 0x3 NOT ADD SLT PUSH2 0x174 JUMPI PUSH2 0xC2 PUSH2 0x9B2 JUMP JUMPDEST SWAP1 PUSH2 0xCB PUSH2 0x9C8 JUMP JUMPDEST PUSH1 0x1 PUSH1 0x1 PUSH1 0xA0 SHL SUB SWAP2 DUP3 AND SWAP3 DUP4 ISZERO PUSH2 0x122 JUMPI POP POP PUSH1 0x1 SLOAD DUP3 PUSH12 0xFFFFFFFFFFFFFFFFFFFFFFFF PUSH1 0xA0 SHL DUP3 AND OR PUSH1 0x1 SSTORE AND PUSH32 0x8BE0079C531659141344CD1FD0A4F28419497F9722A3DAAFE3B4186F6B6457E0 PUSH1 0x0 DUP1 LOG3 DUP1 RETURN JUMPDEST SWAP1 PUSH1 0x20 PUSH1 0x84 SWAP3 MLOAD SWAP2 PUSH3 0x461BCD PUSH1 0xE5 SHL DUP4 MSTORE DUP3 ADD MSTORE PUSH1 0x26 PUSH1 0x24 DUP3 ADD MSTORE PUSH32 0x4F776E61626C653A206E6577206F776E657220697320746865207A65726F2061 PUSH1 0x44 DUP3 ADD MSTORE PUSH6 0x646472657373 PUSH1 0xD0 SHL PUSH1 0x64 DUP3 ADD MSTORE REVERT JUMPDEST DUP3 DUP1 REVERT JUMPDEST POP PUSH1 0x20 CALLDATASIZE PUSH1 0x3 NOT ADD SLT PUSH2 0x174 JUMPI DUP1 CALLDATALOAD SWAP1 PUSH2 0x190 PUSH2 0xA4A JUMP JUMPDEST DUP2 DUP5 MSTORE PUSH1 0x2 PUSH1 0x20 MSTORE DUP3 DUP5 KECCAK256 DUP1 SLOAD PUSH1 0x1 PUSH1 0x1 PUSH1 0xA0 SHL SUB SWAP3 SWAP2 SWAP1 PUSH2 0x1B5 SWAP1 DUP5 AND ISZERO ISZERO PUSH2 0xAA0 JUMP JUMPDEST PUSH1 0x1 DUP2 ADD SWAP1 DUP2 SLOAD SWAP1 DUP5 DUP3 AND PUSH2 0x2D3 JUMPI DUP1 PUSH2 0x1D7 PUSH1 0xFF PUSH1 0x5 DUP8 SWAP5 ADD SLOAD AND ISZERO PUSH2 0xAE2 JUMP JUMPDEST ADD SLOAD CALLVALUE SUB PUSH2 0x290 JUMPI PUSH1 0x1 PUSH1 0x1 PUSH1 0xA0 SHL SUB NOT AND CALLER OR SWAP1 SSTORE PUSH1 0x5 SLOAD PUSH2 0x2710 SWAP1 PUSH2 0x1FE SWAP1 CALLVALUE PUSH2 0xB27 JUMP JUMPDEST DIV SWAP4 PUSH2 0x20A DUP6 CALLVALUE PUSH2 0xB50 JUMP JUMPDEST POP DUP6 DUP1 DUP1 DUP1 DUP9 DUP8 DUP8 SLOAD AND DUP3 DUP3 ISZERO PUSH2 0x287 JUMPI JUMPDEST CALL ISZERO PUSH2 0x27E JUMPI SWAP2 PUSH32 0xC812AA15BE10CC23FF245A12080E7DE523F13B7FD4A16277A703C4F8E3113709 SWAP4 SWAP2 PUSH1 0x20 SWAP4 MLOAD SWAP3 CALLER SWAP1 PUSH32 0x45C4F9CBAFE186141862608C493F28B823FDE4C2142BEDC3F5169961A73FDD22 DUP10 DUP1 LOG3 SLOAD AND SWAP4 DUP2 MSTORE LOG2 PUSH1 0x1 DUP2 SSTORE DUP1 RETURN JUMPDEST MLOAD RETURNDATASIZE DUP7 DUP3 RETURNDATACOPY RETURNDATASIZE SWAP1 REVERT JUMPDEST POP PUSH2 0x8FC PUSH2 0x21C JUMP JUMPDEST DUP6 MLOAD PUSH3 0x461BCD PUSH1 0xE5 SHL DUP2 MSTORE PUSH1 0x20 DUP2 DUP6 ADD MSTORE PUSH1 0x18 PUSH1 0x24 DUP3 ADD MSTORE PUSH32 0x496E636F7272656374207061796D656E7420616D6F756E740000000000000000 PUSH1 0x44 DUP3 ADD MSTORE PUSH1 0x64 SWAP1 REVERT JUMPDEST DUP7 MLOAD PUSH3 0x461BCD PUSH1 0xE5 SHL DUP2 MSTORE PUSH1 0x20 DUP2 DUP7 ADD MSTORE PUSH1 0x13 PUSH1 0x24 DUP3 ADD MSTORE PUSH19 0x11D85B5948185B1C9958591E481A9BDA5B9959 PUSH1 0x6A SHL PUSH1 0x44 DUP3 ADD MSTORE PUSH1 0x64 SWAP1 REVERT JUMPDEST POP CALLVALUE PUSH2 0x174 JUMPI DUP3 PUSH1 0x3 NOT CALLDATASIZE ADD SLT PUSH2 0x174 JUMPI SLOAD SWAP1 MLOAD PUSH1 0x1 PUSH1 0x1 PUSH1 0xA0 SHL SUB SWAP1 SWAP2 AND DUP2 MSTORE PUSH1 0x20 SWAP2 POP RETURN JUMPDEST POP POP CALLVALUE PUSH2 0x352 JUMPI DUP2 PUSH1 0x3 NOT CALLDATASIZE ADD SLT PUSH2 0x352 JUMPI PUSH1 0x20 SWAP1 PUSH1 0x3 SLOAD SWAP1 MLOAD SWAP1 DUP2 MSTORE RETURN JUMPDEST POP DUP1 REVERT JUMPDEST POP SWAP1 CALLVALUE PUSH2 0x174 JUMPI DUP1 PUSH1 0x3 NOT CALLDATASIZE ADD SLT PUSH2 0x174 JUMPI PUSH1 0x24 CALLDATALOAD PUSH1 0x1 PUSH1 0x1 PUSH1 0xA0 SHL SUB DUP2 DUP2 AND SWAP4 DUP1 CALLDATALOAD SWAP4 SWAP3 SWAP1 DUP6 DUP3 SUB PUSH2 0x56A JUMPI PUSH2 0x38B PUSH2 0x9C8 JUMP JUMPDEST PUSH2 0x393 PUSH2 0xA4A JUMP JUMPDEST DUP5 DUP8 MSTORE PUSH1 0x2 PUSH1 0x20 MSTORE DUP4 DUP8 KECCAK256 DUP4 DUP2 SLOAD AND PUSH2 0x3AD DUP2 ISZERO ISZERO PUSH2 0xAA0 JUMP JUMPDEST DUP5 PUSH1 0x1 DUP4 ADD SLOAD AND SWAP1 DUP2 ISZERO PUSH2 0x531 JUMPI PUSH1 0x5 DUP4 ADD SWAP2 DUP3 SLOAD SWAP2 PUSH2 0x3D0 PUSH1 0xFF DUP5 AND ISZERO PUSH2 0xAE2 JUMP JUMPDEST DUP11 EQ SWAP1 DUP2 ISZERO PUSH2 0x527 JUMPI JUMPDEST POP ISZERO PUSH2 0x4F3 JUMPI PUSH1 0x1 PUSH1 0x1 PUSH1 0xA8 SHL SUB NOT AND PUSH1 0x8 DUP6 SWAP1 SHL PUSH2 0x100 PUSH1 0x1 PUSH1 0xA8 SHL SUB AND OR PUSH1 0x1 OR SWAP1 SSTORE DUP8 SWAP4 SWAP3 SWAP2 SWAP1 PUSH1 0x3 PUSH2 0x423 DUP4 DUP4 ADD SLOAD PUSH2 0x2710 PUSH2 0x41C PUSH1 0x5 SLOAD DUP4 PUSH2 0xB27 JUMP JUMPDEST DIV SWAP1 PUSH2 0xB50 JUMP JUMPDEST SWAP5 PUSH1 0x2 DUP4 ADD SLOAD AND SWAP2 ADD SLOAD SWAP1 DUP1 EXTCODESIZE ISZERO PUSH2 0x4EF JUMPI DUP7 MLOAD PUSH4 0x23B872DD PUSH1 0xE0 SHL DUP2 MSTORE ADDRESS SWAP4 DUP2 ADD SWAP4 DUP5 MSTORE PUSH1 0x1 PUSH1 0x1 PUSH1 0xA0 SHL SUB SWAP1 SWAP5 AND PUSH1 0x20 DUP5 ADD MSTORE PUSH1 0x40 DUP4 ADD SWAP2 SWAP1 SWAP2 MSTORE DUP5 SWAP2 DUP4 SWAP2 SWAP1 DUP3 SWAP1 DUP5 SWAP1 DUP3 SWAP1 PUSH1 0x60 ADD SUB SWAP3 GAS CALL DUP1 ISZERO PUSH2 0x4E5 JUMPI SWAP1 DUP4 SWAP2 PUSH2 0x4D1 JUMPI JUMPDEST POP DUP1 DUP1 SWAP3 DUP8 DUP3 DUP3 ISZERO PUSH2 0x4C8 JUMPI JUMPDEST CALL ISZERO PUSH2 0x4BF JUMPI POP PUSH32 0x7F40DF5127524300187445E867486DA572AAB86769C0212E0B392BD87C4CA97F DUP4 DUP1 LOG3 PUSH1 0x1 DUP2 SSTORE DUP1 RETURN JUMPDEST MLOAD RETURNDATASIZE DUP5 DUP3 RETURNDATACOPY RETURNDATASIZE SWAP1 REVERT JUMPDEST POP PUSH2 0x8FC PUSH2 0x48D JUMP JUMPDEST PUSH2 0x4DA SWAP1 PUSH2 0xA20 JUMP JUMPDEST PUSH2 0x352 JUMPI DUP2 CODESIZE PUSH2 0x480 JUMP JUMPDEST DUP5 MLOAD RETURNDATASIZE DUP6 DUP3 RETURNDATACOPY RETURNDATASIZE SWAP1 REVERT JUMPDEST DUP6 DUP1 REVERT JUMPDEST DUP7 MLOAD PUSH3 0x461BCD PUSH1 0xE5 SHL DUP2 MSTORE PUSH1 0x20 DUP2 DUP7 ADD MSTORE PUSH1 0xE PUSH1 0x24 DUP3 ADD MSTORE PUSH14 0x24B73B30B634B2103BB4B73732B9 PUSH1 0x91 SHL PUSH1 0x44 DUP3 ADD MSTORE PUSH1 0x64 SWAP1 REVERT JUMPDEST SWAP1 POP DUP10 EQ CODESIZE PUSH2 0x3DA JUMP JUMPDEST DUP7 MLOAD PUSH3 0x461BCD PUSH1 0xE5 SHL DUP2 MSTORE PUSH1 0x20 DUP2 DUP7 ADD MSTORE PUSH1 0x13 PUSH1 0x24 DUP3 ADD MSTORE PUSH19 0x11D85B59481B9BDD081A9BDA5B9959081E595D PUSH1 0x6A SHL PUSH1 0x44 DUP3 ADD MSTORE PUSH1 0x64 SWAP1 REVERT JUMPDEST PUSH1 0x0 DUP1 REVERT JUMPDEST SWAP3 SWAP1 POP CALLVALUE PUSH2 0x610 JUMPI DUP1 PUSH1 0x3 NOT CALLDATASIZE ADD SLT PUSH2 0x610 JUMPI PUSH2 0x58A PUSH2 0x9B2 JUMP JUMPDEST SWAP2 PUSH2 0x593 PUSH2 0x9C8 JUMP JUMPDEST PUSH1 0x1 SLOAD PUSH1 0x1 PUSH1 0x1 PUSH1 0xA0 SHL SUB SWAP4 DUP5 AND SWAP4 AND SWAP1 DUP4 EXTCODESIZE ISZERO PUSH2 0x60C JUMPI DUP3 MLOAD PUSH4 0x23B872DD PUSH1 0xE0 SHL DUP2 MSTORE ADDRESS SWAP2 DUP2 ADD SWAP2 DUP3 MSTORE PUSH1 0x1 PUSH1 0x1 PUSH1 0xA0 SHL SUB SWAP1 SWAP3 AND PUSH1 0x20 DUP3 ADD MSTORE PUSH1 0x24 CALLDATALOAD PUSH1 0x40 DUP3 ADD MSTORE SWAP1 SWAP3 DUP5 SWAP2 DUP5 SWAP2 SWAP1 DUP3 SWAP1 DUP5 SWAP1 DUP3 SWAP1 PUSH1 0x60 ADD SUB SWAP3 GAS CALL SWAP1 DUP2 ISZERO PUSH2 0x4BF JUMPI POP PUSH2 0x5F9 JUMPI POP RETURN JUMPDEST PUSH2 0x602 SWAP1 PUSH2 0xA20 JUMP JUMPDEST PUSH2 0x609 JUMPI DUP1 RETURN JUMPDEST DUP1 REVERT JUMPDEST DUP5 DUP1 REVERT JUMPDEST POP POP REVERT JUMPDEST POP POP CALLVALUE PUSH2 0x352 JUMPI DUP2 PUSH1 0x3 NOT CALLDATASIZE ADD SLT PUSH2 0x352 JUMPI PUSH1 0x1 SLOAD SWAP1 MLOAD PUSH1 0x1 PUSH1 0x1 PUSH1 0xA0 SHL SUB SWAP1 SWAP2 AND DUP2 MSTORE PUSH1 0x20 SWAP1 RETURN JUMPDEST POP POP CALLVALUE PUSH2 0x352 JUMPI DUP2 PUSH1 0x3 NOT CALLDATASIZE ADD SLT PUSH2 0x352 JUMPI PUSH2 0x657 PUSH2 0x9C8 JUMP JUMPDEST DUP2 DUP1 DUP1 DUP1 PUSH1 0x1 DUP1 PUSH1 0xA0 SHL SUB PUSH1 0x1 SLOAD AND SELFBALANCE SWAP1 DUP3 DUP3 ISZERO PUSH2 0x684 JUMPI JUMPDEST CALL ISZERO PUSH2 0x67A JUMPI POP DUP1 RETURN JUMPDEST MLOAD SWAP1 RETURNDATASIZE SWAP1 DUP3 RETURNDATACOPY RETURNDATASIZE SWAP1 REVERT JUMPDEST POP PUSH2 0x8FC PUSH2 0x670 JUMP JUMPDEST POP POP CALLVALUE PUSH2 0x352 JUMPI DUP2 PUSH1 0x3 NOT CALLDATASIZE ADD SLT PUSH2 0x352 JUMPI PUSH1 0x20 SWAP1 PUSH1 0x5 SLOAD SWAP1 MLOAD SWAP1 DUP2 MSTORE RETURN JUMPDEST DUP4 CALLVALUE PUSH2 0x609 JUMPI DUP1 PUSH1 0x3 NOT CALLDATASIZE ADD SLT PUSH2 0x609 JUMPI PUSH2 0x6C5 PUSH2 0x9C8 JUMP JUMPDEST PUSH1 0x1 DUP1 SLOAD PUSH1 0x1 PUSH1 0x1 PUSH1 0xA0 SHL SUB NOT DUP2 AND SWAP1 SWAP2 SSTORE PUSH1 0x0 SWAP1 PUSH1 0x1 PUSH1 0x1 PUSH1 0xA0 SHL SUB AND PUSH32 0x8BE0079C531659141344CD1FD0A4F28419497F9722A3DAAFE3B4186F6B6457E0 DUP3 DUP1 LOG3 DUP1 RETURN JUMPDEST POP CALLVALUE PUSH2 0x174 JUMPI PUSH1 0x60 CALLDATASIZE PUSH1 0x3 NOT ADD SLT PUSH2 0x174 JUMPI PUSH2 0x724 PUSH2 0x9B2 JUMP JUMPDEST PUSH1 0x44 CALLDATALOAD SWAP3 SWAP1 PUSH1 0x24 CALLDATALOAD PUSH2 0x734 PUSH2 0xA4A JUMP JUMPDEST DUP5 ISZERO PUSH2 0x8F3 JUMPI PUSH1 0x1 PUSH1 0x1 PUSH1 0xA0 SHL SUB SWAP2 DUP3 AND SWAP4 DUP5 EXTCODESIZE ISZERO PUSH2 0x8EF JUMPI DUP4 MLOAD PUSH4 0x23B872DD PUSH1 0xE0 SHL DUP2 MSTORE CALLER DUP3 DUP3 ADD SWAP1 DUP2 MSTORE ADDRESS PUSH1 0x20 DUP3 ADD MSTORE PUSH1 0x40 DUP2 ADD DUP5 SWAP1 MSTORE DUP9 SWAP1 DUP3 SWAP1 DUP2 SWAP1 PUSH1 0x60 ADD SUB DUP2 DUP4 DUP11 GAS CALL DUP1 ISZERO PUSH2 0x8E5 JUMPI PUSH2 0x8D2 JUMPI JUMPDEST POP PUSH1 0x3 SLOAD SWAP5 PUSH1 0x0 NOT DUP7 EQ PUSH2 0x8BF JUMPI PUSH1 0x1 DUP7 ADD PUSH1 0x3 SSTORE DUP5 MLOAD SWAP3 PUSH1 0xE0 DUP5 ADD DUP5 DUP2 LT PUSH8 0xFFFFFFFFFFFFFFFF DUP3 GT OR PUSH2 0x8AA JUMPI SWAP4 PUSH2 0x879 SWAP6 SWAP4 DUP9 SWAP4 PUSH1 0x5 SWAP4 DUP13 SWAP8 DUP11 MSTORE CALLER DUP5 MSTORE PUSH1 0x20 DUP5 ADD SWAP2 DUP9 DUP4 MSTORE DUP11 DUP6 ADD SWAP1 DUP2 MSTORE PUSH1 0x60 DUP6 ADD SWAP2 DUP3 MSTORE PUSH1 0x80 DUP6 ADD SWAP3 DUP14 DUP5 MSTORE DUP9 DUP13 PUSH1 0xA0 DUP9 ADD SWAP12 DUP1 DUP14 MSTORE PUSH1 0xC0 DUP10 ADD SWAP11 DUP2 DUP13 MSTORE DUP2 MSTORE PUSH1 0x2 PUSH1 0x20 MSTORE KECCAK256 SWAP7 MLOAD AND SWAP1 PUSH12 0xFFFFFFFFFFFFFFFFFFFFFFFF PUSH1 0xA0 SHL SWAP2 DUP3 DUP9 SLOAD AND OR DUP8 SSTORE DUP10 PUSH1 0x1 DUP9 ADD SWAP2 MLOAD AND DUP3 DUP3 SLOAD AND OR SWAP1 SSTORE DUP9 PUSH1 0x2 DUP8 ADD SWAP3 MLOAD AND SWAP1 DUP3 SLOAD AND OR SWAP1 SSTORE MLOAD PUSH1 0x3 DUP5 ADD SSTORE MLOAD SWAP1 DUP3 ADD SSTORE ADD SWAP3 MLOAD ISZERO ISZERO PUSH1 0xFF DUP1 NOT DUP6 SLOAD AND SWAP2 AND OR DUP4 SSTORE MLOAD AND DUP2 SLOAD SWAP1 PUSH2 0x100 PUSH1 0x1 PUSH1 0xA8 SHL SUB SWAP1 PUSH1 0x8 SHL AND SWAP1 PUSH2 0x100 PUSH1 0x1 PUSH1 0xA8 SHL SUB NOT AND OR SWAP1 SSTORE JUMP JUMPDEST MLOAD SWAP2 DUP3 MSTORE PUSH32 0x7DFB67E9FF596FCA4DA65C7EEDB128CD1AAC553AF54B3C0CB733625A2480D8BD PUSH1 0x20 CALLER SWAP4 LOG3 PUSH1 0x1 DUP2 SSTORE DUP1 RETURN JUMPDEST PUSH1 0x41 DUP5 PUSH4 0x4E487B71 PUSH1 0xE0 SHL PUSH1 0x0 MSTORE MSTORE PUSH1 0x24 PUSH1 0x0 REVERT JUMPDEST PUSH4 0x4E487B71 PUSH1 0xE0 SHL DUP9 MSTORE PUSH1 0x11 DUP3 MSTORE PUSH1 0x24 DUP9 REVERT JUMPDEST PUSH2 0x8DE SWAP1 SWAP8 SWAP2 SWAP8 PUSH2 0xA20 JUMP JUMPDEST SWAP6 CODESIZE PUSH2 0x787 JUMP JUMPDEST DUP6 MLOAD RETURNDATASIZE DUP11 DUP3 RETURNDATACOPY RETURNDATASIZE SWAP1 REVERT JUMPDEST DUP7 DUP1 REVERT JUMPDEST DUP3 MLOAD PUSH3 0x461BCD PUSH1 0xE5 SHL DUP2 MSTORE PUSH1 0x20 DUP2 DUP7 ADD MSTORE PUSH1 0x1C PUSH1 0x24 DUP3 ADD MSTORE PUSH32 0x5072696365206D7573742062652067726561746572207468616E203000000000 PUSH1 0x44 DUP3 ADD MSTORE PUSH1 0x64 SWAP1 REVERT JUMPDEST SWAP3 SWAP1 POP CALLVALUE PUSH2 0x9AE JUMPI PUSH1 0x20 CALLDATASIZE PUSH1 0x3 NOT ADD SLT PUSH2 0x9AE JUMPI DUP1 PUSH1 0xE0 SWAP5 DUP4 CALLDATALOAD DUP2 MSTORE PUSH1 0x2 PUSH1 0x20 MSTORE KECCAK256 PUSH1 0x1 DUP1 PUSH1 0xA0 SHL SUB SWAP3 DUP4 DUP3 SLOAD AND SWAP3 DUP5 PUSH1 0x1 DUP5 ADD SLOAD AND SWAP1 DUP6 PUSH1 0x2 DUP6 ADD SLOAD AND SWAP2 PUSH1 0x5 PUSH1 0x3 DUP7 ADD SLOAD SWAP5 DUP7 ADD SLOAD SWAP6 ADD SLOAD SWAP6 DUP9 MSTORE PUSH1 0x20 DUP9 ADD MSTORE DUP7 ADD MSTORE PUSH1 0x60 DUP6 ADD MSTORE PUSH1 0x80 DUP5 ADD MSTORE PUSH1 0xFF DUP2 AND ISZERO ISZERO PUSH1 0xA0 DUP5 ADD MSTORE PUSH1 0x8 SHR AND PUSH1 0xC0 DUP3 ADD MSTORE RETURN JUMPDEST DUP4 DUP1 REVERT JUMPDEST PUSH1 0x4 CALLDATALOAD SWAP1 PUSH1 0x1 PUSH1 0x1 PUSH1 0xA0 SHL SUB DUP3 AND DUP3 SUB PUSH2 0x56A JUMPI JUMP JUMPDEST PUSH1 0x1 SLOAD PUSH1 0x1 PUSH1 0x1 PUSH1 0xA0 SHL SUB AND CALLER SUB PUSH2 0x9DC JUMPI JUMP JUMPDEST PUSH1 0x64 PUSH1 0x40 MLOAD PUSH3 0x461BCD PUSH1 0xE5 SHL DUP2 MSTORE PUSH1 0x20 PUSH1 0x4 DUP3 ADD MSTORE PUSH1 0x20 PUSH1 0x24 DUP3 ADD MSTORE PUSH32 0x4F776E61626C653A2063616C6C6572206973206E6F7420746865206F776E6572 PUSH1 0x44 DUP3 ADD MSTORE REVERT JUMPDEST PUSH8 0xFFFFFFFFFFFFFFFF DUP2 GT PUSH2 0xA34 JUMPI PUSH1 0x40 MSTORE JUMP JUMPDEST PUSH4 0x4E487B71 PUSH1 0xE0 SHL PUSH1 0x0 MSTORE PUSH1 0x41 PUSH1 0x4 MSTORE PUSH1 0x24 PUSH1 0x0 REVERT JUMPDEST PUSH1 0x2 PUSH1 0x0 SLOAD EQ PUSH2 0xA5B JUMPI PUSH1 0x2 PUSH1 0x0 SSTORE JUMP JUMPDEST PUSH1 0x40 MLOAD PUSH3 0x461BCD PUSH1 0xE5 SHL DUP2 MSTORE PUSH1 0x20 PUSH1 0x4 DUP3 ADD MSTORE PUSH1 0x1F PUSH1 0x24 DUP3 ADD MSTORE PUSH32 0x5265656E7472616E637947756172643A207265656E7472616E742063616C6C00 PUSH1 0x44 DUP3 ADD MSTORE PUSH1 0x64 SWAP1 REVERT JUMPDEST ISZERO PUSH2 0xAA7 JUMPI JUMP JUMPDEST PUSH1 0x40 MLOAD PUSH3 0x461BCD PUSH1 0xE5 SHL DUP2 MSTORE PUSH1 0x20 PUSH1 0x4 DUP3 ADD MSTORE PUSH1 0x13 PUSH1 0x24 DUP3 ADD MSTORE PUSH19 0x11D85B5948191BD95CC81B9BDD08195E1A5CDD PUSH1 0x6A SHL PUSH1 0x44 DUP3 ADD MSTORE PUSH1 0x64 SWAP1 REVERT JUMPDEST ISZERO PUSH2 0xAE9 JUMPI JUMP JUMPDEST PUSH1 0x40 MLOAD PUSH3 0x461BCD PUSH1 0xE5 SHL DUP2 MSTORE PUSH1 0x20 PUSH1 0x4 DUP3 ADD MSTORE PUSH1 0x16 PUSH1 0x24 DUP3 ADD MSTORE PUSH22 0x11D85B5948185B1C9958591E4818DBDB5C1B195D1959 PUSH1 0x52 SHL PUSH1 0x44 DUP3 ADD MSTORE PUSH1 0x64 SWAP1 REVERT JUMPDEST DUP2 DUP2 MUL SWAP3 SWAP2 DUP2 ISZERO SWAP2 DUP5 DIV EQ OR ISZERO PUSH2 0xB3A JUMPI JUMP JUMPDEST PUSH4 0x4E487B71 PUSH1 0xE0 SHL PUSH1 0x0 MSTORE PUSH1 0x11 PUSH1 0x4 MSTORE PUSH1 0x24 PUSH1 0x0 REVERT JUMPDEST SWAP2 SWAP1 DUP3 SUB SWAP2 DUP3 GT PUSH2 0xB3A JUMPI JUMP INVALID LOG2 PUSH5 0x6970667358 0x22 SLT KECCAK256 0xD8 SELFBALANCE SUB REVERT MSTORE 0xEC DUP7 0xC 0x5E 0x27 0xBB 0xAB 0xD9 DUP1 0xD5 PUSH20 0x446B8BA62F6D3B03746916BC8B33A08E64736F6C PUSH4 0x43000814 STOP CALLER "},"methodIdentifiers":{"completeGame(uint256,address)":"a6ff6689","createGame(address,uint256,uint256)":"3b17469e","emergencyWithdrawETH()":"84536017","emergencyWithdrawNFT(address,uint256)":"922b8079","feePercent()":"7fd6f15c","feeReceiver()":"b3f00674","games(uint256)":"117a5b90","joinGame(uint256)":"efaa55a0","nextGameId()":"b135bbb0","owner()":"8da5cb5b","renounceOwnership()":"715018a6","transferOwnership(address)":"f2fde38b"}}}}}