{"contracts/NFTFlipGame.sol":{"NFTFlipGame":{"abi":[{"inputs":[{"internalType":"address","name":"_ethUsdFeed","type":"address"},{"internalType":"address","name":"_usdcToken","type":"address"},{"internalType":"address","name":"_platformFeeReceiver","type":"address"}],"stateMutability":"nonpayable","type":"constructor"},{"anonymous":false,"inputs":[{"indexed":true,"internalType":"uint256","name":"gameId","type":"uint256"},{"indexed":true,"internalType":"address","name":"depositor","type":"address"},{"indexed":false,"internalType":"uint256","name":"amount","type":"uint256"}],"name":"CryptoDeposited","type":"event"},{"anonymous":false,"inputs":[{"indexed":true,"internalType":"uint256","name":"gameId","type":"uint256"}],"name":"GameCancelled","type":"event"},{"anonymous":false,"inputs":[{"indexed":true,"internalType":"uint256","name":"gameId","type":"uint256"},{"indexed":true,"internalType":"address","name":"cancelledBy","type":"address"}],"name":"GameCancelledWithRefund","type":"event"},{"anonymous":false,"inputs":[{"indexed":true,"internalType":"uint256","name":"gameId","type":"uint256"},{"indexed":true,"internalType":"address","name":"winner","type":"address"}],"name":"GameCompleted","type":"event"},{"anonymous":false,"inputs":[{"indexed":true,"internalType":"uint256","name":"gameId","type":"uint256"},{"indexed":true,"internalType":"address","name":"creator","type":"address"}],"name":"GameCreated","type":"event"},{"anonymous":false,"inputs":[{"indexed":true,"internalType":"uint256","name":"gameId","type":"uint256"},{"indexed":true,"internalType":"address","name":"joiner","type":"address"}],"name":"GameJoined","type":"event"},{"anonymous":false,"inputs":[{"indexed":true,"internalType":"uint256","name":"gameId","type":"uint256"},{"indexed":true,"internalType":"address","name":"depositor","type":"address"}],"name":"NFTDeposited","type":"event"},{"anonymous":false,"inputs":[{"indexed":true,"internalType":"address","name":"previousOwner","type":"address"},{"indexed":true,"internalType":"address","name":"newOwner","type":"address"}],"name":"OwnershipTransferred","type":"event"},{"anonymous":false,"inputs":[{"indexed":false,"internalType":"address","name":"account","type":"address"}],"name":"Paused","type":"event"},{"anonymous":false,"inputs":[{"indexed":true,"internalType":"address","name":"player","type":"address"},{"indexed":false,"internalType":"uint256","name":"ethAmount","type":"uint256"},{"indexed":false,"internalType":"uint256","name":"usdcAmount","type":"uint256"},{"indexed":false,"internalType":"uint256","name":"nftCount","type":"uint256"}],"name":"RewardsWithdrawn","type":"event"},{"anonymous":false,"inputs":[{"indexed":true,"internalType":"uint256","name":"gameId","type":"uint256"},{"indexed":false,"internalType":"uint256","name":"round","type":"uint256"},{"indexed":false,"internalType":"uint256","name":"result","type":"uint256"},{"indexed":false,"internalType":"address","name":"roundWinner","type":"address"}],"name":"RoundPlayed","type":"event"},{"anonymous":false,"inputs":[{"indexed":false,"internalType":"address","name":"account","type":"address"}],"name":"Unpaused","type":"event"},{"inputs":[],"name":"BASIS_POINTS","outputs":[{"internalType":"uint256","name":"","type":"uint256"}],"stateMutability":"view","type":"function"},{"inputs":[{"internalType":"address[]","name":"nftContracts","type":"address[]"},{"internalType":"uint256[]","name":"tokenIds","type":"uint256[]"},{"internalType":"address[]","name":"recipients","type":"address[]"}],"name":"adminBatchWithdrawNFTs","outputs":[],"stateMutability":"nonpayable","type":"function"},{"inputs":[{"internalType":"uint256","name":"gameId","type":"uint256"}],"name":"cancelGame","outputs":[],"stateMutability":"nonpayable","type":"function"},{"inputs":[{"internalType":"uint256","name":"gameId","type":"uint256"}],"name":"cancelGameWithRefund","outputs":[],"stateMutability":"nonpayable","type":"function"},{"inputs":[{"internalType":"address","name":"opponent","type":"address"},{"internalType":"address","name":"nftContract","type":"address"},{"internalType":"uint256","name":"tokenId","type":"uint256"},{"internalType":"uint256","name":"priceUSD","type":"uint256"},{"internalType":"enum NFTFlipGame.PaymentToken","name":"paymentToken","type":"uint8"},{"internalType":"string","name":"coinType","type":"string"},{"internalType":"string","name":"headsImage","type":"string"},{"internalType":"string","name":"tailsImage","type":"string"},{"internalType":"bool","name":"isCustom","type":"bool"}],"name":"createAndStartGame","outputs":[],"stateMutability":"payable","type":"function"},{"inputs":[{"internalType":"address","name":"nftContract","type":"address"},{"internalType":"uint256","name":"tokenId","type":"uint256"},{"internalType":"uint256","name":"priceUSD","type":"uint256"},{"internalType":"enum NFTFlipGame.PaymentToken","name":"acceptedToken","type":"uint8"},{"internalType":"enum NFTFlipGame.GameType","name":"gameType","type":"uint8"},{"internalType":"string","name":"coinType","type":"string"},{"internalType":"string","name":"headsImage","type":"string"},{"internalType":"string","name":"tailsImage","type":"string"},{"internalType":"bool","name":"isCustom","type":"bool"}],"name":"createGame","outputs":[],"stateMutability":"payable","type":"function"},{"inputs":[{"internalType":"uint256","name":"gameId","type":"uint256"}],"name":"depositCryptoForGame","outputs":[],"stateMutability":"payable","type":"function"},{"inputs":[{"internalType":"uint256","name":"gameId","type":"uint256"},{"internalType":"address","name":"nftContract","type":"address"},{"internalType":"uint256","name":"tokenId","type":"uint256"}],"name":"depositNFTForGame","outputs":[],"stateMutability":"nonpayable","type":"function"},{"inputs":[],"name":"emergencyPause","outputs":[],"stateMutability":"nonpayable","type":"function"},{"inputs":[],"name":"emergencyWithdrawETH","outputs":[],"stateMutability":"nonpayable","type":"function"},{"inputs":[],"name":"ethUsdFeed","outputs":[{"internalType":"contract AggregatorV3Interface","name":"","type":"address"}],"stateMutability":"view","type":"function"},{"inputs":[{"internalType":"uint256","name":"","type":"uint256"}],"name":"games","outputs":[{"internalType":"uint256","name":"gameId","type":"uint256"},{"internalType":"address","name":"creator","type":"address"},{"internalType":"address","name":"joiner","type":"address"},{"internalType":"address","name":"nftContract","type":"address"},{"internalType":"uint256","name":"tokenId","type":"uint256"},{"internalType":"enum NFTFlipGame.GameState","name":"state","type":"uint8"},{"internalType":"enum NFTFlipGame.GameType","name":"gameType","type":"uint8"},{"internalType":"uint256","name":"priceUSD","type":"uint256"},{"internalType":"enum NFTFlipGame.PaymentToken","name":"paymentToken","type":"uint8"},{"internalType":"uint256","name":"totalPaid","type":"uint256"},{"internalType":"address","name":"winner","type":"address"},{"internalType":"uint256","name":"createdAt","type":"uint256"},{"internalType":"uint256","name":"creatorWins","type":"uint256"},{"internalType":"uint256","name":"joinerWins","type":"uint256"},{"internalType":"uint256","name":"currentRound","type":"uint256"},{"internalType":"uint256","name":"lastFlipResult","type":"uint256"},{"internalType":"bytes32","name":"lastFlipHash","type":"bytes32"},{"components":[{"internalType":"string","name":"coinType","type":"string"},{"internalType":"string","name":"headsImage","type":"string"},{"internalType":"string","name":"tailsImage","type":"string"},{"internalType":"bool","name":"isCustom","type":"bool"}],"internalType":"struct NFTFlipGame.CoinInfo","name":"coinInfo","type":"tuple"}],"stateMutability":"view","type":"function"},{"inputs":[{"internalType":"uint256","name":"usdAmount","type":"uint256"}],"name":"getETHAmount","outputs":[{"internalType":"uint256","name":"","type":"uint256"}],"stateMutability":"view","type":"function"},{"inputs":[{"internalType":"uint256","name":"gameId","type":"uint256"}],"name":"getGameDetails","outputs":[{"internalType":"uint256","name":"gameId_","type":"uint256"},{"internalType":"address","name":"creator_","type":"address"},{"internalType":"address","name":"joiner_","type":"address"},{"internalType":"address","name":"nftContract_","type":"address"},{"internalType":"uint256","name":"tokenId_","type":"uint256"},{"internalType":"enum NFTFlipGame.GameState","name":"state_","type":"uint8"},{"internalType":"enum NFTFlipGame.GameType","name":"gameType_","type":"uint8"},{"internalType":"uint256","name":"priceUSD_","type":"uint256"},{"internalType":"enum NFTFlipGame.PaymentToken","name":"paymentToken_","type":"uint8"},{"internalType":"uint256","name":"totalPaid_","type":"uint256"},{"internalType":"address","name":"winner_","type":"address"},{"internalType":"uint256","name":"createdAt_","type":"uint256"},{"internalType":"uint256","name":"creatorWins_","type":"uint256"},{"internalType":"uint256","name":"joinerWins_","type":"uint256"},{"internalType":"uint256","name":"currentRound_","type":"uint256"},{"internalType":"uint256","name":"lastFlipResult_","type":"uint256"},{"internalType":"bytes32","name":"lastFlipHash_","type":"bytes32"},{"internalType":"string","name":"coinType_","type":"string"},{"internalType":"string","name":"headsImage_","type":"string"},{"internalType":"string","name":"tailsImage_","type":"string"},{"internalType":"bool","name":"isCustom_","type":"bool"}],"stateMutability":"view","type":"function"},{"inputs":[{"internalType":"uint256","name":"gameId","type":"uint256"}],"name":"getGameRoundDetails","outputs":[{"internalType":"uint256","name":"creatorWins","type":"uint256"},{"internalType":"uint256","name":"joinerWins","type":"uint256"},{"internalType":"uint256","name":"currentRound","type":"uint256"},{"internalType":"uint256","name":"lastResult","type":"uint256"}],"stateMutability":"view","type":"function"},{"inputs":[{"internalType":"address","name":"user","type":"address"}],"name":"getUserGames","outputs":[{"internalType":"uint256[]","name":"","type":"uint256[]"}],"stateMutability":"view","type":"function"},{"inputs":[{"internalType":"uint256","name":"gameId","type":"uint256"}],"name":"joinGame","outputs":[],"stateMutability":"payable","type":"function"},{"inputs":[{"internalType":"uint256","name":"gameId","type":"uint256"},{"internalType":"uint256","name":"customPriceUSD","type":"uint256"}],"name":"joinGameWithPrice","outputs":[],"stateMutability":"payable","type":"function"},{"inputs":[],"name":"listingFeeUSD","outputs":[{"internalType":"uint256","name":"","type":"uint256"}],"stateMutability":"view","type":"function"},{"inputs":[],"name":"nextGameId","outputs":[{"internalType":"uint256","name":"","type":"uint256"}],"stateMutability":"view","type":"function"},{"inputs":[],"name":"owner","outputs":[{"internalType":"address","name":"","type":"address"}],"stateMutability":"view","type":"function"},{"inputs":[],"name":"paused","outputs":[{"internalType":"bool","name":"","type":"bool"}],"stateMutability":"view","type":"function"},{"inputs":[],"name":"platformFeePercent","outputs":[{"internalType":"uint256","name":"","type":"uint256"}],"stateMutability":"view","type":"function"},{"inputs":[],"name":"platformFeeReceiver","outputs":[{"internalType":"address","name":"","type":"address"}],"stateMutability":"view","type":"function"},{"inputs":[{"internalType":"uint256","name":"gameId","type":"uint256"}],"name":"playRound","outputs":[],"stateMutability":"nonpayable","type":"function"},{"inputs":[],"name":"renounceOwnership","outputs":[],"stateMutability":"nonpayable","type":"function"},{"inputs":[{"internalType":"uint256","name":"newFee","type":"uint256"}],"name":"setListingFee","outputs":[],"stateMutability":"nonpayable","type":"function"},{"inputs":[{"internalType":"uint256","name":"newPercent","type":"uint256"}],"name":"setPlatformFee","outputs":[],"stateMutability":"nonpayable","type":"function"},{"inputs":[{"internalType":"address","name":"newOwner","type":"address"}],"name":"transferOwnership","outputs":[],"stateMutability":"nonpayable","type":"function"},{"inputs":[{"internalType":"address","name":"","type":"address"}],"name":"unclaimedETH","outputs":[{"internalType":"uint256","name":"","type":"uint256"}],"stateMutability":"view","type":"function"},{"inputs":[{"internalType":"address","name":"","type":"address"},{"internalType":"address","name":"","type":"address"},{"internalType":"uint256","name":"","type":"uint256"}],"name":"unclaimedNFTs","outputs":[{"internalType":"uint256","name":"","type":"uint256"}],"stateMutability":"view","type":"function"},{"inputs":[{"internalType":"address","name":"","type":"address"}],"name":"unclaimedUSDC","outputs":[{"internalType":"uint256","name":"","type":"uint256"}],"stateMutability":"view","type":"function"},{"inputs":[],"name":"unpause","outputs":[],"stateMutability":"nonpayable","type":"function"},{"inputs":[],"name":"usdcToken","outputs":[{"internalType":"address","name":"","type":"address"}],"stateMutability":"view","type":"function"},{"inputs":[{"internalType":"address","name":"","type":"address"},{"internalType":"uint256","name":"","type":"uint256"}],"name":"userGames","outputs":[{"internalType":"uint256","name":"","type":"uint256"}],"stateMutability":"view","type":"function"},{"inputs":[{"internalType":"address","name":"nftContract","type":"address"},{"internalType":"uint256","name":"tokenId","type":"uint256"}],"name":"withdrawNFT","outputs":[],"stateMutability":"nonpayable","type":"function"},{"inputs":[],"name":"withdrawRewards","outputs":[],"stateMutability":"nonpayable","type":"function"}],"evm":{"bytecode":{"linkReferences":{},"object":"6080346200011157601f62003c5a38819003918201601f19168301916001600160401b03831184841017620001165780849260609460405283398101031262000111576200004d816200012c565b62000069604062000061602085016200012c565b93016200012c565b916001600055600154926040519360018060a01b03928391338382167f8be0079c531659141344cd1fd0a4f28419497f9722a3daafe3b4186f6b6457e0600080a36001600160a81b0319163360ff60a01b191617600190815560075562030d4060085561015e600955600b80546001600160a01b0319908116968416969096179055600c8054861691909216179055600a80549093169116179055613b189081620001428239f35b600080fd5b634e487b7160e01b600052604160045260246000fd5b51906001600160a01b0382168203620001115756fe610260604052600436101561001357600080fd5b6000803560e01c8063019e485e14612e53578063117a5b9014612c6157806311eac85514612c38578063120aace614612b8a57806312e8e2c314612b2f578063131dbd0914612b0c5780631a68b69114612ad35780631b31abda146127985780632d656ad71461276f5780633a38d063146127515780633f4ba83a146126b457806351858e27146126515780635c975abb1461262b5780636088e93a14612464578063623c0df2146121ff578063636e99741461218157806369958ab914612029578063715018a614611fcb5780638009b7bd14611fa25780638453601714611f2e5780638c639a8514611f105780638da5cb5b14611ee757806395d1152014611eae578063aa4209b814611e41578063b135bbb014611e23578063b87b7fcc14611cdc578063bc0167cd14611c85578063c7b8981c14611ae4578063cb9a2630146117c6578063cf3094901461166e578063e1f1c4a714611651578063e25f494b14610e76578063e63d8745146105a7578063ef46b2ab14610580578063efaa55a01461042e578063f21f80251461027d5763f2fde38b146101b557600080fd5b3461027a57602036600319011261027a576101ce6134a0565b6101d66135a1565b6001600160a01b0390811690811561022657600154826001600160601b0360a01b821617600155167f8be0079c531659141344cd1fd0a4f28419497f9722a3daafe3b4186f6b6457e0600080a380f35b60405162461bcd60e51b815260206004820152602660248201527f4f776e61626c653a206e6577206f776e657220697320746865207a65726f206160448201526564647265737360d01b6064820152608490fd5b80fd5b503461027a57606036600319011261027a5760043561029a6134bb565b6044356102a56137af565b82845260026020526040842060ff600582015416600581101561041a576102cc9015613aa1565b60018101546001600160a01b0390811633036103d557808391600384015416941680941491826103c7575b505015610396578184923b15610392576040516323b872dd60e01b8152336004820152306024820152604481019290925282908290606490829084905af180156103875761036f575b505033907f052b1fb285141146b72f7eddd25172042be309c15a803900dce35e0ae95c04dd8380a36001815580f35b610378906132f2565b610383578138610340565b5080fd5b6040513d84823e3d90fd5b8280fd5b60405162461bcd60e51b815260206004820152600960248201526815dc9bdb99c813919560ba1b6044820152606490fd5b6004015414905081386102f7565b60405162461bcd60e51b815260206004820152601c60248201527f4f6e6c792063726561746f722063616e206465706f736974204e4654000000006044820152606490fd5b634e487b7160e01b86526021600452602486fd5b50602036600319011261027a576004356104466137af565b61044e613768565b808252600260205260408220600581019081549160ff8316600581101561041a578580610522948194610482839515613805565b60018201546001600160a01b03919061049f908316331415613846565b60016104ae600685015461394f565b9960026127106104c18d60095490613889565b04958c6104da6104d1898361371f565b9134101561389c565b600882015501336001600160601b0360a01b82541617905560ff1916179055338352600360205261050e8960408520613685565b600a54165af161051c6136ad565b506138df565b82813411610558575b33837f45c4f9cbafe186141862608c493f28b823fde4c2142bedc3f5169961a73fdd228380a36001815580f35b808080610568610579953461371f565b335af16105736136ad565b5061372c565b388261052b565b503461027a57602036600319011261027a57602061059f60043561394f565b604051908152f35b5061012036600319011261027a576105bd6134a0565b6105c56134bb565b90600260843510156103925760a4356001600160401b038111610e72576105f090369060040161354a565b60c4356001600160401b038111610e6e5761060f90369060040161354a565b9060e4356001600160401b038111610e6a5761062f90369060040161354a565b610637613591565b946106406137af565b610648613768565b6001600160a01b038516151580610e57575b15610e1f576106736001600160a01b03821615156135f9565b61067e60085461394f565b9261068a60643561394f565b9661271061069a6009548a613889565b04936106a6898761392b565b966106b38834101561389c565b6001600160a01b0385163b15610e1b576040516323b872dd60e01b815233600482015230602482015260448035908201528b908181606481836001600160a01b038c165af1801561038757610e07575b50506040519361071285613305565b8452602084015260408301521515606082015261073e83600754986107368a61363c565b60075561371f565b6040519261074b846132d6565b8884523360208501526001600160a01b0388811660408601521660608401526044356080840152600160a084015260c0830189905260643560e0840152610793608435613456565b608435610100840152610120830152876101408301524261016083015287610180830152876101a0830152876101c0830152876101e08301528761020083015261022082015285875260026020526040872090805182556001820160018060a01b036020830151166001600160601b0360a01b8254161790556002820160018060a01b036040830151166001600160601b0360a01b8254161790556003820160018060a01b036060830151166001600160601b0360a01b8254161790556080810151600483015560a08101516005811015610df357906102209161087b60058501918261366d565b60c082015161088981613456565b61089281613456565b61ff0082549160081b169061ff00191617905560e081015160068401556101008101516108be81613456565b6108c781613456565b60ff8019600786015416911617600784015561012081015160088401556009830160018060a01b03610140830151166001600160601b0360a01b825416179055610160810151600a840155610180810151600b8401556101a0810151600c8401556101c0810151600d8401556101e0810151600e840155610200810151600f84015501519081518051906001600160401b038211610c4957819061096e601085015461329c565b601f8111610da2575b50602090601f8311600114610d33578b92610d28575b50508160011b916000199060031b1c19161760108201555b60208201518051906001600160401b038211610c495781906109ca601185015461329c565b601f8111610cd7575b50602090601f8311600114610c68578b92610c5d575b50508160011b916000199060031b1c19161760118201555b60408201518051906001600160401b038211610c4957908291610a2a60128c979695015461329c565b601f8111610bf0575b50602090601f8311600114610b6a57948695946060601388979686610ae29c97610ad1978b9a8b92610b5f575b50508160011b916000199060031b1c19161760128201555b01910151151560ff801983541691161790553384526003602052610a9f8b60408620613685565b6001600160a01b038a168452600360205260408420610abf908c90613685565b600a546001600160a01b03169261392b565b905af1610adc6136ad565b506136dd565b83813411610b48575b505033827fc3e0f84839dc888c892a013d10c8f9d6dc05a21a879d0ce468ca558013e9121c8580a36001600160a01b0316907f45c4f9cbafe186141862608c493f28b823fde4c2142bedc3f5169961a73fdd228380a36001815580f35b808080610568610b58953461371f565b3883610aeb565b015190503880610a60565b6012849392989695940187526020872090875b601f1984168110610bd5575093606060138998956001868b9a96610ae29e8c9b610ad19a601f19811610610bbc575b505050811b016012820155610a78565b015160001960f88460031b161c19169055388080610bac565b818a015183556020998a01998e995060019093019201610b7d565b90919293949550601284018b5260208b20601f840160051c810160208510610c42575b908c979695949392915b601f830160051c82018110610c33575050610a33565b600081558d9850600101610c1d565b5080610c13565b634e487b7160e01b8a52604160045260248afd5b0151905038806109e9565b9250601184018b5260208b20908b935b601f1984168510610cbc576001945083601f19811610610ca3575b505050811b016011820155610a01565b015160001960f88460031b161c19169055388080610c93565b81810151835560209485019460019093019290910190610c78565b909150601184018b5260208b20601f840160051c810160208510610d21575b90849392915b601f830160051c82018110610d125750506109d3565b60008155859450600101610cfc565b5080610cf6565b01519050388061098d565b9250601084018b5260208b20908b935b601f1984168510610d87576001945083601f19811610610d6e575b505050811b0160108201556109a5565b015160001960f88460031b161c19169055388080610d5e565b81810151835560209485019460019093019290910190610d43565b909150601084018b5260208b20601f840160051c810160208510610dec575b90849392915b601f830160051c82018110610ddd575050610977565b60008155859450600101610dc7565b5080610dc1565b634e487b7160e01b89526021600452602489fd5b610e10906132f2565b610e1b578a38610703565b8a80fd5b60405162461bcd60e51b815260206004820152601060248201526f125b9d985b1a59081bdc1c1bdb995b9d60821b6044820152606490fd5b506001600160a01b03851633141561065a565b8580fd5b8480fd5b8380fd5b5061012036600319011261027a57610e8c6134a0565b6002606435101561038357600260843510156103835760a4356001600160401b03811161039257610ec190369060040161354a565b9060c4356001600160401b038111610e7257610ee190369060040161354a565b9060e4356001600160401b038111610e6e57610f0190369060040161354a565b610f09613591565b90610f126137af565b610f1a613768565b610f2e6001600160a01b03841615156135f9565b610f3960085461394f565b9384341061160c576001600160a01b0384163b15611608576040516323b872dd60e01b81523360048201523060248083019190915235604482015287908181606481836001600160a01b038b165af18015610387576115f4575b505060405195610fa287613305565b8652602086015260408501521515606084015260075492610fc28461363c565b60075560405191610fd2836132d6565b848352336020840152604083018690526001600160a01b03166060830152602435608083015260a0820185905261100a608435613456565b60843560c083015260443560e0830152611025606435613456565b60643561010083015284610120830152846101408301524261016083015284610180830152846101a0830152846101c0830152846101e08301528461020083015261022082015282845260026020526040842090805182556001820160018060a01b036020830151166001600160601b0360a01b8254161790556002820160018060a01b036040830151166001600160601b0360a01b8254161790556003820160018060a01b036060830151166001600160601b0360a01b8254161790556080810151600483015560a0810151600581101561041a57906102209161110e60058501918261366d565b60c082015161111c81613456565b61112581613456565b61ff0082549160081b169061ff00191617905560e0810151600684015561010081015161115181613456565b61115a81613456565b60ff8019600786015416911617600784015561012081015160088401556009830160018060a01b03610140830151166001600160601b0360a01b825416179055610160810151600a840155610180810151600b8401556101a0810151600c8401556101c0810151600d8401556101e0810151600e840155610200810151600f84015501519081518051906001600160401b03821161144a578190611201601085015461329c565b601f81116115a3575b50602090601f8311600114611534578892611529575b50508160011b916000199060031b1c19161760108201555b60208201518051906001600160401b03821161144a57819061125d601185015461329c565b601f81116114d8575b50602090601f831160011461146957889261145e575b50508160011b916000199060031b1c19161760118201555b60408201518051906001600160401b03821161144a576112b7601284015461329c565b601f8111611405575b50602090601f8311600114611393579180606094926013948a92611388575b50508160011b916000199060031b1c19161760128201555b01910151151560ff80198354169116179055338352600360205261131e8260408520613685565b61133b838080808560018060a01b03600a54165af1610adc6136ad565b82813411611371575b33837fc3e0f84839dc888c892a013d10c8f9d6dc05a21a879d0ce468ca558013e9121c8380a36001815580f35b808080610568611381953461371f565b3882611344565b0151905038806112df565b906012840188526020882091885b601f19851681106113ed5750926060949260019260139583601f198116106113d4575b505050811b0160128201556112f7565b015160001960f88460031b161c191690553880806113c4565b919260206001819286850151815501940192016113a1565b60128401885260208820601f840160051c810160208510611443575b601f830160051c820181106114375750506112c0565b60008155600101611421565b5080611421565b634e487b7160e01b87526041600452602487fd5b01519050388061127c565b9250601184018852602088209088935b601f19841685106114bd576001945083601f198116106114a4575b505050811b016011820155611294565b015160001960f88460031b161c19169055388080611494565b81810151835560209485019460019093019290910190611479565b90915060118401885260208820601f840160051c810160208510611522575b90849392915b601f830160051c82018110611513575050611266565b600081558594506001016114fd565b50806114f7565b015190503880611220565b9250601084018852602088209088935b601f1984168510611588576001945083601f1981161061156f575b505050811b016010820155611238565b015160001960f88460031b161c1916905538808061155f565b81810151835560209485019460019093019290910190611544565b90915060108401885260208820601f840160051c8101602085106115ed575b90849392915b601f830160051c820181106115de57505061120a565b600081558594506001016115c8565b50806115c2565b6115fd906132f2565b611608578638610f93565b8680fd5b60405162461bcd60e51b815260206004820152601860248201527f496e73756666696369656e74206c697374696e672066656500000000000000006044820152606490fd5b503461027a578060031936011261027a5760206040516127108152f35b50602036600319011261027a576004356116866137af565b8082526002602052604082209060058201805460ff8116600581101561041a576116b09015613aa1565b60028401546001600160a01b0390811633036117815785808093819360068901546116da9061394f565b966009546116e89089613889565b6127109004926116f8848a61371f565b809b8a3410156117079061389c565b6008015560ff19166001179055600a54165af16117226136ad565b5061172c906138df565b8381341161176a575b50506040519182527fa6795dc81355b15d42bc7de3fb8a255e7e88a4697260822e1f4c5b07b003690760203393a36001815580f35b80808061056861177a953461371f565b3883611735565b60405162461bcd60e51b815260206004820152601e60248201527f4f6e6c79206a6f696e65722063616e206465706f7369742063727970746f00006044820152606490fd5b503461027a57606036600319011261027a576001600160401b03600435818111610392576117f89036906004016134ff565b90916024908135818111610e6a576118149036906004016134ff565b916044359081116116085761182d9036906004016134ff565b926118366135a1565b80861480611adb575b15611a975792869288969287955b848710611858578880f35b96976001600160a01b039790966118848961187c611877848a8c613a5e565b613a6e565b1615156135f9565b88611893611877838887613a5e565b1615611a5f57886118a582888a613a5e565b6118ae90613a6e565b16986118bb828487613a5e565b6040516331a9108f60e11b81529035600482015260206102009081529a818d815a93602094fa8a9181611a2f575b506119325760405162461bcd60e51b81528b516004820152601d818e01527f4661696c656420746f20636865636b204e4654206f776e6572736869700000006044820152606490fd5b81929394959697999b989a91309116036119eb57508990611957611877848b8d613a5e565b16611966611877848988613a5e565b611971848689613a5e565b35823b15610e72576040516323b872dd60e01b81523060048201526001600160a01b0392909216602483015260448201529082908290606490829084905af18015610387576119d3575b50506119c69061363c565b959392919096949661184d565b6119dc906132f2565b6119e757888a6119bb565b8880fd5b60405162461bcd60e51b815290516004820152601e818901527f436f6e747261637420646f6573206e6f74206f776e2074686973204e465400006044820152606490fd5b611a519192508c513d8111611a58575b611a498183613320565b810190613a82565b908d6118e9565b503d611a3f565b60405162461bcd60e51b8152602060048201526011818c015270125b9d985b1a59081c9958da5c1a595b9d607a1b6044820152606490fd5b60405162461bcd60e51b8152602060048201526018818701527f4172726179206c656e67746873206d757374206d6174636800000000000000006044820152606490fd5b5083811461183f565b503461027a578060031936011261027a57611afd6137af565b33815260206004815260408220549060058152604083205490600481528360408120556005815283604081205582611c36575b81611bb3575b6040516101608101908082106001600160401b03831117611b9d5761014091604052600a815282369101376040519283528201528160408201527f4f3d7a53f1fd3ab32e84fafd251bc5c1ec2c516068909f68847ad29c366d134c60603392a26001815580f35b634e487b7160e01b600052604160045260246000fd5b600c5460405163a9059cbb60e01b8152336004820152602481018490529082908290604490829089906001600160a01b03165af18015611c2b57611bf8575b50611b36565b8181813d8311611c24575b611c0d8183613320565b81010312610e6e575180151503610e725738611bf2565b503d611c03565b6040513d87823e3d90fd5b8380808086335af1611c466136ad565b50611b30576064906040519062461bcd60e51b825260048201526013602482015272115512081d1c985b9cd9995c8819985a5b1959606a1b6044820152fd5b503461027a57604036600319011261027a57611c9f6134a0565b6001600160a01b031681526003602052604081208054602435929083101561027a576020611ccd84846134d1565b90549060031b1c604051908152f35b503461027a57602036600319011261027a5760406080916004358152600260205220604051611d0a816132d6565b8154815260018201546001600160a01b039081166020830152600283015481166040830152600383015481166060830152600483015484830152600583015460ff90611d5b81831660a08601613661565b60081c16611d6881613456565b60c0830152600683015460e083015260ff600784015416611d8881613456565b6101008301526008830154610120830152600983015416610140820152600a820154610160820152600b820154916101808201928352600c810154926101a08301938452600d820154926101c08101938452610220611e016010600e860154956101e08501968752600f810154610200860152016133e7565b9101525192519151905191604051938452602084015260408301526060820152f35b503461027a578060031936011261027a576020600754604051908152f35b503461027a57606036600319011261027a57611e5b6134a0565b90611e646134bb565b6044359260018060a01b0380911683526006602052604083209116600052602052604060002090815483101561027a576020611ea084846134d1565b90546040519160031b1c8152f35b503461027a57602036600319011261027a576020906040906001600160a01b03611ed66134a0565b168152600583522054604051908152f35b503461027a578060031936011261027a576001546040516001600160a01b039091168152602090f35b503461027a578060031936011261027a576020600954604051908152f35b503461027a578060031936011261027a57611f476135a1565b8080808060018060a01b036001541647905af1611f626136ad565b5015611f6b5780f35b60405162461bcd60e51b815260206004820152600f60248201526e151c985b9cd9995c8819985a5b1959608a1b6044820152606490fd5b503461027a578060031936011261027a57600b546040516001600160a01b039091168152602090f35b503461027a578060031936011261027a57611fe46135a1565b600180546001600160a01b031981169091556000906001600160a01b03167f8be0079c531659141344cd1fd0a4f28419497f9722a3daafe3b4186f6b6457e08280a380f35b503461027a576020908160031936011261027a576004356120486137af565b808252600283526040822060018101546001600160a01b03908116943386900361213d57600583019586549660ff88166005811015612129576120e45760046120b996979860ff19161790558652600681526040862091600384015416600052526004604060002091015490613685565b7f681705fdbd93dba3b679fd712577e9a86d57c5551c520f8c74857deb57f9623f8280a26001815580f35b60405162461bcd60e51b815260048101849052601e60248201527f43616e206f6e6c792063616e63656c20756e6a6f696e65642067616d657300006044820152606490fd5b634e487b7160e01b88526021600452602488fd5b6064906040519062461bcd60e51b82526004820152601760248201527f4f6e6c792063726561746f722063616e2063616e63656c0000000000000000006044820152fd5b50604036600319011261027a576004356121996137af565b6121a1613768565b808252600260205260408220600581019081549160ff8316600581101561041a5785806105229481946121d5839515613805565b60018201546001600160a01b0391906121f2908316331415613846565b60016104ae60243561394f565b503461027a57602080600319360112610383576004359061221e6137af565b8183526002815260408320600181015490916001600160a01b039182163381148015612455575b1561241c5760058401805460ff81166005811015610df3578015908115612411575b50156123cc57906004889594939260ff191617905582600386015416916004860154906040516331a9108f60e11b81528260048201528181602481885afa9182156123c15787926123a4575b505084163014612333575b50505060088301549081151580612324575b612303575b8233867f49d7c8709a4c20d005b1c37e3f302ae91287b77de799510e227932e05ee770c88380a36001815580f35b8280928192600261231b970154165af16105736136ad565b388281806122d5565b508060028501541615156122d0565b823b15610e6e576040516323b872dd60e01b81523060048201526001600160a01b0392909216602483015260448201529083908290606490829084905af1908115612399578391612385575b806122be565b61238e906132f2565b61038357813861237f565b6040513d85823e3d90fd5b6123ba9250803d10611a5857611a498183613320565b38806122b3565b6040513d89823e3d90fd5b60405162461bcd60e51b815260048101859052601960248201527f43616e6e6f742063616e63656c206163746976652067616d65000000000000006044820152606490fd5b600191501438612267565b60405162461bcd60e51b8152600481018390526011602482015270139bdd0818481c185c9d1a58da5c185b9d607a1b6044820152606490fd5b50826002850154163314612245565b503461027a57604036600319011261027a5761247e6134a0565b60249182359161248c6137af565b3382526006602052604082209060018060a01b03169081835260205260408220928293835b8154808210156126205783906124c783856134d1565b929054600393841b1c146124e55750506124e09061363c565b6124b1565b9093949596506000199182820191821161260d5761251661250961252f93866134d1565b905490871b1c91856134d1565b90919082549060031b91821b91600019901b1916179055565b815480156125fa5781019261254484846134d1565b81939154921b1b191690555560015b156125b657829350813b156125b2576040516323b872dd60e01b8152306004820152336024820152604481019190915291908290606490829084905af18015610387576125a3575b506001815580f35b6125ac906132f2565b3861259b565b5050fd5b60405162461bcd60e51b815260206004820152601a818601527f4e4654206e6f7420666f756e6420696e20756e636c61696d65640000000000006044820152606490fd5b634e487b7160e01b875260316004528787fd5b634e487b7160e01b885260116004528888fd5b505050909192612553565b503461027a578060031936011261027a57602060ff60015460a01c166040519015158152f35b503461027a578060031936011261027a5761266a6135a1565b612672613768565b6001805460ff60a01b1916600160a01b1790556040513381527f62e78cea01bee320cd4e420270b5ea74000d11b0c9f74754ebdbfc544b05a25890602090a180f35b503461027a578060031936011261027a576126cd6135a1565b60015460ff8160a01c16156127155760ff60a01b19166001556040513381527f5db9ee0a495bf2e6ff9c91a7834c1ba4fdd244a5e8aa4e537bd38aeae4b073aa90602090a180f35b60405162461bcd60e51b815260206004820152601460248201527314185d5cd8589b194e881b9bdd081c185d5cd95960621b6044820152606490fd5b503461027a578060031936011261027a576020600854604051908152f35b503461027a578060031936011261027a57600a546040516001600160a01b039091168152602090f35b503461027a57602036600319011261027a576004358152600260205260408120906128b66010604051936127cb856132d6565b8054855260018101546001600160a01b039081166020870152600282015481166040870152600382015416606086015260048101546080860152600581015460ff9061281c81831660a08901613661565b60081c1661282981613456565b60c0860152600681015460e086015260ff60078201541661284981613456565b610100860152600881015461012086015260098101546001600160a01b0316610140860152600a810154610160860152600b810154610180860152600c8101546101a0860152600d8101546101c0860152600e8101546101e0860152600f810154610200860152016133e7565b61022083015281519060018060a01b036020840151166102205260018060a01b0360408401511660805260018060a01b036060840151166101c05260808301519060a0840151906005821015612abf575060c084015161291581613456565b60e085015161010086015161292981613456565b61012087015190600160a01b600190036101408901511692610160890151946101808a0151966101a08b0151986101c08c01519a6101e08d01519c6102008101516101a05261022001518060a052805161016052602081015161010052604081015160e0526060015115156101e05260405180610240525261022051610240516020015260805161024051604001526101c051610240516060015261024051608001526102405160a0016129dc91613433565b6129e581613456565b6102405160c001526102405160e001526129fe81613456565b610240516101000152610240516101200152610240516101400152610240516101600152610240516101800152610240516101a00152610240516101c00152610240516101e001526101a0516102405161020001526102a08061024051610220015261024051016101605190612a7391613460565b610240518082039061024001526101005190612a8e91613460565b6102405180820390610260015260e05190612aa891613460565b6101e0516102405161028001526102405180910390f35b634e487b7160e01b81526021600452602490fd5b503461027a57602036600319011261027a576020906040906001600160a01b03612afb6134a0565b168152600483522054604051908152f35b503461027a57602036600319011261027a57612b266135a1565b60043560085580f35b503461027a57602036600319011261027a57600435612b4c6135a1565b6103e88111612b5b5760095580f35b60405162461bcd60e51b81526020600482015260076024820152664d61782031302560c81b6044820152606490fd5b503461027a57602080600319360112610383576001600160a01b03612bad6134a0565b168252600381526040822060405192838383549182815201908193835284832090835b818110612c245750505084612be6910385613320565b60405193838594850191818652518092526040850193925b828110612c0d57505050500390f35b835185528695509381019392810192600101612bfe565b825484529286019260019283019201612bd0565b503461027a578060031936011261027a57600c546040516001600160a01b039091168152602090f35b503461027a57602036600319011261027a576004358152600260205260409020808054600160a01b6001900380600184015416610180528060028401541660c0528060038401541690600484015490600585015490600686015490600787015460ff1660088801549160098901541692600a89015494600b8a015496600c8b015498600d8c01549a600e8d01549c600f01549d601001612d00906133e7565b6101205260405180610140525261018051610140516020015260c0516101405160400152610140516060015261014051608001526101405160a00160ff821690612d4991613433565b60081c60ff16612d5881613456565b6101405160c001526101405160e00152612d7181613456565b610140516101000152610140516101200152610140516101400152610140516101600152610140516101800152610140516101a00152610140516101c00152610140516101e0015261014051610200015261024080610140516102200152610120515190610140510160809052610140516102c001612def91613460565b6101205160200151610140519161023f19928381830301906102600152612e1591613460565b610120516040015191610140519081830301906102800152612e3691613460565b61012051606001511515610140516102a001526101405180910390f35b503461027a57602036600319011261027a57612e6d6137af565b6004358152600260205260408120600581015460ff811660058110158061328857600182148092811561327a575b50156132445760018401546001600160a01b03163314801561322e575b156131fa576003600b85015410806131ec575b156131af5761319b57613189575b50600d81015460405142602082015244604082015260043560608201528160808201523360601b60a0820152609481528060c08101106001600160401b0360c0830111176131755760c08101604052602081519101209060018216156000146131055750612f4a600b83015461363c565b600b830155600d8201546001810181116130f15760018381015460408051938301845291841660208401526001600160a01b031690820152600435907fd2b6b22444768b00d18e4a1c242dc398d49e330c1bae790cad9dcd86da2e20c390606090a25b612fba600d83015461363c565b600d83015560018116600e830155600f8201556003600b82015410801580916130e2575b612feb575b826001815580f35b156130cb5760018101546001600160a01b0316906008905b6009810180546001600160a01b0319166001600160a01b03948516908117825560058301805460ff1916600390811790915590865260066020908152604080882092850154909616875252928420600482015461305f91613685565b0154806130a0575b50546001600160a01b03166004357f7f40df5127524300187445e867486da572aab86769c0212e0b392bd87c4ca97f8380a33880612fe3565b81546001600160a01b03168352600460205260408320805490916130c39161392b565b905538613067565b60028101546001600160a01b031690600890613003565b506003600c8301541015612fde565b634e487b7160e01b84526011600452602484fd5b600c8301613113815461363c565b90556001810181116130f1576002830154604080516001938401815292841660208401526001600160a01b0390911690820152600435907fd2b6b22444768b00d18e4a1c242dc398d49e330c1bae790cad9dcd86da2e20c390606090a2612fad565b634e487b7160e01b84526041600452602484fd5b60ff1916600217600582015538612ed9565b634e487b7160e01b84526021600452602484fd5b60405162461bcd60e51b815260206004820152601560248201527447616d6520616c726561647920636f6d706c65746560581b6044820152606490fd5b506003600c85015410612ecb565b60405162461bcd60e51b815260206004820152600c60248201526b2737ba103090383630bcb2b960a11b6044820152606490fd5b5060028401546001600160a01b03163314612eb8565b60405162461bcd60e51b815260206004820152600e60248201526d47616d65206e6f7420726561647960901b6044820152606490fd5b915050600285911438612e9b565b634e487b7160e01b85526021600452602485fd5b90600182811c921680156132cc575b60208310146132b657565b634e487b7160e01b600052602260045260246000fd5b91607f16916132ab565b61024081019081106001600160401b03821117611b9d57604052565b6001600160401b038111611b9d57604052565b608081019081106001600160401b03821117611b9d57604052565b90601f801991011681019081106001600160401b03821117611b9d57604052565b90604051918260008254926133558461329c565b9081845260019485811690816000146133c45750600114613381575b505061337f92500383613320565b565b9093915060005260209081600020936000915b8183106133ac57505061337f93508201013880613371565b85548884018501529485019487945091830191613394565b91505061337f94506020925060ff191682840152151560051b8201013880613371565b906040516133f481613305565b606060ff6003839561340581613341565b855261341360018201613341565b602086015261342460028201613341565b60408601520154161515910152565b9060058210156134405752565b634e487b7160e01b600052602160045260246000fd5b6002111561344057565b919082519283825260005b84811061348c575050826000602080949584010152601f8019910116010190565b60208183018101518483018201520161346b565b600435906001600160a01b03821682036134b657565b600080fd5b602435906001600160a01b03821682036134b657565b80548210156134e95760005260206000200190600090565b634e487b7160e01b600052603260045260246000fd5b9181601f840112156134b6578235916001600160401b0383116134b6576020808501948460051b0101116134b657565b6001600160401b038111611b9d57601f01601f191660200190565b81601f820112156134b6578035906135618261352f565b9261356f6040519485613320565b828452602083830101116134b657816000926020809301838601378301015290565b610104359081151582036134b657565b6001546001600160a01b031633036135b557565b606460405162461bcd60e51b815260206004820152602060248201527f4f776e61626c653a2063616c6c6572206973206e6f7420746865206f776e65726044820152fd5b1561360057565b60405162461bcd60e51b8152602060048201526014602482015273125b9d985b1a59081391950818dbdb9d1c9858dd60621b6044820152606490fd5b600019811461364b5760010190565b634e487b7160e01b600052601160045260246000fd5b60058210156134405752565b9060058110156134405760ff80198354169116179055565b9081549168010000000000000000831015611b9d578261251691600161337f950181556134d1565b3d156136d8573d906136be8261352f565b916136cc6040519384613320565b82523d6000602084013e565b606090565b156136e457565b60405162461bcd60e51b8152602060048201526013602482015272119959481d1c985b9cd9995c8819985a5b1959606a1b6044820152606490fd5b9190820391821161364b57565b1561373357565b60405162461bcd60e51b815260206004820152600d60248201526c1499599d5b990819985a5b1959609a1b6044820152606490fd5b60ff60015460a01c1661377757565b60405162461bcd60e51b815260206004820152601060248201526f14185d5cd8589b194e881c185d5cd95960821b6044820152606490fd5b6002600054146137c0576002600055565b60405162461bcd60e51b815260206004820152601f60248201527f5265656e7472616e637947756172643a207265656e7472616e742063616c6c006044820152606490fd5b1561380c57565b60405162461bcd60e51b815260206004820152601260248201527147616d65206e6f7420617661696c61626c6560701b6044820152606490fd5b1561384d57565b60405162461bcd60e51b815260206004820152601460248201527343616e6e6f74206a6f696e206f776e2067616d6560601b6044820152606490fd5b8181029291811591840414171561364b57565b156138a357565b60405162461bcd60e51b8152602060048201526014602482015273125b9cdd59999a58da595b9d081c185e5b595b9d60621b6044820152606490fd5b156138e657565b60405162461bcd60e51b815260206004820152601c60248201527f506c6174666f726d20666565207472616e73666572206661696c6564000000006044820152606490fd5b9190820180921161364b57565b519069ffffffffffffffffffff821682036134b657565b600b54604051633fabe5a360e21b8152919060a090839060049082906001600160a01b03165afa918215613a5257600092613a04575b5060008213156139ca5768056bc75e2d631000009081810291818304149015171561364b5781156139b4570490565b634e487b7160e01b600052601260045260246000fd5b60405162461bcd60e51b8152602060048201526012602482015271125b9d985b1a59081c1c9a58d9481999595960721b6044820152606490fd5b909160a0823d8211613a4a575b81613a1e60a09383613320565b8101031261027a5750613a3081613938565b50613a42608060208301519201613938565b509038613985565b3d9150613a11565b6040513d6000823e3d90fd5b91908110156134e95760051b0190565b356001600160a01b03811681036134b65790565b908160209103126134b657516001600160a01b03811681036134b65790565b15613aa857565b60405162461bcd60e51b8152602060048201526012602482015271496e76616c69642067616d6520737461746560701b6044820152606490fdfea2646970667358221220bde6aae04853c2c3d9a35c7a661ec95f5aff01b59cd5770ed951640757ab9a9d64736f6c63430008140033","opcodes":"PUSH1 0x80 CALLVALUE PUSH3 0x111 JUMPI PUSH1 0x1F PUSH3 0x3C5A CODESIZE DUP2 SWAP1 SUB SWAP2 DUP3 ADD PUSH1 0x1F NOT AND DUP4 ADD SWAP2 PUSH1 0x1 PUSH1 0x1 PUSH1 0x40 SHL SUB DUP4 GT DUP5 DUP5 LT OR PUSH3 0x116 JUMPI DUP1 DUP5 SWAP3 PUSH1 0x60 SWAP5 PUSH1 0x40 MSTORE DUP4 CODECOPY DUP2 ADD SUB SLT PUSH3 0x111 JUMPI PUSH3 0x4D DUP2 PUSH3 0x12C JUMP JUMPDEST PUSH3 0x69 PUSH1 0x40 PUSH3 0x61 PUSH1 0x20 DUP6 ADD PUSH3 0x12C JUMP JUMPDEST SWAP4 ADD PUSH3 0x12C JUMP JUMPDEST SWAP2 PUSH1 0x1 PUSH1 0x0 SSTORE PUSH1 0x1 SLOAD SWAP3 PUSH1 0x40 MLOAD SWAP4 PUSH1 0x1 DUP1 PUSH1 0xA0 SHL SUB SWAP3 DUP4 SWAP2 CALLER DUP4 DUP3 AND PUSH32 0x8BE0079C531659141344CD1FD0A4F28419497F9722A3DAAFE3B4186F6B6457E0 PUSH1 0x0 DUP1 LOG3 PUSH1 0x1 PUSH1 0x1 PUSH1 0xA8 SHL SUB NOT AND CALLER PUSH1 0xFF PUSH1 0xA0 SHL NOT AND OR PUSH1 0x1 SWAP1 DUP2 SSTORE PUSH1 0x7 SSTORE PUSH3 0x30D40 PUSH1 0x8 SSTORE PUSH2 0x15E PUSH1 0x9 SSTORE PUSH1 0xB DUP1 SLOAD PUSH1 0x1 PUSH1 0x1 PUSH1 0xA0 SHL SUB NOT SWAP1 DUP2 AND SWAP7 DUP5 AND SWAP7 SWAP1 SWAP7 OR SWAP1 SSTORE PUSH1 0xC DUP1 SLOAD DUP7 AND SWAP2 SWAP1 SWAP3 AND OR SWAP1 SSTORE PUSH1 0xA DUP1 SLOAD SWAP1 SWAP4 AND SWAP2 AND OR SWAP1 SSTORE PUSH2 0x3B18 SWAP1 DUP2 PUSH3 0x142 DUP3 CODECOPY RETURN JUMPDEST PUSH1 0x0 DUP1 REVERT JUMPDEST PUSH4 0x4E487B71 PUSH1 0xE0 SHL PUSH1 0x0 MSTORE PUSH1 0x41 PUSH1 0x4 MSTORE PUSH1 0x24 PUSH1 0x0 REVERT JUMPDEST MLOAD SWAP1 PUSH1 0x1 PUSH1 0x1 PUSH1 0xA0 SHL SUB DUP3 AND DUP3 SUB PUSH3 0x111 JUMPI JUMP INVALID PUSH2 0x260 PUSH1 0x40 MSTORE PUSH1 0x4 CALLDATASIZE LT ISZERO PUSH2 0x13 JUMPI PUSH1 0x0 DUP1 REVERT JUMPDEST PUSH1 0x0 DUP1 CALLDATALOAD PUSH1 0xE0 SHR DUP1 PUSH4 0x19E485E EQ PUSH2 0x2E53 JUMPI DUP1 PUSH4 0x117A5B90 EQ PUSH2 0x2C61 JUMPI DUP1 PUSH4 0x11EAC855 EQ PUSH2 0x2C38 JUMPI DUP1 PUSH4 0x120AACE6 EQ PUSH2 0x2B8A JUMPI DUP1 PUSH4 0x12E8E2C3 EQ PUSH2 0x2B2F JUMPI DUP1 PUSH4 0x131DBD09 EQ PUSH2 0x2B0C JUMPI DUP1 PUSH4 0x1A68B691 EQ PUSH2 0x2AD3 JUMPI DUP1 PUSH4 0x1B31ABDA EQ PUSH2 0x2798 JUMPI DUP1 PUSH4 0x2D656AD7 EQ PUSH2 0x276F JUMPI DUP1 PUSH4 0x3A38D063 EQ PUSH2 0x2751 JUMPI DUP1 PUSH4 0x3F4BA83A EQ PUSH2 0x26B4 JUMPI DUP1 PUSH4 0x51858E27 EQ PUSH2 0x2651 JUMPI DUP1 PUSH4 0x5C975ABB EQ PUSH2 0x262B JUMPI DUP1 PUSH4 0x6088E93A EQ PUSH2 0x2464 JUMPI DUP1 PUSH4 0x623C0DF2 EQ PUSH2 0x21FF JUMPI DUP1 PUSH4 0x636E9974 EQ PUSH2 0x2181 JUMPI DUP1 PUSH4 0x69958AB9 EQ PUSH2 0x2029 JUMPI DUP1 PUSH4 0x715018A6 EQ PUSH2 0x1FCB JUMPI DUP1 PUSH4 0x8009B7BD EQ PUSH2 0x1FA2 JUMPI DUP1 PUSH4 0x84536017 EQ PUSH2 0x1F2E JUMPI DUP1 PUSH4 0x8C639A85 EQ PUSH2 0x1F10 JUMPI DUP1 PUSH4 0x8DA5CB5B EQ PUSH2 0x1EE7 JUMPI DUP1 PUSH4 0x95D11520 EQ PUSH2 0x1EAE JUMPI DUP1 PUSH4 0xAA4209B8 EQ PUSH2 0x1E41 JUMPI DUP1 PUSH4 0xB135BBB0 EQ PUSH2 0x1E23 JUMPI DUP1 PUSH4 0xB87B7FCC EQ PUSH2 0x1CDC JUMPI DUP1 PUSH4 0xBC0167CD EQ PUSH2 0x1C85 JUMPI DUP1 PUSH4 0xC7B8981C EQ PUSH2 0x1AE4 JUMPI DUP1 PUSH4 0xCB9A2630 EQ PUSH2 0x17C6 JUMPI DUP1 PUSH4 0xCF309490 EQ PUSH2 0x166E JUMPI DUP1 PUSH4 0xE1F1C4A7 EQ PUSH2 0x1651 JUMPI DUP1 PUSH4 0xE25F494B EQ PUSH2 0xE76 JUMPI DUP1 PUSH4 0xE63D8745 EQ PUSH2 0x5A7 JUMPI DUP1 PUSH4 0xEF46B2AB EQ PUSH2 0x580 JUMPI DUP1 PUSH4 0xEFAA55A0 EQ PUSH2 0x42E JUMPI DUP1 PUSH4 0xF21F8025 EQ PUSH2 0x27D JUMPI PUSH4 0xF2FDE38B EQ PUSH2 0x1B5 JUMPI PUSH1 0x0 DUP1 REVERT JUMPDEST CALLVALUE PUSH2 0x27A JUMPI PUSH1 0x20 CALLDATASIZE PUSH1 0x3 NOT ADD SLT PUSH2 0x27A JUMPI PUSH2 0x1CE PUSH2 0x34A0 JUMP JUMPDEST PUSH2 0x1D6 PUSH2 0x35A1 JUMP JUMPDEST PUSH1 0x1 PUSH1 0x1 PUSH1 0xA0 SHL SUB SWAP1 DUP2 AND SWAP1 DUP2 ISZERO PUSH2 0x226 JUMPI PUSH1 0x1 SLOAD DUP3 PUSH1 0x1 PUSH1 0x1 PUSH1 0x60 SHL SUB PUSH1 0xA0 SHL DUP3 AND OR PUSH1 0x1 SSTORE AND PUSH32 0x8BE0079C531659141344CD1FD0A4F28419497F9722A3DAAFE3B4186F6B6457E0 PUSH1 0x0 DUP1 LOG3 DUP1 RETURN JUMPDEST PUSH1 0x40 MLOAD PUSH3 0x461BCD PUSH1 0xE5 SHL DUP2 MSTORE PUSH1 0x20 PUSH1 0x4 DUP3 ADD MSTORE PUSH1 0x26 PUSH1 0x24 DUP3 ADD MSTORE PUSH32 0x4F776E61626C653A206E6577206F776E657220697320746865207A65726F2061 PUSH1 0x44 DUP3 ADD MSTORE PUSH6 0x646472657373 PUSH1 0xD0 SHL PUSH1 0x64 DUP3 ADD MSTORE PUSH1 0x84 SWAP1 REVERT JUMPDEST DUP1 REVERT JUMPDEST POP CALLVALUE PUSH2 0x27A JUMPI PUSH1 0x60 CALLDATASIZE PUSH1 0x3 NOT ADD SLT PUSH2 0x27A JUMPI PUSH1 0x4 CALLDATALOAD PUSH2 0x29A PUSH2 0x34BB JUMP JUMPDEST PUSH1 0x44 CALLDATALOAD PUSH2 0x2A5 PUSH2 0x37AF JUMP JUMPDEST DUP3 DUP5 MSTORE PUSH1 0x2 PUSH1 0x20 MSTORE PUSH1 0x40 DUP5 KECCAK256 PUSH1 0xFF PUSH1 0x5 DUP3 ADD SLOAD AND PUSH1 0x5 DUP2 LT ISZERO PUSH2 0x41A JUMPI PUSH2 0x2CC SWAP1 ISZERO PUSH2 0x3AA1 JUMP JUMPDEST PUSH1 0x1 DUP2 ADD SLOAD PUSH1 0x1 PUSH1 0x1 PUSH1 0xA0 SHL SUB SWAP1 DUP2 AND CALLER SUB PUSH2 0x3D5 JUMPI DUP1 DUP4 SWAP2 PUSH1 0x3 DUP5 ADD SLOAD AND SWAP5 AND DUP1 SWAP5 EQ SWAP2 DUP3 PUSH2 0x3C7 JUMPI JUMPDEST POP POP ISZERO PUSH2 0x396 JUMPI DUP2 DUP5 SWAP3 EXTCODESIZE ISZERO PUSH2 0x392 JUMPI PUSH1 0x40 MLOAD PUSH4 0x23B872DD PUSH1 0xE0 SHL DUP2 MSTORE CALLER PUSH1 0x4 DUP3 ADD MSTORE ADDRESS PUSH1 0x24 DUP3 ADD MSTORE PUSH1 0x44 DUP2 ADD SWAP3 SWAP1 SWAP3 MSTORE DUP3 SWAP1 DUP3 SWAP1 PUSH1 0x64 SWAP1 DUP3 SWAP1 DUP5 SWAP1 GAS CALL DUP1 ISZERO PUSH2 0x387 JUMPI PUSH2 0x36F JUMPI JUMPDEST POP POP CALLER SWAP1 PUSH32 0x52B1FB285141146B72F7EDDD25172042BE309C15A803900DCE35E0AE95C04DD DUP4 DUP1 LOG3 PUSH1 0x1 DUP2 SSTORE DUP1 RETURN JUMPDEST PUSH2 0x378 SWAP1 PUSH2 0x32F2 JUMP JUMPDEST PUSH2 0x383 JUMPI DUP2 CODESIZE PUSH2 0x340 JUMP JUMPDEST POP DUP1 REVERT JUMPDEST PUSH1 0x40 MLOAD RETURNDATASIZE DUP5 DUP3 RETURNDATACOPY RETURNDATASIZE SWAP1 REVERT JUMPDEST DUP3 DUP1 REVERT JUMPDEST PUSH1 0x40 MLOAD PUSH3 0x461BCD PUSH1 0xE5 SHL DUP2 MSTORE PUSH1 0x20 PUSH1 0x4 DUP3 ADD MSTORE PUSH1 0x9 PUSH1 0x24 DUP3 ADD MSTORE PUSH9 0x15DC9BDB99C8139195 PUSH1 0xBA SHL PUSH1 0x44 DUP3 ADD MSTORE PUSH1 0x64 SWAP1 REVERT JUMPDEST PUSH1 0x4 ADD SLOAD EQ SWAP1 POP DUP2 CODESIZE PUSH2 0x2F7 JUMP JUMPDEST PUSH1 0x40 MLOAD PUSH3 0x461BCD PUSH1 0xE5 SHL DUP2 MSTORE PUSH1 0x20 PUSH1 0x4 DUP3 ADD MSTORE PUSH1 0x1C PUSH1 0x24 DUP3 ADD MSTORE PUSH32 0x4F6E6C792063726561746F722063616E206465706F736974204E465400000000 PUSH1 0x44 DUP3 ADD MSTORE PUSH1 0x64 SWAP1 REVERT JUMPDEST PUSH4 0x4E487B71 PUSH1 0xE0 SHL DUP7 MSTORE PUSH1 0x21 PUSH1 0x4 MSTORE PUSH1 0x24 DUP7 REVERT JUMPDEST POP PUSH1 0x20 CALLDATASIZE PUSH1 0x3 NOT ADD SLT PUSH2 0x27A JUMPI PUSH1 0x4 CALLDATALOAD PUSH2 0x446 PUSH2 0x37AF JUMP JUMPDEST PUSH2 0x44E PUSH2 0x3768 JUMP JUMPDEST DUP1 DUP3 MSTORE PUSH1 0x2 PUSH1 0x20 MSTORE PUSH1 0x40 DUP3 KECCAK256 PUSH1 0x5 DUP2 ADD SWAP1 DUP2 SLOAD SWAP2 PUSH1 0xFF DUP4 AND PUSH1 0x5 DUP2 LT ISZERO PUSH2 0x41A JUMPI DUP6 DUP1 PUSH2 0x522 SWAP5 DUP2 SWAP5 PUSH2 0x482 DUP4 SWAP6 ISZERO PUSH2 0x3805 JUMP JUMPDEST PUSH1 0x1 DUP3 ADD SLOAD PUSH1 0x1 PUSH1 0x1 PUSH1 0xA0 SHL SUB SWAP2 SWAP1 PUSH2 0x49F SWAP1 DUP4 AND CALLER EQ ISZERO PUSH2 0x3846 JUMP JUMPDEST PUSH1 0x1 PUSH2 0x4AE PUSH1 0x6 DUP6 ADD SLOAD PUSH2 0x394F JUMP JUMPDEST SWAP10 PUSH1 0x2 PUSH2 0x2710 PUSH2 0x4C1 DUP14 PUSH1 0x9 SLOAD SWAP1 PUSH2 0x3889 JUMP JUMPDEST DIV SWAP6 DUP13 PUSH2 0x4DA PUSH2 0x4D1 DUP10 DUP4 PUSH2 0x371F JUMP JUMPDEST SWAP2 CALLVALUE LT ISZERO PUSH2 0x389C JUMP JUMPDEST PUSH1 0x8 DUP3 ADD SSTORE ADD CALLER PUSH1 0x1 PUSH1 0x1 PUSH1 0x60 SHL SUB PUSH1 0xA0 SHL DUP3 SLOAD AND OR SWAP1 SSTORE PUSH1 0xFF NOT AND OR SWAP1 SSTORE CALLER DUP4 MSTORE PUSH1 0x3 PUSH1 0x20 MSTORE PUSH2 0x50E DUP10 PUSH1 0x40 DUP6 KECCAK256 PUSH2 0x3685 JUMP JUMPDEST PUSH1 0xA SLOAD AND GAS CALL PUSH2 0x51C PUSH2 0x36AD JUMP JUMPDEST POP PUSH2 0x38DF JUMP JUMPDEST DUP3 DUP2 CALLVALUE GT PUSH2 0x558 JUMPI JUMPDEST CALLER DUP4 PUSH32 0x45C4F9CBAFE186141862608C493F28B823FDE4C2142BEDC3F5169961A73FDD22 DUP4 DUP1 LOG3 PUSH1 0x1 DUP2 SSTORE DUP1 RETURN JUMPDEST DUP1 DUP1 DUP1 PUSH2 0x568 PUSH2 0x579 SWAP6 CALLVALUE PUSH2 0x371F JUMP JUMPDEST CALLER GAS CALL PUSH2 0x573 PUSH2 0x36AD JUMP JUMPDEST POP PUSH2 0x372C JUMP JUMPDEST CODESIZE DUP3 PUSH2 0x52B JUMP JUMPDEST POP CALLVALUE PUSH2 0x27A JUMPI PUSH1 0x20 CALLDATASIZE PUSH1 0x3 NOT ADD SLT PUSH2 0x27A JUMPI PUSH1 0x20 PUSH2 0x59F PUSH1 0x4 CALLDATALOAD PUSH2 0x394F JUMP JUMPDEST PUSH1 0x40 MLOAD SWAP1 DUP2 MSTORE RETURN JUMPDEST POP PUSH2 0x120 CALLDATASIZE PUSH1 0x3 NOT ADD SLT PUSH2 0x27A JUMPI PUSH2 0x5BD PUSH2 0x34A0 JUMP JUMPDEST PUSH2 0x5C5 PUSH2 0x34BB JUMP JUMPDEST SWAP1 PUSH1 0x2 PUSH1 0x84 CALLDATALOAD LT ISZERO PUSH2 0x392 JUMPI PUSH1 0xA4 CALLDATALOAD PUSH1 0x1 PUSH1 0x1 PUSH1 0x40 SHL SUB DUP2 GT PUSH2 0xE72 JUMPI PUSH2 0x5F0 SWAP1 CALLDATASIZE SWAP1 PUSH1 0x4 ADD PUSH2 0x354A JUMP JUMPDEST PUSH1 0xC4 CALLDATALOAD PUSH1 0x1 PUSH1 0x1 PUSH1 0x40 SHL SUB DUP2 GT PUSH2 0xE6E JUMPI PUSH2 0x60F SWAP1 CALLDATASIZE SWAP1 PUSH1 0x4 ADD PUSH2 0x354A JUMP JUMPDEST SWAP1 PUSH1 0xE4 CALLDATALOAD PUSH1 0x1 PUSH1 0x1 PUSH1 0x40 SHL SUB DUP2 GT PUSH2 0xE6A JUMPI PUSH2 0x62F SWAP1 CALLDATASIZE SWAP1 PUSH1 0x4 ADD PUSH2 0x354A JUMP JUMPDEST PUSH2 0x637 PUSH2 0x3591 JUMP JUMPDEST SWAP5 PUSH2 0x640 PUSH2 0x37AF JUMP JUMPDEST PUSH2 0x648 PUSH2 0x3768 JUMP JUMPDEST PUSH1 0x1 PUSH1 0x1 PUSH1 0xA0 SHL SUB DUP6 AND ISZERO ISZERO DUP1 PUSH2 0xE57 JUMPI JUMPDEST ISZERO PUSH2 0xE1F JUMPI PUSH2 0x673 PUSH1 0x1 PUSH1 0x1 PUSH1 0xA0 SHL SUB DUP3 AND ISZERO ISZERO PUSH2 0x35F9 JUMP JUMPDEST PUSH2 0x67E PUSH1 0x8 SLOAD PUSH2 0x394F JUMP JUMPDEST SWAP3 PUSH2 0x68A PUSH1 0x64 CALLDATALOAD PUSH2 0x394F JUMP JUMPDEST SWAP7 PUSH2 0x2710 PUSH2 0x69A PUSH1 0x9 SLOAD DUP11 PUSH2 0x3889 JUMP JUMPDEST DIV SWAP4 PUSH2 0x6A6 DUP10 DUP8 PUSH2 0x392B JUMP JUMPDEST SWAP7 PUSH2 0x6B3 DUP9 CALLVALUE LT ISZERO PUSH2 0x389C JUMP JUMPDEST PUSH1 0x1 PUSH1 0x1 PUSH1 0xA0 SHL SUB DUP6 AND EXTCODESIZE ISZERO PUSH2 0xE1B JUMPI PUSH1 0x40 MLOAD PUSH4 0x23B872DD PUSH1 0xE0 SHL DUP2 MSTORE CALLER PUSH1 0x4 DUP3 ADD MSTORE ADDRESS PUSH1 0x24 DUP3 ADD MSTORE PUSH1 0x44 DUP1 CALLDATALOAD SWAP1 DUP3 ADD MSTORE DUP12 SWAP1 DUP2 DUP2 PUSH1 0x64 DUP2 DUP4 PUSH1 0x1 PUSH1 0x1 PUSH1 0xA0 SHL SUB DUP13 AND GAS CALL DUP1 ISZERO PUSH2 0x387 JUMPI PUSH2 0xE07 JUMPI JUMPDEST POP POP PUSH1 0x40 MLOAD SWAP4 PUSH2 0x712 DUP6 PUSH2 0x3305 JUMP JUMPDEST DUP5 MSTORE PUSH1 0x20 DUP5 ADD MSTORE PUSH1 0x40 DUP4 ADD MSTORE ISZERO ISZERO PUSH1 0x60 DUP3 ADD MSTORE PUSH2 0x73E DUP4 PUSH1 0x7 SLOAD SWAP9 PUSH2 0x736 DUP11 PUSH2 0x363C JUMP JUMPDEST PUSH1 0x7 SSTORE PUSH2 0x371F JUMP JUMPDEST PUSH1 0x40 MLOAD SWAP3 PUSH2 0x74B DUP5 PUSH2 0x32D6 JUMP JUMPDEST DUP9 DUP5 MSTORE CALLER PUSH1 0x20 DUP6 ADD MSTORE PUSH1 0x1 PUSH1 0x1 PUSH1 0xA0 SHL SUB DUP9 DUP2 AND PUSH1 0x40 DUP7 ADD MSTORE AND PUSH1 0x60 DUP5 ADD MSTORE PUSH1 0x44 CALLDATALOAD PUSH1 0x80 DUP5 ADD MSTORE PUSH1 0x1 PUSH1 0xA0 DUP5 ADD MSTORE PUSH1 0xC0 DUP4 ADD DUP10 SWAP1 MSTORE PUSH1 0x64 CALLDATALOAD PUSH1 0xE0 DUP5 ADD MSTORE PUSH2 0x793 PUSH1 0x84 CALLDATALOAD PUSH2 0x3456 JUMP JUMPDEST PUSH1 0x84 CALLDATALOAD PUSH2 0x100 DUP5 ADD MSTORE PUSH2 0x120 DUP4 ADD MSTORE DUP8 PUSH2 0x140 DUP4 ADD MSTORE TIMESTAMP PUSH2 0x160 DUP4 ADD MSTORE DUP8 PUSH2 0x180 DUP4 ADD MSTORE DUP8 PUSH2 0x1A0 DUP4 ADD MSTORE DUP8 PUSH2 0x1C0 DUP4 ADD MSTORE DUP8 PUSH2 0x1E0 DUP4 ADD MSTORE DUP8 PUSH2 0x200 DUP4 ADD MSTORE PUSH2 0x220 DUP3 ADD MSTORE DUP6 DUP8 MSTORE PUSH1 0x2 PUSH1 0x20 MSTORE PUSH1 0x40 DUP8 KECCAK256 SWAP1 DUP1 MLOAD DUP3 SSTORE PUSH1 0x1 DUP3 ADD PUSH1 0x1 DUP1 PUSH1 0xA0 SHL SUB PUSH1 0x20 DUP4 ADD MLOAD AND PUSH1 0x1 PUSH1 0x1 PUSH1 0x60 SHL SUB PUSH1 0xA0 SHL DUP3 SLOAD AND OR SWAP1 SSTORE PUSH1 0x2 DUP3 ADD PUSH1 0x1 DUP1 PUSH1 0xA0 SHL SUB PUSH1 0x40 DUP4 ADD MLOAD AND PUSH1 0x1 PUSH1 0x1 PUSH1 0x60 SHL SUB PUSH1 0xA0 SHL DUP3 SLOAD AND OR SWAP1 SSTORE PUSH1 0x3 DUP3 ADD PUSH1 0x1 DUP1 PUSH1 0xA0 SHL SUB PUSH1 0x60 DUP4 ADD MLOAD AND PUSH1 0x1 PUSH1 0x1 PUSH1 0x60 SHL SUB PUSH1 0xA0 SHL DUP3 SLOAD AND OR SWAP1 SSTORE PUSH1 0x80 DUP2 ADD MLOAD PUSH1 0x4 DUP4 ADD SSTORE PUSH1 0xA0 DUP2 ADD MLOAD PUSH1 0x5 DUP2 LT ISZERO PUSH2 0xDF3 JUMPI SWAP1 PUSH2 0x220 SWAP2 PUSH2 0x87B PUSH1 0x5 DUP6 ADD SWAP2 DUP3 PUSH2 0x366D JUMP JUMPDEST PUSH1 0xC0 DUP3 ADD MLOAD PUSH2 0x889 DUP2 PUSH2 0x3456 JUMP JUMPDEST PUSH2 0x892 DUP2 PUSH2 0x3456 JUMP JUMPDEST PUSH2 0xFF00 DUP3 SLOAD SWAP2 PUSH1 0x8 SHL AND SWAP1 PUSH2 0xFF00 NOT AND OR SWAP1 SSTORE PUSH1 0xE0 DUP2 ADD MLOAD PUSH1 0x6 DUP5 ADD SSTORE PUSH2 0x100 DUP2 ADD MLOAD PUSH2 0x8BE DUP2 PUSH2 0x3456 JUMP JUMPDEST PUSH2 0x8C7 DUP2 PUSH2 0x3456 JUMP JUMPDEST PUSH1 0xFF DUP1 NOT PUSH1 0x7 DUP7 ADD SLOAD AND SWAP2 AND OR PUSH1 0x7 DUP5 ADD SSTORE PUSH2 0x120 DUP2 ADD MLOAD PUSH1 0x8 DUP5 ADD SSTORE PUSH1 0x9 DUP4 ADD PUSH1 0x1 DUP1 PUSH1 0xA0 SHL SUB PUSH2 0x140 DUP4 ADD MLOAD AND PUSH1 0x1 PUSH1 0x1 PUSH1 0x60 SHL SUB PUSH1 0xA0 SHL DUP3 SLOAD AND OR SWAP1 SSTORE PUSH2 0x160 DUP2 ADD MLOAD PUSH1 0xA DUP5 ADD SSTORE PUSH2 0x180 DUP2 ADD MLOAD PUSH1 0xB DUP5 ADD SSTORE PUSH2 0x1A0 DUP2 ADD MLOAD PUSH1 0xC DUP5 ADD SSTORE PUSH2 0x1C0 DUP2 ADD MLOAD PUSH1 0xD DUP5 ADD SSTORE PUSH2 0x1E0 DUP2 ADD MLOAD PUSH1 0xE DUP5 ADD SSTORE PUSH2 0x200 DUP2 ADD MLOAD PUSH1 0xF DUP5 ADD SSTORE ADD MLOAD SWAP1 DUP2 MLOAD DUP1 MLOAD SWAP1 PUSH1 0x1 PUSH1 0x1 PUSH1 0x40 SHL SUB DUP3 GT PUSH2 0xC49 JUMPI DUP2 SWAP1 PUSH2 0x96E PUSH1 0x10 DUP6 ADD SLOAD PUSH2 0x329C JUMP JUMPDEST PUSH1 0x1F DUP2 GT PUSH2 0xDA2 JUMPI JUMPDEST POP PUSH1 0x20 SWAP1 PUSH1 0x1F DUP4 GT PUSH1 0x1 EQ PUSH2 0xD33 JUMPI DUP12 SWAP3 PUSH2 0xD28 JUMPI JUMPDEST POP POP DUP2 PUSH1 0x1 SHL SWAP2 PUSH1 0x0 NOT SWAP1 PUSH1 0x3 SHL SHR NOT AND OR PUSH1 0x10 DUP3 ADD SSTORE JUMPDEST PUSH1 0x20 DUP3 ADD MLOAD DUP1 MLOAD SWAP1 PUSH1 0x1 PUSH1 0x1 PUSH1 0x40 SHL SUB DUP3 GT PUSH2 0xC49 JUMPI DUP2 SWAP1 PUSH2 0x9CA PUSH1 0x11 DUP6 ADD SLOAD PUSH2 0x329C JUMP JUMPDEST PUSH1 0x1F DUP2 GT PUSH2 0xCD7 JUMPI JUMPDEST POP PUSH1 0x20 SWAP1 PUSH1 0x1F DUP4 GT PUSH1 0x1 EQ PUSH2 0xC68 JUMPI DUP12 SWAP3 PUSH2 0xC5D JUMPI JUMPDEST POP POP DUP2 PUSH1 0x1 SHL SWAP2 PUSH1 0x0 NOT SWAP1 PUSH1 0x3 SHL SHR NOT AND OR PUSH1 0x11 DUP3 ADD SSTORE JUMPDEST PUSH1 0x40 DUP3 ADD MLOAD DUP1 MLOAD SWAP1 PUSH1 0x1 PUSH1 0x1 PUSH1 0x40 SHL SUB DUP3 GT PUSH2 0xC49 JUMPI SWAP1 DUP3 SWAP2 PUSH2 0xA2A PUSH1 0x12 DUP13 SWAP8 SWAP7 SWAP6 ADD SLOAD PUSH2 0x329C JUMP JUMPDEST PUSH1 0x1F DUP2 GT PUSH2 0xBF0 JUMPI JUMPDEST POP PUSH1 0x20 SWAP1 PUSH1 0x1F DUP4 GT PUSH1 0x1 EQ PUSH2 0xB6A JUMPI SWAP5 DUP7 SWAP6 SWAP5 PUSH1 0x60 PUSH1 0x13 DUP9 SWAP8 SWAP7 DUP7 PUSH2 0xAE2 SWAP13 SWAP8 PUSH2 0xAD1 SWAP8 DUP12 SWAP11 DUP12 SWAP3 PUSH2 0xB5F JUMPI JUMPDEST POP POP DUP2 PUSH1 0x1 SHL SWAP2 PUSH1 0x0 NOT SWAP1 PUSH1 0x3 SHL SHR NOT AND OR PUSH1 0x12 DUP3 ADD SSTORE JUMPDEST ADD SWAP2 ADD MLOAD ISZERO ISZERO PUSH1 0xFF DUP1 NOT DUP4 SLOAD AND SWAP2 AND OR SWAP1 SSTORE CALLER DUP5 MSTORE PUSH1 0x3 PUSH1 0x20 MSTORE PUSH2 0xA9F DUP12 PUSH1 0x40 DUP7 KECCAK256 PUSH2 0x3685 JUMP JUMPDEST PUSH1 0x1 PUSH1 0x1 PUSH1 0xA0 SHL SUB DUP11 AND DUP5 MSTORE PUSH1 0x3 PUSH1 0x20 MSTORE PUSH1 0x40 DUP5 KECCAK256 PUSH2 0xABF SWAP1 DUP13 SWAP1 PUSH2 0x3685 JUMP JUMPDEST PUSH1 0xA SLOAD PUSH1 0x1 PUSH1 0x1 PUSH1 0xA0 SHL SUB AND SWAP3 PUSH2 0x392B JUMP JUMPDEST SWAP1 GAS CALL PUSH2 0xADC PUSH2 0x36AD JUMP JUMPDEST POP PUSH2 0x36DD JUMP JUMPDEST DUP4 DUP2 CALLVALUE GT PUSH2 0xB48 JUMPI JUMPDEST POP POP CALLER DUP3 PUSH32 0xC3E0F84839DC888C892A013D10C8F9D6DC05A21A879D0CE468CA558013E9121C DUP6 DUP1 LOG3 PUSH1 0x1 PUSH1 0x1 PUSH1 0xA0 SHL SUB AND SWAP1 PUSH32 0x45C4F9CBAFE186141862608C493F28B823FDE4C2142BEDC3F5169961A73FDD22 DUP4 DUP1 LOG3 PUSH1 0x1 DUP2 SSTORE DUP1 RETURN JUMPDEST DUP1 DUP1 DUP1 PUSH2 0x568 PUSH2 0xB58 SWAP6 CALLVALUE PUSH2 0x371F JUMP JUMPDEST CODESIZE DUP4 PUSH2 0xAEB JUMP JUMPDEST ADD MLOAD SWAP1 POP CODESIZE DUP1 PUSH2 0xA60 JUMP JUMPDEST PUSH1 0x12 DUP5 SWAP4 SWAP3 SWAP9 SWAP7 SWAP6 SWAP5 ADD DUP8 MSTORE PUSH1 0x20 DUP8 KECCAK256 SWAP1 DUP8 JUMPDEST PUSH1 0x1F NOT DUP5 AND DUP2 LT PUSH2 0xBD5 JUMPI POP SWAP4 PUSH1 0x60 PUSH1 0x13 DUP10 SWAP9 SWAP6 PUSH1 0x1 DUP7 DUP12 SWAP11 SWAP7 PUSH2 0xAE2 SWAP15 DUP13 SWAP12 PUSH2 0xAD1 SWAP11 PUSH1 0x1F NOT DUP2 AND LT PUSH2 0xBBC JUMPI JUMPDEST POP POP POP DUP2 SHL ADD PUSH1 0x12 DUP3 ADD SSTORE PUSH2 0xA78 JUMP JUMPDEST ADD MLOAD PUSH1 0x0 NOT PUSH1 0xF8 DUP5 PUSH1 0x3 SHL AND SHR NOT AND SWAP1 SSTORE CODESIZE DUP1 DUP1 PUSH2 0xBAC JUMP JUMPDEST DUP2 DUP11 ADD MLOAD DUP4 SSTORE PUSH1 0x20 SWAP10 DUP11 ADD SWAP10 DUP15 SWAP10 POP PUSH1 0x1 SWAP1 SWAP4 ADD SWAP3 ADD PUSH2 0xB7D JUMP JUMPDEST SWAP1 SWAP2 SWAP3 SWAP4 SWAP5 SWAP6 POP PUSH1 0x12 DUP5 ADD DUP12 MSTORE PUSH1 0x20 DUP12 KECCAK256 PUSH1 0x1F DUP5 ADD PUSH1 0x5 SHR DUP2 ADD PUSH1 0x20 DUP6 LT PUSH2 0xC42 JUMPI JUMPDEST SWAP1 DUP13 SWAP8 SWAP7 SWAP6 SWAP5 SWAP4 SWAP3 SWAP2 JUMPDEST PUSH1 0x1F DUP4 ADD PUSH1 0x5 SHR DUP3 ADD DUP2 LT PUSH2 0xC33 JUMPI POP POP PUSH2 0xA33 JUMP JUMPDEST PUSH1 0x0 DUP2 SSTORE DUP14 SWAP9 POP PUSH1 0x1 ADD PUSH2 0xC1D JUMP JUMPDEST POP DUP1 PUSH2 0xC13 JUMP JUMPDEST PUSH4 0x4E487B71 PUSH1 0xE0 SHL DUP11 MSTORE PUSH1 0x41 PUSH1 0x4 MSTORE PUSH1 0x24 DUP11 REVERT JUMPDEST ADD MLOAD SWAP1 POP CODESIZE DUP1 PUSH2 0x9E9 JUMP JUMPDEST SWAP3 POP PUSH1 0x11 DUP5 ADD DUP12 MSTORE PUSH1 0x20 DUP12 KECCAK256 SWAP1 DUP12 SWAP4 JUMPDEST PUSH1 0x1F NOT DUP5 AND DUP6 LT PUSH2 0xCBC JUMPI PUSH1 0x1 SWAP5 POP DUP4 PUSH1 0x1F NOT DUP2 AND LT PUSH2 0xCA3 JUMPI JUMPDEST POP POP POP DUP2 SHL ADD PUSH1 0x11 DUP3 ADD SSTORE PUSH2 0xA01 JUMP JUMPDEST ADD MLOAD PUSH1 0x0 NOT PUSH1 0xF8 DUP5 PUSH1 0x3 SHL AND SHR NOT AND SWAP1 SSTORE CODESIZE DUP1 DUP1 PUSH2 0xC93 JUMP JUMPDEST DUP2 DUP2 ADD MLOAD DUP4 SSTORE PUSH1 0x20 SWAP5 DUP6 ADD SWAP5 PUSH1 0x1 SWAP1 SWAP4 ADD SWAP3 SWAP1 SWAP2 ADD SWAP1 PUSH2 0xC78 JUMP JUMPDEST SWAP1 SWAP2 POP PUSH1 0x11 DUP5 ADD DUP12 MSTORE PUSH1 0x20 DUP12 KECCAK256 PUSH1 0x1F DUP5 ADD PUSH1 0x5 SHR DUP2 ADD PUSH1 0x20 DUP6 LT PUSH2 0xD21 JUMPI JUMPDEST SWAP1 DUP5 SWAP4 SWAP3 SWAP2 JUMPDEST PUSH1 0x1F DUP4 ADD PUSH1 0x5 SHR DUP3 ADD DUP2 LT PUSH2 0xD12 JUMPI POP POP PUSH2 0x9D3 JUMP JUMPDEST PUSH1 0x0 DUP2 SSTORE DUP6 SWAP5 POP PUSH1 0x1 ADD PUSH2 0xCFC JUMP JUMPDEST POP DUP1 PUSH2 0xCF6 JUMP JUMPDEST ADD MLOAD SWAP1 POP CODESIZE DUP1 PUSH2 0x98D JUMP JUMPDEST SWAP3 POP PUSH1 0x10 DUP5 ADD DUP12 MSTORE PUSH1 0x20 DUP12 KECCAK256 SWAP1 DUP12 SWAP4 JUMPDEST PUSH1 0x1F NOT DUP5 AND DUP6 LT PUSH2 0xD87 JUMPI PUSH1 0x1 SWAP5 POP DUP4 PUSH1 0x1F NOT DUP2 AND LT PUSH2 0xD6E JUMPI JUMPDEST POP POP POP DUP2 SHL ADD PUSH1 0x10 DUP3 ADD SSTORE PUSH2 0x9A5 JUMP JUMPDEST ADD MLOAD PUSH1 0x0 NOT PUSH1 0xF8 DUP5 PUSH1 0x3 SHL AND SHR NOT AND SWAP1 SSTORE CODESIZE DUP1 DUP1 PUSH2 0xD5E JUMP JUMPDEST DUP2 DUP2 ADD MLOAD DUP4 SSTORE PUSH1 0x20 SWAP5 DUP6 ADD SWAP5 PUSH1 0x1 SWAP1 SWAP4 ADD SWAP3 SWAP1 SWAP2 ADD SWAP1 PUSH2 0xD43 JUMP JUMPDEST SWAP1 SWAP2 POP PUSH1 0x10 DUP5 ADD DUP12 MSTORE PUSH1 0x20 DUP12 KECCAK256 PUSH1 0x1F DUP5 ADD PUSH1 0x5 SHR DUP2 ADD PUSH1 0x20 DUP6 LT PUSH2 0xDEC JUMPI JUMPDEST SWAP1 DUP5 SWAP4 SWAP3 SWAP2 JUMPDEST PUSH1 0x1F DUP4 ADD PUSH1 0x5 SHR DUP3 ADD DUP2 LT PUSH2 0xDDD JUMPI POP POP PUSH2 0x977 JUMP JUMPDEST PUSH1 0x0 DUP2 SSTORE DUP6 SWAP5 POP PUSH1 0x1 ADD PUSH2 0xDC7 JUMP JUMPDEST POP DUP1 PUSH2 0xDC1 JUMP JUMPDEST PUSH4 0x4E487B71 PUSH1 0xE0 SHL DUP10 MSTORE PUSH1 0x21 PUSH1 0x4 MSTORE PUSH1 0x24 DUP10 REVERT JUMPDEST PUSH2 0xE10 SWAP1 PUSH2 0x32F2 JUMP JUMPDEST PUSH2 0xE1B JUMPI DUP11 CODESIZE PUSH2 0x703 JUMP JUMPDEST DUP11 DUP1 REVERT JUMPDEST PUSH1 0x40 MLOAD PUSH3 0x461BCD PUSH1 0xE5 SHL DUP2 MSTORE PUSH1 0x20 PUSH1 0x4 DUP3 ADD MSTORE PUSH1 0x10 PUSH1 0x24 DUP3 ADD MSTORE PUSH16 0x125B9D985B1A59081BDC1C1BDB995B9D PUSH1 0x82 SHL PUSH1 0x44 DUP3 ADD MSTORE PUSH1 0x64 SWAP1 REVERT JUMPDEST POP PUSH1 0x1 PUSH1 0x1 PUSH1 0xA0 SHL SUB DUP6 AND CALLER EQ ISZERO PUSH2 0x65A JUMP JUMPDEST DUP6 DUP1 REVERT JUMPDEST DUP5 DUP1 REVERT JUMPDEST DUP4 DUP1 REVERT JUMPDEST POP PUSH2 0x120 CALLDATASIZE PUSH1 0x3 NOT ADD SLT PUSH2 0x27A JUMPI PUSH2 0xE8C PUSH2 0x34A0 JUMP JUMPDEST PUSH1 0x2 PUSH1 0x64 CALLDATALOAD LT ISZERO PUSH2 0x383 JUMPI PUSH1 0x2 PUSH1 0x84 CALLDATALOAD LT ISZERO PUSH2 0x383 JUMPI PUSH1 0xA4 CALLDATALOAD PUSH1 0x1 PUSH1 0x1 PUSH1 0x40 SHL SUB DUP2 GT PUSH2 0x392 JUMPI PUSH2 0xEC1 SWAP1 CALLDATASIZE SWAP1 PUSH1 0x4 ADD PUSH2 0x354A JUMP JUMPDEST SWAP1 PUSH1 0xC4 CALLDATALOAD PUSH1 0x1 PUSH1 0x1 PUSH1 0x40 SHL SUB DUP2 GT PUSH2 0xE72 JUMPI PUSH2 0xEE1 SWAP1 CALLDATASIZE SWAP1 PUSH1 0x4 ADD PUSH2 0x354A JUMP JUMPDEST SWAP1 PUSH1 0xE4 CALLDATALOAD PUSH1 0x1 PUSH1 0x1 PUSH1 0x40 SHL SUB DUP2 GT PUSH2 0xE6E JUMPI PUSH2 0xF01 SWAP1 CALLDATASIZE SWAP1 PUSH1 0x4 ADD PUSH2 0x354A JUMP JUMPDEST PUSH2 0xF09 PUSH2 0x3591 JUMP JUMPDEST SWAP1 PUSH2 0xF12 PUSH2 0x37AF JUMP JUMPDEST PUSH2 0xF1A PUSH2 0x3768 JUMP JUMPDEST PUSH2 0xF2E PUSH1 0x1 PUSH1 0x1 PUSH1 0xA0 SHL SUB DUP5 AND ISZERO ISZERO PUSH2 0x35F9 JUMP JUMPDEST PUSH2 0xF39 PUSH1 0x8 SLOAD PUSH2 0x394F JUMP JUMPDEST SWAP4 DUP5 CALLVALUE LT PUSH2 0x160C JUMPI PUSH1 0x1 PUSH1 0x1 PUSH1 0xA0 SHL SUB DUP5 AND EXTCODESIZE ISZERO PUSH2 0x1608 JUMPI PUSH1 0x40 MLOAD PUSH4 0x23B872DD PUSH1 0xE0 SHL DUP2 MSTORE CALLER PUSH1 0x4 DUP3 ADD MSTORE ADDRESS PUSH1 0x24 DUP1 DUP4 ADD SWAP2 SWAP1 SWAP2 MSTORE CALLDATALOAD PUSH1 0x44 DUP3 ADD MSTORE DUP8 SWAP1 DUP2 DUP2 PUSH1 0x64 DUP2 DUP4 PUSH1 0x1 PUSH1 0x1 PUSH1 0xA0 SHL SUB DUP12 AND GAS CALL DUP1 ISZERO PUSH2 0x387 JUMPI PUSH2 0x15F4 JUMPI JUMPDEST POP POP PUSH1 0x40 MLOAD SWAP6 PUSH2 0xFA2 DUP8 PUSH2 0x3305 JUMP JUMPDEST DUP7 MSTORE PUSH1 0x20 DUP7 ADD MSTORE PUSH1 0x40 DUP6 ADD MSTORE ISZERO ISZERO PUSH1 0x60 DUP5 ADD MSTORE PUSH1 0x7 SLOAD SWAP3 PUSH2 0xFC2 DUP5 PUSH2 0x363C JUMP JUMPDEST PUSH1 0x7 SSTORE PUSH1 0x40 MLOAD SWAP2 PUSH2 0xFD2 DUP4 PUSH2 0x32D6 JUMP JUMPDEST DUP5 DUP4 MSTORE CALLER PUSH1 0x20 DUP5 ADD MSTORE PUSH1 0x40 DUP4 ADD DUP7 SWAP1 MSTORE PUSH1 0x1 PUSH1 0x1 PUSH1 0xA0 SHL SUB AND PUSH1 0x60 DUP4 ADD MSTORE PUSH1 0x24 CALLDATALOAD PUSH1 0x80 DUP4 ADD MSTORE PUSH1 0xA0 DUP3 ADD DUP6 SWAP1 MSTORE PUSH2 0x100A PUSH1 0x84 CALLDATALOAD PUSH2 0x3456 JUMP JUMPDEST PUSH1 0x84 CALLDATALOAD PUSH1 0xC0 DUP4 ADD MSTORE PUSH1 0x44 CALLDATALOAD PUSH1 0xE0 DUP4 ADD MSTORE PUSH2 0x1025 PUSH1 0x64 CALLDATALOAD PUSH2 0x3456 JUMP JUMPDEST PUSH1 0x64 CALLDATALOAD PUSH2 0x100 DUP4 ADD MSTORE DUP5 PUSH2 0x120 DUP4 ADD MSTORE DUP5 PUSH2 0x140 DUP4 ADD MSTORE TIMESTAMP PUSH2 0x160 DUP4 ADD MSTORE DUP5 PUSH2 0x180 DUP4 ADD MSTORE DUP5 PUSH2 0x1A0 DUP4 ADD MSTORE DUP5 PUSH2 0x1C0 DUP4 ADD MSTORE DUP5 PUSH2 0x1E0 DUP4 ADD MSTORE DUP5 PUSH2 0x200 DUP4 ADD MSTORE PUSH2 0x220 DUP3 ADD MSTORE DUP3 DUP5 MSTORE PUSH1 0x2 PUSH1 0x20 MSTORE PUSH1 0x40 DUP5 KECCAK256 SWAP1 DUP1 MLOAD DUP3 SSTORE PUSH1 0x1 DUP3 ADD PUSH1 0x1 DUP1 PUSH1 0xA0 SHL SUB PUSH1 0x20 DUP4 ADD MLOAD AND PUSH1 0x1 PUSH1 0x1 PUSH1 0x60 SHL SUB PUSH1 0xA0 SHL DUP3 SLOAD AND OR SWAP1 SSTORE PUSH1 0x2 DUP3 ADD PUSH1 0x1 DUP1 PUSH1 0xA0 SHL SUB PUSH1 0x40 DUP4 ADD MLOAD AND PUSH1 0x1 PUSH1 0x1 PUSH1 0x60 SHL SUB PUSH1 0xA0 SHL DUP3 SLOAD AND OR SWAP1 SSTORE PUSH1 0x3 DUP3 ADD PUSH1 0x1 DUP1 PUSH1 0xA0 SHL SUB PUSH1 0x60 DUP4 ADD MLOAD AND PUSH1 0x1 PUSH1 0x1 PUSH1 0x60 SHL SUB PUSH1 0xA0 SHL DUP3 SLOAD AND OR SWAP1 SSTORE PUSH1 0x80 DUP2 ADD MLOAD PUSH1 0x4 DUP4 ADD SSTORE PUSH1 0xA0 DUP2 ADD MLOAD PUSH1 0x5 DUP2 LT ISZERO PUSH2 0x41A JUMPI SWAP1 PUSH2 0x220 SWAP2 PUSH2 0x110E PUSH1 0x5 DUP6 ADD SWAP2 DUP3 PUSH2 0x366D JUMP JUMPDEST PUSH1 0xC0 DUP3 ADD MLOAD PUSH2 0x111C DUP2 PUSH2 0x3456 JUMP JUMPDEST PUSH2 0x1125 DUP2 PUSH2 0x3456 JUMP JUMPDEST PUSH2 0xFF00 DUP3 SLOAD SWAP2 PUSH1 0x8 SHL AND SWAP1 PUSH2 0xFF00 NOT AND OR SWAP1 SSTORE PUSH1 0xE0 DUP2 ADD MLOAD PUSH1 0x6 DUP5 ADD SSTORE PUSH2 0x100 DUP2 ADD MLOAD PUSH2 0x1151 DUP2 PUSH2 0x3456 JUMP JUMPDEST PUSH2 0x115A DUP2 PUSH2 0x3456 JUMP JUMPDEST PUSH1 0xFF DUP1 NOT PUSH1 0x7 DUP7 ADD SLOAD AND SWAP2 AND OR PUSH1 0x7 DUP5 ADD SSTORE PUSH2 0x120 DUP2 ADD MLOAD PUSH1 0x8 DUP5 ADD SSTORE PUSH1 0x9 DUP4 ADD PUSH1 0x1 DUP1 PUSH1 0xA0 SHL SUB PUSH2 0x140 DUP4 ADD MLOAD AND PUSH1 0x1 PUSH1 0x1 PUSH1 0x60 SHL SUB PUSH1 0xA0 SHL DUP3 SLOAD AND OR SWAP1 SSTORE PUSH2 0x160 DUP2 ADD MLOAD PUSH1 0xA DUP5 ADD SSTORE PUSH2 0x180 DUP2 ADD MLOAD PUSH1 0xB DUP5 ADD SSTORE PUSH2 0x1A0 DUP2 ADD MLOAD PUSH1 0xC DUP5 ADD SSTORE PUSH2 0x1C0 DUP2 ADD MLOAD PUSH1 0xD DUP5 ADD SSTORE PUSH2 0x1E0 DUP2 ADD MLOAD PUSH1 0xE DUP5 ADD SSTORE PUSH2 0x200 DUP2 ADD MLOAD PUSH1 0xF DUP5 ADD SSTORE ADD MLOAD SWAP1 DUP2 MLOAD DUP1 MLOAD SWAP1 PUSH1 0x1 PUSH1 0x1 PUSH1 0x40 SHL SUB DUP3 GT PUSH2 0x144A JUMPI DUP2 SWAP1 PUSH2 0x1201 PUSH1 0x10 DUP6 ADD SLOAD PUSH2 0x329C JUMP JUMPDEST PUSH1 0x1F DUP2 GT PUSH2 0x15A3 JUMPI JUMPDEST POP PUSH1 0x20 SWAP1 PUSH1 0x1F DUP4 GT PUSH1 0x1 EQ PUSH2 0x1534 JUMPI DUP9 SWAP3 PUSH2 0x1529 JUMPI JUMPDEST POP POP DUP2 PUSH1 0x1 SHL SWAP2 PUSH1 0x0 NOT SWAP1 PUSH1 0x3 SHL SHR NOT AND OR PUSH1 0x10 DUP3 ADD SSTORE JUMPDEST PUSH1 0x20 DUP3 ADD MLOAD DUP1 MLOAD SWAP1 PUSH1 0x1 PUSH1 0x1 PUSH1 0x40 SHL SUB DUP3 GT PUSH2 0x144A JUMPI DUP2 SWAP1 PUSH2 0x125D PUSH1 0x11 DUP6 ADD SLOAD PUSH2 0x329C JUMP JUMPDEST PUSH1 0x1F DUP2 GT PUSH2 0x14D8 JUMPI JUMPDEST POP PUSH1 0x20 SWAP1 PUSH1 0x1F DUP4 GT PUSH1 0x1 EQ PUSH2 0x1469 JUMPI DUP9 SWAP3 PUSH2 0x145E JUMPI JUMPDEST POP POP DUP2 PUSH1 0x1 SHL SWAP2 PUSH1 0x0 NOT SWAP1 PUSH1 0x3 SHL SHR NOT AND OR PUSH1 0x11 DUP3 ADD SSTORE JUMPDEST PUSH1 0x40 DUP3 ADD MLOAD DUP1 MLOAD SWAP1 PUSH1 0x1 PUSH1 0x1 PUSH1 0x40 SHL SUB DUP3 GT PUSH2 0x144A JUMPI PUSH2 0x12B7 PUSH1 0x12 DUP5 ADD SLOAD PUSH2 0x329C JUMP JUMPDEST PUSH1 0x1F DUP2 GT PUSH2 0x1405 JUMPI JUMPDEST POP PUSH1 0x20 SWAP1 PUSH1 0x1F DUP4 GT PUSH1 0x1 EQ PUSH2 0x1393 JUMPI SWAP2 DUP1 PUSH1 0x60 SWAP5 SWAP3 PUSH1 0x13 SWAP5 DUP11 SWAP3 PUSH2 0x1388 JUMPI JUMPDEST POP POP DUP2 PUSH1 0x1 SHL SWAP2 PUSH1 0x0 NOT SWAP1 PUSH1 0x3 SHL SHR NOT AND OR PUSH1 0x12 DUP3 ADD SSTORE JUMPDEST ADD SWAP2 ADD MLOAD ISZERO ISZERO PUSH1 0xFF DUP1 NOT DUP4 SLOAD AND SWAP2 AND OR SWAP1 SSTORE CALLER DUP4 MSTORE PUSH1 0x3 PUSH1 0x20 MSTORE PUSH2 0x131E DUP3 PUSH1 0x40 DUP6 KECCAK256 PUSH2 0x3685 JUMP JUMPDEST PUSH2 0x133B DUP4 DUP1 DUP1 DUP1 DUP6 PUSH1 0x1 DUP1 PUSH1 0xA0 SHL SUB PUSH1 0xA SLOAD AND GAS CALL PUSH2 0xADC PUSH2 0x36AD JUMP JUMPDEST DUP3 DUP2 CALLVALUE GT PUSH2 0x1371 JUMPI JUMPDEST CALLER DUP4 PUSH32 0xC3E0F84839DC888C892A013D10C8F9D6DC05A21A879D0CE468CA558013E9121C DUP4 DUP1 LOG3 PUSH1 0x1 DUP2 SSTORE DUP1 RETURN JUMPDEST DUP1 DUP1 DUP1 PUSH2 0x568 PUSH2 0x1381 SWAP6 CALLVALUE PUSH2 0x371F JUMP JUMPDEST CODESIZE DUP3 PUSH2 0x1344 JUMP JUMPDEST ADD MLOAD SWAP1 POP CODESIZE DUP1 PUSH2 0x12DF JUMP JUMPDEST SWAP1 PUSH1 0x12 DUP5 ADD DUP9 MSTORE PUSH1 0x20 DUP9 KECCAK256 SWAP2 DUP9 JUMPDEST PUSH1 0x1F NOT DUP6 AND DUP2 LT PUSH2 0x13ED JUMPI POP SWAP3 PUSH1 0x60 SWAP5 SWAP3 PUSH1 0x1 SWAP3 PUSH1 0x13 SWAP6 DUP4 PUSH1 0x1F NOT DUP2 AND LT PUSH2 0x13D4 JUMPI JUMPDEST POP POP POP DUP2 SHL ADD PUSH1 0x12 DUP3 ADD SSTORE PUSH2 0x12F7 JUMP JUMPDEST ADD MLOAD PUSH1 0x0 NOT PUSH1 0xF8 DUP5 PUSH1 0x3 SHL AND SHR NOT AND SWAP1 SSTORE CODESIZE DUP1 DUP1 PUSH2 0x13C4 JUMP JUMPDEST SWAP2 SWAP3 PUSH1 0x20 PUSH1 0x1 DUP2 SWAP3 DUP7 DUP6 ADD MLOAD DUP2 SSTORE ADD SWAP5 ADD SWAP3 ADD PUSH2 0x13A1 JUMP JUMPDEST PUSH1 0x12 DUP5 ADD DUP9 MSTORE PUSH1 0x20 DUP9 KECCAK256 PUSH1 0x1F DUP5 ADD PUSH1 0x5 SHR DUP2 ADD PUSH1 0x20 DUP6 LT PUSH2 0x1443 JUMPI JUMPDEST PUSH1 0x1F DUP4 ADD PUSH1 0x5 SHR DUP3 ADD DUP2 LT PUSH2 0x1437 JUMPI POP POP PUSH2 0x12C0 JUMP JUMPDEST PUSH1 0x0 DUP2 SSTORE PUSH1 0x1 ADD PUSH2 0x1421 JUMP JUMPDEST POP DUP1 PUSH2 0x1421 JUMP JUMPDEST PUSH4 0x4E487B71 PUSH1 0xE0 SHL DUP8 MSTORE PUSH1 0x41 PUSH1 0x4 MSTORE PUSH1 0x24 DUP8 REVERT JUMPDEST ADD MLOAD SWAP1 POP CODESIZE DUP1 PUSH2 0x127C JUMP JUMPDEST SWAP3 POP PUSH1 0x11 DUP5 ADD DUP9 MSTORE PUSH1 0x20 DUP9 KECCAK256 SWAP1 DUP9 SWAP4 JUMPDEST PUSH1 0x1F NOT DUP5 AND DUP6 LT PUSH2 0x14BD JUMPI PUSH1 0x1 SWAP5 POP DUP4 PUSH1 0x1F NOT DUP2 AND LT PUSH2 0x14A4 JUMPI JUMPDEST POP POP POP DUP2 SHL ADD PUSH1 0x11 DUP3 ADD SSTORE PUSH2 0x1294 JUMP JUMPDEST ADD MLOAD PUSH1 0x0 NOT PUSH1 0xF8 DUP5 PUSH1 0x3 SHL AND SHR NOT AND SWAP1 SSTORE CODESIZE DUP1 DUP1 PUSH2 0x1494 JUMP JUMPDEST DUP2 DUP2 ADD MLOAD DUP4 SSTORE PUSH1 0x20 SWAP5 DUP6 ADD SWAP5 PUSH1 0x1 SWAP1 SWAP4 ADD SWAP3 SWAP1 SWAP2 ADD SWAP1 PUSH2 0x1479 JUMP JUMPDEST SWAP1 SWAP2 POP PUSH1 0x11 DUP5 ADD DUP9 MSTORE PUSH1 0x20 DUP9 KECCAK256 PUSH1 0x1F DUP5 ADD PUSH1 0x5 SHR DUP2 ADD PUSH1 0x20 DUP6 LT PUSH2 0x1522 JUMPI JUMPDEST SWAP1 DUP5 SWAP4 SWAP3 SWAP2 JUMPDEST PUSH1 0x1F DUP4 ADD PUSH1 0x5 SHR DUP3 ADD DUP2 LT PUSH2 0x1513 JUMPI POP POP PUSH2 0x1266 JUMP JUMPDEST PUSH1 0x0 DUP2 SSTORE DUP6 SWAP5 POP PUSH1 0x1 ADD PUSH2 0x14FD JUMP JUMPDEST POP DUP1 PUSH2 0x14F7 JUMP JUMPDEST ADD MLOAD SWAP1 POP CODESIZE DUP1 PUSH2 0x1220 JUMP JUMPDEST SWAP3 POP PUSH1 0x10 DUP5 ADD DUP9 MSTORE PUSH1 0x20 DUP9 KECCAK256 SWAP1 DUP9 SWAP4 JUMPDEST PUSH1 0x1F NOT DUP5 AND DUP6 LT PUSH2 0x1588 JUMPI PUSH1 0x1 SWAP5 POP DUP4 PUSH1 0x1F NOT DUP2 AND LT PUSH2 0x156F JUMPI JUMPDEST POP POP POP DUP2 SHL ADD PUSH1 0x10 DUP3 ADD SSTORE PUSH2 0x1238 JUMP JUMPDEST ADD MLOAD PUSH1 0x0 NOT PUSH1 0xF8 DUP5 PUSH1 0x3 SHL AND SHR NOT AND SWAP1 SSTORE CODESIZE DUP1 DUP1 PUSH2 0x155F JUMP JUMPDEST DUP2 DUP2 ADD MLOAD DUP4 SSTORE PUSH1 0x20 SWAP5 DUP6 ADD SWAP5 PUSH1 0x1 SWAP1 SWAP4 ADD SWAP3 SWAP1 SWAP2 ADD SWAP1 PUSH2 0x1544 JUMP JUMPDEST SWAP1 SWAP2 POP PUSH1 0x10 DUP5 ADD DUP9 MSTORE PUSH1 0x20 DUP9 KECCAK256 PUSH1 0x1F DUP5 ADD PUSH1 0x5 SHR DUP2 ADD PUSH1 0x20 DUP6 LT PUSH2 0x15ED JUMPI JUMPDEST SWAP1 DUP5 SWAP4 SWAP3 SWAP2 JUMPDEST PUSH1 0x1F DUP4 ADD PUSH1 0x5 SHR DUP3 ADD DUP2 LT PUSH2 0x15DE JUMPI POP POP PUSH2 0x120A JUMP JUMPDEST PUSH1 0x0 DUP2 SSTORE DUP6 SWAP5 POP PUSH1 0x1 ADD PUSH2 0x15C8 JUMP JUMPDEST POP DUP1 PUSH2 0x15C2 JUMP JUMPDEST PUSH2 0x15FD SWAP1 PUSH2 0x32F2 JUMP JUMPDEST PUSH2 0x1608 JUMPI DUP7 CODESIZE PUSH2 0xF93 JUMP JUMPDEST DUP7 DUP1 REVERT JUMPDEST PUSH1 0x40 MLOAD PUSH3 0x461BCD PUSH1 0xE5 SHL DUP2 MSTORE PUSH1 0x20 PUSH1 0x4 DUP3 ADD MSTORE PUSH1 0x18 PUSH1 0x24 DUP3 ADD MSTORE PUSH32 0x496E73756666696369656E74206C697374696E67206665650000000000000000 PUSH1 0x44 DUP3 ADD MSTORE PUSH1 0x64 SWAP1 REVERT JUMPDEST POP CALLVALUE PUSH2 0x27A JUMPI DUP1 PUSH1 0x3 NOT CALLDATASIZE ADD SLT PUSH2 0x27A JUMPI PUSH1 0x20 PUSH1 0x40 MLOAD PUSH2 0x2710 DUP2 MSTORE RETURN JUMPDEST POP PUSH1 0x20 CALLDATASIZE PUSH1 0x3 NOT ADD SLT PUSH2 0x27A JUMPI PUSH1 0x4 CALLDATALOAD PUSH2 0x1686 PUSH2 0x37AF JUMP JUMPDEST DUP1 DUP3 MSTORE PUSH1 0x2 PUSH1 0x20 MSTORE PUSH1 0x40 DUP3 KECCAK256 SWAP1 PUSH1 0x5 DUP3 ADD DUP1 SLOAD PUSH1 0xFF DUP2 AND PUSH1 0x5 DUP2 LT ISZERO PUSH2 0x41A JUMPI PUSH2 0x16B0 SWAP1 ISZERO PUSH2 0x3AA1 JUMP JUMPDEST PUSH1 0x2 DUP5 ADD SLOAD PUSH1 0x1 PUSH1 0x1 PUSH1 0xA0 SHL SUB SWAP1 DUP2 AND CALLER SUB PUSH2 0x1781 JUMPI DUP6 DUP1 DUP1 SWAP4 DUP2 SWAP4 PUSH1 0x6 DUP10 ADD SLOAD PUSH2 0x16DA SWAP1 PUSH2 0x394F JUMP JUMPDEST SWAP7 PUSH1 0x9 SLOAD PUSH2 0x16E8 SWAP1 DUP10 PUSH2 0x3889 JUMP JUMPDEST PUSH2 0x2710 SWAP1 DIV SWAP3 PUSH2 0x16F8 DUP5 DUP11 PUSH2 0x371F JUMP JUMPDEST DUP1 SWAP12 DUP11 CALLVALUE LT ISZERO PUSH2 0x1707 SWAP1 PUSH2 0x389C JUMP JUMPDEST PUSH1 0x8 ADD SSTORE PUSH1 0xFF NOT AND PUSH1 0x1 OR SWAP1 SSTORE PUSH1 0xA SLOAD AND GAS CALL PUSH2 0x1722 PUSH2 0x36AD JUMP JUMPDEST POP PUSH2 0x172C SWAP1 PUSH2 0x38DF JUMP JUMPDEST DUP4 DUP2 CALLVALUE GT PUSH2 0x176A JUMPI JUMPDEST POP POP PUSH1 0x40 MLOAD SWAP2 DUP3 MSTORE PUSH32 0xA6795DC81355B15D42BC7DE3FB8A255E7E88A4697260822E1F4C5B07B0036907 PUSH1 0x20 CALLER SWAP4 LOG3 PUSH1 0x1 DUP2 SSTORE DUP1 RETURN JUMPDEST DUP1 DUP1 DUP1 PUSH2 0x568 PUSH2 0x177A SWAP6 CALLVALUE PUSH2 0x371F JUMP JUMPDEST CODESIZE DUP4 PUSH2 0x1735 JUMP JUMPDEST PUSH1 0x40 MLOAD PUSH3 0x461BCD PUSH1 0xE5 SHL DUP2 MSTORE PUSH1 0x20 PUSH1 0x4 DUP3 ADD MSTORE PUSH1 0x1E PUSH1 0x24 DUP3 ADD MSTORE PUSH32 0x4F6E6C79206A6F696E65722063616E206465706F7369742063727970746F0000 PUSH1 0x44 DUP3 ADD MSTORE PUSH1 0x64 SWAP1 REVERT JUMPDEST POP CALLVALUE PUSH2 0x27A JUMPI PUSH1 0x60 CALLDATASIZE PUSH1 0x3 NOT ADD SLT PUSH2 0x27A JUMPI PUSH1 0x1 PUSH1 0x1 PUSH1 0x40 SHL SUB PUSH1 0x4 CALLDATALOAD DUP2 DUP2 GT PUSH2 0x392 JUMPI PUSH2 0x17F8 SWAP1 CALLDATASIZE SWAP1 PUSH1 0x4 ADD PUSH2 0x34FF JUMP JUMPDEST SWAP1 SWAP2 PUSH1 0x24 SWAP1 DUP2 CALLDATALOAD DUP2 DUP2 GT PUSH2 0xE6A JUMPI PUSH2 0x1814 SWAP1 CALLDATASIZE SWAP1 PUSH1 0x4 ADD PUSH2 0x34FF JUMP JUMPDEST SWAP2 PUSH1 0x44 CALLDATALOAD SWAP1 DUP2 GT PUSH2 0x1608 JUMPI PUSH2 0x182D SWAP1 CALLDATASIZE SWAP1 PUSH1 0x4 ADD PUSH2 0x34FF JUMP JUMPDEST SWAP3 PUSH2 0x1836 PUSH2 0x35A1 JUMP JUMPDEST DUP1 DUP7 EQ DUP1 PUSH2 0x1ADB JUMPI JUMPDEST ISZERO PUSH2 0x1A97 JUMPI SWAP3 DUP7 SWAP3 DUP9 SWAP7 SWAP3 DUP8 SWAP6 JUMPDEST DUP5 DUP8 LT PUSH2 0x1858 JUMPI DUP9 DUP1 RETURN JUMPDEST SWAP7 SWAP8 PUSH1 0x1 PUSH1 0x1 PUSH1 0xA0 SHL SUB SWAP8 SWAP1 SWAP7 PUSH2 0x1884 DUP10 PUSH2 0x187C PUSH2 0x1877 DUP5 DUP11 DUP13 PUSH2 0x3A5E JUMP JUMPDEST PUSH2 0x3A6E JUMP JUMPDEST AND ISZERO ISZERO PUSH2 0x35F9 JUMP JUMPDEST DUP9 PUSH2 0x1893 PUSH2 0x1877 DUP4 DUP9 DUP8 PUSH2 0x3A5E JUMP JUMPDEST AND ISZERO PUSH2 0x1A5F JUMPI DUP9 PUSH2 0x18A5 DUP3 DUP9 DUP11 PUSH2 0x3A5E JUMP JUMPDEST PUSH2 0x18AE SWAP1 PUSH2 0x3A6E JUMP JUMPDEST AND SWAP9 PUSH2 0x18BB DUP3 DUP5 DUP8 PUSH2 0x3A5E JUMP JUMPDEST PUSH1 0x40 MLOAD PUSH4 0x31A9108F PUSH1 0xE1 SHL DUP2 MSTORE SWAP1 CALLDATALOAD PUSH1 0x4 DUP3 ADD MSTORE PUSH1 0x20 PUSH2 0x200 SWAP1 DUP2 MSTORE SWAP11 DUP2 DUP14 DUP2 GAS SWAP4 PUSH1 0x20 SWAP5 STATICCALL DUP11 SWAP2 DUP2 PUSH2 0x1A2F JUMPI JUMPDEST POP PUSH2 0x1932 JUMPI PUSH1 0x40 MLOAD PUSH3 0x461BCD PUSH1 0xE5 SHL DUP2 MSTORE DUP12 MLOAD PUSH1 0x4 DUP3 ADD MSTORE PUSH1 0x1D DUP2 DUP15 ADD MSTORE PUSH32 0x4661696C656420746F20636865636B204E4654206F776E657273686970000000 PUSH1 0x44 DUP3 ADD MSTORE PUSH1 0x64 SWAP1 REVERT JUMPDEST DUP2 SWAP3 SWAP4 SWAP5 SWAP6 SWAP7 SWAP8 SWAP10 SWAP12 SWAP9 SWAP11 SWAP2 ADDRESS SWAP2 AND SUB PUSH2 0x19EB JUMPI POP DUP10 SWAP1 PUSH2 0x1957 PUSH2 0x1877 DUP5 DUP12 DUP14 PUSH2 0x3A5E JUMP JUMPDEST AND PUSH2 0x1966 PUSH2 0x1877 DUP5 DUP10 DUP9 PUSH2 0x3A5E JUMP JUMPDEST PUSH2 0x1971 DUP5 DUP7 DUP10 PUSH2 0x3A5E JUMP JUMPDEST CALLDATALOAD DUP3 EXTCODESIZE ISZERO PUSH2 0xE72 JUMPI PUSH1 0x40 MLOAD PUSH4 0x23B872DD PUSH1 0xE0 SHL DUP2 MSTORE ADDRESS PUSH1 0x4 DUP3 ADD MSTORE PUSH1 0x1 PUSH1 0x1 PUSH1 0xA0 SHL SUB SWAP3 SWAP1 SWAP3 AND PUSH1 0x24 DUP4 ADD MSTORE PUSH1 0x44 DUP3 ADD MSTORE SWAP1 DUP3 SWAP1 DUP3 SWAP1 PUSH1 0x64 SWAP1 DUP3 SWAP1 DUP5 SWAP1 GAS CALL DUP1 ISZERO PUSH2 0x387 JUMPI PUSH2 0x19D3 JUMPI JUMPDEST POP POP PUSH2 0x19C6 SWAP1 PUSH2 0x363C JUMP JUMPDEST SWAP6 SWAP4 SWAP3 SWAP2 SWAP1 SWAP7 SWAP5 SWAP7 PUSH2 0x184D JUMP JUMPDEST PUSH2 0x19DC SWAP1 PUSH2 0x32F2 JUMP JUMPDEST PUSH2 0x19E7 JUMPI DUP9 DUP11 PUSH2 0x19BB JUMP JUMPDEST DUP9 DUP1 REVERT JUMPDEST PUSH1 0x40 MLOAD PUSH3 0x461BCD PUSH1 0xE5 SHL DUP2 MSTORE SWAP1 MLOAD PUSH1 0x4 DUP3 ADD MSTORE PUSH1 0x1E DUP2 DUP10 ADD MSTORE PUSH32 0x436F6E747261637420646F6573206E6F74206F776E2074686973204E46540000 PUSH1 0x44 DUP3 ADD MSTORE PUSH1 0x64 SWAP1 REVERT JUMPDEST PUSH2 0x1A51 SWAP2 SWAP3 POP DUP13 MLOAD RETURNDATASIZE DUP2 GT PUSH2 0x1A58 JUMPI JUMPDEST PUSH2 0x1A49 DUP2 DUP4 PUSH2 0x3320 JUMP JUMPDEST DUP2 ADD SWAP1 PUSH2 0x3A82 JUMP JUMPDEST SWAP1 DUP14 PUSH2 0x18E9 JUMP JUMPDEST POP RETURNDATASIZE PUSH2 0x1A3F JUMP JUMPDEST PUSH1 0x40 MLOAD PUSH3 0x461BCD PUSH1 0xE5 SHL DUP2 MSTORE PUSH1 0x20 PUSH1 0x4 DUP3 ADD MSTORE PUSH1 0x11 DUP2 DUP13 ADD MSTORE PUSH17 0x125B9D985B1A59081C9958DA5C1A595B9D PUSH1 0x7A SHL PUSH1 0x44 DUP3 ADD MSTORE PUSH1 0x64 SWAP1 REVERT JUMPDEST PUSH1 0x40 MLOAD PUSH3 0x461BCD PUSH1 0xE5 SHL DUP2 MSTORE PUSH1 0x20 PUSH1 0x4 DUP3 ADD MSTORE PUSH1 0x18 DUP2 DUP8 ADD MSTORE PUSH32 0x4172726179206C656E67746873206D757374206D617463680000000000000000 PUSH1 0x44 DUP3 ADD MSTORE PUSH1 0x64 SWAP1 REVERT JUMPDEST POP DUP4 DUP2 EQ PUSH2 0x183F JUMP JUMPDEST POP CALLVALUE PUSH2 0x27A JUMPI DUP1 PUSH1 0x3 NOT CALLDATASIZE ADD SLT PUSH2 0x27A JUMPI PUSH2 0x1AFD PUSH2 0x37AF JUMP JUMPDEST CALLER DUP2 MSTORE PUSH1 0x20 PUSH1 0x4 DUP2 MSTORE PUSH1 0x40 DUP3 KECCAK256 SLOAD SWAP1 PUSH1 0x5 DUP2 MSTORE PUSH1 0x40 DUP4 KECCAK256 SLOAD SWAP1 PUSH1 0x4 DUP2 MSTORE DUP4 PUSH1 0x40 DUP2 KECCAK256 SSTORE PUSH1 0x5 DUP2 MSTORE DUP4 PUSH1 0x40 DUP2 KECCAK256 SSTORE DUP3 PUSH2 0x1C36 JUMPI JUMPDEST DUP2 PUSH2 0x1BB3 JUMPI JUMPDEST PUSH1 0x40 MLOAD PUSH2 0x160 DUP2 ADD SWAP1 DUP1 DUP3 LT PUSH1 0x1 PUSH1 0x1 PUSH1 0x40 SHL SUB DUP4 GT OR PUSH2 0x1B9D JUMPI PUSH2 0x140 SWAP2 PUSH1 0x40 MSTORE PUSH1 0xA DUP2 MSTORE DUP3 CALLDATASIZE SWAP2 ADD CALLDATACOPY PUSH1 0x40 MLOAD SWAP3 DUP4 MSTORE DUP3 ADD MSTORE DUP2 PUSH1 0x40 DUP3 ADD MSTORE PUSH32 0x4F3D7A53F1FD3AB32E84FAFD251BC5C1EC2C516068909F68847AD29C366D134C PUSH1 0x60 CALLER SWAP3 LOG2 PUSH1 0x1 DUP2 SSTORE DUP1 RETURN JUMPDEST PUSH4 0x4E487B71 PUSH1 0xE0 SHL PUSH1 0x0 MSTORE PUSH1 0x41 PUSH1 0x4 MSTORE PUSH1 0x24 PUSH1 0x0 REVERT JUMPDEST PUSH1 0xC SLOAD PUSH1 0x40 MLOAD PUSH4 0xA9059CBB PUSH1 0xE0 SHL DUP2 MSTORE CALLER PUSH1 0x4 DUP3 ADD MSTORE PUSH1 0x24 DUP2 ADD DUP5 SWAP1 MSTORE SWAP1 DUP3 SWAP1 DUP3 SWAP1 PUSH1 0x44 SWAP1 DUP3 SWAP1 DUP10 SWAP1 PUSH1 0x1 PUSH1 0x1 PUSH1 0xA0 SHL SUB AND GAS CALL DUP1 ISZERO PUSH2 0x1C2B JUMPI PUSH2 0x1BF8 JUMPI JUMPDEST POP PUSH2 0x1B36 JUMP JUMPDEST DUP2 DUP2 DUP2 RETURNDATASIZE DUP4 GT PUSH2 0x1C24 JUMPI JUMPDEST PUSH2 0x1C0D DUP2 DUP4 PUSH2 0x3320 JUMP JUMPDEST DUP2 ADD SUB SLT PUSH2 0xE6E JUMPI MLOAD DUP1 ISZERO ISZERO SUB PUSH2 0xE72 JUMPI CODESIZE PUSH2 0x1BF2 JUMP JUMPDEST POP RETURNDATASIZE PUSH2 0x1C03 JUMP JUMPDEST PUSH1 0x40 MLOAD RETURNDATASIZE DUP8 DUP3 RETURNDATACOPY RETURNDATASIZE SWAP1 REVERT JUMPDEST DUP4 DUP1 DUP1 DUP1 DUP7 CALLER GAS CALL PUSH2 0x1C46 PUSH2 0x36AD JUMP JUMPDEST POP PUSH2 0x1B30 JUMPI PUSH1 0x64 SWAP1 PUSH1 0x40 MLOAD SWAP1 PUSH3 0x461BCD PUSH1 0xE5 SHL DUP3 MSTORE PUSH1 0x4 DUP3 ADD MSTORE PUSH1 0x13 PUSH1 0x24 DUP3 ADD MSTORE PUSH19 0x115512081D1C985B9CD9995C8819985A5B1959 PUSH1 0x6A SHL PUSH1 0x44 DUP3 ADD MSTORE REVERT JUMPDEST POP CALLVALUE PUSH2 0x27A JUMPI PUSH1 0x40 CALLDATASIZE PUSH1 0x3 NOT ADD SLT PUSH2 0x27A JUMPI PUSH2 0x1C9F PUSH2 0x34A0 JUMP JUMPDEST PUSH1 0x1 PUSH1 0x1 PUSH1 0xA0 SHL SUB AND DUP2 MSTORE PUSH1 0x3 PUSH1 0x20 MSTORE PUSH1 0x40 DUP2 KECCAK256 DUP1 SLOAD PUSH1 0x24 CALLDATALOAD SWAP3 SWAP1 DUP4 LT ISZERO PUSH2 0x27A JUMPI PUSH1 0x20 PUSH2 0x1CCD DUP5 DUP5 PUSH2 0x34D1 JUMP JUMPDEST SWAP1 SLOAD SWAP1 PUSH1 0x3 SHL SHR PUSH1 0x40 MLOAD SWAP1 DUP2 MSTORE RETURN JUMPDEST POP CALLVALUE PUSH2 0x27A JUMPI PUSH1 0x20 CALLDATASIZE PUSH1 0x3 NOT ADD SLT PUSH2 0x27A JUMPI PUSH1 0x40 PUSH1 0x80 SWAP2 PUSH1 0x4 CALLDATALOAD DUP2 MSTORE PUSH1 0x2 PUSH1 0x20 MSTORE KECCAK256 PUSH1 0x40 MLOAD PUSH2 0x1D0A DUP2 PUSH2 0x32D6 JUMP JUMPDEST DUP2 SLOAD DUP2 MSTORE PUSH1 0x1 DUP3 ADD SLOAD PUSH1 0x1 PUSH1 0x1 PUSH1 0xA0 SHL SUB SWAP1 DUP2 AND PUSH1 0x20 DUP4 ADD MSTORE PUSH1 0x2 DUP4 ADD SLOAD DUP2 AND PUSH1 0x40 DUP4 ADD MSTORE PUSH1 0x3 DUP4 ADD SLOAD DUP2 AND PUSH1 0x60 DUP4 ADD MSTORE PUSH1 0x4 DUP4 ADD SLOAD DUP5 DUP4 ADD MSTORE PUSH1 0x5 DUP4 ADD SLOAD PUSH1 0xFF SWAP1 PUSH2 0x1D5B DUP2 DUP4 AND PUSH1 0xA0 DUP7 ADD PUSH2 0x3661 JUMP JUMPDEST PUSH1 0x8 SHR AND PUSH2 0x1D68 DUP2 PUSH2 0x3456 JUMP JUMPDEST PUSH1 0xC0 DUP4 ADD MSTORE PUSH1 0x6 DUP4 ADD SLOAD PUSH1 0xE0 DUP4 ADD MSTORE PUSH1 0xFF PUSH1 0x7 DUP5 ADD SLOAD AND PUSH2 0x1D88 DUP2 PUSH2 0x3456 JUMP JUMPDEST PUSH2 0x100 DUP4 ADD MSTORE PUSH1 0x8 DUP4 ADD SLOAD PUSH2 0x120 DUP4 ADD MSTORE PUSH1 0x9 DUP4 ADD SLOAD AND PUSH2 0x140 DUP3 ADD MSTORE PUSH1 0xA DUP3 ADD SLOAD PUSH2 0x160 DUP3 ADD MSTORE PUSH1 0xB DUP3 ADD SLOAD SWAP2 PUSH2 0x180 DUP3 ADD SWAP3 DUP4 MSTORE PUSH1 0xC DUP2 ADD SLOAD SWAP3 PUSH2 0x1A0 DUP4 ADD SWAP4 DUP5 MSTORE PUSH1 0xD DUP3 ADD SLOAD SWAP3 PUSH2 0x1C0 DUP2 ADD SWAP4 DUP5 MSTORE PUSH2 0x220 PUSH2 0x1E01 PUSH1 0x10 PUSH1 0xE DUP7 ADD SLOAD SWAP6 PUSH2 0x1E0 DUP6 ADD SWAP7 DUP8 MSTORE PUSH1 0xF DUP2 ADD SLOAD PUSH2 0x200 DUP7 ADD MSTORE ADD PUSH2 0x33E7 JUMP JUMPDEST SWAP2 ADD MSTORE MLOAD SWAP3 MLOAD SWAP2 MLOAD SWAP1 MLOAD SWAP2 PUSH1 0x40 MLOAD SWAP4 DUP5 MSTORE PUSH1 0x20 DUP5 ADD MSTORE PUSH1 0x40 DUP4 ADD MSTORE PUSH1 0x60 DUP3 ADD MSTORE RETURN JUMPDEST POP CALLVALUE PUSH2 0x27A JUMPI DUP1 PUSH1 0x3 NOT CALLDATASIZE ADD SLT PUSH2 0x27A JUMPI PUSH1 0x20 PUSH1 0x7 SLOAD PUSH1 0x40 MLOAD SWAP1 DUP2 MSTORE RETURN JUMPDEST POP CALLVALUE PUSH2 0x27A JUMPI PUSH1 0x60 CALLDATASIZE PUSH1 0x3 NOT ADD SLT PUSH2 0x27A JUMPI PUSH2 0x1E5B PUSH2 0x34A0 JUMP JUMPDEST SWAP1 PUSH2 0x1E64 PUSH2 0x34BB JUMP JUMPDEST PUSH1 0x44 CALLDATALOAD SWAP3 PUSH1 0x1 DUP1 PUSH1 0xA0 SHL SUB DUP1 SWAP2 AND DUP4 MSTORE PUSH1 0x6 PUSH1 0x20 MSTORE PUSH1 0x40 DUP4 KECCAK256 SWAP2 AND PUSH1 0x0 MSTORE PUSH1 0x20 MSTORE PUSH1 0x40 PUSH1 0x0 KECCAK256 SWAP1 DUP2 SLOAD DUP4 LT ISZERO PUSH2 0x27A JUMPI PUSH1 0x20 PUSH2 0x1EA0 DUP5 DUP5 PUSH2 0x34D1 JUMP JUMPDEST SWAP1 SLOAD PUSH1 0x40 MLOAD SWAP2 PUSH1 0x3 SHL SHR DUP2 MSTORE RETURN JUMPDEST POP CALLVALUE PUSH2 0x27A JUMPI PUSH1 0x20 CALLDATASIZE PUSH1 0x3 NOT ADD SLT PUSH2 0x27A JUMPI PUSH1 0x20 SWAP1 PUSH1 0x40 SWAP1 PUSH1 0x1 PUSH1 0x1 PUSH1 0xA0 SHL SUB PUSH2 0x1ED6 PUSH2 0x34A0 JUMP JUMPDEST AND DUP2 MSTORE PUSH1 0x5 DUP4 MSTORE KECCAK256 SLOAD PUSH1 0x40 MLOAD SWAP1 DUP2 MSTORE RETURN JUMPDEST POP CALLVALUE PUSH2 0x27A JUMPI DUP1 PUSH1 0x3 NOT CALLDATASIZE ADD SLT PUSH2 0x27A JUMPI PUSH1 0x1 SLOAD PUSH1 0x40 MLOAD PUSH1 0x1 PUSH1 0x1 PUSH1 0xA0 SHL SUB SWAP1 SWAP2 AND DUP2 MSTORE PUSH1 0x20 SWAP1 RETURN JUMPDEST POP CALLVALUE PUSH2 0x27A JUMPI DUP1 PUSH1 0x3 NOT CALLDATASIZE ADD SLT PUSH2 0x27A JUMPI PUSH1 0x20 PUSH1 0x9 SLOAD PUSH1 0x40 MLOAD SWAP1 DUP2 MSTORE RETURN JUMPDEST POP CALLVALUE PUSH2 0x27A JUMPI DUP1 PUSH1 0x3 NOT CALLDATASIZE ADD SLT PUSH2 0x27A JUMPI PUSH2 0x1F47 PUSH2 0x35A1 JUMP JUMPDEST DUP1 DUP1 DUP1 DUP1 PUSH1 0x1 DUP1 PUSH1 0xA0 SHL SUB PUSH1 0x1 SLOAD AND SELFBALANCE SWAP1 GAS CALL PUSH2 0x1F62 PUSH2 0x36AD JUMP JUMPDEST POP ISZERO PUSH2 0x1F6B JUMPI DUP1 RETURN JUMPDEST PUSH1 0x40 MLOAD PUSH3 0x461BCD PUSH1 0xE5 SHL DUP2 MSTORE PUSH1 0x20 PUSH1 0x4 DUP3 ADD MSTORE PUSH1 0xF PUSH1 0x24 DUP3 ADD MSTORE PUSH15 0x151C985B9CD9995C8819985A5B1959 PUSH1 0x8A SHL PUSH1 0x44 DUP3 ADD MSTORE PUSH1 0x64 SWAP1 REVERT JUMPDEST POP CALLVALUE PUSH2 0x27A JUMPI DUP1 PUSH1 0x3 NOT CALLDATASIZE ADD SLT PUSH2 0x27A JUMPI PUSH1 0xB SLOAD PUSH1 0x40 MLOAD PUSH1 0x1 PUSH1 0x1 PUSH1 0xA0 SHL SUB SWAP1 SWAP2 AND DUP2 MSTORE PUSH1 0x20 SWAP1 RETURN JUMPDEST POP CALLVALUE PUSH2 0x27A JUMPI DUP1 PUSH1 0x3 NOT CALLDATASIZE ADD SLT PUSH2 0x27A JUMPI PUSH2 0x1FE4 PUSH2 0x35A1 JUMP JUMPDEST PUSH1 0x1 DUP1 SLOAD PUSH1 0x1 PUSH1 0x1 PUSH1 0xA0 SHL SUB NOT DUP2 AND SWAP1 SWAP2 SSTORE PUSH1 0x0 SWAP1 PUSH1 0x1 PUSH1 0x1 PUSH1 0xA0 SHL SUB AND PUSH32 0x8BE0079C531659141344CD1FD0A4F28419497F9722A3DAAFE3B4186F6B6457E0 DUP3 DUP1 LOG3 DUP1 RETURN JUMPDEST POP CALLVALUE PUSH2 0x27A JUMPI PUSH1 0x20 SWAP1 DUP2 PUSH1 0x3 NOT CALLDATASIZE ADD SLT PUSH2 0x27A JUMPI PUSH1 0x4 CALLDATALOAD PUSH2 0x2048 PUSH2 0x37AF JUMP JUMPDEST DUP1 DUP3 MSTORE PUSH1 0x2 DUP4 MSTORE PUSH1 0x40 DUP3 KECCAK256 PUSH1 0x1 DUP2 ADD SLOAD PUSH1 0x1 PUSH1 0x1 PUSH1 0xA0 SHL SUB SWAP1 DUP2 AND SWAP5 CALLER DUP7 SWAP1 SUB PUSH2 0x213D JUMPI PUSH1 0x5 DUP4 ADD SWAP6 DUP7 SLOAD SWAP7 PUSH1 0xFF DUP9 AND PUSH1 0x5 DUP2 LT ISZERO PUSH2 0x2129 JUMPI PUSH2 0x20E4 JUMPI PUSH1 0x4 PUSH2 0x20B9 SWAP7 SWAP8 SWAP9 PUSH1 0xFF NOT AND OR SWAP1 SSTORE DUP7 MSTORE PUSH1 0x6 DUP2 MSTORE PUSH1 0x40 DUP7 KECCAK256 SWAP2 PUSH1 0x3 DUP5 ADD SLOAD AND PUSH1 0x0 MSTORE MSTORE PUSH1 0x4 PUSH1 0x40 PUSH1 0x0 KECCAK256 SWAP2 ADD SLOAD SWAP1 PUSH2 0x3685 JUMP JUMPDEST PUSH32 0x681705FDBD93DBA3B679FD712577E9A86D57C5551C520F8C74857DEB57F9623F DUP3 DUP1 LOG2 PUSH1 0x1 DUP2 SSTORE DUP1 RETURN JUMPDEST PUSH1 0x40 MLOAD PUSH3 0x461BCD PUSH1 0xE5 SHL DUP2 MSTORE PUSH1 0x4 DUP2 ADD DUP5 SWAP1 MSTORE PUSH1 0x1E PUSH1 0x24 DUP3 ADD MSTORE PUSH32 0x43616E206F6E6C792063616E63656C20756E6A6F696E65642067616D65730000 PUSH1 0x44 DUP3 ADD MSTORE PUSH1 0x64 SWAP1 REVERT JUMPDEST PUSH4 0x4E487B71 PUSH1 0xE0 SHL DUP9 MSTORE PUSH1 0x21 PUSH1 0x4 MSTORE PUSH1 0x24 DUP9 REVERT JUMPDEST PUSH1 0x64 SWAP1 PUSH1 0x40 MLOAD SWAP1 PUSH3 0x461BCD PUSH1 0xE5 SHL DUP3 MSTORE PUSH1 0x4 DUP3 ADD MSTORE PUSH1 0x17 PUSH1 0x24 DUP3 ADD MSTORE PUSH32 0x4F6E6C792063726561746F722063616E2063616E63656C000000000000000000 PUSH1 0x44 DUP3 ADD MSTORE REVERT JUMPDEST POP PUSH1 0x40 CALLDATASIZE PUSH1 0x3 NOT ADD SLT PUSH2 0x27A JUMPI PUSH1 0x4 CALLDATALOAD PUSH2 0x2199 PUSH2 0x37AF JUMP JUMPDEST PUSH2 0x21A1 PUSH2 0x3768 JUMP JUMPDEST DUP1 DUP3 MSTORE PUSH1 0x2 PUSH1 0x20 MSTORE PUSH1 0x40 DUP3 KECCAK256 PUSH1 0x5 DUP2 ADD SWAP1 DUP2 SLOAD SWAP2 PUSH1 0xFF DUP4 AND PUSH1 0x5 DUP2 LT ISZERO PUSH2 0x41A JUMPI DUP6 DUP1 PUSH2 0x522 SWAP5 DUP2 SWAP5 PUSH2 0x21D5 DUP4 SWAP6 ISZERO PUSH2 0x3805 JUMP JUMPDEST PUSH1 0x1 DUP3 ADD SLOAD PUSH1 0x1 PUSH1 0x1 PUSH1 0xA0 SHL SUB SWAP2 SWAP1 PUSH2 0x21F2 SWAP1 DUP4 AND CALLER EQ ISZERO PUSH2 0x3846 JUMP JUMPDEST PUSH1 0x1 PUSH2 0x4AE PUSH1 0x24 CALLDATALOAD PUSH2 0x394F JUMP JUMPDEST POP CALLVALUE PUSH2 0x27A JUMPI PUSH1 0x20 DUP1 PUSH1 0x3 NOT CALLDATASIZE ADD SLT PUSH2 0x383 JUMPI PUSH1 0x4 CALLDATALOAD SWAP1 PUSH2 0x221E PUSH2 0x37AF JUMP JUMPDEST DUP2 DUP4 MSTORE PUSH1 0x2 DUP2 MSTORE PUSH1 0x40 DUP4 KECCAK256 PUSH1 0x1 DUP2 ADD SLOAD SWAP1 SWAP2 PUSH1 0x1 PUSH1 0x1 PUSH1 0xA0 SHL SUB SWAP2 DUP3 AND CALLER DUP2 EQ DUP1 ISZERO PUSH2 0x2455 JUMPI JUMPDEST ISZERO PUSH2 0x241C JUMPI PUSH1 0x5 DUP5 ADD DUP1 SLOAD PUSH1 0xFF DUP2 AND PUSH1 0x5 DUP2 LT ISZERO PUSH2 0xDF3 JUMPI DUP1 ISZERO SWAP1 DUP2 ISZERO PUSH2 0x2411 JUMPI JUMPDEST POP ISZERO PUSH2 0x23CC JUMPI SWAP1 PUSH1 0x4 DUP9 SWAP6 SWAP5 SWAP4 SWAP3 PUSH1 0xFF NOT AND OR SWAP1 SSTORE DUP3 PUSH1 0x3 DUP7 ADD SLOAD AND SWAP2 PUSH1 0x4 DUP7 ADD SLOAD SWAP1 PUSH1 0x40 MLOAD PUSH4 0x31A9108F PUSH1 0xE1 SHL DUP2 MSTORE DUP3 PUSH1 0x4 DUP3 ADD MSTORE DUP2 DUP2 PUSH1 0x24 DUP2 DUP9 GAS STATICCALL SWAP2 DUP3 ISZERO PUSH2 0x23C1 JUMPI DUP8 SWAP3 PUSH2 0x23A4 JUMPI JUMPDEST POP POP DUP5 AND ADDRESS EQ PUSH2 0x2333 JUMPI JUMPDEST POP POP POP PUSH1 0x8 DUP4 ADD SLOAD SWAP1 DUP2 ISZERO ISZERO DUP1 PUSH2 0x2324 JUMPI JUMPDEST PUSH2 0x2303 JUMPI JUMPDEST DUP3 CALLER DUP7 PUSH32 0x49D7C8709A4C20D005B1C37E3F302AE91287B77DE799510E227932E05EE770C8 DUP4 DUP1 LOG3 PUSH1 0x1 DUP2 SSTORE DUP1 RETURN JUMPDEST DUP3 DUP1 SWAP3 DUP2 SWAP3 PUSH1 0x2 PUSH2 0x231B SWAP8 ADD SLOAD AND GAS CALL PUSH2 0x573 PUSH2 0x36AD JUMP JUMPDEST CODESIZE DUP3 DUP2 DUP1 PUSH2 0x22D5 JUMP JUMPDEST POP DUP1 PUSH1 0x2 DUP6 ADD SLOAD AND ISZERO ISZERO PUSH2 0x22D0 JUMP JUMPDEST DUP3 EXTCODESIZE ISZERO PUSH2 0xE6E JUMPI PUSH1 0x40 MLOAD PUSH4 0x23B872DD PUSH1 0xE0 SHL DUP2 MSTORE ADDRESS PUSH1 0x4 DUP3 ADD MSTORE PUSH1 0x1 PUSH1 0x1 PUSH1 0xA0 SHL SUB SWAP3 SWAP1 SWAP3 AND PUSH1 0x24 DUP4 ADD MSTORE PUSH1 0x44 DUP3 ADD MSTORE SWAP1 DUP4 SWAP1 DUP3 SWAP1 PUSH1 0x64 SWAP1 DUP3 SWAP1 DUP5 SWAP1 GAS CALL SWAP1 DUP2 ISZERO PUSH2 0x2399 JUMPI DUP4 SWAP2 PUSH2 0x2385 JUMPI JUMPDEST DUP1 PUSH2 0x22BE JUMP JUMPDEST PUSH2 0x238E SWAP1 PUSH2 0x32F2 JUMP JUMPDEST PUSH2 0x383 JUMPI DUP2 CODESIZE PUSH2 0x237F JUMP JUMPDEST PUSH1 0x40 MLOAD RETURNDATASIZE DUP6 DUP3 RETURNDATACOPY RETURNDATASIZE SWAP1 REVERT JUMPDEST PUSH2 0x23BA SWAP3 POP DUP1 RETURNDATASIZE LT PUSH2 0x1A58 JUMPI PUSH2 0x1A49 DUP2 DUP4 PUSH2 0x3320 JUMP JUMPDEST CODESIZE DUP1 PUSH2 0x22B3 JUMP JUMPDEST PUSH1 0x40 MLOAD RETURNDATASIZE DUP10 DUP3 RETURNDATACOPY RETURNDATASIZE SWAP1 REVERT JUMPDEST PUSH1 0x40 MLOAD PUSH3 0x461BCD PUSH1 0xE5 SHL DUP2 MSTORE PUSH1 0x4 DUP2 ADD DUP6 SWAP1 MSTORE PUSH1 0x19 PUSH1 0x24 DUP3 ADD MSTORE PUSH32 0x43616E6E6F742063616E63656C206163746976652067616D6500000000000000 PUSH1 0x44 DUP3 ADD MSTORE PUSH1 0x64 SWAP1 REVERT JUMPDEST PUSH1 0x1 SWAP2 POP EQ CODESIZE PUSH2 0x2267 JUMP JUMPDEST PUSH1 0x40 MLOAD PUSH3 0x461BCD PUSH1 0xE5 SHL DUP2 MSTORE PUSH1 0x4 DUP2 ADD DUP4 SWAP1 MSTORE PUSH1 0x11 PUSH1 0x24 DUP3 ADD MSTORE PUSH17 0x139BDD0818481C185C9D1A58DA5C185B9D PUSH1 0x7A SHL PUSH1 0x44 DUP3 ADD MSTORE PUSH1 0x64 SWAP1 REVERT JUMPDEST POP DUP3 PUSH1 0x2 DUP6 ADD SLOAD AND CALLER EQ PUSH2 0x2245 JUMP JUMPDEST POP CALLVALUE PUSH2 0x27A JUMPI PUSH1 0x40 CALLDATASIZE PUSH1 0x3 NOT ADD SLT PUSH2 0x27A JUMPI PUSH2 0x247E PUSH2 0x34A0 JUMP JUMPDEST PUSH1 0x24 SWAP2 DUP3 CALLDATALOAD SWAP2 PUSH2 0x248C PUSH2 0x37AF JUMP JUMPDEST CALLER DUP3 MSTORE PUSH1 0x6 PUSH1 0x20 MSTORE PUSH1 0x40 DUP3 KECCAK256 SWAP1 PUSH1 0x1 DUP1 PUSH1 0xA0 SHL SUB AND SWAP1 DUP2 DUP4 MSTORE PUSH1 0x20 MSTORE PUSH1 0x40 DUP3 KECCAK256 SWAP3 DUP3 SWAP4 DUP4 JUMPDEST DUP2 SLOAD DUP1 DUP3 LT ISZERO PUSH2 0x2620 JUMPI DUP4 SWAP1 PUSH2 0x24C7 DUP4 DUP6 PUSH2 0x34D1 JUMP JUMPDEST SWAP3 SWAP1 SLOAD PUSH1 0x3 SWAP4 DUP5 SHL SHR EQ PUSH2 0x24E5 JUMPI POP POP PUSH2 0x24E0 SWAP1 PUSH2 0x363C JUMP JUMPDEST PUSH2 0x24B1 JUMP JUMPDEST SWAP1 SWAP4 SWAP5 SWAP6 SWAP7 POP PUSH1 0x0 NOT SWAP2 DUP3 DUP3 ADD SWAP2 DUP3 GT PUSH2 0x260D JUMPI PUSH2 0x2516 PUSH2 0x2509 PUSH2 0x252F SWAP4 DUP7 PUSH2 0x34D1 JUMP JUMPDEST SWAP1 SLOAD SWAP1 DUP8 SHL SHR SWAP2 DUP6 PUSH2 0x34D1 JUMP JUMPDEST SWAP1 SWAP2 SWAP1 DUP3 SLOAD SWAP1 PUSH1 0x3 SHL SWAP2 DUP3 SHL SWAP2 PUSH1 0x0 NOT SWAP1 SHL NOT AND OR SWAP1 SSTORE JUMP JUMPDEST DUP2 SLOAD DUP1 ISZERO PUSH2 0x25FA JUMPI DUP2 ADD SWAP3 PUSH2 0x2544 DUP5 DUP5 PUSH2 0x34D1 JUMP JUMPDEST DUP2 SWAP4 SWAP2 SLOAD SWAP3 SHL SHL NOT AND SWAP1 SSTORE SSTORE PUSH1 0x1 JUMPDEST ISZERO PUSH2 0x25B6 JUMPI DUP3 SWAP4 POP DUP2 EXTCODESIZE ISZERO PUSH2 0x25B2 JUMPI PUSH1 0x40 MLOAD PUSH4 0x23B872DD PUSH1 0xE0 SHL DUP2 MSTORE ADDRESS PUSH1 0x4 DUP3 ADD MSTORE CALLER PUSH1 0x24 DUP3 ADD MSTORE PUSH1 0x44 DUP2 ADD SWAP2 SWAP1 SWAP2 MSTORE SWAP2 SWAP1 DUP3 SWAP1 PUSH1 0x64 SWAP1 DUP3 SWAP1 DUP5 SWAP1 GAS CALL DUP1 ISZERO PUSH2 0x387 JUMPI PUSH2 0x25A3 JUMPI JUMPDEST POP PUSH1 0x1 DUP2 SSTORE DUP1 RETURN JUMPDEST PUSH2 0x25AC SWAP1 PUSH2 0x32F2 JUMP JUMPDEST CODESIZE PUSH2 0x259B JUMP JUMPDEST POP POP REVERT JUMPDEST PUSH1 0x40 MLOAD PUSH3 0x461BCD PUSH1 0xE5 SHL DUP2 MSTORE PUSH1 0x20 PUSH1 0x4 DUP3 ADD MSTORE PUSH1 0x1A DUP2 DUP7 ADD MSTORE PUSH32 0x4E4654206E6F7420666F756E6420696E20756E636C61696D6564000000000000 PUSH1 0x44 DUP3 ADD MSTORE PUSH1 0x64 SWAP1 REVERT JUMPDEST PUSH4 0x4E487B71 PUSH1 0xE0 SHL DUP8 MSTORE PUSH1 0x31 PUSH1 0x4 MSTORE DUP8 DUP8 REVERT JUMPDEST PUSH4 0x4E487B71 PUSH1 0xE0 SHL DUP9 MSTORE PUSH1 0x11 PUSH1 0x4 MSTORE DUP9 DUP9 REVERT JUMPDEST POP POP POP SWAP1 SWAP2 SWAP3 PUSH2 0x2553 JUMP JUMPDEST POP CALLVALUE PUSH2 0x27A JUMPI DUP1 PUSH1 0x3 NOT CALLDATASIZE ADD SLT PUSH2 0x27A JUMPI PUSH1 0x20 PUSH1 0xFF PUSH1 0x1 SLOAD PUSH1 0xA0 SHR AND PUSH1 0x40 MLOAD SWAP1 ISZERO ISZERO DUP2 MSTORE RETURN JUMPDEST POP CALLVALUE PUSH2 0x27A JUMPI DUP1 PUSH1 0x3 NOT CALLDATASIZE ADD SLT PUSH2 0x27A JUMPI PUSH2 0x266A PUSH2 0x35A1 JUMP JUMPDEST PUSH2 0x2672 PUSH2 0x3768 JUMP JUMPDEST PUSH1 0x1 DUP1 SLOAD PUSH1 0xFF PUSH1 0xA0 SHL NOT AND PUSH1 0x1 PUSH1 0xA0 SHL OR SWAP1 SSTORE PUSH1 0x40 MLOAD CALLER DUP2 MSTORE PUSH32 0x62E78CEA01BEE320CD4E420270B5EA74000D11B0C9F74754EBDBFC544B05A258 SWAP1 PUSH1 0x20 SWAP1 LOG1 DUP1 RETURN JUMPDEST POP CALLVALUE PUSH2 0x27A JUMPI DUP1 PUSH1 0x3 NOT CALLDATASIZE ADD SLT PUSH2 0x27A JUMPI PUSH2 0x26CD PUSH2 0x35A1 JUMP JUMPDEST PUSH1 0x1 SLOAD PUSH1 0xFF DUP2 PUSH1 0xA0 SHR AND ISZERO PUSH2 0x2715 JUMPI PUSH1 0xFF PUSH1 0xA0 SHL NOT AND PUSH1 0x1 SSTORE PUSH1 0x40 MLOAD CALLER DUP2 MSTORE PUSH32 0x5DB9EE0A495BF2E6FF9C91A7834C1BA4FDD244A5E8AA4E537BD38AEAE4B073AA SWAP1 PUSH1 0x20 SWAP1 LOG1 DUP1 RETURN JUMPDEST PUSH1 0x40 MLOAD PUSH3 0x461BCD PUSH1 0xE5 SHL DUP2 MSTORE PUSH1 0x20 PUSH1 0x4 DUP3 ADD MSTORE PUSH1 0x14 PUSH1 0x24 DUP3 ADD MSTORE PUSH20 0x14185D5CD8589B194E881B9BDD081C185D5CD959 PUSH1 0x62 SHL PUSH1 0x44 DUP3 ADD MSTORE PUSH1 0x64 SWAP1 REVERT JUMPDEST POP CALLVALUE PUSH2 0x27A JUMPI DUP1 PUSH1 0x3 NOT CALLDATASIZE ADD SLT PUSH2 0x27A JUMPI PUSH1 0x20 PUSH1 0x8 SLOAD PUSH1 0x40 MLOAD SWAP1 DUP2 MSTORE RETURN JUMPDEST POP CALLVALUE PUSH2 0x27A JUMPI DUP1 PUSH1 0x3 NOT CALLDATASIZE ADD SLT PUSH2 0x27A JUMPI PUSH1 0xA SLOAD PUSH1 0x40 MLOAD PUSH1 0x1 PUSH1 0x1 PUSH1 0xA0 SHL SUB SWAP1 SWAP2 AND DUP2 MSTORE PUSH1 0x20 SWAP1 RETURN JUMPDEST POP CALLVALUE PUSH2 0x27A JUMPI PUSH1 0x20 CALLDATASIZE PUSH1 0x3 NOT ADD SLT PUSH2 0x27A JUMPI PUSH1 0x4 CALLDATALOAD DUP2 MSTORE PUSH1 0x2 PUSH1 0x20 MSTORE PUSH1 0x40 DUP2 KECCAK256 SWAP1 PUSH2 0x28B6 PUSH1 0x10 PUSH1 0x40 MLOAD SWAP4 PUSH2 0x27CB DUP6 PUSH2 0x32D6 JUMP JUMPDEST DUP1 SLOAD DUP6 MSTORE PUSH1 0x1 DUP2 ADD SLOAD PUSH1 0x1 PUSH1 0x1 PUSH1 0xA0 SHL SUB SWAP1 DUP2 AND PUSH1 0x20 DUP8 ADD MSTORE PUSH1 0x2 DUP3 ADD SLOAD DUP2 AND PUSH1 0x40 DUP8 ADD MSTORE PUSH1 0x3 DUP3 ADD SLOAD AND PUSH1 0x60 DUP7 ADD MSTORE PUSH1 0x4 DUP2 ADD SLOAD PUSH1 0x80 DUP7 ADD MSTORE PUSH1 0x5 DUP2 ADD SLOAD PUSH1 0xFF SWAP1 PUSH2 0x281C DUP2 DUP4 AND PUSH1 0xA0 DUP10 ADD PUSH2 0x3661 JUMP JUMPDEST PUSH1 0x8 SHR AND PUSH2 0x2829 DUP2 PUSH2 0x3456 JUMP JUMPDEST PUSH1 0xC0 DUP7 ADD MSTORE PUSH1 0x6 DUP2 ADD SLOAD PUSH1 0xE0 DUP7 ADD MSTORE PUSH1 0xFF PUSH1 0x7 DUP3 ADD SLOAD AND PUSH2 0x2849 DUP2 PUSH2 0x3456 JUMP JUMPDEST PUSH2 0x100 DUP7 ADD MSTORE PUSH1 0x8 DUP2 ADD SLOAD PUSH2 0x120 DUP7 ADD MSTORE PUSH1 0x9 DUP2 ADD SLOAD PUSH1 0x1 PUSH1 0x1 PUSH1 0xA0 SHL SUB AND PUSH2 0x140 DUP7 ADD MSTORE PUSH1 0xA DUP2 ADD SLOAD PUSH2 0x160 DUP7 ADD MSTORE PUSH1 0xB DUP2 ADD SLOAD PUSH2 0x180 DUP7 ADD MSTORE PUSH1 0xC DUP2 ADD SLOAD PUSH2 0x1A0 DUP7 ADD MSTORE PUSH1 0xD DUP2 ADD SLOAD PUSH2 0x1C0 DUP7 ADD MSTORE PUSH1 0xE DUP2 ADD SLOAD PUSH2 0x1E0 DUP7 ADD MSTORE PUSH1 0xF DUP2 ADD SLOAD PUSH2 0x200 DUP7 ADD MSTORE ADD PUSH2 0x33E7 JUMP JUMPDEST PUSH2 0x220 DUP4 ADD MSTORE DUP2 MLOAD SWAP1 PUSH1 0x1 DUP1 PUSH1 0xA0 SHL SUB PUSH1 0x20 DUP5 ADD MLOAD AND PUSH2 0x220 MSTORE PUSH1 0x1 DUP1 PUSH1 0xA0 SHL SUB PUSH1 0x40 DUP5 ADD MLOAD AND PUSH1 0x80 MSTORE PUSH1 0x1 DUP1 PUSH1 0xA0 SHL SUB PUSH1 0x60 DUP5 ADD MLOAD AND PUSH2 0x1C0 MSTORE PUSH1 0x80 DUP4 ADD MLOAD SWAP1 PUSH1 0xA0 DUP5 ADD MLOAD SWAP1 PUSH1 0x5 DUP3 LT ISZERO PUSH2 0x2ABF JUMPI POP PUSH1 0xC0 DUP5 ADD MLOAD PUSH2 0x2915 DUP2 PUSH2 0x3456 JUMP JUMPDEST PUSH1 0xE0 DUP6 ADD MLOAD PUSH2 0x100 DUP7 ADD MLOAD PUSH2 0x2929 DUP2 PUSH2 0x3456 JUMP JUMPDEST PUSH2 0x120 DUP8 ADD MLOAD SWAP1 PUSH1 0x1 PUSH1 0xA0 SHL PUSH1 0x1 SWAP1 SUB PUSH2 0x140 DUP10 ADD MLOAD AND SWAP3 PUSH2 0x160 DUP10 ADD MLOAD SWAP5 PUSH2 0x180 DUP11 ADD MLOAD SWAP7 PUSH2 0x1A0 DUP12 ADD MLOAD SWAP9 PUSH2 0x1C0 DUP13 ADD MLOAD SWAP11 PUSH2 0x1E0 DUP14 ADD MLOAD SWAP13 PUSH2 0x200 DUP2 ADD MLOAD PUSH2 0x1A0 MSTORE PUSH2 0x220 ADD MLOAD DUP1 PUSH1 0xA0 MSTORE DUP1 MLOAD PUSH2 0x160 MSTORE PUSH1 0x20 DUP2 ADD MLOAD PUSH2 0x100 MSTORE PUSH1 0x40 DUP2 ADD MLOAD PUSH1 0xE0 MSTORE PUSH1 0x60 ADD MLOAD ISZERO ISZERO PUSH2 0x1E0 MSTORE PUSH1 0x40 MLOAD DUP1 PUSH2 0x240 MSTORE MSTORE PUSH2 0x220 MLOAD PUSH2 0x240 MLOAD PUSH1 0x20 ADD MSTORE PUSH1 0x80 MLOAD PUSH2 0x240 MLOAD PUSH1 0x40 ADD MSTORE PUSH2 0x1C0 MLOAD PUSH2 0x240 MLOAD PUSH1 0x60 ADD MSTORE PUSH2 0x240 MLOAD PUSH1 0x80 ADD MSTORE PUSH2 0x240 MLOAD PUSH1 0xA0 ADD PUSH2 0x29DC SWAP2 PUSH2 0x3433 JUMP JUMPDEST PUSH2 0x29E5 DUP2 PUSH2 0x3456 JUMP JUMPDEST PUSH2 0x240 MLOAD PUSH1 0xC0 ADD MSTORE PUSH2 0x240 MLOAD PUSH1 0xE0 ADD MSTORE PUSH2 0x29FE DUP2 PUSH2 0x3456 JUMP JUMPDEST PUSH2 0x240 MLOAD PUSH2 0x100 ADD MSTORE PUSH2 0x240 MLOAD PUSH2 0x120 ADD MSTORE PUSH2 0x240 MLOAD PUSH2 0x140 ADD MSTORE PUSH2 0x240 MLOAD PUSH2 0x160 ADD MSTORE PUSH2 0x240 MLOAD PUSH2 0x180 ADD MSTORE PUSH2 0x240 MLOAD PUSH2 0x1A0 ADD MSTORE PUSH2 0x240 MLOAD PUSH2 0x1C0 ADD MSTORE PUSH2 0x240 MLOAD PUSH2 0x1E0 ADD MSTORE PUSH2 0x1A0 MLOAD PUSH2 0x240 MLOAD PUSH2 0x200 ADD MSTORE PUSH2 0x2A0 DUP1 PUSH2 0x240 MLOAD PUSH2 0x220 ADD MSTORE PUSH2 0x240 MLOAD ADD PUSH2 0x160 MLOAD SWAP1 PUSH2 0x2A73 SWAP2 PUSH2 0x3460 JUMP JUMPDEST PUSH2 0x240 MLOAD DUP1 DUP3 SUB SWAP1 PUSH2 0x240 ADD MSTORE PUSH2 0x100 MLOAD SWAP1 PUSH2 0x2A8E SWAP2 PUSH2 0x3460 JUMP JUMPDEST PUSH2 0x240 MLOAD DUP1 DUP3 SUB SWAP1 PUSH2 0x260 ADD MSTORE PUSH1 0xE0 MLOAD SWAP1 PUSH2 0x2AA8 SWAP2 PUSH2 0x3460 JUMP JUMPDEST PUSH2 0x1E0 MLOAD PUSH2 0x240 MLOAD PUSH2 0x280 ADD MSTORE PUSH2 0x240 MLOAD DUP1 SWAP2 SUB SWAP1 RETURN JUMPDEST PUSH4 0x4E487B71 PUSH1 0xE0 SHL DUP2 MSTORE PUSH1 0x21 PUSH1 0x4 MSTORE PUSH1 0x24 SWAP1 REVERT JUMPDEST POP CALLVALUE PUSH2 0x27A JUMPI PUSH1 0x20 CALLDATASIZE PUSH1 0x3 NOT ADD SLT PUSH2 0x27A JUMPI PUSH1 0x20 SWAP1 PUSH1 0x40 SWAP1 PUSH1 0x1 PUSH1 0x1 PUSH1 0xA0 SHL SUB PUSH2 0x2AFB PUSH2 0x34A0 JUMP JUMPDEST AND DUP2 MSTORE PUSH1 0x4 DUP4 MSTORE KECCAK256 SLOAD PUSH1 0x40 MLOAD SWAP1 DUP2 MSTORE RETURN JUMPDEST POP CALLVALUE PUSH2 0x27A JUMPI PUSH1 0x20 CALLDATASIZE PUSH1 0x3 NOT ADD SLT PUSH2 0x27A JUMPI PUSH2 0x2B26 PUSH2 0x35A1 JUMP JUMPDEST PUSH1 0x4 CALLDATALOAD PUSH1 0x8 SSTORE DUP1 RETURN JUMPDEST POP CALLVALUE PUSH2 0x27A JUMPI PUSH1 0x20 CALLDATASIZE PUSH1 0x3 NOT ADD SLT PUSH2 0x27A JUMPI PUSH1 0x4 CALLDATALOAD PUSH2 0x2B4C PUSH2 0x35A1 JUMP JUMPDEST PUSH2 0x3E8 DUP2 GT PUSH2 0x2B5B JUMPI PUSH1 0x9 SSTORE DUP1 RETURN JUMPDEST PUSH1 0x40 MLOAD PUSH3 0x461BCD PUSH1 0xE5 SHL DUP2 MSTORE PUSH1 0x20 PUSH1 0x4 DUP3 ADD MSTORE PUSH1 0x7 PUSH1 0x24 DUP3 ADD MSTORE PUSH7 0x4D617820313025 PUSH1 0xC8 SHL PUSH1 0x44 DUP3 ADD MSTORE PUSH1 0x64 SWAP1 REVERT JUMPDEST POP CALLVALUE PUSH2 0x27A JUMPI PUSH1 0x20 DUP1 PUSH1 0x3 NOT CALLDATASIZE ADD SLT PUSH2 0x383 JUMPI PUSH1 0x1 PUSH1 0x1 PUSH1 0xA0 SHL SUB PUSH2 0x2BAD PUSH2 0x34A0 JUMP JUMPDEST AND DUP3 MSTORE PUSH1 0x3 DUP2 MSTORE PUSH1 0x40 DUP3 KECCAK256 PUSH1 0x40 MLOAD SWAP3 DUP4 DUP4 DUP4 SLOAD SWAP2 DUP3 DUP2 MSTORE ADD SWAP1 DUP2 SWAP4 DUP4 MSTORE DUP5 DUP4 KECCAK256 SWAP1 DUP4 JUMPDEST DUP2 DUP2 LT PUSH2 0x2C24 JUMPI POP POP POP DUP5 PUSH2 0x2BE6 SWAP2 SUB DUP6 PUSH2 0x3320 JUMP JUMPDEST PUSH1 0x40 MLOAD SWAP4 DUP4 DUP6 SWAP5 DUP6 ADD SWAP2 DUP2 DUP7 MSTORE MLOAD DUP1 SWAP3 MSTORE PUSH1 0x40 DUP6 ADD SWAP4 SWAP3 JUMPDEST DUP3 DUP2 LT PUSH2 0x2C0D JUMPI POP POP POP POP SUB SWAP1 RETURN JUMPDEST DUP4 MLOAD DUP6 MSTORE DUP7 SWAP6 POP SWAP4 DUP2 ADD SWAP4 SWAP3 DUP2 ADD SWAP3 PUSH1 0x1 ADD PUSH2 0x2BFE JUMP JUMPDEST DUP3 SLOAD DUP5 MSTORE SWAP3 DUP7 ADD SWAP3 PUSH1 0x1 SWAP3 DUP4 ADD SWAP3 ADD PUSH2 0x2BD0 JUMP JUMPDEST POP CALLVALUE PUSH2 0x27A JUMPI DUP1 PUSH1 0x3 NOT CALLDATASIZE ADD SLT PUSH2 0x27A JUMPI PUSH1 0xC SLOAD PUSH1 0x40 MLOAD PUSH1 0x1 PUSH1 0x1 PUSH1 0xA0 SHL SUB SWAP1 SWAP2 AND DUP2 MSTORE PUSH1 0x20 SWAP1 RETURN JUMPDEST POP CALLVALUE PUSH2 0x27A JUMPI PUSH1 0x20 CALLDATASIZE PUSH1 0x3 NOT ADD SLT PUSH2 0x27A JUMPI PUSH1 0x4 CALLDATALOAD DUP2 MSTORE PUSH1 0x2 PUSH1 0x20 MSTORE PUSH1 0x40 SWAP1 KECCAK256 DUP1 DUP1 SLOAD PUSH1 0x1 PUSH1 0xA0 SHL PUSH1 0x1 SWAP1 SUB DUP1 PUSH1 0x1 DUP5 ADD SLOAD AND PUSH2 0x180 MSTORE DUP1 PUSH1 0x2 DUP5 ADD SLOAD AND PUSH1 0xC0 MSTORE DUP1 PUSH1 0x3 DUP5 ADD SLOAD AND SWAP1 PUSH1 0x4 DUP5 ADD SLOAD SWAP1 PUSH1 0x5 DUP6 ADD SLOAD SWAP1 PUSH1 0x6 DUP7 ADD SLOAD SWAP1 PUSH1 0x7 DUP8 ADD SLOAD PUSH1 0xFF AND PUSH1 0x8 DUP9 ADD SLOAD SWAP2 PUSH1 0x9 DUP10 ADD SLOAD AND SWAP3 PUSH1 0xA DUP10 ADD SLOAD SWAP5 PUSH1 0xB DUP11 ADD SLOAD SWAP7 PUSH1 0xC DUP12 ADD SLOAD SWAP9 PUSH1 0xD DUP13 ADD SLOAD SWAP11 PUSH1 0xE DUP14 ADD SLOAD SWAP13 PUSH1 0xF ADD SLOAD SWAP14 PUSH1 0x10 ADD PUSH2 0x2D00 SWAP1 PUSH2 0x33E7 JUMP JUMPDEST PUSH2 0x120 MSTORE PUSH1 0x40 MLOAD DUP1 PUSH2 0x140 MSTORE MSTORE PUSH2 0x180 MLOAD PUSH2 0x140 MLOAD PUSH1 0x20 ADD MSTORE PUSH1 0xC0 MLOAD PUSH2 0x140 MLOAD PUSH1 0x40 ADD MSTORE PUSH2 0x140 MLOAD PUSH1 0x60 ADD MSTORE PUSH2 0x140 MLOAD PUSH1 0x80 ADD MSTORE PUSH2 0x140 MLOAD PUSH1 0xA0 ADD PUSH1 0xFF DUP3 AND SWAP1 PUSH2 0x2D49 SWAP2 PUSH2 0x3433 JUMP JUMPDEST PUSH1 0x8 SHR PUSH1 0xFF AND PUSH2 0x2D58 DUP2 PUSH2 0x3456 JUMP JUMPDEST PUSH2 0x140 MLOAD PUSH1 0xC0 ADD MSTORE PUSH2 0x140 MLOAD PUSH1 0xE0 ADD MSTORE PUSH2 0x2D71 DUP2 PUSH2 0x3456 JUMP JUMPDEST PUSH2 0x140 MLOAD PUSH2 0x100 ADD MSTORE PUSH2 0x140 MLOAD PUSH2 0x120 ADD MSTORE PUSH2 0x140 MLOAD PUSH2 0x140 ADD MSTORE PUSH2 0x140 MLOAD PUSH2 0x160 ADD MSTORE PUSH2 0x140 MLOAD PUSH2 0x180 ADD MSTORE PUSH2 0x140 MLOAD PUSH2 0x1A0 ADD MSTORE PUSH2 0x140 MLOAD PUSH2 0x1C0 ADD MSTORE PUSH2 0x140 MLOAD PUSH2 0x1E0 ADD MSTORE PUSH2 0x140 MLOAD PUSH2 0x200 ADD MSTORE PUSH2 0x240 DUP1 PUSH2 0x140 MLOAD PUSH2 0x220 ADD MSTORE PUSH2 0x120 MLOAD MLOAD SWAP1 PUSH2 0x140 MLOAD ADD PUSH1 0x80 SWAP1 MSTORE PUSH2 0x140 MLOAD PUSH2 0x2C0 ADD PUSH2 0x2DEF SWAP2 PUSH2 0x3460 JUMP JUMPDEST PUSH2 0x120 MLOAD PUSH1 0x20 ADD MLOAD PUSH2 0x140 MLOAD SWAP2 PUSH2 0x23F NOT SWAP3 DUP4 DUP2 DUP4 SUB ADD SWAP1 PUSH2 0x260 ADD MSTORE PUSH2 0x2E15 SWAP2 PUSH2 0x3460 JUMP JUMPDEST PUSH2 0x120 MLOAD PUSH1 0x40 ADD MLOAD SWAP2 PUSH2 0x140 MLOAD SWAP1 DUP2 DUP4 SUB ADD SWAP1 PUSH2 0x280 ADD MSTORE PUSH2 0x2E36 SWAP2 PUSH2 0x3460 JUMP JUMPDEST PUSH2 0x120 MLOAD PUSH1 0x60 ADD MLOAD ISZERO ISZERO PUSH2 0x140 MLOAD PUSH2 0x2A0 ADD MSTORE PUSH2 0x140 MLOAD DUP1 SWAP2 SUB SWAP1 RETURN JUMPDEST POP CALLVALUE PUSH2 0x27A JUMPI PUSH1 0x20 CALLDATASIZE PUSH1 0x3 NOT ADD SLT PUSH2 0x27A JUMPI PUSH2 0x2E6D PUSH2 0x37AF JUMP JUMPDEST PUSH1 0x4 CALLDATALOAD DUP2 MSTORE PUSH1 0x2 PUSH1 0x20 MSTORE PUSH1 0x40 DUP2 KECCAK256 PUSH1 0x5 DUP2 ADD SLOAD PUSH1 0xFF DUP2 AND PUSH1 0x5 DUP2 LT ISZERO DUP1 PUSH2 0x3288 JUMPI PUSH1 0x1 DUP3 EQ DUP1 SWAP3 DUP2 ISZERO PUSH2 0x327A JUMPI JUMPDEST POP ISZERO PUSH2 0x3244 JUMPI PUSH1 0x1 DUP5 ADD SLOAD PUSH1 0x1 PUSH1 0x1 PUSH1 0xA0 SHL SUB AND CALLER EQ DUP1 ISZERO PUSH2 0x322E JUMPI JUMPDEST ISZERO PUSH2 0x31FA JUMPI PUSH1 0x3 PUSH1 0xB DUP6 ADD SLOAD LT DUP1 PUSH2 0x31EC JUMPI JUMPDEST ISZERO PUSH2 0x31AF JUMPI PUSH2 0x319B JUMPI PUSH2 0x3189 JUMPI JUMPDEST POP PUSH1 0xD DUP2 ADD SLOAD PUSH1 0x40 MLOAD TIMESTAMP PUSH1 0x20 DUP3 ADD MSTORE PREVRANDAO PUSH1 0x40 DUP3 ADD MSTORE PUSH1 0x4 CALLDATALOAD PUSH1 0x60 DUP3 ADD MSTORE DUP2 PUSH1 0x80 DUP3 ADD MSTORE CALLER PUSH1 0x60 SHL PUSH1 0xA0 DUP3 ADD MSTORE PUSH1 0x94 DUP2 MSTORE DUP1 PUSH1 0xC0 DUP2 ADD LT PUSH1 0x1 PUSH1 0x1 PUSH1 0x40 SHL SUB PUSH1 0xC0 DUP4 ADD GT OR PUSH2 0x3175 JUMPI PUSH1 0xC0 DUP2 ADD PUSH1 0x40 MSTORE PUSH1 0x20 DUP2 MLOAD SWAP2 ADD KECCAK256 SWAP1 PUSH1 0x1 DUP3 AND ISZERO PUSH1 0x0 EQ PUSH2 0x3105 JUMPI POP PUSH2 0x2F4A PUSH1 0xB DUP4 ADD SLOAD PUSH2 0x363C JUMP JUMPDEST PUSH1 0xB DUP4 ADD SSTORE PUSH1 0xD DUP3 ADD SLOAD PUSH1 0x1 DUP2 ADD DUP2 GT PUSH2 0x30F1 JUMPI PUSH1 0x1 DUP4 DUP2 ADD SLOAD PUSH1 0x40 DUP1 MLOAD SWAP4 DUP4 ADD DUP5 MSTORE SWAP2 DUP5 AND PUSH1 0x20 DUP5 ADD MSTORE PUSH1 0x1 PUSH1 0x1 PUSH1 0xA0 SHL SUB AND SWAP1 DUP3 ADD MSTORE PUSH1 0x4 CALLDATALOAD SWAP1 PUSH32 0xD2B6B22444768B00D18E4A1C242DC398D49E330C1BAE790CAD9DCD86DA2E20C3 SWAP1 PUSH1 0x60 SWAP1 LOG2 JUMPDEST PUSH2 0x2FBA PUSH1 0xD DUP4 ADD SLOAD PUSH2 0x363C JUMP JUMPDEST PUSH1 0xD DUP4 ADD SSTORE PUSH1 0x1 DUP2 AND PUSH1 0xE DUP4 ADD SSTORE PUSH1 0xF DUP3 ADD SSTORE PUSH1 0x3 PUSH1 0xB DUP3 ADD SLOAD LT DUP1 ISZERO DUP1 SWAP2 PUSH2 0x30E2 JUMPI JUMPDEST PUSH2 0x2FEB JUMPI JUMPDEST DUP3 PUSH1 0x1 DUP2 SSTORE DUP1 RETURN JUMPDEST ISZERO PUSH2 0x30CB JUMPI PUSH1 0x1 DUP2 ADD SLOAD PUSH1 0x1 PUSH1 0x1 PUSH1 0xA0 SHL SUB AND SWAP1 PUSH1 0x8 SWAP1 JUMPDEST PUSH1 0x9 DUP2 ADD DUP1 SLOAD PUSH1 0x1 PUSH1 0x1 PUSH1 0xA0 SHL SUB NOT AND PUSH1 0x1 PUSH1 0x1 PUSH1 0xA0 SHL SUB SWAP5 DUP6 AND SWAP1 DUP2 OR DUP3 SSTORE PUSH1 0x5 DUP4 ADD DUP1 SLOAD PUSH1 0xFF NOT AND PUSH1 0x3 SWAP1 DUP2 OR SWAP1 SWAP2 SSTORE SWAP1 DUP7 MSTORE PUSH1 0x6 PUSH1 0x20 SWAP1 DUP2 MSTORE PUSH1 0x40 DUP1 DUP9 KECCAK256 SWAP3 DUP6 ADD SLOAD SWAP1 SWAP7 AND DUP8 MSTORE MSTORE SWAP3 DUP5 KECCAK256 PUSH1 0x4 DUP3 ADD SLOAD PUSH2 0x305F SWAP2 PUSH2 0x3685 JUMP JUMPDEST ADD SLOAD DUP1 PUSH2 0x30A0 JUMPI JUMPDEST POP SLOAD PUSH1 0x1 PUSH1 0x1 PUSH1 0xA0 SHL SUB AND PUSH1 0x4 CALLDATALOAD PUSH32 0x7F40DF5127524300187445E867486DA572AAB86769C0212E0B392BD87C4CA97F DUP4 DUP1 LOG3 CODESIZE DUP1 PUSH2 0x2FE3 JUMP JUMPDEST DUP2 SLOAD PUSH1 0x1 PUSH1 0x1 PUSH1 0xA0 SHL SUB AND DUP4 MSTORE PUSH1 0x4 PUSH1 0x20 MSTORE PUSH1 0x40 DUP4 KECCAK256 DUP1 SLOAD SWAP1 SWAP2 PUSH2 0x30C3 SWAP2 PUSH2 0x392B JUMP JUMPDEST SWAP1 SSTORE CODESIZE PUSH2 0x3067 JUMP JUMPDEST PUSH1 0x2 DUP2 ADD SLOAD PUSH1 0x1 PUSH1 0x1 PUSH1 0xA0 SHL SUB AND SWAP1 PUSH1 0x8 SWAP1 PUSH2 0x3003 JUMP JUMPDEST POP PUSH1 0x3 PUSH1 0xC DUP4 ADD SLOAD LT ISZERO PUSH2 0x2FDE JUMP JUMPDEST PUSH4 0x4E487B71 PUSH1 0xE0 SHL DUP5 MSTORE PUSH1 0x11 PUSH1 0x4 MSTORE PUSH1 0x24 DUP5 REVERT JUMPDEST PUSH1 0xC DUP4 ADD PUSH2 0x3113 DUP2 SLOAD PUSH2 0x363C JUMP JUMPDEST SWAP1 SSTORE PUSH1 0x1 DUP2 ADD DUP2 GT PUSH2 0x30F1 JUMPI PUSH1 0x2 DUP4 ADD SLOAD PUSH1 0x40 DUP1 MLOAD PUSH1 0x1 SWAP4 DUP5 ADD DUP2 MSTORE SWAP3 DUP5 AND PUSH1 0x20 DUP5 ADD MSTORE PUSH1 0x1 PUSH1 0x1 PUSH1 0xA0 SHL SUB SWAP1 SWAP2 AND SWAP1 DUP3 ADD MSTORE PUSH1 0x4 CALLDATALOAD SWAP1 PUSH32 0xD2B6B22444768B00D18E4A1C242DC398D49E330C1BAE790CAD9DCD86DA2E20C3 SWAP1 PUSH1 0x60 SWAP1 LOG2 PUSH2 0x2FAD JUMP JUMPDEST PUSH4 0x4E487B71 PUSH1 0xE0 SHL DUP5 MSTORE PUSH1 0x41 PUSH1 0x4 MSTORE PUSH1 0x24 DUP5 REVERT JUMPDEST PUSH1 0xFF NOT AND PUSH1 0x2 OR PUSH1 0x5 DUP3 ADD SSTORE CODESIZE PUSH2 0x2ED9 JUMP JUMPDEST PUSH4 0x4E487B71 PUSH1 0xE0 SHL DUP5 MSTORE PUSH1 0x21 PUSH1 0x4 MSTORE PUSH1 0x24 DUP5 REVERT JUMPDEST PUSH1 0x40 MLOAD PUSH3 0x461BCD PUSH1 0xE5 SHL DUP2 MSTORE PUSH1 0x20 PUSH1 0x4 DUP3 ADD MSTORE PUSH1 0x15 PUSH1 0x24 DUP3 ADD MSTORE PUSH21 0x47616D6520616C726561647920636F6D706C657465 PUSH1 0x58 SHL PUSH1 0x44 DUP3 ADD MSTORE PUSH1 0x64 SWAP1 REVERT JUMPDEST POP PUSH1 0x3 PUSH1 0xC DUP6 ADD SLOAD LT PUSH2 0x2ECB JUMP JUMPDEST PUSH1 0x40 MLOAD PUSH3 0x461BCD PUSH1 0xE5 SHL DUP2 MSTORE PUSH1 0x20 PUSH1 0x4 DUP3 ADD MSTORE PUSH1 0xC PUSH1 0x24 DUP3 ADD MSTORE PUSH12 0x2737BA103090383630BCB2B9 PUSH1 0xA1 SHL PUSH1 0x44 DUP3 ADD MSTORE PUSH1 0x64 SWAP1 REVERT JUMPDEST POP PUSH1 0x2 DUP5 ADD SLOAD PUSH1 0x1 PUSH1 0x1 PUSH1 0xA0 SHL SUB AND CALLER EQ PUSH2 0x2EB8 JUMP JUMPDEST PUSH1 0x40 MLOAD PUSH3 0x461BCD PUSH1 0xE5 SHL DUP2 MSTORE PUSH1 0x20 PUSH1 0x4 DUP3 ADD MSTORE PUSH1 0xE PUSH1 0x24 DUP3 ADD MSTORE PUSH14 0x47616D65206E6F74207265616479 PUSH1 0x90 SHL PUSH1 0x44 DUP3 ADD MSTORE PUSH1 0x64 SWAP1 REVERT JUMPDEST SWAP2 POP POP PUSH1 0x2 DUP6 SWAP2 EQ CODESIZE PUSH2 0x2E9B JUMP JUMPDEST PUSH4 0x4E487B71 PUSH1 0xE0 SHL DUP6 MSTORE PUSH1 0x21 PUSH1 0x4 MSTORE PUSH1 0x24 DUP6 REVERT JUMPDEST SWAP1 PUSH1 0x1 DUP3 DUP2 SHR SWAP3 AND DUP1 ISZERO PUSH2 0x32CC JUMPI JUMPDEST PUSH1 0x20 DUP4 LT EQ PUSH2 0x32B6 JUMPI JUMP JUMPDEST PUSH4 0x4E487B71 PUSH1 0xE0 SHL PUSH1 0x0 MSTORE PUSH1 0x22 PUSH1 0x4 MSTORE PUSH1 0x24 PUSH1 0x0 REVERT JUMPDEST SWAP2 PUSH1 0x7F AND SWAP2 PUSH2 0x32AB JUMP JUMPDEST PUSH2 0x240 DUP2 ADD SWAP1 DUP2 LT PUSH1 0x1 PUSH1 0x1 PUSH1 0x40 SHL SUB DUP3 GT OR PUSH2 0x1B9D JUMPI PUSH1 0x40 MSTORE JUMP JUMPDEST PUSH1 0x1 PUSH1 0x1 PUSH1 0x40 SHL SUB DUP2 GT PUSH2 0x1B9D JUMPI PUSH1 0x40 MSTORE JUMP JUMPDEST PUSH1 0x80 DUP2 ADD SWAP1 DUP2 LT PUSH1 0x1 PUSH1 0x1 PUSH1 0x40 SHL SUB DUP3 GT OR PUSH2 0x1B9D JUMPI PUSH1 0x40 MSTORE JUMP JUMPDEST SWAP1 PUSH1 0x1F DUP1 NOT SWAP2 ADD AND DUP2 ADD SWAP1 DUP2 LT PUSH1 0x1 PUSH1 0x1 PUSH1 0x40 SHL SUB DUP3 GT OR PUSH2 0x1B9D JUMPI PUSH1 0x40 MSTORE JUMP JUMPDEST SWAP1 PUSH1 0x40 MLOAD SWAP2 DUP3 PUSH1 0x0 DUP3 SLOAD SWAP3 PUSH2 0x3355 DUP5 PUSH2 0x329C JUMP JUMPDEST SWAP1 DUP2 DUP5 MSTORE PUSH1 0x1 SWAP5 DUP6 DUP2 AND SWAP1 DUP2 PUSH1 0x0 EQ PUSH2 0x33C4 JUMPI POP PUSH1 0x1 EQ PUSH2 0x3381 JUMPI JUMPDEST POP POP PUSH2 0x337F SWAP3 POP SUB DUP4 PUSH2 0x3320 JUMP JUMPDEST JUMP JUMPDEST SWAP1 SWAP4 SWAP2 POP PUSH1 0x0 MSTORE PUSH1 0x20 SWAP1 DUP2 PUSH1 0x0 KECCAK256 SWAP4 PUSH1 0x0 SWAP2 JUMPDEST DUP2 DUP4 LT PUSH2 0x33AC JUMPI POP POP PUSH2 0x337F SWAP4 POP DUP3 ADD ADD CODESIZE DUP1 PUSH2 0x3371 JUMP JUMPDEST DUP6 SLOAD DUP9 DUP5 ADD DUP6 ADD MSTORE SWAP5 DUP6 ADD SWAP5 DUP8 SWAP5 POP SWAP2 DUP4 ADD SWAP2 PUSH2 0x3394 JUMP JUMPDEST SWAP2 POP POP PUSH2 0x337F SWAP5 POP PUSH1 0x20 SWAP3 POP PUSH1 0xFF NOT AND DUP3 DUP5 ADD MSTORE ISZERO ISZERO PUSH1 0x5 SHL DUP3 ADD ADD CODESIZE DUP1 PUSH2 0x3371 JUMP JUMPDEST SWAP1 PUSH1 0x40 MLOAD PUSH2 0x33F4 DUP2 PUSH2 0x3305 JUMP JUMPDEST PUSH1 0x60 PUSH1 0xFF PUSH1 0x3 DUP4 SWAP6 PUSH2 0x3405 DUP2 PUSH2 0x3341 JUMP JUMPDEST DUP6 MSTORE PUSH2 0x3413 PUSH1 0x1 DUP3 ADD PUSH2 0x3341 JUMP JUMPDEST PUSH1 0x20 DUP7 ADD MSTORE PUSH2 0x3424 PUSH1 0x2 DUP3 ADD PUSH2 0x3341 JUMP JUMPDEST PUSH1 0x40 DUP7 ADD MSTORE ADD SLOAD AND ISZERO ISZERO SWAP2 ADD MSTORE JUMP JUMPDEST SWAP1 PUSH1 0x5 DUP3 LT ISZERO PUSH2 0x3440 JUMPI MSTORE JUMP JUMPDEST PUSH4 0x4E487B71 PUSH1 0xE0 SHL PUSH1 0x0 MSTORE PUSH1 0x21 PUSH1 0x4 MSTORE PUSH1 0x24 PUSH1 0x0 REVERT JUMPDEST PUSH1 0x2 GT ISZERO PUSH2 0x3440 JUMPI JUMP JUMPDEST SWAP2 SWAP1 DUP3 MLOAD SWAP3 DUP4 DUP3 MSTORE PUSH1 0x0 JUMPDEST DUP5 DUP2 LT PUSH2 0x348C JUMPI POP POP DUP3 PUSH1 0x0 PUSH1 0x20 DUP1 SWAP5 SWAP6 DUP5 ADD ADD MSTORE PUSH1 0x1F DUP1 NOT SWAP2 ADD AND ADD ADD SWAP1 JUMP JUMPDEST PUSH1 0x20 DUP2 DUP4 ADD DUP2 ADD MLOAD DUP5 DUP4 ADD DUP3 ADD MSTORE ADD PUSH2 0x346B JUMP JUMPDEST PUSH1 0x4 CALLDATALOAD SWAP1 PUSH1 0x1 PUSH1 0x1 PUSH1 0xA0 SHL SUB DUP3 AND DUP3 SUB PUSH2 0x34B6 JUMPI JUMP JUMPDEST PUSH1 0x0 DUP1 REVERT JUMPDEST PUSH1 0x24 CALLDATALOAD SWAP1 PUSH1 0x1 PUSH1 0x1 PUSH1 0xA0 SHL SUB DUP3 AND DUP3 SUB PUSH2 0x34B6 JUMPI JUMP JUMPDEST DUP1 SLOAD DUP3 LT ISZERO PUSH2 0x34E9 JUMPI PUSH1 0x0 MSTORE PUSH1 0x20 PUSH1 0x0 KECCAK256 ADD SWAP1 PUSH1 0x0 SWAP1 JUMP JUMPDEST PUSH4 0x4E487B71 PUSH1 0xE0 SHL PUSH1 0x0 MSTORE PUSH1 0x32 PUSH1 0x4 MSTORE PUSH1 0x24 PUSH1 0x0 REVERT JUMPDEST SWAP2 DUP2 PUSH1 0x1F DUP5 ADD SLT ISZERO PUSH2 0x34B6 JUMPI DUP3 CALLDATALOAD SWAP2 PUSH1 0x1 PUSH1 0x1 PUSH1 0x40 SHL SUB DUP4 GT PUSH2 0x34B6 JUMPI PUSH1 0x20 DUP1 DUP6 ADD SWAP5 DUP5 PUSH1 0x5 SHL ADD ADD GT PUSH2 0x34B6 JUMPI JUMP JUMPDEST PUSH1 0x1 PUSH1 0x1 PUSH1 0x40 SHL SUB DUP2 GT PUSH2 0x1B9D JUMPI PUSH1 0x1F ADD PUSH1 0x1F NOT AND PUSH1 0x20 ADD SWAP1 JUMP JUMPDEST DUP2 PUSH1 0x1F DUP3 ADD SLT ISZERO PUSH2 0x34B6 JUMPI DUP1 CALLDATALOAD SWAP1 PUSH2 0x3561 DUP3 PUSH2 0x352F JUMP JUMPDEST SWAP3 PUSH2 0x356F PUSH1 0x40 MLOAD SWAP5 DUP6 PUSH2 0x3320 JUMP JUMPDEST DUP3 DUP5 MSTORE PUSH1 0x20 DUP4 DUP4 ADD ADD GT PUSH2 0x34B6 JUMPI DUP2 PUSH1 0x0 SWAP3 PUSH1 0x20 DUP1 SWAP4 ADD DUP4 DUP7 ADD CALLDATACOPY DUP4 ADD ADD MSTORE SWAP1 JUMP JUMPDEST PUSH2 0x104 CALLDATALOAD SWAP1 DUP2 ISZERO ISZERO DUP3 SUB PUSH2 0x34B6 JUMPI JUMP JUMPDEST PUSH1 0x1 SLOAD PUSH1 0x1 PUSH1 0x1 PUSH1 0xA0 SHL SUB AND CALLER SUB PUSH2 0x35B5 JUMPI JUMP JUMPDEST PUSH1 0x64 PUSH1 0x40 MLOAD PUSH3 0x461BCD PUSH1 0xE5 SHL DUP2 MSTORE PUSH1 0x20 PUSH1 0x4 DUP3 ADD MSTORE PUSH1 0x20 PUSH1 0x24 DUP3 ADD MSTORE PUSH32 0x4F776E61626C653A2063616C6C6572206973206E6F7420746865206F776E6572 PUSH1 0x44 DUP3 ADD MSTORE REVERT JUMPDEST ISZERO PUSH2 0x3600 JUMPI JUMP JUMPDEST PUSH1 0x40 MLOAD PUSH3 0x461BCD PUSH1 0xE5 SHL DUP2 MSTORE PUSH1 0x20 PUSH1 0x4 DUP3 ADD MSTORE PUSH1 0x14 PUSH1 0x24 DUP3 ADD MSTORE PUSH20 0x125B9D985B1A59081391950818DBDB9D1C9858DD PUSH1 0x62 SHL PUSH1 0x44 DUP3 ADD MSTORE PUSH1 0x64 SWAP1 REVERT JUMPDEST PUSH1 0x0 NOT DUP2 EQ PUSH2 0x364B JUMPI PUSH1 0x1 ADD SWAP1 JUMP JUMPDEST PUSH4 0x4E487B71 PUSH1 0xE0 SHL PUSH1 0x0 MSTORE PUSH1 0x11 PUSH1 0x4 MSTORE PUSH1 0x24 PUSH1 0x0 REVERT JUMPDEST PUSH1 0x5 DUP3 LT ISZERO PUSH2 0x3440 JUMPI MSTORE JUMP JUMPDEST SWAP1 PUSH1 0x5 DUP2 LT ISZERO PUSH2 0x3440 JUMPI PUSH1 0xFF DUP1 NOT DUP4 SLOAD AND SWAP2 AND OR SWAP1 SSTORE JUMP JUMPDEST SWAP1 DUP2 SLOAD SWAP2 PUSH9 0x10000000000000000 DUP4 LT ISZERO PUSH2 0x1B9D JUMPI DUP3 PUSH2 0x2516 SWAP2 PUSH1 0x1 PUSH2 0x337F SWAP6 ADD DUP2 SSTORE PUSH2 0x34D1 JUMP JUMPDEST RETURNDATASIZE ISZERO PUSH2 0x36D8 JUMPI RETURNDATASIZE SWAP1 PUSH2 0x36BE DUP3 PUSH2 0x352F JUMP JUMPDEST SWAP2 PUSH2 0x36CC PUSH1 0x40 MLOAD SWAP4 DUP5 PUSH2 0x3320 JUMP JUMPDEST DUP3 MSTORE RETURNDATASIZE PUSH1 0x0 PUSH1 0x20 DUP5 ADD RETURNDATACOPY JUMP JUMPDEST PUSH1 0x60 SWAP1 JUMP JUMPDEST ISZERO PUSH2 0x36E4 JUMPI JUMP JUMPDEST PUSH1 0x40 MLOAD PUSH3 0x461BCD PUSH1 0xE5 SHL DUP2 MSTORE PUSH1 0x20 PUSH1 0x4 DUP3 ADD MSTORE PUSH1 0x13 PUSH1 0x24 DUP3 ADD MSTORE PUSH19 0x119959481D1C985B9CD9995C8819985A5B1959 PUSH1 0x6A SHL PUSH1 0x44 DUP3 ADD MSTORE PUSH1 0x64 SWAP1 REVERT JUMPDEST SWAP2 SWAP1 DUP3 SUB SWAP2 DUP3 GT PUSH2 0x364B JUMPI JUMP JUMPDEST ISZERO PUSH2 0x3733 JUMPI JUMP JUMPDEST PUSH1 0x40 MLOAD PUSH3 0x461BCD PUSH1 0xE5 SHL DUP2 MSTORE PUSH1 0x20 PUSH1 0x4 DUP3 ADD MSTORE PUSH1 0xD PUSH1 0x24 DUP3 ADD MSTORE PUSH13 0x1499599D5B990819985A5B1959 PUSH1 0x9A SHL PUSH1 0x44 DUP3 ADD MSTORE PUSH1 0x64 SWAP1 REVERT JUMPDEST PUSH1 0xFF PUSH1 0x1 SLOAD PUSH1 0xA0 SHR AND PUSH2 0x3777 JUMPI JUMP JUMPDEST PUSH1 0x40 MLOAD PUSH3 0x461BCD PUSH1 0xE5 SHL DUP2 MSTORE PUSH1 0x20 PUSH1 0x4 DUP3 ADD MSTORE PUSH1 0x10 PUSH1 0x24 DUP3 ADD MSTORE PUSH16 0x14185D5CD8589B194E881C185D5CD959 PUSH1 0x82 SHL PUSH1 0x44 DUP3 ADD MSTORE PUSH1 0x64 SWAP1 REVERT JUMPDEST PUSH1 0x2 PUSH1 0x0 SLOAD EQ PUSH2 0x37C0 JUMPI PUSH1 0x2 PUSH1 0x0 SSTORE JUMP JUMPDEST PUSH1 0x40 MLOAD PUSH3 0x461BCD PUSH1 0xE5 SHL DUP2 MSTORE PUSH1 0x20 PUSH1 0x4 DUP3 ADD MSTORE PUSH1 0x1F PUSH1 0x24 DUP3 ADD MSTORE PUSH32 0x5265656E7472616E637947756172643A207265656E7472616E742063616C6C00 PUSH1 0x44 DUP3 ADD MSTORE PUSH1 0x64 SWAP1 REVERT JUMPDEST ISZERO PUSH2 0x380C JUMPI JUMP JUMPDEST PUSH1 0x40 MLOAD PUSH3 0x461BCD PUSH1 0xE5 SHL DUP2 MSTORE PUSH1 0x20 PUSH1 0x4 DUP3 ADD MSTORE PUSH1 0x12 PUSH1 0x24 DUP3 ADD MSTORE PUSH18 0x47616D65206E6F7420617661696C61626C65 PUSH1 0x70 SHL PUSH1 0x44 DUP3 ADD MSTORE PUSH1 0x64 SWAP1 REVERT JUMPDEST ISZERO PUSH2 0x384D JUMPI JUMP JUMPDEST PUSH1 0x40 MLOAD PUSH3 0x461BCD PUSH1 0xE5 SHL DUP2 MSTORE PUSH1 0x20 PUSH1 0x4 DUP3 ADD MSTORE PUSH1 0x14 PUSH1 0x24 DUP3 ADD MSTORE PUSH20 0x43616E6E6F74206A6F696E206F776E2067616D65 PUSH1 0x60 SHL PUSH1 0x44 DUP3 ADD MSTORE PUSH1 0x64 SWAP1 REVERT JUMPDEST DUP2 DUP2 MUL SWAP3 SWAP2 DUP2 ISZERO SWAP2 DUP5 DIV EQ OR ISZERO PUSH2 0x364B JUMPI JUMP JUMPDEST ISZERO PUSH2 0x38A3 JUMPI JUMP JUMPDEST PUSH1 0x40 MLOAD PUSH3 0x461BCD PUSH1 0xE5 SHL DUP2 MSTORE PUSH1 0x20 PUSH1 0x4 DUP3 ADD MSTORE PUSH1 0x14 PUSH1 0x24 DUP3 ADD MSTORE PUSH20 0x125B9CDD59999A58DA595B9D081C185E5B595B9D PUSH1 0x62 SHL PUSH1 0x44 DUP3 ADD MSTORE PUSH1 0x64 SWAP1 REVERT JUMPDEST ISZERO PUSH2 0x38E6 JUMPI JUMP JUMPDEST PUSH1 0x40 MLOAD PUSH3 0x461BCD PUSH1 0xE5 SHL DUP2 MSTORE PUSH1 0x20 PUSH1 0x4 DUP3 ADD MSTORE PUSH1 0x1C PUSH1 0x24 DUP3 ADD MSTORE PUSH32 0x506C6174666F726D20666565207472616E73666572206661696C656400000000 PUSH1 0x44 DUP3 ADD MSTORE PUSH1 0x64 SWAP1 REVERT JUMPDEST SWAP2 SWAP1 DUP3 ADD DUP1 SWAP3 GT PUSH2 0x364B JUMPI JUMP JUMPDEST MLOAD SWAP1 PUSH10 0xFFFFFFFFFFFFFFFFFFFF DUP3 AND DUP3 SUB PUSH2 0x34B6 JUMPI JUMP JUMPDEST PUSH1 0xB SLOAD PUSH1 0x40 MLOAD PUSH4 0x3FABE5A3 PUSH1 0xE2 SHL DUP2 MSTORE SWAP2 SWAP1 PUSH1 0xA0 SWAP1 DUP4 SWAP1 PUSH1 0x4 SWAP1 DUP3 SWAP1 PUSH1 0x1 PUSH1 0x1 PUSH1 0xA0 SHL SUB AND GAS STATICCALL SWAP2 DUP3 ISZERO PUSH2 0x3A52 JUMPI PUSH1 0x0 SWAP3 PUSH2 0x3A04 JUMPI JUMPDEST POP PUSH1 0x0 DUP3 SGT ISZERO PUSH2 0x39CA JUMPI PUSH9 0x56BC75E2D63100000 SWAP1 DUP2 DUP2 MUL SWAP2 DUP2 DUP4 DIV EQ SWAP1 ISZERO OR ISZERO PUSH2 0x364B JUMPI DUP2 ISZERO PUSH2 0x39B4 JUMPI DIV SWAP1 JUMP JUMPDEST PUSH4 0x4E487B71 PUSH1 0xE0 SHL PUSH1 0x0 MSTORE PUSH1 0x12 PUSH1 0x4 MSTORE PUSH1 0x24 PUSH1 0x0 REVERT JUMPDEST PUSH1 0x40 MLOAD PUSH3 0x461BCD PUSH1 0xE5 SHL DUP2 MSTORE PUSH1 0x20 PUSH1 0x4 DUP3 ADD MSTORE PUSH1 0x12 PUSH1 0x24 DUP3 ADD MSTORE PUSH18 0x125B9D985B1A59081C1C9A58D94819995959 PUSH1 0x72 SHL PUSH1 0x44 DUP3 ADD MSTORE PUSH1 0x64 SWAP1 REVERT JUMPDEST SWAP1 SWAP2 PUSH1 0xA0 DUP3 RETURNDATASIZE DUP3 GT PUSH2 0x3A4A JUMPI JUMPDEST DUP2 PUSH2 0x3A1E PUSH1 0xA0 SWAP4 DUP4 PUSH2 0x3320 JUMP JUMPDEST DUP2 ADD SUB SLT PUSH2 0x27A JUMPI POP PUSH2 0x3A30 DUP2 PUSH2 0x3938 JUMP JUMPDEST POP PUSH2 0x3A42 PUSH1 0x80 PUSH1 0x20 DUP4 ADD MLOAD SWAP3 ADD PUSH2 0x3938 JUMP JUMPDEST POP SWAP1 CODESIZE PUSH2 0x3985 JUMP JUMPDEST RETURNDATASIZE SWAP2 POP PUSH2 0x3A11 JUMP JUMPDEST PUSH1 0x40 MLOAD RETURNDATASIZE PUSH1 0x0 DUP3 RETURNDATACOPY RETURNDATASIZE SWAP1 REVERT JUMPDEST SWAP2 SWAP1 DUP2 LT ISZERO PUSH2 0x34E9 JUMPI PUSH1 0x5 SHL ADD SWAP1 JUMP JUMPDEST CALLDATALOAD PUSH1 0x1 PUSH1 0x1 PUSH1 0xA0 SHL SUB DUP2 AND DUP2 SUB PUSH2 0x34B6 JUMPI SWAP1 JUMP JUMPDEST SWAP1 DUP2 PUSH1 0x20 SWAP2 SUB SLT PUSH2 0x34B6 JUMPI MLOAD PUSH1 0x1 PUSH1 0x1 PUSH1 0xA0 SHL SUB DUP2 AND DUP2 SUB PUSH2 0x34B6 JUMPI SWAP1 JUMP JUMPDEST ISZERO PUSH2 0x3AA8 JUMPI JUMP JUMPDEST PUSH1 0x40 MLOAD PUSH3 0x461BCD PUSH1 0xE5 SHL DUP2 MSTORE PUSH1 0x20 PUSH1 0x4 DUP3 ADD MSTORE PUSH1 0x12 PUSH1 0x24 DUP3 ADD MSTORE PUSH18 0x496E76616C69642067616D65207374617465 PUSH1 0x70 SHL PUSH1 0x44 DUP3 ADD MSTORE PUSH1 0x64 SWAP1 REVERT INVALID LOG2 PUSH5 0x6970667358 0x22 SLT KECCAK256 0xBD 0xE6 0xAA 0xE0 BASEFEE MSTORE8 0xC2 0xC3 0xD9 LOG3 0x5C PUSH27 0x661EC95F5AFF01B59CD5770ED951640757AB9A9D64736F6C634300 ADDMOD EQ STOP CALLER "},"methodIdentifiers":{"BASIS_POINTS()":"e1f1c4a7","adminBatchWithdrawNFTs(address[],uint256[],address[])":"cb9a2630","cancelGame(uint256)":"69958ab9","cancelGameWithRefund(uint256)":"623c0df2","createAndStartGame(address,address,uint256,uint256,uint8,string,string,string,bool)":"e63d8745","createGame(address,uint256,uint256,uint8,uint8,string,string,string,bool)":"e25f494b","depositCryptoForGame(uint256)":"cf309490","depositNFTForGame(uint256,address,uint256)":"f21f8025","emergencyPause()":"51858e27","emergencyWithdrawETH()":"84536017","ethUsdFeed()":"8009b7bd","games(uint256)":"117a5b90","getETHAmount(uint256)":"ef46b2ab","getGameDetails(uint256)":"1b31abda","getGameRoundDetails(uint256)":"b87b7fcc","getUserGames(address)":"120aace6","joinGame(uint256)":"efaa55a0","joinGameWithPrice(uint256,uint256)":"636e9974","listingFeeUSD()":"3a38d063","nextGameId()":"b135bbb0","owner()":"8da5cb5b","paused()":"5c975abb","platformFeePercent()":"8c639a85","platformFeeReceiver()":"2d656ad7","playRound(uint256)":"019e485e","renounceOwnership()":"715018a6","setListingFee(uint256)":"131dbd09","setPlatformFee(uint256)":"12e8e2c3","transferOwnership(address)":"f2fde38b","unclaimedETH(address)":"1a68b691","unclaimedNFTs(address,address,uint256)":"aa4209b8","unclaimedUSDC(address)":"95d11520","unpause()":"3f4ba83a","usdcToken()":"11eac855","userGames(address,uint256)":"bc0167cd","withdrawNFT(address,uint256)":"6088e93a","withdrawRewards()":"c7b8981c"}}}}}