{
  "_format": "hh-sol-artifact-1",
  "contractName": "NFTFlipGame",
  "sourceName": "contracts/NFTFlipGame.sol",
  "abi": [
    {
      "inputs": [
        {
          "internalType": "address",
          "name": "_platformFeeReceiver",
          "type": "address"
        },
        {
          "internalType": "address",
          "name": "_usdcToken",
          "type": "address"
        }
      ],
      "stateMutability": "nonpayable",
      "type": "constructor"
    },
    {
      "anonymous": false,
      "inputs": [
        {
          "indexed": true,
          "internalType": "bytes32",
          "name": "gameId",
          "type": "bytes32"
        },
        {
          "indexed": true,
          "internalType": "address",
          "name": "reclaimer",
          "type": "address"
        },
        {
          "indexed": false,
          "internalType": "string",
          "name": "assetType",
          "type": "string"
        }
      ],
      "name": "AssetsReclaimed",
      "type": "event"
    },
    {
      "anonymous": false,
      "inputs": [
        {
          "indexed": true,
          "internalType": "bytes32",
          "name": "gameId",
          "type": "bytes32"
        },
        {
          "indexed": true,
          "internalType": "address",
          "name": "winner",
          "type": "address"
        }
      ],
      "name": "BattleRoyaleCompleted",
      "type": "event"
    },
    {
      "anonymous": false,
      "inputs": [
        {
          "indexed": true,
          "internalType": "bytes32",
          "name": "gameId",
          "type": "bytes32"
        },
        {
          "indexed": true,
          "internalType": "address",
          "name": "creator",
          "type": "address"
        },
        {
          "indexed": false,
          "internalType": "uint256",
          "name": "entryFee",
          "type": "uint256"
        },
        {
          "indexed": false,
          "internalType": "uint256",
          "name": "serviceFee",
          "type": "uint256"
        }
      ],
      "name": "BattleRoyaleCreated",
      "type": "event"
    },
    {
      "anonymous": false,
      "inputs": [
        {
          "indexed": true,
          "internalType": "bytes32",
          "name": "gameId",
          "type": "bytes32"
        },
        {
          "indexed": true,
          "internalType": "address",
          "name": "creator",
          "type": "address"
        },
        {
          "indexed": false,
          "internalType": "uint256",
          "name": "amount",
          "type": "uint256"
        }
      ],
      "name": "BattleRoyaleCreatorPaid",
      "type": "event"
    },
    {
      "anonymous": false,
      "inputs": [
        {
          "indexed": true,
          "internalType": "bytes32",
          "name": "gameId",
          "type": "bytes32"
        },
        {
          "indexed": true,
          "internalType": "address",
          "name": "player",
          "type": "address"
        },
        {
          "indexed": false,
          "internalType": "uint256",
          "name": "amount",
          "type": "uint256"
        }
      ],
      "name": "BattleRoyaleJoined",
      "type": "event"
    },
    {
      "anonymous": false,
      "inputs": [
        {
          "indexed": true,
          "internalType": "bytes32",
          "name": "gameId",
          "type": "bytes32"
        },
        {
          "indexed": true,
          "internalType": "address",
          "name": "winner",
          "type": "address"
        }
      ],
      "name": "BattleRoyaleNFTClaimed",
      "type": "event"
    },
    {
      "anonymous": false,
      "inputs": [
        {
          "indexed": true,
          "internalType": "bytes32",
          "name": "gameId",
          "type": "bytes32"
        },
        {
          "indexed": false,
          "internalType": "uint8",
          "name": "playerCount",
          "type": "uint8"
        }
      ],
      "name": "BattleRoyaleStarted",
      "type": "event"
    },
    {
      "anonymous": false,
      "inputs": [
        {
          "indexed": true,
          "internalType": "bytes32",
          "name": "gameId",
          "type": "bytes32"
        },
        {
          "indexed": true,
          "internalType": "address",
          "name": "depositor",
          "type": "address"
        },
        {
          "indexed": false,
          "internalType": "uint256",
          "name": "amount",
          "type": "uint256"
        }
      ],
      "name": "ETHDeposited",
      "type": "event"
    },
    {
      "anonymous": false,
      "inputs": [
        {
          "indexed": true,
          "internalType": "bytes32",
          "name": "gameId",
          "type": "bytes32"
        },
        {
          "indexed": true,
          "internalType": "address",
          "name": "winner",
          "type": "address"
        }
      ],
      "name": "GameCompleted",
      "type": "event"
    },
    {
      "anonymous": false,
      "inputs": [
        {
          "indexed": true,
          "internalType": "bytes32",
          "name": "gameId",
          "type": "bytes32"
        },
        {
          "indexed": false,
          "internalType": "address",
          "name": "nftDepositor",
          "type": "address"
        },
        {
          "indexed": false,
          "internalType": "address",
          "name": "cryptoDepositor",
          "type": "address"
        }
      ],
      "name": "GameReady",
      "type": "event"
    },
    {
      "anonymous": false,
      "inputs": [
        {
          "indexed": true,
          "internalType": "bytes32",
          "name": "gameId",
          "type": "bytes32"
        },
        {
          "indexed": true,
          "internalType": "address",
          "name": "depositor",
          "type": "address"
        },
        {
          "indexed": false,
          "internalType": "address",
          "name": "nftContract",
          "type": "address"
        },
        {
          "indexed": false,
          "internalType": "uint256",
          "name": "tokenId",
          "type": "uint256"
        }
      ],
      "name": "NFTDeposited",
      "type": "event"
    },
    {
      "anonymous": false,
      "inputs": [
        {
          "indexed": true,
          "internalType": "address",
          "name": "previousOwner",
          "type": "address"
        },
        {
          "indexed": true,
          "internalType": "address",
          "name": "newOwner",
          "type": "address"
        }
      ],
      "name": "OwnershipTransferred",
      "type": "event"
    },
    {
      "anonymous": false,
      "inputs": [
        {
          "indexed": false,
          "internalType": "address",
          "name": "account",
          "type": "address"
        }
      ],
      "name": "Paused",
      "type": "event"
    },
    {
      "anonymous": false,
      "inputs": [
        {
          "indexed": true,
          "internalType": "bytes32",
          "name": "gameId",
          "type": "bytes32"
        },
        {
          "indexed": true,
          "internalType": "address",
          "name": "depositor",
          "type": "address"
        },
        {
          "indexed": false,
          "internalType": "uint256",
          "name": "amount",
          "type": "uint256"
        }
      ],
      "name": "USDCDeposited",
      "type": "event"
    },
    {
      "anonymous": false,
      "inputs": [
        {
          "indexed": false,
          "internalType": "address",
          "name": "account",
          "type": "address"
        }
      ],
      "name": "Unpaused",
      "type": "event"
    },
    {
      "anonymous": false,
      "inputs": [
        {
          "indexed": true,
          "internalType": "bytes32",
          "name": "gameId",
          "type": "bytes32"
        },
        {
          "indexed": true,
          "internalType": "address",
          "name": "winner",
          "type": "address"
        }
      ],
      "name": "WinningsWithdrawn",
      "type": "event"
    },
    {
      "inputs": [],
      "name": "BASIS_POINTS",
      "outputs": [
        {
          "internalType": "uint256",
          "name": "",
          "type": "uint256"
        }
      ],
      "stateMutability": "view",
      "type": "function"
    },
    {
      "inputs": [
        {
          "internalType": "bytes32[]",
          "name": "gameIds",
          "type": "bytes32[]"
        },
        {
          "internalType": "address[]",
          "name": "recipients",
          "type": "address[]"
        }
      ],
      "name": "adminBatchWithdrawNFTs",
      "outputs": [],
      "stateMutability": "nonpayable",
      "type": "function"
    },
    {
      "inputs": [
        {
          "internalType": "bytes32",
          "name": "",
          "type": "bytes32"
        },
        {
          "internalType": "address",
          "name": "",
          "type": "address"
        }
      ],
      "name": "battleRoyaleEntries",
      "outputs": [
        {
          "internalType": "bool",
          "name": "",
          "type": "bool"
        }
      ],
      "stateMutability": "view",
      "type": "function"
    },
    {
      "inputs": [
        {
          "internalType": "bytes32",
          "name": "",
          "type": "bytes32"
        },
        {
          "internalType": "address",
          "name": "",
          "type": "address"
        }
      ],
      "name": "battleRoyaleEntryAmounts",
      "outputs": [
        {
          "internalType": "uint256",
          "name": "",
          "type": "uint256"
        }
      ],
      "stateMutability": "view",
      "type": "function"
    },
    {
      "inputs": [
        {
          "internalType": "bytes32",
          "name": "",
          "type": "bytes32"
        }
      ],
      "name": "battleRoyaleGames",
      "outputs": [
        {
          "internalType": "address",
          "name": "creator",
          "type": "address"
        },
        {
          "internalType": "address",
          "name": "nftContract",
          "type": "address"
        },
        {
          "internalType": "uint256",
          "name": "tokenId",
          "type": "uint256"
        },
        {
          "internalType": "uint256",
          "name": "entryFee",
          "type": "uint256"
        },
        {
          "internalType": "uint256",
          "name": "serviceFee",
          "type": "uint256"
        },
        {
          "internalType": "uint8",
          "name": "maxPlayers",
          "type": "uint8"
        },
        {
          "internalType": "uint8",
          "name": "currentPlayers",
          "type": "uint8"
        },
        {
          "internalType": "address",
          "name": "winner",
          "type": "address"
        },
        {
          "internalType": "bool",
          "name": "completed",
          "type": "bool"
        },
        {
          "internalType": "bool",
          "name": "creatorPaid",
          "type": "bool"
        },
        {
          "internalType": "bool",
          "name": "nftClaimed",
          "type": "bool"
        },
        {
          "internalType": "uint256",
          "name": "totalPool",
          "type": "uint256"
        },
        {
          "internalType": "uint256",
          "name": "createdAt",
          "type": "uint256"
        },
        {
          "internalType": "bool",
          "name": "isUnder20",
          "type": "bool"
        },
        {
          "internalType": "uint256",
          "name": "minUnder20Wei",
          "type": "uint256"
        }
      ],
      "stateMutability": "view",
      "type": "function"
    },
    {
      "inputs": [
        {
          "internalType": "bytes32",
          "name": "gameId",
          "type": "bytes32"
        },
        {
          "internalType": "address",
          "name": "winner",
          "type": "address"
        }
      ],
      "name": "completeBattleRoyale",
      "outputs": [],
      "stateMutability": "nonpayable",
      "type": "function"
    },
    {
      "inputs": [
        {
          "internalType": "bytes32",
          "name": "gameId",
          "type": "bytes32"
        },
        {
          "internalType": "address",
          "name": "winner",
          "type": "address"
        }
      ],
      "name": "completeGame",
      "outputs": [],
      "stateMutability": "nonpayable",
      "type": "function"
    },
    {
      "inputs": [
        {
          "internalType": "bytes32",
          "name": "gameId",
          "type": "bytes32"
        },
        {
          "internalType": "address",
          "name": "nftContract",
          "type": "address"
        },
        {
          "internalType": "uint256",
          "name": "tokenId",
          "type": "uint256"
        },
        {
          "internalType": "uint256",
          "name": "entryFee",
          "type": "uint256"
        },
        {
          "internalType": "uint256",
          "name": "serviceFee",
          "type": "uint256"
        },
        {
          "internalType": "bool",
          "name": "isUnder20",
          "type": "bool"
        },
        {
          "internalType": "uint256",
          "name": "minUnder20Wei",
          "type": "uint256"
        }
      ],
      "name": "createBattleRoyale",
      "outputs": [],
      "stateMutability": "nonpayable",
      "type": "function"
    },
    {
      "inputs": [
        {
          "internalType": "bytes32",
          "name": "gameId",
          "type": "bytes32"
        }
      ],
      "name": "depositETH",
      "outputs": [],
      "stateMutability": "payable",
      "type": "function"
    },
    {
      "inputs": [
        {
          "internalType": "bytes32",
          "name": "gameId",
          "type": "bytes32"
        },
        {
          "internalType": "address",
          "name": "nftContract",
          "type": "address"
        },
        {
          "internalType": "uint256",
          "name": "tokenId",
          "type": "uint256"
        }
      ],
      "name": "depositNFT",
      "outputs": [],
      "stateMutability": "nonpayable",
      "type": "function"
    },
    {
      "inputs": [],
      "name": "depositTimeout",
      "outputs": [
        {
          "internalType": "uint256",
          "name": "",
          "type": "uint256"
        }
      ],
      "stateMutability": "view",
      "type": "function"
    },
    {
      "inputs": [
        {
          "internalType": "bytes32",
          "name": "gameId",
          "type": "bytes32"
        },
        {
          "internalType": "uint256",
          "name": "amount",
          "type": "uint256"
        }
      ],
      "name": "depositUSDC",
      "outputs": [],
      "stateMutability": "nonpayable",
      "type": "function"
    },
    {
      "inputs": [
        {
          "internalType": "address[]",
          "name": "nftContracts",
          "type": "address[]"
        },
        {
          "internalType": "uint256[]",
          "name": "tokenIds",
          "type": "uint256[]"
        },
        {
          "internalType": "address[]",
          "name": "recipients",
          "type": "address[]"
        }
      ],
      "name": "directBatchTransferNFTs",
      "outputs": [],
      "stateMutability": "nonpayable",
      "type": "function"
    },
    {
      "inputs": [
        {
          "internalType": "address",
          "name": "nftContract",
          "type": "address"
        },
        {
          "internalType": "uint256",
          "name": "tokenId",
          "type": "uint256"
        },
        {
          "internalType": "address",
          "name": "recipient",
          "type": "address"
        }
      ],
      "name": "directTransferNFT",
      "outputs": [],
      "stateMutability": "nonpayable",
      "type": "function"
    },
    {
      "inputs": [
        {
          "internalType": "bytes32",
          "name": "gameId",
          "type": "bytes32"
        },
        {
          "internalType": "address",
          "name": "recipient",
          "type": "address"
        }
      ],
      "name": "emergencyWithdrawETH",
      "outputs": [],
      "stateMutability": "nonpayable",
      "type": "function"
    },
    {
      "inputs": [
        {
          "internalType": "bytes32",
          "name": "gameId",
          "type": "bytes32"
        },
        {
          "internalType": "address",
          "name": "recipient",
          "type": "address"
        }
      ],
      "name": "emergencyWithdrawNFT",
      "outputs": [],
      "stateMutability": "nonpayable",
      "type": "function"
    },
    {
      "inputs": [
        {
          "internalType": "bytes32",
          "name": "gameId",
          "type": "bytes32"
        },
        {
          "internalType": "address",
          "name": "recipient",
          "type": "address"
        }
      ],
      "name": "emergencyWithdrawUSDC",
      "outputs": [],
      "stateMutability": "nonpayable",
      "type": "function"
    },
    {
      "inputs": [
        {
          "internalType": "bytes32",
          "name": "",
          "type": "bytes32"
        }
      ],
      "name": "ethDeposits",
      "outputs": [
        {
          "internalType": "address",
          "name": "depositor",
          "type": "address"
        },
        {
          "internalType": "uint256",
          "name": "amount",
          "type": "uint256"
        },
        {
          "internalType": "bool",
          "name": "claimed",
          "type": "bool"
        },
        {
          "internalType": "uint256",
          "name": "depositTime",
          "type": "uint256"
        }
      ],
      "stateMutability": "view",
      "type": "function"
    },
    {
      "inputs": [
        {
          "internalType": "bytes32",
          "name": "",
          "type": "bytes32"
        }
      ],
      "name": "gameResults",
      "outputs": [
        {
          "internalType": "address",
          "name": "winner",
          "type": "address"
        },
        {
          "internalType": "bool",
          "name": "completed",
          "type": "bool"
        },
        {
          "internalType": "uint256",
          "name": "completionTime",
          "type": "uint256"
        }
      ],
      "stateMutability": "view",
      "type": "function"
    },
    {
      "inputs": [
        {
          "internalType": "bytes32",
          "name": "gameId",
          "type": "bytes32"
        },
        {
          "internalType": "address",
          "name": "player",
          "type": "address"
        }
      ],
      "name": "getBattleRoyaleEntryAmount",
      "outputs": [
        {
          "internalType": "uint256",
          "name": "",
          "type": "uint256"
        }
      ],
      "stateMutability": "view",
      "type": "function"
    },
    {
      "inputs": [
        {
          "internalType": "bytes32",
          "name": "gameId",
          "type": "bytes32"
        }
      ],
      "name": "getBattleRoyaleGame",
      "outputs": [
        {
          "components": [
            {
              "internalType": "address",
              "name": "creator",
              "type": "address"
            },
            {
              "internalType": "address",
              "name": "nftContract",
              "type": "address"
            },
            {
              "internalType": "uint256",
              "name": "tokenId",
              "type": "uint256"
            },
            {
              "internalType": "uint256",
              "name": "entryFee",
              "type": "uint256"
            },
            {
              "internalType": "uint256",
              "name": "serviceFee",
              "type": "uint256"
            },
            {
              "internalType": "uint8",
              "name": "maxPlayers",
              "type": "uint8"
            },
            {
              "internalType": "uint8",
              "name": "currentPlayers",
              "type": "uint8"
            },
            {
              "internalType": "address",
              "name": "winner",
              "type": "address"
            },
            {
              "internalType": "bool",
              "name": "completed",
              "type": "bool"
            },
            {
              "internalType": "bool",
              "name": "creatorPaid",
              "type": "bool"
            },
            {
              "internalType": "bool",
              "name": "nftClaimed",
              "type": "bool"
            },
            {
              "internalType": "uint256",
              "name": "totalPool",
              "type": "uint256"
            },
            {
              "internalType": "uint256",
              "name": "createdAt",
              "type": "uint256"
            },
            {
              "internalType": "bool",
              "name": "isUnder20",
              "type": "bool"
            },
            {
              "internalType": "uint256",
              "name": "minUnder20Wei",
              "type": "uint256"
            }
          ],
          "internalType": "struct NFTFlipGame.BattleRoyaleGame",
          "name": "",
          "type": "tuple"
        }
      ],
      "stateMutability": "view",
      "type": "function"
    },
    {
      "inputs": [
        {
          "internalType": "bytes32",
          "name": "gameId",
          "type": "bytes32"
        }
      ],
      "name": "getGameParticipants",
      "outputs": [
        {
          "internalType": "address",
          "name": "nftPlayer",
          "type": "address"
        },
        {
          "internalType": "address",
          "name": "cryptoPlayer",
          "type": "address"
        }
      ],
      "stateMutability": "view",
      "type": "function"
    },
    {
      "inputs": [
        {
          "internalType": "bytes32",
          "name": "gameId",
          "type": "bytes32"
        },
        {
          "internalType": "address",
          "name": "player",
          "type": "address"
        }
      ],
      "name": "hasBattleRoyaleEntry",
      "outputs": [
        {
          "internalType": "bool",
          "name": "",
          "type": "bool"
        }
      ],
      "stateMutability": "view",
      "type": "function"
    },
    {
      "inputs": [
        {
          "internalType": "bytes32",
          "name": "gameId",
          "type": "bytes32"
        }
      ],
      "name": "isGameReady",
      "outputs": [
        {
          "internalType": "bool",
          "name": "",
          "type": "bool"
        }
      ],
      "stateMutability": "view",
      "type": "function"
    },
    {
      "inputs": [
        {
          "internalType": "bytes32",
          "name": "gameId",
          "type": "bytes32"
        }
      ],
      "name": "joinBattleRoyale",
      "outputs": [],
      "stateMutability": "payable",
      "type": "function"
    },
    {
      "inputs": [
        {
          "internalType": "bytes32",
          "name": "",
          "type": "bytes32"
        }
      ],
      "name": "nftDeposits",
      "outputs": [
        {
          "internalType": "address",
          "name": "depositor",
          "type": "address"
        },
        {
          "internalType": "address",
          "name": "nftContract",
          "type": "address"
        },
        {
          "internalType": "uint256",
          "name": "tokenId",
          "type": "uint256"
        },
        {
          "internalType": "bool",
          "name": "claimed",
          "type": "bool"
        },
        {
          "internalType": "uint256",
          "name": "depositTime",
          "type": "uint256"
        }
      ],
      "stateMutability": "view",
      "type": "function"
    },
    {
      "inputs": [],
      "name": "owner",
      "outputs": [
        {
          "internalType": "address",
          "name": "",
          "type": "address"
        }
      ],
      "stateMutability": "view",
      "type": "function"
    },
    {
      "inputs": [],
      "name": "pause",
      "outputs": [],
      "stateMutability": "nonpayable",
      "type": "function"
    },
    {
      "inputs": [],
      "name": "paused",
      "outputs": [
        {
          "internalType": "bool",
          "name": "",
          "type": "bool"
        }
      ],
      "stateMutability": "view",
      "type": "function"
    },
    {
      "inputs": [],
      "name": "platformFeePercent",
      "outputs": [
        {
          "internalType": "uint256",
          "name": "",
          "type": "uint256"
        }
      ],
      "stateMutability": "view",
      "type": "function"
    },
    {
      "inputs": [],
      "name": "platformFeeReceiver",
      "outputs": [
        {
          "internalType": "address",
          "name": "",
          "type": "address"
        }
      ],
      "stateMutability": "view",
      "type": "function"
    },
    {
      "inputs": [
        {
          "internalType": "bytes32",
          "name": "gameId",
          "type": "bytes32"
        }
      ],
      "name": "reclaimBattleRoyaleNFT",
      "outputs": [],
      "stateMutability": "nonpayable",
      "type": "function"
    },
    {
      "inputs": [
        {
          "internalType": "bytes32",
          "name": "gameId",
          "type": "bytes32"
        }
      ],
      "name": "reclaimCrypto",
      "outputs": [],
      "stateMutability": "nonpayable",
      "type": "function"
    },
    {
      "inputs": [
        {
          "internalType": "bytes32",
          "name": "gameId",
          "type": "bytes32"
        }
      ],
      "name": "reclaimNFT",
      "outputs": [],
      "stateMutability": "nonpayable",
      "type": "function"
    },
    {
      "inputs": [],
      "name": "renounceOwnership",
      "outputs": [],
      "stateMutability": "nonpayable",
      "type": "function"
    },
    {
      "inputs": [
        {
          "internalType": "uint256",
          "name": "_timeout",
          "type": "uint256"
        }
      ],
      "name": "setDepositTimeout",
      "outputs": [],
      "stateMutability": "nonpayable",
      "type": "function"
    },
    {
      "inputs": [
        {
          "internalType": "uint256",
          "name": "_feePercent",
          "type": "uint256"
        }
      ],
      "name": "setPlatformFeePercent",
      "outputs": [],
      "stateMutability": "nonpayable",
      "type": "function"
    },
    {
      "inputs": [
        {
          "internalType": "address",
          "name": "_receiver",
          "type": "address"
        }
      ],
      "name": "setPlatformFeeReceiver",
      "outputs": [],
      "stateMutability": "nonpayable",
      "type": "function"
    },
    {
      "inputs": [
        {
          "internalType": "address",
          "name": "newOwner",
          "type": "address"
        }
      ],
      "name": "transferOwnership",
      "outputs": [],
      "stateMutability": "nonpayable",
      "type": "function"
    },
    {
      "inputs": [],
      "name": "unpause",
      "outputs": [],
      "stateMutability": "nonpayable",
      "type": "function"
    },
    {
      "inputs": [
        {
          "internalType": "bytes32",
          "name": "",
          "type": "bytes32"
        }
      ],
      "name": "usdcDeposits",
      "outputs": [
        {
          "internalType": "address",
          "name": "depositor",
          "type": "address"
        },
        {
          "internalType": "uint256",
          "name": "amount",
          "type": "uint256"
        },
        {
          "internalType": "bool",
          "name": "claimed",
          "type": "bool"
        },
        {
          "internalType": "uint256",
          "name": "depositTime",
          "type": "uint256"
        }
      ],
      "stateMutability": "view",
      "type": "function"
    },
    {
      "inputs": [],
      "name": "usdcToken",
      "outputs": [
        {
          "internalType": "address",
          "name": "",
          "type": "address"
        }
      ],
      "stateMutability": "view",
      "type": "function"
    },
    {
      "inputs": [
        {
          "internalType": "bytes32",
          "name": "gameId",
          "type": "bytes32"
        }
      ],
      "name": "withdrawCreatorFunds",
      "outputs": [],
      "stateMutability": "nonpayable",
      "type": "function"
    },
    {
      "inputs": [
        {
          "internalType": "bytes32",
          "name": "gameId",
          "type": "bytes32"
        }
      ],
      "name": "withdrawWinnerNFT",
      "outputs": [],
      "stateMutability": "nonpayable",
      "type": "function"
    },
    {
      "inputs": [
        {
          "internalType": "bytes32",
          "name": "gameId",
          "type": "bytes32"
        }
      ],
      "name": "withdrawWinnings",
      "outputs": [],
      "stateMutability": "nonpayable",
      "type": "function"
    }
  ],
  "bytecode": "0x608034620000eb57601f62003a1c38819003918201601f19168301916001600160401b03831184841017620000f0578084926040948552833981010312620000eb576200005a6020620000528362000106565b920162000106565b9060016000556001546040519260018060a01b0391338382167f8be0079c531659141344cd1fd0a4f28419497f9722a3daafe3b4186f6b6457e0600080a36001600160a81b0319163360ff60a01b19161760015560786009556101f4600a55600b80546001600160a01b0319908116948416949094179055600c8054909316911617905561390090816200011c8239f35b600080fd5b634e487b7160e01b600052604160045260246000fd5b51906001600160a01b0382168203620000eb5756fe6080604052600436101561001257600080fd5b60003560e01c806310738f7214612f3a57806311eac85514612f1157806315e85e6d14612eaa5780631702e69314610dc15780631daedc1014612e455780632762737314612e245780632d656ad714612dfb57806331b7222c146129835780633f4ba83a146128e75780634989f9be1461289a5780635c975abb14612874578063615318c71461285657806361a42744146126bd57806366fa99181461258f57806369de5bcc1461225e5780636e6e8e6314611fa657806370217b69146105a8578063715018a614611f495780637c34c35514611db3578063844306a514611a565780638456cb59146119f45780638aa280771461190d5780638c639a85146118ef5780638d3f98e9146117715780638da5cb5b1461174857806391ca238f146115a057806398ebcbd714611444578063a60ecd6514611243578063aae7413d1461102b578063b0f81bb814610f49578063b136d2e014610e09578063c318decc14610dc1578063cab230d214610d63578063d68d9d4e14610c3c578063de9c692214610aa9578063e0afe01c14610970578063e1850f2a146108a3578063e1f1c4a714610886578063e340977a14610843578063e9df3027146105f5578063eb4742aa146105a8578063ebd9c39c14610542578063ee53e32514610358578063f2fde38b146102945763f8d732881461020b57600080fd5b3461028f57602036600319011261028f5760043580600052600260205260018060a01b0380604060002054169160036020528160406000205416151560001461027c57600052600360205260406000205416905b604080516001600160a01b03928316815292909116602083015290f35b506004602052604060002054169061025f565b600080fd5b3461028f57602036600319011261028f576102ad61319e565b6102b56131b4565b6001600160a01b0390811690811561030457600154826001600160601b0360a01b821617600155167f8be0079c531659141344cd1fd0a4f28419497f9722a3daafe3b4186f6b6457e0600080a3005b60405162461bcd60e51b815260206004820152602660248201527f4f776e61626c653a206e6577206f776e657220697320746865207a65726f206160448201526564647265737360d01b6064820152608490fd5b3461028f57604036600319011261028f5767ffffffffffffffff60043581811161028f5761038a903690600401613157565b909160243590811161028f576103a4903690600401613157565b906103ad6131b4565b8183036105055760005b8381106103c057005b6103cb818587613773565b356000526002906020828152604060002060018060a01b0390818154161515806104f6575b610407575b5050506104029150613764565b6103b7565b6001908282820154169561042461041f878b8b613773565b613799565b90820154873b1561028f576040516323b872dd60e01b81523060048201526001600160a01b039290921660248301526044820152956000908790606490829084905af19081156104ea57610402966003926104db575b50019060ff198254161790556000805160206138ab83398151915260606104a2858a8c613773565b35926104b261041f878b8b613773565b16936009604051918083528201526809c8ca8be8482a886960bb1b6040820152a38680806103f5565b6104e490613251565b8b61047a565b6040513d6000823e3d90fd5b5060ff600382015416156103f0565b60405162461bcd60e51b8152602060048201526015602482015274082e4e4c2f240d8cadccee8d040dad2e6dac2e8c6d605b1b6044820152606490fd5b3461028f57602036600319011261028f57600435600090815260036020818152604092839020805460018201546002830154929094015485516001600160a01b0390921682529281019390935260ff161515928201929092526060810191909152608090f35b3461028f57604036600319011261028f576105c1613188565b600435600052600760205260406000209060018060a01b0316600052602052602060ff604060002054166040519015158152f35b3461028f57604036600319011261028f57600435610611613188565b9061061a6131b4565b610622613307565b60405163161f037760e31b8152600481018290526020908181602481305afa9081156104ea57600091610816575b50156107e157816000526005815261067360ff60406000205460a01c161561320c565b600082815260028252604080822054600384529120546001600160a01b0391821694908216156107cd57836000526003835281808060406000205416925b169586149182156107c1575b5050156107725760405191606083019183831067ffffffffffffffff84111761075c5760019260405285845281840190838252600560408601934285528760005252604060002094511684549160ff60a01b9051151560a01b16916affffffffffffffffffffff60a81b1617178355519101557f0bf6aee0a93e0c0696509fac1649343cafc5bf013811646e438330fe86e4c15f600080a36001600055005b634e487b7160e01b600052604160045260246000fd5b60405162461bcd60e51b815260048101839052602160248201527f57696e6e6572206d75737420626520612067616d65207061727469636970616e6044820152601d60fa1b6064820152608490fd5b168514905081866106bd565b6004835281808060406000205416926106b1565b6064906040519062461bcd60e51b82526004820152600e60248201526d47616d65206e6f7420726561647960901b6044820152fd5b6108369150823d841161083c575b61082e818361329e565b81019061345e565b84610650565b503d610824565b3461028f57602036600319011261028f5761085c61319e565b6108646131b4565b600b80546001600160a01b0319166001600160a01b0392909216919091179055005b3461028f57600036600319011261028f5760206040516127108152f35b3461028f57606036600319011261028f576108bc61319e565b6044356001600160a01b038181169283830361028f576108da6131b4565b16803b1561028f576040516323b872dd60e01b81523060048201526001600160a01b03929092166024808401919091523560448301526000908290606490829084905af180156104ea57610961575b5060006000805160206138ab833981519152606060405160208152600a60208201526913919517d112549150d560b21b6040820152a3005b61096a90613251565b81610929565b3461028f57602036600319011261028f5760043561098c613307565b6000818152600660205260409020600581018054906001600160a01b039033601084901c831603610a7357826109c960ff60029560b01c166135ae565b6109d960ff8260c01c1615613868565b60ff60c01b1916600160c01b179055600183015491909201549116803b1561028f576040516323b872dd60e01b815230600482015233602482015260448101929092526000908290606490829084905af180156104ea57610a64575b5033907f35963cc381dc9034577db15bae056c65aac30542ec3c7e3fdb5314a6ced258d4600080a36001600055005b610a6d90613251565b81610a35565b60405162461bcd60e51b815260206004820152600e60248201526d2737ba103a3432903bb4b73732b960911b6044820152606490fd5b3461028f5760208060031936011261028f57600435610ac6613307565b6000818152600283526040902080546001600160a01b03919082163303610c085760026003820192610afc60ff8554161561369b565b8460005260058652610b1960ff60406000205460a01c16156136d9565b846000526003865280604060002054161580610bf5575b610b5490610b45600486015460095490613716565b42118115610bed575b50613723565b60018301541691015490803b1561028f576040516323b872dd60e01b815230600482015233602482015260448101929092526000908290606490829084905af180156104ea57610bde575b50600160ff198254161790556003604051928084528301526213919560ea1b60408301526000805160206138ab83398151915260603393a36001600055005b610be790613251565b83610b9f565b905088610b4e565b5060048652604060002054811615610b30565b60405162461bcd60e51b815260048101859052600c60248201526b139bdd081e5bdd5c8813919560a21b6044820152606490fd5b60208060031936011261028f57600435610c54613307565b610c5c6132c0565b8060005260038252610c9460018060a01b03610c7f81604060002054161561335d565b826000526004845260406000205416156133b5565b8060005260058252610cb160ff60406000205460a01c161561320c565b3415610d2957610d2291610cf1604051610cca81613282565b3381523483820152600060408201524260608201528360005260038352604060002061340d565b817f8534743902a2fb19639aba9d7882a1a9b06d7a841874192da0738ce3973db0ae604051923484523393a36134b9565b6001600055005b60405162461bcd60e51b815260048101839052601260248201527109aeae6e840e6cadcc840e6dedaca408aa8960731b6044820152606490fd5b3461028f57602036600319011261028f57600435610d7f6131b4565b6103e88111610d8d57600a55005b60405162461bcd60e51b815260206004820152600c60248201526b08ccaca40e8dede40d0d2ced60a31b6044820152606490fd5b3461028f57604036600319011261028f57610dda613188565b600435600052600860205260406000209060018060a01b03166000526020526020604060002054604051908152f35b3461028f57604036600319011261028f57600435610e25613188565b90610e2e6131b4565b600081815260026020526040902080546001600160a01b0390811615610f11576003820190610e6160ff8354161561369b565b60028160018501541693015492803b1561028f576040516323b872dd60e01b81523060048201526001600160a01b038716602482015260448101949094526000908490606490829084905af19182156104ea576000805160206138ab83398151915293606093610f02575b50600160ff198254161790556040519460208652600d60208701526c4e46545f454d455247454e435960981b60408701521693a3005b610f0b90613251565b86610ecc565b60405162461bcd60e51b815260206004820152601060248201526f139bc81391950819195c1bdcda5d195960821b6044820152606490fd5b3461028f5760208060031936011261028f576004356000908152600282526040902080546001600160a01b039081161515918261101b575b5060038352604060002090808254161515918261100b575b508115610fdc575b506005835260ff60406000205460a01c16159082610fd4575b5081610fcc575b506040519015158152f35b905082610fc1565b915083610fba565b90506004835260406000209081541615159081610ffb575b5083610fa1565b60ff915060020154161583610ff4565b6002015460ff1615915084610f99565b6003015460ff1615915083610f81565b3461028f57602036600319011261028f5760006101c060405161104d81613265565b8281528260208201528260408201528260608201528260808201528260a08201528260c08201528260e08201528261010082015282610120820152826101408201528261016082015282610180820152826101a0820152015260043560005260066020526101e060406000206101c06040516110c881613265565b600960018060a01b038454169384835260018060a01b03600182015416602084015260028101546040840152600381015460608401526004810154608084015260ff600582015481811660a0860152818160081c1660c086015260018060a01b038160101c1660e0860152818160b01c161515610100860152818160b81c16151561012086015260c01c1615156101408401526006810154610160840152600781015461018084015260ff60088201541615156101a084015201548282015260405192835260018060a01b03602082015116602084015260408101516040840152606081015160608401526080810151608084015260ff60a08201511660a084015260ff60c08201511660c084015260018060a01b0360e08201511660e08401526101008101511515610100840152610120810151151561012084015261014081015115156101408401526101608101516101608401526101808101516101808401526101a081015115156101a084015201516101c0820152f35b3461028f57606036600319011261028f5760043561125f613188565b906044359161126c613307565b6112746132c0565b6000828152600260205260409020546001600160a01b039081166113f3578260005260056020526112b060ff60406000205460a01c161561320c565b80821690813b1561028f576040516323b872dd60e01b81523360048201523060248201526044810186905260008160648183875af180156104ea576113e4575b506040519460a086019086821067ffffffffffffffff83111761075c57610d229660047f3a2446e77599b001d6e7f8d965d64c3ec2c5222ba2a3f1cba8ad884dd7f8349d946113b589976113dc96604052338552602085019081526040850186815260608601916000835260808701944286528b6000526002602052806040600020985116906001600160601b0360a01b91828a54161789556001890192511690825416179055516002860155511515600385019060ff801983541691151516179055565b51910155604080516001600160a01b03909616865260208601919091523394918291820190565b0390a36134b9565b6113ed90613251565b856112f0565b60405162461bcd60e51b815260206004820152602360248201527f4e465420616c7265616479206465706f736974656420666f7220746869732067604482015262616d6560e81b6064820152608490fd5b3461028f57604036600319011261028f57600435611460613188565b906114696131b4565b806000526020916004835260406000209060018060a01b0390818354161561156757908291856114e8600260009601946114a760ff8754161561369b565b600c546001919091015460405163a9059cbb60e01b81526001600160a01b038616600482015260248101919091529687929186169183919082906044820190565b03925af19283156104ea576115176060946000805160206138ab8339815191529660009161154a575b50613476565b600160ff19825416179055600e604051968088528701526d555344435f454d455247454e435960901b60408701521693a3005b6115619150893d8b1161083c5761082e818361329e565b89611511565b60405162461bcd60e51b8152600481018690526011602482015270139bc81554d110c819195c1bdcda5d1959607a1b6044820152606490fd5b3461028f57602036600319011261028f576004356115bc613307565b80600052600660205260406000209060018060a01b036115e081845416331461382a565b600583018054936115f660ff8660b01c166135ae565b60ff8560b81c1661170f5760008082611665958295600684960154612710611620600a54836135ef565b049360ff60088201541680611702575b6116f4575b508361164091613602565b60ff60b81b19909a16600160b81b179055600b54165af161165f61360f565b5061364f565b600080808085335af161167661360f565b50156116af576040519182527f03d457480f8551b87fa3fd3dbfeff637f118bf3d222020e1fdb01ce64ff2339160203393a36001600055005b60405162461bcd60e51b815260206004820152601760248201527f43726561746f72207472616e73666572206661696c65640000000000000000006044820152606490fd5b600901549350611640611635565b5084600982015411611630565b60405162461bcd60e51b815260206004820152601160248201527020b63932b0b23c903bb4ba34323930bbb760791b6044820152606490fd5b3461028f57600036600319011261028f576001546040516001600160a01b039091168152602090f35b3461028f57604036600319011261028f5760043561178d613188565b906117966131b4565b61179e613307565b600081815260066020526040902080546001600160a01b0393916005916117c890861615156137ad565b019081546117dc60ff8260b01c161561320c565b60ff8082169160081c16036118b6578260005260076020526040600020938116938460005260205260ff604060002054161561187157815462010000600160b01b03191660109190911b62010000600160b01b0316178155805460ff60b01b1916600160b01b1790557fa42d11b373a7580964ade0dabdb8ce6cf3ac26374841b17aefc72de0db1c40e0600080a36001600055005b60405162461bcd60e51b815260206004820152601c60248201527f57696e6e6572206d7573742062652061207061727469636970616e74000000006044820152606490fd5b60405162461bcd60e51b815260206004820152601160248201527011d85b59481b9bdd08199d5b1b081e595d607a1b6044820152606490fd5b3461028f57600036600319011261028f576020600a54604051908152f35b3461028f57602036600319011261028f5760043560005260066020526101e0604060002060018060a01b038082541691816001820154169160028201549060038301549160048401549160058501549060068601549360078701549560ff9460098660088b015416990154996040519b8c5260208c015260408b015260608a0152608089015282821660a0890152828260081c1660c08901528160101c1660e0880152818160b01c161515610100880152818160b81c16151561012088015260c01c16151561014086015261016085015261018084015215156101a08301526101c0820152f35b3461028f57600036600319011261028f57611a0d6131b4565b611a156132c0565b6001805460ff60a01b1916600160a01b1790556040513381527f62e78cea01bee320cd4e420270b5ea74000d11b0c9f74754ebdbfc544b05a25890602090a1005b60208060031936011261028f57600435611a6e613307565b611a766132c0565b806000526006825260406000209060018060a01b0380835416611a9a8115156137ad565b3314611d6e576005830190815491611acc60ff93611abd858260b01c161561320c565b848082169160081c16106137ef565b836000526007865260406000203360005286528260406000205416611d295760038501918254611b026004880191825490613716565b96873410611ced57866000526007895260406000203360005289526040600020600160ff19825416179055866000526008895260406000203360005289523460406000205585845460081c1694868614611cd7576006611b8691611b7b60018d9901889061ff0082549160081b169061ff001916179055565b549201918254613716565b9055549081611c6b575b5050604051348152847f2825c53bdc70daeae096202f3e3cbc859d754748a51669ad2d563d4e50948cac843393a35491808360081c1692168214611c3a575b505050803411611be0576001600055005b60008080611bef819434613602565b335af1611bfa61360f565b5015611c065780610d22565b6064906040519062461bcd60e51b82526004820152600d60248201526c1499599d5b990819985a5b1959609a1b6044820152fd5b7f420af78d8860bbcb1feabd504fce7e0040d0d422c367cc47b11924866a33759791604051908152a2828083611bcf565b60008093945080928192600b54165af1611c8361360f565b5015611c925784908680611b90565b60405162461bcd60e51b815260048101869052601b60248201527f5365727669636520666565207472616e73666572206661696c656400000000006044820152606490fd5b634e487b7160e01b600052601160045260246000fd5b60405162461bcd60e51b8152600481018a90526014602482015273125b9cdd59999a58da595b9d081c185e5b595b9d60621b6044820152606490fd5b60405162461bcd60e51b815260048101879052601860248201527f416c7265616479206a6f696e656420746869732067616d6500000000000000006044820152606490fd5b60405162461bcd60e51b815260048101859052601c60248201527f43726561746f722063616e6e6f74206a6f696e206f776e2067616d65000000006044820152606490fd5b3461028f57604036600319011261028f57602435600435611dd2613307565b611dda6132c0565b806000526020916004835260018060a01b03611dfd8160406000205416156133b5565b8260005260038452611e1681604060002054161561335d565b8260005260058452611e3360ff60406000205460a01c161561320c565b8115611f0b57600c546040516323b872dd60e01b81523360048201523060248201526044810184905291859183916064918391600091165af180156104ea57610d2294611eaa7f8f5781fdb49be2343ca56c67e0fa09ece1a4887afb22f1edccd90c3632601c87928694600091611eee5750613476565b611ee0604051611eb981613282565b3381528583820152600060408201524260608201528460005260048352604060002061340d565b6040519384523393a36134b9565b611f059150833d851161083c5761082e818361329e565b88611511565b60405162461bcd60e51b81526004810185905260166024820152754d757374206465706f73697420736f6d65205553444360501b6044820152606490fd5b3461028f57600036600319011261028f57611f626131b4565b600180546001600160a01b031981169091556000906001600160a01b03167f8be0079c531659141344cd1fd0a4f28419497f9722a3daafe3b4186f6b6457e08280a3005b3461028f5760208060031936011261028f57600435611fc3613307565b8060005260058252611fe060ff60406000205460a01c16156136d9565b600081815260028352604080822054600385529120546001600160a01b0391821615919033908216036120e8575081600052600383526000808080600160408220612056600282019761203760ff8a54161561369b565b612048600384015460095490613716565b421181156120e05750613723565b0154335af161206361360f565b50156120a757600160ff198254161790556003604051928084528301526208aa8960eb1b60408301526000805160206138ab83398151915260603393a36001600055005b60405162461bcd60e51b8152600481018490526011602482015270115512081c99599d5b990819985a5b1959607a1b6044820152606490fd5b90508b610b4e565b6004845260406000205481163303612219578361216c6000928584526004835260016040852091612136600284019761212560ff8a54161561369b565b612048600386015460095490613716565b600c54929091015460405163a9059cbb60e01b815233600482015260248101919091529485939190921691839182906044820190565b03925af19081156104ea576000916121fc575b50156121c257600160ff19825416179055600460405192808452830152635553444360e01b60408301526000805160206138ab83398151915260603393a3610d22565b60405162461bcd60e51b81526004810184905260126024820152711554d110c81c99599d5b990819985a5b195960721b6044820152606490fd5b6122139150843d861161083c5761082e818361329e565b8461217f565b60405162461bcd60e51b815260048101859052601760248201527f4e6f7420796f75722063727970746f206465706f7369740000000000000000006044820152606490fd5b3461028f5760e036600319011261028f57612277613188565b60443590606435916084359160a43590811515820361028f57612298613307565b6122a06132c0565b6004356000908152600660205260409020546001600160a01b0316612554578415612510576001600160a01b031691823b1561028f576040516323b872dd60e01b81523360048201523060248201526044810182905260008160648183885af180156104ea57612501575b506040519261231984613265565b33845260208401526040830152836060830152826080830152600860a0830152600060c0830152600060e083015260006101008301526000610120830152600061014083015260006101608301524261018083015215156101a082015260c4356101c0820152600435600052600660205260096101c060406000209260018060a01b038151166001600160601b0360a01b9081865416178555600185019060018060a01b03602084015116908254161790556040810151600285015560608101516003850155608081015160048501556005840160ff60a08301511660ff1982541617815561242060ff60c084015116829061ff0082549160081b169061ff001916179055565b60e0820151815461010084015161012085015161014086015162010000600160c81b031990931662010000600160b01b0360109590951b949094169390931790151560b01b60ff60b01b161791151560b81b60ff60b81b169190911790151560c01b60ff60c01b16179055610160810151600685015561018081015160078501556101a081015160088501805491151560ff1660ff19929092169190911790550151910155604051918252602082015233907ff15d27052defdf681ad3a61e08def698543fd3c5ed921cbedf9f0c5a8edfcf66604060043592a36001600055005b61250a90613251565b8561230b565b606460405162461bcd60e51b815260206004820152602060248201527f456e74727920666565206d7573742062652067726561746572207468616e20306044820152fd5b60405162461bcd60e51b815260206004820152601360248201527247616d6520616c72656164792065786973747360681b6044820152606490fd5b3461028f57604036600319011261028f576004356125ab613188565b906125b46131b4565b600081815260036020526040902080546001600160a01b039190821615612685576000808080600160028601956125ef60ff8854161561369b565b0154885af16125fc61360f565b501561264a576000805160206138ab83398151915291606091600160ff198254161790556040519460208652600d60208701526c4554485f454d455247454e435960981b60408701521693a3005b60405162461bcd60e51b8152602060048201526013602482015272115512081d1c985b9cd9995c8819985a5b1959606a1b6044820152606490fd5b60405162461bcd60e51b815260206004820152601060248201526f139bc81155120819195c1bdcda5d195960821b6044820152606490fd5b3461028f57602036600319011261028f576004356126d9613307565b806000526006602052604060002060018060a01b03906126fd82825416331461382a565b600581019182549061271560ff8360b01c16156136d9565b61272560ff8360c01c1615613868565b6007830154620151808101809111611cd75742111561281a578161275560ff6002941660ff8360081c16106137ef565b60ff60c01b1916600160c01b178455600183015491909201549116803b1561028f576040516323b872dd60e01b815230600482015233602482015260448101929092526000908290606490829084905af180156104ea5761280b575b505460081c60ff1660005b8181106127fd578260405190602082526006602083015265109497d3919560d21b60408301526000805160206138ab83398151915260603393a36001600055005b61280690613764565b6127bc565b61281490613251565b826127b1565b60405162461bcd60e51b8152602060048201526014602482015273546f6f206561726c7920746f207265636c61696d60601b6044820152606490fd5b3461028f57600036600319011261028f576020600954604051908152f35b3461028f57600036600319011261028f57602060ff60015460a01c166040519015158152f35b3461028f57602036600319011261028f576004356000526005602052606060406000206001815491015460ff6040519260018060a01b038116845260a01c16151560208301526040820152f35b3461028f57600036600319011261028f576129006131b4565b60015460ff8160a01c16156129475760ff60a01b19166001556040513381527f5db9ee0a495bf2e6ff9c91a7834c1ba4fdd244a5e8aa4e537bd38aeae4b073aa90602090a1005b60405162461bcd60e51b815260206004820152601460248201527314185d5cd8589b194e881b9bdd081c185d5cd95960621b6044820152606490fd5b3461028f5760208060031936011261028f576004356129a0613307565b80600052600582526001916129c38360ff60406000205460a01c161515146135ae565b60008281526005825260409020546001600160a01b03919082163303612db7578260005260028152604060002090600382019160ff835416612d7257600284878301541691015490803b1561028f576040516323b872dd60e01b815230600482015233602482015260448101929092526000908290606490829084905af180156104ea57612d63575b50815460ff1990811686179092556000848152600382526040902054831615612b8a578360005260038152604060002092600284019360ff855416612b4f576000808093612ac5828080808e81990154612ab6612710612aae600a54846135ef565b048092613602565b96600b54165af161165f61360f565b335af1612ad061360f565b5015612b0b5750815416831790555b33907f255898c86cfbf62a32125aa6ad84b1687328b28c83569cd720d2d89453337f1a600080a3600055005b6064906040519062461bcd60e51b82526004820152601a60248201527f57696e6e657220455448207472616e73666572206661696c65640000000000006044820152fd5b60405162461bcd60e51b815260048101849052601360248201527211551208185b1c9958591e4818db185a5b5959606a1b6044820152606490fd5b60048152604060002092600284019360ff855416612d2757860154612bb7612710612aae600a54846135ef565b600c54600b5460405163a9059cbb60e01b8082529186166001600160a01b0316600482015260248101949094529193919290859082908416816000816044810103925af19081156104ea57600091612d0a575b5015612cbb57600c5460405192835233600484015260248301939093529091839183916044918391600091165af19081156104ea57600091612c9e575b5015612c5a575081541683179055612adf565b6064906040519062461bcd60e51b82526004820152601b60248201527f57696e6e65722055534443207472616e73666572206661696c656400000000006044820152fd5b612cb59150823d841161083c5761082e818361329e565b86612c47565b60405162461bcd60e51b815260048101859052602160248201527f506c6174666f726d205553444320666565207472616e73666572206661696c656044820152601960fa1b6064820152608490fd5b612d219150853d871161083c5761082e818361329e565b89612c0a565b60405162461bcd60e51b81526004810184905260146024820152731554d110c8185b1c9958591e4818db185a5b595960621b6044820152606490fd5b612d6c90613251565b85612a4c565b60405162461bcd60e51b815260048101839052601860248201527f57696e6e696e677320616c726561647920636c61696d656400000000000000006044820152606490fd5b6064906040519062461bcd60e51b82526004820152601860248201527f4f6e6c792077696e6e65722063616e20776974686472617700000000000000006044820152fd5b3461028f57600036600319011261028f57600b546040516001600160a01b039091168152602090f35b3461028f57602036600319011261028f57612e3d6131b4565b600435600955005b3461028f57602036600319011261028f57600480356000908152602091825260409081902080546001820154600283015460039093015484516001600160a01b0390931683529482015260ff9091161515918101919091526060810191909152608090f35b3461028f57602036600319011261028f57600435600052600260205260a06040600020600180831b03908181541691600182015416906002810154600460ff6003840154169201549260405194855260208501526040840152151560608301526080820152f35b3461028f57600036600319011261028f57600c546040516001600160a01b039091168152602090f35b3461028f5760608060031936011261028f5767ffffffffffffffff60043581811161028f57612f6d903690600401613157565b92909160243581811161028f57612f88903690600401613157565b94909160443590811161028f57612fa3903690600401613157565b919092612fae6131b4565b868203613103578282036130ad5760005b828110612fc857005b6001600160a01b039081612fe061041f83878c613773565b1691612ff061041f83888a613773565b612ffb838c87613773565b35843b1561028f576040516323b872dd60e01b81523060048201526001600160a01b039290921660248301526044820152926000908490606490829084905af19283156104ea576130999361309e575b5061305a61041f83888a613773565b1660006000805160206138ab83398151915289604051601060208083528201526f09c8ca8be8892a48a86a8be8482a886960831b6040820152a3613764565b612fbf565b6130a790613251565b8a61304b565b60405162461bcd60e51b815260206004820152602860248201527f436f6e74726163747320616e6420726563697069656e7473206c656e677468206044820152670dad2e6dac2e8c6d60c31b6064820152608490fd5b60405162461bcd60e51b815260206004820152602660248201527f436f6e74726163747320616e6420746f6b656e496473206c656e677468206d696044820152650e6dac2e8c6d60d31b6064820152608490fd5b9181601f8401121561028f5782359167ffffffffffffffff831161028f576020808501948460051b01011161028f57565b602435906001600160a01b038216820361028f57565b600435906001600160a01b038216820361028f57565b6001546001600160a01b031633036131c857565b606460405162461bcd60e51b815260206004820152602060248201527f4f776e61626c653a2063616c6c6572206973206e6f7420746865206f776e65726044820152fd5b1561321357565b60405162461bcd60e51b815260206004820152601660248201527511d85b5948185b1c9958591e4818dbdb5c1b195d195960521b6044820152606490fd5b67ffffffffffffffff811161075c57604052565b6101e0810190811067ffffffffffffffff82111761075c57604052565b6080810190811067ffffffffffffffff82111761075c57604052565b90601f8019910116810190811067ffffffffffffffff82111761075c57604052565b60ff60015460a01c166132cf57565b60405162461bcd60e51b815260206004820152601060248201526f14185d5cd8589b194e881c185d5cd95960821b6044820152606490fd5b600260005414613318576002600055565b60405162461bcd60e51b815260206004820152601f60248201527f5265656e7472616e637947756172643a207265656e7472616e742063616c6c006044820152606490fd5b1561336457565b60405162461bcd60e51b815260206004820152602360248201527f45544820616c7265616479206465706f736974656420666f7220746869732067604482015262616d6560e81b6064820152608490fd5b156133bc57565b60405162461bcd60e51b8152602060048201526024808201527f5553444320616c7265616479206465706f736974656420666f7220746869732060448201526367616d6560e01b6064820152608490fd5b90606060039160018060a01b038151166001600160601b0360a01b8554161784556020810151600185015561345760408201511515600286019060ff801983541691151516179055565b0151910155565b9081602091031261028f5751801515810361028f5790565b1561347d57565b60405162461bcd60e51b81526020600482015260146024820152731554d110c81d1c985b9cd9995c8819985a5b195960621b6044820152606490fd5b60008181526002602090815260408083205460038352818420546001600160a01b039491851615159085161580159061359c575b81613594575b50613500575b5050505050565b7f1c659750f340e5299f05cfafea9d901858d47405bba10a4235f7b0d2247f144893826135759260038652828282205416151560001461358257878152600386526002838383205416965b89835252205492516001600160a01b03919093168116835290921660208201529081906040820190565b0390a238808080806134f9565b6004865260028383832054169661354b565b9050386134f3565b506004845284838320541615156134ed565b156135b557565b60405162461bcd60e51b815260206004820152601260248201527111d85b59481b9bdd0818dbdb5c1b195d195960721b6044820152606490fd5b81810292918115918404141715611cd757565b91908203918211611cd757565b3d1561364a573d9067ffffffffffffffff821161075c576040519161363e601f8201601f19166020018461329e565b82523d6000602084013e565b606090565b1561365657565b60405162461bcd60e51b815260206004820152601c60248201527f506c6174666f726d20666565207472616e73666572206661696c6564000000006044820152606490fd5b156136a257565b60405162461bcd60e51b815260206004820152600f60248201526e105b1c9958591e4818db185a5b5959608a1b6044820152606490fd5b156136e057565b60405162461bcd60e51b815260206004820152600e60248201526d11d85b594818dbdb5c1b195d195960921b6044820152606490fd5b91908201809211611cd757565b1561372a57565b60405162461bcd60e51b815260206004820152601260248201527110d85b9b9bdd081c9958db185a5b481e595d60721b6044820152606490fd5b6000198114611cd75760010190565b91908110156137835760051b0190565b634e487b7160e01b600052603260045260246000fd5b356001600160a01b038116810361028f5790565b156137b457565b60405162461bcd60e51b815260206004820152601360248201527211d85b5948191bd95cc81b9bdd08195e1a5cdd606a1b6044820152606490fd5b156137f657565b60405162461bcd60e51b815260206004820152600c60248201526b11d85b59481a5cc8199d5b1b60a21b6044820152606490fd5b1561383157565b60405162461bcd60e51b815260206004820152600f60248201526e2737ba103a34329031b932b0ba37b960891b6044820152606490fd5b1561386f57565b60405162461bcd60e51b815260206004820152601360248201527213919508185b1c9958591e4818db185a5b5959606a1b6044820152606490fdfeb9389f406fe2f12fee7d080bbb0bc247c61f84511a9f00d2589ec9bd002507f6a2646970667358221220a56db288ec6c1ec5765d3dc5172dd6ca579489e71581306d84b5041b9a529bfc64736f6c63430008140033",
  "linkReferences": {},
  "deployedLinkReferences": {}
}