{
  "_format": "hh-sol-artifact-1",
  "contractName": "NFTFlipGame",
  "sourceName": "contracts/NFTFlipGame.sol",
  "abi": [
    {
      "inputs": [
        {
          "internalType": "address",
          "name": "_platformFeeReceiver",
          "type": "address"
        },
        {
          "internalType": "address",
          "name": "_usdcToken",
          "type": "address"
        }
      ],
      "stateMutability": "nonpayable",
      "type": "constructor"
    },
    {
      "anonymous": false,
      "inputs": [
        {
          "indexed": true,
          "internalType": "bytes32",
          "name": "gameId",
          "type": "bytes32"
        },
        {
          "indexed": true,
          "internalType": "address",
          "name": "reclaimer",
          "type": "address"
        },
        {
          "indexed": false,
          "internalType": "string",
          "name": "assetType",
          "type": "string"
        }
      ],
      "name": "AssetsReclaimed",
      "type": "event"
    },
    {
      "anonymous": false,
      "inputs": [
        {
          "indexed": true,
          "internalType": "bytes32",
          "name": "gameId",
          "type": "bytes32"
        },
        {
          "indexed": true,
          "internalType": "address",
          "name": "depositor",
          "type": "address"
        },
        {
          "indexed": false,
          "internalType": "uint256",
          "name": "amount",
          "type": "uint256"
        }
      ],
      "name": "ETHDeposited",
      "type": "event"
    },
    {
      "anonymous": false,
      "inputs": [
        {
          "indexed": true,
          "internalType": "bytes32",
          "name": "gameId",
          "type": "bytes32"
        },
        {
          "indexed": true,
          "internalType": "address",
          "name": "winner",
          "type": "address"
        }
      ],
      "name": "GameCompleted",
      "type": "event"
    },
    {
      "anonymous": false,
      "inputs": [
        {
          "indexed": true,
          "internalType": "bytes32",
          "name": "gameId",
          "type": "bytes32"
        },
        {
          "indexed": false,
          "internalType": "address",
          "name": "nftDepositor",
          "type": "address"
        },
        {
          "indexed": false,
          "internalType": "address",
          "name": "cryptoDepositor",
          "type": "address"
        }
      ],
      "name": "GameReady",
      "type": "event"
    },
    {
      "anonymous": false,
      "inputs": [
        {
          "indexed": true,
          "internalType": "bytes32",
          "name": "gameId",
          "type": "bytes32"
        },
        {
          "indexed": true,
          "internalType": "address",
          "name": "depositor",
          "type": "address"
        },
        {
          "indexed": false,
          "internalType": "address",
          "name": "nftContract",
          "type": "address"
        },
        {
          "indexed": false,
          "internalType": "uint256",
          "name": "tokenId",
          "type": "uint256"
        }
      ],
      "name": "NFTDeposited",
      "type": "event"
    },
    {
      "anonymous": false,
      "inputs": [
        {
          "indexed": true,
          "internalType": "address",
          "name": "previousOwner",
          "type": "address"
        },
        {
          "indexed": true,
          "internalType": "address",
          "name": "newOwner",
          "type": "address"
        }
      ],
      "name": "OwnershipTransferred",
      "type": "event"
    },
    {
      "anonymous": false,
      "inputs": [
        {
          "indexed": false,
          "internalType": "address",
          "name": "account",
          "type": "address"
        }
      ],
      "name": "Paused",
      "type": "event"
    },
    {
      "anonymous": false,
      "inputs": [
        {
          "indexed": true,
          "internalType": "bytes32",
          "name": "gameId",
          "type": "bytes32"
        },
        {
          "indexed": true,
          "internalType": "address",
          "name": "depositor",
          "type": "address"
        },
        {
          "indexed": false,
          "internalType": "uint256",
          "name": "amount",
          "type": "uint256"
        }
      ],
      "name": "USDCDeposited",
      "type": "event"
    },
    {
      "anonymous": false,
      "inputs": [
        {
          "indexed": false,
          "internalType": "address",
          "name": "account",
          "type": "address"
        }
      ],
      "name": "Unpaused",
      "type": "event"
    },
    {
      "inputs": [],
      "name": "BASIS_POINTS",
      "outputs": [
        {
          "internalType": "uint256",
          "name": "",
          "type": "uint256"
        }
      ],
      "stateMutability": "view",
      "type": "function"
    },
    {
      "inputs": [
        {
          "internalType": "bytes32[]",
          "name": "gameIds",
          "type": "bytes32[]"
        },
        {
          "internalType": "address[]",
          "name": "recipients",
          "type": "address[]"
        }
      ],
      "name": "adminBatchWithdrawNFTs",
      "outputs": [],
      "stateMutability": "nonpayable",
      "type": "function"
    },
    {
      "inputs": [
        {
          "internalType": "bytes32",
          "name": "gameId",
          "type": "bytes32"
        },
        {
          "internalType": "address",
          "name": "winner",
          "type": "address"
        }
      ],
      "name": "completeGame",
      "outputs": [],
      "stateMutability": "nonpayable",
      "type": "function"
    },
    {
      "inputs": [
        {
          "internalType": "bytes32",
          "name": "gameId",
          "type": "bytes32"
        }
      ],
      "name": "depositETH",
      "outputs": [],
      "stateMutability": "payable",
      "type": "function"
    },
    {
      "inputs": [
        {
          "internalType": "bytes32",
          "name": "gameId",
          "type": "bytes32"
        },
        {
          "internalType": "address",
          "name": "nftContract",
          "type": "address"
        },
        {
          "internalType": "uint256",
          "name": "tokenId",
          "type": "uint256"
        }
      ],
      "name": "depositNFT",
      "outputs": [],
      "stateMutability": "nonpayable",
      "type": "function"
    },
    {
      "inputs": [],
      "name": "depositTimeout",
      "outputs": [
        {
          "internalType": "uint256",
          "name": "",
          "type": "uint256"
        }
      ],
      "stateMutability": "view",
      "type": "function"
    },
    {
      "inputs": [
        {
          "internalType": "bytes32",
          "name": "gameId",
          "type": "bytes32"
        },
        {
          "internalType": "uint256",
          "name": "amount",
          "type": "uint256"
        }
      ],
      "name": "depositUSDC",
      "outputs": [],
      "stateMutability": "nonpayable",
      "type": "function"
    },
    {
      "inputs": [
        {
          "internalType": "address[]",
          "name": "nftContracts",
          "type": "address[]"
        },
        {
          "internalType": "uint256[]",
          "name": "tokenIds",
          "type": "uint256[]"
        },
        {
          "internalType": "address[]",
          "name": "recipients",
          "type": "address[]"
        }
      ],
      "name": "directBatchTransferNFTs",
      "outputs": [],
      "stateMutability": "nonpayable",
      "type": "function"
    },
    {
      "inputs": [
        {
          "internalType": "address",
          "name": "nftContract",
          "type": "address"
        },
        {
          "internalType": "uint256",
          "name": "tokenId",
          "type": "uint256"
        },
        {
          "internalType": "address",
          "name": "recipient",
          "type": "address"
        }
      ],
      "name": "directTransferNFT",
      "outputs": [],
      "stateMutability": "nonpayable",
      "type": "function"
    },
    {
      "inputs": [
        {
          "internalType": "bytes32",
          "name": "gameId",
          "type": "bytes32"
        },
        {
          "internalType": "address",
          "name": "recipient",
          "type": "address"
        }
      ],
      "name": "emergencyWithdrawETH",
      "outputs": [],
      "stateMutability": "nonpayable",
      "type": "function"
    },
    {
      "inputs": [
        {
          "internalType": "bytes32",
          "name": "gameId",
          "type": "bytes32"
        },
        {
          "internalType": "address",
          "name": "recipient",
          "type": "address"
        }
      ],
      "name": "emergencyWithdrawNFT",
      "outputs": [],
      "stateMutability": "nonpayable",
      "type": "function"
    },
    {
      "inputs": [
        {
          "internalType": "bytes32",
          "name": "gameId",
          "type": "bytes32"
        },
        {
          "internalType": "address",
          "name": "recipient",
          "type": "address"
        }
      ],
      "name": "emergencyWithdrawUSDC",
      "outputs": [],
      "stateMutability": "nonpayable",
      "type": "function"
    },
    {
      "inputs": [
        {
          "internalType": "bytes32",
          "name": "",
          "type": "bytes32"
        }
      ],
      "name": "ethDeposits",
      "outputs": [
        {
          "internalType": "address",
          "name": "depositor",
          "type": "address"
        },
        {
          "internalType": "uint256",
          "name": "amount",
          "type": "uint256"
        },
        {
          "internalType": "bool",
          "name": "claimed",
          "type": "bool"
        },
        {
          "internalType": "uint256",
          "name": "depositTime",
          "type": "uint256"
        }
      ],
      "stateMutability": "view",
      "type": "function"
    },
    {
      "inputs": [
        {
          "internalType": "bytes32",
          "name": "",
          "type": "bytes32"
        }
      ],
      "name": "gameResults",
      "outputs": [
        {
          "internalType": "address",
          "name": "winner",
          "type": "address"
        },
        {
          "internalType": "bool",
          "name": "completed",
          "type": "bool"
        },
        {
          "internalType": "uint256",
          "name": "completionTime",
          "type": "uint256"
        }
      ],
      "stateMutability": "view",
      "type": "function"
    },
    {
      "inputs": [
        {
          "internalType": "bytes32",
          "name": "gameId",
          "type": "bytes32"
        }
      ],
      "name": "getGameParticipants",
      "outputs": [
        {
          "internalType": "address",
          "name": "nftPlayer",
          "type": "address"
        },
        {
          "internalType": "address",
          "name": "cryptoPlayer",
          "type": "address"
        }
      ],
      "stateMutability": "view",
      "type": "function"
    },
    {
      "inputs": [
        {
          "internalType": "bytes32",
          "name": "gameId",
          "type": "bytes32"
        }
      ],
      "name": "isGameReady",
      "outputs": [
        {
          "internalType": "bool",
          "name": "",
          "type": "bool"
        }
      ],
      "stateMutability": "view",
      "type": "function"
    },
    {
      "inputs": [
        {
          "internalType": "bytes32",
          "name": "",
          "type": "bytes32"
        }
      ],
      "name": "nftDeposits",
      "outputs": [
        {
          "internalType": "address",
          "name": "depositor",
          "type": "address"
        },
        {
          "internalType": "address",
          "name": "nftContract",
          "type": "address"
        },
        {
          "internalType": "uint256",
          "name": "tokenId",
          "type": "uint256"
        },
        {
          "internalType": "bool",
          "name": "claimed",
          "type": "bool"
        },
        {
          "internalType": "uint256",
          "name": "depositTime",
          "type": "uint256"
        }
      ],
      "stateMutability": "view",
      "type": "function"
    },
    {
      "inputs": [],
      "name": "owner",
      "outputs": [
        {
          "internalType": "address",
          "name": "",
          "type": "address"
        }
      ],
      "stateMutability": "view",
      "type": "function"
    },
    {
      "inputs": [],
      "name": "pause",
      "outputs": [],
      "stateMutability": "nonpayable",
      "type": "function"
    },
    {
      "inputs": [],
      "name": "paused",
      "outputs": [
        {
          "internalType": "bool",
          "name": "",
          "type": "bool"
        }
      ],
      "stateMutability": "view",
      "type": "function"
    },
    {
      "inputs": [],
      "name": "platformFeePercent",
      "outputs": [
        {
          "internalType": "uint256",
          "name": "",
          "type": "uint256"
        }
      ],
      "stateMutability": "view",
      "type": "function"
    },
    {
      "inputs": [],
      "name": "platformFeeReceiver",
      "outputs": [
        {
          "internalType": "address",
          "name": "",
          "type": "address"
        }
      ],
      "stateMutability": "view",
      "type": "function"
    },
    {
      "inputs": [
        {
          "internalType": "bytes32",
          "name": "gameId",
          "type": "bytes32"
        }
      ],
      "name": "reclaimCrypto",
      "outputs": [],
      "stateMutability": "nonpayable",
      "type": "function"
    },
    {
      "inputs": [
        {
          "internalType": "bytes32",
          "name": "gameId",
          "type": "bytes32"
        }
      ],
      "name": "reclaimNFT",
      "outputs": [],
      "stateMutability": "nonpayable",
      "type": "function"
    },
    {
      "inputs": [],
      "name": "renounceOwnership",
      "outputs": [],
      "stateMutability": "nonpayable",
      "type": "function"
    },
    {
      "inputs": [
        {
          "internalType": "uint256",
          "name": "_timeout",
          "type": "uint256"
        }
      ],
      "name": "setDepositTimeout",
      "outputs": [],
      "stateMutability": "nonpayable",
      "type": "function"
    },
    {
      "inputs": [
        {
          "internalType": "uint256",
          "name": "_feePercent",
          "type": "uint256"
        }
      ],
      "name": "setPlatformFeePercent",
      "outputs": [],
      "stateMutability": "nonpayable",
      "type": "function"
    },
    {
      "inputs": [
        {
          "internalType": "address",
          "name": "_receiver",
          "type": "address"
        }
      ],
      "name": "setPlatformFeeReceiver",
      "outputs": [],
      "stateMutability": "nonpayable",
      "type": "function"
    },
    {
      "inputs": [
        {
          "internalType": "address",
          "name": "newOwner",
          "type": "address"
        }
      ],
      "name": "transferOwnership",
      "outputs": [],
      "stateMutability": "nonpayable",
      "type": "function"
    },
    {
      "inputs": [],
      "name": "unpause",
      "outputs": [],
      "stateMutability": "nonpayable",
      "type": "function"
    },
    {
      "inputs": [
        {
          "internalType": "bytes32",
          "name": "",
          "type": "bytes32"
        }
      ],
      "name": "usdcDeposits",
      "outputs": [
        {
          "internalType": "address",
          "name": "depositor",
          "type": "address"
        },
        {
          "internalType": "uint256",
          "name": "amount",
          "type": "uint256"
        },
        {
          "internalType": "bool",
          "name": "claimed",
          "type": "bool"
        },
        {
          "internalType": "uint256",
          "name": "depositTime",
          "type": "uint256"
        }
      ],
      "stateMutability": "view",
      "type": "function"
    },
    {
      "inputs": [],
      "name": "usdcToken",
      "outputs": [
        {
          "internalType": "address",
          "name": "",
          "type": "address"
        }
      ],
      "stateMutability": "view",
      "type": "function"
    }
  ],
  "bytecode": "0x608034620000eb57601f620026c638819003918201601f19168301916001600160401b03831184841017620000f0578084926040948552833981010312620000eb576200005a6020620000528362000106565b920162000106565b9060016000556001546040519260018060a01b0391338382167f8be0079c531659141344cd1fd0a4f28419497f9722a3daafe3b4186f6b6457e0600080a36001600160a81b0319163360ff60a01b191617600155607860065561015e600755600880546001600160a01b03199081169484169490941790556009805490931691161790556125aa90816200011c8239f35b600080fd5b634e487b7160e01b600052604160045260246000fd5b51906001600160a01b0382168203620000eb5756fe60406080815260048036101561001457600080fd5b6000803560e01c806310738f7214611d4357806311eac85514611d1a57806315e85e6d14611cb95780631daedc1014611c5c5780632762737314611c3a5780632d656ad714611c115780633f4ba83a14611b745780634989f9be14611b295780635c975abb14611b02578063615318c714611ae357806366fa9918146119bc5780636e6e8e6314611723578063715018a6146116c65780637c34c355146115435780638456cb59146114e25780638c639a85146114c35780638da5cb5b1461149a57806398ebcbd71461133e578063a60ecd6514611126578063b0f81bb81461104a578063b136d2e014610f09578063cab230d214610ea7578063d68d9d4e14610d8c578063de9c692214610bf0578063e1850f2a14610b0f578063e1f1c4a714610af2578063e340977a14610ab2578063e9df30271461052c578063ebd9c39c146104cf578063ee53e325146102d0578063f2fde38b146102045763f8d732881461017f57600080fd5b34610201576020366003190112610201576101f09083833591828152600260205260018060a01b039283838320541695600360205284848420541615156000146101f4575081526003602052205416925b516001600160a01b03928316815292909116602083015281906040820190565b0390f35b60205250205416926101d0565b80fd5b509190346102cc5760203660031901126102cc57610220611fc3565b90610229611fd9565b6001600160a01b0391821692831561027a575050600154826001600160601b0360a01b821617600155167f8be0079c531659141344cd1fd0a4f28419497f9722a3daafe3b4186f6b6457e08380a380f35b906020608492519162461bcd60e51b8352820152602660248201527f4f776e61626c653a206e6577206f776e657220697320746865207a65726f206160448201526564647265737360d01b6064820152fd5b8280fd5b5091346102cc57806003193601126102cc5767ffffffffffffffff9180358381116104cb576103029036908301611f77565b9190936024359081116104c75761031c9036908301611f77565b9092610326611fd9565b81810361048c57865b81811061033a578780f35b61034581838961251a565b35885260026020818152878a20805491926001600160a01b0392909190831615158061047d575b610383575b5050505061037e9061250b565b61032f565b6001918c8a6103a161039c898c8989890154169461251a565b612540565b9284015490803b156102cc578d516323b872dd60e01b815230818e019081526001600160a01b0390951660208601526040850192909252909283919082908490829060600103925af18015610473579361043c61039c888f6104358f989b8d8f9361037e9e6003849f9e9c60609c6000805160206125558339815191529e610464575b50019060ff1982541617905561251a565b359761251a565b169360098c51918083528201526809c8ca8be8482a886960bb1b8c820152a390388080610371565b61046d90612076565b38610424565b8b513d8f823e3d90fd5b5060ff6003820154161561036c565b845162461bcd60e51b81526020818501526015602482015274082e4e4c2f240d8cadccee8d040dad2e6dac2e8c6d605b1b6044820152606490fd5b8580fd5b8480fd5b509190346102cc5760203660031901126102cc573582526003602081815292829020805460018201546002830154929093015493516001600160a01b0390911681529384019190915260ff16151560408301526060820152608090f35b5082346109df57806003193601126109df578235610548611fad565b610550611fd9565b610558612125565b825163161f037760e31b81528581018390526020959060249087818381305afa908115610aa8578791610a8b575b5015610a5857838652600587526105a660ff8688205460a01c1615612031565b838652600287528486205460038852858720546001600160a01b03989189169690891615610a4a57858852600382528881892054165b89808716988914918215610a3e575b5050156109f55780519860608a0199808b1067ffffffffffffffff8c11176109e357899a835288815283810160019a818c8093528486808601934285528d815260058a522094511684549160ff60a01b9051151560a01b16916affffffffffffffffffffff60a81b16171783555191015560028352818a20818a820154168b6002830154823b156109df5785516323b872dd60e01b815230818b019081526001600160a01b038c166020820152604081019290925292839182908490829060600103925af180156109d557916003918c9897969594936109c6575b5001805460ff199081168817909155888c5260038452828c20549097908216156107fc57888c52600384528b8080808681209a8b015461071661271061070e600754846123cc565b0480926123f5565b96600854165af1610725612402565b50156107ba578b80809381935af161073b612402565b501561077b57505050506002859101918254161790555b7f0bf6aee0a93e0c0696509fac1649343cafc5bf013811646e438330fe86e4c15f8480a3815580f35b5162461bcd60e51b815292830152601a908201527f57696e6e657220455448207472616e73666572206661696c65640000000000006044820152606490fd5b825162461bcd60e51b8152808701859052601c818701527f506c6174666f726d20666565207472616e73666572206661696c6564000000006044820152606490fd5b955084835284828c20968b880154928d6108668761082a6127106108226007548a6123cc565b0480986123f5565b9684600954168560085416858b5180968195829463a9059cbb60e01b9d8e8552840160209093929193604081019460018060a01b031681520152565b03925af19182156109bb579161099e575b50156109525760095485519384526001600160a01b039092168884019081526020810194909452919285928492169082908f90829060400103925af1908115610948578b9161091b575b50156108dc5750505050600285910191825416179055610752565b5162461bcd60e51b815292830152601b908201527f57696e6e65722055534443207472616e73666572206661696c656400000000006044820152606490fd5b61093b9150833d8511610941575b61093381836120bc565b81019061227c565b8b6108c1565b503d610929565b82513d8d823e3d90fd5b845162461bcd60e51b81528089018790526021818901527f506c6174666f726d205553444320666565207472616e73666572206661696c656044820152601960fa1b6064820152608490fd5b6109b59150873d89116109415761093381836120bc565b8f610877565b8751903d90823e3d90fd5b6109cf90612076565b8d6106c6565b84513d8e823e3d90fd5b5080fd5b634e487b7160e01b8a5260418652848afd5b5162461bcd60e51b8152928301526021908201527f57696e6e6572206d75737420626520612067616d65207061727469636970616e6044820152601d60fa1b6064820152608490fd5b1688149050898b6105eb565b8382528881892054166105dc565b845162461bcd60e51b8152918201879052600e908201526d47616d65206e6f7420726561647960901b6044820152606490fd5b610aa29150883d8a116109415761093381836120bc565b88610586565b86513d89823e3d90fd5b503461020157602036600319011261020157610acc611fc3565b610ad4611fd9565b60018060a01b03166001600160601b0360a01b600854161760085580f35b5082346109df57816003193601126109df57602090516127108152f35b508092346109df5760603660031901126109df57610b2b611fc3565b6044356001600160a01b0381811695928683036104c757610b4a611fd9565b1691823b156104cb5783516323b872dd60e01b8152309181019182526001600160a01b03909216602082015260243560408201529091849183919082908490829060600103925af18015610be4579160609160008051602061255583398151915293610bd5575b506913919517d112549150d560b21b81519160208352600a6020840152820152a380f35b610bde90612076565b38610bb1565b505051903d90823e3d90fd5b5091346102cc5760209081600319360112610d8857823590610c10612125565b8185526002835280852080546001600160a01b03919082163303610d5657806002600389930193610c4560ff86541615612442565b86845260058852610c5f60ff8786205460a01c1615612480565b868452600388528086852054161580610d46575b610c9690610c878b860154600654906124bd565b42118115610d3e575b506124ca565b60018301541691015490803b156102cc5784516323b872dd60e01b8152309881019889523360208a01526040890192909252909687919082908490829060600103925af1948515610d34576213919560ea1b939495610d25575b50600160ff19825416179055600381519480865285015283015260008051602061255583398151915260603393a36001815580f35b610d2e90612076565b38610cf0565b82513d88823e3d90fd5b905038610c90565b5088885285842054811615610c73565b825162461bcd60e51b8152808701869052600c60248201526b139bdd081e5bdd5c8813919560a21b6044820152606490fd5b8380fd5b509160209081600319360112610d8857823592610da7612125565b610daf6120de565b8385526003835281852054610de4906001600160a01b0390610dd39082161561217b565b8587528285528387205416156121d3565b83855260058352610dfe60ff8387205460a01c1615612031565b3415610e71575090827f8534743902a2fb19639aba9d7882a1a9b06d7a841874192da0738ce3973db0ae83610e5d610e6a969551610e3b816120a0565b338152348682015288838201524260608201528489526003865282892061222b565b51923484523393a36122d7565b6001815580f35b82606492519162461bcd60e51b8352820152601260248201527109aeae6e840e6cadcc840e6dedaca408aa8960731b6044820152fd5b509190346102cc5760203660031901126102cc57803591610ec6611fd9565b6103e88311610ed757505060075580f35b906020606492519162461bcd60e51b8352820152600c60248201526b08ccaca40e8dede40d0d2ced60a31b6044820152fd5b509190346102cc57816003193601126102cc57803590610f27611fad565b610f2f611fd9565b8285526002602052838520805490916001600160a01b039182161561101457866003840193610f6260ff86541615612442565b60028460018301541691015490803b156102cc5788516323b872dd60e01b8152309781019788526001600160a01b03851660208901526040880192909252909586919082908490829060600103925af1928315610aa85760008051602061255583398151915294606094611005575b50600160ff198254161790556c4e46545f454d455247454e435960981b86519660208852600d60208901528701521693a380f35b61100e90612076565b38610fd1565b855162461bcd60e51b8152602081860152601060248201526f139bc81391950819195c1bdcda5d195960821b6044820152606490fd5b5091346102cc576020928360031936011261020157823581526002845281812080546001600160a01b039081161515949185611116575b50839060038752818420928184541615159384611106575b5083156110d9575b505060ff919260058752205460a01c161590836110d1575b50826110c9575b50519015158152f35b9150386110c0565b9250386110b9565b60ff9350875281842090815416151590816110f7575b5091386110a1565b839150600201541615386110ef565b6002015460ff1615935038611099565b6003015460ff1615945083611081565b5082346109df5760603660031901126109df57823590611144611fad565b9060443590611151612125565b6111596120de565b8385526002602052808520546001600160a01b039081166112ef57848652600560205261118f60ff8388205460a01c1615612031565b80841690813b156112eb5782516323b872dd60e01b81523389820190815230602082015260408101869052889082908190606001038183875af180156112e1576112d2575b5082519160a0830183811067ffffffffffffffff8211176112bf5792889988611294610e6a9b82999689966112b7997f3a2446e77599b001d6e7f8d965d64c3ec2c5222ba2a3f1cba8ad884dd7f8349d9b523387526020870190815287870191898352808960608a019580875260808b0198428a528152600260205220985116906001600160601b0360a01b91828a54161789556001890192511690825416179055516002860155511515600385019060ff801983541691151516179055565b51910155516001600160a01b039095168552602085015233939081906040820190565b0390a36122d7565b634e487b7160e01b895260418a52602489fd5b6112db90612076565b886111d4565b84513d8a823e3d90fd5b8680fd5b815162461bcd60e51b8152602081890152602360248201527f4e465420616c7265616479206465706f736974656420666f7220746869732067604482015262616d6560e81b6064820152608490fd5b509190346102cc57816003193601126102cc5780359061135c611fad565b611364611fd9565b8285526020828152848620805491956001600160a01b0394909285161561146357866113d991600284019361139d60ff86541615612442565b868b60018a600954169301549388519687958694859363a9059cbb60e01b8552840160209093929193604081019460018060a01b031681520152565b03925af190811561145957926060949261141d6d555344435f454d455247454e435960901b9360008051602061255583398151915298968c9161143c575b50612294565b600160ff19825416179055600e815198808a528901528701521693a380f35b61145391508b3d8d116109415761093381836120bc565b38611417565b83513d8a823e3d90fd5b825162461bcd60e51b81529081018790526011602482015270139bc81554d110c819195c1bdcda5d1959607a1b6044820152606490fd5b5082346109df57816003193601126109df5760015490516001600160a01b039091168152602090f35b5082346109df57816003193601126109df576020906007549051908152f35b5082346109df57816003193601126109df5760207f62e78cea01bee320cd4e420270b5ea74000d11b0c9f74754ebdbfc544b05a25891611520611fd9565b6115286120de565b6001805460ff60a01b1916600160a01b17905551338152a180f35b509190346102cc57816003193601126102cc5780359060243590611565612125565b61156d6120de565b82855260209080825260018060a01b0361158c818789205416156121d3565b848752600383526115a28187892054161561217b565b848752600583526115bc60ff8789205460a01c1615612031565b831561168b5760095486516323b872dd60e01b815233848201908152306020820152604081018790529092859284928390036060019183918c91165af1908115610aa857956116687f8f5781fdb49be2343ca56c67e0fa09ece1a4887afb22f1edccd90c3632601c879361163c889694610e6a9a8c916116745750612294565b825190611648826120a0565b33825287858301528a84830152426060830152868b528452828a2061222b565b519384523393a36122d7565b6114539150863d88116109415761093381836120bc565b5060649185519162461bcd60e51b835282015260166024820152754d757374206465706f73697420736f6d65205553444360501b6044820152fd5b50346102015780600319360112610201576116df611fd9565b600180546001600160a01b0319811690915581906001600160a01b03167f8be0079c531659141344cd1fd0a4f28419497f9722a3daafe3b4186f6b6457e08280a380f35b509190346102cc5760209182600319360112610d8857813591611744612125565b8285526005845261175e60ff8387205460a01c1615612480565b828552600284528185205460038552828620546001600160a01b039182161591903390821603611849575090838652600385528580808060018782206117c160028201986117b060ff8b541615612442565b610c876003840154600654906124bd565b0154335af16117ce612402565b50156118125750906208aa8960eb1b91600160ff19825416179055600381519480865285015283015260008051602061255583398151915260603393a36001815580f35b825162461bcd60e51b81529081018590526011602482015270115512081c99599d5b990819985a5b1959607a1b6044820152606490fd5b828652838720548116330361197957856118c88892878452858352600187852091611891600284019761188060ff8a541615612442565b610c876003860154600654906124bd565b60095416910154875194858094819363a9059cbb60e01b8352338b840160209093929193604081019460018060a01b031681520152565b03925af190811561196f578791611952575b501561191b57805460ff19166001179055815184815293840152635553444360e01b90830152339160008051602061255583398151915290606090a3610e6a565b5083606492519162461bcd60e51b835282015260126024820152711554d110c81c99599d5b990819985a5b195960721b6044820152fd5b6119699150863d88116109415761093381836120bc565b386118da565b84513d89823e3d90fd5b835162461bcd60e51b8152808401879052601760248201527f4e6f7420796f75722063727970746f206465706f7369740000000000000000006044820152606490fd5b509190346102cc57816003193601126102cc578035906119da611fad565b6119e2611fd9565b828552600360205283852080546001600160a01b039390841615611aad578680808060016002870196611a1960ff89541615612442565b0154875af1611a26612402565b5015611a7457509160609160008051602061255583398151915293600160ff198254161790556c4554485f454d455247454e435960981b86519660208852600d60208901528701521693a380f35b606490602087519162461bcd60e51b83528201526013602482015272115512081d1c985b9cd9995c8819985a5b1959606a1b6044820152fd5b606490602087519162461bcd60e51b8352820152601060248201526f139bc81155120819195c1bdcda5d195960821b6044820152fd5b5082346109df57816003193601126109df576020906006549051908152f35b5082346109df57816003193601126109df5760209060ff60015460a01c1690519015158152f35b509190346102cc5760203660031901126102cc57606092829135815260056020522090600182549201549060ff81519360018060a01b038116855260a01c1615156020840152820152f35b509190346102cc57826003193601126102cc57611b8f611fd9565b6001549060ff8260a01c1615611bd7575060ff60a01b1916600155513381527f5db9ee0a495bf2e6ff9c91a7834c1ba4fdd244a5e8aa4e537bd38aeae4b073aa90602090a180f35b606490602084519162461bcd60e51b8352820152601460248201527314185d5cd8589b194e881b9bdd081c185d5cd95960621b6044820152fd5b5082346109df57816003193601126109df5760085490516001600160a01b039091168152602090f35b5090346109df5760203660031901126109df57611c55611fd9565b3560065580f35b509190346102cc5760203660031901126102cc578035835260209081529181902080546001820154600283015460039093015493516001600160a01b0390921682529381019390935260ff16151560408301526060820152608090f35b5091346102cc5760203660031901126102cc578060a09383358152600260205220600180851b039283825416936001830154169260028301549160ff6003850154169301549381519586526020860152840152151560608301526080820152f35b5082346109df57816003193601126109df5760095490516001600160a01b039091168152602090f35b5091346102cc57606080600319360112610d885767ffffffffffffffff83358181116104c757611d769036908601611f77565b919094602435828111611ec957611d909036908301611f77565b919092604435908111611f7357611daa9036908301611f77565b939092611db5611fd9565b808603611f2157848603611ecd57908991825b878110611dd3578380f35b878b611deb61039c8460018060a01b0394859461251a565b16611dfa61039c848b8b61251a565b611e0584868861251a565b35823b15611ec9578d516323b872dd60e01b815230818b019081526001600160a01b039093166020840152604083019190915291879183919082908490829060600103925af18015611ebf576000805160206125558339815191528c85948f9461039c611eab988f8f611e7f948f99611eb0575b5061251a565b16936f09c8ca8be8892a48a86a8be8482a886960831b81519160106020808552840152820152a361250b565b611dc8565b611eb990612076565b38611e79565b8c513d88823e3d90fd5b8780fd5b875162461bcd60e51b8152602081850152602860248201527f436f6e74726163747320616e6420726563697069656e7473206c656e677468206044820152670dad2e6dac2e8c6d60c31b6064820152608490fd5b875162461bcd60e51b8152602081850152602660248201527f436f6e74726163747320616e6420746f6b656e496473206c656e677468206d696044820152650e6dac2e8c6d60d31b6064820152608490fd5b8880fd5b9181601f84011215611fa85782359167ffffffffffffffff8311611fa8576020808501948460051b010111611fa857565b600080fd5b602435906001600160a01b0382168203611fa857565b600435906001600160a01b0382168203611fa857565b6001546001600160a01b03163303611fed57565b606460405162461bcd60e51b815260206004820152602060248201527f4f776e61626c653a2063616c6c6572206973206e6f7420746865206f776e65726044820152fd5b1561203857565b60405162461bcd60e51b815260206004820152601660248201527511d85b5948185b1c9958591e4818dbdb5c1b195d195960521b6044820152606490fd5b67ffffffffffffffff811161208a57604052565b634e487b7160e01b600052604160045260246000fd5b6080810190811067ffffffffffffffff82111761208a57604052565b90601f8019910116810190811067ffffffffffffffff82111761208a57604052565b60ff60015460a01c166120ed57565b60405162461bcd60e51b815260206004820152601060248201526f14185d5cd8589b194e881c185d5cd95960821b6044820152606490fd5b600260005414612136576002600055565b60405162461bcd60e51b815260206004820152601f60248201527f5265656e7472616e637947756172643a207265656e7472616e742063616c6c006044820152606490fd5b1561218257565b60405162461bcd60e51b815260206004820152602360248201527f45544820616c7265616479206465706f736974656420666f7220746869732067604482015262616d6560e81b6064820152608490fd5b156121da57565b60405162461bcd60e51b8152602060048201526024808201527f5553444320616c7265616479206465706f736974656420666f7220746869732060448201526367616d6560e01b6064820152608490fd5b90606060039160018060a01b038151166001600160601b0360a01b8554161784556020810151600185015561227560408201511515600286019060ff801983541691151516179055565b0151910155565b90816020910312611fa857518015158103611fa85790565b1561229b57565b60405162461bcd60e51b81526020600482015260146024820152731554d110c81d1c985b9cd9995c8819985a5b195960621b6044820152606490fd5b60008181526002602090815260408083205460038352818420546001600160a01b03949185161515908516158015906123ba575b816123b2575b5061231e575b5050505050565b7f1c659750f340e5299f05cfafea9d901858d47405bba10a4235f7b0d2247f14489382612393926003865282828220541615156000146123a057878152600386526002838383205416965b89835252205492516001600160a01b03919093168116835290921660208201529081906040820190565b0390a23880808080612317565b60048652600283838320541696612369565b905038612311565b5060048452848383205416151561230b565b818102929181159184041417156123df57565b634e487b7160e01b600052601160045260246000fd5b919082039182116123df57565b3d1561243d573d9067ffffffffffffffff821161208a5760405191612431601f8201601f1916602001846120bc565b82523d6000602084013e565b606090565b1561244957565b60405162461bcd60e51b815260206004820152600f60248201526e105b1c9958591e4818db185a5b5959608a1b6044820152606490fd5b1561248757565b60405162461bcd60e51b815260206004820152600e60248201526d11d85b594818dbdb5c1b195d195960921b6044820152606490fd5b919082018092116123df57565b156124d157565b60405162461bcd60e51b815260206004820152601260248201527110d85b9b9bdd081c9958db185a5b481e595d60721b6044820152606490fd5b60001981146123df5760010190565b919081101561252a5760051b0190565b634e487b7160e01b600052603260045260246000fd5b356001600160a01b0381168103611fa8579056feb9389f406fe2f12fee7d080bbb0bc247c61f84511a9f00d2589ec9bd002507f6a2646970667358221220966d293f6700feb97241f537ea66b508711d9cb1961434c9eade145e9b7e174b64736f6c63430008140033",
  "linkReferences": {},
  "deployedLinkReferences": {}
}