{
  "_format": "hh-sol-artifact-1",
  "contractName": "NFTFlipGame",
  "sourceName": "contracts/NFTFlipGame.sol",
  "abi": [
    {
      "inputs": [
        {
          "internalType": "address",
          "name": "_platformFeeReceiver",
          "type": "address"
        },
        {
          "internalType": "address",
          "name": "_usdcToken",
          "type": "address"
        }
      ],
      "stateMutability": "nonpayable",
      "type": "constructor"
    },
    {
      "anonymous": false,
      "inputs": [
        {
          "indexed": true,
          "internalType": "bytes32",
          "name": "gameId",
          "type": "bytes32"
        },
        {
          "indexed": true,
          "internalType": "address",
          "name": "reclaimer",
          "type": "address"
        },
        {
          "indexed": false,
          "internalType": "string",
          "name": "assetType",
          "type": "string"
        }
      ],
      "name": "AssetsReclaimed",
      "type": "event"
    },
    {
      "anonymous": false,
      "inputs": [
        {
          "indexed": true,
          "internalType": "bytes32",
          "name": "gameId",
          "type": "bytes32"
        },
        {
          "indexed": true,
          "internalType": "address",
          "name": "depositor",
          "type": "address"
        },
        {
          "indexed": false,
          "internalType": "uint256",
          "name": "amount",
          "type": "uint256"
        }
      ],
      "name": "ETHDeposited",
      "type": "event"
    },
    {
      "anonymous": false,
      "inputs": [
        {
          "indexed": true,
          "internalType": "bytes32",
          "name": "gameId",
          "type": "bytes32"
        },
        {
          "indexed": true,
          "internalType": "address",
          "name": "winner",
          "type": "address"
        }
      ],
      "name": "GameCompleted",
      "type": "event"
    },
    {
      "anonymous": false,
      "inputs": [
        {
          "indexed": true,
          "internalType": "bytes32",
          "name": "gameId",
          "type": "bytes32"
        },
        {
          "indexed": false,
          "internalType": "address",
          "name": "nftDepositor",
          "type": "address"
        },
        {
          "indexed": false,
          "internalType": "address",
          "name": "cryptoDepositor",
          "type": "address"
        }
      ],
      "name": "GameReady",
      "type": "event"
    },
    {
      "anonymous": false,
      "inputs": [
        {
          "indexed": true,
          "internalType": "bytes32",
          "name": "gameId",
          "type": "bytes32"
        },
        {
          "indexed": true,
          "internalType": "address",
          "name": "depositor",
          "type": "address"
        },
        {
          "indexed": false,
          "internalType": "address",
          "name": "nftContract",
          "type": "address"
        },
        {
          "indexed": false,
          "internalType": "uint256",
          "name": "tokenId",
          "type": "uint256"
        }
      ],
      "name": "NFTDeposited",
      "type": "event"
    },
    {
      "anonymous": false,
      "inputs": [
        {
          "indexed": true,
          "internalType": "address",
          "name": "previousOwner",
          "type": "address"
        },
        {
          "indexed": true,
          "internalType": "address",
          "name": "newOwner",
          "type": "address"
        }
      ],
      "name": "OwnershipTransferred",
      "type": "event"
    },
    {
      "anonymous": false,
      "inputs": [
        {
          "indexed": false,
          "internalType": "address",
          "name": "account",
          "type": "address"
        }
      ],
      "name": "Paused",
      "type": "event"
    },
    {
      "anonymous": false,
      "inputs": [
        {
          "indexed": true,
          "internalType": "bytes32",
          "name": "gameId",
          "type": "bytes32"
        },
        {
          "indexed": true,
          "internalType": "address",
          "name": "depositor",
          "type": "address"
        },
        {
          "indexed": false,
          "internalType": "uint256",
          "name": "amount",
          "type": "uint256"
        }
      ],
      "name": "USDCDeposited",
      "type": "event"
    },
    {
      "anonymous": false,
      "inputs": [
        {
          "indexed": false,
          "internalType": "address",
          "name": "account",
          "type": "address"
        }
      ],
      "name": "Unpaused",
      "type": "event"
    },
    {
      "inputs": [],
      "name": "BASIS_POINTS",
      "outputs": [
        {
          "internalType": "uint256",
          "name": "",
          "type": "uint256"
        }
      ],
      "stateMutability": "view",
      "type": "function"
    },
    {
      "inputs": [
        {
          "internalType": "bytes32[]",
          "name": "gameIds",
          "type": "bytes32[]"
        },
        {
          "internalType": "address[]",
          "name": "recipients",
          "type": "address[]"
        }
      ],
      "name": "adminBatchWithdrawNFTs",
      "outputs": [],
      "stateMutability": "nonpayable",
      "type": "function"
    },
    {
      "inputs": [
        {
          "internalType": "bytes32",
          "name": "gameId",
          "type": "bytes32"
        },
        {
          "internalType": "address",
          "name": "winner",
          "type": "address"
        }
      ],
      "name": "completeGame",
      "outputs": [],
      "stateMutability": "nonpayable",
      "type": "function"
    },
    {
      "inputs": [
        {
          "internalType": "bytes32",
          "name": "gameId",
          "type": "bytes32"
        }
      ],
      "name": "depositETH",
      "outputs": [],
      "stateMutability": "payable",
      "type": "function"
    },
    {
      "inputs": [
        {
          "internalType": "bytes32",
          "name": "gameId",
          "type": "bytes32"
        },
        {
          "internalType": "address",
          "name": "nftContract",
          "type": "address"
        },
        {
          "internalType": "uint256",
          "name": "tokenId",
          "type": "uint256"
        }
      ],
      "name": "depositNFT",
      "outputs": [],
      "stateMutability": "nonpayable",
      "type": "function"
    },
    {
      "inputs": [],
      "name": "depositTimeout",
      "outputs": [
        {
          "internalType": "uint256",
          "name": "",
          "type": "uint256"
        }
      ],
      "stateMutability": "view",
      "type": "function"
    },
    {
      "inputs": [
        {
          "internalType": "bytes32",
          "name": "gameId",
          "type": "bytes32"
        },
        {
          "internalType": "uint256",
          "name": "amount",
          "type": "uint256"
        }
      ],
      "name": "depositUSDC",
      "outputs": [],
      "stateMutability": "nonpayable",
      "type": "function"
    },
    {
      "inputs": [
        {
          "internalType": "bytes32",
          "name": "gameId",
          "type": "bytes32"
        },
        {
          "internalType": "address",
          "name": "recipient",
          "type": "address"
        }
      ],
      "name": "emergencyWithdrawETH",
      "outputs": [],
      "stateMutability": "nonpayable",
      "type": "function"
    },
    {
      "inputs": [
        {
          "internalType": "bytes32",
          "name": "gameId",
          "type": "bytes32"
        },
        {
          "internalType": "address",
          "name": "recipient",
          "type": "address"
        }
      ],
      "name": "emergencyWithdrawNFT",
      "outputs": [],
      "stateMutability": "nonpayable",
      "type": "function"
    },
    {
      "inputs": [
        {
          "internalType": "bytes32",
          "name": "gameId",
          "type": "bytes32"
        },
        {
          "internalType": "address",
          "name": "recipient",
          "type": "address"
        }
      ],
      "name": "emergencyWithdrawUSDC",
      "outputs": [],
      "stateMutability": "nonpayable",
      "type": "function"
    },
    {
      "inputs": [
        {
          "internalType": "bytes32",
          "name": "",
          "type": "bytes32"
        }
      ],
      "name": "ethDeposits",
      "outputs": [
        {
          "internalType": "address",
          "name": "depositor",
          "type": "address"
        },
        {
          "internalType": "uint256",
          "name": "amount",
          "type": "uint256"
        },
        {
          "internalType": "bool",
          "name": "claimed",
          "type": "bool"
        },
        {
          "internalType": "uint256",
          "name": "depositTime",
          "type": "uint256"
        }
      ],
      "stateMutability": "view",
      "type": "function"
    },
    {
      "inputs": [
        {
          "internalType": "bytes32",
          "name": "",
          "type": "bytes32"
        }
      ],
      "name": "gameResults",
      "outputs": [
        {
          "internalType": "address",
          "name": "winner",
          "type": "address"
        },
        {
          "internalType": "bool",
          "name": "completed",
          "type": "bool"
        },
        {
          "internalType": "uint256",
          "name": "completionTime",
          "type": "uint256"
        }
      ],
      "stateMutability": "view",
      "type": "function"
    },
    {
      "inputs": [
        {
          "internalType": "bytes32",
          "name": "gameId",
          "type": "bytes32"
        }
      ],
      "name": "getGameParticipants",
      "outputs": [
        {
          "internalType": "address",
          "name": "nftPlayer",
          "type": "address"
        },
        {
          "internalType": "address",
          "name": "cryptoPlayer",
          "type": "address"
        }
      ],
      "stateMutability": "view",
      "type": "function"
    },
    {
      "inputs": [
        {
          "internalType": "bytes32",
          "name": "gameId",
          "type": "bytes32"
        }
      ],
      "name": "isGameReady",
      "outputs": [
        {
          "internalType": "bool",
          "name": "",
          "type": "bool"
        }
      ],
      "stateMutability": "view",
      "type": "function"
    },
    {
      "inputs": [
        {
          "internalType": "bytes32",
          "name": "",
          "type": "bytes32"
        }
      ],
      "name": "nftDeposits",
      "outputs": [
        {
          "internalType": "address",
          "name": "depositor",
          "type": "address"
        },
        {
          "internalType": "address",
          "name": "nftContract",
          "type": "address"
        },
        {
          "internalType": "uint256",
          "name": "tokenId",
          "type": "uint256"
        },
        {
          "internalType": "bool",
          "name": "claimed",
          "type": "bool"
        },
        {
          "internalType": "uint256",
          "name": "depositTime",
          "type": "uint256"
        }
      ],
      "stateMutability": "view",
      "type": "function"
    },
    {
      "inputs": [],
      "name": "owner",
      "outputs": [
        {
          "internalType": "address",
          "name": "",
          "type": "address"
        }
      ],
      "stateMutability": "view",
      "type": "function"
    },
    {
      "inputs": [],
      "name": "pause",
      "outputs": [],
      "stateMutability": "nonpayable",
      "type": "function"
    },
    {
      "inputs": [],
      "name": "paused",
      "outputs": [
        {
          "internalType": "bool",
          "name": "",
          "type": "bool"
        }
      ],
      "stateMutability": "view",
      "type": "function"
    },
    {
      "inputs": [],
      "name": "platformFeePercent",
      "outputs": [
        {
          "internalType": "uint256",
          "name": "",
          "type": "uint256"
        }
      ],
      "stateMutability": "view",
      "type": "function"
    },
    {
      "inputs": [],
      "name": "platformFeeReceiver",
      "outputs": [
        {
          "internalType": "address",
          "name": "",
          "type": "address"
        }
      ],
      "stateMutability": "view",
      "type": "function"
    },
    {
      "inputs": [
        {
          "internalType": "bytes32",
          "name": "gameId",
          "type": "bytes32"
        }
      ],
      "name": "reclaimCrypto",
      "outputs": [],
      "stateMutability": "nonpayable",
      "type": "function"
    },
    {
      "inputs": [
        {
          "internalType": "bytes32",
          "name": "gameId",
          "type": "bytes32"
        }
      ],
      "name": "reclaimNFT",
      "outputs": [],
      "stateMutability": "nonpayable",
      "type": "function"
    },
    {
      "inputs": [],
      "name": "renounceOwnership",
      "outputs": [],
      "stateMutability": "nonpayable",
      "type": "function"
    },
    {
      "inputs": [
        {
          "internalType": "uint256",
          "name": "_timeout",
          "type": "uint256"
        }
      ],
      "name": "setDepositTimeout",
      "outputs": [],
      "stateMutability": "nonpayable",
      "type": "function"
    },
    {
      "inputs": [
        {
          "internalType": "uint256",
          "name": "_feePercent",
          "type": "uint256"
        }
      ],
      "name": "setPlatformFeePercent",
      "outputs": [],
      "stateMutability": "nonpayable",
      "type": "function"
    },
    {
      "inputs": [
        {
          "internalType": "address",
          "name": "_receiver",
          "type": "address"
        }
      ],
      "name": "setPlatformFeeReceiver",
      "outputs": [],
      "stateMutability": "nonpayable",
      "type": "function"
    },
    {
      "inputs": [
        {
          "internalType": "address",
          "name": "newOwner",
          "type": "address"
        }
      ],
      "name": "transferOwnership",
      "outputs": [],
      "stateMutability": "nonpayable",
      "type": "function"
    },
    {
      "inputs": [],
      "name": "unpause",
      "outputs": [],
      "stateMutability": "nonpayable",
      "type": "function"
    },
    {
      "inputs": [
        {
          "internalType": "bytes32",
          "name": "",
          "type": "bytes32"
        }
      ],
      "name": "usdcDeposits",
      "outputs": [
        {
          "internalType": "address",
          "name": "depositor",
          "type": "address"
        },
        {
          "internalType": "uint256",
          "name": "amount",
          "type": "uint256"
        },
        {
          "internalType": "bool",
          "name": "claimed",
          "type": "bool"
        },
        {
          "internalType": "uint256",
          "name": "depositTime",
          "type": "uint256"
        }
      ],
      "stateMutability": "view",
      "type": "function"
    },
    {
      "inputs": [],
      "name": "usdcToken",
      "outputs": [
        {
          "internalType": "address",
          "name": "",
          "type": "address"
        }
      ],
      "stateMutability": "view",
      "type": "function"
    }
  ],
  "bytecode": "0x608034620000eb57601f620023ec38819003918201601f19168301916001600160401b03831184841017620000f0578084926040948552833981010312620000eb576200005a6020620000528362000106565b920162000106565b9060016000556001546040519260018060a01b0391338382167f8be0079c531659141344cd1fd0a4f28419497f9722a3daafe3b4186f6b6457e0600080a36001600160a81b0319163360ff60a01b191617600155607860065561015e600755600880546001600160a01b03199081169484169490941790556009805490931691161790556122d090816200011c8239f35b600080fd5b634e487b7160e01b600052604160045260246000fd5b51906001600160a01b0382168203620000eb5756fe60806040908082526004908136101561001757600080fd5b600090813560e01c90816311eac85514611c875750806315e85e6d14611c265780631daedc1014611bc95780632762737314611ba75780632d656ad714611b7e5780633f4ba83a14611ae15780634989f9be14611a965780635c975abb14611a6f578063615318c714611a5057806366fa9918146119295780636e6e8e6314611690578063715018a6146116335780637c34c355146114b05780638456cb591461144f5780638c639a85146114305780638da5cb5b1461140757806398ebcbd7146112ab578063a60ecd6514611091578063b0f81bb814610fb5578063b136d2e014610e5a578063cab230d214610df8578063d68d9d4e14610cdd578063de9c692214610b41578063e1f1c4a714610b20578063e340977a14610ae0578063e9df302714610551578063ebd9c39c146104f4578063ee53e325146102c1578063f2fde38b146101f45763f8d732881461016f57600080fd5b346101f15760203660031901126101f1576101e09083833591828152600260205260018060a01b039283838320541695600360205284848420541615156000146101e4575081526003602052205416925b516001600160a01b03928316815292909116602083015281906040820190565b0390f35b60205250205416926101c0565b80fd5b509190346102bd5760203660031901126102bd57610210611cc7565b90610219611d0e565b6001600160a01b0391821692831561026b575050600154826001600160601b0360a01b821617600155167f8be0079c531659141344cd1fd0a4f28419497f9722a3daafe3b4186f6b6457e0600080a380f35b906020608492519162461bcd60e51b8352820152602660248201527f4f776e61626c653a206e6577206f776e657220697320746865207a65726f206160448201526564647265737360d01b6064820152fd5b8280fd5b5091346102bd57806003193601126102bd5767ffffffffffffffff9180358381116104f0576102f39036908301611cdd565b60249391939485359081116104ec5761030f9036908501611cdd565b94909161031a611d0e565b8581036104b257875b81811061032e578880f35b610339818385612240565b358952600260209080825288878c208c8860018060a01b0394858454161515806104a3575b61038d575b50505050505050600019811461037b57600101610323565b634e487b7160e01b8952601186528789fd5b6103a86103a38960019789898901541695612240565b612266565b90840154823b1561049f576103f69284928f8f90859151968795869485936323b872dd60e01b85523090850160409194939294606082019560018060a01b0380921683521660208201520152565b03925af1801561049557908d9594939291610474575b5050600301805460ff1916909117905560008051602061227b833981519152906060906104496103a387610441818b8d612240565b35968c612240565b169360098a51918083528201526809c8ca8be8482a886960bb1b8a820152a3388088818c8882610363565b610482919293949550611ddd565b61049157908a92918d3861040c565b8c80fd5b8b513d84823e3d90fd5b8380fd5b5060ff6003850154161561035e565b835162461bcd60e51b815260208187015260158189015274082e4e4c2f240d8cadccee8d040dad2e6dac2e8c6d605b1b6044820152606490fd5b8680fd5b8480fd5b509190346102bd5760203660031901126102bd573582526003602081815292829020805460018201546002830154929093015493516001600160a01b0390911681529384019190915260ff16151560408301526060820152608090f35b509190346102bd57816003193601126102bd5780359061056f611cac565b610577611d0e565b61057f611e5a565b835163161f037760e31b8152828101849052602092908381602481305afa908115610ad6578791610ab9575b5015610a8557838652600583526105cb60ff8688205460a01c1615611d66565b838652600283528486205460038452858720546001600160a01b039182169691949190851615610a7757858852600382528481892054165b85808616988914918215610a6b575b505015610a205780516060810181811067ffffffffffffffff821117610a0b578252878152600183820181815283830190428252898c526005865288858d2094511684549160ff60a01b9051151560a01b16916affffffffffffffffffffff60a81b161717835551910155600282528088208886600183015416600283015490803b156102bd5784516323b872dd60e01b8152308189019081526001600160a01b038a1660208201526040810193909352918391839182908490829060600103925af18015610a01576109e9575b50506003019460ff1995600187825416179055868952600383528881838220541615156000146108235787905260038352818920948980808060018a015461073861271061073060075484612101565b04809261212a565b96600854165af1610747612137565b50156107e0578980809381935af161075d612137565b501561079f57505050600260019101918254161790555b7f0bf6aee0a93e0c0696509fac1649343cafc5bf013811646e438330fe86e4c15f8380a36001815580f35b5162461bcd60e51b815291820152601a60248201527f57696e6e657220455448207472616e73666572206661696c6564000000000000604482015260649150fd5b50505162461bcd60e51b815291820152601c60248201527f506c6174666f726d20666565207472616e73666572206661696c656400000000604482015260649150fd5b90948490818552838320966108868660018a015461084961271061073060075484612101565b968460095416908560085416908a5180968195829463a9059cbb60e01b9c8d8552840160209093929193604081019460018060a01b031681520152565b03925af19081156109df578d916109c2575b50156109755760095485519384526001600160a01b039092168784019081526020810194909452919285928492169082908d90829060400103925af190811561096b57899161093e575b50156108fd5750505060026001910191825416179055610774565b5162461bcd60e51b815291820152601b60248201527f57696e6e65722055534443207472616e73666572206661696c65640000000000604482015260649150fd5b61095e9150833d8511610964575b6109568183611df1565b810190611fb1565b386108e2565b503d61094c565b82513d8b823e3d90fd5b845162461bcd60e51b8152808801879052602160248201527f506c6174666f726d205553444320666565207472616e73666572206661696c656044820152601960fa1b6064820152608490fd5b6109d99150873d8911610964576109568183611df1565b38610898565b86513d8f823e3d90fd5b6109f290611ddd565b6109fd5788386106e0565b8880fd5b84513d84823e3d90fd5b604185634e487b7160e01b6000525260246000fd5b5162461bcd60e51b815291820152602160248201527f57696e6e6572206d75737420626520612067616d65207061727469636970616e6044820152601d60fa1b606482015260849150fd5b16881490508538610612565b828252848189205416610603565b845162461bcd60e51b8152908101839052600e60248201526d47616d65206e6f7420726561647960901b6044820152606490fd5b610ad09150843d8611610964576109568183611df1565b386105ab565b86513d89823e3d90fd5b50346101f15760203660031901126101f157610afa611cc7565b610b02611d0e565b60018060a01b03166001600160601b0360a01b600854161760085580f35b508234610b3d5781600319360112610b3d57602090516127108152f35b5080fd5b5091346102bd576020918260031936011261049f57803591610b61611e5a565b8285526002845280852080546001600160a01b03939084163303610cab5790869160026003830195610b9760ff88541615612177565b87855260058952610bb160ff8787205460a01c16156121b5565b878552600389528086862054161580610c9b575b610be890610bd985870154600654906121f2565b42118115610c93575b506121ff565b600184015416920154823b1561049f5784516323b872dd60e01b815230928101928352336020840152604083019190915291839183919082908490829060600103925af18015610c8957610c75575b50506213919560ea1b91600160ff19825416179055600381519480865285015283015260008051602061227b83398151915260603393a36001815580f35b610c7e90611ddd565b6104f0578438610c37565b83513d84823e3d90fd5b905038610be2565b5082895285852054811615610bc5565b825162461bcd60e51b8152908101869052600c60248201526b139bdd081e5bdd5c8813919560a21b6044820152606490fd5b50916020908160031936011261049f57823592610cf8611e5a565b610d00611e13565b8385526003835281852054610d35906001600160a01b0390610d2490821615611eb0565b858752828552838720541615611f08565b83855260058352610d4f60ff8387205460a01c1615611d66565b3415610dc2575090827f8534743902a2fb19639aba9d7882a1a9b06d7a841874192da0738ce3973db0ae83610dae610dbb969551610d8c81611dab565b3381523486820152888382015242606082015284895260038652828920611f60565b51923484523393a361200c565b6001815580f35b82606492519162461bcd60e51b8352820152601260248201527109aeae6e840e6cadcc840e6dedaca408aa8960731b6044820152fd5b509190346102bd5760203660031901126102bd57803591610e17611d0e565b6103e88311610e2857505060075580f35b906020606492519162461bcd60e51b8352820152600c60248201526b08ccaca40e8dede40d0d2ced60a31b6044820152fd5b509190346102bd57816003193601126102bd57803590610e78611cac565b90610e81611d0e565b828552600260205283852080546001600160a01b03929190831615610f7f5780600388920192610eb560ff85541615612177565b600285600184015416920154823b1561049f5788516323b872dd60e01b8152309281019283526001600160a01b0388166020840152604083019190915291839183919082908490829060600103925af18015610f7557610f59575b50509060008051602061227b83398151915292606092600160ff198254161790556c4e46545f454d455247454e435960981b86519660208852600d60208901528701521693a380f35b610f6590939293611ddd565b610f7157908538610f10565b8580fd5b87513d84823e3d90fd5b855162461bcd60e51b8152602081840152601060248201526f139bc81391950819195c1bdcda5d195960821b6044820152606490fd5b5091346102bd57602092836003193601126101f157823581526002845281812080546001600160a01b039081161515949185611081575b50839060038752818420928184541615159384611071575b508315611044575b505060ff919260058752205460a01c1615908361103c575b5082611034575b50519015158152f35b91503861102b565b925038611024565b60ff935087528184209081541615159081611062575b50913861100c565b8391506002015416153861105a565b6002015460ff1615935038611004565b6003015460ff1615945083610fec565b508234610b3d576060366003190112610b3d578235906110af611cac565b90604435906110bc611e5a565b6110c4611e13565b8385526002602052808520546001600160a01b0390811661125c5784865260056020526110fa60ff8388205460a01c1615611d66565b80841690813b156104ec5782516323b872dd60e01b81523389820190815230602082015260408101869052889082908190606001038183875af180156112525761123f575b5082519160a0830183811067ffffffffffffffff82111761122a57928899886111ff610dbb9b8299968996611222997f3a2446e77599b001d6e7f8d965d64c3ec2c5222ba2a3f1cba8ad884dd7f8349d9b523387526020870190815287870191898352808960608a019580875260808b0198428a528152600260205220985116906001600160601b0360a01b91828a54161789556001890192511690825416179055516002860155511515600385019060ff801983541691151516179055565b51910155516001600160a01b039095168552602085015233939081906040820190565b0390a361200c565b60418a634e487b7160e01b6000525260246000fd5b61124b90979197611ddd565b958861113f565b84513d8a823e3d90fd5b815162461bcd60e51b8152602081890152602360248201527f4e465420616c7265616479206465706f736974656420666f7220746869732067604482015262616d6560e81b6064820152608490fd5b509190346102bd57816003193601126102bd578035906112c9611cac565b6112d1611d0e565b8285526020828152848620805491956001600160a01b039490928516156113d0578661134691600284019361130a60ff86541615612177565b868b60018a600954169301549388519687958694859363a9059cbb60e01b8552840160209093929193604081019460018060a01b031681520152565b03925af19081156113c657926060949261138a6d555344435f454d455247454e435960901b9360008051602061227b83398151915298968c916113a9575b50611fc9565b600160ff19825416179055600e815198808a528901528701521693a380f35b6113c091508b3d8d11610964576109568183611df1565b38611384565b83513d8a823e3d90fd5b825162461bcd60e51b81529081018790526011602482015270139bc81554d110c819195c1bdcda5d1959607a1b6044820152606490fd5b508234610b3d5781600319360112610b3d5760015490516001600160a01b039091168152602090f35b508234610b3d5781600319360112610b3d576020906007549051908152f35b508234610b3d5781600319360112610b3d5760207f62e78cea01bee320cd4e420270b5ea74000d11b0c9f74754ebdbfc544b05a2589161148d611d0e565b611495611e13565b6001805460ff60a01b1916600160a01b17905551338152a180f35b509190346102bd57816003193601126102bd57803590602435906114d2611e5a565b6114da611e13565b82855260209080825260018060a01b036114f981878920541615611f08565b8487526003835261150f81878920541615611eb0565b8487526005835261152960ff8789205460a01c1615611d66565b83156115f85760095486516323b872dd60e01b815233848201908152306020820152604081018790529092859284928390036060019183918c91165af1908115610ad657956115d57f8f5781fdb49be2343ca56c67e0fa09ece1a4887afb22f1edccd90c3632601c87936115a9889694610dbb9a8c916115e15750611fc9565b8251906115b582611dab565b33825287858301528a84830152426060830152868b528452828a20611f60565b519384523393a361200c565b6113c09150863d8811610964576109568183611df1565b5060649185519162461bcd60e51b835282015260166024820152754d757374206465706f73697420736f6d65205553444360501b6044820152fd5b50346101f157806003193601126101f15761164c611d0e565b600180546001600160a01b0319811690915581906001600160a01b03167f8be0079c531659141344cd1fd0a4f28419497f9722a3daafe3b4186f6b6457e08280a380f35b509190346102bd576020918260031936011261049f578135916116b1611e5a565b828552600584526116cb60ff8387205460a01c16156121b5565b828552600284528185205460038552828620546001600160a01b0391821615919033908216036117b65750908386526003855285808080600187822061172e600282019861171d60ff8b541615612177565b610bd96003840154600654906121f2565b0154335af161173b612137565b501561177f5750906208aa8960eb1b91600160ff19825416179055600381519480865285015283015260008051602061227b83398151915260603393a36001815580f35b825162461bcd60e51b81529081018590526011602482015270115512081c99599d5b990819985a5b1959607a1b6044820152606490fd5b82865283872054811633036118e6578561183588928784528583526001878520916117fe60028401976117ed60ff8a541615612177565b610bd96003860154600654906121f2565b60095416910154875194858094819363a9059cbb60e01b8352338b840160209093929193604081019460018060a01b031681520152565b03925af19081156118dc5787916118bf575b501561188857805460ff19166001179055815184815293840152635553444360e01b90830152339160008051602061227b83398151915290606090a3610dbb565b5083606492519162461bcd60e51b835282015260126024820152711554d110c81c99599d5b990819985a5b195960721b6044820152fd5b6118d69150863d8811610964576109568183611df1565b38611847565b84513d89823e3d90fd5b835162461bcd60e51b8152808401879052601760248201527f4e6f7420796f75722063727970746f206465706f7369740000000000000000006044820152606490fd5b509190346102bd57816003193601126102bd57803590611947611cac565b61194f611d0e565b828552600360205283852080546001600160a01b039390841615611a1a57868080806001600287019661198660ff89541615612177565b0154875af1611993612137565b50156119e157509160609160008051602061227b83398151915293600160ff198254161790556c4554485f454d455247454e435960981b86519660208852600d60208901528701521693a380f35b606490602087519162461bcd60e51b83528201526013602482015272115512081d1c985b9cd9995c8819985a5b1959606a1b6044820152fd5b606490602087519162461bcd60e51b8352820152601060248201526f139bc81155120819195c1bdcda5d195960821b6044820152fd5b508234610b3d5781600319360112610b3d576020906006549051908152f35b508234610b3d5781600319360112610b3d5760209060ff60015460a01c1690519015158152f35b509190346102bd5760203660031901126102bd57606092829135815260056020522090600182549201549060ff81519360018060a01b038116855260a01c1615156020840152820152f35b509190346102bd57826003193601126102bd57611afc611d0e565b6001549060ff8260a01c1615611b44575060ff60a01b1916600155513381527f5db9ee0a495bf2e6ff9c91a7834c1ba4fdd244a5e8aa4e537bd38aeae4b073aa90602090a180f35b606490602084519162461bcd60e51b8352820152601460248201527314185d5cd8589b194e881b9bdd081c185d5cd95960621b6044820152fd5b508234610b3d5781600319360112610b3d5760085490516001600160a01b039091168152602090f35b509034610b3d576020366003190112610b3d57611bc2611d0e565b3560065580f35b509190346102bd5760203660031901126102bd578035835260209081529181902080546001820154600283015460039093015493516001600160a01b0390921682529381019390935260ff16151560408301526060820152608090f35b5091346102bd5760203660031901126102bd578060a09383358152600260205220600180851b039283825416936001830154169260028301549160ff6003850154169301549381519586526020860152840152151560608301526080820152f35b905034610b3d5781600319360112610b3d576009546001600160a01b03168152602090f35b602435906001600160a01b0382168203611cc257565b600080fd5b600435906001600160a01b0382168203611cc257565b9181601f84011215611cc25782359167ffffffffffffffff8311611cc2576020808501948460051b010111611cc257565b6001546001600160a01b03163303611d2257565b606460405162461bcd60e51b815260206004820152602060248201527f4f776e61626c653a2063616c6c6572206973206e6f7420746865206f776e65726044820152fd5b15611d6d57565b60405162461bcd60e51b815260206004820152601660248201527511d85b5948185b1c9958591e4818dbdb5c1b195d195960521b6044820152606490fd5b6080810190811067ffffffffffffffff821117611dc757604052565b634e487b7160e01b600052604160045260246000fd5b67ffffffffffffffff8111611dc757604052565b90601f8019910116810190811067ffffffffffffffff821117611dc757604052565b60ff60015460a01c16611e2257565b60405162461bcd60e51b815260206004820152601060248201526f14185d5cd8589b194e881c185d5cd95960821b6044820152606490fd5b600260005414611e6b576002600055565b60405162461bcd60e51b815260206004820152601f60248201527f5265656e7472616e637947756172643a207265656e7472616e742063616c6c006044820152606490fd5b15611eb757565b60405162461bcd60e51b815260206004820152602360248201527f45544820616c7265616479206465706f736974656420666f7220746869732067604482015262616d6560e81b6064820152608490fd5b15611f0f57565b60405162461bcd60e51b8152602060048201526024808201527f5553444320616c7265616479206465706f736974656420666f7220746869732060448201526367616d6560e01b6064820152608490fd5b90606060039160018060a01b038151166001600160601b0360a01b85541617845560208101516001850155611faa60408201511515600286019060ff801983541691151516179055565b0151910155565b90816020910312611cc257518015158103611cc25790565b15611fd057565b60405162461bcd60e51b81526020600482015260146024820152731554d110c81d1c985b9cd9995c8819985a5b195960621b6044820152606490fd5b60008181526002602090815260408083205460038352818420546001600160a01b03949185161515908516158015906120ef575b816120e7575b50612053575b5050505050565b7f1c659750f340e5299f05cfafea9d901858d47405bba10a4235f7b0d2247f144893826120c8926003865282828220541615156000146120d557878152600386526002838383205416965b89835252205492516001600160a01b03919093168116835290921660208201529081906040820190565b0390a2388080808061204c565b6004865260028383832054169661209e565b905038612046565b50600484528483832054161515612040565b8181029291811591840414171561211457565b634e487b7160e01b600052601160045260246000fd5b9190820391821161211457565b3d15612172573d9067ffffffffffffffff8211611dc75760405191612166601f8201601f191660200184611df1565b82523d6000602084013e565b606090565b1561217e57565b60405162461bcd60e51b815260206004820152600f60248201526e105b1c9958591e4818db185a5b5959608a1b6044820152606490fd5b156121bc57565b60405162461bcd60e51b815260206004820152600e60248201526d11d85b594818dbdb5c1b195d195960921b6044820152606490fd5b9190820180921161211457565b1561220657565b60405162461bcd60e51b815260206004820152601260248201527110d85b9b9bdd081c9958db185a5b481e595d60721b6044820152606490fd5b91908110156122505760051b0190565b634e487b7160e01b600052603260045260246000fd5b356001600160a01b0381168103611cc2579056feb9389f406fe2f12fee7d080bbb0bc247c61f84511a9f00d2589ec9bd002507f6a264697066735822122044a51c663b27fec3ce92d23c6738082ece7db9e84077108ff0090631a868582364736f6c63430008140033",
  "linkReferences": {},
  "deployedLinkReferences": {}
}