{
  "_format": "hh-sol-artifact-1",
  "contractName": "NFTFlipGame",
  "sourceName": "contracts/NFTFlipGame.sol",
  "abi": [
    {
      "inputs": [
        {
          "internalType": "address",
          "name": "_feeReceiver",
          "type": "address"
        }
      ],
      "stateMutability": "nonpayable",
      "type": "constructor"
    },
    {
      "anonymous": false,
      "inputs": [
        {
          "indexed": true,
          "internalType": "address",
          "name": "receiver",
          "type": "address"
        },
        {
          "indexed": false,
          "internalType": "uint256",
          "name": "amount",
          "type": "uint256"
        }
      ],
      "name": "FeesTransferred",
      "type": "event"
    },
    {
      "anonymous": false,
      "inputs": [
        {
          "indexed": true,
          "internalType": "uint256",
          "name": "gameId",
          "type": "uint256"
        },
        {
          "indexed": true,
          "internalType": "address",
          "name": "winner",
          "type": "address"
        }
      ],
      "name": "GameCompleted",
      "type": "event"
    },
    {
      "anonymous": false,
      "inputs": [
        {
          "indexed": true,
          "internalType": "uint256",
          "name": "gameId",
          "type": "uint256"
        },
        {
          "indexed": true,
          "internalType": "address",
          "name": "creator",
          "type": "address"
        },
        {
          "indexed": false,
          "internalType": "uint256",
          "name": "weiAmount",
          "type": "uint256"
        }
      ],
      "name": "GameCreated",
      "type": "event"
    },
    {
      "anonymous": false,
      "inputs": [
        {
          "indexed": true,
          "internalType": "uint256",
          "name": "gameId",
          "type": "uint256"
        },
        {
          "indexed": true,
          "internalType": "address",
          "name": "joiner",
          "type": "address"
        }
      ],
      "name": "GameJoined",
      "type": "event"
    },
    {
      "anonymous": false,
      "inputs": [
        {
          "indexed": true,
          "internalType": "address",
          "name": "previousOwner",
          "type": "address"
        },
        {
          "indexed": true,
          "internalType": "address",
          "name": "newOwner",
          "type": "address"
        }
      ],
      "name": "OwnershipTransferred",
      "type": "event"
    },
    {
      "inputs": [
        {
          "internalType": "uint256",
          "name": "gameId",
          "type": "uint256"
        },
        {
          "internalType": "address",
          "name": "winner",
          "type": "address"
        }
      ],
      "name": "completeGame",
      "outputs": [],
      "stateMutability": "nonpayable",
      "type": "function"
    },
    {
      "inputs": [
        {
          "internalType": "address",
          "name": "nftContract",
          "type": "address"
        },
        {
          "internalType": "uint256",
          "name": "tokenId",
          "type": "uint256"
        },
        {
          "internalType": "uint256",
          "name": "weiAmount",
          "type": "uint256"
        }
      ],
      "name": "createGame",
      "outputs": [],
      "stateMutability": "nonpayable",
      "type": "function"
    },
    {
      "inputs": [],
      "name": "emergencyWithdrawETH",
      "outputs": [],
      "stateMutability": "nonpayable",
      "type": "function"
    },
    {
      "inputs": [
        {
          "internalType": "address",
          "name": "nftContract",
          "type": "address"
        },
        {
          "internalType": "uint256",
          "name": "tokenId",
          "type": "uint256"
        }
      ],
      "name": "emergencyWithdrawNFT",
      "outputs": [],
      "stateMutability": "nonpayable",
      "type": "function"
    },
    {
      "inputs": [],
      "name": "feePercent",
      "outputs": [
        {
          "internalType": "uint256",
          "name": "",
          "type": "uint256"
        }
      ],
      "stateMutability": "view",
      "type": "function"
    },
    {
      "inputs": [],
      "name": "feeReceiver",
      "outputs": [
        {
          "internalType": "address",
          "name": "",
          "type": "address"
        }
      ],
      "stateMutability": "view",
      "type": "function"
    },
    {
      "inputs": [
        {
          "internalType": "uint256",
          "name": "",
          "type": "uint256"
        }
      ],
      "name": "games",
      "outputs": [
        {
          "internalType": "address",
          "name": "creator",
          "type": "address"
        },
        {
          "internalType": "address",
          "name": "joiner",
          "type": "address"
        },
        {
          "internalType": "address",
          "name": "nftContract",
          "type": "address"
        },
        {
          "internalType": "uint256",
          "name": "tokenId",
          "type": "uint256"
        },
        {
          "internalType": "uint256",
          "name": "weiAmount",
          "type": "uint256"
        },
        {
          "internalType": "bool",
          "name": "completed",
          "type": "bool"
        },
        {
          "internalType": "address",
          "name": "winner",
          "type": "address"
        }
      ],
      "stateMutability": "view",
      "type": "function"
    },
    {
      "inputs": [
        {
          "internalType": "uint256",
          "name": "gameId",
          "type": "uint256"
        }
      ],
      "name": "joinGame",
      "outputs": [],
      "stateMutability": "payable",
      "type": "function"
    },
    {
      "inputs": [],
      "name": "nextGameId",
      "outputs": [
        {
          "internalType": "uint256",
          "name": "",
          "type": "uint256"
        }
      ],
      "stateMutability": "view",
      "type": "function"
    },
    {
      "inputs": [],
      "name": "owner",
      "outputs": [
        {
          "internalType": "address",
          "name": "",
          "type": "address"
        }
      ],
      "stateMutability": "view",
      "type": "function"
    },
    {
      "inputs": [],
      "name": "renounceOwnership",
      "outputs": [],
      "stateMutability": "nonpayable",
      "type": "function"
    },
    {
      "inputs": [
        {
          "internalType": "address",
          "name": "newOwner",
          "type": "address"
        }
      ],
      "name": "transferOwnership",
      "outputs": [],
      "stateMutability": "nonpayable",
      "type": "function"
    }
  ],
  "bytecode": "0x6080346100b757601f610c6638819003918201601f19168301916001600160401b038311848410176100bc578084926020946040528339810103126100b757516001600160a01b0390818116908190036100b757600160005560015460018060a01b0319903382821617600155604051933391167f8be0079c531659141344cd1fd0a4f28419497f9722a3daafe3b4186f6b6457e0600080a3600160035561015e6005556004541617600455610b9390816100d38239f35b600080fd5b634e487b7160e01b600052604160045260246000fdfe6080604081815260048036101561001557600080fd5b600092833560e01c908163117a5b9014610936575080633b17469e1461070a578063715018a6146106ac5780637fd6f15c1461068d578063845360171461063d5780638da5cb5b1461061457838163922b80791461056f57508063a6ff668914610356578063b135bbb014610333578063b3f006741461030c578063efaa55a0146101785763f2fde38b146100a957600080fd5b34610174576020366003190112610174576100c26109b2565b906100cb6109c8565b6001600160a01b03918216928315610122575050600154826bffffffffffffffffffffffff60a01b821617600155167f8be0079c531659141344cd1fd0a4f28419497f9722a3daafe3b4186f6b6457e0600080a380f35b906020608492519162461bcd60e51b8352820152602660248201527f4f776e61626c653a206e6577206f776e657220697320746865207a65726f206160448201526564647265737360d01b6064820152fd5b8280fd5b50602036600319011261017457803590610190610a4a565b818452600260205282842080546001600160a01b039291906101b59084161515610aa0565b60018101908154908482166102d357806101d760ff6005879401541615610ae2565b01543403610290576001600160a01b03191633179055600554612710906101fe9034610b27565b049361020a8534610b50565b50858080808887875416828215610287575bf11561027e57917fc812aa15be10cc23ff245a12080e7de523f13b7fd4a16277a703c4f8e31137099391602093519233907f45c4f9cbafe186141862608c493f28b823fde4c2142bedc3f5169961a73fdd228980a35416938152a26001815580f35b513d86823e3d90fd5b506108fc61021c565b855162461bcd60e51b8152602081850152601860248201527f496e636f7272656374207061796d656e7420616d6f756e7400000000000000006044820152606490fd5b865162461bcd60e51b8152602081860152601360248201527211d85b5948185b1c9958591e481a9bda5b9959606a1b6044820152606490fd5b50346101745782600319360112610174575490516001600160a01b03909116815260209150f35b5050346103525781600319360112610352576020906003549051908152f35b5080fd5b5090346101745780600319360112610174576024356001600160a01b0381811693803593929085820361056a5761038b6109c8565b610393610a4a565b8487526002602052838720838154166103ad811515610aa0565b846001830154169081156105315760058301918254916103d060ff841615610ae2565b8a14908115610527575b50156104f3576001600160a81b031916600885901b610100600160a81b0316176001179055879392919060036104238383015461271061041c60055483610b27565b0490610b50565b9460028301541691015490803b156104ef5786516323b872dd60e01b8152309381019384526001600160a01b0390941660208401526040830191909152849183919082908490829060600103925af180156104e5579083916104d1575b50808092878282156104c8575bf1156104bf57507f7f40df5127524300187445e867486da572aab86769c0212e0b392bd87c4ca97f8380a36001815580f35b513d84823e3d90fd5b506108fc61048d565b6104da90610a20565b610352578138610480565b84513d85823e3d90fd5b8580fd5b865162461bcd60e51b8152602081860152600e60248201526d24b73b30b634b2103bb4b73732b960911b6044820152606490fd5b90508914386103da565b865162461bcd60e51b8152602081860152601360248201527211d85b59481b9bdd081a9bda5b9959081e595d606a1b6044820152606490fd5b600080fd5b9290503461061057806003193601126106105761058a6109b2565b916105936109c8565b6001546001600160a01b03938416931690833b1561060c5782516323b872dd60e01b8152309181019182526001600160a01b03909216602082015260243560408201529092849184919082908490829060600103925af19081156104bf57506105f95750f35b61060290610a20565b6106095780f35b80fd5b8480fd5b5050fd5b50503461035257816003193601126103525760015490516001600160a01b039091168152602090f35b5050346103525781600319360112610352576106576109c8565b8180808060018060a01b03600154164790828215610684575bf11561067a575080f35b51903d90823e3d90fd5b506108fc610670565b5050346103525781600319360112610352576020906005549051908152f35b83346106095780600319360112610609576106c56109c8565b600180546001600160a01b031981169091556000906001600160a01b03167f8be0079c531659141344cd1fd0a4f28419497f9722a3daafe3b4186f6b6457e08280a380f35b5034610174576060366003190112610174576107246109b2565b6044359290602435610734610a4a565b84156108f3576001600160a01b0391821693843b156108ef5783516323b872dd60e01b815233828201908152306020820152604081018490528890829081906060010381838a5af180156108e5576108d2575b506003549460001986146108bf576001860160035584519260e0840184811067ffffffffffffffff8211176108aa5793610879959388936005938c978a5233845260208401918883528a85019081526060850191825260808501928d8452888c60a088019b808d5260c089019a818c528152600260205220965116906bffffffffffffffffffffffff60a01b91828854161787558960018801915116828254161790558860028701925116908254161790555160038401555190820155019251151560ff801985541691161783555116815490610100600160a81b039060081b1690610100600160a81b031916179055565b519182527f7dfb67e9ff596fca4da65c7eedb128cd1aac553af54b3c0cb733625a2480d8bd60203393a36001815580f35b604184634e487b7160e01b6000525260246000fd5b634e487b7160e01b885260118252602488fd5b6108de90979197610a20565b9538610787565b85513d8a823e3d90fd5b8680fd5b825162461bcd60e51b8152602081860152601c60248201527f5072696365206d7573742062652067726561746572207468616e2030000000006044820152606490fd5b929050346109ae5760203660031901126109ae578060e0948335815260026020522060018060a01b0392838254169284600184015416908560028501541691600560038601549486015495015495885260208801528601526060850152608084015260ff8116151560a084015260081c1660c0820152f35b8380fd5b600435906001600160a01b038216820361056a57565b6001546001600160a01b031633036109dc57565b606460405162461bcd60e51b815260206004820152602060248201527f4f776e61626c653a2063616c6c6572206973206e6f7420746865206f776e65726044820152fd5b67ffffffffffffffff8111610a3457604052565b634e487b7160e01b600052604160045260246000fd5b600260005414610a5b576002600055565b60405162461bcd60e51b815260206004820152601f60248201527f5265656e7472616e637947756172643a207265656e7472616e742063616c6c006044820152606490fd5b15610aa757565b60405162461bcd60e51b815260206004820152601360248201527211d85b5948191bd95cc81b9bdd08195e1a5cdd606a1b6044820152606490fd5b15610ae957565b60405162461bcd60e51b815260206004820152601660248201527511d85b5948185b1c9958591e4818dbdb5c1b195d195960521b6044820152606490fd5b81810292918115918404141715610b3a57565b634e487b7160e01b600052601160045260246000fd5b91908203918211610b3a5756fea2646970667358221220d84703fd52ec860c5e27bbabd980d573446b8ba62f6d3b03746916bc8b33a08e64736f6c63430008140033",
  "linkReferences": {},
  "deployedLinkReferences": {}
}