{
  "_format": "hh-sol-artifact-1",
  "contractName": "NFTFlipGame",
  "sourceName": "contracts/NFTFlipGame.sol",
  "abi": [
    {
      "inputs": [
        {
          "internalType": "address",
          "name": "_platformFeeReceiver",
          "type": "address"
        },
        {
          "internalType": "address",
          "name": "_usdcToken",
          "type": "address"
        }
      ],
      "stateMutability": "nonpayable",
      "type": "constructor"
    },
    {
      "anonymous": false,
      "inputs": [
        {
          "indexed": true,
          "internalType": "bytes32",
          "name": "gameId",
          "type": "bytes32"
        },
        {
          "indexed": true,
          "internalType": "address",
          "name": "reclaimer",
          "type": "address"
        },
        {
          "indexed": false,
          "internalType": "string",
          "name": "assetType",
          "type": "string"
        }
      ],
      "name": "AssetsReclaimed",
      "type": "event"
    },
    {
      "anonymous": false,
      "inputs": [
        {
          "indexed": true,
          "internalType": "bytes32",
          "name": "gameId",
          "type": "bytes32"
        },
        {
          "indexed": true,
          "internalType": "address",
          "name": "winner",
          "type": "address"
        }
      ],
      "name": "BattleRoyaleCompleted",
      "type": "event"
    },
    {
      "anonymous": false,
      "inputs": [
        {
          "indexed": true,
          "internalType": "bytes32",
          "name": "gameId",
          "type": "bytes32"
        },
        {
          "indexed": true,
          "internalType": "address",
          "name": "creator",
          "type": "address"
        },
        {
          "indexed": false,
          "internalType": "uint256",
          "name": "entryFee",
          "type": "uint256"
        },
        {
          "indexed": false,
          "internalType": "uint256",
          "name": "serviceFee",
          "type": "uint256"
        }
      ],
      "name": "BattleRoyaleCreated",
      "type": "event"
    },
    {
      "anonymous": false,
      "inputs": [
        {
          "indexed": true,
          "internalType": "bytes32",
          "name": "gameId",
          "type": "bytes32"
        },
        {
          "indexed": true,
          "internalType": "address",
          "name": "creator",
          "type": "address"
        },
        {
          "indexed": false,
          "internalType": "uint256",
          "name": "amount",
          "type": "uint256"
        }
      ],
      "name": "BattleRoyaleCreatorPaid",
      "type": "event"
    },
    {
      "anonymous": false,
      "inputs": [
        {
          "indexed": true,
          "internalType": "bytes32",
          "name": "gameId",
          "type": "bytes32"
        },
        {
          "indexed": true,
          "internalType": "address",
          "name": "player",
          "type": "address"
        },
        {
          "indexed": false,
          "internalType": "uint256",
          "name": "amount",
          "type": "uint256"
        }
      ],
      "name": "BattleRoyaleJoined",
      "type": "event"
    },
    {
      "anonymous": false,
      "inputs": [
        {
          "indexed": true,
          "internalType": "bytes32",
          "name": "gameId",
          "type": "bytes32"
        },
        {
          "indexed": true,
          "internalType": "address",
          "name": "winner",
          "type": "address"
        }
      ],
      "name": "BattleRoyaleNFTClaimed",
      "type": "event"
    },
    {
      "anonymous": false,
      "inputs": [
        {
          "indexed": true,
          "internalType": "bytes32",
          "name": "gameId",
          "type": "bytes32"
        },
        {
          "indexed": false,
          "internalType": "uint8",
          "name": "playerCount",
          "type": "uint8"
        }
      ],
      "name": "BattleRoyaleStarted",
      "type": "event"
    },
    {
      "anonymous": false,
      "inputs": [
        {
          "indexed": true,
          "internalType": "bytes32",
          "name": "gameId",
          "type": "bytes32"
        },
        {
          "indexed": true,
          "internalType": "address",
          "name": "depositor",
          "type": "address"
        },
        {
          "indexed": false,
          "internalType": "uint256",
          "name": "amount",
          "type": "uint256"
        }
      ],
      "name": "ETHDeposited",
      "type": "event"
    },
    {
      "anonymous": false,
      "inputs": [
        {
          "indexed": true,
          "internalType": "bytes32",
          "name": "gameId",
          "type": "bytes32"
        },
        {
          "indexed": true,
          "internalType": "address",
          "name": "winner",
          "type": "address"
        }
      ],
      "name": "GameCompleted",
      "type": "event"
    },
    {
      "anonymous": false,
      "inputs": [
        {
          "indexed": true,
          "internalType": "bytes32",
          "name": "gameId",
          "type": "bytes32"
        },
        {
          "indexed": false,
          "internalType": "address",
          "name": "nftDepositor",
          "type": "address"
        },
        {
          "indexed": false,
          "internalType": "address",
          "name": "cryptoDepositor",
          "type": "address"
        }
      ],
      "name": "GameReady",
      "type": "event"
    },
    {
      "anonymous": false,
      "inputs": [
        {
          "indexed": true,
          "internalType": "bytes32",
          "name": "gameId",
          "type": "bytes32"
        },
        {
          "indexed": true,
          "internalType": "address",
          "name": "depositor",
          "type": "address"
        },
        {
          "indexed": false,
          "internalType": "address",
          "name": "nftContract",
          "type": "address"
        },
        {
          "indexed": false,
          "internalType": "uint256",
          "name": "tokenId",
          "type": "uint256"
        }
      ],
      "name": "NFTDeposited",
      "type": "event"
    },
    {
      "anonymous": false,
      "inputs": [
        {
          "indexed": true,
          "internalType": "address",
          "name": "previousOwner",
          "type": "address"
        },
        {
          "indexed": true,
          "internalType": "address",
          "name": "newOwner",
          "type": "address"
        }
      ],
      "name": "OwnershipTransferred",
      "type": "event"
    },
    {
      "anonymous": false,
      "inputs": [
        {
          "indexed": false,
          "internalType": "address",
          "name": "account",
          "type": "address"
        }
      ],
      "name": "Paused",
      "type": "event"
    },
    {
      "anonymous": false,
      "inputs": [
        {
          "indexed": true,
          "internalType": "bytes32",
          "name": "gameId",
          "type": "bytes32"
        },
        {
          "indexed": true,
          "internalType": "address",
          "name": "depositor",
          "type": "address"
        },
        {
          "indexed": false,
          "internalType": "uint256",
          "name": "amount",
          "type": "uint256"
        }
      ],
      "name": "USDCDeposited",
      "type": "event"
    },
    {
      "anonymous": false,
      "inputs": [
        {
          "indexed": false,
          "internalType": "address",
          "name": "account",
          "type": "address"
        }
      ],
      "name": "Unpaused",
      "type": "event"
    },
    {
      "anonymous": false,
      "inputs": [
        {
          "indexed": true,
          "internalType": "bytes32",
          "name": "gameId",
          "type": "bytes32"
        },
        {
          "indexed": true,
          "internalType": "address",
          "name": "winner",
          "type": "address"
        }
      ],
      "name": "WinningsWithdrawn",
      "type": "event"
    },
    {
      "inputs": [],
      "name": "BASIS_POINTS",
      "outputs": [
        {
          "internalType": "uint256",
          "name": "",
          "type": "uint256"
        }
      ],
      "stateMutability": "view",
      "type": "function"
    },
    {
      "inputs": [
        {
          "internalType": "bytes32[]",
          "name": "gameIds",
          "type": "bytes32[]"
        },
        {
          "internalType": "address[]",
          "name": "recipients",
          "type": "address[]"
        }
      ],
      "name": "adminBatchWithdrawNFTs",
      "outputs": [],
      "stateMutability": "nonpayable",
      "type": "function"
    },
    {
      "inputs": [
        {
          "internalType": "bytes32",
          "name": "",
          "type": "bytes32"
        },
        {
          "internalType": "address",
          "name": "",
          "type": "address"
        }
      ],
      "name": "battleRoyaleEntries",
      "outputs": [
        {
          "internalType": "bool",
          "name": "",
          "type": "bool"
        }
      ],
      "stateMutability": "view",
      "type": "function"
    },
    {
      "inputs": [
        {
          "internalType": "bytes32",
          "name": "",
          "type": "bytes32"
        },
        {
          "internalType": "address",
          "name": "",
          "type": "address"
        }
      ],
      "name": "battleRoyaleEntryAmounts",
      "outputs": [
        {
          "internalType": "uint256",
          "name": "",
          "type": "uint256"
        }
      ],
      "stateMutability": "view",
      "type": "function"
    },
    {
      "inputs": [
        {
          "internalType": "bytes32",
          "name": "",
          "type": "bytes32"
        }
      ],
      "name": "battleRoyaleGames",
      "outputs": [
        {
          "internalType": "address",
          "name": "creator",
          "type": "address"
        },
        {
          "internalType": "address",
          "name": "nftContract",
          "type": "address"
        },
        {
          "internalType": "uint256",
          "name": "tokenId",
          "type": "uint256"
        },
        {
          "internalType": "uint256",
          "name": "entryFee",
          "type": "uint256"
        },
        {
          "internalType": "uint256",
          "name": "serviceFee",
          "type": "uint256"
        },
        {
          "internalType": "uint8",
          "name": "maxPlayers",
          "type": "uint8"
        },
        {
          "internalType": "uint8",
          "name": "currentPlayers",
          "type": "uint8"
        },
        {
          "internalType": "address",
          "name": "winner",
          "type": "address"
        },
        {
          "internalType": "bool",
          "name": "completed",
          "type": "bool"
        },
        {
          "internalType": "bool",
          "name": "creatorPaid",
          "type": "bool"
        },
        {
          "internalType": "bool",
          "name": "nftClaimed",
          "type": "bool"
        },
        {
          "internalType": "uint256",
          "name": "totalPool",
          "type": "uint256"
        },
        {
          "internalType": "uint256",
          "name": "createdAt",
          "type": "uint256"
        },
        {
          "internalType": "bool",
          "name": "isUnder20",
          "type": "bool"
        },
        {
          "internalType": "uint256",
          "name": "minUnder20Wei",
          "type": "uint256"
        }
      ],
      "stateMutability": "view",
      "type": "function"
    },
    {
      "inputs": [
        {
          "internalType": "bytes32",
          "name": "gameId",
          "type": "bytes32"
        },
        {
          "internalType": "address",
          "name": "player",
          "type": "address"
        }
      ],
      "name": "canWithdrawEntry",
      "outputs": [
        {
          "internalType": "bool",
          "name": "",
          "type": "bool"
        }
      ],
      "stateMutability": "view",
      "type": "function"
    },
    {
      "inputs": [
        {
          "internalType": "bytes32",
          "name": "gameId",
          "type": "bytes32"
        }
      ],
      "name": "cancelBattleRoyale",
      "outputs": [],
      "stateMutability": "nonpayable",
      "type": "function"
    },
    {
      "inputs": [
        {
          "internalType": "bytes32",
          "name": "gameId",
          "type": "bytes32"
        },
        {
          "internalType": "address",
          "name": "winner",
          "type": "address"
        }
      ],
      "name": "completeBattleRoyale",
      "outputs": [],
      "stateMutability": "nonpayable",
      "type": "function"
    },
    {
      "inputs": [
        {
          "internalType": "bytes32",
          "name": "gameId",
          "type": "bytes32"
        },
        {
          "internalType": "address",
          "name": "winner",
          "type": "address"
        }
      ],
      "name": "completeBattleRoyaleEarly",
      "outputs": [],
      "stateMutability": "nonpayable",
      "type": "function"
    },
    {
      "inputs": [
        {
          "internalType": "bytes32",
          "name": "gameId",
          "type": "bytes32"
        },
        {
          "internalType": "address",
          "name": "winner",
          "type": "address"
        }
      ],
      "name": "completeGame",
      "outputs": [],
      "stateMutability": "nonpayable",
      "type": "function"
    },
    {
      "inputs": [
        {
          "internalType": "bytes32",
          "name": "gameId",
          "type": "bytes32"
        },
        {
          "internalType": "address",
          "name": "nftContract",
          "type": "address"
        },
        {
          "internalType": "uint256",
          "name": "tokenId",
          "type": "uint256"
        },
        {
          "internalType": "uint256",
          "name": "entryFee",
          "type": "uint256"
        },
        {
          "internalType": "uint256",
          "name": "serviceFee",
          "type": "uint256"
        },
        {
          "internalType": "bool",
          "name": "isUnder20",
          "type": "bool"
        },
        {
          "internalType": "uint256",
          "name": "minUnder20Wei",
          "type": "uint256"
        },
        {
          "internalType": "bool",
          "name": "creatorParticipates",
          "type": "bool"
        }
      ],
      "name": "createBattleRoyale",
      "outputs": [],
      "stateMutability": "nonpayable",
      "type": "function"
    },
    {
      "inputs": [
        {
          "internalType": "bytes32",
          "name": "gameId",
          "type": "bytes32"
        }
      ],
      "name": "depositETH",
      "outputs": [],
      "stateMutability": "payable",
      "type": "function"
    },
    {
      "inputs": [
        {
          "internalType": "bytes32",
          "name": "gameId",
          "type": "bytes32"
        },
        {
          "internalType": "address",
          "name": "nftContract",
          "type": "address"
        },
        {
          "internalType": "uint256",
          "name": "tokenId",
          "type": "uint256"
        }
      ],
      "name": "depositNFT",
      "outputs": [],
      "stateMutability": "nonpayable",
      "type": "function"
    },
    {
      "inputs": [],
      "name": "depositTimeout",
      "outputs": [
        {
          "internalType": "uint256",
          "name": "",
          "type": "uint256"
        }
      ],
      "stateMutability": "view",
      "type": "function"
    },
    {
      "inputs": [
        {
          "internalType": "bytes32",
          "name": "gameId",
          "type": "bytes32"
        },
        {
          "internalType": "uint256",
          "name": "amount",
          "type": "uint256"
        }
      ],
      "name": "depositUSDC",
      "outputs": [],
      "stateMutability": "nonpayable",
      "type": "function"
    },
    {
      "inputs": [
        {
          "internalType": "address[]",
          "name": "nftContracts",
          "type": "address[]"
        },
        {
          "internalType": "uint256[]",
          "name": "tokenIds",
          "type": "uint256[]"
        },
        {
          "internalType": "address[]",
          "name": "recipients",
          "type": "address[]"
        }
      ],
      "name": "directBatchTransferNFTs",
      "outputs": [],
      "stateMutability": "nonpayable",
      "type": "function"
    },
    {
      "inputs": [
        {
          "internalType": "address",
          "name": "nftContract",
          "type": "address"
        },
        {
          "internalType": "uint256",
          "name": "tokenId",
          "type": "uint256"
        },
        {
          "internalType": "address",
          "name": "recipient",
          "type": "address"
        }
      ],
      "name": "directTransferNFT",
      "outputs": [],
      "stateMutability": "nonpayable",
      "type": "function"
    },
    {
      "inputs": [
        {
          "internalType": "bytes32",
          "name": "gameId",
          "type": "bytes32"
        },
        {
          "internalType": "address",
          "name": "recipient",
          "type": "address"
        }
      ],
      "name": "emergencyWithdrawETH",
      "outputs": [],
      "stateMutability": "nonpayable",
      "type": "function"
    },
    {
      "inputs": [
        {
          "internalType": "bytes32",
          "name": "gameId",
          "type": "bytes32"
        },
        {
          "internalType": "address",
          "name": "recipient",
          "type": "address"
        }
      ],
      "name": "emergencyWithdrawNFT",
      "outputs": [],
      "stateMutability": "nonpayable",
      "type": "function"
    },
    {
      "inputs": [
        {
          "internalType": "bytes32",
          "name": "gameId",
          "type": "bytes32"
        },
        {
          "internalType": "address",
          "name": "recipient",
          "type": "address"
        }
      ],
      "name": "emergencyWithdrawUSDC",
      "outputs": [],
      "stateMutability": "nonpayable",
      "type": "function"
    },
    {
      "inputs": [
        {
          "internalType": "bytes32",
          "name": "",
          "type": "bytes32"
        }
      ],
      "name": "ethDeposits",
      "outputs": [
        {
          "internalType": "address",
          "name": "depositor",
          "type": "address"
        },
        {
          "internalType": "uint256",
          "name": "amount",
          "type": "uint256"
        },
        {
          "internalType": "bool",
          "name": "claimed",
          "type": "bool"
        },
        {
          "internalType": "uint256",
          "name": "depositTime",
          "type": "uint256"
        }
      ],
      "stateMutability": "view",
      "type": "function"
    },
    {
      "inputs": [
        {
          "internalType": "bytes32",
          "name": "",
          "type": "bytes32"
        }
      ],
      "name": "gameResults",
      "outputs": [
        {
          "internalType": "address",
          "name": "winner",
          "type": "address"
        },
        {
          "internalType": "bool",
          "name": "completed",
          "type": "bool"
        },
        {
          "internalType": "uint256",
          "name": "completionTime",
          "type": "uint256"
        }
      ],
      "stateMutability": "view",
      "type": "function"
    },
    {
      "inputs": [
        {
          "internalType": "bytes32",
          "name": "gameId",
          "type": "bytes32"
        },
        {
          "internalType": "address",
          "name": "player",
          "type": "address"
        }
      ],
      "name": "getBattleRoyaleEntryAmount",
      "outputs": [
        {
          "internalType": "uint256",
          "name": "",
          "type": "uint256"
        }
      ],
      "stateMutability": "view",
      "type": "function"
    },
    {
      "inputs": [
        {
          "internalType": "bytes32",
          "name": "gameId",
          "type": "bytes32"
        }
      ],
      "name": "getBattleRoyaleGame",
      "outputs": [
        {
          "components": [
            {
              "internalType": "address",
              "name": "creator",
              "type": "address"
            },
            {
              "internalType": "address",
              "name": "nftContract",
              "type": "address"
            },
            {
              "internalType": "uint256",
              "name": "tokenId",
              "type": "uint256"
            },
            {
              "internalType": "uint256",
              "name": "entryFee",
              "type": "uint256"
            },
            {
              "internalType": "uint256",
              "name": "serviceFee",
              "type": "uint256"
            },
            {
              "internalType": "uint8",
              "name": "maxPlayers",
              "type": "uint8"
            },
            {
              "internalType": "uint8",
              "name": "currentPlayers",
              "type": "uint8"
            },
            {
              "internalType": "address",
              "name": "winner",
              "type": "address"
            },
            {
              "internalType": "bool",
              "name": "completed",
              "type": "bool"
            },
            {
              "internalType": "bool",
              "name": "creatorPaid",
              "type": "bool"
            },
            {
              "internalType": "bool",
              "name": "nftClaimed",
              "type": "bool"
            },
            {
              "internalType": "uint256",
              "name": "totalPool",
              "type": "uint256"
            },
            {
              "internalType": "uint256",
              "name": "createdAt",
              "type": "uint256"
            },
            {
              "internalType": "bool",
              "name": "isUnder20",
              "type": "bool"
            },
            {
              "internalType": "uint256",
              "name": "minUnder20Wei",
              "type": "uint256"
            }
          ],
          "internalType": "struct NFTFlipGame.BattleRoyaleGame",
          "name": "",
          "type": "tuple"
        }
      ],
      "stateMutability": "view",
      "type": "function"
    },
    {
      "inputs": [
        {
          "internalType": "bytes32",
          "name": "gameId",
          "type": "bytes32"
        }
      ],
      "name": "getGameParticipants",
      "outputs": [
        {
          "internalType": "address",
          "name": "nftPlayer",
          "type": "address"
        },
        {
          "internalType": "address",
          "name": "cryptoPlayer",
          "type": "address"
        }
      ],
      "stateMutability": "view",
      "type": "function"
    },
    {
      "inputs": [
        {
          "internalType": "bytes32",
          "name": "gameId",
          "type": "bytes32"
        },
        {
          "internalType": "address",
          "name": "player",
          "type": "address"
        }
      ],
      "name": "hasBattleRoyaleEntry",
      "outputs": [
        {
          "internalType": "bool",
          "name": "",
          "type": "bool"
        }
      ],
      "stateMutability": "view",
      "type": "function"
    },
    {
      "inputs": [
        {
          "internalType": "bytes32",
          "name": "gameId",
          "type": "bytes32"
        }
      ],
      "name": "isGameReady",
      "outputs": [
        {
          "internalType": "bool",
          "name": "",
          "type": "bool"
        }
      ],
      "stateMutability": "view",
      "type": "function"
    },
    {
      "inputs": [
        {
          "internalType": "bytes32",
          "name": "gameId",
          "type": "bytes32"
        }
      ],
      "name": "joinBattleRoyale",
      "outputs": [],
      "stateMutability": "payable",
      "type": "function"
    },
    {
      "inputs": [
        {
          "internalType": "bytes32",
          "name": "",
          "type": "bytes32"
        }
      ],
      "name": "nftDeposits",
      "outputs": [
        {
          "internalType": "address",
          "name": "depositor",
          "type": "address"
        },
        {
          "internalType": "address",
          "name": "nftContract",
          "type": "address"
        },
        {
          "internalType": "uint256",
          "name": "tokenId",
          "type": "uint256"
        },
        {
          "internalType": "bool",
          "name": "claimed",
          "type": "bool"
        },
        {
          "internalType": "uint256",
          "name": "depositTime",
          "type": "uint256"
        }
      ],
      "stateMutability": "view",
      "type": "function"
    },
    {
      "inputs": [],
      "name": "owner",
      "outputs": [
        {
          "internalType": "address",
          "name": "",
          "type": "address"
        }
      ],
      "stateMutability": "view",
      "type": "function"
    },
    {
      "inputs": [],
      "name": "pause",
      "outputs": [],
      "stateMutability": "nonpayable",
      "type": "function"
    },
    {
      "inputs": [],
      "name": "paused",
      "outputs": [
        {
          "internalType": "bool",
          "name": "",
          "type": "bool"
        }
      ],
      "stateMutability": "view",
      "type": "function"
    },
    {
      "inputs": [],
      "name": "platformFeePercent",
      "outputs": [
        {
          "internalType": "uint256",
          "name": "",
          "type": "uint256"
        }
      ],
      "stateMutability": "view",
      "type": "function"
    },
    {
      "inputs": [],
      "name": "platformFeeReceiver",
      "outputs": [
        {
          "internalType": "address",
          "name": "",
          "type": "address"
        }
      ],
      "stateMutability": "view",
      "type": "function"
    },
    {
      "inputs": [
        {
          "internalType": "bytes32",
          "name": "gameId",
          "type": "bytes32"
        }
      ],
      "name": "reclaimBattleRoyaleNFT",
      "outputs": [],
      "stateMutability": "nonpayable",
      "type": "function"
    },
    {
      "inputs": [
        {
          "internalType": "bytes32",
          "name": "gameId",
          "type": "bytes32"
        }
      ],
      "name": "reclaimCrypto",
      "outputs": [],
      "stateMutability": "nonpayable",
      "type": "function"
    },
    {
      "inputs": [
        {
          "internalType": "bytes32",
          "name": "gameId",
          "type": "bytes32"
        }
      ],
      "name": "reclaimNFT",
      "outputs": [],
      "stateMutability": "nonpayable",
      "type": "function"
    },
    {
      "inputs": [],
      "name": "renounceOwnership",
      "outputs": [],
      "stateMutability": "nonpayable",
      "type": "function"
    },
    {
      "inputs": [
        {
          "internalType": "uint256",
          "name": "_timeout",
          "type": "uint256"
        }
      ],
      "name": "setDepositTimeout",
      "outputs": [],
      "stateMutability": "nonpayable",
      "type": "function"
    },
    {
      "inputs": [
        {
          "internalType": "uint256",
          "name": "_feePercent",
          "type": "uint256"
        }
      ],
      "name": "setPlatformFeePercent",
      "outputs": [],
      "stateMutability": "nonpayable",
      "type": "function"
    },
    {
      "inputs": [
        {
          "internalType": "address",
          "name": "_receiver",
          "type": "address"
        }
      ],
      "name": "setPlatformFeeReceiver",
      "outputs": [],
      "stateMutability": "nonpayable",
      "type": "function"
    },
    {
      "inputs": [
        {
          "internalType": "bytes32",
          "name": "gameId",
          "type": "bytes32"
        }
      ],
      "name": "startBattleRoyaleEarly",
      "outputs": [],
      "stateMutability": "nonpayable",
      "type": "function"
    },
    {
      "inputs": [
        {
          "internalType": "address",
          "name": "newOwner",
          "type": "address"
        }
      ],
      "name": "transferOwnership",
      "outputs": [],
      "stateMutability": "nonpayable",
      "type": "function"
    },
    {
      "inputs": [],
      "name": "unpause",
      "outputs": [],
      "stateMutability": "nonpayable",
      "type": "function"
    },
    {
      "inputs": [
        {
          "internalType": "bytes32",
          "name": "",
          "type": "bytes32"
        }
      ],
      "name": "usdcDeposits",
      "outputs": [
        {
          "internalType": "address",
          "name": "depositor",
          "type": "address"
        },
        {
          "internalType": "uint256",
          "name": "amount",
          "type": "uint256"
        },
        {
          "internalType": "bool",
          "name": "claimed",
          "type": "bool"
        },
        {
          "internalType": "uint256",
          "name": "depositTime",
          "type": "uint256"
        }
      ],
      "stateMutability": "view",
      "type": "function"
    },
    {
      "inputs": [],
      "name": "usdcToken",
      "outputs": [
        {
          "internalType": "address",
          "name": "",
          "type": "address"
        }
      ],
      "stateMutability": "view",
      "type": "function"
    },
    {
      "inputs": [
        {
          "internalType": "bytes32",
          "name": "gameId",
          "type": "bytes32"
        }
      ],
      "name": "withdrawBattleRoyaleEntry",
      "outputs": [],
      "stateMutability": "nonpayable",
      "type": "function"
    },
    {
      "inputs": [
        {
          "internalType": "bytes32",
          "name": "gameId",
          "type": "bytes32"
        }
      ],
      "name": "withdrawCreatorFunds",
      "outputs": [],
      "stateMutability": "nonpayable",
      "type": "function"
    },
    {
      "inputs": [
        {
          "internalType": "bytes32",
          "name": "gameId",
          "type": "bytes32"
        }
      ],
      "name": "withdrawWinnerNFT",
      "outputs": [],
      "stateMutability": "nonpayable",
      "type": "function"
    },
    {
      "inputs": [
        {
          "internalType": "bytes32",
          "name": "gameId",
          "type": "bytes32"
        }
      ],
      "name": "withdrawWinnings",
      "outputs": [],
      "stateMutability": "nonpayable",
      "type": "function"
    }
  ],
  "bytecode": "0x608034620000eb57601f6200416938819003918201601f19168301916001600160401b03831184841017620000f0578084926040948552833981010312620000eb576200005a6020620000528362000106565b920162000106565b9060016000556001546040519260018060a01b0391338382167f8be0079c531659141344cd1fd0a4f28419497f9722a3daafe3b4186f6b6457e0600080a36001600160a81b0319163360ff60a01b19161760015560786009556101f4600a55600b80546001600160a01b0319908116948416949094179055600c8054909316911617905561404d90816200011c8239f35b600080fd5b634e487b7160e01b600052604160045260246000fd5b51906001600160a01b0382168203620000eb5756fe6080604052600436101561001257600080fd5b60003560e01c806310738f721461353c57806311eac8551461351357806315e85e6d146134ac5780631702e69314610df85780631daedc101461344757806327627373146134265780632d656ad7146133fd57806331b7222c14612f855780633f4ba83a14612ee95780634989f9be14612e9c578063560acc0914612e6c5780635c975abb14612e46578063615318c714612e2857806361a4274414612d0857806362d4889c1461293b57806366fa99181461280d5780636e6e8e631461255557806370217b69146105df578063715018a6146124f85780637c34c35514612362578063844306a5146120a75780638456cb59146120455780638aa2807714611f5e5780638b4aa0ab14611e085780638c639a8514611dea5780638d3f98e914611c935780638da5cb5b14611c6a57806391ca238f14611af757806398ebcbd71461199b578063a60ecd651461179a578063aae7413d14611582578063ae3a3533146113f9578063af4277821461125d578063b0f81bb81461117b578063b12ed98014610f80578063b136d2e014610e40578063c318decc14610df8578063cab230d214610d9a578063d68d9d4e14610c73578063de9c692214610ae0578063e0afe01c146109a7578063e1850f2a146108da578063e1f1c4a7146108bd578063e340977a1461087a578063e9df30271461062c578063eb4742aa146105df578063ebd9c39c14610579578063ee53e3251461038f578063f2fde38b146102cb5763f8d732881461024257600080fd5b346102c65760203660031901126102c65760043580600052600260205260018060a01b038060406000205416916003602052816040600020541615156000146102b357600052600360205260406000205416905b604080516001600160a01b03928316815292909116602083015290f35b5060046020526040600020541690610296565b600080fd5b346102c65760203660031901126102c6576102e46137a0565b6102ec6137b6565b6001600160a01b0390811690811561033b57600154826001600160601b0360a01b821617600155167f8be0079c531659141344cd1fd0a4f28419497f9722a3daafe3b4186f6b6457e0600080a3005b60405162461bcd60e51b815260206004820152602660248201527f4f776e61626c653a206e6577206f776e657220697320746865207a65726f206160448201526564647265737360d01b6064820152608490fd5b346102c65760403660031901126102c65767ffffffffffffffff6004358181116102c6576103c1903690600401613759565b90916024359081116102c6576103db903690600401613759565b906103e46137b6565b81830361053c5760005b8381106103f757005b610402818587613d75565b356000526002906020828152604060002060018060a01b03908181541615158061052d575b61043e575b5050506104399150613d66565b6103ee565b6001908282820154169561045b610456878b8b613d75565b613d9b565b90820154873b156102c6576040516323b872dd60e01b81523060048201526001600160a01b039290921660248301526044820152956000908790606490829084905af19081156105215761043996600392610512575b50019060ff19825416179055600080516020613ff883398151915260606104d9858a8c613d75565b35926104e9610456878b8b613d75565b16936009604051918083528201526809c8ca8be8482a886960bb1b6040820152a386808061042c565b61051b90613853565b8b6104b1565b6040513d6000823e3d90fd5b5060ff60038201541615610427565b60405162461bcd60e51b8152602060048201526015602482015274082e4e4c2f240d8cadccee8d040dad2e6dac2e8c6d605b1b6044820152606490fd5b346102c65760203660031901126102c657600435600090815260036020818152604092839020805460018201546002830154929094015485516001600160a01b0390921682529281019390935260ff161515928201929092526060810191909152608090f35b346102c65760403660031901126102c6576105f861378a565b600435600052600760205260406000209060018060a01b0316600052602052602060ff604060002054166040519015158152f35b346102c65760403660031901126102c65760043561064861378a565b906106516137b6565b610659613909565b60405163161f037760e31b8152600481018290526020908181602481305afa9081156105215760009161084d575b50156108185781600052600581526106aa60ff60406000205460a01c161561380e565b600082815260028252604080822054600384529120546001600160a01b03918216949082161561080457836000526003835281808060406000205416925b169586149182156107f8575b5050156107a95760405191606083019183831067ffffffffffffffff8411176107935760019260405285845281840190838252600560408601934285528760005252604060002094511684549160ff60a01b9051151560a01b16916affffffffffffffffffffff60a81b1617178355519101557f0bf6aee0a93e0c0696509fac1649343cafc5bf013811646e438330fe86e4c15f600080a36001600055005b634e487b7160e01b600052604160045260246000fd5b60405162461bcd60e51b815260048101839052602160248201527f57696e6e6572206d75737420626520612067616d65207061727469636970616e6044820152601d60fa1b6064820152608490fd5b168514905081866106f4565b6004835281808060406000205416926106e8565b6064906040519062461bcd60e51b82526004820152600e60248201526d47616d65206e6f7420726561647960901b6044820152fd5b61086d9150823d8411610873575b61086581836138a0565b810190613a60565b84610687565b503d61085b565b346102c65760203660031901126102c6576108936137a0565b61089b6137b6565b600b80546001600160a01b0319166001600160a01b0392909216919091179055005b346102c65760003660031901126102c65760206040516127108152f35b346102c65760603660031901126102c6576108f36137a0565b6044356001600160a01b03818116928383036102c6576109116137b6565b16803b156102c6576040516323b872dd60e01b81523060048201526001600160a01b03929092166024808401919091523560448301526000908290606490829084905af1801561052157610998575b506000600080516020613ff8833981519152606060405160208152600a60208201526913919517d112549150d560b21b6040820152a3005b6109a190613853565b81610960565b346102c65760203660031901126102c6576004356109c3613909565b6000818152600660205260409020600581018054906001600160a01b039033601084901c831603610aaa5782610a0060ff60029560b01c16613bb0565b610a1060ff8260c01c1615613f32565b60ff60c01b1916600160c01b179055600183015491909201549116803b156102c6576040516323b872dd60e01b815230600482015233602482015260448101929092526000908290606490829084905af1801561052157610a9b575b5033907f35963cc381dc9034577db15bae056c65aac30542ec3c7e3fdb5314a6ced258d4600080a36001600055005b610aa490613853565b81610a6c565b60405162461bcd60e51b815260206004820152600e60248201526d2737ba103a3432903bb4b73732b960911b6044820152606490fd5b346102c6576020806003193601126102c657600435610afd613909565b6000818152600283526040902080546001600160a01b03919082163303610c3f5760026003820192610b3360ff85541615613c9d565b8460005260058652610b5060ff60406000205460a01c1615613cdb565b846000526003865280604060002054161580610c2c575b610b8b90610b7c600486015460095490613d18565b42118115610c24575b50613d25565b60018301541691015490803b156102c6576040516323b872dd60e01b815230600482015233602482015260448101929092526000908290606490829084905af1801561052157610c15575b50600160ff198254161790556003604051928084528301526213919560ea1b6040830152600080516020613ff883398151915260603393a36001600055005b610c1e90613853565b83610bd6565b905088610b85565b5060048652604060002054811615610b67565b60405162461bcd60e51b815260048101859052600c60248201526b139bdd081e5bdd5c8813919560a21b6044820152606490fd5b6020806003193601126102c657600435610c8b613909565b610c936138c2565b8060005260038252610ccb60018060a01b03610cb681604060002054161561395f565b826000526004845260406000205416156139b7565b8060005260058252610ce860ff60406000205460a01c161561380e565b3415610d6057610d5991610d28604051610d0181613884565b33815234838201526000604082015242606082015283600052600383526040600020613a0f565b817f8534743902a2fb19639aba9d7882a1a9b06d7a841874192da0738ce3973db0ae604051923484523393a3613abb565b6001600055005b60405162461bcd60e51b815260048101839052601260248201527109aeae6e840e6cadcc840e6dedaca408aa8960731b6044820152606490fd5b346102c65760203660031901126102c657600435610db66137b6565b6103e88111610dc457600a55005b60405162461bcd60e51b815260206004820152600c60248201526b08ccaca40e8dede40d0d2ced60a31b6044820152606490fd5b346102c65760403660031901126102c657610e1161378a565b600435600052600860205260406000209060018060a01b03166000526020526020604060002054604051908152f35b346102c65760403660031901126102c657600435610e5c61378a565b90610e656137b6565b600081815260026020526040902080546001600160a01b0390811615610f48576003820190610e9860ff83541615613c9d565b60028160018501541693015492803b156102c6576040516323b872dd60e01b81523060048201526001600160a01b038716602482015260448101949094526000908490606490829084905af191821561052157600080516020613ff883398151915293606093610f39575b50600160ff198254161790556040519460208652600d60208701526c4e46545f454d455247454e435960981b60408701521693a3005b610f4290613853565b86610f03565b60405162461bcd60e51b815260206004820152601060248201526f139bc81391950819195c1bdcda5d195960821b6044820152606490fd5b346102c6576020806003193601126102c657600435610f9d613909565b8060005260068252604060002060078352604060002033600052835260ff60406000205416156111425781600052600883526040600020336000528352610fea6040600020541515613ef2565b6005810190815460ff811660ff8260081c1610908115611134575b50156110f95760038101805492846000526008865260406000203360005286526000604081205584600052600786526040600020336000528652604060002060ff19815416905560ff815460081c169182156110e3576110a79460009461109460068796946110898897889788190161ff0082549160081b169061ff001916179055565b549201918254613c04565b9055335af16110a1613c11565b50613e2c565b600c604051928084528301526b42525f454e5452595f46454560a01b6040830152600080516020613ff883398151915260603393a36001600055005b634e487b7160e01b600052601160045260246000fd5b60405162461bcd60e51b815260048101859052601360248201527247616d6520697320696e2070726f677265737360681b6044820152606490fd5b60ff915060c01c1685611005565b60405162461bcd60e51b8152600481018490526011602482015270139bdd0818481c185c9d1a58da5c185b9d607a1b6044820152606490fd5b346102c6576020806003193601126102c6576004356000908152600282526040902080546001600160a01b039081161515918261124d575b5060038352604060002090808254161515918261123d575b50811561120e575b506005835260ff60406000205460a01c16159082611206575b50816111fe575b506040519015158152f35b9050826111f3565b9150836111ec565b9050600483526040600020908154161515908161122d575b50836111d3565b60ff915060020154161583611226565b6002015460ff16159150846111cb565b6003015460ff16159150836111b3565b346102c65760203660031901126102c657600435611279613909565b806000526006602052604060002060018060a01b0361129c818354163314613eb4565b60058201908154916112b460ff8460b01c161561380e565b6112c460ff8460c01c1615613f32565b60ff831660ff8460081c1610156113b45762ff00ff60b01b199092166201000160b01b179091556001820154600292909201549116803b156102c6576040516323b872dd60e01b815230600482015233602482015260448101929092526000908290606490829084905af18015610521576113a5575b50604051906000817fa42d11b373a7580964ade0dabdb8ce6cf3ac26374841b17aefc72de0db1c40e08280a360208252601060208301526f109497d3919517d0d05390d15313115160821b6040830152600080516020613ff883398151915260603393a36001600055005b6113ae90613853565b8161133a565b60405162461bcd60e51b815260206004820152601c60248201527f47616d652069732066756c6c202d2063616e6e6f742063616e63656c000000006044820152606490fd5b346102c6576020806003193601126102c65760043590611417613909565b61141f6138c2565b6000828152600682526040902080546001600160a01b0316611442811515613daf565b330361153d576005015461145c60ff8260b01c161561380e565b60ff8160081c1690600282106114fa5760ff168110156114a757907f420af78d8860bbcb1feabd504fce7e0040d0d422c367cc47b11924866a33759791604051908152a26001600055005b60405162461bcd60e51b815260048101839052602560248201527f47616d652069732066756c6c202d206e6f206e65656420746f207374617274206044820152646561726c7960d81b6064820152608490fd5b6064836040519062461bcd60e51b825280600483015260248201527f4e656564206174206c65617374203220706c617965727320746f2073746172746044820152fd5b60405162461bcd60e51b815260048101839052601c60248201527f4f6e6c792063726561746f722063616e207374617274206561726c79000000006044820152606490fd5b346102c65760203660031901126102c65760006101c06040516115a481613867565b8281528260208201528260408201528260608201528260808201528260a08201528260c08201528260e08201528261010082015282610120820152826101408201528261016082015282610180820152826101a0820152015260043560005260066020526101e060406000206101c060405161161f81613867565b600960018060a01b038454169384835260018060a01b03600182015416602084015260028101546040840152600381015460608401526004810154608084015260ff600582015481811660a0860152818160081c1660c086015260018060a01b038160101c1660e0860152818160b01c161515610100860152818160b81c16151561012086015260c01c1615156101408401526006810154610160840152600781015461018084015260ff60088201541615156101a084015201548282015260405192835260018060a01b03602082015116602084015260408101516040840152606081015160608401526080810151608084015260ff60a08201511660a084015260ff60c08201511660c084015260018060a01b0360e08201511660e08401526101008101511515610100840152610120810151151561012084015261014081015115156101408401526101608101516101608401526101808101516101808401526101a081015115156101a084015201516101c0820152f35b346102c65760603660031901126102c6576004356117b661378a565b90604435916117c3613909565b6117cb6138c2565b6000828152600260205260409020546001600160a01b0390811661194a5782600052600560205261180760ff60406000205460a01c161561380e565b80821690813b156102c6576040516323b872dd60e01b81523360048201523060248201526044810186905260008160648183875af180156105215761193b575b506040519460a086019086821067ffffffffffffffff83111761079357610d599660047f3a2446e77599b001d6e7f8d965d64c3ec2c5222ba2a3f1cba8ad884dd7f8349d9461190c899761193396604052338552602085019081526040850186815260608601916000835260808701944286528b6000526002602052806040600020985116906001600160601b0360a01b91828a54161789556001890192511690825416179055516002860155511515600385019060ff801983541691151516179055565b51910155604080516001600160a01b03909616865260208601919091523394918291820190565b0390a3613abb565b61194490613853565b85611847565b60405162461bcd60e51b815260206004820152602360248201527f4e465420616c7265616479206465706f736974656420666f7220746869732067604482015262616d6560e81b6064820152608490fd5b346102c65760403660031901126102c6576004356119b761378a565b906119c06137b6565b806000526020916004835260406000209060018060a01b03908183541615611abe5790829185611a3f600260009601946119fe60ff87541615613c9d565b600c546001919091015460405163a9059cbb60e01b81526001600160a01b038616600482015260248101919091529687929186169183919082906044820190565b03925af192831561052157611a6e606094600080516020613ff883398151915296600091611aa1575b50613a78565b600160ff19825416179055600e604051968088528701526d555344435f454d455247454e435960901b60408701521693a3005b611ab89150893d8b116108735761086581836138a0565b89611a68565b60405162461bcd60e51b8152600481018690526011602482015270139bc81554d110c819195c1bdcda5d1959607a1b6044820152606490fd5b346102c65760203660031901126102c657600435611b13613909565b806000526006602052604060002090611bc0600080808060018060a01b0396611b40888254163314613eb4565b6005810197885498611b5760ff8b60b01c16613bb0565b611b6760ff8b60b81c1615613ef2565b6006830154612710611b7b600a5483613bf1565b049360ff60088201541680611c5d575b611c4f575b5083611b9b91613c04565b60ff60b81b19909a16600160b81b179055600b54165af1611bba613c11565b50613c51565b600080808085335af1611bd1613c11565b5015611c0a576040519182527f03d457480f8551b87fa3fd3dbfeff637f118bf3d222020e1fdb01ce64ff2339160203393a36001600055005b60405162461bcd60e51b815260206004820152601760248201527f43726561746f72207472616e73666572206661696c65640000000000000000006044820152606490fd5b600901549350611b9b611b90565b5084600982015411611b8b565b346102c65760003660031901126102c6576001546040516001600160a01b039091168152602090f35b346102c65760403660031901126102c657600435611caf61378a565b90611cb86137b6565b611cc0613909565b600081815260066020526040902080546001600160a01b03939190841690600590611cec831515613daf565b01918254611d0060ff8260b01c161561380e565b60ff8082169160081c1603611db157611d46611d6a928560005260076020526040600020968316968760005260205260ff60406000205416908115611da7575b50613e68565b825462010000600160b01b03191660109190911b62010000600160b01b0316178255565b805460ff60b01b1916600160b01b1790557fa42d11b373a7580964ade0dabdb8ce6cf3ac26374841b17aefc72de0db1c40e0600080a36001600055005b9050861487611d40565b60405162461bcd60e51b815260206004820152601160248201527011d85b59481b9bdd08199d5b1b081e595d607a1b6044820152606490fd5b346102c65760003660031901126102c6576020600a54604051908152f35b346102c65760403660031901126102c657600435611e2461378a565b90611e2d6137b6565b611e35613909565b600081815260066020526040902080546001600160a01b03939190841690600590611e61831515613daf565b01918254611e7560ff8260b01c161561380e565b60ff8160081c169060028210611f195760ff161115611ec457611d46611d6a928560005260076020526040600020968316968760005260205260ff60406000205416908115611da75750613e68565b60405162461bcd60e51b815260206004820152602760248201527f55736520636f6d706c657465426174746c65526f79616c6520666f722066756c6044820152666c2067616d657360c81b6064820152608490fd5b60405162461bcd60e51b815260206004820152601760248201527f4e656564206174206c65617374203220706c61796572730000000000000000006044820152606490fd5b346102c65760203660031901126102c65760043560005260066020526101e0604060002060018060a01b038082541691816001820154169160028201549060038301549160048401549160058501549060068601549360078701549560ff9460098660088b015416990154996040519b8c5260208c015260408b015260608a0152608089015282821660a0890152828260081c1660c08901528160101c1660e0880152818160b01c161515610100880152818160b81c16151561012088015260c01c16151561014086015261016085015261018084015215156101a08301526101c0820152f35b346102c65760003660031901126102c65761205e6137b6565b6120666138c2565b6001805460ff60a01b1916600160a01b1790556040513381527f62e78cea01bee320cd4e420270b5ea74000d11b0c9f74754ebdbfc544b05a25890602090a1005b6020806003193601126102c6576004356120bf613909565b6120c76138c2565b60008181526006835260409020805490926001600160a01b03916120ee9083161515613daf565b6005840180549261211960ff9461210a868260b01c161561380e565b858082169160081c1610613df1565b84600052600783526040600020336000528352836040600020541661231d5760038601958654906121506004820192835490613d18565b978834106122e157876000526007865260406000203360005286526040600020600160ff19825416179055876000526008865260406000203360005286523460406000205586855460081c168781146110e357855461ff00191660019190910160081b61ff00161785556121cc90600690549201918254613d18565b905554908161227a575b5050604051348152847f2825c53bdc70daeae096202f3e3cbc859d754748a51669ad2d563d4e50948cac843393a35491808360081c1692168214612249575b505050803411612226576001600055005b60008080806122386122439534613c04565b335af16110a1613c11565b80610d59565b7f420af78d8860bbcb1feabd504fce7e0040d0d422c367cc47b11924866a33759791604051908152a2818080612215565b60008080938193600b54165af161228f613c11565b501561229c5785806121d6565b60405162461bcd60e51b815260048101839052601b60248201527f5365727669636520666565207472616e73666572206661696c656400000000006044820152606490fd5b60405162461bcd60e51b8152600481018790526014602482015273125b9cdd59999a58da595b9d081c185e5b595b9d60621b6044820152606490fd5b60405162461bcd60e51b815260048101849052601860248201527f416c7265616479206a6f696e656420746869732067616d6500000000000000006044820152606490fd5b346102c65760403660031901126102c657602435600435612381613909565b6123896138c2565b806000526020916004835260018060a01b036123ac8160406000205416156139b7565b82600052600384526123c581604060002054161561395f565b82600052600584526123e260ff60406000205460a01c161561380e565b81156124ba57600c546040516323b872dd60e01b81523360048201523060248201526044810184905291859183916064918391600091165af1801561052157610d59946124597f8f5781fdb49be2343ca56c67e0fa09ece1a4887afb22f1edccd90c3632601c8792869460009161249d5750613a78565b61248f60405161246881613884565b33815285838201526000604082015242606082015284600052600483526040600020613a0f565b6040519384523393a3613abb565b6124b49150833d85116108735761086581836138a0565b88611a68565b60405162461bcd60e51b81526004810185905260166024820152754d757374206465706f73697420736f6d65205553444360501b6044820152606490fd5b346102c65760003660031901126102c6576125116137b6565b600180546001600160a01b031981169091556000906001600160a01b03167f8be0079c531659141344cd1fd0a4f28419497f9722a3daafe3b4186f6b6457e08280a3005b346102c6576020806003193601126102c657600435612572613909565b806000526005825261258f60ff60406000205460a01c1615613cdb565b600081815260028352604080822054600385529120546001600160a01b03918216159190339082160361269757508160005260038352600080808060016040822061260560028201976125e660ff8a541615613c9d565b6125f7600384015460095490613d18565b4211811561268f5750613d25565b0154335af1612612613c11565b501561265657600160ff198254161790556003604051928084528301526208aa8960eb1b6040830152600080516020613ff883398151915260603393a36001600055005b60405162461bcd60e51b8152600481018490526011602482015270115512081c99599d5b990819985a5b1959607a1b6044820152606490fd5b90508b610b85565b60048452604060002054811633036127c8578361271b60009285845260048352600160408520916126e560028401976126d460ff8a541615613c9d565b6125f7600386015460095490613d18565b600c54929091015460405163a9059cbb60e01b815233600482015260248101919091529485939190921691839182906044820190565b03925af1908115610521576000916127ab575b501561277157600160ff19825416179055600460405192808452830152635553444360e01b6040830152600080516020613ff883398151915260603393a3610d59565b60405162461bcd60e51b81526004810184905260126024820152711554d110c81c99599d5b990819985a5b195960721b6044820152606490fd5b6127c29150843d86116108735761086581836138a0565b8461272e565b60405162461bcd60e51b815260048101859052601760248201527f4e6f7420796f75722063727970746f206465706f7369740000000000000000006044820152606490fd5b346102c65760403660031901126102c65760043561282961378a565b906128326137b6565b600081815260036020526040902080546001600160a01b0391908216156129035760008080806001600286019561286d60ff88541615613c9d565b0154885af161287a613c11565b50156128c857600080516020613ff883398151915291606091600160ff198254161790556040519460208652600d60208701526c4554485f454d455247454e435960981b60408701521693a3005b60405162461bcd60e51b8152602060048201526013602482015272115512081d1c985b9cd9995c8819985a5b1959606a1b6044820152606490fd5b60405162461bcd60e51b815260206004820152601060248201526f139bc81155120819195c1bdcda5d195960821b6044820152606490fd5b346102c657610100806003193601126102c65761295661378a565b90606435906084359060a43560443581151582036102c65760e4359586151587036102c657612983613909565b61298b6138c2565b6004356000908152600660205260409020546001600160a01b0316612ccd578515612c89576001600160a01b0316803b156102c6576040516323b872dd60e01b8152336004820152306024820152604481018390529260008460648183865af193841561052157886101c09460ff92600997612c7a575b50600091612c2c575b60405194612a1886613867565b33865260208601526040850152886060850152876080850152600460a08501521660c0830152600060e08301526000858301526000610120830152600061014083015260006101608301524261018083015215156101a082015260c43582820152600435600052600660205260406000209360018060a01b038251166001600160601b0360a01b9081875416178655600186019060018060a01b0360208501511690825416179055604082015160028601556060820151600386015560808201516004860155600585019060ff60a08401511660ff19835416178255612b1660ff60c085015116839061ff0082549160081b169061ff001916179055565b60e083015182549184015161012085015161014086015162010000600160c81b031990941662010000600160b01b0360109490941b939093169290921790151560b01b60ff60b01b161790151560b81b60ff60b81b161790151560c01b60ff60c01b16179055610160810151600685015561018081015160078501556101a081015160088501805491151560ff1660ff19929092169190911790550151910155604051918252602082015233907ff15d27052defdf681ad3a61e08def698543fd3c5ed921cbedf9f0c5a8edfcf66604060043592a3612bf6576001600055005b6040516000815233907f2825c53bdc70daeae096202f3e3cbc859d754748a51669ad2d563d4e50948cac602060043592a3610d59565b90506004356000526007602052604060002033600052602052604060002060018319825416179055600435600052600860205260406000203360005260205260006040812055600190612a0b565b612c8390613853565b8b612a02565b606460405162461bcd60e51b815260206004820152602060248201527f456e74727920666565206d7573742062652067726561746572207468616e20306044820152fd5b60405162461bcd60e51b815260206004820152601360248201527247616d6520616c72656164792065786973747360681b6044820152606490fd5b346102c65760203660031901126102c657600435612d24613909565b8060005260066020526040600020600260018060a01b03612d49818454163314613eb4565b600583018054612d5f60ff8260b01c1615613cdb565b612d6f60ff8260c01c1615613f32565b612d8360ff821660ff8360081c1610613df1565b60ff60c01b1916600160c01b179055600183015491909201549116803b156102c6576040516323b872dd60e01b815230600482015233602482015260448101929092526000908290606490829084905af1801561052157612e19575b5060405190602082526006602083015265109497d3919560d21b6040830152600080516020613ff883398151915260603393a36001600055005b612e2290613853565b81612ddf565b346102c65760003660031901126102c6576020600954604051908152f35b346102c65760003660031901126102c657602060ff60015460a01c166040519015158152f35b346102c65760403660031901126102c6576020612e92612e8a61378a565b600435613f74565b6040519015158152f35b346102c65760203660031901126102c6576004356000526005602052606060406000206001815491015460ff6040519260018060a01b038116845260a01c16151560208301526040820152f35b346102c65760003660031901126102c657612f026137b6565b60015460ff8160a01c1615612f495760ff60a01b19166001556040513381527f5db9ee0a495bf2e6ff9c91a7834c1ba4fdd244a5e8aa4e537bd38aeae4b073aa90602090a1005b60405162461bcd60e51b815260206004820152601460248201527314185d5cd8589b194e881b9bdd081c185d5cd95960621b6044820152606490fd5b346102c6576020806003193601126102c657600435612fa2613909565b8060005260058252600191612fc58360ff60406000205460a01c16151514613bb0565b60008281526005825260409020546001600160a01b039190821633036133b9578260005260028152604060002090600382019160ff83541661337457600284878301541691015490803b156102c6576040516323b872dd60e01b815230600482015233602482015260448101929092526000908290606490829084905af1801561052157613365575b50815460ff199081168617909255600084815260038252604090205483161561318c578360005260038152604060002092600284019360ff8554166131515760008080936130c7828080808e819901546130b86127106130b0600a5484613bf1565b048092613c04565b96600b54165af1611bba613c11565b335af16130d2613c11565b501561310d5750815416831790555b33907f255898c86cfbf62a32125aa6ad84b1687328b28c83569cd720d2d89453337f1a600080a3600055005b6064906040519062461bcd60e51b82526004820152601a60248201527f57696e6e657220455448207472616e73666572206661696c65640000000000006044820152fd5b60405162461bcd60e51b815260048101849052601360248201527211551208185b1c9958591e4818db185a5b5959606a1b6044820152606490fd5b60048152604060002092600284019360ff855416613329578601546131b96127106130b0600a5484613bf1565b600c54600b5460405163a9059cbb60e01b8082529186166001600160a01b0316600482015260248101949094529193919290859082908416816000816044810103925af19081156105215760009161330c575b50156132bd57600c5460405192835233600484015260248301939093529091839183916044918391600091165af1908115610521576000916132a0575b501561325c5750815416831790556130e1565b6064906040519062461bcd60e51b82526004820152601b60248201527f57696e6e65722055534443207472616e73666572206661696c656400000000006044820152fd5b6132b79150823d84116108735761086581836138a0565b86613249565b60405162461bcd60e51b815260048101859052602160248201527f506c6174666f726d205553444320666565207472616e73666572206661696c656044820152601960fa1b6064820152608490fd5b6133239150853d87116108735761086581836138a0565b8961320c565b60405162461bcd60e51b81526004810184905260146024820152731554d110c8185b1c9958591e4818db185a5b595960621b6044820152606490fd5b61336e90613853565b8561304e565b60405162461bcd60e51b815260048101839052601860248201527f57696e6e696e677320616c726561647920636c61696d656400000000000000006044820152606490fd5b6064906040519062461bcd60e51b82526004820152601860248201527f4f6e6c792077696e6e65722063616e20776974686472617700000000000000006044820152fd5b346102c65760003660031901126102c657600b546040516001600160a01b039091168152602090f35b346102c65760203660031901126102c65761343f6137b6565b600435600955005b346102c65760203660031901126102c657600480356000908152602091825260409081902080546001820154600283015460039093015484516001600160a01b0390931683529482015260ff9091161515918101919091526060810191909152608090f35b346102c65760203660031901126102c657600435600052600260205260a06040600020600180831b03908181541691600182015416906002810154600460ff6003840154169201549260405194855260208501526040840152151560608301526080820152f35b346102c65760003660031901126102c657600c546040516001600160a01b039091168152602090f35b346102c6576060806003193601126102c65767ffffffffffffffff6004358181116102c65761356f903690600401613759565b9290916024358181116102c65761358a903690600401613759565b9490916044359081116102c6576135a5903690600401613759565b9190926135b06137b6565b868203613705578282036136af5760005b8281106135ca57005b6001600160a01b0390816135e261045683878c613d75565b16916135f261045683888a613d75565b6135fd838c87613d75565b35843b156102c6576040516323b872dd60e01b81523060048201526001600160a01b039290921660248301526044820152926000908490606490829084905af19283156105215761369b936136a0575b5061365c61045683888a613d75565b166000600080516020613ff883398151915289604051601060208083528201526f09c8ca8be8892a48a86a8be8482a886960831b6040820152a3613d66565b6135c1565b6136a990613853565b8a61364d565b60405162461bcd60e51b815260206004820152602860248201527f436f6e74726163747320616e6420726563697069656e7473206c656e677468206044820152670dad2e6dac2e8c6d60c31b6064820152608490fd5b60405162461bcd60e51b815260206004820152602660248201527f436f6e74726163747320616e6420746f6b656e496473206c656e677468206d696044820152650e6dac2e8c6d60d31b6064820152608490fd5b9181601f840112156102c65782359167ffffffffffffffff83116102c6576020808501948460051b0101116102c657565b602435906001600160a01b03821682036102c657565b600435906001600160a01b03821682036102c657565b6001546001600160a01b031633036137ca57565b606460405162461bcd60e51b815260206004820152602060248201527f4f776e61626c653a2063616c6c6572206973206e6f7420746865206f776e65726044820152fd5b1561381557565b60405162461bcd60e51b815260206004820152601660248201527511d85b5948185b1c9958591e4818dbdb5c1b195d195960521b6044820152606490fd5b67ffffffffffffffff811161079357604052565b6101e0810190811067ffffffffffffffff82111761079357604052565b6080810190811067ffffffffffffffff82111761079357604052565b90601f8019910116810190811067ffffffffffffffff82111761079357604052565b60ff60015460a01c166138d157565b60405162461bcd60e51b815260206004820152601060248201526f14185d5cd8589b194e881c185d5cd95960821b6044820152606490fd5b60026000541461391a576002600055565b60405162461bcd60e51b815260206004820152601f60248201527f5265656e7472616e637947756172643a207265656e7472616e742063616c6c006044820152606490fd5b1561396657565b60405162461bcd60e51b815260206004820152602360248201527f45544820616c7265616479206465706f736974656420666f7220746869732067604482015262616d6560e81b6064820152608490fd5b156139be57565b60405162461bcd60e51b8152602060048201526024808201527f5553444320616c7265616479206465706f736974656420666f7220746869732060448201526367616d6560e01b6064820152608490fd5b90606060039160018060a01b038151166001600160601b0360a01b85541617845560208101516001850155613a5960408201511515600286019060ff801983541691151516179055565b0151910155565b908160209103126102c6575180151581036102c65790565b15613a7f57565b60405162461bcd60e51b81526020600482015260146024820152731554d110c81d1c985b9cd9995c8819985a5b195960621b6044820152606490fd5b60008181526002602090815260408083205460038352818420546001600160a01b0394918516151590851615801590613b9e575b81613b96575b50613b02575b5050505050565b7f1c659750f340e5299f05cfafea9d901858d47405bba10a4235f7b0d2247f14489382613b7792600386528282822054161515600014613b8457878152600386526002838383205416965b89835252205492516001600160a01b03919093168116835290921660208201529081906040820190565b0390a23880808080613afb565b60048652600283838320541696613b4d565b905038613af5565b50600484528483832054161515613aef565b15613bb757565b60405162461bcd60e51b815260206004820152601260248201527111d85b59481b9bdd0818dbdb5c1b195d195960721b6044820152606490fd5b818102929181159184041417156110e357565b919082039182116110e357565b3d15613c4c573d9067ffffffffffffffff82116107935760405191613c40601f8201601f1916602001846138a0565b82523d6000602084013e565b606090565b15613c5857565b60405162461bcd60e51b815260206004820152601c60248201527f506c6174666f726d20666565207472616e73666572206661696c6564000000006044820152606490fd5b15613ca457565b60405162461bcd60e51b815260206004820152600f60248201526e105b1c9958591e4818db185a5b5959608a1b6044820152606490fd5b15613ce257565b60405162461bcd60e51b815260206004820152600e60248201526d11d85b594818dbdb5c1b195d195960921b6044820152606490fd5b919082018092116110e357565b15613d2c57565b60405162461bcd60e51b815260206004820152601260248201527110d85b9b9bdd081c9958db185a5b481e595d60721b6044820152606490fd5b60001981146110e35760010190565b9190811015613d855760051b0190565b634e487b7160e01b600052603260045260246000fd5b356001600160a01b03811681036102c65790565b15613db657565b60405162461bcd60e51b815260206004820152601360248201527211d85b5948191bd95cc81b9bdd08195e1a5cdd606a1b6044820152606490fd5b15613df857565b60405162461bcd60e51b815260206004820152600c60248201526b11d85b59481a5cc8199d5b1b60a21b6044820152606490fd5b15613e3357565b60405162461bcd60e51b815260206004820152600d60248201526c1499599d5b990819985a5b1959609a1b6044820152606490fd5b15613e6f57565b60405162461bcd60e51b815260206004820152601c60248201527f57696e6e6572206d7573742062652061207061727469636970616e74000000006044820152606490fd5b15613ebb57565b60405162461bcd60e51b815260206004820152600f60248201526e2737ba103a34329031b932b0ba37b960891b6044820152606490fd5b15613ef957565b60405162461bcd60e51b815260206004820152601160248201527020b63932b0b23c903bb4ba34323930bbb760791b6044820152606490fd5b15613f3957565b60405162461bcd60e51b815260206004820152601360248201527213919508185b1c9958591e4818db185a5b5959606a1b6044820152606490fd5b600091818352600660205260408320916007602052604084209160018060a01b03169182855260205260ff60408520541615613ff1578352600860205260408320908352602052604082205415613fed5760059150015460ff811660ff8260081c1610908115613fe2575090565b60ff915060c01c1690565b5090565b5050509056feb9389f406fe2f12fee7d080bbb0bc247c61f84511a9f00d2589ec9bd002507f6a2646970667358221220d5d09aec6ae63b9af03a3d480713e453cfd4cb613e35d811439fee3100a175ad64736f6c63430008140033",
  "linkReferences": {},
  "deployedLinkReferences": {}
}