{
  "_format": "hh-sol-artifact-1",
  "contractName": "NFTFlipGame",
  "sourceName": "contracts/NFTFlipGame.sol",
  "abi": [
    {
      "inputs": [
        {
          "internalType": "address",
          "name": "_ethUsdFeed",
          "type": "address"
        },
        {
          "internalType": "address",
          "name": "_usdcToken",
          "type": "address"
        },
        {
          "internalType": "address",
          "name": "_platformFeeReceiver",
          "type": "address"
        }
      ],
      "stateMutability": "nonpayable",
      "type": "constructor"
    },
    {
      "anonymous": false,
      "inputs": [
        {
          "indexed": true,
          "internalType": "bytes32",
          "name": "gameId",
          "type": "bytes32"
        },
        {
          "indexed": false,
          "internalType": "address",
          "name": "player",
          "type": "address"
        },
        {
          "indexed": false,
          "internalType": "bool",
          "name": "isNFT",
          "type": "bool"
        },
        {
          "indexed": false,
          "internalType": "enum NFTFlipGame.PaymentToken",
          "name": "paymentToken",
          "type": "uint8"
        }
      ],
      "name": "AssetsDeposited",
      "type": "event"
    },
    {
      "anonymous": false,
      "inputs": [
        {
          "indexed": true,
          "internalType": "bytes32",
          "name": "gameId",
          "type": "bytes32"
        },
        {
          "indexed": false,
          "internalType": "address",
          "name": "player",
          "type": "address"
        }
      ],
      "name": "AssetsReclaimed",
      "type": "event"
    },
    {
      "anonymous": false,
      "inputs": [
        {
          "indexed": true,
          "internalType": "bytes32",
          "name": "gameId",
          "type": "bytes32"
        },
        {
          "indexed": false,
          "internalType": "string",
          "name": "reason",
          "type": "string"
        }
      ],
      "name": "GameCancelled",
      "type": "event"
    },
    {
      "anonymous": false,
      "inputs": [
        {
          "indexed": true,
          "internalType": "bytes32",
          "name": "gameId",
          "type": "bytes32"
        },
        {
          "indexed": false,
          "internalType": "address",
          "name": "winner",
          "type": "address"
        }
      ],
      "name": "GameCompleted",
      "type": "event"
    },
    {
      "anonymous": false,
      "inputs": [
        {
          "indexed": true,
          "internalType": "bytes32",
          "name": "gameId",
          "type": "bytes32"
        },
        {
          "indexed": false,
          "internalType": "address",
          "name": "player1",
          "type": "address"
        },
        {
          "indexed": false,
          "internalType": "address",
          "name": "player2",
          "type": "address"
        },
        {
          "indexed": false,
          "internalType": "enum NFTFlipGame.PaymentToken",
          "name": "paymentToken",
          "type": "uint8"
        }
      ],
      "name": "GameCreated",
      "type": "event"
    },
    {
      "anonymous": false,
      "inputs": [
        {
          "indexed": true,
          "internalType": "bytes32",
          "name": "gameId",
          "type": "bytes32"
        }
      ],
      "name": "GameStarted",
      "type": "event"
    },
    {
      "anonymous": false,
      "inputs": [
        {
          "indexed": true,
          "internalType": "address",
          "name": "creator",
          "type": "address"
        },
        {
          "indexed": false,
          "internalType": "uint256",
          "name": "amount",
          "type": "uint256"
        }
      ],
      "name": "ListingFeePaid",
      "type": "event"
    },
    {
      "anonymous": false,
      "inputs": [
        {
          "indexed": true,
          "internalType": "address",
          "name": "previousOwner",
          "type": "address"
        },
        {
          "indexed": true,
          "internalType": "address",
          "name": "newOwner",
          "type": "address"
        }
      ],
      "name": "OwnershipTransferred",
      "type": "event"
    },
    {
      "anonymous": false,
      "inputs": [
        {
          "indexed": false,
          "internalType": "address",
          "name": "account",
          "type": "address"
        }
      ],
      "name": "Paused",
      "type": "event"
    },
    {
      "anonymous": false,
      "inputs": [
        {
          "indexed": false,
          "internalType": "address",
          "name": "account",
          "type": "address"
        }
      ],
      "name": "Unpaused",
      "type": "event"
    },
    {
      "inputs": [],
      "name": "BASIS_POINTS",
      "outputs": [
        {
          "internalType": "uint256",
          "name": "",
          "type": "uint256"
        }
      ],
      "stateMutability": "view",
      "type": "function"
    },
    {
      "inputs": [
        {
          "internalType": "address[]",
          "name": "nftContracts",
          "type": "address[]"
        },
        {
          "internalType": "uint256[]",
          "name": "tokenIds",
          "type": "uint256[]"
        },
        {
          "internalType": "address[]",
          "name": "recipients",
          "type": "address[]"
        }
      ],
      "name": "adminBatchWithdrawNFTs",
      "outputs": [],
      "stateMutability": "nonpayable",
      "type": "function"
    },
    {
      "inputs": [
        {
          "internalType": "bytes32",
          "name": "gameId",
          "type": "bytes32"
        }
      ],
      "name": "canDeposit",
      "outputs": [
        {
          "internalType": "bool",
          "name": "",
          "type": "bool"
        }
      ],
      "stateMutability": "view",
      "type": "function"
    },
    {
      "inputs": [
        {
          "internalType": "bytes32",
          "name": "gameId",
          "type": "bytes32"
        }
      ],
      "name": "canStartGame",
      "outputs": [
        {
          "internalType": "bool",
          "name": "",
          "type": "bool"
        }
      ],
      "stateMutability": "view",
      "type": "function"
    },
    {
      "inputs": [
        {
          "internalType": "bytes32",
          "name": "gameId",
          "type": "bytes32"
        }
      ],
      "name": "cancelGame",
      "outputs": [],
      "stateMutability": "nonpayable",
      "type": "function"
    },
    {
      "inputs": [
        {
          "internalType": "bytes32",
          "name": "gameId",
          "type": "bytes32"
        },
        {
          "internalType": "address",
          "name": "winner",
          "type": "address"
        }
      ],
      "name": "completeGame",
      "outputs": [],
      "stateMutability": "nonpayable",
      "type": "function"
    },
    {
      "inputs": [
        {
          "internalType": "bytes32",
          "name": "gameId",
          "type": "bytes32"
        }
      ],
      "name": "depositETH",
      "outputs": [],
      "stateMutability": "payable",
      "type": "function"
    },
    {
      "inputs": [
        {
          "internalType": "bytes32",
          "name": "gameId",
          "type": "bytes32"
        }
      ],
      "name": "depositNFT",
      "outputs": [],
      "stateMutability": "nonpayable",
      "type": "function"
    },
    {
      "inputs": [],
      "name": "depositTimeout",
      "outputs": [
        {
          "internalType": "uint256",
          "name": "",
          "type": "uint256"
        }
      ],
      "stateMutability": "view",
      "type": "function"
    },
    {
      "inputs": [
        {
          "internalType": "bytes32",
          "name": "gameId",
          "type": "bytes32"
        },
        {
          "internalType": "uint256",
          "name": "amount",
          "type": "uint256"
        }
      ],
      "name": "depositUSDC",
      "outputs": [],
      "stateMutability": "nonpayable",
      "type": "function"
    },
    {
      "inputs": [],
      "name": "emergencyPause",
      "outputs": [],
      "stateMutability": "nonpayable",
      "type": "function"
    },
    {
      "inputs": [],
      "name": "emergencyWithdrawETH",
      "outputs": [],
      "stateMutability": "nonpayable",
      "type": "function"
    },
    {
      "inputs": [
        {
          "internalType": "address",
          "name": "nftContract",
          "type": "address"
        },
        {
          "internalType": "uint256",
          "name": "tokenId",
          "type": "uint256"
        },
        {
          "internalType": "address",
          "name": "to",
          "type": "address"
        }
      ],
      "name": "emergencyWithdrawNFT",
      "outputs": [],
      "stateMutability": "nonpayable",
      "type": "function"
    },
    {
      "inputs": [],
      "name": "ethUsdFeed",
      "outputs": [
        {
          "internalType": "contract AggregatorV3Interface",
          "name": "",
          "type": "address"
        }
      ],
      "stateMutability": "view",
      "type": "function"
    },
    {
      "inputs": [
        {
          "internalType": "bytes32",
          "name": "",
          "type": "bytes32"
        }
      ],
      "name": "games",
      "outputs": [
        {
          "internalType": "address",
          "name": "player1",
          "type": "address"
        },
        {
          "internalType": "address",
          "name": "player2",
          "type": "address"
        },
        {
          "internalType": "address",
          "name": "nftContract",
          "type": "address"
        },
        {
          "internalType": "uint256",
          "name": "tokenId",
          "type": "uint256"
        },
        {
          "internalType": "uint256",
          "name": "ethAmount",
          "type": "uint256"
        },
        {
          "internalType": "uint256",
          "name": "usdcAmount",
          "type": "uint256"
        },
        {
          "internalType": "enum NFTFlipGame.PaymentToken",
          "name": "paymentToken",
          "type": "uint8"
        },
        {
          "internalType": "uint256",
          "name": "depositTime",
          "type": "uint256"
        },
        {
          "internalType": "bool",
          "name": "player1Deposited",
          "type": "bool"
        },
        {
          "internalType": "bool",
          "name": "player2Deposited",
          "type": "bool"
        },
        {
          "internalType": "bool",
          "name": "completed",
          "type": "bool"
        },
        {
          "internalType": "address",
          "name": "winner",
          "type": "address"
        }
      ],
      "stateMutability": "view",
      "type": "function"
    },
    {
      "inputs": [
        {
          "internalType": "uint256",
          "name": "usdAmount",
          "type": "uint256"
        }
      ],
      "name": "getETHAmount",
      "outputs": [
        {
          "internalType": "uint256",
          "name": "",
          "type": "uint256"
        }
      ],
      "stateMutability": "view",
      "type": "function"
    },
    {
      "inputs": [
        {
          "internalType": "bytes32",
          "name": "gameId",
          "type": "bytes32"
        }
      ],
      "name": "getGameDetails",
      "outputs": [
        {
          "internalType": "address",
          "name": "player1",
          "type": "address"
        },
        {
          "internalType": "address",
          "name": "player2",
          "type": "address"
        },
        {
          "internalType": "address",
          "name": "nftContract",
          "type": "address"
        },
        {
          "internalType": "uint256",
          "name": "tokenId",
          "type": "uint256"
        },
        {
          "internalType": "uint256",
          "name": "ethAmount",
          "type": "uint256"
        },
        {
          "internalType": "uint256",
          "name": "usdcAmount",
          "type": "uint256"
        },
        {
          "internalType": "enum NFTFlipGame.PaymentToken",
          "name": "paymentToken",
          "type": "uint8"
        },
        {
          "internalType": "uint256",
          "name": "depositTime",
          "type": "uint256"
        },
        {
          "internalType": "bool",
          "name": "player1Deposited",
          "type": "bool"
        },
        {
          "internalType": "bool",
          "name": "player2Deposited",
          "type": "bool"
        },
        {
          "internalType": "bool",
          "name": "completed",
          "type": "bool"
        },
        {
          "internalType": "address",
          "name": "winner",
          "type": "address"
        }
      ],
      "stateMutability": "view",
      "type": "function"
    },
    {
      "inputs": [
        {
          "internalType": "uint256",
          "name": "usdAmount",
          "type": "uint256"
        }
      ],
      "name": "getUSDCAmount",
      "outputs": [
        {
          "internalType": "uint256",
          "name": "",
          "type": "uint256"
        }
      ],
      "stateMutability": "pure",
      "type": "function"
    },
    {
      "inputs": [
        {
          "internalType": "address",
          "name": "user",
          "type": "address"
        }
      ],
      "name": "getUserGames",
      "outputs": [
        {
          "internalType": "bytes32[]",
          "name": "",
          "type": "bytes32[]"
        }
      ],
      "stateMutability": "view",
      "type": "function"
    },
    {
      "inputs": [
        {
          "internalType": "bytes32",
          "name": "gameId",
          "type": "bytes32"
        },
        {
          "internalType": "address",
          "name": "player1",
          "type": "address"
        },
        {
          "internalType": "address",
          "name": "player2",
          "type": "address"
        },
        {
          "internalType": "address",
          "name": "nftContract",
          "type": "address"
        },
        {
          "internalType": "uint256",
          "name": "tokenId",
          "type": "uint256"
        },
        {
          "internalType": "uint256",
          "name": "priceUSD",
          "type": "uint256"
        },
        {
          "internalType": "enum NFTFlipGame.PaymentToken",
          "name": "paymentToken",
          "type": "uint8"
        }
      ],
      "name": "initializeGame",
      "outputs": [],
      "stateMutability": "nonpayable",
      "type": "function"
    },
    {
      "inputs": [],
      "name": "listingFeeUSD",
      "outputs": [
        {
          "internalType": "uint256",
          "name": "",
          "type": "uint256"
        }
      ],
      "stateMutability": "view",
      "type": "function"
    },
    {
      "inputs": [
        {
          "internalType": "address",
          "name": "",
          "type": "address"
        }
      ],
      "name": "listingFees",
      "outputs": [
        {
          "internalType": "uint256",
          "name": "",
          "type": "uint256"
        }
      ],
      "stateMutability": "view",
      "type": "function"
    },
    {
      "inputs": [],
      "name": "owner",
      "outputs": [
        {
          "internalType": "address",
          "name": "",
          "type": "address"
        }
      ],
      "stateMutability": "view",
      "type": "function"
    },
    {
      "inputs": [],
      "name": "paused",
      "outputs": [
        {
          "internalType": "bool",
          "name": "",
          "type": "bool"
        }
      ],
      "stateMutability": "view",
      "type": "function"
    },
    {
      "inputs": [
        {
          "internalType": "bytes32",
          "name": "gameId",
          "type": "bytes32"
        },
        {
          "internalType": "address",
          "name": "nftContract",
          "type": "address"
        },
        {
          "internalType": "uint256",
          "name": "tokenId",
          "type": "uint256"
        },
        {
          "internalType": "uint256",
          "name": "priceUSD",
          "type": "uint256"
        },
        {
          "internalType": "enum NFTFlipGame.PaymentToken",
          "name": "paymentToken",
          "type": "uint8"
        }
      ],
      "name": "payFeeAndCreateGame",
      "outputs": [],
      "stateMutability": "payable",
      "type": "function"
    },
    {
      "inputs": [],
      "name": "payListingFee",
      "outputs": [],
      "stateMutability": "payable",
      "type": "function"
    },
    {
      "inputs": [],
      "name": "platformFeePercent",
      "outputs": [
        {
          "internalType": "uint256",
          "name": "",
          "type": "uint256"
        }
      ],
      "stateMutability": "view",
      "type": "function"
    },
    {
      "inputs": [],
      "name": "platformFeeReceiver",
      "outputs": [
        {
          "internalType": "address",
          "name": "",
          "type": "address"
        }
      ],
      "stateMutability": "view",
      "type": "function"
    },
    {
      "inputs": [
        {
          "internalType": "bytes32",
          "name": "gameId",
          "type": "bytes32"
        }
      ],
      "name": "reclaimAssets",
      "outputs": [],
      "stateMutability": "nonpayable",
      "type": "function"
    },
    {
      "inputs": [],
      "name": "renounceOwnership",
      "outputs": [],
      "stateMutability": "nonpayable",
      "type": "function"
    },
    {
      "inputs": [
        {
          "internalType": "uint256",
          "name": "newTimeout",
          "type": "uint256"
        }
      ],
      "name": "setDepositTimeout",
      "outputs": [],
      "stateMutability": "nonpayable",
      "type": "function"
    },
    {
      "inputs": [
        {
          "internalType": "uint256",
          "name": "newFee",
          "type": "uint256"
        }
      ],
      "name": "setListingFee",
      "outputs": [],
      "stateMutability": "nonpayable",
      "type": "function"
    },
    {
      "inputs": [
        {
          "internalType": "uint256",
          "name": "newPercent",
          "type": "uint256"
        }
      ],
      "name": "setPlatformFee",
      "outputs": [],
      "stateMutability": "nonpayable",
      "type": "function"
    },
    {
      "inputs": [
        {
          "internalType": "address",
          "name": "newOwner",
          "type": "address"
        }
      ],
      "name": "transferOwnership",
      "outputs": [],
      "stateMutability": "nonpayable",
      "type": "function"
    },
    {
      "inputs": [],
      "name": "unpause",
      "outputs": [],
      "stateMutability": "nonpayable",
      "type": "function"
    },
    {
      "inputs": [
        {
          "internalType": "bytes32",
          "name": "gameId",
          "type": "bytes32"
        },
        {
          "internalType": "address",
          "name": "player2",
          "type": "address"
        },
        {
          "internalType": "uint256",
          "name": "priceUSD",
          "type": "uint256"
        },
        {
          "internalType": "enum NFTFlipGame.PaymentToken",
          "name": "paymentToken",
          "type": "uint8"
        }
      ],
      "name": "updateGameWithPlayer2",
      "outputs": [],
      "stateMutability": "nonpayable",
      "type": "function"
    },
    {
      "inputs": [],
      "name": "usdcToken",
      "outputs": [
        {
          "internalType": "address",
          "name": "",
          "type": "address"
        }
      ],
      "stateMutability": "view",
      "type": "function"
    },
    {
      "inputs": [
        {
          "internalType": "address",
          "name": "",
          "type": "address"
        },
        {
          "internalType": "uint256",
          "name": "",
          "type": "uint256"
        }
      ],
      "name": "userGames",
      "outputs": [
        {
          "internalType": "bytes32",
          "name": "",
          "type": "bytes32"
        }
      ],
      "stateMutability": "view",
      "type": "function"
    }
  ],
  "bytecode": "0x6080346200011257601f6200314f38819003918201601f19168301916001600160401b03831184841017620001175780849260609460405283398101031262000112576200004d816200012d565b62000069604062000061602085016200012d565b93016200012d565b916001600055600154926040519360018060a01b03928391338382167f8be0079c531659141344cd1fd0a4f28419497f9722a3daafe3b4186f6b6457e0600080a36001600160a81b0319163360ff60a01b19161760015562030d4060055561015e60065561012c600755600980546001600160a01b0319908116968416969096179055600a805486169190921617905560088054909316911617905561300c9081620001438239f35b600080fd5b634e487b7160e01b600052604160045260246000fd5b51906001600160a01b0382168203620001125756fe6080806040526004908136101561001557600080fd5b60009060e08235811c91826311eac855146127a557508163120aace6146126f757816312e8e2c31461269b578163131dbd09146126795781631fd462cd1461265a57816327627373146125d55781632d656ad7146125ac5781633a38d0631461258e5781633f4ba83a146124ef5781633f7121b0146123d457816351858e271461237157816357177224146121d55781635c975abb146121af578163615318c714612191578163691ddd7d14611f145781636dbf276314611a8f578163715018a614611a315781637c34c3551461174a5781637f80e6f2146116545781638009b7bd1461162b57816384536017146115b65781638a1fa0291461144d5781638c639a851461142f5781638da5cb5b14611406578163a077932e146112a6578163b1a8129514611203578163b262f41f14611149578163bc0167cd146110f1578163c775126914610de1578163cb9a263014610a69578163d68d9d4e146107da578163e1f1c4a7146107bd578163e9df30271461048d578163ef46b2ab14610466578163f060ad4c1461042d578163f2fde38b14610362578163f372e33c14610254575063f579f882146101c757600080fd5b34610251576020366003190112610251576040908235815260026020522061024d60018060a01b039182815416908360018201541690846002820154169260038201549682015491600581015460ff6006830154169060086007840154930154946040519a8b9a8760181c169860ff8860101c169860ff808a60081c169916978d61282f565b0390f35b80fd5b8391503461035e57602036600319011261035e57604060209383358152600285522091600860405193610286856129f3565b80546001600160a01b039081168652600182015481168787015260028201548116604087015260038201546060870152928101546080860152600581015460a086015260068101546102de9060ff1660c08701612bdc565b6007810154809486015201549260ff8416151561010082015260ff8460081c1615156101208201528160ff8560101c161594851561014084015260181c16610160820152511615159182610356575b508161033f575b506040519015158152f35b61034d9150600754906129a6565b42111582610334565b91508361032d565b8280fd5b8284346104295760203660031901126104295761037d6127ca565b610385612902565b6001600160a01b039081169182156103d65750600154826001600160601b0360a01b821617600155167f8be0079c531659141344cd1fd0a4f28419497f9722a3daafe3b4186f6b6457e0600080a380f35b60849060206040519162461bcd60e51b8352820152602660248201527f4f776e61626c653a206e6577206f776e657220697320746865207a65726f206160448201526564647265737360d01b6064820152fd5b5080fd5b8234610251576020366003190112610251576020906040906001600160a01b036104556127ca565b168152600383522054604051908152f35b5050346102515760203660031901126102515760206104858335612ea3565b604051908152f35b828434610429576040366003190112610429578035906104ab6127e0565b6104b3612902565b6104bb612b44565b82845260209160028352604085209160018060a01b039283815416936104e2851515612c63565b6008820180546104f860ff8260101c1615612e09565b60ff8116806107b0575b15610775578285169687148015610766575b156107315762010000600160b81b031916601885901b6301000000600160b81b031617620100001790558781600284015416600384015490803b1561035e57604080516323b872dd60e01b815230818a019081526001600160a01b0389166020820152918201939093528391839182908490829060600103925af180156107265761070e575b505060ff60068301541660028110156106fb57889392919061063d57508280928582930154905af16105ca612a32565b50156106035750907f0bf6aee0a93e0c0696509fac1649343cafc5bf013811646e438330fe86e4c15f915b604051908152a26001815580f35b60405162461bcd60e51b81529081018390526013602482015272115512081d1c985b9cd9995c8819985a5b1959606a1b6044820152606490fd5b600a54600592909201546040805163a9059cbb60e01b81526001600160a01b03959095169685019687526020870191909152929695948694889491859003909101928492165af19283156106f0577f0bf6aee0a93e0c0696509fac1649343cafc5bf013811646e438330fe86e4c15f936106be9187916106c3575b50612dc6565b6105f5565b6106e39150843d86116106e9575b6106db8183612a10565b810190612dae565b876106b8565b503d6106d1565b6040513d87823e3d90fd5b634e487b7160e01b895260218552602489fd5b610717906129c9565b61072257878961059a565b8780fd5b6040513d84823e3d90fd5b60405162461bcd60e51b8152808701899052600e60248201526d24b73b30b634b2103bb4b73732b960911b6044820152606490fd5b50826001850154168714610514565b60405162461bcd60e51b81528087018990526014602482015273105cdcd95d1cc81b9bdd0819195c1bdcda5d195960621b6044820152606490fd5b5060ff8160081c16610502565b823461025157806003193601126102515760206040516127108152f35b826020853660031901821361035e578035916107f4612b44565b6107fc612afd565b828452600281526040842060018101546001600160a01b0392919061082f908416610828811515612c63565b3314612d60565b600881019283549460ff95610849878260081c1615612ce2565b610858878260101c1615612ca5565b61087461086c6007860154600754906129a6565b421115612d22565b6006840193878554166002811015610a5657610a205782019182549361271061089f60065487612d9b565b04928534106109e9578b80858194610100839561ff001916178d55600854165af16108c8612a32565b50156109a55750867f981102f46f858a9ad42e0e3924c2ee3ddb912d9d6d28768155ffdb174c81711f946060948461090661092a958d9a9754612ab4565b90558b81341161097d575b505054168960405193338552840152604083019061280c565ba254908082169182610970575b5050610946575b506001815580f35b7fee5528ba4f234f658c6a97a7e3cba5532e7aad23bb249be4141b62e6a0158a7c8280a28161093e565b60081c1690508380610937565b80808061098d61099e9534612ab4565b335af1610998612a32565b50612ac1565b8b8b610911565b60405162461bcd60e51b8152908101869052601c60248201527f506c6174666f726d20666565207472616e73666572206661696c6564000000006044820152606490fd5b60405162461bcd60e51b8152808401899052601060248201526f092dce6eaccccd2c6d2cadce8408aa8960831b6044820152606490fd5b60405162461bcd60e51b8152808401879052600f60248201526e4e6f7420616e204554482067616d6560881b6044820152606490fd5b634e487b7160e01b8b526021845260248bfd5b8284346104295760603660031901126104295767ffffffffffffffff908035828111610ca257610a9c90369083016128d1565b9190926024928335828111610ddd57610ab890369085016128d1565b6044938435908111610dd957610ad190369087016128d1565b610adc929192612902565b81851480610dd0575b15610d8e579288928a98959289955b848710610aff578a80f35b9899979896976001600160a01b0397909688610b24610b1f83898b612fb2565b612fc2565b1615610d555788610b39610b1f838588612fb2565b1615610d1f5788610b4e610b1f83898b612fb2565b16988c610b5c838689612fb2565b359a6040519b8c926331a9108f60e11b8452830152818d60209d8e935afa8a9181610ce7575b50610bca575060405162461bcd60e51b8152808e018b9052601d818d01527f4661696c656420746f20636865636b204e4654206f776e657273686970000000818e0152606490fd5b81929394959697989c999d9a9130911603610ca657508b90610bf0610b1f848a8f612fb2565b16610bff610b1f848689612fb2565b610c0a84878a612fb2565b35823b15610ca257604080516323b872dd60e01b815230818f019081526001600160a01b0390941660208501529083019190915291839183919082908490829060600103925af1801561072657610c8a575b50506000198114610c7857600101959796989493929190610af4565b634e487b7160e01b8b5260118852888bfd5b610c93906129c9565b610c9e578a8c610c5c565b8a80fd5b8380fd5b897f436f6e747261637420646f6573206e6f74206f776e2074686973204e465400008a601e8e6064956040519562461bcd60e51b8752860152840152820152fd5b9091508b81813d8311610d18575b610cff8183612a10565b81010312610c9e57518281168103610c9e57908f610b82565b503d610cf5565b60405162461bcd60e51b81526020818e01526011818c015270125b9d985b1a59081c9958da5c1a595b9d607a1b818d0152606490fd5b60405162461bcd60e51b81526020818e01526014818c015273125b9d985b1a59081391950818dbdb9d1c9858dd60621b818d0152606490fd5b60405162461bcd60e51b81526020818901526018818a01527f4172726179206c656e67746873206d757374206d61746368000000000000000081880152606490fd5b50808214610ae5565b8880fd5b8680fd5b90508260a036600319011261035e57610df86127e0565b916084359260028410156110ed57610e0e612b44565b610e16612afd565b610e21600554612ea3565b91610e2e8334101561295a565b338652600360205260408620610e458482546129a6565b9055610e6a868080808760018060a01b03600854165af1610e64612a32565b50612a72565b8335865260026020526040862054610e8b906001600160a01b031615612b9a565b8580866110e35750610e9e606435612ea3565b60405193610eab856129f3565b338552602085018990526001600160a01b031660408501526044356060850152608084015260a0830152610ee28560c08401612bdc565b428183015285610100830152856101208301528561014083015285610160830152833586526002602052604086209060018060a01b038351166001600160601b0360a01b90818454161783556001830160018060a01b0360208601511682825416179055600283019060018060a01b03604086015116908254161790556060830151600383015560808301518583015560a0830151600583015560c083015160028110156110d0579260088361104c93610fc47f212c0bdcf42696e85cddf68fc1623b3327138b7898282f7356ab7ec713e9cf329997600660609a9801612be8565b83015160078201550190610feb6101008201511515839060ff801983541691151516179055565b610120810151825461ff00191690151560081b61ff0016178255610140810151825462ff0000191690151560101b62ff000016178255610160015181546301000000600160b81b03191660189190911b6301000000600160b81b0316179055565b33865281602052611061823560408820612c00565b8034116110ba575b6040519081527f3a5f70a82eb571b0a884a01d171c139c6ec5169ba9e11e00d211cb4f76391e1460203392a26110b06040519433865260006020870152604086019061280c565b3592a26001815580f35b6110cb8680808061098d8634612ab4565b611069565b634e487b7160e01b885260218652602488fd5b6064359150610e9e565b8480fd5b5050346102515760403660031901126102515761110c6127ca565b6001600160a01b03168152602091909152604081208054602435929083101561025157602061113b84846128a3565b90546040519160031b1c8152f35b82806003193601126102515761115d612b44565b611165612afd565b611170600554612ea3565b61117c8134101561295a565b3382526003602052604082206111938282546129a6565b90556111b2828080808560018060a01b03600854165af1610e64612a32565b8034116111ed575b6040519081527f3a5f70a82eb571b0a884a01d171c139c6ec5169ba9e11e00d211cb4f76391e1460203392a26001815580f35b6111fe8280808061098d8634612ab4565b6111ba565b828085346112a35760603660031901126112a35761121f6127ca565b6112276127f6565b90611230612902565b6001600160a01b031691823b1561129e57604080516323b872dd60e01b8152309281019283526001600160a01b039093166020830152602435908201529091839183919082908490829060600103925af180156107265761128e5750f35b611297906129c9565b6102515780f35b505050fd5b50fd5b5050346102515760803660031901126102515781356112c36127e0565b60643560443560028210156110ed576112da612902565b83855260026020526040852080546001600160a01b0392906112ff9084161515612c63565b60018201908154918483166113cb57917f212c0bdcf42696e85cddf68fc1623b3327138b7898282f7356ab7ec713e9cf3297989991849361134e60ff60086113ac9998015460101c1615612ca5565b85891680936001600160601b0360a01b1617905542600785015586156000146113b25761137a90612ea3565b8383015560068301805460ff191690555b895260205261139d8760408a20612c00565b54169160405193849384612c3a565b0390a280f35b600584015560068301805460ff1916600117905561138b565b60405162461bcd60e51b81526020818c01526014602482015273141b185e595c880c88185b1c9958591e481cd95d60621b6044820152606490fd5b82346102515780600319360112610251576001546040516001600160a01b039091168152602090f35b82346102515780600319360112610251576020600654604051908152f35b9190503461025157602036600319011261025157823581526002602052604081209160405161147b816129f3565b60018060a01b03845416815260018060a01b03600185015416926020820193845260018060a01b03600286015416946040830195865260038101549360608401948552878201549260808501938452600860058401549360a087019485526114ed60ff60068301541660c08901612bdc565b6007810154938701938452015460ff8082161515610100880152600882901c81161515610120880152601082901c16151561014087015260181c6001600160a01b0390811661016087015285519751985196519451935160c0870151998216999882169897909116969092909160028310156115a3575061024d97989950519161010086015115159361012087015115159561014088015115159761016060018060a01b0391015116986040519c8d9c8d61282f565b634e487b7160e01b815260218b52602490fd5b8284346104295781600319360112610429576115d0612902565b8180808060018060a01b036001541647905af16115eb612a32565b50156115f5575080f35b60649060206040519162461bcd60e51b8352820152600f60248201526e151c985b9cd9995c8819985a5b1959608a1b6044820152fd5b82346102515780600319360112610251576009546040516001600160a01b039091168152602090f35b9050823461035e57602036600319011261035e576008604060209483358152600286522060405193611685856129f3565b81546001600160a01b039081168652600183015481168787015260028301548116604087015260038301546060870152938201546080860152600582015460a086015260068201546116dd9060ff1660c08701612bdc565b60078201549085015201549060ff82161515928361010082015261016060ff8460081c161515928361012084015260ff8560101c161594851561014085015260181c1691015282611742575b508161173a57506040519015158152f35b905082610334565b915083611729565b82843461042957604036600319011261042957803590611768612b44565b611770612afd565b818352600260209081526040842060018101546001600160a01b0392919061179f908416610828811515612c63565b6008810192835460ff956117b8878360081c1615612ce2565b6117c7878360101c1615612ca5565b6117db61086c6007860154600754906129a6565b6006840193878554166002811015611a1e576001036119e85760050192835461271061180960065483612d9b565b049381602435106119b05761ff001916610100178855600a54604080516323b872dd60e01b815233868201908152306020820152918201939093528c9392918991839185169082908790829060600103925af19182156119a557611879899387936118b496916119885750612dc6565b80600a541690600854168d60405180968195829463a9059cbb60e01b84528a840160209093929193604081019460018060a01b031681520152565b03925af190811561197d578a91611960575b501561191c57509261092a867f981102f46f858a9ad42e0e3924c2ee3ddb912d9d6d28768155ffdb174c81711f94846119038b9860609754612ab4565b905554168960405193338552840152604083019061280c565b60405162461bcd60e51b8152908101859052601860248201527f5553444320666565207472616e73666572206661696c656400000000000000006044820152606490fd5b6119779150863d88116106e9576106db8183612a10565b8a6118c6565b6040513d8c823e3d90fd5b61199f9150853d87116106e9576106db8183612a10565b8f6106b8565b6040513d85823e3d90fd5b60405162461bcd60e51b81528085018990526011602482015270496e73756666696369656e74205553444360781b6044820152606490fd5b60405162461bcd60e51b8152808301879052600f60248201526e4e6f74206120555344432067616d6560881b6044820152606490fd5b634e487b7160e01b8b526021835260248bfd5b8234610251578060031936011261025157611a4a612902565b600180546001600160a01b031981169091556000906001600160a01b03167f8be0079c531659141344cd1fd0a4f28419497f9722a3daafe3b4186f6b6457e08280a380f35b828434610429576020908160031936011261035e57803591611aaf612b44565b8284526002815260408420805490926001600160a01b0391821690611ad5821515612c63565b6008850191825460ff91611aee838360101c1615612ca5565b611aff6007890154600754906129a6565b421115611eda5733148015611ecb575b15611e985788939291908181168080611e8b575b15611bef575050508386541691611b3b833314612e4e565b805462ff000019166201000017905560028601546003870154908516803b156110ed57604080516323b872dd60e01b8152309481019485526001600160a01b039095166020850152830191909152839183919082908490829060600103925af1801561072657611bdb575b50507fbeb9db71629193a6a8d82214e24ce084d5f6b1c980d4cda5cec9139a2ea33832925416604051908152a25b6001815580f35b611be4906129c9565b6110ed578486611ba6565b90919596979392945015808091611e7f575b15611df357505060018201938585541691611c1d833314612e4e565b805462ff00001916620100001790556006830154166002811015611de0578892918791611ce857505081808092611c6b8689895416920154612710611c6460065483612d9b565b04906129a6565b905af1611c76612a32565b5015611cb05750907fbeb9db71629193a6a8d82214e24ce084d5f6b1c980d4cda5cec9139a2ea3383292915b5416604051908152a2611bd4565b60405162461bcd60e51b81529081018490526011602482015270115512081c99599d5b990819985a5b1959607a1b6044820152606490fd5b9091611d3d9350611d0b600588600a5416920154612710611c6460065483612d9b565b918a60405180968195829463a9059cbb60e01b84528a840160209093929193604081019460018060a01b031681520152565b03925af1908115611dd5578791611db8575b5015611d7f5750907fbeb9db71629193a6a8d82214e24ce084d5f6b1c980d4cda5cec9139a2ea338329291611ca2565b60405162461bcd60e51b815290810184905260126024820152711554d110c81c99599d5b990819985a5b195960721b6044820152606490fd5b611dcf9150853d87116106e9576106db8183612a10565b87611d4f565b6040513d89823e3d90fd5b634e487b7160e01b895260218452602489fd5b935094509492905081611e71575b50611e10575b50505050611bd4565b7fd48b0c9992d8d4b8967d1584dc8c1955390d9ff30639a7da9c77e7f0db86c3d8926201000060609362ff000019161790556010604051918083528201526f4e6f206465706f73697473206d61646560801b6040820152a281808080611e07565b90508260081c161586611e01565b50858260081c16611c01565b50828260081c1615611b23565b60405162461bcd60e51b8152808401879052600c60248201526b2737ba103090383630bcb2b960a11b6044820152606490fd5b50846001880154163314611b0f565b60405162461bcd60e51b81528085018890526013602482015272151a5b595bdd5d081b9bdd081c995858da1959606a1b6044820152606490fd5b905034610429578060031936011261042957823590611f316127e0565b611f396127f6565b916001600160a01b0390606435828116919082900361218c5760c4359260a4356002851015610dd95790888089888a898f978598611f75612902565b8587526002602052611f8d8960408920541615612b9a565b869182846121845750611f9f90612ea3565b8960405196611fad886129f3565b169b8c87528a6020880196169d8e875260408801908152606088019160843583526080890193845260a0890195865260c0890196611feb9088612bdc565b88019642885261010089019d8e528c8b6101208b019b818d526101408c019d8e526101608c019e8f528152600260205260409020995116906001600160601b0360a01b91828b5416178a558d60018b01915116828254161790558c60028a0192511690825416179055516003870155519085015551600584015551600281101561217057937f212c0bdcf42696e85cddf68fc1623b3327138b7898282f7356ab7ec713e9cf329d9e9f9896936120f1906120da6008866113ac9f9e9c99966120bd61210a9860066121309e9b01612be8565b5160078201550197511515889060ff801983541691151516179055565b51865461ff00191690151560081b61ff0016178655565b51845462ff0000191690151560101b62ff000016178455565b5182546301000000600160b81b031916911660181b6301000000600160b81b0316179055565b8952816020526121438860408b20612c00565b80612157575b505060405193849384612c3a565b88526020526121698660408920612c00565b3880612149565b8f8f6021602492634e487b7160e01b835252fd5b925091611f9f565b600080fd5b82346102515780600319360112610251576020600754604051908152f35b8234610251578060031936011261025157602060ff60015460a01c166040519015158152f35b828434610429576020366003190112610429578035906121f3612b44565b6121fb612afd565b81835260026020526040832080546001600160a01b0392908316612220811515612c63565b330361233e5784600883019361224960ff865461223f82821615612ce2565b60101c1615612ca5565b61225d61086c6007860154600754906129a6565b600284015416600384015490803b1561035e57604080516323b872dd60e01b81523395810195865230602087015290850192909252909283919082908490829060600103925af180156106f05761232a575b5083600191847f981102f46f858a9ad42e0e3924c2ee3ddb912d9d6d28768155ffdb174c81711f606060ff6006885495888319881617809a5501541661230560405191338352886020840152604083019061280c565ba21617908161231c575b5061094657506001815580f35b60ff915060081c168361230f565b93612337600192956129c9565b93906122af565b60649060206040519162461bcd60e51b8352820152600c60248201526b4e6f7420706c61796572203160a01b6044820152fd5b823461025157806003193601126102515761238a612902565b612392612afd565b6001805460ff60a01b1916600160a01b1790556040513381527f62e78cea01bee320cd4e420270b5ea74000d11b0c9f74754ebdbfc544b05a25890602090a180f35b828434610429576020366003190112610429578035906123f2612902565b818352600260205260408320805460089190612418906001600160a01b03161515612c63565b019081549061242d60ff8360101c1615612e09565b60ff821615806124e1575b1561249d5750620100009062ff000019161790557fd48b0c9992d8d4b8967d1584dc8c1955390d9ff30639a7da9c77e7f0db86c3d8606060405160208152601360208201527243616e63656c6c65642062792073797374656d60681b6040820152a280f35b60649060206040519162461bcd60e51b8352820152601c60248201527f43616e6e6f742063616e63656c206166746572206465706f73697473000000006044820152fd5b5060ff8260081c1615612438565b828434610429578160031936011261042957612509612902565b6001549060ff8260a01c1615612553575060ff60a01b19166001556040513381527f5db9ee0a495bf2e6ff9c91a7834c1ba4fdd244a5e8aa4e537bd38aeae4b073aa90602090a180f35b60649060206040519162461bcd60e51b8352820152601460248201527314185d5cd8589b194e881b9bdd081c185d5cd95960621b6044820152fd5b82346102515780600319360112610251576020600554604051908152f35b82346102515780600319360112610251576008546040516001600160a01b039091168152602090f35b828434610429576020366003190112610429578035906125f3612902565b603c8210158061264e575b1561260a575060075580f35b60649060206040519162461bcd60e51b8352820152601c60248201527f54696d656f7574206d75737420626520312d3130206d696e75746573000000006044820152fd5b506102588211156125fe565b8284346104295760203660031901126104295760209060405190358152f35b82843461042957602036600319011261042957612694612902565b3560055580f35b828434610429576020366003190112610429578035906126b9612902565b6103e882116126c9575060065580f35b60649060206040519162461bcd60e51b835282015260076024820152664d61782031302560c81b6044820152fd5b828434610429576020908160031936011261035e576001600160a01b0361271c6127ca565b16835281526040822060405192838383549182815201908193835284832090835b8181106127915750505084612753910385612a10565b60405193838594850191818652518092526040850193925b82811061277a57505050500390f35b83518552869550938101939281019260010161276b565b82548452928601926001928301920161273d565b839034610429578160031936011261042957600a546001600160a01b03168152602090f35b600435906001600160a01b038216820361218c57565b602435906001600160a01b038216820361218c57565b604435906001600160a01b038216820361218c57565b9060028210156128195752565b634e487b7160e01b600052602160045260246000fd5b9a979491999693909c9b9895929c6101808c019d8c600160a01b60019003809d8180951683521690602001521660408c015260608b015260808a015260a089015260c0880161287d9161280c565b60e087015215156101008601521515610120850152151561014084015216906101600152565b80548210156128bb5760005260206000200190600090565b634e487b7160e01b600052603260045260246000fd5b9181601f8401121561218c5782359167ffffffffffffffff831161218c576020808501948460051b01011161218c57565b6001546001600160a01b0316330361291657565b606460405162461bcd60e51b815260206004820152602060248201527f4f776e61626c653a2063616c6c6572206973206e6f7420746865206f776e65726044820152fd5b1561296157565b60405162461bcd60e51b815260206004820152601860248201527f496e73756666696369656e74206c697374696e672066656500000000000000006044820152606490fd5b919082018092116129b357565b634e487b7160e01b600052601160045260246000fd5b67ffffffffffffffff81116129dd57604052565b634e487b7160e01b600052604160045260246000fd5b610180810190811067ffffffffffffffff8211176129dd57604052565b90601f8019910116810190811067ffffffffffffffff8211176129dd57604052565b3d15612a6d573d9067ffffffffffffffff82116129dd5760405191612a61601f8201601f191660200184612a10565b82523d6000602084013e565b606090565b15612a7957565b60405162461bcd60e51b8152602060048201526013602482015272119959481d1c985b9cd9995c8819985a5b1959606a1b6044820152606490fd5b919082039182116129b357565b15612ac857565b60405162461bcd60e51b815260206004820152600d60248201526c1499599d5b990819985a5b1959609a1b6044820152606490fd5b60ff60015460a01c16612b0c57565b60405162461bcd60e51b815260206004820152601060248201526f14185d5cd8589b194e881c185d5cd95960821b6044820152606490fd5b600260005414612b55576002600055565b60405162461bcd60e51b815260206004820152601f60248201527f5265656e7472616e637947756172643a207265656e7472616e742063616c6c006044820152606490fd5b15612ba157565b60405162461bcd60e51b815260206004820152601360248201527247616d6520616c72656164792065786973747360681b6044820152606490fd5b60028210156128195752565b9060028110156128195760ff80198354169116179055565b8054680100000000000000008110156129dd57612c22916001820181556128a3565b819291549060031b91821b91600019901b1916179055565b6001600160a01b03918216815291166020820152606081019291612c61916040019061280c565b565b15612c6a57565b60405162461bcd60e51b815260206004820152601360248201527211d85b5948191bd95cc81b9bdd08195e1a5cdd606a1b6044820152606490fd5b15612cac57565b60405162461bcd60e51b815260206004820152600e60248201526d11d85b594818dbdb5c1b195d195960921b6044820152606490fd5b15612ce957565b60405162461bcd60e51b8152602060048201526011602482015270105b1c9958591e4819195c1bdcda5d1959607a1b6044820152606490fd5b15612d2957565b60405162461bcd60e51b815260206004820152600f60248201526e11195c1bdcda5d081d1a5b595bdd5d608a1b6044820152606490fd5b15612d6757565b60405162461bcd60e51b815260206004820152600c60248201526b2737ba10383630bcb2b9101960a11b6044820152606490fd5b818102929181159184041417156129b357565b9081602091031261218c5751801515810361218c5790565b15612dcd57565b60405162461bcd60e51b81526020600482015260146024820152731554d110c81d1c985b9cd9995c8819985a5b195960621b6044820152606490fd5b15612e1057565b60405162461bcd60e51b815260206004820152601660248201527511d85b5948185b1c9958591e4818dbdb5c1b195d195960521b6044820152606490fd5b15612e5557565b60405162461bcd60e51b815260206004820152600f60248201526e4e6f7420796f75722061737365747360881b6044820152606490fd5b519069ffffffffffffffffffff8216820361218c57565b600954604051633fabe5a360e21b8152919060a090839060049082906001600160a01b03165afa918215612fa657600092612f58575b506000821315612f1e5768056bc75e2d63100000908181029181830414901517156129b3578115612f08570490565b634e487b7160e01b600052601260045260246000fd5b60405162461bcd60e51b8152602060048201526012602482015271125b9d985b1a59081c1c9a58d9481999595960721b6044820152606490fd5b909160a0823d8211612f9e575b81612f7260a09383612a10565b810103126102515750612f8481612e8c565b50612f96608060208301519201612e8c565b509038612ed9565b3d9150612f65565b6040513d6000823e3d90fd5b91908110156128bb5760051b0190565b356001600160a01b038116810361218c579056fea2646970667358221220a5ee2215a845ed552c8e6f8b5615bd4ee2cb86804001b974cfcd1725ed8f797164736f6c63430008140033",
  "linkReferences": {},
  "deployedLinkReferences": {}
}