{
  "_format": "hh-sol-artifact-1",
  "contractName": "NFTFlipGame",
  "sourceName": "contracts/NFTFlipGame.sol",
  "abi": [
    {
      "inputs": [
        {
          "internalType": "address",
          "name": "_ethUsdFeed",
          "type": "address"
        },
        {
          "internalType": "address",
          "name": "_usdcToken",
          "type": "address"
        },
        {
          "internalType": "address",
          "name": "_platformFeeReceiver",
          "type": "address"
        }
      ],
      "stateMutability": "nonpayable",
      "type": "constructor"
    },
    {
      "anonymous": false,
      "inputs": [
        {
          "indexed": true,
          "internalType": "bytes32",
          "name": "gameId",
          "type": "bytes32"
        },
        {
          "indexed": false,
          "internalType": "address",
          "name": "player",
          "type": "address"
        },
        {
          "indexed": false,
          "internalType": "bool",
          "name": "isNFT",
          "type": "bool"
        },
        {
          "indexed": false,
          "internalType": "enum NFTFlipGame.PaymentToken",
          "name": "paymentToken",
          "type": "uint8"
        }
      ],
      "name": "AssetsDeposited",
      "type": "event"
    },
    {
      "anonymous": false,
      "inputs": [
        {
          "indexed": true,
          "internalType": "bytes32",
          "name": "gameId",
          "type": "bytes32"
        },
        {
          "indexed": false,
          "internalType": "address",
          "name": "player",
          "type": "address"
        }
      ],
      "name": "AssetsReclaimed",
      "type": "event"
    },
    {
      "anonymous": false,
      "inputs": [
        {
          "indexed": true,
          "internalType": "bytes32",
          "name": "gameId",
          "type": "bytes32"
        },
        {
          "indexed": false,
          "internalType": "string",
          "name": "reason",
          "type": "string"
        }
      ],
      "name": "GameCancelled",
      "type": "event"
    },
    {
      "anonymous": false,
      "inputs": [
        {
          "indexed": true,
          "internalType": "bytes32",
          "name": "gameId",
          "type": "bytes32"
        },
        {
          "indexed": false,
          "internalType": "address",
          "name": "winner",
          "type": "address"
        }
      ],
      "name": "GameCompleted",
      "type": "event"
    },
    {
      "anonymous": false,
      "inputs": [
        {
          "indexed": true,
          "internalType": "bytes32",
          "name": "gameId",
          "type": "bytes32"
        },
        {
          "indexed": false,
          "internalType": "address",
          "name": "player1",
          "type": "address"
        },
        {
          "indexed": false,
          "internalType": "address",
          "name": "player2",
          "type": "address"
        },
        {
          "indexed": false,
          "internalType": "enum NFTFlipGame.PaymentToken",
          "name": "paymentToken",
          "type": "uint8"
        }
      ],
      "name": "GameCreated",
      "type": "event"
    },
    {
      "anonymous": false,
      "inputs": [
        {
          "indexed": true,
          "internalType": "bytes32",
          "name": "gameId",
          "type": "bytes32"
        }
      ],
      "name": "GameStarted",
      "type": "event"
    },
    {
      "anonymous": false,
      "inputs": [
        {
          "indexed": true,
          "internalType": "address",
          "name": "creator",
          "type": "address"
        },
        {
          "indexed": false,
          "internalType": "uint256",
          "name": "amount",
          "type": "uint256"
        }
      ],
      "name": "ListingFeePaid",
      "type": "event"
    },
    {
      "anonymous": false,
      "inputs": [
        {
          "indexed": true,
          "internalType": "address",
          "name": "previousOwner",
          "type": "address"
        },
        {
          "indexed": true,
          "internalType": "address",
          "name": "newOwner",
          "type": "address"
        }
      ],
      "name": "OwnershipTransferred",
      "type": "event"
    },
    {
      "anonymous": false,
      "inputs": [
        {
          "indexed": false,
          "internalType": "address",
          "name": "account",
          "type": "address"
        }
      ],
      "name": "Paused",
      "type": "event"
    },
    {
      "anonymous": false,
      "inputs": [
        {
          "indexed": false,
          "internalType": "address",
          "name": "account",
          "type": "address"
        }
      ],
      "name": "Unpaused",
      "type": "event"
    },
    {
      "inputs": [],
      "name": "BASIS_POINTS",
      "outputs": [
        {
          "internalType": "uint256",
          "name": "",
          "type": "uint256"
        }
      ],
      "stateMutability": "view",
      "type": "function"
    },
    {
      "inputs": [
        {
          "internalType": "address[]",
          "name": "nftContracts",
          "type": "address[]"
        },
        {
          "internalType": "uint256[]",
          "name": "tokenIds",
          "type": "uint256[]"
        },
        {
          "internalType": "address[]",
          "name": "recipients",
          "type": "address[]"
        }
      ],
      "name": "adminBatchWithdrawNFTs",
      "outputs": [],
      "stateMutability": "nonpayable",
      "type": "function"
    },
    {
      "inputs": [
        {
          "internalType": "bytes32",
          "name": "gameId",
          "type": "bytes32"
        }
      ],
      "name": "canDeposit",
      "outputs": [
        {
          "internalType": "bool",
          "name": "",
          "type": "bool"
        }
      ],
      "stateMutability": "view",
      "type": "function"
    },
    {
      "inputs": [
        {
          "internalType": "bytes32",
          "name": "gameId",
          "type": "bytes32"
        }
      ],
      "name": "canStartGame",
      "outputs": [
        {
          "internalType": "bool",
          "name": "",
          "type": "bool"
        }
      ],
      "stateMutability": "view",
      "type": "function"
    },
    {
      "inputs": [
        {
          "internalType": "bytes32",
          "name": "gameId",
          "type": "bytes32"
        }
      ],
      "name": "cancelGame",
      "outputs": [],
      "stateMutability": "nonpayable",
      "type": "function"
    },
    {
      "inputs": [
        {
          "internalType": "bytes32",
          "name": "gameId",
          "type": "bytes32"
        },
        {
          "internalType": "address",
          "name": "winner",
          "type": "address"
        }
      ],
      "name": "completeGame",
      "outputs": [],
      "stateMutability": "nonpayable",
      "type": "function"
    },
    {
      "inputs": [
        {
          "internalType": "bytes32",
          "name": "gameId",
          "type": "bytes32"
        },
        {
          "internalType": "uint256",
          "name": "agreedPriceUSD",
          "type": "uint256"
        }
      ],
      "name": "depositETH",
      "outputs": [],
      "stateMutability": "payable",
      "type": "function"
    },
    {
      "inputs": [
        {
          "internalType": "bytes32",
          "name": "gameId",
          "type": "bytes32"
        }
      ],
      "name": "depositNFT",
      "outputs": [],
      "stateMutability": "nonpayable",
      "type": "function"
    },
    {
      "inputs": [],
      "name": "depositTimeout",
      "outputs": [
        {
          "internalType": "uint256",
          "name": "",
          "type": "uint256"
        }
      ],
      "stateMutability": "view",
      "type": "function"
    },
    {
      "inputs": [
        {
          "internalType": "bytes32",
          "name": "gameId",
          "type": "bytes32"
        },
        {
          "internalType": "uint256",
          "name": "amount",
          "type": "uint256"
        }
      ],
      "name": "depositUSDC",
      "outputs": [],
      "stateMutability": "nonpayable",
      "type": "function"
    },
    {
      "inputs": [],
      "name": "emergencyPause",
      "outputs": [],
      "stateMutability": "nonpayable",
      "type": "function"
    },
    {
      "inputs": [],
      "name": "emergencyWithdrawETH",
      "outputs": [],
      "stateMutability": "nonpayable",
      "type": "function"
    },
    {
      "inputs": [
        {
          "internalType": "address",
          "name": "nftContract",
          "type": "address"
        },
        {
          "internalType": "uint256",
          "name": "tokenId",
          "type": "uint256"
        },
        {
          "internalType": "address",
          "name": "to",
          "type": "address"
        }
      ],
      "name": "emergencyWithdrawNFT",
      "outputs": [],
      "stateMutability": "nonpayable",
      "type": "function"
    },
    {
      "inputs": [],
      "name": "ethUsdFeed",
      "outputs": [
        {
          "internalType": "contract AggregatorV3Interface",
          "name": "",
          "type": "address"
        }
      ],
      "stateMutability": "view",
      "type": "function"
    },
    {
      "inputs": [
        {
          "internalType": "bytes32",
          "name": "",
          "type": "bytes32"
        }
      ],
      "name": "games",
      "outputs": [
        {
          "internalType": "address",
          "name": "player1",
          "type": "address"
        },
        {
          "internalType": "address",
          "name": "player2",
          "type": "address"
        },
        {
          "internalType": "address",
          "name": "nftContract",
          "type": "address"
        },
        {
          "internalType": "uint256",
          "name": "tokenId",
          "type": "uint256"
        },
        {
          "internalType": "uint256",
          "name": "ethAmount",
          "type": "uint256"
        },
        {
          "internalType": "uint256",
          "name": "usdcAmount",
          "type": "uint256"
        },
        {
          "internalType": "enum NFTFlipGame.PaymentToken",
          "name": "paymentToken",
          "type": "uint8"
        },
        {
          "internalType": "uint256",
          "name": "depositTime",
          "type": "uint256"
        },
        {
          "internalType": "bool",
          "name": "player1Deposited",
          "type": "bool"
        },
        {
          "internalType": "bool",
          "name": "player2Deposited",
          "type": "bool"
        },
        {
          "internalType": "bool",
          "name": "completed",
          "type": "bool"
        },
        {
          "internalType": "address",
          "name": "winner",
          "type": "address"
        }
      ],
      "stateMutability": "view",
      "type": "function"
    },
    {
      "inputs": [
        {
          "internalType": "uint256",
          "name": "usdAmount",
          "type": "uint256"
        }
      ],
      "name": "getETHAmount",
      "outputs": [
        {
          "internalType": "uint256",
          "name": "",
          "type": "uint256"
        }
      ],
      "stateMutability": "view",
      "type": "function"
    },
    {
      "inputs": [
        {
          "internalType": "bytes32",
          "name": "gameId",
          "type": "bytes32"
        }
      ],
      "name": "getGameDetails",
      "outputs": [
        {
          "internalType": "address",
          "name": "player1",
          "type": "address"
        },
        {
          "internalType": "address",
          "name": "player2",
          "type": "address"
        },
        {
          "internalType": "address",
          "name": "nftContract",
          "type": "address"
        },
        {
          "internalType": "uint256",
          "name": "tokenId",
          "type": "uint256"
        },
        {
          "internalType": "uint256",
          "name": "ethAmount",
          "type": "uint256"
        },
        {
          "internalType": "uint256",
          "name": "usdcAmount",
          "type": "uint256"
        },
        {
          "internalType": "enum NFTFlipGame.PaymentToken",
          "name": "paymentToken",
          "type": "uint8"
        },
        {
          "internalType": "uint256",
          "name": "depositTime",
          "type": "uint256"
        },
        {
          "internalType": "bool",
          "name": "player1Deposited",
          "type": "bool"
        },
        {
          "internalType": "bool",
          "name": "player2Deposited",
          "type": "bool"
        },
        {
          "internalType": "bool",
          "name": "completed",
          "type": "bool"
        },
        {
          "internalType": "address",
          "name": "winner",
          "type": "address"
        }
      ],
      "stateMutability": "view",
      "type": "function"
    },
    {
      "inputs": [
        {
          "internalType": "uint256",
          "name": "usdAmount",
          "type": "uint256"
        }
      ],
      "name": "getUSDCAmount",
      "outputs": [
        {
          "internalType": "uint256",
          "name": "",
          "type": "uint256"
        }
      ],
      "stateMutability": "pure",
      "type": "function"
    },
    {
      "inputs": [
        {
          "internalType": "address",
          "name": "user",
          "type": "address"
        }
      ],
      "name": "getUserGames",
      "outputs": [
        {
          "internalType": "bytes32[]",
          "name": "",
          "type": "bytes32[]"
        }
      ],
      "stateMutability": "view",
      "type": "function"
    },
    {
      "inputs": [
        {
          "internalType": "bytes32",
          "name": "gameId",
          "type": "bytes32"
        },
        {
          "internalType": "address",
          "name": "player1",
          "type": "address"
        },
        {
          "internalType": "address",
          "name": "nftContract",
          "type": "address"
        },
        {
          "internalType": "uint256",
          "name": "tokenId",
          "type": "uint256"
        }
      ],
      "name": "initializeGame",
      "outputs": [],
      "stateMutability": "nonpayable",
      "type": "function"
    },
    {
      "inputs": [],
      "name": "listingFeeUSD",
      "outputs": [
        {
          "internalType": "uint256",
          "name": "",
          "type": "uint256"
        }
      ],
      "stateMutability": "view",
      "type": "function"
    },
    {
      "inputs": [
        {
          "internalType": "address",
          "name": "",
          "type": "address"
        }
      ],
      "name": "listingFees",
      "outputs": [
        {
          "internalType": "uint256",
          "name": "",
          "type": "uint256"
        }
      ],
      "stateMutability": "view",
      "type": "function"
    },
    {
      "inputs": [],
      "name": "owner",
      "outputs": [
        {
          "internalType": "address",
          "name": "",
          "type": "address"
        }
      ],
      "stateMutability": "view",
      "type": "function"
    },
    {
      "inputs": [],
      "name": "paused",
      "outputs": [
        {
          "internalType": "bool",
          "name": "",
          "type": "bool"
        }
      ],
      "stateMutability": "view",
      "type": "function"
    },
    {
      "inputs": [
        {
          "internalType": "bytes32",
          "name": "gameId",
          "type": "bytes32"
        },
        {
          "internalType": "address",
          "name": "nftContract",
          "type": "address"
        },
        {
          "internalType": "uint256",
          "name": "tokenId",
          "type": "uint256"
        },
        {
          "internalType": "uint256",
          "name": "priceUSD",
          "type": "uint256"
        },
        {
          "internalType": "enum NFTFlipGame.PaymentToken",
          "name": "paymentToken",
          "type": "uint8"
        }
      ],
      "name": "payFeeAndCreateGame",
      "outputs": [],
      "stateMutability": "payable",
      "type": "function"
    },
    {
      "inputs": [],
      "name": "payListingFee",
      "outputs": [],
      "stateMutability": "payable",
      "type": "function"
    },
    {
      "inputs": [],
      "name": "platformFeePercent",
      "outputs": [
        {
          "internalType": "uint256",
          "name": "",
          "type": "uint256"
        }
      ],
      "stateMutability": "view",
      "type": "function"
    },
    {
      "inputs": [],
      "name": "platformFeeReceiver",
      "outputs": [
        {
          "internalType": "address",
          "name": "",
          "type": "address"
        }
      ],
      "stateMutability": "view",
      "type": "function"
    },
    {
      "inputs": [
        {
          "internalType": "bytes32",
          "name": "gameId",
          "type": "bytes32"
        }
      ],
      "name": "reclaimAssets",
      "outputs": [],
      "stateMutability": "nonpayable",
      "type": "function"
    },
    {
      "inputs": [],
      "name": "renounceOwnership",
      "outputs": [],
      "stateMutability": "nonpayable",
      "type": "function"
    },
    {
      "inputs": [
        {
          "internalType": "uint256",
          "name": "newTimeout",
          "type": "uint256"
        }
      ],
      "name": "setDepositTimeout",
      "outputs": [],
      "stateMutability": "nonpayable",
      "type": "function"
    },
    {
      "inputs": [
        {
          "internalType": "uint256",
          "name": "newFee",
          "type": "uint256"
        }
      ],
      "name": "setListingFee",
      "outputs": [],
      "stateMutability": "nonpayable",
      "type": "function"
    },
    {
      "inputs": [
        {
          "internalType": "uint256",
          "name": "newPercent",
          "type": "uint256"
        }
      ],
      "name": "setPlatformFee",
      "outputs": [],
      "stateMutability": "nonpayable",
      "type": "function"
    },
    {
      "inputs": [
        {
          "internalType": "bytes32",
          "name": "gameId",
          "type": "bytes32"
        },
        {
          "internalType": "address",
          "name": "player2",
          "type": "address"
        }
      ],
      "name": "setPlayer2",
      "outputs": [],
      "stateMutability": "nonpayable",
      "type": "function"
    },
    {
      "inputs": [
        {
          "internalType": "address",
          "name": "newOwner",
          "type": "address"
        }
      ],
      "name": "transferOwnership",
      "outputs": [],
      "stateMutability": "nonpayable",
      "type": "function"
    },
    {
      "inputs": [],
      "name": "unpause",
      "outputs": [],
      "stateMutability": "nonpayable",
      "type": "function"
    },
    {
      "inputs": [],
      "name": "usdcToken",
      "outputs": [
        {
          "internalType": "address",
          "name": "",
          "type": "address"
        }
      ],
      "stateMutability": "view",
      "type": "function"
    },
    {
      "inputs": [
        {
          "internalType": "address",
          "name": "",
          "type": "address"
        },
        {
          "internalType": "uint256",
          "name": "",
          "type": "uint256"
        }
      ],
      "name": "userGames",
      "outputs": [
        {
          "internalType": "bytes32",
          "name": "",
          "type": "bytes32"
        }
      ],
      "stateMutability": "view",
      "type": "function"
    }
  ],
  "bytecode": "0x6080346200011057601f62002f4438819003918201601f19168301916001600160401b03831184841017620001155780849260609460405283398101031262000110576200004d816200012b565b62000069604062000061602085016200012b565b93016200012b565b916001600055600154926040519360018060a01b03928391338382167f8be0079c531659141344cd1fd0a4f28419497f9722a3daafe3b4186f6b6457e0600080a36001600160a81b0319163360ff60a01b191617600155600060055561015e60065561012c600755600980546001600160a01b0319908116968416969096179055600a8054861691909216179055600880549093169116179055612e039081620001418239f35b600080fd5b634e487b7160e01b600052604160045260246000fd5b51906001600160a01b0382168203620001105756fe60a080604052600436101561001357600080fd5b60009060e08235811c91826311eac855146125aa57508163120aace6146124fc57816312e8e2c3146124a1578163131dbd091461247e5781631fd462cd1461246057816327627373146123dc5781632d656ad7146123b35781633a38d063146123955781633f4ba83a146122f85781633f7121b0146121e0578163400a992d146120cb57816351858e27146120685781635717722414611ee25781635c975abb14611ebc578163615318c714611e9e5781636dbf276314611a2f578163715018a6146119d15781637c34c355146116c95781637f80e6f2146115d35781638009b7bd146115aa57816384536017146115365781638a1fa029146113ce5781638c639a85146113b05781638da5cb5b14611387578163b1a81295146112ef578163b262f41f14611235578163bc0167cd146111df578163c775126914610f99578163cb9a263014610c3d578163d94a885414610a09578163e1f1c4a7146109ec578163e7a394fa146107b2578163e9df302714610486578163ef46b2ab1461045f578163f060ad4c14610426578163f2fde38b14610360578163f372e33c14610253575063f579f882146101c557600080fd5b3461025057602036600319011261025057604090600435815260026020522060018060a01b0361024c8183541692826001820154168360028301541691600381015495600482015491600581015460ff6006830154169060086007840154930154946040519a8b9a8760181c169860ff8860101c169860ff808a60081c169916978d61264f565b0390f35b80fd5b90503461035c57602036600319011261035c57604060209260043581526002845220906040519161028383612813565b600860018060a01b039182815416855282600182015416868601528260028201541660408601526003810154606086015260048101546080860152600581015460a08601526102dc60ff60068301541660c087016129fc565b6007810154809486015201549260ff8416151561010082015260ff8460081c1615156101208201528160ff8560101c161594851561014084015260181c16610160820152511615159182610354575b508161033d575b506040519015158152f35b61034b9150600754906127c6565b42111538610332565b91503861032b565b5080fd5b82346102505760203660031901126102505761037a6125cf565b610382612722565b6001600160a01b039081169081156103d257600154826001600160601b0360a01b821617600155167f8be0079c531659141344cd1fd0a4f28419497f9722a3daafe3b4186f6b6457e0600080a380f35b60405162461bcd60e51b815260206004820152602660248201527f4f776e61626c653a206e6577206f776e657220697320746865207a65726f206160448201526564647265737360d01b6064820152608490fd5b8234610250576020366003190112610250576020906040906001600160a01b0361044e6125cf565b168152600383522054604051908152f35b823461025057602036600319011261025057602061047e600435612c9a565b604051908152f35b8234610250576040366003190112610250576004356104a36125ea565b6104ab612722565b6104b3612964565b818352600260209081526040842080546001600160a01b0393908416916104db831515612a5a565b6008810180546104f160ff8260101c1615612c00565b60ff8116806107a5575b1561076957868416948514801561075a575b156107245762010000600160b81b031916601884901b6301000000600160b81b031617620100001790558685600283015416600383015490803b15610720576040516323b872dd60e01b81523060048201526001600160a01b0386166024820152604481019290925282908290606490829084905af18015610715576106fd575b505060ff60068201541660028110156106e957879291906106345782939495508291600483920154905af16105c1612852565b50156105f957907f0bf6aee0a93e0c0696509fac1649343cafc5bf013811646e438330fe86e4c15f915b604051908152a26001815580f35b60405162461bcd60e51b8152600481018390526013602482015272115512081d1c985b9cd9995c8819985a5b1959606a1b6044820152606490fd5b600a546005919091015460405163a9059cbb60e01b81526001600160a01b0393909316600484015260248301529094849250859160449183918a91165af19283156106de577f0bf6aee0a93e0c0696509fac1649343cafc5bf013811646e438330fe86e4c15f936106ac9187916106b1575b50612bbd565b6105eb565b6106d19150843d86116106d7575b6106c98183612830565b810190612ba5565b876106a6565b503d6106bf565b6040513d87823e3d90fd5b634e487b7160e01b88526021600452602488fd5b610706906127e9565b61071157868861058e565b8680fd5b6040513d84823e3d90fd5b8280fd5b60405162461bcd60e51b815260048101879052600e60248201526d24b73b30b634b2103bb4b73732b960911b6044820152606490fd5b5086600184015416851461050d565b60405162461bcd60e51b8152600481018790526014602482015273105cdcd95d1cc81b9bdd0819195c1bdcda5d195960621b6044820152606490fd5b5060ff8160081c166104fb565b826107bc36612616565b6107c4612964565b6107cc61291d565b8183526002602052604083209060018060a01b036107fc816001850154166107f5811515612a5a565b3314612b57565b600883019261084884549361081760ff8660081c1615612ad9565b61082760ff8660101c1615612a9c565b61084361083b6007850154600754906127c6565b421115612b19565b612c9a565b9161271061085860065485612b92565b04908334106109b4578782819492610100600684969561087986978b6128d4565b600482015501805460ff1916815561ff0019909916178955600854165af161089f612852565b501561096f57606060ff859383887f981102f46f858a9ad42e0e3924c2ee3ddb912d9d6d28768155ffdb174c81711f953411610947575b505054166108f460405191338352886020840152604083019061262c565ba25460ff81169081610939575b5061090f575b506001815580f35b7fee5528ba4f234f658c6a97a7e3cba5532e7aad23bb249be4141b62e6a0158a7c8280a281610907565b60ff915060081c1683610901565b80808061095761096895346128d4565b335af1610962612852565b506128e1565b88886108d6565b60405162461bcd60e51b815260206004820152601c60248201527f506c6174666f726d20666565207472616e73666572206661696c6564000000006044820152606490fd5b60405162461bcd60e51b815260206004820152601060248201526f092dce6eaccccd2c6d2cadce8408aa8960831b6044820152606490fd5b823461025057806003193601126102505760206040516127108152f35b90503461035c57608036600319011261035c57610a246125ea565b610a2c612600565b91610a35612722565b600435845260026020526040842054610a57906001600160a01b0316156129ba565b60405191610a6483612813565b6001600160a01b039081168084526020808501878152958316604080870191825260643560608801908152608088018a815260a089018b815260c08a018c8152428a8c01526101008b018d90526101208b018d90526101408b018d90526101608b018d9052600480358e52600297889052948d208b5181546001600160a01b0319908116918c169190911782559c516001820180548f16918c1691909117905595518688018054909d16991698909817909a5590516003840155519082015595516005870155915190949291811015610c295791600891610b4c610bd4959460068401612a08565b83015160078201550190610b736101008201511515839060ff801983541691151516179055565b610120810151825461ff00191690151560081b61ff0016178255610140810151825462ff0000191690151560101b62ff000016178255610160015181546301000000600160b81b03191660189190911b6301000000600160b81b0316179055565b8082526004602052610beb60043560408420612a20565b604051908152816020820152600060408201527f212c0bdcf42696e85cddf68fc1623b3327138b7898282f7356ab7ec713e9cf32606060043592a280f35b634e487b7160e01b86526021600452602486fd5b82346102505760603660031901126102505767ffffffffffffffff60043581811161072057610c709036906004016126f1565b602492918335838111610f9557610c8b9036906004016126f1565b6044929192948535908111610f9157610ca89036906004016126f1565b9092610cb2612722565b82861480610f88575b15610f4557885b868110610ccd578980f35b6001600160a01b0380610ce9610ce4848b87612da9565b612db9565b1615610f0b5780610cfe610ce484878a612da9565b1615610ed45780610d13610ce4848b87612da9565b166020610d2184888b612da9565b358c604051809481936331a9108f60e11b83526004830152846080525afa8c9181610e93575b50610d905760405162461bcd60e51b81526080516004820152601d818d01527f4661696c656420746f20636865636b204e4654206f776e657273686970000000818c0152606490fd5b8130911603610e4f578a90610da9610ce4848b87612da9565b16610db8610ce484878a612da9565b610dc384888b612da9565b35823b15610e4b576040516323b872dd60e01b81523060048201526001600160a01b0392909216602483015260448201529082908290606490829084905af1801561071557610e33575b50506000198114610e2057600101610cc2565b634e487b7160e01b8a526011600452888afd5b610e3c906127e9565b610e4757898b610e0d565b8980fd5b8380fd5b60405162461bcd60e51b81526080516004820152601e818c01527f436f6e747261637420646f6573206e6f74206f776e2074686973204e46540000818b0152606490fd5b9091506080513d8111610ecd575b610eab8183612830565b816080519181010312610ec957518281168103610ec957908d610d47565b8c80fd5b503d610ea1565b60405162461bcd60e51b8152602060048201526011818c015270125b9d985b1a59081c9958da5c1a595b9d607a1b818b0152606490fd5b60405162461bcd60e51b8152602060048201526014818c015273125b9d985b1a59081391950818dbdb9d1c9858dd60621b818b0152606490fd5b60405162461bcd60e51b8152602060048201526018818a01527f4172726179206c656e67746873206d757374206d61746368000000000000000081890152606490fd5b50818314610cbb565b8780fd5b8580fd5b905060a036600319011261035c57610faf6125ea565b6002608435101561072057610fc2612964565b610fca61291d565b610fd5600554612c9a565b91610fe28334101561277a565b338452600360205260408420610ff98482546127c6565b905561101e848080808760018060a01b03600854165af1611018612852565b50612892565b600435845260026020526040842054611040906001600160a01b0316156129ba565b6040519161104d83612813565b33835284602084015260018060a01b0316604083015260443560608301528360808301528360a08301528360c083015242818301528361010083015283610120830152836101408301528361016083015260043584526002602052604084209060018060a01b038351166001600160601b0360a01b90818454161783556001830160018060a01b0360208601511682825416179055600283019060018060a01b0360408601511690825416179055606083015160038301556080830151600483015560a0830151600583015560c08301516002811015610c295791600891610b4c61113c959460068401612a08565b338252600460205261115360043560408420612a20565b8034116111c9575b6040519081527f3a5f70a82eb571b0a884a01d171c139c6ec5169ba9e11e00d211cb4f76391e1460203392a2604051338152816020820152600060408201527f212c0bdcf42696e85cddf68fc1623b3327138b7898282f7356ab7ec713e9cf32606060043592a26001815580f35b6111da8280808061095786346128d4565b61115b565b8234610250576040366003190112610250576111f96125cf565b6001600160a01b031681526004602052604081208054602435929083101561025057602061122784846126c3565b90546040519160031b1c8152f35b828060031936011261025057611249612964565b61125161291d565b61125c600554612c9a565b6112688134101561277a565b33825260036020526040822061127f8282546127c6565b905561129e828080808560018060a01b03600854165af1611018612852565b8034116112d9575b6040519081527f3a5f70a82eb571b0a884a01d171c139c6ec5169ba9e11e00d211cb4f76391e1460203392a26001815580f35b6112ea8280808061095786346128d4565b6112a6565b8234610250576060366003190112610250578061130a6125cf565b611312612600565b9061131b612722565b6001600160a01b0316803b15611383576040516323b872dd60e01b81523060048201526001600160a01b039290921660248084019190915235604483015282908290606490829084905af18015610715576113735750f35b61137c906127e9565b6102505780f35b5050fd5b82346102505780600319360112610250576001546040516001600160a01b039091168152602090f35b82346102505780600319360112610250576020600654604051908152f35b90503461035c57602036600319011261035c576004358252600260205260408220604051906113fc82612813565b60018060a01b03815416825260018060a01b03600182015416916020810192835260018060a01b0360028301541693604082019485526003830154926060830193845260048101549160808401928352600860058301549260a0860193845261146f60ff60068301541660c088016129fc565b6007810154928601928352015460ff8082161515610100870152600882901c81161515610120870152601082901c16151561014086015260181c6001600160a01b0390811661016086015284519651975195519351925160c086015198821698978216979690911695909160028210156115225761024c97989950519161010086015115159361012087015115159561014088015115159761016060018060a01b0391015116986040519c8d9c8d61264f565b634e487b7160e01b8a52602160045260248afd5b823461025057806003193601126102505761154f612722565b8080808060018060a01b036001541647905af161156a612852565b50156115735780f35b60405162461bcd60e51b815260206004820152600f60248201526e151c985b9cd9995c8819985a5b1959608a1b6044820152606490fd5b82346102505780600319360112610250576009546040516001600160a01b039091168152602090f35b90503461035c57602036600319011261035c576040602092600435815260028452209060086040519261160584612813565b60018060a01b039283825416855283600183015416868601528360028301541660408601526003820154606086015260048201546080860152600582015460a086015261165c60ff60068401541660c087016129fc565b60078201549085015201549060ff82161515928361010082015261016060ff8460081c161515928361012084015260ff8560101c161594851561014085015260181c16910152826116c1575b50816116b957506040519015158152f35b905038610332565b9150386116a8565b8234610250576116d836612616565b6116e0612964565b6116e861291d565b818352600260209081526040842060018101546001600160a01b03939291906117189085166107f5811515612a5a565b600881019283549060ff95611732878460081c1615612ad9565b611741878460101c1615612a9c565b61175561083b6007860154600754906127c6565b60068401938785541660028110156119bd5760010361198657600501928354908161271061178560065483612b92565b04941061194d5761ff001916610100178755600a546040516323b872dd60e01b815233600482015230602482015260448101929092528a9291908790829084168186816064810103925af1918215611942576117ed8893869361182996916119255750612bbd565b80600a541690600854168c60405180968195829463a9059cbb60e01b84526004840160209093929193604081019460018060a01b031681520152565b03925af190811561191a5789916118fd575b50156118b85792611890867f981102f46f858a9ad42e0e3924c2ee3ddb912d9d6d28768155ffdb174c81711f94846118778b98606097546128d4565b905554168960405193338552840152604083019061262c565ba2549080821691826118ab575b505061090f57506001815580f35b60081c169050838061189d565b60405162461bcd60e51b815260048101859052601860248201527f5553444320666565207472616e73666572206661696c656400000000000000006044820152606490fd5b6119149150853d87116106d7576106c98183612830565b8961183b565b6040513d8b823e3d90fd5b61193c9150853d87116106d7576106c98183612830565b8e6106a6565b6040513d85823e3d90fd5b60405162461bcd60e51b8152600481018890526011602482015270496e73756666696369656e74205553444360781b6044820152606490fd5b60405162461bcd60e51b815260048101879052600f60248201526e4e6f74206120555344432067616d6560881b6044820152606490fd5b634e487b7160e01b8b52602160045260248bfd5b82346102505780600319360112610250576119ea612722565b600180546001600160a01b031981169091556000906001600160a01b03167f8be0079c531659141344cd1fd0a4f28419497f9722a3daafe3b4186f6b6457e08280a380f35b82346102505760208060031936011261035c5760043590611a4e612964565b818352600281526040832080549091906001600160a01b03908116611a74811515612a5a565b6008840190815460ff91611a8d838360101c1615612a9c565b611a9e6007880154600754906127c6565b421115611e635733148015611e54575b15611e2057879291908181168080611e13575b15611b8b575050508285541690611ad9823314612c45565b6201000062ff00001982541617905582600286015416906003860154823b15610e4b576040516323b872dd60e01b81523060048201526001600160a01b0392909216602483015260448201529082908290606490829084905af1801561071557611b73575b50507fbeb9db71629193a6a8d82214e24ce084d5f6b1c980d4cda5cec9139a2ea33832925416604051908152a25b6001815580f35b611b7c906127e9565b611b87578486611b3e565b8480fd5b9091949596935015808091611e07575b15611d7d57505060018201928484541691611bb7833314612c45565b805462ff000019166201000017905560068301541660028110156106e9578792918691611c8357505081808092611c06600488885416920154612710611bff60065483612b92565b04906127c6565b905af1611c11612852565b5015611c4a57907fbeb9db71629193a6a8d82214e24ce084d5f6b1c980d4cda5cec9139a2ea3383292915b5416604051908152a2611b6c565b60405162461bcd60e51b8152600481018490526011602482015270115512081c99599d5b990819985a5b1959607a1b6044820152606490fd5b9091611cda9350611ca6600587600a5416920154612710611bff60065483612b92565b60405163a9059cbb60e01b81526001600160a01b0390931660048401526024830152909283919082908a9082906044820190565b03925af1908115611d72578691611d55575b5015611d1b57907fbeb9db71629193a6a8d82214e24ce084d5f6b1c980d4cda5cec9139a2ea338329291611c3c565b60405162461bcd60e51b81526004810184905260126024820152711554d110c81c99599d5b990819985a5b195960721b6044820152606490fd5b611d6c9150843d86116106d7576106c98183612830565b86611cec565b6040513d88823e3d90fd5b92509350939181611df9575b50611d98575b50505050611b6c565b7fd48b0c9992d8d4b8967d1584dc8c1955390d9ff30639a7da9c77e7f0db86c3d8926201000060609362ff000019161790556010604051918083528201526f4e6f206465706f73697473206d61646560801b6040820152a281808080611d8f565b90508260081c161586611d89565b50848260081c16611b9b565b50828260081c1615611ac1565b60405162461bcd60e51b815260048101869052600c60248201526b2737ba103090383630bcb2b960a11b6044820152606490fd5b50836001870154163314611aae565b60405162461bcd60e51b8152600481018790526013602482015272151a5b595bdd5d081b9bdd081c995858da1959606a1b6044820152606490fd5b82346102505780600319360112610250576020600754604051908152f35b8234610250578060031936011261025057602060ff60015460a01c166040519015158152f35b823461025057602036600319011261025057600435611eff612964565b611f0761291d565b80825260026020526040822080546001600160a01b0391908216611f2c811515612a5a565b330361203457836008820192611f5560ff8554611f4b82821615612ad9565b60101c1615612a9c565b611f6961083b6007850154600754906127c6565b6002830154166003830154813b15610720576040516323b872dd60e01b8152336004820152306024820152604481019190915291908290606490829084905af180156106de57612020575b5083600191847f981102f46f858a9ad42e0e3924c2ee3ddb912d9d6d28768155ffdb174c81711f606060ff6006885495888319881617809a5501541661200a60405191338352886020840152604083019061262c565ba216179081610939575061090f57506001815580f35b9361202d600192956127e9565b9390611fb4565b60405162461bcd60e51b815260206004820152600c60248201526b4e6f7420706c61796572203160a01b6044820152606490fd5b8234610250578060031936011261025057612081612722565b61208961291d565b6001805460ff60a01b1916600160a01b1790556040513381527f62e78cea01bee320cd4e420270b5ea74000d11b0c9f74754ebdbfc544b05a25890602090a180f35b8234610250576040366003190112610250576004356120e86125ea565b6120f0612722565b81835260026020526040832080546001600160a01b039291906121169084161515612a5a565b60018101928354918183166121a4577f212c0bdcf42696e85cddf68fc1623b3327138b7898282f7356ab7ec713e9cf32948260609561215f60ff600886015460101c1615612a9c565b1680946001600160601b0360a01b16179055426007820155828752600460205261218c8660408920612a20565b5416906040519182526020820152846040820152a280f35b60405162461bcd60e51b8152602060048201526014602482015273141b185e595c880c88185b1c9958591e481cd95d60621b6044820152606490fd5b8234610250576020366003190112610250576004356121fd612722565b808252600260205260408220805460089190612223906001600160a01b03161515612a5a565b01805461223660ff8260101c1615612c00565b60ff811615806122ea575b156122a557620100009062ff000019161790557fd48b0c9992d8d4b8967d1584dc8c1955390d9ff30639a7da9c77e7f0db86c3d8606060405160208152601360208201527243616e63656c6c65642062792073797374656d60681b6040820152a280f35b60405162461bcd60e51b815260206004820152601c60248201527f43616e6e6f742063616e63656c206166746572206465706f73697473000000006044820152606490fd5b5060ff8160081c1615612241565b8234610250578060031936011261025057612311612722565b60015460ff8160a01c16156123595760ff60a01b19166001556040513381527f5db9ee0a495bf2e6ff9c91a7834c1ba4fdd244a5e8aa4e537bd38aeae4b073aa90602090a180f35b60405162461bcd60e51b815260206004820152601460248201527314185d5cd8589b194e881b9bdd081c185d5cd95960621b6044820152606490fd5b82346102505780600319360112610250576020600554604051908152f35b82346102505780600319360112610250576008546040516001600160a01b039091168152602090f35b8234610250576020366003190112610250576004356123f9612722565b603c81101580612454575b1561240f5760075580f35b60405162461bcd60e51b815260206004820152601c60248201527f54696d656f7574206d75737420626520312d3130206d696e75746573000000006044820152606490fd5b50610258811115612404565b82346102505760203660031901126102505760206040516004358152f35b823461025057602036600319011261025057612498612722565b60043560055580f35b8234610250576020366003190112610250576004356124be612722565b6103e881116124cd5760065580f35b60405162461bcd60e51b81526020600482015260076024820152664d61782031302560c81b6044820152606490fd5b82346102505760208060031936011261035c576001600160a01b0361251f6125cf565b168252600481526040822060405192838383549182815201908193835284832090835b8181106125965750505084612558910385612830565b60405193838594850191818652518092526040850193925b82811061257f57505050500390f35b835185528695509381019392810192600101612570565b825484529286019260019283019201612542565b83903461035c578160031936011261035c57600a546001600160a01b03168152602090f35b600435906001600160a01b03821682036125e557565b600080fd5b602435906001600160a01b03821682036125e557565b604435906001600160a01b03821682036125e557565b60409060031901126125e5576004359060243590565b9060028210156126395752565b634e487b7160e01b600052602160045260246000fd5b9a979491999693909c9b9895929c6101808c019d8c600160a01b60019003809d8180951683521690602001521660408c015260608b015260808a015260a089015260c0880161269d9161262c565b60e087015215156101008601521515610120850152151561014084015216906101600152565b80548210156126db5760005260206000200190600090565b634e487b7160e01b600052603260045260246000fd5b9181601f840112156125e55782359167ffffffffffffffff83116125e5576020808501948460051b0101116125e557565b6001546001600160a01b0316330361273657565b606460405162461bcd60e51b815260206004820152602060248201527f4f776e61626c653a2063616c6c6572206973206e6f7420746865206f776e65726044820152fd5b1561278157565b60405162461bcd60e51b815260206004820152601860248201527f496e73756666696369656e74206c697374696e672066656500000000000000006044820152606490fd5b919082018092116127d357565b634e487b7160e01b600052601160045260246000fd5b67ffffffffffffffff81116127fd57604052565b634e487b7160e01b600052604160045260246000fd5b610180810190811067ffffffffffffffff8211176127fd57604052565b90601f8019910116810190811067ffffffffffffffff8211176127fd57604052565b3d1561288d573d9067ffffffffffffffff82116127fd5760405191612881601f8201601f191660200184612830565b82523d6000602084013e565b606090565b1561289957565b60405162461bcd60e51b8152602060048201526013602482015272119959481d1c985b9cd9995c8819985a5b1959606a1b6044820152606490fd5b919082039182116127d357565b156128e857565b60405162461bcd60e51b815260206004820152600d60248201526c1499599d5b990819985a5b1959609a1b6044820152606490fd5b60ff60015460a01c1661292c57565b60405162461bcd60e51b815260206004820152601060248201526f14185d5cd8589b194e881c185d5cd95960821b6044820152606490fd5b600260005414612975576002600055565b60405162461bcd60e51b815260206004820152601f60248201527f5265656e7472616e637947756172643a207265656e7472616e742063616c6c006044820152606490fd5b156129c157565b60405162461bcd60e51b815260206004820152601360248201527247616d6520616c72656164792065786973747360681b6044820152606490fd5b60028210156126395752565b9060028110156126395760ff80198354169116179055565b8054680100000000000000008110156127fd57612a42916001820181556126c3565b819291549060031b91821b91600019901b1916179055565b15612a6157565b60405162461bcd60e51b815260206004820152601360248201527211d85b5948191bd95cc81b9bdd08195e1a5cdd606a1b6044820152606490fd5b15612aa357565b60405162461bcd60e51b815260206004820152600e60248201526d11d85b594818dbdb5c1b195d195960921b6044820152606490fd5b15612ae057565b60405162461bcd60e51b8152602060048201526011602482015270105b1c9958591e4819195c1bdcda5d1959607a1b6044820152606490fd5b15612b2057565b60405162461bcd60e51b815260206004820152600f60248201526e11195c1bdcda5d081d1a5b595bdd5d608a1b6044820152606490fd5b15612b5e57565b60405162461bcd60e51b815260206004820152600c60248201526b2737ba10383630bcb2b9101960a11b6044820152606490fd5b818102929181159184041417156127d357565b908160209103126125e5575180151581036125e55790565b15612bc457565b60405162461bcd60e51b81526020600482015260146024820152731554d110c81d1c985b9cd9995c8819985a5b195960621b6044820152606490fd5b15612c0757565b60405162461bcd60e51b815260206004820152601660248201527511d85b5948185b1c9958591e4818dbdb5c1b195d195960521b6044820152606490fd5b15612c4c57565b60405162461bcd60e51b815260206004820152600f60248201526e4e6f7420796f75722061737365747360881b6044820152606490fd5b519069ffffffffffffffffffff821682036125e557565b600954604051633fabe5a360e21b8152919060a090839060049082906001600160a01b03165afa918215612d9d57600092612d4f575b506000821315612d155768056bc75e2d63100000908181029181830414901517156127d3578115612cff570490565b634e487b7160e01b600052601260045260246000fd5b60405162461bcd60e51b8152602060048201526012602482015271125b9d985b1a59081c1c9a58d9481999595960721b6044820152606490fd5b909160a0823d8211612d95575b81612d6960a09383612830565b810103126102505750612d7b81612c83565b50612d8d608060208301519201612c83565b509038612cd0565b3d9150612d5c565b6040513d6000823e3d90fd5b91908110156126db5760051b0190565b356001600160a01b03811681036125e5579056fea2646970667358221220de6af9077ad433eb3e590f041b230be8e2b4677010299a0c9fa3b7e5a03e3b5c64736f6c63430008140033",
  "linkReferences": {},
  "deployedLinkReferences": {}
}