{
  "_format": "hh-sol-artifact-1",
  "contractName": "NFTFlipGame",
  "sourceName": "contracts/NFTFlipGame.sol",
  "abi": [
    {
      "inputs": [
        {
          "internalType": "address",
          "name": "_ethUsdFeed",
          "type": "address"
        },
        {
          "internalType": "address",
          "name": "_usdcToken",
          "type": "address"
        },
        {
          "internalType": "address",
          "name": "_platformFeeReceiver",
          "type": "address"
        }
      ],
      "stateMutability": "nonpayable",
      "type": "constructor"
    },
    {
      "anonymous": false,
      "inputs": [
        {
          "indexed": true,
          "internalType": "bytes32",
          "name": "gameId",
          "type": "bytes32"
        },
        {
          "indexed": false,
          "internalType": "address",
          "name": "player",
          "type": "address"
        },
        {
          "indexed": false,
          "internalType": "bool",
          "name": "isNFT",
          "type": "bool"
        },
        {
          "indexed": false,
          "internalType": "enum NFTFlipGame.PaymentToken",
          "name": "paymentToken",
          "type": "uint8"
        }
      ],
      "name": "AssetsDeposited",
      "type": "event"
    },
    {
      "anonymous": false,
      "inputs": [
        {
          "indexed": true,
          "internalType": "bytes32",
          "name": "gameId",
          "type": "bytes32"
        },
        {
          "indexed": false,
          "internalType": "address",
          "name": "player",
          "type": "address"
        }
      ],
      "name": "AssetsReclaimed",
      "type": "event"
    },
    {
      "anonymous": false,
      "inputs": [
        {
          "indexed": true,
          "internalType": "bytes32",
          "name": "gameId",
          "type": "bytes32"
        },
        {
          "indexed": false,
          "internalType": "string",
          "name": "reason",
          "type": "string"
        }
      ],
      "name": "GameCancelled",
      "type": "event"
    },
    {
      "anonymous": false,
      "inputs": [
        {
          "indexed": true,
          "internalType": "bytes32",
          "name": "gameId",
          "type": "bytes32"
        },
        {
          "indexed": false,
          "internalType": "address",
          "name": "winner",
          "type": "address"
        }
      ],
      "name": "GameCompleted",
      "type": "event"
    },
    {
      "anonymous": false,
      "inputs": [
        {
          "indexed": true,
          "internalType": "bytes32",
          "name": "gameId",
          "type": "bytes32"
        },
        {
          "indexed": false,
          "internalType": "address",
          "name": "player1",
          "type": "address"
        },
        {
          "indexed": false,
          "internalType": "address",
          "name": "player2",
          "type": "address"
        },
        {
          "indexed": false,
          "internalType": "enum NFTFlipGame.PaymentToken",
          "name": "paymentToken",
          "type": "uint8"
        }
      ],
      "name": "GameCreated",
      "type": "event"
    },
    {
      "anonymous": false,
      "inputs": [
        {
          "indexed": true,
          "internalType": "bytes32",
          "name": "gameId",
          "type": "bytes32"
        }
      ],
      "name": "GameStarted",
      "type": "event"
    },
    {
      "anonymous": false,
      "inputs": [
        {
          "indexed": true,
          "internalType": "address",
          "name": "creator",
          "type": "address"
        },
        {
          "indexed": false,
          "internalType": "uint256",
          "name": "amount",
          "type": "uint256"
        }
      ],
      "name": "ListingFeePaid",
      "type": "event"
    },
    {
      "anonymous": false,
      "inputs": [
        {
          "indexed": true,
          "internalType": "address",
          "name": "previousOwner",
          "type": "address"
        },
        {
          "indexed": true,
          "internalType": "address",
          "name": "newOwner",
          "type": "address"
        }
      ],
      "name": "OwnershipTransferred",
      "type": "event"
    },
    {
      "anonymous": false,
      "inputs": [
        {
          "indexed": false,
          "internalType": "address",
          "name": "account",
          "type": "address"
        }
      ],
      "name": "Paused",
      "type": "event"
    },
    {
      "anonymous": false,
      "inputs": [
        {
          "indexed": false,
          "internalType": "address",
          "name": "account",
          "type": "address"
        }
      ],
      "name": "Unpaused",
      "type": "event"
    },
    {
      "inputs": [],
      "name": "BASIS_POINTS",
      "outputs": [
        {
          "internalType": "uint256",
          "name": "",
          "type": "uint256"
        }
      ],
      "stateMutability": "view",
      "type": "function"
    },
    {
      "inputs": [
        {
          "internalType": "address[]",
          "name": "nftContracts",
          "type": "address[]"
        },
        {
          "internalType": "uint256[]",
          "name": "tokenIds",
          "type": "uint256[]"
        },
        {
          "internalType": "address[]",
          "name": "recipients",
          "type": "address[]"
        }
      ],
      "name": "adminBatchWithdrawNFTs",
      "outputs": [],
      "stateMutability": "nonpayable",
      "type": "function"
    },
    {
      "inputs": [
        {
          "internalType": "bytes32",
          "name": "gameId",
          "type": "bytes32"
        }
      ],
      "name": "canDeposit",
      "outputs": [
        {
          "internalType": "bool",
          "name": "",
          "type": "bool"
        }
      ],
      "stateMutability": "view",
      "type": "function"
    },
    {
      "inputs": [
        {
          "internalType": "bytes32",
          "name": "gameId",
          "type": "bytes32"
        }
      ],
      "name": "canStartGame",
      "outputs": [
        {
          "internalType": "bool",
          "name": "",
          "type": "bool"
        }
      ],
      "stateMutability": "view",
      "type": "function"
    },
    {
      "inputs": [
        {
          "internalType": "bytes32",
          "name": "gameId",
          "type": "bytes32"
        }
      ],
      "name": "cancelGame",
      "outputs": [],
      "stateMutability": "nonpayable",
      "type": "function"
    },
    {
      "inputs": [
        {
          "internalType": "bytes32",
          "name": "gameId",
          "type": "bytes32"
        },
        {
          "internalType": "address",
          "name": "winner",
          "type": "address"
        }
      ],
      "name": "completeGame",
      "outputs": [],
      "stateMutability": "nonpayable",
      "type": "function"
    },
    {
      "inputs": [
        {
          "internalType": "bytes32",
          "name": "gameId",
          "type": "bytes32"
        }
      ],
      "name": "depositETH",
      "outputs": [],
      "stateMutability": "payable",
      "type": "function"
    },
    {
      "inputs": [
        {
          "internalType": "bytes32",
          "name": "gameId",
          "type": "bytes32"
        }
      ],
      "name": "depositNFT",
      "outputs": [],
      "stateMutability": "nonpayable",
      "type": "function"
    },
    {
      "inputs": [],
      "name": "depositTimeout",
      "outputs": [
        {
          "internalType": "uint256",
          "name": "",
          "type": "uint256"
        }
      ],
      "stateMutability": "view",
      "type": "function"
    },
    {
      "inputs": [
        {
          "internalType": "bytes32",
          "name": "gameId",
          "type": "bytes32"
        },
        {
          "internalType": "uint256",
          "name": "amount",
          "type": "uint256"
        }
      ],
      "name": "depositUSDC",
      "outputs": [],
      "stateMutability": "nonpayable",
      "type": "function"
    },
    {
      "inputs": [],
      "name": "emergencyPause",
      "outputs": [],
      "stateMutability": "nonpayable",
      "type": "function"
    },
    {
      "inputs": [],
      "name": "emergencyWithdrawETH",
      "outputs": [],
      "stateMutability": "nonpayable",
      "type": "function"
    },
    {
      "inputs": [
        {
          "internalType": "address",
          "name": "nftContract",
          "type": "address"
        },
        {
          "internalType": "uint256",
          "name": "tokenId",
          "type": "uint256"
        },
        {
          "internalType": "address",
          "name": "to",
          "type": "address"
        }
      ],
      "name": "emergencyWithdrawNFT",
      "outputs": [],
      "stateMutability": "nonpayable",
      "type": "function"
    },
    {
      "inputs": [],
      "name": "ethUsdFeed",
      "outputs": [
        {
          "internalType": "contract AggregatorV3Interface",
          "name": "",
          "type": "address"
        }
      ],
      "stateMutability": "view",
      "type": "function"
    },
    {
      "inputs": [
        {
          "internalType": "bytes32",
          "name": "",
          "type": "bytes32"
        }
      ],
      "name": "games",
      "outputs": [
        {
          "internalType": "address",
          "name": "player1",
          "type": "address"
        },
        {
          "internalType": "address",
          "name": "player2",
          "type": "address"
        },
        {
          "internalType": "address",
          "name": "nftContract",
          "type": "address"
        },
        {
          "internalType": "uint256",
          "name": "tokenId",
          "type": "uint256"
        },
        {
          "internalType": "uint256",
          "name": "ethAmount",
          "type": "uint256"
        },
        {
          "internalType": "uint256",
          "name": "usdcAmount",
          "type": "uint256"
        },
        {
          "internalType": "enum NFTFlipGame.PaymentToken",
          "name": "paymentToken",
          "type": "uint8"
        },
        {
          "internalType": "uint256",
          "name": "depositTime",
          "type": "uint256"
        },
        {
          "internalType": "bool",
          "name": "player1Deposited",
          "type": "bool"
        },
        {
          "internalType": "bool",
          "name": "player2Deposited",
          "type": "bool"
        },
        {
          "internalType": "bool",
          "name": "completed",
          "type": "bool"
        },
        {
          "internalType": "address",
          "name": "winner",
          "type": "address"
        }
      ],
      "stateMutability": "view",
      "type": "function"
    },
    {
      "inputs": [
        {
          "internalType": "uint256",
          "name": "usdAmount",
          "type": "uint256"
        }
      ],
      "name": "getETHAmount",
      "outputs": [
        {
          "internalType": "uint256",
          "name": "",
          "type": "uint256"
        }
      ],
      "stateMutability": "view",
      "type": "function"
    },
    {
      "inputs": [
        {
          "internalType": "bytes32",
          "name": "gameId",
          "type": "bytes32"
        }
      ],
      "name": "getGameDetails",
      "outputs": [
        {
          "internalType": "address",
          "name": "player1",
          "type": "address"
        },
        {
          "internalType": "address",
          "name": "player2",
          "type": "address"
        },
        {
          "internalType": "address",
          "name": "nftContract",
          "type": "address"
        },
        {
          "internalType": "uint256",
          "name": "tokenId",
          "type": "uint256"
        },
        {
          "internalType": "uint256",
          "name": "ethAmount",
          "type": "uint256"
        },
        {
          "internalType": "uint256",
          "name": "usdcAmount",
          "type": "uint256"
        },
        {
          "internalType": "enum NFTFlipGame.PaymentToken",
          "name": "paymentToken",
          "type": "uint8"
        },
        {
          "internalType": "uint256",
          "name": "depositTime",
          "type": "uint256"
        },
        {
          "internalType": "bool",
          "name": "player1Deposited",
          "type": "bool"
        },
        {
          "internalType": "bool",
          "name": "player2Deposited",
          "type": "bool"
        },
        {
          "internalType": "bool",
          "name": "completed",
          "type": "bool"
        },
        {
          "internalType": "address",
          "name": "winner",
          "type": "address"
        }
      ],
      "stateMutability": "view",
      "type": "function"
    },
    {
      "inputs": [
        {
          "internalType": "uint256",
          "name": "usdAmount",
          "type": "uint256"
        }
      ],
      "name": "getUSDCAmount",
      "outputs": [
        {
          "internalType": "uint256",
          "name": "",
          "type": "uint256"
        }
      ],
      "stateMutability": "pure",
      "type": "function"
    },
    {
      "inputs": [
        {
          "internalType": "address",
          "name": "user",
          "type": "address"
        }
      ],
      "name": "getUserGames",
      "outputs": [
        {
          "internalType": "bytes32[]",
          "name": "",
          "type": "bytes32[]"
        }
      ],
      "stateMutability": "view",
      "type": "function"
    },
    {
      "inputs": [
        {
          "internalType": "bytes32",
          "name": "gameId",
          "type": "bytes32"
        },
        {
          "internalType": "address",
          "name": "player1",
          "type": "address"
        },
        {
          "internalType": "address",
          "name": "nftContract",
          "type": "address"
        },
        {
          "internalType": "uint256",
          "name": "tokenId",
          "type": "uint256"
        }
      ],
      "name": "initializeGame",
      "outputs": [],
      "stateMutability": "nonpayable",
      "type": "function"
    },
    {
      "inputs": [],
      "name": "listingFeeUSD",
      "outputs": [
        {
          "internalType": "uint256",
          "name": "",
          "type": "uint256"
        }
      ],
      "stateMutability": "view",
      "type": "function"
    },
    {
      "inputs": [
        {
          "internalType": "address",
          "name": "",
          "type": "address"
        }
      ],
      "name": "listingFees",
      "outputs": [
        {
          "internalType": "uint256",
          "name": "",
          "type": "uint256"
        }
      ],
      "stateMutability": "view",
      "type": "function"
    },
    {
      "inputs": [],
      "name": "owner",
      "outputs": [
        {
          "internalType": "address",
          "name": "",
          "type": "address"
        }
      ],
      "stateMutability": "view",
      "type": "function"
    },
    {
      "inputs": [],
      "name": "paused",
      "outputs": [
        {
          "internalType": "bool",
          "name": "",
          "type": "bool"
        }
      ],
      "stateMutability": "view",
      "type": "function"
    },
    {
      "inputs": [
        {
          "internalType": "bytes32",
          "name": "gameId",
          "type": "bytes32"
        },
        {
          "internalType": "address",
          "name": "nftContract",
          "type": "address"
        },
        {
          "internalType": "uint256",
          "name": "tokenId",
          "type": "uint256"
        },
        {
          "internalType": "uint256",
          "name": "priceUSD",
          "type": "uint256"
        },
        {
          "internalType": "enum NFTFlipGame.PaymentToken",
          "name": "paymentToken",
          "type": "uint8"
        }
      ],
      "name": "payFeeAndCreateGame",
      "outputs": [],
      "stateMutability": "payable",
      "type": "function"
    },
    {
      "inputs": [],
      "name": "payListingFee",
      "outputs": [],
      "stateMutability": "payable",
      "type": "function"
    },
    {
      "inputs": [],
      "name": "platformFeePercent",
      "outputs": [
        {
          "internalType": "uint256",
          "name": "",
          "type": "uint256"
        }
      ],
      "stateMutability": "view",
      "type": "function"
    },
    {
      "inputs": [],
      "name": "platformFeeReceiver",
      "outputs": [
        {
          "internalType": "address",
          "name": "",
          "type": "address"
        }
      ],
      "stateMutability": "view",
      "type": "function"
    },
    {
      "inputs": [
        {
          "internalType": "bytes32",
          "name": "gameId",
          "type": "bytes32"
        }
      ],
      "name": "reclaimAssets",
      "outputs": [],
      "stateMutability": "nonpayable",
      "type": "function"
    },
    {
      "inputs": [],
      "name": "renounceOwnership",
      "outputs": [],
      "stateMutability": "nonpayable",
      "type": "function"
    },
    {
      "inputs": [
        {
          "internalType": "uint256",
          "name": "newTimeout",
          "type": "uint256"
        }
      ],
      "name": "setDepositTimeout",
      "outputs": [],
      "stateMutability": "nonpayable",
      "type": "function"
    },
    {
      "inputs": [
        {
          "internalType": "uint256",
          "name": "newFee",
          "type": "uint256"
        }
      ],
      "name": "setListingFee",
      "outputs": [],
      "stateMutability": "nonpayable",
      "type": "function"
    },
    {
      "inputs": [
        {
          "internalType": "uint256",
          "name": "newPercent",
          "type": "uint256"
        }
      ],
      "name": "setPlatformFee",
      "outputs": [],
      "stateMutability": "nonpayable",
      "type": "function"
    },
    {
      "inputs": [
        {
          "internalType": "bytes32",
          "name": "gameId",
          "type": "bytes32"
        },
        {
          "internalType": "address",
          "name": "player2",
          "type": "address"
        }
      ],
      "name": "setPlayer2",
      "outputs": [],
      "stateMutability": "nonpayable",
      "type": "function"
    },
    {
      "inputs": [
        {
          "internalType": "address",
          "name": "newOwner",
          "type": "address"
        }
      ],
      "name": "transferOwnership",
      "outputs": [],
      "stateMutability": "nonpayable",
      "type": "function"
    },
    {
      "inputs": [],
      "name": "unpause",
      "outputs": [],
      "stateMutability": "nonpayable",
      "type": "function"
    },
    {
      "inputs": [],
      "name": "usdcToken",
      "outputs": [
        {
          "internalType": "address",
          "name": "",
          "type": "address"
        }
      ],
      "stateMutability": "view",
      "type": "function"
    },
    {
      "inputs": [
        {
          "internalType": "address",
          "name": "",
          "type": "address"
        },
        {
          "internalType": "uint256",
          "name": "",
          "type": "uint256"
        }
      ],
      "name": "userGames",
      "outputs": [
        {
          "internalType": "bytes32",
          "name": "",
          "type": "bytes32"
        }
      ],
      "stateMutability": "view",
      "type": "function"
    }
  ],
  "bytecode": "0x6080346200011057601f62002e7038819003918201601f19168301916001600160401b03831184841017620001155780849260609460405283398101031262000110576200004d816200012b565b62000069604062000061602085016200012b565b93016200012b565b916001600055600154926040519360018060a01b03928391338382167f8be0079c531659141344cd1fd0a4f28419497f9722a3daafe3b4186f6b6457e0600080a36001600160a81b0319163360ff60a01b191617600155600060055561015e60065561012c600755600980546001600160a01b0319908116968416969096179055600a8054861691909216179055600880549093169116179055612d2f9081620001418239f35b600080fd5b634e487b7160e01b600052604160045260246000fd5b51906001600160a01b0382168203620001105756fe60a080604052600436101561001357600080fd5b60009060e08235811c91826311eac855146124ec57508163120aace61461243e57816312e8e2c3146123e3578163131dbd09146123c05781631fd462cd146123a2578163276273731461231e5781632d656ad7146122f55781633a38d063146122d75781633f4ba83a1461223a5781633f7121b014612122578163400a992d1461200d57816351858e2714611faa5781635717722414611e245781635c975abb14611dfe578163615318c714611de05781636dbf276314611971578163715018a6146119135781637c34c355146116195781637f80e6f2146115235781638009b7bd146114fa57816384536017146114865781638a1fa0291461131e5781638c639a85146113005781638da5cb5b146112d7578163b1a812951461123f578163b262f41f14611185578163bc0167cd1461112f578163c775126914610ed8578163cb9a263014610b7c578163d68d9d4e14610a03578163d94a8854146107cf578163e1f1c4a7146107b2578163e9df302714610486578163ef46b2ab1461045f578163f060ad4c14610426578163f2fde38b14610360578163f372e33c14610253575063f579f882146101c557600080fd5b3461025057602036600319011261025057604090600435815260026020522060018060a01b0361024c8183541692826001820154168360028301541691600381015495600482015491600581015460ff6006830154169060086007840154930154946040519a8b9a8760181c169860ff8860101c169860ff808a60081c169916978d61257b565b0390f35b80fd5b90503461035c57602036600319011261035c5760406020926004358152600284522090604051916102838361273f565b600860018060a01b039182815416855282600182015416868601528260028201541660408601526003810154606086015260048101546080860152600581015460a08601526102dc60ff60068301541660c08701612928565b6007810154809486015201549260ff8416151561010082015260ff8460081c1615156101208201528160ff8560101c161594851561014084015260181c16610160820152511615159182610354575b508161033d575b506040519015158152f35b61034b9150600754906126f2565b42111538610332565b91503861032b565b5080fd5b82346102505760203660031901126102505761037a612511565b61038261264e565b6001600160a01b039081169081156103d257600154826001600160601b0360a01b821617600155167f8be0079c531659141344cd1fd0a4f28419497f9722a3daafe3b4186f6b6457e0600080a380f35b60405162461bcd60e51b815260206004820152602660248201527f4f776e61626c653a206e6577206f776e657220697320746865207a65726f206160448201526564647265737360d01b6064820152608490fd5b8234610250576020366003190112610250576020906040906001600160a01b0361044e612511565b168152600383522054604051908152f35b823461025057602036600319011261025057602061047e600435612bc6565b604051908152f35b8234610250576040366003190112610250576004356104a361252c565b6104ab61264e565b6104b3612890565b818352600260209081526040842080546001600160a01b0393908416916104db831515612986565b6008810180546104f160ff8260101c1615612b2c565b60ff8116806107a5575b1561076957868416948514801561075a575b156107245762010000600160b81b031916601884901b6301000000600160b81b031617620100001790558685600283015416600383015490803b15610720576040516323b872dd60e01b81523060048201526001600160a01b0386166024820152604481019290925282908290606490829084905af18015610715576106fd575b505060ff60068201541660028110156106e957879291906106345782939495508291600483920154905af16105c161277e565b50156105f957907f0bf6aee0a93e0c0696509fac1649343cafc5bf013811646e438330fe86e4c15f915b604051908152a26001815580f35b60405162461bcd60e51b8152600481018390526013602482015272115512081d1c985b9cd9995c8819985a5b1959606a1b6044820152606490fd5b600a546005919091015460405163a9059cbb60e01b81526001600160a01b0393909316600484015260248301529094849250859160449183918a91165af19283156106de577f0bf6aee0a93e0c0696509fac1649343cafc5bf013811646e438330fe86e4c15f936106ac9187916106b1575b50612ae9565b6105eb565b6106d19150843d86116106d7575b6106c9818361275c565b810190612ad1565b876106a6565b503d6106bf565b6040513d87823e3d90fd5b634e487b7160e01b88526021600452602488fd5b61070690612715565b61071157868861058e565b8680fd5b6040513d84823e3d90fd5b8280fd5b60405162461bcd60e51b815260048101879052600e60248201526d24b73b30b634b2103bb4b73732b960911b6044820152606490fd5b5086600184015416851461050d565b60405162461bcd60e51b8152600481018790526014602482015273105cdcd95d1cc81b9bdd0819195c1bdcda5d195960621b6044820152606490fd5b5060ff8160081c166104fb565b823461025057806003193601126102505760206040516127108152f35b90503461035c57608036600319011261035c576107ea61252c565b6107f2612542565b916107fb61264e565b60043584526002602052604084205461081d906001600160a01b0316156128e6565b6040519161082a8361273f565b6001600160a01b039081168084526020808501878152958316604080870191825260643560608801908152608088018a815260a089018b815260c08a018c8152428a8c01526101008b018d90526101208b018d90526101408b018d90526101608b018d9052600480358e52600297889052948d208b5181546001600160a01b0319908116918c169190911782559c516001820180548f16918c1691909117905595518688018054909d16991698909817909a55905160038401555190820155955160058701559151909492918110156109ef579160089161091261099a959460068401612934565b830151600782015501906109396101008201511515839060ff801983541691151516179055565b610120810151825461ff00191690151560081b61ff0016178255610140810151825462ff0000191690151560101b62ff000016178255610160015181546301000000600160b81b03191660189190911b6301000000600160b81b0316179055565b80825260046020526109b16004356040842061294c565b604051908152816020820152600060408201527f212c0bdcf42696e85cddf68fc1623b3327138b7898282f7356ab7ec713e9cf32606060043592a280f35b634e487b7160e01b86526021600452602486fd5b82602036600319011261025057600435610a1b612890565b610a23612849565b8082526002602052604082206001810154610a53906001600160a01b0316610a4c811515612986565b3314612a83565b60088101908154610a6a60ff8260081c1615612a05565b610a7a60ff8260101c16156129c8565b610a96610a8e6007840154600754906126f2565b421115612a45565b3415610b4257600660ff92346004820155018219815416905561010061ff0019821617809355837f981102f46f858a9ad42e0e3924c2ee3ddb912d9d6d28768155ffdb174c81711f606060405133815288602082015260006040820152a2169081610b34575b50610b0a575b506001815580f35b7fee5528ba4f234f658c6a97a7e3cba5532e7aad23bb249be4141b62e6a0158a7c8280a281610b02565b60ff915060081c1683610afc565b60405162461bcd60e51b815260206004820152601260248201527109aeae6e840e6cadcc840e6dedaca408aa8960731b6044820152606490fd5b82346102505760603660031901126102505767ffffffffffffffff60043581811161072057610baf90369060040161261d565b602492918335838111610ed457610bca90369060040161261d565b6044929192948535908111610ed057610be790369060040161261d565b9092610bf161264e565b82861480610ec7575b15610e8457885b868110610c0c578980f35b6001600160a01b0380610c28610c23848b87612cd5565b612ce5565b1615610e4a5780610c3d610c2384878a612cd5565b1615610e135780610c52610c23848b87612cd5565b166020610c6084888b612cd5565b358c604051809481936331a9108f60e11b83526004830152846080525afa8c9181610dd2575b50610ccf5760405162461bcd60e51b81526080516004820152601d818d01527f4661696c656420746f20636865636b204e4654206f776e657273686970000000818c0152606490fd5b8130911603610d8e578a90610ce8610c23848b87612cd5565b16610cf7610c2384878a612cd5565b610d0284888b612cd5565b35823b15610d8a576040516323b872dd60e01b81523060048201526001600160a01b0392909216602483015260448201529082908290606490829084905af1801561071557610d72575b50506000198114610d5f57600101610c01565b634e487b7160e01b8a526011600452888afd5b610d7b90612715565b610d8657898b610d4c565b8980fd5b8380fd5b60405162461bcd60e51b81526080516004820152601e818c01527f436f6e747261637420646f6573206e6f74206f776e2074686973204e46540000818b0152606490fd5b9091506080513d8111610e0c575b610dea818361275c565b816080519181010312610e0857518281168103610e0857908d610c86565b8c80fd5b503d610de0565b60405162461bcd60e51b8152602060048201526011818c015270125b9d985b1a59081c9958da5c1a595b9d607a1b818b0152606490fd5b60405162461bcd60e51b8152602060048201526014818c015273125b9d985b1a59081391950818dbdb9d1c9858dd60621b818b0152606490fd5b60405162461bcd60e51b8152602060048201526018818a01527f4172726179206c656e67746873206d757374206d61746368000000000000000081890152606490fd5b50818314610bfa565b8780fd5b8580fd5b905060a036600319011261035c57610eee61252c565b6002608435101561072057610f01612890565b610f09612849565b610f14600554612bc6565b91610f21833410156126a6565b338452600360205260408420610f388482546126f2565b9055610f5d848080808760018060a01b03600854165af1610f5761277e565b506127be565b600435845260026020526040842054610f7f906001600160a01b0316156128e6565b60405191610f8c8361273f565b33835284602084015260018060a01b0316604083015260443560608301528360808301528360a08301528360c083015242818301528361010083015283610120830152836101408301528361016083015260043584526002602052604084209060018060a01b038351166001600160601b0360a01b90818454161783556001830160018060a01b0360208601511682825416179055600283019060018060a01b0360408601511690825416179055606083015160038301556080830151600483015560a0830151600583015560c083015160028110156109ef579160089161091261107b959460068401612934565b33825260046020526110926004356040842061294c565b803411611108575b6040519081527f3a5f70a82eb571b0a884a01d171c139c6ec5169ba9e11e00d211cb4f76391e1460203392a2604051338152816020820152600060408201527f212c0bdcf42696e85cddf68fc1623b3327138b7898282f7356ab7ec713e9cf32606060043592a26001815580f35b61112a828080806111198634612800565b335af161112461277e565b5061280d565b61109a565b823461025057604036600319011261025057611149612511565b6001600160a01b031681526004602052604081208054602435929083101561025057602061117784846125ef565b90546040519160031b1c8152f35b828060031936011261025057611199612890565b6111a1612849565b6111ac600554612bc6565b6111b8813410156126a6565b3382526003602052604082206111cf8282546126f2565b90556111ee828080808560018060a01b03600854165af1610f5761277e565b803411611229575b6040519081527f3a5f70a82eb571b0a884a01d171c139c6ec5169ba9e11e00d211cb4f76391e1460203392a26001815580f35b61123a828080806111198634612800565b6111f6565b8234610250576060366003190112610250578061125a612511565b611262612542565b9061126b61264e565b6001600160a01b0316803b156112d3576040516323b872dd60e01b81523060048201526001600160a01b039290921660248084019190915235604483015282908290606490829084905af18015610715576112c35750f35b6112cc90612715565b6102505780f35b5050fd5b82346102505780600319360112610250576001546040516001600160a01b039091168152602090f35b82346102505780600319360112610250576020600654604051908152f35b90503461035c57602036600319011261035c5760043582526002602052604082206040519061134c8261273f565b60018060a01b03815416825260018060a01b03600182015416916020810192835260018060a01b0360028301541693604082019485526003830154926060830193845260048101549160808401928352600860058301549260a086019384526113bf60ff60068301541660c08801612928565b6007810154928601928352015460ff8082161515610100870152600882901c81161515610120870152601082901c16151561014086015260181c6001600160a01b0390811661016086015284519651975195519351925160c086015198821698978216979690911695909160028210156114725761024c97989950519161010086015115159361012087015115159561014088015115159761016060018060a01b0391015116986040519c8d9c8d61257b565b634e487b7160e01b8a52602160045260248afd5b823461025057806003193601126102505761149f61264e565b8080808060018060a01b036001541647905af16114ba61277e565b50156114c35780f35b60405162461bcd60e51b815260206004820152600f60248201526e151c985b9cd9995c8819985a5b1959608a1b6044820152606490fd5b82346102505780600319360112610250576009546040516001600160a01b039091168152602090f35b90503461035c57602036600319011261035c57604060209260043581526002845220906008604051926115558461273f565b60018060a01b039283825416855283600183015416868601528360028301541660408601526003820154606086015260048201546080860152600582015460a08601526115ac60ff60068401541660c08701612928565b60078201549085015201549060ff82161515928361010082015261016060ff8460081c161515928361012084015260ff8560101c161594851561014085015260181c1691015282611611575b508161160957506040519015158152f35b905038610332565b9150386115f8565b823461025057604036600319011261025057600435611636612890565b61163e612849565b808252600260209081526040832060018101546001600160a01b03929061166c908416610a4c811515612986565b600882019182549360ff94611686868260081c1615612a05565b611695868260101c16156129c8565b6116a9610a8e6007850154600754906126f2565b6006830192868454166002811015611472576001036118dc576005019182546127106116d760065483612abe565b049281602435106118a35761ff001916610100178755600a546040516323b872dd60e01b815233600482015230602482015260448101929092528a9291908790829084168186816064810103925af1918215611898576117438893869361177f969161187b5750612ae9565b80600a541690600854168c60405180968195829463a9059cbb60e01b84526004840160209093929193604081019460018060a01b031681520152565b03925af1908115611870578991611853575b501561180e57926117e6867f981102f46f858a9ad42e0e3924c2ee3ddb912d9d6d28768155ffdb174c81711f94846117cd8b9860609754612800565b9055541689604051933385528401526040830190612558565ba254908082169182611801575b5050610b0a57506001815580f35b60081c16905083806117f3565b60405162461bcd60e51b815260048101859052601860248201527f5553444320666565207472616e73666572206661696c656400000000000000006044820152606490fd5b61186a9150853d87116106d7576106c9818361275c565b89611791565b6040513d8b823e3d90fd5b6118929150853d87116106d7576106c9818361275c565b8e6106a6565b6040513d85823e3d90fd5b60405162461bcd60e51b8152600481018890526011602482015270496e73756666696369656e74205553444360781b6044820152606490fd5b60405162461bcd60e51b815260048101869052600f60248201526e4e6f74206120555344432067616d6560881b6044820152606490fd5b823461025057806003193601126102505761192c61264e565b600180546001600160a01b031981169091556000906001600160a01b03167f8be0079c531659141344cd1fd0a4f28419497f9722a3daafe3b4186f6b6457e08280a380f35b82346102505760208060031936011261035c5760043590611990612890565b818352600281526040832080549091906001600160a01b039081166119b6811515612986565b6008840190815460ff916119cf838360101c16156129c8565b6119e06007880154600754906126f2565b421115611da55733148015611d96575b15611d6257879291908181168080611d55575b15611acd575050508285541690611a1b823314612b71565b6201000062ff00001982541617905582600286015416906003860154823b15610d8a576040516323b872dd60e01b81523060048201526001600160a01b0392909216602483015260448201529082908290606490829084905af1801561071557611ab5575b50507fbeb9db71629193a6a8d82214e24ce084d5f6b1c980d4cda5cec9139a2ea33832925416604051908152a25b6001815580f35b611abe90612715565b611ac9578486611a80565b8480fd5b9091949596935015808091611d49575b15611cbf57505060018201928484541691611af9833314612b71565b805462ff000019166201000017905560068301541660028110156106e9578792918691611bc557505081808092611b48600488885416920154612710611b4160065483612abe565b04906126f2565b905af1611b5361277e565b5015611b8c57907fbeb9db71629193a6a8d82214e24ce084d5f6b1c980d4cda5cec9139a2ea3383292915b5416604051908152a2611aae565b60405162461bcd60e51b8152600481018490526011602482015270115512081c99599d5b990819985a5b1959607a1b6044820152606490fd5b9091611c1c9350611be8600587600a5416920154612710611b4160065483612abe565b60405163a9059cbb60e01b81526001600160a01b0390931660048401526024830152909283919082908a9082906044820190565b03925af1908115611cb4578691611c97575b5015611c5d57907fbeb9db71629193a6a8d82214e24ce084d5f6b1c980d4cda5cec9139a2ea338329291611b7e565b60405162461bcd60e51b81526004810184905260126024820152711554d110c81c99599d5b990819985a5b195960721b6044820152606490fd5b611cae9150843d86116106d7576106c9818361275c565b86611c2e565b6040513d88823e3d90fd5b92509350939181611d3b575b50611cda575b50505050611aae565b7fd48b0c9992d8d4b8967d1584dc8c1955390d9ff30639a7da9c77e7f0db86c3d8926201000060609362ff000019161790556010604051918083528201526f4e6f206465706f73697473206d61646560801b6040820152a281808080611cd1565b90508260081c161586611ccb565b50848260081c16611add565b50828260081c1615611a03565b60405162461bcd60e51b815260048101869052600c60248201526b2737ba103090383630bcb2b960a11b6044820152606490fd5b508360018701541633146119f0565b60405162461bcd60e51b8152600481018790526013602482015272151a5b595bdd5d081b9bdd081c995858da1959606a1b6044820152606490fd5b82346102505780600319360112610250576020600754604051908152f35b8234610250578060031936011261025057602060ff60015460a01c166040519015158152f35b823461025057602036600319011261025057600435611e41612890565b611e49612849565b80825260026020526040822080546001600160a01b0391908216611e6e811515612986565b3303611f7657836008820192611e9760ff8554611e8d82821615612a05565b60101c16156129c8565b611eab610a8e6007850154600754906126f2565b6002830154166003830154813b15610720576040516323b872dd60e01b8152336004820152306024820152604481019190915291908290606490829084905af180156106de57611f62575b5083600191847f981102f46f858a9ad42e0e3924c2ee3ddb912d9d6d28768155ffdb174c81711f606060ff6006885495888319881617809a55015416611f4c604051913383528860208401526040830190612558565ba216179081610b345750610b0a57506001815580f35b93611f6f60019295612715565b9390611ef6565b60405162461bcd60e51b815260206004820152600c60248201526b4e6f7420706c61796572203160a01b6044820152606490fd5b8234610250578060031936011261025057611fc361264e565b611fcb612849565b6001805460ff60a01b1916600160a01b1790556040513381527f62e78cea01bee320cd4e420270b5ea74000d11b0c9f74754ebdbfc544b05a25890602090a180f35b82346102505760403660031901126102505760043561202a61252c565b61203261264e565b81835260026020526040832080546001600160a01b039291906120589084161515612986565b60018101928354918183166120e6577f212c0bdcf42696e85cddf68fc1623b3327138b7898282f7356ab7ec713e9cf3294826060956120a160ff600886015460101c16156129c8565b1680946001600160601b0360a01b1617905542600782015582875260046020526120ce866040892061294c565b5416906040519182526020820152846040820152a280f35b60405162461bcd60e51b8152602060048201526014602482015273141b185e595c880c88185b1c9958591e481cd95d60621b6044820152606490fd5b82346102505760203660031901126102505760043561213f61264e565b808252600260205260408220805460089190612165906001600160a01b03161515612986565b01805461217860ff8260101c1615612b2c565b60ff8116158061222c575b156121e757620100009062ff000019161790557fd48b0c9992d8d4b8967d1584dc8c1955390d9ff30639a7da9c77e7f0db86c3d8606060405160208152601360208201527243616e63656c6c65642062792073797374656d60681b6040820152a280f35b60405162461bcd60e51b815260206004820152601c60248201527f43616e6e6f742063616e63656c206166746572206465706f73697473000000006044820152606490fd5b5060ff8160081c1615612183565b823461025057806003193601126102505761225361264e565b60015460ff8160a01c161561229b5760ff60a01b19166001556040513381527f5db9ee0a495bf2e6ff9c91a7834c1ba4fdd244a5e8aa4e537bd38aeae4b073aa90602090a180f35b60405162461bcd60e51b815260206004820152601460248201527314185d5cd8589b194e881b9bdd081c185d5cd95960621b6044820152606490fd5b82346102505780600319360112610250576020600554604051908152f35b82346102505780600319360112610250576008546040516001600160a01b039091168152602090f35b82346102505760203660031901126102505760043561233b61264e565b603c81101580612396575b156123515760075580f35b60405162461bcd60e51b815260206004820152601c60248201527f54696d656f7574206d75737420626520312d3130206d696e75746573000000006044820152606490fd5b50610258811115612346565b82346102505760203660031901126102505760206040516004358152f35b8234610250576020366003190112610250576123da61264e565b60043560055580f35b82346102505760203660031901126102505760043561240061264e565b6103e8811161240f5760065580f35b60405162461bcd60e51b81526020600482015260076024820152664d61782031302560c81b6044820152606490fd5b82346102505760208060031936011261035c576001600160a01b03612461612511565b168252600481526040822060405192838383549182815201908193835284832090835b8181106124d8575050508461249a91038561275c565b60405193838594850191818652518092526040850193925b8281106124c157505050500390f35b8351855286955093810193928101926001016124b2565b825484529286019260019283019201612484565b83903461035c578160031936011261035c57600a546001600160a01b03168152602090f35b600435906001600160a01b038216820361252757565b600080fd5b602435906001600160a01b038216820361252757565b604435906001600160a01b038216820361252757565b9060028210156125655752565b634e487b7160e01b600052602160045260246000fd5b9a979491999693909c9b9895929c6101808c019d8c600160a01b60019003809d8180951683521690602001521660408c015260608b015260808a015260a089015260c088016125c991612558565b60e087015215156101008601521515610120850152151561014084015216906101600152565b80548210156126075760005260206000200190600090565b634e487b7160e01b600052603260045260246000fd5b9181601f840112156125275782359167ffffffffffffffff8311612527576020808501948460051b01011161252757565b6001546001600160a01b0316330361266257565b606460405162461bcd60e51b815260206004820152602060248201527f4f776e61626c653a2063616c6c6572206973206e6f7420746865206f776e65726044820152fd5b156126ad57565b60405162461bcd60e51b815260206004820152601860248201527f496e73756666696369656e74206c697374696e672066656500000000000000006044820152606490fd5b919082018092116126ff57565b634e487b7160e01b600052601160045260246000fd5b67ffffffffffffffff811161272957604052565b634e487b7160e01b600052604160045260246000fd5b610180810190811067ffffffffffffffff82111761272957604052565b90601f8019910116810190811067ffffffffffffffff82111761272957604052565b3d156127b9573d9067ffffffffffffffff821161272957604051916127ad601f8201601f19166020018461275c565b82523d6000602084013e565b606090565b156127c557565b60405162461bcd60e51b8152602060048201526013602482015272119959481d1c985b9cd9995c8819985a5b1959606a1b6044820152606490fd5b919082039182116126ff57565b1561281457565b60405162461bcd60e51b815260206004820152600d60248201526c1499599d5b990819985a5b1959609a1b6044820152606490fd5b60ff60015460a01c1661285857565b60405162461bcd60e51b815260206004820152601060248201526f14185d5cd8589b194e881c185d5cd95960821b6044820152606490fd5b6002600054146128a1576002600055565b60405162461bcd60e51b815260206004820152601f60248201527f5265656e7472616e637947756172643a207265656e7472616e742063616c6c006044820152606490fd5b156128ed57565b60405162461bcd60e51b815260206004820152601360248201527247616d6520616c72656164792065786973747360681b6044820152606490fd5b60028210156125655752565b9060028110156125655760ff80198354169116179055565b8054680100000000000000008110156127295761296e916001820181556125ef565b819291549060031b91821b91600019901b1916179055565b1561298d57565b60405162461bcd60e51b815260206004820152601360248201527211d85b5948191bd95cc81b9bdd08195e1a5cdd606a1b6044820152606490fd5b156129cf57565b60405162461bcd60e51b815260206004820152600e60248201526d11d85b594818dbdb5c1b195d195960921b6044820152606490fd5b15612a0c57565b60405162461bcd60e51b8152602060048201526011602482015270105b1c9958591e4819195c1bdcda5d1959607a1b6044820152606490fd5b15612a4c57565b60405162461bcd60e51b815260206004820152600f60248201526e11195c1bdcda5d081d1a5b595bdd5d608a1b6044820152606490fd5b15612a8a57565b60405162461bcd60e51b815260206004820152600c60248201526b2737ba10383630bcb2b9101960a11b6044820152606490fd5b818102929181159184041417156126ff57565b90816020910312612527575180151581036125275790565b15612af057565b60405162461bcd60e51b81526020600482015260146024820152731554d110c81d1c985b9cd9995c8819985a5b195960621b6044820152606490fd5b15612b3357565b60405162461bcd60e51b815260206004820152601660248201527511d85b5948185b1c9958591e4818dbdb5c1b195d195960521b6044820152606490fd5b15612b7857565b60405162461bcd60e51b815260206004820152600f60248201526e4e6f7420796f75722061737365747360881b6044820152606490fd5b519069ffffffffffffffffffff8216820361252757565b600954604051633fabe5a360e21b8152919060a090839060049082906001600160a01b03165afa918215612cc957600092612c7b575b506000821315612c415768056bc75e2d63100000908181029181830414901517156126ff578115612c2b570490565b634e487b7160e01b600052601260045260246000fd5b60405162461bcd60e51b8152602060048201526012602482015271125b9d985b1a59081c1c9a58d9481999595960721b6044820152606490fd5b909160a0823d8211612cc1575b81612c9560a0938361275c565b810103126102505750612ca781612baf565b50612cb9608060208301519201612baf565b509038612bfc565b3d9150612c88565b6040513d6000823e3d90fd5b91908110156126075760051b0190565b356001600160a01b0381168103612527579056fea26469706673582212208ce6094cdf778d76e3e5488c8be674b56248bd32b4e0c291772953c7ef21f82264736f6c63430008140033",
  "linkReferences": {},
  "deployedLinkReferences": {}
}