{
  "_format": "hh-sol-artifact-1",
  "contractName": "NFTFlipGame",
  "sourceName": "contracts/NFTFlipGame.sol",
  "abi": [
    {
      "inputs": [
        {
          "internalType": "address",
          "name": "_platformFeeReceiver",
          "type": "address"
        },
        {
          "internalType": "address",
          "name": "_usdcToken",
          "type": "address"
        }
      ],
      "stateMutability": "nonpayable",
      "type": "constructor"
    },
    {
      "anonymous": false,
      "inputs": [
        {
          "indexed": true,
          "internalType": "bytes32",
          "name": "gameId",
          "type": "bytes32"
        },
        {
          "indexed": true,
          "internalType": "address",
          "name": "reclaimer",
          "type": "address"
        },
        {
          "indexed": false,
          "internalType": "string",
          "name": "assetType",
          "type": "string"
        }
      ],
      "name": "AssetsReclaimed",
      "type": "event"
    },
    {
      "anonymous": false,
      "inputs": [
        {
          "indexed": true,
          "internalType": "bytes32",
          "name": "gameId",
          "type": "bytes32"
        },
        {
          "indexed": true,
          "internalType": "address",
          "name": "winner",
          "type": "address"
        }
      ],
      "name": "BattleRoyaleCompleted",
      "type": "event"
    },
    {
      "anonymous": false,
      "inputs": [
        {
          "indexed": true,
          "internalType": "bytes32",
          "name": "gameId",
          "type": "bytes32"
        },
        {
          "indexed": true,
          "internalType": "address",
          "name": "creator",
          "type": "address"
        },
        {
          "indexed": false,
          "internalType": "uint256",
          "name": "entryFee",
          "type": "uint256"
        },
        {
          "indexed": false,
          "internalType": "uint256",
          "name": "serviceFee",
          "type": "uint256"
        }
      ],
      "name": "BattleRoyaleCreated",
      "type": "event"
    },
    {
      "anonymous": false,
      "inputs": [
        {
          "indexed": true,
          "internalType": "bytes32",
          "name": "gameId",
          "type": "bytes32"
        },
        {
          "indexed": true,
          "internalType": "address",
          "name": "creator",
          "type": "address"
        },
        {
          "indexed": false,
          "internalType": "uint256",
          "name": "amount",
          "type": "uint256"
        }
      ],
      "name": "BattleRoyaleCreatorPaid",
      "type": "event"
    },
    {
      "anonymous": false,
      "inputs": [
        {
          "indexed": true,
          "internalType": "bytes32",
          "name": "gameId",
          "type": "bytes32"
        },
        {
          "indexed": true,
          "internalType": "address",
          "name": "player",
          "type": "address"
        },
        {
          "indexed": false,
          "internalType": "uint256",
          "name": "amount",
          "type": "uint256"
        }
      ],
      "name": "BattleRoyaleJoined",
      "type": "event"
    },
    {
      "anonymous": false,
      "inputs": [
        {
          "indexed": true,
          "internalType": "bytes32",
          "name": "gameId",
          "type": "bytes32"
        },
        {
          "indexed": true,
          "internalType": "address",
          "name": "winner",
          "type": "address"
        }
      ],
      "name": "BattleRoyaleNFTClaimed",
      "type": "event"
    },
    {
      "anonymous": false,
      "inputs": [
        {
          "indexed": true,
          "internalType": "bytes32",
          "name": "gameId",
          "type": "bytes32"
        },
        {
          "indexed": false,
          "internalType": "uint8",
          "name": "playerCount",
          "type": "uint8"
        }
      ],
      "name": "BattleRoyaleStarted",
      "type": "event"
    },
    {
      "anonymous": false,
      "inputs": [
        {
          "indexed": true,
          "internalType": "bytes32",
          "name": "gameId",
          "type": "bytes32"
        },
        {
          "indexed": true,
          "internalType": "address",
          "name": "depositor",
          "type": "address"
        },
        {
          "indexed": false,
          "internalType": "uint256",
          "name": "amount",
          "type": "uint256"
        }
      ],
      "name": "ETHDeposited",
      "type": "event"
    },
    {
      "anonymous": false,
      "inputs": [
        {
          "indexed": true,
          "internalType": "bytes32",
          "name": "gameId",
          "type": "bytes32"
        },
        {
          "indexed": true,
          "internalType": "address",
          "name": "winner",
          "type": "address"
        }
      ],
      "name": "GameCompleted",
      "type": "event"
    },
    {
      "anonymous": false,
      "inputs": [
        {
          "indexed": true,
          "internalType": "bytes32",
          "name": "gameId",
          "type": "bytes32"
        },
        {
          "indexed": false,
          "internalType": "address",
          "name": "nftDepositor",
          "type": "address"
        },
        {
          "indexed": false,
          "internalType": "address",
          "name": "cryptoDepositor",
          "type": "address"
        }
      ],
      "name": "GameReady",
      "type": "event"
    },
    {
      "anonymous": false,
      "inputs": [
        {
          "indexed": true,
          "internalType": "bytes32",
          "name": "gameId",
          "type": "bytes32"
        },
        {
          "indexed": true,
          "internalType": "address",
          "name": "depositor",
          "type": "address"
        },
        {
          "indexed": false,
          "internalType": "address",
          "name": "nftContract",
          "type": "address"
        },
        {
          "indexed": false,
          "internalType": "uint256",
          "name": "tokenId",
          "type": "uint256"
        }
      ],
      "name": "NFTDeposited",
      "type": "event"
    },
    {
      "anonymous": false,
      "inputs": [
        {
          "indexed": true,
          "internalType": "address",
          "name": "previousOwner",
          "type": "address"
        },
        {
          "indexed": true,
          "internalType": "address",
          "name": "newOwner",
          "type": "address"
        }
      ],
      "name": "OwnershipTransferred",
      "type": "event"
    },
    {
      "anonymous": false,
      "inputs": [
        {
          "indexed": false,
          "internalType": "address",
          "name": "account",
          "type": "address"
        }
      ],
      "name": "Paused",
      "type": "event"
    },
    {
      "anonymous": false,
      "inputs": [
        {
          "indexed": true,
          "internalType": "bytes32",
          "name": "gameId",
          "type": "bytes32"
        },
        {
          "indexed": true,
          "internalType": "address",
          "name": "depositor",
          "type": "address"
        },
        {
          "indexed": false,
          "internalType": "uint256",
          "name": "amount",
          "type": "uint256"
        }
      ],
      "name": "USDCDeposited",
      "type": "event"
    },
    {
      "anonymous": false,
      "inputs": [
        {
          "indexed": false,
          "internalType": "address",
          "name": "account",
          "type": "address"
        }
      ],
      "name": "Unpaused",
      "type": "event"
    },
    {
      "anonymous": false,
      "inputs": [
        {
          "indexed": true,
          "internalType": "bytes32",
          "name": "gameId",
          "type": "bytes32"
        },
        {
          "indexed": true,
          "internalType": "address",
          "name": "winner",
          "type": "address"
        }
      ],
      "name": "WinningsWithdrawn",
      "type": "event"
    },
    {
      "inputs": [],
      "name": "BASIS_POINTS",
      "outputs": [
        {
          "internalType": "uint256",
          "name": "",
          "type": "uint256"
        }
      ],
      "stateMutability": "view",
      "type": "function"
    },
    {
      "inputs": [
        {
          "internalType": "bytes32[]",
          "name": "gameIds",
          "type": "bytes32[]"
        },
        {
          "internalType": "address[]",
          "name": "recipients",
          "type": "address[]"
        }
      ],
      "name": "adminBatchWithdrawNFTs",
      "outputs": [],
      "stateMutability": "nonpayable",
      "type": "function"
    },
    {
      "inputs": [
        {
          "internalType": "bytes32",
          "name": "",
          "type": "bytes32"
        },
        {
          "internalType": "address",
          "name": "",
          "type": "address"
        }
      ],
      "name": "battleRoyaleEntries",
      "outputs": [
        {
          "internalType": "bool",
          "name": "",
          "type": "bool"
        }
      ],
      "stateMutability": "view",
      "type": "function"
    },
    {
      "inputs": [
        {
          "internalType": "bytes32",
          "name": "",
          "type": "bytes32"
        },
        {
          "internalType": "address",
          "name": "",
          "type": "address"
        }
      ],
      "name": "battleRoyaleEntryAmounts",
      "outputs": [
        {
          "internalType": "uint256",
          "name": "",
          "type": "uint256"
        }
      ],
      "stateMutability": "view",
      "type": "function"
    },
    {
      "inputs": [
        {
          "internalType": "bytes32",
          "name": "",
          "type": "bytes32"
        }
      ],
      "name": "battleRoyaleGames",
      "outputs": [
        {
          "internalType": "address",
          "name": "creator",
          "type": "address"
        },
        {
          "internalType": "address",
          "name": "nftContract",
          "type": "address"
        },
        {
          "internalType": "uint256",
          "name": "tokenId",
          "type": "uint256"
        },
        {
          "internalType": "uint256",
          "name": "entryFee",
          "type": "uint256"
        },
        {
          "internalType": "uint256",
          "name": "serviceFee",
          "type": "uint256"
        },
        {
          "internalType": "uint8",
          "name": "maxPlayers",
          "type": "uint8"
        },
        {
          "internalType": "uint8",
          "name": "currentPlayers",
          "type": "uint8"
        },
        {
          "internalType": "address",
          "name": "winner",
          "type": "address"
        },
        {
          "internalType": "bool",
          "name": "completed",
          "type": "bool"
        },
        {
          "internalType": "bool",
          "name": "creatorPaid",
          "type": "bool"
        },
        {
          "internalType": "bool",
          "name": "nftClaimed",
          "type": "bool"
        },
        {
          "internalType": "uint256",
          "name": "totalPool",
          "type": "uint256"
        },
        {
          "internalType": "uint256",
          "name": "createdAt",
          "type": "uint256"
        },
        {
          "internalType": "bool",
          "name": "isUnder20",
          "type": "bool"
        },
        {
          "internalType": "uint256",
          "name": "minUnder20Wei",
          "type": "uint256"
        }
      ],
      "stateMutability": "view",
      "type": "function"
    },
    {
      "inputs": [
        {
          "internalType": "bytes32",
          "name": "gameId",
          "type": "bytes32"
        },
        {
          "internalType": "address",
          "name": "player",
          "type": "address"
        }
      ],
      "name": "canWithdrawEntry",
      "outputs": [
        {
          "internalType": "bool",
          "name": "",
          "type": "bool"
        }
      ],
      "stateMutability": "view",
      "type": "function"
    },
    {
      "inputs": [
        {
          "internalType": "bytes32",
          "name": "gameId",
          "type": "bytes32"
        }
      ],
      "name": "cancelBattleRoyale",
      "outputs": [],
      "stateMutability": "nonpayable",
      "type": "function"
    },
    {
      "inputs": [
        {
          "internalType": "bytes32",
          "name": "gameId",
          "type": "bytes32"
        },
        {
          "internalType": "address",
          "name": "winner",
          "type": "address"
        }
      ],
      "name": "completeBattleRoyale",
      "outputs": [],
      "stateMutability": "nonpayable",
      "type": "function"
    },
    {
      "inputs": [
        {
          "internalType": "bytes32",
          "name": "gameId",
          "type": "bytes32"
        },
        {
          "internalType": "address",
          "name": "winner",
          "type": "address"
        }
      ],
      "name": "completeGame",
      "outputs": [],
      "stateMutability": "nonpayable",
      "type": "function"
    },
    {
      "inputs": [
        {
          "internalType": "bytes32",
          "name": "gameId",
          "type": "bytes32"
        },
        {
          "internalType": "address",
          "name": "nftContract",
          "type": "address"
        },
        {
          "internalType": "uint256",
          "name": "tokenId",
          "type": "uint256"
        },
        {
          "internalType": "uint256",
          "name": "entryFee",
          "type": "uint256"
        },
        {
          "internalType": "uint256",
          "name": "serviceFee",
          "type": "uint256"
        },
        {
          "internalType": "bool",
          "name": "isUnder20",
          "type": "bool"
        },
        {
          "internalType": "uint256",
          "name": "minUnder20Wei",
          "type": "uint256"
        }
      ],
      "name": "createBattleRoyale",
      "outputs": [],
      "stateMutability": "nonpayable",
      "type": "function"
    },
    {
      "inputs": [
        {
          "internalType": "bytes32",
          "name": "gameId",
          "type": "bytes32"
        }
      ],
      "name": "depositETH",
      "outputs": [],
      "stateMutability": "payable",
      "type": "function"
    },
    {
      "inputs": [
        {
          "internalType": "bytes32",
          "name": "gameId",
          "type": "bytes32"
        },
        {
          "internalType": "address",
          "name": "nftContract",
          "type": "address"
        },
        {
          "internalType": "uint256",
          "name": "tokenId",
          "type": "uint256"
        }
      ],
      "name": "depositNFT",
      "outputs": [],
      "stateMutability": "nonpayable",
      "type": "function"
    },
    {
      "inputs": [],
      "name": "depositTimeout",
      "outputs": [
        {
          "internalType": "uint256",
          "name": "",
          "type": "uint256"
        }
      ],
      "stateMutability": "view",
      "type": "function"
    },
    {
      "inputs": [
        {
          "internalType": "bytes32",
          "name": "gameId",
          "type": "bytes32"
        },
        {
          "internalType": "uint256",
          "name": "amount",
          "type": "uint256"
        }
      ],
      "name": "depositUSDC",
      "outputs": [],
      "stateMutability": "nonpayable",
      "type": "function"
    },
    {
      "inputs": [
        {
          "internalType": "address[]",
          "name": "nftContracts",
          "type": "address[]"
        },
        {
          "internalType": "uint256[]",
          "name": "tokenIds",
          "type": "uint256[]"
        },
        {
          "internalType": "address[]",
          "name": "recipients",
          "type": "address[]"
        }
      ],
      "name": "directBatchTransferNFTs",
      "outputs": [],
      "stateMutability": "nonpayable",
      "type": "function"
    },
    {
      "inputs": [
        {
          "internalType": "address",
          "name": "nftContract",
          "type": "address"
        },
        {
          "internalType": "uint256",
          "name": "tokenId",
          "type": "uint256"
        },
        {
          "internalType": "address",
          "name": "recipient",
          "type": "address"
        }
      ],
      "name": "directTransferNFT",
      "outputs": [],
      "stateMutability": "nonpayable",
      "type": "function"
    },
    {
      "inputs": [
        {
          "internalType": "bytes32",
          "name": "gameId",
          "type": "bytes32"
        },
        {
          "internalType": "address",
          "name": "recipient",
          "type": "address"
        }
      ],
      "name": "emergencyWithdrawETH",
      "outputs": [],
      "stateMutability": "nonpayable",
      "type": "function"
    },
    {
      "inputs": [
        {
          "internalType": "bytes32",
          "name": "gameId",
          "type": "bytes32"
        },
        {
          "internalType": "address",
          "name": "recipient",
          "type": "address"
        }
      ],
      "name": "emergencyWithdrawNFT",
      "outputs": [],
      "stateMutability": "nonpayable",
      "type": "function"
    },
    {
      "inputs": [
        {
          "internalType": "bytes32",
          "name": "gameId",
          "type": "bytes32"
        },
        {
          "internalType": "address",
          "name": "recipient",
          "type": "address"
        }
      ],
      "name": "emergencyWithdrawUSDC",
      "outputs": [],
      "stateMutability": "nonpayable",
      "type": "function"
    },
    {
      "inputs": [
        {
          "internalType": "bytes32",
          "name": "",
          "type": "bytes32"
        }
      ],
      "name": "ethDeposits",
      "outputs": [
        {
          "internalType": "address",
          "name": "depositor",
          "type": "address"
        },
        {
          "internalType": "uint256",
          "name": "amount",
          "type": "uint256"
        },
        {
          "internalType": "bool",
          "name": "claimed",
          "type": "bool"
        },
        {
          "internalType": "uint256",
          "name": "depositTime",
          "type": "uint256"
        }
      ],
      "stateMutability": "view",
      "type": "function"
    },
    {
      "inputs": [
        {
          "internalType": "bytes32",
          "name": "",
          "type": "bytes32"
        }
      ],
      "name": "gameResults",
      "outputs": [
        {
          "internalType": "address",
          "name": "winner",
          "type": "address"
        },
        {
          "internalType": "bool",
          "name": "completed",
          "type": "bool"
        },
        {
          "internalType": "uint256",
          "name": "completionTime",
          "type": "uint256"
        }
      ],
      "stateMutability": "view",
      "type": "function"
    },
    {
      "inputs": [
        {
          "internalType": "bytes32",
          "name": "gameId",
          "type": "bytes32"
        },
        {
          "internalType": "address",
          "name": "player",
          "type": "address"
        }
      ],
      "name": "getBattleRoyaleEntryAmount",
      "outputs": [
        {
          "internalType": "uint256",
          "name": "",
          "type": "uint256"
        }
      ],
      "stateMutability": "view",
      "type": "function"
    },
    {
      "inputs": [
        {
          "internalType": "bytes32",
          "name": "gameId",
          "type": "bytes32"
        }
      ],
      "name": "getBattleRoyaleGame",
      "outputs": [
        {
          "components": [
            {
              "internalType": "address",
              "name": "creator",
              "type": "address"
            },
            {
              "internalType": "address",
              "name": "nftContract",
              "type": "address"
            },
            {
              "internalType": "uint256",
              "name": "tokenId",
              "type": "uint256"
            },
            {
              "internalType": "uint256",
              "name": "entryFee",
              "type": "uint256"
            },
            {
              "internalType": "uint256",
              "name": "serviceFee",
              "type": "uint256"
            },
            {
              "internalType": "uint8",
              "name": "maxPlayers",
              "type": "uint8"
            },
            {
              "internalType": "uint8",
              "name": "currentPlayers",
              "type": "uint8"
            },
            {
              "internalType": "address",
              "name": "winner",
              "type": "address"
            },
            {
              "internalType": "bool",
              "name": "completed",
              "type": "bool"
            },
            {
              "internalType": "bool",
              "name": "creatorPaid",
              "type": "bool"
            },
            {
              "internalType": "bool",
              "name": "nftClaimed",
              "type": "bool"
            },
            {
              "internalType": "uint256",
              "name": "totalPool",
              "type": "uint256"
            },
            {
              "internalType": "uint256",
              "name": "createdAt",
              "type": "uint256"
            },
            {
              "internalType": "bool",
              "name": "isUnder20",
              "type": "bool"
            },
            {
              "internalType": "uint256",
              "name": "minUnder20Wei",
              "type": "uint256"
            }
          ],
          "internalType": "struct NFTFlipGame.BattleRoyaleGame",
          "name": "",
          "type": "tuple"
        }
      ],
      "stateMutability": "view",
      "type": "function"
    },
    {
      "inputs": [
        {
          "internalType": "bytes32",
          "name": "gameId",
          "type": "bytes32"
        }
      ],
      "name": "getGameParticipants",
      "outputs": [
        {
          "internalType": "address",
          "name": "nftPlayer",
          "type": "address"
        },
        {
          "internalType": "address",
          "name": "cryptoPlayer",
          "type": "address"
        }
      ],
      "stateMutability": "view",
      "type": "function"
    },
    {
      "inputs": [
        {
          "internalType": "bytes32",
          "name": "gameId",
          "type": "bytes32"
        },
        {
          "internalType": "address",
          "name": "player",
          "type": "address"
        }
      ],
      "name": "hasBattleRoyaleEntry",
      "outputs": [
        {
          "internalType": "bool",
          "name": "",
          "type": "bool"
        }
      ],
      "stateMutability": "view",
      "type": "function"
    },
    {
      "inputs": [
        {
          "internalType": "bytes32",
          "name": "gameId",
          "type": "bytes32"
        }
      ],
      "name": "isGameReady",
      "outputs": [
        {
          "internalType": "bool",
          "name": "",
          "type": "bool"
        }
      ],
      "stateMutability": "view",
      "type": "function"
    },
    {
      "inputs": [
        {
          "internalType": "bytes32",
          "name": "gameId",
          "type": "bytes32"
        }
      ],
      "name": "joinBattleRoyale",
      "outputs": [],
      "stateMutability": "payable",
      "type": "function"
    },
    {
      "inputs": [
        {
          "internalType": "bytes32",
          "name": "",
          "type": "bytes32"
        }
      ],
      "name": "nftDeposits",
      "outputs": [
        {
          "internalType": "address",
          "name": "depositor",
          "type": "address"
        },
        {
          "internalType": "address",
          "name": "nftContract",
          "type": "address"
        },
        {
          "internalType": "uint256",
          "name": "tokenId",
          "type": "uint256"
        },
        {
          "internalType": "bool",
          "name": "claimed",
          "type": "bool"
        },
        {
          "internalType": "uint256",
          "name": "depositTime",
          "type": "uint256"
        }
      ],
      "stateMutability": "view",
      "type": "function"
    },
    {
      "inputs": [],
      "name": "owner",
      "outputs": [
        {
          "internalType": "address",
          "name": "",
          "type": "address"
        }
      ],
      "stateMutability": "view",
      "type": "function"
    },
    {
      "inputs": [],
      "name": "pause",
      "outputs": [],
      "stateMutability": "nonpayable",
      "type": "function"
    },
    {
      "inputs": [],
      "name": "paused",
      "outputs": [
        {
          "internalType": "bool",
          "name": "",
          "type": "bool"
        }
      ],
      "stateMutability": "view",
      "type": "function"
    },
    {
      "inputs": [],
      "name": "platformFeePercent",
      "outputs": [
        {
          "internalType": "uint256",
          "name": "",
          "type": "uint256"
        }
      ],
      "stateMutability": "view",
      "type": "function"
    },
    {
      "inputs": [],
      "name": "platformFeeReceiver",
      "outputs": [
        {
          "internalType": "address",
          "name": "",
          "type": "address"
        }
      ],
      "stateMutability": "view",
      "type": "function"
    },
    {
      "inputs": [
        {
          "internalType": "bytes32",
          "name": "gameId",
          "type": "bytes32"
        }
      ],
      "name": "reclaimBattleRoyaleNFT",
      "outputs": [],
      "stateMutability": "nonpayable",
      "type": "function"
    },
    {
      "inputs": [
        {
          "internalType": "bytes32",
          "name": "gameId",
          "type": "bytes32"
        }
      ],
      "name": "reclaimCrypto",
      "outputs": [],
      "stateMutability": "nonpayable",
      "type": "function"
    },
    {
      "inputs": [
        {
          "internalType": "bytes32",
          "name": "gameId",
          "type": "bytes32"
        }
      ],
      "name": "reclaimNFT",
      "outputs": [],
      "stateMutability": "nonpayable",
      "type": "function"
    },
    {
      "inputs": [],
      "name": "renounceOwnership",
      "outputs": [],
      "stateMutability": "nonpayable",
      "type": "function"
    },
    {
      "inputs": [
        {
          "internalType": "uint256",
          "name": "_timeout",
          "type": "uint256"
        }
      ],
      "name": "setDepositTimeout",
      "outputs": [],
      "stateMutability": "nonpayable",
      "type": "function"
    },
    {
      "inputs": [
        {
          "internalType": "uint256",
          "name": "_feePercent",
          "type": "uint256"
        }
      ],
      "name": "setPlatformFeePercent",
      "outputs": [],
      "stateMutability": "nonpayable",
      "type": "function"
    },
    {
      "inputs": [
        {
          "internalType": "address",
          "name": "_receiver",
          "type": "address"
        }
      ],
      "name": "setPlatformFeeReceiver",
      "outputs": [],
      "stateMutability": "nonpayable",
      "type": "function"
    },
    {
      "inputs": [
        {
          "internalType": "address",
          "name": "newOwner",
          "type": "address"
        }
      ],
      "name": "transferOwnership",
      "outputs": [],
      "stateMutability": "nonpayable",
      "type": "function"
    },
    {
      "inputs": [],
      "name": "unpause",
      "outputs": [],
      "stateMutability": "nonpayable",
      "type": "function"
    },
    {
      "inputs": [
        {
          "internalType": "bytes32",
          "name": "",
          "type": "bytes32"
        }
      ],
      "name": "usdcDeposits",
      "outputs": [
        {
          "internalType": "address",
          "name": "depositor",
          "type": "address"
        },
        {
          "internalType": "uint256",
          "name": "amount",
          "type": "uint256"
        },
        {
          "internalType": "bool",
          "name": "claimed",
          "type": "bool"
        },
        {
          "internalType": "uint256",
          "name": "depositTime",
          "type": "uint256"
        }
      ],
      "stateMutability": "view",
      "type": "function"
    },
    {
      "inputs": [],
      "name": "usdcToken",
      "outputs": [
        {
          "internalType": "address",
          "name": "",
          "type": "address"
        }
      ],
      "stateMutability": "view",
      "type": "function"
    },
    {
      "inputs": [
        {
          "internalType": "bytes32",
          "name": "gameId",
          "type": "bytes32"
        }
      ],
      "name": "withdrawBattleRoyaleEntry",
      "outputs": [],
      "stateMutability": "nonpayable",
      "type": "function"
    },
    {
      "inputs": [
        {
          "internalType": "bytes32",
          "name": "gameId",
          "type": "bytes32"
        }
      ],
      "name": "withdrawCreatorFunds",
      "outputs": [],
      "stateMutability": "nonpayable",
      "type": "function"
    },
    {
      "inputs": [
        {
          "internalType": "bytes32",
          "name": "gameId",
          "type": "bytes32"
        }
      ],
      "name": "withdrawWinnerNFT",
      "outputs": [],
      "stateMutability": "nonpayable",
      "type": "function"
    },
    {
      "inputs": [
        {
          "internalType": "bytes32",
          "name": "gameId",
          "type": "bytes32"
        }
      ],
      "name": "withdrawWinnings",
      "outputs": [],
      "stateMutability": "nonpayable",
      "type": "function"
    }
  ],
  "bytecode": "0x608034620000eb57601f62003dfd38819003918201601f19168301916001600160401b03831184841017620000f0578084926040948552833981010312620000eb576200005a6020620000528362000106565b920162000106565b9060016000556001546040519260018060a01b0391338382167f8be0079c531659141344cd1fd0a4f28419497f9722a3daafe3b4186f6b6457e0600080a36001600160a81b0319163360ff60a01b19161760015560786009556101f4600a55600b80546001600160a01b0319908116948416949094179055600c80549093169116179055613ce190816200011c8239f35b600080fd5b634e487b7160e01b600052604160045260246000fd5b51906001600160a01b0382168203620000eb5756fe6080604052600436101561001257600080fd5b60003560e01c806310738f721461321c57806311eac855146131f357806315e85e6d1461318c5780631702e69314610de25780631daedc101461312757806327627373146131065780632d656ad7146130dd57806331b7222c14612c655780633f4ba83a14612bc95780634989f9be14612b7c578063560acc0914612b4c5780635c975abb14612b26578063615318c714612b0857806361a42744146129e857806366fa9918146128ba57806369de5bcc146125895780636e6e8e63146122d157806370217b69146105c9578063715018a6146122745780637c34c355146120de578063844306a514611dd95780638456cb5914611d775780638aa2807714611c905780638c639a8514611c725780638d3f98e914611af45780638da5cb5b14611acb57806391ca238f1461195857806398ebcbd7146117fc578063a60ecd65146115fb578063aae7413d146113e3578063af42778214611247578063b0f81bb814611165578063b12ed98014610f6a578063b136d2e014610e2a578063c318decc14610de2578063cab230d214610d84578063d68d9d4e14610c5d578063de9c692214610aca578063e0afe01c14610991578063e1850f2a146108c4578063e1f1c4a7146108a7578063e340977a14610864578063e9df302714610616578063eb4742aa146105c9578063ebd9c39c14610563578063ee53e32514610379578063f2fde38b146102b55763f8d732881461022c57600080fd5b346102b05760203660031901126102b05760043580600052600260205260018060a01b0380604060002054169160036020528160406000205416151560001461029d57600052600360205260406000205416905b604080516001600160a01b03928316815292909116602083015290f35b5060046020526040600020541690610280565b600080fd5b346102b05760203660031901126102b0576102ce613480565b6102d6613496565b6001600160a01b0390811690811561032557600154826001600160601b0360a01b821617600155167f8be0079c531659141344cd1fd0a4f28419497f9722a3daafe3b4186f6b6457e0600080a3005b60405162461bcd60e51b815260206004820152602660248201527f4f776e61626c653a206e6577206f776e657220697320746865207a65726f206160448201526564647265737360d01b6064820152608490fd5b346102b05760403660031901126102b05767ffffffffffffffff6004358181116102b0576103ab903690600401613439565b90916024359081116102b0576103c5903690600401613439565b906103ce613496565b8183036105265760005b8381106103e157005b6103ec818587613a55565b356000526002906020828152604060002060018060a01b039081815416151580610517575b610428575b5050506104239150613a46565b6103d8565b60019082828201541695610445610440878b8b613a55565b613a7b565b90820154873b156102b0576040516323b872dd60e01b81523060048201526001600160a01b039290921660248301526044820152956000908790606490829084905af190811561050b57610423966003926104fc575b50019060ff19825416179055600080516020613c8c83398151915260606104c3858a8c613a55565b35926104d3610440878b8b613a55565b16936009604051918083528201526809c8ca8be8482a886960bb1b6040820152a3868080610416565b61050590613533565b8b61049b565b6040513d6000823e3d90fd5b5060ff60038201541615610411565b60405162461bcd60e51b8152602060048201526015602482015274082e4e4c2f240d8cadccee8d040dad2e6dac2e8c6d605b1b6044820152606490fd5b346102b05760203660031901126102b057600435600090815260036020818152604092839020805460018201546002830154929094015485516001600160a01b0390921682529281019390935260ff161515928201929092526060810191909152608090f35b346102b05760403660031901126102b0576105e261346a565b600435600052600760205260406000209060018060a01b0316600052602052602060ff604060002054166040519015158152f35b346102b05760403660031901126102b05760043561063261346a565b9061063b613496565b6106436135e9565b60405163161f037760e31b8152600481018290526020908181602481305afa90811561050b57600091610837575b501561080257816000526005815261069460ff60406000205460a01c16156134ee565b600082815260028252604080822054600384529120546001600160a01b0391821694908216156107ee57836000526003835281808060406000205416925b169586149182156107e2575b5050156107935760405191606083019183831067ffffffffffffffff84111761077d5760019260405285845281840190838252600560408601934285528760005252604060002094511684549160ff60a01b9051151560a01b16916affffffffffffffffffffff60a81b1617178355519101557f0bf6aee0a93e0c0696509fac1649343cafc5bf013811646e438330fe86e4c15f600080a36001600055005b634e487b7160e01b600052604160045260246000fd5b60405162461bcd60e51b815260048101839052602160248201527f57696e6e6572206d75737420626520612067616d65207061727469636970616e6044820152601d60fa1b6064820152608490fd5b168514905081866106de565b6004835281808060406000205416926106d2565b6064906040519062461bcd60e51b82526004820152600e60248201526d47616d65206e6f7420726561647960901b6044820152fd5b6108579150823d841161085d575b61084f8183613580565b810190613740565b84610671565b503d610845565b346102b05760203660031901126102b05761087d613480565b610885613496565b600b80546001600160a01b0319166001600160a01b0392909216919091179055005b346102b05760003660031901126102b05760206040516127108152f35b346102b05760603660031901126102b0576108dd613480565b6044356001600160a01b03818116928383036102b0576108fb613496565b16803b156102b0576040516323b872dd60e01b81523060048201526001600160a01b03929092166024808401919091523560448301526000908290606490829084905af1801561050b57610982575b506000600080516020613c8c833981519152606060405160208152600a60208201526913919517d112549150d560b21b6040820152a3005b61098b90613533565b8161094a565b346102b05760203660031901126102b0576004356109ad6135e9565b6000818152600660205260409020600581018054906001600160a01b039033601084901c831603610a9457826109ea60ff60029560b01c16613890565b6109fa60ff8260c01c1615613bc6565b60ff60c01b1916600160c01b179055600183015491909201549116803b156102b0576040516323b872dd60e01b815230600482015233602482015260448101929092526000908290606490829084905af1801561050b57610a85575b5033907f35963cc381dc9034577db15bae056c65aac30542ec3c7e3fdb5314a6ced258d4600080a36001600055005b610a8e90613533565b81610a56565b60405162461bcd60e51b815260206004820152600e60248201526d2737ba103a3432903bb4b73732b960911b6044820152606490fd5b346102b0576020806003193601126102b057600435610ae76135e9565b6000818152600283526040902080546001600160a01b03919082163303610c295760026003820192610b1d60ff8554161561397d565b8460005260058652610b3a60ff60406000205460a01c16156139bb565b846000526003865280604060002054161580610c16575b610b7590610b666004860154600954906139f8565b42118115610c0e575b50613a05565b60018301541691015490803b156102b0576040516323b872dd60e01b815230600482015233602482015260448101929092526000908290606490829084905af1801561050b57610bff575b50600160ff198254161790556003604051928084528301526213919560ea1b6040830152600080516020613c8c83398151915260603393a36001600055005b610c0890613533565b83610bc0565b905088610b6f565b5060048652604060002054811615610b51565b60405162461bcd60e51b815260048101859052600c60248201526b139bdd081e5bdd5c8813919560a21b6044820152606490fd5b6020806003193601126102b057600435610c756135e9565b610c7d6135a2565b8060005260038252610cb560018060a01b03610ca081604060002054161561363f565b82600052600484526040600020541615613697565b8060005260058252610cd260ff60406000205460a01c16156134ee565b3415610d4a57610d4391610d12604051610ceb81613564565b338152348382015260006040820152426060820152836000526003835260406000206136ef565b817f8534743902a2fb19639aba9d7882a1a9b06d7a841874192da0738ce3973db0ae604051923484523393a361379b565b6001600055005b60405162461bcd60e51b815260048101839052601260248201527109aeae6e840e6cadcc840e6dedaca408aa8960731b6044820152606490fd5b346102b05760203660031901126102b057600435610da0613496565b6103e88111610dae57600a55005b60405162461bcd60e51b815260206004820152600c60248201526b08ccaca40e8dede40d0d2ced60a31b6044820152606490fd5b346102b05760403660031901126102b057610dfb61346a565b600435600052600860205260406000209060018060a01b03166000526020526020604060002054604051908152f35b346102b05760403660031901126102b057600435610e4661346a565b90610e4f613496565b600081815260026020526040902080546001600160a01b0390811615610f32576003820190610e8260ff8354161561397d565b60028160018501541693015492803b156102b0576040516323b872dd60e01b81523060048201526001600160a01b038716602482015260448101949094526000908490606490829084905af191821561050b57600080516020613c8c83398151915293606093610f23575b50600160ff198254161790556040519460208652600d60208701526c4e46545f454d455247454e435960981b60408701521693a3005b610f2c90613533565b86610eed565b60405162461bcd60e51b815260206004820152601060248201526f139bc81391950819195c1bdcda5d195960821b6044820152606490fd5b346102b0576020806003193601126102b057600435610f876135e9565b8060005260068252604060002060078352604060002033600052835260ff604060002054161561112c5781600052600883526040600020336000528352610fd46040600020541515613b86565b6005810190815460ff811660ff8260081c161090811561111e575b50156110e35760038101805492846000526008865260406000203360005286526000604081205584600052600786526040600020336000528652604060002060ff19815416905560ff815460081c169182156110cd576110919460009461107e60068796946110738897889788190161ff0082549160081b169061ff001916179055565b5492019182546138e4565b9055335af161108b6138f1565b50613b0c565b600c604051928084528301526b42525f454e5452595f46454560a01b6040830152600080516020613c8c83398151915260603393a36001600055005b634e487b7160e01b600052601160045260246000fd5b60405162461bcd60e51b815260048101859052601360248201527247616d6520697320696e2070726f677265737360681b6044820152606490fd5b60ff915060c01c1685610fef565b60405162461bcd60e51b8152600481018490526011602482015270139bdd0818481c185c9d1a58da5c185b9d607a1b6044820152606490fd5b346102b0576020806003193601126102b0576004356000908152600282526040902080546001600160a01b0390811615159182611237575b50600383526040600020908082541615159182611227575b5081156111f8575b506005835260ff60406000205460a01c161590826111f0575b50816111e8575b506040519015158152f35b9050826111dd565b9150836111d6565b90506004835260406000209081541615159081611217575b50836111bd565b60ff915060020154161583611210565b6002015460ff16159150846111b5565b6003015460ff161591508361119d565b346102b05760203660031901126102b0576004356112636135e9565b806000526006602052604060002060018060a01b03611286818354163314613b48565b600582019081549161129e60ff8460b01c16156134ee565b6112ae60ff8460c01c1615613bc6565b60ff831660ff8460081c16101561139e5762ff00ff60b01b199092166201000160b01b179091556001820154600292909201549116803b156102b0576040516323b872dd60e01b815230600482015233602482015260448101929092526000908290606490829084905af1801561050b5761138f575b50604051906000817fa42d11b373a7580964ade0dabdb8ce6cf3ac26374841b17aefc72de0db1c40e08280a360208252601060208301526f109497d3919517d0d05390d15313115160821b6040830152600080516020613c8c83398151915260603393a36001600055005b61139890613533565b81611324565b60405162461bcd60e51b815260206004820152601c60248201527f47616d652069732066756c6c202d2063616e6e6f742063616e63656c000000006044820152606490fd5b346102b05760203660031901126102b05760006101c060405161140581613547565b8281528260208201528260408201528260608201528260808201528260a08201528260c08201528260e08201528261010082015282610120820152826101408201528261016082015282610180820152826101a0820152015260043560005260066020526101e060406000206101c060405161148081613547565b600960018060a01b038454169384835260018060a01b03600182015416602084015260028101546040840152600381015460608401526004810154608084015260ff600582015481811660a0860152818160081c1660c086015260018060a01b038160101c1660e0860152818160b01c161515610100860152818160b81c16151561012086015260c01c1615156101408401526006810154610160840152600781015461018084015260ff60088201541615156101a084015201548282015260405192835260018060a01b03602082015116602084015260408101516040840152606081015160608401526080810151608084015260ff60a08201511660a084015260ff60c08201511660c084015260018060a01b0360e08201511660e08401526101008101511515610100840152610120810151151561012084015261014081015115156101408401526101608101516101608401526101808101516101808401526101a081015115156101a084015201516101c0820152f35b346102b05760603660031901126102b05760043561161761346a565b90604435916116246135e9565b61162c6135a2565b6000828152600260205260409020546001600160a01b039081166117ab5782600052600560205261166860ff60406000205460a01c16156134ee565b80821690813b156102b0576040516323b872dd60e01b81523360048201523060248201526044810186905260008160648183875af1801561050b5761179c575b506040519460a086019086821067ffffffffffffffff83111761077d57610d439660047f3a2446e77599b001d6e7f8d965d64c3ec2c5222ba2a3f1cba8ad884dd7f8349d9461176d899761179496604052338552602085019081526040850186815260608601916000835260808701944286528b6000526002602052806040600020985116906001600160601b0360a01b91828a54161789556001890192511690825416179055516002860155511515600385019060ff801983541691151516179055565b51910155604080516001600160a01b03909616865260208601919091523394918291820190565b0390a361379b565b6117a590613533565b856116a8565b60405162461bcd60e51b815260206004820152602360248201527f4e465420616c7265616479206465706f736974656420666f7220746869732067604482015262616d6560e81b6064820152608490fd5b346102b05760403660031901126102b05760043561181861346a565b90611821613496565b806000526020916004835260406000209060018060a01b0390818354161561191f57908291856118a06002600096019461185f60ff8754161561397d565b600c546001919091015460405163a9059cbb60e01b81526001600160a01b038616600482015260248101919091529687929186169183919082906044820190565b03925af192831561050b576118cf606094600080516020613c8c83398151915296600091611902575b50613758565b600160ff19825416179055600e604051968088528701526d555344435f454d455247454e435960901b60408701521693a3005b6119199150893d8b1161085d5761084f8183613580565b896118c9565b60405162461bcd60e51b8152600481018690526011602482015270139bc81554d110c819195c1bdcda5d1959607a1b6044820152606490fd5b346102b05760203660031901126102b0576004356119746135e9565b806000526006602052604060002090611a21600080808060018060a01b03966119a1888254163314613b48565b60058101978854986119b860ff8b60b01c16613890565b6119c860ff8b60b81c1615613b86565b60068301546127106119dc600a54836138d1565b049360ff60088201541680611abe575b611ab0575b50836119fc916138e4565b60ff60b81b19909a16600160b81b179055600b54165af1611a1b6138f1565b50613931565b600080808085335af1611a326138f1565b5015611a6b576040519182527f03d457480f8551b87fa3fd3dbfeff637f118bf3d222020e1fdb01ce64ff2339160203393a36001600055005b60405162461bcd60e51b815260206004820152601760248201527f43726561746f72207472616e73666572206661696c65640000000000000000006044820152606490fd5b6009015493506119fc6119f1565b50846009820154116119ec565b346102b05760003660031901126102b0576001546040516001600160a01b039091168152602090f35b346102b05760403660031901126102b057600435611b1061346a565b90611b19613496565b611b216135e9565b600081815260066020526040902080546001600160a01b039391600591611b4b9086161515613a8f565b01908154611b5f60ff8260b01c16156134ee565b60ff8082169160081c1603611c39578260005260076020526040600020938116938460005260205260ff6040600020541615611bf457815462010000600160b01b03191660109190911b62010000600160b01b0316178155805460ff60b01b1916600160b01b1790557fa42d11b373a7580964ade0dabdb8ce6cf3ac26374841b17aefc72de0db1c40e0600080a36001600055005b60405162461bcd60e51b815260206004820152601c60248201527f57696e6e6572206d7573742062652061207061727469636970616e74000000006044820152606490fd5b60405162461bcd60e51b815260206004820152601160248201527011d85b59481b9bdd08199d5b1b081e595d607a1b6044820152606490fd5b346102b05760003660031901126102b0576020600a54604051908152f35b346102b05760203660031901126102b05760043560005260066020526101e0604060002060018060a01b038082541691816001820154169160028201549060038301549160048401549160058501549060068601549360078701549560ff9460098660088b015416990154996040519b8c5260208c015260408b015260608a0152608089015282821660a0890152828260081c1660c08901528160101c1660e0880152818160b01c161515610100880152818160b81c16151561012088015260c01c16151561014086015261016085015261018084015215156101a08301526101c0820152f35b346102b05760003660031901126102b057611d90613496565b611d986135a2565b6001805460ff60a01b1916600160a01b1790556040513381527f62e78cea01bee320cd4e420270b5ea74000d11b0c9f74754ebdbfc544b05a25890602090a1005b6020806003193601126102b057600435611df16135e9565b611df96135a2565b60008181526006835260409020805490926001600160a01b03918216611e20811515613a8f565b331461209a5760058401805492611e5160ff94611e42868260b01c16156134ee565b858082169160081c1610613ad1565b846000526007835260406000203360005283528360406000205416612055576003860195865490611e8860048201928354906139f8565b9788341061201957876000526007865260406000203360005286526040600020600160ff19825416179055876000526008865260406000203360005286523460406000205586855460081c168781146110cd57855461ff00191660019190910160081b61ff0016178555611f04906006905492019182546139f8565b9055549081611fb2575b5050604051348152847f2825c53bdc70daeae096202f3e3cbc859d754748a51669ad2d563d4e50948cac843393a35491808360081c1692168214611f81575b505050803411611f5e576001600055005b6000808080611f70611f7b95346138e4565b335af161108b6138f1565b80610d43565b7f420af78d8860bbcb1feabd504fce7e0040d0d422c367cc47b11924866a33759791604051908152a2818080611f4d565b60008080938193600b54165af1611fc76138f1565b5015611fd4578580611f0e565b60405162461bcd60e51b815260048101839052601b60248201527f5365727669636520666565207472616e73666572206661696c656400000000006044820152606490fd5b60405162461bcd60e51b8152600481018790526014602482015273125b9cdd59999a58da595b9d081c185e5b595b9d60621b6044820152606490fd5b60405162461bcd60e51b815260048101849052601860248201527f416c7265616479206a6f696e656420746869732067616d6500000000000000006044820152606490fd5b6064906040519062461bcd60e51b82526004820152601c60248201527f43726561746f722063616e6e6f74206a6f696e206f776e2067616d65000000006044820152fd5b346102b05760403660031901126102b0576024356004356120fd6135e9565b6121056135a2565b806000526020916004835260018060a01b03612128816040600020541615613697565b826000526003845261214181604060002054161561363f565b826000526005845261215e60ff60406000205460a01c16156134ee565b811561223657600c546040516323b872dd60e01b81523360048201523060248201526044810184905291859183916064918391600091165af1801561050b57610d43946121d57f8f5781fdb49be2343ca56c67e0fa09ece1a4887afb22f1edccd90c3632601c879286946000916122195750613758565b61220b6040516121e481613564565b338152858382015260006040820152426060820152846000526004835260406000206136ef565b6040519384523393a361379b565b6122309150833d851161085d5761084f8183613580565b886118c9565b60405162461bcd60e51b81526004810185905260166024820152754d757374206465706f73697420736f6d65205553444360501b6044820152606490fd5b346102b05760003660031901126102b05761228d613496565b600180546001600160a01b031981169091556000906001600160a01b03167f8be0079c531659141344cd1fd0a4f28419497f9722a3daafe3b4186f6b6457e08280a3005b346102b0576020806003193601126102b0576004356122ee6135e9565b806000526005825261230b60ff60406000205460a01c16156139bb565b600081815260028352604080822054600385529120546001600160a01b039182161591903390821603612413575081600052600383526000808080600160408220612381600282019761236260ff8a54161561397d565b6123736003840154600954906139f8565b4211811561240b5750613a05565b0154335af161238e6138f1565b50156123d257600160ff198254161790556003604051928084528301526208aa8960eb1b6040830152600080516020613c8c83398151915260603393a36001600055005b60405162461bcd60e51b8152600481018490526011602482015270115512081c99599d5b990819985a5b1959607a1b6044820152606490fd5b90508b610b6f565b600484526040600020548116330361254457836124976000928584526004835260016040852091612461600284019761245060ff8a54161561397d565b6123736003860154600954906139f8565b600c54929091015460405163a9059cbb60e01b815233600482015260248101919091529485939190921691839182906044820190565b03925af190811561050b57600091612527575b50156124ed57600160ff19825416179055600460405192808452830152635553444360e01b6040830152600080516020613c8c83398151915260603393a3610d43565b60405162461bcd60e51b81526004810184905260126024820152711554d110c81c99599d5b990819985a5b195960721b6044820152606490fd5b61253e9150843d861161085d5761084f8183613580565b846124aa565b60405162461bcd60e51b815260048101859052601760248201527f4e6f7420796f75722063727970746f206465706f7369740000000000000000006044820152606490fd5b346102b05760e03660031901126102b0576125a261346a565b60443590606435916084359160a4359081151582036102b0576125c36135e9565b6125cb6135a2565b6004356000908152600660205260409020546001600160a01b031661287f57841561283b576001600160a01b031691823b156102b0576040516323b872dd60e01b81523360048201523060248201526044810182905260008160648183885af1801561050b5761282c575b506040519261264484613547565b33845260208401526040830152836060830152826080830152600860a0830152600060c0830152600060e083015260006101008301526000610120830152600061014083015260006101608301524261018083015215156101a082015260c4356101c0820152600435600052600660205260096101c060406000209260018060a01b038151166001600160601b0360a01b9081865416178555600185019060018060a01b03602084015116908254161790556040810151600285015560608101516003850155608081015160048501556005840160ff60a08301511660ff1982541617815561274b60ff60c084015116829061ff0082549160081b169061ff001916179055565b60e0820151815461010084015161012085015161014086015162010000600160c81b031990931662010000600160b01b0360109590951b949094169390931790151560b01b60ff60b01b161791151560b81b60ff60b81b169190911790151560c01b60ff60c01b16179055610160810151600685015561018081015160078501556101a081015160088501805491151560ff1660ff19929092169190911790550151910155604051918252602082015233907ff15d27052defdf681ad3a61e08def698543fd3c5ed921cbedf9f0c5a8edfcf66604060043592a36001600055005b61283590613533565b85612636565b606460405162461bcd60e51b815260206004820152602060248201527f456e74727920666565206d7573742062652067726561746572207468616e20306044820152fd5b60405162461bcd60e51b815260206004820152601360248201527247616d6520616c72656164792065786973747360681b6044820152606490fd5b346102b05760403660031901126102b0576004356128d661346a565b906128df613496565b600081815260036020526040902080546001600160a01b0391908216156129b05760008080806001600286019561291a60ff8854161561397d565b0154885af16129276138f1565b501561297557600080516020613c8c83398151915291606091600160ff198254161790556040519460208652600d60208701526c4554485f454d455247454e435960981b60408701521693a3005b60405162461bcd60e51b8152602060048201526013602482015272115512081d1c985b9cd9995c8819985a5b1959606a1b6044820152606490fd5b60405162461bcd60e51b815260206004820152601060248201526f139bc81155120819195c1bdcda5d195960821b6044820152606490fd5b346102b05760203660031901126102b057600435612a046135e9565b8060005260066020526040600020600260018060a01b03612a29818454163314613b48565b600583018054612a3f60ff8260b01c16156139bb565b612a4f60ff8260c01c1615613bc6565b612a6360ff821660ff8360081c1610613ad1565b60ff60c01b1916600160c01b179055600183015491909201549116803b156102b0576040516323b872dd60e01b815230600482015233602482015260448101929092526000908290606490829084905af1801561050b57612af9575b5060405190602082526006602083015265109497d3919560d21b6040830152600080516020613c8c83398151915260603393a36001600055005b612b0290613533565b81612abf565b346102b05760003660031901126102b0576020600954604051908152f35b346102b05760003660031901126102b057602060ff60015460a01c166040519015158152f35b346102b05760403660031901126102b0576020612b72612b6a61346a565b600435613c08565b6040519015158152f35b346102b05760203660031901126102b0576004356000526005602052606060406000206001815491015460ff6040519260018060a01b038116845260a01c16151560208301526040820152f35b346102b05760003660031901126102b057612be2613496565b60015460ff8160a01c1615612c295760ff60a01b19166001556040513381527f5db9ee0a495bf2e6ff9c91a7834c1ba4fdd244a5e8aa4e537bd38aeae4b073aa90602090a1005b60405162461bcd60e51b815260206004820152601460248201527314185d5cd8589b194e881b9bdd081c185d5cd95960621b6044820152606490fd5b346102b0576020806003193601126102b057600435612c826135e9565b8060005260058252600191612ca58360ff60406000205460a01c16151514613890565b60008281526005825260409020546001600160a01b03919082163303613099578260005260028152604060002090600382019160ff83541661305457600284878301541691015490803b156102b0576040516323b872dd60e01b815230600482015233602482015260448101929092526000908290606490829084905af1801561050b57613045575b50815460ff1990811686179092556000848152600382526040902054831615612e6c578360005260038152604060002092600284019360ff855416612e31576000808093612da7828080808e81990154612d98612710612d90600a54846138d1565b0480926138e4565b96600b54165af1611a1b6138f1565b335af1612db26138f1565b5015612ded5750815416831790555b33907f255898c86cfbf62a32125aa6ad84b1687328b28c83569cd720d2d89453337f1a600080a3600055005b6064906040519062461bcd60e51b82526004820152601a60248201527f57696e6e657220455448207472616e73666572206661696c65640000000000006044820152fd5b60405162461bcd60e51b815260048101849052601360248201527211551208185b1c9958591e4818db185a5b5959606a1b6044820152606490fd5b60048152604060002092600284019360ff85541661300957860154612e99612710612d90600a54846138d1565b600c54600b5460405163a9059cbb60e01b8082529186166001600160a01b0316600482015260248101949094529193919290859082908416816000816044810103925af190811561050b57600091612fec575b5015612f9d57600c5460405192835233600484015260248301939093529091839183916044918391600091165af190811561050b57600091612f80575b5015612f3c575081541683179055612dc1565b6064906040519062461bcd60e51b82526004820152601b60248201527f57696e6e65722055534443207472616e73666572206661696c656400000000006044820152fd5b612f979150823d841161085d5761084f8183613580565b86612f29565b60405162461bcd60e51b815260048101859052602160248201527f506c6174666f726d205553444320666565207472616e73666572206661696c656044820152601960fa1b6064820152608490fd5b6130039150853d871161085d5761084f8183613580565b89612eec565b60405162461bcd60e51b81526004810184905260146024820152731554d110c8185b1c9958591e4818db185a5b595960621b6044820152606490fd5b61304e90613533565b85612d2e565b60405162461bcd60e51b815260048101839052601860248201527f57696e6e696e677320616c726561647920636c61696d656400000000000000006044820152606490fd5b6064906040519062461bcd60e51b82526004820152601860248201527f4f6e6c792077696e6e65722063616e20776974686472617700000000000000006044820152fd5b346102b05760003660031901126102b057600b546040516001600160a01b039091168152602090f35b346102b05760203660031901126102b05761311f613496565b600435600955005b346102b05760203660031901126102b057600480356000908152602091825260409081902080546001820154600283015460039093015484516001600160a01b0390931683529482015260ff9091161515918101919091526060810191909152608090f35b346102b05760203660031901126102b057600435600052600260205260a06040600020600180831b03908181541691600182015416906002810154600460ff6003840154169201549260405194855260208501526040840152151560608301526080820152f35b346102b05760003660031901126102b057600c546040516001600160a01b039091168152602090f35b346102b0576060806003193601126102b05767ffffffffffffffff6004358181116102b05761324f903690600401613439565b9290916024358181116102b05761326a903690600401613439565b9490916044359081116102b057613285903690600401613439565b919092613290613496565b8682036133e55782820361338f5760005b8281106132aa57005b6001600160a01b0390816132c261044083878c613a55565b16916132d261044083888a613a55565b6132dd838c87613a55565b35843b156102b0576040516323b872dd60e01b81523060048201526001600160a01b039290921660248301526044820152926000908490606490829084905af192831561050b5761337b93613380575b5061333c61044083888a613a55565b166000600080516020613c8c83398151915289604051601060208083528201526f09c8ca8be8892a48a86a8be8482a886960831b6040820152a3613a46565b6132a1565b61338990613533565b8a61332d565b60405162461bcd60e51b815260206004820152602860248201527f436f6e74726163747320616e6420726563697069656e7473206c656e677468206044820152670dad2e6dac2e8c6d60c31b6064820152608490fd5b60405162461bcd60e51b815260206004820152602660248201527f436f6e74726163747320616e6420746f6b656e496473206c656e677468206d696044820152650e6dac2e8c6d60d31b6064820152608490fd5b9181601f840112156102b05782359167ffffffffffffffff83116102b0576020808501948460051b0101116102b057565b602435906001600160a01b03821682036102b057565b600435906001600160a01b03821682036102b057565b6001546001600160a01b031633036134aa57565b606460405162461bcd60e51b815260206004820152602060248201527f4f776e61626c653a2063616c6c6572206973206e6f7420746865206f776e65726044820152fd5b156134f557565b60405162461bcd60e51b815260206004820152601660248201527511d85b5948185b1c9958591e4818dbdb5c1b195d195960521b6044820152606490fd5b67ffffffffffffffff811161077d57604052565b6101e0810190811067ffffffffffffffff82111761077d57604052565b6080810190811067ffffffffffffffff82111761077d57604052565b90601f8019910116810190811067ffffffffffffffff82111761077d57604052565b60ff60015460a01c166135b157565b60405162461bcd60e51b815260206004820152601060248201526f14185d5cd8589b194e881c185d5cd95960821b6044820152606490fd5b6002600054146135fa576002600055565b60405162461bcd60e51b815260206004820152601f60248201527f5265656e7472616e637947756172643a207265656e7472616e742063616c6c006044820152606490fd5b1561364657565b60405162461bcd60e51b815260206004820152602360248201527f45544820616c7265616479206465706f736974656420666f7220746869732067604482015262616d6560e81b6064820152608490fd5b1561369e57565b60405162461bcd60e51b8152602060048201526024808201527f5553444320616c7265616479206465706f736974656420666f7220746869732060448201526367616d6560e01b6064820152608490fd5b90606060039160018060a01b038151166001600160601b0360a01b8554161784556020810151600185015561373960408201511515600286019060ff801983541691151516179055565b0151910155565b908160209103126102b0575180151581036102b05790565b1561375f57565b60405162461bcd60e51b81526020600482015260146024820152731554d110c81d1c985b9cd9995c8819985a5b195960621b6044820152606490fd5b60008181526002602090815260408083205460038352818420546001600160a01b039491851615159085161580159061387e575b81613876575b506137e2575b5050505050565b7f1c659750f340e5299f05cfafea9d901858d47405bba10a4235f7b0d2247f144893826138579260038652828282205416151560001461386457878152600386526002838383205416965b89835252205492516001600160a01b03919093168116835290921660208201529081906040820190565b0390a238808080806137db565b6004865260028383832054169661382d565b9050386137d5565b506004845284838320541615156137cf565b1561389757565b60405162461bcd60e51b815260206004820152601260248201527111d85b59481b9bdd0818dbdb5c1b195d195960721b6044820152606490fd5b818102929181159184041417156110cd57565b919082039182116110cd57565b3d1561392c573d9067ffffffffffffffff821161077d5760405191613920601f8201601f191660200184613580565b82523d6000602084013e565b606090565b1561393857565b60405162461bcd60e51b815260206004820152601c60248201527f506c6174666f726d20666565207472616e73666572206661696c6564000000006044820152606490fd5b1561398457565b60405162461bcd60e51b815260206004820152600f60248201526e105b1c9958591e4818db185a5b5959608a1b6044820152606490fd5b156139c257565b60405162461bcd60e51b815260206004820152600e60248201526d11d85b594818dbdb5c1b195d195960921b6044820152606490fd5b919082018092116110cd57565b15613a0c57565b60405162461bcd60e51b815260206004820152601260248201527110d85b9b9bdd081c9958db185a5b481e595d60721b6044820152606490fd5b60001981146110cd5760010190565b9190811015613a655760051b0190565b634e487b7160e01b600052603260045260246000fd5b356001600160a01b03811681036102b05790565b15613a9657565b60405162461bcd60e51b815260206004820152601360248201527211d85b5948191bd95cc81b9bdd08195e1a5cdd606a1b6044820152606490fd5b15613ad857565b60405162461bcd60e51b815260206004820152600c60248201526b11d85b59481a5cc8199d5b1b60a21b6044820152606490fd5b15613b1357565b60405162461bcd60e51b815260206004820152600d60248201526c1499599d5b990819985a5b1959609a1b6044820152606490fd5b15613b4f57565b60405162461bcd60e51b815260206004820152600f60248201526e2737ba103a34329031b932b0ba37b960891b6044820152606490fd5b15613b8d57565b60405162461bcd60e51b815260206004820152601160248201527020b63932b0b23c903bb4ba34323930bbb760791b6044820152606490fd5b15613bcd57565b60405162461bcd60e51b815260206004820152601360248201527213919508185b1c9958591e4818db185a5b5959606a1b6044820152606490fd5b600091818352600660205260408320916007602052604084209160018060a01b03169182855260205260ff60408520541615613c85578352600860205260408320908352602052604082205415613c815760059150015460ff811660ff8260081c1610908115613c76575090565b60ff915060c01c1690565b5090565b5050509056feb9389f406fe2f12fee7d080bbb0bc247c61f84511a9f00d2589ec9bd002507f6a2646970667358221220f2bc6575c72504fbecd0c2e417a02f3c8804b8255813908c3bc3cfab393fca5164736f6c63430008140033",
  "linkReferences": {},
  "deployedLinkReferences": {}
}