{
  "_format": "hh-sol-artifact-1",
  "contractName": "NFTFlipGame",
  "sourceName": "contracts/NFTFlipGame.sol",
  "abi": [
    {
      "inputs": [
        {
          "internalType": "address",
          "name": "_platformFeeReceiver",
          "type": "address"
        },
        {
          "internalType": "address",
          "name": "_usdcToken",
          "type": "address"
        }
      ],
      "stateMutability": "nonpayable",
      "type": "constructor"
    },
    {
      "anonymous": false,
      "inputs": [
        {
          "indexed": true,
          "internalType": "bytes32",
          "name": "gameId",
          "type": "bytes32"
        },
        {
          "indexed": true,
          "internalType": "address",
          "name": "reclaimer",
          "type": "address"
        },
        {
          "indexed": false,
          "internalType": "string",
          "name": "assetType",
          "type": "string"
        }
      ],
      "name": "AssetsReclaimed",
      "type": "event"
    },
    {
      "anonymous": false,
      "inputs": [
        {
          "indexed": true,
          "internalType": "bytes32",
          "name": "gameId",
          "type": "bytes32"
        },
        {
          "indexed": true,
          "internalType": "address",
          "name": "winner",
          "type": "address"
        }
      ],
      "name": "BattleRoyaleCompleted",
      "type": "event"
    },
    {
      "anonymous": false,
      "inputs": [
        {
          "indexed": true,
          "internalType": "bytes32",
          "name": "gameId",
          "type": "bytes32"
        },
        {
          "indexed": true,
          "internalType": "address",
          "name": "creator",
          "type": "address"
        },
        {
          "indexed": false,
          "internalType": "uint256",
          "name": "entryFee",
          "type": "uint256"
        },
        {
          "indexed": false,
          "internalType": "uint256",
          "name": "serviceFee",
          "type": "uint256"
        }
      ],
      "name": "BattleRoyaleCreated",
      "type": "event"
    },
    {
      "anonymous": false,
      "inputs": [
        {
          "indexed": true,
          "internalType": "bytes32",
          "name": "gameId",
          "type": "bytes32"
        },
        {
          "indexed": true,
          "internalType": "address",
          "name": "creator",
          "type": "address"
        },
        {
          "indexed": false,
          "internalType": "uint256",
          "name": "amount",
          "type": "uint256"
        }
      ],
      "name": "BattleRoyaleCreatorPaid",
      "type": "event"
    },
    {
      "anonymous": false,
      "inputs": [
        {
          "indexed": true,
          "internalType": "bytes32",
          "name": "gameId",
          "type": "bytes32"
        },
        {
          "indexed": true,
          "internalType": "address",
          "name": "player",
          "type": "address"
        },
        {
          "indexed": false,
          "internalType": "uint256",
          "name": "amount",
          "type": "uint256"
        }
      ],
      "name": "BattleRoyaleJoined",
      "type": "event"
    },
    {
      "anonymous": false,
      "inputs": [
        {
          "indexed": true,
          "internalType": "bytes32",
          "name": "gameId",
          "type": "bytes32"
        },
        {
          "indexed": true,
          "internalType": "address",
          "name": "winner",
          "type": "address"
        }
      ],
      "name": "BattleRoyaleNFTClaimed",
      "type": "event"
    },
    {
      "anonymous": false,
      "inputs": [
        {
          "indexed": true,
          "internalType": "bytes32",
          "name": "gameId",
          "type": "bytes32"
        },
        {
          "indexed": false,
          "internalType": "uint8",
          "name": "playerCount",
          "type": "uint8"
        }
      ],
      "name": "BattleRoyaleStarted",
      "type": "event"
    },
    {
      "anonymous": false,
      "inputs": [
        {
          "indexed": true,
          "internalType": "bytes32",
          "name": "gameId",
          "type": "bytes32"
        },
        {
          "indexed": true,
          "internalType": "address",
          "name": "depositor",
          "type": "address"
        },
        {
          "indexed": false,
          "internalType": "uint256",
          "name": "amount",
          "type": "uint256"
        }
      ],
      "name": "ETHDeposited",
      "type": "event"
    },
    {
      "anonymous": false,
      "inputs": [
        {
          "indexed": true,
          "internalType": "bytes32",
          "name": "gameId",
          "type": "bytes32"
        },
        {
          "indexed": true,
          "internalType": "address",
          "name": "winner",
          "type": "address"
        }
      ],
      "name": "GameCompleted",
      "type": "event"
    },
    {
      "anonymous": false,
      "inputs": [
        {
          "indexed": true,
          "internalType": "bytes32",
          "name": "gameId",
          "type": "bytes32"
        },
        {
          "indexed": false,
          "internalType": "address",
          "name": "nftDepositor",
          "type": "address"
        },
        {
          "indexed": false,
          "internalType": "address",
          "name": "cryptoDepositor",
          "type": "address"
        }
      ],
      "name": "GameReady",
      "type": "event"
    },
    {
      "anonymous": false,
      "inputs": [
        {
          "indexed": true,
          "internalType": "bytes32",
          "name": "gameId",
          "type": "bytes32"
        },
        {
          "indexed": true,
          "internalType": "address",
          "name": "depositor",
          "type": "address"
        },
        {
          "indexed": false,
          "internalType": "address",
          "name": "nftContract",
          "type": "address"
        },
        {
          "indexed": false,
          "internalType": "uint256",
          "name": "tokenId",
          "type": "uint256"
        }
      ],
      "name": "NFTDeposited",
      "type": "event"
    },
    {
      "anonymous": false,
      "inputs": [
        {
          "indexed": true,
          "internalType": "address",
          "name": "previousOwner",
          "type": "address"
        },
        {
          "indexed": true,
          "internalType": "address",
          "name": "newOwner",
          "type": "address"
        }
      ],
      "name": "OwnershipTransferred",
      "type": "event"
    },
    {
      "anonymous": false,
      "inputs": [
        {
          "indexed": false,
          "internalType": "address",
          "name": "account",
          "type": "address"
        }
      ],
      "name": "Paused",
      "type": "event"
    },
    {
      "anonymous": false,
      "inputs": [
        {
          "indexed": true,
          "internalType": "bytes32",
          "name": "gameId",
          "type": "bytes32"
        },
        {
          "indexed": true,
          "internalType": "address",
          "name": "depositor",
          "type": "address"
        },
        {
          "indexed": false,
          "internalType": "uint256",
          "name": "amount",
          "type": "uint256"
        }
      ],
      "name": "USDCDeposited",
      "type": "event"
    },
    {
      "anonymous": false,
      "inputs": [
        {
          "indexed": false,
          "internalType": "address",
          "name": "account",
          "type": "address"
        }
      ],
      "name": "Unpaused",
      "type": "event"
    },
    {
      "anonymous": false,
      "inputs": [
        {
          "indexed": true,
          "internalType": "bytes32",
          "name": "gameId",
          "type": "bytes32"
        },
        {
          "indexed": true,
          "internalType": "address",
          "name": "winner",
          "type": "address"
        }
      ],
      "name": "WinningsWithdrawn",
      "type": "event"
    },
    {
      "inputs": [],
      "name": "BASIS_POINTS",
      "outputs": [
        {
          "internalType": "uint256",
          "name": "",
          "type": "uint256"
        }
      ],
      "stateMutability": "view",
      "type": "function"
    },
    {
      "inputs": [
        {
          "internalType": "bytes32[]",
          "name": "gameIds",
          "type": "bytes32[]"
        },
        {
          "internalType": "address[]",
          "name": "recipients",
          "type": "address[]"
        }
      ],
      "name": "adminBatchWithdrawNFTs",
      "outputs": [],
      "stateMutability": "nonpayable",
      "type": "function"
    },
    {
      "inputs": [
        {
          "internalType": "bytes32",
          "name": "",
          "type": "bytes32"
        },
        {
          "internalType": "address",
          "name": "",
          "type": "address"
        }
      ],
      "name": "battleRoyaleEntries",
      "outputs": [
        {
          "internalType": "bool",
          "name": "",
          "type": "bool"
        }
      ],
      "stateMutability": "view",
      "type": "function"
    },
    {
      "inputs": [
        {
          "internalType": "bytes32",
          "name": "",
          "type": "bytes32"
        },
        {
          "internalType": "address",
          "name": "",
          "type": "address"
        }
      ],
      "name": "battleRoyaleEntryAmounts",
      "outputs": [
        {
          "internalType": "uint256",
          "name": "",
          "type": "uint256"
        }
      ],
      "stateMutability": "view",
      "type": "function"
    },
    {
      "inputs": [
        {
          "internalType": "bytes32",
          "name": "",
          "type": "bytes32"
        }
      ],
      "name": "battleRoyaleGames",
      "outputs": [
        {
          "internalType": "address",
          "name": "creator",
          "type": "address"
        },
        {
          "internalType": "address",
          "name": "nftContract",
          "type": "address"
        },
        {
          "internalType": "uint256",
          "name": "tokenId",
          "type": "uint256"
        },
        {
          "internalType": "uint256",
          "name": "entryFee",
          "type": "uint256"
        },
        {
          "internalType": "uint256",
          "name": "serviceFee",
          "type": "uint256"
        },
        {
          "internalType": "uint8",
          "name": "maxPlayers",
          "type": "uint8"
        },
        {
          "internalType": "uint8",
          "name": "currentPlayers",
          "type": "uint8"
        },
        {
          "internalType": "address",
          "name": "winner",
          "type": "address"
        },
        {
          "internalType": "bool",
          "name": "completed",
          "type": "bool"
        },
        {
          "internalType": "bool",
          "name": "creatorPaid",
          "type": "bool"
        },
        {
          "internalType": "bool",
          "name": "nftClaimed",
          "type": "bool"
        },
        {
          "internalType": "uint256",
          "name": "totalPool",
          "type": "uint256"
        },
        {
          "internalType": "uint256",
          "name": "createdAt",
          "type": "uint256"
        }
      ],
      "stateMutability": "view",
      "type": "function"
    },
    {
      "inputs": [
        {
          "internalType": "bytes32",
          "name": "gameId",
          "type": "bytes32"
        },
        {
          "internalType": "address",
          "name": "winner",
          "type": "address"
        }
      ],
      "name": "completeBattleRoyale",
      "outputs": [],
      "stateMutability": "nonpayable",
      "type": "function"
    },
    {
      "inputs": [
        {
          "internalType": "bytes32",
          "name": "gameId",
          "type": "bytes32"
        },
        {
          "internalType": "address",
          "name": "winner",
          "type": "address"
        }
      ],
      "name": "completeGame",
      "outputs": [],
      "stateMutability": "nonpayable",
      "type": "function"
    },
    {
      "inputs": [
        {
          "internalType": "bytes32",
          "name": "gameId",
          "type": "bytes32"
        },
        {
          "internalType": "address",
          "name": "nftContract",
          "type": "address"
        },
        {
          "internalType": "uint256",
          "name": "tokenId",
          "type": "uint256"
        },
        {
          "internalType": "uint256",
          "name": "entryFee",
          "type": "uint256"
        },
        {
          "internalType": "uint256",
          "name": "serviceFee",
          "type": "uint256"
        }
      ],
      "name": "createBattleRoyale",
      "outputs": [],
      "stateMutability": "nonpayable",
      "type": "function"
    },
    {
      "inputs": [
        {
          "internalType": "bytes32",
          "name": "gameId",
          "type": "bytes32"
        }
      ],
      "name": "depositETH",
      "outputs": [],
      "stateMutability": "payable",
      "type": "function"
    },
    {
      "inputs": [
        {
          "internalType": "bytes32",
          "name": "gameId",
          "type": "bytes32"
        },
        {
          "internalType": "address",
          "name": "nftContract",
          "type": "address"
        },
        {
          "internalType": "uint256",
          "name": "tokenId",
          "type": "uint256"
        }
      ],
      "name": "depositNFT",
      "outputs": [],
      "stateMutability": "nonpayable",
      "type": "function"
    },
    {
      "inputs": [],
      "name": "depositTimeout",
      "outputs": [
        {
          "internalType": "uint256",
          "name": "",
          "type": "uint256"
        }
      ],
      "stateMutability": "view",
      "type": "function"
    },
    {
      "inputs": [
        {
          "internalType": "bytes32",
          "name": "gameId",
          "type": "bytes32"
        },
        {
          "internalType": "uint256",
          "name": "amount",
          "type": "uint256"
        }
      ],
      "name": "depositUSDC",
      "outputs": [],
      "stateMutability": "nonpayable",
      "type": "function"
    },
    {
      "inputs": [
        {
          "internalType": "address[]",
          "name": "nftContracts",
          "type": "address[]"
        },
        {
          "internalType": "uint256[]",
          "name": "tokenIds",
          "type": "uint256[]"
        },
        {
          "internalType": "address[]",
          "name": "recipients",
          "type": "address[]"
        }
      ],
      "name": "directBatchTransferNFTs",
      "outputs": [],
      "stateMutability": "nonpayable",
      "type": "function"
    },
    {
      "inputs": [
        {
          "internalType": "address",
          "name": "nftContract",
          "type": "address"
        },
        {
          "internalType": "uint256",
          "name": "tokenId",
          "type": "uint256"
        },
        {
          "internalType": "address",
          "name": "recipient",
          "type": "address"
        }
      ],
      "name": "directTransferNFT",
      "outputs": [],
      "stateMutability": "nonpayable",
      "type": "function"
    },
    {
      "inputs": [
        {
          "internalType": "bytes32",
          "name": "gameId",
          "type": "bytes32"
        },
        {
          "internalType": "address",
          "name": "recipient",
          "type": "address"
        }
      ],
      "name": "emergencyWithdrawETH",
      "outputs": [],
      "stateMutability": "nonpayable",
      "type": "function"
    },
    {
      "inputs": [
        {
          "internalType": "bytes32",
          "name": "gameId",
          "type": "bytes32"
        },
        {
          "internalType": "address",
          "name": "recipient",
          "type": "address"
        }
      ],
      "name": "emergencyWithdrawNFT",
      "outputs": [],
      "stateMutability": "nonpayable",
      "type": "function"
    },
    {
      "inputs": [
        {
          "internalType": "bytes32",
          "name": "gameId",
          "type": "bytes32"
        },
        {
          "internalType": "address",
          "name": "recipient",
          "type": "address"
        }
      ],
      "name": "emergencyWithdrawUSDC",
      "outputs": [],
      "stateMutability": "nonpayable",
      "type": "function"
    },
    {
      "inputs": [
        {
          "internalType": "bytes32",
          "name": "",
          "type": "bytes32"
        }
      ],
      "name": "ethDeposits",
      "outputs": [
        {
          "internalType": "address",
          "name": "depositor",
          "type": "address"
        },
        {
          "internalType": "uint256",
          "name": "amount",
          "type": "uint256"
        },
        {
          "internalType": "bool",
          "name": "claimed",
          "type": "bool"
        },
        {
          "internalType": "uint256",
          "name": "depositTime",
          "type": "uint256"
        }
      ],
      "stateMutability": "view",
      "type": "function"
    },
    {
      "inputs": [
        {
          "internalType": "bytes32",
          "name": "",
          "type": "bytes32"
        }
      ],
      "name": "gameResults",
      "outputs": [
        {
          "internalType": "address",
          "name": "winner",
          "type": "address"
        },
        {
          "internalType": "bool",
          "name": "completed",
          "type": "bool"
        },
        {
          "internalType": "uint256",
          "name": "completionTime",
          "type": "uint256"
        }
      ],
      "stateMutability": "view",
      "type": "function"
    },
    {
      "inputs": [
        {
          "internalType": "bytes32",
          "name": "gameId",
          "type": "bytes32"
        },
        {
          "internalType": "address",
          "name": "player",
          "type": "address"
        }
      ],
      "name": "getBattleRoyaleEntryAmount",
      "outputs": [
        {
          "internalType": "uint256",
          "name": "",
          "type": "uint256"
        }
      ],
      "stateMutability": "view",
      "type": "function"
    },
    {
      "inputs": [
        {
          "internalType": "bytes32",
          "name": "gameId",
          "type": "bytes32"
        }
      ],
      "name": "getBattleRoyaleGame",
      "outputs": [
        {
          "components": [
            {
              "internalType": "address",
              "name": "creator",
              "type": "address"
            },
            {
              "internalType": "address",
              "name": "nftContract",
              "type": "address"
            },
            {
              "internalType": "uint256",
              "name": "tokenId",
              "type": "uint256"
            },
            {
              "internalType": "uint256",
              "name": "entryFee",
              "type": "uint256"
            },
            {
              "internalType": "uint256",
              "name": "serviceFee",
              "type": "uint256"
            },
            {
              "internalType": "uint8",
              "name": "maxPlayers",
              "type": "uint8"
            },
            {
              "internalType": "uint8",
              "name": "currentPlayers",
              "type": "uint8"
            },
            {
              "internalType": "address",
              "name": "winner",
              "type": "address"
            },
            {
              "internalType": "bool",
              "name": "completed",
              "type": "bool"
            },
            {
              "internalType": "bool",
              "name": "creatorPaid",
              "type": "bool"
            },
            {
              "internalType": "bool",
              "name": "nftClaimed",
              "type": "bool"
            },
            {
              "internalType": "uint256",
              "name": "totalPool",
              "type": "uint256"
            },
            {
              "internalType": "uint256",
              "name": "createdAt",
              "type": "uint256"
            }
          ],
          "internalType": "struct NFTFlipGame.BattleRoyaleGame",
          "name": "",
          "type": "tuple"
        }
      ],
      "stateMutability": "view",
      "type": "function"
    },
    {
      "inputs": [
        {
          "internalType": "bytes32",
          "name": "gameId",
          "type": "bytes32"
        }
      ],
      "name": "getGameParticipants",
      "outputs": [
        {
          "internalType": "address",
          "name": "nftPlayer",
          "type": "address"
        },
        {
          "internalType": "address",
          "name": "cryptoPlayer",
          "type": "address"
        }
      ],
      "stateMutability": "view",
      "type": "function"
    },
    {
      "inputs": [
        {
          "internalType": "bytes32",
          "name": "gameId",
          "type": "bytes32"
        },
        {
          "internalType": "address",
          "name": "player",
          "type": "address"
        }
      ],
      "name": "hasBattleRoyaleEntry",
      "outputs": [
        {
          "internalType": "bool",
          "name": "",
          "type": "bool"
        }
      ],
      "stateMutability": "view",
      "type": "function"
    },
    {
      "inputs": [
        {
          "internalType": "bytes32",
          "name": "gameId",
          "type": "bytes32"
        }
      ],
      "name": "isGameReady",
      "outputs": [
        {
          "internalType": "bool",
          "name": "",
          "type": "bool"
        }
      ],
      "stateMutability": "view",
      "type": "function"
    },
    {
      "inputs": [
        {
          "internalType": "bytes32",
          "name": "gameId",
          "type": "bytes32"
        }
      ],
      "name": "joinBattleRoyale",
      "outputs": [],
      "stateMutability": "payable",
      "type": "function"
    },
    {
      "inputs": [
        {
          "internalType": "bytes32",
          "name": "",
          "type": "bytes32"
        }
      ],
      "name": "nftDeposits",
      "outputs": [
        {
          "internalType": "address",
          "name": "depositor",
          "type": "address"
        },
        {
          "internalType": "address",
          "name": "nftContract",
          "type": "address"
        },
        {
          "internalType": "uint256",
          "name": "tokenId",
          "type": "uint256"
        },
        {
          "internalType": "bool",
          "name": "claimed",
          "type": "bool"
        },
        {
          "internalType": "uint256",
          "name": "depositTime",
          "type": "uint256"
        }
      ],
      "stateMutability": "view",
      "type": "function"
    },
    {
      "inputs": [],
      "name": "owner",
      "outputs": [
        {
          "internalType": "address",
          "name": "",
          "type": "address"
        }
      ],
      "stateMutability": "view",
      "type": "function"
    },
    {
      "inputs": [],
      "name": "pause",
      "outputs": [],
      "stateMutability": "nonpayable",
      "type": "function"
    },
    {
      "inputs": [],
      "name": "paused",
      "outputs": [
        {
          "internalType": "bool",
          "name": "",
          "type": "bool"
        }
      ],
      "stateMutability": "view",
      "type": "function"
    },
    {
      "inputs": [],
      "name": "platformFeePercent",
      "outputs": [
        {
          "internalType": "uint256",
          "name": "",
          "type": "uint256"
        }
      ],
      "stateMutability": "view",
      "type": "function"
    },
    {
      "inputs": [],
      "name": "platformFeeReceiver",
      "outputs": [
        {
          "internalType": "address",
          "name": "",
          "type": "address"
        }
      ],
      "stateMutability": "view",
      "type": "function"
    },
    {
      "inputs": [
        {
          "internalType": "bytes32",
          "name": "gameId",
          "type": "bytes32"
        }
      ],
      "name": "reclaimBattleRoyaleNFT",
      "outputs": [],
      "stateMutability": "nonpayable",
      "type": "function"
    },
    {
      "inputs": [
        {
          "internalType": "bytes32",
          "name": "gameId",
          "type": "bytes32"
        }
      ],
      "name": "reclaimCrypto",
      "outputs": [],
      "stateMutability": "nonpayable",
      "type": "function"
    },
    {
      "inputs": [
        {
          "internalType": "bytes32",
          "name": "gameId",
          "type": "bytes32"
        }
      ],
      "name": "reclaimNFT",
      "outputs": [],
      "stateMutability": "nonpayable",
      "type": "function"
    },
    {
      "inputs": [],
      "name": "renounceOwnership",
      "outputs": [],
      "stateMutability": "nonpayable",
      "type": "function"
    },
    {
      "inputs": [
        {
          "internalType": "uint256",
          "name": "_timeout",
          "type": "uint256"
        }
      ],
      "name": "setDepositTimeout",
      "outputs": [],
      "stateMutability": "nonpayable",
      "type": "function"
    },
    {
      "inputs": [
        {
          "internalType": "uint256",
          "name": "_feePercent",
          "type": "uint256"
        }
      ],
      "name": "setPlatformFeePercent",
      "outputs": [],
      "stateMutability": "nonpayable",
      "type": "function"
    },
    {
      "inputs": [
        {
          "internalType": "address",
          "name": "_receiver",
          "type": "address"
        }
      ],
      "name": "setPlatformFeeReceiver",
      "outputs": [],
      "stateMutability": "nonpayable",
      "type": "function"
    },
    {
      "inputs": [
        {
          "internalType": "address",
          "name": "newOwner",
          "type": "address"
        }
      ],
      "name": "transferOwnership",
      "outputs": [],
      "stateMutability": "nonpayable",
      "type": "function"
    },
    {
      "inputs": [],
      "name": "unpause",
      "outputs": [],
      "stateMutability": "nonpayable",
      "type": "function"
    },
    {
      "inputs": [
        {
          "internalType": "bytes32",
          "name": "",
          "type": "bytes32"
        }
      ],
      "name": "usdcDeposits",
      "outputs": [
        {
          "internalType": "address",
          "name": "depositor",
          "type": "address"
        },
        {
          "internalType": "uint256",
          "name": "amount",
          "type": "uint256"
        },
        {
          "internalType": "bool",
          "name": "claimed",
          "type": "bool"
        },
        {
          "internalType": "uint256",
          "name": "depositTime",
          "type": "uint256"
        }
      ],
      "stateMutability": "view",
      "type": "function"
    },
    {
      "inputs": [],
      "name": "usdcToken",
      "outputs": [
        {
          "internalType": "address",
          "name": "",
          "type": "address"
        }
      ],
      "stateMutability": "view",
      "type": "function"
    },
    {
      "inputs": [
        {
          "internalType": "bytes32",
          "name": "gameId",
          "type": "bytes32"
        }
      ],
      "name": "withdrawCreatorFunds",
      "outputs": [],
      "stateMutability": "nonpayable",
      "type": "function"
    },
    {
      "inputs": [
        {
          "internalType": "bytes32",
          "name": "gameId",
          "type": "bytes32"
        }
      ],
      "name": "withdrawWinnerNFT",
      "outputs": [],
      "stateMutability": "nonpayable",
      "type": "function"
    },
    {
      "inputs": [
        {
          "internalType": "bytes32",
          "name": "gameId",
          "type": "bytes32"
        }
      ],
      "name": "withdrawWinnings",
      "outputs": [],
      "stateMutability": "nonpayable",
      "type": "function"
    }
  ],
  "bytecode": "0x608034620000eb57601f6200390a38819003918201601f19168301916001600160401b03831184841017620000f0578084926040948552833981010312620000eb576200005a6020620000528362000106565b920162000106565b9060016000556001546040519260018060a01b0391338382167f8be0079c531659141344cd1fd0a4f28419497f9722a3daafe3b4186f6b6457e0600080a36001600160a81b0319163360ff60a01b191617600155607860095561015e600a55600b80546001600160a01b0319908116948416949094179055600c805490931691161790556137ee90816200011c8239f35b600080fd5b634e487b7160e01b600052604160045260246000fd5b51906001600160a01b0382168203620000eb5756fe6080604052600436101561001257600080fd5b6000803560e01c80630c34ecc214612d3f57806310738f7214612b1657806311eac85514612aed57806315e85e6d14612a875780631702e69314610ddb5780631daedc1014612a275780632762737314612a045780632d656ad7146129db57806331b7222c146125615780633f4ba83a146124c45780634989f9be146124785780635c975abb14612452578063615318c71461243457806361a427441461228057806366fa9918146121535780636e6e8e6314611eb857806370217b69146105ad578063715018a614611e5a5780637c34c35514611cd4578063844306a5146119f35780638456cb59146119905780638aa28077146118c85780638c639a85146118aa5780638d3f98e9146117305780638da5cb5b1461170757806391ca238f1461159057806398ebcbd71461142b578063a60ecd6514611223578063aae7413d14611052578063b0f81bb814610f6c578063b136d2e014610e22578063c318decc14610ddb578063cab230d214610d7b578063d68d9d4e14610c56578063de9c692214610ac2578063e0afe01c14610983578063e1850f2a146108a6578063e1f1c4a714610889578063e340977a14610849578063e9df3027146105f9578063eb4742aa146105ad578063ebd9c39c14610549578063ee53e3251461034f578063f2fde38b146102895763f8d732881461020c57600080fd5b3461028657602036600319011261028657600435908181526002602052604060018060a01b039182828220541693600360205283838320541615156000146102775781526003602052205416905b604080516001600160a01b03928316815292909116602083015290f35b5060046020522054169061025a565b80fd5b5034610286576020366003190112610286576102a3613045565b6102ab61308c565b6001600160a01b039081169081156102fb57600154826001600160601b0360a01b821617600155167f8be0079c531659141344cd1fd0a4f28419497f9722a3daafe3b4186f6b6457e0600080a380f35b60405162461bcd60e51b815260206004820152602660248201527f4f776e61626c653a206e6577206f776e657220697320746865207a65726f206160448201526564647265737360d01b6064820152608490fd5b50346102865760403660031901126102865767ffffffffffffffff6004358181116105455761038290369060040161305b565b916024359081116104f55761039b90369060040161305b565b6103a361308c565b80840361050857845b8481106103b7578580f35b6103c2818686613661565b358652600260208181526040882080549093926001600160a01b039182161515806104f9575b6103ff575b5050506103fa9150613652565b6103ac565b896001918383880154169061041d610418888b8d613661565b613687565b90880154823b156104f5576040516323b872dd60e01b81523060048201526001600160a01b0392909216602483015260448201529082908290606490829084905af180156104ea576104d2575b505060036103fa95019060ff198254161790556000805160206137998339815191526060610499858b8b613661565b35926104a9610418878a8c613661565b16936009604051918083528201526809c8ca8be8482a886960bb1b6040820152a33880806103ed565b6104db90613129565b6104e657893861046a565b8980fd5b6040513d84823e3d90fd5b8380fd5b5060ff600386015416156103e8565b60405162461bcd60e51b8152602060048201526015602482015274082e4e4c2f240d8cadccee8d040dad2e6dac2e8c6d605b1b6044820152606490fd5b8280fd5b503461028657602036600319011261028657600435815260036020818152604092839020805460018201546002830154929094015485516001600160a01b0390921682529281019390935260ff161515928201929092526060810191909152608090f35b50346102865760403660031901126102865760406105c961302f565b9160043581526007602052209060018060a01b0316600052602052602060ff604060002054166040519015158152f35b50346102865760403660031901126102865760043561061661302f565b9061061f61308c565b6106276131df565b60405163161f037760e31b8152600481018290526020908181602481305afa90811561083e578591610811575b50156107dc578184526005815261067560ff604086205460a01c16156130e4565b8184526002815260408085205460038352908520546001600160a01b0391821694908216156107c95783865260038352818080604089205416925b169586149182156107bd575b50501561076e5760405191606083019183831067ffffffffffffffff841117610758576001926040528584528184019083825260056040860193428552878a52526040882094511684549160ff60a01b9051151560a01b16916affffffffffffffffffffff60a81b1617178355519101557f0bf6aee0a93e0c0696509fac1649343cafc5bf013811646e438330fe86e4c15f8380a36001815580f35b634e487b7160e01b600052604160045260246000fd5b60405162461bcd60e51b815260048101839052602160248201527f57696e6e6572206d75737420626520612067616d65207061727469636970616e6044820152601d60fa1b6064820152608490fd5b168514905081386106bc565b60048352818080604089205416926106b0565b6064906040519062461bcd60e51b82526004820152600e60248201526d47616d65206e6f7420726561647960901b6044820152fd5b6108319150823d8411610837575b6108298183613176565b810190613336565b38610654565b503d61081f565b6040513d87823e3d90fd5b503461028657602036600319011261028657610863613045565b61086b61308c565b60018060a01b03166001600160601b0360a01b600b541617600b5580f35b503461028657806003193601126102865760206040516127108152f35b5034610286576060366003190112610286576108c0613045565b6001600160a01b03604435818116929183820361097e5784926108e161308c565b16803b15610545576040516323b872dd60e01b81523060048201526001600160a01b039290921660248084019190915235604483015282908290606490829084905af180156104ea57610966575b50600080516020613799833981519152606060405160208152600a60208201526913919517d112549150d560b21b6040820152a380f35b61096f90613129565b61097a57813861092f565b5080fd5b600080fd5b5034610286576020366003190112610286576004356109a06131df565b8082526006602052604082206005810180549091906001600160a01b0333601083901c821603610a8c578593826109de60ff60029560b01c16613486565b6109ee60ff8260c01c1615613756565b60ff60c01b1916600160c01b179055600183015491909201549116803b15610545576040516323b872dd60e01b8152306004820152336024820152604481019290925282908290606490829084905af180156104ea57610a78575b505033907f35963cc381dc9034577db15bae056c65aac30542ec3c7e3fdb5314a6ced258d48380a36001815580f35b610a8190613129565b61097a578138610a49565b60405162461bcd60e51b815260206004820152600e60248201526d2737ba103a3432903bb4b73732b960911b6044820152606490fd5b50346102865760208060031936011261097a57600435610ae06131df565b808352600282526040832080546001600160a01b03919082163303610c2257806002600387930193610b1660ff86541615613589565b85845260058752610b3160ff604086205460a01c16156135c7565b85845260038752806040852054161580610c10575b610b6a90610b5b600486015460095490613604565b42118115610c08575b50613611565b60018301541691015490803b15610545576040516323b872dd60e01b8152306004820152336024820152604481019290925282908290606490829084905af180156104ea57610bf4575b5050600160ff198254161790556003604051928084528301526213919560ea1b604083015260008051602061379983398151915260603393a36001815580f35b610bfd90613129565b6104f5578338610bb4565b905038610b64565b50600487526040842054811615610b46565b60405162461bcd60e51b815260048101859052600c60248201526b139bdd081e5bdd5c8813919560a21b6044820152606490fd5b506020908160031936011261028657600435610c706131df565b610c78613198565b808252600383526040822054610cb0906001600160a01b0390610c9d90821615613235565b828452600485526040842054161561328d565b80825260058352610ccb60ff604084205460a01c16156130e4565b3415610d4157610d3a9192610d09604051610ce58161315a565b338152348382015285604082015242606082015283865260038352604086206132e5565b817f8534743902a2fb19639aba9d7882a1a9b06d7a841874192da0738ce3973db0ae604051923484523393a3613391565b6001815580f35b60405162461bcd60e51b815260048101849052601260248201527109aeae6e840e6cadcc840e6dedaca408aa8960731b6044820152606490fd5b503461028657602036600319011261028657600435610d9861308c565b6103e88111610da757600a5580f35b60405162461bcd60e51b815260206004820152600c60248201526b08ccaca40e8dede40d0d2ced60a31b6044820152606490fd5b5034610286576040366003190112610286576040610df761302f565b9160043581526008602052209060018060a01b03166000526020526020604060002054604051908152f35b503461028657604036600319011261028657600435610e3f61302f565b90610e4861308c565b80835260026020526040832080546001600160a01b039190821615610f3457846003820191610e7b60ff84541615613589565b60028460018301541691015490803b15610545576040516323b872dd60e01b81523060048201526001600160a01b0388166024820152604481019290925282908290606490829084905af180156104ea57610f1c575b505060008051602061379983398151915291606091600160ff198254161790556040519460208652600d60208701526c4e46545f454d455247454e435960981b60408701521693a380f35b610f2590613129565b610f30578438610ed1565b8480fd5b60405162461bcd60e51b815260206004820152601060248201526f139bc81391950819195c1bdcda5d195960821b6044820152606490fd5b50346102865760209081600319360112610286576004358152600282526040812080546001600160a01b03908116151592909183611042575b506003845260408120918083541615159283611032575b508215610ffe575b50604060ff9160058652205460a01c16159082610ff6575b5081610fee575b506040519015158152f35b905038610fe3565b915038610fdc565b60ff919250604090600486528184209081541615159081611023575b50929150610fc4565b8391506002015416153861101a565b6002015460ff1615925038610fbc565b6003015460ff1615925038610fa5565b5034610286576020366003190112610286576040816101a09261018083516110798161313d565b82815282602082015282858201528260608201528260808201528260a08201528260c08201528260e082015282610100820152826101208201528261014082015282610160820152015260043581526006602052206101806040516110dd8161313d565b600760018060a01b038454169384835260018060a01b03600182015416602084015260028101546040840152600381015460608401526004810154608084015260ff600582015481811660a0860152818160081c1660c086015260018060a01b038160101c1660e0860152818160b01c161515610100860152818160b81c16151561012086015260c01c161515610140840152600681015461016084015201548282015260405192835260018060a01b03602082015116602084015260408101516040840152606081015160608401526080810151608084015260ff60a08201511660a084015260ff60c08201511660c084015260018060a01b0360e08201511660e08401526101008101511515610100840152610120810151151561012084015261014081015115156101408401526101608101516101608401520151610180820152f35b50346102865760603660031901126102865760043561124061302f565b906044359161124d6131df565b611255613198565b818452600260205260408420546001600160a01b03939084166113da57828552600560205261128e60ff604087205460a01c16156130e4565b83821693843b156113d6576040516323b872dd60e01b81523360048201523060248201526044810183905286908181606481838b5af180156104ea576113c2575b50506040519460a086019286841067ffffffffffffffff85111761075857610d3a966004876113938b7f3a2446e77599b001d6e7f8d965d64c3ec2c5222ba2a3f1cba8ad884dd7f8349d976113ba97849a60405233875260208701908152604087019188835280604060608a019580875260808b0198428a528152600260205220985116906001600160601b0360a01b91828a54161789556001890192511690825416179055516002860155511515600385019060ff801983541691151516179055565b51910155604080516001600160a01b03909616865260208601919091523394918291820190565b0390a3613391565b6113cb90613129565b6113d65785386112cf565b8580fd5b60405162461bcd60e51b815260206004820152602360248201527f4e465420616c7265616479206465706f736974656420666f7220746869732067604482015262616d6560e81b6064820152608490fd5b50346102865760403660031901126102865760043561144861302f565b9061145161308c565b80835260209160048352604084209060018060a01b0390818354161561155757908291856114cd60028996019461148c60ff87541615613589565b600c546001919091015460405163a9059cbb60e01b81526001600160a01b038616600482015260248101919091529687929186169183919082906044820190565b03925af192831561154c576114fb606094600080516020613799833981519152968a9161152f575b5061334e565b600160ff19825416179055600e604051968088528701526d555344435f454d455247454e435960901b60408701521693a380f35b6115469150893d8b11610837576108298183613176565b386114f5565b6040513d89823e3d90fd5b60405162461bcd60e51b8152600481018690526011602482015270139bc81554d110c819195c1bdcda5d1959607a1b6044820152606490fd5b5034610286576020366003190112610286576004356115ad6131df565b8082526006602052604082209060018060a01b036115cf818454163314613718565b60058301928354936115e660ff8660b01c16613486565b60ff8560b81c166116ce578580809392611640956006839501549161161b612710611613600a54866134c7565b0480946134f0565b60ff60b81b19909a16600160b81b179055600b54165af161163a6134fd565b5061353d565b8280808085335af16116506134fd565b5015611689576040519182527f03d457480f8551b87fa3fd3dbfeff637f118bf3d222020e1fdb01ce64ff2339160203393a36001815580f35b60405162461bcd60e51b815260206004820152601760248201527f43726561746f72207472616e73666572206661696c65640000000000000000006044820152606490fd5b60405162461bcd60e51b815260206004820152601160248201527020b63932b0b23c903bb4ba34323930bbb760791b6044820152606490fd5b50346102865780600319360112610286576001546040516001600160a01b039091168152602090f35b50346102865760403660031901126102865760043561174d61302f565b9061175661308c565b61175e6131df565b80835260066020526040832080546001600160a01b039391600591611786908616151561369b565b0190815461179a60ff8260b01c16156130e4565b60ff8082169160081c160361187157828552600760205260408520938116938460005260205260ff604060002054161561182c57815462010000600160b01b03191660109190911b62010000600160b01b0316178155805460ff60b01b1916600160b01b1790557fa42d11b373a7580964ade0dabdb8ce6cf3ac26374841b17aefc72de0db1c40e08380a36001815580f35b60405162461bcd60e51b815260206004820152601c60248201527f57696e6e6572206d7573742062652061207061727469636970616e74000000006044820152606490fd5b60405162461bcd60e51b815260206004820152601160248201527011d85b59481b9bdd08199d5b1b081e595d607a1b6044820152606490fd5b50346102865780600319360112610286576020600a54604051908152f35b50346102865760203660031901126102865760406101a091600435815260066020522060018060a01b03808254169160ff826001830154169260028301549060038401546004850154906005860154936007600688015497015497604051998a5260208a015260408901526060880152608087015282821660a0870152828260081c1660c08701528160101c1660e0860152818160b01c161515610100860152818160b81c16151561012086015260c01c161515610140840152610160830152610180820152f35b50346102865780600319360112610286576119a961308c565b6119b1613198565b6001805460ff60a01b1916600160a01b1790556040513381527f62e78cea01bee320cd4e420270b5ea74000d11b0c9f74754ebdbfc544b05a25890602090a180f35b50602090816003193601126102865760043591611a0e6131df565b611a16613198565b828252600681526040822080546001600160a01b0316611a3781151561369b565b3314611c8f5760058101938454611a6860ff91611a59838260b01c16156130e4565b828082169160081c16106136dd565b81855260078452604085203360005284528060406000205416611c4a576003830192611a9a8454600483015490613604565b93843410611c0e5783875260078652604087203360005286526040600020600160ff1982541617905583875260088652604087203360005286523460406000205582885460081c16838114611bfa5791611b1e6006899a93611b1360018b9c9b9701869061ff0082549160081b169061ff001916179055565b549201918254613604565b9055604051348152847f2825c53bdc70daeae096202f3e3cbc859d754748a51669ad2d563d4e50948cac843393a35491808360081c1692168214611bc9575b505050803411611b70575b506001815580f35b8180611b7d8193346134f0565b335af1611b886134fd565b5015611b95578181611b68565b6064906040519062461bcd60e51b82526004820152600d60248201526c1499599d5b990819985a5b1959609a1b6044820152fd5b7f420af78d8860bbcb1feabd504fce7e0040d0d422c367cc47b11924866a33759791604051908152a2388084611b5d565b634e487b7160e01b88526011600452602488fd5b60405162461bcd60e51b8152600481018790526014602482015273125b9cdd59999a58da595b9d081c185e5b595b9d60621b6044820152606490fd5b60405162461bcd60e51b815260048101859052601860248201527f416c7265616479206a6f696e656420746869732067616d6500000000000000006044820152606490fd5b60405162461bcd60e51b815260048101839052601c60248201527f43726561746f722063616e6e6f74206a6f696e206f776e2067616d65000000006044820152606490fd5b503461028657604036600319011261028657602435600435611cf46131df565b611cfc613198565b8083526020916004835260018060a01b03611d1d816040872054161561328d565b82855260038452611d348160408720541615613235565b82855260058452611d4f60ff604087205460a01c16156130e4565b8115611e1c57600c546040516323b872dd60e01b815233600482015230602482015260448101849052918591839160649183918a91165af1801561083e57610d3a94611dc47f8f5781fdb49be2343ca56c67e0fa09ece1a4887afb22f1edccd90c3632601c879286948991611e05575061334e565b611df7604051611dd38161315a565b338152858382015288604082015242606082015284895260048352604089206132e5565b6040519384523393a3613391565b6115469150833d8511610837576108298183613176565b60405162461bcd60e51b81526004810185905260166024820152754d757374206465706f73697420736f6d65205553444360501b6044820152606490fd5b5034610286578060031936011261028657611e7361308c565b600180546001600160a01b031981169091556000906001600160a01b03167f8be0079c531659141344cd1fd0a4f28419497f9722a3daafe3b4186f6b6457e08280a380f35b50346102865760208060031936011261097a57600435611ed66131df565b80835260058252611ef160ff604085205460a01c16156135c7565b8083526002825260408084205460038452908420546001600160a01b039182161591903390821603611fe057508184526003835283808080600160408220611f566002820197611f4560ff8a541615613589565b610b5b600384015460095490613604565b0154335af1611f636134fd565b5015611fa757600160ff198254161790556003604051928084528301526208aa8960eb1b604083015260008051602061379983398151915260603393a36001815580f35b60405162461bcd60e51b8152600481018490526011602482015270115512081c99599d5b990819985a5b1959607a1b6044820152606490fd5b6004845260408520548116330361210e57836120628692858452600483526001604085209161202c600284019761201b60ff8a541615613589565b610b5b600386015460095490613604565b600c54929091015460405163a9059cbb60e01b815233600482015260248101919091529485939190921691839182906044820190565b03925af190811561083e5785916120f1575b50156120b757600160ff19825416179055600460405192808452830152635553444360e01b604083015260008051602061379983398151915260603393a3610d3a565b60405162461bcd60e51b81526004810184905260126024820152711554d110c81c99599d5b990819985a5b195960721b6044820152606490fd5b6121089150843d8611610837576108298183613176565b38612074565b60405162461bcd60e51b815260048101859052601760248201527f4e6f7420796f75722063727970746f206465706f7369740000000000000000006044820152606490fd5b50346102865760403660031901126102865760043561217061302f565b9061217961308c565b80835260036020526040832080546001600160a01b0391908216156122485784808080600160028601956121b160ff88541615613589565b0154885af16121be6134fd565b501561220d5760008051602061379983398151915291606091600160ff198254161790556040519460208652600d60208701526c4554485f454d455247454e435960981b60408701521693a380f35b60405162461bcd60e51b8152602060048201526013602482015272115512081d1c985b9cd9995c8819985a5b1959606a1b6044820152606490fd5b60405162461bcd60e51b815260206004820152601060248201526f139bc81155120819195c1bdcda5d195960821b6044820152606490fd5b50346102865760203660031901126102865760043561229d6131df565b80825260066020526040822080546001600160a01b03906122c19082163314613718565b600582019182546122d860ff8260b01c16156135c7565b6122e860ff8260c01c1615613756565b6007820154620151808101809111612420574211156123e45785928161231a60ff6002941660ff8360081c16106136dd565b60ff60c01b1916600160c01b178555600183015491909201549116803b15610545576040516323b872dd60e01b8152306004820152336024820152604481019290925282908290606490829084905af180156104ea576123d0575b50905460081c60ff16905b8181106123c257505060405190602082526006602083015265109497d3919560d21b604083015260008051602061379983398151915260603393a36001815580f35b6123cb90613652565b612380565b6123d990613129565b610545578238612375565b60405162461bcd60e51b8152602060048201526014602482015273546f6f206561726c7920746f207265636c61696d60601b6044820152606490fd5b634e487b7160e01b87526011600452602487fd5b50346102865780600319360112610286576020600954604051908152f35b5034610286578060031936011261028657602060ff60015460a01c166040519015158152f35b503461028657602036600319011261028657604060609160043581526005602052206001815491015460ff6040519260018060a01b038116845260a01c16151560208301526040820152f35b50346102865780600319360112610286576124dd61308c565b60015460ff8160a01c16156125255760ff60a01b19166001556040513381527f5db9ee0a495bf2e6ff9c91a7834c1ba4fdd244a5e8aa4e537bd38aeae4b073aa90602090a180f35b60405162461bcd60e51b815260206004820152601460248201527314185d5cd8589b194e881b9bdd081c185d5cd95960621b6044820152606490fd5b50346102865760208060031936011261097a5760043561257f6131df565b808352600582526001916125a08360ff604087205460a01c16151514613486565b8184526005815260408420546001600160a01b0391908216330361299757828552600281526040852090600382019160ff8354166129525780600285888a9401541691015490803b15610545576040516323b872dd60e01b8152306004820152336024820152604481019290925282908290606490829084905af180156104ea5761293e575b5050815460ff19908116861790925583865260038152604086205483161561275f57838652600381526040862092600284019360ff855416612724578780809361269b828080808e8199015461268c612710612684600a54846134c7565b0480926134f0565b96600b54165af161163a6134fd565b335af16126a66134fd565b50156126e05750815416831790555b33907f255898c86cfbf62a32125aa6ad84b1687328b28c83569cd720d2d89453337f1a8480a3815580f35b6064906040519062461bcd60e51b82526004820152601a60248201527f57696e6e657220455448207472616e73666572206661696c65640000000000006044820152fd5b60405162461bcd60e51b815260048101849052601360248201527211551208185b1c9958591e4818db185a5b5959606a1b6044820152606490fd5b600481526040862092600284019360ff8554166129025786015461278b612710612684600a54846134c7565b600c54600b5460405163a9059cbb60e01b8082529186166001600160a01b0316600482015260248101949094529193919290859082908416818d816044810103925af19081156128f7578a916128da575b501561288b57600c54604051928352336004840152602483019390935290918391839160449183918c91165af190811561154c57879161286e575b501561282a5750815416831790556126b5565b6064906040519062461bcd60e51b82526004820152601b60248201527f57696e6e65722055534443207472616e73666572206661696c656400000000006044820152fd5b6128859150823d8411610837576108298183613176565b38612817565b60405162461bcd60e51b815260048101859052602160248201527f506c6174666f726d205553444320666565207472616e73666572206661696c656044820152601960fa1b6064820152608490fd5b6128f19150853d8711610837576108298183613176565b386127dc565b6040513d8c823e3d90fd5b60405162461bcd60e51b81526004810184905260146024820152731554d110c8185b1c9958591e4818db185a5b595960621b6044820152606490fd5b61294790613129565b6113d6578538612626565b60405162461bcd60e51b815260048101839052601860248201527f57696e6e696e677320616c726561647920636c61696d656400000000000000006044820152606490fd5b6064906040519062461bcd60e51b82526004820152601860248201527f4f6e6c792077696e6e65722063616e20776974686472617700000000000000006044820152fd5b5034610286578060031936011261028657600b546040516001600160a01b039091168152602090f35b503461028657602036600319011261028657612a1e61308c565b60043560095580f35b503461028657602036600319011261028657600480358252602090815260409182902080546001820154600283015460039093015485516001600160a01b0390931683529382015260ff9091161515928101929092526060820152608090f35b503461028657602036600319011261028657604060a0916004358152600260205220600180831b03908181541691600182015416906002810154600460ff6003840154169201549260405194855260208501526040840152151560608301526080820152f35b5034610286578060031936011261028657600c546040516001600160a01b039091168152602090f35b50346102865760608060031936011261097a5767ffffffffffffffff906004358281116104f557612b4b90369060040161305b565b90926024358181116113d657612b6590369060040161305b565b9091604435908111612c9157612b7f90369060040161305b565b929091612b8a61308c565b808503612ceb57838503612c95578790815b868110612ba7578280f35b6001600160a01b039081612bbf610418838b8e613661565b16612bce610418838a8a613661565b612bd9838689613661565b35823b15612c91576040516323b872dd60e01b81523060048201526001600160a01b0392909216602483015260448201529085908290606490829084905af190811561083e578591612c7d575b5050612c7891612c3a610418838a8a613661565b16846000805160206137998339815191528b604051601060208083528201526f09c8ca8be8892a48a86a8be8482a886960831b6040820152a3613652565b612b9c565b612c8690613129565b6104f5578338612c26565b8680fd5b60405162461bcd60e51b815260206004820152602860248201527f436f6e74726163747320616e6420726563697069656e7473206c656e677468206044820152670dad2e6dac2e8c6d60c31b6064820152608490fd5b60405162461bcd60e51b815260206004820152602660248201527f436f6e74726163747320616e6420746f6b656e496473206c656e677468206d696044820152650e6dac2e8c6d60d31b6064820152608490fd5b50346102865760a036600319011261028657612d5961302f565b604435906064359160843591612d6d6131df565b612d75613198565b6004358552600660205260408520546001600160a01b0316612ff4578315612fb0576001600160a01b031690813b15610f30576040516323b872dd60e01b815233600482015230602482015260448101829052858160648183875af18015612fa557612f92575b5060405191612dea8361313d565b33835260208301526040820152826060820152816080820152600860a08201528360c08201528360e08201528361010082015283610120820152836101408201528361016082015242610180820152600435845260066020526007610180604086209260018060a01b038151166001600160601b0360a01b9081865416178555600185019060018060a01b03602084015116908254161790556040810151600285015560608101516003850155608081015160048501556005840160ff60a08301511660ff19825416178155612ed860ff60c084015116829061ff0082549160081b169061ff001916179055565b60e0820151815461010084015161012085015161014086015162010000600160c81b031990931662010000600160b01b0360109590951b949094169390931790151560b01b60ff60b01b161791151560b81b60ff60b81b169190911790151560c01b60ff60c01b16179055610160810151600685015501519101556040805192835260208301919091523391600435917ff15d27052defdf681ad3a61e08def698543fd3c5ed921cbedf9f0c5a8edfcf6691a36001815580f35b612f9e90959195613129565b9338612ddc565b6040513d88823e3d90fd5b606460405162461bcd60e51b815260206004820152602060248201527f456e74727920666565206d7573742062652067726561746572207468616e20306044820152fd5b60405162461bcd60e51b815260206004820152601360248201527247616d6520616c72656164792065786973747360681b6044820152606490fd5b602435906001600160a01b038216820361097e57565b600435906001600160a01b038216820361097e57565b9181601f8401121561097e5782359167ffffffffffffffff831161097e576020808501948460051b01011161097e57565b6001546001600160a01b031633036130a057565b606460405162461bcd60e51b815260206004820152602060248201527f4f776e61626c653a2063616c6c6572206973206e6f7420746865206f776e65726044820152fd5b156130eb57565b60405162461bcd60e51b815260206004820152601660248201527511d85b5948185b1c9958591e4818dbdb5c1b195d195960521b6044820152606490fd5b67ffffffffffffffff811161075857604052565b6101a0810190811067ffffffffffffffff82111761075857604052565b6080810190811067ffffffffffffffff82111761075857604052565b90601f8019910116810190811067ffffffffffffffff82111761075857604052565b60ff60015460a01c166131a757565b60405162461bcd60e51b815260206004820152601060248201526f14185d5cd8589b194e881c185d5cd95960821b6044820152606490fd5b6002600054146131f0576002600055565b60405162461bcd60e51b815260206004820152601f60248201527f5265656e7472616e637947756172643a207265656e7472616e742063616c6c006044820152606490fd5b1561323c57565b60405162461bcd60e51b815260206004820152602360248201527f45544820616c7265616479206465706f736974656420666f7220746869732067604482015262616d6560e81b6064820152608490fd5b1561329457565b60405162461bcd60e51b8152602060048201526024808201527f5553444320616c7265616479206465706f736974656420666f7220746869732060448201526367616d6560e01b6064820152608490fd5b90606060039160018060a01b038151166001600160601b0360a01b8554161784556020810151600185015561332f60408201511515600286019060ff801983541691151516179055565b0151910155565b9081602091031261097e5751801515810361097e5790565b1561335557565b60405162461bcd60e51b81526020600482015260146024820152731554d110c81d1c985b9cd9995c8819985a5b195960621b6044820152606490fd5b60008181526002602090815260408083205460038352818420546001600160a01b0394918516151590851615801590613474575b8161346c575b506133d8575b5050505050565b7f1c659750f340e5299f05cfafea9d901858d47405bba10a4235f7b0d2247f1448938261344d9260038652828282205416151560001461345a57878152600386526002838383205416965b89835252205492516001600160a01b03919093168116835290921660208201529081906040820190565b0390a238808080806133d1565b60048652600283838320541696613423565b9050386133cb565b506004845284838320541615156133c5565b1561348d57565b60405162461bcd60e51b815260206004820152601260248201527111d85b59481b9bdd0818dbdb5c1b195d195960721b6044820152606490fd5b818102929181159184041417156134da57565b634e487b7160e01b600052601160045260246000fd5b919082039182116134da57565b3d15613538573d9067ffffffffffffffff8211610758576040519161352c601f8201601f191660200184613176565b82523d6000602084013e565b606090565b1561354457565b60405162461bcd60e51b815260206004820152601c60248201527f506c6174666f726d20666565207472616e73666572206661696c6564000000006044820152606490fd5b1561359057565b60405162461bcd60e51b815260206004820152600f60248201526e105b1c9958591e4818db185a5b5959608a1b6044820152606490fd5b156135ce57565b60405162461bcd60e51b815260206004820152600e60248201526d11d85b594818dbdb5c1b195d195960921b6044820152606490fd5b919082018092116134da57565b1561361857565b60405162461bcd60e51b815260206004820152601260248201527110d85b9b9bdd081c9958db185a5b481e595d60721b6044820152606490fd5b60001981146134da5760010190565b91908110156136715760051b0190565b634e487b7160e01b600052603260045260246000fd5b356001600160a01b038116810361097e5790565b156136a257565b60405162461bcd60e51b815260206004820152601360248201527211d85b5948191bd95cc81b9bdd08195e1a5cdd606a1b6044820152606490fd5b156136e457565b60405162461bcd60e51b815260206004820152600c60248201526b11d85b59481a5cc8199d5b1b60a21b6044820152606490fd5b1561371f57565b60405162461bcd60e51b815260206004820152600f60248201526e2737ba103a34329031b932b0ba37b960891b6044820152606490fd5b1561375d57565b60405162461bcd60e51b815260206004820152601360248201527213919508185b1c9958591e4818db185a5b5959606a1b6044820152606490fdfeb9389f406fe2f12fee7d080bbb0bc247c61f84511a9f00d2589ec9bd002507f6a2646970667358221220b50c738fd254d8f8721ef16ee6d174cd8da967f6ba1419bf0ec76751237b7e6e64736f6c63430008140033",
  "linkReferences": {},
  "deployedLinkReferences": {}
}