{
  "_format": "hh-sol-artifact-1",
  "contractName": "NFTFlipGame",
  "sourceName": "contracts/NFTFlipGame.sol",
  "abi": [
    {
      "inputs": [
        {
          "internalType": "address",
          "name": "_ethUsdFeed",
          "type": "address"
        },
        {
          "internalType": "address",
          "name": "_usdcToken",
          "type": "address"
        },
        {
          "internalType": "address",
          "name": "_platformFeeReceiver",
          "type": "address"
        }
      ],
      "stateMutability": "nonpayable",
      "type": "constructor"
    },
    {
      "anonymous": false,
      "inputs": [
        {
          "indexed": true,
          "internalType": "uint256",
          "name": "gameId",
          "type": "uint256"
        }
      ],
      "name": "GameCancelled",
      "type": "event"
    },
    {
      "anonymous": false,
      "inputs": [
        {
          "indexed": true,
          "internalType": "uint256",
          "name": "gameId",
          "type": "uint256"
        },
        {
          "indexed": true,
          "internalType": "address",
          "name": "winner",
          "type": "address"
        }
      ],
      "name": "GameCompleted",
      "type": "event"
    },
    {
      "anonymous": false,
      "inputs": [
        {
          "indexed": true,
          "internalType": "uint256",
          "name": "gameId",
          "type": "uint256"
        },
        {
          "indexed": true,
          "internalType": "address",
          "name": "creator",
          "type": "address"
        }
      ],
      "name": "GameCreated",
      "type": "event"
    },
    {
      "anonymous": false,
      "inputs": [
        {
          "indexed": true,
          "internalType": "uint256",
          "name": "gameId",
          "type": "uint256"
        },
        {
          "indexed": true,
          "internalType": "address",
          "name": "joiner",
          "type": "address"
        }
      ],
      "name": "GameJoined",
      "type": "event"
    },
    {
      "anonymous": false,
      "inputs": [
        {
          "indexed": true,
          "internalType": "address",
          "name": "previousOwner",
          "type": "address"
        },
        {
          "indexed": true,
          "internalType": "address",
          "name": "newOwner",
          "type": "address"
        }
      ],
      "name": "OwnershipTransferred",
      "type": "event"
    },
    {
      "anonymous": false,
      "inputs": [
        {
          "indexed": false,
          "internalType": "address",
          "name": "account",
          "type": "address"
        }
      ],
      "name": "Paused",
      "type": "event"
    },
    {
      "anonymous": false,
      "inputs": [
        {
          "indexed": true,
          "internalType": "address",
          "name": "player",
          "type": "address"
        },
        {
          "indexed": false,
          "internalType": "uint256",
          "name": "ethAmount",
          "type": "uint256"
        },
        {
          "indexed": false,
          "internalType": "uint256",
          "name": "usdcAmount",
          "type": "uint256"
        },
        {
          "indexed": false,
          "internalType": "uint256",
          "name": "nftCount",
          "type": "uint256"
        }
      ],
      "name": "RewardsWithdrawn",
      "type": "event"
    },
    {
      "anonymous": false,
      "inputs": [
        {
          "indexed": true,
          "internalType": "uint256",
          "name": "gameId",
          "type": "uint256"
        },
        {
          "indexed": false,
          "internalType": "uint256",
          "name": "round",
          "type": "uint256"
        },
        {
          "indexed": false,
          "internalType": "uint256",
          "name": "result",
          "type": "uint256"
        },
        {
          "indexed": false,
          "internalType": "address",
          "name": "roundWinner",
          "type": "address"
        }
      ],
      "name": "RoundPlayed",
      "type": "event"
    },
    {
      "anonymous": false,
      "inputs": [
        {
          "indexed": false,
          "internalType": "address",
          "name": "account",
          "type": "address"
        }
      ],
      "name": "Unpaused",
      "type": "event"
    },
    {
      "inputs": [],
      "name": "BASIS_POINTS",
      "outputs": [
        {
          "internalType": "uint256",
          "name": "",
          "type": "uint256"
        }
      ],
      "stateMutability": "view",
      "type": "function"
    },
    {
      "inputs": [
        {
          "internalType": "address[]",
          "name": "nftContracts",
          "type": "address[]"
        },
        {
          "internalType": "uint256[]",
          "name": "tokenIds",
          "type": "uint256[]"
        },
        {
          "internalType": "address[]",
          "name": "recipients",
          "type": "address[]"
        }
      ],
      "name": "adminBatchWithdrawNFTs",
      "outputs": [],
      "stateMutability": "nonpayable",
      "type": "function"
    },
    {
      "inputs": [
        {
          "internalType": "uint256",
          "name": "gameId",
          "type": "uint256"
        }
      ],
      "name": "cancelGame",
      "outputs": [],
      "stateMutability": "nonpayable",
      "type": "function"
    },
    {
      "inputs": [
        {
          "internalType": "address",
          "name": "nftContract",
          "type": "address"
        },
        {
          "internalType": "uint256",
          "name": "tokenId",
          "type": "uint256"
        },
        {
          "internalType": "uint256",
          "name": "priceUSD",
          "type": "uint256"
        },
        {
          "internalType": "enum NFTFlipGame.PaymentToken",
          "name": "acceptedToken",
          "type": "uint8"
        },
        {
          "internalType": "enum NFTFlipGame.GameType",
          "name": "gameType",
          "type": "uint8"
        },
        {
          "internalType": "string",
          "name": "coinType",
          "type": "string"
        },
        {
          "internalType": "string",
          "name": "headsImage",
          "type": "string"
        },
        {
          "internalType": "string",
          "name": "tailsImage",
          "type": "string"
        },
        {
          "internalType": "bool",
          "name": "isCustom",
          "type": "bool"
        }
      ],
      "name": "createGame",
      "outputs": [],
      "stateMutability": "payable",
      "type": "function"
    },
    {
      "inputs": [],
      "name": "emergencyPause",
      "outputs": [],
      "stateMutability": "nonpayable",
      "type": "function"
    },
    {
      "inputs": [],
      "name": "emergencyWithdrawETH",
      "outputs": [],
      "stateMutability": "nonpayable",
      "type": "function"
    },
    {
      "inputs": [],
      "name": "ethUsdFeed",
      "outputs": [
        {
          "internalType": "contract AggregatorV3Interface",
          "name": "",
          "type": "address"
        }
      ],
      "stateMutability": "view",
      "type": "function"
    },
    {
      "inputs": [
        {
          "internalType": "uint256",
          "name": "",
          "type": "uint256"
        }
      ],
      "name": "games",
      "outputs": [
        {
          "internalType": "uint256",
          "name": "gameId",
          "type": "uint256"
        },
        {
          "internalType": "address",
          "name": "creator",
          "type": "address"
        },
        {
          "internalType": "address",
          "name": "joiner",
          "type": "address"
        },
        {
          "internalType": "address",
          "name": "nftContract",
          "type": "address"
        },
        {
          "internalType": "uint256",
          "name": "tokenId",
          "type": "uint256"
        },
        {
          "internalType": "enum NFTFlipGame.GameState",
          "name": "state",
          "type": "uint8"
        },
        {
          "internalType": "enum NFTFlipGame.GameType",
          "name": "gameType",
          "type": "uint8"
        },
        {
          "internalType": "uint256",
          "name": "priceUSD",
          "type": "uint256"
        },
        {
          "internalType": "enum NFTFlipGame.PaymentToken",
          "name": "paymentToken",
          "type": "uint8"
        },
        {
          "internalType": "uint256",
          "name": "totalPaid",
          "type": "uint256"
        },
        {
          "internalType": "address",
          "name": "winner",
          "type": "address"
        },
        {
          "internalType": "uint256",
          "name": "createdAt",
          "type": "uint256"
        },
        {
          "internalType": "uint256",
          "name": "creatorWins",
          "type": "uint256"
        },
        {
          "internalType": "uint256",
          "name": "joinerWins",
          "type": "uint256"
        },
        {
          "internalType": "uint256",
          "name": "currentRound",
          "type": "uint256"
        },
        {
          "internalType": "uint256",
          "name": "lastFlipResult",
          "type": "uint256"
        },
        {
          "internalType": "bytes32",
          "name": "lastFlipHash",
          "type": "bytes32"
        },
        {
          "components": [
            {
              "internalType": "string",
              "name": "coinType",
              "type": "string"
            },
            {
              "internalType": "string",
              "name": "headsImage",
              "type": "string"
            },
            {
              "internalType": "string",
              "name": "tailsImage",
              "type": "string"
            },
            {
              "internalType": "bool",
              "name": "isCustom",
              "type": "bool"
            }
          ],
          "internalType": "struct NFTFlipGame.CoinInfo",
          "name": "coinInfo",
          "type": "tuple"
        }
      ],
      "stateMutability": "view",
      "type": "function"
    },
    {
      "inputs": [
        {
          "internalType": "uint256",
          "name": "usdAmount",
          "type": "uint256"
        }
      ],
      "name": "getETHAmount",
      "outputs": [
        {
          "internalType": "uint256",
          "name": "",
          "type": "uint256"
        }
      ],
      "stateMutability": "view",
      "type": "function"
    },
    {
      "inputs": [
        {
          "internalType": "uint256",
          "name": "gameId",
          "type": "uint256"
        }
      ],
      "name": "getGameDetails",
      "outputs": [
        {
          "internalType": "uint256",
          "name": "gameId_",
          "type": "uint256"
        },
        {
          "internalType": "address",
          "name": "creator_",
          "type": "address"
        },
        {
          "internalType": "address",
          "name": "joiner_",
          "type": "address"
        },
        {
          "internalType": "address",
          "name": "nftContract_",
          "type": "address"
        },
        {
          "internalType": "uint256",
          "name": "tokenId_",
          "type": "uint256"
        },
        {
          "internalType": "enum NFTFlipGame.GameState",
          "name": "state_",
          "type": "uint8"
        },
        {
          "internalType": "enum NFTFlipGame.GameType",
          "name": "gameType_",
          "type": "uint8"
        },
        {
          "internalType": "uint256",
          "name": "priceUSD_",
          "type": "uint256"
        },
        {
          "internalType": "enum NFTFlipGame.PaymentToken",
          "name": "paymentToken_",
          "type": "uint8"
        },
        {
          "internalType": "uint256",
          "name": "totalPaid_",
          "type": "uint256"
        },
        {
          "internalType": "address",
          "name": "winner_",
          "type": "address"
        },
        {
          "internalType": "uint256",
          "name": "createdAt_",
          "type": "uint256"
        },
        {
          "internalType": "uint256",
          "name": "creatorWins_",
          "type": "uint256"
        },
        {
          "internalType": "uint256",
          "name": "joinerWins_",
          "type": "uint256"
        },
        {
          "internalType": "uint256",
          "name": "currentRound_",
          "type": "uint256"
        },
        {
          "internalType": "uint256",
          "name": "lastFlipResult_",
          "type": "uint256"
        },
        {
          "internalType": "bytes32",
          "name": "lastFlipHash_",
          "type": "bytes32"
        },
        {
          "internalType": "string",
          "name": "coinType_",
          "type": "string"
        },
        {
          "internalType": "string",
          "name": "headsImage_",
          "type": "string"
        },
        {
          "internalType": "string",
          "name": "tailsImage_",
          "type": "string"
        },
        {
          "internalType": "bool",
          "name": "isCustom_",
          "type": "bool"
        }
      ],
      "stateMutability": "view",
      "type": "function"
    },
    {
      "inputs": [
        {
          "internalType": "uint256",
          "name": "gameId",
          "type": "uint256"
        }
      ],
      "name": "getGameRoundDetails",
      "outputs": [
        {
          "internalType": "uint256",
          "name": "creatorWins",
          "type": "uint256"
        },
        {
          "internalType": "uint256",
          "name": "joinerWins",
          "type": "uint256"
        },
        {
          "internalType": "uint256",
          "name": "currentRound",
          "type": "uint256"
        },
        {
          "internalType": "uint256",
          "name": "lastResult",
          "type": "uint256"
        }
      ],
      "stateMutability": "view",
      "type": "function"
    },
    {
      "inputs": [
        {
          "internalType": "address",
          "name": "user",
          "type": "address"
        }
      ],
      "name": "getUserGames",
      "outputs": [
        {
          "internalType": "uint256[]",
          "name": "",
          "type": "uint256[]"
        }
      ],
      "stateMutability": "view",
      "type": "function"
    },
    {
      "inputs": [
        {
          "internalType": "uint256",
          "name": "gameId",
          "type": "uint256"
        }
      ],
      "name": "joinGame",
      "outputs": [],
      "stateMutability": "payable",
      "type": "function"
    },
    {
      "inputs": [],
      "name": "listingFeeUSD",
      "outputs": [
        {
          "internalType": "uint256",
          "name": "",
          "type": "uint256"
        }
      ],
      "stateMutability": "view",
      "type": "function"
    },
    {
      "inputs": [],
      "name": "nextGameId",
      "outputs": [
        {
          "internalType": "uint256",
          "name": "",
          "type": "uint256"
        }
      ],
      "stateMutability": "view",
      "type": "function"
    },
    {
      "inputs": [],
      "name": "owner",
      "outputs": [
        {
          "internalType": "address",
          "name": "",
          "type": "address"
        }
      ],
      "stateMutability": "view",
      "type": "function"
    },
    {
      "inputs": [],
      "name": "paused",
      "outputs": [
        {
          "internalType": "bool",
          "name": "",
          "type": "bool"
        }
      ],
      "stateMutability": "view",
      "type": "function"
    },
    {
      "inputs": [],
      "name": "platformFeePercent",
      "outputs": [
        {
          "internalType": "uint256",
          "name": "",
          "type": "uint256"
        }
      ],
      "stateMutability": "view",
      "type": "function"
    },
    {
      "inputs": [],
      "name": "platformFeeReceiver",
      "outputs": [
        {
          "internalType": "address",
          "name": "",
          "type": "address"
        }
      ],
      "stateMutability": "view",
      "type": "function"
    },
    {
      "inputs": [
        {
          "internalType": "uint256",
          "name": "gameId",
          "type": "uint256"
        }
      ],
      "name": "playRound",
      "outputs": [],
      "stateMutability": "nonpayable",
      "type": "function"
    },
    {
      "inputs": [],
      "name": "renounceOwnership",
      "outputs": [],
      "stateMutability": "nonpayable",
      "type": "function"
    },
    {
      "inputs": [
        {
          "internalType": "uint256",
          "name": "newFee",
          "type": "uint256"
        }
      ],
      "name": "setListingFee",
      "outputs": [],
      "stateMutability": "nonpayable",
      "type": "function"
    },
    {
      "inputs": [
        {
          "internalType": "uint256",
          "name": "newPercent",
          "type": "uint256"
        }
      ],
      "name": "setPlatformFee",
      "outputs": [],
      "stateMutability": "nonpayable",
      "type": "function"
    },
    {
      "inputs": [
        {
          "internalType": "address",
          "name": "newOwner",
          "type": "address"
        }
      ],
      "name": "transferOwnership",
      "outputs": [],
      "stateMutability": "nonpayable",
      "type": "function"
    },
    {
      "inputs": [
        {
          "internalType": "address",
          "name": "",
          "type": "address"
        }
      ],
      "name": "unclaimedETH",
      "outputs": [
        {
          "internalType": "uint256",
          "name": "",
          "type": "uint256"
        }
      ],
      "stateMutability": "view",
      "type": "function"
    },
    {
      "inputs": [
        {
          "internalType": "address",
          "name": "",
          "type": "address"
        },
        {
          "internalType": "address",
          "name": "",
          "type": "address"
        },
        {
          "internalType": "uint256",
          "name": "",
          "type": "uint256"
        }
      ],
      "name": "unclaimedNFTs",
      "outputs": [
        {
          "internalType": "uint256",
          "name": "",
          "type": "uint256"
        }
      ],
      "stateMutability": "view",
      "type": "function"
    },
    {
      "inputs": [
        {
          "internalType": "address",
          "name": "",
          "type": "address"
        }
      ],
      "name": "unclaimedUSDC",
      "outputs": [
        {
          "internalType": "uint256",
          "name": "",
          "type": "uint256"
        }
      ],
      "stateMutability": "view",
      "type": "function"
    },
    {
      "inputs": [],
      "name": "unpause",
      "outputs": [],
      "stateMutability": "nonpayable",
      "type": "function"
    },
    {
      "inputs": [],
      "name": "usdcToken",
      "outputs": [
        {
          "internalType": "address",
          "name": "",
          "type": "address"
        }
      ],
      "stateMutability": "view",
      "type": "function"
    },
    {
      "inputs": [
        {
          "internalType": "address",
          "name": "",
          "type": "address"
        },
        {
          "internalType": "uint256",
          "name": "",
          "type": "uint256"
        }
      ],
      "name": "userGames",
      "outputs": [
        {
          "internalType": "uint256",
          "name": "",
          "type": "uint256"
        }
      ],
      "stateMutability": "view",
      "type": "function"
    },
    {
      "inputs": [
        {
          "internalType": "address",
          "name": "nftContract",
          "type": "address"
        },
        {
          "internalType": "uint256",
          "name": "tokenId",
          "type": "uint256"
        }
      ],
      "name": "withdrawNFT",
      "outputs": [],
      "stateMutability": "nonpayable",
      "type": "function"
    },
    {
      "inputs": [],
      "name": "withdrawRewards",
      "outputs": [],
      "stateMutability": "nonpayable",
      "type": "function"
    }
  ],
  "bytecode": "0x6080346200011157601f62002cc338819003918201601f19168301916001600160401b03831184841017620001165780849260609460405283398101031262000111576200004d816200012c565b62000069604062000061602085016200012c565b93016200012c565b916001600055600154926040519360018060a01b03928391338382167f8be0079c531659141344cd1fd0a4f28419497f9722a3daafe3b4186f6b6457e0600080a36001600160a81b0319163360ff60a01b191617600190815560075562030d4060085561015e600955600b80546001600160a01b0319908116968416969096179055600c8054861691909216179055600a80549093169116179055612b819081620001428239f35b600080fd5b634e487b7160e01b600052604160045260246000fd5b51906001600160a01b0382168203620001115756fe610260604052600436101561001357600080fd5b6000803560e01c8063019e485e146120ec578063117a5b9014611ef857806311eac85514611ecf578063120aace614611e2157806312e8e2c314611dc6578063131dbd0914611da35780631a68b69114611d6a5780631b31abda14611a485780632d656ad714611a1f5780633a38d06314611a015780633f4ba83a1461196457806351858e27146119015780635c975abb146118db5780636088e93a1461171457806369958ab9146115bc578063715018a61461155e5780638009b7bd1461153557806384536017146114c15780638c639a85146114a35780638da5cb5b1461147a57806395d1152014611441578063aa4209b8146113cb578063b135bbb0146113ad578063b87b7fcc14611266578063bc0167cd1461120f578063c7b8981c1461106e578063cb9a263014610d41578063e1f1c4a714610d24578063e25f494b146104de578063ef46b2ab146104b7578063efaa55a0146102465763f2fde38b1461017e57600080fd5b3461024357602036600319011261024357610197612737565b61019f61280d565b6001600160a01b039081169081156101ef57600154826001600160601b0360a01b821617600155167f8be0079c531659141344cd1fd0a4f28419497f9722a3daafe3b4186f6b6457e0600080a380f35b60405162461bcd60e51b815260206004820152602660248201527f4f776e61626c653a206e6577206f776e657220697320746865207a65726f206160448201526564647265737360d01b6064820152608490fd5b80fd5b506020806003193601126104b357600435906102606129ab565b610268612964565b818352600281526040832090600582019182549260ff8416600581101561049f576104655760018201546001600160a01b03919082163314610429576102b16006840154612a18565b94600954808702908782041487151715610413576127109004936102d5858861291b565b8734106103d7579389959193600187969460028789989760088a99015501336001600160601b0360a01b82541617905560ff19161790553383526003875261032089604085206128c3565b600a54165af161032e6128eb565b501561039357508281341161036b575b33837f45c4f9cbafe186141862608c493f28b823fde4c2142bedc3f5169961a73fdd228380a36001815580f35b80808061037b61038c953461291b565b335af16103866128eb565b50612928565b388261033e565b6064906040519062461bcd60e51b82526004820152601c60248201527f506c6174666f726d20666565207472616e73666572206661696c6564000000006044820152fd5b60405162461bcd60e51b8152600481018890526014602482015273125b9cdd59999a58da595b9d081c185e5b595b9d60621b6044820152606490fd5b634e487b7160e01b600052601160045260246000fd5b60405162461bcd60e51b815260048101859052601460248201527343616e6e6f74206a6f696e206f776e2067616d6560601b6044820152606490fd5b60405162461bcd60e51b815260048101849052601260248201527147616d65206e6f7420617661696c61626c6560701b6044820152606490fd5b634e487b7160e01b87526021600452602487fd5b5080fd5b50346102435760203660031901126102435760206104d6600435612a18565b604051908152f35b50610120366003190112610243576104f4612737565b600260643510156104b357600260843510156104b35760a4356001600160401b038111610d20576105299036906004016127c6565b9060c4356001600160401b038111610d1c576105499036906004016127c6565b9060e4356001600160401b038111610d18576105699036906004016127c6565b61010435908115158203610d145761057f6129ab565b610587612964565b61059b6001600160a01b0384161515612865565b6105a6600854612a18565b93843410610ccf576001600160a01b0384163b15610cc0576040516323b872dd60e01b81523360048201523060248083019190915235604482015287908181606481836001600160a01b038b165af18015610cc457610cac575b50506040519561060f8761259c565b865260208601526040850152151560608401526007549261062f846128a8565b6007556040519161063f8361256d565b848352336020840152604083018690526001600160a01b03166060830152602435608083015260a082018590526106776084356126ed565b60843560c083015260443560e08301526106926064356126ed565b60643561010083015284610120830152846101408301524261016083015284610180830152846101a0830152846101c0830152846101e08301528461020083015261022082015282845260026020526040842090805182556001820160018060a01b036020830151166001600160601b0360a01b8254161790556002820160018060a01b036040830151166001600160601b0360a01b8254161790556003820160018060a01b036060830151166001600160601b0360a01b8254161790556080810151600483015560a08101516005811015610c985790610220916005840190815460ff61ff0060c0860151610787816126ed565b610790816126ed565b60081b1692169061ffff19161717905560e08101516006840155600783016101008201516107bd816126ed565b6107c6816126ed565b60ff8019835416911617905561012081015160088401556009830160018060a01b03610140830151166001600160601b0360a01b825416179055610160810151600a840155610180810151600b8401556101a0810151600c8401556101c0810151600d8401556101e0810151600e840155610200810151600f84015501519081518051906001600160401b038211610aee5781906108676010850154612533565b601f8111610c47575b50602090601f8311600114610bd8578892610bcd575b50508160011b916000199060031b1c19161760108201555b60208201518051906001600160401b038211610aee5781906108c36011850154612533565b601f8111610b7c575b50602090601f8311600114610b0d578892610b02575b50508160011b916000199060031b1c19161760118201555b60408201518051906001600160401b038211610aee5761091d6012840154612533565b601f8111610aa9575b50602090601f8311600114610a37579180606094926013948a92610a2c575b50508160011b916000199060031b1c19161760128201555b01910151151560ff80198354169116179055338352600360205261098482604085206128c3565b828080808460018060a01b03600a54165af161099e6128eb565b50156109f157828134116109da575b33837fc3e0f84839dc888c892a013d10c8f9d6dc05a21a879d0ce468ca558013e9121c8380a36001815580f35b80808061037b6109ea953461291b565b38826109ad565b60405162461bcd60e51b8152602060048201526013602482015272119959481d1c985b9cd9995c8819985a5b1959606a1b6044820152606490fd5b015190503880610945565b906012840188526020882091885b601f1985168110610a915750926060949260019260139583601f19811610610a78575b505050811b01601282015561095d565b015160001960f88460031b161c19169055388080610a68565b91926020600181928685015181550194019201610a45565b60128401885260208820601f840160051c810160208510610ae7575b601f830160051c82018110610adb575050610926565b60008155600101610ac5565b5080610ac5565b634e487b7160e01b87526041600452602487fd5b0151905038806108e2565b9250601184018852602088209088935b601f1984168510610b61576001945083601f19811610610b48575b505050811b0160118201556108fa565b015160001960f88460031b161c19169055388080610b38565b81810151835560209485019460019093019290910190610b1d565b90915060118401885260208820601f840160051c810160208510610bc6575b90849392915b601f830160051c82018110610bb75750506108cc565b60008155859450600101610ba1565b5080610b9b565b015190503880610886565b9250601084018852602088209088935b601f1984168510610c2c576001945083601f19811610610c13575b505050811b01601082015561089e565b015160001960f88460031b161c19169055388080610c03565b81810151835560209485019460019093019290910190610be8565b90915060108401885260208820601f840160051c810160208510610c91575b90849392915b601f830160051c82018110610c82575050610870565b60008155859450600101610c6c565b5080610c66565b634e487b7160e01b86526021600452602486fd5b610cb590612589565b610cc0578638610600565b8680fd5b6040513d84823e3d90fd5b60405162461bcd60e51b815260206004820152601860248201527f496e73756666696369656e74206c697374696e672066656500000000000000006044820152606490fd5b8580fd5b8480fd5b8380fd5b8280fd5b503461024357806003193601126102435760206040516127108152f35b5034610243576060366003190112610243576001600160401b03600435818111610d2057610d7390369060040161277b565b90916024908135818111610d1457610d8f90369060040161277b565b91604435908111610cc057610da890369060040161277b565b92610db161280d565b80861480611065575b156110215792869288969287955b848710610dd3578880f35b96976001600160a01b03979096610dff89610df7610df2848a8c612b27565b612b37565b161515612865565b88610e0e610df2838887612b27565b1615610fe95788610e2082888a612b27565b610e2990612b37565b1698610e36828487612b27565b6040516331a9108f60e11b81529035600482015260206101209081529a818d815a93602094fa8a9181610faa575b50610ead5760405162461bcd60e51b81528b516004820152601d818e01527f4661696c656420746f20636865636b204e4654206f776e6572736869700000006044820152606490fd5b81929394959697999b989a9130911603610f6657508990610ed2610df2848b8d612b27565b16610ee1610df2848988612b27565b610eec848689612b27565b35823b15610d1c576040516323b872dd60e01b81523060048201526001600160a01b0392909216602483015260448201529082908290606490829084905af18015610cc457610f4e575b5050610f41906128a8565b9593929190969496610dc8565b610f5790612589565b610f6257888a610f36565b8880fd5b60405162461bcd60e51b815290516004820152601e818901527f436f6e747261637420646f6573206e6f74206f776e2074686973204e465400006044820152606490fd5b9091508b513d8111610fe2575b610fc181836125b7565b818d519181010312610fde57518281168103610fde57908d610e64565b8a80fd5b503d610fb7565b60405162461bcd60e51b8152602060048201526011818c015270125b9d985b1a59081c9958da5c1a595b9d607a1b6044820152606490fd5b60405162461bcd60e51b8152602060048201526018818701527f4172726179206c656e67746873206d757374206d6174636800000000000000006044820152606490fd5b50838114610dba565b50346102435780600319360112610243576110876129ab565b338152602060048152604082205490600581526040832054906004815283604081205560058152836040812055826111c0575b8161113d575b6040516101608101908082106001600160401b038311176111275761014091604052600a815282369101376040519283528201528160408201527f4f3d7a53f1fd3ab32e84fafd251bc5c1ec2c516068909f68847ad29c366d134c60603392a26001815580f35b634e487b7160e01b600052604160045260246000fd5b600c5460405163a9059cbb60e01b8152336004820152602481018490529082908290604490829089906001600160a01b03165af180156111b557611182575b506110c0565b8181813d83116111ae575b61119781836125b7565b81010312610d18575180151503610d1c573861117c565b503d61118d565b6040513d87823e3d90fd5b8380808086335af16111d06128eb565b506110ba576064906040519062461bcd60e51b825260048201526013602482015272115512081d1c985b9cd9995c8819985a5b1959606a1b6044820152fd5b503461024357604036600319011261024357611229612737565b6001600160a01b0316815260036020526040812080546024359290831015610243576020611257848461274d565b90549060031b1c604051908152f35b503461024357602036600319011261024357604060809160043581526002602052206040516112948161256d565b8154815260018201546001600160a01b039081166020830152600283015481166040830152600383015481166060830152600483015484830152600583015460ff906112e581831660a086016128b7565b60081c166112f2816126ed565b60c0830152600683015460e083015260ff600784015416611312816126ed565b6101008301526008830154610120830152600983015416610140820152600a820154610160820152600b820154916101808201928352600c810154926101a08301938452600d820154926101c0810193845261022061138b6010600e860154956101e08501968752600f8101546102008601520161267e565b9101525192519151905191604051938452602084015260408301526060820152f35b50346102435780600319360112610243576020600754604051908152f35b5034610243576060366003190112610243576113e5612737565b906024356001600160a01b038181169182900361143c576044359316825260066020526040822090600052602052604060002090815483101561024357602061142e848461274d565b90546040519160031b1c8152f35b600080fd5b5034610243576020366003190112610243576020906040906001600160a01b03611469612737565b168152600583522054604051908152f35b50346102435780600319360112610243576001546040516001600160a01b039091168152602090f35b50346102435780600319360112610243576020600954604051908152f35b50346102435780600319360112610243576114da61280d565b8080808060018060a01b036001541647905af16114f56128eb565b50156114fe5780f35b60405162461bcd60e51b815260206004820152600f60248201526e151c985b9cd9995c8819985a5b1959608a1b6044820152606490fd5b5034610243578060031936011261024357600b546040516001600160a01b039091168152602090f35b503461024357806003193601126102435761157761280d565b600180546001600160a01b031981169091556000906001600160a01b03167f8be0079c531659141344cd1fd0a4f28419497f9722a3daafe3b4186f6b6457e08280a380f35b50346102435760209081600319360112610243576004356115db6129ab565b808252600283526040822060018101546001600160a01b0390811694338690036116d057600583019586549660ff881660058110156116bc5761167757600461164c96979860ff191617905586526006815260408620916003840154166000525260046040600020910154906128c3565b7f681705fdbd93dba3b679fd712577e9a86d57c5551c520f8c74857deb57f9623f8280a26001815580f35b60405162461bcd60e51b815260048101849052601e60248201527f43616e206f6e6c792063616e63656c20756e6a6f696e65642067616d657300006044820152606490fd5b634e487b7160e01b88526021600452602488fd5b6064906040519062461bcd60e51b82526004820152601760248201527f4f6e6c792063726561746f722063616e2063616e63656c0000000000000000006044820152fd5b50346102435760403660031901126102435761172e612737565b60249182359161173c6129ab565b3382526006602052604082209060018060a01b03169081835260205260408220928293835b8154808210156118d0578390611777838561274d565b929054600393841b1c14611795575050611790906128a8565b611761565b909394959650600019918282019182116118bd576117c66117b96117df938661274d565b905490871b1c918561274d565b90919082549060031b91821b91600019901b1916179055565b815480156118aa578101926117f4848461274d565b81939154921b1b191690555560015b1561186657829350813b15611862576040516323b872dd60e01b8152306004820152336024820152604481019190915291908290606490829084905af18015610cc457611853575b506001815580f35b61185c90612589565b3861184b565b5050fd5b60405162461bcd60e51b815260206004820152601a818601527f4e4654206e6f7420666f756e6420696e20756e636c61696d65640000000000006044820152606490fd5b634e487b7160e01b875260316004528787fd5b634e487b7160e01b885260116004528888fd5b505050909192611803565b5034610243578060031936011261024357602060ff60015460a01c166040519015158152f35b503461024357806003193601126102435761191a61280d565b611922612964565b6001805460ff60a01b1916600160a01b1790556040513381527f62e78cea01bee320cd4e420270b5ea74000d11b0c9f74754ebdbfc544b05a25890602090a180f35b503461024357806003193601126102435761197d61280d565b60015460ff8160a01c16156119c55760ff60a01b19166001556040513381527f5db9ee0a495bf2e6ff9c91a7834c1ba4fdd244a5e8aa4e537bd38aeae4b073aa90602090a180f35b60405162461bcd60e51b815260206004820152601460248201527314185d5cd8589b194e881b9bdd081c185d5cd95960621b6044820152606490fd5b50346102435780600319360112610243576020600854604051908152f35b5034610243578060031936011261024357600a546040516001600160a01b039091168152602090f35b503461024357602036600319011261024357600435815260026020526040812090611b6b601060405193611a7b8561256d565b8054855260018101546001600160a01b039081166020870152600282015481166040870152600382015416606086015260048101546080860152600581015460ff90611acc81831660a089016128b7565b611ada828260081c166126ed565b60081c1660c0860152600681015460e086015260ff600782015416611afe816126ed565b610100860152600881015461012086015260098101546001600160a01b0316610140860152600a810154610160860152600b810154610180860152600c8101546101a0860152600d8101546101c0860152600e8101546101e0860152600f8101546102008601520161267e565b610220830152815160208301516001600160a01b0390811660e05260408401518116608090815260608501519091166102005283015160a084015191929091906005821015611d56575060c0840151611bc3816126ed565b60e0850151610100860151611bd7816126ed565b61012087015190600160a01b600190036101408901511692610160890151946101808a0151966101a08b0151986101c08c01519a6101e08d01519c6102008101516101405261022001518061010052805161022052602081015160a052604081015161024052606001511515610180526040518060c0525260e05160c0516020015260805160c051604001526102005160c0516060015260c0516080015260c05160a001611c84916126ca565b611c8d816126ed565b60c05160c0015260c05160e00152611ca4816126ed565b60c051610100015260c051610120015260c051610140015260c051610160015260c051610180015260c0516101a0015260c0516101c0015260c0516101e001526101405160c05161020001526102a08060c051610220015260c051016102205190611d0e916126f7565b60c05180820390610240015260a05190611d27916126f7565b60c0518082039061026001526102405190611d41916126f7565b6101805160c051610280015260c05180910390f35b634e487b7160e01b81526021600452602490fd5b5034610243576020366003190112610243576020906040906001600160a01b03611d92612737565b168152600483522054604051908152f35b503461024357602036600319011261024357611dbd61280d565b60043560085580f35b503461024357602036600319011261024357600435611de361280d565b6103e88111611df25760095580f35b60405162461bcd60e51b81526020600482015260076024820152664d61782031302560c81b6044820152606490fd5b5034610243576020806003193601126104b3576001600160a01b03611e44612737565b168252600381526040822060405192838383549182815201908193835284832090835b818110611ebb5750505084611e7d9103856125b7565b60405193838594850191818652518092526040850193925b828110611ea457505050500390f35b835185528695509381019392810192600101611e95565b825484529286019260019283019201611e67565b5034610243578060031936011261024357600c546040516001600160a01b039091168152602090f35b5034610243576020366003190112610243576004358152600260205260409020808054600160a01b600190038060018401541661016052806002840154166101a0528060038401541690600484015490600585015490600686015490600787015460ff1660088801549160098901541692600a89015494600b8a015496600c8b015498600d8c01549a600e8d01549c600f01549d601001611f989061267e565b6101c052604051806101e05252610160516101e051602001526101a0516101e051604001526101e051606001526101e051608001526101e05160a00160ff821690611fe2916126ca565b60081c60ff16611ff1816126ed565b6101e05160c001526101e05160e0015261200a816126ed565b6101e05161010001526101e05161012001526101e05161014001526101e05161016001526101e05161018001526101e0516101a001526101e0516101c001526101e0516101e001526101e0516102000152610240806101e05161022001526101c05151906101e05101608090526101e0516102c001612088916126f7565b6101c051602001516101e0519161023f199283818303019061026001526120ae916126f7565b6101c05160400151916101e05190818303019061028001526120cf916126f7565b6101c0516060015115156101e0516102a001526101e05180910390f35b5034610243576020366003190112610243576121066129ab565b6004358152600260205260408120600581015460ff811660058110158061251f576001821480928115612511575b50156124db5760018401546001600160a01b0316331480156124c5575b15612491576003600b8501541080612483575b156124465761243257612420575b50600d81015460405142602082015244604082015260043560608201528160808201523360601b60a0820152609481528060c08101106001600160401b0360c08301111761240c5760c081016040526020815191012090600182161560001461239c57506121e3600b8301546128a8565b600b830155600d8201546001810181116123625760018381015460408051938301845291841660208401526001600160a01b031690820152600435907fd2b6b22444768b00d18e4a1c242dc398d49e330c1bae790cad9dcd86da2e20c390606090a25b612253600d8301546128a8565b600d83015560018116600e830155600f8201556003600b820154108015809161238d575b612284575b826001815580f35b156123765760018101546001600160a01b0316906008905b6009810180546001600160a01b0319166001600160a01b03948516908117825560058301805460ff191660039081179091559086526006602090815260408088209285015490961687525292842060048201546122f8916128c3565b015480612339575b50546001600160a01b03166004357f7f40df5127524300187445e867486da572aab86769c0212e0b392bd87c4ca97f8380a3388061227c565b81546001600160a01b031683526004602052604083208054918201918210612362575538612300565b634e487b7160e01b84526011600452602484fd5b60028101546001600160a01b03169060089061229c565b506003600c8301541015612277565b600c83016123aa81546128a8565b9055600181018111612362576002830154604080516001938401815292841660208401526001600160a01b0390911690820152600435907fd2b6b22444768b00d18e4a1c242dc398d49e330c1bae790cad9dcd86da2e20c390606090a2612246565b634e487b7160e01b84526041600452602484fd5b60ff1916600217600582015538612172565b634e487b7160e01b84526021600452602484fd5b60405162461bcd60e51b815260206004820152601560248201527447616d6520616c726561647920636f6d706c65746560581b6044820152606490fd5b506003600c85015410612164565b60405162461bcd60e51b815260206004820152600c60248201526b2737ba103090383630bcb2b960a11b6044820152606490fd5b5060028401546001600160a01b03163314612151565b60405162461bcd60e51b815260206004820152600e60248201526d47616d65206e6f7420726561647960901b6044820152606490fd5b915050600285911438612134565b634e487b7160e01b85526021600452602485fd5b90600182811c92168015612563575b602083101461254d57565b634e487b7160e01b600052602260045260246000fd5b91607f1691612542565b61024081019081106001600160401b0382111761112757604052565b6001600160401b03811161112757604052565b608081019081106001600160401b0382111761112757604052565b90601f801991011681019081106001600160401b0382111761112757604052565b90604051918260008254926125ec84612533565b90818452600194858116908160001461265b5750600114612618575b5050612616925003836125b7565b565b9093915060005260209081600020936000915b81831061264357505061261693508201013880612608565b8554888401850152948501948794509183019161262b565b91505061261694506020925060ff191682840152151560051b8201013880612608565b9060405161268b8161259c565b606060ff6003839561269c816125d8565b85526126aa600182016125d8565b60208601526126bb600282016125d8565b60408601520154161515910152565b9060058210156126d75752565b634e487b7160e01b600052602160045260246000fd5b600211156126d757565b919082519283825260005b848110612723575050826000602080949584010152601f8019910116010190565b602081830181015184830182015201612702565b600435906001600160a01b038216820361143c57565b80548210156127655760005260206000200190600090565b634e487b7160e01b600052603260045260246000fd5b9181601f8401121561143c578235916001600160401b03831161143c576020808501948460051b01011161143c57565b6001600160401b03811161112757601f01601f191660200190565b81601f8201121561143c578035906127dd826127ab565b926127eb60405194856125b7565b8284526020838301011161143c57816000926020809301838601378301015290565b6001546001600160a01b0316330361282157565b606460405162461bcd60e51b815260206004820152602060248201527f4f776e61626c653a2063616c6c6572206973206e6f7420746865206f776e65726044820152fd5b1561286c57565b60405162461bcd60e51b8152602060048201526014602482015273125b9d985b1a59081391950818dbdb9d1c9858dd60621b6044820152606490fd5b60001981146104135760010190565b60058210156126d75752565b908154916801000000000000000083101561112757826117c69160016126169501815561274d565b3d15612916573d906128fc826127ab565b9161290a60405193846125b7565b82523d6000602084013e565b606090565b9190820391821161041357565b1561292f57565b60405162461bcd60e51b815260206004820152600d60248201526c1499599d5b990819985a5b1959609a1b6044820152606490fd5b60ff60015460a01c1661297357565b60405162461bcd60e51b815260206004820152601060248201526f14185d5cd8589b194e881c185d5cd95960821b6044820152606490fd5b6002600054146129bc576002600055565b60405162461bcd60e51b815260206004820152601f60248201527f5265656e7472616e637947756172643a207265656e7472616e742063616c6c006044820152606490fd5b519069ffffffffffffffffffff8216820361143c57565b600b54604051633fabe5a360e21b8152919060a090839060049082906001600160a01b03165afa918215612b1b57600092612acd575b506000821315612a935768056bc75e2d6310000090818102918183041490151715610413578115612a7d570490565b634e487b7160e01b600052601260045260246000fd5b60405162461bcd60e51b8152602060048201526012602482015271125b9d985b1a59081c1c9a58d9481999595960721b6044820152606490fd5b909160a0823d8211612b13575b81612ae760a093836125b7565b810103126102435750612af981612a01565b50612b0b608060208301519201612a01565b509038612a4e565b3d9150612ada565b6040513d6000823e3d90fd5b91908110156127655760051b0190565b356001600160a01b038116810361143c579056fea264697066735822122006889c4ae525b6035f33513b0dfde537f2aa2dee0d8c95cea6c4203b89c1428f64736f6c63430008140033",
  "linkReferences": {},
  "deployedLinkReferences": {}
}