{
  "_format": "hh-sol-artifact-1",
  "contractName": "NFTFlipGame",
  "sourceName": "contracts/NFTFlipGame.sol",
  "abi": [
    {
      "inputs": [
        {
          "internalType": "address",
          "name": "_ethUsdFeed",
          "type": "address"
        },
        {
          "internalType": "address",
          "name": "_usdcToken",
          "type": "address"
        },
        {
          "internalType": "address",
          "name": "_platformFeeReceiver",
          "type": "address"
        }
      ],
      "stateMutability": "nonpayable",
      "type": "constructor"
    },
    {
      "anonymous": false,
      "inputs": [
        {
          "indexed": true,
          "internalType": "bytes32",
          "name": "gameId",
          "type": "bytes32"
        },
        {
          "indexed": false,
          "internalType": "address",
          "name": "player",
          "type": "address"
        },
        {
          "indexed": false,
          "internalType": "bool",
          "name": "isNFT",
          "type": "bool"
        },
        {
          "indexed": false,
          "internalType": "enum NFTFlipGame.PaymentToken",
          "name": "paymentToken",
          "type": "uint8"
        }
      ],
      "name": "AssetsDeposited",
      "type": "event"
    },
    {
      "anonymous": false,
      "inputs": [
        {
          "indexed": true,
          "internalType": "bytes32",
          "name": "gameId",
          "type": "bytes32"
        },
        {
          "indexed": false,
          "internalType": "address",
          "name": "player",
          "type": "address"
        }
      ],
      "name": "AssetsReclaimed",
      "type": "event"
    },
    {
      "anonymous": false,
      "inputs": [
        {
          "indexed": true,
          "internalType": "bytes32",
          "name": "gameId",
          "type": "bytes32"
        },
        {
          "indexed": false,
          "internalType": "string",
          "name": "reason",
          "type": "string"
        }
      ],
      "name": "GameCancelled",
      "type": "event"
    },
    {
      "anonymous": false,
      "inputs": [
        {
          "indexed": true,
          "internalType": "bytes32",
          "name": "gameId",
          "type": "bytes32"
        },
        {
          "indexed": false,
          "internalType": "address",
          "name": "winner",
          "type": "address"
        }
      ],
      "name": "GameCompleted",
      "type": "event"
    },
    {
      "anonymous": false,
      "inputs": [
        {
          "indexed": true,
          "internalType": "bytes32",
          "name": "gameId",
          "type": "bytes32"
        },
        {
          "indexed": false,
          "internalType": "address",
          "name": "player1",
          "type": "address"
        },
        {
          "indexed": false,
          "internalType": "address",
          "name": "player2",
          "type": "address"
        },
        {
          "indexed": false,
          "internalType": "enum NFTFlipGame.PaymentToken",
          "name": "paymentToken",
          "type": "uint8"
        }
      ],
      "name": "GameCreated",
      "type": "event"
    },
    {
      "anonymous": false,
      "inputs": [
        {
          "indexed": true,
          "internalType": "bytes32",
          "name": "gameId",
          "type": "bytes32"
        }
      ],
      "name": "GameStarted",
      "type": "event"
    },
    {
      "anonymous": false,
      "inputs": [
        {
          "indexed": true,
          "internalType": "address",
          "name": "creator",
          "type": "address"
        },
        {
          "indexed": false,
          "internalType": "uint256",
          "name": "amount",
          "type": "uint256"
        }
      ],
      "name": "ListingFeePaid",
      "type": "event"
    },
    {
      "anonymous": false,
      "inputs": [
        {
          "indexed": true,
          "internalType": "address",
          "name": "previousOwner",
          "type": "address"
        },
        {
          "indexed": true,
          "internalType": "address",
          "name": "newOwner",
          "type": "address"
        }
      ],
      "name": "OwnershipTransferred",
      "type": "event"
    },
    {
      "anonymous": false,
      "inputs": [
        {
          "indexed": false,
          "internalType": "address",
          "name": "account",
          "type": "address"
        }
      ],
      "name": "Paused",
      "type": "event"
    },
    {
      "anonymous": false,
      "inputs": [
        {
          "indexed": false,
          "internalType": "address",
          "name": "account",
          "type": "address"
        }
      ],
      "name": "Unpaused",
      "type": "event"
    },
    {
      "inputs": [],
      "name": "BASIS_POINTS",
      "outputs": [
        {
          "internalType": "uint256",
          "name": "",
          "type": "uint256"
        }
      ],
      "stateMutability": "view",
      "type": "function"
    },
    {
      "inputs": [
        {
          "internalType": "address[]",
          "name": "nftContracts",
          "type": "address[]"
        },
        {
          "internalType": "uint256[]",
          "name": "tokenIds",
          "type": "uint256[]"
        },
        {
          "internalType": "address[]",
          "name": "recipients",
          "type": "address[]"
        }
      ],
      "name": "adminBatchWithdrawNFTs",
      "outputs": [],
      "stateMutability": "nonpayable",
      "type": "function"
    },
    {
      "inputs": [
        {
          "internalType": "bytes32",
          "name": "gameId",
          "type": "bytes32"
        }
      ],
      "name": "canDeposit",
      "outputs": [
        {
          "internalType": "bool",
          "name": "",
          "type": "bool"
        }
      ],
      "stateMutability": "view",
      "type": "function"
    },
    {
      "inputs": [
        {
          "internalType": "bytes32",
          "name": "gameId",
          "type": "bytes32"
        }
      ],
      "name": "canStartGame",
      "outputs": [
        {
          "internalType": "bool",
          "name": "",
          "type": "bool"
        }
      ],
      "stateMutability": "view",
      "type": "function"
    },
    {
      "inputs": [
        {
          "internalType": "bytes32",
          "name": "gameId",
          "type": "bytes32"
        }
      ],
      "name": "cancelGame",
      "outputs": [],
      "stateMutability": "nonpayable",
      "type": "function"
    },
    {
      "inputs": [
        {
          "internalType": "bytes32",
          "name": "gameId",
          "type": "bytes32"
        },
        {
          "internalType": "address",
          "name": "winner",
          "type": "address"
        }
      ],
      "name": "completeGame",
      "outputs": [],
      "stateMutability": "nonpayable",
      "type": "function"
    },
    {
      "inputs": [
        {
          "internalType": "bytes32",
          "name": "gameId",
          "type": "bytes32"
        }
      ],
      "name": "depositETH",
      "outputs": [],
      "stateMutability": "payable",
      "type": "function"
    },
    {
      "inputs": [
        {
          "internalType": "bytes32",
          "name": "gameId",
          "type": "bytes32"
        }
      ],
      "name": "depositNFT",
      "outputs": [],
      "stateMutability": "nonpayable",
      "type": "function"
    },
    {
      "inputs": [],
      "name": "depositTimeout",
      "outputs": [
        {
          "internalType": "uint256",
          "name": "",
          "type": "uint256"
        }
      ],
      "stateMutability": "view",
      "type": "function"
    },
    {
      "inputs": [
        {
          "internalType": "bytes32",
          "name": "gameId",
          "type": "bytes32"
        },
        {
          "internalType": "uint256",
          "name": "amount",
          "type": "uint256"
        }
      ],
      "name": "depositUSDC",
      "outputs": [],
      "stateMutability": "nonpayable",
      "type": "function"
    },
    {
      "inputs": [],
      "name": "emergencyPause",
      "outputs": [],
      "stateMutability": "nonpayable",
      "type": "function"
    },
    {
      "inputs": [],
      "name": "emergencyWithdrawETH",
      "outputs": [],
      "stateMutability": "nonpayable",
      "type": "function"
    },
    {
      "inputs": [
        {
          "internalType": "address",
          "name": "nftContract",
          "type": "address"
        },
        {
          "internalType": "uint256",
          "name": "tokenId",
          "type": "uint256"
        },
        {
          "internalType": "address",
          "name": "to",
          "type": "address"
        }
      ],
      "name": "emergencyWithdrawNFT",
      "outputs": [],
      "stateMutability": "nonpayable",
      "type": "function"
    },
    {
      "inputs": [],
      "name": "ethUsdFeed",
      "outputs": [
        {
          "internalType": "contract AggregatorV3Interface",
          "name": "",
          "type": "address"
        }
      ],
      "stateMutability": "view",
      "type": "function"
    },
    {
      "inputs": [
        {
          "internalType": "bytes32",
          "name": "",
          "type": "bytes32"
        }
      ],
      "name": "games",
      "outputs": [
        {
          "internalType": "address",
          "name": "player1",
          "type": "address"
        },
        {
          "internalType": "address",
          "name": "player2",
          "type": "address"
        },
        {
          "internalType": "address",
          "name": "nftContract",
          "type": "address"
        },
        {
          "internalType": "uint256",
          "name": "tokenId",
          "type": "uint256"
        },
        {
          "internalType": "uint256",
          "name": "ethAmount",
          "type": "uint256"
        },
        {
          "internalType": "uint256",
          "name": "usdcAmount",
          "type": "uint256"
        },
        {
          "internalType": "enum NFTFlipGame.PaymentToken",
          "name": "paymentToken",
          "type": "uint8"
        },
        {
          "internalType": "uint256",
          "name": "depositTime",
          "type": "uint256"
        },
        {
          "internalType": "bool",
          "name": "player1Deposited",
          "type": "bool"
        },
        {
          "internalType": "bool",
          "name": "player2Deposited",
          "type": "bool"
        },
        {
          "internalType": "bool",
          "name": "completed",
          "type": "bool"
        },
        {
          "internalType": "address",
          "name": "winner",
          "type": "address"
        }
      ],
      "stateMutability": "view",
      "type": "function"
    },
    {
      "inputs": [
        {
          "internalType": "uint256",
          "name": "usdAmount",
          "type": "uint256"
        }
      ],
      "name": "getETHAmount",
      "outputs": [
        {
          "internalType": "uint256",
          "name": "",
          "type": "uint256"
        }
      ],
      "stateMutability": "view",
      "type": "function"
    },
    {
      "inputs": [
        {
          "internalType": "bytes32",
          "name": "gameId",
          "type": "bytes32"
        }
      ],
      "name": "getGameDetails",
      "outputs": [
        {
          "internalType": "address",
          "name": "player1",
          "type": "address"
        },
        {
          "internalType": "address",
          "name": "player2",
          "type": "address"
        },
        {
          "internalType": "address",
          "name": "nftContract",
          "type": "address"
        },
        {
          "internalType": "uint256",
          "name": "tokenId",
          "type": "uint256"
        },
        {
          "internalType": "uint256",
          "name": "ethAmount",
          "type": "uint256"
        },
        {
          "internalType": "uint256",
          "name": "usdcAmount",
          "type": "uint256"
        },
        {
          "internalType": "enum NFTFlipGame.PaymentToken",
          "name": "paymentToken",
          "type": "uint8"
        },
        {
          "internalType": "uint256",
          "name": "depositTime",
          "type": "uint256"
        },
        {
          "internalType": "bool",
          "name": "player1Deposited",
          "type": "bool"
        },
        {
          "internalType": "bool",
          "name": "player2Deposited",
          "type": "bool"
        },
        {
          "internalType": "bool",
          "name": "completed",
          "type": "bool"
        },
        {
          "internalType": "address",
          "name": "winner",
          "type": "address"
        }
      ],
      "stateMutability": "view",
      "type": "function"
    },
    {
      "inputs": [
        {
          "internalType": "uint256",
          "name": "usdAmount",
          "type": "uint256"
        }
      ],
      "name": "getUSDCAmount",
      "outputs": [
        {
          "internalType": "uint256",
          "name": "",
          "type": "uint256"
        }
      ],
      "stateMutability": "pure",
      "type": "function"
    },
    {
      "inputs": [
        {
          "internalType": "address",
          "name": "user",
          "type": "address"
        }
      ],
      "name": "getUserGames",
      "outputs": [
        {
          "internalType": "bytes32[]",
          "name": "",
          "type": "bytes32[]"
        }
      ],
      "stateMutability": "view",
      "type": "function"
    },
    {
      "inputs": [
        {
          "internalType": "bytes32",
          "name": "gameId",
          "type": "bytes32"
        },
        {
          "internalType": "address",
          "name": "player1",
          "type": "address"
        },
        {
          "internalType": "address",
          "name": "player2",
          "type": "address"
        },
        {
          "internalType": "address",
          "name": "nftContract",
          "type": "address"
        },
        {
          "internalType": "uint256",
          "name": "tokenId",
          "type": "uint256"
        },
        {
          "internalType": "uint256",
          "name": "priceUSD",
          "type": "uint256"
        },
        {
          "internalType": "enum NFTFlipGame.PaymentToken",
          "name": "paymentToken",
          "type": "uint8"
        }
      ],
      "name": "initializeGame",
      "outputs": [],
      "stateMutability": "nonpayable",
      "type": "function"
    },
    {
      "inputs": [],
      "name": "listingFeeUSD",
      "outputs": [
        {
          "internalType": "uint256",
          "name": "",
          "type": "uint256"
        }
      ],
      "stateMutability": "view",
      "type": "function"
    },
    {
      "inputs": [
        {
          "internalType": "address",
          "name": "",
          "type": "address"
        }
      ],
      "name": "listingFees",
      "outputs": [
        {
          "internalType": "uint256",
          "name": "",
          "type": "uint256"
        }
      ],
      "stateMutability": "view",
      "type": "function"
    },
    {
      "inputs": [],
      "name": "owner",
      "outputs": [
        {
          "internalType": "address",
          "name": "",
          "type": "address"
        }
      ],
      "stateMutability": "view",
      "type": "function"
    },
    {
      "inputs": [],
      "name": "paused",
      "outputs": [
        {
          "internalType": "bool",
          "name": "",
          "type": "bool"
        }
      ],
      "stateMutability": "view",
      "type": "function"
    },
    {
      "inputs": [],
      "name": "payListingFee",
      "outputs": [],
      "stateMutability": "payable",
      "type": "function"
    },
    {
      "inputs": [],
      "name": "platformFeePercent",
      "outputs": [
        {
          "internalType": "uint256",
          "name": "",
          "type": "uint256"
        }
      ],
      "stateMutability": "view",
      "type": "function"
    },
    {
      "inputs": [],
      "name": "platformFeeReceiver",
      "outputs": [
        {
          "internalType": "address",
          "name": "",
          "type": "address"
        }
      ],
      "stateMutability": "view",
      "type": "function"
    },
    {
      "inputs": [
        {
          "internalType": "bytes32",
          "name": "gameId",
          "type": "bytes32"
        }
      ],
      "name": "reclaimAssets",
      "outputs": [],
      "stateMutability": "nonpayable",
      "type": "function"
    },
    {
      "inputs": [],
      "name": "renounceOwnership",
      "outputs": [],
      "stateMutability": "nonpayable",
      "type": "function"
    },
    {
      "inputs": [
        {
          "internalType": "uint256",
          "name": "newTimeout",
          "type": "uint256"
        }
      ],
      "name": "setDepositTimeout",
      "outputs": [],
      "stateMutability": "nonpayable",
      "type": "function"
    },
    {
      "inputs": [
        {
          "internalType": "uint256",
          "name": "newFee",
          "type": "uint256"
        }
      ],
      "name": "setListingFee",
      "outputs": [],
      "stateMutability": "nonpayable",
      "type": "function"
    },
    {
      "inputs": [
        {
          "internalType": "uint256",
          "name": "newPercent",
          "type": "uint256"
        }
      ],
      "name": "setPlatformFee",
      "outputs": [],
      "stateMutability": "nonpayable",
      "type": "function"
    },
    {
      "inputs": [
        {
          "internalType": "address",
          "name": "newOwner",
          "type": "address"
        }
      ],
      "name": "transferOwnership",
      "outputs": [],
      "stateMutability": "nonpayable",
      "type": "function"
    },
    {
      "inputs": [],
      "name": "unpause",
      "outputs": [],
      "stateMutability": "nonpayable",
      "type": "function"
    },
    {
      "inputs": [],
      "name": "usdcToken",
      "outputs": [
        {
          "internalType": "address",
          "name": "",
          "type": "address"
        }
      ],
      "stateMutability": "view",
      "type": "function"
    },
    {
      "inputs": [
        {
          "internalType": "address",
          "name": "",
          "type": "address"
        },
        {
          "internalType": "uint256",
          "name": "",
          "type": "uint256"
        }
      ],
      "name": "userGames",
      "outputs": [
        {
          "internalType": "bytes32",
          "name": "",
          "type": "bytes32"
        }
      ],
      "stateMutability": "view",
      "type": "function"
    }
  ],
  "bytecode": "0x6080346200011257601f62002cd538819003918201601f19168301916001600160401b03831184841017620001175780849260609460405283398101031262000112576200004d816200012d565b62000069604062000061602085016200012d565b93016200012d565b916001600055600154926040519360018060a01b03928391338382167f8be0079c531659141344cd1fd0a4f28419497f9722a3daafe3b4186f6b6457e0600080a36001600160a81b0319163360ff60a01b19161760015562030d4060055561015e60065561012c600755600980546001600160a01b0319908116968416969096179055600a8054861691909216179055600880549093169116179055612b929081620001438239f35b600080fd5b634e487b7160e01b600052604160045260246000fd5b51906001600160a01b0382168203620001125756fe6080806040526004908136101561001557600080fd5b60009060e08235811c91826311eac8551461243c57508163120aace61461238e57816312e8e2c314612332578163131dbd09146123105781631fd462cd146122f1578163276273731461226c5781632d656ad7146122435781633a38d063146122255781633f4ba83a146121865781633f7121b01461206b57816351858e27146120085781635717722414611e6c5781635c975abb14611e46578163615318c714611e28578163691ddd7d14611b165781636dbf27631461168d578163715018a61461162f5781637c34c355146113485781637f80e6f2146112525781638009b7bd1461122957816384536017146111b45781638a1fa0291461104b5781638c639a851461102d5781638da5cb5b14611004578163b1a8129514610f61578163b262f41f14610e28578163bc0167cd14610dd0578163cb9a263014610a58578163d68d9d4e146107c9578163e1f1c4a7146107ac578163e9df30271461047c578163ef46b2ab14610455578163f060ad4c1461041c578163f2fde38b1461034c578163f372e33c1461023e575063f579f882146101b157600080fd5b3461023b57602036600319011261023b576040908235815260026020522061023760018060a01b039182815416908360018201541690846002820154169260038201549682015491600581015460ff6006830154169060086007840154930154946040519a8b9a8760181c169860ff8860101c169860ff808a60081c169916978d6124c6565b0390f35b80fd5b83915034610348576020366003190112610348576040602093833581526002855220916008604051936102708561263e565b80546001600160a01b039081168652600182015481168787015260028201548116604087015260038201546060870152928101546080860152600581015460a086015260068101546102c89060ff1660c087016127a3565b6007810154809486015201549260ff8416151561010082015260ff8460081c1615156101208201528160ff8560101c161594851561014084015260181c16610160820152511615159182610340575b5081610329575b506040519015158152f35b6103379150600754906125f1565b4211158261031e565b915083610317565b8280fd5b82843461041857602036600319011261041857610367612461565b61036f612599565b6001600160a01b039081169182156103c55750600154826bffffffffffffffffffffffff60a01b821617600155167f8be0079c531659141344cd1fd0a4f28419497f9722a3daafe3b4186f6b6457e0600080a380f35b60849060206040519162461bcd60e51b8352820152602660248201527f4f776e61626c653a206e6577206f776e657220697320746865207a65726f206160448201526564647265737360d01b6064820152fd5b5080fd5b823461023b57602036600319011261023b576020906040906001600160a01b03610444612461565b168152600383522054604051908152f35b50503461023b57602036600319011261023b5760206104748335612a29565b604051908152f35b8284346104185760403660031901126104185780359061049a612477565b6104a2612599565b6104aa61274d565b82845260209160028352604085209160018060a01b039283815416936104d18515156127e9565b6008820180546104e760ff8260101c161561298f565b60ff81168061079f575b15610764578285169687148015610755575b156107205762010000600160b81b031916601885901b6301000000600160b81b031617620100001790558781600284015416600384015490803b1561034857604080516323b872dd60e01b815230818a019081526001600160a01b0389166020820152918201939093528391839182908490829060600103925af18015610715576106fd575b505060ff60068301541660028110156106ea57889392919061062c57508280928582930154905af16105b961267d565b50156105f25750907f0bf6aee0a93e0c0696509fac1649343cafc5bf013811646e438330fe86e4c15f915b604051908152a26001815580f35b60405162461bcd60e51b81529081018390526013602482015272115512081d1c985b9cd9995c8819985a5b1959606a1b6044820152606490fd5b600a54600592909201546040805163a9059cbb60e01b81526001600160a01b03959095169685019687526020870191909152929695948694889491859003909101928492165af19283156106df577f0bf6aee0a93e0c0696509fac1649343cafc5bf013811646e438330fe86e4c15f936106ad9187916106b2575b5061294c565b6105e4565b6106d29150843d86116106d8575b6106ca818361265b565b810190612934565b876106a7565b503d6106c0565b6040513d87823e3d90fd5b634e487b7160e01b895260218552602489fd5b61070690612614565b610711578789610589565b8780fd5b6040513d84823e3d90fd5b60405162461bcd60e51b8152808701899052600e60248201526d24b73b30b634b2103bb4b73732b960911b6044820152606490fd5b50826001850154168714610503565b60405162461bcd60e51b81528087018990526014602482015273105cdcd95d1cc81b9bdd0819195c1bdcda5d195960621b6044820152606490fd5b5060ff8160081c166104f1565b823461023b578060031936011261023b5760206040516127108152f35b8260208536600319018213610348578035916107e361274d565b6107eb612706565b828452600281526040842060018101546001600160a01b0392919061081e9084166108178115156127e9565b33146128e6565b600881019283549460ff95610838878260081c161561282b565b610847878260101c161561286b565b61086361085b6007860154600754906125f1565b4211156128a8565b6006840193878554166002811015610a4557610a0f5782019182549361271061088e60065487612921565b04928534106109d8578b80858194610100839561ff001916178d55600854165af16108b761267d565b50156109945750867f981102f46f858a9ad42e0e3924c2ee3ddb912d9d6d28768155ffdb174c81711f94606094846108f5610919958d9a97546126bd565b90558b81341161096c575b50505416896040519333855284015260408301906124a3565ba25490808216918261095f575b5050610935575b506001815580f35b7fee5528ba4f234f658c6a97a7e3cba5532e7aad23bb249be4141b62e6a0158a7c8280a28161092d565b60081c1690508380610926565b80808061097c61098d95346126bd565b335af161098761267d565b506126ca565b8b8b610900565b60405162461bcd60e51b8152908101869052601c60248201527f506c6174666f726d20666565207472616e73666572206661696c6564000000006044820152606490fd5b60405162461bcd60e51b8152808401899052601060248201526f092dce6eaccccd2c6d2cadce8408aa8960831b6044820152606490fd5b60405162461bcd60e51b8152808401879052600f60248201526e4e6f7420616e204554482067616d6560881b6044820152606490fd5b634e487b7160e01b8b526021845260248bfd5b8284346104185760603660031901126104185767ffffffffffffffff908035828111610c9157610a8b9036908301612568565b9190926024928335828111610dcc57610aa79036908501612568565b6044938435908111610dc857610ac09036908701612568565b610acb929192612599565b81851480610dbf575b15610d7d579288928a98959289955b848710610aee578a80f35b9899979896976001600160a01b0397909688610b13610b0e83898b612b38565b612b48565b1615610d445788610b28610b0e838588612b38565b1615610d0e5788610b3d610b0e83898b612b38565b16988c610b4b838689612b38565b359a6040519b8c926331a9108f60e11b8452830152818d60209d8e935afa8a9181610cd6575b50610bb9575060405162461bcd60e51b8152808e018b9052601d818d01527f4661696c656420746f20636865636b204e4654206f776e657273686970000000818e0152606490fd5b81929394959697989c999d9a9130911603610c9557508b90610bdf610b0e848a8f612b38565b16610bee610b0e848689612b38565b610bf984878a612b38565b35823b15610c9157604080516323b872dd60e01b815230818f019081526001600160a01b0390941660208501529083019190915291839183919082908490829060600103925af1801561071557610c79575b50506000198114610c6757600101959796989493929190610ae3565b634e487b7160e01b8b5260118852888bfd5b610c8290612614565b610c8d578a8c610c4b565b8a80fd5b8380fd5b897f436f6e747261637420646f6573206e6f74206f776e2074686973204e465400008a601e8e6064956040519562461bcd60e51b8752860152840152820152fd5b9091508b81813d8311610d07575b610cee818361265b565b81010312610c8d57518281168103610c8d57908f610b71565b503d610ce4565b60405162461bcd60e51b81526020818e01526011818c015270125b9d985b1a59081c9958da5c1a595b9d607a1b818d0152606490fd5b60405162461bcd60e51b81526020818e01526014818c015273125b9d985b1a59081391950818dbdb9d1c9858dd60621b818d0152606490fd5b60405162461bcd60e51b81526020818901526018818a01527f4172726179206c656e67746873206d757374206d61746368000000000000000081880152606490fd5b50808214610ad4565b8880fd5b8680fd5b50503461023b57604036600319011261023b57610deb612461565b6001600160a01b03168152602091909152604081208054602435929083101561023b576020610e1a848461253a565b90546040519160031b1c8152f35b82848160031936011261041857610e3d61274d565b610e45612706565b610e50600554612a29565b90813410610f1d57338352600360205260408320610e6f8382546125f1565b9055828080808560018060a01b03600854165af1610e8b61267d565b5015610ee35750803411610ecd575b6040519081527f3a5f70a82eb571b0a884a01d171c139c6ec5169ba9e11e00d211cb4f76391e1460203392a26001815580f35b610ede8280808061097c86346126bd565b610e9a565b60649060206040519162461bcd60e51b83528201526013602482015272119959481d1c985b9cd9995c8819985a5b1959606a1b6044820152fd5b60649060206040519162461bcd60e51b8352820152601860248201527f496e73756666696369656e74206c697374696e672066656500000000000000006044820152fd5b8280853461100157606036600319011261100157610f7d612461565b610f8561248d565b90610f8e612599565b6001600160a01b031691823b15610ffc57604080516323b872dd60e01b8152309281019283526001600160a01b039093166020830152602435908201529091839183919082908490829060600103925af1801561071557610fec5750f35b610ff590612614565b61023b5780f35b505050fd5b50fd5b823461023b578060031936011261023b576001546040516001600160a01b039091168152602090f35b823461023b578060031936011261023b576020600654604051908152f35b9190503461023b57602036600319011261023b5782358152600260205260408120916040516110798161263e565b60018060a01b03845416815260018060a01b03600185015416926020820193845260018060a01b03600286015416946040830195865260038101549360608401948552878201549260808501938452600860058401549360a087019485526110eb60ff60068301541660c089016127a3565b6007810154938701938452015460ff8082161515610100880152600882901c81161515610120880152601082901c16151561014087015260181c6001600160a01b0390811661016087015285519751985196519451935160c0870151998216999882169897909116969092909160028310156111a1575061023797989950519161010086015115159361012087015115159561014088015115159761016060018060a01b0391015116986040519c8d9c8d6124c6565b634e487b7160e01b815260218b52602490fd5b8284346104185781600319360112610418576111ce612599565b8180808060018060a01b036001541647905af16111e961267d565b50156111f3575080f35b60649060206040519162461bcd60e51b8352820152600f60248201526e151c985b9cd9995c8819985a5b1959608a1b6044820152fd5b823461023b578060031936011261023b576009546040516001600160a01b039091168152602090f35b905082346103485760203660031901126103485760086040602094833581526002865220604051936112838561263e565b81546001600160a01b039081168652600183015481168787015260028301548116604087015260038301546060870152938201546080860152600582015460a086015260068201546112db9060ff1660c087016127a3565b60078201549085015201549060ff82161515928361010082015261016060ff8460081c161515928361012084015260ff8560101c161594851561014085015260181c1691015282611340575b508161133857506040519015158152f35b90508261031e565b915083611327565b8284346104185760403660031901126104185780359061136661274d565b61136e612706565b818352600260209081526040842060018101546001600160a01b0392919061139d9084166108178115156127e9565b6008810192835460ff956113b6878360081c161561282b565b6113c5878360101c161561286b565b6113d961085b6007860154600754906125f1565b600684019387855416600281101561161c576001036115e65760050192835461271061140760065483612921565b049381602435106115ae5761ff001916610100178855600a54604080516323b872dd60e01b815233868201908152306020820152918201939093528c9392918991839185169082908790829060600103925af19182156115a357611477899387936114b29691611586575061294c565b80600a541690600854168d60405180968195829463a9059cbb60e01b84528a840160209093929193604081019460018060a01b031681520152565b03925af190811561157b578a9161155e575b501561151a575092610919867f981102f46f858a9ad42e0e3924c2ee3ddb912d9d6d28768155ffdb174c81711f94846115018b98606097546126bd565b90555416896040519333855284015260408301906124a3565b60405162461bcd60e51b8152908101859052601860248201527f5553444320666565207472616e73666572206661696c656400000000000000006044820152606490fd5b6115759150863d88116106d8576106ca818361265b565b8a6114c4565b6040513d8c823e3d90fd5b61159d9150853d87116106d8576106ca818361265b565b8f6106a7565b6040513d85823e3d90fd5b60405162461bcd60e51b81528085018990526011602482015270496e73756666696369656e74205553444360781b6044820152606490fd5b60405162461bcd60e51b8152808301879052600f60248201526e4e6f74206120555344432067616d6560881b6044820152606490fd5b634e487b7160e01b8b526021835260248bfd5b823461023b578060031936011261023b57611648612599565b600180546001600160a01b031981169091556000906001600160a01b03167f8be0079c531659141344cd1fd0a4f28419497f9722a3daafe3b4186f6b6457e08280a380f35b8284346104185760209081600319360112610348578035916116ad61274d565b8284526002815260408420805490926001600160a01b03918216906116d38215156127e9565b6008850191825460ff916116ec838360101c161561286b565b6116fd6007890154600754906125f1565b421115611adc5733148015611acd575b15611a9a5788939291908181168080611a8d575b156117f15750505083865416916117398333146129d4565b805462ff000019166201000017905560028601546003870154908516803b156117ed57604080516323b872dd60e01b8152309481019485526001600160a01b039095166020850152830191909152839183919082908490829060600103925af18015610715576117d9575b50507fbeb9db71629193a6a8d82214e24ce084d5f6b1c980d4cda5cec9139a2ea33832925416604051908152a25b6001815580f35b6117e290612614565b6117ed5784866117a4565b8480fd5b90919596979392945015808091611a81575b156119f55750506001820193858554169161181f8333146129d4565b805462ff000019166201000017905560068301541660028110156119e25788929187916118ea5750508180809261186d868989541692015461271061186660065483612921565b04906125f1565b905af161187861267d565b50156118b25750907fbeb9db71629193a6a8d82214e24ce084d5f6b1c980d4cda5cec9139a2ea3383292915b5416604051908152a26117d2565b60405162461bcd60e51b81529081018490526011602482015270115512081c99599d5b990819985a5b1959607a1b6044820152606490fd5b909161193f935061190d600588600a541692015461271061186660065483612921565b918a60405180968195829463a9059cbb60e01b84528a840160209093929193604081019460018060a01b031681520152565b03925af19081156119d75787916119ba575b50156119815750907fbeb9db71629193a6a8d82214e24ce084d5f6b1c980d4cda5cec9139a2ea3383292916118a4565b60405162461bcd60e51b815290810184905260126024820152711554d110c81c99599d5b990819985a5b195960721b6044820152606490fd5b6119d19150853d87116106d8576106ca818361265b565b87611951565b6040513d89823e3d90fd5b634e487b7160e01b895260218452602489fd5b935094509492905081611a73575b50611a12575b505050506117d2565b7fd48b0c9992d8d4b8967d1584dc8c1955390d9ff30639a7da9c77e7f0db86c3d8926201000060609362ff000019161790556010604051918083528201526f4e6f206465706f73697473206d61646560801b6040820152a281808080611a09565b90508260081c161586611a03565b50858260081c16611803565b50828260081c1615611721565b60405162461bcd60e51b8152808401879052600c60248201526b2737ba103090383630bcb2b960a11b6044820152606490fd5b5084600188015416331461170d565b60405162461bcd60e51b81528085018890526013602482015272151a5b595bdd5d081b9bdd081c995858da1959606a1b6044820152606490fd5b90508234610348578160031936011261034857611b31612477565b611b3961248d565b906064356001600160a01b03811690819003611e235760a4359460c43593600285101561071157611b68612599565b85358852600260205260408820546001600160a01b0316611de9576001600160a01b0393841696931692868414611da55787908186611d9d5750611bab90612a29565b60405193611bb88561263e565b88855285602086015260408501526084356060850152608084015260a0830152611be58460c084016127a3565b428183015286610100830152866101208301528661014083015286610160830152843587526002602052604087209060018060a01b038351166bffffffffffffffffffffffff60a01b90818454161783556001830160018060a01b0360208601511682825416179055600283019060018060a01b03604086015116908254161790556060830151600383015560808301518683015560a083015160058301556006820160c08401516002811015611d8a57815460ff191660ff9182161790915590830151600783015561010083015160089283018054610120860151610140870151610160909701516301000000600160b81b0360189190911b1662ff000097151560101b9790971661ff0091151590961b169215159093166001600160b81b03199093169290921717919091179190911790557f212c0bdcf42696e85cddf68fc1623b3327138b7898282f7356ab7ec713e9cf32926060929091611d84919086885283602052611d5a843560408a206127af565b80885283602052611d6f843560408a206127af565b604051968752602087015260408601906124a3565b3592a280f35b634e487b7160e01b8a526021885260248afd5b915090611bab565b60405162461bcd60e51b8152602081880152601c60248201527f43616e6e6f7420706c617920616761696e737420796f757273656c66000000006044820152606490fd5b60405162461bcd60e51b8152602081880152601360248201527247616d6520616c72656164792065786973747360681b6044820152606490fd5b600080fd5b823461023b578060031936011261023b576020600754604051908152f35b823461023b578060031936011261023b57602060ff60015460a01c166040519015158152f35b82843461041857602036600319011261041857803590611e8a61274d565b611e92612706565b81835260026020526040832080546001600160a01b0392908316611eb78115156127e9565b3303611fd557846008830193611ee060ff8654611ed68282161561282b565b60101c161561286b565b611ef461085b6007860154600754906125f1565b600284015416600384015490803b1561034857604080516323b872dd60e01b81523395810195865230602087015290850192909252909283919082908490829060600103925af180156106df57611fc1575b5083600191847f981102f46f858a9ad42e0e3924c2ee3ddb912d9d6d28768155ffdb174c81711f606060ff6006885495888319881617809a55015416611f9c6040519133835288602084015260408301906124a3565ba216179081611fb3575b5061093557506001815580f35b60ff915060081c1683611fa6565b93611fce60019295612614565b9390611f46565b60649060206040519162461bcd60e51b8352820152600c60248201526b4e6f7420706c61796572203160a01b6044820152fd5b823461023b578060031936011261023b57612021612599565b612029612706565b6001805460ff60a01b1916600160a01b1790556040513381527f62e78cea01bee320cd4e420270b5ea74000d11b0c9f74754ebdbfc544b05a25890602090a180f35b82843461041857602036600319011261041857803590612089612599565b8183526002602052604083208054600891906120af906001600160a01b031615156127e9565b01908154906120c460ff8360101c161561298f565b60ff82161580612178575b156121345750620100009062ff000019161790557fd48b0c9992d8d4b8967d1584dc8c1955390d9ff30639a7da9c77e7f0db86c3d8606060405160208152601360208201527243616e63656c6c65642062792073797374656d60681b6040820152a280f35b60649060206040519162461bcd60e51b8352820152601c60248201527f43616e6e6f742063616e63656c206166746572206465706f73697473000000006044820152fd5b5060ff8260081c16156120cf565b8284346104185781600319360112610418576121a0612599565b6001549060ff8260a01c16156121ea575060ff60a01b19166001556040513381527f5db9ee0a495bf2e6ff9c91a7834c1ba4fdd244a5e8aa4e537bd38aeae4b073aa90602090a180f35b60649060206040519162461bcd60e51b8352820152601460248201527314185d5cd8589b194e881b9bdd081c185d5cd95960621b6044820152fd5b823461023b578060031936011261023b576020600554604051908152f35b823461023b578060031936011261023b576008546040516001600160a01b039091168152602090f35b8284346104185760203660031901126104185780359061228a612599565b603c821015806122e5575b156122a1575060075580f35b60649060206040519162461bcd60e51b8352820152601c60248201527f54696d656f7574206d75737420626520312d3130206d696e75746573000000006044820152fd5b50610258821115612295565b8284346104185760203660031901126104185760209060405190358152f35b8284346104185760203660031901126104185761232b612599565b3560055580f35b82843461041857602036600319011261041857803590612350612599565b6103e88211612360575060065580f35b60649060206040519162461bcd60e51b835282015260076024820152664d61782031302560c81b6044820152fd5b8284346104185760209081600319360112610348576001600160a01b036123b3612461565b16835281526040822060405192838383549182815201908193835284832090835b81811061242857505050846123ea91038561265b565b60405193838594850191818652518092526040850193925b82811061241157505050500390f35b835185528695509381019392810192600101612402565b8254845292860192600192830192016123d4565b839034610418578160031936011261041857600a546001600160a01b03168152602090f35b600435906001600160a01b0382168203611e2357565b602435906001600160a01b0382168203611e2357565b604435906001600160a01b0382168203611e2357565b9060028210156124b05752565b634e487b7160e01b600052602160045260246000fd5b9a979491999693909c9b9895929c6101808c019d8c600160a01b60019003809d8180951683521690602001521660408c015260608b015260808a015260a089015260c08801612514916124a3565b60e087015215156101008601521515610120850152151561014084015216906101600152565b80548210156125525760005260206000200190600090565b634e487b7160e01b600052603260045260246000fd5b9181601f84011215611e235782359167ffffffffffffffff8311611e23576020808501948460051b010111611e2357565b6001546001600160a01b031633036125ad57565b606460405162461bcd60e51b815260206004820152602060248201527f4f776e61626c653a2063616c6c6572206973206e6f7420746865206f776e65726044820152fd5b919082018092116125fe57565b634e487b7160e01b600052601160045260246000fd5b67ffffffffffffffff811161262857604052565b634e487b7160e01b600052604160045260246000fd5b610180810190811067ffffffffffffffff82111761262857604052565b90601f8019910116810190811067ffffffffffffffff82111761262857604052565b3d156126b8573d9067ffffffffffffffff821161262857604051916126ac601f8201601f19166020018461265b565b82523d6000602084013e565b606090565b919082039182116125fe57565b156126d157565b60405162461bcd60e51b815260206004820152600d60248201526c1499599d5b990819985a5b1959609a1b6044820152606490fd5b60ff60015460a01c1661271557565b60405162461bcd60e51b815260206004820152601060248201526f14185d5cd8589b194e881c185d5cd95960821b6044820152606490fd5b60026000541461275e576002600055565b60405162461bcd60e51b815260206004820152601f60248201527f5265656e7472616e637947756172643a207265656e7472616e742063616c6c006044820152606490fd5b60028210156124b05752565b805468010000000000000000811015612628576127d19160018201815561253a565b819291549060031b91821b91600019901b1916179055565b156127f057565b60405162461bcd60e51b815260206004820152601360248201527211d85b5948191bd95cc81b9bdd08195e1a5cdd606a1b6044820152606490fd5b1561283257565b60405162461bcd60e51b8152602060048201526011602482015270105b1c9958591e4819195c1bdcda5d1959607a1b6044820152606490fd5b1561287257565b60405162461bcd60e51b815260206004820152600e60248201526d11d85b594818dbdb5c1b195d195960921b6044820152606490fd5b156128af57565b60405162461bcd60e51b815260206004820152600f60248201526e11195c1bdcda5d081d1a5b595bdd5d608a1b6044820152606490fd5b156128ed57565b60405162461bcd60e51b815260206004820152600c60248201526b2737ba10383630bcb2b9101960a11b6044820152606490fd5b818102929181159184041417156125fe57565b90816020910312611e2357518015158103611e235790565b1561295357565b60405162461bcd60e51b81526020600482015260146024820152731554d110c81d1c985b9cd9995c8819985a5b195960621b6044820152606490fd5b1561299657565b60405162461bcd60e51b815260206004820152601660248201527511d85b5948185b1c9958591e4818dbdb5c1b195d195960521b6044820152606490fd5b156129db57565b60405162461bcd60e51b815260206004820152600f60248201526e4e6f7420796f75722061737365747360881b6044820152606490fd5b519069ffffffffffffffffffff82168203611e2357565b600954604051633fabe5a360e21b8152919060a090839060049082906001600160a01b03165afa918215612b2c57600092612ade575b506000821315612aa45768056bc75e2d63100000908181029181830414901517156125fe578115612a8e570490565b634e487b7160e01b600052601260045260246000fd5b60405162461bcd60e51b8152602060048201526012602482015271125b9d985b1a59081c1c9a58d9481999595960721b6044820152606490fd5b909160a0823d8211612b24575b81612af860a0938361265b565b8101031261023b5750612b0a81612a12565b50612b1c608060208301519201612a12565b509038612a5f565b3d9150612aeb565b6040513d6000823e3d90fd5b91908110156125525760051b0190565b356001600160a01b0381168103611e23579056fea26469706673582212201bb81e8efd55a49698de871e20d8eed6ee34d853678d8ab031025f2c508fb82464736f6c63430008140033",
  "linkReferences": {},
  "deployedLinkReferences": {}
}