{
  "_format": "hh-sol-artifact-1",
  "contractName": "NFTFlipGame",
  "sourceName": "contracts/NFTFlipGame.sol",
  "abi": [
    {
      "inputs": [
        {
          "internalType": "address",
          "name": "_ethUsdFeed",
          "type": "address"
        },
        {
          "internalType": "address",
          "name": "_usdcUsdFeed",
          "type": "address"
        },
        {
          "internalType": "address",
          "name": "_usdcToken",
          "type": "address"
        },
        {
          "internalType": "address",
          "name": "_platformFeeReceiver",
          "type": "address"
        }
      ],
      "stateMutability": "nonpayable",
      "type": "constructor"
    },
    {
      "anonymous": false,
      "inputs": [
        {
          "indexed": true,
          "internalType": "uint256",
          "name": "gameId",
          "type": "uint256"
        }
      ],
      "name": "GameCancelled",
      "type": "event"
    },
    {
      "anonymous": false,
      "inputs": [
        {
          "indexed": true,
          "internalType": "uint256",
          "name": "gameId",
          "type": "uint256"
        },
        {
          "indexed": true,
          "internalType": "address",
          "name": "winner",
          "type": "address"
        }
      ],
      "name": "GameCompleted",
      "type": "event"
    },
    {
      "anonymous": false,
      "inputs": [
        {
          "indexed": true,
          "internalType": "uint256",
          "name": "gameId",
          "type": "uint256"
        },
        {
          "indexed": true,
          "internalType": "address",
          "name": "creator",
          "type": "address"
        },
        {
          "indexed": false,
          "internalType": "enum NFTFlipGame.GameType",
          "name": "gameType",
          "type": "uint8"
        }
      ],
      "name": "GameCreated",
      "type": "event"
    },
    {
      "anonymous": false,
      "inputs": [
        {
          "indexed": true,
          "internalType": "uint256",
          "name": "gameId",
          "type": "uint256"
        },
        {
          "indexed": true,
          "internalType": "address",
          "name": "joiner",
          "type": "address"
        }
      ],
      "name": "GameJoined",
      "type": "event"
    },
    {
      "anonymous": false,
      "inputs": [
        {
          "indexed": false,
          "internalType": "uint256",
          "name": "newFee",
          "type": "uint256"
        }
      ],
      "name": "ListingFeeUpdated",
      "type": "event"
    },
    {
      "anonymous": false,
      "inputs": [
        {
          "indexed": true,
          "internalType": "address",
          "name": "player",
          "type": "address"
        },
        {
          "indexed": true,
          "internalType": "address",
          "name": "nftContract",
          "type": "address"
        },
        {
          "indexed": false,
          "internalType": "uint256",
          "name": "tokenId",
          "type": "uint256"
        }
      ],
      "name": "NFTWithdrawn",
      "type": "event"
    },
    {
      "anonymous": false,
      "inputs": [
        {
          "indexed": true,
          "internalType": "address",
          "name": "previousOwner",
          "type": "address"
        },
        {
          "indexed": true,
          "internalType": "address",
          "name": "newOwner",
          "type": "address"
        }
      ],
      "name": "OwnershipTransferred",
      "type": "event"
    },
    {
      "anonymous": false,
      "inputs": [
        {
          "indexed": false,
          "internalType": "address",
          "name": "account",
          "type": "address"
        }
      ],
      "name": "Paused",
      "type": "event"
    },
    {
      "anonymous": false,
      "inputs": [
        {
          "indexed": false,
          "internalType": "uint256",
          "name": "newPercent",
          "type": "uint256"
        }
      ],
      "name": "PlatformFeeUpdated",
      "type": "event"
    },
    {
      "anonymous": false,
      "inputs": [
        {
          "indexed": true,
          "internalType": "address",
          "name": "player",
          "type": "address"
        },
        {
          "indexed": false,
          "internalType": "uint256",
          "name": "ethAmount",
          "type": "uint256"
        },
        {
          "indexed": false,
          "internalType": "uint256",
          "name": "usdcAmount",
          "type": "uint256"
        }
      ],
      "name": "RewardsWithdrawn",
      "type": "event"
    },
    {
      "anonymous": false,
      "inputs": [
        {
          "indexed": false,
          "internalType": "address",
          "name": "account",
          "type": "address"
        }
      ],
      "name": "Unpaused",
      "type": "event"
    },
    {
      "inputs": [],
      "name": "BASIS_POINTS",
      "outputs": [
        {
          "internalType": "uint256",
          "name": "",
          "type": "uint256"
        }
      ],
      "stateMutability": "view",
      "type": "function"
    },
    {
      "inputs": [],
      "name": "MAX_FEE_PERCENT",
      "outputs": [
        {
          "internalType": "uint256",
          "name": "",
          "type": "uint256"
        }
      ],
      "stateMutability": "view",
      "type": "function"
    },
    {
      "inputs": [
        {
          "internalType": "uint256[]",
          "name": "gameIds",
          "type": "uint256[]"
        }
      ],
      "name": "adminBatchWithdrawExpired",
      "outputs": [],
      "stateMutability": "nonpayable",
      "type": "function"
    },
    {
      "inputs": [
        {
          "internalType": "address[]",
          "name": "nftContracts",
          "type": "address[]"
        },
        {
          "internalType": "uint256[]",
          "name": "tokenIds",
          "type": "uint256[]"
        },
        {
          "internalType": "address[]",
          "name": "recipients",
          "type": "address[]"
        }
      ],
      "name": "adminBatchWithdrawNFTs",
      "outputs": [],
      "stateMutability": "nonpayable",
      "type": "function"
    },
    {
      "inputs": [
        {
          "internalType": "uint256",
          "name": "gameId",
          "type": "uint256"
        }
      ],
      "name": "cancelGame",
      "outputs": [],
      "stateMutability": "nonpayable",
      "type": "function"
    },
    {
      "inputs": [
        {
          "internalType": "uint256",
          "name": "gameId",
          "type": "uint256"
        },
        {
          "internalType": "address",
          "name": "winner",
          "type": "address"
        }
      ],
      "name": "completeGame",
      "outputs": [],
      "stateMutability": "nonpayable",
      "type": "function"
    },
    {
      "inputs": [
        {
          "internalType": "address",
          "name": "nftContract",
          "type": "address"
        },
        {
          "internalType": "uint256",
          "name": "tokenId",
          "type": "uint256"
        },
        {
          "internalType": "uint256",
          "name": "priceUSD",
          "type": "uint256"
        },
        {
          "internalType": "enum NFTFlipGame.PaymentToken",
          "name": "acceptedToken",
          "type": "uint8"
        },
        {
          "internalType": "enum NFTFlipGame.GameType",
          "name": "gameType",
          "type": "uint8"
        },
        {
          "internalType": "string",
          "name": "authInfo",
          "type": "string"
        }
      ],
      "name": "createGame",
      "outputs": [],
      "stateMutability": "payable",
      "type": "function"
    },
    {
      "inputs": [
        {
          "internalType": "address",
          "name": "to",
          "type": "address"
        },
        {
          "internalType": "uint256",
          "name": "amount",
          "type": "uint256"
        }
      ],
      "name": "emergencyWithdrawETH",
      "outputs": [],
      "stateMutability": "nonpayable",
      "type": "function"
    },
    {
      "inputs": [
        {
          "internalType": "address",
          "name": "nftContract",
          "type": "address"
        },
        {
          "internalType": "uint256",
          "name": "tokenId",
          "type": "uint256"
        },
        {
          "internalType": "address",
          "name": "to",
          "type": "address"
        }
      ],
      "name": "emergencyWithdrawNFT",
      "outputs": [],
      "stateMutability": "nonpayable",
      "type": "function"
    },
    {
      "inputs": [
        {
          "internalType": "address",
          "name": "token",
          "type": "address"
        },
        {
          "internalType": "address",
          "name": "to",
          "type": "address"
        },
        {
          "internalType": "uint256",
          "name": "amount",
          "type": "uint256"
        }
      ],
      "name": "emergencyWithdrawToken",
      "outputs": [],
      "stateMutability": "nonpayable",
      "type": "function"
    },
    {
      "inputs": [],
      "name": "ethUsdFeed",
      "outputs": [
        {
          "internalType": "contract AggregatorV3Interface",
          "name": "",
          "type": "address"
        }
      ],
      "stateMutability": "view",
      "type": "function"
    },
    {
      "inputs": [
        {
          "internalType": "uint256",
          "name": "",
          "type": "uint256"
        }
      ],
      "name": "games",
      "outputs": [
        {
          "internalType": "uint256",
          "name": "gameId",
          "type": "uint256"
        },
        {
          "internalType": "address",
          "name": "creator",
          "type": "address"
        },
        {
          "internalType": "address",
          "name": "joiner",
          "type": "address"
        },
        {
          "internalType": "address",
          "name": "nftContract",
          "type": "address"
        },
        {
          "internalType": "uint256",
          "name": "tokenId",
          "type": "uint256"
        },
        {
          "internalType": "enum NFTFlipGame.GameState",
          "name": "state",
          "type": "uint8"
        },
        {
          "internalType": "enum NFTFlipGame.GameType",
          "name": "gameType",
          "type": "uint8"
        },
        {
          "internalType": "uint256",
          "name": "priceUSD",
          "type": "uint256"
        },
        {
          "internalType": "enum NFTFlipGame.PaymentToken",
          "name": "paymentToken",
          "type": "uint8"
        },
        {
          "internalType": "uint256",
          "name": "totalPaid",
          "type": "uint256"
        },
        {
          "internalType": "address",
          "name": "winner",
          "type": "address"
        },
        {
          "internalType": "uint256",
          "name": "createdAt",
          "type": "uint256"
        },
        {
          "internalType": "uint256",
          "name": "expiresAt",
          "type": "uint256"
        }
      ],
      "stateMutability": "view",
      "type": "function"
    },
    {
      "inputs": [
        {
          "internalType": "uint256",
          "name": "usdAmount",
          "type": "uint256"
        }
      ],
      "name": "getETHAmount",
      "outputs": [
        {
          "internalType": "uint256",
          "name": "",
          "type": "uint256"
        }
      ],
      "stateMutability": "view",
      "type": "function"
    },
    {
      "inputs": [
        {
          "internalType": "uint256",
          "name": "startIndex",
          "type": "uint256"
        },
        {
          "internalType": "uint256",
          "name": "count",
          "type": "uint256"
        }
      ],
      "name": "getExpiredGames",
      "outputs": [
        {
          "internalType": "uint256[]",
          "name": "",
          "type": "uint256[]"
        }
      ],
      "stateMutability": "view",
      "type": "function"
    },
    {
      "inputs": [
        {
          "internalType": "uint256",
          "name": "gameId",
          "type": "uint256"
        }
      ],
      "name": "getGameDetails",
      "outputs": [
        {
          "components": [
            {
              "internalType": "uint256",
              "name": "gameId",
              "type": "uint256"
            },
            {
              "internalType": "address",
              "name": "creator",
              "type": "address"
            },
            {
              "internalType": "address",
              "name": "joiner",
              "type": "address"
            },
            {
              "internalType": "address",
              "name": "nftContract",
              "type": "address"
            },
            {
              "internalType": "uint256",
              "name": "tokenId",
              "type": "uint256"
            },
            {
              "internalType": "enum NFTFlipGame.GameState",
              "name": "state",
              "type": "uint8"
            },
            {
              "internalType": "enum NFTFlipGame.GameType",
              "name": "gameType",
              "type": "uint8"
            },
            {
              "internalType": "uint256",
              "name": "priceUSD",
              "type": "uint256"
            },
            {
              "internalType": "enum NFTFlipGame.PaymentToken",
              "name": "paymentToken",
              "type": "uint8"
            },
            {
              "internalType": "uint256",
              "name": "totalPaid",
              "type": "uint256"
            },
            {
              "internalType": "address",
              "name": "winner",
              "type": "address"
            },
            {
              "internalType": "uint256",
              "name": "createdAt",
              "type": "uint256"
            },
            {
              "internalType": "uint256",
              "name": "expiresAt",
              "type": "uint256"
            }
          ],
          "internalType": "struct NFTFlipGame.Game",
          "name": "",
          "type": "tuple"
        },
        {
          "components": [
            {
              "internalType": "address",
              "name": "challengerNFTContract",
              "type": "address"
            },
            {
              "internalType": "uint256",
              "name": "challengerTokenId",
              "type": "uint256"
            }
          ],
          "internalType": "struct NFTFlipGame.NFTChallenge",
          "name": "",
          "type": "tuple"
        }
      ],
      "stateMutability": "view",
      "type": "function"
    },
    {
      "inputs": [],
      "name": "getPlatformFeeReceiver",
      "outputs": [
        {
          "internalType": "address",
          "name": "",
          "type": "address"
        }
      ],
      "stateMutability": "view",
      "type": "function"
    },
    {
      "inputs": [
        {
          "internalType": "uint256",
          "name": "usdAmount",
          "type": "uint256"
        }
      ],
      "name": "getUSDCAmount",
      "outputs": [
        {
          "internalType": "uint256",
          "name": "",
          "type": "uint256"
        }
      ],
      "stateMutability": "view",
      "type": "function"
    },
    {
      "inputs": [
        {
          "internalType": "uint256",
          "name": "gameId",
          "type": "uint256"
        }
      ],
      "name": "isGameExpired",
      "outputs": [
        {
          "internalType": "bool",
          "name": "",
          "type": "bool"
        }
      ],
      "stateMutability": "view",
      "type": "function"
    },
    {
      "inputs": [
        {
          "internalType": "uint256",
          "name": "gameId",
          "type": "uint256"
        },
        {
          "internalType": "enum NFTFlipGame.PaymentToken",
          "name": "paymentToken",
          "type": "uint8"
        },
        {
          "internalType": "address",
          "name": "challengerNFTContract",
          "type": "address"
        },
        {
          "internalType": "uint256",
          "name": "challengerTokenId",
          "type": "uint256"
        }
      ],
      "name": "joinGame",
      "outputs": [],
      "stateMutability": "payable",
      "type": "function"
    },
    {
      "inputs": [],
      "name": "listingFeeUSD",
      "outputs": [
        {
          "internalType": "uint256",
          "name": "",
          "type": "uint256"
        }
      ],
      "stateMutability": "view",
      "type": "function"
    },
    {
      "inputs": [],
      "name": "nextGameId",
      "outputs": [
        {
          "internalType": "uint256",
          "name": "",
          "type": "uint256"
        }
      ],
      "stateMutability": "view",
      "type": "function"
    },
    {
      "inputs": [
        {
          "internalType": "uint256",
          "name": "",
          "type": "uint256"
        }
      ],
      "name": "nftChallenges",
      "outputs": [
        {
          "internalType": "address",
          "name": "challengerNFTContract",
          "type": "address"
        },
        {
          "internalType": "uint256",
          "name": "challengerTokenId",
          "type": "uint256"
        }
      ],
      "stateMutability": "view",
      "type": "function"
    },
    {
      "inputs": [],
      "name": "owner",
      "outputs": [
        {
          "internalType": "address",
          "name": "",
          "type": "address"
        }
      ],
      "stateMutability": "view",
      "type": "function"
    },
    {
      "inputs": [],
      "name": "pause",
      "outputs": [],
      "stateMutability": "nonpayable",
      "type": "function"
    },
    {
      "inputs": [],
      "name": "paused",
      "outputs": [
        {
          "internalType": "bool",
          "name": "",
          "type": "bool"
        }
      ],
      "stateMutability": "view",
      "type": "function"
    },
    {
      "inputs": [],
      "name": "platformFeePercent",
      "outputs": [
        {
          "internalType": "uint256",
          "name": "",
          "type": "uint256"
        }
      ],
      "stateMutability": "view",
      "type": "function"
    },
    {
      "inputs": [],
      "name": "platformFeeReceiver",
      "outputs": [
        {
          "internalType": "address",
          "name": "",
          "type": "address"
        }
      ],
      "stateMutability": "view",
      "type": "function"
    },
    {
      "inputs": [],
      "name": "renounceOwnership",
      "outputs": [],
      "stateMutability": "nonpayable",
      "type": "function"
    },
    {
      "inputs": [
        {
          "internalType": "uint256",
          "name": "newFee",
          "type": "uint256"
        }
      ],
      "name": "setListingFee",
      "outputs": [],
      "stateMutability": "nonpayable",
      "type": "function"
    },
    {
      "inputs": [
        {
          "internalType": "uint256",
          "name": "newPercent",
          "type": "uint256"
        }
      ],
      "name": "setPlatformFee",
      "outputs": [],
      "stateMutability": "nonpayable",
      "type": "function"
    },
    {
      "inputs": [],
      "name": "totalGamesCompleted",
      "outputs": [
        {
          "internalType": "uint256",
          "name": "",
          "type": "uint256"
        }
      ],
      "stateMutability": "view",
      "type": "function"
    },
    {
      "inputs": [],
      "name": "totalGamesCreated",
      "outputs": [
        {
          "internalType": "uint256",
          "name": "",
          "type": "uint256"
        }
      ],
      "stateMutability": "view",
      "type": "function"
    },
    {
      "inputs": [],
      "name": "totalPlatformFees",
      "outputs": [
        {
          "internalType": "uint256",
          "name": "",
          "type": "uint256"
        }
      ],
      "stateMutability": "view",
      "type": "function"
    },
    {
      "inputs": [],
      "name": "totalVolumeUSD",
      "outputs": [
        {
          "internalType": "uint256",
          "name": "",
          "type": "uint256"
        }
      ],
      "stateMutability": "view",
      "type": "function"
    },
    {
      "inputs": [
        {
          "internalType": "address",
          "name": "newOwner",
          "type": "address"
        }
      ],
      "name": "transferOwnership",
      "outputs": [],
      "stateMutability": "nonpayable",
      "type": "function"
    },
    {
      "inputs": [
        {
          "internalType": "address",
          "name": "",
          "type": "address"
        }
      ],
      "name": "unclaimedETH",
      "outputs": [
        {
          "internalType": "uint256",
          "name": "",
          "type": "uint256"
        }
      ],
      "stateMutability": "view",
      "type": "function"
    },
    {
      "inputs": [
        {
          "internalType": "address",
          "name": "",
          "type": "address"
        },
        {
          "internalType": "address",
          "name": "",
          "type": "address"
        },
        {
          "internalType": "uint256",
          "name": "",
          "type": "uint256"
        }
      ],
      "name": "unclaimedNFTs",
      "outputs": [
        {
          "internalType": "uint256",
          "name": "",
          "type": "uint256"
        }
      ],
      "stateMutability": "view",
      "type": "function"
    },
    {
      "inputs": [
        {
          "internalType": "address",
          "name": "",
          "type": "address"
        }
      ],
      "name": "unclaimedUSDC",
      "outputs": [
        {
          "internalType": "uint256",
          "name": "",
          "type": "uint256"
        }
      ],
      "stateMutability": "view",
      "type": "function"
    },
    {
      "inputs": [],
      "name": "unpause",
      "outputs": [],
      "stateMutability": "nonpayable",
      "type": "function"
    },
    {
      "inputs": [],
      "name": "usdcToken",
      "outputs": [
        {
          "internalType": "address",
          "name": "",
          "type": "address"
        }
      ],
      "stateMutability": "view",
      "type": "function"
    },
    {
      "inputs": [],
      "name": "usdcUsdFeed",
      "outputs": [
        {
          "internalType": "contract AggregatorV3Interface",
          "name": "",
          "type": "address"
        }
      ],
      "stateMutability": "view",
      "type": "function"
    },
    {
      "inputs": [
        {
          "internalType": "address",
          "name": "",
          "type": "address"
        },
        {
          "internalType": "uint256",
          "name": "",
          "type": "uint256"
        }
      ],
      "name": "userGames",
      "outputs": [
        {
          "internalType": "uint256",
          "name": "",
          "type": "uint256"
        }
      ],
      "stateMutability": "view",
      "type": "function"
    },
    {
      "inputs": [
        {
          "internalType": "address",
          "name": "",
          "type": "address"
        },
        {
          "internalType": "address",
          "name": "",
          "type": "address"
        },
        {
          "internalType": "uint256",
          "name": "",
          "type": "uint256"
        }
      ],
      "name": "userNFTsInContract",
      "outputs": [
        {
          "internalType": "bool",
          "name": "",
          "type": "bool"
        }
      ],
      "stateMutability": "view",
      "type": "function"
    },
    {
      "inputs": [
        {
          "internalType": "uint256",
          "name": "gameId",
          "type": "uint256"
        }
      ],
      "name": "withdrawExpiredGame",
      "outputs": [],
      "stateMutability": "nonpayable",
      "type": "function"
    },
    {
      "inputs": [
        {
          "internalType": "address",
          "name": "nftContract",
          "type": "address"
        },
        {
          "internalType": "uint256",
          "name": "tokenId",
          "type": "uint256"
        }
      ],
      "name": "withdrawNFT",
      "outputs": [],
      "stateMutability": "nonpayable",
      "type": "function"
    },
    {
      "inputs": [],
      "name": "withdrawRewards",
      "outputs": [],
      "stateMutability": "nonpayable",
      "type": "function"
    }
  ],
  "bytecode": "0x6080346200013257601f620031bf38819003918201601f19168301916001600160401b03831184841017620001375780849260809460405283398101031262000132576200004d816200014d565b6200005b602083016200014d565b6200007760606200006f604086016200014d565b94016200014d565b600160008181559054604051956001600160a01b039485939192849290338482167f8be0079c531659141344cd1fd0a4f28419497f9722a3daafe3b4186f6b6457e08480a360ff60a01b1933169060018060a81b03191617600155600160095562030d40600a5561015e600b5580600c5580600d5580600e55600f558160018060a01b0319971687601054161760105516856011541617601155168360125416176012551690601354161760135561305c9081620001638239f35b600080fd5b634e487b7160e01b600052604160045260246000fd5b51906001600160a01b0382168203620001325756fe6080604052600436101561001257600080fd5b60003560e01c806308ed9d33146102f2578063117a5b90146102ed57806311eac855146102e857806312e8e2c3146102e3578063131dbd09146102de5780631a68b691146102d95780631b31abda146102d45780631fd462cd146102cf578063277327a5146102ca5780632d656ad7146102935780633a38d063146102c55780633f4ba83a146102c05780634d9a75e5146102bb5780635c975abb146102b65780635e37ef51146102b15780636088e93a146102ac57806365b3a7ca146102a757806367d81740146102a257806369958ab91461029d5780636e9088e714610298578063707d184814610293578063715018a61461028e5780638009b7bd146102895780638456cb591461028457806384ae42461461027f5780638afec4431461027a5780638c639a85146102755780638cbe09ed146102705780638da5cb5b1461026b5780638dbb15bb146102665780639291ccd51461026157806395d115201461025c578063a6ff668914610257578063aa4209b814610252578063b135bbb01461024d578063b1a8129514610248578063bc0167cd14610243578063bcf17b3a1461023e578063c7b8981c14610239578063cb9a263014610234578063d3631fa51461022f578063d79e85671461022a578063d84cbc4514610225578063e1f1c4a714610220578063ef46b2ab1461021b5763f2fde38b1461021657600080fd5b611d5b565b611d35565b611d18565b611881565b61182e565b611810565b61165b565b6114d0565b6114b2565b611464565b6113c8565b6113aa565b611348565b611241565b611204565b6111e6565b6111c8565b61119f565b611144565b611126565b61103f565b610f39565b610e9c565b610e73565b610e12565b610a6e565b610d9b565b610cb1565b610c94565b610c1e565b610be6565b610ba0565b610b7a565b610b51565b610ab5565b610a97565b6109d7565b6108e5565b610821565b6106f9565b61069c565b610612565b6105e9565b610526565b61032d565b9181601f840112156103285782359167ffffffffffffffff8311610328576020808501948460051b01011161032857565b600080fd5b34610328576020366003190112610328576004803567ffffffffffffffff81116103285761035e90369083016102f7565b91610367611e28565b60005b83811061037357005b806103966103856103b1938787612e66565b356000526002602052604060002090565b805415158061043d575b80610430575b6103b6575b506121d9565b61036a565b60058101805460ff1916600417905561042a9060018101548590610421906103fc906001600160a01b03165b6001600160a01b0316600090815260086020526040902090565b60038401546001600160a01b03165b60018060a01b0316600052602052604060002090565b910154906123a6565b386103ab565b50600b81015442116103a6565b50600581015460ff1661044f8161046b565b156103a0565b634e487b7160e01b600052602160045260246000fd5b6005111561047557565b610455565b9060058210156104755752565b6002111561047557565b9061049b82610487565b52565b9a979491938b919e9d9c9a9794999693996101a083019f8352600160a01b600190039a8b938480931690602001521660408d01521660608b015260808a015260a089016104ea9161047a565b6104f381610487565b60c088015260e087015261050681610487565b610100860152610120850152166101408301526101608201526101800152565b34610328576020366003190112610328576004356000908152600260205260409020805460018201546105da906001600160a01b031660028401549092906001600160a01b031660038501549094906001600160a01b0316916004820154906005830154600684015461059d600786015460ff1690565b600886015460098701549094919391906001600160a01b031695600b600a890154980154986040519c8d9c8d9460ff808860081c1697169561049e565b0390f35b600091031261032857565b34610328576000366003190112610328576012546040516001600160a01b039091168152602090f35b346103285760203660031901126103285760043561062e611e28565b6103e88111610668576020817f45610d581145924dd7090a5017e5f2b1d6f42213bb2e95707ff86846bbfcb1ca92600b55604051908152a1005b60405162461bcd60e51b815260206004820152600c60248201526b08ccaca40e8dede40d0d2ced60a31b6044820152606490fd5b34610328576020366003190112610328577f5fb4654f1efe30c6141eaa6855ffcb27e0b361d899b05e21b1a4d0b3e71e14db60206004356106db611e28565b80600a55604051908152a1005b6001600160a01b0381160361032857565b3461032857602036600319011261032857600435610716816106e8565b60018060a01b031660005260066020526020604060002054604051908152f35b815181526020808301516001600160a01b0316908201526101e08101939261081f9290916101a0916040818101516001600160a01b0316908301526060818101516001600160a01b031690830152608081015160808301526107a060a082015160a084019061047a565b6107b260c082015160c0840190610491565b60e081015160e08301526107cf6101008083015190840190610491565b6101208181015190830152610140808201516001600160a01b0316908301526101608181015190830152610180908101519082015282516001600160a01b03169101908152602091820151910152565b565b346103285760203660031901126103285760043560405161084181612143565b6101806000918281528260208201528260408201528260608201528260808201528260a08201528260c08201528260e082015282610100820152826101208201528261014082015282610160820152015261089a612ecf565b506108d56108cf6108c96108b8846000526002602052604060002090565b936000526003602052604060002090565b926126d3565b916127f1565b906105da60405192839283610736565b3461032857602036600319011261032857601154604051633fabe5a360e21b815290600480359160a091849182906001600160a01b03165afa9182156109a657600092610971575b5061093a60008313612f5d565b620f42409081810291818304149015171561096c576105da9161095c916126b3565b6040519081529081906020820190565b6121c3565b61099391925060a03d811161099f575b61098b8183612195565b810190612f2b565b5050509050903861092d565b503d610981565b6121b7565b6060906003190112610328576004356109c3816106e8565b906024356109d0816106e8565b9060443590565b3461032857610a2c60206109ea366109ab565b91906109f4611e28565b60405163a9059cbb60e01b81526001600160a01b03909116600482015260248101929092529092839190829060009082906044820190565b03926001600160a01b03165af180156109a657610a4557005b610a659060203d8111610a67575b610a5d8183612195565b810190612649565b005b503d610a53565b34610328576000366003190112610328576013546040516001600160a01b039091168152602090f35b34610328576000366003190112610328576020600a54604051908152f35b3461032857600036600319011261032857610ace611e28565b60015460ff8160a01c1615610b155760ff60a01b19166001556040513381527f5db9ee0a495bf2e6ff9c91a7834c1ba4fdd244a5e8aa4e537bd38aeae4b073aa90602090a1005b60405162461bcd60e51b815260206004820152601460248201527314185d5cd8589b194e881b9bdd081c185d5cd95960621b6044820152606490fd5b34610328576000366003190112610328576011546040516001600160a01b039091168152602090f35b3461032857600036600319011261032857602060ff60015460a01c166040519015158152f35b3461032857602036600319011261032857600435600090815260036020908152604091829020805460019091015483516001600160a01b03909216825291810191909152f35b3461032857604036600319011261032857610c17600435610c06816106e8565b610c0e61245a565b60243590612bff565b6001600055005b34610328576020366003190112610328576004356000526002602052610c4760406000206126d3565b8051151580610c7d575b6105da9181610c6e575b5060405190151581529081906020820190565b61018091500151421138610c5b565b5060a0810151906005821015610475579015610c51565b346103285760003660031901126103285760206040516103e88152f35b3461032857602036600319011261032857600435610ccd61245a565b6000908082526002602052610ce7604083205415156124b0565b808252600260205260408220600181018054610d609291600491610421916103fc916103e29190610d22906001600160a01b03163314612ae5565b610d5360058701610d46610d37825460ff1690565b610d408161046b565b15612b31565b805460ff19166003179055565b546001600160a01b031690565b7f681705fdbd93dba3b679fd712577e9a86d57c5551c520f8c74857deb57f9623f8280a2610d8e6001600055565b80f35b6002111561032857565b60c036600319011261032857600435610db3816106e8565b606435610dbf81610d91565b60843590610dcc82610d91565b60a43567ffffffffffffffff8082116103285736602383011215610328578160040135908111610328573691016024011161032857610a65926044359060243590611e80565b3461032857600080600319360112610e7057610e2c611e28565b600180546001600160a01b0319811690915581906001600160a01b03167f8be0079c531659141344cd1fd0a4f28419497f9722a3daafe3b4186f6b6457e08280a380f35b80fd5b34610328576000366003190112610328576010546040516001600160a01b039091168152602090f35b3461032857600036600319011261032857610eb5611e28565b610ebd612413565b6001805460ff60a01b1916600160a01b1790556040513381527f62e78cea01bee320cd4e420270b5ea74000d11b0c9f74754ebdbfc544b05a25890602090a1005b6020908160408183019282815285518094520193019160005b828110610f25575050505090565b835185529381019392810192600101610f17565b3461032857604036600319011261032857602435610f5681612ee8565b90610f646040519283612195565b808252601f19610f7382612ee8565b0136602084013760009160043591600954925b83811080611036575b1561102557610fb0610fab826000526002602052604060002090565b6126d3565b805115159081611005575b81610ff6575b50610fd5575b610fd0906121d9565b610f86565b93610fee8186610fe8610fd09487612f00565b526121d9565b949050610fc7565b61018091500151421138610fc1565b905060a08101516110158161046b565b61101e8161046b565b1590610fbb565b848352604051806105da8582610efe565b50818510610f8f565b346103285760203660031901126103285760043561105b61245a565b6110f7611072826000526002602052604060002090565b61107e815415156124b0565b60046104216103fc6103e2600585016110aa61109b825460ff1690565b6110a48161046b565b15612d7c565b6110b9600b8701544211612dc8565b6001860180549091610d53916110ea906110e3906001600160a01b03165b6001600160a01b031690565b3314612e0b565b805460ff19166004179055565b7f681705fdbd93dba3b679fd712577e9a86d57c5551c520f8c74857deb57f9623f600080a2610a656001600055565b34610328576000366003190112610328576020600b54604051908152f35b3461032857611183611155366109ab565b929160018060a01b0316600052600560205260406000209060018060a01b0316600052602052604060002090565b90600052602052602060ff604060002054166040519015158152f35b34610328576000366003190112610328576001546040516001600160a01b039091168152602090f35b34610328576000366003190112610328576020600c54604051908152f35b34610328576000366003190112610328576020600e54604051908152f35b3461032857602036600319011261032857600435611221816106e8565b60018060a01b031660005260076020526020604060002054604051908152f35b3461032857604036600319011261032857602435600435611261826106e8565b61126961245a565b6000918183526002602052611283604084205415156124b0565b8183526002602052611297604084206126d3565b6020810151336001600160a01b0391821614918215611304575b5050156112cb576112c191612818565b610d8e6001600055565b60405162461bcd60e51b8152602060048201526011602482015270139bdd0818481c185c9d1a58da5c185b9d607a1b6044820152606490fd5b6040919250015116331438806112b1565b634e487b7160e01b600052603260045260246000fd5b80548210156113435760005260206000200190600090565b611315565b3461032857611387611359366109ab565b929160018060a01b0316600052600860205260406000209060018060a01b0316600052602052604060002090565b80548210156103285760209161139c9161132b565b90546040519160031b1c8152f35b34610328576000366003190112610328576020600954604051908152f35b346103285760006060366003190112610e7057806004356113e8816106e8565b604435906113f5826106e8565b6113fd611e28565b6001600160a01b031690813b15611460576040516323b872dd60e01b81523060048201526001600160a01b039190911660248083019190915235604482015291908290606490829084905af180156109a657611457575080f35b610d8e90612165565b5050fd5b3461032857604036600319011261032857600435611481816106e8565b6001600160a01b03166000908152600460205260409020805460243591908210156103285760209161139c9161132b565b34610328576000366003190112610328576020600d54604051908152f35b3461032857600080600319360112610e70576114ea61245a565b3360009081526006602090815260408083205460079092529091205482821580158082611652575b61151b90612b7d565b611619575b50508061156d575b60408051928352602083019190915233917ffa73d3ab3a92ed3f2b694757d8e4b2f3c293654b11b9c79111f8971f861b22b291819081015b0390a2610d8e6001600055565b336000908152600760205260409020839055601254611596906110d7906001600160a01b031681565b60405163a9059cbb60e01b81523360048201526024810183905291906020908390604490829088905af19081156109a6577ffa73d3ab3a92ed3f2b694757d8e4b2f3c293654b11b9c79111f8971f861b22b292611560926115fb575b50915050611528565b6116129060203d8111610a6757610a5d8183612195565b50386115f2565b336000908152600660205260409020829055838291611648575b8280929181923390f1156109a6578238611520565b6108fc9150611633565b50831515611512565b346103285760603660031901126103285767ffffffffffffffff600480358281116103285761168d90369083016102f7565b91602435848111610328576116a590369083016102f7565b9094604435908111610328576116be90369084016102f7565b90956116c8611e28565b82861480611807575b6116da90612e76565b60005b8681106116e657005b6116ff6110d76110d76116fa848b8b612e66565b612ec2565b9061170e6116fa82868c612e66565b9161171a828786612e66565b3590803b1561032857604080516323b872dd60e01b815230818b019081526001600160a01b0390961660208701528582019390935293600091839182908490829060600103925af19283156109a6577fbbde41973f9ce4890f7ad9762c23d8191f261fd643bdf13ed8bbc10549b49fcb6117e16117b86116fa868f8f908f98838e6117b2936116fa936117e99f6117ee575b50612e66565b97612e66565b6117c3868b8a612e66565b9351933584526001600160a01b039081169416929081906020820190565b0390a36121d9565b6116dd565b806117fb61180192612165565b806105de565b386117ac565b508282146116d1565b34610328576000366003190112610328576020600f54604051908152f35b34610328576040366003190112610328576000808080600435611850816106e8565b6024359061185c611e28565b82908215611877575b6001600160a01b031690f1156109a657005b6108fc9150611865565b60803660031901126103285760243560043561189c82610d91565b6044356118a8816106e8565b606435906118b461245a565b6118bc612413565b6000938385526020600281526118d7604087205415156124b0565b6118eb856000526002602052604060002090565b90600582019384549561190a60ff88166119048161046b565b156124f2565b600184015461192d90611925906001600160a01b03166110d7565b331415612533565b60028401805490976001600160a01b039160ff919061194e90841615612576565b60081c1661195b81610487565b611c0257505050866119706006840154612f9e565b91611988611980600b54856126a0565b612710900490565b9061199382856123f6565b9061199d87610487565b86611aa2575082809281926119b487341015612661565b60088801556013546119d0906110d7906001600160a01b031681565b828215611a99575bf1156109a6578087913411611a68575b5050926119ff611a11926007611a1e965b0161226b565b80546001600160a01b03191633179055565b805460ff19166001179055565b336000908152600460205260409020611a389082906123a6565b33907f45c4f9cbafe186141862608c493f28b823fde4c2142bedc3f5169961a73fdd228380a3610d8e6001600055565b8180611a788193989598346123f6565b818115611a90575b3390f1156109a6579285386119e8565b506108fc611a80565b506108fc6119d8565b93611ab287969997939293610487565b60018614611ad3575b5050505050906119ff611a11926007611a1e966119f9565b93611b2e8197969495611ae634156125fd565b601254611afd906110d7906001600160a01b031681565b6040516323b872dd60e01b815233600482015230602482015260448101929092529096879283919082906064820190565b03925af19182156109a657611b9b948793611be5575b506008890155601254611b61906110d7906001600160a01b031681565b60135460405163a9059cbb60e01b81526001600160a01b0390911660048201526024810192909252909384919082908c9082906044820190565b03925af180156109a657611a1e96611a11956119ff94600793611bc7575b508198508a93959650611abb565b81611bdd92903d10610a6757610a5d8183612195565b503880611bb9565b611bfb90843d8611610a6757610a5d8183612195565b5038611b44565b91945091959250831694611c178615156125b8565b853b15611d14576040516323b872dd60e01b8152336004820152306024820152604481018390529588908790606490829084905af19182156109a657611ced611a1195611cc6611a1194611a1e9a611cfc97611d01575b5084611c78612205565b6001600160a01b038516815291820152611c9c8c6000526003602052604060002090565b815181546001600160a01b0319166001600160a01b03919091161781559060019060200151910155565b3360009081526005602052604090205b9060018060a01b0316600052602052604060002090565b90600052602052604060002090565b6119ff565b806117fb611d0e92612165565b38611c6e565b8780fd5b346103285760003660031901126103285760206040516127108152f35b34610328576020366003190112610328576020611d53600435612f9e565b604051908152f35b3461032857602036600319011261032857600435611d78816106e8565b611d80611e28565b6001600160a01b03908116908115611dd457600154826bffffffffffffffffffffffff60a01b821617600155167f8be0079c531659141344cd1fd0a4f28419497f9722a3daafe3b4186f6b6457e0600080a3005b60405162461bcd60e51b815260206004820152602660248201527f4f776e61626c653a206e6577206f776e657220697320746865207a65726f206160448201526564647265737360d01b6064820152608490fd5b6001546001600160a01b03163303611e3c57565b606460405162461bcd60e51b815260206004820152602060248201527f4f776e61626c653a2063616c6c6572206973206e6f7420746865206f776e65726044820152fd5b91611e8961245a565b611e91612413565b6001600160a01b038316611ea681151561209e565b611eb1600a54612f9e565b92611ebe843410156120e1565b813b15610328576040516323b872dd60e01b815233600482015230602482015260448101829052600095909286908490606490829084905af19081156109a657611fbb8988611f87611f789b611fd599611a1199611ced9861208b575b506009549d8e95611f33611f2e886121d9565b600955565b611f3c426121e8565b95611f45612212565b978852336020890152604088018190526001600160a01b038a1660608901528b608089015260a088015260c0870161222b565b60e0850152610100840161222b565b896101208301528961014083015242610160830152610180820152611fb68a6000526002602052604060002090565b612283565b336000908152600460205260409020611cc69089906123a6565b611fe8611fe3600c546121d9565b600c55565b8181341161205f575b80809261200b6110d76110d760135460018060a01b031690565b828215612056575bf1156109a6577fdd0abcdffc76581d11646898ee4d7f269ca1e0c0b622d072d343100dad83ecb160405180612049339582612403565b0390a361081f6001600055565b506108fc612013565b80808061206c85346123f6565b818115612082575b3390f1156109a65781611ff1565b506108fc612074565b806117fb61209892612165565b38611f1b565b156120a557565b60405162461bcd60e51b8152602060048201526014602482015273125b9d985b1a59081391950818dbdb9d1c9858dd60621b6044820152606490fd5b156120e857565b60405162461bcd60e51b815260206004820152601860248201527f496e73756666696369656e74206c697374696e672066656500000000000000006044820152606490fd5b634e487b7160e01b600052604160045260246000fd5b6101a0810190811067ffffffffffffffff82111761216057604052565b61212d565b67ffffffffffffffff811161216057604052565b6040810190811067ffffffffffffffff82111761216057604052565b90601f8019910116810190811067ffffffffffffffff82111761216057604052565b6040513d6000823e3d90fd5b634e487b7160e01b600052601160045260246000fd5b600019811461096c5760010190565b9062093a80820180921161096c57565b9190820180921161096c57565b6040519061081f82612179565b6040519061081f82612143565b60058210156104755752565b61049b82610487565b9060058110156104755760ff80198354169116179055565b9061225681610487565b61ff0082549160081b169061ff001916179055565b9061227581610487565b60ff80198354169116179055565b8151815560208201516001820180546001600160a01b0319166001600160a01b0390921691909117905590600b906101809060408101516002850180546001600160a01b0319166001600160a01b0390921691909117905560608101516003850180546001600160a01b0319166001600160a01b039092169190911790556080810151600485015561233d6005850161232960a08401516123238161046b565b82612234565b60c08301519061233882610487565b61224c565b60e0810151600685015561236261010082015161235981610487565b6007860161226b565b61012081015160088501556101408101516009850180546001600160a01b0319166001600160a01b03909216919091179055610160810151600a8501550151910155565b908154916801000000000000000083101561216057826123ce91600161081f9501815561132b565b90919082549060031b91821b91600019901b1916179055565b60001981019190821161096c57565b9190820391821161096c57565b9190602083019261049b82610487565b60ff60015460a01c1661242257565b60405162461bcd60e51b815260206004820152601060248201526f14185d5cd8589b194e881c185d5cd95960821b6044820152606490fd5b60026000541461246b576002600055565b60405162461bcd60e51b815260206004820152601f60248201527f5265656e7472616e637947756172643a207265656e7472616e742063616c6c006044820152606490fd5b156124b757565b60405162461bcd60e51b815260206004820152601360248201527211d85b5948191bd95cc81b9bdd08195e1a5cdd606a1b6044820152606490fd5b156124f957565b60405162461bcd60e51b815260206004820152601260248201527147616d65206e6f7420617661696c61626c6560701b6044820152606490fd5b1561253a57565b60405162461bcd60e51b815260206004820152601460248201527343616e6e6f74206a6f696e206f776e2067616d6560601b6044820152606490fd5b1561257d57565b60405162461bcd60e51b815260206004820152601360248201527211d85b5948185b1c9958591e481a9bda5b9959606a1b6044820152606490fd5b156125bf57565b60405162461bcd60e51b8152602060048201526016602482015275125b9d985b1a590818da185b1b195b99d95c8813919560521b6044820152606490fd5b1561260457565b60405162461bcd60e51b815260206004820152601f60248201527f455448206e6f74206e656564656420666f722055534443207061796d656e74006044820152606490fd5b90816020910312610328575180151581036103285790565b1561266857565b60405162461bcd60e51b815260206004820152601060248201526f092dce6eaccccd2c6d2cadce8408aa8960831b6044820152606490fd5b8181029291811591840414171561096c57565b81156126bd570490565b634e487b7160e01b600052601260045260246000fd5b90600b6126de612212565b8354815260018401546001600160a01b031660208201529260028101546001600160a01b0316604085015260038101546001600160a01b031660608501526004810154608085015261274c60ff600583015461273f82821660a0890161221f565b60081c1660c0860161222b565b600681015460e0850152612771612767600783015460ff1690565b610100860161222b565b600881015461012085015260098101546001600160a01b0316610140850152600a8101546101608501520154610180830152565b156127ac57565b60405162461bcd60e51b815260206004820152601a60248201527f47616d65206e6f7420726561647920746f20636f6d706c6574650000000000006044820152606490fd5b906040516127fe81612179565b82546001600160a01b031681526001909201546020830152565b61282c816000526002602052604060002090565b6005810161284f6001612840835460ff1690565b6128498161046b565b146127a5565b805460ff191660021781556009820180546001600160a01b0319166001600160a01b038616179055805460081c60ff1661288881610487565b1580612ad8575b15612ac55760088201546128ac6128a7600d546121d9565b600d55565b6128c56128c0600e546006860154906121f8565b600e55565b600783015460ff166128d681610487565b80612a6c57506001600160a01b038516600090815260066020526040902061290091905b546121f8565b6001600160a01b0385166000908152600660205260409020555b600182018054909290612935906001600160a01b03166110d7565b6001600160a01b03909516948503612a03576001916129696129739260046104216103fc6103e2895460018060a01b031690565b5460081c60ff1690565b61297c81610487565b146129ab575b505b7f7f40df5127524300187445e867486da572aab86769c0212e0b392bd87c4ca97f600080a3565b6129fd9060206129f46129e46103e26129d66129d1886000526003602052604060002090565b6127f1565b94546001600160a01b031690565b83516001600160a01b031661040b565b910151906123a6565b38612982565b9150612a2b600191612969600285019460046104216103fc6103e2895460018060a01b031690565b612a3481610487565b14612a40575b50612984565b612a669060206129f46129e46103e26129d66129d1886000526003602052604060002090565b38612a3a565b80612a78600192610487565b14612a84575b5061291a565b6001600160a01b0385166000908152600760205260409020612aa691906128fa565b6001600160a01b03851660009081526007602052604090205538612a7e565b612ad36128a7600d546121d9565b61291a565b506008820154151561288f565b15612aec57565b60405162461bcd60e51b815260206004820152601760248201527f4f6e6c792063726561746f722063616e2063616e63656c0000000000000000006044820152606490fd5b15612b3857565b60405162461bcd60e51b815260206004820152601860248201527f47616d652063616e6e6f742062652063616e63656c6c656400000000000000006044820152606490fd5b15612b8457565b60405162461bcd60e51b81526020600482015260136024820152724e6f207265776172647320746f20636c61696d60681b6044820152606490fd5b8054908115612be95760001991820191612bd9838361132b565b909182549160031b1b1916905555565b634e487b7160e01b600052603160045260246000fd5b336000908152600860205260409020612c19908290611cd6565b9160005b835480821015612d375782612c3f612c35848861132b565b90549060031b1c90565b14612c535750612c4e906121d9565b612c1d565b612c81929394916123ce612c75612c35612c6f612c7c956123e7565b8661132b565b918461132b565b612bbf565b6001600160a01b03821691823b1561032857604080516323b872dd60e01b8152306004820152336024820152604481018490529160008360648183895af19081156109a65784611ced612d0e927fbbde41973f9ce4890f7ad9762c23d8191f261fd643bdf13ed8bbc10549b49fcb96612d1895612d24575b50336000908152600560205260409020611cd6565b805460ff19169055565b519182523391602090a3565b806117fb612d3192612165565b38612cf9565b60405162461bcd60e51b815260206004820152601f60248201527f4e4654206e6f7420666f756e6420696e20756e636c61696d6564206c697374006044820152606490fd5b15612d8357565b60405162461bcd60e51b815260206004820152601960248201527f47616d65206e6f7420696e2063726561746564207374617465000000000000006044820152606490fd5b15612dcf57565b60405162461bcd60e51b815260206004820152601460248201527311d85b59481b9bdd08195e1c1a5c9959081e595d60621b6044820152606490fd5b15612e1257565b60405162461bcd60e51b815260206004820152602660248201527f4f6e6c792063726561746f722063616e20776974686472617720657870697265604482015265642067616d6560d01b6064820152608490fd5b91908110156113435760051b0190565b15612e7d57565b60405162461bcd60e51b815260206004820152601860248201527f4172726179206c656e67746873206d757374206d6174636800000000000000006044820152606490fd5b35612ecc816106e8565b90565b60405190612edc82612179565b60006020838281520152565b67ffffffffffffffff81116121605760051b60200190565b80518210156113435760209160051b010190565b519069ffffffffffffffffffff8216820361032857565b908160a091031261032857612f3f81612f14565b91602082015191604081015191612ecc608060608401519301612f14565b15612f6457565b60405162461bcd60e51b8152602060048201526012602482015271125b9d985b1a59081c1c9a58d9481999595960721b6044820152606490fd5b601054604051633fabe5a360e21b81529060a090829060049082906001600160a01b03165afa9081156109a657600091613003575b50612fe060008213612f5d565b670de0b6b3a76400009182810292818404149015171561096c57612ecc916126b3565b61301b915060a03d811161099f5761098b8183612195565b505050905038612fd356fea2646970667358221220a2cf6677374aa062b378d02cdaf31ca7e7b3705cb5c179f418fcc8a8ad5b025c64736f6c63430008140033",
  "linkReferences": {},
  "deployedLinkReferences": {}
}