{
  "_format": "hh-sol-artifact-1",
  "contractName": "NFTFlipGame",
  "sourceName": "contracts/NFTFlipGame.sol",
  "abi": [
    {
      "inputs": [
        {
          "internalType": "address",
          "name": "_ethUsdFeed",
          "type": "address"
        },
        {
          "internalType": "address",
          "name": "_usdcToken",
          "type": "address"
        },
        {
          "internalType": "address",
          "name": "_platformFeeReceiver",
          "type": "address"
        }
      ],
      "stateMutability": "nonpayable",
      "type": "constructor"
    },
    {
      "anonymous": false,
      "inputs": [
        {
          "indexed": true,
          "internalType": "uint256",
          "name": "gameId",
          "type": "uint256"
        },
        {
          "indexed": true,
          "internalType": "address",
          "name": "depositor",
          "type": "address"
        },
        {
          "indexed": false,
          "internalType": "uint256",
          "name": "amount",
          "type": "uint256"
        }
      ],
      "name": "CryptoDeposited",
      "type": "event"
    },
    {
      "anonymous": false,
      "inputs": [
        {
          "indexed": true,
          "internalType": "uint256",
          "name": "gameId",
          "type": "uint256"
        }
      ],
      "name": "GameCancelled",
      "type": "event"
    },
    {
      "anonymous": false,
      "inputs": [
        {
          "indexed": true,
          "internalType": "uint256",
          "name": "gameId",
          "type": "uint256"
        },
        {
          "indexed": true,
          "internalType": "address",
          "name": "cancelledBy",
          "type": "address"
        }
      ],
      "name": "GameCancelledWithRefund",
      "type": "event"
    },
    {
      "anonymous": false,
      "inputs": [
        {
          "indexed": true,
          "internalType": "uint256",
          "name": "gameId",
          "type": "uint256"
        },
        {
          "indexed": true,
          "internalType": "address",
          "name": "winner",
          "type": "address"
        }
      ],
      "name": "GameCompleted",
      "type": "event"
    },
    {
      "anonymous": false,
      "inputs": [
        {
          "indexed": true,
          "internalType": "uint256",
          "name": "gameId",
          "type": "uint256"
        },
        {
          "indexed": true,
          "internalType": "address",
          "name": "creator",
          "type": "address"
        }
      ],
      "name": "GameCreated",
      "type": "event"
    },
    {
      "anonymous": false,
      "inputs": [
        {
          "indexed": true,
          "internalType": "uint256",
          "name": "gameId",
          "type": "uint256"
        },
        {
          "indexed": true,
          "internalType": "address",
          "name": "joiner",
          "type": "address"
        }
      ],
      "name": "GameJoined",
      "type": "event"
    },
    {
      "anonymous": false,
      "inputs": [
        {
          "indexed": true,
          "internalType": "uint256",
          "name": "gameId",
          "type": "uint256"
        },
        {
          "indexed": true,
          "internalType": "address",
          "name": "depositor",
          "type": "address"
        }
      ],
      "name": "NFTDeposited",
      "type": "event"
    },
    {
      "anonymous": false,
      "inputs": [
        {
          "indexed": true,
          "internalType": "address",
          "name": "previousOwner",
          "type": "address"
        },
        {
          "indexed": true,
          "internalType": "address",
          "name": "newOwner",
          "type": "address"
        }
      ],
      "name": "OwnershipTransferred",
      "type": "event"
    },
    {
      "anonymous": false,
      "inputs": [
        {
          "indexed": false,
          "internalType": "address",
          "name": "account",
          "type": "address"
        }
      ],
      "name": "Paused",
      "type": "event"
    },
    {
      "anonymous": false,
      "inputs": [
        {
          "indexed": true,
          "internalType": "address",
          "name": "player",
          "type": "address"
        },
        {
          "indexed": false,
          "internalType": "uint256",
          "name": "ethAmount",
          "type": "uint256"
        },
        {
          "indexed": false,
          "internalType": "uint256",
          "name": "usdcAmount",
          "type": "uint256"
        },
        {
          "indexed": false,
          "internalType": "uint256",
          "name": "nftCount",
          "type": "uint256"
        }
      ],
      "name": "RewardsWithdrawn",
      "type": "event"
    },
    {
      "anonymous": false,
      "inputs": [
        {
          "indexed": true,
          "internalType": "uint256",
          "name": "gameId",
          "type": "uint256"
        },
        {
          "indexed": false,
          "internalType": "uint256",
          "name": "round",
          "type": "uint256"
        },
        {
          "indexed": false,
          "internalType": "uint256",
          "name": "result",
          "type": "uint256"
        },
        {
          "indexed": false,
          "internalType": "address",
          "name": "roundWinner",
          "type": "address"
        }
      ],
      "name": "RoundPlayed",
      "type": "event"
    },
    {
      "anonymous": false,
      "inputs": [
        {
          "indexed": false,
          "internalType": "address",
          "name": "account",
          "type": "address"
        }
      ],
      "name": "Unpaused",
      "type": "event"
    },
    {
      "inputs": [],
      "name": "BASIS_POINTS",
      "outputs": [
        {
          "internalType": "uint256",
          "name": "",
          "type": "uint256"
        }
      ],
      "stateMutability": "view",
      "type": "function"
    },
    {
      "inputs": [
        {
          "internalType": "address[]",
          "name": "nftContracts",
          "type": "address[]"
        },
        {
          "internalType": "uint256[]",
          "name": "tokenIds",
          "type": "uint256[]"
        },
        {
          "internalType": "address[]",
          "name": "recipients",
          "type": "address[]"
        }
      ],
      "name": "adminBatchWithdrawNFTs",
      "outputs": [],
      "stateMutability": "nonpayable",
      "type": "function"
    },
    {
      "inputs": [
        {
          "internalType": "uint256",
          "name": "gameId",
          "type": "uint256"
        }
      ],
      "name": "cancelGame",
      "outputs": [],
      "stateMutability": "nonpayable",
      "type": "function"
    },
    {
      "inputs": [
        {
          "internalType": "uint256",
          "name": "gameId",
          "type": "uint256"
        }
      ],
      "name": "cancelGameWithRefund",
      "outputs": [],
      "stateMutability": "nonpayable",
      "type": "function"
    },
    {
      "inputs": [
        {
          "internalType": "address",
          "name": "opponent",
          "type": "address"
        },
        {
          "internalType": "address",
          "name": "nftContract",
          "type": "address"
        },
        {
          "internalType": "uint256",
          "name": "tokenId",
          "type": "uint256"
        },
        {
          "internalType": "uint256",
          "name": "priceUSD",
          "type": "uint256"
        },
        {
          "internalType": "enum NFTFlipGame.PaymentToken",
          "name": "paymentToken",
          "type": "uint8"
        },
        {
          "internalType": "string",
          "name": "coinType",
          "type": "string"
        },
        {
          "internalType": "string",
          "name": "headsImage",
          "type": "string"
        },
        {
          "internalType": "string",
          "name": "tailsImage",
          "type": "string"
        },
        {
          "internalType": "bool",
          "name": "isCustom",
          "type": "bool"
        }
      ],
      "name": "createAndStartGame",
      "outputs": [],
      "stateMutability": "payable",
      "type": "function"
    },
    {
      "inputs": [
        {
          "internalType": "address",
          "name": "nftContract",
          "type": "address"
        },
        {
          "internalType": "uint256",
          "name": "tokenId",
          "type": "uint256"
        },
        {
          "internalType": "uint256",
          "name": "priceUSD",
          "type": "uint256"
        },
        {
          "internalType": "enum NFTFlipGame.PaymentToken",
          "name": "acceptedToken",
          "type": "uint8"
        },
        {
          "internalType": "enum NFTFlipGame.GameType",
          "name": "gameType",
          "type": "uint8"
        },
        {
          "internalType": "string",
          "name": "coinType",
          "type": "string"
        },
        {
          "internalType": "string",
          "name": "headsImage",
          "type": "string"
        },
        {
          "internalType": "string",
          "name": "tailsImage",
          "type": "string"
        },
        {
          "internalType": "bool",
          "name": "isCustom",
          "type": "bool"
        }
      ],
      "name": "createGame",
      "outputs": [],
      "stateMutability": "payable",
      "type": "function"
    },
    {
      "inputs": [
        {
          "internalType": "uint256",
          "name": "gameId",
          "type": "uint256"
        }
      ],
      "name": "depositCryptoForGame",
      "outputs": [],
      "stateMutability": "payable",
      "type": "function"
    },
    {
      "inputs": [
        {
          "internalType": "uint256",
          "name": "gameId",
          "type": "uint256"
        },
        {
          "internalType": "address",
          "name": "nftContract",
          "type": "address"
        },
        {
          "internalType": "uint256",
          "name": "tokenId",
          "type": "uint256"
        }
      ],
      "name": "depositNFTForGame",
      "outputs": [],
      "stateMutability": "nonpayable",
      "type": "function"
    },
    {
      "inputs": [],
      "name": "emergencyPause",
      "outputs": [],
      "stateMutability": "nonpayable",
      "type": "function"
    },
    {
      "inputs": [],
      "name": "emergencyWithdrawETH",
      "outputs": [],
      "stateMutability": "nonpayable",
      "type": "function"
    },
    {
      "inputs": [],
      "name": "ethUsdFeed",
      "outputs": [
        {
          "internalType": "contract AggregatorV3Interface",
          "name": "",
          "type": "address"
        }
      ],
      "stateMutability": "view",
      "type": "function"
    },
    {
      "inputs": [
        {
          "internalType": "uint256",
          "name": "",
          "type": "uint256"
        }
      ],
      "name": "games",
      "outputs": [
        {
          "internalType": "uint256",
          "name": "gameId",
          "type": "uint256"
        },
        {
          "internalType": "address",
          "name": "creator",
          "type": "address"
        },
        {
          "internalType": "address",
          "name": "joiner",
          "type": "address"
        },
        {
          "internalType": "address",
          "name": "nftContract",
          "type": "address"
        },
        {
          "internalType": "uint256",
          "name": "tokenId",
          "type": "uint256"
        },
        {
          "internalType": "enum NFTFlipGame.GameState",
          "name": "state",
          "type": "uint8"
        },
        {
          "internalType": "enum NFTFlipGame.GameType",
          "name": "gameType",
          "type": "uint8"
        },
        {
          "internalType": "uint256",
          "name": "priceUSD",
          "type": "uint256"
        },
        {
          "internalType": "enum NFTFlipGame.PaymentToken",
          "name": "paymentToken",
          "type": "uint8"
        },
        {
          "internalType": "uint256",
          "name": "totalPaid",
          "type": "uint256"
        },
        {
          "internalType": "address",
          "name": "winner",
          "type": "address"
        },
        {
          "internalType": "uint256",
          "name": "createdAt",
          "type": "uint256"
        },
        {
          "internalType": "uint256",
          "name": "creatorWins",
          "type": "uint256"
        },
        {
          "internalType": "uint256",
          "name": "joinerWins",
          "type": "uint256"
        },
        {
          "internalType": "uint256",
          "name": "currentRound",
          "type": "uint256"
        },
        {
          "internalType": "uint256",
          "name": "lastFlipResult",
          "type": "uint256"
        },
        {
          "internalType": "bytes32",
          "name": "lastFlipHash",
          "type": "bytes32"
        },
        {
          "components": [
            {
              "internalType": "string",
              "name": "coinType",
              "type": "string"
            },
            {
              "internalType": "string",
              "name": "headsImage",
              "type": "string"
            },
            {
              "internalType": "string",
              "name": "tailsImage",
              "type": "string"
            },
            {
              "internalType": "bool",
              "name": "isCustom",
              "type": "bool"
            }
          ],
          "internalType": "struct NFTFlipGame.CoinInfo",
          "name": "coinInfo",
          "type": "tuple"
        }
      ],
      "stateMutability": "view",
      "type": "function"
    },
    {
      "inputs": [
        {
          "internalType": "uint256",
          "name": "usdAmount",
          "type": "uint256"
        }
      ],
      "name": "getETHAmount",
      "outputs": [
        {
          "internalType": "uint256",
          "name": "",
          "type": "uint256"
        }
      ],
      "stateMutability": "view",
      "type": "function"
    },
    {
      "inputs": [
        {
          "internalType": "uint256",
          "name": "gameId",
          "type": "uint256"
        }
      ],
      "name": "getGameDetails",
      "outputs": [
        {
          "internalType": "uint256",
          "name": "gameId_",
          "type": "uint256"
        },
        {
          "internalType": "address",
          "name": "creator_",
          "type": "address"
        },
        {
          "internalType": "address",
          "name": "joiner_",
          "type": "address"
        },
        {
          "internalType": "address",
          "name": "nftContract_",
          "type": "address"
        },
        {
          "internalType": "uint256",
          "name": "tokenId_",
          "type": "uint256"
        },
        {
          "internalType": "enum NFTFlipGame.GameState",
          "name": "state_",
          "type": "uint8"
        },
        {
          "internalType": "enum NFTFlipGame.GameType",
          "name": "gameType_",
          "type": "uint8"
        },
        {
          "internalType": "uint256",
          "name": "priceUSD_",
          "type": "uint256"
        },
        {
          "internalType": "enum NFTFlipGame.PaymentToken",
          "name": "paymentToken_",
          "type": "uint8"
        },
        {
          "internalType": "uint256",
          "name": "totalPaid_",
          "type": "uint256"
        },
        {
          "internalType": "address",
          "name": "winner_",
          "type": "address"
        },
        {
          "internalType": "uint256",
          "name": "createdAt_",
          "type": "uint256"
        },
        {
          "internalType": "uint256",
          "name": "creatorWins_",
          "type": "uint256"
        },
        {
          "internalType": "uint256",
          "name": "joinerWins_",
          "type": "uint256"
        },
        {
          "internalType": "uint256",
          "name": "currentRound_",
          "type": "uint256"
        },
        {
          "internalType": "uint256",
          "name": "lastFlipResult_",
          "type": "uint256"
        },
        {
          "internalType": "bytes32",
          "name": "lastFlipHash_",
          "type": "bytes32"
        },
        {
          "internalType": "string",
          "name": "coinType_",
          "type": "string"
        },
        {
          "internalType": "string",
          "name": "headsImage_",
          "type": "string"
        },
        {
          "internalType": "string",
          "name": "tailsImage_",
          "type": "string"
        },
        {
          "internalType": "bool",
          "name": "isCustom_",
          "type": "bool"
        }
      ],
      "stateMutability": "view",
      "type": "function"
    },
    {
      "inputs": [
        {
          "internalType": "uint256",
          "name": "gameId",
          "type": "uint256"
        }
      ],
      "name": "getGameRoundDetails",
      "outputs": [
        {
          "internalType": "uint256",
          "name": "creatorWins",
          "type": "uint256"
        },
        {
          "internalType": "uint256",
          "name": "joinerWins",
          "type": "uint256"
        },
        {
          "internalType": "uint256",
          "name": "currentRound",
          "type": "uint256"
        },
        {
          "internalType": "uint256",
          "name": "lastResult",
          "type": "uint256"
        }
      ],
      "stateMutability": "view",
      "type": "function"
    },
    {
      "inputs": [
        {
          "internalType": "address",
          "name": "user",
          "type": "address"
        }
      ],
      "name": "getUserGames",
      "outputs": [
        {
          "internalType": "uint256[]",
          "name": "",
          "type": "uint256[]"
        }
      ],
      "stateMutability": "view",
      "type": "function"
    },
    {
      "inputs": [
        {
          "internalType": "uint256",
          "name": "gameId",
          "type": "uint256"
        }
      ],
      "name": "joinGame",
      "outputs": [],
      "stateMutability": "payable",
      "type": "function"
    },
    {
      "inputs": [],
      "name": "listingFeeUSD",
      "outputs": [
        {
          "internalType": "uint256",
          "name": "",
          "type": "uint256"
        }
      ],
      "stateMutability": "view",
      "type": "function"
    },
    {
      "inputs": [],
      "name": "nextGameId",
      "outputs": [
        {
          "internalType": "uint256",
          "name": "",
          "type": "uint256"
        }
      ],
      "stateMutability": "view",
      "type": "function"
    },
    {
      "inputs": [],
      "name": "owner",
      "outputs": [
        {
          "internalType": "address",
          "name": "",
          "type": "address"
        }
      ],
      "stateMutability": "view",
      "type": "function"
    },
    {
      "inputs": [],
      "name": "paused",
      "outputs": [
        {
          "internalType": "bool",
          "name": "",
          "type": "bool"
        }
      ],
      "stateMutability": "view",
      "type": "function"
    },
    {
      "inputs": [],
      "name": "platformFeePercent",
      "outputs": [
        {
          "internalType": "uint256",
          "name": "",
          "type": "uint256"
        }
      ],
      "stateMutability": "view",
      "type": "function"
    },
    {
      "inputs": [],
      "name": "platformFeeReceiver",
      "outputs": [
        {
          "internalType": "address",
          "name": "",
          "type": "address"
        }
      ],
      "stateMutability": "view",
      "type": "function"
    },
    {
      "inputs": [
        {
          "internalType": "uint256",
          "name": "gameId",
          "type": "uint256"
        }
      ],
      "name": "playRound",
      "outputs": [],
      "stateMutability": "nonpayable",
      "type": "function"
    },
    {
      "inputs": [],
      "name": "renounceOwnership",
      "outputs": [],
      "stateMutability": "nonpayable",
      "type": "function"
    },
    {
      "inputs": [
        {
          "internalType": "uint256",
          "name": "newFee",
          "type": "uint256"
        }
      ],
      "name": "setListingFee",
      "outputs": [],
      "stateMutability": "nonpayable",
      "type": "function"
    },
    {
      "inputs": [
        {
          "internalType": "uint256",
          "name": "newPercent",
          "type": "uint256"
        }
      ],
      "name": "setPlatformFee",
      "outputs": [],
      "stateMutability": "nonpayable",
      "type": "function"
    },
    {
      "inputs": [
        {
          "internalType": "address",
          "name": "newOwner",
          "type": "address"
        }
      ],
      "name": "transferOwnership",
      "outputs": [],
      "stateMutability": "nonpayable",
      "type": "function"
    },
    {
      "inputs": [
        {
          "internalType": "address",
          "name": "",
          "type": "address"
        }
      ],
      "name": "unclaimedETH",
      "outputs": [
        {
          "internalType": "uint256",
          "name": "",
          "type": "uint256"
        }
      ],
      "stateMutability": "view",
      "type": "function"
    },
    {
      "inputs": [
        {
          "internalType": "address",
          "name": "",
          "type": "address"
        },
        {
          "internalType": "address",
          "name": "",
          "type": "address"
        },
        {
          "internalType": "uint256",
          "name": "",
          "type": "uint256"
        }
      ],
      "name": "unclaimedNFTs",
      "outputs": [
        {
          "internalType": "uint256",
          "name": "",
          "type": "uint256"
        }
      ],
      "stateMutability": "view",
      "type": "function"
    },
    {
      "inputs": [
        {
          "internalType": "address",
          "name": "",
          "type": "address"
        }
      ],
      "name": "unclaimedUSDC",
      "outputs": [
        {
          "internalType": "uint256",
          "name": "",
          "type": "uint256"
        }
      ],
      "stateMutability": "view",
      "type": "function"
    },
    {
      "inputs": [],
      "name": "unpause",
      "outputs": [],
      "stateMutability": "nonpayable",
      "type": "function"
    },
    {
      "inputs": [],
      "name": "usdcToken",
      "outputs": [
        {
          "internalType": "address",
          "name": "",
          "type": "address"
        }
      ],
      "stateMutability": "view",
      "type": "function"
    },
    {
      "inputs": [
        {
          "internalType": "address",
          "name": "",
          "type": "address"
        },
        {
          "internalType": "uint256",
          "name": "",
          "type": "uint256"
        }
      ],
      "name": "userGames",
      "outputs": [
        {
          "internalType": "uint256",
          "name": "",
          "type": "uint256"
        }
      ],
      "stateMutability": "view",
      "type": "function"
    },
    {
      "inputs": [
        {
          "internalType": "address",
          "name": "nftContract",
          "type": "address"
        },
        {
          "internalType": "uint256",
          "name": "tokenId",
          "type": "uint256"
        }
      ],
      "name": "withdrawNFT",
      "outputs": [],
      "stateMutability": "nonpayable",
      "type": "function"
    },
    {
      "inputs": [],
      "name": "withdrawRewards",
      "outputs": [],
      "stateMutability": "nonpayable",
      "type": "function"
    }
  ],
  "bytecode": "0x6080346200011157601f62003baf38819003918201601f19168301916001600160401b03831184841017620001165780849260609460405283398101031262000111576200004d816200012c565b62000069604062000061602085016200012c565b93016200012c565b916001600055600154926040519360018060a01b03928391338382167f8be0079c531659141344cd1fd0a4f28419497f9722a3daafe3b4186f6b6457e0600080a36001600160a81b0319163360ff60a01b191617600190815560075562030d4060085561015e600955600b80546001600160a01b0319908116968416969096179055600c8054861691909216179055600a80549093169116179055613a6d9081620001428239f35b600080fd5b634e487b7160e01b600052604160045260246000fd5b51906001600160a01b0382168203620001115756fe610260604052600436101561001357600080fd5b6000803560e01c8063019e485e14612e2c578063117a5b9014612c3a57806311eac85514612c11578063120aace614612b6357806312e8e2c314612b08578063131dbd0914612ae55780631a68b69114612aac5780631b31abda1461277a5780632d656ad7146127515780633a38d063146127335780633f4ba83a1461269657806351858e27146126335780635c975abb1461260d5780636088e93a14612446578063623c0df2146121e157806369958ab914612089578063715018a61461202b5780638009b7bd146120025780638453601714611f8e5780638c639a8514611f705780638da5cb5b14611f4757806395d1152014611f0e578063aa4209b814611ea1578063b135bbb014611e83578063b87b7fcc14611d3c578063bc0167cd14611ce5578063c7b8981c14611b44578063cb9a263014611826578063cf309490146116ce578063e1f1c4a7146116b1578063e25f494b14610ed6578063e63d874514610607578063ef46b2ab146105e0578063efaa55a014610423578063f21f8025146102725763f2fde38b146101aa57600080fd5b3461026f57602036600319011261026f576101c3613479565b6101cb61357a565b6001600160a01b0390811690811561021b57600154826001600160601b0360a01b821617600155167f8be0079c531659141344cd1fd0a4f28419497f9722a3daafe3b4186f6b6457e0600080a380f35b60405162461bcd60e51b815260206004820152602660248201527f4f776e61626c653a206e6577206f776e657220697320746865207a65726f206160448201526564647265737360d01b6064820152608490fd5b80fd5b503461026f57606036600319011261026f5760043561028f613494565b60443561029a613788565b82845260026020526040842060ff600582015416600581101561040f576102c190156139f6565b60018101546001600160a01b0390811633036103ca57808391600384015416941680941491826103bc575b50501561038b578184923b15610387576040516323b872dd60e01b8152336004820152306024820152604481019290925282908290606490829084905af1801561037c57610364575b505033907f052b1fb285141146b72f7eddd25172042be309c15a803900dce35e0ae95c04dd8380a36001815580f35b61036d906132cb565b610378578138610335565b5080fd5b6040513d84823e3d90fd5b8280fd5b60405162461bcd60e51b815260206004820152600960248201526815dc9bdb99c813919560ba1b6044820152606490fd5b6004015414905081386102ec565b60405162461bcd60e51b815260206004820152601c60248201527f4f6e6c792063726561746f722063616e206465706f736974204e4654000000006044820152606490fd5b634e487b7160e01b86526021600452602486fd5b50602036600319011261026f5760043561043b613788565b610443613741565b808252600260205260408220600581019081549160ff8316600581101561040f576105a65760018201546001600160a01b0392908316331461056a5785808261050c95829560016104986006869801546138a4565b9960026127106104ab8d600954906137de565b04958c6104c46104bb89836136f8565b913410156137f1565b600882015501336001600160601b0360a01b82541617905560ff191617905533835260036020526104f8896040852061365e565b600a54165af1610506613686565b50613834565b82813411610542575b33837f45c4f9cbafe186141862608c493f28b823fde4c2142bedc3f5169961a73fdd228380a36001815580f35b80808061055261056395346136f8565b335af161055d613686565b50613705565b3882610515565b60405162461bcd60e51b815260206004820152601460248201527343616e6e6f74206a6f696e206f776e2067616d6560601b6044820152606490fd5b60405162461bcd60e51b815260206004820152601260248201527147616d65206e6f7420617661696c61626c6560701b6044820152606490fd5b503461026f57602036600319011261026f5760206105ff6004356138a4565b604051908152f35b5061012036600319011261026f5761061d613479565b610625613494565b90600260843510156103875760a4356001600160401b038111610ed257610650903690600401613523565b60c4356001600160401b038111610ece5761066f903690600401613523565b9060e4356001600160401b038111610eca5761068f903690600401613523565b61069761356a565b946106a0613788565b6106a8613741565b6001600160a01b038516151580610eb7575b15610e7f576106d36001600160a01b03821615156135d2565b6106de6008546138a4565b926106ea6064356138a4565b966127106106fa6009548a6137de565b04936107068987613880565b96610713883410156137f1565b6001600160a01b0385163b15610e7b576040516323b872dd60e01b815233600482015230602482015260448035908201528b908181606481836001600160a01b038c165af1801561037c57610e67575b505060405193610772856132de565b8452602084015260408301521515606082015261079e83600754986107968a613615565b6007556136f8565b604051926107ab846132af565b8884523360208501526001600160a01b0388811660408601521660608401526044356080840152600160a084015260c0830189905260643560e08401526107f360843561342f565b608435610100840152610120830152876101408301524261016083015287610180830152876101a0830152876101c0830152876101e08301528761020083015261022082015285875260026020526040872090805182556001820160018060a01b036020830151166001600160601b0360a01b8254161790556002820160018060a01b036040830151166001600160601b0360a01b8254161790556003820160018060a01b036060830151166001600160601b0360a01b8254161790556080810151600483015560a08101516005811015610e535790610220916108db600585019182613646565b60c08201516108e98161342f565b6108f28161342f565b61ff0082549160081b169061ff00191617905560e0810151600684015561010081015161091e8161342f565b6109278161342f565b60ff8019600786015416911617600784015561012081015160088401556009830160018060a01b03610140830151166001600160601b0360a01b825416179055610160810151600a840155610180810151600b8401556101a0810151600c8401556101c0810151600d8401556101e0810151600e840155610200810151600f84015501519081518051906001600160401b038211610ca95781906109ce6010850154613275565b601f8111610e02575b50602090601f8311600114610d93578b92610d88575b50508160011b916000199060031b1c19161760108201555b60208201518051906001600160401b038211610ca9578190610a2a6011850154613275565b601f8111610d37575b50602090601f8311600114610cc8578b92610cbd575b50508160011b916000199060031b1c19161760118201555b60408201518051906001600160401b038211610ca957908291610a8a60128c9796950154613275565b601f8111610c50575b50602090601f8311600114610bca57948695946060601388979686610b429c97610b31978b9a8b92610bbf575b50508160011b916000199060031b1c19161760128201555b01910151151560ff801983541691161790553384526003602052610aff8b6040862061365e565b6001600160a01b038a168452600360205260408420610b1f908c9061365e565b600a546001600160a01b031692613880565b905af1610b3c613686565b506136b6565b83813411610ba8575b505033827fc3e0f84839dc888c892a013d10c8f9d6dc05a21a879d0ce468ca558013e9121c8580a36001600160a01b0316907f45c4f9cbafe186141862608c493f28b823fde4c2142bedc3f5169961a73fdd228380a36001815580f35b808080610552610bb895346136f8565b3883610b4b565b015190503880610ac0565b6012849392989695940187526020872090875b601f1984168110610c35575093606060138998956001868b9a96610b429e8c9b610b319a601f19811610610c1c575b505050811b016012820155610ad8565b015160001960f88460031b161c19169055388080610c0c565b818a015183556020998a01998e995060019093019201610bdd565b90919293949550601284018b5260208b20601f840160051c810160208510610ca2575b908c979695949392915b601f830160051c82018110610c93575050610a93565b600081558d9850600101610c7d565b5080610c73565b634e487b7160e01b8a52604160045260248afd5b015190503880610a49565b9250601184018b5260208b20908b935b601f1984168510610d1c576001945083601f19811610610d03575b505050811b016011820155610a61565b015160001960f88460031b161c19169055388080610cf3565b81810151835560209485019460019093019290910190610cd8565b909150601184018b5260208b20601f840160051c810160208510610d81575b90849392915b601f830160051c82018110610d72575050610a33565b60008155859450600101610d5c565b5080610d56565b0151905038806109ed565b9250601084018b5260208b20908b935b601f1984168510610de7576001945083601f19811610610dce575b505050811b016010820155610a05565b015160001960f88460031b161c19169055388080610dbe565b81810151835560209485019460019093019290910190610da3565b909150601084018b5260208b20601f840160051c810160208510610e4c575b90849392915b601f830160051c82018110610e3d5750506109d7565b60008155859450600101610e27565b5080610e21565b634e487b7160e01b89526021600452602489fd5b610e70906132cb565b610e7b578a38610763565b8a80fd5b60405162461bcd60e51b815260206004820152601060248201526f125b9d985b1a59081bdc1c1bdb995b9d60821b6044820152606490fd5b506001600160a01b0385163314156106ba565b8580fd5b8480fd5b8380fd5b5061012036600319011261026f57610eec613479565b6002606435101561037857600260843510156103785760a4356001600160401b03811161038757610f21903690600401613523565b9060c4356001600160401b038111610ed257610f41903690600401613523565b9060e4356001600160401b038111610ece57610f61903690600401613523565b610f6961356a565b90610f72613788565b610f7a613741565b610f8e6001600160a01b03841615156135d2565b610f996008546138a4565b9384341061166c576001600160a01b0384163b15611668576040516323b872dd60e01b81523360048201523060248083019190915235604482015287908181606481836001600160a01b038b165af1801561037c57611654575b505060405195611002876132de565b865260208601526040850152151560608401526007549261102284613615565b60075560405191611032836132af565b848352336020840152604083018690526001600160a01b03166060830152602435608083015260a0820185905261106a60843561342f565b60843560c083015260443560e083015261108560643561342f565b60643561010083015284610120830152846101408301524261016083015284610180830152846101a0830152846101c0830152846101e08301528461020083015261022082015282845260026020526040842090805182556001820160018060a01b036020830151166001600160601b0360a01b8254161790556002820160018060a01b036040830151166001600160601b0360a01b8254161790556003820160018060a01b036060830151166001600160601b0360a01b8254161790556080810151600483015560a0810151600581101561040f57906102209161116e600585019182613646565b60c082015161117c8161342f565b6111858161342f565b61ff0082549160081b169061ff00191617905560e081015160068401556101008101516111b18161342f565b6111ba8161342f565b60ff8019600786015416911617600784015561012081015160088401556009830160018060a01b03610140830151166001600160601b0360a01b825416179055610160810151600a840155610180810151600b8401556101a0810151600c8401556101c0810151600d8401556101e0810151600e840155610200810151600f84015501519081518051906001600160401b0382116114aa5781906112616010850154613275565b601f8111611603575b50602090601f8311600114611594578892611589575b50508160011b916000199060031b1c19161760108201555b60208201518051906001600160401b0382116114aa5781906112bd6011850154613275565b601f8111611538575b50602090601f83116001146114c95788926114be575b50508160011b916000199060031b1c19161760118201555b60408201518051906001600160401b0382116114aa576113176012840154613275565b601f8111611465575b50602090601f83116001146113f3579180606094926013948a926113e8575b50508160011b916000199060031b1c19161760128201555b01910151151560ff80198354169116179055338352600360205261137e826040852061365e565b61139b838080808560018060a01b03600a54165af1610b3c613686565b828134116113d1575b33837fc3e0f84839dc888c892a013d10c8f9d6dc05a21a879d0ce468ca558013e9121c8380a36001815580f35b8080806105526113e195346136f8565b38826113a4565b01519050388061133f565b906012840188526020882091885b601f198516811061144d5750926060949260019260139583601f19811610611434575b505050811b016012820155611357565b015160001960f88460031b161c19169055388080611424565b91926020600181928685015181550194019201611401565b60128401885260208820601f840160051c8101602085106114a3575b601f830160051c82018110611497575050611320565b60008155600101611481565b5080611481565b634e487b7160e01b87526041600452602487fd5b0151905038806112dc565b9250601184018852602088209088935b601f198416851061151d576001945083601f19811610611504575b505050811b0160118201556112f4565b015160001960f88460031b161c191690553880806114f4565b818101518355602094850194600190930192909101906114d9565b90915060118401885260208820601f840160051c810160208510611582575b90849392915b601f830160051c820181106115735750506112c6565b6000815585945060010161155d565b5080611557565b015190503880611280565b9250601084018852602088209088935b601f19841685106115e8576001945083601f198116106115cf575b505050811b016010820155611298565b015160001960f88460031b161c191690553880806115bf565b818101518355602094850194600190930192909101906115a4565b90915060108401885260208820601f840160051c81016020851061164d575b90849392915b601f830160051c8201811061163e57505061126a565b60008155859450600101611628565b5080611622565b61165d906132cb565b611668578638610ff3565b8680fd5b60405162461bcd60e51b815260206004820152601860248201527f496e73756666696369656e74206c697374696e672066656500000000000000006044820152606490fd5b503461026f578060031936011261026f5760206040516127108152f35b50602036600319011261026f576004356116e6613788565b8082526002602052604082209060058201805460ff8116600581101561040f5761171090156139f6565b60028401546001600160a01b0390811633036117e157858080938193600689015461173a906138a4565b9660095461174890896137de565b612710900492611758848a6136f8565b809b8a341015611767906137f1565b6008015560ff19166001179055600a54165af1611782613686565b5061178c90613834565b838134116117ca575b50506040519182527fa6795dc81355b15d42bc7de3fb8a255e7e88a4697260822e1f4c5b07b003690760203393a36001815580f35b8080806105526117da95346136f8565b3883611795565b60405162461bcd60e51b815260206004820152601e60248201527f4f6e6c79206a6f696e65722063616e206465706f7369742063727970746f00006044820152606490fd5b503461026f57606036600319011261026f576001600160401b03600435818111610387576118589036906004016134d8565b90916024908135818111610eca576118749036906004016134d8565b916044359081116116685761188d9036906004016134d8565b9261189661357a565b80861480611b3b575b15611af75792869288969287955b8487106118b8578880f35b96976001600160a01b039790966118e4896118dc6118d7848a8c6139b3565b6139c3565b1615156135d2565b886118f36118d78388876139b3565b1615611abf578861190582888a6139b3565b61190e906139c3565b169861191b8284876139b3565b6040516331a9108f60e11b81529035600482015260206101409081529a818d815a93602094fa8a9181611a8f575b506119925760405162461bcd60e51b81528b516004820152601d818e01527f4661696c656420746f20636865636b204e4654206f776e6572736869700000006044820152606490fd5b81929394959697999b989a9130911603611a4b575089906119b76118d7848b8d6139b3565b166119c66118d78489886139b3565b6119d18486896139b3565b35823b15610ed2576040516323b872dd60e01b81523060048201526001600160a01b0392909216602483015260448201529082908290606490829084905af1801561037c57611a33575b5050611a2690613615565b95939291909694966118ad565b611a3c906132cb565b611a4757888a611a1b565b8880fd5b60405162461bcd60e51b815290516004820152601e818901527f436f6e747261637420646f6573206e6f74206f776e2074686973204e465400006044820152606490fd5b611ab19192508c513d8111611ab8575b611aa981836132f9565b8101906139d7565b908d611949565b503d611a9f565b60405162461bcd60e51b8152602060048201526011818c015270125b9d985b1a59081c9958da5c1a595b9d607a1b6044820152606490fd5b60405162461bcd60e51b8152602060048201526018818701527f4172726179206c656e67746873206d757374206d6174636800000000000000006044820152606490fd5b5083811461189f565b503461026f578060031936011261026f57611b5d613788565b33815260206004815260408220549060058152604083205490600481528360408120556005815283604081205582611c96575b81611c13575b6040516101608101908082106001600160401b03831117611bfd5761014091604052600a815282369101376040519283528201528160408201527f4f3d7a53f1fd3ab32e84fafd251bc5c1ec2c516068909f68847ad29c366d134c60603392a26001815580f35b634e487b7160e01b600052604160045260246000fd5b600c5460405163a9059cbb60e01b8152336004820152602481018490529082908290604490829089906001600160a01b03165af18015611c8b57611c58575b50611b96565b8181813d8311611c84575b611c6d81836132f9565b81010312610ece575180151503610ed25738611c52565b503d611c63565b6040513d87823e3d90fd5b8380808086335af1611ca6613686565b50611b90576064906040519062461bcd60e51b825260048201526013602482015272115512081d1c985b9cd9995c8819985a5b1959606a1b6044820152fd5b503461026f57604036600319011261026f57611cff613479565b6001600160a01b031681526003602052604081208054602435929083101561026f576020611d2d84846134aa565b90549060031b1c604051908152f35b503461026f57602036600319011261026f5760406080916004358152600260205220604051611d6a816132af565b8154815260018201546001600160a01b039081166020830152600283015481166040830152600383015481166060830152600483015484830152600583015460ff90611dbb81831660a0860161363a565b60081c16611dc88161342f565b60c0830152600683015460e083015260ff600784015416611de88161342f565b6101008301526008830154610120830152600983015416610140820152600a820154610160820152600b820154916101808201928352600c810154926101a08301938452600d820154926101c08101938452610220611e616010600e860154956101e08501968752600f810154610200860152016133c0565b9101525192519151905191604051938452602084015260408301526060820152f35b503461026f578060031936011261026f576020600754604051908152f35b503461026f57606036600319011261026f57611ebb613479565b90611ec4613494565b6044359260018060a01b0380911683526006602052604083209116600052602052604060002090815483101561026f576020611f0084846134aa565b90546040519160031b1c8152f35b503461026f57602036600319011261026f576020906040906001600160a01b03611f36613479565b168152600583522054604051908152f35b503461026f578060031936011261026f576001546040516001600160a01b039091168152602090f35b503461026f578060031936011261026f576020600954604051908152f35b503461026f578060031936011261026f57611fa761357a565b8080808060018060a01b036001541647905af1611fc2613686565b5015611fcb5780f35b60405162461bcd60e51b815260206004820152600f60248201526e151c985b9cd9995c8819985a5b1959608a1b6044820152606490fd5b503461026f578060031936011261026f57600b546040516001600160a01b039091168152602090f35b503461026f578060031936011261026f5761204461357a565b600180546001600160a01b031981169091556000906001600160a01b03167f8be0079c531659141344cd1fd0a4f28419497f9722a3daafe3b4186f6b6457e08280a380f35b503461026f576020908160031936011261026f576004356120a8613788565b808252600283526040822060018101546001600160a01b03908116943386900361219d57600583019586549660ff881660058110156121895761214457600461211996979860ff1916179055865260068152604086209160038401541660005252600460406000209101549061365e565b7f681705fdbd93dba3b679fd712577e9a86d57c5551c520f8c74857deb57f9623f8280a26001815580f35b60405162461bcd60e51b815260048101849052601e60248201527f43616e206f6e6c792063616e63656c20756e6a6f696e65642067616d657300006044820152606490fd5b634e487b7160e01b88526021600452602488fd5b6064906040519062461bcd60e51b82526004820152601760248201527f4f6e6c792063726561746f722063616e2063616e63656c0000000000000000006044820152fd5b503461026f576020806003193601126103785760043590612200613788565b8183526002815260408320600181015490916001600160a01b039182163381148015612437575b156123fe5760058401805460ff81166005811015610e535780159081156123f3575b50156123ae57906004889594939260ff191617905582600386015416916004860154906040516331a9108f60e11b81528260048201528181602481885afa9182156123a3578792612386575b505084163014612315575b50505060088301549081151580612306575b6122e5575b8233867f49d7c8709a4c20d005b1c37e3f302ae91287b77de799510e227932e05ee770c88380a36001815580f35b828092819260026122fd970154165af161055d613686565b388281806122b7565b508060028501541615156122b2565b823b15610ece576040516323b872dd60e01b81523060048201526001600160a01b0392909216602483015260448201529083908290606490829084905af190811561237b578391612367575b806122a0565b612370906132cb565b610378578138612361565b6040513d85823e3d90fd5b61239c9250803d10611ab857611aa981836132f9565b3880612295565b6040513d89823e3d90fd5b60405162461bcd60e51b815260048101859052601960248201527f43616e6e6f742063616e63656c206163746976652067616d65000000000000006044820152606490fd5b600191501438612249565b60405162461bcd60e51b8152600481018390526011602482015270139bdd0818481c185c9d1a58da5c185b9d607a1b6044820152606490fd5b50826002850154163314612227565b503461026f57604036600319011261026f57612460613479565b60249182359161246e613788565b3382526006602052604082209060018060a01b03169081835260205260408220928293835b8154808210156126025783906124a983856134aa565b929054600393841b1c146124c75750506124c290613615565b612493565b909394959650600019918282019182116125ef576124f86124eb61251193866134aa565b905490871b1c91856134aa565b90919082549060031b91821b91600019901b1916179055565b815480156125dc5781019261252684846134aa565b81939154921b1b191690555560015b1561259857829350813b15612594576040516323b872dd60e01b8152306004820152336024820152604481019190915291908290606490829084905af1801561037c57612585575b506001815580f35b61258e906132cb565b3861257d565b5050fd5b60405162461bcd60e51b815260206004820152601a818601527f4e4654206e6f7420666f756e6420696e20756e636c61696d65640000000000006044820152606490fd5b634e487b7160e01b875260316004528787fd5b634e487b7160e01b885260116004528888fd5b505050909192612535565b503461026f578060031936011261026f57602060ff60015460a01c166040519015158152f35b503461026f578060031936011261026f5761264c61357a565b612654613741565b6001805460ff60a01b1916600160a01b1790556040513381527f62e78cea01bee320cd4e420270b5ea74000d11b0c9f74754ebdbfc544b05a25890602090a180f35b503461026f578060031936011261026f576126af61357a565b60015460ff8160a01c16156126f75760ff60a01b19166001556040513381527f5db9ee0a495bf2e6ff9c91a7834c1ba4fdd244a5e8aa4e537bd38aeae4b073aa90602090a180f35b60405162461bcd60e51b815260206004820152601460248201527314185d5cd8589b194e881b9bdd081c185d5cd95960621b6044820152606490fd5b503461026f578060031936011261026f576020600854604051908152f35b503461026f578060031936011261026f57600a546040516001600160a01b039091168152602090f35b503461026f57602036600319011261026f576004358152600260205260408120906128986010604051936127ad856132af565b8054855260018101546001600160a01b039081166020870152600282015481166040870152600382015416606086015260048101546080860152600581015460ff906127fe81831660a0890161363a565b60081c1661280b8161342f565b60c0860152600681015460e086015260ff60078201541661282b8161342f565b610100860152600881015461012086015260098101546001600160a01b0316610140860152600a810154610160860152600b810154610180860152600c8101546101a0860152600d8101546101c0860152600e8101546101e0860152600f810154610200860152016133c0565b610220830152815160208301516001600160a01b03908116610160526040840151811660e05260608401511660c052608083015160a084015191929091906005821015612a98575060c08401516128ee8161342f565b60e08501516101008601516129028161342f565b61012087015190600160a01b600190036101408901511692610160890151946101808a0151966101a08b0151986101c08c01519a6101e08d01519c6102008101516080526102200151806101205280516101c05260208101516101805260408101516101e0526060015115156101005260405180610240525261016051610240516020015260e051610240516040015260c051610240516060015261024051608001526102405160a0016129b59161340c565b6129be8161342f565b6102405160c001526102405160e001526129d78161342f565b610240516101000152610240516101200152610240516101400152610240516101600152610240516101800152610240516101a00152610240516101c00152610240516101e001526080516102405161020001526102a08061024051610220015261024051016101c05190612a4b91613439565b610240518082039061024001526101805190612a6691613439565b610240518082039061026001526101e05190612a8191613439565b610100516102405161028001526102405180910390f35b634e487b7160e01b81526021600452602490fd5b503461026f57602036600319011261026f576020906040906001600160a01b03612ad4613479565b168152600483522054604051908152f35b503461026f57602036600319011261026f57612aff61357a565b60043560085580f35b503461026f57602036600319011261026f57600435612b2561357a565b6103e88111612b345760095580f35b60405162461bcd60e51b81526020600482015260076024820152664d61782031302560c81b6044820152606490fd5b503461026f57602080600319360112610378576001600160a01b03612b86613479565b168252600381526040822060405192838383549182815201908193835284832090835b818110612bfd5750505084612bbf9103856132f9565b60405193838594850191818652518092526040850193925b828110612be657505050500390f35b835185528695509381019392810192600101612bd7565b825484529286019260019283019201612ba9565b503461026f578060031936011261026f57600c546040516001600160a01b039091168152602090f35b503461026f57602036600319011261026f576004358152600260205260409020808054600160a01b600190038060018401541660a05280600284015416610220528060038401541690600484015490600585015490600686015490600787015460ff1660088801549160098901541692600a89015494600b8a015496600c8b015498600d8c01549a600e8d01549c600f01549d601001612cd9906133c0565b6101a05260405180610200525260a0516102005160200152610220516102005160400152610200516060015261020051608001526102005160a00160ff821690612d229161340c565b60081c60ff16612d318161342f565b6102005160c001526102005160e00152612d4a8161342f565b610200516101000152610200516101200152610200516101400152610200516101600152610200516101800152610200516101a00152610200516101c00152610200516101e00152610200516102000152610240806102005161022001526101a0515190610200510160809052610200516102c001612dc891613439565b6101a05160200151610200519161023f19928381830301906102600152612dee91613439565b6101a0516040015191610200519081830301906102800152612e0f91613439565b6101a051606001511515610200516102a001526102005180910390f35b503461026f57602036600319011261026f57612e46613788565b6004358152600260205260408120600581015460ff8116600581101580613261576001821480928115613253575b501561321d5760018401546001600160a01b031633148015613207575b156131d3576003600b85015410806131c5575b156131885761317457613162575b50600d81015460405142602082015244604082015260043560608201528160808201523360601b60a0820152609481528060c08101106001600160401b0360c08301111761314e5760c08101604052602081519101209060018216156000146130de5750612f23600b830154613615565b600b830155600d8201546001810181116130ca5760018381015460408051938301845291841660208401526001600160a01b031690820152600435907fd2b6b22444768b00d18e4a1c242dc398d49e330c1bae790cad9dcd86da2e20c390606090a25b612f93600d830154613615565b600d83015560018116600e830155600f8201556003600b82015410801580916130bb575b612fc4575b826001815580f35b156130a45760018101546001600160a01b0316906008905b6009810180546001600160a01b0319166001600160a01b03948516908117825560058301805460ff191660039081179091559086526006602090815260408088209285015490961687525292842060048201546130389161365e565b015480613079575b50546001600160a01b03166004357f7f40df5127524300187445e867486da572aab86769c0212e0b392bd87c4ca97f8380a33880612fbc565b81546001600160a01b031683526004602052604083208054909161309c91613880565b905538613040565b60028101546001600160a01b031690600890612fdc565b506003600c8301541015612fb7565b634e487b7160e01b84526011600452602484fd5b600c83016130ec8154613615565b90556001810181116130ca576002830154604080516001938401815292841660208401526001600160a01b0390911690820152600435907fd2b6b22444768b00d18e4a1c242dc398d49e330c1bae790cad9dcd86da2e20c390606090a2612f86565b634e487b7160e01b84526041600452602484fd5b60ff1916600217600582015538612eb2565b634e487b7160e01b84526021600452602484fd5b60405162461bcd60e51b815260206004820152601560248201527447616d6520616c726561647920636f6d706c65746560581b6044820152606490fd5b506003600c85015410612ea4565b60405162461bcd60e51b815260206004820152600c60248201526b2737ba103090383630bcb2b960a11b6044820152606490fd5b5060028401546001600160a01b03163314612e91565b60405162461bcd60e51b815260206004820152600e60248201526d47616d65206e6f7420726561647960901b6044820152606490fd5b915050600285911438612e74565b634e487b7160e01b85526021600452602485fd5b90600182811c921680156132a5575b602083101461328f57565b634e487b7160e01b600052602260045260246000fd5b91607f1691613284565b61024081019081106001600160401b03821117611bfd57604052565b6001600160401b038111611bfd57604052565b608081019081106001600160401b03821117611bfd57604052565b90601f801991011681019081106001600160401b03821117611bfd57604052565b906040519182600082549261332e84613275565b90818452600194858116908160001461339d575060011461335a575b5050613358925003836132f9565b565b9093915060005260209081600020936000915b8183106133855750506133589350820101388061334a565b8554888401850152948501948794509183019161336d565b91505061335894506020925060ff191682840152151560051b820101388061334a565b906040516133cd816132de565b606060ff600383956133de8161331a565b85526133ec6001820161331a565b60208601526133fd6002820161331a565b60408601520154161515910152565b9060058210156134195752565b634e487b7160e01b600052602160045260246000fd5b6002111561341957565b919082519283825260005b848110613465575050826000602080949584010152601f8019910116010190565b602081830181015184830182015201613444565b600435906001600160a01b038216820361348f57565b600080fd5b602435906001600160a01b038216820361348f57565b80548210156134c25760005260206000200190600090565b634e487b7160e01b600052603260045260246000fd5b9181601f8401121561348f578235916001600160401b03831161348f576020808501948460051b01011161348f57565b6001600160401b038111611bfd57601f01601f191660200190565b81601f8201121561348f5780359061353a82613508565b9261354860405194856132f9565b8284526020838301011161348f57816000926020809301838601378301015290565b6101043590811515820361348f57565b6001546001600160a01b0316330361358e57565b606460405162461bcd60e51b815260206004820152602060248201527f4f776e61626c653a2063616c6c6572206973206e6f7420746865206f776e65726044820152fd5b156135d957565b60405162461bcd60e51b8152602060048201526014602482015273125b9d985b1a59081391950818dbdb9d1c9858dd60621b6044820152606490fd5b60001981146136245760010190565b634e487b7160e01b600052601160045260246000fd5b60058210156134195752565b9060058110156134195760ff80198354169116179055565b9081549168010000000000000000831015611bfd57826124f8916001613358950181556134aa565b3d156136b1573d9061369782613508565b916136a560405193846132f9565b82523d6000602084013e565b606090565b156136bd57565b60405162461bcd60e51b8152602060048201526013602482015272119959481d1c985b9cd9995c8819985a5b1959606a1b6044820152606490fd5b9190820391821161362457565b1561370c57565b60405162461bcd60e51b815260206004820152600d60248201526c1499599d5b990819985a5b1959609a1b6044820152606490fd5b60ff60015460a01c1661375057565b60405162461bcd60e51b815260206004820152601060248201526f14185d5cd8589b194e881c185d5cd95960821b6044820152606490fd5b600260005414613799576002600055565b60405162461bcd60e51b815260206004820152601f60248201527f5265656e7472616e637947756172643a207265656e7472616e742063616c6c006044820152606490fd5b8181029291811591840414171561362457565b156137f857565b60405162461bcd60e51b8152602060048201526014602482015273125b9cdd59999a58da595b9d081c185e5b595b9d60621b6044820152606490fd5b1561383b57565b60405162461bcd60e51b815260206004820152601c60248201527f506c6174666f726d20666565207472616e73666572206661696c6564000000006044820152606490fd5b9190820180921161362457565b519069ffffffffffffffffffff8216820361348f57565b600b54604051633fabe5a360e21b8152919060a090839060049082906001600160a01b03165afa9182156139a757600092613959575b50600082131561391f5768056bc75e2d6310000090818102918183041490151715613624578115613909570490565b634e487b7160e01b600052601260045260246000fd5b60405162461bcd60e51b8152602060048201526012602482015271125b9d985b1a59081c1c9a58d9481999595960721b6044820152606490fd5b909160a0823d821161399f575b8161397360a093836132f9565b8101031261026f57506139858161388d565b5061399760806020830151920161388d565b5090386138da565b3d9150613966565b6040513d6000823e3d90fd5b91908110156134c25760051b0190565b356001600160a01b038116810361348f5790565b9081602091031261348f57516001600160a01b038116810361348f5790565b156139fd57565b60405162461bcd60e51b8152602060048201526012602482015271496e76616c69642067616d6520737461746560701b6044820152606490fdfea26469706673582212200e30354ca81e751297cc3a82da45210418a5f5fc4f86fcfa7093146f9ee9063764736f6c63430008140033",
  "linkReferences": {},
  "deployedLinkReferences": {}
}