{
  "_format": "hh-sol-artifact-1",
  "contractName": "NFTFlipGame",
  "sourceName": "contracts/NFTFlipGame.sol",
  "abi": [
    {
      "inputs": [
        {
          "internalType": "address",
          "name": "_ethUsdFeed",
          "type": "address"
        },
        {
          "internalType": "address",
          "name": "_usdcToken",
          "type": "address"
        },
        {
          "internalType": "address",
          "name": "_platformFeeReceiver",
          "type": "address"
        }
      ],
      "stateMutability": "nonpayable",
      "type": "constructor"
    },
    {
      "anonymous": false,
      "inputs": [
        {
          "indexed": true,
          "internalType": "bytes32",
          "name": "gameId",
          "type": "bytes32"
        },
        {
          "indexed": false,
          "internalType": "address",
          "name": "player",
          "type": "address"
        },
        {
          "indexed": false,
          "internalType": "bool",
          "name": "isNFT",
          "type": "bool"
        },
        {
          "indexed": false,
          "internalType": "enum NFTFlipGame.PaymentToken",
          "name": "paymentToken",
          "type": "uint8"
        }
      ],
      "name": "AssetsDeposited",
      "type": "event"
    },
    {
      "anonymous": false,
      "inputs": [
        {
          "indexed": true,
          "internalType": "bytes32",
          "name": "gameId",
          "type": "bytes32"
        },
        {
          "indexed": false,
          "internalType": "address",
          "name": "player",
          "type": "address"
        }
      ],
      "name": "AssetsReclaimed",
      "type": "event"
    },
    {
      "anonymous": false,
      "inputs": [
        {
          "indexed": true,
          "internalType": "bytes32",
          "name": "gameId",
          "type": "bytes32"
        },
        {
          "indexed": false,
          "internalType": "string",
          "name": "reason",
          "type": "string"
        }
      ],
      "name": "GameCancelled",
      "type": "event"
    },
    {
      "anonymous": false,
      "inputs": [
        {
          "indexed": true,
          "internalType": "bytes32",
          "name": "gameId",
          "type": "bytes32"
        },
        {
          "indexed": false,
          "internalType": "address",
          "name": "winner",
          "type": "address"
        }
      ],
      "name": "GameCompleted",
      "type": "event"
    },
    {
      "anonymous": false,
      "inputs": [
        {
          "indexed": true,
          "internalType": "bytes32",
          "name": "gameId",
          "type": "bytes32"
        },
        {
          "indexed": false,
          "internalType": "address",
          "name": "player1",
          "type": "address"
        },
        {
          "indexed": false,
          "internalType": "address",
          "name": "player2",
          "type": "address"
        },
        {
          "indexed": false,
          "internalType": "enum NFTFlipGame.PaymentToken",
          "name": "paymentToken",
          "type": "uint8"
        }
      ],
      "name": "GameCreated",
      "type": "event"
    },
    {
      "anonymous": false,
      "inputs": [
        {
          "indexed": true,
          "internalType": "bytes32",
          "name": "gameId",
          "type": "bytes32"
        }
      ],
      "name": "GameStarted",
      "type": "event"
    },
    {
      "anonymous": false,
      "inputs": [
        {
          "indexed": true,
          "internalType": "address",
          "name": "creator",
          "type": "address"
        },
        {
          "indexed": false,
          "internalType": "uint256",
          "name": "amount",
          "type": "uint256"
        }
      ],
      "name": "ListingFeePaid",
      "type": "event"
    },
    {
      "anonymous": false,
      "inputs": [
        {
          "indexed": true,
          "internalType": "address",
          "name": "previousOwner",
          "type": "address"
        },
        {
          "indexed": true,
          "internalType": "address",
          "name": "newOwner",
          "type": "address"
        }
      ],
      "name": "OwnershipTransferred",
      "type": "event"
    },
    {
      "anonymous": false,
      "inputs": [
        {
          "indexed": false,
          "internalType": "address",
          "name": "account",
          "type": "address"
        }
      ],
      "name": "Paused",
      "type": "event"
    },
    {
      "anonymous": false,
      "inputs": [
        {
          "indexed": false,
          "internalType": "address",
          "name": "account",
          "type": "address"
        }
      ],
      "name": "Unpaused",
      "type": "event"
    },
    {
      "inputs": [],
      "name": "BASIS_POINTS",
      "outputs": [
        {
          "internalType": "uint256",
          "name": "",
          "type": "uint256"
        }
      ],
      "stateMutability": "view",
      "type": "function"
    },
    {
      "inputs": [
        {
          "internalType": "address[]",
          "name": "nftContracts",
          "type": "address[]"
        },
        {
          "internalType": "uint256[]",
          "name": "tokenIds",
          "type": "uint256[]"
        },
        {
          "internalType": "address[]",
          "name": "recipients",
          "type": "address[]"
        }
      ],
      "name": "adminBatchWithdrawNFTs",
      "outputs": [],
      "stateMutability": "nonpayable",
      "type": "function"
    },
    {
      "inputs": [
        {
          "internalType": "bytes32",
          "name": "gameId",
          "type": "bytes32"
        }
      ],
      "name": "canDeposit",
      "outputs": [
        {
          "internalType": "bool",
          "name": "",
          "type": "bool"
        }
      ],
      "stateMutability": "view",
      "type": "function"
    },
    {
      "inputs": [
        {
          "internalType": "bytes32",
          "name": "gameId",
          "type": "bytes32"
        }
      ],
      "name": "canStartGame",
      "outputs": [
        {
          "internalType": "bool",
          "name": "",
          "type": "bool"
        }
      ],
      "stateMutability": "view",
      "type": "function"
    },
    {
      "inputs": [
        {
          "internalType": "bytes32",
          "name": "gameId",
          "type": "bytes32"
        }
      ],
      "name": "cancelGame",
      "outputs": [],
      "stateMutability": "nonpayable",
      "type": "function"
    },
    {
      "inputs": [
        {
          "internalType": "bytes32",
          "name": "gameId",
          "type": "bytes32"
        },
        {
          "internalType": "address",
          "name": "winner",
          "type": "address"
        }
      ],
      "name": "completeGame",
      "outputs": [],
      "stateMutability": "nonpayable",
      "type": "function"
    },
    {
      "inputs": [
        {
          "internalType": "bytes32",
          "name": "gameId",
          "type": "bytes32"
        }
      ],
      "name": "depositETH",
      "outputs": [],
      "stateMutability": "payable",
      "type": "function"
    },
    {
      "inputs": [
        {
          "internalType": "bytes32",
          "name": "gameId",
          "type": "bytes32"
        }
      ],
      "name": "depositNFT",
      "outputs": [],
      "stateMutability": "nonpayable",
      "type": "function"
    },
    {
      "inputs": [],
      "name": "depositTimeout",
      "outputs": [
        {
          "internalType": "uint256",
          "name": "",
          "type": "uint256"
        }
      ],
      "stateMutability": "view",
      "type": "function"
    },
    {
      "inputs": [
        {
          "internalType": "bytes32",
          "name": "gameId",
          "type": "bytes32"
        },
        {
          "internalType": "uint256",
          "name": "amount",
          "type": "uint256"
        }
      ],
      "name": "depositUSDC",
      "outputs": [],
      "stateMutability": "nonpayable",
      "type": "function"
    },
    {
      "inputs": [],
      "name": "emergencyPause",
      "outputs": [],
      "stateMutability": "nonpayable",
      "type": "function"
    },
    {
      "inputs": [],
      "name": "emergencyWithdrawETH",
      "outputs": [],
      "stateMutability": "nonpayable",
      "type": "function"
    },
    {
      "inputs": [
        {
          "internalType": "address",
          "name": "nftContract",
          "type": "address"
        },
        {
          "internalType": "uint256",
          "name": "tokenId",
          "type": "uint256"
        },
        {
          "internalType": "address",
          "name": "to",
          "type": "address"
        }
      ],
      "name": "emergencyWithdrawNFT",
      "outputs": [],
      "stateMutability": "nonpayable",
      "type": "function"
    },
    {
      "inputs": [],
      "name": "ethUsdFeed",
      "outputs": [
        {
          "internalType": "contract AggregatorV3Interface",
          "name": "",
          "type": "address"
        }
      ],
      "stateMutability": "view",
      "type": "function"
    },
    {
      "inputs": [
        {
          "internalType": "bytes32",
          "name": "",
          "type": "bytes32"
        }
      ],
      "name": "games",
      "outputs": [
        {
          "internalType": "address",
          "name": "player1",
          "type": "address"
        },
        {
          "internalType": "address",
          "name": "player2",
          "type": "address"
        },
        {
          "internalType": "address",
          "name": "nftContract",
          "type": "address"
        },
        {
          "internalType": "uint256",
          "name": "tokenId",
          "type": "uint256"
        },
        {
          "internalType": "uint256",
          "name": "ethAmount",
          "type": "uint256"
        },
        {
          "internalType": "uint256",
          "name": "usdcAmount",
          "type": "uint256"
        },
        {
          "internalType": "enum NFTFlipGame.PaymentToken",
          "name": "paymentToken",
          "type": "uint8"
        },
        {
          "internalType": "uint256",
          "name": "depositTime",
          "type": "uint256"
        },
        {
          "internalType": "bool",
          "name": "player1Deposited",
          "type": "bool"
        },
        {
          "internalType": "bool",
          "name": "player2Deposited",
          "type": "bool"
        },
        {
          "internalType": "bool",
          "name": "completed",
          "type": "bool"
        },
        {
          "internalType": "address",
          "name": "winner",
          "type": "address"
        }
      ],
      "stateMutability": "view",
      "type": "function"
    },
    {
      "inputs": [
        {
          "internalType": "uint256",
          "name": "usdAmount",
          "type": "uint256"
        }
      ],
      "name": "getETHAmount",
      "outputs": [
        {
          "internalType": "uint256",
          "name": "",
          "type": "uint256"
        }
      ],
      "stateMutability": "view",
      "type": "function"
    },
    {
      "inputs": [
        {
          "internalType": "bytes32",
          "name": "gameId",
          "type": "bytes32"
        }
      ],
      "name": "getGameDetails",
      "outputs": [
        {
          "internalType": "address",
          "name": "player1",
          "type": "address"
        },
        {
          "internalType": "address",
          "name": "player2",
          "type": "address"
        },
        {
          "internalType": "address",
          "name": "nftContract",
          "type": "address"
        },
        {
          "internalType": "uint256",
          "name": "tokenId",
          "type": "uint256"
        },
        {
          "internalType": "uint256",
          "name": "ethAmount",
          "type": "uint256"
        },
        {
          "internalType": "uint256",
          "name": "usdcAmount",
          "type": "uint256"
        },
        {
          "internalType": "enum NFTFlipGame.PaymentToken",
          "name": "paymentToken",
          "type": "uint8"
        },
        {
          "internalType": "uint256",
          "name": "depositTime",
          "type": "uint256"
        },
        {
          "internalType": "bool",
          "name": "player1Deposited",
          "type": "bool"
        },
        {
          "internalType": "bool",
          "name": "player2Deposited",
          "type": "bool"
        },
        {
          "internalType": "bool",
          "name": "completed",
          "type": "bool"
        },
        {
          "internalType": "address",
          "name": "winner",
          "type": "address"
        }
      ],
      "stateMutability": "view",
      "type": "function"
    },
    {
      "inputs": [
        {
          "internalType": "uint256",
          "name": "usdAmount",
          "type": "uint256"
        }
      ],
      "name": "getUSDCAmount",
      "outputs": [
        {
          "internalType": "uint256",
          "name": "",
          "type": "uint256"
        }
      ],
      "stateMutability": "pure",
      "type": "function"
    },
    {
      "inputs": [
        {
          "internalType": "address",
          "name": "user",
          "type": "address"
        }
      ],
      "name": "getUserGames",
      "outputs": [
        {
          "internalType": "bytes32[]",
          "name": "",
          "type": "bytes32[]"
        }
      ],
      "stateMutability": "view",
      "type": "function"
    },
    {
      "inputs": [
        {
          "internalType": "bytes32",
          "name": "gameId",
          "type": "bytes32"
        },
        {
          "internalType": "address",
          "name": "player1",
          "type": "address"
        },
        {
          "internalType": "address",
          "name": "nftContract",
          "type": "address"
        },
        {
          "internalType": "uint256",
          "name": "tokenId",
          "type": "uint256"
        }
      ],
      "name": "initializeGame",
      "outputs": [],
      "stateMutability": "nonpayable",
      "type": "function"
    },
    {
      "inputs": [],
      "name": "listingFeeUSD",
      "outputs": [
        {
          "internalType": "uint256",
          "name": "",
          "type": "uint256"
        }
      ],
      "stateMutability": "view",
      "type": "function"
    },
    {
      "inputs": [
        {
          "internalType": "address",
          "name": "",
          "type": "address"
        }
      ],
      "name": "listingFees",
      "outputs": [
        {
          "internalType": "uint256",
          "name": "",
          "type": "uint256"
        }
      ],
      "stateMutability": "view",
      "type": "function"
    },
    {
      "inputs": [],
      "name": "owner",
      "outputs": [
        {
          "internalType": "address",
          "name": "",
          "type": "address"
        }
      ],
      "stateMutability": "view",
      "type": "function"
    },
    {
      "inputs": [],
      "name": "paused",
      "outputs": [
        {
          "internalType": "bool",
          "name": "",
          "type": "bool"
        }
      ],
      "stateMutability": "view",
      "type": "function"
    },
    {
      "inputs": [
        {
          "internalType": "bytes32",
          "name": "gameId",
          "type": "bytes32"
        },
        {
          "internalType": "address",
          "name": "nftContract",
          "type": "address"
        },
        {
          "internalType": "uint256",
          "name": "tokenId",
          "type": "uint256"
        },
        {
          "internalType": "uint256",
          "name": "priceUSD",
          "type": "uint256"
        },
        {
          "internalType": "enum NFTFlipGame.PaymentToken",
          "name": "paymentToken",
          "type": "uint8"
        }
      ],
      "name": "payFeeAndCreateGame",
      "outputs": [],
      "stateMutability": "payable",
      "type": "function"
    },
    {
      "inputs": [],
      "name": "payListingFee",
      "outputs": [],
      "stateMutability": "payable",
      "type": "function"
    },
    {
      "inputs": [],
      "name": "platformFeePercent",
      "outputs": [
        {
          "internalType": "uint256",
          "name": "",
          "type": "uint256"
        }
      ],
      "stateMutability": "view",
      "type": "function"
    },
    {
      "inputs": [],
      "name": "platformFeeReceiver",
      "outputs": [
        {
          "internalType": "address",
          "name": "",
          "type": "address"
        }
      ],
      "stateMutability": "view",
      "type": "function"
    },
    {
      "inputs": [
        {
          "internalType": "bytes32",
          "name": "gameId",
          "type": "bytes32"
        }
      ],
      "name": "reclaimAssets",
      "outputs": [],
      "stateMutability": "nonpayable",
      "type": "function"
    },
    {
      "inputs": [],
      "name": "renounceOwnership",
      "outputs": [],
      "stateMutability": "nonpayable",
      "type": "function"
    },
    {
      "inputs": [
        {
          "internalType": "uint256",
          "name": "newTimeout",
          "type": "uint256"
        }
      ],
      "name": "setDepositTimeout",
      "outputs": [],
      "stateMutability": "nonpayable",
      "type": "function"
    },
    {
      "inputs": [
        {
          "internalType": "uint256",
          "name": "newFee",
          "type": "uint256"
        }
      ],
      "name": "setListingFee",
      "outputs": [],
      "stateMutability": "nonpayable",
      "type": "function"
    },
    {
      "inputs": [
        {
          "internalType": "uint256",
          "name": "newPercent",
          "type": "uint256"
        }
      ],
      "name": "setPlatformFee",
      "outputs": [],
      "stateMutability": "nonpayable",
      "type": "function"
    },
    {
      "inputs": [
        {
          "internalType": "bytes32",
          "name": "gameId",
          "type": "bytes32"
        },
        {
          "internalType": "address",
          "name": "player2",
          "type": "address"
        }
      ],
      "name": "setPlayer2",
      "outputs": [],
      "stateMutability": "nonpayable",
      "type": "function"
    },
    {
      "inputs": [
        {
          "internalType": "address",
          "name": "newOwner",
          "type": "address"
        }
      ],
      "name": "transferOwnership",
      "outputs": [],
      "stateMutability": "nonpayable",
      "type": "function"
    },
    {
      "inputs": [],
      "name": "unpause",
      "outputs": [],
      "stateMutability": "nonpayable",
      "type": "function"
    },
    {
      "inputs": [],
      "name": "usdcToken",
      "outputs": [
        {
          "internalType": "address",
          "name": "",
          "type": "address"
        }
      ],
      "stateMutability": "view",
      "type": "function"
    },
    {
      "inputs": [
        {
          "internalType": "address",
          "name": "",
          "type": "address"
        },
        {
          "internalType": "uint256",
          "name": "",
          "type": "uint256"
        }
      ],
      "name": "userGames",
      "outputs": [
        {
          "internalType": "bytes32",
          "name": "",
          "type": "bytes32"
        }
      ],
      "stateMutability": "view",
      "type": "function"
    }
  ],
  "bytecode": "0x6080346200011057601f62002e7b38819003918201601f19168301916001600160401b03831184841017620001155780849260609460405283398101031262000110576200004d816200012b565b62000069604062000061602085016200012b565b93016200012b565b916001600055600154926040519360018060a01b03928391338382167f8be0079c531659141344cd1fd0a4f28419497f9722a3daafe3b4186f6b6457e0600080a36001600160a81b0319163360ff60a01b191617600155600060055561015e60065561012c600755600980546001600160a01b0319908116968416969096179055600a8054861691909216179055600880549093169116179055612d3a9081620001418239f35b600080fd5b634e487b7160e01b600052604160045260246000fd5b51906001600160a01b0382168203620001105756fe60a080604052600436101561001357600080fd5b60009060e08235811c91826311eac855146124f757508163120aace61461244957816312e8e2c3146123ee578163131dbd09146123cb5781631fd462cd146123ad57816327627373146123295781632d656ad7146123005781633a38d063146122e25781633f4ba83a146122455781633f7121b01461212d578163400a992d1461201857816351858e2714611fb55781635717722414611e2f5781635c975abb14611e09578163615318c714611deb5781636dbf27631461197c578163715018a61461191e5781637c34c355146116245781637f80e6f21461152e5781638009b7bd1461150557816384536017146114915781638a1fa029146113295781638c639a851461130b5781638da5cb5b146112e2578163b1a812951461124a578163b262f41f14611190578163bc0167cd1461113a578163c775126914610ed8578163cb9a263014610b7c578163d68d9d4e14610a03578163d94a8854146107cf578163e1f1c4a7146107b2578163e9df302714610486578163ef46b2ab1461045f578163f060ad4c14610426578163f2fde38b14610360578163f372e33c14610253575063f579f882146101c557600080fd5b3461025057602036600319011261025057604090600435815260026020522060018060a01b0361024c8183541692826001820154168360028301541691600381015495600482015491600581015460ff6006830154169060086007840154930154946040519a8b9a8760181c169860ff8860101c169860ff808a60081c169916978d612586565b0390f35b80fd5b90503461035c57602036600319011261035c5760406020926004358152600284522090604051916102838361274a565b600860018060a01b039182815416855282600182015416868601528260028201541660408601526003810154606086015260048101546080860152600581015460a08601526102dc60ff60068301541660c08701612933565b6007810154809486015201549260ff8416151561010082015260ff8460081c1615156101208201528160ff8560101c161594851561014084015260181c16610160820152511615159182610354575b508161033d575b506040519015158152f35b61034b9150600754906126fd565b42111538610332565b91503861032b565b5080fd5b82346102505760203660031901126102505761037a61251c565b610382612659565b6001600160a01b039081169081156103d257600154826001600160601b0360a01b821617600155167f8be0079c531659141344cd1fd0a4f28419497f9722a3daafe3b4186f6b6457e0600080a380f35b60405162461bcd60e51b815260206004820152602660248201527f4f776e61626c653a206e6577206f776e657220697320746865207a65726f206160448201526564647265737360d01b6064820152608490fd5b8234610250576020366003190112610250576020906040906001600160a01b0361044e61251c565b168152600383522054604051908152f35b823461025057602036600319011261025057602061047e600435612bd1565b604051908152f35b8234610250576040366003190112610250576004356104a3612537565b6104ab612659565b6104b361289b565b818352600260209081526040842080546001600160a01b0393908416916104db831515612991565b6008810180546104f160ff8260101c1615612b37565b60ff8116806107a5575b1561076957868416948514801561075a575b156107245762010000600160b81b031916601884901b6301000000600160b81b031617620100001790558685600283015416600383015490803b15610720576040516323b872dd60e01b81523060048201526001600160a01b0386166024820152604481019290925282908290606490829084905af18015610715576106fd575b505060ff60068201541660028110156106e957879291906106345782939495508291600483920154905af16105c1612789565b50156105f957907f0bf6aee0a93e0c0696509fac1649343cafc5bf013811646e438330fe86e4c15f915b604051908152a26001815580f35b60405162461bcd60e51b8152600481018390526013602482015272115512081d1c985b9cd9995c8819985a5b1959606a1b6044820152606490fd5b600a546005919091015460405163a9059cbb60e01b81526001600160a01b0393909316600484015260248301529094849250859160449183918a91165af19283156106de577f0bf6aee0a93e0c0696509fac1649343cafc5bf013811646e438330fe86e4c15f936106ac9187916106b1575b50612af4565b6105eb565b6106d19150843d86116106d7575b6106c98183612767565b810190612adc565b876106a6565b503d6106bf565b6040513d87823e3d90fd5b634e487b7160e01b88526021600452602488fd5b61070690612720565b61071157868861058e565b8680fd5b6040513d84823e3d90fd5b8280fd5b60405162461bcd60e51b815260048101879052600e60248201526d24b73b30b634b2103bb4b73732b960911b6044820152606490fd5b5086600184015416851461050d565b60405162461bcd60e51b8152600481018790526014602482015273105cdcd95d1cc81b9bdd0819195c1bdcda5d195960621b6044820152606490fd5b5060ff8160081c166104fb565b823461025057806003193601126102505760206040516127108152f35b90503461035c57608036600319011261035c576107ea612537565b6107f261254d565b916107fb612659565b60043584526002602052604084205461081d906001600160a01b0316156128f1565b6040519161082a8361274a565b6001600160a01b039081168084526020808501878152958316604080870191825260643560608801908152608088018a815260a089018b815260c08a018c8152428a8c01526101008b018d90526101208b018d90526101408b018d90526101608b018d9052600480358e52600297889052948d208b5181546001600160a01b0319908116918c169190911782559c516001820180548f16918c1691909117905595518688018054909d16991698909817909a55905160038401555190820155955160058701559151909492918110156109ef579160089161091261099a95946006840161293f565b830151600782015501906109396101008201511515839060ff801983541691151516179055565b610120810151825461ff00191690151560081b61ff0016178255610140810151825462ff0000191690151560101b62ff000016178255610160015181546301000000600160b81b03191660189190911b6301000000600160b81b0316179055565b80825260046020526109b160043560408420612957565b604051908152816020820152600060408201527f212c0bdcf42696e85cddf68fc1623b3327138b7898282f7356ab7ec713e9cf32606060043592a280f35b634e487b7160e01b86526021600452602486fd5b82602036600319011261025057600435610a1b61289b565b610a23612854565b8082526002602052604082206001810154610a53906001600160a01b0316610a4c811515612991565b3314612a8e565b60088101908154610a6a60ff8260081c1615612a10565b610a7a60ff8260101c16156129d3565b610a96610a8e6007840154600754906126fd565b421115612a50565b3415610b4257600660ff92346004820155018219815416905561010061ff0019821617809355837f981102f46f858a9ad42e0e3924c2ee3ddb912d9d6d28768155ffdb174c81711f606060405133815288602082015260006040820152a2169081610b34575b50610b0a575b506001815580f35b7fee5528ba4f234f658c6a97a7e3cba5532e7aad23bb249be4141b62e6a0158a7c8280a281610b02565b60ff915060081c1683610afc565b60405162461bcd60e51b815260206004820152601260248201527109aeae6e840e6cadcc840e6dedaca408aa8960731b6044820152606490fd5b82346102505760603660031901126102505767ffffffffffffffff60043581811161072057610baf903690600401612628565b602492918335838111610ed457610bca903690600401612628565b6044929192948535908111610ed057610be7903690600401612628565b9092610bf1612659565b82861480610ec7575b15610e8457885b868110610c0c578980f35b6001600160a01b0380610c28610c23848b87612ce0565b612cf0565b1615610e4a5780610c3d610c2384878a612ce0565b1615610e135780610c52610c23848b87612ce0565b166020610c6084888b612ce0565b358c604051809481936331a9108f60e11b83526004830152846080525afa8c9181610dd2575b50610ccf5760405162461bcd60e51b81526080516004820152601d818d01527f4661696c656420746f20636865636b204e4654206f776e657273686970000000818c0152606490fd5b8130911603610d8e578a90610ce8610c23848b87612ce0565b16610cf7610c2384878a612ce0565b610d0284888b612ce0565b35823b15610d8a576040516323b872dd60e01b81523060048201526001600160a01b0392909216602483015260448201529082908290606490829084905af1801561071557610d72575b50506000198114610d5f57600101610c01565b634e487b7160e01b8a526011600452888afd5b610d7b90612720565b610d8657898b610d4c565b8980fd5b8380fd5b60405162461bcd60e51b81526080516004820152601e818c01527f436f6e747261637420646f6573206e6f74206f776e2074686973204e46540000818b0152606490fd5b9091506080513d8111610e0c575b610dea8183612767565b816080519181010312610e0857518281168103610e0857908d610c86565b8c80fd5b503d610de0565b60405162461bcd60e51b8152602060048201526011818c015270125b9d985b1a59081c9958da5c1a595b9d607a1b818b0152606490fd5b60405162461bcd60e51b8152602060048201526014818c015273125b9d985b1a59081391950818dbdb9d1c9858dd60621b818b0152606490fd5b60405162461bcd60e51b8152602060048201526018818a01527f4172726179206c656e67746873206d757374206d61746368000000000000000081890152606490fd5b50818314610bfa565b8780fd5b8580fd5b905060a036600319011261035c57610eee612537565b6002608435101561072057610f0161289b565b610f09612854565b610f14600554612bd1565b91610f21833410156126b1565b338452600360205260408420610f388482546126fd565b905582611112575b600435845260026020526040842054610f62906001600160a01b0316156128f1565b60405191610f6f8361274a565b33835284602084015260018060a01b0316604083015260443560608301528360808301528360a08301528360c083015242818301528361010083015283610120830152836101408301528361016083015260043584526002602052604084209060018060a01b038351166001600160601b0360a01b90818454161783556001830160018060a01b0360208601511682825416179055600283019060018060a01b0360408601511690825416179055606083015160038301556080830151600483015560a0830151600583015560c083015160028110156109ef579160089161091261105e95946006840161293f565b338252600460205261107560043560408420612957565b8034116110eb575b6040519081527f3a5f70a82eb571b0a884a01d171c139c6ec5169ba9e11e00d211cb4f76391e1460203392a2604051338152816020820152600060408201527f212c0bdcf42696e85cddf68fc1623b3327138b7898282f7356ab7ec713e9cf32606060043592a26001815580f35b61110d828080806110fc863461280b565b335af1611107612789565b50612818565b61107d565b611135848080808760018060a01b03600854165af161112f612789565b506127c9565b610f40565b82346102505760403660031901126102505761115461251c565b6001600160a01b031681526004602052604081208054602435929083101561025057602061118284846125fa565b90546040519160031b1c8152f35b8280600319360112610250576111a461289b565b6111ac612854565b6111b7600554612bd1565b6111c3813410156126b1565b3382526003602052604082206111da8282546126fd565b90556111f9828080808560018060a01b03600854165af161112f612789565b803411611234575b6040519081527f3a5f70a82eb571b0a884a01d171c139c6ec5169ba9e11e00d211cb4f76391e1460203392a26001815580f35b611245828080806110fc863461280b565b611201565b8234610250576060366003190112610250578061126561251c565b61126d61254d565b90611276612659565b6001600160a01b0316803b156112de576040516323b872dd60e01b81523060048201526001600160a01b039290921660248084019190915235604483015282908290606490829084905af18015610715576112ce5750f35b6112d790612720565b6102505780f35b5050fd5b82346102505780600319360112610250576001546040516001600160a01b039091168152602090f35b82346102505780600319360112610250576020600654604051908152f35b90503461035c57602036600319011261035c576004358252600260205260408220604051906113578261274a565b60018060a01b03815416825260018060a01b03600182015416916020810192835260018060a01b0360028301541693604082019485526003830154926060830193845260048101549160808401928352600860058301549260a086019384526113ca60ff60068301541660c08801612933565b6007810154928601928352015460ff8082161515610100870152600882901c81161515610120870152601082901c16151561014086015260181c6001600160a01b0390811661016086015284519651975195519351925160c0860151988216989782169796909116959091600282101561147d5761024c97989950519161010086015115159361012087015115159561014088015115159761016060018060a01b0391015116986040519c8d9c8d612586565b634e487b7160e01b8a52602160045260248afd5b82346102505780600319360112610250576114aa612659565b8080808060018060a01b036001541647905af16114c5612789565b50156114ce5780f35b60405162461bcd60e51b815260206004820152600f60248201526e151c985b9cd9995c8819985a5b1959608a1b6044820152606490fd5b82346102505780600319360112610250576009546040516001600160a01b039091168152602090f35b90503461035c57602036600319011261035c57604060209260043581526002845220906008604051926115608461274a565b60018060a01b039283825416855283600183015416868601528360028301541660408601526003820154606086015260048201546080860152600582015460a08601526115b760ff60068401541660c08701612933565b60078201549085015201549060ff82161515928361010082015261016060ff8460081c161515928361012084015260ff8560101c161594851561014085015260181c169101528261161c575b508161161457506040519015158152f35b905038610332565b915038611603565b82346102505760403660031901126102505760043561164161289b565b611649612854565b808252600260209081526040832060018101546001600160a01b039290611677908416610a4c811515612991565b600882019182549360ff94611691868260081c1615612a10565b6116a0868260101c16156129d3565b6116b4610a8e6007850154600754906126fd565b600683019286845416600281101561147d576001036118e7576005019182546127106116e260065483612ac9565b049281602435106118ae5761ff001916610100178755600a546040516323b872dd60e01b815233600482015230602482015260448101929092528a9291908790829084168186816064810103925af19182156118a35761174e8893869361178a96916118865750612af4565b80600a541690600854168c60405180968195829463a9059cbb60e01b84526004840160209093929193604081019460018060a01b031681520152565b03925af190811561187b57899161185e575b501561181957926117f1867f981102f46f858a9ad42e0e3924c2ee3ddb912d9d6d28768155ffdb174c81711f94846117d88b986060975461280b565b9055541689604051933385528401526040830190612563565ba25490808216918261180c575b5050610b0a57506001815580f35b60081c16905083806117fe565b60405162461bcd60e51b815260048101859052601860248201527f5553444320666565207472616e73666572206661696c656400000000000000006044820152606490fd5b6118759150853d87116106d7576106c98183612767565b8961179c565b6040513d8b823e3d90fd5b61189d9150853d87116106d7576106c98183612767565b8e6106a6565b6040513d85823e3d90fd5b60405162461bcd60e51b8152600481018890526011602482015270496e73756666696369656e74205553444360781b6044820152606490fd5b60405162461bcd60e51b815260048101869052600f60248201526e4e6f74206120555344432067616d6560881b6044820152606490fd5b8234610250578060031936011261025057611937612659565b600180546001600160a01b031981169091556000906001600160a01b03167f8be0079c531659141344cd1fd0a4f28419497f9722a3daafe3b4186f6b6457e08280a380f35b82346102505760208060031936011261035c576004359061199b61289b565b818352600281526040832080549091906001600160a01b039081166119c1811515612991565b6008840190815460ff916119da838360101c16156129d3565b6119eb6007880154600754906126fd565b421115611db05733148015611da1575b15611d6d57879291908181168080611d60575b15611ad8575050508285541690611a26823314612b7c565b6201000062ff00001982541617905582600286015416906003860154823b15610d8a576040516323b872dd60e01b81523060048201526001600160a01b0392909216602483015260448201529082908290606490829084905af1801561071557611ac0575b50507fbeb9db71629193a6a8d82214e24ce084d5f6b1c980d4cda5cec9139a2ea33832925416604051908152a25b6001815580f35b611ac990612720565b611ad4578486611a8b565b8480fd5b9091949596935015808091611d54575b15611cca57505060018201928484541691611b04833314612b7c565b805462ff000019166201000017905560068301541660028110156106e9578792918691611bd057505081808092611b53600488885416920154612710611b4c60065483612ac9565b04906126fd565b905af1611b5e612789565b5015611b9757907fbeb9db71629193a6a8d82214e24ce084d5f6b1c980d4cda5cec9139a2ea3383292915b5416604051908152a2611ab9565b60405162461bcd60e51b8152600481018490526011602482015270115512081c99599d5b990819985a5b1959607a1b6044820152606490fd5b9091611c279350611bf3600587600a5416920154612710611b4c60065483612ac9565b60405163a9059cbb60e01b81526001600160a01b0390931660048401526024830152909283919082908a9082906044820190565b03925af1908115611cbf578691611ca2575b5015611c6857907fbeb9db71629193a6a8d82214e24ce084d5f6b1c980d4cda5cec9139a2ea338329291611b89565b60405162461bcd60e51b81526004810184905260126024820152711554d110c81c99599d5b990819985a5b195960721b6044820152606490fd5b611cb99150843d86116106d7576106c98183612767565b86611c39565b6040513d88823e3d90fd5b92509350939181611d46575b50611ce5575b50505050611ab9565b7fd48b0c9992d8d4b8967d1584dc8c1955390d9ff30639a7da9c77e7f0db86c3d8926201000060609362ff000019161790556010604051918083528201526f4e6f206465706f73697473206d61646560801b6040820152a281808080611cdc565b90508260081c161586611cd6565b50848260081c16611ae8565b50828260081c1615611a0e565b60405162461bcd60e51b815260048101869052600c60248201526b2737ba103090383630bcb2b960a11b6044820152606490fd5b508360018701541633146119fb565b60405162461bcd60e51b8152600481018790526013602482015272151a5b595bdd5d081b9bdd081c995858da1959606a1b6044820152606490fd5b82346102505780600319360112610250576020600754604051908152f35b8234610250578060031936011261025057602060ff60015460a01c166040519015158152f35b823461025057602036600319011261025057600435611e4c61289b565b611e54612854565b80825260026020526040822080546001600160a01b0391908216611e79811515612991565b3303611f8157836008820192611ea260ff8554611e9882821615612a10565b60101c16156129d3565b611eb6610a8e6007850154600754906126fd565b6002830154166003830154813b15610720576040516323b872dd60e01b8152336004820152306024820152604481019190915291908290606490829084905af180156106de57611f6d575b5083600191847f981102f46f858a9ad42e0e3924c2ee3ddb912d9d6d28768155ffdb174c81711f606060ff6006885495888319881617809a55015416611f57604051913383528860208401526040830190612563565ba216179081610b345750610b0a57506001815580f35b93611f7a60019295612720565b9390611f01565b60405162461bcd60e51b815260206004820152600c60248201526b4e6f7420706c61796572203160a01b6044820152606490fd5b8234610250578060031936011261025057611fce612659565b611fd6612854565b6001805460ff60a01b1916600160a01b1790556040513381527f62e78cea01bee320cd4e420270b5ea74000d11b0c9f74754ebdbfc544b05a25890602090a180f35b823461025057604036600319011261025057600435612035612537565b61203d612659565b81835260026020526040832080546001600160a01b039291906120639084161515612991565b60018101928354918183166120f1577f212c0bdcf42696e85cddf68fc1623b3327138b7898282f7356ab7ec713e9cf3294826060956120ac60ff600886015460101c16156129d3565b1680946001600160601b0360a01b1617905542600782015582875260046020526120d98660408920612957565b5416906040519182526020820152846040820152a280f35b60405162461bcd60e51b8152602060048201526014602482015273141b185e595c880c88185b1c9958591e481cd95d60621b6044820152606490fd5b82346102505760203660031901126102505760043561214a612659565b808252600260205260408220805460089190612170906001600160a01b03161515612991565b01805461218360ff8260101c1615612b37565b60ff81161580612237575b156121f257620100009062ff000019161790557fd48b0c9992d8d4b8967d1584dc8c1955390d9ff30639a7da9c77e7f0db86c3d8606060405160208152601360208201527243616e63656c6c65642062792073797374656d60681b6040820152a280f35b60405162461bcd60e51b815260206004820152601c60248201527f43616e6e6f742063616e63656c206166746572206465706f73697473000000006044820152606490fd5b5060ff8160081c161561218e565b823461025057806003193601126102505761225e612659565b60015460ff8160a01c16156122a65760ff60a01b19166001556040513381527f5db9ee0a495bf2e6ff9c91a7834c1ba4fdd244a5e8aa4e537bd38aeae4b073aa90602090a180f35b60405162461bcd60e51b815260206004820152601460248201527314185d5cd8589b194e881b9bdd081c185d5cd95960621b6044820152606490fd5b82346102505780600319360112610250576020600554604051908152f35b82346102505780600319360112610250576008546040516001600160a01b039091168152602090f35b823461025057602036600319011261025057600435612346612659565b603c811015806123a1575b1561235c5760075580f35b60405162461bcd60e51b815260206004820152601c60248201527f54696d656f7574206d75737420626520312d3130206d696e75746573000000006044820152606490fd5b50610258811115612351565b82346102505760203660031901126102505760206040516004358152f35b8234610250576020366003190112610250576123e5612659565b60043560055580f35b82346102505760203660031901126102505760043561240b612659565b6103e8811161241a5760065580f35b60405162461bcd60e51b81526020600482015260076024820152664d61782031302560c81b6044820152606490fd5b82346102505760208060031936011261035c576001600160a01b0361246c61251c565b168252600481526040822060405192838383549182815201908193835284832090835b8181106124e357505050846124a5910385612767565b60405193838594850191818652518092526040850193925b8281106124cc57505050500390f35b8351855286955093810193928101926001016124bd565b82548452928601926001928301920161248f565b83903461035c578160031936011261035c57600a546001600160a01b03168152602090f35b600435906001600160a01b038216820361253257565b600080fd5b602435906001600160a01b038216820361253257565b604435906001600160a01b038216820361253257565b9060028210156125705752565b634e487b7160e01b600052602160045260246000fd5b9a979491999693909c9b9895929c6101808c019d8c600160a01b60019003809d8180951683521690602001521660408c015260608b015260808a015260a089015260c088016125d491612563565b60e087015215156101008601521515610120850152151561014084015216906101600152565b80548210156126125760005260206000200190600090565b634e487b7160e01b600052603260045260246000fd5b9181601f840112156125325782359167ffffffffffffffff8311612532576020808501948460051b01011161253257565b6001546001600160a01b0316330361266d57565b606460405162461bcd60e51b815260206004820152602060248201527f4f776e61626c653a2063616c6c6572206973206e6f7420746865206f776e65726044820152fd5b156126b857565b60405162461bcd60e51b815260206004820152601860248201527f496e73756666696369656e74206c697374696e672066656500000000000000006044820152606490fd5b9190820180921161270a57565b634e487b7160e01b600052601160045260246000fd5b67ffffffffffffffff811161273457604052565b634e487b7160e01b600052604160045260246000fd5b610180810190811067ffffffffffffffff82111761273457604052565b90601f8019910116810190811067ffffffffffffffff82111761273457604052565b3d156127c4573d9067ffffffffffffffff821161273457604051916127b8601f8201601f191660200184612767565b82523d6000602084013e565b606090565b156127d057565b60405162461bcd60e51b8152602060048201526013602482015272119959481d1c985b9cd9995c8819985a5b1959606a1b6044820152606490fd5b9190820391821161270a57565b1561281f57565b60405162461bcd60e51b815260206004820152600d60248201526c1499599d5b990819985a5b1959609a1b6044820152606490fd5b60ff60015460a01c1661286357565b60405162461bcd60e51b815260206004820152601060248201526f14185d5cd8589b194e881c185d5cd95960821b6044820152606490fd5b6002600054146128ac576002600055565b60405162461bcd60e51b815260206004820152601f60248201527f5265656e7472616e637947756172643a207265656e7472616e742063616c6c006044820152606490fd5b156128f857565b60405162461bcd60e51b815260206004820152601360248201527247616d6520616c72656164792065786973747360681b6044820152606490fd5b60028210156125705752565b9060028110156125705760ff80198354169116179055565b80546801000000000000000081101561273457612979916001820181556125fa565b819291549060031b91821b91600019901b1916179055565b1561299857565b60405162461bcd60e51b815260206004820152601360248201527211d85b5948191bd95cc81b9bdd08195e1a5cdd606a1b6044820152606490fd5b156129da57565b60405162461bcd60e51b815260206004820152600e60248201526d11d85b594818dbdb5c1b195d195960921b6044820152606490fd5b15612a1757565b60405162461bcd60e51b8152602060048201526011602482015270105b1c9958591e4819195c1bdcda5d1959607a1b6044820152606490fd5b15612a5757565b60405162461bcd60e51b815260206004820152600f60248201526e11195c1bdcda5d081d1a5b595bdd5d608a1b6044820152606490fd5b15612a9557565b60405162461bcd60e51b815260206004820152600c60248201526b2737ba10383630bcb2b9101960a11b6044820152606490fd5b8181029291811591840414171561270a57565b90816020910312612532575180151581036125325790565b15612afb57565b60405162461bcd60e51b81526020600482015260146024820152731554d110c81d1c985b9cd9995c8819985a5b195960621b6044820152606490fd5b15612b3e57565b60405162461bcd60e51b815260206004820152601660248201527511d85b5948185b1c9958591e4818dbdb5c1b195d195960521b6044820152606490fd5b15612b8357565b60405162461bcd60e51b815260206004820152600f60248201526e4e6f7420796f75722061737365747360881b6044820152606490fd5b519069ffffffffffffffffffff8216820361253257565b600954604051633fabe5a360e21b8152919060a090839060049082906001600160a01b03165afa918215612cd457600092612c86575b506000821315612c4c5768056bc75e2d631000009081810291818304149015171561270a578115612c36570490565b634e487b7160e01b600052601260045260246000fd5b60405162461bcd60e51b8152602060048201526012602482015271125b9d985b1a59081c1c9a58d9481999595960721b6044820152606490fd5b909160a0823d8211612ccc575b81612ca060a09383612767565b810103126102505750612cb281612bba565b50612cc4608060208301519201612bba565b509038612c07565b3d9150612c93565b6040513d6000823e3d90fd5b91908110156126125760051b0190565b356001600160a01b0381168103612532579056fea2646970667358221220742941f7b4dd94f84ef24a222387050a504d2d4e796e0e18691ebf5814a8dca964736f6c63430008140033",
  "linkReferences": {},
  "deployedLinkReferences": {}
}