{
  "_format": "hh-sol-artifact-1",
  "contractName": "NFTFlipGame",
  "sourceName": "contracts/NFTFlipGame.sol",
  "abi": [
    {
      "inputs": [
        {
          "internalType": "address",
          "name": "_ethUsdFeed",
          "type": "address"
        },
        {
          "internalType": "address",
          "name": "_usdcUsdFeed",
          "type": "address"
        },
        {
          "internalType": "address",
          "name": "_usdcToken",
          "type": "address"
        },
        {
          "internalType": "address",
          "name": "_platformFeeReceiver",
          "type": "address"
        }
      ],
      "stateMutability": "nonpayable",
      "type": "constructor"
    },
    {
      "anonymous": false,
      "inputs": [
        {
          "indexed": true,
          "internalType": "uint256",
          "name": "gameId",
          "type": "uint256"
        }
      ],
      "name": "GameCancelled",
      "type": "event"
    },
    {
      "anonymous": false,
      "inputs": [
        {
          "indexed": true,
          "internalType": "uint256",
          "name": "gameId",
          "type": "uint256"
        },
        {
          "indexed": true,
          "internalType": "address",
          "name": "winner",
          "type": "address"
        }
      ],
      "name": "GameCompleted",
      "type": "event"
    },
    {
      "anonymous": false,
      "inputs": [
        {
          "indexed": true,
          "internalType": "uint256",
          "name": "gameId",
          "type": "uint256"
        },
        {
          "indexed": true,
          "internalType": "address",
          "name": "creator",
          "type": "address"
        },
        {
          "indexed": false,
          "internalType": "enum NFTFlipGame.GameType",
          "name": "gameType",
          "type": "uint8"
        }
      ],
      "name": "GameCreated",
      "type": "event"
    },
    {
      "anonymous": false,
      "inputs": [
        {
          "indexed": true,
          "internalType": "uint256",
          "name": "gameId",
          "type": "uint256"
        },
        {
          "indexed": true,
          "internalType": "address",
          "name": "joiner",
          "type": "address"
        }
      ],
      "name": "GameJoined",
      "type": "event"
    },
    {
      "anonymous": false,
      "inputs": [
        {
          "indexed": false,
          "internalType": "uint256",
          "name": "newFee",
          "type": "uint256"
        }
      ],
      "name": "ListingFeeUpdated",
      "type": "event"
    },
    {
      "anonymous": false,
      "inputs": [
        {
          "indexed": true,
          "internalType": "address",
          "name": "player",
          "type": "address"
        },
        {
          "indexed": true,
          "internalType": "address",
          "name": "nftContract",
          "type": "address"
        },
        {
          "indexed": false,
          "internalType": "uint256",
          "name": "tokenId",
          "type": "uint256"
        }
      ],
      "name": "NFTWithdrawn",
      "type": "event"
    },
    {
      "anonymous": false,
      "inputs": [
        {
          "indexed": true,
          "internalType": "address",
          "name": "previousOwner",
          "type": "address"
        },
        {
          "indexed": true,
          "internalType": "address",
          "name": "newOwner",
          "type": "address"
        }
      ],
      "name": "OwnershipTransferred",
      "type": "event"
    },
    {
      "anonymous": false,
      "inputs": [
        {
          "indexed": false,
          "internalType": "address",
          "name": "account",
          "type": "address"
        }
      ],
      "name": "Paused",
      "type": "event"
    },
    {
      "anonymous": false,
      "inputs": [
        {
          "indexed": false,
          "internalType": "uint256",
          "name": "newPercent",
          "type": "uint256"
        }
      ],
      "name": "PlatformFeeUpdated",
      "type": "event"
    },
    {
      "anonymous": false,
      "inputs": [
        {
          "indexed": true,
          "internalType": "address",
          "name": "player",
          "type": "address"
        },
        {
          "indexed": false,
          "internalType": "uint256",
          "name": "ethAmount",
          "type": "uint256"
        },
        {
          "indexed": false,
          "internalType": "uint256",
          "name": "usdcAmount",
          "type": "uint256"
        }
      ],
      "name": "RewardsWithdrawn",
      "type": "event"
    },
    {
      "anonymous": false,
      "inputs": [
        {
          "indexed": false,
          "internalType": "address",
          "name": "account",
          "type": "address"
        }
      ],
      "name": "Unpaused",
      "type": "event"
    },
    {
      "inputs": [],
      "name": "BASIS_POINTS",
      "outputs": [
        {
          "internalType": "uint256",
          "name": "",
          "type": "uint256"
        }
      ],
      "stateMutability": "view",
      "type": "function"
    },
    {
      "inputs": [],
      "name": "MAX_FEE_PERCENT",
      "outputs": [
        {
          "internalType": "uint256",
          "name": "",
          "type": "uint256"
        }
      ],
      "stateMutability": "view",
      "type": "function"
    },
    {
      "inputs": [
        {
          "internalType": "uint256[]",
          "name": "gameIds",
          "type": "uint256[]"
        }
      ],
      "name": "adminBatchWithdrawExpired",
      "outputs": [],
      "stateMutability": "nonpayable",
      "type": "function"
    },
    {
      "inputs": [
        {
          "internalType": "address[]",
          "name": "nftContracts",
          "type": "address[]"
        },
        {
          "internalType": "uint256[]",
          "name": "tokenIds",
          "type": "uint256[]"
        },
        {
          "internalType": "address[]",
          "name": "recipients",
          "type": "address[]"
        }
      ],
      "name": "adminBatchWithdrawNFTs",
      "outputs": [],
      "stateMutability": "nonpayable",
      "type": "function"
    },
    {
      "inputs": [
        {
          "internalType": "uint256",
          "name": "gameId",
          "type": "uint256"
        }
      ],
      "name": "cancelGame",
      "outputs": [],
      "stateMutability": "nonpayable",
      "type": "function"
    },
    {
      "inputs": [
        {
          "internalType": "uint256",
          "name": "gameId",
          "type": "uint256"
        },
        {
          "internalType": "address",
          "name": "winner",
          "type": "address"
        }
      ],
      "name": "completeGame",
      "outputs": [],
      "stateMutability": "nonpayable",
      "type": "function"
    },
    {
      "inputs": [
        {
          "internalType": "address",
          "name": "nftContract",
          "type": "address"
        },
        {
          "internalType": "uint256",
          "name": "tokenId",
          "type": "uint256"
        },
        {
          "internalType": "uint256",
          "name": "priceUSD",
          "type": "uint256"
        },
        {
          "internalType": "enum NFTFlipGame.PaymentToken",
          "name": "acceptedToken",
          "type": "uint8"
        },
        {
          "internalType": "enum NFTFlipGame.GameType",
          "name": "gameType",
          "type": "uint8"
        },
        {
          "internalType": "string",
          "name": "authInfo",
          "type": "string"
        }
      ],
      "name": "createGame",
      "outputs": [],
      "stateMutability": "payable",
      "type": "function"
    },
    {
      "inputs": [
        {
          "internalType": "address",
          "name": "to",
          "type": "address"
        },
        {
          "internalType": "uint256",
          "name": "amount",
          "type": "uint256"
        }
      ],
      "name": "emergencyWithdrawETH",
      "outputs": [],
      "stateMutability": "nonpayable",
      "type": "function"
    },
    {
      "inputs": [
        {
          "internalType": "address",
          "name": "nftContract",
          "type": "address"
        },
        {
          "internalType": "uint256",
          "name": "tokenId",
          "type": "uint256"
        },
        {
          "internalType": "address",
          "name": "to",
          "type": "address"
        }
      ],
      "name": "emergencyWithdrawNFT",
      "outputs": [],
      "stateMutability": "nonpayable",
      "type": "function"
    },
    {
      "inputs": [
        {
          "internalType": "address",
          "name": "token",
          "type": "address"
        },
        {
          "internalType": "address",
          "name": "to",
          "type": "address"
        },
        {
          "internalType": "uint256",
          "name": "amount",
          "type": "uint256"
        }
      ],
      "name": "emergencyWithdrawToken",
      "outputs": [],
      "stateMutability": "nonpayable",
      "type": "function"
    },
    {
      "inputs": [],
      "name": "ethUsdFeed",
      "outputs": [
        {
          "internalType": "contract AggregatorV3Interface",
          "name": "",
          "type": "address"
        }
      ],
      "stateMutability": "view",
      "type": "function"
    },
    {
      "inputs": [
        {
          "internalType": "uint256",
          "name": "",
          "type": "uint256"
        }
      ],
      "name": "games",
      "outputs": [
        {
          "internalType": "uint256",
          "name": "gameId",
          "type": "uint256"
        },
        {
          "internalType": "address",
          "name": "creator",
          "type": "address"
        },
        {
          "internalType": "address",
          "name": "joiner",
          "type": "address"
        },
        {
          "internalType": "address",
          "name": "nftContract",
          "type": "address"
        },
        {
          "internalType": "uint256",
          "name": "tokenId",
          "type": "uint256"
        },
        {
          "internalType": "enum NFTFlipGame.GameState",
          "name": "state",
          "type": "uint8"
        },
        {
          "internalType": "enum NFTFlipGame.GameType",
          "name": "gameType",
          "type": "uint8"
        },
        {
          "internalType": "uint256",
          "name": "priceUSD",
          "type": "uint256"
        },
        {
          "internalType": "enum NFTFlipGame.PaymentToken",
          "name": "paymentToken",
          "type": "uint8"
        },
        {
          "internalType": "uint256",
          "name": "totalPaid",
          "type": "uint256"
        },
        {
          "internalType": "address",
          "name": "winner",
          "type": "address"
        },
        {
          "internalType": "uint256",
          "name": "createdAt",
          "type": "uint256"
        },
        {
          "internalType": "uint256",
          "name": "expiresAt",
          "type": "uint256"
        }
      ],
      "stateMutability": "view",
      "type": "function"
    },
    {
      "inputs": [
        {
          "internalType": "uint256",
          "name": "usdAmount",
          "type": "uint256"
        }
      ],
      "name": "getETHAmount",
      "outputs": [
        {
          "internalType": "uint256",
          "name": "",
          "type": "uint256"
        }
      ],
      "stateMutability": "view",
      "type": "function"
    },
    {
      "inputs": [
        {
          "internalType": "uint256",
          "name": "startIndex",
          "type": "uint256"
        },
        {
          "internalType": "uint256",
          "name": "count",
          "type": "uint256"
        }
      ],
      "name": "getExpiredGames",
      "outputs": [
        {
          "internalType": "uint256[]",
          "name": "",
          "type": "uint256[]"
        }
      ],
      "stateMutability": "view",
      "type": "function"
    },
    {
      "inputs": [
        {
          "internalType": "uint256",
          "name": "gameId",
          "type": "uint256"
        }
      ],
      "name": "getGameDetails",
      "outputs": [
        {
          "components": [
            {
              "internalType": "uint256",
              "name": "gameId",
              "type": "uint256"
            },
            {
              "internalType": "address",
              "name": "creator",
              "type": "address"
            },
            {
              "internalType": "address",
              "name": "joiner",
              "type": "address"
            },
            {
              "internalType": "address",
              "name": "nftContract",
              "type": "address"
            },
            {
              "internalType": "uint256",
              "name": "tokenId",
              "type": "uint256"
            },
            {
              "internalType": "enum NFTFlipGame.GameState",
              "name": "state",
              "type": "uint8"
            },
            {
              "internalType": "enum NFTFlipGame.GameType",
              "name": "gameType",
              "type": "uint8"
            },
            {
              "internalType": "uint256",
              "name": "priceUSD",
              "type": "uint256"
            },
            {
              "internalType": "enum NFTFlipGame.PaymentToken",
              "name": "paymentToken",
              "type": "uint8"
            },
            {
              "internalType": "uint256",
              "name": "totalPaid",
              "type": "uint256"
            },
            {
              "internalType": "address",
              "name": "winner",
              "type": "address"
            },
            {
              "internalType": "uint256",
              "name": "createdAt",
              "type": "uint256"
            },
            {
              "internalType": "uint256",
              "name": "expiresAt",
              "type": "uint256"
            }
          ],
          "internalType": "struct NFTFlipGame.Game",
          "name": "",
          "type": "tuple"
        },
        {
          "components": [
            {
              "internalType": "address",
              "name": "challengerNFTContract",
              "type": "address"
            },
            {
              "internalType": "uint256",
              "name": "challengerTokenId",
              "type": "uint256"
            }
          ],
          "internalType": "struct NFTFlipGame.NFTChallenge",
          "name": "",
          "type": "tuple"
        }
      ],
      "stateMutability": "view",
      "type": "function"
    },
    {
      "inputs": [
        {
          "internalType": "uint256",
          "name": "usdAmount",
          "type": "uint256"
        }
      ],
      "name": "getUSDCAmount",
      "outputs": [
        {
          "internalType": "uint256",
          "name": "",
          "type": "uint256"
        }
      ],
      "stateMutability": "view",
      "type": "function"
    },
    {
      "inputs": [
        {
          "internalType": "uint256",
          "name": "gameId",
          "type": "uint256"
        }
      ],
      "name": "isGameExpired",
      "outputs": [
        {
          "internalType": "bool",
          "name": "",
          "type": "bool"
        }
      ],
      "stateMutability": "view",
      "type": "function"
    },
    {
      "inputs": [
        {
          "internalType": "uint256",
          "name": "gameId",
          "type": "uint256"
        },
        {
          "internalType": "enum NFTFlipGame.PaymentToken",
          "name": "paymentToken",
          "type": "uint8"
        },
        {
          "internalType": "address",
          "name": "challengerNFTContract",
          "type": "address"
        },
        {
          "internalType": "uint256",
          "name": "challengerTokenId",
          "type": "uint256"
        }
      ],
      "name": "joinGame",
      "outputs": [],
      "stateMutability": "payable",
      "type": "function"
    },
    {
      "inputs": [],
      "name": "listingFeeUSD",
      "outputs": [
        {
          "internalType": "uint256",
          "name": "",
          "type": "uint256"
        }
      ],
      "stateMutability": "view",
      "type": "function"
    },
    {
      "inputs": [],
      "name": "nextGameId",
      "outputs": [
        {
          "internalType": "uint256",
          "name": "",
          "type": "uint256"
        }
      ],
      "stateMutability": "view",
      "type": "function"
    },
    {
      "inputs": [
        {
          "internalType": "uint256",
          "name": "",
          "type": "uint256"
        }
      ],
      "name": "nftChallenges",
      "outputs": [
        {
          "internalType": "address",
          "name": "challengerNFTContract",
          "type": "address"
        },
        {
          "internalType": "uint256",
          "name": "challengerTokenId",
          "type": "uint256"
        }
      ],
      "stateMutability": "view",
      "type": "function"
    },
    {
      "inputs": [],
      "name": "owner",
      "outputs": [
        {
          "internalType": "address",
          "name": "",
          "type": "address"
        }
      ],
      "stateMutability": "view",
      "type": "function"
    },
    {
      "inputs": [],
      "name": "pause",
      "outputs": [],
      "stateMutability": "nonpayable",
      "type": "function"
    },
    {
      "inputs": [],
      "name": "paused",
      "outputs": [
        {
          "internalType": "bool",
          "name": "",
          "type": "bool"
        }
      ],
      "stateMutability": "view",
      "type": "function"
    },
    {
      "inputs": [],
      "name": "platformFeePercent",
      "outputs": [
        {
          "internalType": "uint256",
          "name": "",
          "type": "uint256"
        }
      ],
      "stateMutability": "view",
      "type": "function"
    },
    {
      "inputs": [],
      "name": "platformFeeReceiver",
      "outputs": [
        {
          "internalType": "address",
          "name": "",
          "type": "address"
        }
      ],
      "stateMutability": "view",
      "type": "function"
    },
    {
      "inputs": [],
      "name": "renounceOwnership",
      "outputs": [],
      "stateMutability": "nonpayable",
      "type": "function"
    },
    {
      "inputs": [
        {
          "internalType": "uint256",
          "name": "newFee",
          "type": "uint256"
        }
      ],
      "name": "setListingFee",
      "outputs": [],
      "stateMutability": "nonpayable",
      "type": "function"
    },
    {
      "inputs": [
        {
          "internalType": "uint256",
          "name": "newPercent",
          "type": "uint256"
        }
      ],
      "name": "setPlatformFee",
      "outputs": [],
      "stateMutability": "nonpayable",
      "type": "function"
    },
    {
      "inputs": [],
      "name": "totalGamesCompleted",
      "outputs": [
        {
          "internalType": "uint256",
          "name": "",
          "type": "uint256"
        }
      ],
      "stateMutability": "view",
      "type": "function"
    },
    {
      "inputs": [],
      "name": "totalGamesCreated",
      "outputs": [
        {
          "internalType": "uint256",
          "name": "",
          "type": "uint256"
        }
      ],
      "stateMutability": "view",
      "type": "function"
    },
    {
      "inputs": [],
      "name": "totalPlatformFees",
      "outputs": [
        {
          "internalType": "uint256",
          "name": "",
          "type": "uint256"
        }
      ],
      "stateMutability": "view",
      "type": "function"
    },
    {
      "inputs": [],
      "name": "totalVolumeUSD",
      "outputs": [
        {
          "internalType": "uint256",
          "name": "",
          "type": "uint256"
        }
      ],
      "stateMutability": "view",
      "type": "function"
    },
    {
      "inputs": [
        {
          "internalType": "address",
          "name": "newOwner",
          "type": "address"
        }
      ],
      "name": "transferOwnership",
      "outputs": [],
      "stateMutability": "nonpayable",
      "type": "function"
    },
    {
      "inputs": [
        {
          "internalType": "address",
          "name": "",
          "type": "address"
        }
      ],
      "name": "unclaimedETH",
      "outputs": [
        {
          "internalType": "uint256",
          "name": "",
          "type": "uint256"
        }
      ],
      "stateMutability": "view",
      "type": "function"
    },
    {
      "inputs": [
        {
          "internalType": "address",
          "name": "",
          "type": "address"
        },
        {
          "internalType": "address",
          "name": "",
          "type": "address"
        },
        {
          "internalType": "uint256",
          "name": "",
          "type": "uint256"
        }
      ],
      "name": "unclaimedNFTs",
      "outputs": [
        {
          "internalType": "uint256",
          "name": "",
          "type": "uint256"
        }
      ],
      "stateMutability": "view",
      "type": "function"
    },
    {
      "inputs": [
        {
          "internalType": "address",
          "name": "",
          "type": "address"
        }
      ],
      "name": "unclaimedUSDC",
      "outputs": [
        {
          "internalType": "uint256",
          "name": "",
          "type": "uint256"
        }
      ],
      "stateMutability": "view",
      "type": "function"
    },
    {
      "inputs": [],
      "name": "unpause",
      "outputs": [],
      "stateMutability": "nonpayable",
      "type": "function"
    },
    {
      "inputs": [],
      "name": "usdcToken",
      "outputs": [
        {
          "internalType": "address",
          "name": "",
          "type": "address"
        }
      ],
      "stateMutability": "view",
      "type": "function"
    },
    {
      "inputs": [],
      "name": "usdcUsdFeed",
      "outputs": [
        {
          "internalType": "contract AggregatorV3Interface",
          "name": "",
          "type": "address"
        }
      ],
      "stateMutability": "view",
      "type": "function"
    },
    {
      "inputs": [
        {
          "internalType": "address",
          "name": "",
          "type": "address"
        },
        {
          "internalType": "uint256",
          "name": "",
          "type": "uint256"
        }
      ],
      "name": "userGames",
      "outputs": [
        {
          "internalType": "uint256",
          "name": "",
          "type": "uint256"
        }
      ],
      "stateMutability": "view",
      "type": "function"
    },
    {
      "inputs": [
        {
          "internalType": "address",
          "name": "",
          "type": "address"
        },
        {
          "internalType": "address",
          "name": "",
          "type": "address"
        },
        {
          "internalType": "uint256",
          "name": "",
          "type": "uint256"
        }
      ],
      "name": "userNFTsInContract",
      "outputs": [
        {
          "internalType": "bool",
          "name": "",
          "type": "bool"
        }
      ],
      "stateMutability": "view",
      "type": "function"
    },
    {
      "inputs": [
        {
          "internalType": "uint256",
          "name": "gameId",
          "type": "uint256"
        }
      ],
      "name": "withdrawExpiredGame",
      "outputs": [],
      "stateMutability": "nonpayable",
      "type": "function"
    },
    {
      "inputs": [
        {
          "internalType": "address",
          "name": "nftContract",
          "type": "address"
        },
        {
          "internalType": "uint256",
          "name": "tokenId",
          "type": "uint256"
        }
      ],
      "name": "withdrawNFT",
      "outputs": [],
      "stateMutability": "nonpayable",
      "type": "function"
    },
    {
      "inputs": [],
      "name": "withdrawRewards",
      "outputs": [],
      "stateMutability": "nonpayable",
      "type": "function"
    }
  ],
  "bytecode": "0x6080346200013257601f6200317238819003918201601f19168301916001600160401b03831184841017620001375780849260809460405283398101031262000132576200004d816200014d565b6200005b602083016200014d565b6200007760606200006f604086016200014d565b94016200014d565b600160008181559054604051956001600160a01b039485939192849290338482167f8be0079c531659141344cd1fd0a4f28419497f9722a3daafe3b4186f6b6457e08480a360ff60a01b1933169060018060a81b03191617600155600160095562030d40600a5561015e600b5580600c5580600d5580600e55600f558160018060a01b0319971687601054161760105516856011541617601155168360125416176012551690601354161760135561300f9081620001638239f35b600080fd5b634e487b7160e01b600052604160045260246000fd5b51906001600160a01b0382168203620001325756fe6080604052600436101561001257600080fd5b60003560e01c806308ed9d33146102e7578063117a5b90146102e257806311eac855146102dd57806312e8e2c3146102d8578063131dbd09146102d35780631a68b691146102ce5780631b31abda146102c95780631fd462cd146102c4578063277327a5146102bf5780632d656ad7146102ba5780633a38d063146102b55780633f4ba83a146102b05780634d9a75e5146102ab5780635c975abb146102a65780635e37ef51146102a15780636088e93a1461029c57806365b3a7ca1461029757806367d817401461029257806369958ab91461028d5780636e9088e714610288578063715018a6146102835780638009b7bd1461027e5780638456cb591461027957806384ae4246146102745780638afec4431461026f5780638c639a851461026a5780638cbe09ed146102655780638da5cb5b146102605780638dbb15bb1461025b5780639291ccd51461025657806395d1152014610251578063a6ff66891461024c578063aa4209b814610247578063b135bbb014610242578063b1a812951461023d578063bc0167cd14610238578063bcf17b3a14610233578063c7b8981c1461022e578063cb9a263014610229578063d3631fa514610224578063d79e85671461021f578063d84cbc451461021a578063e1f1c4a714610215578063ef46b2ab146102105763f2fde38b1461020b57600080fd5b611c5b565b611c35565b611c18565b611876565b611823565b611805565b611650565b6114c5565b6114a7565b611459565b6113bd565b61139f565b61133d565b611236565b6111f9565b6111db565b6111bd565b611194565b611139565b61111b565b611034565b610f2e565b610e91565b610e68565b610e07565b610d90565b610ca6565b610c89565b610c13565b610bdb565b610b95565b610b6f565b610b46565b610aaa565b610a8c565b610a63565b6109cc565b6108da565b610816565b6106ee565b610691565b610607565b6105de565b61051b565b610322565b9181601f8401121561031d5782359167ffffffffffffffff831161031d576020808501948460051b01011161031d57565b600080fd5b3461031d57602036600319011261031d576004803567ffffffffffffffff811161031d5761035390369083016102ec565b9161035c611d28565b60005b83811061036857005b8061038b61037a6103a6938787612e19565b356000526002602052604060002090565b8054151580610432575b80610425575b6103ab575b506120d9565b61035f565b60058101805460ff1916600417905561041f9060018101548590610416906103f1906001600160a01b03165b6001600160a01b0316600090815260086020526040902090565b60038401546001600160a01b03165b60018060a01b0316600052602052604060002090565b910154906122a6565b386103a0565b50600b810154421161039b565b50600581015460ff1661044481610460565b15610395565b634e487b7160e01b600052602160045260246000fd5b6005111561046a57565b61044a565b90600582101561046a5752565b6002111561046a57565b906104908261047c565b52565b9a979491938b919e9d9c9a9794999693996101a083019f8352600160a01b600190039a8b938480931690602001521660408d01521660608b015260808a015260a089016104df9161046f565b6104e88161047c565b60c088015260e08701526104fb8161047c565b610100860152610120850152166101408301526101608201526101800152565b3461031d57602036600319011261031d576004356000908152600260205260409020805460018201546105cf906001600160a01b031660028401549092906001600160a01b031660038501549094906001600160a01b03169160048201549060058301546006840154610592600786015460ff1690565b600886015460098701549094919391906001600160a01b031695600b600a890154980154986040519c8d9c8d9460ff808860081c16971695610493565b0390f35b600091031261031d57565b3461031d57600036600319011261031d576012546040516001600160a01b039091168152602090f35b3461031d57602036600319011261031d57600435610623611d28565b6103e8811161065d576020817f45610d581145924dd7090a5017e5f2b1d6f42213bb2e95707ff86846bbfcb1ca92600b55604051908152a1005b60405162461bcd60e51b815260206004820152600c60248201526b08ccaca40e8dede40d0d2ced60a31b6044820152606490fd5b3461031d57602036600319011261031d577f5fb4654f1efe30c6141eaa6855ffcb27e0b361d899b05e21b1a4d0b3e71e14db60206004356106d0611d28565b80600a55604051908152a1005b6001600160a01b0381160361031d57565b3461031d57602036600319011261031d5760043561070b816106dd565b60018060a01b031660005260066020526020604060002054604051908152f35b815181526020808301516001600160a01b0316908201526101e0810193926108149290916101a0916040818101516001600160a01b0316908301526060818101516001600160a01b0316908301526080810151608083015261079560a082015160a084019061046f565b6107a760c082015160c0840190610486565b60e081015160e08301526107c46101008083015190840190610486565b6101208181015190830152610140808201516001600160a01b0316908301526101608181015190830152610180908101519082015282516001600160a01b03169101908152602091820151910152565b565b3461031d57602036600319011261031d5760043560405161083681612043565b6101806000918281528260208201528260408201528260608201528260808201528260a08201528260c08201528260e082015282610100820152826101208201528261014082015282610160820152015261088f612e82565b506108ca6108c46108be6108ad846000526002602052604060002090565b936000526003602052604060002090565b926125a0565b916126be565b906105cf6040519283928361072b565b3461031d57602036600319011261031d57601154604051633fabe5a360e21b815290600480359160a091849182906001600160a01b03165afa91821561099b57600092610966575b5061092f60008313612f10565b620f424090818102918183041490151715610961576105cf9161095191612a78565b6040519081529081906020820190565b6120c3565b61098891925060a03d8111610994575b6109808183612095565b810190612ede565b50505090509038610922565b503d610976565b6120b7565b606090600319011261031d576004356109b8816106dd565b906024356109c5816106dd565b9060443590565b3461031d57610a2160206109df366109a0565b91906109e9611d28565b60405163a9059cbb60e01b81526001600160a01b03909116600482015260248101929092529092839190829060009082906044820190565b03926001600160a01b03165af1801561099b57610a3a57005b610a5a9060203d8111610a5c575b610a528183612095565b810190612549565b005b503d610a48565b3461031d57600036600319011261031d576013546040516001600160a01b039091168152602090f35b3461031d57600036600319011261031d576020600a54604051908152f35b3461031d57600036600319011261031d57610ac3611d28565b60015460ff8160a01c1615610b0a5760ff60a01b19166001556040513381527f5db9ee0a495bf2e6ff9c91a7834c1ba4fdd244a5e8aa4e537bd38aeae4b073aa90602090a1005b60405162461bcd60e51b815260206004820152601460248201527314185d5cd8589b194e881b9bdd081c185d5cd95960621b6044820152606490fd5b3461031d57600036600319011261031d576011546040516001600160a01b039091168152602090f35b3461031d57600036600319011261031d57602060ff60015460a01c166040519015158152f35b3461031d57602036600319011261031d57600435600090815260036020908152604091829020805460019091015483516001600160a01b03909216825291810191909152f35b3461031d57604036600319011261031d57610c0c600435610bfb816106dd565b610c0361235a565b60243590612bb2565b6001600055005b3461031d57602036600319011261031d576004356000526002602052610c3c60406000206125a0565b8051151580610c72575b6105cf9181610c63575b5060405190151581529081906020820190565b61018091500151421138610c50565b5060a081015190600582101561046a579015610c46565b3461031d57600036600319011261031d5760206040516103e88152f35b3461031d57602036600319011261031d57600435610cc261235a565b6000908082526002602052610cdc604083205415156123b0565b808252600260205260408220600181018054610d559291600491610416916103f1916103d79190610d17906001600160a01b03163314612a98565b610d4860058701610d3b610d2c825460ff1690565b610d3581610460565b15612ae4565b805460ff19166003179055565b546001600160a01b031690565b7f681705fdbd93dba3b679fd712577e9a86d57c5551c520f8c74857deb57f9623f8280a2610d836001600055565b80f35b6002111561031d57565b60c036600319011261031d57600435610da8816106dd565b606435610db481610d86565b60843590610dc182610d86565b60a43567ffffffffffffffff80821161031d573660238301121561031d57816004013590811161031d573691016024011161031d57610a5a926044359060243590611d80565b3461031d57600080600319360112610e6557610e21611d28565b600180546001600160a01b0319811690915581906001600160a01b03167f8be0079c531659141344cd1fd0a4f28419497f9722a3daafe3b4186f6b6457e08280a380f35b80fd5b3461031d57600036600319011261031d576010546040516001600160a01b039091168152602090f35b3461031d57600036600319011261031d57610eaa611d28565b610eb2612313565b6001805460ff60a01b1916600160a01b1790556040513381527f62e78cea01bee320cd4e420270b5ea74000d11b0c9f74754ebdbfc544b05a25890602090a1005b6020908160408183019282815285518094520193019160005b828110610f1a575050505090565b835185529381019392810192600101610f0c565b3461031d57604036600319011261031d57602435610f4b81612e9b565b90610f596040519283612095565b808252601f19610f6882612e9b565b0136602084013760009160043591600954925b8381108061102b575b1561101a57610fa5610fa0826000526002602052604060002090565b6125a0565b805115159081610ffa575b81610feb575b50610fca575b610fc5906120d9565b610f7b565b93610fe38186610fdd610fc59487612eb3565b526120d9565b949050610fbc565b61018091500151421138610fb6565b905060a081015161100a81610460565b61101381610460565b1590610fb0565b848352604051806105cf8582610ef3565b50818510610f84565b3461031d57602036600319011261031d5760043561105061235a565b6110ec611067826000526002602052604060002090565b611073815415156123b0565b60046104166103f16103d76005850161109f611090825460ff1690565b61109981610460565b15612d2f565b6110ae600b8701544211612d7b565b6001860180549091610d48916110df906110d8906001600160a01b03165b6001600160a01b031690565b3314612dbe565b805460ff19166004179055565b7f681705fdbd93dba3b679fd712577e9a86d57c5551c520f8c74857deb57f9623f600080a2610a5a6001600055565b3461031d57600036600319011261031d576020600b54604051908152f35b3461031d5761117861114a366109a0565b929160018060a01b0316600052600560205260406000209060018060a01b0316600052602052604060002090565b90600052602052602060ff604060002054166040519015158152f35b3461031d57600036600319011261031d576001546040516001600160a01b039091168152602090f35b3461031d57600036600319011261031d576020600c54604051908152f35b3461031d57600036600319011261031d576020600e54604051908152f35b3461031d57602036600319011261031d57600435611216816106dd565b60018060a01b031660005260076020526020604060002054604051908152f35b3461031d57604036600319011261031d57602435600435611256826106dd565b61125e61235a565b6000918183526002602052611278604084205415156123b0565b818352600260205261128c604084206125a0565b6020810151336001600160a01b03918216149182156112f9575b5050156112c0576112b6916126e5565b610d836001600055565b60405162461bcd60e51b8152602060048201526011602482015270139bdd0818481c185c9d1a58da5c185b9d607a1b6044820152606490fd5b6040919250015116331438806112a6565b634e487b7160e01b600052603260045260246000fd5b80548210156113385760005260206000200190600090565b61130a565b3461031d5761137c61134e366109a0565b929160018060a01b0316600052600860205260406000209060018060a01b0316600052602052604060002090565b805482101561031d5760209161139191611320565b90546040519160031b1c8152f35b3461031d57600036600319011261031d576020600954604051908152f35b3461031d5760006060366003190112610e6557806004356113dd816106dd565b604435906113ea826106dd565b6113f2611d28565b6001600160a01b031690813b15611455576040516323b872dd60e01b81523060048201526001600160a01b039190911660248083019190915235604482015291908290606490829084905af1801561099b5761144c575080f35b610d8390612065565b5050fd5b3461031d57604036600319011261031d57600435611476816106dd565b6001600160a01b031660009081526004602052604090208054602435919082101561031d5760209161139191611320565b3461031d57600036600319011261031d576020600d54604051908152f35b3461031d57600080600319360112610e65576114df61235a565b3360009081526006602090815260408083205460079092529091205482821580158082611647575b61151090612b30565b61160e575b505080611562575b60408051928352602083019190915233917ffa73d3ab3a92ed3f2b694757d8e4b2f3c293654b11b9c79111f8971f861b22b291819081015b0390a2610d836001600055565b33600090815260076020526040902083905560125461158b906110cc906001600160a01b031681565b60405163a9059cbb60e01b81523360048201526024810183905291906020908390604490829088905af190811561099b577ffa73d3ab3a92ed3f2b694757d8e4b2f3c293654b11b9c79111f8971f861b22b292611555926115f0575b5091505061151d565b6116079060203d8111610a5c57610a528183612095565b50386115e7565b33600090815260066020526040902082905583829161163d575b8280929181923390f11561099b578238611515565b6108fc9150611628565b50831515611507565b3461031d57606036600319011261031d5767ffffffffffffffff6004803582811161031d5761168290369083016102ec565b9160243584811161031d5761169a90369083016102ec565b909460443590811161031d576116b390369084016102ec565b90956116bd611d28565b828614806117fc575b6116cf90612e29565b60005b8681106116db57005b6116f46110cc6110cc6116ef848b8b612e19565b612e75565b906117036116ef82868c612e19565b9161170f828786612e19565b3590803b1561031d57604080516323b872dd60e01b815230818b019081526001600160a01b0390961660208701528582019390935293600091839182908490829060600103925af192831561099b577fbbde41973f9ce4890f7ad9762c23d8191f261fd643bdf13ed8bbc10549b49fcb6117d66117ad6116ef868f8f908f98838e6117a7936116ef936117de9f6117e3575b50612e19565b97612e19565b6117b8868b8a612e19565b9351933584526001600160a01b039081169416929081906020820190565b0390a36120d9565b6116d2565b806117f06117f692612065565b806105d3565b386117a1565b508282146116c6565b3461031d57600036600319011261031d576020600f54604051908152f35b3461031d57604036600319011261031d576000808080600435611845816106dd565b60243590611851611d28565b8290821561186c575b6001600160a01b031690f11561099b57005b6108fc915061185a565b608036600319011261031d5760243560043561189182610d86565b60443561189d816106dd565b6064356118a861235a565b6118b0612313565b60009383855260026020526118ca604086205415156123b0565b6118de846000526002602052604060002090565b60058101928354946118fc60ff87166118f681610460565b156123f2565b600183015461191f90611917906001600160a01b03166110cc565b331415612433565b60028301805490966001600160a01b039160ff919061194090841615612476565b60081c1661194d8161047c565b611b0257505050856119626006830154612f51565b61196b8461047c565b83611a3b5761197c81341015612561565b806008840155803411611a0a575b5050926119a16119b39260076119c0965b0161216b565b80546001600160a01b03191633179055565b805460ff19166001179055565b3360009081526004602052604090206119da9082906122a6565b33907f45c4f9cbafe186141862608c493f28b823fde4c2142bedc3f5169961a73fdd228380a3610d836001600055565b8180611a1a8193989598346122f6565b818115611a32575b3390f11561099b5792853861198a565b506108fc611a22565b9050611a498392959361047c565b60018214611a66575b50906119a16119b39260076119c09661199b565b9190611a7234156124fd565b601254611a89906110cc906001600160a01b031681565b6040516323b872dd60e01b8152336004820152306024820152604481018590529190602090839060649082908c905af1801561099b576119c0966119b3956119a194600793611ae4575b506008820155965050919250611a52565b611afb9060203d8111610a5c57610a528183612095565b5038611ad3565b919592508093501691611b168315156124b8565b823b15611c14576040516323b872dd60e01b8152336004820152306024820152604481018690529287908490606490829084905af192831561099b576119c095611bed611bfc936119b3936119b397611c01575b50611bc6611b76612105565b6001600160a01b0383168152846020820152611b9c8c6000526003602052604060002090565b815181546001600160a01b0319166001600160a01b03919091161781559060019060200151910155565b3360009081526005602052604090205b9060018060a01b0316600052602052604060002090565b90600052602052604060002090565b6119a1565b806117f0611c0e92612065565b38611b6a565b8680fd5b3461031d57600036600319011261031d5760206040516127108152f35b3461031d57602036600319011261031d576020611c53600435612f51565b604051908152f35b3461031d57602036600319011261031d57600435611c78816106dd565b611c80611d28565b6001600160a01b03908116908115611cd457600154826bffffffffffffffffffffffff60a01b821617600155167f8be0079c531659141344cd1fd0a4f28419497f9722a3daafe3b4186f6b6457e0600080a3005b60405162461bcd60e51b815260206004820152602660248201527f4f776e61626c653a206e6577206f776e657220697320746865207a65726f206160448201526564647265737360d01b6064820152608490fd5b6001546001600160a01b03163303611d3c57565b606460405162461bcd60e51b815260206004820152602060248201527f4f776e61626c653a2063616c6c6572206973206e6f7420746865206f776e65726044820152fd5b91611d8961235a565b611d91612313565b6001600160a01b038316611da6811515611f9e565b611db1600a54612f51565b92611dbe84341015611fe1565b813b1561031d576040516323b872dd60e01b815233600482015230602482015260448101829052600095909286908490606490829084905af190811561099b57611ebb8988611e87611e789b611ed5996119b399611bed98611f8b575b506009549d8e95611e33611e2e886120d9565b600955565b611e3c426120e8565b95611e45612112565b978852336020890152604088018190526001600160a01b038a1660608901528b608089015260a088015260c0870161212b565b60e0850152610100840161212b565b896101208301528961014083015242610160830152610180820152611eb68a6000526002602052604060002090565b612183565b336000908152600460205260409020611bc69089906122a6565b611ee8611ee3600c546120d9565b600c55565b81813411611f5f575b808092611f0b6110cc6110cc60135460018060a01b031690565b828215611f56575bf11561099b577fdd0abcdffc76581d11646898ee4d7f269ca1e0c0b622d072d343100dad83ecb160405180611f49339582612303565b0390a36108146001600055565b506108fc611f13565b808080611f6c85346122f6565b818115611f82575b3390f11561099b5781611ef1565b506108fc611f74565b806117f0611f9892612065565b38611e1b565b15611fa557565b60405162461bcd60e51b8152602060048201526014602482015273125b9d985b1a59081391950818dbdb9d1c9858dd60621b6044820152606490fd5b15611fe857565b60405162461bcd60e51b815260206004820152601860248201527f496e73756666696369656e74206c697374696e672066656500000000000000006044820152606490fd5b634e487b7160e01b600052604160045260246000fd5b6101a0810190811067ffffffffffffffff82111761206057604052565b61202d565b67ffffffffffffffff811161206057604052565b6040810190811067ffffffffffffffff82111761206057604052565b90601f8019910116810190811067ffffffffffffffff82111761206057604052565b6040513d6000823e3d90fd5b634e487b7160e01b600052601160045260246000fd5b60001981146109615760010190565b9062093a80820180921161096157565b9190820180921161096157565b6040519061081482612079565b6040519061081482612043565b600582101561046a5752565b6104908261047c565b90600581101561046a5760ff80198354169116179055565b906121568161047c565b61ff0082549160081b169061ff001916179055565b906121758161047c565b60ff80198354169116179055565b8151815560208201516001820180546001600160a01b0319166001600160a01b0390921691909117905590600b906101809060408101516002850180546001600160a01b0319166001600160a01b0390921691909117905560608101516003850180546001600160a01b0319166001600160a01b039092169190911790556080810151600485015561223d6005850161222960a084015161222381610460565b82612134565b60c0830151906122388261047c565b61214c565b60e081015160068501556122626101008201516122598161047c565b6007860161216b565b61012081015160088501556101408101516009850180546001600160a01b0319166001600160a01b03909216919091179055610160810151600a8501550151910155565b908154916801000000000000000083101561206057826122ce91600161081495018155611320565b90919082549060031b91821b91600019901b1916179055565b60001981019190821161096157565b9190820391821161096157565b919060208301926104908261047c565b60ff60015460a01c1661232257565b60405162461bcd60e51b815260206004820152601060248201526f14185d5cd8589b194e881c185d5cd95960821b6044820152606490fd5b60026000541461236b576002600055565b60405162461bcd60e51b815260206004820152601f60248201527f5265656e7472616e637947756172643a207265656e7472616e742063616c6c006044820152606490fd5b156123b757565b60405162461bcd60e51b815260206004820152601360248201527211d85b5948191bd95cc81b9bdd08195e1a5cdd606a1b6044820152606490fd5b156123f957565b60405162461bcd60e51b815260206004820152601260248201527147616d65206e6f7420617661696c61626c6560701b6044820152606490fd5b1561243a57565b60405162461bcd60e51b815260206004820152601460248201527343616e6e6f74206a6f696e206f776e2067616d6560601b6044820152606490fd5b1561247d57565b60405162461bcd60e51b815260206004820152601360248201527211d85b5948185b1c9958591e481a9bda5b9959606a1b6044820152606490fd5b156124bf57565b60405162461bcd60e51b8152602060048201526016602482015275125b9d985b1a590818da185b1b195b99d95c8813919560521b6044820152606490fd5b1561250457565b60405162461bcd60e51b815260206004820152601f60248201527f455448206e6f74206e656564656420666f722055534443207061796d656e74006044820152606490fd5b9081602091031261031d5751801515810361031d5790565b1561256857565b60405162461bcd60e51b815260206004820152601060248201526f092dce6eaccccd2c6d2cadce8408aa8960831b6044820152606490fd5b90600b6125ab612112565b8354815260018401546001600160a01b031660208201529260028101546001600160a01b0316604085015260038101546001600160a01b031660608501526004810154608085015261261960ff600583015461260c82821660a0890161211f565b60081c1660c0860161212b565b600681015460e085015261263e612634600783015460ff1690565b610100860161212b565b600881015461012085015260098101546001600160a01b0316610140850152600a8101546101608501520154610180830152565b1561267957565b60405162461bcd60e51b815260206004820152601a60248201527f47616d65206e6f7420726561647920746f20636f6d706c6574650000000000006044820152606490fd5b906040516126cb81612079565b82546001600160a01b031681526001909201546020830152565b6126f9816000526002602052604060002090565b6005810161271c600161270d835460ff1690565b61271681610460565b14612672565b805460ff191660021781556009820180546001600160a01b0319166001600160a01b038616179055805460081c60ff166127558161047c565b1580612a58575b15612a45576008820154612787612780612778600b5484612a65565b612710900490565b80926122f6565b61279a612795600d546120d9565b600d55565b6127b36127ae600e546006870154906120f8565b600e55565b6127c76127c283600f546120f8565b600f55565b600784015460ff166127d88161047c565b806129ac57506001600160a01b038616600090815260066020526040902061280291905b546120f8565b6001600160a01b038681166000908152600660205260408082209390935560135490911680825291902090916128589161283c91906127fc565b6001600160a01b03909216600090815260066020526040902090565b555b600182018054909290612875906001600160a01b03166110cc565b6001600160a01b03909516948503612943576001916128a96128b39260046104166103f16103d7895460018060a01b031690565b5460081c60ff1690565b6128bc8161047c565b146128eb575b505b7f7f40df5127524300187445e867486da572aab86769c0212e0b392bd87c4ca97f600080a3565b61293d9060206129346129246103d7612916612911886000526003602052604060002090565b6126be565b94546001600160a01b031690565b83516001600160a01b0316610400565b910151906122a6565b386128c2565b915061296b6001916128a9600285019460046104166103f16103d7895460018060a01b031690565b6129748161047c565b14612980575b506128c4565b6129a69060206129346129246103d7612916612911886000526003602052604060002090565b3861297a565b806129b860019261047c565b146129c5575b505061285a565b6001600160a01b03861660009081526007602052604090206129e791906127fc565b6001600160a01b03868116600090815260076020526040808220939093556013549091168082529190209091612a3d91612a2191906127fc565b6001600160a01b03909216600090815260076020526040902090565b5538806129be565b612a53612795600d546120d9565b61285a565b506008820154151561275c565b8181029291811591840414171561096157565b8115612a82570490565b634e487b7160e01b600052601260045260246000fd5b15612a9f57565b60405162461bcd60e51b815260206004820152601760248201527f4f6e6c792063726561746f722063616e2063616e63656c0000000000000000006044820152606490fd5b15612aeb57565b60405162461bcd60e51b815260206004820152601860248201527f47616d652063616e6e6f742062652063616e63656c6c656400000000000000006044820152606490fd5b15612b3757565b60405162461bcd60e51b81526020600482015260136024820152724e6f207265776172647320746f20636c61696d60681b6044820152606490fd5b8054908115612b9c5760001991820191612b8c8383611320565b909182549160031b1b1916905555565b634e487b7160e01b600052603160045260246000fd5b336000908152600860205260409020612bcc908290611bd6565b9160005b835480821015612cea5782612bf2612be88488611320565b90549060031b1c90565b14612c065750612c01906120d9565b612bd0565b612c34929394916122ce612c28612be8612c22612c2f956122e7565b86611320565b9184611320565b612b72565b6001600160a01b03821691823b1561031d57604080516323b872dd60e01b8152306004820152336024820152604481018490529160008360648183895af190811561099b5784611bed612cc1927fbbde41973f9ce4890f7ad9762c23d8191f261fd643bdf13ed8bbc10549b49fcb96612ccb95612cd7575b50336000908152600560205260409020611bd6565b805460ff19169055565b519182523391602090a3565b806117f0612ce492612065565b38612cac565b60405162461bcd60e51b815260206004820152601f60248201527f4e4654206e6f7420666f756e6420696e20756e636c61696d6564206c697374006044820152606490fd5b15612d3657565b60405162461bcd60e51b815260206004820152601960248201527f47616d65206e6f7420696e2063726561746564207374617465000000000000006044820152606490fd5b15612d8257565b60405162461bcd60e51b815260206004820152601460248201527311d85b59481b9bdd08195e1c1a5c9959081e595d60621b6044820152606490fd5b15612dc557565b60405162461bcd60e51b815260206004820152602660248201527f4f6e6c792063726561746f722063616e20776974686472617720657870697265604482015265642067616d6560d01b6064820152608490fd5b91908110156113385760051b0190565b15612e3057565b60405162461bcd60e51b815260206004820152601860248201527f4172726179206c656e67746873206d757374206d6174636800000000000000006044820152606490fd5b35612e7f816106dd565b90565b60405190612e8f82612079565b60006020838281520152565b67ffffffffffffffff81116120605760051b60200190565b80518210156113385760209160051b010190565b519069ffffffffffffffffffff8216820361031d57565b908160a091031261031d57612ef281612ec7565b91602082015191604081015191612e7f608060608401519301612ec7565b15612f1757565b60405162461bcd60e51b8152602060048201526012602482015271125b9d985b1a59081c1c9a58d9481999595960721b6044820152606490fd5b601054604051633fabe5a360e21b81529060a090829060049082906001600160a01b03165afa90811561099b57600091612fb6575b50612f9360008213612f10565b670de0b6b3a76400009182810292818404149015171561096157612e7f91612a78565b612fce915060a03d8111610994576109808183612095565b505050905038612f8656fea264697066735822122063603e1fa6115871666d8fc27e2820d39f4fe5574b8994db33f10172a66558a564736f6c63430008140033",
  "linkReferences": {},
  "deployedLinkReferences": {}
}