{
  "_format": "hh-sol-artifact-1",
  "contractName": "NFTFlipGame",
  "sourceName": "contracts/NFTFlipGame.sol",
  "abi": [
    {
      "inputs": [
        {
          "internalType": "address",
          "name": "_ethUsdFeed",
          "type": "address"
        },
        {
          "internalType": "address",
          "name": "_usdcToken",
          "type": "address"
        },
        {
          "internalType": "address",
          "name": "_platformFeeReceiver",
          "type": "address"
        }
      ],
      "stateMutability": "nonpayable",
      "type": "constructor"
    },
    {
      "anonymous": false,
      "inputs": [
        {
          "indexed": true,
          "internalType": "bytes32",
          "name": "gameId",
          "type": "bytes32"
        },
        {
          "indexed": false,
          "internalType": "address",
          "name": "player",
          "type": "address"
        },
        {
          "indexed": false,
          "internalType": "bool",
          "name": "isNFT",
          "type": "bool"
        },
        {
          "indexed": false,
          "internalType": "enum NFTFlipGame.PaymentToken",
          "name": "paymentToken",
          "type": "uint8"
        }
      ],
      "name": "AssetsDeposited",
      "type": "event"
    },
    {
      "anonymous": false,
      "inputs": [
        {
          "indexed": true,
          "internalType": "bytes32",
          "name": "gameId",
          "type": "bytes32"
        },
        {
          "indexed": false,
          "internalType": "address",
          "name": "player",
          "type": "address"
        }
      ],
      "name": "AssetsReclaimed",
      "type": "event"
    },
    {
      "anonymous": false,
      "inputs": [
        {
          "indexed": true,
          "internalType": "bytes32",
          "name": "gameId",
          "type": "bytes32"
        },
        {
          "indexed": false,
          "internalType": "string",
          "name": "reason",
          "type": "string"
        }
      ],
      "name": "GameCancelled",
      "type": "event"
    },
    {
      "anonymous": false,
      "inputs": [
        {
          "indexed": true,
          "internalType": "bytes32",
          "name": "gameId",
          "type": "bytes32"
        },
        {
          "indexed": false,
          "internalType": "address",
          "name": "winner",
          "type": "address"
        }
      ],
      "name": "GameCompleted",
      "type": "event"
    },
    {
      "anonymous": false,
      "inputs": [
        {
          "indexed": true,
          "internalType": "bytes32",
          "name": "gameId",
          "type": "bytes32"
        },
        {
          "indexed": false,
          "internalType": "address",
          "name": "player1",
          "type": "address"
        },
        {
          "indexed": false,
          "internalType": "address",
          "name": "player2",
          "type": "address"
        },
        {
          "indexed": false,
          "internalType": "enum NFTFlipGame.PaymentToken",
          "name": "paymentToken",
          "type": "uint8"
        }
      ],
      "name": "GameCreated",
      "type": "event"
    },
    {
      "anonymous": false,
      "inputs": [
        {
          "indexed": true,
          "internalType": "bytes32",
          "name": "gameId",
          "type": "bytes32"
        }
      ],
      "name": "GameStarted",
      "type": "event"
    },
    {
      "anonymous": false,
      "inputs": [
        {
          "indexed": true,
          "internalType": "address",
          "name": "creator",
          "type": "address"
        },
        {
          "indexed": false,
          "internalType": "uint256",
          "name": "amount",
          "type": "uint256"
        }
      ],
      "name": "ListingFeePaid",
      "type": "event"
    },
    {
      "anonymous": false,
      "inputs": [
        {
          "indexed": true,
          "internalType": "address",
          "name": "previousOwner",
          "type": "address"
        },
        {
          "indexed": true,
          "internalType": "address",
          "name": "newOwner",
          "type": "address"
        }
      ],
      "name": "OwnershipTransferred",
      "type": "event"
    },
    {
      "anonymous": false,
      "inputs": [
        {
          "indexed": false,
          "internalType": "address",
          "name": "account",
          "type": "address"
        }
      ],
      "name": "Paused",
      "type": "event"
    },
    {
      "anonymous": false,
      "inputs": [
        {
          "indexed": false,
          "internalType": "address",
          "name": "account",
          "type": "address"
        }
      ],
      "name": "Unpaused",
      "type": "event"
    },
    {
      "inputs": [],
      "name": "BASIS_POINTS",
      "outputs": [
        {
          "internalType": "uint256",
          "name": "",
          "type": "uint256"
        }
      ],
      "stateMutability": "view",
      "type": "function"
    },
    {
      "inputs": [
        {
          "internalType": "address[]",
          "name": "nftContracts",
          "type": "address[]"
        },
        {
          "internalType": "uint256[]",
          "name": "tokenIds",
          "type": "uint256[]"
        },
        {
          "internalType": "address[]",
          "name": "recipients",
          "type": "address[]"
        }
      ],
      "name": "adminBatchWithdrawNFTs",
      "outputs": [],
      "stateMutability": "nonpayable",
      "type": "function"
    },
    {
      "inputs": [
        {
          "internalType": "bytes32",
          "name": "gameId",
          "type": "bytes32"
        }
      ],
      "name": "canDeposit",
      "outputs": [
        {
          "internalType": "bool",
          "name": "",
          "type": "bool"
        }
      ],
      "stateMutability": "view",
      "type": "function"
    },
    {
      "inputs": [
        {
          "internalType": "bytes32",
          "name": "gameId",
          "type": "bytes32"
        }
      ],
      "name": "canStartGame",
      "outputs": [
        {
          "internalType": "bool",
          "name": "",
          "type": "bool"
        }
      ],
      "stateMutability": "view",
      "type": "function"
    },
    {
      "inputs": [
        {
          "internalType": "bytes32",
          "name": "gameId",
          "type": "bytes32"
        }
      ],
      "name": "cancelGame",
      "outputs": [],
      "stateMutability": "nonpayable",
      "type": "function"
    },
    {
      "inputs": [
        {
          "internalType": "bytes32",
          "name": "gameId",
          "type": "bytes32"
        },
        {
          "internalType": "address",
          "name": "winner",
          "type": "address"
        }
      ],
      "name": "completeGame",
      "outputs": [],
      "stateMutability": "nonpayable",
      "type": "function"
    },
    {
      "inputs": [
        {
          "internalType": "bytes32",
          "name": "gameId",
          "type": "bytes32"
        }
      ],
      "name": "depositETH",
      "outputs": [],
      "stateMutability": "payable",
      "type": "function"
    },
    {
      "inputs": [
        {
          "internalType": "bytes32",
          "name": "gameId",
          "type": "bytes32"
        }
      ],
      "name": "depositNFT",
      "outputs": [],
      "stateMutability": "nonpayable",
      "type": "function"
    },
    {
      "inputs": [],
      "name": "depositTimeout",
      "outputs": [
        {
          "internalType": "uint256",
          "name": "",
          "type": "uint256"
        }
      ],
      "stateMutability": "view",
      "type": "function"
    },
    {
      "inputs": [
        {
          "internalType": "bytes32",
          "name": "gameId",
          "type": "bytes32"
        },
        {
          "internalType": "uint256",
          "name": "amount",
          "type": "uint256"
        }
      ],
      "name": "depositUSDC",
      "outputs": [],
      "stateMutability": "nonpayable",
      "type": "function"
    },
    {
      "inputs": [],
      "name": "emergencyPause",
      "outputs": [],
      "stateMutability": "nonpayable",
      "type": "function"
    },
    {
      "inputs": [],
      "name": "emergencyWithdrawETH",
      "outputs": [],
      "stateMutability": "nonpayable",
      "type": "function"
    },
    {
      "inputs": [
        {
          "internalType": "address",
          "name": "nftContract",
          "type": "address"
        },
        {
          "internalType": "uint256",
          "name": "tokenId",
          "type": "uint256"
        },
        {
          "internalType": "address",
          "name": "to",
          "type": "address"
        }
      ],
      "name": "emergencyWithdrawNFT",
      "outputs": [],
      "stateMutability": "nonpayable",
      "type": "function"
    },
    {
      "inputs": [],
      "name": "ethUsdFeed",
      "outputs": [
        {
          "internalType": "contract AggregatorV3Interface",
          "name": "",
          "type": "address"
        }
      ],
      "stateMutability": "view",
      "type": "function"
    },
    {
      "inputs": [
        {
          "internalType": "bytes32",
          "name": "",
          "type": "bytes32"
        }
      ],
      "name": "games",
      "outputs": [
        {
          "internalType": "address",
          "name": "player1",
          "type": "address"
        },
        {
          "internalType": "address",
          "name": "player2",
          "type": "address"
        },
        {
          "internalType": "address",
          "name": "nftContract",
          "type": "address"
        },
        {
          "internalType": "uint256",
          "name": "tokenId",
          "type": "uint256"
        },
        {
          "internalType": "uint256",
          "name": "ethAmount",
          "type": "uint256"
        },
        {
          "internalType": "uint256",
          "name": "usdcAmount",
          "type": "uint256"
        },
        {
          "internalType": "enum NFTFlipGame.PaymentToken",
          "name": "paymentToken",
          "type": "uint8"
        },
        {
          "internalType": "uint256",
          "name": "depositTime",
          "type": "uint256"
        },
        {
          "internalType": "bool",
          "name": "player1Deposited",
          "type": "bool"
        },
        {
          "internalType": "bool",
          "name": "player2Deposited",
          "type": "bool"
        },
        {
          "internalType": "bool",
          "name": "completed",
          "type": "bool"
        },
        {
          "internalType": "address",
          "name": "winner",
          "type": "address"
        }
      ],
      "stateMutability": "view",
      "type": "function"
    },
    {
      "inputs": [
        {
          "internalType": "uint256",
          "name": "usdAmount",
          "type": "uint256"
        }
      ],
      "name": "getETHAmount",
      "outputs": [
        {
          "internalType": "uint256",
          "name": "",
          "type": "uint256"
        }
      ],
      "stateMutability": "view",
      "type": "function"
    },
    {
      "inputs": [
        {
          "internalType": "bytes32",
          "name": "gameId",
          "type": "bytes32"
        }
      ],
      "name": "getGameDetails",
      "outputs": [
        {
          "internalType": "address",
          "name": "player1",
          "type": "address"
        },
        {
          "internalType": "address",
          "name": "player2",
          "type": "address"
        },
        {
          "internalType": "address",
          "name": "nftContract",
          "type": "address"
        },
        {
          "internalType": "uint256",
          "name": "tokenId",
          "type": "uint256"
        },
        {
          "internalType": "uint256",
          "name": "ethAmount",
          "type": "uint256"
        },
        {
          "internalType": "uint256",
          "name": "usdcAmount",
          "type": "uint256"
        },
        {
          "internalType": "enum NFTFlipGame.PaymentToken",
          "name": "paymentToken",
          "type": "uint8"
        },
        {
          "internalType": "uint256",
          "name": "depositTime",
          "type": "uint256"
        },
        {
          "internalType": "bool",
          "name": "player1Deposited",
          "type": "bool"
        },
        {
          "internalType": "bool",
          "name": "player2Deposited",
          "type": "bool"
        },
        {
          "internalType": "bool",
          "name": "completed",
          "type": "bool"
        },
        {
          "internalType": "address",
          "name": "winner",
          "type": "address"
        }
      ],
      "stateMutability": "view",
      "type": "function"
    },
    {
      "inputs": [
        {
          "internalType": "uint256",
          "name": "usdAmount",
          "type": "uint256"
        }
      ],
      "name": "getUSDCAmount",
      "outputs": [
        {
          "internalType": "uint256",
          "name": "",
          "type": "uint256"
        }
      ],
      "stateMutability": "pure",
      "type": "function"
    },
    {
      "inputs": [
        {
          "internalType": "address",
          "name": "user",
          "type": "address"
        }
      ],
      "name": "getUserGames",
      "outputs": [
        {
          "internalType": "bytes32[]",
          "name": "",
          "type": "bytes32[]"
        }
      ],
      "stateMutability": "view",
      "type": "function"
    },
    {
      "inputs": [
        {
          "internalType": "bytes32",
          "name": "gameId",
          "type": "bytes32"
        },
        {
          "internalType": "address",
          "name": "player1",
          "type": "address"
        },
        {
          "internalType": "address",
          "name": "player2",
          "type": "address"
        },
        {
          "internalType": "address",
          "name": "nftContract",
          "type": "address"
        },
        {
          "internalType": "uint256",
          "name": "tokenId",
          "type": "uint256"
        },
        {
          "internalType": "uint256",
          "name": "priceUSD",
          "type": "uint256"
        },
        {
          "internalType": "enum NFTFlipGame.PaymentToken",
          "name": "paymentToken",
          "type": "uint8"
        }
      ],
      "name": "initializeGame",
      "outputs": [],
      "stateMutability": "nonpayable",
      "type": "function"
    },
    {
      "inputs": [],
      "name": "listingFeeUSD",
      "outputs": [
        {
          "internalType": "uint256",
          "name": "",
          "type": "uint256"
        }
      ],
      "stateMutability": "view",
      "type": "function"
    },
    {
      "inputs": [
        {
          "internalType": "address",
          "name": "",
          "type": "address"
        }
      ],
      "name": "listingFees",
      "outputs": [
        {
          "internalType": "uint256",
          "name": "",
          "type": "uint256"
        }
      ],
      "stateMutability": "view",
      "type": "function"
    },
    {
      "inputs": [],
      "name": "owner",
      "outputs": [
        {
          "internalType": "address",
          "name": "",
          "type": "address"
        }
      ],
      "stateMutability": "view",
      "type": "function"
    },
    {
      "inputs": [],
      "name": "paused",
      "outputs": [
        {
          "internalType": "bool",
          "name": "",
          "type": "bool"
        }
      ],
      "stateMutability": "view",
      "type": "function"
    },
    {
      "inputs": [],
      "name": "payListingFee",
      "outputs": [],
      "stateMutability": "payable",
      "type": "function"
    },
    {
      "inputs": [],
      "name": "platformFeePercent",
      "outputs": [
        {
          "internalType": "uint256",
          "name": "",
          "type": "uint256"
        }
      ],
      "stateMutability": "view",
      "type": "function"
    },
    {
      "inputs": [],
      "name": "platformFeeReceiver",
      "outputs": [
        {
          "internalType": "address",
          "name": "",
          "type": "address"
        }
      ],
      "stateMutability": "view",
      "type": "function"
    },
    {
      "inputs": [
        {
          "internalType": "bytes32",
          "name": "gameId",
          "type": "bytes32"
        }
      ],
      "name": "reclaimAssets",
      "outputs": [],
      "stateMutability": "nonpayable",
      "type": "function"
    },
    {
      "inputs": [],
      "name": "renounceOwnership",
      "outputs": [],
      "stateMutability": "nonpayable",
      "type": "function"
    },
    {
      "inputs": [
        {
          "internalType": "uint256",
          "name": "newTimeout",
          "type": "uint256"
        }
      ],
      "name": "setDepositTimeout",
      "outputs": [],
      "stateMutability": "nonpayable",
      "type": "function"
    },
    {
      "inputs": [
        {
          "internalType": "uint256",
          "name": "newFee",
          "type": "uint256"
        }
      ],
      "name": "setListingFee",
      "outputs": [],
      "stateMutability": "nonpayable",
      "type": "function"
    },
    {
      "inputs": [
        {
          "internalType": "uint256",
          "name": "newPercent",
          "type": "uint256"
        }
      ],
      "name": "setPlatformFee",
      "outputs": [],
      "stateMutability": "nonpayable",
      "type": "function"
    },
    {
      "inputs": [
        {
          "internalType": "address",
          "name": "newOwner",
          "type": "address"
        }
      ],
      "name": "transferOwnership",
      "outputs": [],
      "stateMutability": "nonpayable",
      "type": "function"
    },
    {
      "inputs": [],
      "name": "unpause",
      "outputs": [],
      "stateMutability": "nonpayable",
      "type": "function"
    },
    {
      "inputs": [
        {
          "internalType": "bytes32",
          "name": "gameId",
          "type": "bytes32"
        },
        {
          "internalType": "address",
          "name": "player2",
          "type": "address"
        },
        {
          "internalType": "uint256",
          "name": "priceUSD",
          "type": "uint256"
        },
        {
          "internalType": "enum NFTFlipGame.PaymentToken",
          "name": "paymentToken",
          "type": "uint8"
        }
      ],
      "name": "updateGameWithPlayer2",
      "outputs": [],
      "stateMutability": "nonpayable",
      "type": "function"
    },
    {
      "inputs": [],
      "name": "usdcToken",
      "outputs": [
        {
          "internalType": "address",
          "name": "",
          "type": "address"
        }
      ],
      "stateMutability": "view",
      "type": "function"
    },
    {
      "inputs": [
        {
          "internalType": "address",
          "name": "",
          "type": "address"
        },
        {
          "internalType": "uint256",
          "name": "",
          "type": "uint256"
        }
      ],
      "name": "userGames",
      "outputs": [
        {
          "internalType": "bytes32",
          "name": "",
          "type": "bytes32"
        }
      ],
      "stateMutability": "view",
      "type": "function"
    }
  ],
  "bytecode": "0x6080346200011257601f62002e1f38819003918201601f19168301916001600160401b03831184841017620001175780849260609460405283398101031262000112576200004d816200012d565b62000069604062000061602085016200012d565b93016200012d565b916001600055600154926040519360018060a01b03928391338382167f8be0079c531659141344cd1fd0a4f28419497f9722a3daafe3b4186f6b6457e0600080a36001600160a81b0319163360ff60a01b19161760015562030d4060055561015e60065561012c600755600980546001600160a01b0319908116968416969096179055600a8054861691909216179055600880549093169116179055612cdc9081620001438239f35b600080fd5b634e487b7160e01b600052604160045260246000fd5b51906001600160a01b0382168203620001125756fe60a0806040526004908136101561001557600080fd5b600090813560e01c90816311eac8551461255d57508063120aace6146124af57806312e8e2c314612453578063131dbd09146124315780631fd462cd14612412578063276273731461238d5780632d656ad7146123645780633a38d063146123465780633f4ba83a146122a75780633f7121b01461218c57806351858e27146121295780635717722414611f8d5780635c975abb14611f67578063615318c714611f49578063691ddd7d14611c6e5780636dbf2763146117e9578063715018a61461178b5780637c34c355146114aa5780637f80e6f2146113b35780638009b7bd1461138a57806384536017146113155780638a1fa029146111a25780638c639a85146111845780638da5cb5b1461115b578063a077932e14610ff8578063b1a8129514610f55578063b262f41f14610e1c578063bc0167cd14610dc5578063cb9a263014610a5c578063d68d9d4e146107cc578063e1f1c4a7146107af578063e9df30271461047b578063ef46b2ab14610455578063f060ad4c1461041c578063f2fde38b14610355578063f372e33c146102475763f579f882146101ba57600080fd5b34610244576020366003190112610244576040908235815260026020522061024060018060a01b039182815416908360018201541690846002820154169260038201549682015491600581015460ff6006830154169060086007840154930154946040519a8b9a8760181c169860ff8860101c169860ff808a60081c169916978d6125e7565b0390f35b80fd5b509034610351576020366003190112610351576040602092823581526002845220604051916102758361275f565b81546001600160a01b039081168452600183015481168585015260028301548116604085015260038301546060850152908201546080840152600582015460a084015260068201546102cd9060ff1660c085016128c4565b60086007830154928360e086015201549260ff8416151561010082015260ff8460081c1615156101208201528160ff8560101c161594851561014084015260181c16610160820152511615159182610349575b5081610332575b506040519015158152f35b610340915060075490612712565b42111538610327565b915038610320565b5080fd5b50903461035157602036600319011261035157610370612582565b6103786126ba565b6001600160a01b039081169182156103c95750600154826001600160601b0360a01b821617600155167f8be0079c531659141344cd1fd0a4f28419497f9722a3daafe3b4186f6b6457e0600080a380f35b60849060206040519162461bcd60e51b8352820152602660248201527f4f776e61626c653a206e6577206f776e657220697320746865207a65726f206160448201526564647265737360d01b6064820152fd5b5034610244576020366003190112610244576020906040906001600160a01b03610444612582565b168152600383522054604051908152f35b50346102445760203660031901126102445760206104738335612b73565b604051908152f35b50903461035157604036600319011261035157803590610499612598565b6104a16126ba565b6104a961286e565b82845260209160028352604085209160018060a01b039283815416936104d0851515612933565b6008820180546104e660ff8260101c1615612ad9565b60ff8116806107a2575b15610767578285169687148015610758575b156107235762010000600160b81b031916601885901b6301000000600160b81b031617620100001790558781600284015416600384015490803b1561071f57604080516323b872dd60e01b815230818a019081526001600160a01b0389166020820152918201939093528391839182908490829060600103925af18015610714576106fc575b505060ff60068301541660028110156106e957889392919061062b57508280928582930154905af16105b861279e565b50156105f15750907f0bf6aee0a93e0c0696509fac1649343cafc5bf013811646e438330fe86e4c15f915b604051908152a26001815580f35b60405162461bcd60e51b81529081018390526013602482015272115512081d1c985b9cd9995c8819985a5b1959606a1b6044820152606490fd5b600a54600592909201546040805163a9059cbb60e01b81526001600160a01b03959095169685019687526020870191909152929695948694889491859003909101928492165af19283156106de577f0bf6aee0a93e0c0696509fac1649343cafc5bf013811646e438330fe86e4c15f936106ac9187916106b1575b50612a96565b6105e3565b6106d19150843d86116106d7575b6106c9818361277c565b810190612a7e565b386106a6565b503d6106bf565b6040513d87823e3d90fd5b634e487b7160e01b895260218552602489fd5b61070590612735565b610710578738610588565b8780fd5b6040513d84823e3d90fd5b8280fd5b60405162461bcd60e51b8152808701899052600e60248201526d24b73b30b634b2103bb4b73732b960911b6044820152606490fd5b50826001850154168714610502565b60405162461bcd60e51b81528087018990526014602482015273105cdcd95d1cc81b9bdd0819195c1bdcda5d195960621b6044820152606490fd5b5060ff8160081c166104f0565b503461024457806003193601126102445760206040516127108152f35b50906020908160031936011261071f578035916107e761286e565b6107ef612827565b828452600281526040842060018101546001600160a01b0392919061082290841661081b811515612933565b3314612a30565b600881019283549460ff9561083c878260081c16156129b2565b61084b878260101c1615612975565b61086761085f600786015460075490612712565b4211156129f2565b6006840193878554166002811015610a4957610a135782019182549361271061089260065487612a6b565b04928534106109dc578b80858194610100839561ff001916178d55600854165af16108bb61279e565b50156109985750867f981102f46f858a9ad42e0e3924c2ee3ddb912d9d6d28768155ffdb174c81711f94606094846108f961091d958d9a97546127de565b90558b813411610970575b50505416896040519333855284015260408301906125c4565ba254908082169182610963575b5050610939575b506001815580f35b7fee5528ba4f234f658c6a97a7e3cba5532e7aad23bb249be4141b62e6a0158a7c8280a238610931565b60081c169050388061092a565b80808061098061099195346127de565b335af161098b61279e565b506127eb565b388b610904565b60405162461bcd60e51b8152908101869052601c60248201527f506c6174666f726d20666565207472616e73666572206661696c6564000000006044820152606490fd5b60405162461bcd60e51b8152808401899052601060248201526f092dce6eaccccd2c6d2cadce8408aa8960831b6044820152606490fd5b60405162461bcd60e51b8152808401879052600f60248201526e4e6f7420616e204554482067616d6560881b6044820152606490fd5b634e487b7160e01b8b526021845260248bfd5b5090346103515760603660031901126103515767ffffffffffffffff908035828111610c7b57610a8f9036908301612689565b90926024938435828111610dc157610aaa9036908601612689565b909260443590811161071057610ac39036908701612689565b9092610acd6126ba565b82861480610db8575b15610d7557889796975b868110610aeb578980f35b979896976001600160a01b0380610b0b610b06848b87612c82565b612c92565b1615610d3b5780610b20610b0684878a612c82565b1615610d045780610b35610b06848b87612c82565b1660208c8c610b45868a8d612c82565b359160405194859384926331a9108f60e11b8452830152846080525afa8a9181610cc3575b50610bb35760405162461bcd60e51b8152608051818e0152601d818d01527f4661696c656420746f20636865636b204e4654206f776e6572736869700000006044820152606490fd5b819b999b30911603610c7f578a90610bcf610b06848b87612c82565b16610bde610b0684878a612c82565b610be984888b612c82565b35823b15610c7b57604080516323b872dd60e01b815230818f019081526001600160a01b0390941660208501529083019190915291839183919082908490829060600103925af1801561071457610c63575b50506000198114610c5157600101979697610ae0565b634e487b7160e01b8a5260118852888afd5b610c6c90612735565b610c77578938610c3b565b8980fd5b8380fd5b60405162461bcd60e51b8152608051818b0152601e818c01527f436f6e747261637420646f6573206e6f74206f776e2074686973204e465400006044820152606490fd5b9091506080513d8111610cfd575b610cdb818361277c565b816080519181010312610cf957518281168103610cf9579038610b6a565b8a80fd5b503d610cd1565b60405162461bcd60e51b81526020818d01526011818c015270125b9d985b1a59081c9958da5c1a595b9d607a1b6044820152606490fd5b60405162461bcd60e51b81526020818d01526014818c015273125b9d985b1a59081391950818dbdb9d1c9858dd60621b6044820152606490fd5b60405162461bcd60e51b81526020818901526018818a01527f4172726179206c656e67746873206d757374206d6174636800000000000000006044820152606490fd5b50818314610ad6565b8680fd5b503461024457604036600319011261024457610ddf612582565b6001600160a01b031681526020919091526040812080546024359290831015610244576020610e0e848461265b565b90546040519160031b1c8152f35b50908160031936011261035157610e3161286e565b610e39612827565b610e44600554612b73565b90813410610f1157338352600360205260408320610e63838254612712565b9055828080808560018060a01b03600854165af1610e7f61279e565b5015610ed75750803411610ec1575b6040519081527f3a5f70a82eb571b0a884a01d171c139c6ec5169ba9e11e00d211cb4f76391e1460203392a26001815580f35b610ed28280808061098086346127de565b610e8e565b60649060206040519162461bcd60e51b83528201526013602482015272119959481d1c985b9cd9995c8819985a5b1959606a1b6044820152fd5b60649060206040519162461bcd60e51b8352820152601860248201527f496e73756666696369656e74206c697374696e672066656500000000000000006044820152fd5b50809134610ff5576060366003190112610ff557610f71612582565b610f796125ae565b90610f826126ba565b6001600160a01b031691823b15610ff057604080516323b872dd60e01b8152309281019283526001600160a01b039093166020830152602435908201529091839183919082908490829060600103925af1801561071457610fe05750f35b610fe990612735565b6102445780f35b505050fd5b50fd5b5034610244576080366003190112610244578135611014612598565b60643560443560028210156111575761102b6126ba565b83855260026020526040852080546001600160a01b0392906110509084161515612933565b600182019081549184831661111c57917f212c0bdcf42696e85cddf68fc1623b3327138b7898282f7356ab7ec713e9cf3297989991849361109f60ff60086110fd9998015460101c1615612975565b85891680936001600160601b0360a01b161790554260078501558615600014611103576110cb90612b73565b8383015560068301805460ff191690555b89526020526110ee8760408a206128d0565b5416916040519384938461290a565b0390a280f35b600584015560068301805460ff191660011790556110dc565b60405162461bcd60e51b81526020818c01526014602482015273141b185e595c880c88185b1c9958591e481cd95d60621b6044820152606490fd5b8480fd5b50346102445780600319360112610244576001546040516001600160a01b039091168152602090f35b50346102445780600319360112610244576020600654604051908152f35b5034610244576020366003190112610244578135815260026020526040812090604051906111cf8261275f565b60018060a01b03835416825260018060a01b03600184015416916020810192835260018060a01b0360028501541693604082019485526003810154926060830193845286820154916080840192835260058101549160a0850192835261123f60ff60068401541660c087016128c4565b600860078301549260e08701938452015460ff8116151561010087015260ff8160081c16151561012087015260ff8160101c16151561014087015260018060a01b039060181c1661016086015260018060a01b038551169660018060a01b039051169760018060a01b039051169551935192519160c0860151916002831015611302575061024097989950519161010086015115159361012087015115159561014088015115159761016060018060a01b0391015116986040519c8d9c8d6125e7565b634e487b7160e01b815260218b52602490fd5b50903461035157816003193601126103515761132f6126ba565b8180808060018060a01b036001541647905af161134a61279e565b5015611354575080f35b60649060206040519162461bcd60e51b8352820152600f60248201526e151c985b9cd9995c8819985a5b1959608a1b6044820152fd5b50346102445780600319360112610244576009546040516001600160a01b039091168152602090f35b509034610351576020366003190112610351576040602092823581526002845220906008604051926113e48461275f565b80546001600160a01b039081168552600182015481168686015260028201548116604086015260038201546060860152928101546080850152600581015460a0850152600681015461143c9060ff1660c086016128c4565b600781015460e085015201549060ff82161515928361010082015261016060ff8460081c161515928361012084015260ff8560101c161594851561014085015260181c16910152826114a2575b508161149a57506040519015158152f35b905038610327565b915038611489565b509034610351576040366003190112610351578035906114c861286e565b6114d0612827565b818352600260209081526040842060018101546001600160a01b039291906114ff90841661081b811515612933565b6008810192835460ff95611518878360081c16156129b2565b611527878360101c1615612975565b61153b61085f600786015460075490612712565b6006840193878554166002811015611778576001036117425760050192835461271061156960065483612a6b565b0493816024351061170a5761ff001916610100178855600a54604080516323b872dd60e01b815233868201908152306020820152918201939093528c9392918991839185169082908790829060600103925af19182156116ff576115d98993879361161496916116e85750612a96565b80600a541690600854168d60405180968195829463a9059cbb60e01b84528a840160209093929193604081019460018060a01b031681520152565b03925af19081156116dd578a916116c0575b501561167c57509261091d867f981102f46f858a9ad42e0e3924c2ee3ddb912d9d6d28768155ffdb174c81711f94846116638b98606097546127de565b90555416896040519333855284015260408301906125c4565b60405162461bcd60e51b8152908101859052601860248201527f5553444320666565207472616e73666572206661696c656400000000000000006044820152606490fd5b6116d79150863d88116106d7576106c9818361277c565b38611626565b6040513d8c823e3d90fd5b6106d19150853d87116106d7576106c9818361277c565b6040513d85823e3d90fd5b60405162461bcd60e51b81528085018990526011602482015270496e73756666696369656e74205553444360781b6044820152606490fd5b60405162461bcd60e51b8152808301879052600f60248201526e4e6f74206120555344432067616d6560881b6044820152606490fd5b634e487b7160e01b8b526021835260248bfd5b50346102445780600319360112610244576117a46126ba565b600180546001600160a01b031981169091556000906001600160a01b03167f8be0079c531659141344cd1fd0a4f28419497f9722a3daafe3b4186f6b6457e08280a380f35b509034610351576020908160031936011261071f5780359161180961286e565b8284526002815260408420805490926001600160a01b039182169061182f821515612933565b6008850191825460ff91611848838360101c1615612975565b611859600789015460075490612712565b421115611c345733148015611c25575b15611bf25788939291908181168080611be5575b15611949575050508386541691611895833314612b1e565b805462ff000019166201000017905560028601546003870154908516803b1561115757604080516323b872dd60e01b8152309481019485526001600160a01b039095166020850152830191909152839183919082908490829060600103925af1801561071457611935575b50507fbeb9db71629193a6a8d82214e24ce084d5f6b1c980d4cda5cec9139a2ea33832925416604051908152a25b6001815580f35b61193e90612735565b611157578438611900565b90919596979392945015808091611bd9575b15611b4d57505060018201938585541691611977833314612b1e565b805462ff00001916620100001790556006830154166002811015611b3a578892918791611a42575050818080926119c586898954169201546127106119be60065483612a6b565b0490612712565b905af16119d061279e565b5015611a0a5750907fbeb9db71629193a6a8d82214e24ce084d5f6b1c980d4cda5cec9139a2ea3383292915b5416604051908152a261192e565b60405162461bcd60e51b81529081018490526011602482015270115512081c99599d5b990819985a5b1959607a1b6044820152606490fd5b9091611a979350611a65600588600a54169201546127106119be60065483612a6b565b918a60405180968195829463a9059cbb60e01b84528a840160209093929193604081019460018060a01b031681520152565b03925af1908115611b2f578791611b12575b5015611ad95750907fbeb9db71629193a6a8d82214e24ce084d5f6b1c980d4cda5cec9139a2ea3383292916119fc565b60405162461bcd60e51b815290810184905260126024820152711554d110c81c99599d5b990819985a5b195960721b6044820152606490fd5b611b299150853d87116106d7576106c9818361277c565b38611aa9565b6040513d89823e3d90fd5b634e487b7160e01b895260218452602489fd5b935094509492905081611bcb575b50611b6a575b5050505061192e565b7fd48b0c9992d8d4b8967d1584dc8c1955390d9ff30639a7da9c77e7f0db86c3d8926201000060609362ff000019161790556010604051918083528201526f4e6f206465706f73697473206d61646560801b6040820152a238808080611b61565b90508260081c161538611b5b565b50858260081c1661195b565b50828260081c161561187d565b60405162461bcd60e51b8152808401879052600c60248201526b2737ba103090383630bcb2b960a11b6044820152606490fd5b50846001880154163314611869565b60405162461bcd60e51b81528085018890526013602482015272151a5b595bdd5d081b9bdd081c995858da1959606a1b6044820152606490fd5b50346102445760e036600319011261024457611c88612598565b611c906125ae565b906064356001600160a01b0381168103611f445760a435600260c435101561115757611cba6126ba565b85358552600260205260408520546001600160a01b0316611f0a5784908160c435611f025750611ce990612b73565b60405192611cf68461275f565b6001600160a01b03858116855286811660208601521660408401526084356060840152608083015260a0820152611d3260c43560c083016128c4565b4260e0820152836101008201528361012082015283610140820152836101608201528435845260026020526040842060018060a01b038251166001600160601b0360a01b90818354161782556001820160018060a01b0360208501511682825416179055600282019060018060a01b03604085015116908254161790556060820151600382015560808201518682015560a0820151600582015560c08201516002811015611eef5760068201805460ff191660ff92831617905560e0830151600783015561010083015160089283018054610120860151610140870151610160909701516301000000600160b81b0360189190911b1662ff000097151560101b9790971661ff0091151590961b169215159093166001600160b81b03199093169290921717919091179190911790557f212c0bdcf42696e85cddf68fc1623b3327138b7898282f7356ab7ec713e9cf3290846001600160a01b0382168552602081905260408520611ea5908235906128d0565b6001600160a01b038416611ec9575b6110fd604051928392359560c435918461290a565b6001600160a01b0384168552602081905260408520611eea908235906128d0565b611eb4565b634e487b7160e01b865260218752602486fd5b915090611ce9565b60405162461bcd60e51b8152602081880152601360248201527247616d6520616c72656164792065786973747360681b6044820152606490fd5b600080fd5b50346102445780600319360112610244576020600754604051908152f35b5034610244578060031936011261024457602060ff60015460a01c166040519015158152f35b50903461035157602036600319011261035157803590611fab61286e565b611fb3612827565b81835260026020526040832080546001600160a01b0392908316611fd8811515612933565b33036120f65784600883019361200160ff8654611ff7828216156129b2565b60101c1615612975565b61201561085f600786015460075490612712565b600284015416600384015490803b1561071f57604080516323b872dd60e01b81523395810195865230602087015290850192909252909283919082908490829060600103925af180156106de576120e2575b5083600191847f981102f46f858a9ad42e0e3924c2ee3ddb912d9d6d28768155ffdb174c81711f606060ff6006885495888319881617809a550154166120bd6040519133835288602084015260408301906125c4565ba2161790816120d4575b5061093957506001815580f35b60ff915060081c16386120c7565b936120ef60019295612735565b9390612067565b60649060206040519162461bcd60e51b8352820152600c60248201526b4e6f7420706c61796572203160a01b6044820152fd5b50346102445780600319360112610244576121426126ba565b61214a612827565b6001805460ff60a01b1916600160a01b1790556040513381527f62e78cea01bee320cd4e420270b5ea74000d11b0c9f74754ebdbfc544b05a25890602090a180f35b509034610351576020366003190112610351578035906121aa6126ba565b8183526002602052604083208054600891906121d0906001600160a01b03161515612933565b01908154906121e560ff8360101c1615612ad9565b60ff82161580612299575b156122555750620100009062ff000019161790557fd48b0c9992d8d4b8967d1584dc8c1955390d9ff30639a7da9c77e7f0db86c3d8606060405160208152601360208201527243616e63656c6c65642062792073797374656d60681b6040820152a280f35b60649060206040519162461bcd60e51b8352820152601c60248201527f43616e6e6f742063616e63656c206166746572206465706f73697473000000006044820152fd5b5060ff8260081c16156121f0565b5090346103515781600319360112610351576122c16126ba565b6001549060ff8260a01c161561230b575060ff60a01b19166001556040513381527f5db9ee0a495bf2e6ff9c91a7834c1ba4fdd244a5e8aa4e537bd38aeae4b073aa90602090a180f35b60649060206040519162461bcd60e51b8352820152601460248201527314185d5cd8589b194e881b9bdd081c185d5cd95960621b6044820152fd5b50346102445780600319360112610244576020600554604051908152f35b50346102445780600319360112610244576008546040516001600160a01b039091168152602090f35b509034610351576020366003190112610351578035906123ab6126ba565b603c82101580612406575b156123c2575060075580f35b60649060206040519162461bcd60e51b8352820152601c60248201527f54696d656f7574206d75737420626520312d3130206d696e75746573000000006044820152fd5b506102588211156123b6565b5090346103515760203660031901126103515760209060405190358152f35b5090346103515760203660031901126103515761244c6126ba565b3560055580f35b509034610351576020366003190112610351578035906124716126ba565b6103e88211612481575060065580f35b60649060206040519162461bcd60e51b835282015260076024820152664d61782031302560c81b6044820152fd5b509034610351576020908160031936011261071f576001600160a01b036124d4612582565b16835281526040822060405192838383549182815201908193835284832090835b818110612549575050508461250b91038561277c565b60405193838594850191818652518092526040850193925b82811061253257505050500390f35b835185528695509381019392810192600101612523565b8254845292860192600192830192016124f5565b905034610351578160031936011261035157600a546001600160a01b03168152602090f35b600435906001600160a01b0382168203611f4457565b602435906001600160a01b0382168203611f4457565b604435906001600160a01b0382168203611f4457565b9060028210156125d15752565b634e487b7160e01b600052602160045260246000fd5b9a979491999693909c9b9895929c6101808c019d8c600160a01b60019003809d8180951683521690602001521660408c015260608b015260808a015260a089015260c08801612635916125c4565b60e087015215156101008601521515610120850152151561014084015216906101600152565b80548210156126735760005260206000200190600090565b634e487b7160e01b600052603260045260246000fd5b9181601f84011215611f445782359167ffffffffffffffff8311611f44576020808501948460051b010111611f4457565b6001546001600160a01b031633036126ce57565b606460405162461bcd60e51b815260206004820152602060248201527f4f776e61626c653a2063616c6c6572206973206e6f7420746865206f776e65726044820152fd5b9190820180921161271f57565b634e487b7160e01b600052601160045260246000fd5b67ffffffffffffffff811161274957604052565b634e487b7160e01b600052604160045260246000fd5b610180810190811067ffffffffffffffff82111761274957604052565b90601f8019910116810190811067ffffffffffffffff82111761274957604052565b3d156127d9573d9067ffffffffffffffff821161274957604051916127cd601f8201601f19166020018461277c565b82523d6000602084013e565b606090565b9190820391821161271f57565b156127f257565b60405162461bcd60e51b815260206004820152600d60248201526c1499599d5b990819985a5b1959609a1b6044820152606490fd5b60ff60015460a01c1661283657565b60405162461bcd60e51b815260206004820152601060248201526f14185d5cd8589b194e881c185d5cd95960821b6044820152606490fd5b60026000541461287f576002600055565b60405162461bcd60e51b815260206004820152601f60248201527f5265656e7472616e637947756172643a207265656e7472616e742063616c6c006044820152606490fd5b60028210156125d15752565b805468010000000000000000811015612749576128f29160018201815561265b565b819291549060031b91821b91600019901b1916179055565b6001600160a01b0391821681529116602082015260608101929161293191604001906125c4565b565b1561293a57565b60405162461bcd60e51b815260206004820152601360248201527211d85b5948191bd95cc81b9bdd08195e1a5cdd606a1b6044820152606490fd5b1561297c57565b60405162461bcd60e51b815260206004820152600e60248201526d11d85b594818dbdb5c1b195d195960921b6044820152606490fd5b156129b957565b60405162461bcd60e51b8152602060048201526011602482015270105b1c9958591e4819195c1bdcda5d1959607a1b6044820152606490fd5b156129f957565b60405162461bcd60e51b815260206004820152600f60248201526e11195c1bdcda5d081d1a5b595bdd5d608a1b6044820152606490fd5b15612a3757565b60405162461bcd60e51b815260206004820152600c60248201526b2737ba10383630bcb2b9101960a11b6044820152606490fd5b8181029291811591840414171561271f57565b90816020910312611f4457518015158103611f445790565b15612a9d57565b60405162461bcd60e51b81526020600482015260146024820152731554d110c81d1c985b9cd9995c8819985a5b195960621b6044820152606490fd5b15612ae057565b60405162461bcd60e51b815260206004820152601660248201527511d85b5948185b1c9958591e4818dbdb5c1b195d195960521b6044820152606490fd5b15612b2557565b60405162461bcd60e51b815260206004820152600f60248201526e4e6f7420796f75722061737365747360881b6044820152606490fd5b519069ffffffffffffffffffff82168203611f4457565b600954604051633fabe5a360e21b8152919060a090839060049082906001600160a01b03165afa918215612c7657600092612c28575b506000821315612bee5768056bc75e2d631000009081810291818304149015171561271f578115612bd8570490565b634e487b7160e01b600052601260045260246000fd5b60405162461bcd60e51b8152602060048201526012602482015271125b9d985b1a59081c1c9a58d9481999595960721b6044820152606490fd5b909160a0823d8211612c6e575b81612c4260a0938361277c565b810103126102445750612c5481612b5c565b50612c66608060208301519201612b5c565b509038612ba9565b3d9150612c35565b6040513d6000823e3d90fd5b91908110156126735760051b0190565b356001600160a01b0381168103611f44579056fea2646970667358221220b69d1a56d6614eda34413d5fcf91fa8165556486a4794380459ac47ff51e6df964736f6c63430008140033",
  "linkReferences": {},
  "deployedLinkReferences": {}
}