{
  "_format": "hh-sol-artifact-1",
  "contractName": "NFTFlipGame",
  "sourceName": "contracts/NFTFlipGame.sol",
  "abi": [
    {
      "inputs": [
        {
          "internalType": "address",
          "name": "_platformFeeReceiver",
          "type": "address"
        },
        {
          "internalType": "address",
          "name": "_usdcToken",
          "type": "address"
        }
      ],
      "stateMutability": "nonpayable",
      "type": "constructor"
    },
    {
      "anonymous": false,
      "inputs": [
        {
          "indexed": true,
          "internalType": "bytes32",
          "name": "gameId",
          "type": "bytes32"
        },
        {
          "indexed": true,
          "internalType": "address",
          "name": "reclaimer",
          "type": "address"
        },
        {
          "indexed": false,
          "internalType": "string",
          "name": "assetType",
          "type": "string"
        }
      ],
      "name": "AssetsReclaimed",
      "type": "event"
    },
    {
      "anonymous": false,
      "inputs": [
        {
          "indexed": true,
          "internalType": "bytes32",
          "name": "gameId",
          "type": "bytes32"
        },
        {
          "indexed": true,
          "internalType": "address",
          "name": "depositor",
          "type": "address"
        },
        {
          "indexed": false,
          "internalType": "uint256",
          "name": "amount",
          "type": "uint256"
        }
      ],
      "name": "ETHDeposited",
      "type": "event"
    },
    {
      "anonymous": false,
      "inputs": [
        {
          "indexed": true,
          "internalType": "bytes32",
          "name": "gameId",
          "type": "bytes32"
        },
        {
          "indexed": true,
          "internalType": "address",
          "name": "winner",
          "type": "address"
        }
      ],
      "name": "GameCompleted",
      "type": "event"
    },
    {
      "anonymous": false,
      "inputs": [
        {
          "indexed": true,
          "internalType": "bytes32",
          "name": "gameId",
          "type": "bytes32"
        },
        {
          "indexed": false,
          "internalType": "address",
          "name": "nftDepositor",
          "type": "address"
        },
        {
          "indexed": false,
          "internalType": "address",
          "name": "cryptoDepositor",
          "type": "address"
        }
      ],
      "name": "GameReady",
      "type": "event"
    },
    {
      "anonymous": false,
      "inputs": [
        {
          "indexed": true,
          "internalType": "bytes32",
          "name": "gameId",
          "type": "bytes32"
        },
        {
          "indexed": true,
          "internalType": "address",
          "name": "depositor",
          "type": "address"
        },
        {
          "indexed": false,
          "internalType": "address",
          "name": "nftContract",
          "type": "address"
        },
        {
          "indexed": false,
          "internalType": "uint256",
          "name": "tokenId",
          "type": "uint256"
        }
      ],
      "name": "NFTDeposited",
      "type": "event"
    },
    {
      "anonymous": false,
      "inputs": [
        {
          "indexed": true,
          "internalType": "address",
          "name": "previousOwner",
          "type": "address"
        },
        {
          "indexed": true,
          "internalType": "address",
          "name": "newOwner",
          "type": "address"
        }
      ],
      "name": "OwnershipTransferred",
      "type": "event"
    },
    {
      "anonymous": false,
      "inputs": [
        {
          "indexed": false,
          "internalType": "address",
          "name": "account",
          "type": "address"
        }
      ],
      "name": "Paused",
      "type": "event"
    },
    {
      "anonymous": false,
      "inputs": [
        {
          "indexed": true,
          "internalType": "bytes32",
          "name": "gameId",
          "type": "bytes32"
        },
        {
          "indexed": true,
          "internalType": "address",
          "name": "depositor",
          "type": "address"
        },
        {
          "indexed": false,
          "internalType": "uint256",
          "name": "amount",
          "type": "uint256"
        }
      ],
      "name": "USDCDeposited",
      "type": "event"
    },
    {
      "anonymous": false,
      "inputs": [
        {
          "indexed": false,
          "internalType": "address",
          "name": "account",
          "type": "address"
        }
      ],
      "name": "Unpaused",
      "type": "event"
    },
    {
      "inputs": [],
      "name": "BASIS_POINTS",
      "outputs": [
        {
          "internalType": "uint256",
          "name": "",
          "type": "uint256"
        }
      ],
      "stateMutability": "view",
      "type": "function"
    },
    {
      "inputs": [
        {
          "internalType": "bytes32",
          "name": "gameId",
          "type": "bytes32"
        },
        {
          "internalType": "address",
          "name": "winner",
          "type": "address"
        }
      ],
      "name": "completeGame",
      "outputs": [],
      "stateMutability": "nonpayable",
      "type": "function"
    },
    {
      "inputs": [
        {
          "internalType": "bytes32",
          "name": "gameId",
          "type": "bytes32"
        }
      ],
      "name": "depositETH",
      "outputs": [],
      "stateMutability": "payable",
      "type": "function"
    },
    {
      "inputs": [
        {
          "internalType": "bytes32",
          "name": "gameId",
          "type": "bytes32"
        },
        {
          "internalType": "address",
          "name": "nftContract",
          "type": "address"
        },
        {
          "internalType": "uint256",
          "name": "tokenId",
          "type": "uint256"
        }
      ],
      "name": "depositNFT",
      "outputs": [],
      "stateMutability": "nonpayable",
      "type": "function"
    },
    {
      "inputs": [],
      "name": "depositTimeout",
      "outputs": [
        {
          "internalType": "uint256",
          "name": "",
          "type": "uint256"
        }
      ],
      "stateMutability": "view",
      "type": "function"
    },
    {
      "inputs": [
        {
          "internalType": "bytes32",
          "name": "gameId",
          "type": "bytes32"
        },
        {
          "internalType": "uint256",
          "name": "amount",
          "type": "uint256"
        }
      ],
      "name": "depositUSDC",
      "outputs": [],
      "stateMutability": "nonpayable",
      "type": "function"
    },
    {
      "inputs": [
        {
          "internalType": "bytes32",
          "name": "",
          "type": "bytes32"
        }
      ],
      "name": "ethDeposits",
      "outputs": [
        {
          "internalType": "address",
          "name": "depositor",
          "type": "address"
        },
        {
          "internalType": "uint256",
          "name": "amount",
          "type": "uint256"
        },
        {
          "internalType": "bool",
          "name": "claimed",
          "type": "bool"
        },
        {
          "internalType": "uint256",
          "name": "depositTime",
          "type": "uint256"
        }
      ],
      "stateMutability": "view",
      "type": "function"
    },
    {
      "inputs": [
        {
          "internalType": "bytes32",
          "name": "",
          "type": "bytes32"
        }
      ],
      "name": "gameResults",
      "outputs": [
        {
          "internalType": "address",
          "name": "winner",
          "type": "address"
        },
        {
          "internalType": "bool",
          "name": "completed",
          "type": "bool"
        },
        {
          "internalType": "uint256",
          "name": "completionTime",
          "type": "uint256"
        }
      ],
      "stateMutability": "view",
      "type": "function"
    },
    {
      "inputs": [
        {
          "internalType": "bytes32",
          "name": "gameId",
          "type": "bytes32"
        }
      ],
      "name": "getGameParticipants",
      "outputs": [
        {
          "internalType": "address",
          "name": "nftPlayer",
          "type": "address"
        },
        {
          "internalType": "address",
          "name": "cryptoPlayer",
          "type": "address"
        }
      ],
      "stateMutability": "view",
      "type": "function"
    },
    {
      "inputs": [
        {
          "internalType": "bytes32",
          "name": "gameId",
          "type": "bytes32"
        }
      ],
      "name": "isGameReady",
      "outputs": [
        {
          "internalType": "bool",
          "name": "",
          "type": "bool"
        }
      ],
      "stateMutability": "view",
      "type": "function"
    },
    {
      "inputs": [
        {
          "internalType": "bytes32",
          "name": "",
          "type": "bytes32"
        }
      ],
      "name": "nftDeposits",
      "outputs": [
        {
          "internalType": "address",
          "name": "depositor",
          "type": "address"
        },
        {
          "internalType": "address",
          "name": "nftContract",
          "type": "address"
        },
        {
          "internalType": "uint256",
          "name": "tokenId",
          "type": "uint256"
        },
        {
          "internalType": "bool",
          "name": "claimed",
          "type": "bool"
        },
        {
          "internalType": "uint256",
          "name": "depositTime",
          "type": "uint256"
        }
      ],
      "stateMutability": "view",
      "type": "function"
    },
    {
      "inputs": [],
      "name": "owner",
      "outputs": [
        {
          "internalType": "address",
          "name": "",
          "type": "address"
        }
      ],
      "stateMutability": "view",
      "type": "function"
    },
    {
      "inputs": [],
      "name": "pause",
      "outputs": [],
      "stateMutability": "nonpayable",
      "type": "function"
    },
    {
      "inputs": [],
      "name": "paused",
      "outputs": [
        {
          "internalType": "bool",
          "name": "",
          "type": "bool"
        }
      ],
      "stateMutability": "view",
      "type": "function"
    },
    {
      "inputs": [],
      "name": "platformFeePercent",
      "outputs": [
        {
          "internalType": "uint256",
          "name": "",
          "type": "uint256"
        }
      ],
      "stateMutability": "view",
      "type": "function"
    },
    {
      "inputs": [],
      "name": "platformFeeReceiver",
      "outputs": [
        {
          "internalType": "address",
          "name": "",
          "type": "address"
        }
      ],
      "stateMutability": "view",
      "type": "function"
    },
    {
      "inputs": [
        {
          "internalType": "bytes32",
          "name": "gameId",
          "type": "bytes32"
        }
      ],
      "name": "reclaimCrypto",
      "outputs": [],
      "stateMutability": "nonpayable",
      "type": "function"
    },
    {
      "inputs": [
        {
          "internalType": "bytes32",
          "name": "gameId",
          "type": "bytes32"
        }
      ],
      "name": "reclaimNFT",
      "outputs": [],
      "stateMutability": "nonpayable",
      "type": "function"
    },
    {
      "inputs": [],
      "name": "renounceOwnership",
      "outputs": [],
      "stateMutability": "nonpayable",
      "type": "function"
    },
    {
      "inputs": [
        {
          "internalType": "uint256",
          "name": "_timeout",
          "type": "uint256"
        }
      ],
      "name": "setDepositTimeout",
      "outputs": [],
      "stateMutability": "nonpayable",
      "type": "function"
    },
    {
      "inputs": [
        {
          "internalType": "uint256",
          "name": "_feePercent",
          "type": "uint256"
        }
      ],
      "name": "setPlatformFeePercent",
      "outputs": [],
      "stateMutability": "nonpayable",
      "type": "function"
    },
    {
      "inputs": [
        {
          "internalType": "address",
          "name": "_receiver",
          "type": "address"
        }
      ],
      "name": "setPlatformFeeReceiver",
      "outputs": [],
      "stateMutability": "nonpayable",
      "type": "function"
    },
    {
      "inputs": [
        {
          "internalType": "address",
          "name": "newOwner",
          "type": "address"
        }
      ],
      "name": "transferOwnership",
      "outputs": [],
      "stateMutability": "nonpayable",
      "type": "function"
    },
    {
      "inputs": [],
      "name": "unpause",
      "outputs": [],
      "stateMutability": "nonpayable",
      "type": "function"
    },
    {
      "inputs": [
        {
          "internalType": "bytes32",
          "name": "",
          "type": "bytes32"
        }
      ],
      "name": "usdcDeposits",
      "outputs": [
        {
          "internalType": "address",
          "name": "depositor",
          "type": "address"
        },
        {
          "internalType": "uint256",
          "name": "amount",
          "type": "uint256"
        },
        {
          "internalType": "bool",
          "name": "claimed",
          "type": "bool"
        },
        {
          "internalType": "uint256",
          "name": "depositTime",
          "type": "uint256"
        }
      ],
      "stateMutability": "view",
      "type": "function"
    },
    {
      "inputs": [],
      "name": "usdcToken",
      "outputs": [
        {
          "internalType": "address",
          "name": "",
          "type": "address"
        }
      ],
      "stateMutability": "view",
      "type": "function"
    }
  ],
  "bytecode": "0x6080346100e457601f62001d5f38819003918201601f19168301916001600160401b038311848410176100e95780849260409485528339810103126100e457610053602061004c836100ff565b92016100ff565b9060016000556001546040519260018060a01b0391338382167f8be0079c531659141344cd1fd0a4f28419497f9722a3daafe3b4186f6b6457e0600080a36001600160a81b0319163360ff60a01b191617600155607860065561015e600755600880546001600160a01b0319908116948416949094179055600980549093169116179055611c4b9081620001148239f35b600080fd5b634e487b7160e01b600052604160045260246000fd5b51906001600160a01b03821682036100e45756fe60806040908082526004908136101561001757600080fd5b600090813560e01c90816311eac855146116d05750806315e85e6d1461166f5780631daedc101461161257806327627373146115f05780632d656ad7146115c75780633f4ba83a1461152a5780634989f9be146114df5780635c975abb146114b8578063615318c7146114995780636e6e8e63146111dc578063715018a61461117f5780637c34c35514610fb85780638456cb5914610f575780638c639a8514610f385780638da5cb5b14610f0f578063a60ecd6514610cf1578063b0f81bb814610c15578063cab230d214610bb3578063d68d9d4e14610a98578063de9c6922146108e2578063e1f1c4a7146108c1578063e340977a14610881578063e9df3027146102f2578063ebd9c39c14610295578063f2fde38b146101c85763f8d732881461014357600080fd5b346101c55760203660031901126101c5576101b49083833591828152600260205260018060a01b039283838320541695600360205284848420541615156000146101b8575081526003602052205416925b516001600160a01b03928316815292909116602083015281906040820190565b0390f35b6020525020541692610194565b80fd5b50919034610291576020366003190112610291576101e4611710565b906101ed611726565b6001600160a01b0391821692831561023f575050600154826001600160601b0360a01b821617600155167f8be0079c531659141344cd1fd0a4f28419497f9722a3daafe3b4186f6b6457e0600080a380f35b906020608492519162461bcd60e51b8352820152602660248201527f4f776e61626c653a206e6577206f776e657220697320746865207a65726f206160448201526564647265737360d01b6064820152fd5b8280fd5b50919034610291576020366003190112610291573582526003602081815292829020805460018201546002830154929093015493516001600160a01b0390911681529384019190915260ff16151560408301526060820152608090f35b509190346102915781600319360112610291578035906103106116f5565b610318611726565b610320611872565b835163161f037760e31b8152828101849052602092908381602481305afa90811561087757879161085a575b5015610826578386526005835261036c60ff8688205460a01c161561177e565b838652600283528486205460038452858720546001600160a01b03918216969194919085161561081857858852600382528481892054165b8580861698891491821561080c575b5050156107c15780516060810181811067ffffffffffffffff8211176107ac578252878152600183820181815283830190428252898c526005865288858d2094511684549160ff60a01b9051151560a01b16916affffffffffffffffffffff60a81b161717835551910155600282528088208886600183015416600283015490803b156102915784516323b872dd60e01b8152308189019081526001600160a01b038a1660208201526040810193909352918391839182908490829060600103925af180156107a25761078a575b50506003019460ff1995600187825416179055868952600383528881838220541615156000146105c45787905260038352818920948980808060018a01546104d96127106104d160075484611ad6565b048092611aff565b96600854165af16104e8611b0c565b5015610581578980809381935af16104fe611b0c565b501561054057505050600260019101918254161790555b7f0bf6aee0a93e0c0696509fac1649343cafc5bf013811646e438330fe86e4c15f8380a36001815580f35b5162461bcd60e51b815291820152601a60248201527f57696e6e657220455448207472616e73666572206661696c6564000000000000604482015260649150fd5b50505162461bcd60e51b815291820152601c60248201527f506c6174666f726d20666565207472616e73666572206661696c656400000000604482015260649150fd5b90948490818552838320966106278660018a01546105ea6127106104d160075484611ad6565b968460095416908560085416908a5180968195829463a9059cbb60e01b9c8d8552840160209093929193604081019460018060a01b031681520152565b03925af1908115610780578d91610763575b50156107165760095485519384526001600160a01b039092168784019081526020810194909452919285928492169082908d90829060400103925af190811561070c5789916106df575b501561069e5750505060026001910191825416179055610515565b5162461bcd60e51b815291820152601b60248201527f57696e6e65722055534443207472616e73666572206661696c65640000000000604482015260649150fd5b6106ff9150833d8511610705575b6106f78183611809565b8101906119c9565b38610683565b503d6106ed565b82513d8b823e3d90fd5b845162461bcd60e51b8152808801879052602160248201527f506c6174666f726d205553444320666565207472616e73666572206661696c656044820152601960fa1b6064820152608490fd5b61077a9150873d8911610705576106f78183611809565b38610639565b86513d8f823e3d90fd5b610793906117f5565b61079e578838610481565b8880fd5b84513d84823e3d90fd5b604185634e487b7160e01b6000525260246000fd5b5162461bcd60e51b815291820152602160248201527f57696e6e6572206d75737420626520612067616d65207061727469636970616e6044820152601d60fa1b606482015260849150fd5b168814905085386103b3565b8282528481892054166103a4565b845162461bcd60e51b8152908101839052600e60248201526d47616d65206e6f7420726561647960901b6044820152606490fd5b6108719150843d8611610705576106f78183611809565b3861034c565b86513d89823e3d90fd5b50346101c55760203660031901126101c55761089b611710565b6108a3611726565b60018060a01b03166001600160601b0360a01b600854161760085580f35b5082346108de57816003193601126108de57602090516127108152f35b5080fd5b5091346102915760209182600319360112610a4a57803591610902611872565b8285526002845280852080546001600160a01b03939084163303610a66579086916002600383019561093860ff88541615611b4c565b8785526005895261095260ff8787205460a01c1615611b8a565b878552600389528086862054161580610a56575b6109899061097a8587015460065490611bc7565b42118115610a4e575b50611bd4565b600184015416920154823b15610a4a5784516323b872dd60e01b815230928101928352336020840152604083019190915291839183919082908490829060600103925af18015610a4057610a28575b50506213919560ea1b91600160ff1982541617905560038151948086528501528301527fb9389f406fe2f12fee7d080bbb0bc247c61f84511a9f00d2589ec9bd002507f660603393a36001815580f35b610a31906117f5565b610a3c5784386109d8565b8480fd5b83513d84823e3d90fd5b8380fd5b905038610983565b5082895285852054811615610966565b825162461bcd60e51b8152908101869052600c60248201526b139bdd081e5bdd5c8813919560a21b6044820152606490fd5b509160209081600319360112610a4a57823592610ab3611872565b610abb61182b565b8385526003835281852054610af0906001600160a01b0390610adf908216156118c8565b858752828552838720541615611920565b83855260058352610b0a60ff8387205460a01c161561177e565b3415610b7d575090827f8534743902a2fb19639aba9d7882a1a9b06d7a841874192da0738ce3973db0ae83610b69610b76969551610b47816117c3565b3381523486820152888382015242606082015284895260038652828920611978565b51923484523393a36119e1565b6001815580f35b82606492519162461bcd60e51b8352820152601260248201527109aeae6e840e6cadcc840e6dedaca408aa8960731b6044820152fd5b5091903461029157602036600319011261029157803591610bd2611726565b6103e88311610be357505060075580f35b906020606492519162461bcd60e51b8352820152600c60248201526b08ccaca40e8dede40d0d2ced60a31b6044820152fd5b50913461029157602092836003193601126101c557823581526002845281812080546001600160a01b039081161515949185610ce1575b50839060038752818420928184541615159384610cd1575b508315610ca4575b505060ff919260058752205460a01c16159083610c9c575b5082610c94575b50519015158152f35b915038610c8b565b925038610c84565b60ff935087528184209081541615159081610cc2575b509138610c6c565b83915060020154161538610cba565b6002015460ff1615935038610c64565b6003015460ff1615945083610c4c565b5082346108de5760603660031901126108de57823590610d0f6116f5565b9060443590610d1c611872565b610d2461182b565b8385526002602052808520546001600160a01b03908116610ec0578486526005602052610d5a60ff8388205460a01c161561177e565b80841690813b15610ebc5782516323b872dd60e01b81523389820190815230602082015260408101869052889082908190606001038183875af18015610eb257610e9f575b5082519160a0830183811067ffffffffffffffff821117610e8a5792889988610e5f610b769b8299968996610e82997f3a2446e77599b001d6e7f8d965d64c3ec2c5222ba2a3f1cba8ad884dd7f8349d9b523387526020870190815287870191898352808960608a019580875260808b0198428a528152600260205220985116906001600160601b0360a01b91828a54161789556001890192511690825416179055516002860155511515600385019060ff801983541691151516179055565b51910155516001600160a01b039095168552602085015233939081906040820190565b0390a36119e1565b60418a634e487b7160e01b6000525260246000fd5b610eab909791976117f5565b9588610d9f565b84513d8a823e3d90fd5b8680fd5b815162461bcd60e51b8152602081890152602360248201527f4e465420616c7265616479206465706f736974656420666f7220746869732067604482015262616d6560e81b6064820152608490fd5b5082346108de57816003193601126108de5760015490516001600160a01b039091168152602090f35b5082346108de57816003193601126108de576020906007549051908152f35b5082346108de57816003193601126108de5760207f62e78cea01bee320cd4e420270b5ea74000d11b0c9f74754ebdbfc544b05a25891610f95611726565b610f9d61182b565b6001805460ff60a01b1916600160a01b17905551338152a180f35b5090346108de57826003193601126108de5780359060243590610fd9611872565b610fe161182b565b82845260209080825260018060a01b0361100081888820541615611920565b84865260038352611016818888205416156118c8565b8486526005835261103060ff8888205460a01c161561177e565b83156111445760095487516323b872dd60e01b815233848201908152306020820152604081018790529092859284928390036060019183918b91165af190811561113a57869161111d575b50156110e5578391866110d97f8f5781fdb49be2343ca56c67e0fa09ece1a4887afb22f1edccd90c3632601c8793610b76989951906110b9826117c3565b33825287858301528a84830152426060830152868b528452828a20611978565b519384523393a36119e1565b60649186519162461bcd60e51b835282015260146024820152731554d110c81d1c985b9cd9995c8819985a5b195960621b6044820152fd5b6111349150833d8511610705576106f78183611809565b3861107b565b87513d88823e3d90fd5b5060649186519162461bcd60e51b835282015260166024820152754d757374206465706f73697420736f6d65205553444360501b6044820152fd5b50346101c557806003193601126101c557611198611726565b600180546001600160a01b0319811690915581906001600160a01b03167f8be0079c531659141344cd1fd0a4f28419497f9722a3daafe3b4186f6b6457e08280a380f35b509190346102915760209182600319360112610a4a578135916111fd611872565b8285526005845261121760ff8387205460a01c1615611b8a565b828552600284528185205460038552828620546001600160a01b0391821615919033908216036113145750908386526003855285808080600187822061127a600282019861126960ff8b541615611b4c565b61097a600384015460065490611bc7565b0154335af1611287611b0c565b50156112dd5750906208aa8960eb1b91600160ff1982541617905560038151948086528501528301527fb9389f406fe2f12fee7d080bbb0bc247c61f84511a9f00d2589ec9bd002507f660603393a36001815580f35b825162461bcd60e51b81529081018590526011602482015270115512081c99599d5b990819985a5b1959607a1b6044820152606490fd5b82865283872054811633036114565785611393889287845285835260018785209161135c600284019761134b60ff8a541615611b4c565b61097a600386015460065490611bc7565b60095416910154875194858094819363a9059cbb60e01b8352338b840160209093929193604081019460018060a01b031681520152565b03925af190811561144c57879161142f575b50156113f857805460ff19166001179055815184815293840152635553444360e01b9083015233917fb9389f406fe2f12fee7d080bbb0bc247c61f84511a9f00d2589ec9bd002507f690606090a3610b76565b5083606492519162461bcd60e51b835282015260126024820152711554d110c81c99599d5b990819985a5b195960721b6044820152fd5b6114469150863d8811610705576106f78183611809565b386113a5565b84513d89823e3d90fd5b835162461bcd60e51b8152808401879052601760248201527f4e6f7420796f75722063727970746f206465706f7369740000000000000000006044820152606490fd5b5082346108de57816003193601126108de576020906006549051908152f35b5082346108de57816003193601126108de5760209060ff60015460a01c1690519015158152f35b5091903461029157602036600319011261029157606092829135815260056020522090600182549201549060ff81519360018060a01b038116855260a01c1615156020840152820152f35b50919034610291578260031936011261029157611545611726565b6001549060ff8260a01c161561158d575060ff60a01b1916600155513381527f5db9ee0a495bf2e6ff9c91a7834c1ba4fdd244a5e8aa4e537bd38aeae4b073aa90602090a180f35b606490602084519162461bcd60e51b8352820152601460248201527314185d5cd8589b194e881b9bdd081c185d5cd95960621b6044820152fd5b5082346108de57816003193601126108de5760085490516001600160a01b039091168152602090f35b5090346108de5760203660031901126108de5761160b611726565b3560065580f35b50919034610291576020366003190112610291578035835260209081529181902080546001820154600283015460039093015493516001600160a01b0390921682529381019390935260ff16151560408301526060820152608090f35b509134610291576020366003190112610291578060a09383358152600260205220600180851b039283825416936001830154169260028301549160ff6003850154169301549381519586526020860152840152151560608301526080820152f35b9050346108de57816003193601126108de576009546001600160a01b03168152602090f35b602435906001600160a01b038216820361170b57565b600080fd5b600435906001600160a01b038216820361170b57565b6001546001600160a01b0316330361173a57565b606460405162461bcd60e51b815260206004820152602060248201527f4f776e61626c653a2063616c6c6572206973206e6f7420746865206f776e65726044820152fd5b1561178557565b60405162461bcd60e51b815260206004820152601660248201527511d85b5948185b1c9958591e4818dbdb5c1b195d195960521b6044820152606490fd5b6080810190811067ffffffffffffffff8211176117df57604052565b634e487b7160e01b600052604160045260246000fd5b67ffffffffffffffff81116117df57604052565b90601f8019910116810190811067ffffffffffffffff8211176117df57604052565b60ff60015460a01c1661183a57565b60405162461bcd60e51b815260206004820152601060248201526f14185d5cd8589b194e881c185d5cd95960821b6044820152606490fd5b600260005414611883576002600055565b60405162461bcd60e51b815260206004820152601f60248201527f5265656e7472616e637947756172643a207265656e7472616e742063616c6c006044820152606490fd5b156118cf57565b60405162461bcd60e51b815260206004820152602360248201527f45544820616c7265616479206465706f736974656420666f7220746869732067604482015262616d6560e81b6064820152608490fd5b1561192757565b60405162461bcd60e51b8152602060048201526024808201527f5553444320616c7265616479206465706f736974656420666f7220746869732060448201526367616d6560e01b6064820152608490fd5b90606060039160018060a01b038151166001600160601b0360a01b855416178455602081015160018501556119c260408201511515600286019060ff801983541691151516179055565b0151910155565b9081602091031261170b5751801515810361170b5790565b60008181526002602090815260408083205460038352818420546001600160a01b0394918516151590851615801590611ac4575b81611abc575b50611a28575b5050505050565b7f1c659750f340e5299f05cfafea9d901858d47405bba10a4235f7b0d2247f14489382611a9d92600386528282822054161515600014611aaa57878152600386526002838383205416965b89835252205492516001600160a01b03919093168116835290921660208201529081906040820190565b0390a23880808080611a21565b60048652600283838320541696611a73565b905038611a1b565b50600484528483832054161515611a15565b81810292918115918404141715611ae957565b634e487b7160e01b600052601160045260246000fd5b91908203918211611ae957565b3d15611b47573d9067ffffffffffffffff82116117df5760405191611b3b601f8201601f191660200184611809565b82523d6000602084013e565b606090565b15611b5357565b60405162461bcd60e51b815260206004820152600f60248201526e105b1c9958591e4818db185a5b5959608a1b6044820152606490fd5b15611b9157565b60405162461bcd60e51b815260206004820152600e60248201526d11d85b594818dbdb5c1b195d195960921b6044820152606490fd5b91908201809211611ae957565b15611bdb57565b60405162461bcd60e51b815260206004820152601260248201527110d85b9b9bdd081c9958db185a5b481e595d60721b6044820152606490fdfea2646970667358221220e751e36b50534dc624a768f3e5f97c5dbbe40c39f88fa6e0cfbb62898db0381664736f6c63430008140033",
  "linkReferences": {},
  "deployedLinkReferences": {}
}