{
  "_format": "hh-sol-artifact-1",
  "contractName": "NFTFlipGame",
  "sourceName": "contracts/NFTFlipGame.sol",
  "abi": [
    {
      "inputs": [
        {
          "internalType": "address",
          "name": "_platformFeeReceiver",
          "type": "address"
        },
        {
          "internalType": "address",
          "name": "_usdcToken",
          "type": "address"
        }
      ],
      "stateMutability": "nonpayable",
      "type": "constructor"
    },
    {
      "anonymous": false,
      "inputs": [
        {
          "indexed": true,
          "internalType": "bytes32",
          "name": "gameId",
          "type": "bytes32"
        },
        {
          "indexed": true,
          "internalType": "address",
          "name": "reclaimer",
          "type": "address"
        },
        {
          "indexed": false,
          "internalType": "string",
          "name": "assetType",
          "type": "string"
        }
      ],
      "name": "AssetsReclaimed",
      "type": "event"
    },
    {
      "anonymous": false,
      "inputs": [
        {
          "indexed": true,
          "internalType": "bytes32",
          "name": "gameId",
          "type": "bytes32"
        },
        {
          "indexed": true,
          "internalType": "address",
          "name": "depositor",
          "type": "address"
        },
        {
          "indexed": false,
          "internalType": "uint256",
          "name": "amount",
          "type": "uint256"
        }
      ],
      "name": "ETHDeposited",
      "type": "event"
    },
    {
      "anonymous": false,
      "inputs": [
        {
          "indexed": true,
          "internalType": "bytes32",
          "name": "gameId",
          "type": "bytes32"
        },
        {
          "indexed": true,
          "internalType": "address",
          "name": "winner",
          "type": "address"
        }
      ],
      "name": "GameCompleted",
      "type": "event"
    },
    {
      "anonymous": false,
      "inputs": [
        {
          "indexed": true,
          "internalType": "bytes32",
          "name": "gameId",
          "type": "bytes32"
        },
        {
          "indexed": false,
          "internalType": "address",
          "name": "nftDepositor",
          "type": "address"
        },
        {
          "indexed": false,
          "internalType": "address",
          "name": "cryptoDepositor",
          "type": "address"
        }
      ],
      "name": "GameReady",
      "type": "event"
    },
    {
      "anonymous": false,
      "inputs": [
        {
          "indexed": true,
          "internalType": "bytes32",
          "name": "gameId",
          "type": "bytes32"
        },
        {
          "indexed": true,
          "internalType": "address",
          "name": "depositor",
          "type": "address"
        },
        {
          "indexed": false,
          "internalType": "address",
          "name": "nftContract",
          "type": "address"
        },
        {
          "indexed": false,
          "internalType": "uint256",
          "name": "tokenId",
          "type": "uint256"
        }
      ],
      "name": "NFTDeposited",
      "type": "event"
    },
    {
      "anonymous": false,
      "inputs": [
        {
          "indexed": true,
          "internalType": "address",
          "name": "previousOwner",
          "type": "address"
        },
        {
          "indexed": true,
          "internalType": "address",
          "name": "newOwner",
          "type": "address"
        }
      ],
      "name": "OwnershipTransferred",
      "type": "event"
    },
    {
      "anonymous": false,
      "inputs": [
        {
          "indexed": false,
          "internalType": "address",
          "name": "account",
          "type": "address"
        }
      ],
      "name": "Paused",
      "type": "event"
    },
    {
      "anonymous": false,
      "inputs": [
        {
          "indexed": true,
          "internalType": "bytes32",
          "name": "gameId",
          "type": "bytes32"
        },
        {
          "indexed": true,
          "internalType": "address",
          "name": "depositor",
          "type": "address"
        },
        {
          "indexed": false,
          "internalType": "uint256",
          "name": "amount",
          "type": "uint256"
        }
      ],
      "name": "USDCDeposited",
      "type": "event"
    },
    {
      "anonymous": false,
      "inputs": [
        {
          "indexed": false,
          "internalType": "address",
          "name": "account",
          "type": "address"
        }
      ],
      "name": "Unpaused",
      "type": "event"
    },
    {
      "anonymous": false,
      "inputs": [
        {
          "indexed": true,
          "internalType": "bytes32",
          "name": "gameId",
          "type": "bytes32"
        },
        {
          "indexed": true,
          "internalType": "address",
          "name": "winner",
          "type": "address"
        }
      ],
      "name": "WinningsWithdrawn",
      "type": "event"
    },
    {
      "inputs": [],
      "name": "BASIS_POINTS",
      "outputs": [
        {
          "internalType": "uint256",
          "name": "",
          "type": "uint256"
        }
      ],
      "stateMutability": "view",
      "type": "function"
    },
    {
      "inputs": [
        {
          "internalType": "bytes32[]",
          "name": "gameIds",
          "type": "bytes32[]"
        },
        {
          "internalType": "address[]",
          "name": "recipients",
          "type": "address[]"
        }
      ],
      "name": "adminBatchWithdrawNFTs",
      "outputs": [],
      "stateMutability": "nonpayable",
      "type": "function"
    },
    {
      "inputs": [
        {
          "internalType": "bytes32",
          "name": "gameId",
          "type": "bytes32"
        },
        {
          "internalType": "address",
          "name": "winner",
          "type": "address"
        }
      ],
      "name": "completeGame",
      "outputs": [],
      "stateMutability": "nonpayable",
      "type": "function"
    },
    {
      "inputs": [
        {
          "internalType": "bytes32",
          "name": "gameId",
          "type": "bytes32"
        }
      ],
      "name": "depositETH",
      "outputs": [],
      "stateMutability": "payable",
      "type": "function"
    },
    {
      "inputs": [
        {
          "internalType": "bytes32",
          "name": "gameId",
          "type": "bytes32"
        },
        {
          "internalType": "address",
          "name": "nftContract",
          "type": "address"
        },
        {
          "internalType": "uint256",
          "name": "tokenId",
          "type": "uint256"
        }
      ],
      "name": "depositNFT",
      "outputs": [],
      "stateMutability": "nonpayable",
      "type": "function"
    },
    {
      "inputs": [],
      "name": "depositTimeout",
      "outputs": [
        {
          "internalType": "uint256",
          "name": "",
          "type": "uint256"
        }
      ],
      "stateMutability": "view",
      "type": "function"
    },
    {
      "inputs": [
        {
          "internalType": "bytes32",
          "name": "gameId",
          "type": "bytes32"
        },
        {
          "internalType": "uint256",
          "name": "amount",
          "type": "uint256"
        }
      ],
      "name": "depositUSDC",
      "outputs": [],
      "stateMutability": "nonpayable",
      "type": "function"
    },
    {
      "inputs": [
        {
          "internalType": "address[]",
          "name": "nftContracts",
          "type": "address[]"
        },
        {
          "internalType": "uint256[]",
          "name": "tokenIds",
          "type": "uint256[]"
        },
        {
          "internalType": "address[]",
          "name": "recipients",
          "type": "address[]"
        }
      ],
      "name": "directBatchTransferNFTs",
      "outputs": [],
      "stateMutability": "nonpayable",
      "type": "function"
    },
    {
      "inputs": [
        {
          "internalType": "address",
          "name": "nftContract",
          "type": "address"
        },
        {
          "internalType": "uint256",
          "name": "tokenId",
          "type": "uint256"
        },
        {
          "internalType": "address",
          "name": "recipient",
          "type": "address"
        }
      ],
      "name": "directTransferNFT",
      "outputs": [],
      "stateMutability": "nonpayable",
      "type": "function"
    },
    {
      "inputs": [
        {
          "internalType": "bytes32",
          "name": "gameId",
          "type": "bytes32"
        },
        {
          "internalType": "address",
          "name": "recipient",
          "type": "address"
        }
      ],
      "name": "emergencyWithdrawETH",
      "outputs": [],
      "stateMutability": "nonpayable",
      "type": "function"
    },
    {
      "inputs": [
        {
          "internalType": "bytes32",
          "name": "gameId",
          "type": "bytes32"
        },
        {
          "internalType": "address",
          "name": "recipient",
          "type": "address"
        }
      ],
      "name": "emergencyWithdrawNFT",
      "outputs": [],
      "stateMutability": "nonpayable",
      "type": "function"
    },
    {
      "inputs": [
        {
          "internalType": "bytes32",
          "name": "gameId",
          "type": "bytes32"
        },
        {
          "internalType": "address",
          "name": "recipient",
          "type": "address"
        }
      ],
      "name": "emergencyWithdrawUSDC",
      "outputs": [],
      "stateMutability": "nonpayable",
      "type": "function"
    },
    {
      "inputs": [
        {
          "internalType": "bytes32",
          "name": "",
          "type": "bytes32"
        }
      ],
      "name": "ethDeposits",
      "outputs": [
        {
          "internalType": "address",
          "name": "depositor",
          "type": "address"
        },
        {
          "internalType": "uint256",
          "name": "amount",
          "type": "uint256"
        },
        {
          "internalType": "bool",
          "name": "claimed",
          "type": "bool"
        },
        {
          "internalType": "uint256",
          "name": "depositTime",
          "type": "uint256"
        }
      ],
      "stateMutability": "view",
      "type": "function"
    },
    {
      "inputs": [
        {
          "internalType": "bytes32",
          "name": "",
          "type": "bytes32"
        }
      ],
      "name": "gameResults",
      "outputs": [
        {
          "internalType": "address",
          "name": "winner",
          "type": "address"
        },
        {
          "internalType": "bool",
          "name": "completed",
          "type": "bool"
        },
        {
          "internalType": "uint256",
          "name": "completionTime",
          "type": "uint256"
        }
      ],
      "stateMutability": "view",
      "type": "function"
    },
    {
      "inputs": [
        {
          "internalType": "bytes32",
          "name": "gameId",
          "type": "bytes32"
        }
      ],
      "name": "getGameParticipants",
      "outputs": [
        {
          "internalType": "address",
          "name": "nftPlayer",
          "type": "address"
        },
        {
          "internalType": "address",
          "name": "cryptoPlayer",
          "type": "address"
        }
      ],
      "stateMutability": "view",
      "type": "function"
    },
    {
      "inputs": [
        {
          "internalType": "bytes32",
          "name": "gameId",
          "type": "bytes32"
        }
      ],
      "name": "isGameReady",
      "outputs": [
        {
          "internalType": "bool",
          "name": "",
          "type": "bool"
        }
      ],
      "stateMutability": "view",
      "type": "function"
    },
    {
      "inputs": [
        {
          "internalType": "bytes32",
          "name": "",
          "type": "bytes32"
        }
      ],
      "name": "nftDeposits",
      "outputs": [
        {
          "internalType": "address",
          "name": "depositor",
          "type": "address"
        },
        {
          "internalType": "address",
          "name": "nftContract",
          "type": "address"
        },
        {
          "internalType": "uint256",
          "name": "tokenId",
          "type": "uint256"
        },
        {
          "internalType": "bool",
          "name": "claimed",
          "type": "bool"
        },
        {
          "internalType": "uint256",
          "name": "depositTime",
          "type": "uint256"
        }
      ],
      "stateMutability": "view",
      "type": "function"
    },
    {
      "inputs": [],
      "name": "owner",
      "outputs": [
        {
          "internalType": "address",
          "name": "",
          "type": "address"
        }
      ],
      "stateMutability": "view",
      "type": "function"
    },
    {
      "inputs": [],
      "name": "pause",
      "outputs": [],
      "stateMutability": "nonpayable",
      "type": "function"
    },
    {
      "inputs": [],
      "name": "paused",
      "outputs": [
        {
          "internalType": "bool",
          "name": "",
          "type": "bool"
        }
      ],
      "stateMutability": "view",
      "type": "function"
    },
    {
      "inputs": [],
      "name": "platformFeePercent",
      "outputs": [
        {
          "internalType": "uint256",
          "name": "",
          "type": "uint256"
        }
      ],
      "stateMutability": "view",
      "type": "function"
    },
    {
      "inputs": [],
      "name": "platformFeeReceiver",
      "outputs": [
        {
          "internalType": "address",
          "name": "",
          "type": "address"
        }
      ],
      "stateMutability": "view",
      "type": "function"
    },
    {
      "inputs": [
        {
          "internalType": "bytes32",
          "name": "gameId",
          "type": "bytes32"
        }
      ],
      "name": "reclaimCrypto",
      "outputs": [],
      "stateMutability": "nonpayable",
      "type": "function"
    },
    {
      "inputs": [
        {
          "internalType": "bytes32",
          "name": "gameId",
          "type": "bytes32"
        }
      ],
      "name": "reclaimNFT",
      "outputs": [],
      "stateMutability": "nonpayable",
      "type": "function"
    },
    {
      "inputs": [],
      "name": "renounceOwnership",
      "outputs": [],
      "stateMutability": "nonpayable",
      "type": "function"
    },
    {
      "inputs": [
        {
          "internalType": "uint256",
          "name": "_timeout",
          "type": "uint256"
        }
      ],
      "name": "setDepositTimeout",
      "outputs": [],
      "stateMutability": "nonpayable",
      "type": "function"
    },
    {
      "inputs": [
        {
          "internalType": "uint256",
          "name": "_feePercent",
          "type": "uint256"
        }
      ],
      "name": "setPlatformFeePercent",
      "outputs": [],
      "stateMutability": "nonpayable",
      "type": "function"
    },
    {
      "inputs": [
        {
          "internalType": "address",
          "name": "_receiver",
          "type": "address"
        }
      ],
      "name": "setPlatformFeeReceiver",
      "outputs": [],
      "stateMutability": "nonpayable",
      "type": "function"
    },
    {
      "inputs": [
        {
          "internalType": "address",
          "name": "newOwner",
          "type": "address"
        }
      ],
      "name": "transferOwnership",
      "outputs": [],
      "stateMutability": "nonpayable",
      "type": "function"
    },
    {
      "inputs": [],
      "name": "unpause",
      "outputs": [],
      "stateMutability": "nonpayable",
      "type": "function"
    },
    {
      "inputs": [
        {
          "internalType": "bytes32",
          "name": "",
          "type": "bytes32"
        }
      ],
      "name": "usdcDeposits",
      "outputs": [
        {
          "internalType": "address",
          "name": "depositor",
          "type": "address"
        },
        {
          "internalType": "uint256",
          "name": "amount",
          "type": "uint256"
        },
        {
          "internalType": "bool",
          "name": "claimed",
          "type": "bool"
        },
        {
          "internalType": "uint256",
          "name": "depositTime",
          "type": "uint256"
        }
      ],
      "stateMutability": "view",
      "type": "function"
    },
    {
      "inputs": [],
      "name": "usdcToken",
      "outputs": [
        {
          "internalType": "address",
          "name": "",
          "type": "address"
        }
      ],
      "stateMutability": "view",
      "type": "function"
    },
    {
      "inputs": [
        {
          "internalType": "bytes32",
          "name": "gameId",
          "type": "bytes32"
        }
      ],
      "name": "withdrawWinnings",
      "outputs": [],
      "stateMutability": "nonpayable",
      "type": "function"
    }
  ],
  "bytecode": "0x608034620000eb57601f6200288f38819003918201601f19168301916001600160401b03831184841017620000f0578084926040948552833981010312620000eb576200005a6020620000528362000106565b920162000106565b9060016000556001546040519260018060a01b0391338382167f8be0079c531659141344cd1fd0a4f28419497f9722a3daafe3b4186f6b6457e0600080a36001600160a81b0319163360ff60a01b191617600155607860065561015e600755600880546001600160a01b031990811694841694909417905560098054909316911617905561277390816200011c8239f35b600080fd5b634e487b7160e01b600052604160045260246000fd5b51906001600160a01b0382168203620000eb5756fe60406080815260048036101561001457600080fd5b6000803560e01c806310738f7214611f0c57806311eac85514611ee357806315e85e6d14611e825780631daedc1014611e255780632762737314611e035780632d656ad714611dda57806331b7222c146118e35780633f4ba83a146118465780634989f9be146117fb5780635c975abb146117d4578063615318c7146117b557806366fa99181461168e5780636e6e8e63146113f5578063715018a6146113985780637c34c355146112155780638456cb59146111b45780638c639a85146111955780638da5cb5b1461116c57806398ebcbd714611010578063a60ecd6514610df8578063b0f81bb814610d1c578063b136d2e014610bd1578063cab230d214610b6f578063d68d9d4e14610a54578063de9c6922146108b8578063e1850f2a146107d7578063e1f1c4a7146107ba578063e340977a1461077a578063e9df302714610537578063ebd9c39c146104da578063ee53e325146102db578063f2fde38b1461020f5763f8d732881461018a57600080fd5b3461020c57602036600319011261020c576101fb9083833591828152600260205260018060a01b039283838320541695600360205284848420541615156000146101ff575081526003602052205416925b516001600160a01b03928316815292909116602083015281906040820190565b0390f35b60205250205416926101db565b80fd5b509190346102d75760203660031901126102d75761022b61218c565b906102346121a2565b6001600160a01b03918216928315610285575050600154826001600160601b0360a01b821617600155167f8be0079c531659141344cd1fd0a4f28419497f9722a3daafe3b4186f6b6457e08380a380f35b906020608492519162461bcd60e51b8352820152602660248201527f4f776e61626c653a206e6577206f776e657220697320746865207a65726f206160448201526564647265737360d01b6064820152fd5b8280fd5b5091346102d757806003193601126102d75767ffffffffffffffff9180358381116104d65761030d9036908301612140565b9190936024359081116104d2576103279036908301612140565b90926103316121a2565b81810361049757865b818110610345578780f35b6103508183896126e3565b35885260026020818152878a20805491926001600160a01b03929091908316151580610488575b61038e575b50505050610389906126d4565b61033a565b6001918c8a6103ac6103a7898c898989015416946126e3565b612709565b9284015490803b156102d7578d516323b872dd60e01b815230818e019081526001600160a01b0390951660208601526040850192909252909283919082908490829060600103925af1801561047e57936104476103a7888f6104408f989b8d8f936103899e6003849f9e9c60609c60008051602061271e8339815191529e61046f575b50019060ff198254161790556126e3565b35976126e3565b169360098c51918083528201526809c8ca8be8482a886960bb1b8c820152a39038808061037c565b6104789061223f565b3861042f565b8b513d8f823e3d90fd5b5060ff60038201541615610377565b845162461bcd60e51b81526020818501526015602482015274082e4e4c2f240d8cadccee8d040dad2e6dac2e8c6d605b1b6044820152606490fd5b8580fd5b8480fd5b509190346102d75760203660031901126102d7573582526003602081815292829020805460018201546002830154929093015493516001600160a01b0390911681529384019190915260ff16151560408301526060820152608090f35b5082346107765780600319360112610776578235610553612176565b9161055c6121a2565b6105646122ee565b805163161f037760e31b81528581018390526020908181602481305afa90811561076c57869161073f575b501561070c57828552600581526105af60ff8387205460a01c16156121fa565b828552600281528185205460038252828620546001600160a01b0391821695919391908416156106fb5784875260038352838080848a205416925b169687149182156106ef575b5050156106a2578051926060840184811067ffffffffffffffff82111761068f57908291600194935286855282850191848352600581870194428652888b5252882094511684549160ff60a01b9051151560a01b16916affffffffffffffffffffff60a81b1617178355519101557f0bf6aee0a93e0c0696509fac1649343cafc5bf013811646e438330fe86e4c15f8380a36001815580f35b634e487b7160e01b885260418952602488fd5b5162461bcd60e51b815280870191909152602160248201527f57696e6e6572206d75737420626520612067616d65207061727469636970616e6044820152601d60fa1b6064820152608490fd5b168614905083896105f6565b878352838080848a205416926105ea565b8590606492519162461bcd60e51b8352820152600e60248201526d47616d65206e6f7420726561647960901b6044820152fd5b61075f9150823d8411610765575b6107578183612285565b810190612445565b8761058f565b503d61074d565b83513d88823e3d90fd5b5080fd5b503461020c57602036600319011261020c5761079461218c565b61079c6121a2565b60018060a01b03166001600160601b0360a01b600854161760085580f35b508234610776578160031936011261077657602090516127108152f35b50809234610776576060366003190112610776576107f361218c565b6044356001600160a01b0381811695928683036104d2576108126121a2565b1691823b156104d65783516323b872dd60e01b8152309181019182526001600160a01b03909216602082015260243560408201529091849183919082908490829060600103925af180156108ac579160609160008051602061271e8339815191529361089d575b506913919517d112549150d560b21b81519160208352600a6020840152820152a380f35b6108a69061223f565b38610879565b505051903d90823e3d90fd5b5091346102d75760209081600319360112610a50578235906108d86122ee565b8185526002835280852080546001600160a01b03919082163303610a1e5780600260038993019361090d60ff8654161561260b565b8684526005885261092760ff8786205460a01c1615612649565b868452600388528086852054161580610a0e575b61095e9061094f8b86015460065490612686565b42118115610a06575b50612693565b60018301541691015490803b156102d75784516323b872dd60e01b8152309881019889523360208a01526040890192909252909687919082908490829060600103925af19485156109fc576213919560ea1b9394956109ed575b50600160ff19825416179055600381519480865285015283015260008051602061271e83398151915260603393a36001815580f35b6109f69061223f565b386109b8565b82513d88823e3d90fd5b905038610958565b508888528584205481161561093b565b825162461bcd60e51b8152808701869052600c60248201526b139bdd081e5bdd5c8813919560a21b6044820152606490fd5b8380fd5b509160209081600319360112610a5057823592610a6f6122ee565b610a776122a7565b8385526003835281852054610aac906001600160a01b0390610a9b90821615612344565b85875282855283872054161561239c565b83855260058352610ac660ff8387205460a01c16156121fa565b3415610b39575090827f8534743902a2fb19639aba9d7882a1a9b06d7a841874192da0738ce3973db0ae83610b25610b32969551610b0381612269565b33815234868201528883820152426060820152848952600386528289206123f4565b51923484523393a36124a0565b6001815580f35b82606492519162461bcd60e51b8352820152601260248201527109aeae6e840e6cadcc840e6dedaca408aa8960731b6044820152fd5b509190346102d75760203660031901126102d757803591610b8e6121a2565b6103e88311610b9f57505060075580f35b906020606492519162461bcd60e51b8352820152600c60248201526b08ccaca40e8dede40d0d2ced60a31b6044820152fd5b509190346102d757816003193601126102d757803590610bef612176565b610bf76121a2565b8285526002602052838520805490916001600160a01b0391821615610ce657866003840193610c2a60ff8654161561260b565b60028460018301541691015490803b156102d75788516323b872dd60e01b8152309781019788526001600160a01b03851660208901526040880192909252909586919082908490829060600103925af1928315610cdc5760008051602061271e83398151915294606094610ccd575b50600160ff198254161790556c4e46545f454d455247454e435960981b86519660208852600d60208901528701521693a380f35b610cd69061223f565b38610c99565b86513d89823e3d90fd5b855162461bcd60e51b8152602081860152601060248201526f139bc81391950819195c1bdcda5d195960821b6044820152606490fd5b5091346102d7576020928360031936011261020c57823581526002845281812080546001600160a01b039081161515949185610de8575b50839060038752818420928184541615159384610dd8575b508315610dab575b505060ff919260058752205460a01c16159083610da3575b5082610d9b575b50519015158152f35b915038610d92565b925038610d8b565b60ff935087528184209081541615159081610dc9575b509138610d73565b83915060020154161538610dc1565b6002015460ff1615935038610d6b565b6003015460ff1615945083610d53565b50823461077657606036600319011261077657823590610e16612176565b9060443590610e236122ee565b610e2b6122a7565b8385526002602052808520546001600160a01b03908116610fc1578486526005602052610e6160ff8388205460a01c16156121fa565b80841690813b15610fbd5782516323b872dd60e01b81523389820190815230602082015260408101869052889082908190606001038183875af18015610fb357610fa4575b5082519160a0830183811067ffffffffffffffff821117610f915792889988610f66610b329b8299968996610f89997f3a2446e77599b001d6e7f8d965d64c3ec2c5222ba2a3f1cba8ad884dd7f8349d9b523387526020870190815287870191898352808960608a019580875260808b0198428a528152600260205220985116906001600160601b0360a01b91828a54161789556001890192511690825416179055516002860155511515600385019060ff801983541691151516179055565b51910155516001600160a01b039095168552602085015233939081906040820190565b0390a36124a0565b634e487b7160e01b895260418a52602489fd5b610fad9061223f565b88610ea6565b84513d8a823e3d90fd5b8680fd5b815162461bcd60e51b8152602081890152602360248201527f4e465420616c7265616479206465706f736974656420666f7220746869732067604482015262616d6560e81b6064820152608490fd5b509190346102d757816003193601126102d75780359061102e612176565b6110366121a2565b8285526020828152848620805491956001600160a01b0394909285161561113557866110ab91600284019361106f60ff8654161561260b565b868b60018a600954169301549388519687958694859363a9059cbb60e01b8552840160209093929193604081019460018060a01b031681520152565b03925af190811561112b5792606094926110ef6d555344435f454d455247454e435960901b9360008051602061271e83398151915298968c9161110e575b5061245d565b600160ff19825416179055600e815198808a528901528701521693a380f35b61112591508b3d8d11610765576107578183612285565b386110e9565b83513d8a823e3d90fd5b825162461bcd60e51b81529081018790526011602482015270139bc81554d110c819195c1bdcda5d1959607a1b6044820152606490fd5b50823461077657816003193601126107765760015490516001600160a01b039091168152602090f35b5082346107765781600319360112610776576020906007549051908152f35b50823461077657816003193601126107765760207f62e78cea01bee320cd4e420270b5ea74000d11b0c9f74754ebdbfc544b05a258916111f26121a2565b6111fa6122a7565b6001805460ff60a01b1916600160a01b17905551338152a180f35b509190346102d757816003193601126102d757803590602435906112376122ee565b61123f6122a7565b82855260209080825260018060a01b0361125e8187892054161561239c565b8487526003835261127481878920541615612344565b8487526005835261128e60ff8789205460a01c16156121fa565b831561135d5760095486516323b872dd60e01b815233848201908152306020820152604081018790529092859284928390036060019183918c91165af1908115610cdc579561133a7f8f5781fdb49be2343ca56c67e0fa09ece1a4887afb22f1edccd90c3632601c879361130e889694610b329a8c91611346575061245d565b82519061131a82612269565b33825287858301528a84830152426060830152868b528452828a206123f4565b519384523393a36124a0565b6111259150863d8811610765576107578183612285565b5060649185519162461bcd60e51b835282015260166024820152754d757374206465706f73697420736f6d65205553444360501b6044820152fd5b503461020c578060031936011261020c576113b16121a2565b600180546001600160a01b0319811690915581906001600160a01b03167f8be0079c531659141344cd1fd0a4f28419497f9722a3daafe3b4186f6b6457e08280a380f35b509190346102d75760209182600319360112610a50578135916114166122ee565b8285526005845261143060ff8387205460a01c1615612649565b828552600284528185205460038552828620546001600160a01b03918216159190339082160361151b57509083865260038552858080806001878220611493600282019861148260ff8b54161561260b565b61094f600384015460065490612686565b0154335af16114a06125cb565b50156114e45750906208aa8960eb1b91600160ff19825416179055600381519480865285015283015260008051602061271e83398151915260603393a36001815580f35b825162461bcd60e51b81529081018590526011602482015270115512081c99599d5b990819985a5b1959607a1b6044820152606490fd5b828652838720548116330361164b578561159a8892878452858352600187852091611563600284019761155260ff8a54161561260b565b61094f600386015460065490612686565b60095416910154875194858094819363a9059cbb60e01b8352338b840160209093929193604081019460018060a01b031681520152565b03925af1908115611641578791611624575b50156115ed57805460ff19166001179055815184815293840152635553444360e01b90830152339160008051602061271e83398151915290606090a3610b32565b5083606492519162461bcd60e51b835282015260126024820152711554d110c81c99599d5b990819985a5b195960721b6044820152fd5b61163b9150863d8811610765576107578183612285565b386115ac565b84513d89823e3d90fd5b835162461bcd60e51b8152808401879052601760248201527f4e6f7420796f75722063727970746f206465706f7369740000000000000000006044820152606490fd5b509190346102d757816003193601126102d7578035906116ac612176565b6116b46121a2565b828552600360205283852080546001600160a01b03939084161561177f5786808080600160028701966116eb60ff8954161561260b565b0154875af16116f86125cb565b501561174657509160609160008051602061271e83398151915293600160ff198254161790556c4554485f454d455247454e435960981b86519660208852600d60208901528701521693a380f35b606490602087519162461bcd60e51b83528201526013602482015272115512081d1c985b9cd9995c8819985a5b1959606a1b6044820152fd5b606490602087519162461bcd60e51b8352820152601060248201526f139bc81155120819195c1bdcda5d195960821b6044820152fd5b5082346107765781600319360112610776576020906006549051908152f35b50823461077657816003193601126107765760209060ff60015460a01c1690519015158152f35b509190346102d75760203660031901126102d757606092829135815260056020522090600182549201549060ff81519360018060a01b038116855260a01c1615156020840152820152f35b509190346102d757826003193601126102d7576118616121a2565b6001549060ff8260a01c16156118a9575060ff60a01b1916600155513381527f5db9ee0a495bf2e6ff9c91a7834c1ba4fdd244a5e8aa4e537bd38aeae4b073aa90602090a180f35b606490602084519162461bcd60e51b8352820152601460248201527314185d5cd8589b194e881b9bdd081c185d5cd95960621b6044820152fd5b5091346102d757602080600319360112610a50578235916119026122ee565b828552600582526001938460ff8388205460a01c16151503611da45783865260058352818620546001600160a01b03939084163303611d64578487526002815282872092600384019360ff855416611d2257806002878a8c94015416910154813b156102d75783516323b872dd60e01b81523087820190815233602082015260408101929092529291839182908490829060600103925af18015611c5b57611d13575b50835460ff1990811688179094558588526003825280882054851615611b1e578588526003825280882094600286019560ff875416611ae5578980808b81940154611a006127106119f860075484612595565b0480926125be565b95600854165af1611a0f6125cb565b5015611aa3578880808093335af1611a256125cb565b5015611a625750505083908254161790555b33907f255898c86cfbf62a32125aa6ad84b1687328b28c83569cd720d2d89453337f1a8480a3815580f35b5162461bcd60e51b815291820152601a60248201527f57696e6e657220455448207472616e73666572206661696c6564000000000000604482015260649150fd5b505162461bcd60e51b815291820152601c60248201527f506c6174666f726d20666565207472616e73666572206661696c656400000000604482015260649150fd5b50505162461bcd60e51b815291820152601360248201527211551208185b1c9958591e4818db185a5b5959606a1b604482015260649150fd5b82825280882094600286019560ff875416611cd957888591015491611b9585611b57612710611b4f60075488612595565b0480966125be565b948d846009541690856008541690895180968195829463a9059cbb60e01b9b8c8552840160209093929193604081019460018060a01b031681520152565b03925af1908115611ccf578c91611cb2575b5015611c65576009548451928352338784019081526020810194909452919285928492169082908d90829060400103925af1908115611c5b578991611c3e575b5015611bfd575050508390825416179055611a37565b5162461bcd60e51b815291820152601b60248201527f57696e6e65722055534443207472616e73666572206661696c65640000000000604482015260649150fd5b611c559150833d8511610765576107578183612285565b38611be7565b82513d8b823e3d90fd5b835162461bcd60e51b8152808701869052602160248201527f506c6174666f726d205553444320666565207472616e73666572206661696c656044820152601960fa1b6064820152608490fd5b611cc99150863d8811610765576107578183612285565b38611ba7565b85513d8e823e3d90fd5b50505162461bcd60e51b81529182015260146024820152731554d110c8185b1c9958591e4818db185a5b595960621b604482015260649150fd5b611d1c9061223f565b386119a5565b505162461bcd60e51b815291820152601860248201527f57696e6e696e677320616c726561647920636c61696d65640000000000000000604482015260649150fd5b606492519162461bcd60e51b8352820152601860248201527f4f6e6c792077696e6e65722063616e20776974686472617700000000000000006044820152fd5b82606492519162461bcd60e51b8352820152601260248201527111d85b59481b9bdd0818dbdb5c1b195d195960721b6044820152fd5b50823461077657816003193601126107765760085490516001600160a01b039091168152602090f35b50903461077657602036600319011261077657611e1e6121a2565b3560065580f35b509190346102d75760203660031901126102d7578035835260209081529181902080546001820154600283015460039093015493516001600160a01b0390921682529381019390935260ff16151560408301526060820152608090f35b5091346102d75760203660031901126102d7578060a09383358152600260205220600180851b039283825416936001830154169260028301549160ff6003850154169301549381519586526020860152840152151560608301526080820152f35b50823461077657816003193601126107765760095490516001600160a01b039091168152602090f35b5091346102d757606080600319360112610a505767ffffffffffffffff83358181116104d257611f3f9036908601612140565b91909460243582811161209257611f599036908301612140565b91909260443590811161213c57611f739036908301612140565b939092611f7e6121a2565b8086036120ea5784860361209657908991825b878110611f9c578380f35b878b611fb46103a78460018060a01b039485946126e3565b16611fc36103a7848b8b6126e3565b611fce8486886126e3565b35823b15612092578d516323b872dd60e01b815230818b019081526001600160a01b039093166020840152604083019190915291879183919082908490829060600103925af180156120885760008051602061271e8339815191528c85948f946103a7612074988f8f612048948f99612079575b506126e3565b16936f09c8ca8be8892a48a86a8be8482a886960831b81519160106020808552840152820152a36126d4565b611f91565b6120829061223f565b38612042565b8c513d88823e3d90fd5b8780fd5b875162461bcd60e51b8152602081850152602860248201527f436f6e74726163747320616e6420726563697069656e7473206c656e677468206044820152670dad2e6dac2e8c6d60c31b6064820152608490fd5b875162461bcd60e51b8152602081850152602660248201527f436f6e74726163747320616e6420746f6b656e496473206c656e677468206d696044820152650e6dac2e8c6d60d31b6064820152608490fd5b8880fd5b9181601f840112156121715782359167ffffffffffffffff8311612171576020808501948460051b01011161217157565b600080fd5b602435906001600160a01b038216820361217157565b600435906001600160a01b038216820361217157565b6001546001600160a01b031633036121b657565b606460405162461bcd60e51b815260206004820152602060248201527f4f776e61626c653a2063616c6c6572206973206e6f7420746865206f776e65726044820152fd5b1561220157565b60405162461bcd60e51b815260206004820152601660248201527511d85b5948185b1c9958591e4818dbdb5c1b195d195960521b6044820152606490fd5b67ffffffffffffffff811161225357604052565b634e487b7160e01b600052604160045260246000fd5b6080810190811067ffffffffffffffff82111761225357604052565b90601f8019910116810190811067ffffffffffffffff82111761225357604052565b60ff60015460a01c166122b657565b60405162461bcd60e51b815260206004820152601060248201526f14185d5cd8589b194e881c185d5cd95960821b6044820152606490fd5b6002600054146122ff576002600055565b60405162461bcd60e51b815260206004820152601f60248201527f5265656e7472616e637947756172643a207265656e7472616e742063616c6c006044820152606490fd5b1561234b57565b60405162461bcd60e51b815260206004820152602360248201527f45544820616c7265616479206465706f736974656420666f7220746869732067604482015262616d6560e81b6064820152608490fd5b156123a357565b60405162461bcd60e51b8152602060048201526024808201527f5553444320616c7265616479206465706f736974656420666f7220746869732060448201526367616d6560e01b6064820152608490fd5b90606060039160018060a01b038151166001600160601b0360a01b8554161784556020810151600185015561243e60408201511515600286019060ff801983541691151516179055565b0151910155565b90816020910312612171575180151581036121715790565b1561246457565b60405162461bcd60e51b81526020600482015260146024820152731554d110c81d1c985b9cd9995c8819985a5b195960621b6044820152606490fd5b60008181526002602090815260408083205460038352818420546001600160a01b0394918516151590851615801590612583575b8161257b575b506124e7575b5050505050565b7f1c659750f340e5299f05cfafea9d901858d47405bba10a4235f7b0d2247f1448938261255c9260038652828282205416151560001461256957878152600386526002838383205416965b89835252205492516001600160a01b03919093168116835290921660208201529081906040820190565b0390a238808080806124e0565b60048652600283838320541696612532565b9050386124da565b506004845284838320541615156124d4565b818102929181159184041417156125a857565b634e487b7160e01b600052601160045260246000fd5b919082039182116125a857565b3d15612606573d9067ffffffffffffffff821161225357604051916125fa601f8201601f191660200184612285565b82523d6000602084013e565b606090565b1561261257565b60405162461bcd60e51b815260206004820152600f60248201526e105b1c9958591e4818db185a5b5959608a1b6044820152606490fd5b1561265057565b60405162461bcd60e51b815260206004820152600e60248201526d11d85b594818dbdb5c1b195d195960921b6044820152606490fd5b919082018092116125a857565b1561269a57565b60405162461bcd60e51b815260206004820152601260248201527110d85b9b9bdd081c9958db185a5b481e595d60721b6044820152606490fd5b60001981146125a85760010190565b91908110156126f35760051b0190565b634e487b7160e01b600052603260045260246000fd5b356001600160a01b0381168103612171579056feb9389f406fe2f12fee7d080bbb0bc247c61f84511a9f00d2589ec9bd002507f6a264697066735822122081b1e4f28a17e37592eb249da8c82dc01c349032aeb71a100120bbfbc850248264736f6c63430008140033",
  "linkReferences": {},
  "deployedLinkReferences": {}
}