{
  "_format": "hh-sol-artifact-1",
  "contractName": "NFTFlipGame",
  "sourceName": "contracts/flipnosis.sol",
  "abi": [
    {
      "inputs": [
        {
          "internalType": "address",
          "name": "_ethUsdFeed",
          "type": "address"
        },
        {
          "internalType": "address",
          "name": "_usdcUsdFeed",
          "type": "address"
        },
        {
          "internalType": "address",
          "name": "_usdcToken",
          "type": "address"
        },
        {
          "internalType": "address",
          "name": "_feeReceiver",
          "type": "address"
        }
      ],
      "stateMutability": "nonpayable",
      "type": "constructor"
    },
    {
      "anonymous": false,
      "inputs": [
        {
          "indexed": true,
          "internalType": "uint256",
          "name": "gameId",
          "type": "uint256"
        },
        {
          "indexed": false,
          "internalType": "uint8",
          "name": "round",
          "type": "uint8"
        },
        {
          "indexed": false,
          "internalType": "uint256",
          "name": "endTime",
          "type": "uint256"
        }
      ],
      "name": "CountdownStarted",
      "type": "event"
    },
    {
      "anonymous": false,
      "inputs": [
        {
          "indexed": true,
          "internalType": "uint256",
          "name": "gameId",
          "type": "uint256"
        },
        {
          "indexed": true,
          "internalType": "address",
          "name": "offerer",
          "type": "address"
        },
        {
          "indexed": false,
          "internalType": "uint256",
          "name": "priceUSD",
          "type": "uint256"
        }
      ],
      "name": "CounterOfferAccepted",
      "type": "event"
    },
    {
      "anonymous": false,
      "inputs": [
        {
          "indexed": true,
          "internalType": "uint256",
          "name": "gameId",
          "type": "uint256"
        },
        {
          "indexed": true,
          "internalType": "address",
          "name": "offerer",
          "type": "address"
        },
        {
          "indexed": false,
          "internalType": "uint256",
          "name": "priceUSD",
          "type": "uint256"
        },
        {
          "indexed": false,
          "internalType": "enum NFTFlipGame.PaymentToken",
          "name": "paymentToken",
          "type": "uint8"
        }
      ],
      "name": "CounterOfferMade",
      "type": "event"
    },
    {
      "anonymous": false,
      "inputs": [
        {
          "indexed": true,
          "internalType": "uint256",
          "name": "gameId",
          "type": "uint256"
        },
        {
          "indexed": false,
          "internalType": "uint8",
          "name": "round",
          "type": "uint8"
        },
        {
          "indexed": false,
          "internalType": "enum NFTFlipGame.CoinSide",
          "name": "result",
          "type": "uint8"
        },
        {
          "indexed": false,
          "internalType": "uint8",
          "name": "power",
          "type": "uint8"
        },
        {
          "indexed": false,
          "internalType": "address",
          "name": "flipper",
          "type": "address"
        }
      ],
      "name": "FlipResultEvent",
      "type": "event"
    },
    {
      "anonymous": false,
      "inputs": [
        {
          "indexed": true,
          "internalType": "uint256",
          "name": "gameId",
          "type": "uint256"
        },
        {
          "indexed": true,
          "internalType": "address",
          "name": "creator",
          "type": "address"
        }
      ],
      "name": "GameCancelled",
      "type": "event"
    },
    {
      "anonymous": false,
      "inputs": [
        {
          "indexed": true,
          "internalType": "uint256",
          "name": "gameId",
          "type": "uint256"
        },
        {
          "indexed": true,
          "internalType": "address",
          "name": "winner",
          "type": "address"
        },
        {
          "indexed": false,
          "internalType": "uint256",
          "name": "winnings",
          "type": "uint256"
        },
        {
          "indexed": false,
          "internalType": "uint256",
          "name": "platformFee",
          "type": "uint256"
        }
      ],
      "name": "GameCompleted",
      "type": "event"
    },
    {
      "anonymous": false,
      "inputs": [
        {
          "indexed": true,
          "internalType": "uint256",
          "name": "gameId",
          "type": "uint256"
        },
        {
          "indexed": true,
          "internalType": "address",
          "name": "creator",
          "type": "address"
        },
        {
          "indexed": true,
          "internalType": "address",
          "name": "nftContract",
          "type": "address"
        },
        {
          "indexed": false,
          "internalType": "uint256",
          "name": "tokenId",
          "type": "uint256"
        },
        {
          "indexed": false,
          "internalType": "uint256",
          "name": "priceUSD",
          "type": "uint256"
        },
        {
          "indexed": false,
          "internalType": "enum NFTFlipGame.PaymentToken",
          "name": "acceptedToken",
          "type": "uint8"
        },
        {
          "indexed": false,
          "internalType": "string",
          "name": "authInfo",
          "type": "string"
        }
      ],
      "name": "GameCreated",
      "type": "event"
    },
    {
      "anonymous": false,
      "inputs": [
        {
          "indexed": true,
          "internalType": "uint256",
          "name": "gameId",
          "type": "uint256"
        },
        {
          "indexed": true,
          "internalType": "address",
          "name": "joiner",
          "type": "address"
        },
        {
          "indexed": false,
          "internalType": "enum NFTFlipGame.CoinSide",
          "name": "choice",
          "type": "uint8"
        }
      ],
      "name": "GameJoined",
      "type": "event"
    },
    {
      "anonymous": false,
      "inputs": [
        {
          "indexed": true,
          "internalType": "address",
          "name": "previousOwner",
          "type": "address"
        },
        {
          "indexed": true,
          "internalType": "address",
          "name": "newOwner",
          "type": "address"
        }
      ],
      "name": "OwnershipTransferred",
      "type": "event"
    },
    {
      "anonymous": false,
      "inputs": [
        {
          "indexed": false,
          "internalType": "address",
          "name": "account",
          "type": "address"
        }
      ],
      "name": "Paused",
      "type": "event"
    },
    {
      "anonymous": false,
      "inputs": [
        {
          "indexed": true,
          "internalType": "uint256",
          "name": "gameId",
          "type": "uint256"
        },
        {
          "indexed": false,
          "internalType": "uint8",
          "name": "round",
          "type": "uint8"
        },
        {
          "indexed": false,
          "internalType": "address",
          "name": "flipper",
          "type": "address"
        }
      ],
      "name": "TurnStarted",
      "type": "event"
    },
    {
      "anonymous": false,
      "inputs": [
        {
          "indexed": false,
          "internalType": "address",
          "name": "account",
          "type": "address"
        }
      ],
      "name": "Unpaused",
      "type": "event"
    },
    {
      "inputs": [],
      "name": "COUNTDOWN_DURATION",
      "outputs": [
        {
          "internalType": "uint256",
          "name": "",
          "type": "uint256"
        }
      ],
      "stateMutability": "view",
      "type": "function"
    },
    {
      "inputs": [],
      "name": "MAX_FEE_PERCENT",
      "outputs": [
        {
          "internalType": "uint256",
          "name": "",
          "type": "uint256"
        }
      ],
      "stateMutability": "view",
      "type": "function"
    },
    {
      "inputs": [],
      "name": "TURN_TIMEOUT",
      "outputs": [
        {
          "internalType": "uint256",
          "name": "",
          "type": "uint256"
        }
      ],
      "stateMutability": "view",
      "type": "function"
    },
    {
      "inputs": [
        {
          "internalType": "uint256",
          "name": "_gameId",
          "type": "uint256"
        }
      ],
      "name": "cancelGame",
      "outputs": [],
      "stateMutability": "nonpayable",
      "type": "function"
    },
    {
      "inputs": [
        {
          "components": [
            {
              "internalType": "address",
              "name": "nftContract",
              "type": "address"
            },
            {
              "internalType": "uint256",
              "name": "tokenId",
              "type": "uint256"
            },
            {
              "internalType": "uint256",
              "name": "priceUSD",
              "type": "uint256"
            },
            {
              "internalType": "enum NFTFlipGame.PaymentToken",
              "name": "acceptedToken",
              "type": "uint8"
            },
            {
              "internalType": "uint8",
              "name": "maxRounds",
              "type": "uint8"
            },
            {
              "internalType": "string",
              "name": "authInfo",
              "type": "string"
            }
          ],
          "internalType": "struct NFTFlipGame.CreateGameParams",
          "name": "params",
          "type": "tuple"
        }
      ],
      "name": "createGame",
      "outputs": [
        {
          "internalType": "uint256",
          "name": "",
          "type": "uint256"
        }
      ],
      "stateMutability": "nonpayable",
      "type": "function"
    },
    {
      "inputs": [
        {
          "internalType": "address",
          "name": "_token",
          "type": "address"
        },
        {
          "internalType": "uint256",
          "name": "_amount",
          "type": "uint256"
        }
      ],
      "name": "emergencyWithdraw",
      "outputs": [],
      "stateMutability": "nonpayable",
      "type": "function"
    },
    {
      "inputs": [
        {
          "internalType": "address",
          "name": "_nftContract",
          "type": "address"
        },
        {
          "internalType": "uint256",
          "name": "_tokenId",
          "type": "uint256"
        }
      ],
      "name": "emergencyWithdrawNFT",
      "outputs": [],
      "stateMutability": "nonpayable",
      "type": "function"
    },
    {
      "inputs": [],
      "name": "ethUsdFeed",
      "outputs": [
        {
          "internalType": "contract AggregatorV3Interface",
          "name": "",
          "type": "address"
        }
      ],
      "stateMutability": "view",
      "type": "function"
    },
    {
      "inputs": [],
      "name": "feeReceiver",
      "outputs": [
        {
          "internalType": "address",
          "name": "",
          "type": "address"
        }
      ],
      "stateMutability": "view",
      "type": "function"
    },
    {
      "inputs": [
        {
          "internalType": "uint256",
          "name": "_gameId",
          "type": "uint256"
        },
        {
          "internalType": "uint8",
          "name": "_power",
          "type": "uint8"
        }
      ],
      "name": "flip",
      "outputs": [],
      "stateMutability": "nonpayable",
      "type": "function"
    },
    {
      "inputs": [
        {
          "internalType": "uint256",
          "name": "",
          "type": "uint256"
        }
      ],
      "name": "gameAuthInfo",
      "outputs": [
        {
          "internalType": "string",
          "name": "",
          "type": "string"
        }
      ],
      "stateMutability": "view",
      "type": "function"
    },
    {
      "inputs": [
        {
          "internalType": "uint256",
          "name": "",
          "type": "uint256"
        }
      ],
      "name": "gameCores",
      "outputs": [
        {
          "internalType": "uint256",
          "name": "gameId",
          "type": "uint256"
        },
        {
          "internalType": "address",
          "name": "creator",
          "type": "address"
        },
        {
          "internalType": "address",
          "name": "joiner",
          "type": "address"
        },
        {
          "internalType": "address",
          "name": "nftContract",
          "type": "address"
        },
        {
          "internalType": "uint256",
          "name": "tokenId",
          "type": "uint256"
        },
        {
          "internalType": "enum NFTFlipGame.GameState",
          "name": "state",
          "type": "uint8"
        },
        {
          "internalType": "enum NFTFlipGame.PlayerRole",
          "name": "creatorRole",
          "type": "uint8"
        },
        {
          "internalType": "enum NFTFlipGame.PlayerRole",
          "name": "joinerRole",
          "type": "uint8"
        },
        {
          "internalType": "enum NFTFlipGame.CoinSide",
          "name": "joinerChoice",
          "type": "uint8"
        }
      ],
      "stateMutability": "view",
      "type": "function"
    },
    {
      "inputs": [
        {
          "internalType": "uint256",
          "name": "",
          "type": "uint256"
        },
        {
          "internalType": "uint256",
          "name": "",
          "type": "uint256"
        }
      ],
      "name": "gameCounterOffers",
      "outputs": [
        {
          "internalType": "address",
          "name": "offerer",
          "type": "address"
        },
        {
          "internalType": "uint256",
          "name": "priceUSD",
          "type": "uint256"
        },
        {
          "internalType": "enum NFTFlipGame.PaymentToken",
          "name": "paymentToken",
          "type": "uint8"
        },
        {
          "internalType": "bool",
          "name": "active",
          "type": "bool"
        },
        {
          "internalType": "uint256",
          "name": "expiresAt",
          "type": "uint256"
        }
      ],
      "stateMutability": "view",
      "type": "function"
    },
    {
      "inputs": [],
      "name": "gameExpiryDuration",
      "outputs": [
        {
          "internalType": "uint256",
          "name": "",
          "type": "uint256"
        }
      ],
      "stateMutability": "view",
      "type": "function"
    },
    {
      "inputs": [
        {
          "internalType": "uint256",
          "name": "",
          "type": "uint256"
        }
      ],
      "name": "gameFinancials",
      "outputs": [
        {
          "internalType": "uint256",
          "name": "priceUSD",
          "type": "uint256"
        },
        {
          "internalType": "enum NFTFlipGame.PaymentToken",
          "name": "acceptedToken",
          "type": "uint8"
        },
        {
          "internalType": "uint256",
          "name": "totalPaid",
          "type": "uint256"
        },
        {
          "internalType": "enum NFTFlipGame.PaymentToken",
          "name": "paymentTokenUsed",
          "type": "uint8"
        }
      ],
      "stateMutability": "view",
      "type": "function"
    },
    {
      "inputs": [
        {
          "internalType": "uint256",
          "name": "",
          "type": "uint256"
        }
      ],
      "name": "gameProgress",
      "outputs": [
        {
          "internalType": "uint256",
          "name": "createdAt",
          "type": "uint256"
        },
        {
          "internalType": "uint256",
          "name": "expiresAt",
          "type": "uint256"
        },
        {
          "internalType": "uint8",
          "name": "maxRounds",
          "type": "uint8"
        },
        {
          "internalType": "uint8",
          "name": "currentRound",
          "type": "uint8"
        },
        {
          "internalType": "uint8",
          "name": "creatorWins",
          "type": "uint8"
        },
        {
          "internalType": "uint8",
          "name": "joinerWins",
          "type": "uint8"
        },
        {
          "internalType": "address",
          "name": "winner",
          "type": "address"
        },
        {
          "internalType": "uint256",
          "name": "lastActionTime",
          "type": "uint256"
        },
        {
          "internalType": "uint256",
          "name": "countdownEndTime",
          "type": "uint256"
        }
      ],
      "stateMutability": "view",
      "type": "function"
    },
    {
      "inputs": [
        {
          "internalType": "uint256",
          "name": "",
          "type": "uint256"
        },
        {
          "internalType": "uint8",
          "name": "",
          "type": "uint8"
        }
      ],
      "name": "gameRounds",
      "outputs": [
        {
          "internalType": "enum NFTFlipGame.CoinSide",
          "name": "result",
          "type": "uint8"
        },
        {
          "internalType": "uint8",
          "name": "power",
          "type": "uint8"
        },
        {
          "internalType": "bool",
          "name": "completed",
          "type": "bool"
        },
        {
          "internalType": "address",
          "name": "flipper",
          "type": "address"
        }
      ],
      "stateMutability": "view",
      "type": "function"
    },
    {
      "inputs": [
        {
          "internalType": "uint256",
          "name": "_gameId",
          "type": "uint256"
        }
      ],
      "name": "getGameBasic",
      "outputs": [
        {
          "internalType": "uint256",
          "name": "gameId",
          "type": "uint256"
        },
        {
          "internalType": "address",
          "name": "creator",
          "type": "address"
        },
        {
          "internalType": "address",
          "name": "joiner",
          "type": "address"
        },
        {
          "internalType": "address",
          "name": "nftContract",
          "type": "address"
        },
        {
          "internalType": "uint256",
          "name": "tokenId",
          "type": "uint256"
        },
        {
          "internalType": "uint256",
          "name": "priceUSD",
          "type": "uint256"
        },
        {
          "internalType": "enum NFTFlipGame.PaymentToken",
          "name": "acceptedToken",
          "type": "uint8"
        },
        {
          "internalType": "enum NFTFlipGame.GameState",
          "name": "state",
          "type": "uint8"
        },
        {
          "internalType": "string",
          "name": "authInfo",
          "type": "string"
        }
      ],
      "stateMutability": "view",
      "type": "function"
    },
    {
      "inputs": [
        {
          "internalType": "uint256",
          "name": "_gameId",
          "type": "uint256"
        }
      ],
      "name": "getGameProgress",
      "outputs": [
        {
          "internalType": "uint256",
          "name": "createdAt",
          "type": "uint256"
        },
        {
          "internalType": "uint256",
          "name": "expiresAt",
          "type": "uint256"
        },
        {
          "internalType": "uint8",
          "name": "maxRounds",
          "type": "uint8"
        },
        {
          "internalType": "uint8",
          "name": "currentRound",
          "type": "uint8"
        },
        {
          "internalType": "uint8",
          "name": "creatorWins",
          "type": "uint8"
        },
        {
          "internalType": "uint8",
          "name": "joinerWins",
          "type": "uint8"
        },
        {
          "internalType": "address",
          "name": "winner",
          "type": "address"
        },
        {
          "internalType": "uint256",
          "name": "lastActionTime",
          "type": "uint256"
        },
        {
          "internalType": "uint256",
          "name": "countdownEndTime",
          "type": "uint256"
        }
      ],
      "stateMutability": "view",
      "type": "function"
    },
    {
      "inputs": [
        {
          "internalType": "uint256",
          "name": "_gameId",
          "type": "uint256"
        },
        {
          "internalType": "uint8",
          "name": "_round",
          "type": "uint8"
        }
      ],
      "name": "getGameRound",
      "outputs": [
        {
          "internalType": "enum NFTFlipGame.CoinSide",
          "name": "result",
          "type": "uint8"
        },
        {
          "internalType": "uint8",
          "name": "power",
          "type": "uint8"
        },
        {
          "internalType": "bool",
          "name": "completed",
          "type": "bool"
        },
        {
          "internalType": "address",
          "name": "flipper",
          "type": "address"
        }
      ],
      "stateMutability": "view",
      "type": "function"
    },
    {
      "inputs": [
        {
          "internalType": "address",
          "name": "_user",
          "type": "address"
        }
      ],
      "name": "getUserGames",
      "outputs": [
        {
          "internalType": "uint256[]",
          "name": "",
          "type": "uint256[]"
        }
      ],
      "stateMutability": "view",
      "type": "function"
    },
    {
      "inputs": [
        {
          "internalType": "uint256",
          "name": "_gameId",
          "type": "uint256"
        },
        {
          "internalType": "enum NFTFlipGame.CoinSide",
          "name": "_choice",
          "type": "uint8"
        }
      ],
      "name": "joinGame",
      "outputs": [],
      "stateMutability": "nonpayable",
      "type": "function"
    },
    {
      "inputs": [],
      "name": "listingFeeUSD",
      "outputs": [
        {
          "internalType": "uint256",
          "name": "",
          "type": "uint256"
        }
      ],
      "stateMutability": "view",
      "type": "function"
    },
    {
      "inputs": [],
      "name": "nativeToken",
      "outputs": [
        {
          "internalType": "address",
          "name": "",
          "type": "address"
        }
      ],
      "stateMutability": "view",
      "type": "function"
    },
    {
      "inputs": [],
      "name": "nextGameId",
      "outputs": [
        {
          "internalType": "uint256",
          "name": "",
          "type": "uint256"
        }
      ],
      "stateMutability": "view",
      "type": "function"
    },
    {
      "inputs": [],
      "name": "offerExpiryDuration",
      "outputs": [
        {
          "internalType": "uint256",
          "name": "",
          "type": "uint256"
        }
      ],
      "stateMutability": "view",
      "type": "function"
    },
    {
      "inputs": [],
      "name": "owner",
      "outputs": [
        {
          "internalType": "address",
          "name": "",
          "type": "address"
        }
      ],
      "stateMutability": "view",
      "type": "function"
    },
    {
      "inputs": [],
      "name": "pause",
      "outputs": [],
      "stateMutability": "nonpayable",
      "type": "function"
    },
    {
      "inputs": [],
      "name": "paused",
      "outputs": [
        {
          "internalType": "bool",
          "name": "",
          "type": "bool"
        }
      ],
      "stateMutability": "view",
      "type": "function"
    },
    {
      "inputs": [],
      "name": "renounceOwnership",
      "outputs": [],
      "stateMutability": "nonpayable",
      "type": "function"
    },
    {
      "inputs": [
        {
          "internalType": "address",
          "name": "_feeReceiver",
          "type": "address"
        }
      ],
      "name": "setFeeReceiver",
      "outputs": [],
      "stateMutability": "nonpayable",
      "type": "function"
    },
    {
      "inputs": [
        {
          "internalType": "uint256",
          "name": "_listingFeeUSD",
          "type": "uint256"
        },
        {
          "internalType": "uint256",
          "name": "_winningsFeePercent",
          "type": "uint256"
        }
      ],
      "name": "setFees",
      "outputs": [],
      "stateMutability": "nonpayable",
      "type": "function"
    },
    {
      "inputs": [
        {
          "internalType": "uint256",
          "name": "_gameExpiryDuration",
          "type": "uint256"
        },
        {
          "internalType": "uint256",
          "name": "_offerExpiryDuration",
          "type": "uint256"
        }
      ],
      "name": "setGameSettings",
      "outputs": [],
      "stateMutability": "nonpayable",
      "type": "function"
    },
    {
      "inputs": [
        {
          "internalType": "address",
          "name": "_nativeToken",
          "type": "address"
        }
      ],
      "name": "setNativeToken",
      "outputs": [],
      "stateMutability": "nonpayable",
      "type": "function"
    },
    {
      "inputs": [
        {
          "internalType": "address",
          "name": "_ethUsdFeed",
          "type": "address"
        },
        {
          "internalType": "address",
          "name": "_usdcUsdFeed",
          "type": "address"
        }
      ],
      "name": "setPriceFeeds",
      "outputs": [],
      "stateMutability": "nonpayable",
      "type": "function"
    },
    {
      "inputs": [
        {
          "internalType": "uint256",
          "name": "_gameId",
          "type": "uint256"
        }
      ],
      "name": "startCountdown",
      "outputs": [],
      "stateMutability": "nonpayable",
      "type": "function"
    },
    {
      "inputs": [
        {
          "internalType": "address",
          "name": "newOwner",
          "type": "address"
        }
      ],
      "name": "transferOwnership",
      "outputs": [],
      "stateMutability": "nonpayable",
      "type": "function"
    },
    {
      "inputs": [],
      "name": "unpause",
      "outputs": [],
      "stateMutability": "nonpayable",
      "type": "function"
    },
    {
      "inputs": [],
      "name": "usdcToken",
      "outputs": [
        {
          "internalType": "address",
          "name": "",
          "type": "address"
        }
      ],
      "stateMutability": "view",
      "type": "function"
    },
    {
      "inputs": [],
      "name": "usdcUsdFeed",
      "outputs": [
        {
          "internalType": "contract AggregatorV3Interface",
          "name": "",
          "type": "address"
        }
      ],
      "stateMutability": "view",
      "type": "function"
    },
    {
      "inputs": [
        {
          "internalType": "address",
          "name": "",
          "type": "address"
        },
        {
          "internalType": "uint256",
          "name": "",
          "type": "uint256"
        }
      ],
      "name": "userGames",
      "outputs": [
        {
          "internalType": "uint256",
          "name": "",
          "type": "uint256"
        }
      ],
      "stateMutability": "view",
      "type": "function"
    },
    {
      "inputs": [],
      "name": "winningsFeePercent",
      "outputs": [
        {
          "internalType": "uint256",
          "name": "",
          "type": "uint256"
        }
      ],
      "stateMutability": "view",
      "type": "function"
    },
    {
      "stateMutability": "payable",
      "type": "receive"
    }
  ],
  "bytecode": "0x6080346200012c57601f62002fae38819003918201601f19168301916001600160401b0383118484101762000131578084926080946040528339810103126200012c576200004d8162000147565b6200005b6020830162000147565b6200007760606200006f6040860162000147565b940162000147565b60016000556001546040519460018060a01b0380948193338382167f8be0079c531659141344cd1fd0a4f28419497f9722a3daafe3b4186f6b6457e0600080a360ff60a01b1933169060018060a81b03191617600155600160095562030d40600a556101f4600b5562093a80601055620151806011558160018060a01b0319971687600c541617600c551685600d541617600d551683600e541617600e5516906012541617601255612e5190816200015d8239f35b600080fd5b634e487b7160e01b600052604160045260246000fd5b51906001600160a01b03821682036200012c5756fe6080604052600436101561001b575b361561001957600080fd5b005b6000803560e01c8063068f158d146127995780630b1fb0021461277b5780630b78f9c01461271d57806311eac855146126f4578063120aace61461264657806315e163fb1461246b578063175a2bd11461244a578063279efa941461240b5780633a38d063146123ed5780633d05cfdc146123cf5780633f4ba83a146123325780633fd42eb41461193f5780634d9a75e5146119165780635c975abb146118f05780635e82ff65146118d457806367d81740146118b757806369958ab9146116ac5780636da1e1021461166c5780636fadc5fe146115cf578063715018a6146115715780637b09a1f4146115185780637bbc3fcf14610dca5780638009b7bd14610da15780638057cbbb14610d3e5780638456cb5914610cdb57806387bd15ef14610aa25780638da5cb5b14610a79578063922b8079146109e357806395ccea67146108fe578063abf1b86e14610840578063ae48612b146107c1578063b135bbb0146107a3578063b3f006741461077a578063bc0167cd14610724578063ca6649c5146104e1578063d24c9eee14610413578063dbb19dad1461039e578063de84004114610380578063e1758bd814610357578063ec71394a1461033b578063efdcd974146102bd5763f2fde38b146101f5575061000e565b346102ba5760203660031901126102ba5761020e6127f3565b610216612ad4565b6001600160a01b0390811690811561026657600154826001600160601b0360a01b821617600155167f8be0079c531659141344cd1fd0a4f28419497f9722a3daafe3b4186f6b6457e0600080a380f35b60405162461bcd60e51b815260206004820152602660248201527f4f776e61626c653a206e6577206f776e657220697320746865207a65726f206160448201526564647265737360d01b6064820152608490fd5b80fd5b50346102ba5760203660031901126102ba576102d76127f3565b6102df612ad4565b6001600160a01b03168015610304576001600160601b0360a01b601254161760125580f35b60405162461bcd60e51b815260206004820152600f60248201526e496e76616c6964206164647265737360881b6044820152606490fd5b50346102ba57806003193601126102ba57602060405160058152f35b50346102ba57806003193601126102ba57600f546040516001600160a01b039091168152602090f35b50346102ba57806003193601126102ba576020601054604051908152f35b50346102ba5760203660031901126102ba57604090600435815260046020522080549061040f600182015491600281015490600460038201549101549160405195869560018060a01b038360201c169260ff8160181c169260ff8260101c169260ff808460081c169316918a612a86565b0390f35b50346102ba5760203660031901126102ba576040906004356009548110806104d8575b61043f90612c4a565b815260046020522060405190610454826128ce565b61040f610100825492838552600181015494856020820152600282015460ff811680604084015260ff8260081c1680606085015260ff8360101c169182608086015260ff8460181c16938460a087015260018060a01b039060201c16948560c082015260046003880154978860e084015201549788910152604051998a998a612a86565b50801515610436565b50346102ba5760403660031901126102ba576002602435600435828210156107205761050b612bad565b610513612bf4565b600954811080610717575b61052790612c4a565b808452602083815260ff60056040872001541660068110156107035761054d9015612c8c565b81855283815260019360018060a01b03856040882001541633146106c757828652600482528460408720015442101561069357907f9543429ff4d0366bda7e6f7907ab4d8c123ad250f9a8d6ecffabe880ab084e04918560405183810190428252446040820152866060820152606081526105c781612901565b51902016158488528183526105f786600560408b20858101336001600160601b0360a01b82541617905501612ccd565b801561068a57610614885b868a52838552600560408b2001612cf0565b1561068157610630865b858952828452600560408a2001612d0f565b8387528152600560408720018560ff19825416179055828652600481524260036040882001553386526007815261066a8360408820612b40565b6040519361067781612a19565b84523393a3815580f35b6106308761061e565b61061487610602565b60405162461bcd60e51b815260048101839052600c60248201526b11d85b5948195e1c1a5c995960a21b6044820152606490fd5b60405162461bcd60e51b815260048101839052601460248201527343616e6e6f74206a6f696e206f776e2067616d6560601b6044820152606490fd5b634e487b7160e01b86526021600452602486fd5b5080151561051e565b8380fd5b50346102ba5760403660031901126102ba5761073e6127f3565b6001600160a01b03168152600760205260408120805460243592908310156102ba57602061076c8484612a58565b90546040519160031b1c8152f35b50346102ba57806003193601126102ba576012546040516001600160a01b039091168152602090f35b50346102ba57806003193601126102ba576020600954604051908152f35b50346102ba576107d03661280e565b908252600660205260408220805482101561083c578260209160a09452209060021b01600180831b038154169060ff6001820154916003600282015491015492604051948552602085015261082a60408501838316612824565b60081c16151560608301526080820152f35b8280fd5b50346102ba5760203660031901126102ba57604061012091600435815260026020522080549060018060a01b0380600183015416916108d1826002830154169260038301541691600560048201549101549060ff8260081c169360ff8360101c169560ff8460181c1697604051998a5260208a015260408901526060880152608087015260ff60a087019116612847565b6108da81612a19565b60c08401526108e881612a19565b60e08301526108f681612a19565b610100820152f35b50346102ba5760403660031901126102ba57806109196127f3565b60243590610925612ad4565b6001600160a01b0390811680610965575082809281926001541682821561095c575bf1156109505780f35b604051903d90823e3d90fd5b506108fc610947565b60015460405163a9059cbb60e01b815292166001600160a01b031660048301526024820192909252915060209082908185816044810103925af180156109d8576109ad575080f35b6109cd9060203d81116109d1575b6109c58183612931565b810190612e03565b5080f35b503d6109bb565b6040513d84823e3d90fd5b50346102ba5760403660031901126102ba57806109fe6127f3565b610a06612ad4565b6001546001600160a01b039081169116803b15610a75576040516323b872dd60e01b81523060048201526001600160a01b039290921660248084019190915235604483015282908290606490829084905af180156109d857610a655750f35b610a6e9061291d565b6102ba5780f35b5050fd5b50346102ba57806003193601126102ba576001546040516001600160a01b039091168152602090f35b50346102ba57602080600319360112610cd75760043590610ac1612bad565b610ac9612bf4565b600954821080610cce575b610add90612c4a565b818352600280825260ff806005604087200154166006811015610703576001610b069114612c8c565b838552818352610c0760408620610b3960018060a01b03918286816001840154163314928315610cbf575b505050612d30565b8587528385526040872060405191610b50836128ce565b8154835280600183015416928781019384526005828885015416936040830194855283600382015416606084015260048101546080840152015490610b9a87831660a08301612d70565b868260081c169060c0810191610baf81612a19565b825261010088808560101c169460e0840195610bca81612a19565b865260181c1691610bda83612a19565b015251610be681612a19565b610bef81612a19565b159384610cb2575b508315610c7b575b505050612d7c565b6005420191824211610c6757917f691488032358f2f429ebc3e391e4ad8c59592e466cea1e7c2b98244d1adef316939160409386885260048452848820836004820155426003820155015460081c16918351928352820152a26001815580f35b634e487b7160e01b86526011600452602486fd5b9091925051610c8981612a19565b610c9281612a19565b159182610ca4575b5050388080610bff565b909150511633143880610c9a565b5182163314935038610bf7565b01541633149050828638610b31565b50811515610ad4565b5080fd5b50346102ba57806003193601126102ba57610cf4612ad4565b610cfc612bad565b6001805460ff60a01b1916600160a01b1790556040513381527f62e78cea01bee320cd4e420270b5ea74000d11b0c9f74754ebdbfc544b05a25890602090a180f35b50346102ba5760203660031901126102ba5760406080916004358152600360205220610d9f81549160ff60018201541690610d9060ff6003600284015493015416926040519586526020860190612824565b60408401526060830190612824565bf35b50346102ba57806003193601126102ba57600c546040516001600160a01b039091168152602090f35b50346102ba57600319602036820112610cd75767ffffffffffffffff60043511610cd75760c090600435360301126102ba57610e04612bad565b610e0c612bf4565b600560ff610e1e608460043501612dd1565b161480156114fe575b156114b9576044600435013515611474576001600160a01b03610e4d6004803501612b2c565b161561143857806001600160a01b03610e696004803501612b2c565b16803b15611435576040516323b872dd60e01b815233600480830191909152306024808401919091529035013560448201529082908290606490829084905af180156109d857611421575b5050600954600019811461140d5760018101600955610ed7600435600401612b2c565b60405190610ee4826128ce565b82825233602083015283604083015260018060a01b031660608201526024600435013560808201528260a08201528260c0820152600160e08201528261010082015281835260026020526040832090805182556001820160018060a01b036020830151166001600160601b0360a01b8254161790556002820160018060a01b036040830151166001600160601b0360a01b8254161790556003820160018060a01b036060830151166001600160601b0360a01b8254161790556080810151600483015560a08101519160068310156113f95761100e9291600561010092019260ff80198554169116178355610fe660c0820151610fe081612a19565b84612cf0565b610ffd60e0820151610ff781612a19565b84612d0f565b01519061100982612a19565b612ccd565b6003606460043501351015610cd75760405161102981612901565b60446004350135815260208101906110476064600435013583612ddf565b83604082015283606082015282845260036020526040842091815183555160038110156113f9579061107e60609260018501612deb565b6040810151600284015501519060038210156113e5579060036110a19201612deb565b60105442018042116113cf5760ff6110bd608460043501612dd1565b604051926110ca846128ce565b4284526020840152166040820152600160608201528260808201528260a08201528260c08201524260e08201528261010082015281835260046020526004610100604085209280518455602081015160018501556111bd6002850160ff60408401511660ff1982541617815561115860ff606085015116829061ff0082549160081b169061ff001916179055565b6080830151815462ff0000191660109190911b62ff00001617815560a0830151815463ff000000191660189190911b63ff0000001617815560c08301518154640100000000600160c01b03191660209190911b640100000000600160c01b0316179055565b60e0810151600385015501519101556111e060a460043501600435600401612b7a565b91909260086020526040812067ffffffffffffffff84116113bb576112058154612894565b94601f8611611379575b602095508290601f861160011461131157948091600195968592611306575b5050600019600383901b1c191690841b1790555b338152600784526112568360408320612b40565b611264600435600401612b2c565b7fede926ca24bef9b3f259c437d489796a51decbb58ec6f0a60ea2e614b2724b958461129a60a460043501600435600401612b7a565b9290938360405195602460043501358752604460043501358b8801526112c96040880160646004350135612824565b6080606088015281608088015260a08701378560a08587010152868060a01b03169360a0813395601f80199101168101030190a455604051908152f35b01359050388061122e565b82845286842091845b601f1988168110611362575091869160019697938794601f19811610611348575b505050811b019055611242565b0135600019600384901b60f8161c1916905538808061133b565b90928860018192868601358155019401910161131a565b81835260208320601f860160051c8101602087106113b4575b601f880160051c820181106113a857505061120f565b60008155600101611392565b5080611392565b634e487b7160e01b82526041600452602482fd5b634e487b7160e01b600052601160045260246000fd5b634e487b7160e01b84526021600452602484fd5b634e487b7160e01b85526021600452602485fd5b634e487b7160e01b82526011600452602482fd5b61142a9061291d565b6102ba578038610eb4565b50fd5b60405162461bcd60e51b8152602060048201526014602482015273125b9d985b1a59081391950818dbdb9d1c9858dd60621b6044820152606490fd5b60405162461bcd60e51b815260206004820152601c60248201527f5072696365206d7573742062652067726561746572207468616e2030000000006044820152606490fd5b60405162461bcd60e51b815260206004820152601960248201527f4d617820726f756e6473206d7573742062652035206f722037000000000000006044820152606490fd5b50600760ff611511608460043501612dd1565b1614610e27565b50346102ba5760ff604061152b366129f9565b93908152600560205220911660005260205261040f60406000205460405191829160018060a01b038160181c169060ff8160101c169060ff808260081c16911685612a23565b50346102ba57806003193601126102ba5761158a612ad4565b600180546001600160a01b031981169091556000906001600160a01b03167f8be0079c531659141344cd1fd0a4f28419497f9722a3daafe3b4186f6b6457e08280a380f35b50346102ba5760ff60406115e2366129f9565b93908152600560205220911660005260205260406000206040519061160682612901565b5461040f60ff82169161161883612a19565b828452602084019060ff8160081c16825260ff60606040870196828460101c1615158852019260018060a01b03809360181c16845261165686612a19565b5116945115159151169060405194859485612a23565b50346102ba5760203660031901126102ba576116866127f3565b61168e612ad4565b60018060a01b03166001600160601b0360a01b600f541617600f5580f35b50346102ba57602080600319360112610cd757600435906116cb612bf4565b6009548210806118ae575b6116df90612c4a565b8183526002815260408320600101546001600160a01b03919082163303611876578284526002815260ff60056040862001541660068110156113f9576117259015612c8c565b8284526002815260056040852001600560ff1982541617905582845260028152836040812083604051611757816128ce565b825481528160018401541694810194855281600284015416604082015281600384015416906060810191825261010060ff60056004870154966080850197885201546117a882821660a08601612d70565b818160081c166117b781612a19565b60c0850152818160101c166117cb81612a19565b60e085015260181c16916117de83612a19565b0152511690848451169051823b15610720576040516323b872dd60e01b81523060048201526001600160a01b0392909216602483015260448201529082908290606490829084905af180156109d857611862575b50505116907f58f64e02b3a6d2a3bd28b7700a0a0d6699545bcb55bf917ac0ff670f3a509efb8380a36001815580f35b61186b9061291d565b610720578338611832565b6064906040519062461bcd60e51b82526004820152601160248201527027b7363c9033b0b6b29031b932b0ba37b960791b6044820152fd5b508115156116d6565b50346102ba57806003193601126102ba5760206040516103e88152f35b50346102ba57806003193601126102ba576020604051601e8152f35b50346102ba57806003193601126102ba57602060ff60015460a01c166040519015158152f35b50346102ba57806003193601126102ba57600d546040516001600160a01b039091168152602090f35b50346102ba5761194e366129f9565b611956612bad565b61195e612bf4565b600954821080612329575b61197290612c4a565b818352600260205261199e6040842060018060a01b036001820154163314908115612312575b50612d30565b8183526002602052604083206005604051916119b9836128ce565b8054835260018101546001600160a01b039081166020850152600282015481166040850152600382015416606084015260048101546080840152015491611a0660ff841660a08401612d70565b60ff8360081c16611a1681612a19565b60c083015260ff808460101c1693611a2d85612a19565b60e0840194855260181c16611a4181612a19565b6101008301528385526004602052604085209260c0830151611a6281612a19565b611a6b81612a19565b15806122fc575b80156122c2575b611a839150612d7c565b600483015442106122845760ff8116151580612276575b156122415760028301549084865260056020526040862060ff8360081c1687526020526040862060405142602082015244604082015286606082015260ff60f81b808560f01b1660808301528360f81b166081820152606281528060a081011067ffffffffffffffff60a08301111761222d579260ff7f090ba162c2bb0046be3a12fa1ef492cc3502e55978c9c716e1b67764da653c09938160809460018860a08d9a01604052602081519101201615600014612226578b5b611b5c81612a19565b815461ff00199184168419919091161716600884901b61ff0016178155805462010000600160b81b031981163360181b6301000000600160b81b031617620100001782556101008a0151908316611bb282612a19565b611bbb82612a19565b611bc481612a19565b036121f057611bfc611bde8360028d015460181c16612dc0565b60028c019063ff00000082549160181b169063ff0000001916179055565b5416826040519460081c168452611c1281612a19565b6020840152166040820152336060820152a260028201549060ff6001607f84821c1601116121dc5760ff6001607f84821c1601168060ff8460101c1610908115916121cb575b501561211957505050808252600260205260408220906002600560405193611c7f856128ce565b8054855260018101546001600160a01b0390811660208701528382015481166040870152600382015416606086015260048101546080860152015460a084019060ff90611cce82821684612d70565b818160081c16611cdd81612a19565b60c0870152818160101c16611cf181612a19565b60e087015260181c16611d0381612a19565b610100850152828552600460205260036040862091520191825460ff808260181c169160101c16116000146120ea576020908101518354640100000000600160c01b031916911b640100000000600160c01b03161782555b8083526003602052600260408420015491600b54928381029381850414901517156120d65781845260036020526002604085200154906127108404820391808311610c675760018060a01b03825460201c1690848752600360205260ff60036040892001541660038110156120c25791879183869415600014611fdf575082938392839283906127108c0414611fd6575bf115611fc1578480808060018060a01b036012541681906127108a0415611fcc575b6127108a0491f115611fc1575b60018060a01b03815460201c1683865260026020528560408120604051611e41816128ce565b8154815260018201546001600160a01b039081166020830152600283015481166040830152600383015416606082019081526004830154608083019081526005909301549091906101009060ff90611e9e81831660a08601612d70565b818160081c16611ead81612a19565b60c0850152818160101c16611ec181612a19565b60e085015260181c1691611ed483612a19565b0152519051906001600160a01b0316803b1561083c576040516323b872dd60e01b81523060048201526001600160a01b0394909416602485015260448401919091528290606490829084905af18015611fb657611f7a575b5054604080519283526127109094046020838101919091521c6001600160a01b0316927fa3a193cd49fb44d3709b2d13235998e900d960268b8356d3c2233340fd215c3891a35b6001815580f35b9161271060409296611fac7fa3a193cd49fb44d3709b2d13235998e900d960268b8356d3c2233340fd215c389561291d565b9692505091611f2c565b6040513d88823e3d90fd5b6040513d86823e3d90fd5b6108fc9150611e0e565b506108fc611dec565b91925050600114611ff2575b5050611e1b565b600e5460405163a9059cbb60e01b81526001600160a01b0392831660048201526024810193909352602091839160449183918b91165af18015611fb6576120a3575b50600e5460125460405163a9059cbb60e01b81526001600160a01b0391821660048201526127108704602482015291602091839160449183918b91165af18015611fb657612084575b8290611feb565b61209c9060203d6020116109d1576109c58183612931565b503861207d565b6120bb9060203d6020116109d1576109c58183612931565b5038612034565b634e487b7160e01b88526021600452602488fd5b634e487b7160e01b84526011600452602484fd5b604001518254640100000000600160c01b03191660209190911b640100000000600160c01b0316178255611d5b565b60ff60027f82ac985eec835b3d85ac933b820e0c8d0f8bf80e24078a74044741269d2c6ea09461216b6121528460409760081c16612dc0565b8383019061ff0082549160081b169061ff001916179055565b426003820155015460081c169060c081015161218681612a19565b61218f81612a19565b6121ba57602001516001600160a01b03165b82519182526001600160a01b03166020820152a2611f73565b8201516001600160a01b03166121a1565b905060ff8360181c16101538611c58565b634e487b7160e01b85526011600452602485fd5b6122216122058360028d015460101c16612dc0565b60028c019062ff000082549160101b169062ff00001916179055565b611bfc565b6001611b53565b634e487b7160e01b88526041600452602488fd5b60405162461bcd60e51b815260206004820152600d60248201526c24b73b30b634b2103837bbb2b960991b6044820152606490fd5b50600a60ff82161115611a9a565b60405162461bcd60e51b815260206004820152601660248201527510dbdd5b9d191bdddb881b9bdd08199a5b9a5cda195960521b6044820152606490fd5b50516122cd81612a19565b6122d681612a19565b15806122e6575b611a8390611a79565b5060408201516001600160a01b031633146122dd565b5060208301516001600160a01b03163314611a72565b600201546001600160a01b03163314905038611998565b50811515611969565b50346102ba57806003193601126102ba5761234b612ad4565b60015460ff8160a01c16156123935760ff60a01b19166001556040513381527f5db9ee0a495bf2e6ff9c91a7834c1ba4fdd244a5e8aa4e537bd38aeae4b073aa90602090a180f35b60405162461bcd60e51b815260206004820152601460248201527314185d5cd8589b194e881b9bdd081c185d5cd95960621b6044820152606490fd5b50346102ba57806003193601126102ba576020600b54604051908152f35b50346102ba57806003193601126102ba576020600a54604051908152f35b50346102ba5760203660031901126102ba57612436604061040f926004358152600860205220612953565b604051918291602083526020830190612854565b50346102ba576124593661280e565b90612462612ad4565b60105560115580f35b50346102ba57602080600319360112610cd75760043560095481108061263d575b61249590612c4a565b808352600282526040832061254d604051926124b0846128ce565b82548452858561251a60018060a01b03958660018201541697838101988952876002830154169760408201988952808080600386015416936060810194855261259b6040600560048901549860808501998a5201549a60a08401809c60ff9b8c9283831690612d70565b818160081c1661252981612a19565b60c0870152818160101c1661253d81612a19565b60e087015260181c169d8e612a19565b6101009d8e8501528c815260038b52209760036040519961256d8b612901565b80548b52612585836001830154169c8c019c8d612ddf565b600281015460408c015201541660608901612ddf565b519b511699511691511691519251935194600386101561262957519560068710156126295791612619969593916125e560408e8e9f61040f9e9f61260f9a98600892525220612953565b996040519d8e9d8e528d015260408c015260608b015260808a015260a089015260c0880190612824565b60e0860190612847565b6101208091850152830190612854565b634e487b7160e01b8c52602160045260248cfd5b5080151561248c565b50346102ba57602080600319360112610cd7576001600160a01b036126696127f3565b168252600781526040822060405192838383549182815201908193835284832090835b8181106126e057505050846126a2910385612931565b60405193838594850191818652518092526040850193925b8281106126c957505050500390f35b8351855286955093810193928101926001016126ba565b82548452928601926001928301920161268c565b50346102ba57806003193601126102ba57600e546040516001600160a01b039091168152602090f35b50346102ba5761272c3661280e565b90612735612ad4565b6103e8821161274757600a55600b5580f35b60405162461bcd60e51b815260206004820152600c60248201526b08ccaca40e8dede40d0d2ced60a31b6044820152606490fd5b50346102ba57806003193601126102ba576020601154604051908152f35b50346102ba5760403660031901126102ba576127b36127f3565b6024356001600160a01b038181169291839003610720576127d2612ad4565b6001600160601b0360a01b911681600c541617600c55600d541617600d5580f35b600435906001600160a01b038216820361280957565b600080fd5b6040906003190112612809576004359060243590565b9060038210156128315752565b634e487b7160e01b600052602160045260246000fd5b9060068210156128315752565b919082519283825260005b848110612880575050826000602080949584010152601f8019910116010190565b60208183018101518483018201520161285f565b90600182811c921680156128c4575b60208310146128ae57565b634e487b7160e01b600052602260045260246000fd5b91607f16916128a3565b610120810190811067ffffffffffffffff8211176128eb57604052565b634e487b7160e01b600052604160045260246000fd5b6080810190811067ffffffffffffffff8211176128eb57604052565b67ffffffffffffffff81116128eb57604052565b90601f8019910116810190811067ffffffffffffffff8211176128eb57604052565b906040519182600082549261296784612894565b9081845260019485811690816000146129d65750600114612993575b505061299192500383612931565b565b9093915060005260209081600020936000915b8183106129be57505061299193508201013880612983565b855488840185015294850194879450918301916129a6565b91505061299194506020925060ff191682840152151560051b8201013880612983565b6040906003190112612809576004359060243560ff811681036128095790565b6002111561283157565b9260ff606093969592966080860197612a3b81612a19565b8652166020850152151560408401526001600160a01b0316910152565b8054821015612a705760005260206000200190600090565b634e487b7160e01b600052603260045260246000fd5b95919460ff610100989581809681959e9d9c996101208c019f8c5260208c01521660408a01521660608801521660808601521660a084015260018060a01b031660c083015260e08201520152565b6001546001600160a01b03163303612ae857565b606460405162461bcd60e51b815260206004820152602060248201527f4f776e61626c653a2063616c6c6572206973206e6f7420746865206f776e65726044820152fd5b356001600160a01b03811681036128095790565b8054680100000000000000008110156128eb57612b6291600182018155612a58565b819291549060031b91821b91600019901b1916179055565b903590601e1981360301821215612809570180359067ffffffffffffffff82116128095760200191813603831361280957565b60ff60015460a01c16612bbc57565b60405162461bcd60e51b815260206004820152601060248201526f14185d5cd8589b194e881c185d5cd95960821b6044820152606490fd5b600260005414612c05576002600055565b60405162461bcd60e51b815260206004820152601f60248201527f5265656e7472616e637947756172643a207265656e7472616e742063616c6c006044820152606490fd5b15612c5157565b60405162461bcd60e51b815260206004820152601360248201527211d85b5948191bd95cc81b9bdd08195e1a5cdd606a1b6044820152606490fd5b15612c9357565b60405162461bcd60e51b8152602060048201526012602482015271496e76616c69642067616d6520737461746560701b6044820152606490fd5b90612cd781612a19565b63ff00000082549160181b169063ff0000001916179055565b90612cfa81612a19565b61ff0082549160081b169061ff001916179055565b90612d1981612a19565b62ff000082549160101b169062ff00001916179055565b15612d3757565b60405162461bcd60e51b81526020600482015260116024820152702737ba10309033b0b6b290383630bcb2b960791b6044820152606490fd5b60068210156128315752565b15612d8357565b60405162461bcd60e51b815260206004820152601560248201527404e6f7420796f7572207475726e20746f20666c697605c1b6044820152606490fd5b60ff1660ff81146113cf5760010190565b3560ff811681036128095790565b60038210156128315752565b9060038110156128315760ff80198354169116179055565b9081602091031261280957518015158103612809579056fea264697066735822122008deca6736fb1c38080642858ce3132f7d96fd01a984a50d9b456c501d42677764736f6c63430008140033",
  "linkReferences": {},
  "deployedLinkReferences": {}
}